{
  "_format": "hh-sol-artifact-1",
  "contractName": "MockDexPair",
  "sourceName": "contracts/mocks/MockDex.sol",
  "abi": [
    {
      "inputs": [
        {
          "internalType": "address",
          "name": "_token0",
          "type": "address"
        },
        {
          "internalType": "address",
          "name": "_token1",
          "type": "address"
        },
        {
          "internalType": "address",
          "name": "_token",
          "type": "address"
        },
        {
          "internalType": "address",
          "name": "_weth",
          "type": "address"
        },
        {
          "internalType": "address",
          "name": "_router",
          "type": "address"
        }
      ],
      "stateMutability": "nonpayable",
      "type": "constructor"
    },
    {
      "anonymous": false,
      "inputs": [
        {
          "indexed": true,
          "internalType": "address",
          "name": "from",
          "type": "address"
        },
        {
          "indexed": true,
          "internalType": "address",
          "name": "to",
          "type": "address"
        },
        {
          "indexed": false,
          "internalType": "uint256",
          "name": "value",
          "type": "uint256"
        }
      ],
      "name": "Transfer",
      "type": "event"
    },
    {
      "inputs": [
        {
          "internalType": "address",
          "name": "account",
          "type": "address"
        }
      ],
      "name": "balanceOf",
      "outputs": [
        {
          "internalType": "uint256",
          "name": "",
          "type": "uint256"
        }
      ],
      "stateMutability": "view",
      "type": "function"
    },
    {
      "inputs": [],
      "name": "decimals",
      "outputs": [
        {
          "internalType": "uint8",
          "name": "",
          "type": "uint8"
        }
      ],
      "stateMutability": "view",
      "type": "function"
    },
    {
      "inputs": [],
      "name": "ethLiquidity",
      "outputs": [
        {
          "internalType": "uint256",
          "name": "",
          "type": "uint256"
        }
      ],
      "stateMutability": "view",
      "type": "function"
    },
    {
      "inputs": [],
      "name": "getReserves",
      "outputs": [
        {
          "internalType": "uint112",
          "name": "reserve0",
          "type": "uint112"
        },
        {
          "internalType": "uint112",
          "name": "reserve1",
          "type": "uint112"
        },
        {
          "internalType": "uint32",
          "name": "blockTimestampLast",
          "type": "uint32"
        }
      ],
      "stateMutability": "view",
      "type": "function"
    },
    {
      "inputs": [],
      "name": "name",
      "outputs": [
        {
          "internalType": "string",
          "name": "",
          "type": "string"
        }
      ],
      "stateMutability": "view",
      "type": "function"
    },
    {
      "inputs": [
        {
          "internalType": "uint256",
          "name": "tokenAmount",
          "type": "uint256"
        },
        {
          "internalType": "address",
          "name": "lpRecipient",
          "type": "address"
        },
        {
          "internalType": "uint256",
          "name": "liquidity",
          "type": "uint256"
        }
      ],
      "name": "notifyLiquidity",
      "outputs": [],
      "stateMutability": "nonpayable",
      "type": "function"
    },
    {
      "inputs": [],
      "name": "router",
      "outputs": [
        {
          "internalType": "address",
          "name": "",
          "type": "address"
        }
      ],
      "stateMutability": "view",
      "type": "function"
    },
    {
      "inputs": [],
      "name": "symbol",
      "outputs": [
        {
          "internalType": "string",
          "name": "",
          "type": "string"
        }
      ],
      "stateMutability": "view",
      "type": "function"
    },
    {
      "inputs": [],
      "name": "token",
      "outputs": [
        {
          "internalType": "address",
          "name": "",
          "type": "address"
        }
      ],
      "stateMutability": "view",
      "type": "function"
    },
    {
      "inputs": [],
      "name": "token0",
      "outputs": [
        {
          "internalType": "address",
          "name": "",
          "type": "address"
        }
      ],
      "stateMutability": "view",
      "type": "function"
    },
    {
      "inputs": [],
      "name": "token1",
      "outputs": [
        {
          "internalType": "address",
          "name": "",
          "type": "address"
        }
      ],
      "stateMutability": "view",
      "type": "function"
    },
    {
      "inputs": [],
      "name": "tokenLiquidity",
      "outputs": [
        {
          "internalType": "uint256",
          "name": "",
          "type": "uint256"
        }
      ],
      "stateMutability": "view",
      "type": "function"
    },
    {
      "inputs": [],
      "name": "totalSupply",
      "outputs": [
        {
          "internalType": "uint256",
          "name": "",
          "type": "uint256"
        }
      ],
      "stateMutability": "view",
      "type": "function"
    },
    {
      "inputs": [
        {
          "internalType": "address",
          "name": "to",
          "type": "address"
        },
        {
          "internalType": "uint256",
          "name": "amount",
          "type": "uint256"
        }
      ],
      "name": "transfer",
      "outputs": [
        {
          "internalType": "bool",
          "name": "",
          "type": "bool"
        }
      ],
      "stateMutability": "nonpayable",
      "type": "function"
    },
    {
      "inputs": [],
      "name": "weth",
      "outputs": [
        {
          "internalType": "address",
          "name": "",
          "type": "address"
        }
      ],
      "stateMutability": "view",
      "type": "function"
    },
    {
      "stateMutability": "payable",
      "type": "receive"
    }
  ],
  "bytecode": "0x610120346100f057601f61092138819003918201601f19168301916001600160401b038311848410176100f55780849260a0946040528339810103126100f0576100488161010b565b906100556020820161010b565b6100616040830161010b565b9061007a60806100736060860161010b565b940161010b565b9360805260a05260c05260e0526101009081526040516108019182610120833960805182818161055e01526105a5015260a0518281816102c40152610674015260c05182818161023801526105d1015260e0518281816104df015261065101525181818160250152818161014501526102800152f35b600080fd5b634e487b7160e01b600052604160045260246000fd5b51906001600160a01b03821682036100f05756fe60806040818152600480361015610064575b505050361561001f57600080fd5b610053337f00000000000000000000000000000000000000000000000000000000000000006001600160a01b031614610791565b61005f3460015461076e565b600155005b600092833560e01c90816301809a32146106ee5750806306fdde031461069b5780630902f1ac1461058d5780630dfe16811461054957806318160ddd1461052a578063313ce5671461050e5780633fc8cef3146104ca578063478aa284146104ad57806370a082311461047557806395d89b411461040f578063a9059cbb146102f3578063d21220a7146102af578063f887ea401461026b578063fc0c546a146102235763fc11279403610011573461021f57606036600319011261021f576001600160a01b036024358181169391929084900361021b5761016c604435937f0000000000000000000000000000000000000000000000000000000000000000163314610791565b83156101e4579061018185939235845461076e565b83558161018c578280f35b816020916101bd7fddf252ad1be2c89b69c2b068fc378daa952ba7f163c4a11628f55a4df523b3ef9460025461076e565b600255858552600383528085206101d583825461076e565b905551908152a3388181808280f35b6020606492519162461bcd60e51b835282015260126024820152711c9958da5c1a595b9d081c995c5d5a5c995960721b6044820152fd5b8480fd5b8280fd5b505034610267578160031936011261026757517f00000000000000000000000000000000000000000000000000000000000000006001600160a01b03168152602090f35b5080fd5b505034610267578160031936011261026757517f00000000000000000000000000000000000000000000000000000000000000006001600160a01b03168152602090f35b505034610267578160031936011261026757517f00000000000000000000000000000000000000000000000000000000000000006001600160a01b03168152602090f35b50913461040c578160031936011261040c5761030d610753565b6001600160a01b0316906024359082156103da573381526003602052838120548281106103a557828103908111610392576020955090849133825260038752828220558381522061035f82825461076e565b905582519081527fddf252ad1be2c89b69c2b068fc378daa952ba7f163c4a11628f55a4df523b3ef843392a35160018152f35b634e487b7160e01b825260118652602482fd5b845162461bcd60e51b8152602081880152600f60248201526e62616c616e636520746f6f206c6f7760881b6044820152606490fd5b835162461bcd60e51b8152602081870152600c60248201526b7a65726f206164647265737360a01b6044820152606490fd5b80fd5b509190346102675781600319360112610267578051918183019083821067ffffffffffffffff831117610462575061045e93508152600382526204d4c560ec1b6020830152519182918261070a565b0390f35b634e487b7160e01b815260418552602490fd5b5050346102675760203660031901126102675760209181906001600160a01b0361049d610753565b1681526003845220549051908152f35b505034610267578160031936011261026757602091549051908152f35b505034610267578160031936011261026757517f00000000000000000000000000000000000000000000000000000000000000006001600160a01b03168152602090f35b5050346102675781600319360112610267576020905160128152f35b5050346102675781600319360112610267576020906002549051908152f35b505034610267578160031936011261026757517f00000000000000000000000000000000000000000000000000000000000000006001600160a01b03168152602090f35b505034610267578160031936011261026757606091907f00000000000000000000000000000000000000000000000000000000000000006001600160a01b039081167f0000000000000000000000000000000000000000000000000000000000000000821614908161064c575b5015610636576001600160701b03809254169160015416915b8151926001600160701b03809216845216602083015263ffffffff421690820152f35b6001600160701b03806001541692541691610613565b8091507f000000000000000000000000000000000000000000000000000000000000000016907f00000000000000000000000000000000000000000000000000000000000000001614386105fa565b509190346102675781600319360112610267578051918183019083821067ffffffffffffffff831117610462575061045e93508152600782526604d6f636b204c560cc1b6020830152519182918261070a565b8490346102675781600319360112610267576020906001548152f35b6020808252825181830181905290939260005b82811061073f57505060409293506000838284010152601f8019910116010190565b81810186015184820160400152850161071d565b600435906001600160a01b038216820361076957565b600080fd5b9190820180921161077b57565b634e487b7160e01b600052601160045260246000fd5b1561079857565b60405162461bcd60e51b815260206004820152600b60248201526a37b7363c903937baba32b960a91b6044820152606490fdfea2646970667358221220cf4767faf61928c367d8819079357275b99a61bd202286a95739433a905506e864736f6c63430008180033",
  "linkReferences": {},
  "deployedLinkReferences": {}
}