{
  "_format": "hh-sol-artifact-1",
  "contractName": "MockV3PositionManager",
  "sourceName": "contracts/mocks/MockDex.sol",
  "abi": [
    {
      "inputs": [
        {
          "internalType": "address",
          "name": "_weth",
          "type": "address"
        }
      ],
      "stateMutability": "nonpayable",
      "type": "constructor"
    },
    {
      "anonymous": false,
      "inputs": [
        {
          "indexed": true,
          "internalType": "address",
          "name": "from",
          "type": "address"
        },
        {
          "indexed": true,
          "internalType": "address",
          "name": "to",
          "type": "address"
        },
        {
          "indexed": true,
          "internalType": "uint256",
          "name": "tokenId",
          "type": "uint256"
        }
      ],
      "name": "Transfer",
      "type": "event"
    },
    {
      "inputs": [],
      "name": "WETH9",
      "outputs": [
        {
          "internalType": "address",
          "name": "",
          "type": "address"
        }
      ],
      "stateMutability": "view",
      "type": "function"
    },
    {
      "inputs": [
        {
          "internalType": "address",
          "name": "token0",
          "type": "address"
        },
        {
          "internalType": "address",
          "name": "token1",
          "type": "address"
        },
        {
          "internalType": "uint24",
          "name": "fee",
          "type": "uint24"
        },
        {
          "internalType": "uint160",
          "name": "sqrtPriceX96",
          "type": "uint160"
        }
      ],
      "name": "createAndInitializePoolIfNecessary",
      "outputs": [
        {
          "internalType": "address",
          "name": "pool",
          "type": "address"
        }
      ],
      "stateMutability": "payable",
      "type": "function"
    },
    {
      "inputs": [
        {
          "components": [
            {
              "internalType": "address",
              "name": "token0",
              "type": "address"
            },
            {
              "internalType": "address",
              "name": "token1",
              "type": "address"
            },
            {
              "internalType": "uint24",
              "name": "fee",
              "type": "uint24"
            },
            {
              "internalType": "int24",
              "name": "tickLower",
              "type": "int24"
            },
            {
              "internalType": "int24",
              "name": "tickUpper",
              "type": "int24"
            },
            {
              "internalType": "uint256",
              "name": "amount0Desired",
              "type": "uint256"
            },
            {
              "internalType": "uint256",
              "name": "amount1Desired",
              "type": "uint256"
            },
            {
              "internalType": "uint256",
              "name": "amount0Min",
              "type": "uint256"
            },
            {
              "internalType": "uint256",
              "name": "amount1Min",
              "type": "uint256"
            },
            {
              "internalType": "address",
              "name": "recipient",
              "type": "address"
            },
            {
              "internalType": "uint256",
              "name": "deadline",
              "type": "uint256"
            }
          ],
          "internalType": "struct MockV3PositionManager.MintParams",
          "name": "params",
          "type": "tuple"
        }
      ],
      "name": "mint",
      "outputs": [
        {
          "internalType": "uint256",
          "name": "tokenId",
          "type": "uint256"
        },
        {
          "internalType": "uint128",
          "name": "liquidity",
          "type": "uint128"
        },
        {
          "internalType": "uint256",
          "name": "amount0",
          "type": "uint256"
        },
        {
          "internalType": "uint256",
          "name": "amount1",
          "type": "uint256"
        }
      ],
      "stateMutability": "payable",
      "type": "function"
    },
    {
      "inputs": [],
      "name": "nextTokenId",
      "outputs": [
        {
          "internalType": "uint256",
          "name": "",
          "type": "uint256"
        }
      ],
      "stateMutability": "view",
      "type": "function"
    },
    {
      "inputs": [
        {
          "internalType": "uint256",
          "name": "tokenId",
          "type": "uint256"
        }
      ],
      "name": "ownerOf",
      "outputs": [
        {
          "internalType": "address",
          "name": "owner",
          "type": "address"
        }
      ],
      "stateMutability": "view",
      "type": "function"
    },
    {
      "inputs": [
        {
          "internalType": "bytes32",
          "name": "key",
          "type": "bytes32"
        }
      ],
      "name": "pools",
      "outputs": [
        {
          "internalType": "address",
          "name": "pool",
          "type": "address"
        }
      ],
      "stateMutability": "view",
      "type": "function"
    },
    {
      "inputs": [
        {
          "internalType": "address",
          "name": "from",
          "type": "address"
        },
        {
          "internalType": "address",
          "name": "to",
          "type": "address"
        },
        {
          "internalType": "uint256",
          "name": "tokenId",
          "type": "uint256"
        }
      ],
      "name": "transferFrom",
      "outputs": [],
      "stateMutability": "nonpayable",
      "type": "function"
    }
  ],
  "bytecode": "0x60a0346100aa57601f610c2138819003918201601f19168301916001600160401b038311848410176100af578084926020946040528339810103126100aa57516001600160a01b0381168082036100aa5760016000551561007557608052604051610b5b90816100c682396080518161047e0152f35b60405162461bcd60e51b815260206004820152600d60248201526c1dd95d1a081c995c5d5a5c9959609a1b6044820152606490fd5b600080fd5b634e487b7160e01b600052604160045260246000fdfe6040608081526004908136101561001557600080fd5b600091823560e01c806313ead562146105a157806323b872dd146104ad5780634aa4a4fc146104695780636352211e1461043757806375794a3c1461041a57806388316456146100a35763b5217bb41461006e57600080fd5b3461009f57602036600319011261009f5735825260016020908152918190205490516001600160a01b039091168152f35b8280fd5b509190610160366003190112610416576001600160a01b0390816100c56106ed565b16156103df576100d3610704565b6100db61071a565b6044359162ffffff831683036103db57906100f69291610780565b83526020906001825282818520541680156103a85760a4359260c4359484151580610327575b8661024e575b1561024857845b6fffffffffffffffffffffffffffffffff90818111156102435750805b1692803b1561023f57878460248b838951958694859363384f4ca960e11b85528401525af1801561023557610207575b5086549060001982146101f4576080985081906001820189556101976106ed565b828a526002855281878b2091166001600160601b0360a01b8254161790556101bd6106ed565b168551987fddf252ad1be2c89b69c2b068fc378daa952ba7f163c4a11628f55a4df523b3ef8180a486528501528301526060820152f35b634e487b7160e01b885260118952602488fd5b67ffffffffffffffff81989298116102225784529538610176565b634e487b7160e01b825260418952602482fd5b85513d8a823e3d90fd5b8780fd5b610146565b85610129565b61029d83888b878c8761025f61071a565b8c516323b872dd60e01b8152339581019586526001600160a01b03909416602086015260408501959095529195869492909216928492839160600190565b03925af190811561031d5789916102f0575b5061012257845162461bcd60e51b8152808a0184905260166024820152751d1bdad95b8c481d1c985b9cd9995c8819985a5b195960521b6044820152606490fd5b6103109150843d8611610316575b6103088183610730565b810190610768565b386102af565b503d6102fe565b86513d8b823e3d90fd5b61033883878b878c8761025f610704565b03925af190811561031d57899161038b575b5061011c57845162461bcd60e51b8152808a0184905260166024820152751d1bdad95b8c081d1c985b9cd9995c8819985a5b195960521b6044820152606490fd5b6103a29150843d8611610316576103088183610730565b3861034a565b815162461bcd60e51b8152808701849052600d60248201526c1c1bdbdb081c995c5d5a5c9959609a1b6044820152606490fd5b8580fd5b5162461bcd60e51b815260208185015260126024820152711c9958da5c1a595b9d081c995c5d5a5c995960721b6044820152606490fd5b5080fd5b505034610416578160031936011261041657602091549051908152f35b503461009f57602036600319011261009f5735825260026020908152918190205490516001600160a01b039091168152f35b505034610416578160031936011261041657517f00000000000000000000000000000000000000000000000000000000000000006001600160a01b03168152602090f35b503461009f57606036600319011261009f576104c76106bc565b6104cf6106d7565b9160443593848652600260205260018060a01b039182808389205416941680940361057357833303610542575084865260026020528520921691826001600160601b0360a01b8254161790557fddf252ad1be2c89b69c2b068fc378daa952ba7f163c4a11628f55a4df523b3ef8480a480f35b6020606492519162461bcd60e51b8352820152600c60248201526b1b9bdd08185c1c1c9bdd995960a21b6044820152fd5b6020606492519162461bcd60e51b835282015260096024820152683737ba1037bbb732b960b91b6044820152fd5b5090608036600319011261009f576105b76106bc565b906105c06106d7565b926044359262ffffff8416918285036106b8576001600160a01b039460643586811691908290036106b4576105f6908885610780565b93848952600160205286868a205416978815610619575b60208989895191168152f35b909192939497508551946103598087019587871067ffffffffffffffff8811176106a1575086949289608097959381936107cd893916855216602084015286830152606082015203019085f0801561069757602094838392169481526001865220836001600160601b0360a01b82541617905538808080808061060d565b81513d86823e3d90fd5b634e487b7160e01b8c526041905260248bfd5b8880fd5b8680fd5b600435906001600160a01b03821682036106d257565b600080fd5b602435906001600160a01b03821682036106d257565b610124356001600160a01b03811681036106d25790565b6004356001600160a01b03811681036106d25790565b6024356001600160a01b03811681036106d25790565b90601f8019910116810190811067ffffffffffffffff82111761075257604052565b634e487b7160e01b600052604160045260246000fd5b908160209103126106d2575180151581036106d25790565b909162ffffff9060405192602084019460018060a01b038092168652166040840152166060820152606081526080810181811067ffffffffffffffff821117610752576040525190209056fe60e0346100c257601f61035938819003918201601f19168301916001600160401b038311848410176100c7578084926080946040528339810103126100c257610047816100dd565b90610054602082016100dd565b60408201519162ffffff831683036100c257606001516001600160a01b03811693908490036100c25760805260a05260c052600080546001600160a01b03191691909117905560405161026790816100f2823960805181610202015260a0518160c5015260c0518160890152f35b600080fd5b634e487b7160e01b600052604160045260246000fd5b51906001600160a01b03821682036100c25756fe60806040818152600436101561001457600080fd5b600091823560e01c9081630dfe1681146101ee575080631a686502146101c75780633850c7bd1461017f578063709e99521461011b5780638db791d2146100f4578063d21220a7146100b15763ddca3f431461006f57600080fd5b346100ad57816003193601126100ad576020905162ffffff7f0000000000000000000000000000000000000000000000000000000000000000168152f35b5080fd5b50346100ad57816003193601126100ad57517f00000000000000000000000000000000000000000000000000000000000000006001600160a01b03168152602090f35b50346100ad57816003193601126100ad57905490516001600160a01b039091168152602090f35b823461017c57602036600319011261017c576004356001600160801b038082168092036101785760015491818316018181116101645716906001600160801b0319161760015580f35b634e487b7160e01b84526011600452602484fd5b8280fd5b80fd5b50346100ad57816003193601126100ad578160e09260018060a01b0381541692805193845281602085015283015280606083015280608083015260a0820152600160c0820152f35b50346100ad57816003193601126100ad576020906001600160801b03600154169051908152f35b8390346100ad57816003193601126100ad577f00000000000000000000000000000000000000000000000000000000000000006001600160a01b03168152602090f3fea26469706673582212204b35bc21dbb48482ced70a17cb0def59da1066bd29d9823384a63711fb61e28864736f6c63430008180033a2646970667358221220239eb97693252bd59471b0945cd41f806bf32228c25dd6d94432537982c52f6f64736f6c63430008180033",
  "linkReferences": {},
  "deployedLinkReferences": {}
}