{
  "_format": "hh-sol-artifact-1",
  "contractName": "MockQuoteToken",
  "sourceName": "contracts/mocks/MockDex.sol",
  "abi": [
    {
      "inputs": [
        {
          "internalType": "address",
          "name": "account",
          "type": "address"
        }
      ],
      "name": "balanceOf",
      "outputs": [
        {
          "internalType": "uint256",
          "name": "",
          "type": "uint256"
        }
      ],
      "stateMutability": "view",
      "type": "function"
    },
    {
      "inputs": [],
      "name": "decimals",
      "outputs": [
        {
          "internalType": "uint8",
          "name": "",
          "type": "uint8"
        }
      ],
      "stateMutability": "view",
      "type": "function"
    },
    {
      "inputs": [
        {
          "internalType": "address",
          "name": "to",
          "type": "address"
        },
        {
          "internalType": "uint256",
          "name": "amount",
          "type": "uint256"
        }
      ],
      "name": "mint",
      "outputs": [],
      "stateMutability": "nonpayable",
      "type": "function"
    },
    {
      "inputs": [],
      "name": "name",
      "outputs": [
        {
          "internalType": "string",
          "name": "",
          "type": "string"
        }
      ],
      "stateMutability": "view",
      "type": "function"
    },
    {
      "inputs": [],
      "name": "symbol",
      "outputs": [
        {
          "internalType": "string",
          "name": "",
          "type": "string"
        }
      ],
      "stateMutability": "view",
      "type": "function"
    }
  ],
  "bytecode": "0x6080806040523461001657610250908161001c8239f35b600080fdfe60806040818152600436101561001457600080fd5b600091823560e01c90816306fdde031461016257508063313ce5671461014757806340c10f19146100f657806370a08231146100c0576395d89b411461005957600080fd5b346100bc57816003193601126100bc5780519080820182811067ffffffffffffffff8211176100a8576100a49350815260048252630ae8aa8960e31b602083015251918291826101b6565b0390f35b634e487b7160e01b84526041600452602484fd5b5080fd5b50346100bc5760203660031901126100bc5760209181906001600160a01b036100e76101ff565b16815280845220549051908152f35b50346100bc57806003193601126100bc576001600160a01b036101176101ff565b1682528160205281208054906024358201809211610133575580f35b634e487b7160e01b83526011600452602483fd5b50346100bc57816003193601126100bc576020905160128152f35b919050346101b257826003193601126101b25780820182811067ffffffffffffffff8211176100a8576100a493508152600982526809adec6d640ae8aa8960bb1b602083015251918291826101b6565b8280fd5b6020808252825181830181905290939260005b8281106101eb57505060409293506000838284010152601f8019910116010190565b8181018601518482016040015285016101c9565b600435906001600160a01b038216820361021557565b600080fdfea2646970667358221220ae52ce36e941ba974cb7a215a9cfd30e2b3998cf05133778756f0017970e2c1c64736f6c63430008180033",
  "linkReferences": {},
  "deployedLinkReferences": {}
}