{
  "_format": "hh-sol-artifact-1",
  "contractName": "MockV3Pool",
  "sourceName": "contracts/mocks/MockDex.sol",
  "abi": [
    {
      "inputs": [
        {
          "internalType": "address",
          "name": "_token0",
          "type": "address"
        },
        {
          "internalType": "address",
          "name": "_token1",
          "type": "address"
        },
        {
          "internalType": "uint24",
          "name": "_fee",
          "type": "uint24"
        },
        {
          "internalType": "uint160",
          "name": "_sqrtPriceX96",
          "type": "uint160"
        }
      ],
      "stateMutability": "nonpayable",
      "type": "constructor"
    },
    {
      "inputs": [
        {
          "internalType": "uint128",
          "name": "amount",
          "type": "uint128"
        }
      ],
      "name": "addLiquidity",
      "outputs": [],
      "stateMutability": "nonpayable",
      "type": "function"
    },
    {
      "inputs": [],
      "name": "fee",
      "outputs": [
        {
          "internalType": "uint24",
          "name": "",
          "type": "uint24"
        }
      ],
      "stateMutability": "view",
      "type": "function"
    },
    {
      "inputs": [],
      "name": "liquidity",
      "outputs": [
        {
          "internalType": "uint128",
          "name": "",
          "type": "uint128"
        }
      ],
      "stateMutability": "view",
      "type": "function"
    },
    {
      "inputs": [],
      "name": "slot0",
      "outputs": [
        {
          "internalType": "uint160",
          "name": "",
          "type": "uint160"
        },
        {
          "internalType": "int24",
          "name": "",
          "type": "int24"
        },
        {
          "internalType": "uint16",
          "name": "",
          "type": "uint16"
        },
        {
          "internalType": "uint16",
          "name": "",
          "type": "uint16"
        },
        {
          "internalType": "uint16",
          "name": "",
          "type": "uint16"
        },
        {
          "internalType": "uint8",
          "name": "",
          "type": "uint8"
        },
        {
          "internalType": "bool",
          "name": "",
          "type": "bool"
        }
      ],
      "stateMutability": "view",
      "type": "function"
    },
    {
      "inputs": [],
      "name": "sqrtPriceX96",
      "outputs": [
        {
          "internalType": "uint160",
          "name": "",
          "type": "uint160"
        }
      ],
      "stateMutability": "view",
      "type": "function"
    },
    {
      "inputs": [],
      "name": "token0",
      "outputs": [
        {
          "internalType": "address",
          "name": "",
          "type": "address"
        }
      ],
      "stateMutability": "view",
      "type": "function"
    },
    {
      "inputs": [],
      "name": "token1",
      "outputs": [
        {
          "internalType": "address",
          "name": "",
          "type": "address"
        }
      ],
      "stateMutability": "view",
      "type": "function"
    }
  ],
  "bytecode": "0x60e0346100c257601f61035938819003918201601f19168301916001600160401b038311848410176100c7578084926080946040528339810103126100c257610047816100dd565b90610054602082016100dd565b60408201519162ffffff831683036100c257606001516001600160a01b03811693908490036100c25760805260a05260c052600080546001600160a01b03191691909117905560405161026790816100f2823960805181610202015260a0518160c5015260c0518160890152f35b600080fd5b634e487b7160e01b600052604160045260246000fd5b51906001600160a01b03821682036100c25756fe60806040818152600436101561001457600080fd5b600091823560e01c9081630dfe1681146101ee575080631a686502146101c75780633850c7bd1461017f578063709e99521461011b5780638db791d2146100f4578063d21220a7146100b15763ddca3f431461006f57600080fd5b346100ad57816003193601126100ad576020905162ffffff7f0000000000000000000000000000000000000000000000000000000000000000168152f35b5080fd5b50346100ad57816003193601126100ad57517f00000000000000000000000000000000000000000000000000000000000000006001600160a01b03168152602090f35b50346100ad57816003193601126100ad57905490516001600160a01b039091168152602090f35b823461017c57602036600319011261017c576004356001600160801b038082168092036101785760015491818316018181116101645716906001600160801b0319161760015580f35b634e487b7160e01b84526011600452602484fd5b8280fd5b80fd5b50346100ad57816003193601126100ad578160e09260018060a01b0381541692805193845281602085015283015280606083015280608083015260a0820152600160c0820152f35b50346100ad57816003193601126100ad576020906001600160801b03600154169051908152f35b8390346100ad57816003193601126100ad577f00000000000000000000000000000000000000000000000000000000000000006001600160a01b03168152602090f3fea26469706673582212204b35bc21dbb48482ced70a17cb0def59da1066bd29d9823384a63711fb61e28864736f6c63430008180033",
  "linkReferences": {},
  "deployedLinkReferences": {}
}