{
  "_format": "hh-sol-artifact-1",
  "contractName": "MockDexRouter",
  "sourceName": "contracts/mocks/MockDex.sol",
  "abi": [
    {
      "inputs": [
        {
          "internalType": "address",
          "name": "_weth",
          "type": "address"
        }
      ],
      "stateMutability": "nonpayable",
      "type": "constructor"
    },
    {
      "inputs": [],
      "name": "WETH",
      "outputs": [
        {
          "internalType": "address",
          "name": "",
          "type": "address"
        }
      ],
      "stateMutability": "view",
      "type": "function"
    },
    {
      "inputs": [
        {
          "internalType": "address",
          "name": "token",
          "type": "address"
        },
        {
          "internalType": "uint256",
          "name": "amountTokenDesired",
          "type": "uint256"
        },
        {
          "internalType": "uint256",
          "name": "",
          "type": "uint256"
        },
        {
          "internalType": "uint256",
          "name": "",
          "type": "uint256"
        },
        {
          "internalType": "address",
          "name": "to",
          "type": "address"
        },
        {
          "internalType": "uint256",
          "name": "",
          "type": "uint256"
        }
      ],
      "name": "addLiquidityETH",
      "outputs": [
        {
          "internalType": "uint256",
          "name": "amountToken",
          "type": "uint256"
        },
        {
          "internalType": "uint256",
          "name": "amountETH",
          "type": "uint256"
        },
        {
          "internalType": "uint256",
          "name": "liquidity",
          "type": "uint256"
        }
      ],
      "stateMutability": "payable",
      "type": "function"
    },
    {
      "inputs": [],
      "name": "factory",
      "outputs": [
        {
          "internalType": "address",
          "name": "",
          "type": "address"
        }
      ],
      "stateMutability": "view",
      "type": "function"
    }
  ],
  "bytecode": "0x60c03461010d576001600160401b0390601f6111d738819003918201601f1916830191848311848410176100c25780849260209460405283398101031261010d57516001600160a01b03919082811680820361010d57156100d85760805260405190610c1890818301908111838210176100c25782916105bf833903906000f080156100b6571660a0526040516104ac9081610113823960805181818160b301526103eb015260a051818181607d01526103a80152f35b6040513d6000823e3d90fd5b634e487b7160e01b600052604160045260246000fd5b60405162461bcd60e51b815260206004820152600d60248201526c1dd95d1a081c995c5d5a5c9959609a1b6044820152606490fd5b600080fdfe608060409080825260048036101561001657600080fd5b600091823560e01c908163ad5c4648146103d757508063c45a0155146103935763f305d7191461004557600080fd5b60c036600319011261038f576001600160a01b039281358481169081900361038b5760249283359360843587811680910361038757877f0000000000000000000000000000000000000000000000000000000000000000169685519163e6a4390560e01b83528585840152897f00000000000000000000000000000000000000000000000000000000000000001695868585015260209660449a88868d81845afa95861561037d57859661035e575b508c8616156102e4575b505097868a9b829b9a8a519384926323b872dd60e01b8452338b85015288169c8d8a85015283015281865a92606493f19081156102da5783916102a4575b501561026b57348910156102645788975b803b1561026057896064878580948f8e908e519889978896633f0449e560e21b88528701528c8601528401525af180156102565761022d575b50808080809434905af1903d15610227573d9067ffffffffffffffff8211610215578651916101be601f8201601f191688018461041a565b8252853d92013e5b156101e05750506060945081519384523490840152820152f35b86601372195d1a081d1c985b9cd9995c8819985a5b1959606a1b9260649587519562461bcd60e51b8752860152840152820152fd5b634e487b7160e01b8152604185528390fd5b506101c6565b67ffffffffffffffff811161024457865238610186565b634e487b7160e01b8252604185528382fd5b87513d84823e3d90fd5b8280fd5b349761014d565b865162461bcd60e51b8152808601879052601581860152741d1bdad95b881d1c985b9cd9995c8819985a5b1959605a1b818c0152606490fd5b90508681813d83116102d3575b6102bb818361041a565b8101031261026057518015158103610260573861013c565b503d6102b1565b88513d85823e3d90fd5b82955091606488868b94958f8e519788968795630edef2e760e31b87528601528c85015230908401525af19081156102da578a9b8a9b9a9289928691610331575b509592509b9a996100fe565b6103519150833d8511610357575b610349818361041a565b810190610452565b38610325565b503d61033f565b610376919650893d8b1161035757610349818361041a565b94386100f4565b8a513d87823e3d90fd5b8680fd5b8380fd5b5080fd5b82843461038f578160031936011261038f57517f00000000000000000000000000000000000000000000000000000000000000006001600160a01b03168152602090f35b83903461038f578160031936011261038f577f00000000000000000000000000000000000000000000000000000000000000006001600160a01b03168152602090f35b90601f8019910116810190811067ffffffffffffffff82111761043c57604052565b634e487b7160e01b600052604160045260246000fd5b9081602091031261047157516001600160a01b03811681036104715790565b600080fdfea26469706673582212208408129e1d8934c0662eb11e5cd6d2da0333913f00cee2d32720b0dcd57d34c964736f6c634300081800336080806040523461001657610bfc908161001c8239f35b600080fdfe6080604081815260048036101561001557600080fd5b600092833560e01c91826376f797381461008757505063e6a439051461003a57600080fd5b3461008357806003193601126100835760209181610056610274565b9161005f61028f565b6001600160a01b039384168252818652828220908416825285522054915191168152f35b5080fd5b83859134610270576060366003190112610270576100a3610274565b936100ac61028f565b916001600160a01b036044358181169391929084900361026c57828516978381169289841461023f5750888310156102375783905b1693841561020d57848852602098888a5284888a20971696878a528a5284888a2054166101e1578751936109218086019486861067ffffffffffffffff8711176101ce57509185939160a095936102a68639888452898d8501528a8401526060830152608082015203019086f080156101c457169381815280865283812083825286528484808320926bffffffffffffffffffffffff60a01b938385825416179055808952818120858252895220918254161790557fa92a2b95c8d8436f6ac4c673c61487364f877efb9534d4296fad8ef904546c94858451868152a351908152f35b84513d87823e3d90fd5b634e487b7160e01b8c526041905260248bfd5b875162461bcd60e51b81528084018b9052600660248201526565786973747360d01b6044820152606490fd5b865162461bcd60e51b815260208184015260248101839052637a65726f60e01b6044820152606490fd5b9483906100e1565b62461bcd60e51b815260208382015260096024820152681a59195b9d1a58d85b60ba1b6044820152606490fd5b8680fd5b8280fd5b600435906001600160a01b038216820361028a57565b600080fd5b602435906001600160a01b038216820361028a5756fe610120346100f057601f61092138819003918201601f19168301916001600160401b038311848410176100f55780849260a0946040528339810103126100f0576100488161010b565b906100556020820161010b565b6100616040830161010b565b9061007a60806100736060860161010b565b940161010b565b9360805260a05260c05260e0526101009081526040516108019182610120833960805182818161055e01526105a5015260a0518281816102c40152610674015260c05182818161023801526105d1015260e0518281816104df015261065101525181818160250152818161014501526102800152f35b600080fd5b634e487b7160e01b600052604160045260246000fd5b51906001600160a01b03821682036100f05756fe60806040818152600480361015610064575b505050361561001f57600080fd5b610053337f00000000000000000000000000000000000000000000000000000000000000006001600160a01b031614610791565b61005f3460015461076e565b600155005b600092833560e01c90816301809a32146106ee5750806306fdde031461069b5780630902f1ac1461058d5780630dfe16811461054957806318160ddd1461052a578063313ce5671461050e5780633fc8cef3146104ca578063478aa284146104ad57806370a082311461047557806395d89b411461040f578063a9059cbb146102f3578063d21220a7146102af578063f887ea401461026b578063fc0c546a146102235763fc11279403610011573461021f57606036600319011261021f576001600160a01b036024358181169391929084900361021b5761016c604435937f0000000000000000000000000000000000000000000000000000000000000000163314610791565b83156101e4579061018185939235845461076e565b83558161018c578280f35b816020916101bd7fddf252ad1be2c89b69c2b068fc378daa952ba7f163c4a11628f55a4df523b3ef9460025461076e565b600255858552600383528085206101d583825461076e565b905551908152a3388181808280f35b6020606492519162461bcd60e51b835282015260126024820152711c9958da5c1a595b9d081c995c5d5a5c995960721b6044820152fd5b8480fd5b8280fd5b505034610267578160031936011261026757517f00000000000000000000000000000000000000000000000000000000000000006001600160a01b03168152602090f35b5080fd5b505034610267578160031936011261026757517f00000000000000000000000000000000000000000000000000000000000000006001600160a01b03168152602090f35b505034610267578160031936011261026757517f00000000000000000000000000000000000000000000000000000000000000006001600160a01b03168152602090f35b50913461040c578160031936011261040c5761030d610753565b6001600160a01b0316906024359082156103da573381526003602052838120548281106103a557828103908111610392576020955090849133825260038752828220558381522061035f82825461076e565b905582519081527fddf252ad1be2c89b69c2b068fc378daa952ba7f163c4a11628f55a4df523b3ef843392a35160018152f35b634e487b7160e01b825260118652602482fd5b845162461bcd60e51b8152602081880152600f60248201526e62616c616e636520746f6f206c6f7760881b6044820152606490fd5b835162461bcd60e51b8152602081870152600c60248201526b7a65726f206164647265737360a01b6044820152606490fd5b80fd5b509190346102675781600319360112610267578051918183019083821067ffffffffffffffff831117610462575061045e93508152600382526204d4c560ec1b6020830152519182918261070a565b0390f35b634e487b7160e01b815260418552602490fd5b5050346102675760203660031901126102675760209181906001600160a01b0361049d610753565b1681526003845220549051908152f35b505034610267578160031936011261026757602091549051908152f35b505034610267578160031936011261026757517f00000000000000000000000000000000000000000000000000000000000000006001600160a01b03168152602090f35b5050346102675781600319360112610267576020905160128152f35b5050346102675781600319360112610267576020906002549051908152f35b505034610267578160031936011261026757517f00000000000000000000000000000000000000000000000000000000000000006001600160a01b03168152602090f35b505034610267578160031936011261026757606091907f00000000000000000000000000000000000000000000000000000000000000006001600160a01b039081167f0000000000000000000000000000000000000000000000000000000000000000821614908161064c575b5015610636576001600160701b03809254169160015416915b8151926001600160701b03809216845216602083015263ffffffff421690820152f35b6001600160701b03806001541692541691610613565b8091507f000000000000000000000000000000000000000000000000000000000000000016907f00000000000000000000000000000000000000000000000000000000000000001614386105fa565b509190346102675781600319360112610267578051918183019083821067ffffffffffffffff831117610462575061045e93508152600782526604d6f636b204c560cc1b6020830152519182918261070a565b8490346102675781600319360112610267576020906001548152f35b6020808252825181830181905290939260005b82811061073f57505060409293506000838284010152601f8019910116010190565b81810186015184820160400152850161071d565b600435906001600160a01b038216820361076957565b600080fd5b9190820180921161077b57565b634e487b7160e01b600052601160045260246000fd5b1561079857565b60405162461bcd60e51b815260206004820152600b60248201526a37b7363c903937baba32b960a91b6044820152606490fdfea2646970667358221220cf4767faf61928c367d8819079357275b99a61bd202286a95739433a905506e864736f6c63430008180033a26469706673582212204f9fa43ce7d74f52157643452c142a672632230998ce25755f7066487c54355064736f6c63430008180033",
  "linkReferences": {},
  "deployedLinkReferences": {}
}