{"contracts/MemeLaunchFactoryRobinhoodV3.sol":{"MemeLaunchFactoryRobinhoodV3":{"abi":[{"inputs":[{"internalType":"address","name":"_feeRecipient","type":"address"},{"internalType":"address","name":"_platformFeeRecipient","type":"address"},{"internalType":"uint256","name":"_defaultFeeBps","type":"uint256"},{"internalType":"uint256","name":"_launchFeeWei","type":"uint256"},{"internalType":"uint256","name":"_defaultVirtualEthReserve","type":"uint256"},{"internalType":"uint256","name":"_defaultVirtualTokenReserve","type":"uint256"},{"internalType":"uint256","name":"_defaultGraduationTargetEth","type":"uint256"},{"internalType":"address","name":"_defaultDexRouter","type":"address"},{"internalType":"address","name":"_defaultLpRecipient","type":"address"},{"internalType":"address","name":"_defaultV3PositionManager","type":"address"},{"internalType":"uint24","name":"_defaultV3Fee","type":"uint24"},{"internalType":"address","name":"_tokenDeployer","type":"address"},{"internalType":"address","name":"_poolDeployer","type":"address"}],"stateMutability":"nonpayable","type":"constructor"},{"anonymous":false,"inputs":[{"indexed":true,"internalType":"uint256","name":"launchId","type":"uint256"},{"indexed":true,"internalType":"address","name":"creator","type":"address"},{"indexed":true,"internalType":"address","name":"token","type":"address"},{"indexed":false,"internalType":"address","name":"pool","type":"address"},{"indexed":false,"internalType":"uint256","name":"totalSupply","type":"uint256"},{"indexed":false,"internalType":"uint256","name":"creatorAllocation","type":"uint256"},{"indexed":false,"internalType":"uint256","name":"feeBps","type":"uint256"},{"indexed":false,"internalType":"uint256","name":"graduationTargetEth","type":"uint256"},{"indexed":false,"internalType":"address","name":"dexRouter","type":"address"},{"indexed":false,"internalType":"address","name":"lpRecipient","type":"address"},{"indexed":false,"internalType":"address","name":"v3PositionManager","type":"address"},{"indexed":false,"internalType":"uint24","name":"v3Fee","type":"uint24"}],"name":"LaunchCreated","type":"event"},{"anonymous":false,"inputs":[{"indexed":true,"internalType":"address","name":"payer","type":"address"},{"indexed":true,"internalType":"address","name":"recipient","type":"address"},{"indexed":false,"internalType":"uint256","name":"amountWei","type":"uint256"}],"name":"LaunchFeePaid","type":"event"},{"anonymous":false,"inputs":[{"indexed":true,"internalType":"address","name":"creator","type":"address"},{"indexed":false,"internalType":"uint256","name":"ethLiquidity","type":"uint256"}],"name":"LiveDexCurveRequested","type":"event"},{"anonymous":false,"inputs":[{"indexed":true,"internalType":"uint256","name":"launchId","type":"uint256"},{"indexed":true,"internalType":"address","name":"token","type":"address"},{"indexed":false,"internalType":"uint256","name":"tradeFeeBps","type":"uint256"},{"indexed":false,"internalType":"uint256","name":"creatorFeeBps","type":"uint256"},{"indexed":false,"internalType":"uint256","name":"platformFeeBps","type":"uint256"}],"name":"TokenTaxConfigured","type":"event"},{"inputs":[],"name":"BPS_DENOMINATOR","outputs":[{"internalType":"uint256","name":"","type":"uint256"}],"stateMutability":"view","type":"function"},{"inputs":[],"name":"FIXED_TOTAL_SUPPLY","outputs":[{"internalType":"uint256","name":"","type":"uint256"}],"stateMutability":"view","type":"function"},{"inputs":[],"name":"MAX_TOKEN_TRADE_FEE_BPS","outputs":[{"internalType":"uint256","name":"","type":"uint256"}],"stateMutability":"view","type":"function"},{"inputs":[{"internalType":"string","name":"name","type":"string"},{"internalType":"string","name":"symbol","type":"string"},{"internalType":"string","name":"imageURI","type":"string"},{"internalType":"string","name":"description","type":"string"},{"internalType":"uint256","name":"","type":"uint256"},{"internalType":"uint256","name":"creatorAllocationBps","type":"uint256"}],"name":"createLaunchLiveDexCurve","outputs":[{"internalType":"uint256","name":"launchId","type":"uint256"},{"internalType":"address","name":"tokenAddress","type":"address"},{"internalType":"address","name":"poolAddress","type":"address"}],"stateMutability":"payable","type":"function"},{"inputs":[{"internalType":"string","name":"name","type":"string"},{"internalType":"string","name":"symbol","type":"string"},{"internalType":"string","name":"imageURI","type":"string"},{"internalType":"string","name":"description","type":"string"},{"internalType":"uint256","name":"","type":"uint256"},{"internalType":"uint256","name":"creatorAllocationBps","type":"uint256"},{"internalType":"uint256","name":"tokenTradeFeeBps","type":"uint256"}],"name":"createLaunchLiveDexCurveWithTax","outputs":[{"internalType":"uint256","name":"launchId","type":"uint256"},{"internalType":"address","name":"tokenAddress","type":"address"},{"internalType":"address","name":"poolAddress","type":"address"}],"stateMutability":"payable","type":"function"},{"inputs":[],"name":"defaultDexRouter","outputs":[{"internalType":"address","name":"","type":"address"}],"stateMutability":"view","type":"function"},{"inputs":[],"name":"defaultFeeBps","outputs":[{"internalType":"uint256","name":"","type":"uint256"}],"stateMutability":"view","type":"function"},{"inputs":[],"name":"defaultGraduationTargetEth","outputs":[{"internalType":"uint256","name":"","type":"uint256"}],"stateMutability":"view","type":"function"},{"inputs":[],"name":"defaultLpRecipient","outputs":[{"internalType":"address","name":"","type":"address"}],"stateMutability":"view","type":"function"},{"inputs":[],"name":"defaultV3Fee","outputs":[{"internalType":"uint24","name":"","type":"uint24"}],"stateMutability":"view","type":"function"},{"inputs":[],"name":"defaultV3PositionManager","outputs":[{"internalType":"address","name":"","type":"address"}],"stateMutability":"view","type":"function"},{"inputs":[],"name":"defaultVirtualEthReserve","outputs":[{"internalType":"uint256","name":"","type":"uint256"}],"stateMutability":"view","type":"function"},{"inputs":[],"name":"defaultVirtualTokenReserve","outputs":[{"internalType":"uint256","name":"","type":"uint256"}],"stateMutability":"view","type":"function"},{"inputs":[],"name":"feeRecipient","outputs":[{"internalType":"address","name":"","type":"address"}],"stateMutability":"view","type":"function"},{"inputs":[{"internalType":"uint256","name":"launchId","type":"uint256"}],"name":"getLaunch","outputs":[{"components":[{"internalType":"address","name":"token","type":"address"},{"internalType":"address","name":"pool","type":"address"},{"internalType":"address","name":"creator","type":"address"},{"internalType":"string","name":"name","type":"string"},{"internalType":"string","name":"symbol","type":"string"},{"internalType":"string","name":"imageURI","type":"string"},{"internalType":"string","name":"description","type":"string"},{"internalType":"uint256","name":"totalSupply","type":"uint256"},{"internalType":"uint256","name":"creatorAllocation","type":"uint256"},{"internalType":"uint256","name":"createdAt","type":"uint256"}],"internalType":"struct MemeLaunchFactoryRobinhoodV3.LaunchInfo","name":"","type":"tuple"}],"stateMutability":"view","type":"function"},{"inputs":[],"name":"getLaunchCount","outputs":[{"internalType":"uint256","name":"","type":"uint256"}],"stateMutability":"view","type":"function"},{"inputs":[],"name":"launchFeeWei","outputs":[{"internalType":"uint256","name":"","type":"uint256"}],"stateMutability":"view","type":"function"},{"inputs":[],"name":"owner","outputs":[{"internalType":"address","name":"","type":"address"}],"stateMutability":"view","type":"function"},{"inputs":[],"name":"platformFeeRecipient","outputs":[{"internalType":"address","name":"","type":"address"}],"stateMutability":"view","type":"function"},{"inputs":[{"internalType":"address","name":"token","type":"address"}],"name":"poolByToken","outputs":[{"internalType":"address","name":"pool","type":"address"}],"stateMutability":"view","type":"function"},{"inputs":[],"name":"poolDeployer","outputs":[{"internalType":"address","name":"","type":"address"}],"stateMutability":"view","type":"function"},{"inputs":[],"name":"tokenDeployer","outputs":[{"internalType":"address","name":"","type":"address"}],"stateMutability":"view","type":"function"},{"inputs":[{"internalType":"address","name":"newOwner","type":"address"}],"name":"transferOwnership","outputs":[],"stateMutability":"nonpayable","type":"function"}],"evm":{"bytecode":{"linkReferences":{},"object":"60c0346200045557601f62002e4038819003918201601f191683019291906001600160401b038411838510176200045a57816101a092849260409687528339810103126200045557620000528162000470565b9060206200006281830162000470565b90848301519160608401519060808501519560a086015160c08701516200008c60e0890162000470565b906200009c6101008a0162000470565b92620000ac6101208b0162000470565b9a6101408b01519762ffffff89169a8b8a036200045557620000e1610180620000d98f6101600162000470565b9e0162000470565b9d6001600160a01b03988916998a1562000410578916908115620003cb5761012c831162000397578415620003525785156200030d578615620002d65789169b8c156200029057898f16156200024a578f8a1615620002045750908896959493929160018060a01b03199a338c60005416176000558b60015416176001558a60025416176002556003556004556005556006556007551683600854161760085516906009541617600955600a549215600014620001fe57506127105b6001600160b81b03199092161760a091821b62ffffff60a01b1617600a5560809190915252516129ba9081620004868239608051818181610294015281816114a601526124c8015260a05181818161039d015281816115c201526124830152f35b6200019d565b90508f60649250519062461bcd60e51b82526004820152601660248201527f706f6f6c206465706c6f796572207265717569726564000000000000000000006044820152fd5b90508f60649250519062461bcd60e51b82526004820152601760248201527f746f6b656e206465706c6f7965722072657175697265640000000000000000006044820152fd5b90508f60649250519062461bcd60e51b82526004820152601360248201527f7633206d616e61676572207265717569726564000000000000000000000000006044820152fd5b508f5162461bcd60e51b8152600481018d9052600f60248201526e1d185c99d95d081c995c5d5a5c9959608a1b6044820152606490fd5b508f5162461bcd60e51b8152600481018d9052601660248201527f7669727475616c20746f6b656e207265717569726564000000000000000000006044820152606490fd5b508f5162461bcd60e51b8152600481018d9052601460248201527f7669727475616c206574682072657175697265640000000000000000000000006044820152606490fd5b508f5162461bcd60e51b8152600481018d9052600c60248201526b0cccaca40e8dede40d0d2ced60a31b6044820152606490fd5b508f5162461bcd60e51b8152600481018d9052601b60248201527f706c6174666f726d20726563697069656e7420726571756972656400000000006044820152606490fd5b508f5162461bcd60e51b8152600481018d9052601660248201527f66656520726563697069656e74207265717569726564000000000000000000006044820152606490fd5b600080fd5b634e487b7160e01b600052604160045260246000fd5b51906001600160a01b0382168203620004555756fe61018080604052600436101561001457600080fd5b60003560e01c9081630261ef92146125a4575080630b0420bb1461256457806313ed4aa61461253b578063150004eb146125155780631c8c0d92146124f75780632a2dae0a146124b25780633119049a1461246d57806339cbfa1f1461245057806346904840146124275780635930d3ce1461221f5780635de3bafb1461134757806363f0eb041461132957806383eeb3bb1461130b5780638da5cb5b146112e257806393a8e04d146112c45780639ff0251f146112a6578063b3602acd14611280578063bcae25a414611262578063d578192c14611239578063e1a452181461121c578063eb13554f146111f3578063f2fde38b146111425763fd04bbac1461011d57600080fd5b60e0366003190112610a19576004356001600160401b038111610a1957610148903690600401612608565b6024356001600160401b038111610a1957610167903690600401612608565b92906044356001600160401b038111610a1957610188903690600401612608565b906064356001600160401b038111610a19576101a8903690600401612608565b9290936101b860045434146127cb565b600060c052861561110d5787156110d6576107d060a4351161109b576103e860c43511611061576101e76128b7565b604051600081527fb610ea5b60c2e916119ad74eb6f1c4e02b296189e982f615f38630738be9786560203392a26002546040516365a61cab60e01b815260e0600482015290602090829081906001600160a01b03166102618d61024e60e485018f8f61282c565b848103600319016024860152908861282c565b676765c793fa10079d601b1b604484015230606484015233608484015260a483019190915260c4803590830152038160007f00000000000000000000000000000000000000000000000000000000000000006001600160a01b03165af18015610ed3576000608052611040575b5060018060a01b036001541660e05262ffffff60035460055460065460075460018060a01b03600854169160018060a01b036009541693600a549560405160a05263f796209760e01b60a0515260018060a01b0360805116600460a051015230602460a051015260e051604460a0510152606460a0510152608460a051015260a460a051015260c460a051015260e460a051015261010460a051015260018060a01b03811661012460a051015260a01c1661014460a0510152602060a05161016460a051600060018060a01b037f0000000000000000000000000000000000000000000000000000000000000000165af1978815610ed35760009861100a575b60a435676765c793fa10079d601b1b0296676765c793fa10079d601b1b880460a43503610ff457676765c793fa10079d601b1b6127108904810311610ff45760405163a9059cbb60e01b81526001600160a01b038b811660048301526127108a04676765c793fa10079d601b1b03602483015260805160209183916044918391600091165af1908115610ed357600091610fd5575b5015610f99576127108804610edf575b6001600160a01b038a163b15610a195789600061271060248b836040519586948593639556483760e01b855204676765c793fa10079d601b1b03600484015260018060a01b03165af18015610ed357610ebf575b506001600160a01b038a163b15610e0e5760405162e2c3fd60e11b81528a8160048160c0519360c0519060018060a01b03165af18015610a2657610ea9575b506040516306b456ef60e21b81526020816004816001600160a01b038f165afa908115610a265760c05191610e7a575b506001600160a01b038116610e14575b506080516001600160a01b03163b15610e0e57604051636e258e0760e11b815260c051608051919a918b90600490829084906001600160a01b03165af1998a15610a26578b9a610de6575b5061062d936020989693610615610639999794610621948e60018060a01b036080511660c05152600c8e52604060c051209060018060a01b03166bffffffffffffffffffffffff60a01b825416179055600b549f6040519d8e916105f483612635565b6080516001600160a01b039081168452169101523360408e01523691612880565b60608b01523691612880565b60808801523691612880565b60a08501523691612880565b60c0820152676765c793fa10079d601b1b60e0820152612710820461010082015242610120820152600160401b841015610b335760018401600b5561067d8461269b565b919091610dcd57805182546001600160a01b039182166001600160a01b03199182161784556020830151600185018054918416918316919091179055604083015160028501805491909316911617905560608101518051906001600160401b038211610b335781906106f260038601546126ec565b601f8111610d77575b506020906001601f841114610d025760c05192610cf7575b50508160011b916000199060031b1c19161760038301555b60808101518051906001600160401b038211610b3357819061075060048601546126ec565b601f8111610ca1575b506020906001601f841114610c2c5760c05192610c21575b50508160011b916000199060031b1c19161760048301555b60a08101518051906001600160401b038211610b335781906107ae60058601546126ec565b601f8111610bcb575b506020906001601f841114610b565760c05192610b4b575b50508160011b916000199060031b1c19161760058301555b60c08101518051906001600160401b038211610b335761080a60068501546126ec565b601f8111610ae9575b506020906001601f841114610a70579180600994926101209460c05192610a65575b50508160011b916000199060031b1c19161760068501555b60e081015160078501556101008101516008850155015191015562ffffff60035460075460018060a01b036008541660018060a01b036009541691600a54936127106040519760018060a01b038a168952676765c793fa10079d601b1b60208a01520460408801526060870152608086015260a085015260c084015260018060a01b03811660e084015260a01c1661010082015260018060a01b036080511690837f047d6cd3e0239e764a392db701c655fea8a19d6d059350ec7d8df5dc840043206101203393a46040516317773ebb60e01b8152608051602090829060049082906001600160a01b03165afa908115610a265760c05191610a33575b5060405163116e689f60e11b8152608051602090829060049082906001600160a01b03165afa908115610a265760c051916109ef575b506040519160c435835260208301526040820152827f8620494f920761bd37321ddd1f125e085d81426820d3ca4e8b1f0ab3dab7a578606060018060a01b036080511693a3604080516080519381526001600160a01b0393841660208201529190921691810191909152606090f35b90506020813d602011610a1e575b81610a0a6020938361267a565b81010312610a19575138610980565b600080fd5b3d91506109fd565b6040513d60c051823e3d90fd5b90506020813d602011610a5d575b81610a4e6020938361267a565b81010312610a1957513861094a565b3d9150610a41565b015190503880610835565b906006850160c05152602060c051209160c0515b601f1985168110610ad1575092600994926001926101209583601f19811610610ab8575b505050811b01600685015561084d565b015160001960f88460031b161c19169055388080610aa8565b91926020600181928685015181550194019201610a84565b6006850160c05152602060c05120601f840160051c810160208510610b2c575b601f830160051c82018110610b1f575050610813565b60c0518155600101610b09565b5080610b09565b634e487b7160e01b60c051526041600452602460c051fd5b0151905038806107cf565b92506005850160c05152602060c051209060c051935b601f1984168510610bb0576001945083601f19811610610b97575b505050811b0160058301556107e7565b015160001960f88460031b161c19169055388080610b87565b81810151835560209485019460019093019290910190610b6c565b9091506005850160c05152602060c05120601f840160051c810160208510610c1a575b90849392915b601f830160051c82018110610c0a5750506107b7565b60c0518155859450600101610bf4565b5080610bee565b015190503880610771565b92506004850160c05152602060c051209060c051935b601f1984168510610c86576001945083601f19811610610c6d575b505050811b016004830155610789565b015160001960f88460031b161c19169055388080610c5d565b81810151835560209485019460019093019290910190610c42565b9091506004850160c05152602060c05120601f840160051c810160208510610cf0575b90849392915b601f830160051c82018110610ce0575050610759565b60c0518155859450600101610cca565b5080610cc4565b015190503880610713565b92506003850160c05152602060c051209060c051935b601f1984168510610d5c576001945083601f19811610610d43575b505050811b01600383015561072b565b015160001960f88460031b161c19169055388080610d33565b81810151835560209485019460019093019290910190610d18565b9091506003850160c05152602060c05120601f840160051c810160208510610dc6575b90849392915b601f830160051c82018110610db65750506106fb565b60c0518155859450600101610da0565b5080610d9a565b634e487b7160e01b60c0515260c051600452602460c051fd5b610df891949896939795929a50612667565b60c051610e0e5792949093959197899838610591565b60c05180fd5b6080516001600160a01b03163b15610e0e576040516315c6deb960e31b81526001600160a01b03918216600482015260c05160805191929091839160249183918591165af18015610a26571561054657610e6d90612667565b60c051610e0e5738610546565b610e9c915060203d602011610ea2575b610e94818361267a565b81019061280d565b38610536565b503d610e8a565b610eb290612667565b60c051610e0e5738610506565b610ec890612667565b600060c052386104c7565b6040513d6000823e3d90fd5b60405163a9059cbb60e01b815233600482015261271089046024820152608051602090829060449082906000906001600160a01b03165af1908115610ed357600091610f6a575b506104735760405162461bcd60e51b815260206004820152601760248201527618dc99585d1bdc881d1c985b9cd9995c8819985a5b1959604a1b6044820152606490fd5b610f8c915060203d602011610f92575b610f84818361267a565b81019061284d565b38610f26565b503d610f7a565b60405162461bcd60e51b81526020600482015260146024820152731c1bdbdb081d1c985b9cd9995c8819985a5b195960621b6044820152606490fd5b610fee915060203d602011610f9257610f84818361267a565b38610463565b634e487b7160e01b600052601160045260246000fd5b975060203d602011611039575b806110276110339260a05161267a565b60a0510160a05161280d565b976103ce565b503d611017565b6110589060203d602011610ea257610e94818361267a565b608052386102ce565b60405162461bcd60e51b81526020600482015260126024820152710e8e4c2c8ca40cccaca40e8dede40d0d2ced60731b6044820152606490fd5b60405162461bcd60e51b81526020600482015260136024820152720c2d8d8dec6c2e8d2dedc40e8dede40d0d2ced606b1b6044820152606490fd5b60405162461bcd60e51b815260206004820152600f60248201526e1cde5b589bdb081c995c5d5a5c9959608a1b6044820152606490fd5b60405162461bcd60e51b815260206004820152600d60248201526c1b985b59481c995c5d5a5c9959609a1b6044820152606490fd5b34610a19576020366003190112610a19576004356001600160a01b0381811691829003610a195760005490811633036111c157811561118b576001600160a01b03191617600055005b60405162461bcd60e51b815260206004820152600e60248201526d1bdddb995c881c995c5d5a5c995960921b6044820152606490fd5b60405162461bcd60e51b815260206004820152600a60248201526937b7363c9037bbb732b960b11b6044820152606490fd5b34610a19576000366003190112610a19576002546040516001600160a01b039091168152602090f35b34610a19576000366003190112610a195760206040516127108152f35b34610a19576000366003190112610a19576008546040516001600160a01b039091168152602090f35b34610a19576000366003190112610a19576020600354604051908152f35b34610a19576000366003190112610a19576020604051676765c793fa10079d601b1b8152f35b34610a19576000366003190112610a19576020600b54604051908152f35b34610a19576000366003190112610a19576020600654604051908152f35b34610a19576000366003190112610a19576000546040516001600160a01b039091168152602090f35b34610a19576000366003190112610a19576020600454604051908152f35b34610a19576000366003190112610a19576020600754604051908152f35b60c0366003190112610a19576004356001600160401b038111610a1957611372903690600401612608565b6024356001600160401b038111610a1957611391903690600401612608565b92906044356001600160401b038111610a19576113b2903690600401612608565b906064356001600160401b038111610a19576113d2903690600401612608565b9290936113e260045434146127cb565b600061014052861561110d5787156110d6576107d060a4351161109b5760006101405261140d6128b7565b604051600081527fb610ea5b60c2e916119ad74eb6f1c4e02b296189e982f615f38630738be9786560203392a26002546040516365a61cab60e01b815260e0600482015290602090829081906001600160a01b03166114748d61024e60e485018f8f61282c565b676765c793fa10079d601b1b604484015230606484015233608484015260a4830191909152603260c4830152038160007f00000000000000000000000000000000000000000000000000000000000000006001600160a01b03165af18015610ed3576000610100526121fd575b5060018060a01b03600154166101605262ffffff60035460055460065460075460018060a01b03600854169160018060a01b036009541693600a54956040516101205263f796209760e01b610120515260018060a01b03610100511660046101205101523060246101205101526101605160446101205101526064610120510152608461012051015260a461012051015260c461012051015260e461012051015261010461012051015260018060a01b03811661012461012051015260a01c1661014461012051015260206101205161016461012051600060018060a01b037f0000000000000000000000000000000000000000000000000000000000000000165af1978815610ed3576000986121c4575b60a435676765c793fa10079d601b1b0296676765c793fa10079d601b1b880460a43503610ff457676765c793fa10079d601b1b6127108904810311610ff45760405163a9059cbb60e01b81526001600160a01b038b811660048301526127108a04676765c793fa10079d601b1b0360248301526101005160209183916044918391600091165af1908115610ed3576000916121a5575b5015610f995761271088046120fa575b6001600160a01b038a163b15610a195789600061271060248b836040519586948593639556483760e01b855204676765c793fa10079d601b1b03600484015260018060a01b03165af18015610ed3576120e5575b506001600160a01b038a163b1561203e5760405162e2c3fd60e11b81528a816004816101405193610140519060018060a01b03165af18015611c37576120ce575b506040516306b456ef60e21b81526020816004816001600160a01b038f165afa908115611c375761014051916120af575b506001600160a01b038116612045575b50610100516001600160a01b03163b1561203e57604051636e258e0760e11b81526101405161010051919a918b90600490829084906001600160a01b03165af1998a15611c37578b9a612015575b5061062d936020989693610615611845999794610621948e60018060a01b0361010051166101405152600c8e52604061014051209060018060a01b03166bffffffffffffffffffffffff60a01b825416179055600b549f6040519d8e9161182383612635565b610100516001600160a01b039081168452169101523360408e01523691612880565b60c0820152676765c793fa10079d601b1b60e0820152612710820461010082015242610120820152600160401b841015611d4b5760018401600b556118898461269b565b919091611ff957805182546001600160a01b039182166001600160a01b03199182161784556020830151600185018054918416918316919091179055604083015160028501805491909316911617905560608101518051906001600160401b038211611d4b5781906118fe60038601546126ec565b601f8111611fa0575b506020906001601f841114611f28576101405192611f1d575b50508160011b916000199060031b1c19161760038301555b60808101518051906001600160401b038211611d4b57819061195d60048601546126ec565b601f8111611ec4575b506020906001601f841114611e4c576101405192611e41575b50508160011b916000199060031b1c19161760048301555b60a08101518051906001600160401b038211611d4b5781906119bc60058601546126ec565b601f8111611de8575b506020906001601f841114611d70576101405192611d65575b50508160011b916000199060031b1c19161760058301555b60c08101518051906001600160401b038211611d4b57611a1960068501546126ec565b601f8111611cfe575b506020906001601f841114611c8257918060099492610120946101405192611c77575b50508160011b916000199060031b1c19161760068501555b60e081015160078501556101008101516008850155015191015562ffffff60035460075460018060a01b036008541660018060a01b036009541691600a54936127106040519760018060a01b038a168952676765c793fa10079d601b1b60208a01520460408801526060870152608086015260a085015260c084015260018060a01b03811660e084015260a01c1661010082015260018060a01b03610100511690837f047d6cd3e0239e764a392db701c655fea8a19d6d059350ec7d8df5dc840043206101203393a46040516317773ebb60e01b815261010051602090829060049082906001600160a01b03165afa908115611c37576101405191611c45575b5060405163116e689f60e11b815261010051602090829060049082906001600160a01b03165afa908115611c37576101405191611c05575b50604051916032835260208301526040820152827f8620494f920761bd37321ddd1f125e085d81426820d3ca4e8b1f0ab3dab7a578606060018060a01b03610100511693a360408051610100519381526001600160a01b0393841660208201529190921691810191909152606090f35b90506020813d602011611c2f575b81611c206020938361267a565b81010312610a19575184611b95565b3d9150611c13565b6040513d61014051823e3d90fd5b90506020813d602011611c6f575b81611c606020938361267a565b81010312610a19575183611b5d565b3d9150611c53565b015190508980611a45565b906006850161014051526020610140512091610140515b601f1985168110611ce6575092600994926001926101209583601f19811610611ccd575b505050811b016006850155611a5d565b015160001960f88460031b161c19169055898080611cbd565b91926020600181928685015181550194019201611c99565b60068501610140515260206101405120601f840160051c810160208510611d44575b601f830160051c82018110611d36575050611a22565b610140518155600101611d20565b5080611d20565b634e487b7160e01b61014051526041600452602461014051fd5b0151905087806119de565b9250600585016101405152602061014051209061014051935b601f1984168510611dcd576001945083601f19811610611db4575b505050811b0160058301556119f6565b015160001960f88460031b161c19169055878080611da4565b81810151835560209485019460019093019290910190611d89565b90915060058501610140515260206101405120601f840160051c810160208510611e3a575b90849392915b601f830160051c82018110611e295750506119c5565b610140518155859450600101611e13565b5080611e0d565b01519050878061197f565b9250600485016101405152602061014051209061014051935b601f1984168510611ea9576001945083601f19811610611e90575b505050811b016004830155611997565b015160001960f88460031b161c19169055878080611e80565b81810151835560209485019460019093019290910190611e65565b90915060048501610140515260206101405120601f840160051c810160208510611f16575b90849392915b601f830160051c82018110611f05575050611966565b610140518155859450600101611eef565b5080611ee9565b015190508780611920565b9250600385016101405152602061014051209061014051935b601f1984168510611f85576001945083601f19811610611f6c575b505050811b016003830155611938565b015160001960f88460031b161c19169055878080611f5c565b81810151835560209485019460019093019290910190611f41565b90915060038501610140515260206101405120601f840160051c810160208510611ff2575b90849392915b601f830160051c82018110611fe1575050611907565b610140518155859450600101611fcb565b5080611fc5565b634e487b7160e01b610140515261014051600452602461014051fd5b61202791949896939795929a50612667565b6101405161203e579294909395919789988b6117bd565b6101405180fd5b610100516001600160a01b03163b1561203e576040516315c6deb960e31b81526001600160a01b039182166004820152610140516101005191929091839160249183918591165af18015611c37571561176f576120a190612667565b6101405161203e578a61176f565b6120c8915060203d602011610ea257610e94818361267a565b8b61175f565b6120d790612667565b6101405161203e578a61172e565b6120ee90612667565b6000610140528a6116ed565b60405163a9059cbb60e01b81523360048201526127108904602482015261010051602090829060449082906000906001600160a01b03165af1908115610ed357600091612186575b506116995760405162461bcd60e51b815260206004820152601760248201527618dc99585d1bdc881d1c985b9cd9995c8819985a5b1959604a1b6044820152606490fd5b61219f915060203d602011610f9257610f84818361267a565b8b612142565b6121be915060203d602011610f9257610f84818361267a565b8b611689565b975060203d6020116121f6575b806121e26121f0926101205161267a565b61012051016101205161280d565b976115f3565b503d6121d1565b6122159060203d602011610ea257610e94818361267a565b61010052886114e1565b34610a19576020366003190112610a1957600435600061012060405161224481612635565b82815282602082015282604082015260608082015260606080820152606060a0820152606060c08201528260e0820152826101008201520152600b548110156123ee576122909061269b565b506009604051916122a083612635565b80546001600160a01b03908116845260018201548116602085015260028201541660408401526122d260038201612726565b60608401526122e360048201612726565b60808401526122f460058201612726565b60a084015261230560068201612726565b60c0840152600781015460e08401526008810154610100840152015461012082015260405180916020825260018060a01b03815116602083015260018060a01b03602082015116604083015260018060a01b03604082015116606083015260608101516101206123ce612386610140938460808801526101608701906125c8565b6123b96123a5608087015192601f1993848a83030160a08b01526125c8565b60a0870151838983030160c08a01526125c8565b9060c0860151908783030160e08801526125c8565b9260e0810151610100860152610100810151828601520151908301520390f35b60405162461bcd60e51b81526020600482015260116024820152701a5b9d985b1a59081b185d5b98da081a59607a1b6044820152606490fd5b34610a19576000366003190112610a19576001546040516001600160a01b039091168152602090f35b34610a19576000366003190112610a195760206040516103e88152f35b34610a19576000366003190112610a19576040517f00000000000000000000000000000000000000000000000000000000000000006001600160a01b03168152602090f35b34610a19576000366003190112610a19576040517f00000000000000000000000000000000000000000000000000000000000000006001600160a01b03168152602090f35b34610a19576000366003190112610a19576020600554604051908152f35b34610a19576000366003190112610a1957602062ffffff600a5460a01c16604051908152f35b34610a19576000366003190112610a19576009546040516001600160a01b039091168152602090f35b34610a19576020366003190112610a19576004356001600160a01b0381811691829003610a1957602091600052600c825260406000205416604051908152f35b34610a19576000366003190112610a1957600a546001600160a01b03168152602090f35b919082519283825260005b8481106125f4575050826000602080949584010152601f8019910116010190565b6020818301810151848301820152016125d3565b9181601f84011215610a19578235916001600160401b038311610a195760208381860195010111610a1957565b61014081019081106001600160401b0382111761265157604052565b634e487b7160e01b600052604160045260246000fd5b6001600160401b03811161265157604052565b90601f801991011681019081106001600160401b0382111761265157604052565b600b548110156126d657600a90600b600052027f0175b7a638427703f0dbe7bb9bbf987a2551717b34e79f33b5b1008d1fa01db90190600090565b634e487b7160e01b600052603260045260246000fd5b90600182811c9216801561271c575b602083101461270657565b634e487b7160e01b600052602260045260246000fd5b91607f16916126fb565b90604051918260008254612739816126ec565b908184526020946001916001811690816000146127a9575060011461276a575b5050506127689250038361267a565b565b600090815285812095935091905b8183106127915750506127689350820101388080612759565b85548884018501529485019487945091830191612778565b9250505061276894925060ff191682840152151560051b820101388080612759565b156127d257565b60405162461bcd60e51b81526020600482015260136024820152720d8c2eadcc6d040cccaca40dad2e6dac2e8c6d606b1b6044820152606490fd5b90816020910312610a1957516001600160a01b0381168103610a195790565b908060209392818452848401376000828201840152601f01601f1916010190565b90816020910312610a1957518015158103610a195790565b6001600160401b03811161265157601f01601f191660200190565b92919261288c82612865565b9161289a604051938461267a565b829481845281830111610a19578281602093846000960137010152565b600454801561298157600080808060018060a01b039485600254165af13d1561297c573d6128e481612865565b906128f2604051928361267a565b8152600060203d92013e5b1561293757600254166004546040519081527f4cef2d27cdf43d743c3c66401182e93989938e77d1be10f3ab9e6afdf799f83960203392a3565b60405162461bcd60e51b815260206004820152601a60248201527f6c61756e636820666565207472616e73666572206661696c65640000000000006044820152606490fd5b6128fd565b5056fea2646970667358221220408090dec48ce5718e27c3dda68c24cc2ee38f503f23c1cc57f359033125785164736f6c63430008180033","opcodes":"PUSH1 0xC0 CALLVALUE PUSH3 0x455 JUMPI PUSH1 0x1F PUSH3 0x2E40 CODESIZE DUP2 SWAP1 SUB SWAP2 DUP3 ADD PUSH1 0x1F NOT AND DUP4 ADD SWAP3 SWAP2 SWAP1 PUSH1 0x1 PUSH1 0x1 PUSH1 0x40 SHL SUB DUP5 GT DUP4 DUP6 LT OR PUSH3 0x45A JUMPI DUP2 PUSH2 0x1A0 SWAP3 DUP5 SWAP3 PUSH1 0x40 SWAP7 DUP8 MSTORE DUP4 CODECOPY DUP2 ADD SUB SLT PUSH3 0x455 JUMPI PUSH3 0x52 DUP2 PUSH3 0x470 JUMP JUMPDEST SWAP1 PUSH1 0x20 PUSH3 0x62 DUP2 DUP4 ADD PUSH3 0x470 JUMP JUMPDEST SWAP1 DUP5 DUP4 ADD MLOAD SWAP2 PUSH1 0x60 DUP5 ADD MLOAD SWAP1 PUSH1 0x80 DUP6 ADD MLOAD SWAP6 PUSH1 0xA0 DUP7 ADD MLOAD PUSH1 0xC0 DUP8 ADD MLOAD PUSH3 0x8C PUSH1 0xE0 DUP10 ADD PUSH3 0x470 JUMP JUMPDEST SWAP1 PUSH3 0x9C PUSH2 0x100 DUP11 ADD PUSH3 0x470 JUMP JUMPDEST SWAP3 PUSH3 0xAC PUSH2 0x120 DUP12 ADD PUSH3 0x470 JUMP JUMPDEST SWAP11 PUSH2 0x140 DUP12 ADD MLOAD SWAP8 PUSH3 0xFFFFFF DUP10 AND SWAP11 DUP12 DUP11 SUB PUSH3 0x455 JUMPI PUSH3 0xE1 PUSH2 0x180 PUSH3 0xD9 DUP16 PUSH2 0x160 ADD PUSH3 0x470 JUMP JUMPDEST SWAP15 ADD PUSH3 0x470 JUMP JUMPDEST SWAP14 PUSH1 0x1 PUSH1 0x1 PUSH1 0xA0 SHL SUB SWAP9 DUP10 AND SWAP10 DUP11 ISZERO PUSH3 0x410 JUMPI DUP10 AND SWAP1 DUP2 ISZERO PUSH3 0x3CB JUMPI PUSH2 0x12C DUP4 GT PUSH3 0x397 JUMPI DUP5 ISZERO PUSH3 0x352 JUMPI DUP6 ISZERO PUSH3 0x30D JUMPI DUP7 ISZERO PUSH3 0x2D6 JUMPI DUP10 AND SWAP12 DUP13 ISZERO PUSH3 0x290 JUMPI DUP10 DUP16 AND ISZERO PUSH3 0x24A JUMPI DUP16 DUP11 AND ISZERO PUSH3 0x204 JUMPI POP SWAP1 DUP9 SWAP7 SWAP6 SWAP5 SWAP4 SWAP3 SWAP2 PUSH1 0x1 DUP1 PUSH1 0xA0 SHL SUB NOT SWAP11 CALLER DUP13 PUSH1 0x0 SLOAD AND OR PUSH1 0x0 SSTORE DUP12 PUSH1 0x1 SLOAD AND OR PUSH1 0x1 SSTORE DUP11 PUSH1 0x2 SLOAD AND OR PUSH1 0x2 SSTORE PUSH1 0x3 SSTORE PUSH1 0x4 SSTORE PUSH1 0x5 SSTORE PUSH1 0x6 SSTORE PUSH1 0x7 SSTORE AND DUP4 PUSH1 0x8 SLOAD AND OR PUSH1 0x8 SSTORE AND SWAP1 PUSH1 0x9 SLOAD AND OR PUSH1 0x9 SSTORE PUSH1 0xA SLOAD SWAP3 ISZERO PUSH1 0x0 EQ PUSH3 0x1FE JUMPI POP PUSH2 0x2710 JUMPDEST PUSH1 0x1 PUSH1 0x1 PUSH1 0xB8 SHL SUB NOT SWAP1 SWAP3 AND OR PUSH1 0xA0 SWAP2 DUP3 SHL PUSH3 0xFFFFFF PUSH1 0xA0 SHL AND OR PUSH1 0xA SSTORE PUSH1 0x80 SWAP2 SWAP1 SWAP2 MSTORE MSTORE MLOAD PUSH2 0x29BA SWAP1 DUP2 PUSH3 0x486 DUP3 CODECOPY PUSH1 0x80 MLOAD DUP2 DUP2 DUP2 PUSH2 0x294 ADD MSTORE DUP2 DUP2 PUSH2 0x14A6 ADD MSTORE PUSH2 0x24C8 ADD MSTORE PUSH1 0xA0 MLOAD DUP2 DUP2 DUP2 PUSH2 0x39D ADD MSTORE DUP2 DUP2 PUSH2 0x15C2 ADD MSTORE PUSH2 0x2483 ADD MSTORE RETURN JUMPDEST PUSH3 0x19D JUMP JUMPDEST SWAP1 POP DUP16 PUSH1 0x64 SWAP3 POP MLOAD SWAP1 PUSH3 0x461BCD PUSH1 0xE5 SHL DUP3 MSTORE PUSH1 0x4 DUP3 ADD MSTORE PUSH1 0x16 PUSH1 0x24 DUP3 ADD MSTORE PUSH32 0x706F6F6C206465706C6F79657220726571756972656400000000000000000000 PUSH1 0x44 DUP3 ADD MSTORE REVERT JUMPDEST SWAP1 POP DUP16 PUSH1 0x64 SWAP3 POP MLOAD SWAP1 PUSH3 0x461BCD PUSH1 0xE5 SHL DUP3 MSTORE PUSH1 0x4 DUP3 ADD MSTORE PUSH1 0x17 PUSH1 0x24 DUP3 ADD MSTORE PUSH32 0x746F6B656E206465706C6F796572207265717569726564000000000000000000 PUSH1 0x44 DUP3 ADD MSTORE REVERT JUMPDEST SWAP1 POP DUP16 PUSH1 0x64 SWAP3 POP MLOAD SWAP1 PUSH3 0x461BCD PUSH1 0xE5 SHL DUP3 MSTORE PUSH1 0x4 DUP3 ADD MSTORE PUSH1 0x13 PUSH1 0x24 DUP3 ADD MSTORE PUSH32 0x7633206D616E6167657220726571756972656400000000000000000000000000 PUSH1 0x44 DUP3 ADD MSTORE REVERT JUMPDEST POP DUP16 MLOAD PUSH3 0x461BCD PUSH1 0xE5 SHL DUP2 MSTORE PUSH1 0x4 DUP2 ADD DUP14 SWAP1 MSTORE PUSH1 0xF PUSH1 0x24 DUP3 ADD MSTORE PUSH15 0x1D185C99D95D081C995C5D5A5C9959 PUSH1 0x8A SHL PUSH1 0x44 DUP3 ADD MSTORE PUSH1 0x64 SWAP1 REVERT JUMPDEST POP DUP16 MLOAD PUSH3 0x461BCD PUSH1 0xE5 SHL DUP2 MSTORE PUSH1 0x4 DUP2 ADD DUP14 SWAP1 MSTORE PUSH1 0x16 PUSH1 0x24 DUP3 ADD MSTORE PUSH32 0x7669727475616C20746F6B656E20726571756972656400000000000000000000 PUSH1 0x44 DUP3 ADD MSTORE PUSH1 0x64 SWAP1 REVERT JUMPDEST POP DUP16 MLOAD PUSH3 0x461BCD PUSH1 0xE5 SHL DUP2 MSTORE PUSH1 0x4 DUP2 ADD DUP14 SWAP1 MSTORE PUSH1 0x14 PUSH1 0x24 DUP3 ADD MSTORE PUSH32 0x7669727475616C20657468207265717569726564000000000000000000000000 PUSH1 0x44 DUP3 ADD MSTORE PUSH1 0x64 SWAP1 REVERT JUMPDEST POP DUP16 MLOAD PUSH3 0x461BCD PUSH1 0xE5 SHL DUP2 MSTORE PUSH1 0x4 DUP2 ADD DUP14 SWAP1 MSTORE PUSH1 0xC PUSH1 0x24 DUP3 ADD MSTORE PUSH12 0xCCCACA40E8DEDE40D0D2CED PUSH1 0xA3 SHL PUSH1 0x44 DUP3 ADD MSTORE PUSH1 0x64 SWAP1 REVERT JUMPDEST POP DUP16 MLOAD PUSH3 0x461BCD PUSH1 0xE5 SHL DUP2 MSTORE PUSH1 0x4 DUP2 ADD DUP14 SWAP1 MSTORE PUSH1 0x1B PUSH1 0x24 DUP3 ADD MSTORE PUSH32 0x706C6174666F726D20726563697069656E742072657175697265640000000000 PUSH1 0x44 DUP3 ADD MSTORE PUSH1 0x64 SWAP1 REVERT JUMPDEST POP DUP16 MLOAD PUSH3 0x461BCD PUSH1 0xE5 SHL DUP2 MSTORE PUSH1 0x4 DUP2 ADD DUP14 SWAP1 MSTORE PUSH1 0x16 PUSH1 0x24 DUP3 ADD MSTORE PUSH32 0x66656520726563697069656E7420726571756972656400000000000000000000 PUSH1 0x44 DUP3 ADD MSTORE PUSH1 0x64 SWAP1 REVERT JUMPDEST PUSH1 0x0 DUP1 REVERT JUMPDEST PUSH4 0x4E487B71 PUSH1 0xE0 SHL PUSH1 0x0 MSTORE PUSH1 0x41 PUSH1 0x4 MSTORE PUSH1 0x24 PUSH1 0x0 REVERT JUMPDEST MLOAD SWAP1 PUSH1 0x1 PUSH1 0x1 PUSH1 0xA0 SHL SUB DUP3 AND DUP3 SUB PUSH3 0x455 JUMPI JUMP INVALID PUSH2 0x180 DUP1 PUSH1 0x40 MSTORE PUSH1 0x4 CALLDATASIZE LT ISZERO PUSH2 0x14 JUMPI PUSH1 0x0 DUP1 REVERT JUMPDEST PUSH1 0x0 CALLDATALOAD PUSH1 0xE0 SHR SWAP1 DUP2 PUSH4 0x261EF92 EQ PUSH2 0x25A4 JUMPI POP DUP1 PUSH4 0xB0420BB EQ PUSH2 0x2564 JUMPI DUP1 PUSH4 0x13ED4AA6 EQ PUSH2 0x253B JUMPI DUP1 PUSH4 0x150004EB EQ PUSH2 0x2515 JUMPI DUP1 PUSH4 0x1C8C0D92 EQ PUSH2 0x24F7 JUMPI DUP1 PUSH4 0x2A2DAE0A EQ PUSH2 0x24B2 JUMPI DUP1 PUSH4 0x3119049A EQ PUSH2 0x246D JUMPI DUP1 PUSH4 0x39CBFA1F EQ PUSH2 0x2450 JUMPI DUP1 PUSH4 0x46904840 EQ PUSH2 0x2427 JUMPI DUP1 PUSH4 0x5930D3CE EQ PUSH2 0x221F JUMPI DUP1 PUSH4 0x5DE3BAFB EQ PUSH2 0x1347 JUMPI DUP1 PUSH4 0x63F0EB04 EQ PUSH2 0x1329 JUMPI DUP1 PUSH4 0x83EEB3BB EQ PUSH2 0x130B JUMPI DUP1 PUSH4 0x8DA5CB5B EQ PUSH2 0x12E2 JUMPI DUP1 PUSH4 0x93A8E04D EQ PUSH2 0x12C4 JUMPI DUP1 PUSH4 0x9FF0251F EQ PUSH2 0x12A6 JUMPI DUP1 PUSH4 0xB3602ACD EQ PUSH2 0x1280 JUMPI DUP1 PUSH4 0xBCAE25A4 EQ PUSH2 0x1262 JUMPI DUP1 PUSH4 0xD578192C EQ PUSH2 0x1239 JUMPI DUP1 PUSH4 0xE1A45218 EQ PUSH2 0x121C JUMPI DUP1 PUSH4 0xEB13554F EQ PUSH2 0x11F3 JUMPI DUP1 PUSH4 0xF2FDE38B EQ PUSH2 0x1142 JUMPI PUSH4 0xFD04BBAC EQ PUSH2 0x11D JUMPI PUSH1 0x0 DUP1 REVERT JUMPDEST PUSH1 0xE0 CALLDATASIZE PUSH1 0x3 NOT ADD SLT PUSH2 0xA19 JUMPI PUSH1 0x4 CALLDATALOAD PUSH1 0x1 PUSH1 0x1 PUSH1 0x40 SHL SUB DUP2 GT PUSH2 0xA19 JUMPI PUSH2 0x148 SWAP1 CALLDATASIZE SWAP1 PUSH1 0x4 ADD PUSH2 0x2608 JUMP JUMPDEST PUSH1 0x24 CALLDATALOAD PUSH1 0x1 PUSH1 0x1 PUSH1 0x40 SHL SUB DUP2 GT PUSH2 0xA19 JUMPI PUSH2 0x167 SWAP1 CALLDATASIZE SWAP1 PUSH1 0x4 ADD PUSH2 0x2608 JUMP JUMPDEST SWAP3 SWAP1 PUSH1 0x44 CALLDATALOAD PUSH1 0x1 PUSH1 0x1 PUSH1 0x40 SHL SUB DUP2 GT PUSH2 0xA19 JUMPI PUSH2 0x188 SWAP1 CALLDATASIZE SWAP1 PUSH1 0x4 ADD PUSH2 0x2608 JUMP JUMPDEST SWAP1 PUSH1 0x64 CALLDATALOAD PUSH1 0x1 PUSH1 0x1 PUSH1 0x40 SHL SUB DUP2 GT PUSH2 0xA19 JUMPI PUSH2 0x1A8 SWAP1 CALLDATASIZE SWAP1 PUSH1 0x4 ADD PUSH2 0x2608 JUMP JUMPDEST SWAP3 SWAP1 SWAP4 PUSH2 0x1B8 PUSH1 0x4 SLOAD CALLVALUE EQ PUSH2 0x27CB JUMP JUMPDEST PUSH1 0x0 PUSH1 0xC0 MSTORE DUP7 ISZERO PUSH2 0x110D JUMPI DUP8 ISZERO PUSH2 0x10D6 JUMPI PUSH2 0x7D0 PUSH1 0xA4 CALLDATALOAD GT PUSH2 0x109B JUMPI PUSH2 0x3E8 PUSH1 0xC4 CALLDATALOAD GT PUSH2 0x1061 JUMPI PUSH2 0x1E7 PUSH2 0x28B7 JUMP JUMPDEST PUSH1 0x40 MLOAD PUSH1 0x0 DUP2 MSTORE PUSH32 0xB610EA5B60C2E916119AD74EB6F1C4E02B296189E982F615F38630738BE97865 PUSH1 0x20 CALLER SWAP3 LOG2 PUSH1 0x2 SLOAD PUSH1 0x40 MLOAD PUSH4 0x65A61CAB PUSH1 0xE0 SHL DUP2 MSTORE PUSH1 0xE0 PUSH1 0x4 DUP3 ADD MSTORE SWAP1 PUSH1 0x20 SWAP1 DUP3 SWAP1 DUP2 SWAP1 PUSH1 0x1 PUSH1 0x1 PUSH1 0xA0 SHL SUB AND PUSH2 0x261 DUP14 PUSH2 0x24E PUSH1 0xE4 DUP6 ADD DUP16 DUP16 PUSH2 0x282C JUMP JUMPDEST DUP5 DUP2 SUB PUSH1 0x3 NOT ADD PUSH1 0x24 DUP7 ADD MSTORE SWAP1 DUP9 PUSH2 0x282C JUMP JUMPDEST PUSH8 0x6765C793FA10079D PUSH1 0x1B SHL PUSH1 0x44 DUP5 ADD MSTORE ADDRESS PUSH1 0x64 DUP5 ADD MSTORE CALLER PUSH1 0x84 DUP5 ADD MSTORE PUSH1 0xA4 DUP4 ADD SWAP2 SWAP1 SWAP2 MSTORE PUSH1 0xC4 DUP1 CALLDATALOAD SWAP1 DUP4 ADD MSTORE SUB DUP2 PUSH1 0x0 PUSH32 0x0 PUSH1 0x1 PUSH1 0x1 PUSH1 0xA0 SHL SUB AND GAS CALL DUP1 ISZERO PUSH2 0xED3 JUMPI PUSH1 0x0 PUSH1 0x80 MSTORE PUSH2 0x1040 JUMPI JUMPDEST POP PUSH1 0x1 DUP1 PUSH1 0xA0 SHL SUB PUSH1 0x1 SLOAD AND PUSH1 0xE0 MSTORE PUSH3 0xFFFFFF PUSH1 0x3 SLOAD PUSH1 0x5 SLOAD PUSH1 0x6 SLOAD PUSH1 0x7 SLOAD PUSH1 0x1 DUP1 PUSH1 0xA0 SHL SUB PUSH1 0x8 SLOAD AND SWAP2 PUSH1 0x1 DUP1 PUSH1 0xA0 SHL SUB PUSH1 0x9 SLOAD AND SWAP4 PUSH1 0xA SLOAD SWAP6 PUSH1 0x40 MLOAD PUSH1 0xA0 MSTORE PUSH4 0xF7962097 PUSH1 0xE0 SHL PUSH1 0xA0 MLOAD MSTORE PUSH1 0x1 DUP1 PUSH1 0xA0 SHL SUB PUSH1 0x80 MLOAD AND PUSH1 0x4 PUSH1 0xA0 MLOAD ADD MSTORE ADDRESS PUSH1 0x24 PUSH1 0xA0 MLOAD ADD MSTORE PUSH1 0xE0 MLOAD PUSH1 0x44 PUSH1 0xA0 MLOAD ADD MSTORE PUSH1 0x64 PUSH1 0xA0 MLOAD ADD MSTORE PUSH1 0x84 PUSH1 0xA0 MLOAD ADD MSTORE PUSH1 0xA4 PUSH1 0xA0 MLOAD ADD MSTORE PUSH1 0xC4 PUSH1 0xA0 MLOAD ADD MSTORE PUSH1 0xE4 PUSH1 0xA0 MLOAD ADD MSTORE PUSH2 0x104 PUSH1 0xA0 MLOAD ADD MSTORE PUSH1 0x1 DUP1 PUSH1 0xA0 SHL SUB DUP2 AND PUSH2 0x124 PUSH1 0xA0 MLOAD ADD MSTORE PUSH1 0xA0 SHR AND PUSH2 0x144 PUSH1 0xA0 MLOAD ADD MSTORE PUSH1 0x20 PUSH1 0xA0 MLOAD PUSH2 0x164 PUSH1 0xA0 MLOAD PUSH1 0x0 PUSH1 0x1 DUP1 PUSH1 0xA0 SHL SUB PUSH32 0x0 AND GAS CALL SWAP8 DUP9 ISZERO PUSH2 0xED3 JUMPI PUSH1 0x0 SWAP9 PUSH2 0x100A JUMPI JUMPDEST PUSH1 0xA4 CALLDATALOAD PUSH8 0x6765C793FA10079D PUSH1 0x1B SHL MUL SWAP7 PUSH8 0x6765C793FA10079D PUSH1 0x1B SHL DUP9 DIV PUSH1 0xA4 CALLDATALOAD SUB PUSH2 0xFF4 JUMPI PUSH8 0x6765C793FA10079D PUSH1 0x1B SHL PUSH2 0x2710 DUP10 DIV DUP2 SUB GT PUSH2 0xFF4 JUMPI PUSH1 0x40 MLOAD PUSH4 0xA9059CBB PUSH1 0xE0 SHL DUP2 MSTORE PUSH1 0x1 PUSH1 0x1 PUSH1 0xA0 SHL SUB DUP12 DUP2 AND PUSH1 0x4 DUP4 ADD MSTORE PUSH2 0x2710 DUP11 DIV PUSH8 0x6765C793FA10079D PUSH1 0x1B SHL SUB PUSH1 0x24 DUP4 ADD MSTORE PUSH1 0x80 MLOAD PUSH1 0x20 SWAP2 DUP4 SWAP2 PUSH1 0x44 SWAP2 DUP4 SWAP2 PUSH1 0x0 SWAP2 AND GAS CALL SWAP1 DUP2 ISZERO PUSH2 0xED3 JUMPI PUSH1 0x0 SWAP2 PUSH2 0xFD5 JUMPI JUMPDEST POP ISZERO PUSH2 0xF99 JUMPI PUSH2 0x2710 DUP9 DIV PUSH2 0xEDF JUMPI JUMPDEST PUSH1 0x1 PUSH1 0x1 PUSH1 0xA0 SHL SUB DUP11 AND EXTCODESIZE ISZERO PUSH2 0xA19 JUMPI DUP10 PUSH1 0x0 PUSH2 0x2710 PUSH1 0x24 DUP12 DUP4 PUSH1 0x40 MLOAD SWAP6 DUP7 SWAP5 DUP6 SWAP4 PUSH4 0x95564837 PUSH1 0xE0 SHL DUP6 MSTORE DIV PUSH8 0x6765C793FA10079D PUSH1 0x1B SHL SUB PUSH1 0x4 DUP5 ADD MSTORE PUSH1 0x1 DUP1 PUSH1 0xA0 SHL SUB AND GAS CALL DUP1 ISZERO PUSH2 0xED3 JUMPI PUSH2 0xEBF JUMPI JUMPDEST POP PUSH1 0x1 PUSH1 0x1 PUSH1 0xA0 SHL SUB DUP11 AND EXTCODESIZE ISZERO PUSH2 0xE0E JUMPI PUSH1 0x40 MLOAD PUSH3 0xE2C3FD PUSH1 0xE1 SHL DUP2 MSTORE DUP11 DUP2 PUSH1 0x4 DUP2 PUSH1 0xC0 MLOAD SWAP4 PUSH1 0xC0 MLOAD SWAP1 PUSH1 0x1 DUP1 PUSH1 0xA0 SHL SUB AND GAS CALL DUP1 ISZERO PUSH2 0xA26 JUMPI PUSH2 0xEA9 JUMPI JUMPDEST POP PUSH1 0x40 MLOAD PUSH4 0x6B456EF PUSH1 0xE2 SHL DUP2 MSTORE PUSH1 0x20 DUP2 PUSH1 0x4 DUP2 PUSH1 0x1 PUSH1 0x1 PUSH1 0xA0 SHL SUB DUP16 AND GAS STATICCALL SWAP1 DUP2 ISZERO PUSH2 0xA26 JUMPI PUSH1 0xC0 MLOAD SWAP2 PUSH2 0xE7A JUMPI JUMPDEST POP PUSH1 0x1 PUSH1 0x1 PUSH1 0xA0 SHL SUB DUP2 AND PUSH2 0xE14 JUMPI JUMPDEST POP PUSH1 0x80 MLOAD PUSH1 0x1 PUSH1 0x1 PUSH1 0xA0 SHL SUB AND EXTCODESIZE ISZERO PUSH2 0xE0E JUMPI PUSH1 0x40 MLOAD PUSH4 0x6E258E07 PUSH1 0xE1 SHL DUP2 MSTORE PUSH1 0xC0 MLOAD PUSH1 0x80 MLOAD SWAP2 SWAP11 SWAP2 DUP12 SWAP1 PUSH1 0x4 SWAP1 DUP3 SWAP1 DUP5 SWAP1 PUSH1 0x1 PUSH1 0x1 PUSH1 0xA0 SHL SUB AND GAS CALL SWAP10 DUP11 ISZERO PUSH2 0xA26 JUMPI DUP12 SWAP11 PUSH2 0xDE6 JUMPI JUMPDEST POP PUSH2 0x62D SWAP4 PUSH1 0x20 SWAP9 SWAP7 SWAP4 PUSH2 0x615 PUSH2 0x639 SWAP10 SWAP8 SWAP5 PUSH2 0x621 SWAP5 DUP15 PUSH1 0x1 DUP1 PUSH1 0xA0 SHL SUB PUSH1 0x80 MLOAD AND PUSH1 0xC0 MLOAD MSTORE PUSH1 0xC DUP15 MSTORE PUSH1 0x40 PUSH1 0xC0 MLOAD KECCAK256 SWAP1 PUSH1 0x1 DUP1 PUSH1 0xA0 SHL SUB AND PUSH12 0xFFFFFFFFFFFFFFFFFFFFFFFF PUSH1 0xA0 SHL DUP3 SLOAD AND OR SWAP1 SSTORE PUSH1 0xB SLOAD SWAP16 PUSH1 0x40 MLOAD SWAP14 DUP15 SWAP2 PUSH2 0x5F4 DUP4 PUSH2 0x2635 JUMP JUMPDEST PUSH1 0x80 MLOAD PUSH1 0x1 PUSH1 0x1 PUSH1 0xA0 SHL SUB SWAP1 DUP2 AND DUP5 MSTORE AND SWAP2 ADD MSTORE CALLER PUSH1 0x40 DUP15 ADD MSTORE CALLDATASIZE SWAP2 PUSH2 0x2880 JUMP JUMPDEST PUSH1 0x60 DUP12 ADD MSTORE CALLDATASIZE SWAP2 PUSH2 0x2880 JUMP JUMPDEST PUSH1 0x80 DUP9 ADD MSTORE CALLDATASIZE SWAP2 PUSH2 0x2880 JUMP JUMPDEST PUSH1 0xA0 DUP6 ADD MSTORE CALLDATASIZE SWAP2 PUSH2 0x2880 JUMP JUMPDEST PUSH1 0xC0 DUP3 ADD MSTORE PUSH8 0x6765C793FA10079D PUSH1 0x1B SHL PUSH1 0xE0 DUP3 ADD MSTORE PUSH2 0x2710 DUP3 DIV PUSH2 0x100 DUP3 ADD MSTORE TIMESTAMP PUSH2 0x120 DUP3 ADD MSTORE PUSH1 0x1 PUSH1 0x40 SHL DUP5 LT ISZERO PUSH2 0xB33 JUMPI PUSH1 0x1 DUP5 ADD PUSH1 0xB SSTORE PUSH2 0x67D DUP5 PUSH2 0x269B JUMP JUMPDEST SWAP2 SWAP1 SWAP2 PUSH2 0xDCD JUMPI DUP1 MLOAD DUP3 SLOAD PUSH1 0x1 PUSH1 0x1 PUSH1 0xA0 SHL SUB SWAP2 DUP3 AND PUSH1 0x1 PUSH1 0x1 PUSH1 0xA0 SHL SUB NOT SWAP2 DUP3 AND OR DUP5 SSTORE PUSH1 0x20 DUP4 ADD MLOAD PUSH1 0x1 DUP6 ADD DUP1 SLOAD SWAP2 DUP5 AND SWAP2 DUP4 AND SWAP2 SWAP1 SWAP2 OR SWAP1 SSTORE PUSH1 0x40 DUP4 ADD MLOAD PUSH1 0x2 DUP6 ADD DUP1 SLOAD SWAP2 SWAP1 SWAP4 AND SWAP2 AND OR SWAP1 SSTORE PUSH1 0x60 DUP2 ADD MLOAD DUP1 MLOAD SWAP1 PUSH1 0x1 PUSH1 0x1 PUSH1 0x40 SHL SUB DUP3 GT PUSH2 0xB33 JUMPI DUP2 SWAP1 PUSH2 0x6F2 PUSH1 0x3 DUP7 ADD SLOAD PUSH2 0x26EC JUMP JUMPDEST PUSH1 0x1F DUP2 GT PUSH2 0xD77 JUMPI JUMPDEST POP PUSH1 0x20 SWAP1 PUSH1 0x1 PUSH1 0x1F DUP5 GT EQ PUSH2 0xD02 JUMPI PUSH1 0xC0 MLOAD SWAP3 PUSH2 0xCF7 JUMPI JUMPDEST POP POP DUP2 PUSH1 0x1 SHL SWAP2 PUSH1 0x0 NOT SWAP1 PUSH1 0x3 SHL SHR NOT AND OR PUSH1 0x3 DUP4 ADD SSTORE JUMPDEST PUSH1 0x80 DUP2 ADD MLOAD DUP1 MLOAD SWAP1 PUSH1 0x1 PUSH1 0x1 PUSH1 0x40 SHL SUB DUP3 GT PUSH2 0xB33 JUMPI DUP2 SWAP1 PUSH2 0x750 PUSH1 0x4 DUP7 ADD SLOAD PUSH2 0x26EC JUMP JUMPDEST PUSH1 0x1F DUP2 GT PUSH2 0xCA1 JUMPI JUMPDEST POP PUSH1 0x20 SWAP1 PUSH1 0x1 PUSH1 0x1F DUP5 GT EQ PUSH2 0xC2C JUMPI PUSH1 0xC0 MLOAD SWAP3 PUSH2 0xC21 JUMPI JUMPDEST POP POP DUP2 PUSH1 0x1 SHL SWAP2 PUSH1 0x0 NOT SWAP1 PUSH1 0x3 SHL SHR NOT AND OR PUSH1 0x4 DUP4 ADD SSTORE JUMPDEST PUSH1 0xA0 DUP2 ADD MLOAD DUP1 MLOAD SWAP1 PUSH1 0x1 PUSH1 0x1 PUSH1 0x40 SHL SUB DUP3 GT PUSH2 0xB33 JUMPI DUP2 SWAP1 PUSH2 0x7AE PUSH1 0x5 DUP7 ADD SLOAD PUSH2 0x26EC JUMP JUMPDEST PUSH1 0x1F DUP2 GT PUSH2 0xBCB JUMPI JUMPDEST POP PUSH1 0x20 SWAP1 PUSH1 0x1 PUSH1 0x1F DUP5 GT EQ PUSH2 0xB56 JUMPI PUSH1 0xC0 MLOAD SWAP3 PUSH2 0xB4B JUMPI JUMPDEST POP POP DUP2 PUSH1 0x1 SHL SWAP2 PUSH1 0x0 NOT SWAP1 PUSH1 0x3 SHL SHR NOT AND OR PUSH1 0x5 DUP4 ADD SSTORE JUMPDEST PUSH1 0xC0 DUP2 ADD MLOAD DUP1 MLOAD SWAP1 PUSH1 0x1 PUSH1 0x1 PUSH1 0x40 SHL SUB DUP3 GT PUSH2 0xB33 JUMPI PUSH2 0x80A PUSH1 0x6 DUP6 ADD SLOAD PUSH2 0x26EC JUMP JUMPDEST PUSH1 0x1F DUP2 GT PUSH2 0xAE9 JUMPI JUMPDEST POP PUSH1 0x20 SWAP1 PUSH1 0x1 PUSH1 0x1F DUP5 GT EQ PUSH2 0xA70 JUMPI SWAP2 DUP1 PUSH1 0x9 SWAP5 SWAP3 PUSH2 0x120 SWAP5 PUSH1 0xC0 MLOAD SWAP3 PUSH2 0xA65 JUMPI JUMPDEST POP POP DUP2 PUSH1 0x1 SHL SWAP2 PUSH1 0x0 NOT SWAP1 PUSH1 0x3 SHL SHR NOT AND OR PUSH1 0x6 DUP6 ADD SSTORE JUMPDEST PUSH1 0xE0 DUP2 ADD MLOAD PUSH1 0x7 DUP6 ADD SSTORE PUSH2 0x100 DUP2 ADD MLOAD PUSH1 0x8 DUP6 ADD SSTORE ADD MLOAD SWAP2 ADD SSTORE PUSH3 0xFFFFFF PUSH1 0x3 SLOAD PUSH1 0x7 SLOAD PUSH1 0x1 DUP1 PUSH1 0xA0 SHL SUB PUSH1 0x8 SLOAD AND PUSH1 0x1 DUP1 PUSH1 0xA0 SHL SUB PUSH1 0x9 SLOAD AND SWAP2 PUSH1 0xA SLOAD SWAP4 PUSH2 0x2710 PUSH1 0x40 MLOAD SWAP8 PUSH1 0x1 DUP1 PUSH1 0xA0 SHL SUB DUP11 AND DUP10 MSTORE PUSH8 0x6765C793FA10079D PUSH1 0x1B SHL PUSH1 0x20 DUP11 ADD MSTORE DIV PUSH1 0x40 DUP9 ADD MSTORE PUSH1 0x60 DUP8 ADD MSTORE PUSH1 0x80 DUP7 ADD MSTORE PUSH1 0xA0 DUP6 ADD MSTORE PUSH1 0xC0 DUP5 ADD MSTORE PUSH1 0x1 DUP1 PUSH1 0xA0 SHL SUB DUP2 AND PUSH1 0xE0 DUP5 ADD MSTORE PUSH1 0xA0 SHR AND PUSH2 0x100 DUP3 ADD MSTORE PUSH1 0x1 DUP1 PUSH1 0xA0 SHL SUB PUSH1 0x80 MLOAD AND SWAP1 DUP4 PUSH32 0x47D6CD3E0239E764A392DB701C655FEA8A19D6D059350EC7D8DF5DC84004320 PUSH2 0x120 CALLER SWAP4 LOG4 PUSH1 0x40 MLOAD PUSH4 0x17773EBB PUSH1 0xE0 SHL DUP2 MSTORE PUSH1 0x80 MLOAD PUSH1 0x20 SWAP1 DUP3 SWAP1 PUSH1 0x4 SWAP1 DUP3 SWAP1 PUSH1 0x1 PUSH1 0x1 PUSH1 0xA0 SHL SUB AND GAS STATICCALL SWAP1 DUP2 ISZERO PUSH2 0xA26 JUMPI PUSH1 0xC0 MLOAD SWAP2 PUSH2 0xA33 JUMPI JUMPDEST POP PUSH1 0x40 MLOAD PUSH4 0x116E689F PUSH1 0xE1 SHL DUP2 MSTORE PUSH1 0x80 MLOAD PUSH1 0x20 SWAP1 DUP3 SWAP1 PUSH1 0x4 SWAP1 DUP3 SWAP1 PUSH1 0x1 PUSH1 0x1 PUSH1 0xA0 SHL SUB AND GAS STATICCALL SWAP1 DUP2 ISZERO PUSH2 0xA26 JUMPI PUSH1 0xC0 MLOAD SWAP2 PUSH2 0x9EF JUMPI JUMPDEST POP PUSH1 0x40 MLOAD SWAP2 PUSH1 0xC4 CALLDATALOAD DUP4 MSTORE PUSH1 0x20 DUP4 ADD MSTORE PUSH1 0x40 DUP3 ADD MSTORE DUP3 PUSH32 0x8620494F920761BD37321DDD1F125E085D81426820D3CA4E8B1F0AB3DAB7A578 PUSH1 0x60 PUSH1 0x1 DUP1 PUSH1 0xA0 SHL SUB PUSH1 0x80 MLOAD AND SWAP4 LOG3 PUSH1 0x40 DUP1 MLOAD PUSH1 0x80 MLOAD SWAP4 DUP2 MSTORE PUSH1 0x1 PUSH1 0x1 PUSH1 0xA0 SHL SUB SWAP4 DUP5 AND PUSH1 0x20 DUP3 ADD MSTORE SWAP2 SWAP1 SWAP3 AND SWAP2 DUP2 ADD SWAP2 SWAP1 SWAP2 MSTORE PUSH1 0x60 SWAP1 RETURN JUMPDEST SWAP1 POP PUSH1 0x20 DUP2 RETURNDATASIZE PUSH1 0x20 GT PUSH2 0xA1E JUMPI JUMPDEST DUP2 PUSH2 0xA0A PUSH1 0x20 SWAP4 DUP4 PUSH2 0x267A JUMP JUMPDEST DUP2 ADD SUB SLT PUSH2 0xA19 JUMPI MLOAD CODESIZE PUSH2 0x980 JUMP JUMPDEST PUSH1 0x0 DUP1 REVERT JUMPDEST RETURNDATASIZE SWAP2 POP PUSH2 0x9FD JUMP JUMPDEST PUSH1 0x40 MLOAD RETURNDATASIZE PUSH1 0xC0 MLOAD DUP3 RETURNDATACOPY RETURNDATASIZE SWAP1 REVERT JUMPDEST SWAP1 POP PUSH1 0x20 DUP2 RETURNDATASIZE PUSH1 0x20 GT PUSH2 0xA5D JUMPI JUMPDEST DUP2 PUSH2 0xA4E PUSH1 0x20 SWAP4 DUP4 PUSH2 0x267A JUMP JUMPDEST DUP2 ADD SUB SLT PUSH2 0xA19 JUMPI MLOAD CODESIZE PUSH2 0x94A JUMP JUMPDEST RETURNDATASIZE SWAP2 POP PUSH2 0xA41 JUMP JUMPDEST ADD MLOAD SWAP1 POP CODESIZE DUP1 PUSH2 0x835 JUMP JUMPDEST SWAP1 PUSH1 0x6 DUP6 ADD PUSH1 0xC0 MLOAD MSTORE PUSH1 0x20 PUSH1 0xC0 MLOAD KECCAK256 SWAP2 PUSH1 0xC0 MLOAD JUMPDEST PUSH1 0x1F NOT DUP6 AND DUP2 LT PUSH2 0xAD1 JUMPI POP SWAP3 PUSH1 0x9 SWAP5 SWAP3 PUSH1 0x1 SWAP3 PUSH2 0x120 SWAP6 DUP4 PUSH1 0x1F NOT DUP2 AND LT PUSH2 0xAB8 JUMPI JUMPDEST POP POP POP DUP2 SHL ADD PUSH1 0x6 DUP6 ADD SSTORE PUSH2 0x84D JUMP JUMPDEST ADD MLOAD PUSH1 0x0 NOT PUSH1 0xF8 DUP5 PUSH1 0x3 SHL AND SHR NOT AND SWAP1 SSTORE CODESIZE DUP1 DUP1 PUSH2 0xAA8 JUMP JUMPDEST SWAP2 SWAP3 PUSH1 0x20 PUSH1 0x1 DUP2 SWAP3 DUP7 DUP6 ADD MLOAD DUP2 SSTORE ADD SWAP5 ADD SWAP3 ADD PUSH2 0xA84 JUMP JUMPDEST PUSH1 0x6 DUP6 ADD PUSH1 0xC0 MLOAD MSTORE PUSH1 0x20 PUSH1 0xC0 MLOAD KECCAK256 PUSH1 0x1F DUP5 ADD PUSH1 0x5 SHR DUP2 ADD PUSH1 0x20 DUP6 LT PUSH2 0xB2C JUMPI JUMPDEST PUSH1 0x1F DUP4 ADD PUSH1 0x5 SHR DUP3 ADD DUP2 LT PUSH2 0xB1F JUMPI POP POP PUSH2 0x813 JUMP JUMPDEST PUSH1 0xC0 MLOAD DUP2 SSTORE PUSH1 0x1 ADD PUSH2 0xB09 JUMP JUMPDEST POP DUP1 PUSH2 0xB09 JUMP JUMPDEST PUSH4 0x4E487B71 PUSH1 0xE0 SHL PUSH1 0xC0 MLOAD MSTORE PUSH1 0x41 PUSH1 0x4 MSTORE PUSH1 0x24 PUSH1 0xC0 MLOAD REVERT JUMPDEST ADD MLOAD SWAP1 POP CODESIZE DUP1 PUSH2 0x7CF JUMP JUMPDEST SWAP3 POP PUSH1 0x5 DUP6 ADD PUSH1 0xC0 MLOAD MSTORE PUSH1 0x20 PUSH1 0xC0 MLOAD KECCAK256 SWAP1 PUSH1 0xC0 MLOAD SWAP4 JUMPDEST PUSH1 0x1F NOT DUP5 AND DUP6 LT PUSH2 0xBB0 JUMPI PUSH1 0x1 SWAP5 POP DUP4 PUSH1 0x1F NOT DUP2 AND LT PUSH2 0xB97 JUMPI JUMPDEST POP POP POP DUP2 SHL ADD PUSH1 0x5 DUP4 ADD SSTORE PUSH2 0x7E7 JUMP JUMPDEST ADD MLOAD PUSH1 0x0 NOT PUSH1 0xF8 DUP5 PUSH1 0x3 SHL AND SHR NOT AND SWAP1 SSTORE CODESIZE DUP1 DUP1 PUSH2 0xB87 JUMP JUMPDEST DUP2 DUP2 ADD MLOAD DUP4 SSTORE PUSH1 0x20 SWAP5 DUP6 ADD SWAP5 PUSH1 0x1 SWAP1 SWAP4 ADD SWAP3 SWAP1 SWAP2 ADD SWAP1 PUSH2 0xB6C JUMP JUMPDEST SWAP1 SWAP2 POP PUSH1 0x5 DUP6 ADD PUSH1 0xC0 MLOAD MSTORE PUSH1 0x20 PUSH1 0xC0 MLOAD KECCAK256 PUSH1 0x1F DUP5 ADD PUSH1 0x5 SHR DUP2 ADD PUSH1 0x20 DUP6 LT PUSH2 0xC1A JUMPI JUMPDEST SWAP1 DUP5 SWAP4 SWAP3 SWAP2 JUMPDEST PUSH1 0x1F DUP4 ADD PUSH1 0x5 SHR DUP3 ADD DUP2 LT PUSH2 0xC0A JUMPI POP POP PUSH2 0x7B7 JUMP JUMPDEST PUSH1 0xC0 MLOAD DUP2 SSTORE DUP6 SWAP5 POP PUSH1 0x1 ADD PUSH2 0xBF4 JUMP JUMPDEST POP DUP1 PUSH2 0xBEE JUMP JUMPDEST ADD MLOAD SWAP1 POP CODESIZE DUP1 PUSH2 0x771 JUMP JUMPDEST SWAP3 POP PUSH1 0x4 DUP6 ADD PUSH1 0xC0 MLOAD MSTORE PUSH1 0x20 PUSH1 0xC0 MLOAD KECCAK256 SWAP1 PUSH1 0xC0 MLOAD SWAP4 JUMPDEST PUSH1 0x1F NOT DUP5 AND DUP6 LT PUSH2 0xC86 JUMPI PUSH1 0x1 SWAP5 POP DUP4 PUSH1 0x1F NOT DUP2 AND LT PUSH2 0xC6D JUMPI JUMPDEST POP POP POP DUP2 SHL ADD PUSH1 0x4 DUP4 ADD SSTORE PUSH2 0x789 JUMP JUMPDEST ADD MLOAD PUSH1 0x0 NOT PUSH1 0xF8 DUP5 PUSH1 0x3 SHL AND SHR NOT AND SWAP1 SSTORE CODESIZE DUP1 DUP1 PUSH2 0xC5D JUMP JUMPDEST DUP2 DUP2 ADD MLOAD DUP4 SSTORE PUSH1 0x20 SWAP5 DUP6 ADD SWAP5 PUSH1 0x1 SWAP1 SWAP4 ADD SWAP3 SWAP1 SWAP2 ADD SWAP1 PUSH2 0xC42 JUMP JUMPDEST SWAP1 SWAP2 POP PUSH1 0x4 DUP6 ADD PUSH1 0xC0 MLOAD MSTORE PUSH1 0x20 PUSH1 0xC0 MLOAD KECCAK256 PUSH1 0x1F DUP5 ADD PUSH1 0x5 SHR DUP2 ADD PUSH1 0x20 DUP6 LT PUSH2 0xCF0 JUMPI JUMPDEST SWAP1 DUP5 SWAP4 SWAP3 SWAP2 JUMPDEST PUSH1 0x1F DUP4 ADD PUSH1 0x5 SHR DUP3 ADD DUP2 LT PUSH2 0xCE0 JUMPI POP POP PUSH2 0x759 JUMP JUMPDEST PUSH1 0xC0 MLOAD DUP2 SSTORE DUP6 SWAP5 POP PUSH1 0x1 ADD PUSH2 0xCCA JUMP JUMPDEST POP DUP1 PUSH2 0xCC4 JUMP JUMPDEST ADD MLOAD SWAP1 POP CODESIZE DUP1 PUSH2 0x713 JUMP JUMPDEST SWAP3 POP PUSH1 0x3 DUP6 ADD PUSH1 0xC0 MLOAD MSTORE PUSH1 0x20 PUSH1 0xC0 MLOAD KECCAK256 SWAP1 PUSH1 0xC0 MLOAD SWAP4 JUMPDEST PUSH1 0x1F NOT DUP5 AND DUP6 LT PUSH2 0xD5C JUMPI PUSH1 0x1 SWAP5 POP DUP4 PUSH1 0x1F NOT DUP2 AND LT PUSH2 0xD43 JUMPI JUMPDEST POP POP POP DUP2 SHL ADD PUSH1 0x3 DUP4 ADD SSTORE PUSH2 0x72B JUMP JUMPDEST ADD MLOAD PUSH1 0x0 NOT PUSH1 0xF8 DUP5 PUSH1 0x3 SHL AND SHR NOT AND SWAP1 SSTORE CODESIZE DUP1 DUP1 PUSH2 0xD33 JUMP JUMPDEST DUP2 DUP2 ADD MLOAD DUP4 SSTORE PUSH1 0x20 SWAP5 DUP6 ADD SWAP5 PUSH1 0x1 SWAP1 SWAP4 ADD SWAP3 SWAP1 SWAP2 ADD SWAP1 PUSH2 0xD18 JUMP JUMPDEST SWAP1 SWAP2 POP PUSH1 0x3 DUP6 ADD PUSH1 0xC0 MLOAD MSTORE PUSH1 0x20 PUSH1 0xC0 MLOAD KECCAK256 PUSH1 0x1F DUP5 ADD PUSH1 0x5 SHR DUP2 ADD PUSH1 0x20 DUP6 LT PUSH2 0xDC6 JUMPI JUMPDEST SWAP1 DUP5 SWAP4 SWAP3 SWAP2 JUMPDEST PUSH1 0x1F DUP4 ADD PUSH1 0x5 SHR DUP3 ADD DUP2 LT PUSH2 0xDB6 JUMPI POP POP PUSH2 0x6FB JUMP JUMPDEST PUSH1 0xC0 MLOAD DUP2 SSTORE DUP6 SWAP5 POP PUSH1 0x1 ADD PUSH2 0xDA0 JUMP JUMPDEST POP DUP1 PUSH2 0xD9A JUMP JUMPDEST PUSH4 0x4E487B71 PUSH1 0xE0 SHL PUSH1 0xC0 MLOAD MSTORE PUSH1 0xC0 MLOAD PUSH1 0x4 MSTORE PUSH1 0x24 PUSH1 0xC0 MLOAD REVERT JUMPDEST PUSH2 0xDF8 SWAP2 SWAP5 SWAP9 SWAP7 SWAP4 SWAP8 SWAP6 SWAP3 SWAP11 POP PUSH2 0x2667 JUMP JUMPDEST PUSH1 0xC0 MLOAD PUSH2 0xE0E JUMPI SWAP3 SWAP5 SWAP1 SWAP4 SWAP6 SWAP2 SWAP8 DUP10 SWAP9 CODESIZE PUSH2 0x591 JUMP JUMPDEST PUSH1 0xC0 MLOAD DUP1 REVERT JUMPDEST PUSH1 0x80 MLOAD PUSH1 0x1 PUSH1 0x1 PUSH1 0xA0 SHL SUB AND EXTCODESIZE ISZERO PUSH2 0xE0E JUMPI PUSH1 0x40 MLOAD PUSH4 0x15C6DEB9 PUSH1 0xE3 SHL DUP2 MSTORE PUSH1 0x1 PUSH1 0x1 PUSH1 0xA0 SHL SUB SWAP2 DUP3 AND PUSH1 0x4 DUP3 ADD MSTORE PUSH1 0xC0 MLOAD PUSH1 0x80 MLOAD SWAP2 SWAP3 SWAP1 SWAP2 DUP4 SWAP2 PUSH1 0x24 SWAP2 DUP4 SWAP2 DUP6 SWAP2 AND GAS CALL DUP1 ISZERO PUSH2 0xA26 JUMPI ISZERO PUSH2 0x546 JUMPI PUSH2 0xE6D SWAP1 PUSH2 0x2667 JUMP JUMPDEST PUSH1 0xC0 MLOAD PUSH2 0xE0E JUMPI CODESIZE PUSH2 0x546 JUMP JUMPDEST PUSH2 0xE9C SWAP2 POP PUSH1 0x20 RETURNDATASIZE PUSH1 0x20 GT PUSH2 0xEA2 JUMPI JUMPDEST PUSH2 0xE94 DUP2 DUP4 PUSH2 0x267A JUMP JUMPDEST DUP2 ADD SWAP1 PUSH2 0x280D JUMP JUMPDEST CODESIZE PUSH2 0x536 JUMP JUMPDEST POP RETURNDATASIZE PUSH2 0xE8A JUMP JUMPDEST PUSH2 0xEB2 SWAP1 PUSH2 0x2667 JUMP JUMPDEST PUSH1 0xC0 MLOAD PUSH2 0xE0E JUMPI CODESIZE PUSH2 0x506 JUMP JUMPDEST PUSH2 0xEC8 SWAP1 PUSH2 0x2667 JUMP JUMPDEST PUSH1 0x0 PUSH1 0xC0 MSTORE CODESIZE PUSH2 0x4C7 JUMP JUMPDEST PUSH1 0x40 MLOAD RETURNDATASIZE PUSH1 0x0 DUP3 RETURNDATACOPY RETURNDATASIZE SWAP1 REVERT JUMPDEST PUSH1 0x40 MLOAD PUSH4 0xA9059CBB PUSH1 0xE0 SHL DUP2 MSTORE CALLER PUSH1 0x4 DUP3 ADD MSTORE PUSH2 0x2710 DUP10 DIV PUSH1 0x24 DUP3 ADD MSTORE PUSH1 0x80 MLOAD PUSH1 0x20 SWAP1 DUP3 SWAP1 PUSH1 0x44 SWAP1 DUP3 SWAP1 PUSH1 0x0 SWAP1 PUSH1 0x1 PUSH1 0x1 PUSH1 0xA0 SHL SUB AND GAS CALL SWAP1 DUP2 ISZERO PUSH2 0xED3 JUMPI PUSH1 0x0 SWAP2 PUSH2 0xF6A JUMPI JUMPDEST POP PUSH2 0x473 JUMPI PUSH1 0x40 MLOAD PUSH3 0x461BCD PUSH1 0xE5 SHL DUP2 MSTORE PUSH1 0x20 PUSH1 0x4 DUP3 ADD MSTORE PUSH1 0x17 PUSH1 0x24 DUP3 ADD MSTORE PUSH23 0x18DC99585D1BDC881D1C985B9CD9995C8819985A5B1959 PUSH1 0x4A SHL PUSH1 0x44 DUP3 ADD MSTORE PUSH1 0x64 SWAP1 REVERT JUMPDEST PUSH2 0xF8C SWAP2 POP PUSH1 0x20 RETURNDATASIZE PUSH1 0x20 GT PUSH2 0xF92 JUMPI JUMPDEST PUSH2 0xF84 DUP2 DUP4 PUSH2 0x267A JUMP JUMPDEST DUP2 ADD SWAP1 PUSH2 0x284D JUMP JUMPDEST CODESIZE PUSH2 0xF26 JUMP JUMPDEST POP RETURNDATASIZE PUSH2 0xF7A JUMP JUMPDEST PUSH1 0x40 MLOAD PUSH3 0x461BCD PUSH1 0xE5 SHL DUP2 MSTORE PUSH1 0x20 PUSH1 0x4 DUP3 ADD MSTORE PUSH1 0x14 PUSH1 0x24 DUP3 ADD MSTORE PUSH20 0x1C1BDBDB081D1C985B9CD9995C8819985A5B1959 PUSH1 0x62 SHL PUSH1 0x44 DUP3 ADD MSTORE PUSH1 0x64 SWAP1 REVERT JUMPDEST PUSH2 0xFEE SWAP2 POP PUSH1 0x20 RETURNDATASIZE PUSH1 0x20 GT PUSH2 0xF92 JUMPI PUSH2 0xF84 DUP2 DUP4 PUSH2 0x267A JUMP JUMPDEST CODESIZE PUSH2 0x463 JUMP JUMPDEST PUSH4 0x4E487B71 PUSH1 0xE0 SHL PUSH1 0x0 MSTORE PUSH1 0x11 PUSH1 0x4 MSTORE PUSH1 0x24 PUSH1 0x0 REVERT JUMPDEST SWAP8 POP PUSH1 0x20 RETURNDATASIZE PUSH1 0x20 GT PUSH2 0x1039 JUMPI JUMPDEST DUP1 PUSH2 0x1027 PUSH2 0x1033 SWAP3 PUSH1 0xA0 MLOAD PUSH2 0x267A JUMP JUMPDEST PUSH1 0xA0 MLOAD ADD PUSH1 0xA0 MLOAD PUSH2 0x280D JUMP JUMPDEST SWAP8 PUSH2 0x3CE JUMP JUMPDEST POP RETURNDATASIZE PUSH2 0x1017 JUMP JUMPDEST PUSH2 0x1058 SWAP1 PUSH1 0x20 RETURNDATASIZE PUSH1 0x20 GT PUSH2 0xEA2 JUMPI PUSH2 0xE94 DUP2 DUP4 PUSH2 0x267A JUMP JUMPDEST PUSH1 0x80 MSTORE CODESIZE PUSH2 0x2CE JUMP JUMPDEST PUSH1 0x40 MLOAD PUSH3 0x461BCD PUSH1 0xE5 SHL DUP2 MSTORE PUSH1 0x20 PUSH1 0x4 DUP3 ADD MSTORE PUSH1 0x12 PUSH1 0x24 DUP3 ADD MSTORE PUSH18 0xE8E4C2C8CA40CCCACA40E8DEDE40D0D2CED PUSH1 0x73 SHL PUSH1 0x44 DUP3 ADD MSTORE PUSH1 0x64 SWAP1 REVERT JUMPDEST PUSH1 0x40 MLOAD PUSH3 0x461BCD PUSH1 0xE5 SHL DUP2 MSTORE PUSH1 0x20 PUSH1 0x4 DUP3 ADD MSTORE PUSH1 0x13 PUSH1 0x24 DUP3 ADD MSTORE PUSH19 0xC2D8D8DEC6C2E8D2DEDC40E8DEDE40D0D2CED PUSH1 0x6B SHL PUSH1 0x44 DUP3 ADD MSTORE PUSH1 0x64 SWAP1 REVERT JUMPDEST PUSH1 0x40 MLOAD PUSH3 0x461BCD PUSH1 0xE5 SHL DUP2 MSTORE PUSH1 0x20 PUSH1 0x4 DUP3 ADD MSTORE PUSH1 0xF PUSH1 0x24 DUP3 ADD MSTORE PUSH15 0x1CDE5B589BDB081C995C5D5A5C9959 PUSH1 0x8A SHL PUSH1 0x44 DUP3 ADD MSTORE PUSH1 0x64 SWAP1 REVERT JUMPDEST PUSH1 0x40 MLOAD PUSH3 0x461BCD PUSH1 0xE5 SHL DUP2 MSTORE PUSH1 0x20 PUSH1 0x4 DUP3 ADD MSTORE PUSH1 0xD PUSH1 0x24 DUP3 ADD MSTORE PUSH13 0x1B985B59481C995C5D5A5C9959 PUSH1 0x9A SHL PUSH1 0x44 DUP3 ADD MSTORE PUSH1 0x64 SWAP1 REVERT JUMPDEST CALLVALUE PUSH2 0xA19 JUMPI PUSH1 0x20 CALLDATASIZE PUSH1 0x3 NOT ADD SLT PUSH2 0xA19 JUMPI PUSH1 0x4 CALLDATALOAD PUSH1 0x1 PUSH1 0x1 PUSH1 0xA0 SHL SUB DUP2 DUP2 AND SWAP2 DUP3 SWAP1 SUB PUSH2 0xA19 JUMPI PUSH1 0x0 SLOAD SWAP1 DUP2 AND CALLER SUB PUSH2 0x11C1 JUMPI DUP2 ISZERO PUSH2 0x118B JUMPI PUSH1 0x1 PUSH1 0x1 PUSH1 0xA0 SHL SUB NOT AND OR PUSH1 0x0 SSTORE STOP JUMPDEST PUSH1 0x40 MLOAD PUSH3 0x461BCD PUSH1 0xE5 SHL DUP2 MSTORE PUSH1 0x20 PUSH1 0x4 DUP3 ADD MSTORE PUSH1 0xE PUSH1 0x24 DUP3 ADD MSTORE PUSH14 0x1BDDDB995C881C995C5D5A5C9959 PUSH1 0x92 SHL PUSH1 0x44 DUP3 ADD MSTORE PUSH1 0x64 SWAP1 REVERT JUMPDEST PUSH1 0x40 MLOAD PUSH3 0x461BCD PUSH1 0xE5 SHL DUP2 MSTORE PUSH1 0x20 PUSH1 0x4 DUP3 ADD MSTORE PUSH1 0xA PUSH1 0x24 DUP3 ADD MSTORE PUSH10 0x37B7363C9037BBB732B9 PUSH1 0xB1 SHL PUSH1 0x44 DUP3 ADD MSTORE PUSH1 0x64 SWAP1 REVERT JUMPDEST CALLVALUE PUSH2 0xA19 JUMPI PUSH1 0x0 CALLDATASIZE PUSH1 0x3 NOT ADD SLT PUSH2 0xA19 JUMPI PUSH1 0x2 SLOAD PUSH1 0x40 MLOAD PUSH1 0x1 PUSH1 0x1 PUSH1 0xA0 SHL SUB SWAP1 SWAP2 AND DUP2 MSTORE PUSH1 0x20 SWAP1 RETURN JUMPDEST CALLVALUE PUSH2 0xA19 JUMPI PUSH1 0x0 CALLDATASIZE PUSH1 0x3 NOT ADD SLT PUSH2 0xA19 JUMPI PUSH1 0x20 PUSH1 0x40 MLOAD PUSH2 0x2710 DUP2 MSTORE RETURN JUMPDEST CALLVALUE PUSH2 0xA19 JUMPI PUSH1 0x0 CALLDATASIZE PUSH1 0x3 NOT ADD SLT PUSH2 0xA19 JUMPI PUSH1 0x8 SLOAD PUSH1 0x40 MLOAD PUSH1 0x1 PUSH1 0x1 PUSH1 0xA0 SHL SUB SWAP1 SWAP2 AND DUP2 MSTORE PUSH1 0x20 SWAP1 RETURN JUMPDEST CALLVALUE PUSH2 0xA19 JUMPI PUSH1 0x0 CALLDATASIZE PUSH1 0x3 NOT ADD SLT PUSH2 0xA19 JUMPI PUSH1 0x20 PUSH1 0x3 SLOAD PUSH1 0x40 MLOAD SWAP1 DUP2 MSTORE RETURN JUMPDEST CALLVALUE PUSH2 0xA19 JUMPI PUSH1 0x0 CALLDATASIZE PUSH1 0x3 NOT ADD SLT PUSH2 0xA19 JUMPI PUSH1 0x20 PUSH1 0x40 MLOAD PUSH8 0x6765C793FA10079D PUSH1 0x1B SHL DUP2 MSTORE RETURN JUMPDEST CALLVALUE PUSH2 0xA19 JUMPI PUSH1 0x0 CALLDATASIZE PUSH1 0x3 NOT ADD SLT PUSH2 0xA19 JUMPI PUSH1 0x20 PUSH1 0xB SLOAD PUSH1 0x40 MLOAD SWAP1 DUP2 MSTORE RETURN JUMPDEST CALLVALUE PUSH2 0xA19 JUMPI PUSH1 0x0 CALLDATASIZE PUSH1 0x3 NOT ADD SLT PUSH2 0xA19 JUMPI PUSH1 0x20 PUSH1 0x6 SLOAD PUSH1 0x40 MLOAD SWAP1 DUP2 MSTORE RETURN JUMPDEST CALLVALUE PUSH2 0xA19 JUMPI PUSH1 0x0 CALLDATASIZE PUSH1 0x3 NOT ADD SLT PUSH2 0xA19 JUMPI PUSH1 0x0 SLOAD PUSH1 0x40 MLOAD PUSH1 0x1 PUSH1 0x1 PUSH1 0xA0 SHL SUB SWAP1 SWAP2 AND DUP2 MSTORE PUSH1 0x20 SWAP1 RETURN JUMPDEST CALLVALUE PUSH2 0xA19 JUMPI PUSH1 0x0 CALLDATASIZE PUSH1 0x3 NOT ADD SLT PUSH2 0xA19 JUMPI PUSH1 0x20 PUSH1 0x4 SLOAD PUSH1 0x40 MLOAD SWAP1 DUP2 MSTORE RETURN JUMPDEST CALLVALUE PUSH2 0xA19 JUMPI PUSH1 0x0 CALLDATASIZE PUSH1 0x3 NOT ADD SLT PUSH2 0xA19 JUMPI PUSH1 0x20 PUSH1 0x7 SLOAD PUSH1 0x40 MLOAD SWAP1 DUP2 MSTORE RETURN JUMPDEST PUSH1 0xC0 CALLDATASIZE PUSH1 0x3 NOT ADD SLT PUSH2 0xA19 JUMPI PUSH1 0x4 CALLDATALOAD PUSH1 0x1 PUSH1 0x1 PUSH1 0x40 SHL SUB DUP2 GT PUSH2 0xA19 JUMPI PUSH2 0x1372 SWAP1 CALLDATASIZE SWAP1 PUSH1 0x4 ADD PUSH2 0x2608 JUMP JUMPDEST PUSH1 0x24 CALLDATALOAD PUSH1 0x1 PUSH1 0x1 PUSH1 0x40 SHL SUB DUP2 GT PUSH2 0xA19 JUMPI PUSH2 0x1391 SWAP1 CALLDATASIZE SWAP1 PUSH1 0x4 ADD PUSH2 0x2608 JUMP JUMPDEST SWAP3 SWAP1 PUSH1 0x44 CALLDATALOAD PUSH1 0x1 PUSH1 0x1 PUSH1 0x40 SHL SUB DUP2 GT PUSH2 0xA19 JUMPI PUSH2 0x13B2 SWAP1 CALLDATASIZE SWAP1 PUSH1 0x4 ADD PUSH2 0x2608 JUMP JUMPDEST SWAP1 PUSH1 0x64 CALLDATALOAD PUSH1 0x1 PUSH1 0x1 PUSH1 0x40 SHL SUB DUP2 GT PUSH2 0xA19 JUMPI PUSH2 0x13D2 SWAP1 CALLDATASIZE SWAP1 PUSH1 0x4 ADD PUSH2 0x2608 JUMP JUMPDEST SWAP3 SWAP1 SWAP4 PUSH2 0x13E2 PUSH1 0x4 SLOAD CALLVALUE EQ PUSH2 0x27CB JUMP JUMPDEST PUSH1 0x0 PUSH2 0x140 MSTORE DUP7 ISZERO PUSH2 0x110D JUMPI DUP8 ISZERO PUSH2 0x10D6 JUMPI PUSH2 0x7D0 PUSH1 0xA4 CALLDATALOAD GT PUSH2 0x109B JUMPI PUSH1 0x0 PUSH2 0x140 MSTORE PUSH2 0x140D PUSH2 0x28B7 JUMP JUMPDEST PUSH1 0x40 MLOAD PUSH1 0x0 DUP2 MSTORE PUSH32 0xB610EA5B60C2E916119AD74EB6F1C4E02B296189E982F615F38630738BE97865 PUSH1 0x20 CALLER SWAP3 LOG2 PUSH1 0x2 SLOAD PUSH1 0x40 MLOAD PUSH4 0x65A61CAB PUSH1 0xE0 SHL DUP2 MSTORE PUSH1 0xE0 PUSH1 0x4 DUP3 ADD MSTORE SWAP1 PUSH1 0x20 SWAP1 DUP3 SWAP1 DUP2 SWAP1 PUSH1 0x1 PUSH1 0x1 PUSH1 0xA0 SHL SUB AND PUSH2 0x1474 DUP14 PUSH2 0x24E PUSH1 0xE4 DUP6 ADD DUP16 DUP16 PUSH2 0x282C JUMP JUMPDEST PUSH8 0x6765C793FA10079D PUSH1 0x1B SHL PUSH1 0x44 DUP5 ADD MSTORE ADDRESS PUSH1 0x64 DUP5 ADD MSTORE CALLER PUSH1 0x84 DUP5 ADD MSTORE PUSH1 0xA4 DUP4 ADD SWAP2 SWAP1 SWAP2 MSTORE PUSH1 0x32 PUSH1 0xC4 DUP4 ADD MSTORE SUB DUP2 PUSH1 0x0 PUSH32 0x0 PUSH1 0x1 PUSH1 0x1 PUSH1 0xA0 SHL SUB AND GAS CALL DUP1 ISZERO PUSH2 0xED3 JUMPI PUSH1 0x0 PUSH2 0x100 MSTORE PUSH2 0x21FD JUMPI JUMPDEST POP PUSH1 0x1 DUP1 PUSH1 0xA0 SHL SUB PUSH1 0x1 SLOAD AND PUSH2 0x160 MSTORE PUSH3 0xFFFFFF PUSH1 0x3 SLOAD PUSH1 0x5 SLOAD PUSH1 0x6 SLOAD PUSH1 0x7 SLOAD PUSH1 0x1 DUP1 PUSH1 0xA0 SHL SUB PUSH1 0x8 SLOAD AND SWAP2 PUSH1 0x1 DUP1 PUSH1 0xA0 SHL SUB PUSH1 0x9 SLOAD AND SWAP4 PUSH1 0xA SLOAD SWAP6 PUSH1 0x40 MLOAD PUSH2 0x120 MSTORE PUSH4 0xF7962097 PUSH1 0xE0 SHL PUSH2 0x120 MLOAD MSTORE PUSH1 0x1 DUP1 PUSH1 0xA0 SHL SUB PUSH2 0x100 MLOAD AND PUSH1 0x4 PUSH2 0x120 MLOAD ADD MSTORE ADDRESS PUSH1 0x24 PUSH2 0x120 MLOAD ADD MSTORE PUSH2 0x160 MLOAD PUSH1 0x44 PUSH2 0x120 MLOAD ADD MSTORE PUSH1 0x64 PUSH2 0x120 MLOAD ADD MSTORE PUSH1 0x84 PUSH2 0x120 MLOAD ADD MSTORE PUSH1 0xA4 PUSH2 0x120 MLOAD ADD MSTORE PUSH1 0xC4 PUSH2 0x120 MLOAD ADD MSTORE PUSH1 0xE4 PUSH2 0x120 MLOAD ADD MSTORE PUSH2 0x104 PUSH2 0x120 MLOAD ADD MSTORE PUSH1 0x1 DUP1 PUSH1 0xA0 SHL SUB DUP2 AND PUSH2 0x124 PUSH2 0x120 MLOAD ADD MSTORE PUSH1 0xA0 SHR AND PUSH2 0x144 PUSH2 0x120 MLOAD ADD MSTORE PUSH1 0x20 PUSH2 0x120 MLOAD PUSH2 0x164 PUSH2 0x120 MLOAD PUSH1 0x0 PUSH1 0x1 DUP1 PUSH1 0xA0 SHL SUB PUSH32 0x0 AND GAS CALL SWAP8 DUP9 ISZERO PUSH2 0xED3 JUMPI PUSH1 0x0 SWAP9 PUSH2 0x21C4 JUMPI JUMPDEST PUSH1 0xA4 CALLDATALOAD PUSH8 0x6765C793FA10079D PUSH1 0x1B SHL MUL SWAP7 PUSH8 0x6765C793FA10079D PUSH1 0x1B SHL DUP9 DIV PUSH1 0xA4 CALLDATALOAD SUB PUSH2 0xFF4 JUMPI PUSH8 0x6765C793FA10079D PUSH1 0x1B SHL PUSH2 0x2710 DUP10 DIV DUP2 SUB GT PUSH2 0xFF4 JUMPI PUSH1 0x40 MLOAD PUSH4 0xA9059CBB PUSH1 0xE0 SHL DUP2 MSTORE PUSH1 0x1 PUSH1 0x1 PUSH1 0xA0 SHL SUB DUP12 DUP2 AND PUSH1 0x4 DUP4 ADD MSTORE PUSH2 0x2710 DUP11 DIV PUSH8 0x6765C793FA10079D PUSH1 0x1B SHL SUB PUSH1 0x24 DUP4 ADD MSTORE PUSH2 0x100 MLOAD PUSH1 0x20 SWAP2 DUP4 SWAP2 PUSH1 0x44 SWAP2 DUP4 SWAP2 PUSH1 0x0 SWAP2 AND GAS CALL SWAP1 DUP2 ISZERO PUSH2 0xED3 JUMPI PUSH1 0x0 SWAP2 PUSH2 0x21A5 JUMPI JUMPDEST POP ISZERO PUSH2 0xF99 JUMPI PUSH2 0x2710 DUP9 DIV PUSH2 0x20FA JUMPI JUMPDEST PUSH1 0x1 PUSH1 0x1 PUSH1 0xA0 SHL SUB DUP11 AND EXTCODESIZE ISZERO PUSH2 0xA19 JUMPI DUP10 PUSH1 0x0 PUSH2 0x2710 PUSH1 0x24 DUP12 DUP4 PUSH1 0x40 MLOAD SWAP6 DUP7 SWAP5 DUP6 SWAP4 PUSH4 0x95564837 PUSH1 0xE0 SHL DUP6 MSTORE DIV PUSH8 0x6765C793FA10079D PUSH1 0x1B SHL SUB PUSH1 0x4 DUP5 ADD MSTORE PUSH1 0x1 DUP1 PUSH1 0xA0 SHL SUB AND GAS CALL DUP1 ISZERO PUSH2 0xED3 JUMPI PUSH2 0x20E5 JUMPI JUMPDEST POP PUSH1 0x1 PUSH1 0x1 PUSH1 0xA0 SHL SUB DUP11 AND EXTCODESIZE ISZERO PUSH2 0x203E JUMPI PUSH1 0x40 MLOAD PUSH3 0xE2C3FD PUSH1 0xE1 SHL DUP2 MSTORE DUP11 DUP2 PUSH1 0x4 DUP2 PUSH2 0x140 MLOAD SWAP4 PUSH2 0x140 MLOAD SWAP1 PUSH1 0x1 DUP1 PUSH1 0xA0 SHL SUB AND GAS CALL DUP1 ISZERO PUSH2 0x1C37 JUMPI PUSH2 0x20CE JUMPI JUMPDEST POP PUSH1 0x40 MLOAD PUSH4 0x6B456EF PUSH1 0xE2 SHL DUP2 MSTORE PUSH1 0x20 DUP2 PUSH1 0x4 DUP2 PUSH1 0x1 PUSH1 0x1 PUSH1 0xA0 SHL SUB DUP16 AND GAS STATICCALL SWAP1 DUP2 ISZERO PUSH2 0x1C37 JUMPI PUSH2 0x140 MLOAD SWAP2 PUSH2 0x20AF JUMPI JUMPDEST POP PUSH1 0x1 PUSH1 0x1 PUSH1 0xA0 SHL SUB DUP2 AND PUSH2 0x2045 JUMPI JUMPDEST POP PUSH2 0x100 MLOAD PUSH1 0x1 PUSH1 0x1 PUSH1 0xA0 SHL SUB AND EXTCODESIZE ISZERO PUSH2 0x203E JUMPI PUSH1 0x40 MLOAD PUSH4 0x6E258E07 PUSH1 0xE1 SHL DUP2 MSTORE PUSH2 0x140 MLOAD PUSH2 0x100 MLOAD SWAP2 SWAP11 SWAP2 DUP12 SWAP1 PUSH1 0x4 SWAP1 DUP3 SWAP1 DUP5 SWAP1 PUSH1 0x1 PUSH1 0x1 PUSH1 0xA0 SHL SUB AND GAS CALL SWAP10 DUP11 ISZERO PUSH2 0x1C37 JUMPI DUP12 SWAP11 PUSH2 0x2015 JUMPI JUMPDEST POP PUSH2 0x62D SWAP4 PUSH1 0x20 SWAP9 SWAP7 SWAP4 PUSH2 0x615 PUSH2 0x1845 SWAP10 SWAP8 SWAP5 PUSH2 0x621 SWAP5 DUP15 PUSH1 0x1 DUP1 PUSH1 0xA0 SHL SUB PUSH2 0x100 MLOAD AND PUSH2 0x140 MLOAD MSTORE PUSH1 0xC DUP15 MSTORE PUSH1 0x40 PUSH2 0x140 MLOAD KECCAK256 SWAP1 PUSH1 0x1 DUP1 PUSH1 0xA0 SHL SUB AND PUSH12 0xFFFFFFFFFFFFFFFFFFFFFFFF PUSH1 0xA0 SHL DUP3 SLOAD AND OR SWAP1 SSTORE PUSH1 0xB SLOAD SWAP16 PUSH1 0x40 MLOAD SWAP14 DUP15 SWAP2 PUSH2 0x1823 DUP4 PUSH2 0x2635 JUMP JUMPDEST PUSH2 0x100 MLOAD PUSH1 0x1 PUSH1 0x1 PUSH1 0xA0 SHL SUB SWAP1 DUP2 AND DUP5 MSTORE AND SWAP2 ADD MSTORE CALLER PUSH1 0x40 DUP15 ADD MSTORE CALLDATASIZE SWAP2 PUSH2 0x2880 JUMP JUMPDEST PUSH1 0xC0 DUP3 ADD MSTORE PUSH8 0x6765C793FA10079D PUSH1 0x1B SHL PUSH1 0xE0 DUP3 ADD MSTORE PUSH2 0x2710 DUP3 DIV PUSH2 0x100 DUP3 ADD MSTORE TIMESTAMP PUSH2 0x120 DUP3 ADD MSTORE PUSH1 0x1 PUSH1 0x40 SHL DUP5 LT ISZERO PUSH2 0x1D4B JUMPI PUSH1 0x1 DUP5 ADD PUSH1 0xB SSTORE PUSH2 0x1889 DUP5 PUSH2 0x269B JUMP JUMPDEST SWAP2 SWAP1 SWAP2 PUSH2 0x1FF9 JUMPI DUP1 MLOAD DUP3 SLOAD PUSH1 0x1 PUSH1 0x1 PUSH1 0xA0 SHL SUB SWAP2 DUP3 AND PUSH1 0x1 PUSH1 0x1 PUSH1 0xA0 SHL SUB NOT SWAP2 DUP3 AND OR DUP5 SSTORE PUSH1 0x20 DUP4 ADD MLOAD PUSH1 0x1 DUP6 ADD DUP1 SLOAD SWAP2 DUP5 AND SWAP2 DUP4 AND SWAP2 SWAP1 SWAP2 OR SWAP1 SSTORE PUSH1 0x40 DUP4 ADD MLOAD PUSH1 0x2 DUP6 ADD DUP1 SLOAD SWAP2 SWAP1 SWAP4 AND SWAP2 AND OR SWAP1 SSTORE PUSH1 0x60 DUP2 ADD MLOAD DUP1 MLOAD SWAP1 PUSH1 0x1 PUSH1 0x1 PUSH1 0x40 SHL SUB DUP3 GT PUSH2 0x1D4B JUMPI DUP2 SWAP1 PUSH2 0x18FE PUSH1 0x3 DUP7 ADD SLOAD PUSH2 0x26EC JUMP JUMPDEST PUSH1 0x1F DUP2 GT PUSH2 0x1FA0 JUMPI JUMPDEST POP PUSH1 0x20 SWAP1 PUSH1 0x1 PUSH1 0x1F DUP5 GT EQ PUSH2 0x1F28 JUMPI PUSH2 0x140 MLOAD SWAP3 PUSH2 0x1F1D JUMPI JUMPDEST POP POP DUP2 PUSH1 0x1 SHL SWAP2 PUSH1 0x0 NOT SWAP1 PUSH1 0x3 SHL SHR NOT AND OR PUSH1 0x3 DUP4 ADD SSTORE JUMPDEST PUSH1 0x80 DUP2 ADD MLOAD DUP1 MLOAD SWAP1 PUSH1 0x1 PUSH1 0x1 PUSH1 0x40 SHL SUB DUP3 GT PUSH2 0x1D4B JUMPI DUP2 SWAP1 PUSH2 0x195D PUSH1 0x4 DUP7 ADD SLOAD PUSH2 0x26EC JUMP JUMPDEST PUSH1 0x1F DUP2 GT PUSH2 0x1EC4 JUMPI JUMPDEST POP PUSH1 0x20 SWAP1 PUSH1 0x1 PUSH1 0x1F DUP5 GT EQ PUSH2 0x1E4C JUMPI PUSH2 0x140 MLOAD SWAP3 PUSH2 0x1E41 JUMPI JUMPDEST POP POP DUP2 PUSH1 0x1 SHL SWAP2 PUSH1 0x0 NOT SWAP1 PUSH1 0x3 SHL SHR NOT AND OR PUSH1 0x4 DUP4 ADD SSTORE JUMPDEST PUSH1 0xA0 DUP2 ADD MLOAD DUP1 MLOAD SWAP1 PUSH1 0x1 PUSH1 0x1 PUSH1 0x40 SHL SUB DUP3 GT PUSH2 0x1D4B JUMPI DUP2 SWAP1 PUSH2 0x19BC PUSH1 0x5 DUP7 ADD SLOAD PUSH2 0x26EC JUMP JUMPDEST PUSH1 0x1F DUP2 GT PUSH2 0x1DE8 JUMPI JUMPDEST POP PUSH1 0x20 SWAP1 PUSH1 0x1 PUSH1 0x1F DUP5 GT EQ PUSH2 0x1D70 JUMPI PUSH2 0x140 MLOAD SWAP3 PUSH2 0x1D65 JUMPI JUMPDEST POP POP DUP2 PUSH1 0x1 SHL SWAP2 PUSH1 0x0 NOT SWAP1 PUSH1 0x3 SHL SHR NOT AND OR PUSH1 0x5 DUP4 ADD SSTORE JUMPDEST PUSH1 0xC0 DUP2 ADD MLOAD DUP1 MLOAD SWAP1 PUSH1 0x1 PUSH1 0x1 PUSH1 0x40 SHL SUB DUP3 GT PUSH2 0x1D4B JUMPI PUSH2 0x1A19 PUSH1 0x6 DUP6 ADD SLOAD PUSH2 0x26EC JUMP JUMPDEST PUSH1 0x1F DUP2 GT PUSH2 0x1CFE JUMPI JUMPDEST POP PUSH1 0x20 SWAP1 PUSH1 0x1 PUSH1 0x1F DUP5 GT EQ PUSH2 0x1C82 JUMPI SWAP2 DUP1 PUSH1 0x9 SWAP5 SWAP3 PUSH2 0x120 SWAP5 PUSH2 0x140 MLOAD SWAP3 PUSH2 0x1C77 JUMPI JUMPDEST POP POP DUP2 PUSH1 0x1 SHL SWAP2 PUSH1 0x0 NOT SWAP1 PUSH1 0x3 SHL SHR NOT AND OR PUSH1 0x6 DUP6 ADD SSTORE JUMPDEST PUSH1 0xE0 DUP2 ADD MLOAD PUSH1 0x7 DUP6 ADD SSTORE PUSH2 0x100 DUP2 ADD MLOAD PUSH1 0x8 DUP6 ADD SSTORE ADD MLOAD SWAP2 ADD SSTORE PUSH3 0xFFFFFF PUSH1 0x3 SLOAD PUSH1 0x7 SLOAD PUSH1 0x1 DUP1 PUSH1 0xA0 SHL SUB PUSH1 0x8 SLOAD AND PUSH1 0x1 DUP1 PUSH1 0xA0 SHL SUB PUSH1 0x9 SLOAD AND SWAP2 PUSH1 0xA SLOAD SWAP4 PUSH2 0x2710 PUSH1 0x40 MLOAD SWAP8 PUSH1 0x1 DUP1 PUSH1 0xA0 SHL SUB DUP11 AND DUP10 MSTORE PUSH8 0x6765C793FA10079D PUSH1 0x1B SHL PUSH1 0x20 DUP11 ADD MSTORE DIV PUSH1 0x40 DUP9 ADD MSTORE PUSH1 0x60 DUP8 ADD MSTORE PUSH1 0x80 DUP7 ADD MSTORE PUSH1 0xA0 DUP6 ADD MSTORE PUSH1 0xC0 DUP5 ADD MSTORE PUSH1 0x1 DUP1 PUSH1 0xA0 SHL SUB DUP2 AND PUSH1 0xE0 DUP5 ADD MSTORE PUSH1 0xA0 SHR AND PUSH2 0x100 DUP3 ADD MSTORE PUSH1 0x1 DUP1 PUSH1 0xA0 SHL SUB PUSH2 0x100 MLOAD AND SWAP1 DUP4 PUSH32 0x47D6CD3E0239E764A392DB701C655FEA8A19D6D059350EC7D8DF5DC84004320 PUSH2 0x120 CALLER SWAP4 LOG4 PUSH1 0x40 MLOAD PUSH4 0x17773EBB PUSH1 0xE0 SHL DUP2 MSTORE PUSH2 0x100 MLOAD PUSH1 0x20 SWAP1 DUP3 SWAP1 PUSH1 0x4 SWAP1 DUP3 SWAP1 PUSH1 0x1 PUSH1 0x1 PUSH1 0xA0 SHL SUB AND GAS STATICCALL SWAP1 DUP2 ISZERO PUSH2 0x1C37 JUMPI PUSH2 0x140 MLOAD SWAP2 PUSH2 0x1C45 JUMPI JUMPDEST POP PUSH1 0x40 MLOAD PUSH4 0x116E689F PUSH1 0xE1 SHL DUP2 MSTORE PUSH2 0x100 MLOAD PUSH1 0x20 SWAP1 DUP3 SWAP1 PUSH1 0x4 SWAP1 DUP3 SWAP1 PUSH1 0x1 PUSH1 0x1 PUSH1 0xA0 SHL SUB AND GAS STATICCALL SWAP1 DUP2 ISZERO PUSH2 0x1C37 JUMPI PUSH2 0x140 MLOAD SWAP2 PUSH2 0x1C05 JUMPI JUMPDEST POP PUSH1 0x40 MLOAD SWAP2 PUSH1 0x32 DUP4 MSTORE PUSH1 0x20 DUP4 ADD MSTORE PUSH1 0x40 DUP3 ADD MSTORE DUP3 PUSH32 0x8620494F920761BD37321DDD1F125E085D81426820D3CA4E8B1F0AB3DAB7A578 PUSH1 0x60 PUSH1 0x1 DUP1 PUSH1 0xA0 SHL SUB PUSH2 0x100 MLOAD AND SWAP4 LOG3 PUSH1 0x40 DUP1 MLOAD PUSH2 0x100 MLOAD SWAP4 DUP2 MSTORE PUSH1 0x1 PUSH1 0x1 PUSH1 0xA0 SHL SUB SWAP4 DUP5 AND PUSH1 0x20 DUP3 ADD MSTORE SWAP2 SWAP1 SWAP3 AND SWAP2 DUP2 ADD SWAP2 SWAP1 SWAP2 MSTORE PUSH1 0x60 SWAP1 RETURN JUMPDEST SWAP1 POP PUSH1 0x20 DUP2 RETURNDATASIZE PUSH1 0x20 GT PUSH2 0x1C2F JUMPI JUMPDEST DUP2 PUSH2 0x1C20 PUSH1 0x20 SWAP4 DUP4 PUSH2 0x267A JUMP JUMPDEST DUP2 ADD SUB SLT PUSH2 0xA19 JUMPI MLOAD DUP5 PUSH2 0x1B95 JUMP JUMPDEST RETURNDATASIZE SWAP2 POP PUSH2 0x1C13 JUMP JUMPDEST PUSH1 0x40 MLOAD RETURNDATASIZE PUSH2 0x140 MLOAD DUP3 RETURNDATACOPY RETURNDATASIZE SWAP1 REVERT JUMPDEST SWAP1 POP PUSH1 0x20 DUP2 RETURNDATASIZE PUSH1 0x20 GT PUSH2 0x1C6F JUMPI JUMPDEST DUP2 PUSH2 0x1C60 PUSH1 0x20 SWAP4 DUP4 PUSH2 0x267A JUMP JUMPDEST DUP2 ADD SUB SLT PUSH2 0xA19 JUMPI MLOAD DUP4 PUSH2 0x1B5D JUMP JUMPDEST RETURNDATASIZE SWAP2 POP PUSH2 0x1C53 JUMP JUMPDEST ADD MLOAD SWAP1 POP DUP10 DUP1 PUSH2 0x1A45 JUMP JUMPDEST SWAP1 PUSH1 0x6 DUP6 ADD PUSH2 0x140 MLOAD MSTORE PUSH1 0x20 PUSH2 0x140 MLOAD KECCAK256 SWAP2 PUSH2 0x140 MLOAD JUMPDEST PUSH1 0x1F NOT DUP6 AND DUP2 LT PUSH2 0x1CE6 JUMPI POP SWAP3 PUSH1 0x9 SWAP5 SWAP3 PUSH1 0x1 SWAP3 PUSH2 0x120 SWAP6 DUP4 PUSH1 0x1F NOT DUP2 AND LT PUSH2 0x1CCD JUMPI JUMPDEST POP POP POP DUP2 SHL ADD PUSH1 0x6 DUP6 ADD SSTORE PUSH2 0x1A5D JUMP JUMPDEST ADD MLOAD PUSH1 0x0 NOT PUSH1 0xF8 DUP5 PUSH1 0x3 SHL AND SHR NOT AND SWAP1 SSTORE DUP10 DUP1 DUP1 PUSH2 0x1CBD JUMP JUMPDEST SWAP2 SWAP3 PUSH1 0x20 PUSH1 0x1 DUP2 SWAP3 DUP7 DUP6 ADD MLOAD DUP2 SSTORE ADD SWAP5 ADD SWAP3 ADD PUSH2 0x1C99 JUMP JUMPDEST PUSH1 0x6 DUP6 ADD PUSH2 0x140 MLOAD MSTORE PUSH1 0x20 PUSH2 0x140 MLOAD KECCAK256 PUSH1 0x1F DUP5 ADD PUSH1 0x5 SHR DUP2 ADD PUSH1 0x20 DUP6 LT PUSH2 0x1D44 JUMPI JUMPDEST PUSH1 0x1F DUP4 ADD PUSH1 0x5 SHR DUP3 ADD DUP2 LT PUSH2 0x1D36 JUMPI POP POP PUSH2 0x1A22 JUMP JUMPDEST PUSH2 0x140 MLOAD DUP2 SSTORE PUSH1 0x1 ADD PUSH2 0x1D20 JUMP JUMPDEST POP DUP1 PUSH2 0x1D20 JUMP JUMPDEST PUSH4 0x4E487B71 PUSH1 0xE0 SHL PUSH2 0x140 MLOAD MSTORE PUSH1 0x41 PUSH1 0x4 MSTORE PUSH1 0x24 PUSH2 0x140 MLOAD REVERT JUMPDEST ADD MLOAD SWAP1 POP DUP8 DUP1 PUSH2 0x19DE JUMP JUMPDEST SWAP3 POP PUSH1 0x5 DUP6 ADD PUSH2 0x140 MLOAD MSTORE PUSH1 0x20 PUSH2 0x140 MLOAD KECCAK256 SWAP1 PUSH2 0x140 MLOAD SWAP4 JUMPDEST PUSH1 0x1F NOT DUP5 AND DUP6 LT PUSH2 0x1DCD JUMPI PUSH1 0x1 SWAP5 POP DUP4 PUSH1 0x1F NOT DUP2 AND LT PUSH2 0x1DB4 JUMPI JUMPDEST POP POP POP DUP2 SHL ADD PUSH1 0x5 DUP4 ADD SSTORE PUSH2 0x19F6 JUMP JUMPDEST ADD MLOAD PUSH1 0x0 NOT PUSH1 0xF8 DUP5 PUSH1 0x3 SHL AND SHR NOT AND SWAP1 SSTORE DUP8 DUP1 DUP1 PUSH2 0x1DA4 JUMP JUMPDEST DUP2 DUP2 ADD MLOAD DUP4 SSTORE PUSH1 0x20 SWAP5 DUP6 ADD SWAP5 PUSH1 0x1 SWAP1 SWAP4 ADD SWAP3 SWAP1 SWAP2 ADD SWAP1 PUSH2 0x1D89 JUMP JUMPDEST SWAP1 SWAP2 POP PUSH1 0x5 DUP6 ADD PUSH2 0x140 MLOAD MSTORE PUSH1 0x20 PUSH2 0x140 MLOAD KECCAK256 PUSH1 0x1F DUP5 ADD PUSH1 0x5 SHR DUP2 ADD PUSH1 0x20 DUP6 LT PUSH2 0x1E3A JUMPI JUMPDEST SWAP1 DUP5 SWAP4 SWAP3 SWAP2 JUMPDEST PUSH1 0x1F DUP4 ADD PUSH1 0x5 SHR DUP3 ADD DUP2 LT PUSH2 0x1E29 JUMPI POP POP PUSH2 0x19C5 JUMP JUMPDEST PUSH2 0x140 MLOAD DUP2 SSTORE DUP6 SWAP5 POP PUSH1 0x1 ADD PUSH2 0x1E13 JUMP JUMPDEST POP DUP1 PUSH2 0x1E0D JUMP JUMPDEST ADD MLOAD SWAP1 POP DUP8 DUP1 PUSH2 0x197F JUMP JUMPDEST SWAP3 POP PUSH1 0x4 DUP6 ADD PUSH2 0x140 MLOAD MSTORE PUSH1 0x20 PUSH2 0x140 MLOAD KECCAK256 SWAP1 PUSH2 0x140 MLOAD SWAP4 JUMPDEST PUSH1 0x1F NOT DUP5 AND DUP6 LT PUSH2 0x1EA9 JUMPI PUSH1 0x1 SWAP5 POP DUP4 PUSH1 0x1F NOT DUP2 AND LT PUSH2 0x1E90 JUMPI JUMPDEST POP POP POP DUP2 SHL ADD PUSH1 0x4 DUP4 ADD SSTORE PUSH2 0x1997 JUMP JUMPDEST ADD MLOAD PUSH1 0x0 NOT PUSH1 0xF8 DUP5 PUSH1 0x3 SHL AND SHR NOT AND SWAP1 SSTORE DUP8 DUP1 DUP1 PUSH2 0x1E80 JUMP JUMPDEST DUP2 DUP2 ADD MLOAD DUP4 SSTORE PUSH1 0x20 SWAP5 DUP6 ADD SWAP5 PUSH1 0x1 SWAP1 SWAP4 ADD SWAP3 SWAP1 SWAP2 ADD SWAP1 PUSH2 0x1E65 JUMP JUMPDEST SWAP1 SWAP2 POP PUSH1 0x4 DUP6 ADD PUSH2 0x140 MLOAD MSTORE PUSH1 0x20 PUSH2 0x140 MLOAD KECCAK256 PUSH1 0x1F DUP5 ADD PUSH1 0x5 SHR DUP2 ADD PUSH1 0x20 DUP6 LT PUSH2 0x1F16 JUMPI JUMPDEST SWAP1 DUP5 SWAP4 SWAP3 SWAP2 JUMPDEST PUSH1 0x1F DUP4 ADD PUSH1 0x5 SHR DUP3 ADD DUP2 LT PUSH2 0x1F05 JUMPI POP POP PUSH2 0x1966 JUMP JUMPDEST PUSH2 0x140 MLOAD DUP2 SSTORE DUP6 SWAP5 POP PUSH1 0x1 ADD PUSH2 0x1EEF JUMP JUMPDEST POP DUP1 PUSH2 0x1EE9 JUMP JUMPDEST ADD MLOAD SWAP1 POP DUP8 DUP1 PUSH2 0x1920 JUMP JUMPDEST SWAP3 POP PUSH1 0x3 DUP6 ADD PUSH2 0x140 MLOAD MSTORE PUSH1 0x20 PUSH2 0x140 MLOAD KECCAK256 SWAP1 PUSH2 0x140 MLOAD SWAP4 JUMPDEST PUSH1 0x1F NOT DUP5 AND DUP6 LT PUSH2 0x1F85 JUMPI PUSH1 0x1 SWAP5 POP DUP4 PUSH1 0x1F NOT DUP2 AND LT PUSH2 0x1F6C JUMPI JUMPDEST POP POP POP DUP2 SHL ADD PUSH1 0x3 DUP4 ADD SSTORE PUSH2 0x1938 JUMP JUMPDEST ADD MLOAD PUSH1 0x0 NOT PUSH1 0xF8 DUP5 PUSH1 0x3 SHL AND SHR NOT AND SWAP1 SSTORE DUP8 DUP1 DUP1 PUSH2 0x1F5C JUMP JUMPDEST DUP2 DUP2 ADD MLOAD DUP4 SSTORE PUSH1 0x20 SWAP5 DUP6 ADD SWAP5 PUSH1 0x1 SWAP1 SWAP4 ADD SWAP3 SWAP1 SWAP2 ADD SWAP1 PUSH2 0x1F41 JUMP JUMPDEST SWAP1 SWAP2 POP PUSH1 0x3 DUP6 ADD PUSH2 0x140 MLOAD MSTORE PUSH1 0x20 PUSH2 0x140 MLOAD KECCAK256 PUSH1 0x1F DUP5 ADD PUSH1 0x5 SHR DUP2 ADD PUSH1 0x20 DUP6 LT PUSH2 0x1FF2 JUMPI JUMPDEST SWAP1 DUP5 SWAP4 SWAP3 SWAP2 JUMPDEST PUSH1 0x1F DUP4 ADD PUSH1 0x5 SHR DUP3 ADD DUP2 LT PUSH2 0x1FE1 JUMPI POP POP PUSH2 0x1907 JUMP JUMPDEST PUSH2 0x140 MLOAD DUP2 SSTORE DUP6 SWAP5 POP PUSH1 0x1 ADD PUSH2 0x1FCB JUMP JUMPDEST POP DUP1 PUSH2 0x1FC5 JUMP JUMPDEST PUSH4 0x4E487B71 PUSH1 0xE0 SHL PUSH2 0x140 MLOAD MSTORE PUSH2 0x140 MLOAD PUSH1 0x4 MSTORE PUSH1 0x24 PUSH2 0x140 MLOAD REVERT JUMPDEST PUSH2 0x2027 SWAP2 SWAP5 SWAP9 SWAP7 SWAP4 SWAP8 SWAP6 SWAP3 SWAP11 POP PUSH2 0x2667 JUMP JUMPDEST PUSH2 0x140 MLOAD PUSH2 0x203E JUMPI SWAP3 SWAP5 SWAP1 SWAP4 SWAP6 SWAP2 SWAP8 DUP10 SWAP9 DUP12 PUSH2 0x17BD JUMP JUMPDEST PUSH2 0x140 MLOAD DUP1 REVERT JUMPDEST PUSH2 0x100 MLOAD PUSH1 0x1 PUSH1 0x1 PUSH1 0xA0 SHL SUB AND EXTCODESIZE ISZERO PUSH2 0x203E JUMPI PUSH1 0x40 MLOAD PUSH4 0x15C6DEB9 PUSH1 0xE3 SHL DUP2 MSTORE PUSH1 0x1 PUSH1 0x1 PUSH1 0xA0 SHL SUB SWAP2 DUP3 AND PUSH1 0x4 DUP3 ADD MSTORE PUSH2 0x140 MLOAD PUSH2 0x100 MLOAD SWAP2 SWAP3 SWAP1 SWAP2 DUP4 SWAP2 PUSH1 0x24 SWAP2 DUP4 SWAP2 DUP6 SWAP2 AND GAS CALL DUP1 ISZERO PUSH2 0x1C37 JUMPI ISZERO PUSH2 0x176F JUMPI PUSH2 0x20A1 SWAP1 PUSH2 0x2667 JUMP JUMPDEST PUSH2 0x140 MLOAD PUSH2 0x203E JUMPI DUP11 PUSH2 0x176F JUMP JUMPDEST PUSH2 0x20C8 SWAP2 POP PUSH1 0x20 RETURNDATASIZE PUSH1 0x20 GT PUSH2 0xEA2 JUMPI PUSH2 0xE94 DUP2 DUP4 PUSH2 0x267A JUMP JUMPDEST DUP12 PUSH2 0x175F JUMP JUMPDEST PUSH2 0x20D7 SWAP1 PUSH2 0x2667 JUMP JUMPDEST PUSH2 0x140 MLOAD PUSH2 0x203E JUMPI DUP11 PUSH2 0x172E JUMP JUMPDEST PUSH2 0x20EE SWAP1 PUSH2 0x2667 JUMP JUMPDEST PUSH1 0x0 PUSH2 0x140 MSTORE DUP11 PUSH2 0x16ED JUMP JUMPDEST PUSH1 0x40 MLOAD PUSH4 0xA9059CBB PUSH1 0xE0 SHL DUP2 MSTORE CALLER PUSH1 0x4 DUP3 ADD MSTORE PUSH2 0x2710 DUP10 DIV PUSH1 0x24 DUP3 ADD MSTORE PUSH2 0x100 MLOAD PUSH1 0x20 SWAP1 DUP3 SWAP1 PUSH1 0x44 SWAP1 DUP3 SWAP1 PUSH1 0x0 SWAP1 PUSH1 0x1 PUSH1 0x1 PUSH1 0xA0 SHL SUB AND GAS CALL SWAP1 DUP2 ISZERO PUSH2 0xED3 JUMPI PUSH1 0x0 SWAP2 PUSH2 0x2186 JUMPI JUMPDEST POP PUSH2 0x1699 JUMPI PUSH1 0x40 MLOAD PUSH3 0x461BCD PUSH1 0xE5 SHL DUP2 MSTORE PUSH1 0x20 PUSH1 0x4 DUP3 ADD MSTORE PUSH1 0x17 PUSH1 0x24 DUP3 ADD MSTORE PUSH23 0x18DC99585D1BDC881D1C985B9CD9995C8819985A5B1959 PUSH1 0x4A SHL PUSH1 0x44 DUP3 ADD MSTORE PUSH1 0x64 SWAP1 REVERT JUMPDEST PUSH2 0x219F SWAP2 POP PUSH1 0x20 RETURNDATASIZE PUSH1 0x20 GT PUSH2 0xF92 JUMPI PUSH2 0xF84 DUP2 DUP4 PUSH2 0x267A JUMP JUMPDEST DUP12 PUSH2 0x2142 JUMP JUMPDEST PUSH2 0x21BE SWAP2 POP PUSH1 0x20 RETURNDATASIZE PUSH1 0x20 GT PUSH2 0xF92 JUMPI PUSH2 0xF84 DUP2 DUP4 PUSH2 0x267A JUMP JUMPDEST DUP12 PUSH2 0x1689 JUMP JUMPDEST SWAP8 POP PUSH1 0x20 RETURNDATASIZE PUSH1 0x20 GT PUSH2 0x21F6 JUMPI JUMPDEST DUP1 PUSH2 0x21E2 PUSH2 0x21F0 SWAP3 PUSH2 0x120 MLOAD PUSH2 0x267A JUMP JUMPDEST PUSH2 0x120 MLOAD ADD PUSH2 0x120 MLOAD PUSH2 0x280D JUMP JUMPDEST SWAP8 PUSH2 0x15F3 JUMP JUMPDEST POP RETURNDATASIZE PUSH2 0x21D1 JUMP JUMPDEST PUSH2 0x2215 SWAP1 PUSH1 0x20 RETURNDATASIZE PUSH1 0x20 GT PUSH2 0xEA2 JUMPI PUSH2 0xE94 DUP2 DUP4 PUSH2 0x267A JUMP JUMPDEST PUSH2 0x100 MSTORE DUP9 PUSH2 0x14E1 JUMP JUMPDEST CALLVALUE PUSH2 0xA19 JUMPI PUSH1 0x20 CALLDATASIZE PUSH1 0x3 NOT ADD SLT PUSH2 0xA19 JUMPI PUSH1 0x4 CALLDATALOAD PUSH1 0x0 PUSH2 0x120 PUSH1 0x40 MLOAD PUSH2 0x2244 DUP2 PUSH2 0x2635 JUMP JUMPDEST DUP3 DUP2 MSTORE DUP3 PUSH1 0x20 DUP3 ADD MSTORE DUP3 PUSH1 0x40 DUP3 ADD MSTORE PUSH1 0x60 DUP1 DUP3 ADD MSTORE PUSH1 0x60 PUSH1 0x80 DUP3 ADD MSTORE PUSH1 0x60 PUSH1 0xA0 DUP3 ADD MSTORE PUSH1 0x60 PUSH1 0xC0 DUP3 ADD MSTORE DUP3 PUSH1 0xE0 DUP3 ADD MSTORE DUP3 PUSH2 0x100 DUP3 ADD MSTORE ADD MSTORE PUSH1 0xB SLOAD DUP2 LT ISZERO PUSH2 0x23EE JUMPI PUSH2 0x2290 SWAP1 PUSH2 0x269B JUMP JUMPDEST POP PUSH1 0x9 PUSH1 0x40 MLOAD SWAP2 PUSH2 0x22A0 DUP4 PUSH2 0x2635 JUMP JUMPDEST DUP1 SLOAD PUSH1 0x1 PUSH1 0x1 PUSH1 0xA0 SHL SUB SWAP1 DUP2 AND DUP5 MSTORE PUSH1 0x1 DUP3 ADD SLOAD DUP2 AND PUSH1 0x20 DUP6 ADD MSTORE PUSH1 0x2 DUP3 ADD SLOAD AND PUSH1 0x40 DUP5 ADD MSTORE PUSH2 0x22D2 PUSH1 0x3 DUP3 ADD PUSH2 0x2726 JUMP JUMPDEST PUSH1 0x60 DUP5 ADD MSTORE PUSH2 0x22E3 PUSH1 0x4 DUP3 ADD PUSH2 0x2726 JUMP JUMPDEST PUSH1 0x80 DUP5 ADD MSTORE PUSH2 0x22F4 PUSH1 0x5 DUP3 ADD PUSH2 0x2726 JUMP JUMPDEST PUSH1 0xA0 DUP5 ADD MSTORE PUSH2 0x2305 PUSH1 0x6 DUP3 ADD PUSH2 0x2726 JUMP JUMPDEST PUSH1 0xC0 DUP5 ADD MSTORE PUSH1 0x7 DUP2 ADD SLOAD PUSH1 0xE0 DUP5 ADD MSTORE PUSH1 0x8 DUP2 ADD SLOAD PUSH2 0x100 DUP5 ADD MSTORE ADD SLOAD PUSH2 0x120 DUP3 ADD MSTORE PUSH1 0x40 MLOAD DUP1 SWAP2 PUSH1 0x20 DUP3 MSTORE PUSH1 0x1 DUP1 PUSH1 0xA0 SHL SUB DUP2 MLOAD AND PUSH1 0x20 DUP4 ADD MSTORE PUSH1 0x1 DUP1 PUSH1 0xA0 SHL SUB PUSH1 0x20 DUP3 ADD MLOAD AND PUSH1 0x40 DUP4 ADD MSTORE PUSH1 0x1 DUP1 PUSH1 0xA0 SHL SUB PUSH1 0x40 DUP3 ADD MLOAD AND PUSH1 0x60 DUP4 ADD MSTORE PUSH1 0x60 DUP2 ADD MLOAD PUSH2 0x120 PUSH2 0x23CE PUSH2 0x2386 PUSH2 0x140 SWAP4 DUP5 PUSH1 0x80 DUP9 ADD MSTORE PUSH2 0x160 DUP8 ADD SWAP1 PUSH2 0x25C8 JUMP JUMPDEST PUSH2 0x23B9 PUSH2 0x23A5 PUSH1 0x80 DUP8 ADD MLOAD SWAP3 PUSH1 0x1F NOT SWAP4 DUP5 DUP11 DUP4 SUB ADD PUSH1 0xA0 DUP12 ADD MSTORE PUSH2 0x25C8 JUMP JUMPDEST PUSH1 0xA0 DUP8 ADD MLOAD DUP4 DUP10 DUP4 SUB ADD PUSH1 0xC0 DUP11 ADD MSTORE PUSH2 0x25C8 JUMP JUMPDEST SWAP1 PUSH1 0xC0 DUP7 ADD MLOAD SWAP1 DUP8 DUP4 SUB ADD PUSH1 0xE0 DUP9 ADD MSTORE PUSH2 0x25C8 JUMP JUMPDEST SWAP3 PUSH1 0xE0 DUP2 ADD MLOAD PUSH2 0x100 DUP7 ADD MSTORE PUSH2 0x100 DUP2 ADD MLOAD DUP3 DUP7 ADD MSTORE ADD MLOAD SWAP1 DUP4 ADD MSTORE SUB SWAP1 RETURN JUMPDEST PUSH1 0x40 MLOAD PUSH3 0x461BCD PUSH1 0xE5 SHL DUP2 MSTORE PUSH1 0x20 PUSH1 0x4 DUP3 ADD MSTORE PUSH1 0x11 PUSH1 0x24 DUP3 ADD MSTORE PUSH17 0x1A5B9D985B1A59081B185D5B98DA081A59 PUSH1 0x7A SHL PUSH1 0x44 DUP3 ADD MSTORE PUSH1 0x64 SWAP1 REVERT JUMPDEST CALLVALUE PUSH2 0xA19 JUMPI PUSH1 0x0 CALLDATASIZE PUSH1 0x3 NOT ADD SLT PUSH2 0xA19 JUMPI PUSH1 0x1 SLOAD PUSH1 0x40 MLOAD PUSH1 0x1 PUSH1 0x1 PUSH1 0xA0 SHL SUB SWAP1 SWAP2 AND DUP2 MSTORE PUSH1 0x20 SWAP1 RETURN JUMPDEST CALLVALUE PUSH2 0xA19 JUMPI PUSH1 0x0 CALLDATASIZE PUSH1 0x3 NOT ADD SLT PUSH2 0xA19 JUMPI PUSH1 0x20 PUSH1 0x40 MLOAD PUSH2 0x3E8 DUP2 MSTORE RETURN JUMPDEST CALLVALUE PUSH2 0xA19 JUMPI PUSH1 0x0 CALLDATASIZE PUSH1 0x3 NOT ADD SLT PUSH2 0xA19 JUMPI PUSH1 0x40 MLOAD PUSH32 0x0 PUSH1 0x1 PUSH1 0x1 PUSH1 0xA0 SHL SUB AND DUP2 MSTORE PUSH1 0x20 SWAP1 RETURN JUMPDEST CALLVALUE PUSH2 0xA19 JUMPI PUSH1 0x0 CALLDATASIZE PUSH1 0x3 NOT ADD SLT PUSH2 0xA19 JUMPI PUSH1 0x40 MLOAD PUSH32 0x0 PUSH1 0x1 PUSH1 0x1 PUSH1 0xA0 SHL SUB AND DUP2 MSTORE PUSH1 0x20 SWAP1 RETURN JUMPDEST CALLVALUE PUSH2 0xA19 JUMPI PUSH1 0x0 CALLDATASIZE PUSH1 0x3 NOT ADD SLT PUSH2 0xA19 JUMPI PUSH1 0x20 PUSH1 0x5 SLOAD PUSH1 0x40 MLOAD SWAP1 DUP2 MSTORE RETURN JUMPDEST CALLVALUE PUSH2 0xA19 JUMPI PUSH1 0x0 CALLDATASIZE PUSH1 0x3 NOT ADD SLT PUSH2 0xA19 JUMPI PUSH1 0x20 PUSH3 0xFFFFFF PUSH1 0xA SLOAD PUSH1 0xA0 SHR AND PUSH1 0x40 MLOAD SWAP1 DUP2 MSTORE RETURN JUMPDEST CALLVALUE PUSH2 0xA19 JUMPI PUSH1 0x0 CALLDATASIZE PUSH1 0x3 NOT ADD SLT PUSH2 0xA19 JUMPI PUSH1 0x9 SLOAD PUSH1 0x40 MLOAD PUSH1 0x1 PUSH1 0x1 PUSH1 0xA0 SHL SUB SWAP1 SWAP2 AND DUP2 MSTORE PUSH1 0x20 SWAP1 RETURN JUMPDEST CALLVALUE PUSH2 0xA19 JUMPI PUSH1 0x20 CALLDATASIZE PUSH1 0x3 NOT ADD SLT PUSH2 0xA19 JUMPI PUSH1 0x4 CALLDATALOAD PUSH1 0x1 PUSH1 0x1 PUSH1 0xA0 SHL SUB DUP2 DUP2 AND SWAP2 DUP3 SWAP1 SUB PUSH2 0xA19 JUMPI PUSH1 0x20 SWAP2 PUSH1 0x0 MSTORE PUSH1 0xC DUP3 MSTORE PUSH1 0x40 PUSH1 0x0 KECCAK256 SLOAD AND PUSH1 0x40 MLOAD SWAP1 DUP2 MSTORE RETURN JUMPDEST CALLVALUE PUSH2 0xA19 JUMPI PUSH1 0x0 CALLDATASIZE PUSH1 0x3 NOT ADD SLT PUSH2 0xA19 JUMPI PUSH1 0xA SLOAD PUSH1 0x1 PUSH1 0x1 PUSH1 0xA0 SHL SUB AND DUP2 MSTORE PUSH1 0x20 SWAP1 RETURN JUMPDEST SWAP2 SWAP1 DUP3 MLOAD SWAP3 DUP4 DUP3 MSTORE PUSH1 0x0 JUMPDEST DUP5 DUP2 LT PUSH2 0x25F4 JUMPI POP POP DUP3 PUSH1 0x0 PUSH1 0x20 DUP1 SWAP5 SWAP6 DUP5 ADD ADD MSTORE PUSH1 0x1F DUP1 NOT SWAP2 ADD AND ADD ADD SWAP1 JUMP JUMPDEST PUSH1 0x20 DUP2 DUP4 ADD DUP2 ADD MLOAD DUP5 DUP4 ADD DUP3 ADD MSTORE ADD PUSH2 0x25D3 JUMP JUMPDEST SWAP2 DUP2 PUSH1 0x1F DUP5 ADD SLT ISZERO PUSH2 0xA19 JUMPI DUP3 CALLDATALOAD SWAP2 PUSH1 0x1 PUSH1 0x1 PUSH1 0x40 SHL SUB DUP4 GT PUSH2 0xA19 JUMPI PUSH1 0x20 DUP4 DUP2 DUP7 ADD SWAP6 ADD ADD GT PUSH2 0xA19 JUMPI JUMP JUMPDEST PUSH2 0x140 DUP2 ADD SWAP1 DUP2 LT PUSH1 0x1 PUSH1 0x1 PUSH1 0x40 SHL SUB DUP3 GT OR PUSH2 0x2651 JUMPI PUSH1 0x40 MSTORE JUMP JUMPDEST PUSH4 0x4E487B71 PUSH1 0xE0 SHL PUSH1 0x0 MSTORE PUSH1 0x41 PUSH1 0x4 MSTORE PUSH1 0x24 PUSH1 0x0 REVERT JUMPDEST PUSH1 0x1 PUSH1 0x1 PUSH1 0x40 SHL SUB DUP2 GT PUSH2 0x2651 JUMPI PUSH1 0x40 MSTORE JUMP JUMPDEST SWAP1 PUSH1 0x1F DUP1 NOT SWAP2 ADD AND DUP2 ADD SWAP1 DUP2 LT PUSH1 0x1 PUSH1 0x1 PUSH1 0x40 SHL SUB DUP3 GT OR PUSH2 0x2651 JUMPI PUSH1 0x40 MSTORE JUMP JUMPDEST PUSH1 0xB SLOAD DUP2 LT ISZERO PUSH2 0x26D6 JUMPI PUSH1 0xA SWAP1 PUSH1 0xB PUSH1 0x0 MSTORE MUL PUSH32 0x175B7A638427703F0DBE7BB9BBF987A2551717B34E79F33B5B1008D1FA01DB9 ADD SWAP1 PUSH1 0x0 SWAP1 JUMP JUMPDEST PUSH4 0x4E487B71 PUSH1 0xE0 SHL PUSH1 0x0 MSTORE PUSH1 0x32 PUSH1 0x4 MSTORE PUSH1 0x24 PUSH1 0x0 REVERT JUMPDEST SWAP1 PUSH1 0x1 DUP3 DUP2 SHR SWAP3 AND DUP1 ISZERO PUSH2 0x271C JUMPI JUMPDEST PUSH1 0x20 DUP4 LT EQ PUSH2 0x2706 JUMPI JUMP JUMPDEST PUSH4 0x4E487B71 PUSH1 0xE0 SHL PUSH1 0x0 MSTORE PUSH1 0x22 PUSH1 0x4 MSTORE PUSH1 0x24 PUSH1 0x0 REVERT JUMPDEST SWAP2 PUSH1 0x7F AND SWAP2 PUSH2 0x26FB JUMP JUMPDEST SWAP1 PUSH1 0x40 MLOAD SWAP2 DUP3 PUSH1 0x0 DUP3 SLOAD PUSH2 0x2739 DUP2 PUSH2 0x26EC JUMP JUMPDEST SWAP1 DUP2 DUP5 MSTORE PUSH1 0x20 SWAP5 PUSH1 0x1 SWAP2 PUSH1 0x1 DUP2 AND SWAP1 DUP2 PUSH1 0x0 EQ PUSH2 0x27A9 JUMPI POP PUSH1 0x1 EQ PUSH2 0x276A JUMPI JUMPDEST POP POP POP PUSH2 0x2768 SWAP3 POP SUB DUP4 PUSH2 0x267A JUMP JUMPDEST JUMP JUMPDEST PUSH1 0x0 SWAP1 DUP2 MSTORE DUP6 DUP2 KECCAK256 SWAP6 SWAP4 POP SWAP2 SWAP1 JUMPDEST DUP2 DUP4 LT PUSH2 0x2791 JUMPI POP POP PUSH2 0x2768 SWAP4 POP DUP3 ADD ADD CODESIZE DUP1 DUP1 PUSH2 0x2759 JUMP JUMPDEST DUP6 SLOAD DUP9 DUP5 ADD DUP6 ADD MSTORE SWAP5 DUP6 ADD SWAP5 DUP8 SWAP5 POP SWAP2 DUP4 ADD SWAP2 PUSH2 0x2778 JUMP JUMPDEST SWAP3 POP POP POP PUSH2 0x2768 SWAP5 SWAP3 POP PUSH1 0xFF NOT AND DUP3 DUP5 ADD MSTORE ISZERO ISZERO PUSH1 0x5 SHL DUP3 ADD ADD CODESIZE DUP1 DUP1 PUSH2 0x2759 JUMP JUMPDEST ISZERO PUSH2 0x27D2 JUMPI JUMP JUMPDEST PUSH1 0x40 MLOAD PUSH3 0x461BCD PUSH1 0xE5 SHL DUP2 MSTORE PUSH1 0x20 PUSH1 0x4 DUP3 ADD MSTORE PUSH1 0x13 PUSH1 0x24 DUP3 ADD MSTORE PUSH19 0xD8C2EADCC6D040CCCACA40DAD2E6DAC2E8C6D PUSH1 0x6B SHL PUSH1 0x44 DUP3 ADD MSTORE PUSH1 0x64 SWAP1 REVERT JUMPDEST SWAP1 DUP2 PUSH1 0x20 SWAP2 SUB SLT PUSH2 0xA19 JUMPI MLOAD PUSH1 0x1 PUSH1 0x1 PUSH1 0xA0 SHL SUB DUP2 AND DUP2 SUB PUSH2 0xA19 JUMPI SWAP1 JUMP JUMPDEST SWAP1 DUP1 PUSH1 0x20 SWAP4 SWAP3 DUP2 DUP5 MSTORE DUP5 DUP5 ADD CALLDATACOPY PUSH1 0x0 DUP3 DUP3 ADD DUP5 ADD MSTORE PUSH1 0x1F ADD PUSH1 0x1F NOT AND ADD ADD SWAP1 JUMP JUMPDEST SWAP1 DUP2 PUSH1 0x20 SWAP2 SUB SLT PUSH2 0xA19 JUMPI MLOAD DUP1 ISZERO ISZERO DUP2 SUB PUSH2 0xA19 JUMPI SWAP1 JUMP JUMPDEST PUSH1 0x1 PUSH1 0x1 PUSH1 0x40 SHL SUB DUP2 GT PUSH2 0x2651 JUMPI PUSH1 0x1F ADD PUSH1 0x1F NOT AND PUSH1 0x20 ADD SWAP1 JUMP JUMPDEST SWAP3 SWAP2 SWAP3 PUSH2 0x288C DUP3 PUSH2 0x2865 JUMP JUMPDEST SWAP2 PUSH2 0x289A PUSH1 0x40 MLOAD SWAP4 DUP5 PUSH2 0x267A JUMP JUMPDEST DUP3 SWAP5 DUP2 DUP5 MSTORE DUP2 DUP4 ADD GT PUSH2 0xA19 JUMPI DUP3 DUP2 PUSH1 0x20 SWAP4 DUP5 PUSH1 0x0 SWAP7 ADD CALLDATACOPY ADD ADD MSTORE JUMP JUMPDEST PUSH1 0x4 SLOAD DUP1 ISZERO PUSH2 0x2981 JUMPI PUSH1 0x0 DUP1 DUP1 DUP1 PUSH1 0x1 DUP1 PUSH1 0xA0 SHL SUB SWAP5 DUP6 PUSH1 0x2 SLOAD AND GAS CALL RETURNDATASIZE ISZERO PUSH2 0x297C JUMPI RETURNDATASIZE PUSH2 0x28E4 DUP2 PUSH2 0x2865 JUMP JUMPDEST SWAP1 PUSH2 0x28F2 PUSH1 0x40 MLOAD SWAP3 DUP4 PUSH2 0x267A JUMP JUMPDEST DUP2 MSTORE PUSH1 0x0 PUSH1 0x20 RETURNDATASIZE SWAP3 ADD RETURNDATACOPY JUMPDEST ISZERO PUSH2 0x2937 JUMPI PUSH1 0x2 SLOAD AND PUSH1 0x4 SLOAD PUSH1 0x40 MLOAD SWAP1 DUP2 MSTORE PUSH32 0x4CEF2D27CDF43D743C3C66401182E93989938E77D1BE10F3AB9E6AFDF799F839 PUSH1 0x20 CALLER SWAP3 LOG3 JUMP JUMPDEST PUSH1 0x40 MLOAD PUSH3 0x461BCD PUSH1 0xE5 SHL DUP2 MSTORE PUSH1 0x20 PUSH1 0x4 DUP3 ADD MSTORE PUSH1 0x1A PUSH1 0x24 DUP3 ADD MSTORE PUSH32 0x6C61756E636820666565207472616E73666572206661696C6564000000000000 PUSH1 0x44 DUP3 ADD MSTORE PUSH1 0x64 SWAP1 REVERT JUMPDEST PUSH2 0x28FD JUMP JUMPDEST POP JUMP INVALID LOG2 PUSH5 0x6970667358 0x22 SLT KECCAK256 BLOCKHASH DUP1 SWAP1 0xDE 0xC4 DUP13 0xE5 PUSH18 0x8E27C3DDA68C24CC2EE38F503F23C1CC57F3 MSIZE SUB BALANCE 0x25 PUSH25 0x5164736F6C6343000818003300000000000000000000000000 "},"methodIdentifiers":{"BPS_DENOMINATOR()":"e1a45218","FIXED_TOTAL_SUPPLY()":"b3602acd","MAX_TOKEN_TRADE_FEE_BPS()":"39cbfa1f","createLaunchLiveDexCurve(string,string,string,string,uint256,uint256)":"5de3bafb","createLaunchLiveDexCurveWithTax(string,string,string,string,uint256,uint256,uint256)":"fd04bbac","defaultDexRouter()":"d578192c","defaultFeeBps()":"bcae25a4","defaultGraduationTargetEth()":"63f0eb04","defaultLpRecipient()":"13ed4aa6","defaultV3Fee()":"150004eb","defaultV3PositionManager()":"0261ef92","defaultVirtualEthReserve()":"1c8c0d92","defaultVirtualTokenReserve()":"93a8e04d","feeRecipient()":"46904840","getLaunch(uint256)":"5930d3ce","getLaunchCount()":"9ff0251f","launchFeeWei()":"83eeb3bb","owner()":"8da5cb5b","platformFeeRecipient()":"eb13554f","poolByToken(address)":"0b0420bb","poolDeployer()":"3119049a","tokenDeployer()":"2a2dae0a","transferOwnership(address)":"f2fde38b"}}}}}