{"contracts/MemeLaunchFactory.sol":{"MemeLaunchFactory":{"abi":[{"inputs":[{"internalType":"address","name":"_feeRecipient","type":"address"},{"internalType":"address","name":"_platformFeeRecipient","type":"address"},{"internalType":"uint256","name":"_defaultFeeBps","type":"uint256"},{"internalType":"uint256","name":"_launchFeeWei","type":"uint256"},{"internalType":"uint256","name":"_defaultVirtualEthReserve","type":"uint256"},{"internalType":"uint256","name":"_defaultVirtualTokenReserve","type":"uint256"},{"internalType":"uint256","name":"_defaultGraduationTargetEth","type":"uint256"},{"internalType":"address","name":"_defaultDexRouter","type":"address"},{"internalType":"address","name":"_defaultLpRecipient","type":"address"},{"internalType":"address","name":"_defaultV3PositionManager","type":"address"},{"internalType":"uint24","name":"_defaultV3Fee","type":"uint24"}],"stateMutability":"nonpayable","type":"constructor"},{"anonymous":false,"inputs":[{"indexed":false,"internalType":"address","name":"feeRecipient","type":"address"},{"indexed":false,"internalType":"address","name":"platformFeeRecipient","type":"address"},{"indexed":false,"internalType":"uint256","name":"feeBps","type":"uint256"},{"indexed":false,"internalType":"uint256","name":"launchFeeWei","type":"uint256"},{"indexed":false,"internalType":"uint256","name":"virtualEthReserve","type":"uint256"},{"indexed":false,"internalType":"uint256","name":"virtualTokenReserve","type":"uint256"},{"indexed":false,"internalType":"uint256","name":"graduationTargetEth","type":"uint256"},{"indexed":false,"internalType":"address","name":"dexRouter","type":"address"},{"indexed":false,"internalType":"address","name":"lpRecipient","type":"address"},{"indexed":false,"internalType":"address","name":"v3PositionManager","type":"address"},{"indexed":false,"internalType":"uint24","name":"v3Fee","type":"uint24"}],"name":"DefaultsUpdated","type":"event"},{"anonymous":false,"inputs":[{"indexed":true,"internalType":"address","name":"creator","type":"address"},{"indexed":false,"internalType":"uint256","name":"ethLiquidity","type":"uint256"}],"name":"InstantLaunchRequested","type":"event"},{"anonymous":false,"inputs":[{"indexed":true,"internalType":"uint256","name":"launchId","type":"uint256"},{"indexed":true,"internalType":"address","name":"creator","type":"address"},{"indexed":true,"internalType":"address","name":"token","type":"address"},{"indexed":false,"internalType":"address","name":"pool","type":"address"},{"indexed":false,"internalType":"uint256","name":"totalSupply","type":"uint256"},{"indexed":false,"internalType":"uint256","name":"creatorAllocation","type":"uint256"},{"indexed":false,"internalType":"uint256","name":"feeBps","type":"uint256"},{"indexed":false,"internalType":"uint256","name":"graduationTargetEth","type":"uint256"},{"indexed":false,"internalType":"address","name":"dexRouter","type":"address"},{"indexed":false,"internalType":"address","name":"lpRecipient","type":"address"},{"indexed":false,"internalType":"address","name":"v3PositionManager","type":"address"},{"indexed":false,"internalType":"uint24","name":"v3Fee","type":"uint24"}],"name":"LaunchCreated","type":"event"},{"anonymous":false,"inputs":[{"indexed":true,"internalType":"address","name":"payer","type":"address"},{"indexed":true,"internalType":"address","name":"recipient","type":"address"},{"indexed":false,"internalType":"uint256","name":"amountWei","type":"uint256"}],"name":"LaunchFeePaid","type":"event"},{"anonymous":false,"inputs":[{"indexed":true,"internalType":"address","name":"creator","type":"address"},{"indexed":false,"internalType":"uint256","name":"ethLiquidity","type":"uint256"}],"name":"LiveDexCurveRequested","type":"event"},{"anonymous":false,"inputs":[{"indexed":true,"internalType":"address","name":"previousOwner","type":"address"},{"indexed":true,"internalType":"address","name":"newOwner","type":"address"}],"name":"OwnershipTransferred","type":"event"},{"anonymous":false,"inputs":[{"indexed":true,"internalType":"uint256","name":"launchId","type":"uint256"},{"indexed":true,"internalType":"address","name":"token","type":"address"},{"indexed":false,"internalType":"uint256","name":"tradeFeeBps","type":"uint256"},{"indexed":false,"internalType":"uint256","name":"creatorFeeBps","type":"uint256"},{"indexed":false,"internalType":"uint256","name":"platformFeeBps","type":"uint256"}],"name":"TokenTaxConfigured","type":"event"},{"inputs":[],"name":"BPS_DENOMINATOR","outputs":[{"internalType":"uint256","name":"","type":"uint256"}],"stateMutability":"view","type":"function"},{"inputs":[],"name":"BURN_ADDRESS","outputs":[{"internalType":"address","name":"","type":"address"}],"stateMutability":"view","type":"function"},{"inputs":[],"name":"DEFAULT_TOKEN_TRADE_FEE_BPS","outputs":[{"internalType":"uint256","name":"","type":"uint256"}],"stateMutability":"view","type":"function"},{"inputs":[],"name":"FIXED_TOTAL_SUPPLY","outputs":[{"internalType":"uint256","name":"","type":"uint256"}],"stateMutability":"view","type":"function"},{"inputs":[],"name":"MAX_TOKEN_TRADE_FEE_BPS","outputs":[{"internalType":"uint256","name":"","type":"uint256"}],"stateMutability":"view","type":"function"},{"inputs":[],"name":"ROBINHOOD_CHAIN_ID","outputs":[{"internalType":"uint256","name":"","type":"uint256"}],"stateMutability":"view","type":"function"},{"inputs":[{"internalType":"string","name":"name","type":"string"},{"internalType":"string","name":"symbol","type":"string"},{"internalType":"string","name":"imageURI","type":"string"},{"internalType":"string","name":"description","type":"string"},{"internalType":"uint256","name":"totalSupply","type":"uint256"},{"internalType":"uint256","name":"creatorAllocationBps","type":"uint256"}],"name":"createLaunch","outputs":[{"internalType":"uint256","name":"launchId","type":"uint256"},{"internalType":"address","name":"tokenAddress","type":"address"},{"internalType":"address","name":"poolAddress","type":"address"}],"stateMutability":"payable","type":"function"},{"inputs":[{"internalType":"string","name":"name","type":"string"},{"internalType":"string","name":"symbol","type":"string"},{"internalType":"string","name":"imageURI","type":"string"},{"internalType":"string","name":"description","type":"string"},{"internalType":"uint256","name":"totalSupply","type":"uint256"},{"internalType":"uint256","name":"creatorAllocationBps","type":"uint256"}],"name":"createLaunchInstant","outputs":[{"internalType":"uint256","name":"launchId","type":"uint256"},{"internalType":"address","name":"tokenAddress","type":"address"},{"internalType":"address","name":"poolAddress","type":"address"}],"stateMutability":"payable","type":"function"},{"inputs":[{"internalType":"string","name":"name","type":"string"},{"internalType":"string","name":"symbol","type":"string"},{"internalType":"string","name":"imageURI","type":"string"},{"internalType":"string","name":"description","type":"string"},{"internalType":"uint256","name":"totalSupply","type":"uint256"},{"internalType":"uint256","name":"creatorAllocationBps","type":"uint256"},{"internalType":"uint256","name":"tokenTradeFeeBps","type":"uint256"}],"name":"createLaunchInstantWithTax","outputs":[{"internalType":"uint256","name":"launchId","type":"uint256"},{"internalType":"address","name":"tokenAddress","type":"address"},{"internalType":"address","name":"poolAddress","type":"address"}],"stateMutability":"payable","type":"function"},{"inputs":[{"internalType":"string","name":"name","type":"string"},{"internalType":"string","name":"symbol","type":"string"},{"internalType":"string","name":"imageURI","type":"string"},{"internalType":"string","name":"description","type":"string"},{"internalType":"uint256","name":"totalSupply","type":"uint256"},{"internalType":"uint256","name":"creatorAllocationBps","type":"uint256"}],"name":"createLaunchLiveDexCurve","outputs":[{"internalType":"uint256","name":"launchId","type":"uint256"},{"internalType":"address","name":"tokenAddress","type":"address"},{"internalType":"address","name":"poolAddress","type":"address"}],"stateMutability":"payable","type":"function"},{"inputs":[{"internalType":"string","name":"name","type":"string"},{"internalType":"string","name":"symbol","type":"string"},{"internalType":"string","name":"imageURI","type":"string"},{"internalType":"string","name":"description","type":"string"},{"internalType":"uint256","name":"totalSupply","type":"uint256"},{"internalType":"uint256","name":"creatorAllocationBps","type":"uint256"},{"internalType":"uint256","name":"tokenTradeFeeBps","type":"uint256"}],"name":"createLaunchLiveDexCurveWithTax","outputs":[{"internalType":"uint256","name":"launchId","type":"uint256"},{"internalType":"address","name":"tokenAddress","type":"address"},{"internalType":"address","name":"poolAddress","type":"address"}],"stateMutability":"payable","type":"function"},{"inputs":[{"internalType":"string","name":"name","type":"string"},{"internalType":"string","name":"symbol","type":"string"},{"internalType":"string","name":"imageURI","type":"string"},{"internalType":"string","name":"description","type":"string"},{"internalType":"uint256","name":"totalSupply","type":"uint256"},{"internalType":"uint256","name":"creatorAllocationBps","type":"uint256"},{"internalType":"uint256","name":"tokenTradeFeeBps","type":"uint256"}],"name":"createLaunchWithTax","outputs":[{"internalType":"uint256","name":"launchId","type":"uint256"},{"internalType":"address","name":"tokenAddress","type":"address"},{"internalType":"address","name":"poolAddress","type":"address"}],"stateMutability":"payable","type":"function"},{"inputs":[],"name":"defaultDexRouter","outputs":[{"internalType":"address","name":"","type":"address"}],"stateMutability":"view","type":"function"},{"inputs":[],"name":"defaultFeeBps","outputs":[{"internalType":"uint256","name":"","type":"uint256"}],"stateMutability":"view","type":"function"},{"inputs":[],"name":"defaultGraduationTargetEth","outputs":[{"internalType":"uint256","name":"","type":"uint256"}],"stateMutability":"view","type":"function"},{"inputs":[],"name":"defaultLpRecipient","outputs":[{"internalType":"address","name":"","type":"address"}],"stateMutability":"view","type":"function"},{"inputs":[],"name":"defaultV3Fee","outputs":[{"internalType":"uint24","name":"","type":"uint24"}],"stateMutability":"view","type":"function"},{"inputs":[],"name":"defaultV3PositionManager","outputs":[{"internalType":"address","name":"","type":"address"}],"stateMutability":"view","type":"function"},{"inputs":[],"name":"defaultVirtualEthReserve","outputs":[{"internalType":"uint256","name":"","type":"uint256"}],"stateMutability":"view","type":"function"},{"inputs":[],"name":"defaultVirtualTokenReserve","outputs":[{"internalType":"uint256","name":"","type":"uint256"}],"stateMutability":"view","type":"function"},{"inputs":[],"name":"feeRecipient","outputs":[{"internalType":"address","name":"","type":"address"}],"stateMutability":"view","type":"function"},{"inputs":[{"internalType":"uint256","name":"launchId","type":"uint256"}],"name":"getLaunch","outputs":[{"components":[{"internalType":"address","name":"token","type":"address"},{"internalType":"address","name":"pool","type":"address"},{"internalType":"address","name":"creator","type":"address"},{"internalType":"string","name":"name","type":"string"},{"internalType":"string","name":"symbol","type":"string"},{"internalType":"string","name":"imageURI","type":"string"},{"internalType":"string","name":"description","type":"string"},{"internalType":"uint256","name":"totalSupply","type":"uint256"},{"internalType":"uint256","name":"creatorAllocation","type":"uint256"},{"internalType":"uint256","name":"createdAt","type":"uint256"}],"internalType":"struct MemeLaunchFactory.LaunchInfo","name":"","type":"tuple"}],"stateMutability":"view","type":"function"},{"inputs":[],"name":"getLaunchCount","outputs":[{"internalType":"uint256","name":"","type":"uint256"}],"stateMutability":"view","type":"function"},{"inputs":[{"internalType":"uint256","name":"offset","type":"uint256"},{"internalType":"uint256","name":"limit","type":"uint256"}],"name":"getLaunches","outputs":[{"components":[{"internalType":"address","name":"token","type":"address"},{"internalType":"address","name":"pool","type":"address"},{"internalType":"address","name":"creator","type":"address"},{"internalType":"string","name":"name","type":"string"},{"internalType":"string","name":"symbol","type":"string"},{"internalType":"string","name":"imageURI","type":"string"},{"internalType":"string","name":"description","type":"string"},{"internalType":"uint256","name":"totalSupply","type":"uint256"},{"internalType":"uint256","name":"creatorAllocation","type":"uint256"},{"internalType":"uint256","name":"createdAt","type":"uint256"}],"internalType":"struct MemeLaunchFactory.LaunchInfo[]","name":"data","type":"tuple[]"}],"stateMutability":"view","type":"function"},{"inputs":[],"name":"launchFeeWei","outputs":[{"internalType":"uint256","name":"","type":"uint256"}],"stateMutability":"view","type":"function"},{"inputs":[],"name":"owner","outputs":[{"internalType":"address","name":"","type":"address"}],"stateMutability":"view","type":"function"},{"inputs":[],"name":"platformFeeRecipient","outputs":[{"internalType":"address","name":"","type":"address"}],"stateMutability":"view","type":"function"},{"inputs":[{"internalType":"address","name":"token","type":"address"}],"name":"poolByToken","outputs":[{"internalType":"address","name":"pool","type":"address"}],"stateMutability":"view","type":"function"},{"inputs":[{"internalType":"address","name":"newFeeRecipient","type":"address"},{"internalType":"address","name":"newPlatformFeeRecipient","type":"address"},{"internalType":"uint256","name":"newFeeBps","type":"uint256"},{"internalType":"uint256","name":"newLaunchFeeWei","type":"uint256"},{"internalType":"uint256","name":"newVirtualEthReserve","type":"uint256"},{"internalType":"uint256","name":"newVirtualTokenReserve","type":"uint256"},{"internalType":"uint256","name":"newGraduationTargetEth","type":"uint256"},{"internalType":"address","name":"newDexRouter","type":"address"},{"internalType":"address","name":"newLpRecipient","type":"address"},{"internalType":"address","name":"newV3PositionManager","type":"address"},{"internalType":"uint24","name":"newV3Fee","type":"uint24"}],"name":"setDefaults","outputs":[],"stateMutability":"nonpayable","type":"function"},{"inputs":[{"internalType":"address","name":"newOwner","type":"address"}],"name":"transferOwnership","outputs":[],"stateMutability":"nonpayable","type":"function"}],"evm":{"bytecode":{"linkReferences":{},"object":"6080346200038457601f6200b8d538819003918201601f191683019291906001600160401b038411838510176200038957816101609284926040968752833981010312620003845762000052816200039f565b602090620000628284016200039f565b8484015190606085015160808601519460a087015160c0880151906200008b60e08a016200039f565b976200009b6101008b016200039f565b94610140620000ae6101208d016200039f565b9b01519762ffffff89169a8b8a0362000384576001600160a01b039a8b169889156200033f5761012c83116200030b578b16908115620002c6578415620002815785156200023c5786156200020557908b809998979695949392169687620001a1575b5060018060a01b031999338b60005416176000558a600154161760015589600254161760025560035560045560055560065560075583600854161760085516906009541617600955600a5492156000146200019b57506127105b62ffffff60a01b60a09190911b1692166001600160b81b0319919091161717600a555161b5209081620003b58239f35b6200016b565b909192939495969798891615620001c257908b989796959493929162000111565b6064908f519062461bcd60e51b82526004820152601560248201527f6c7020726563697069656e7420726571756972656400000000000000000000006044820152fd5b508d5162461bcd60e51b815260048101889052600f60248201526e1d185c99d95d081c995c5d5a5c9959608a1b6044820152606490fd5b508d5162461bcd60e51b815260048101889052601660248201527f7669727475616c20746f6b656e207265717569726564000000000000000000006044820152606490fd5b508d5162461bcd60e51b815260048101889052601460248201527f7669727475616c206574682072657175697265640000000000000000000000006044820152606490fd5b508d5162461bcd60e51b815260048101889052601b60248201527f706c6174666f726d20726563697069656e7420726571756972656400000000006044820152606490fd5b508d5162461bcd60e51b815260048101889052600c60248201526b0cccaca40e8dede40d0d2ced60a31b6044820152606490fd5b508d5162461bcd60e51b815260048101889052601660248201527f66656520726563697069656e74207265717569726564000000000000000000006044820152606490fd5b600080fd5b634e487b7160e01b600052604160045260246000fd5b51906001600160a01b0382168203620003845756fe6103008060405260043610156200001557600080fd5b60006101a0526101a0513560e01c9081630261ef921462005e55575080630b0420bb1462005e125780631036338c146200526c57806313ed4aa6146200523f578063150004eb14620052155780631c8c0d9214620051f357806339cbfa1f14620051d25780633c0f4305146200462f5780634690484014620046025780634a9ddfdd14620045e25780635930d3ce146200454e5780635de3bafb146200359257806363f0eb04146200357057806380fa02f7146200354f57806383eeb3bb146200352d5780638da5cb5b14620034fe57806393a8e04d14620034dc57806396875aa014620027315780639b3b9f9814620026a45780639ff0251f1462002682578063b3602acd1462002658578063bcae25a41462002636578063d578192c1462002609578063e1a4521814620025e8578063eb13554f14620025bb578063eb48799914620021c4578063f018189214620013ea578063f2fde38b1462001323578063fccc281314620013025763fd04bbac146200019157600080fd5b6200019c3662005f59565b60e05260c0525060805260045495969395909290620001ca90620001c334821115620063bc565b3462006409565b958615958680620012ec575b8715620012b1575b50620001e962006679565b6040518881527fb610ea5b60c2e916119ad74eb6f1c4e02b296189e982f615f38630738be9786560203392a288156200127c57811562001245576107d060c051116200120a576103e860e05111620011d057600254604051906001600160a01b03166001600160401b0361180883019081119083111762000ab257819061180862009c83833960e06118088301818152620002a4916200028c91018e8c62006780565b61180884018103602061180886010152868662006780565b90676765c793fa10079d601b1b604061180885010152306060611808850101523360806118088501015260a06118088401015260e05160c06118088401015203906101a051f061010052610100511562000989576002546001600160a01b03163314976200031289620067dc565b60a052600154600354600554600654600754600854600a54604051966001600160a01b0390811696919592169391906001600160401b0361346489019081119089111762000ab25762ffffff966134646200681f8a3961010080516001600160a01b039081166134648c0190815230602082015260408101939093526060830193909352608082019390935260a08181019490945260c081019490945260e0840194909452815184169083015291831661012082015291901c919091166101408201528190036101600191f0978815620009895760c051676765c793fa10079d601b1b0297676765c793fa10079d601b1b890460c05103620011b657676765c793fa10079d601b1b6127108a04810311620011b65760405163a9059cbb60e01b81526001600160a01b038b811660048301526127108b04676765c793fa10079d601b1b0360248301526101a0516101005160209284926044928492165af190811562000989576101a0519162001192575b50156200115657612710890462001099575b6001600160a01b038a163b1562000ddb57604051639556483760e01b81526127108a04676765c793fa10079d601b1b0360048201528a816024816101a051936101a0519060018060a01b03165af1801562000989576200107e575b508062000eb057506001600160a01b0389163b1562000ddb57604051631c7031d760e31b81526101a05181600481836001600160a01b038f165af18015620009895762000e95575b506040516306b456ef60e21b81526020816004816001600160a01b038e165afa90811562000989576101a0519162000e5f575b506001600160a01b03811662000dee575b5080159062000de2575b62000d6f575b610100516101a080516001600160a01b039283169052600c602052516040902080546001600160a01b031916918a16919091179055600b5498600160401b8a101562000ab25760018a01600b55620005e48a620061da565b5050620005f18a620061da565b506101005181546001600160a01b03199081166001600160a01b039283161783556001830180548216928d169290921790915560028201805490911633179055966001600160401b03821162000ab25781906200065260038a01546200622c565b601f811162000d11575b506101a05190601f831160011462000c9a576101a0519262000c8e575b50508160011b916000199060031b1c19161760038701555b6001600160401b03821162000ab2578190620006b160048801546200622c565b601f811162000c30575b506101a05190601f831160011462000bb9576101a0519262000bad575b50508160011b916000199060031b1c19161760048501555b6001600160401b03821162000ab25781906200071060058601546200622c565b601f811162000b4f575b506101a05190601f831160011462000ad8576101a0519262000acc575b50508160011b916000199060031b1c19161760058301555b6001600160401b036080511162000ab2576200076f60068301546200622c565b601f811162000a5c575b506101a051601f60805111600114620009db576101a05191608051620009cf575b505060805160011b9060001960805160031b1c19161760068201555b676765c793fa10079d601b1b60078201556127108204600882015560094291015562ffffff60035460075460018060a01b036008541690600a54926127106040519660018060a01b0389168852676765c793fa10079d601b1b60208901520460408701526060860152608085015260a084015260018060a01b0360a0511660c084015260018060a01b03811660e084015260a01c1661010082015260018060a01b03610100511690836000805160206200b4ab8339815191526101203393a46040516317773ebb60e01b815261010051602090829060049082906001600160a01b03165afa90811562000989576101a0519162000997575b5060405163116e689f60e11b815261010051602090829060049082906001600160a01b03165afa90811562000989576101a051916200094c575b506040519160e051835260208301526040820152826000805160206200b4cb833981519152606060018060a01b03610100511693a360408051610100519381526001600160a01b0393841660208201529190921691810191909152606090f35b0390f35b90506020813d60201162000980575b816200096a6020938362006167565b810103126200097b575138620008e8565b600080fd5b3d91506200095b565b6040513d6101a051823e3d90fd5b90506020813d602011620009c6575b81620009b56020938362006167565b810103126200097b575138620008ae565b3d9150620009a6565b0135905038806200079a565b90600683016101a0515260206101a05120916101a0515b608051601f1916811062000a435750608051601f1981161062000a26575b5050506001608051811b016006820155620007b6565b60001960f860805160031b161c1991013516905538808062000a10565b90926020600181928686013581550194019101620009f2565b600683016101a0515260206101a05120601f6080510160051c810160206080511062000aaa575b601f830160051c8201811062000a9b57505062000779565b6101a051815560010162000a83565b508062000a83565b634e487b7160e01b6101a05152604160045260246101a051fd5b01359050388062000737565b6101a080516005880190525160208120909450915b601f198416851062000b36576001945083601f1981161062000b1b575b505050811b0160058301556200074f565b0135600019600384901b60f8161c1916905538808062000b0a565b8181013583556020948501946001909301920162000aed565b909150600585016101a0515260206101a05120601f840160051c81016020851062000ba5575b90849392915b601f830160051c8201811062000b935750506200071a565b6101a051815585945060010162000b7b565b508062000b75565b013590503880620006d8565b6101a0805160048a0190525160208120909450915b601f198416851062000c17576001945083601f1981161062000bfc575b505050811b016004850155620006f0565b0135600019600384901b60f8161c1916905538808062000beb565b8181013583556020948501946001909301920162000bce565b909150600487016101a0515260206101a05120601f840160051c81016020851062000c86575b90849392915b601f830160051c8201811062000c74575050620006bb565b6101a051815585945060010162000c5c565b508062000c56565b01359050388062000679565b6101a0805160038c0190525160208120909450915b601f198416851062000cf8576001945083601f1981161062000cdd575b505050811b01600387015562000691565b0135600019600384901b60f8161c1916905538808062000ccc565b8181013583556020948501946001909301920162000caf565b909150600389016101a0515260206101a05120601f840160051c81016020851062000d67575b90849392915b601f830160051c8201811062000d555750506200065c565b6101a051815585945060010162000d3d565b508062000d37565b610100516001600160a01b03163b1562000ddb57604051636e258e0760e11b81526101a051610100518290600490829084906001600160a01b03165af18015620009895762000dc0575b506200058c565b62000dcb9062006120565b6101a05162000ddb573862000db9565b6101a05180fd5b50611237461462000586565b610100516001600160a01b03163b1562000ddb576040516315c6deb960e31b81526001600160a01b0391821660048201526101a0516101005191929091839160249183918591165af180156200098957156200057c5762000e4f9062006120565b6101a05162000ddb57386200057c565b62000e86915060203d60201162000e8d575b62000e7d818362006167565b810190620067bb565b386200056b565b503d62000e71565b62000ea09062006120565b6101a05162000ddb573862000538565b62000ebc57506200058c565b6001600160a01b0389163b1562000ddb5760405162e2c3fd60e11b81526101a05181600481836001600160a01b038f165af18015620009895762001063575b506040516306b456ef60e21b81526020816004816001600160a01b038e165afa90811562000989576101a051916200103f575b506001600160a01b03811662000fce575b5080159062000fc2575b62000f56575b3862000db9565b610100516001600160a01b03163b1562000ddb57604051636e258e0760e11b81526101a051610100518290600490829084906001600160a01b03165af18015620009895762000fa7575b5062000f4f565b62000fb29062006120565b6101a05162000ddb573862000fa0565b50611237461462000f49565b610100516001600160a01b03163b1562000ddb576040516315c6deb960e31b81526001600160a01b0391821660048201526101a0516101005191929091839160249183918591165af1801562000989571562000f3f576200102f9062006120565b6101a05162000ddb573862000f3f565b6200105c915060203d60201162000e8d5762000e7d818362006167565b3862000f2e565b6200106e9062006120565b6101a05162000ddb573862000efb565b620010899062006120565b6101a05162000ddb5738620004f0565b60405163a9059cbb60e01b81523360048201526127108a0460248201526101a05161010051602091839160449183916001600160a01b03165af190811562000989576101a0519162001120575b50620004955760405162461bcd60e51b815260206004820152601760248201526000805160206200b48b8339815191526044820152606490fd5b62001147915060203d6020116200114e575b6200113e818362006167565b810190620067a1565b38620010e6565b503d62001132565b60405162461bcd60e51b81526020600482015260146024820152731c1bdbdb081d1c985b9cd9995c8819985a5b195960621b6044820152606490fd5b620011af915060203d6020116200114e576200113e818362006167565b3862000483565b634e487b7160e01b6101a05152601160045260246101a051fd5b60405162461bcd60e51b81526020600482015260126024820152710e8e4c2c8ca40cccaca40e8dede40d0d2ced60731b6044820152606490fd5b60405162461bcd60e51b81526020600482015260136024820152720c2d8d8dec6c2e8d2dedc40e8dede40d0d2ced606b1b6044820152606490fd5b60405162461bcd60e51b815260206004820152600f60248201526e1cde5b589bdb081c995c5d5a5c9959608a1b6044820152606490fd5b60405162461bcd60e51b815260206004820152600d60248201526c1b985b59481c995c5d5a5c9959609a1b6044820152606490fd5b620012e590620012de60018060a01b03620012d2816008541615156200642d565b6009541615156200646f565b15620064b3565b38620001de565b600a546001600160a01b031615159750620001d6565b3462000ddb576101a05136600319011262000ddb57602060405161dead8152f35b3462000ddb57602036600319011262000ddb576200134062005e7d565b6101a051546001600160a01b03808216926200135e3385146200663f565b16918215620013b45782907f8be0079c531659141344cd1fd0a4f28419497f9722a3daafe3b4186f6b6457e06101a0516101a051a36bffffffffffffffffffffffff60a01b16176101a051556101a0516101a051f35b60405162461bcd60e51b815260206004820152600e60248201526d1bdddb995c881c995c5d5a5c995960921b6044820152606490fd5b620013f53662005f59565b6101605261014052506008549697959694959490939192919062001424906001600160a01b031615156200642d565b6009546200143d906001600160a01b031615156200646f565b62001451600454620001c3813411620064b3565b956200145c62006679565b6040518781527fac9d85dc25663b5cc567afaed6bb7823377f8f9f4164bc741a6ed341c04a8ec760203392a288156200127c57801562001245576107d061014051116200120a576103e86101605111620011d057600254604051906001600160a01b03166001600160401b0361180883019081119083111762000ab257819061180862009c83833960e0611808830181815262001519916200150191018e8c62006780565b61180884018103602061180886010152858d62006780565b90676765c793fa10079d601b1b604061180885010152306060611808850101523360806118088501015260a0611808840101526101605160c06118088401015203906101a051f061018052610180511562000989576002546001600160a01b03163314966200158888620067dc565b61012052600154600354600554600654600754600854600a54604051966001600160a01b0390811696919592169391906001600160401b0361346489019081119089111762000ab25762ffffff966134646200681f8a39610180516001600160a01b039081166134648b0190815230602082015260408101929092526060820192909252608081019290925260a08281019390935260c082019390935260e081019390935261012080518316610100850152918416918301919091529190911c919091166101408201528190036101600191f0978815620009895761014051676765c793fa10079d601b1b0297676765c793fa10079d601b1b89046101405103620011b657676765c793fa10079d601b1b6127108a04810311620011b65760405163a9059cbb60e01b81526001600160a01b038b811660048301526127108b04676765c793fa10079d601b1b0360248301526101a0516101805160209284926044928492165af190811562000989576101a05191620021a0575b501562001156576127108904620020f5575b6001600160a01b038a163b1562000ddb57604051639556483760e01b81526127108a04676765c793fa10079d601b1b0360048201528a816024816101a051936101a0519060018060a01b03165af180156200098957620020da575b506001600160a01b038a163b1562000ddb576040516309485dc960e21b81528a816004816101a051936101a0519060018060a01b03165af180156200098957620020bf575b506040516306b456ef60e21b81526020816004816001600160a01b038f165afa90811562000989576101a051916200209b575b506001600160a01b0381166200202a575b508015906200201e575b62001fb2575b610180516101a080516001600160a01b039283169052600c602052516040902080546001600160a01b031916918b16919091179055600b5499600160401b8b101562000ab25760018b01600b55620018608b620061da565b50506200186d8b620061da565b506101805181546001600160a01b03199081166001600160a01b039283161783556001830180548216928e169290921790915560028201805490911633179055976001600160401b03821162000ab2578190620018ce60038b01546200622c565b601f811162001f54575b506101a05190601f831160011462001edd576101a0519262001ed1575b50508160011b916000199060031b1c19161760038801555b6001600160401b03821162000ab25781906200192d60048901546200622c565b601f811162001e73575b506101a05190601f831160011462001dfc576101a0519262001df0575b50508160011b916000199060031b1c19161760048601555b6001600160401b03821162000ab25781906200198c60058701546200622c565b601f811162001d92575b506101a05190601f831160011462001d1b576101a0519262001d0f575b50508160011b916000199060031b1c19161760058401555b6001600160401b03821162000ab2578190620019eb60068501546200622c565b601f811162001cb1575b506101a05190601f831160011462001c3a576101a0519262001c2e575b50508160011b916000199060031b1c19161760068201555b676765c793fa10079d601b1b60078201556127108204600882015560094291015562ffffff60035460075460018060a01b036008541690600a54926127106040519660018060a01b0389168852676765c793fa10079d601b1b60208901520460408701526060860152608085015260a084015260018060a01b03610120511660c084015260018060a01b03811660e084015260a01c1661010082015260018060a01b03610180511690836000805160206200b4ab8339815191526101203393a46040516317773ebb60e01b815261018051602090829060049082906001600160a01b03165afa90811562000989576101a0519162001bf6575b5060405163116e689f60e11b815261018051602090829060049082906001600160a01b03165afa90811562000989576101a0519162001bbe575b506040519161016051835260208301526040820152826000805160206200b4cb833981519152606060018060a01b03610180511693a360408051610180519381526001600160a01b0393841660208201529190921691810191909152606090f35b90506020813d60201162001bed575b8162001bdc6020938362006167565b810103126200097b57518462001b5d565b3d915062001bcd565b90506020813d60201162001c25575b8162001c146020938362006167565b810103126200097b57518362001b23565b3d915062001c05565b01359050868062001a12565b6101a080516006870190525160208120909450915b601f198416851062001c98576001945083601f1981161062001c7d575b505050811b01600682015562001a2a565b0135600019600384901b60f8161c1916905586808062001c6c565b8181013583556020948501946001909301920162001c4f565b909150600684016101a0515260206101a05120601f840160051c81016020851062001d07575b90849392915b601f830160051c8201811062001cf5575050620019f5565b6101a051815585945060010162001cdd565b508062001cd7565b013590508880620019b3565b6101a080516005890190525160208120909450915b601f198416851062001d79576001945083601f1981161062001d5e575b505050811b016005840155620019cb565b0135600019600384901b60f8161c1916905588808062001d4d565b8181013583556020948501946001909301920162001d30565b909150600586016101a0515260206101a05120601f840160051c81016020851062001de8575b90849392915b601f830160051c8201811062001dd657505062001996565b6101a051815585945060010162001dbe565b508062001db8565b013590508a8062001954565b6101a0805160048b0190525160208120909450915b601f198416851062001e5a576001945083601f1981161062001e3f575b505050811b0160048601556200196c565b0135600019600384901b60f8161c191690558a808062001e2e565b8181013583556020948501946001909301920162001e11565b909150600488016101a0515260206101a05120601f840160051c81016020851062001ec9575b90849392915b601f830160051c8201811062001eb757505062001937565b6101a051815585945060010162001e9f565b508062001e99565b013590508c80620018f5565b6101a0805160038d0190525160208120909450915b601f198416851062001f3b576001945083601f1981161062001f20575b505050811b0160038801556200190d565b0135600019600384901b60f8161c191690558c808062001f0f565b8181013583556020948501946001909301920162001ef2565b90915060038a016101a0515260206101a05120601f840160051c81016020851062001faa575b90849392915b601f830160051c8201811062001f98575050620018d8565b6101a051815585945060010162001f80565b508062001f7a565b610180516001600160a01b03163b1562000ddb57604051636e258e0760e11b81526101a051610180518290600490829084906001600160a01b03165af18015620009895762002003575b5062001808565b6200200e9062006120565b6101a05162000ddb578a62001ffc565b50611237461462001802565b610180516001600160a01b03163b1562000ddb576040516315c6deb960e31b81526001600160a01b0391821660048201526101a0516101805191929091839160249183918591165af18015620009895715620017f8576200208b9062006120565b6101a05162000ddb578b620017f8565b620020b8915060203d60201162000e8d5762000e7d818362006167565b8c620017e7565b620020ca9062006120565b6101a05162000ddb578b620017b4565b620020e59062006120565b6101a05162000ddb578b6200176f565b60405163a9059cbb60e01b81523360048201526127108a0460248201526101a05161018051602091839160449183916001600160a01b03165af190811562000989576101a051916200217c575b50620017145760405162461bcd60e51b815260206004820152601760248201526000805160206200b48b8339815191526044820152606490fd5b62002199915060203d6020116200114e576200113e818362006167565b8c62002142565b620021bd915060203d6020116200114e576200113e818362006167565b8c62001702565b3462000ddb5761016036600319011262000ddb57620021e262005e7d565b602435906001600160a01b03821682036200097b5760e435916001600160a01b03831683036200097b57610104356001600160a01b03811681036200097b5761012435936001600160a01b03851685036200097b5762ffffff6101443516610144350362000ddb576200226360018060a01b036101a051541633146200663f565b6001600160a01b038416156200257d576001600160a01b03831615620025385761012c60443511620025045760843515620024c85760a435156200248a5760c4351562002453576001600160a01b038116620023fa575b600180546001600160a01b03199081166001600160a01b038088169190911790925560028054821683871617905560443560035560643560045560843560055560a43560065560c43560075560088054821683851617905560098054909116918416919091179055600a547fa2a5dc7dc1a5abd94f6ce111d7021d17b708d5bd93e6ff63894b54064eeadbdd95610160959462ffffff9490939192909190610144358616620023f0576127105b861660a090811b6001600160a01b039586166001600160b81b031993909316831717600a819055604080519987168a5296861660208a0152604435968901969096526064356060890152608435608089015260a4358882015260c43560c089015291841660e0880152919092166101008601526101208501521c16610140820152a16101a05180f35b6101443562002367565b9092916001600160a01b038416156200241657919290620022ba565b60405162461bcd60e51b81526020600482015260156024820152741b1c081c9958da5c1a595b9d081c995c5d5a5c9959605a1b6044820152606490fd5b60405162461bcd60e51b815260206004820152600f60248201526e1d185c99d95d081c995c5d5a5c9959608a1b6044820152606490fd5b60405162461bcd60e51b81526020600482015260166024820152751d9a5c9d1d585b081d1bdad95b881c995c5d5a5c995960521b6044820152606490fd5b60405162461bcd60e51b81526020600482015260146024820152731d9a5c9d1d585b08195d1a081c995c5d5a5c995960621b6044820152606490fd5b60405162461bcd60e51b815260206004820152600c60248201526b0cccaca40e8dede40d0d2ced60a31b6044820152606490fd5b60405162461bcd60e51b815260206004820152601b60248201527f706c6174666f726d20726563697069656e7420726571756972656400000000006044820152606490fd5b60405162461bcd60e51b8152602060048201526016602482015275199959481c9958da5c1a595b9d081c995c5d5a5c995960521b6044820152606490fd5b3462000ddb576101a05136600319011262000ddb576002546040516001600160a01b039091168152602090f35b3462000ddb576101a05136600319011262000ddb5760206040516127108152f35b3462000ddb576101a05136600319011262000ddb576008546040516001600160a01b039091168152602090f35b3462000ddb576101a05136600319011262000ddb576020600354604051908152f35b3462000ddb576101a05136600319011262000ddb576020604051676765c793fa10079d601b1b8152f35b3462000ddb576101a05136600319011262000ddb576020600b54604051908152f35b3462000ddb57604036600319011262000ddb57620026c760243560043562006538565b60405160209160208201926020835281518094526040830193602060408260051b8601019301916101a051955b828710620027025785850386f35b90919293828062002720600193603f198a8203018652885162006034565b9601920196019592919092620026f4565b6200273c3662005ec4565b6101e052506008549697959694959490939192919062002767906001600160a01b031615156200642d565b60095462002780906001600160a01b031615156200646f565b62002794600454620001c3813411620064b3565b956200279f62006679565b6040518781527fac9d85dc25663b5cc567afaed6bb7823377f8f9f4164bc741a6ed341c04a8ec760203392a288156200127c57801562001245576107d06101e051116200120a57600254604051906001600160a01b03166001600160401b0361180883019081119083111762000ab257819061180862009c83833960e0611808830181815262002837916200150191018e8c62006780565b90676765c793fa10079d601b1b604061180885010152306060611808850101523360806118088501015260a061180884010152603260c06118088401015203906101a051f061020052610200511562000989576002546001600160a01b0316331496620028a488620067dc565b6101c052600154600354600554600654600754600854600a54604051966001600160a01b0390811696919592169391906001600160401b0361346489019081119089111762000ab25762ffffff966134646200681f8a39610200516001600160a01b039081166134648b0190815230602082015260408101929092526060820192909252608081019290925260a08281019390935260c082019390935260e08101939093526101c05182166101008401529083166101208301529190911c919091166101408201528190036101600191f097881562000989576101e051676765c793fa10079d601b1b0297676765c793fa10079d601b1b89046101e05103620011b657676765c793fa10079d601b1b6127108a04810311620011b65760405163a9059cbb60e01b81526001600160a01b038b811660048301526127108b04676765c793fa10079d601b1b0360248301526101a0516102005160209284926044928492165af190811562000989576101a05191620034b8575b5015620011565761271089046200340d575b6001600160a01b038a163b1562000ddb57604051639556483760e01b81526127108a04676765c793fa10079d601b1b0360048201528a816024816101a051936101a0519060018060a01b03165af180156200098957620033f2575b506001600160a01b038a163b1562000ddb576040516309485dc960e21b81528a816004816101a051936101a0519060018060a01b03165af180156200098957620033d7575b506040516306b456ef60e21b81526020816004816001600160a01b038f165afa90811562000989576101a05191620033b3575b506001600160a01b03811662003342575b5080159062003336575b620032ca575b610200516101a080516001600160a01b039283169052600c602052516040902080546001600160a01b031916918b16919091179055600b5499600160401b8b101562000ab25760018b01600b5562002b7a8b620061da565b505062002b878b620061da565b506102005181546001600160a01b03199081166001600160a01b039283161783556001830180548216928e169290921790915560028201805490911633179055976001600160401b03821162000ab257819062002be860038b01546200622c565b601f81116200326c575b506101a05190601f8311600114620031f5576101a05192620031e9575b50508160011b916000199060031b1c19161760038801555b6001600160401b03821162000ab257819062002c4760048901546200622c565b601f81116200318b575b506101a05190601f831160011462003114576101a0519262003108575b50508160011b916000199060031b1c19161760048601555b6001600160401b03821162000ab257819062002ca660058701546200622c565b601f8111620030aa575b506101a05190601f831160011462003033576101a0519262003027575b50508160011b916000199060031b1c19161760058401555b6001600160401b03821162000ab257819062002d0560068501546200622c565b601f811162002fc9575b506101a05190601f831160011462002f52576101a0519262002f46575b50508160011b916000199060031b1c19161760068201555b676765c793fa10079d601b1b60078201556127108204600882015560094291015562ffffff60035460075460018060a01b036008541690600a54926127106040519660018060a01b0389168852676765c793fa10079d601b1b60208901520460408701526060860152608085015260a084015260018060a01b036101c0511660c084015260018060a01b03811660e084015260a01c1661010082015260018060a01b03610200511690836000805160206200b4ab8339815191526101203393a46040516317773ebb60e01b815261020051602090829060049082906001600160a01b03165afa90811562000989576101a0519162002f0e575b5060405163116e689f60e11b815261020051602090829060049082906001600160a01b03165afa90811562000989576101a0519162002ed6575b50604051916032835260208301526040820152826000805160206200b4cb833981519152606060018060a01b03610200511693a360408051610200519381526001600160a01b0393841660208201529190921691810191909152606090f35b90506020813d60201162002f05575b8162002ef46020938362006167565b810103126200097b57518462002e77565b3d915062002ee5565b90506020813d60201162002f3d575b8162002f2c6020938362006167565b810103126200097b57518362002e3d565b3d915062002f1d565b01359050868062002d2c565b6101a080516006870190525160208120909450915b601f198416851062002fb0576001945083601f1981161062002f95575b505050811b01600682015562002d44565b0135600019600384901b60f8161c1916905586808062002f84565b8181013583556020948501946001909301920162002f67565b909150600684016101a0515260206101a05120601f840160051c8101602085106200301f575b90849392915b601f830160051c820181106200300d57505062002d0f565b6101a051815585945060010162002ff5565b508062002fef565b01359050888062002ccd565b6101a080516005890190525160208120909450915b601f198416851062003091576001945083601f1981161062003076575b505050811b01600584015562002ce5565b0135600019600384901b60f8161c1916905588808062003065565b8181013583556020948501946001909301920162003048565b909150600586016101a0515260206101a05120601f840160051c81016020851062003100575b90849392915b601f830160051c82018110620030ee57505062002cb0565b6101a0518155859450600101620030d6565b5080620030d0565b013590508a8062002c6e565b6101a0805160048b0190525160208120909450915b601f198416851062003172576001945083601f1981161062003157575b505050811b01600486015562002c86565b0135600019600384901b60f8161c191690558a808062003146565b8181013583556020948501946001909301920162003129565b909150600488016101a0515260206101a05120601f840160051c810160208510620031e1575b90849392915b601f830160051c82018110620031cf57505062002c51565b6101a0518155859450600101620031b7565b5080620031b1565b013590508c8062002c0f565b6101a0805160038d0190525160208120909450915b601f198416851062003253576001945083601f1981161062003238575b505050811b01600388015562002c27565b0135600019600384901b60f8161c191690558c808062003227565b818101358355602094850194600190930192016200320a565b90915060038a016101a0515260206101a05120601f840160051c810160208510620032c2575b90849392915b601f830160051c82018110620032b057505062002bf2565b6101a051815585945060010162003298565b508062003292565b610200516001600160a01b03163b1562000ddb57604051636e258e0760e11b81526101a051610200518290600490829084906001600160a01b03165af1801562000989576200331b575b5062002b22565b620033269062006120565b6101a05162000ddb578a62003314565b50611237461462002b1c565b610200516001600160a01b03163b1562000ddb576040516315c6deb960e31b81526001600160a01b0391821660048201526101a0516102005191929091839160249183918591165af1801562000989571562002b1257620033a39062006120565b6101a05162000ddb578b62002b12565b620033d0915060203d60201162000e8d5762000e7d818362006167565b8c62002b01565b620033e29062006120565b6101a05162000ddb578b62002ace565b620033fd9062006120565b6101a05162000ddb578b62002a89565b60405163a9059cbb60e01b81523360048201526127108a0460248201526101a05161020051602091839160449183916001600160a01b03165af190811562000989576101a0519162003494575b5062002a2e5760405162461bcd60e51b815260206004820152601760248201526000805160206200b48b8339815191526044820152606490fd5b620034b1915060203d6020116200114e576200113e818362006167565b8c6200345a565b620034d5915060203d6020116200114e576200113e818362006167565b8c62002a1c565b3462000ddb576101a05136600319011262000ddb576020600654604051908152f35b3462000ddb576101a05136600319011262000ddb576101a051546040516001600160a01b039091168152602090f35b3462000ddb576101a05136600319011262000ddb576020600454604051908152f35b3462000ddb576101a05136600319011262000ddb5760206040516112378152f35b3462000ddb576101a05136600319011262000ddb576020600754604051908152f35b6200359d3662005ec4565b610260525061022097909752600454949692959394909190620035c890620001c334821115620063bc565b95861595868062004538575b871562004510575b50620035e762006679565b6040518881527fb610ea5b60c2e916119ad74eb6f1c4e02b296189e982f615f38630738be9786560203392a285156200127c57801562001245576107d061026051116200120a57600254604051906001600160a01b03166001600160401b0361180883019081119083111762000ab257819061180862009c83833960e06118088301526200369e8c856200368760e06118088701018d6102205162006780565b916118088601830360206118088801015262006780565b90676765c793fa10079d601b1b604061180885010152306060611808850101523360806118088501015260a061180884010152603260c06118088401015203906101a051f061028052610280511562000989576002546001600160a01b03163314976200370b89620067dc565b61024052600154600354600554600654600754600854600a54604051966001600160a01b0390811696919592169391906001600160401b0361346489019081119089111762000ab25762ffffff966134646200681f8a39610280516001600160a01b039081166134648b0190815230602082015260408101929092526060820192909252608081019290925260a08281019390935260c082019390935260e08101939093526102405182166101008401529083166101208301529190911c919091166101408201528190036101600191f0978815620009895761026051676765c793fa10079d601b1b0297676765c793fa10079d601b1b89046102605103620011b657676765c793fa10079d601b1b6127108a04810311620011b65760405163a9059cbb60e01b81526001600160a01b038b811660048301526127108b04676765c793fa10079d601b1b0360248301526101a0516102805160209284926044928492165af190811562000989576101a05191620044ec575b50156200115657612710890462004441575b6001600160a01b038a163b1562000ddb57604051639556483760e01b81526127108a04676765c793fa10079d601b1b0360048201528a816024816101a051936101a0519060018060a01b03165af18015620009895762004426575b50806200425857506001600160a01b0389163b1562000ddb57604051631c7031d760e31b81526101a05181600481836001600160a01b038f165af1801562000989576200423d575b506040516306b456ef60e21b81526020816004816001600160a01b038e165afa90811562000989576101a0519162004219575b506001600160a01b038116620041a8575b508015906200419c575b62004130575b610280516101a080516001600160a01b039283169052600c602052516040902080546001600160a01b031916918a16919091179055600b5498600160401b8a101562000ab25760018a01600b55620039e48a620061da565b5050620039f18a620061da565b506102805181546001600160a01b03199081166001600160a01b039283161783556001830180548216928d169290921790915560028201805490911633179055966001600160401b03811162000ab25762003a5060038901546200622c565b601f8111620040de575b50806101a051601f82116001146200405f576101a0519162004050575b508160011b916000199060031b1c19161760038801555b6001600160401b03821162000ab257819062003aae60048901546200622c565b601f811162003ff2575b506101a05190601f831160011462003f7b576101a0519262003f6f575b50508160011b916000199060031b1c19161760048601555b6001600160401b03821162000ab257819062003b0d60058701546200622c565b601f811162003f11575b506101a05190601f831160011462003e9a576101a0519262003e8e575b50508160011b916000199060031b1c19161760058401555b6001600160401b03821162000ab257819062003b6c60068501546200622c565b601f811162003e30575b506101a05190601f831160011462003db9576101a0519262003dad575b50508160011b916000199060031b1c19161760068201555b676765c793fa10079d601b1b60078201556127108204600882015560094291015562ffffff60035460075460018060a01b036008541690600a54926127106040519660018060a01b0389168852676765c793fa10079d601b1b60208901520460408701526060860152608085015260a084015260018060a01b03610240511660c084015260018060a01b03811660e084015260a01c1661010082015260018060a01b03610280511690836000805160206200b4ab8339815191526101203393a46040516317773ebb60e01b815261028051602090829060049082906001600160a01b03165afa90811562000989576101a0519162003d75575b5060405163116e689f60e11b815261028051602090829060049082906001600160a01b03165afa90811562000989576101a0519162003d3d575b50604051916032835260208301526040820152826000805160206200b4cb833981519152606060018060a01b03610280511693a360408051610280519381526001600160a01b0393841660208201529190921691810191909152606090f35b90506020813d60201162003d6c575b8162003d5b6020938362006167565b810103126200097b57518462003cde565b3d915062003d4c565b90506020813d60201162003da4575b8162003d936020938362006167565b810103126200097b57518362003ca4565b3d915062003d84565b01359050868062003b93565b6101a080516006870190525160208120909450915b601f198416851062003e17576001945083601f1981161062003dfc575b505050811b01600682015562003bab565b0135600019600384901b60f8161c1916905586808062003deb565b8181013583556020948501946001909301920162003dce565b909150600684016101a0515260206101a05120601f840160051c81016020851062003e86575b90849392915b601f830160051c8201811062003e7457505062003b76565b6101a051815585945060010162003e5c565b508062003e56565b01359050888062003b34565b6101a080516005890190525160208120909450915b601f198416851062003ef8576001945083601f1981161062003edd575b505050811b01600584015562003b4c565b0135600019600384901b60f8161c1916905588808062003ecc565b8181013583556020948501946001909301920162003eaf565b909150600586016101a0515260206101a05120601f840160051c81016020851062003f67575b90849392915b601f830160051c8201811062003f5557505062003b17565b6101a051815585945060010162003f3d565b508062003f37565b013590508a8062003ad5565b6101a0805160048b0190525160208120909450915b601f198416851062003fd9576001945083601f1981161062003fbe575b505050811b01600486015562003aed565b0135600019600384901b60f8161c191690558a808062003fad565b8181013583556020948501946001909301920162003f90565b909150600488016101a0515260206101a05120601f840160051c81016020851062004048575b90849392915b601f830160051c820181106200403657505062003ab8565b6101a05181558594506001016200401e565b508062004018565b90506102205101358c62003a77565b9150600389016101a0515260206101a051206101a051925b601f1983168410620040c2576001935082601f19811610620040a4575b5050811b01600388015562003a8e565b610220510135600019600384901b60f8161c191690558c8062004094565b6102205181013582556020938401936001909201910162004077565b600389016101a0515260206101a05120601f830160051c81016020841062004128575b601f830160051c820181106200411957505062003a5a565b6101a051815560010162004101565b508062004101565b610280516001600160a01b03163b1562000ddb57604051636e258e0760e11b81526101a051610280518290600490829084906001600160a01b03165af18015620009895762004181575b506200398c565b6200418c9062006120565b6101a05162000ddb57896200417a565b50611237461462003986565b610280516001600160a01b03163b1562000ddb576040516315c6deb960e31b81526001600160a01b0391821660048201526101a0516102805191929091839160249183918591165af180156200098957156200397c57620042099062006120565b6101a05162000ddb578a6200397c565b62004236915060203d60201162000e8d5762000e7d818362006167565b8b6200396b565b620042489062006120565b6101a05162000ddb578a62003938565b6200426457506200398c565b6001600160a01b0389163b1562000ddb5760405162e2c3fd60e11b81526101a05181600481836001600160a01b038f165af1801562000989576200440b575b506040516306b456ef60e21b81526020816004816001600160a01b038e165afa90811562000989576101a05191620043e7575b506001600160a01b03811662004376575b508015906200436a575b620042fe575b896200417a565b610280516001600160a01b03163b1562000ddb57604051636e258e0760e11b81526101a051610280518290600490829084906001600160a01b03165af1801562000989576200434f575b50620042f7565b6200435a9062006120565b6101a05162000ddb578962004348565b506112374614620042f1565b610280516001600160a01b03163b1562000ddb576040516315c6deb960e31b81526001600160a01b0391821660048201526101a0516102805191929091839160249183918591165af18015620009895715620042e757620043d79062006120565b6101a05162000ddb578a620042e7565b62004404915060203d60201162000e8d5762000e7d818362006167565b8b620042d6565b620044169062006120565b6101a05162000ddb578a620042a3565b620044319062006120565b6101a05162000ddb578b620038f0565b60405163a9059cbb60e01b81523360048201526127108a0460248201526101a05161028051602091839160449183916001600160a01b03165af190811562000989576101a05191620044c8575b50620038955760405162461bcd60e51b815260206004820152601760248201526000805160206200b48b8339815191526044820152606490fd5b620044e5915060203d6020116200114e576200113e818362006167565b8c6200448e565b62004509915060203d6020116200114e576200113e818362006167565b8c62003883565b6200453190620012de60018060a01b03620012d2816008541615156200642d565b89620035dc565b600a546001600160a01b031615159750620035d4565b3462000ddb57602036600319011262000ddb576004356200456e62006189565b50600b54811015620045a957620045946200458d6200094892620061da565b506200631a565b60405191829160208352602083019062006034565b60405162461bcd60e51b81526020600482015260116024820152701a5b9d985b1a59081b185d5b98da081a59607a1b6044820152606490fd5b3462000ddb576101a05136600319011262000ddb57602060405160328152f35b3462000ddb576101a05136600319011262000ddb576001546040516001600160a01b039091168152602090f35b6200463a3662005f59565b6102a0526004549899979890979592949291506200465a903414620060dd565b6200466462006679565b88156200127c57851562001245576107d087116200120a576103e86102a05111620011d057600254604051906001600160a01b03166001600160401b0361180883019081119083111762000ab257819061180862009c83833960e06118088301818152620046f291620046da91018e8b62006780565b611808840181036020611808860101528a8d62006780565b90676765c793fa10079d601b1b604061180885010152306060611808850101523360806118088501015260a0611808840101526102a05160c06118088401015203906101a051f06102c0526102c0511562000989576200475e60018060a01b03600254163314620067dc565b9560018060a01b03600154166003549060055460065460075460018060a01b036008541691600a549360405196876134648101106001600160401b036134648a01111762000ab25762ffffff966134646200681f8a396102c0516001600160a01b039081166134648b0190815230602082015260408101929092526060820192909252608081019290925260a08281019390935260c082019390935260e08101939093528c82166101008401529083166101208301529190911c919091166101408201526101a05190829003610160019190f0988915620009895788676765c793fa10079d601b1b0298676765c793fa10079d601b1b8a0403620011b657676765c793fa10079d601b1b6127108a04810311620011b65760405163a9059cbb60e01b81526001600160a01b038b811660048301526127108b04676765c793fa10079d601b1b0360248301526101a0516102c05160209284926044928492165af190811562000989576101a05191620051ae575b50156200115657612710890462005103575b6001600160a01b038a163b1562000ddb57604051639556483760e01b81526127108a04676765c793fa10079d601b1b0360048201528a816024816101a051936101a0519060018060a01b03165af180156200098957620050e8575b506102c0516101a080516001600160a01b039283169052600c602052516040902080546001600160a01b031916918c16919091179055600b549a600160401b8c101562000ab25760018c01600b55620049978c620061da565b5050620049a48c620061da565b506102c05181546001600160a01b03199081166001600160a01b039283161783556001830180548216928f169290921790915560028201805490911633179055976001600160401b03821162000ab257819062004a0560038b01546200622c565b601f81116200508a575b506101a05190601f831160011462005013576101a0519262005007575b50508160011b916000199060031b1c19161760038801555b6001600160401b03821162000ab257819062004a6460048901546200622c565b601f811162004fa9575b506101a05190601f831160011462004f32576101a0519262004f26575b50508160011b916000199060031b1c19161760048601555b6001600160401b03821162000ab257819062004ac360058701546200622c565b601f811162004ec8575b506101a05190601f831160011462004e51576101a0519262004e45575b50508160011b916000199060031b1c19161760058401555b6001600160401b03821162000ab25762004b2060068401546200622c565b601f811162004df3575b506101a05190601f831160011462004d725791809162ffffff9594936101a0519262004d66575b50508160011b916000199060031b1c19161760068201555b676765c793fa10079d601b1b6007820155612710840460088201556009429101556003549060075460018060a01b036008541690600a54936127106040519760018060a01b038a168952676765c793fa10079d601b1b60208a01520460408801526060870152608086015260a085015260018060a01b031660c084015260018060a01b03811660e084015260a01c1661010082015260018060a01b036102c0511690836000805160206200b4ab8339815191526101203393a46040516317773ebb60e01b81526102c051602090829060049082906001600160a01b03165afa90811562000989576101a0519162004d2e575b5060405163116e689f60e11b81526102c051602090829060049082906001600160a01b03165afa90811562000989576101a0519162004cf6575b50604051916102a051835260208301526040820152826000805160206200b4cb833981519152606060018060a01b036102c0511693a3604080516102c0519381526001600160a01b0393841660208201529190921691810191909152606090f35b90506020813d60201162004d25575b8162004d146020938362006167565b810103126200097b57518462004c95565b3d915062004d05565b90506020813d60201162004d5d575b8162004d4c6020938362006167565b810103126200097b57518362004c5b565b3d915062004d3d565b01359050888062004b51565b600684016101a0515260206101a05120916101a0515b601f198516811062004dda575091839160019362ffffff979695601f1981161062004dbf575b505050811b01600682015562004b69565b0135600019600384901b60f8161c1916905588808062004dae565b9092602060018192868601358155019401910162004d88565b600684016101a0515260206101a05120601f840160051c81016020851062004e3d575b601f830160051c8201811062004e2e57505062004b2a565b6101a051815560010162004e16565b508062004e16565b01359050898062004aea565b6101a080516005890190525160208120909450915b601f198416851062004eaf576001945083601f1981161062004e94575b505050811b01600584015562004b02565b0135600019600384901b60f8161c1916905589808062004e83565b8181013583556020948501946001909301920162004e66565b909150600586016101a0515260206101a05120601f840160051c81016020851062004f1e575b90849392915b601f830160051c8201811062004f0c57505062004acd565b6101a051815585945060010162004ef4565b508062004eee565b013590508b8062004a8b565b6101a0805160048b0190525160208120909450915b601f198416851062004f90576001945083601f1981161062004f75575b505050811b01600486015562004aa3565b0135600019600384901b60f8161c191690558b808062004f64565b8181013583556020948501946001909301920162004f47565b909150600488016101a0515260206101a05120601f840160051c81016020851062004fff575b90849392915b601f830160051c8201811062004fed57505062004a6e565b6101a051815585945060010162004fd5565b508062004fcf565b013590508d8062004a2c565b6101a0805160038d0190525160208120909450915b601f198416851062005071576001945083601f1981161062005056575b505050811b01600388015562004a44565b0135600019600384901b60f8161c191690558d808062005045565b8181013583556020948501946001909301920162005028565b90915060038a016101a0515260206101a05120601f840160051c810160208510620050e0575b90849392915b601f830160051c82018110620050ce57505062004a0f565b6101a0518155859450600101620050b6565b5080620050b0565b620050f39062006120565b6101a05162000ddb578b6200493e565b60405163a9059cbb60e01b81523360048201526127108a0460248201526101a0516102c051602091839160449183916001600160a01b03165af190811562000989576101a051916200518a575b50620048e35760405162461bcd60e51b815260206004820152601760248201526000805160206200b48b8339815191526044820152606490fd5b620051a7915060203d6020116200114e576200113e818362006167565b8c62005150565b620051cb915060203d6020116200114e576200113e818362006167565b8c620048d1565b3462000ddb576101a05136600319011262000ddb5760206040516103e88152f35b3462000ddb576101a05136600319011262000ddb576020600554604051908152f35b3462000ddb576101a05136600319011262000ddb57602062ffffff600a5460a01c16604051908152f35b3462000ddb576101a05136600319011262000ddb576009546040516001600160a01b039091168152602090f35b620052773662005ec4565b9697989490506200528f6004949294543414620060dd565b6200529962006679565b88156200127c57851562001245576107d087116200120a57600254604051906001600160a01b03166001600160401b0361180883019081119083111762000ab257819061180862009c83833960e061180883018181526200530291620046da91018e8b62006780565b90676765c793fa10079d601b1b604061180885010152306060611808850101523360806118088501015260a061180884010152603260c06118088401015203906101a051f06102e0526102e0511562000989576200536c60018060a01b03600254163314620067dc565b9560018060a01b03600154166003549060055460065460075460018060a01b036008541691600a549360405196876134648101106001600160401b036134648a01111762000ab25762ffffff966134646200681f8a396102e0516001600160a01b039081166134648b0190815230602082015260408101929092526060820192909252608081019290925260a08281019390935260c082019390935260e08101939093528c82166101008401529083166101208301529190911c919091166101408201526101a05190829003610160019190f09889156200098957676765c793fa10079d601b1b898102048903620011b657676765c793fa10079d601b1b6127108a820204810311620011b65760405163a9059cbb60e01b81526001600160a01b038b81166004830152612710676765c793fa10079d601b1b8c810291909104900360248301526101a0516102e05160209284926044928492165af190811562000989576101a0519162005dee575b5015620011565761271089676765c793fa10079d601b1b020462005d36575b6001600160a01b038a163b1562000ddb57604051639556483760e01b81526127108a676765c793fa10079d601b1b0204676765c793fa10079d601b1b0360048201528a816024816101a051936101a0519060018060a01b03165af18015620009895762005d24575b506102e0516101a080516001600160a01b039283169052600c602052516040902080546001600160a01b031916918c16919091179055600b549a600160401b8c101562000ab25760018c01600b55620055bb8c620061da565b5050620055c88c620061da565b506102e05181546001600160a01b03199081166001600160a01b039283161783556001830180548216928f169290921790915560028201805490911633179055976001600160401b03821162000ab25781906200562960038b01546200622c565b601f811162005cc6575b506101a05190601f831160011462005c4f576101a0519262005c43575b50508160011b916000199060031b1c19161760038801555b6001600160401b03821162000ab25781906200568860048901546200622c565b601f811162005be5575b506101a05190601f831160011462005b6e576101a0519262005b62575b50508160011b916000199060031b1c19161760048601555b6001600160401b03821162000ab2578190620056e760058701546200622c565b601f811162005b04575b506101a05190601f831160011462005a8d576101a0519262005a81575b50508160011b916000199060031b1c19161760058401555b6001600160401b03821162000ab2576200574460068401546200622c565b601f811162005a2f575b506101a05190601f8311600114620059ae5791809162ffffff9594936101a05192620059a2575b50508160011b916000199060031b1c19161760068201555b676765c793fa10079d601b1b600782015561271084676765c793fa10079d601b1b020460088201556009429101556003549060075460018060a01b036008541690600a54936127106040519760018060a01b038a168952676765c793fa10079d601b1b60208a0152676765c793fa10079d601b1b020460408801526060870152608086015260a085015260018060a01b031660c084015260018060a01b03811660e084015260a01c1661010082015260018060a01b036102e0511690836000805160206200b4ab8339815191526101203393a46040516317773ebb60e01b81526102e051602090829060049082906001600160a01b03165afa90811562000989576101a051916200596a575b5060405163116e689f60e11b81526102e051602090829060049082906001600160a01b03165afa90811562000989576101a0519162005932575b50604051916032835260208301526040820152826000805160206200b4cb833981519152606060018060a01b036102e0511693a3604080516102e0519381526001600160a01b0393841660208201529190921691810191909152606090f35b90506020813d60201162005961575b81620059506020938362006167565b810103126200097b575184620058d3565b3d915062005941565b90506020813d60201162005999575b81620059886020938362006167565b810103126200097b57518362005899565b3d915062005979565b01359050888062005775565b600684016101a0515260206101a05120916101a0515b601f198516811062005a16575091839160019362ffffff979695601f19811610620059fb575b505050811b0160068201556200578d565b0135600019600384901b60f8161c19169055888080620059ea565b90926020600181928686013581550194019101620059c4565b600684016101a0515260206101a05120601f840160051c81016020851062005a79575b601f830160051c8201811062005a6a5750506200574e565b6101a051815560010162005a52565b508062005a52565b0135905089806200570e565b6101a080516005890190525160208120909450915b601f198416851062005aeb576001945083601f1981161062005ad0575b505050811b01600584015562005726565b0135600019600384901b60f8161c1916905589808062005abf565b8181013583556020948501946001909301920162005aa2565b909150600586016101a0515260206101a05120601f840160051c81016020851062005b5a575b90849392915b601f830160051c8201811062005b48575050620056f1565b6101a051815585945060010162005b30565b508062005b2a565b013590508b80620056af565b6101a0805160048b0190525160208120909450915b601f198416851062005bcc576001945083601f1981161062005bb1575b505050811b016004860155620056c7565b0135600019600384901b60f8161c191690558b808062005ba0565b8181013583556020948501946001909301920162005b83565b909150600488016101a0515260206101a05120601f840160051c81016020851062005c3b575b90849392915b601f830160051c8201811062005c2957505062005692565b6101a051815585945060010162005c11565b508062005c0b565b013590508d8062005650565b6101a0805160038d0190525160208120909450915b601f198416851062005cad576001945083601f1981161062005c92575b505050811b01600388015562005668565b0135600019600384901b60f8161c191690558d808062005c81565b8181013583556020948501946001909301920162005c64565b90915060038a016101a0515260206101a05120601f840160051c81016020851062005d1c575b90849392915b601f830160051c8201811062005d0a57505062005633565b6101a051815585945060010162005cf2565b508062005cec565b62005d2f9062006120565b8b62005562565b60405163a9059cbb60e01b8152336004820152612710676765c793fa10079d601b1b8b020460248201526101a0516102e051602091839160449183916001600160a01b03165af190811562000989576101a0519162005dca575b50620054fa5760405162461bcd60e51b815260206004820152601760248201526000805160206200b48b8339815191526044820152606490fd5b62005de7915060203d6020116200114e576200113e818362006167565b8c62005d90565b62005e0b915060203d6020116200114e576200113e818362006167565b8c620054db565b3462000ddb57602036600319011262000ddb5760206001600160a01b038062005e3a62005e7d565b166101a05152600c825260406101a051205416604051908152f35b3462000ddb576101a05136600319011262000ddb57600a546001600160a01b03168152602090f35b600435906001600160a01b03821682036200097b57565b9181601f840112156200097b578235916001600160401b0383116200097b57602083818601950101116200097b57565b60c06003198201126200097b576001600160401b03906004358281116200097b578162005ef49160040162005e94565b939093926024358181116200097b578362005f129160040162005e94565b939093926044358381116200097b578262005f309160040162005e94565b939093926064359182116200097b5762005f4d9160040162005e94565b90916084359060a43590565b60e06003198201126200097b576001600160401b03906004358281116200097b578162005f899160040162005e94565b939093926024358181116200097b578362005fa79160040162005e94565b939093926044358381116200097b578262005fc59160040162005e94565b939093926064359182116200097b5762005fe29160040162005e94565b90916084359060a4359060c43590565b919082519283825260005b8481106200601f575050826000602080949584010152601f8019910116010190565b60208183018101518483018201520162005ffd565b90620060ba620060a7620060946200608161014060018060a01b03808851168752806020890151166020880152604088015116604087015260608701519080606088015286019062005ff2565b6080860151858203608087015262005ff2565b60a085015184820360a086015262005ff2565b60c084015183820360c085015262005ff2565b9160e081015160e083015261010080820151908301526101208091015191015290565b15620060e557565b60405162461bcd60e51b81526020600482015260136024820152720d8c2eadcc6d040cccaca40dad2e6dac2e8c6d606b1b6044820152606490fd5b6001600160401b0381116200613457604052565b634e487b7160e01b600052604160045260246000fd5b61014081019081106001600160401b038211176200613457604052565b90601f801991011681019081106001600160401b038211176200613457604052565b6040519062006198826200614a565b8161012060009182815282602082015282604082015260608082015260606080820152606060a0820152606060c08201528260e0820152826101008201520152565b600b548110156200621657600a90600b600052027f0175b7a638427703f0dbe7bb9bbf987a2551717b34e79f33b5b1008d1fa01db90190600090565b634e487b7160e01b600052603260045260246000fd5b90600182811c921680156200625e575b60208310146200624857565b634e487b7160e01b600052602260045260246000fd5b91607f16916200623c565b906040519182600082546200627e816200622c565b90818452602094600191600181169081600014620062f65750600114620062b3575b505050620062b19250038362006167565b565b600090815285812095935091905b818310620062dd575050620062b19350820101388080620062a0565b85548884018501529485019487945091830191620062c1565b92505050620062b194925060ff191682840152151560051b820101388080620062a0565b9060405162006329816200614a565b6101206009829460018060a01b038082541685528060018301541660208601526002820154166040850152620063626003820162006269565b6060850152620063756004820162006269565b6080850152620063886005820162006269565b60a08501526200639b6006820162006269565b60c0850152600781015460e085015260088101546101008501520154910152565b15620063c457565b60405162461bcd60e51b815260206004820152601760248201527f696e73756666696369656e74206c61756e6368206665650000000000000000006044820152606490fd5b919082039182116200641757565b634e487b7160e01b600052601160045260246000fd5b156200643557565b60405162461bcd60e51b815260206004820152601260248201527119195e081c9bdd5d195c881b9bdd081cd95d60721b6044820152606490fd5b156200647757565b60405162461bcd60e51b81526020600482015260146024820152731b1c081c9958da5c1a595b9d081b9bdd081cd95d60621b6044820152606490fd5b15620064bb57565b60405162461bcd60e51b815260206004820152602260248201527f696e73756666696369656e742065746820666f72206665652b6c697175696469604482015261747960f01b6064820152608490fd5b6001600160401b038111620061345760051b60200190565b8051821015620062165760209160051b010190565b600b54929183821015620066175781019283821162006417578084116200660e575b5062006567818462006409565b9262006573846200650b565b9362006583604051958662006167565b80855262006594601f19916200650b565b0160005b818110620065f45750508360005b828410620065b45750505050565b620065c36200458d85620061da565b620065cf828462006523565b52620065dc818362006523565b506000198114620064175760019384019301620065a6565b6020906200660162006189565b8282890101520162006598565b9250386200655a565b50509050604051602081018181106001600160401b0382111762006134576040526000815290565b156200664757565b60405162461bcd60e51b815260206004820152600a60248201526937b7363c9037bbb732b960b11b6044820152606490fd5b6004546200668a81341015620063bc565b80156200677d5760008080808060018060a01b039586600254165af1903d1562006776573d906001600160401b038211620067625760405191620066d9601f8201601f19166020018462006167565b825260203d92013e5b156200671d57600254166004546040519081527f4cef2d27cdf43d743c3c66401182e93989938e77d1be10f3ab9e6afdf799f83960203392a3565b60405162461bcd60e51b815260206004820152601a60248201527f6c61756e636820666565207472616e73666572206661696c65640000000000006044820152606490fd5b634e487b7160e01b81526041600452602490fd5b50620066e2565b50565b908060209392818452848401376000828201840152601f01601f1916010190565b908160209103126200097b575180151581036200097b5790565b908160209103126200097b57516001600160a01b03811681036200097b5790565b6008546001600160a01b039190821615620068165761123746146200680e5762006807575061dead90565b6009541690565b505061dead90565b50600954169056fe601f6200346438819003918201601f19166101009081019290916001600160401b0384118385101762000470578161016092849260409687528339810103126200046b576200004e8162000486565b60206200005d81840162000486565b6200006a85850162000486565b91606085015160808601519160a087015160c0880151906200008f60e08a0162000486565b946200009f6101008b0162000486565b94610140620000b26101208d0162000486565b9b01519762ffffff89169a8b8a036200046b576001600160a01b039a818c161562000435578b831615620003fd578b16988915620003b85761012c8411620003845784156200033f578515620002fa578615620002c357908b8099989796959493921696876200025f575b5060a05260805260018060a01b03199788600054161760005560015560c05260e0526004558360055416176005551690600654161760065560075492156000146200025957506127105b62ffffff60a01b60a09190911b1692166001600160b81b03199190911617176007553460025551612fc890816200049c823960805181818161027201528181610913015281816109dc01528181610b9101528181610f04015281816110260152611188015260a0518181816101e0015281816104cb0152818161071901528181610a3b0152818161125e0152818161210b015281816126880152818161276601528181612c1f01528181612df10152612f17015260c051818181610d0a01528181611b280152818161253d01526125cb015260e051818181610e7101528181611af50152818161257201526125fc0152f35b62000167565b9091929394959697988916156200028057908b98979695949392916200011d565b6064908f519062461bcd60e51b82526004820152601560248201527f6c7020726563697069656e7420726571756972656400000000000000000000006044820152fd5b508d5162461bcd60e51b815260048101889052600f60248201526e1d185c99d95d081c995c5d5a5c9959608a1b6044820152606490fd5b508d5162461bcd60e51b815260048101889052601660248201527f7669727475616c20746f6b656e207265717569726564000000000000000000006044820152606490fd5b508d5162461bcd60e51b815260048101889052601460248201527f7669727475616c206574682072657175697265640000000000000000000000006044820152606490fd5b508d5162461bcd60e51b815260048101889052600c60248201526b0cccaca40e8dede40d0d2ced60a31b6044820152606490fd5b508d5162461bcd60e51b815260048101889052601660248201527f66656520726563697069656e74207265717569726564000000000000000000006044820152606490fd5b508d5162461bcd60e51b815260048101889052601060248201526f199858dd1bdc9e481c995c5d5a5c995960821b6044820152606490fd5b508d5162461bcd60e51b815260048101889052600e60248201526d1d1bdad95b881c995c5d5a5c995960921b6044820152606490fd5b600080fd5b634e487b7160e01b600052604160045260246000fd5b51906001600160a01b03821682036200046b5756fe6080604052600436101561001257600080fd5b60003560e01c806301c587fa146111715780630758d924146111485780630cc4574d146111225780631ad15bbc146110f957806324a9d853146110db578063252177241461100f5780632760eca114610ff45780632a2c697214610ed85780632b852de214610eba578063334041a614610e94578063343ee3b714610e5957806339406c5014610e30578063398482d814610e0d5780633de1d8a414610de75780634329742d14610d9d578063452e68dd14610d745780634690484014610d4b5780634beb394c14610d2d57806352b86d2b14610cf25780637f544e4914610cd45780638c575aa314610b5757806395564837146109b8578063a64190c41461098e578063c1abbe0814610968578063c446795a14610942578063c45a0155146108fd578063cbcb3171146108df578063d62ccb3f146108c1578063d79875eb1461063e578063d96a094a146103d5578063e1a45218146103b8578063e3818eb814610253578063e7c2b7721461022d578063f95a02d01461020f578063fc0c546a146101ca5763fccc2813146101a857600080fd5b346101c55760003660031901126101c557602060405161dead8152f35b600080fd5b346101c55760003660031901126101c5576040517f00000000000000000000000000000000000000000000000000000000000000006001600160a01b03168152602090f35b346101c55760003660031901126101c5576020600454604051908152f35b346101c55760003660031901126101c557602060ff60075460c01c166040519015158152f35b346101c55760003660031901126101c5576001600160a01b03610299337f0000000000000000000000000000000000000000000000000000000000000000831614611893565b6007906103897f5cfc9ea0e95e86463d8dacd6c53993376a8afab5437e80a8a98d57d7a8b0f2348354926102d360ff8560e01c16156118ce565b60ff60e01b19938416600160e01b178086556103149060ff906102fb60b882901c8316611907565b61030a828260c01c1615611945565b60c81c1615611985565b61032160025415156119c2565b61033081600554161515611f27565b6103393061273d565b50885462ffffff60c81b1916600160c81b178955600880546001600160a01b0319169190951690811790945560408051938452602084019290925290820152426060820152909281906080820190565b0390a2610394612b46565b90506004548110156103a9575b508154169055005b6103b290612237565b826103a1565b346101c55760003660031901126101c55760206040516127108152f35b6020806003193601126101c5576007546103f560ff8260e01c16156118ce565b60ff60e01b19908116600160e01b17600781905561042e9060ff9061041f60b882901c8316611907565b61030a828260c01c1615611da3565b341561060a57612710610443600154346119ff565b049061044f8234611c43565b916104598361252f565b92610465841515611ddb565b610473600435851015611e1d565b600354908185116105cc576104979161048f8692600254611ac3565b600255611c43565b600355806105a4575b60405163a9059cbb60e01b815233600482015260248101849052848160448160006001600160a01b037f0000000000000000000000000000000000000000000000000000000000000000165af1801561059857600090610562575b6105059150611e61565b7fbeae048c6d270d9469f86cf6e8fedda3c60ad770f16c24c9fc131c8e9a09101d6040518061054886339534846040919493926060820195825260208201520152565b0390a261055361262c565b60075416600755604051908152f35b508481813d8311610591575b6105788183611d0d565b810103126101c55761058c61050591611e54565b6104fb565b503d61056e565b6040513d6000823e3d90fd5b6105c760008080808560018060a01b038254165af16105c1611ea5565b50611ee5565b6104a0565b60405162461bcd60e51b8152600481018790526016602482015275696e73756666696369656e74206c697175696469747960501b6044820152606490fd5b60405162461bcd60e51b815260048101839052600c60248201526b195d1a081c995c5d5a5c995960a21b6044820152606490fd5b346101c55760403660031901126101c5576004356007549061066660ff8360e01c16156118ce565b60ff60e01b19918216600160e01b1760078190556106909060ff9061041f60b882901c8316611907565b61069b811515611cc9565b6106a4816125bf565b916106b0831515611ddb565b600254831161087c576127106106c8600154856119ff565b04916106d48385611c43565b926106e3602435851015611e1d565b6040516323b872dd60e01b8152336004820152306024820152604481018390526020956001600160a01b039190878260648160007f000000000000000000000000000000000000000000000000000000000000000088165af191821561059857600092610840575b5061075861076f92611e61565b61076485600354611ac3565b600355600254611c43565b600255600080808088335af1610783611ea5565b501561080557816107d591817f846c37eef631e0943682d87352ec117c20008eb7f425c9b85ac011a6d4774cc0946107e7575b5050604080519485526020850187905284015233929081906060820190565b0390a260075416600755604051908152f35b6000808080936107fe958254165af16105c1611ea5565b87816107b6565b60405162461bcd60e51b8152600481018790526013602482015272195d1a081d1c985b9cd9995c8819985a5b1959606a1b6044820152606490fd5b91508782813d8311610875575b6108578183611d0d565b810103126101c55761075861086e61076f93611e54565b925061074b565b503d61084d565b60405162461bcd60e51b815260206004820152601860248201527f696e73756666696369656e7420657468207265736572766500000000000000006044820152606490fd5b346101c55760003660031901126101c5576020600254604051908152f35b346101c55760003660031901126101c5576020600354604051908152f35b346101c55760003660031901126101c5576040517f00000000000000000000000000000000000000000000000000000000000000006001600160a01b03168152602090f35b346101c55760003660031901126101c557602060ff60075460c81c166040519015158152f35b346101c55760003660031901126101c557602060ff60075460d81c166040519015158152f35b346101c55760203660031901126101c55760406109ac600435611d2f565b82519182526020820152f35b346101c5576020806003193601126101c5576001600160a01b0390600435610a03337f0000000000000000000000000000000000000000000000000000000000000000851614611893565b6007549260ff8460b81c16610b215782602491610a21841515611cc9565b6040516370a0823160e01b815230600482015292839182907f0000000000000000000000000000000000000000000000000000000000000000165afa8015610598578291600091610af0575b5010610ab55760ff60b81b19909216600160b81b1760075560038290556040519182527fa71ed34ff06af8d6865a8f541aae52d72fa89f0e5ee15f01d48fa6c62c85691491a1005b60405162461bcd60e51b8152600481018390526013602482015272696e73756666696369656e7420746f6b656e7360681b6044820152606490fd5b809250848092503d8311610b1a575b610b098183611d0d565b810103126101c55781905185610a6d565b503d610aff565b60405162461bcd60e51b815260048101849052600e60248201526d185b1c9958591e481cd95959195960921b6044820152606490fd5b346101c55760603660031901126101c557610b7061187d565b6024356001600160a01b0381811692908383036101c55760443590610bb8817f0000000000000000000000000000000000000000000000000000000000000000163314611893565b610bca60ff60075460c01c1615611945565b8115610c9d57821680610c53575b907fbcdc4bff84f936019028a7bcbef6b449550d6334606377b822720e57e94276c494610c4e926bffffffffffffffffffffffff60a01b908160055416176005556006541617600655806004556040519384938460409194939294606082019560018060a01b0380921683521660208201520152565b0390a1005b908415610c605790610bd8565b60405162461bcd60e51b81526020600482015260156024820152741b1c081c9958da5c1a595b9d081c995c5d5a5c9959605a1b6044820152606490fd5b60405162461bcd60e51b815260206004820152600f60248201526e1d185c99d95d081c995c5d5a5c9959608a1b6044820152606490fd5b346101c55760003660031901126101c5576020600a54604051908152f35b346101c55760003660031901126101c55760206040517f00000000000000000000000000000000000000000000000000000000000000008152f35b346101c55760203660031901126101c55760406109ac600435611c50565b346101c55760003660031901126101c5576000546040516001600160a01b039091168152602090f35b346101c55760003660031901126101c5576006546040516001600160a01b039091168152602090f35b346101c55760003660031901126101c557600754610dc160ff8260e01c16156118ce565b60ff60e01b19908116600160e01b17600755610ddb611bdf565b60075416600755600080f35b346101c55760003660031901126101c557602062ffffff60075460a01c16604051908152f35b346101c55760003660031901126101c5576020610e28611ad0565b604051908152f35b346101c55760003660031901126101c5576007546040516001600160a01b039091168152602090f35b346101c55760003660031901126101c55760206040517f00000000000000000000000000000000000000000000000000000000000000008152f35b346101c55760003660031901126101c557602060ff60075460b81c166040519015158152f35b346101c55760003660031901126101c5576020600954604051908152f35b346101c55760403660031901126101c557610ef161187d565b602435906001600160a01b0390610f2b337f0000000000000000000000000000000000000000000000000000000000000000841614611893565b16908115610fba5761012c8111610f865760207fe42708d93b95810922305119a3271ca42233da9ebe1e1e503f0e887817a32c7a91836bffffffffffffffffffffffff60a01b600054161760005580600155604051908152a2005b60405162461bcd60e51b815260206004820152600c60248201526b0cccaca40e8dede40d0d2ced60a31b6044820152606490fd5b60405162461bcd60e51b81526020600482015260126024820152711c9958da5c1a595b9d081c995c5d5a5c995960721b6044820152606490fd5b346101c55760003660031901126101c5576020610e28611a32565b346101c55760003660031901126101c557611054337f00000000000000000000000000000000000000000000000000000000000000006001600160a01b031614611893565b60075461106760ff8260e01c16156118ce565b60ff60e01b19908116600160e01b1760078190556110919060ff906102fb60b882901c8316611907565b60025461109f8115156119c2565b60035460405191825260208201527f5d6dc6b9835f5448ae2351719684f59735b30dfa8e62677cc6f9e98bd4c08f7f60403392a2610ddb611f87565b346101c55760003660031901126101c5576020600154604051908152f35b346101c55760003660031901126101c5576008546040516001600160a01b039091168152602090f35b346101c55760003660031901126101c557602060ff60075460d01c166040519015158152f35b346101c55760003660031901126101c5576005546040516001600160a01b039091168152602090f35b346101c55760003660031901126101c5576111b6337f00000000000000000000000000000000000000000000000000000000000000006001600160a01b031614611893565b6007546111c960ff8260e01c16156118ce565b60ff60e01b198116600160e01b1760078190556111ec60b882901c60ff16611907565b6111fc60ff8260c01c1615611945565b61120c60ff8260c81c1615611985565b600254611838576001600160a01b038216156117fe576003805460009091556040516312a9293f60e21b815290916020826004816001600160a01b0388165afa918215610598576000926117dd575b507f0000000000000000000000000000000000000000000000000000000000000000936001600160a01b0383811690861610156117d757845b6001600160a01b0384811690871610156117d157835b6001600160a01b0385811690881610156117bc576a01b34f91b7533ca6b68126915b6001600160a01b0386811690891610156117b257620338ff195b6001600160a01b03878116908a1610156117a857620d89a0935b6040516309f56ab160e11b81526001600160a01b038481166004830152858116602483015260a09890981c62ffffff166044820152908716606482015295602090879060849082906000908a165af195861561059857600096611777575b5060075460405163095ea7b360e01b81526001600160a01b0391821660048201526000602482018190529091602091839160449183918f165af180156105985761173e575b5060075460405163095ea7b360e01b81526001600160a01b039091166004820152602481018990526020818b816000816044810103926001600160a01b03165af1801561059857611705575b506001600160a01b03878116908a1610156116fe57875b6001600160a01b03888116908b1610156116f7576000905b62ffffff60075460a01c1695610e10420142116116e157604051938461016081011067ffffffffffffffff610160870111176116cb57610160850160409081526001600160a01b03968716865296861660208601908152878601988952600291820b6060870190815292820b608087810191825260a0880195865260c08801968752600060e089018181526101008a01828152306101208c0190815242610e10016101408d019081529d51634418b22b60e11b81529b518d1660048d015295518c1660248c01529c5162ffffff1660448b01529551850b60648a0152915190930b6084880152935160a4870152935160c4860152905160e48501529551610104840152905183166101248301529251610144820152938492610164928492165af180156105985760009560009460009360009361165d575b507f5cfc9ea0e95e86463d8dacd6c53993376a8afab5437e80a8a98d57d7a8b0f2349660809690956001600160801b039591949093919290916001600160a01b0391821691161015611654575080945b81811161163a575b50506007805462ffffff60c81b19166201010160c81b179055600880546001600160a01b0319166001600160a01b039290921691821790556009969096556040805193845260006020850152911690820152426060820152a261160f612b46565b905060045481101561162b575b6007805460ff60e01b19169055005b61163490612237565b8061161c565b61164c9161164791611c43565b612664565b5083886115ae565b905080946115a6565b9694975094509150506080843d6080116116c3575b8161167f60809383611d0d565b810103126101c5578351936020810151956001600160801b03871687036101c557604082015160609092015195969395939490939192906001600160801b03611556565b3d9150611672565b634e487b7160e01b600052604160045260246000fd5b634e487b7160e01b600052601160045260246000fd5b889061141e565b6000611406565b6020813d602011611736575b8161171e60209383611d0d565b810103126101c55761172f90611e54565b50896113ef565b3d9150611711565b6020813d60201161176f575b8161175760209383611d0d565b810103126101c55761176890611e54565b50896113a3565b3d915061174a565b61179a91965060203d6020116117a1575b6117928183611d0d565b810190611f68565b948961135e565b503d611788565b6203390093611300565b620d899f196112e6565b6d968cc63f21ed04d38c2ab4825f90916112cc565b856112aa565b82611294565b6117f791925060203d6020116117a1576117928183611d0d565b908461125b565b60405162461bcd60e51b81526020600482015260126024820152711d8cc81b585b9859d95c881b9bdd081cd95d60721b6044820152606490fd5b60405162461bcd60e51b815260206004820152601960248201527f6574682072657365727665206e6f7420737570706f72746564000000000000006044820152606490fd5b600435906001600160a01b03821682036101c557565b1561189a57565b60405162461bcd60e51b815260206004820152600c60248201526b6f6e6c7920666163746f727960a01b6044820152606490fd5b156118d557565b60405162461bcd60e51b815260206004820152600a6024820152697265656e7472616e637960b01b6044820152606490fd5b1561190e57565b60405162461bcd60e51b815260206004820152600f60248201526e1c1bdbdb081b9bdd081cd959591959608a1b6044820152606490fd5b1561194c57565b60405162461bcd60e51b8152602060048201526011602482015270185b1c9958591e4819dc98591d585d1959607a1b6044820152606490fd5b1561198c57565b60405162461bcd60e51b815260206004820152600e60248201526d646578206375727665206c69766560901b6044820152606490fd5b156119c957565b60405162461bcd60e51b815260206004820152600e60248201526d6e6f20657468207265736572766560901b6044820152606490fd5b818102929181159184041417156116e157565b8115611a1c570490565b634e487b7160e01b600052601260045260246000fd5b6004548015611abd5760075460ff8160c81c16908115611a95575b5015611a8d57611a5b612b46565b90505b61271091828202918083048414901517156116e157611a7c91611a12565b90808211611a88575090565b905090565b600254611a5e565b60ff915060c01c1680611aa9575b38611a4d565b506008546001600160a01b03161515611aa3565b50600090565b919082018092116116e157565b60075460ff8160c81c16908115611b90575b5080611b7c575b611b7457611b1a6003547f000000000000000000000000000000000000000000000000000000000000000090611ac3565b8015611abd57611b4d6002547f000000000000000000000000000000000000000000000000000000000000000090611ac3565b90670de0b6b3a7640000918281029281840414901517156116e157611b7191611a12565b90565b611b71612036565b506008546001600160a01b03161515611ae9565b60ff915060c01c1638611ae2565b15611ba557565b60405162461bcd60e51b81526020600482015260126024820152711d185c99d95d081b9bdd081c995858da195960721b6044820152606490fd5b60ff600754611bf2828260b81c16611907565b611c01828260c01c1615611945565b60c81c16611c2357611c196002546004541115611b9e565b611c21611f87565b565b611c21611c2e612b46565b9050611c3e600454821015611b9e565b612237565b919082039182116116e157565b60075460ff8160b81c1615908115611cba575b8115611cac575b508015611ca4575b611c9b57611c98611c93612710611c8b600154856119ff565b048093611c43565b61252f565b91565b50600090600090565b508015611c72565b60ff915060c81c1638611c6a565b905060ff8160c01c1690611c63565b15611cd057565b60405162461bcd60e51b81526020600482015260156024820152741d1bdad95b88185b5bdd5b9d081c995c5d5a5c9959605a1b6044820152606490fd5b90601f8019910116810190811067ffffffffffffffff8211176116cb57604052565b60075460ff8160b81c1615908115611d94575b8115611d86575b508015611d7e575b611c9b57611d5e906125bf565b8015611c9b57611c98612710611d76600154846119ff565b048092611c43565b508015611d51565b60ff915060c81c1638611d49565b905060ff8160c01c1690611d42565b15611daa57565b60405162461bcd60e51b815260206004820152600960248201526819dc98591d585d195960ba1b6044820152606490fd5b15611de257565b60405162461bcd60e51b81526020600482015260136024820152721a5b9cdd59999a58da595b9d081bdd5d1c1d5d606a1b6044820152606490fd5b15611e2457565b60405162461bcd60e51b8152602060048201526008602482015267736c69707061676560c01b6044820152606490fd5b519081151582036101c557565b15611e6857565b60405162461bcd60e51b81526020600482015260156024820152741d1bdad95b881d1c985b9cd9995c8819985a5b1959605a1b6044820152606490fd5b3d15611ee0573d9067ffffffffffffffff82116116cb5760405191611ed4601f8201601f191660200184611d0d565b82523d6000602084013e565b606090565b15611eec57565b60405162461bcd60e51b8152602060048201526013602482015272199959481d1c985b9cd9995c8819985a5b1959606a1b6044820152606490fd5b15611f2e57565b60405162461bcd60e51b815260206004820152601260248201527119195e081c9bdd5d195c881b9bdd081cd95d60721b6044820152606490fd5b908160209103126101c557516001600160a01b03811681036101c55790565b6120227f71aa8c3702dbbc54247a4e6446450e64a46250dd72707a247ddb01d72eaef44560018060a01b03611fc181600554161515611f27565b6007805460ff60c01b1916600160c01b17905542600a55600654611fe690821661273d565b50600880546001600160a01b03191695909116948517905560408051938452602084019290925290820152426060820152909281906080820190565b0390a2565b519061ffff821682036101c557565b60075460ff8160d81c1680612223575b6120935750612053612b46565b908015801561208b575b61208457670de0b6b3a7640000918281029281840414901517156116e157611b7191611a12565b5050600090565b50811561205d565b600854604051633850c7bd60e01b81526001600160a01b039160e0908290600490829086165afa801561059857829160009161218b575b501680156121835760206120df8284936119ff565b936004604051809481936312a9293f60e21b8352165afa8015610598578291600091612164575b5016907f00000000000000000000000000000000000000000000000000000000000000001610612144578015611a1c576503782dace9d960d21b0490565b670de0b6b3a7640000908181029181830414901517156116e15760c01c90565b61217d915060203d6020116117a1576117928183611d0d565b38612106565b505050600090565b90915060e0813d60e01161221b575b816121a760e09383611d0d565b810103126122175780519183831683036122145760208201518060020b03612214576121d560408301612027565b506121e260608301612027565b506121ef60808301612027565b5060a082015160ff81160361221457509061220d60c0849301611e54565b50386120ca565b80fd5b5080fd5b3d915061219a565b506008546001600160a01b03161515612046565b600754600060ff8260c81c16156124f5576008546001600160a01b03919082169081156124c15761ffff60c01b198416600160c01b17600781905542600a5560d01c60ff1691821561245857508260095494856123d5575b50506007805460ff60d01b19169055905b83151590816123cc575b50612307575b507f6d6435bd27368eeaa8bea9975846b4ffc3d4864faabcec7e007dc6014f4ea055916120226122de612efc565b600854604080519788526020880194909452928601524260608601529116929081906080820190565b806020836008541660446040518094819363a9059cbb60e01b835261dead60048401528960248401525af19182156123c0578092612383575b50501561234d57386122b0565b60405162461bcd60e51b815260206004820152600e60248201526d1b1c08189d5c9b8819985a5b195960921b6044820152606490fd5b9091506020823d6020116123b8575b8161239f60209383611d0d565b8101031261221457506123b190611e54565b3880612340565b3d9150612392565b604051903d90823e3d90fd5b905015386122aa565b16803b15612217578180916064604051809481936323b872dd60e01b835230600484015261dead60248401528a60448401525af1801561244d57612421575b506009819055823861228f565b67ffffffffffffffff81116124395760405238612414565b634e487b7160e01b82526041600452602482fd5b6040513d84823e3d90fd5b602491929450602090604051928380926370a0823160e01b82523060048301525afa90811561244d57829161248f575b50926122a0565b90506020813d6020116124b9575b816124aa60209383611d0d565b81010312612217575138612488565b3d915061249d565b60405162461bcd60e51b815260206004820152600c60248201526b1c185a5c881b9bdd081cd95d60a21b6044820152606490fd5b60405162461bcd60e51b8152602060048201526012602482015271646578206375727665206e6f74206c69766560701b6044820152606490fd5b8015611abd576125626002547f000000000000000000000000000000000000000000000000000000000000000090611ac3565b906125ae600354926125a86125977f000000000000000000000000000000000000000000000000000000000000000086611ac3565b936125a285846119ff565b92611ac3565b90611a12565b8082111561218357611a7c91611c43565b600254906125ae6125f07f000000000000000000000000000000000000000000000000000000000000000084611ac3565b916125a86126216003547f000000000000000000000000000000000000000000000000000000000000000090611ac3565b916125a283866119ff565b60075460ff8160c01c16908115612656575b50611c215760025460045411611c2157611c21611f87565b60ff915060c81c163861263e565b8015611abd57604051630852cd8d60e31b81526004810182905260208160248160007f00000000000000000000000000000000000000000000000000000000000000006001600160a01b03165af190811561059857600091612703575b50156126ca5790565b60405162461bcd60e51b81526020600482015260116024820152701d1bdad95b88189d5c9b8819985a5b1959607a1b6044820152606490fd5b90506020813d602011612735575b8161271e60209383611d0d565b810103126101c55761272f90611e54565b386126c1565b3d9150612711565b6000916001600160a01b0391821690838215612af65760035491600254948660035586600255807f0000000000000000000000000000000000000000000000000000000000000000169681600554169181604091825163095ea7b360e01b90818152600496878201528360248201528c816044816020998a945af18015612aec579186918b93612aae575b50600554865191825284166001600160a01b031688820190815260208101939093529182908e9082908790829060400103925af18015612aa457612a6c575b508060055416610e104201804211612a59578b918d9186519c8d9363f305d71960e01b85528a8501528c6024850152866044850152866064850152608484015260a4830152815a9360c492606095f1998a15612a4f57829a839a8491612a0d575b5099809b809d846005541687519063c45a015560e01b825289828c81845afa9182156129e4578b9392918b918a936129ee575b508a516315ab88c960e31b815294859182905afa9283156129e457878b93928d928b966129be575b509060449291818d51978896879563e6a4390560e01b8752860152166024840152165afa9081156129b4578691612997575b509a81811161297f575b5050808211612912575b50505050505050565b83926129218493928493611c43565b908254165af161292f611ea5565b501561293e5780808080612909565b5162461bcd60e51b815291820152601860248201527f6574682064757374207472616e73666572206661696c65640000000000000000604482015260649150fd5b61298f929a509061164791611c43565b9738806128ff565b6129ae9150883d8a116117a1576117928183611d0d565b386128f5565b87513d88823e3d90fd5b604493929196506129db90863d88116117a1576117928183611d0d565b959091926128c3565b89513d8a823e3d90fd5b612a06919350823d84116117a1576117928183611d0d565b913861289b565b9b5050985060608a3d606011612a47575b81612a2b60609383611d0d565b810103126122175789519883858c01519b0151999a9938612868565b3d9150612a1e565b83513d84823e3d90fd5b634e487b7160e01b845260118752602484fd5b8481813d8311612a9d575b612a818183611d0d565b81010312612a9957612a9290611e54565b5038612807565b8280fd5b503d612a77565b84513d85823e3d90fd5b8281939294503d8311612ae5575b612ac68183611d0d565b81010312612ae1578991612ada8792611e54565b50386127c8565b8380fd5b503d612abc565b85513d86823e3d90fd5b60405162461bcd60e51b81526020600482015260146024820152731b1c081c9958d95a5d995c881c995c5d5a5c995960621b6044820152606490fd5b51906001600160701b03821682036101c557565b600854600091906001600160a01b03908390819083168015612ef45760075460ff8160d81c16612da357508360055416908115612d9a57604094855180936315ab88c960e31b825281600460209384935afa938415612d90578994612d71575b508651630dfe168160e01b8152908082600481875afa918215612d67578a92612d48575b50875163d21220a760e01b8152938185600481845afa948515612d3e578b95612d17575b509060606004928a5193848092630240bc6b60e21b82525afa9a8b15612d0c578099819c612cad575b5050505081807f00000000000000000000000000000000000000000000000000000000000000001691169281841480612ca0575b15612c6757505050505050506001600160701b03809116921690565b9598949796958216149283612c94575b505050612c82575050565b6001600160701b039081169450169150565b16149050388080612c77565b5082851683821614612c4b565b91939b509198506060893d606011612d04575b81612ccd60609383611d0d565b8101031261221757612ce9612ce18a612b32565b938a01612b32565b98015163ffffffff8116036122145750959738808080612c17565b3d9150612cc0565b8951903d90823e3d90fd5b82919550612d356060916004943d85116117a1576117928183611d0d565b95919250612bee565b89513d8d823e3d90fd5b81612d609293503d84116117a1576117928183611d0d565b9038612bca565b88513d8c823e3d90fd5b81612d899295503d86116117a1576117928183611d0d565b9238612ba6565b87513d8b823e3d90fd5b50505050508190565b9250949050826040958651936312a9293f60e21b8552846004816020958694165afa938415612eea578394612ecb575b5086516370a0823160e01b80825260048201839052909583876024817f000000000000000000000000000000000000000000000000000000000000000085165afa968715612ec1578597612e8e575b508392916024918a51978894859384526004840152165afa958615612e8357508195612e50575b5050509190565b909180939550813d8311612e7c575b612e698183611d0d565b8101031261221457505191388080612e49565b503d612e5f565b51913d9150823e3d90fd5b9096508381813d8311612eba575b612ea68183611d0d565b81010312612eb657519583612e22565b8480fd5b503d612e9c565b89513d87823e3d90fd5b612ee3919450823d84116117a1576117928183611d0d565b9238612dd3565b87513d85823e3d90fd5b505050508190565b6040516370a0823160e01b81523060048201526020816024817f00000000000000000000000000000000000000000000000000000000000000006001600160a01b03165afa90811561059857600091612f60575b508015611abd57611b7190612664565b90506020813d602011612f8a575b81612f7b60209383611d0d565b810103126101c5575138612f50565b3d9150612f6e56fea264697066735822122099d94b89887e277097556243b39d5582b3c47517b5d35fd712adf16acd5dca1264736f6c6343000818003360406101408152346200060d5762001808803803806200001f8162000612565b92833981019160e0828403126200060d5781516001600160401b03908181116200060d57846200005191850162000638565b9360209081850151908382116200060d576200006f91860162000638565b9083850151946200008360608201620006aa565b6200009160808301620006aa565b9060c0620000a260a08501620006aa565b93015198805115620005d957855115620005a35788156200056d576001600160a01b0382811697908815620005365780851615620004ff57851615620004c7576103e88b116200048e57815181811162000478576000978854916001948584811c941680156200046d575b8a85101462000459578190601f9485811162000406575b508a90858311600114620003a1578c9262000395575b5050600019600383901b1c191690851b1789555b8051928311620003815783548481811c9116801562000376575b898210146200036257908183859493116200030d575b5088918311600114620002a95789926200029d575b5050600019600383901b1c191690821b1790555b8760025560805260a05260c0528560e052610fa080870290878204148715171562000289576127109004946101209580875287039687116200028957907fddf252ad1be2c89b69c2b068fc378daa952ba7f163c4a11628f55a4df523b3ef916101009788528484526006825280868520558551908152a351906111489283620006c084396080518381816102430152818161030a0152610366015260a05183818161077d0152610c8d015260c051838181610198015261087a015260e05183818161064f0152610ec8015251828181610aec0152610f0601525181610a4e0152f35b634e487b7160e01b83526011600452602483fd5b01519050388062000193565b848a52888a208594509190601f1984168b5b8b828210620002f65750508411620002dc575b505050811b019055620001a7565b015160001960f88460031b161c19169055388080620002ce565b8385015186558897909501949384019301620002bb565b90919250848a52888a208380860160051c8201928b871062000358575b91869588929594930160051c01915b828110620003495750506200017e565b8c815586955087910162000339565b925081926200032a565b634e487b7160e01b8a52602260045260248afd5b90607f169062000168565b634e487b7160e01b89526041600452602489fd5b0151905038806200013a565b8c80528b8d208894509190601f1984168e8e5b828210620003ee5750508411620003d4575b505050811b0189556200014e565b015160001960f88460031b161c19169055388080620003c6565b8385015186558b979095019493840193018e620003b4565b9091508b80528a8c208580850160051c8201928d86106200044f575b918991869594930160051c01915b8281106200044057505062000124565b8e815585945089910162000430565b9250819262000422565b634e487b7160e01b8b52602260045260248bfd5b93607f16936200010d565b634e487b7160e01b600052604160045260246000fd5b885162461bcd60e51b81526004810187905260126024820152710e8e4c2c8ca40cccaca40e8dede40d0d2ced60731b6044820152606490fd5b885162461bcd60e51b81526004810187905260116024820152701c1b185d199bdc9b481c995c5d5a5c9959607a1b6044820152606490fd5b895162461bcd60e51b815260048101889052601060248201526f18dc99585d1bdc881c995c5d5a5c995960821b6044820152606490fd5b895162461bcd60e51b815260048101889052601060248201526f199858dd1bdc9e481c995c5d5a5c995960821b6044820152606490fd5b875162461bcd60e51b815260048101869052600f60248201526e1cdd5c1c1b1e481c995c5d5a5c9959608a1b6044820152606490fd5b875162461bcd60e51b815260048101869052600f60248201526e1cde5b589bdb081c995c5d5a5c9959608a1b6044820152606490fd5b875162461bcd60e51b815260048101869052600d60248201526c1b985b59481c995c5d5a5c9959609a1b6044820152606490fd5b600080fd5b6040519190601f01601f191682016001600160401b038111838210176200047857604052565b919080601f840112156200060d5782516001600160401b03811162000478576020906200066e601f8201601f1916830162000612565b928184528282870101116200060d5760005b8181106200069657508260009394955001015290565b858101830151848201840152820162000680565b51906001600160a01b03821682036200060d5756fe608060408181526004918236101561001657600080fd5b600092833560e01c91826302d05d3f14610c7957508163044991d814610c5a57816306fdde0314610b80578163095ea7b314610b0f57816317773ebb14610ad457816318160ddd14610ab55781631e26906b14610a8e5781632044dbb214610a7157816322dcd13e14610a3657816323b872dd1461092f5781632bebf6bf146108655781632f9f103214610849578163313ce5671461082d578163351fee461461076957816342966c681461068f5781635b632360146106725781635faad8c51461063757816370a08231146105ff57816395d89b41146104dc5781639e5f358a146104be578163a9059cbb1461048d578163ae36f5c814610339578163c45a0155146102f5578163dc4b1c0e1461022b57508063dd62ed3e146101e3578063e1a45218146101c7578063eb13554f146101845763f242ab411461015957600080fd5b3461018057816003193601126101805760035490516001600160a01b039091168152602090f35b5080fd5b5034610180578160031936011261018057517f00000000000000000000000000000000000000000000000000000000000000006001600160a01b03168152602090f35b5034610180578160031936011261018057602090516127108152f35b503461018057806003193601126101805780602092610200610d05565b610208610d20565b6001600160a01b0391821683526007865283832091168252845220549051908152f35b9050346102f157826003193601126102f157610271337f00000000000000000000000000000000000000000000000000000000000000006001600160a01b031614610dd6565b6003549160ff8360a01c166102ba57505060ff60a01b1916600160a01b17600355337f60b9765cf08f04b4850cd9a0f8da6fa9e854afd328723cc3f6adea6fb4f18d238280a280f35b906020606492519162461bcd60e51b83528201526011602482015270185b1c9958591e481c995b9bdd5b98d959607a1b6044820152fd5b8280fd5b505034610180578160031936011261018057517f00000000000000000000000000000000000000000000000000000000000000006001600160a01b03168152602090f35b8391503461018057602036600319011261018057610355610d05565b6001600160a01b0390819061038d337f0000000000000000000000000000000000000000000000000000000000000000841614610dd6565b1691821561045a576003549160ff8360a01c166104175782166103e157506001600160a01b03191681176003557fc3cd203585fbc28dcc1692611d2ebc4190312a5b189047df793c69b157aa0d298280a280f35b606490602086519162461bcd60e51b8352820152601060248201526f1c185a5c88185b1c9958591e481cd95d60821b6044820152fd5b855162461bcd60e51b8152602081840152601960248201527f666163746f727920636f6e74726f6c2072656e6f756e636564000000000000006044820152606490fd5b606490602086519162461bcd60e51b8352820152600d60248201526c1c185a5c881c995c5d5a5c9959609a1b6044820152fd5b5050346101805780600319360112610180576020906104b76104ad610d05565b6024359033610e31565b5160018152f35b9050346102f157826003193601126102f15760209250549051908152f35b8383346101805781600319360112610180578051908260018054908160011c90600183169283156105f5575b60209384841081146105e2578388529081156105c65750600114610570575b505050829003601f01601f191682019267ffffffffffffffff84118385101761055d5750829182610559925282610cbc565b0390f35b634e487b7160e01b815260418552602490fd5b600187529192508591837fb10e2d527612073b26eecdfd717e6a320cf44b4afac2b0732d9fcbe2b7fa0cf65b8385106105b25750505050830101858080610527565b80548886018301529301928490820161059c565b60ff1916878501525050151560051b8401019050858080610527565b634e487b7160e01b895260228a52602489fd5b91607f1691610508565b5050346101805760203660031901126101805760209181906001600160a01b03610627610d05565b1681526006845220549051908152f35b505034610180578160031936011261018057602090517f00000000000000000000000000000000000000000000000000000000000000008152f35b505034610180578160031936011261018057602090516103e88152f35b9050346102f157602092836003193601126107665781359182156107315750338152600684526106ce82848320546106c982821015610d98565b610d36565b33825260068552838220556106e582600254610d36565b60025582518281526000805160206110f3833981519152853392a381519081527fcc16f5dbb4873280815c1ee09dbd06736cffcc184412cf7a71a0fdb75d397ca5833392a25160018152f35b835162461bcd60e51b8152908101859052600f60248201526e185b5bdd5b9d081c995c5d5a5c9959608a1b6044820152606490fd5b80fd5b8383346101805781600319360112610180577f00000000000000000000000000000000000000000000000000000000000000006001600160a01b03811690338290036107fb57846107cd91602096549586926107c6841515610d59565b5530611010565b7fd046302bdc39599e60a5981e59227dcd1c643f512f56f2e984390c3ac6eadedb848351858152a251908152f35b825162461bcd60e51b8152602081870152600c60248201526b37b7363c9031b932b0ba37b960a11b6044820152606490fd5b5050346101805781600319360112610180576020905160128152f35b5050346101805781600319360112610180576020905160328152f35b919050346102f157826003193601126102f1577f0000000000000000000000000000000000000000000000000000000000000000916001600160a01b03831690338290036108fc57506108ce6020946005549485916108c5831515610d59565b60055530611010565b7f0636f1043cff5f4c437926a4412416778ddc5e970feb177685b587e81dad9095848351858152a251908152f35b606490602084519162461bcd60e51b8352820152600d60248201526c6f6e6c7920706c6174666f726d60981b6044820152fd5b919050346102f15760603660031901126102f15761094b610d05565b610953610d20565b6044359160018060a01b03811680875260209560078752858820338952875285882054908582106109fe5750948096976104b79686600019820361099c575b5050505050610e31565b6109a591610d36565b83825260078a528282203383528a528282205582815260078952818120338252895220549086519182527f8c5be1e5ebec7d5bd14f71427d1e84f3dd0314c0f7b2291e5b200ac8c7c3b925883393a33885818086610992565b865162461bcd60e51b81529081018890526012602482015271185b1b1bddd85b98d948195e18d95959195960721b6044820152606490fd5b505034610180578160031936011261018057602090517f00000000000000000000000000000000000000000000000000000000000000008152f35b50503461018057816003193601126101805760209051610fa08152f35b50503461018057816003193601126101805760209060ff60035460a01c1690519015158152f35b5050346101805781600319360112610180576020906002549051908152f35b505034610180578160031936011261018057602090517f00000000000000000000000000000000000000000000000000000000000000008152f35b50503461018057806003193601126101805760209181610b2d610d05565b91602435918291338152600787528181209460018060a01b0316948582528752205582519081527f8c5be1e5ebec7d5bd14f71427d1e84f3dd0314c0f7b2291e5b200ac8c7c3b925843392a35160018152f35b83833461018057816003193601126101805780519082835460018160011c9060018316928315610c50575b60209384841081146105e2578388529081156105c65750600114610bfb57505050829003601f01601f191682019267ffffffffffffffff84118385101761055d5750829182610559925282610cbc565b8680529192508591837f290decd9548b62a8d60345a988386fc84ba6bc95484008f6362f93160ef3e5635b838510610c3c5750505050830101858080610527565b805488860183015293019284908201610c26565b91607f1691610bab565b5050346101805781600319360112610180576020906005549051908152f35b8490346101805781600319360112610180577f00000000000000000000000000000000000000000000000000000000000000006001600160a01b03168152602090f35b6020808252825181830181905290939260005b828110610cf157505060409293506000838284010152601f8019910116010190565b818101860151848201604001528501610ccf565b600435906001600160a01b0382168203610d1b57565b600080fd5b602435906001600160a01b0382168203610d1b57565b91908203918211610d4357565b634e487b7160e01b600052601160045260246000fd5b15610d6057565b60405162461bcd60e51b815260206004820152601060248201526f6e6f7468696e6720746f20636c61696d60801b6044820152606490fd5b15610d9f57565b60405162461bcd60e51b815260206004820152600f60248201526e62616c616e636520746f6f206c6f7760881b6044820152606490fd5b15610ddd57565b60405162461bcd60e51b815260206004820152600c60248201526b6f6e6c7920666163746f727960a01b6044820152606490fd5b81810292918115918404141715610d4357565b91908201809211610d4357565b6001600160a01b03808316939192908415610fdc5783169260009184835260209260068452604091610e748383205491610e6d88841015610d98565b87956110b6565b80610fd3575b610ebd575b90610e9a6000805160206110f3833981519152968493610d36565b878252600686528282205587815220610eb4838254610e24565b905551908152a3565b612710888882610eed7f00000000000000000000000000000000000000000000000000000000000000008b610e11565b049283610efe575b50505050610e7f565b8695949397507f0000000000000000000000000000000000000000000000000000000000000000610f2f908b610e11565b0485888a848d610f3f8685610d36565b93610f4991610d36565b9b8560045490610f5891610e24565b6004558360055490610f6991610e24565b600555308a5260068352848a2081815490610f8391610e24565b9055845190815230926000805160206110f383398151915291a381519283528a8301527f93bd139ea85d53c55e02dec709128f827ebd5cb8a4a0d873193711b70b0a15b991a39091888838610ef5565b50851515610e7a565b60405162461bcd60e51b815260206004820152600c60248201526b7a65726f206164647265737360a01b6044820152606490fd5b60018060a01b038091169160009383855260066020526040852054818110611078576000805160206110f38339815191529360209361105184604094610d36565b878952600686528389205516958681522061106d828254610e24565b9055604051908152a3565b60405162461bcd60e51b81526020600482015260166024820152751a5b9cdd59999a58da595b9d08199959481d985d5b1d60521b6044820152606490fd5b6003546001600160a01b039081169182156110e957811682149283156110dd575b50505090565b161490503880806110d7565b5050505060009056feddf252ad1be2c89b69c2b068fc378daa952ba7f163c4a11628f55a4df523b3efa264697066735822122044fcb14b3f7cb8a9286eca6bf592a4f3caf9627e236f36d27101f0273e8f794e64736f6c6343000818003363726561746f72207472616e73666572206661696c6564000000000000000000047d6cd3e0239e764a392db701c655fea8a19d6d059350ec7d8df5dc840043208620494f920761bd37321ddd1f125e085d81426820d3ca4e8b1f0ab3dab7a578a2646970667358221220e571c896093f1d59c0a97934c00f0f66d7ab77059db4d6a13f92ecb6f077cc0c64736f6c63430008180033","opcodes":"PUSH1 0x80 CALLVALUE PUSH3 0x384 JUMPI PUSH1 0x1F PUSH3 0xB8D5 CODESIZE DUP2 SWAP1 SUB SWAP2 DUP3 ADD PUSH1 0x1F NOT AND DUP4 ADD SWAP3 SWAP2 SWAP1 PUSH1 0x1 PUSH1 0x1 PUSH1 0x40 SHL SUB DUP5 GT DUP4 DUP6 LT OR PUSH3 0x389 JUMPI DUP2 PUSH2 0x160 SWAP3 DUP5 SWAP3 PUSH1 0x40 SWAP7 DUP8 MSTORE DUP4 CODECOPY DUP2 ADD SUB SLT PUSH3 0x384 JUMPI PUSH3 0x52 DUP2 PUSH3 0x39F JUMP JUMPDEST PUSH1 0x20 SWAP1 PUSH3 0x62 DUP3 DUP5 ADD PUSH3 0x39F JUMP JUMPDEST DUP5 DUP5 ADD MLOAD SWAP1 PUSH1 0x60 DUP6 ADD MLOAD PUSH1 0x80 DUP7 ADD MLOAD SWAP5 PUSH1 0xA0 DUP8 ADD MLOAD PUSH1 0xC0 DUP9 ADD MLOAD SWAP1 PUSH3 0x8B PUSH1 0xE0 DUP11 ADD PUSH3 0x39F JUMP JUMPDEST SWAP8 PUSH3 0x9B PUSH2 0x100 DUP12 ADD PUSH3 0x39F JUMP JUMPDEST SWAP5 PUSH2 0x140 PUSH3 0xAE PUSH2 0x120 DUP14 ADD PUSH3 0x39F JUMP JUMPDEST SWAP12 ADD MLOAD SWAP8 PUSH3 0xFFFFFF DUP10 AND SWAP11 DUP12 DUP11 SUB PUSH3 0x384 JUMPI PUSH1 0x1 PUSH1 0x1 PUSH1 0xA0 SHL SUB SWAP11 DUP12 AND SWAP9 DUP10 ISZERO PUSH3 0x33F JUMPI PUSH2 0x12C DUP4 GT PUSH3 0x30B JUMPI DUP12 AND SWAP1 DUP2 ISZERO PUSH3 0x2C6 JUMPI DUP5 ISZERO PUSH3 0x281 JUMPI DUP6 ISZERO PUSH3 0x23C JUMPI DUP7 ISZERO PUSH3 0x205 JUMPI SWAP1 DUP12 DUP1 SWAP10 SWAP9 SWAP8 SWAP7 SWAP6 SWAP5 SWAP4 SWAP3 AND SWAP7 DUP8 PUSH3 0x1A1 JUMPI JUMPDEST POP PUSH1 0x1 DUP1 PUSH1 0xA0 SHL SUB NOT SWAP10 CALLER DUP12 PUSH1 0x0 SLOAD AND OR PUSH1 0x0 SSTORE DUP11 PUSH1 0x1 SLOAD AND OR PUSH1 0x1 SSTORE DUP10 PUSH1 0x2 SLOAD AND OR PUSH1 0x2 SSTORE PUSH1 0x3 SSTORE PUSH1 0x4 SSTORE PUSH1 0x5 SSTORE PUSH1 0x6 SSTORE PUSH1 0x7 SSTORE DUP4 PUSH1 0x8 SLOAD AND OR PUSH1 0x8 SSTORE AND SWAP1 PUSH1 0x9 SLOAD AND OR PUSH1 0x9 SSTORE PUSH1 0xA SLOAD SWAP3 ISZERO PUSH1 0x0 EQ PUSH3 0x19B JUMPI POP PUSH2 0x2710 JUMPDEST PUSH3 0xFFFFFF PUSH1 0xA0 SHL PUSH1 0xA0 SWAP2 SWAP1 SWAP2 SHL AND SWAP3 AND PUSH1 0x1 PUSH1 0x1 PUSH1 0xB8 SHL SUB NOT SWAP2 SWAP1 SWAP2 AND OR OR PUSH1 0xA SSTORE MLOAD PUSH2 0xB520 SWAP1 DUP2 PUSH3 0x3B5 DUP3 CODECOPY RETURN JUMPDEST PUSH3 0x16B JUMP JUMPDEST SWAP1 SWAP2 SWAP3 SWAP4 SWAP5 SWAP6 SWAP7 SWAP8 SWAP9 DUP10 AND ISZERO PUSH3 0x1C2 JUMPI SWAP1 DUP12 SWAP9 SWAP8 SWAP7 SWAP6 SWAP5 SWAP4 SWAP3 SWAP2 PUSH3 0x111 JUMP JUMPDEST PUSH1 0x64 SWAP1 DUP16 MLOAD SWAP1 PUSH3 0x461BCD PUSH1 0xE5 SHL DUP3 MSTORE PUSH1 0x4 DUP3 ADD MSTORE PUSH1 0x15 PUSH1 0x24 DUP3 ADD MSTORE PUSH32 0x6C7020726563697069656E742072657175697265640000000000000000000000 PUSH1 0x44 DUP3 ADD MSTORE REVERT JUMPDEST POP DUP14 MLOAD PUSH3 0x461BCD PUSH1 0xE5 SHL DUP2 MSTORE PUSH1 0x4 DUP2 ADD DUP9 SWAP1 MSTORE PUSH1 0xF PUSH1 0x24 DUP3 ADD MSTORE PUSH15 0x1D185C99D95D081C995C5D5A5C9959 PUSH1 0x8A SHL PUSH1 0x44 DUP3 ADD MSTORE PUSH1 0x64 SWAP1 REVERT JUMPDEST POP DUP14 MLOAD PUSH3 0x461BCD PUSH1 0xE5 SHL DUP2 MSTORE PUSH1 0x4 DUP2 ADD DUP9 SWAP1 MSTORE PUSH1 0x16 PUSH1 0x24 DUP3 ADD MSTORE PUSH32 0x7669727475616C20746F6B656E20726571756972656400000000000000000000 PUSH1 0x44 DUP3 ADD MSTORE PUSH1 0x64 SWAP1 REVERT JUMPDEST POP DUP14 MLOAD PUSH3 0x461BCD PUSH1 0xE5 SHL DUP2 MSTORE PUSH1 0x4 DUP2 ADD DUP9 SWAP1 MSTORE PUSH1 0x14 PUSH1 0x24 DUP3 ADD MSTORE PUSH32 0x7669727475616C20657468207265717569726564000000000000000000000000 PUSH1 0x44 DUP3 ADD MSTORE PUSH1 0x64 SWAP1 REVERT JUMPDEST POP DUP14 MLOAD PUSH3 0x461BCD PUSH1 0xE5 SHL DUP2 MSTORE PUSH1 0x4 DUP2 ADD DUP9 SWAP1 MSTORE PUSH1 0x1B PUSH1 0x24 DUP3 ADD MSTORE PUSH32 0x706C6174666F726D20726563697069656E742072657175697265640000000000 PUSH1 0x44 DUP3 ADD MSTORE PUSH1 0x64 SWAP1 REVERT JUMPDEST POP DUP14 MLOAD PUSH3 0x461BCD PUSH1 0xE5 SHL DUP2 MSTORE PUSH1 0x4 DUP2 ADD DUP9 SWAP1 MSTORE PUSH1 0xC PUSH1 0x24 DUP3 ADD MSTORE PUSH12 0xCCCACA40E8DEDE40D0D2CED PUSH1 0xA3 SHL PUSH1 0x44 DUP3 ADD MSTORE PUSH1 0x64 SWAP1 REVERT JUMPDEST POP DUP14 MLOAD PUSH3 0x461BCD PUSH1 0xE5 SHL DUP2 MSTORE PUSH1 0x4 DUP2 ADD DUP9 SWAP1 MSTORE PUSH1 0x16 PUSH1 0x24 DUP3 ADD MSTORE PUSH32 0x66656520726563697069656E7420726571756972656400000000000000000000 PUSH1 0x44 DUP3 ADD MSTORE PUSH1 0x64 SWAP1 REVERT JUMPDEST PUSH1 0x0 DUP1 REVERT JUMPDEST PUSH4 0x4E487B71 PUSH1 0xE0 SHL PUSH1 0x0 MSTORE PUSH1 0x41 PUSH1 0x4 MSTORE PUSH1 0x24 PUSH1 0x0 REVERT JUMPDEST MLOAD SWAP1 PUSH1 0x1 PUSH1 0x1 PUSH1 0xA0 SHL SUB DUP3 AND DUP3 SUB PUSH3 0x384 JUMPI JUMP INVALID PUSH2 0x300 DUP1 PUSH1 0x40 MSTORE PUSH1 0x4 CALLDATASIZE LT ISZERO PUSH3 0x15 JUMPI PUSH1 0x0 DUP1 REVERT JUMPDEST PUSH1 0x0 PUSH2 0x1A0 MSTORE PUSH2 0x1A0 MLOAD CALLDATALOAD PUSH1 0xE0 SHR SWAP1 DUP2 PUSH4 0x261EF92 EQ PUSH3 0x5E55 JUMPI POP DUP1 PUSH4 0xB0420BB EQ PUSH3 0x5E12 JUMPI DUP1 PUSH4 0x1036338C EQ PUSH3 0x526C JUMPI DUP1 PUSH4 0x13ED4AA6 EQ PUSH3 0x523F JUMPI DUP1 PUSH4 0x150004EB EQ PUSH3 0x5215 JUMPI DUP1 PUSH4 0x1C8C0D92 EQ PUSH3 0x51F3 JUMPI DUP1 PUSH4 0x39CBFA1F EQ PUSH3 0x51D2 JUMPI DUP1 PUSH4 0x3C0F4305 EQ PUSH3 0x462F JUMPI DUP1 PUSH4 0x46904840 EQ PUSH3 0x4602 JUMPI DUP1 PUSH4 0x4A9DDFDD EQ PUSH3 0x45E2 JUMPI DUP1 PUSH4 0x5930D3CE EQ PUSH3 0x454E JUMPI DUP1 PUSH4 0x5DE3BAFB EQ PUSH3 0x3592 JUMPI DUP1 PUSH4 0x63F0EB04 EQ PUSH3 0x3570 JUMPI DUP1 PUSH4 0x80FA02F7 EQ PUSH3 0x354F JUMPI DUP1 PUSH4 0x83EEB3BB EQ PUSH3 0x352D JUMPI DUP1 PUSH4 0x8DA5CB5B EQ PUSH3 0x34FE JUMPI DUP1 PUSH4 0x93A8E04D EQ PUSH3 0x34DC JUMPI DUP1 PUSH4 0x96875AA0 EQ PUSH3 0x2731 JUMPI DUP1 PUSH4 0x9B3B9F98 EQ PUSH3 0x26A4 JUMPI DUP1 PUSH4 0x9FF0251F EQ PUSH3 0x2682 JUMPI DUP1 PUSH4 0xB3602ACD EQ PUSH3 0x2658 JUMPI DUP1 PUSH4 0xBCAE25A4 EQ PUSH3 0x2636 JUMPI DUP1 PUSH4 0xD578192C EQ PUSH3 0x2609 JUMPI DUP1 PUSH4 0xE1A45218 EQ PUSH3 0x25E8 JUMPI DUP1 PUSH4 0xEB13554F EQ PUSH3 0x25BB JUMPI DUP1 PUSH4 0xEB487999 EQ PUSH3 0x21C4 JUMPI DUP1 PUSH4 0xF0181892 EQ PUSH3 0x13EA JUMPI DUP1 PUSH4 0xF2FDE38B EQ PUSH3 0x1323 JUMPI DUP1 PUSH4 0xFCCC2813 EQ PUSH3 0x1302 JUMPI PUSH4 0xFD04BBAC EQ PUSH3 0x191 JUMPI PUSH1 0x0 DUP1 REVERT JUMPDEST PUSH3 0x19C CALLDATASIZE PUSH3 0x5F59 JUMP JUMPDEST PUSH1 0xE0 MSTORE PUSH1 0xC0 MSTORE POP PUSH1 0x80 MSTORE PUSH1 0x4 SLOAD SWAP6 SWAP7 SWAP4 SWAP6 SWAP1 SWAP3 SWAP1 PUSH3 0x1CA SWAP1 PUSH3 0x1C3 CALLVALUE DUP3 GT ISZERO PUSH3 0x63BC JUMP JUMPDEST CALLVALUE PUSH3 0x6409 JUMP JUMPDEST SWAP6 DUP7 ISZERO SWAP6 DUP7 DUP1 PUSH3 0x12EC JUMPI JUMPDEST DUP8 ISZERO PUSH3 0x12B1 JUMPI JUMPDEST POP PUSH3 0x1E9 PUSH3 0x6679 JUMP JUMPDEST PUSH1 0x40 MLOAD DUP9 DUP2 MSTORE PUSH32 0xB610EA5B60C2E916119AD74EB6F1C4E02B296189E982F615F38630738BE97865 PUSH1 0x20 CALLER SWAP3 LOG2 DUP9 ISZERO PUSH3 0x127C JUMPI DUP2 ISZERO PUSH3 0x1245 JUMPI PUSH2 0x7D0 PUSH1 0xC0 MLOAD GT PUSH3 0x120A JUMPI PUSH2 0x3E8 PUSH1 0xE0 MLOAD GT PUSH3 0x11D0 JUMPI PUSH1 0x2 SLOAD PUSH1 0x40 MLOAD SWAP1 PUSH1 0x1 PUSH1 0x1 PUSH1 0xA0 SHL SUB AND PUSH1 0x1 PUSH1 0x1 PUSH1 0x40 SHL SUB PUSH2 0x1808 DUP4 ADD SWAP1 DUP2 GT SWAP1 DUP4 GT OR PUSH3 0xAB2 JUMPI DUP2 SWAP1 PUSH2 0x1808 PUSH3 0x9C83 DUP4 CODECOPY PUSH1 0xE0 PUSH2 0x1808 DUP4 ADD DUP2 DUP2 MSTORE PUSH3 0x2A4 SWAP2 PUSH3 0x28C SWAP2 ADD DUP15 DUP13 PUSH3 0x6780 JUMP JUMPDEST PUSH2 0x1808 DUP5 ADD DUP2 SUB PUSH1 0x20 PUSH2 0x1808 DUP7 ADD ADD MSTORE DUP7 DUP7 PUSH3 0x6780 JUMP JUMPDEST SWAP1 PUSH8 0x6765C793FA10079D PUSH1 0x1B SHL PUSH1 0x40 PUSH2 0x1808 DUP6 ADD ADD MSTORE ADDRESS PUSH1 0x60 PUSH2 0x1808 DUP6 ADD ADD MSTORE CALLER PUSH1 0x80 PUSH2 0x1808 DUP6 ADD ADD MSTORE PUSH1 0xA0 PUSH2 0x1808 DUP5 ADD ADD MSTORE PUSH1 0xE0 MLOAD PUSH1 0xC0 PUSH2 0x1808 DUP5 ADD ADD MSTORE SUB SWAP1 PUSH2 0x1A0 MLOAD CREATE PUSH2 0x100 MSTORE PUSH2 0x100 MLOAD ISZERO PUSH3 0x989 JUMPI PUSH1 0x2 SLOAD PUSH1 0x1 PUSH1 0x1 PUSH1 0xA0 SHL SUB AND CALLER EQ SWAP8 PUSH3 0x312 DUP10 PUSH3 0x67DC JUMP JUMPDEST PUSH1 0xA0 MSTORE PUSH1 0x1 SLOAD PUSH1 0x3 SLOAD PUSH1 0x5 SLOAD PUSH1 0x6 SLOAD PUSH1 0x7 SLOAD PUSH1 0x8 SLOAD PUSH1 0xA SLOAD PUSH1 0x40 MLOAD SWAP7 PUSH1 0x1 PUSH1 0x1 PUSH1 0xA0 SHL SUB SWAP1 DUP2 AND SWAP7 SWAP2 SWAP6 SWAP3 AND SWAP4 SWAP2 SWAP1 PUSH1 0x1 PUSH1 0x1 PUSH1 0x40 SHL SUB PUSH2 0x3464 DUP10 ADD SWAP1 DUP2 GT SWAP1 DUP10 GT OR PUSH3 0xAB2 JUMPI PUSH3 0xFFFFFF SWAP7 PUSH2 0x3464 PUSH3 0x681F DUP11 CODECOPY PUSH2 0x100 DUP1 MLOAD PUSH1 0x1 PUSH1 0x1 PUSH1 0xA0 SHL SUB SWAP1 DUP2 AND PUSH2 0x3464 DUP13 ADD SWAP1 DUP2 MSTORE ADDRESS PUSH1 0x20 DUP3 ADD MSTORE PUSH1 0x40 DUP2 ADD SWAP4 SWAP1 SWAP4 MSTORE PUSH1 0x60 DUP4 ADD SWAP4 SWAP1 SWAP4 MSTORE PUSH1 0x80 DUP3 ADD SWAP4 SWAP1 SWAP4 MSTORE PUSH1 0xA0 DUP2 DUP2 ADD SWAP5 SWAP1 SWAP5 MSTORE PUSH1 0xC0 DUP2 ADD SWAP5 SWAP1 SWAP5 MSTORE PUSH1 0xE0 DUP5 ADD SWAP5 SWAP1 SWAP5 MSTORE DUP2 MLOAD DUP5 AND SWAP1 DUP4 ADD MSTORE SWAP2 DUP4 AND PUSH2 0x120 DUP3 ADD MSTORE SWAP2 SWAP1 SHR SWAP2 SWAP1 SWAP2 AND PUSH2 0x140 DUP3 ADD MSTORE DUP2 SWAP1 SUB PUSH2 0x160 ADD SWAP2 CREATE SWAP8 DUP9 ISZERO PUSH3 0x989 JUMPI PUSH1 0xC0 MLOAD PUSH8 0x6765C793FA10079D PUSH1 0x1B SHL MUL SWAP8 PUSH8 0x6765C793FA10079D PUSH1 0x1B SHL DUP10 DIV PUSH1 0xC0 MLOAD SUB PUSH3 0x11B6 JUMPI PUSH8 0x6765C793FA10079D PUSH1 0x1B SHL PUSH2 0x2710 DUP11 DIV DUP2 SUB GT PUSH3 0x11B6 JUMPI PUSH1 0x40 MLOAD PUSH4 0xA9059CBB PUSH1 0xE0 SHL DUP2 MSTORE PUSH1 0x1 PUSH1 0x1 PUSH1 0xA0 SHL SUB DUP12 DUP2 AND PUSH1 0x4 DUP4 ADD MSTORE PUSH2 0x2710 DUP12 DIV PUSH8 0x6765C793FA10079D PUSH1 0x1B SHL SUB PUSH1 0x24 DUP4 ADD MSTORE PUSH2 0x1A0 MLOAD PUSH2 0x100 MLOAD PUSH1 0x20 SWAP3 DUP5 SWAP3 PUSH1 0x44 SWAP3 DUP5 SWAP3 AND GAS CALL SWAP1 DUP2 ISZERO PUSH3 0x989 JUMPI PUSH2 0x1A0 MLOAD SWAP2 PUSH3 0x1192 JUMPI JUMPDEST POP ISZERO PUSH3 0x1156 JUMPI PUSH2 0x2710 DUP10 DIV PUSH3 0x1099 JUMPI JUMPDEST PUSH1 0x1 PUSH1 0x1 PUSH1 0xA0 SHL SUB DUP11 AND EXTCODESIZE ISZERO PUSH3 0xDDB JUMPI PUSH1 0x40 MLOAD PUSH4 0x95564837 PUSH1 0xE0 SHL DUP2 MSTORE PUSH2 0x2710 DUP11 DIV PUSH8 0x6765C793FA10079D PUSH1 0x1B SHL SUB PUSH1 0x4 DUP3 ADD MSTORE DUP11 DUP2 PUSH1 0x24 DUP2 PUSH2 0x1A0 MLOAD SWAP4 PUSH2 0x1A0 MLOAD SWAP1 PUSH1 0x1 DUP1 PUSH1 0xA0 SHL SUB AND GAS CALL DUP1 ISZERO PUSH3 0x989 JUMPI PUSH3 0x107E JUMPI JUMPDEST POP DUP1 PUSH3 0xEB0 JUMPI POP PUSH1 0x1 PUSH1 0x1 PUSH1 0xA0 SHL SUB DUP10 AND EXTCODESIZE ISZERO PUSH3 0xDDB JUMPI PUSH1 0x40 MLOAD PUSH4 0x1C7031D7 PUSH1 0xE3 SHL DUP2 MSTORE PUSH2 0x1A0 MLOAD DUP2 PUSH1 0x4 DUP2 DUP4 PUSH1 0x1 PUSH1 0x1 PUSH1 0xA0 SHL SUB DUP16 AND GAS CALL DUP1 ISZERO PUSH3 0x989 JUMPI PUSH3 0xE95 JUMPI JUMPDEST POP PUSH1 0x40 MLOAD PUSH4 0x6B456EF PUSH1 0xE2 SHL DUP2 MSTORE PUSH1 0x20 DUP2 PUSH1 0x4 DUP2 PUSH1 0x1 PUSH1 0x1 PUSH1 0xA0 SHL SUB DUP15 AND GAS STATICCALL SWAP1 DUP2 ISZERO PUSH3 0x989 JUMPI PUSH2 0x1A0 MLOAD SWAP2 PUSH3 0xE5F JUMPI JUMPDEST POP PUSH1 0x1 PUSH1 0x1 PUSH1 0xA0 SHL SUB DUP2 AND PUSH3 0xDEE JUMPI JUMPDEST POP DUP1 ISZERO SWAP1 PUSH3 0xDE2 JUMPI JUMPDEST PUSH3 0xD6F JUMPI JUMPDEST PUSH2 0x100 MLOAD PUSH2 0x1A0 DUP1 MLOAD PUSH1 0x1 PUSH1 0x1 PUSH1 0xA0 SHL SUB SWAP3 DUP4 AND SWAP1 MSTORE PUSH1 0xC PUSH1 0x20 MSTORE MLOAD PUSH1 0x40 SWAP1 KECCAK256 DUP1 SLOAD PUSH1 0x1 PUSH1 0x1 PUSH1 0xA0 SHL SUB NOT AND SWAP2 DUP11 AND SWAP2 SWAP1 SWAP2 OR SWAP1 SSTORE PUSH1 0xB SLOAD SWAP9 PUSH1 0x1 PUSH1 0x40 SHL DUP11 LT ISZERO PUSH3 0xAB2 JUMPI PUSH1 0x1 DUP11 ADD PUSH1 0xB SSTORE PUSH3 0x5E4 DUP11 PUSH3 0x61DA JUMP JUMPDEST POP POP PUSH3 0x5F1 DUP11 PUSH3 0x61DA JUMP JUMPDEST POP PUSH2 0x100 MLOAD DUP2 SLOAD PUSH1 0x1 PUSH1 0x1 PUSH1 0xA0 SHL SUB NOT SWAP1 DUP2 AND PUSH1 0x1 PUSH1 0x1 PUSH1 0xA0 SHL SUB SWAP3 DUP4 AND OR DUP4 SSTORE PUSH1 0x1 DUP4 ADD DUP1 SLOAD DUP3 AND SWAP3 DUP14 AND SWAP3 SWAP1 SWAP3 OR SWAP1 SWAP2 SSTORE PUSH1 0x2 DUP3 ADD DUP1 SLOAD SWAP1 SWAP2 AND CALLER OR SWAP1 SSTORE SWAP7 PUSH1 0x1 PUSH1 0x1 PUSH1 0x40 SHL SUB DUP3 GT PUSH3 0xAB2 JUMPI DUP2 SWAP1 PUSH3 0x652 PUSH1 0x3 DUP11 ADD SLOAD PUSH3 0x622C JUMP JUMPDEST PUSH1 0x1F DUP2 GT PUSH3 0xD11 JUMPI JUMPDEST POP PUSH2 0x1A0 MLOAD SWAP1 PUSH1 0x1F DUP4 GT PUSH1 0x1 EQ PUSH3 0xC9A JUMPI PUSH2 0x1A0 MLOAD SWAP3 PUSH3 0xC8E JUMPI JUMPDEST POP POP DUP2 PUSH1 0x1 SHL SWAP2 PUSH1 0x0 NOT SWAP1 PUSH1 0x3 SHL SHR NOT AND OR PUSH1 0x3 DUP8 ADD SSTORE JUMPDEST PUSH1 0x1 PUSH1 0x1 PUSH1 0x40 SHL SUB DUP3 GT PUSH3 0xAB2 JUMPI DUP2 SWAP1 PUSH3 0x6B1 PUSH1 0x4 DUP9 ADD SLOAD PUSH3 0x622C JUMP JUMPDEST PUSH1 0x1F DUP2 GT PUSH3 0xC30 JUMPI JUMPDEST POP PUSH2 0x1A0 MLOAD SWAP1 PUSH1 0x1F DUP4 GT PUSH1 0x1 EQ PUSH3 0xBB9 JUMPI PUSH2 0x1A0 MLOAD SWAP3 PUSH3 0xBAD JUMPI JUMPDEST POP POP DUP2 PUSH1 0x1 SHL SWAP2 PUSH1 0x0 NOT SWAP1 PUSH1 0x3 SHL SHR NOT AND OR PUSH1 0x4 DUP6 ADD SSTORE JUMPDEST PUSH1 0x1 PUSH1 0x1 PUSH1 0x40 SHL SUB DUP3 GT PUSH3 0xAB2 JUMPI DUP2 SWAP1 PUSH3 0x710 PUSH1 0x5 DUP7 ADD SLOAD PUSH3 0x622C JUMP JUMPDEST PUSH1 0x1F DUP2 GT PUSH3 0xB4F JUMPI JUMPDEST POP PUSH2 0x1A0 MLOAD SWAP1 PUSH1 0x1F DUP4 GT PUSH1 0x1 EQ PUSH3 0xAD8 JUMPI PUSH2 0x1A0 MLOAD SWAP3 PUSH3 0xACC JUMPI JUMPDEST POP POP DUP2 PUSH1 0x1 SHL SWAP2 PUSH1 0x0 NOT SWAP1 PUSH1 0x3 SHL SHR NOT AND OR PUSH1 0x5 DUP4 ADD SSTORE JUMPDEST PUSH1 0x1 PUSH1 0x1 PUSH1 0x40 SHL SUB PUSH1 0x80 MLOAD GT PUSH3 0xAB2 JUMPI PUSH3 0x76F PUSH1 0x6 DUP4 ADD SLOAD PUSH3 0x622C JUMP JUMPDEST PUSH1 0x1F DUP2 GT PUSH3 0xA5C JUMPI JUMPDEST POP PUSH2 0x1A0 MLOAD PUSH1 0x1F PUSH1 0x80 MLOAD GT PUSH1 0x1 EQ PUSH3 0x9DB JUMPI PUSH2 0x1A0 MLOAD SWAP2 PUSH1 0x80 MLOAD PUSH3 0x9CF JUMPI JUMPDEST POP POP PUSH1 0x80 MLOAD PUSH1 0x1 SHL SWAP1 PUSH1 0x0 NOT PUSH1 0x80 MLOAD PUSH1 0x3 SHL SHR NOT AND OR PUSH1 0x6 DUP3 ADD SSTORE JUMPDEST PUSH8 0x6765C793FA10079D PUSH1 0x1B SHL PUSH1 0x7 DUP3 ADD SSTORE PUSH2 0x2710 DUP3 DIV PUSH1 0x8 DUP3 ADD SSTORE PUSH1 0x9 TIMESTAMP SWAP2 ADD SSTORE PUSH3 0xFFFFFF PUSH1 0x3 SLOAD PUSH1 0x7 SLOAD PUSH1 0x1 DUP1 PUSH1 0xA0 SHL SUB PUSH1 0x8 SLOAD AND SWAP1 PUSH1 0xA SLOAD SWAP3 PUSH2 0x2710 PUSH1 0x40 MLOAD SWAP7 PUSH1 0x1 DUP1 PUSH1 0xA0 SHL SUB DUP10 AND DUP9 MSTORE PUSH8 0x6765C793FA10079D PUSH1 0x1B SHL PUSH1 0x20 DUP10 ADD MSTORE DIV PUSH1 0x40 DUP8 ADD MSTORE PUSH1 0x60 DUP7 ADD MSTORE PUSH1 0x80 DUP6 ADD MSTORE PUSH1 0xA0 DUP5 ADD MSTORE PUSH1 0x1 DUP1 PUSH1 0xA0 SHL SUB PUSH1 0xA0 MLOAD AND PUSH1 0xC0 DUP5 ADD MSTORE PUSH1 0x1 DUP1 PUSH1 0xA0 SHL SUB DUP2 AND PUSH1 0xE0 DUP5 ADD MSTORE PUSH1 0xA0 SHR AND PUSH2 0x100 DUP3 ADD MSTORE PUSH1 0x1 DUP1 PUSH1 0xA0 SHL SUB PUSH2 0x100 MLOAD AND SWAP1 DUP4 PUSH1 0x0 DUP1 MLOAD PUSH1 0x20 PUSH3 0xB4AB DUP4 CODECOPY DUP2 MLOAD SWAP2 MSTORE PUSH2 0x120 CALLER SWAP4 LOG4 PUSH1 0x40 MLOAD PUSH4 0x17773EBB PUSH1 0xE0 SHL DUP2 MSTORE PUSH2 0x100 MLOAD PUSH1 0x20 SWAP1 DUP3 SWAP1 PUSH1 0x4 SWAP1 DUP3 SWAP1 PUSH1 0x1 PUSH1 0x1 PUSH1 0xA0 SHL SUB AND GAS STATICCALL SWAP1 DUP2 ISZERO PUSH3 0x989 JUMPI PUSH2 0x1A0 MLOAD SWAP2 PUSH3 0x997 JUMPI JUMPDEST POP PUSH1 0x40 MLOAD PUSH4 0x116E689F PUSH1 0xE1 SHL DUP2 MSTORE PUSH2 0x100 MLOAD PUSH1 0x20 SWAP1 DUP3 SWAP1 PUSH1 0x4 SWAP1 DUP3 SWAP1 PUSH1 0x1 PUSH1 0x1 PUSH1 0xA0 SHL SUB AND GAS STATICCALL SWAP1 DUP2 ISZERO PUSH3 0x989 JUMPI PUSH2 0x1A0 MLOAD SWAP2 PUSH3 0x94C JUMPI JUMPDEST POP PUSH1 0x40 MLOAD SWAP2 PUSH1 0xE0 MLOAD DUP4 MSTORE PUSH1 0x20 DUP4 ADD MSTORE PUSH1 0x40 DUP3 ADD MSTORE DUP3 PUSH1 0x0 DUP1 MLOAD PUSH1 0x20 PUSH3 0xB4CB DUP4 CODECOPY DUP2 MLOAD SWAP2 MSTORE PUSH1 0x60 PUSH1 0x1 DUP1 PUSH1 0xA0 SHL SUB PUSH2 0x100 MLOAD AND SWAP4 LOG3 PUSH1 0x40 DUP1 MLOAD PUSH2 0x100 MLOAD SWAP4 DUP2 MSTORE PUSH1 0x1 PUSH1 0x1 PUSH1 0xA0 SHL SUB SWAP4 DUP5 AND PUSH1 0x20 DUP3 ADD MSTORE SWAP2 SWAP1 SWAP3 AND SWAP2 DUP2 ADD SWAP2 SWAP1 SWAP2 MSTORE PUSH1 0x60 SWAP1 RETURN JUMPDEST SUB SWAP1 RETURN JUMPDEST SWAP1 POP PUSH1 0x20 DUP2 RETURNDATASIZE PUSH1 0x20 GT PUSH3 0x980 JUMPI JUMPDEST DUP2 PUSH3 0x96A PUSH1 0x20 SWAP4 DUP4 PUSH3 0x6167 JUMP JUMPDEST DUP2 ADD SUB SLT PUSH3 0x97B JUMPI MLOAD CODESIZE PUSH3 0x8E8 JUMP JUMPDEST PUSH1 0x0 DUP1 REVERT JUMPDEST RETURNDATASIZE SWAP2 POP PUSH3 0x95B JUMP JUMPDEST PUSH1 0x40 MLOAD RETURNDATASIZE PUSH2 0x1A0 MLOAD DUP3 RETURNDATACOPY RETURNDATASIZE SWAP1 REVERT JUMPDEST SWAP1 POP PUSH1 0x20 DUP2 RETURNDATASIZE PUSH1 0x20 GT PUSH3 0x9C6 JUMPI JUMPDEST DUP2 PUSH3 0x9B5 PUSH1 0x20 SWAP4 DUP4 PUSH3 0x6167 JUMP JUMPDEST DUP2 ADD SUB SLT PUSH3 0x97B JUMPI MLOAD CODESIZE PUSH3 0x8AE JUMP JUMPDEST RETURNDATASIZE SWAP2 POP PUSH3 0x9A6 JUMP JUMPDEST ADD CALLDATALOAD SWAP1 POP CODESIZE DUP1 PUSH3 0x79A JUMP JUMPDEST SWAP1 PUSH1 0x6 DUP4 ADD PUSH2 0x1A0 MLOAD MSTORE PUSH1 0x20 PUSH2 0x1A0 MLOAD KECCAK256 SWAP2 PUSH2 0x1A0 MLOAD JUMPDEST PUSH1 0x80 MLOAD PUSH1 0x1F NOT AND DUP2 LT PUSH3 0xA43 JUMPI POP PUSH1 0x80 MLOAD PUSH1 0x1F NOT DUP2 AND LT PUSH3 0xA26 JUMPI JUMPDEST POP POP POP PUSH1 0x1 PUSH1 0x80 MLOAD DUP2 SHL ADD PUSH1 0x6 DUP3 ADD SSTORE PUSH3 0x7B6 JUMP JUMPDEST PUSH1 0x0 NOT PUSH1 0xF8 PUSH1 0x80 MLOAD PUSH1 0x3 SHL AND SHR NOT SWAP2 ADD CALLDATALOAD AND SWAP1 SSTORE CODESIZE DUP1 DUP1 PUSH3 0xA10 JUMP JUMPDEST SWAP1 SWAP3 PUSH1 0x20 PUSH1 0x1 DUP2 SWAP3 DUP7 DUP7 ADD CALLDATALOAD DUP2 SSTORE ADD SWAP5 ADD SWAP2 ADD PUSH3 0x9F2 JUMP JUMPDEST PUSH1 0x6 DUP4 ADD PUSH2 0x1A0 MLOAD MSTORE PUSH1 0x20 PUSH2 0x1A0 MLOAD KECCAK256 PUSH1 0x1F PUSH1 0x80 MLOAD ADD PUSH1 0x5 SHR DUP2 ADD PUSH1 0x20 PUSH1 0x80 MLOAD LT PUSH3 0xAAA JUMPI JUMPDEST PUSH1 0x1F DUP4 ADD PUSH1 0x5 SHR DUP3 ADD DUP2 LT PUSH3 0xA9B JUMPI POP POP PUSH3 0x779 JUMP JUMPDEST PUSH2 0x1A0 MLOAD DUP2 SSTORE PUSH1 0x1 ADD PUSH3 0xA83 JUMP JUMPDEST POP DUP1 PUSH3 0xA83 JUMP JUMPDEST PUSH4 0x4E487B71 PUSH1 0xE0 SHL PUSH2 0x1A0 MLOAD MSTORE PUSH1 0x41 PUSH1 0x4 MSTORE PUSH1 0x24 PUSH2 0x1A0 MLOAD REVERT JUMPDEST ADD CALLDATALOAD SWAP1 POP CODESIZE DUP1 PUSH3 0x737 JUMP JUMPDEST PUSH2 0x1A0 DUP1 MLOAD PUSH1 0x5 DUP9 ADD SWAP1 MSTORE MLOAD PUSH1 0x20 DUP2 KECCAK256 SWAP1 SWAP5 POP SWAP2 JUMPDEST PUSH1 0x1F NOT DUP5 AND DUP6 LT PUSH3 0xB36 JUMPI PUSH1 0x1 SWAP5 POP DUP4 PUSH1 0x1F NOT DUP2 AND LT PUSH3 0xB1B JUMPI JUMPDEST POP POP POP DUP2 SHL ADD PUSH1 0x5 DUP4 ADD SSTORE PUSH3 0x74F JUMP JUMPDEST ADD CALLDATALOAD PUSH1 0x0 NOT PUSH1 0x3 DUP5 SWAP1 SHL PUSH1 0xF8 AND SHR NOT AND SWAP1 SSTORE CODESIZE DUP1 DUP1 PUSH3 0xB0A JUMP JUMPDEST DUP2 DUP2 ADD CALLDATALOAD DUP4 SSTORE PUSH1 0x20 SWAP5 DUP6 ADD SWAP5 PUSH1 0x1 SWAP1 SWAP4 ADD SWAP3 ADD PUSH3 0xAED JUMP JUMPDEST SWAP1 SWAP2 POP PUSH1 0x5 DUP6 ADD PUSH2 0x1A0 MLOAD MSTORE PUSH1 0x20 PUSH2 0x1A0 MLOAD KECCAK256 PUSH1 0x1F DUP5 ADD PUSH1 0x5 SHR DUP2 ADD PUSH1 0x20 DUP6 LT PUSH3 0xBA5 JUMPI JUMPDEST SWAP1 DUP5 SWAP4 SWAP3 SWAP2 JUMPDEST PUSH1 0x1F DUP4 ADD PUSH1 0x5 SHR DUP3 ADD DUP2 LT PUSH3 0xB93 JUMPI POP POP PUSH3 0x71A JUMP JUMPDEST PUSH2 0x1A0 MLOAD DUP2 SSTORE DUP6 SWAP5 POP PUSH1 0x1 ADD PUSH3 0xB7B JUMP JUMPDEST POP DUP1 PUSH3 0xB75 JUMP JUMPDEST ADD CALLDATALOAD SWAP1 POP CODESIZE DUP1 PUSH3 0x6D8 JUMP JUMPDEST PUSH2 0x1A0 DUP1 MLOAD PUSH1 0x4 DUP11 ADD SWAP1 MSTORE MLOAD PUSH1 0x20 DUP2 KECCAK256 SWAP1 SWAP5 POP SWAP2 JUMPDEST PUSH1 0x1F NOT DUP5 AND DUP6 LT PUSH3 0xC17 JUMPI PUSH1 0x1 SWAP5 POP DUP4 PUSH1 0x1F NOT DUP2 AND LT PUSH3 0xBFC JUMPI JUMPDEST POP POP POP DUP2 SHL ADD PUSH1 0x4 DUP6 ADD SSTORE PUSH3 0x6F0 JUMP JUMPDEST ADD CALLDATALOAD PUSH1 0x0 NOT PUSH1 0x3 DUP5 SWAP1 SHL PUSH1 0xF8 AND SHR NOT AND SWAP1 SSTORE CODESIZE DUP1 DUP1 PUSH3 0xBEB JUMP JUMPDEST DUP2 DUP2 ADD CALLDATALOAD DUP4 SSTORE PUSH1 0x20 SWAP5 DUP6 ADD SWAP5 PUSH1 0x1 SWAP1 SWAP4 ADD SWAP3 ADD PUSH3 0xBCE JUMP JUMPDEST SWAP1 SWAP2 POP PUSH1 0x4 DUP8 ADD PUSH2 0x1A0 MLOAD MSTORE PUSH1 0x20 PUSH2 0x1A0 MLOAD KECCAK256 PUSH1 0x1F DUP5 ADD PUSH1 0x5 SHR DUP2 ADD PUSH1 0x20 DUP6 LT PUSH3 0xC86 JUMPI JUMPDEST SWAP1 DUP5 SWAP4 SWAP3 SWAP2 JUMPDEST PUSH1 0x1F DUP4 ADD PUSH1 0x5 SHR DUP3 ADD DUP2 LT PUSH3 0xC74 JUMPI POP POP PUSH3 0x6BB JUMP JUMPDEST PUSH2 0x1A0 MLOAD DUP2 SSTORE DUP6 SWAP5 POP PUSH1 0x1 ADD PUSH3 0xC5C JUMP JUMPDEST POP DUP1 PUSH3 0xC56 JUMP JUMPDEST ADD CALLDATALOAD SWAP1 POP CODESIZE DUP1 PUSH3 0x679 JUMP JUMPDEST PUSH2 0x1A0 DUP1 MLOAD PUSH1 0x3 DUP13 ADD SWAP1 MSTORE MLOAD PUSH1 0x20 DUP2 KECCAK256 SWAP1 SWAP5 POP SWAP2 JUMPDEST PUSH1 0x1F NOT DUP5 AND DUP6 LT PUSH3 0xCF8 JUMPI PUSH1 0x1 SWAP5 POP DUP4 PUSH1 0x1F NOT DUP2 AND LT PUSH3 0xCDD JUMPI JUMPDEST POP POP POP DUP2 SHL ADD PUSH1 0x3 DUP8 ADD SSTORE PUSH3 0x691 JUMP JUMPDEST ADD CALLDATALOAD PUSH1 0x0 NOT PUSH1 0x3 DUP5 SWAP1 SHL PUSH1 0xF8 AND SHR NOT AND SWAP1 SSTORE CODESIZE DUP1 DUP1 PUSH3 0xCCC JUMP JUMPDEST DUP2 DUP2 ADD CALLDATALOAD DUP4 SSTORE PUSH1 0x20 SWAP5 DUP6 ADD SWAP5 PUSH1 0x1 SWAP1 SWAP4 ADD SWAP3 ADD PUSH3 0xCAF JUMP JUMPDEST SWAP1 SWAP2 POP PUSH1 0x3 DUP10 ADD PUSH2 0x1A0 MLOAD MSTORE PUSH1 0x20 PUSH2 0x1A0 MLOAD KECCAK256 PUSH1 0x1F DUP5 ADD PUSH1 0x5 SHR DUP2 ADD PUSH1 0x20 DUP6 LT PUSH3 0xD67 JUMPI JUMPDEST SWAP1 DUP5 SWAP4 SWAP3 SWAP2 JUMPDEST PUSH1 0x1F DUP4 ADD PUSH1 0x5 SHR DUP3 ADD DUP2 LT PUSH3 0xD55 JUMPI POP POP PUSH3 0x65C JUMP JUMPDEST PUSH2 0x1A0 MLOAD DUP2 SSTORE DUP6 SWAP5 POP PUSH1 0x1 ADD PUSH3 0xD3D JUMP JUMPDEST POP DUP1 PUSH3 0xD37 JUMP JUMPDEST PUSH2 0x100 MLOAD PUSH1 0x1 PUSH1 0x1 PUSH1 0xA0 SHL SUB AND EXTCODESIZE ISZERO PUSH3 0xDDB JUMPI PUSH1 0x40 MLOAD PUSH4 0x6E258E07 PUSH1 0xE1 SHL DUP2 MSTORE PUSH2 0x1A0 MLOAD PUSH2 0x100 MLOAD DUP3 SWAP1 PUSH1 0x4 SWAP1 DUP3 SWAP1 DUP5 SWAP1 PUSH1 0x1 PUSH1 0x1 PUSH1 0xA0 SHL SUB AND GAS CALL DUP1 ISZERO PUSH3 0x989 JUMPI PUSH3 0xDC0 JUMPI JUMPDEST POP PUSH3 0x58C JUMP JUMPDEST PUSH3 0xDCB SWAP1 PUSH3 0x6120 JUMP JUMPDEST PUSH2 0x1A0 MLOAD PUSH3 0xDDB JUMPI CODESIZE PUSH3 0xDB9 JUMP JUMPDEST PUSH2 0x1A0 MLOAD DUP1 REVERT JUMPDEST POP PUSH2 0x1237 CHAINID EQ PUSH3 0x586 JUMP JUMPDEST PUSH2 0x100 MLOAD PUSH1 0x1 PUSH1 0x1 PUSH1 0xA0 SHL SUB AND EXTCODESIZE ISZERO PUSH3 0xDDB JUMPI PUSH1 0x40 MLOAD PUSH4 0x15C6DEB9 PUSH1 0xE3 SHL DUP2 MSTORE PUSH1 0x1 PUSH1 0x1 PUSH1 0xA0 SHL SUB SWAP2 DUP3 AND PUSH1 0x4 DUP3 ADD MSTORE PUSH2 0x1A0 MLOAD PUSH2 0x100 MLOAD SWAP2 SWAP3 SWAP1 SWAP2 DUP4 SWAP2 PUSH1 0x24 SWAP2 DUP4 SWAP2 DUP6 SWAP2 AND GAS CALL DUP1 ISZERO PUSH3 0x989 JUMPI ISZERO PUSH3 0x57C JUMPI PUSH3 0xE4F SWAP1 PUSH3 0x6120 JUMP JUMPDEST PUSH2 0x1A0 MLOAD PUSH3 0xDDB JUMPI CODESIZE PUSH3 0x57C JUMP JUMPDEST PUSH3 0xE86 SWAP2 POP PUSH1 0x20 RETURNDATASIZE PUSH1 0x20 GT PUSH3 0xE8D JUMPI JUMPDEST PUSH3 0xE7D DUP2 DUP4 PUSH3 0x6167 JUMP JUMPDEST DUP2 ADD SWAP1 PUSH3 0x67BB JUMP JUMPDEST CODESIZE PUSH3 0x56B JUMP JUMPDEST POP RETURNDATASIZE PUSH3 0xE71 JUMP JUMPDEST PUSH3 0xEA0 SWAP1 PUSH3 0x6120 JUMP JUMPDEST PUSH2 0x1A0 MLOAD PUSH3 0xDDB JUMPI CODESIZE PUSH3 0x538 JUMP JUMPDEST PUSH3 0xEBC JUMPI POP PUSH3 0x58C JUMP JUMPDEST PUSH1 0x1 PUSH1 0x1 PUSH1 0xA0 SHL SUB DUP10 AND EXTCODESIZE ISZERO PUSH3 0xDDB JUMPI PUSH1 0x40 MLOAD PUSH3 0xE2C3FD PUSH1 0xE1 SHL DUP2 MSTORE PUSH2 0x1A0 MLOAD DUP2 PUSH1 0x4 DUP2 DUP4 PUSH1 0x1 PUSH1 0x1 PUSH1 0xA0 SHL SUB DUP16 AND GAS CALL DUP1 ISZERO PUSH3 0x989 JUMPI PUSH3 0x1063 JUMPI JUMPDEST POP PUSH1 0x40 MLOAD PUSH4 0x6B456EF PUSH1 0xE2 SHL DUP2 MSTORE PUSH1 0x20 DUP2 PUSH1 0x4 DUP2 PUSH1 0x1 PUSH1 0x1 PUSH1 0xA0 SHL SUB DUP15 AND GAS STATICCALL SWAP1 DUP2 ISZERO PUSH3 0x989 JUMPI PUSH2 0x1A0 MLOAD SWAP2 PUSH3 0x103F JUMPI JUMPDEST POP PUSH1 0x1 PUSH1 0x1 PUSH1 0xA0 SHL SUB DUP2 AND PUSH3 0xFCE JUMPI JUMPDEST POP DUP1 ISZERO SWAP1 PUSH3 0xFC2 JUMPI JUMPDEST PUSH3 0xF56 JUMPI JUMPDEST CODESIZE PUSH3 0xDB9 JUMP JUMPDEST PUSH2 0x100 MLOAD PUSH1 0x1 PUSH1 0x1 PUSH1 0xA0 SHL SUB AND EXTCODESIZE ISZERO PUSH3 0xDDB JUMPI PUSH1 0x40 MLOAD PUSH4 0x6E258E07 PUSH1 0xE1 SHL DUP2 MSTORE PUSH2 0x1A0 MLOAD PUSH2 0x100 MLOAD DUP3 SWAP1 PUSH1 0x4 SWAP1 DUP3 SWAP1 DUP5 SWAP1 PUSH1 0x1 PUSH1 0x1 PUSH1 0xA0 SHL SUB AND GAS CALL DUP1 ISZERO PUSH3 0x989 JUMPI PUSH3 0xFA7 JUMPI JUMPDEST POP PUSH3 0xF4F JUMP JUMPDEST PUSH3 0xFB2 SWAP1 PUSH3 0x6120 JUMP JUMPDEST PUSH2 0x1A0 MLOAD PUSH3 0xDDB JUMPI CODESIZE PUSH3 0xFA0 JUMP JUMPDEST POP PUSH2 0x1237 CHAINID EQ PUSH3 0xF49 JUMP JUMPDEST PUSH2 0x100 MLOAD PUSH1 0x1 PUSH1 0x1 PUSH1 0xA0 SHL SUB AND EXTCODESIZE ISZERO PUSH3 0xDDB JUMPI PUSH1 0x40 MLOAD PUSH4 0x15C6DEB9 PUSH1 0xE3 SHL DUP2 MSTORE PUSH1 0x1 PUSH1 0x1 PUSH1 0xA0 SHL SUB SWAP2 DUP3 AND PUSH1 0x4 DUP3 ADD MSTORE PUSH2 0x1A0 MLOAD PUSH2 0x100 MLOAD SWAP2 SWAP3 SWAP1 SWAP2 DUP4 SWAP2 PUSH1 0x24 SWAP2 DUP4 SWAP2 DUP6 SWAP2 AND GAS CALL DUP1 ISZERO PUSH3 0x989 JUMPI ISZERO PUSH3 0xF3F JUMPI PUSH3 0x102F SWAP1 PUSH3 0x6120 JUMP JUMPDEST PUSH2 0x1A0 MLOAD PUSH3 0xDDB JUMPI CODESIZE PUSH3 0xF3F JUMP JUMPDEST PUSH3 0x105C SWAP2 POP PUSH1 0x20 RETURNDATASIZE PUSH1 0x20 GT PUSH3 0xE8D JUMPI PUSH3 0xE7D DUP2 DUP4 PUSH3 0x6167 JUMP JUMPDEST CODESIZE PUSH3 0xF2E JUMP JUMPDEST PUSH3 0x106E SWAP1 PUSH3 0x6120 JUMP JUMPDEST PUSH2 0x1A0 MLOAD PUSH3 0xDDB JUMPI CODESIZE PUSH3 0xEFB JUMP JUMPDEST PUSH3 0x1089 SWAP1 PUSH3 0x6120 JUMP JUMPDEST PUSH2 0x1A0 MLOAD PUSH3 0xDDB JUMPI CODESIZE PUSH3 0x4F0 JUMP JUMPDEST PUSH1 0x40 MLOAD PUSH4 0xA9059CBB PUSH1 0xE0 SHL DUP2 MSTORE CALLER PUSH1 0x4 DUP3 ADD MSTORE PUSH2 0x2710 DUP11 DIV PUSH1 0x24 DUP3 ADD MSTORE PUSH2 0x1A0 MLOAD PUSH2 0x100 MLOAD PUSH1 0x20 SWAP2 DUP4 SWAP2 PUSH1 0x44 SWAP2 DUP4 SWAP2 PUSH1 0x1 PUSH1 0x1 PUSH1 0xA0 SHL SUB AND GAS CALL SWAP1 DUP2 ISZERO PUSH3 0x989 JUMPI PUSH2 0x1A0 MLOAD SWAP2 PUSH3 0x1120 JUMPI JUMPDEST POP PUSH3 0x495 JUMPI PUSH1 0x40 MLOAD PUSH3 0x461BCD PUSH1 0xE5 SHL DUP2 MSTORE PUSH1 0x20 PUSH1 0x4 DUP3 ADD MSTORE PUSH1 0x17 PUSH1 0x24 DUP3 ADD MSTORE PUSH1 0x0 DUP1 MLOAD PUSH1 0x20 PUSH3 0xB48B DUP4 CODECOPY DUP2 MLOAD SWAP2 MSTORE PUSH1 0x44 DUP3 ADD MSTORE PUSH1 0x64 SWAP1 REVERT JUMPDEST PUSH3 0x1147 SWAP2 POP PUSH1 0x20 RETURNDATASIZE PUSH1 0x20 GT PUSH3 0x114E JUMPI JUMPDEST PUSH3 0x113E DUP2 DUP4 PUSH3 0x6167 JUMP JUMPDEST DUP2 ADD SWAP1 PUSH3 0x67A1 JUMP JUMPDEST CODESIZE PUSH3 0x10E6 JUMP JUMPDEST POP RETURNDATASIZE PUSH3 0x1132 JUMP JUMPDEST PUSH1 0x40 MLOAD PUSH3 0x461BCD PUSH1 0xE5 SHL DUP2 MSTORE PUSH1 0x20 PUSH1 0x4 DUP3 ADD MSTORE PUSH1 0x14 PUSH1 0x24 DUP3 ADD MSTORE PUSH20 0x1C1BDBDB081D1C985B9CD9995C8819985A5B1959 PUSH1 0x62 SHL PUSH1 0x44 DUP3 ADD MSTORE PUSH1 0x64 SWAP1 REVERT JUMPDEST PUSH3 0x11AF SWAP2 POP PUSH1 0x20 RETURNDATASIZE PUSH1 0x20 GT PUSH3 0x114E JUMPI PUSH3 0x113E DUP2 DUP4 PUSH3 0x6167 JUMP JUMPDEST CODESIZE PUSH3 0x483 JUMP JUMPDEST PUSH4 0x4E487B71 PUSH1 0xE0 SHL PUSH2 0x1A0 MLOAD MSTORE PUSH1 0x11 PUSH1 0x4 MSTORE PUSH1 0x24 PUSH2 0x1A0 MLOAD REVERT JUMPDEST PUSH1 0x40 MLOAD PUSH3 0x461BCD PUSH1 0xE5 SHL DUP2 MSTORE PUSH1 0x20 PUSH1 0x4 DUP3 ADD MSTORE PUSH1 0x12 PUSH1 0x24 DUP3 ADD MSTORE PUSH18 0xE8E4C2C8CA40CCCACA40E8DEDE40D0D2CED PUSH1 0x73 SHL PUSH1 0x44 DUP3 ADD MSTORE PUSH1 0x64 SWAP1 REVERT JUMPDEST PUSH1 0x40 MLOAD PUSH3 0x461BCD PUSH1 0xE5 SHL DUP2 MSTORE PUSH1 0x20 PUSH1 0x4 DUP3 ADD MSTORE PUSH1 0x13 PUSH1 0x24 DUP3 ADD MSTORE PUSH19 0xC2D8D8DEC6C2E8D2DEDC40E8DEDE40D0D2CED PUSH1 0x6B SHL PUSH1 0x44 DUP3 ADD MSTORE PUSH1 0x64 SWAP1 REVERT JUMPDEST PUSH1 0x40 MLOAD PUSH3 0x461BCD PUSH1 0xE5 SHL DUP2 MSTORE PUSH1 0x20 PUSH1 0x4 DUP3 ADD MSTORE PUSH1 0xF PUSH1 0x24 DUP3 ADD MSTORE PUSH15 0x1CDE5B589BDB081C995C5D5A5C9959 PUSH1 0x8A SHL PUSH1 0x44 DUP3 ADD MSTORE PUSH1 0x64 SWAP1 REVERT JUMPDEST PUSH1 0x40 MLOAD PUSH3 0x461BCD PUSH1 0xE5 SHL DUP2 MSTORE PUSH1 0x20 PUSH1 0x4 DUP3 ADD MSTORE PUSH1 0xD PUSH1 0x24 DUP3 ADD MSTORE PUSH13 0x1B985B59481C995C5D5A5C9959 PUSH1 0x9A SHL PUSH1 0x44 DUP3 ADD MSTORE PUSH1 0x64 SWAP1 REVERT JUMPDEST PUSH3 0x12E5 SWAP1 PUSH3 0x12DE PUSH1 0x1 DUP1 PUSH1 0xA0 SHL SUB PUSH3 0x12D2 DUP2 PUSH1 0x8 SLOAD AND ISZERO ISZERO PUSH3 0x642D JUMP JUMPDEST PUSH1 0x9 SLOAD AND ISZERO ISZERO PUSH3 0x646F JUMP JUMPDEST ISZERO PUSH3 0x64B3 JUMP JUMPDEST CODESIZE PUSH3 0x1DE JUMP JUMPDEST PUSH1 0xA SLOAD PUSH1 0x1 PUSH1 0x1 PUSH1 0xA0 SHL SUB AND ISZERO ISZERO SWAP8 POP PUSH3 0x1D6 JUMP JUMPDEST CALLVALUE PUSH3 0xDDB JUMPI PUSH2 0x1A0 MLOAD CALLDATASIZE PUSH1 0x3 NOT ADD SLT PUSH3 0xDDB JUMPI PUSH1 0x20 PUSH1 0x40 MLOAD PUSH2 0xDEAD DUP2 MSTORE RETURN JUMPDEST CALLVALUE PUSH3 0xDDB JUMPI PUSH1 0x20 CALLDATASIZE PUSH1 0x3 NOT ADD SLT PUSH3 0xDDB JUMPI PUSH3 0x1340 PUSH3 0x5E7D JUMP JUMPDEST PUSH2 0x1A0 MLOAD SLOAD PUSH1 0x1 PUSH1 0x1 PUSH1 0xA0 SHL SUB DUP1 DUP3 AND SWAP3 PUSH3 0x135E CALLER DUP6 EQ PUSH3 0x663F JUMP JUMPDEST AND SWAP2 DUP3 ISZERO PUSH3 0x13B4 JUMPI DUP3 SWAP1 PUSH32 0x8BE0079C531659141344CD1FD0A4F28419497F9722A3DAAFE3B4186F6B6457E0 PUSH2 0x1A0 MLOAD PUSH2 0x1A0 MLOAD LOG3 PUSH12 0xFFFFFFFFFFFFFFFFFFFFFFFF PUSH1 0xA0 SHL AND OR PUSH2 0x1A0 MLOAD SSTORE PUSH2 0x1A0 MLOAD PUSH2 0x1A0 MLOAD RETURN JUMPDEST PUSH1 0x40 MLOAD PUSH3 0x461BCD PUSH1 0xE5 SHL DUP2 MSTORE PUSH1 0x20 PUSH1 0x4 DUP3 ADD MSTORE PUSH1 0xE PUSH1 0x24 DUP3 ADD MSTORE PUSH14 0x1BDDDB995C881C995C5D5A5C9959 PUSH1 0x92 SHL PUSH1 0x44 DUP3 ADD MSTORE PUSH1 0x64 SWAP1 REVERT JUMPDEST PUSH3 0x13F5 CALLDATASIZE PUSH3 0x5F59 JUMP JUMPDEST PUSH2 0x160 MSTORE PUSH2 0x140 MSTORE POP PUSH1 0x8 SLOAD SWAP7 SWAP8 SWAP6 SWAP7 SWAP5 SWAP6 SWAP5 SWAP1 SWAP4 SWAP2 SWAP3 SWAP2 SWAP1 PUSH3 0x1424 SWAP1 PUSH1 0x1 PUSH1 0x1 PUSH1 0xA0 SHL SUB AND ISZERO ISZERO PUSH3 0x642D JUMP JUMPDEST PUSH1 0x9 SLOAD PUSH3 0x143D SWAP1 PUSH1 0x1 PUSH1 0x1 PUSH1 0xA0 SHL SUB AND ISZERO ISZERO PUSH3 0x646F JUMP JUMPDEST PUSH3 0x1451 PUSH1 0x4 SLOAD PUSH3 0x1C3 DUP2 CALLVALUE GT PUSH3 0x64B3 JUMP JUMPDEST SWAP6 PUSH3 0x145C PUSH3 0x6679 JUMP JUMPDEST PUSH1 0x40 MLOAD DUP8 DUP2 MSTORE PUSH32 0xAC9D85DC25663B5CC567AFAED6BB7823377F8F9F4164BC741A6ED341C04A8EC7 PUSH1 0x20 CALLER SWAP3 LOG2 DUP9 ISZERO PUSH3 0x127C JUMPI DUP1 ISZERO PUSH3 0x1245 JUMPI PUSH2 0x7D0 PUSH2 0x140 MLOAD GT PUSH3 0x120A JUMPI PUSH2 0x3E8 PUSH2 0x160 MLOAD GT PUSH3 0x11D0 JUMPI PUSH1 0x2 SLOAD PUSH1 0x40 MLOAD SWAP1 PUSH1 0x1 PUSH1 0x1 PUSH1 0xA0 SHL SUB AND PUSH1 0x1 PUSH1 0x1 PUSH1 0x40 SHL SUB PUSH2 0x1808 DUP4 ADD SWAP1 DUP2 GT SWAP1 DUP4 GT OR PUSH3 0xAB2 JUMPI DUP2 SWAP1 PUSH2 0x1808 PUSH3 0x9C83 DUP4 CODECOPY PUSH1 0xE0 PUSH2 0x1808 DUP4 ADD DUP2 DUP2 MSTORE PUSH3 0x1519 SWAP2 PUSH3 0x1501 SWAP2 ADD DUP15 DUP13 PUSH3 0x6780 JUMP JUMPDEST PUSH2 0x1808 DUP5 ADD DUP2 SUB PUSH1 0x20 PUSH2 0x1808 DUP7 ADD ADD MSTORE DUP6 DUP14 PUSH3 0x6780 JUMP JUMPDEST SWAP1 PUSH8 0x6765C793FA10079D PUSH1 0x1B SHL PUSH1 0x40 PUSH2 0x1808 DUP6 ADD ADD MSTORE ADDRESS PUSH1 0x60 PUSH2 0x1808 DUP6 ADD ADD MSTORE CALLER PUSH1 0x80 PUSH2 0x1808 DUP6 ADD ADD MSTORE PUSH1 0xA0 PUSH2 0x1808 DUP5 ADD ADD MSTORE PUSH2 0x160 MLOAD PUSH1 0xC0 PUSH2 0x1808 DUP5 ADD ADD MSTORE SUB SWAP1 PUSH2 0x1A0 MLOAD CREATE PUSH2 0x180 MSTORE PUSH2 0x180 MLOAD ISZERO PUSH3 0x989 JUMPI PUSH1 0x2 SLOAD PUSH1 0x1 PUSH1 0x1 PUSH1 0xA0 SHL SUB AND CALLER EQ SWAP7 PUSH3 0x1588 DUP9 PUSH3 0x67DC JUMP JUMPDEST PUSH2 0x120 MSTORE PUSH1 0x1 SLOAD PUSH1 0x3 SLOAD PUSH1 0x5 SLOAD PUSH1 0x6 SLOAD PUSH1 0x7 SLOAD PUSH1 0x8 SLOAD PUSH1 0xA SLOAD PUSH1 0x40 MLOAD SWAP7 PUSH1 0x1 PUSH1 0x1 PUSH1 0xA0 SHL SUB SWAP1 DUP2 AND SWAP7 SWAP2 SWAP6 SWAP3 AND SWAP4 SWAP2 SWAP1 PUSH1 0x1 PUSH1 0x1 PUSH1 0x40 SHL SUB PUSH2 0x3464 DUP10 ADD SWAP1 DUP2 GT SWAP1 DUP10 GT OR PUSH3 0xAB2 JUMPI PUSH3 0xFFFFFF SWAP7 PUSH2 0x3464 PUSH3 0x681F DUP11 CODECOPY PUSH2 0x180 MLOAD PUSH1 0x1 PUSH1 0x1 PUSH1 0xA0 SHL SUB SWAP1 DUP2 AND PUSH2 0x3464 DUP12 ADD SWAP1 DUP2 MSTORE ADDRESS PUSH1 0x20 DUP3 ADD MSTORE PUSH1 0x40 DUP2 ADD SWAP3 SWAP1 SWAP3 MSTORE PUSH1 0x60 DUP3 ADD SWAP3 SWAP1 SWAP3 MSTORE PUSH1 0x80 DUP2 ADD SWAP3 SWAP1 SWAP3 MSTORE PUSH1 0xA0 DUP3 DUP2 ADD SWAP4 SWAP1 SWAP4 MSTORE PUSH1 0xC0 DUP3 ADD SWAP4 SWAP1 SWAP4 MSTORE PUSH1 0xE0 DUP2 ADD SWAP4 SWAP1 SWAP4 MSTORE PUSH2 0x120 DUP1 MLOAD DUP4 AND PUSH2 0x100 DUP6 ADD MSTORE SWAP2 DUP5 AND SWAP2 DUP4 ADD SWAP2 SWAP1 SWAP2 MSTORE SWAP2 SWAP1 SWAP2 SHR SWAP2 SWAP1 SWAP2 AND PUSH2 0x140 DUP3 ADD MSTORE DUP2 SWAP1 SUB PUSH2 0x160 ADD SWAP2 CREATE SWAP8 DUP9 ISZERO PUSH3 0x989 JUMPI PUSH2 0x140 MLOAD PUSH8 0x6765C793FA10079D PUSH1 0x1B SHL MUL SWAP8 PUSH8 0x6765C793FA10079D PUSH1 0x1B SHL DUP10 DIV PUSH2 0x140 MLOAD SUB PUSH3 0x11B6 JUMPI PUSH8 0x6765C793FA10079D PUSH1 0x1B SHL PUSH2 0x2710 DUP11 DIV DUP2 SUB GT PUSH3 0x11B6 JUMPI PUSH1 0x40 MLOAD PUSH4 0xA9059CBB PUSH1 0xE0 SHL DUP2 MSTORE PUSH1 0x1 PUSH1 0x1 PUSH1 0xA0 SHL SUB DUP12 DUP2 AND PUSH1 0x4 DUP4 ADD MSTORE PUSH2 0x2710 DUP12 DIV PUSH8 0x6765C793FA10079D PUSH1 0x1B SHL SUB PUSH1 0x24 DUP4 ADD MSTORE PUSH2 0x1A0 MLOAD PUSH2 0x180 MLOAD PUSH1 0x20 SWAP3 DUP5 SWAP3 PUSH1 0x44 SWAP3 DUP5 SWAP3 AND GAS CALL SWAP1 DUP2 ISZERO PUSH3 0x989 JUMPI PUSH2 0x1A0 MLOAD SWAP2 PUSH3 0x21A0 JUMPI JUMPDEST POP ISZERO PUSH3 0x1156 JUMPI PUSH2 0x2710 DUP10 DIV PUSH3 0x20F5 JUMPI JUMPDEST PUSH1 0x1 PUSH1 0x1 PUSH1 0xA0 SHL SUB DUP11 AND EXTCODESIZE ISZERO PUSH3 0xDDB JUMPI PUSH1 0x40 MLOAD PUSH4 0x95564837 PUSH1 0xE0 SHL DUP2 MSTORE PUSH2 0x2710 DUP11 DIV PUSH8 0x6765C793FA10079D PUSH1 0x1B SHL SUB PUSH1 0x4 DUP3 ADD MSTORE DUP11 DUP2 PUSH1 0x24 DUP2 PUSH2 0x1A0 MLOAD SWAP4 PUSH2 0x1A0 MLOAD SWAP1 PUSH1 0x1 DUP1 PUSH1 0xA0 SHL SUB AND GAS CALL DUP1 ISZERO PUSH3 0x989 JUMPI PUSH3 0x20DA JUMPI JUMPDEST POP PUSH1 0x1 PUSH1 0x1 PUSH1 0xA0 SHL SUB DUP11 AND EXTCODESIZE ISZERO PUSH3 0xDDB JUMPI PUSH1 0x40 MLOAD PUSH4 0x9485DC9 PUSH1 0xE2 SHL DUP2 MSTORE DUP11 DUP2 PUSH1 0x4 DUP2 PUSH2 0x1A0 MLOAD SWAP4 PUSH2 0x1A0 MLOAD SWAP1 PUSH1 0x1 DUP1 PUSH1 0xA0 SHL SUB AND GAS CALL DUP1 ISZERO PUSH3 0x989 JUMPI PUSH3 0x20BF JUMPI JUMPDEST POP PUSH1 0x40 MLOAD PUSH4 0x6B456EF PUSH1 0xE2 SHL DUP2 MSTORE PUSH1 0x20 DUP2 PUSH1 0x4 DUP2 PUSH1 0x1 PUSH1 0x1 PUSH1 0xA0 SHL SUB DUP16 AND GAS STATICCALL SWAP1 DUP2 ISZERO PUSH3 0x989 JUMPI PUSH2 0x1A0 MLOAD SWAP2 PUSH3 0x209B JUMPI JUMPDEST POP PUSH1 0x1 PUSH1 0x1 PUSH1 0xA0 SHL SUB DUP2 AND PUSH3 0x202A JUMPI JUMPDEST POP DUP1 ISZERO SWAP1 PUSH3 0x201E JUMPI JUMPDEST PUSH3 0x1FB2 JUMPI JUMPDEST PUSH2 0x180 MLOAD PUSH2 0x1A0 DUP1 MLOAD PUSH1 0x1 PUSH1 0x1 PUSH1 0xA0 SHL SUB SWAP3 DUP4 AND SWAP1 MSTORE PUSH1 0xC PUSH1 0x20 MSTORE MLOAD PUSH1 0x40 SWAP1 KECCAK256 DUP1 SLOAD PUSH1 0x1 PUSH1 0x1 PUSH1 0xA0 SHL SUB NOT AND SWAP2 DUP12 AND SWAP2 SWAP1 SWAP2 OR SWAP1 SSTORE PUSH1 0xB SLOAD SWAP10 PUSH1 0x1 PUSH1 0x40 SHL DUP12 LT ISZERO PUSH3 0xAB2 JUMPI PUSH1 0x1 DUP12 ADD PUSH1 0xB SSTORE PUSH3 0x1860 DUP12 PUSH3 0x61DA JUMP JUMPDEST POP POP PUSH3 0x186D DUP12 PUSH3 0x61DA JUMP JUMPDEST POP PUSH2 0x180 MLOAD DUP2 SLOAD PUSH1 0x1 PUSH1 0x1 PUSH1 0xA0 SHL SUB NOT SWAP1 DUP2 AND PUSH1 0x1 PUSH1 0x1 PUSH1 0xA0 SHL SUB SWAP3 DUP4 AND OR DUP4 SSTORE PUSH1 0x1 DUP4 ADD DUP1 SLOAD DUP3 AND SWAP3 DUP15 AND SWAP3 SWAP1 SWAP3 OR SWAP1 SWAP2 SSTORE PUSH1 0x2 DUP3 ADD DUP1 SLOAD SWAP1 SWAP2 AND CALLER OR SWAP1 SSTORE SWAP8 PUSH1 0x1 PUSH1 0x1 PUSH1 0x40 SHL SUB DUP3 GT PUSH3 0xAB2 JUMPI DUP2 SWAP1 PUSH3 0x18CE PUSH1 0x3 DUP12 ADD SLOAD PUSH3 0x622C JUMP JUMPDEST PUSH1 0x1F DUP2 GT PUSH3 0x1F54 JUMPI JUMPDEST POP PUSH2 0x1A0 MLOAD SWAP1 PUSH1 0x1F DUP4 GT PUSH1 0x1 EQ PUSH3 0x1EDD JUMPI PUSH2 0x1A0 MLOAD SWAP3 PUSH3 0x1ED1 JUMPI JUMPDEST POP POP DUP2 PUSH1 0x1 SHL SWAP2 PUSH1 0x0 NOT SWAP1 PUSH1 0x3 SHL SHR NOT AND OR PUSH1 0x3 DUP9 ADD SSTORE JUMPDEST PUSH1 0x1 PUSH1 0x1 PUSH1 0x40 SHL SUB DUP3 GT PUSH3 0xAB2 JUMPI DUP2 SWAP1 PUSH3 0x192D PUSH1 0x4 DUP10 ADD SLOAD PUSH3 0x622C JUMP JUMPDEST PUSH1 0x1F DUP2 GT PUSH3 0x1E73 JUMPI JUMPDEST POP PUSH2 0x1A0 MLOAD SWAP1 PUSH1 0x1F DUP4 GT PUSH1 0x1 EQ PUSH3 0x1DFC JUMPI PUSH2 0x1A0 MLOAD SWAP3 PUSH3 0x1DF0 JUMPI JUMPDEST POP POP DUP2 PUSH1 0x1 SHL SWAP2 PUSH1 0x0 NOT SWAP1 PUSH1 0x3 SHL SHR NOT AND OR PUSH1 0x4 DUP7 ADD SSTORE JUMPDEST PUSH1 0x1 PUSH1 0x1 PUSH1 0x40 SHL SUB DUP3 GT PUSH3 0xAB2 JUMPI DUP2 SWAP1 PUSH3 0x198C PUSH1 0x5 DUP8 ADD SLOAD PUSH3 0x622C JUMP JUMPDEST PUSH1 0x1F DUP2 GT PUSH3 0x1D92 JUMPI JUMPDEST POP PUSH2 0x1A0 MLOAD SWAP1 PUSH1 0x1F DUP4 GT PUSH1 0x1 EQ PUSH3 0x1D1B JUMPI PUSH2 0x1A0 MLOAD SWAP3 PUSH3 0x1D0F JUMPI JUMPDEST POP POP DUP2 PUSH1 0x1 SHL SWAP2 PUSH1 0x0 NOT SWAP1 PUSH1 0x3 SHL SHR NOT AND OR PUSH1 0x5 DUP5 ADD SSTORE JUMPDEST PUSH1 0x1 PUSH1 0x1 PUSH1 0x40 SHL SUB DUP3 GT PUSH3 0xAB2 JUMPI DUP2 SWAP1 PUSH3 0x19EB PUSH1 0x6 DUP6 ADD SLOAD PUSH3 0x622C JUMP JUMPDEST PUSH1 0x1F DUP2 GT PUSH3 0x1CB1 JUMPI JUMPDEST POP PUSH2 0x1A0 MLOAD SWAP1 PUSH1 0x1F DUP4 GT PUSH1 0x1 EQ PUSH3 0x1C3A JUMPI PUSH2 0x1A0 MLOAD SWAP3 PUSH3 0x1C2E JUMPI JUMPDEST POP POP DUP2 PUSH1 0x1 SHL SWAP2 PUSH1 0x0 NOT SWAP1 PUSH1 0x3 SHL SHR NOT AND OR PUSH1 0x6 DUP3 ADD SSTORE JUMPDEST PUSH8 0x6765C793FA10079D PUSH1 0x1B SHL PUSH1 0x7 DUP3 ADD SSTORE PUSH2 0x2710 DUP3 DIV PUSH1 0x8 DUP3 ADD SSTORE PUSH1 0x9 TIMESTAMP SWAP2 ADD SSTORE PUSH3 0xFFFFFF PUSH1 0x3 SLOAD PUSH1 0x7 SLOAD PUSH1 0x1 DUP1 PUSH1 0xA0 SHL SUB PUSH1 0x8 SLOAD AND SWAP1 PUSH1 0xA SLOAD SWAP3 PUSH2 0x2710 PUSH1 0x40 MLOAD SWAP7 PUSH1 0x1 DUP1 PUSH1 0xA0 SHL SUB DUP10 AND DUP9 MSTORE PUSH8 0x6765C793FA10079D PUSH1 0x1B SHL PUSH1 0x20 DUP10 ADD MSTORE DIV PUSH1 0x40 DUP8 ADD MSTORE PUSH1 0x60 DUP7 ADD MSTORE PUSH1 0x80 DUP6 ADD MSTORE PUSH1 0xA0 DUP5 ADD MSTORE PUSH1 0x1 DUP1 PUSH1 0xA0 SHL SUB PUSH2 0x120 MLOAD AND PUSH1 0xC0 DUP5 ADD MSTORE PUSH1 0x1 DUP1 PUSH1 0xA0 SHL SUB DUP2 AND PUSH1 0xE0 DUP5 ADD MSTORE PUSH1 0xA0 SHR AND PUSH2 0x100 DUP3 ADD MSTORE PUSH1 0x1 DUP1 PUSH1 0xA0 SHL SUB PUSH2 0x180 MLOAD AND SWAP1 DUP4 PUSH1 0x0 DUP1 MLOAD PUSH1 0x20 PUSH3 0xB4AB DUP4 CODECOPY DUP2 MLOAD SWAP2 MSTORE PUSH2 0x120 CALLER SWAP4 LOG4 PUSH1 0x40 MLOAD PUSH4 0x17773EBB PUSH1 0xE0 SHL DUP2 MSTORE PUSH2 0x180 MLOAD PUSH1 0x20 SWAP1 DUP3 SWAP1 PUSH1 0x4 SWAP1 DUP3 SWAP1 PUSH1 0x1 PUSH1 0x1 PUSH1 0xA0 SHL SUB AND GAS STATICCALL SWAP1 DUP2 ISZERO PUSH3 0x989 JUMPI PUSH2 0x1A0 MLOAD SWAP2 PUSH3 0x1BF6 JUMPI JUMPDEST POP PUSH1 0x40 MLOAD PUSH4 0x116E689F PUSH1 0xE1 SHL DUP2 MSTORE PUSH2 0x180 MLOAD PUSH1 0x20 SWAP1 DUP3 SWAP1 PUSH1 0x4 SWAP1 DUP3 SWAP1 PUSH1 0x1 PUSH1 0x1 PUSH1 0xA0 SHL SUB AND GAS STATICCALL SWAP1 DUP2 ISZERO PUSH3 0x989 JUMPI PUSH2 0x1A0 MLOAD SWAP2 PUSH3 0x1BBE JUMPI JUMPDEST POP PUSH1 0x40 MLOAD SWAP2 PUSH2 0x160 MLOAD DUP4 MSTORE PUSH1 0x20 DUP4 ADD MSTORE PUSH1 0x40 DUP3 ADD MSTORE DUP3 PUSH1 0x0 DUP1 MLOAD PUSH1 0x20 PUSH3 0xB4CB DUP4 CODECOPY DUP2 MLOAD SWAP2 MSTORE PUSH1 0x60 PUSH1 0x1 DUP1 PUSH1 0xA0 SHL SUB PUSH2 0x180 MLOAD AND SWAP4 LOG3 PUSH1 0x40 DUP1 MLOAD PUSH2 0x180 MLOAD SWAP4 DUP2 MSTORE PUSH1 0x1 PUSH1 0x1 PUSH1 0xA0 SHL SUB SWAP4 DUP5 AND PUSH1 0x20 DUP3 ADD MSTORE SWAP2 SWAP1 SWAP3 AND SWAP2 DUP2 ADD SWAP2 SWAP1 SWAP2 MSTORE PUSH1 0x60 SWAP1 RETURN JUMPDEST SWAP1 POP PUSH1 0x20 DUP2 RETURNDATASIZE PUSH1 0x20 GT PUSH3 0x1BED JUMPI JUMPDEST DUP2 PUSH3 0x1BDC PUSH1 0x20 SWAP4 DUP4 PUSH3 0x6167 JUMP JUMPDEST DUP2 ADD SUB SLT PUSH3 0x97B JUMPI MLOAD DUP5 PUSH3 0x1B5D JUMP JUMPDEST RETURNDATASIZE SWAP2 POP PUSH3 0x1BCD JUMP JUMPDEST SWAP1 POP PUSH1 0x20 DUP2 RETURNDATASIZE PUSH1 0x20 GT PUSH3 0x1C25 JUMPI JUMPDEST DUP2 PUSH3 0x1C14 PUSH1 0x20 SWAP4 DUP4 PUSH3 0x6167 JUMP JUMPDEST DUP2 ADD SUB SLT PUSH3 0x97B JUMPI MLOAD DUP4 PUSH3 0x1B23 JUMP JUMPDEST RETURNDATASIZE SWAP2 POP PUSH3 0x1C05 JUMP JUMPDEST ADD CALLDATALOAD SWAP1 POP DUP7 DUP1 PUSH3 0x1A12 JUMP JUMPDEST PUSH2 0x1A0 DUP1 MLOAD PUSH1 0x6 DUP8 ADD SWAP1 MSTORE MLOAD PUSH1 0x20 DUP2 KECCAK256 SWAP1 SWAP5 POP SWAP2 JUMPDEST PUSH1 0x1F NOT DUP5 AND DUP6 LT PUSH3 0x1C98 JUMPI PUSH1 0x1 SWAP5 POP DUP4 PUSH1 0x1F NOT DUP2 AND LT PUSH3 0x1C7D JUMPI JUMPDEST POP POP POP DUP2 SHL ADD PUSH1 0x6 DUP3 ADD SSTORE PUSH3 0x1A2A JUMP JUMPDEST ADD CALLDATALOAD PUSH1 0x0 NOT PUSH1 0x3 DUP5 SWAP1 SHL PUSH1 0xF8 AND SHR NOT AND SWAP1 SSTORE DUP7 DUP1 DUP1 PUSH3 0x1C6C JUMP JUMPDEST DUP2 DUP2 ADD CALLDATALOAD DUP4 SSTORE PUSH1 0x20 SWAP5 DUP6 ADD SWAP5 PUSH1 0x1 SWAP1 SWAP4 ADD SWAP3 ADD PUSH3 0x1C4F JUMP JUMPDEST SWAP1 SWAP2 POP PUSH1 0x6 DUP5 ADD PUSH2 0x1A0 MLOAD MSTORE PUSH1 0x20 PUSH2 0x1A0 MLOAD KECCAK256 PUSH1 0x1F DUP5 ADD PUSH1 0x5 SHR DUP2 ADD PUSH1 0x20 DUP6 LT PUSH3 0x1D07 JUMPI JUMPDEST SWAP1 DUP5 SWAP4 SWAP3 SWAP2 JUMPDEST PUSH1 0x1F DUP4 ADD PUSH1 0x5 SHR DUP3 ADD DUP2 LT PUSH3 0x1CF5 JUMPI POP POP PUSH3 0x19F5 JUMP JUMPDEST PUSH2 0x1A0 MLOAD DUP2 SSTORE DUP6 SWAP5 POP PUSH1 0x1 ADD PUSH3 0x1CDD JUMP JUMPDEST POP DUP1 PUSH3 0x1CD7 JUMP JUMPDEST ADD CALLDATALOAD SWAP1 POP DUP9 DUP1 PUSH3 0x19B3 JUMP JUMPDEST PUSH2 0x1A0 DUP1 MLOAD PUSH1 0x5 DUP10 ADD SWAP1 MSTORE MLOAD PUSH1 0x20 DUP2 KECCAK256 SWAP1 SWAP5 POP SWAP2 JUMPDEST PUSH1 0x1F NOT DUP5 AND DUP6 LT PUSH3 0x1D79 JUMPI PUSH1 0x1 SWAP5 POP DUP4 PUSH1 0x1F NOT DUP2 AND LT PUSH3 0x1D5E JUMPI JUMPDEST POP POP POP DUP2 SHL ADD PUSH1 0x5 DUP5 ADD SSTORE PUSH3 0x19CB JUMP JUMPDEST ADD CALLDATALOAD PUSH1 0x0 NOT PUSH1 0x3 DUP5 SWAP1 SHL PUSH1 0xF8 AND SHR NOT AND SWAP1 SSTORE DUP9 DUP1 DUP1 PUSH3 0x1D4D JUMP JUMPDEST DUP2 DUP2 ADD CALLDATALOAD DUP4 SSTORE PUSH1 0x20 SWAP5 DUP6 ADD SWAP5 PUSH1 0x1 SWAP1 SWAP4 ADD SWAP3 ADD PUSH3 0x1D30 JUMP JUMPDEST SWAP1 SWAP2 POP PUSH1 0x5 DUP7 ADD PUSH2 0x1A0 MLOAD MSTORE PUSH1 0x20 PUSH2 0x1A0 MLOAD KECCAK256 PUSH1 0x1F DUP5 ADD PUSH1 0x5 SHR DUP2 ADD PUSH1 0x20 DUP6 LT PUSH3 0x1DE8 JUMPI JUMPDEST SWAP1 DUP5 SWAP4 SWAP3 SWAP2 JUMPDEST PUSH1 0x1F DUP4 ADD PUSH1 0x5 SHR DUP3 ADD DUP2 LT PUSH3 0x1DD6 JUMPI POP POP PUSH3 0x1996 JUMP JUMPDEST PUSH2 0x1A0 MLOAD DUP2 SSTORE DUP6 SWAP5 POP PUSH1 0x1 ADD PUSH3 0x1DBE JUMP JUMPDEST POP DUP1 PUSH3 0x1DB8 JUMP JUMPDEST ADD CALLDATALOAD SWAP1 POP DUP11 DUP1 PUSH3 0x1954 JUMP JUMPDEST PUSH2 0x1A0 DUP1 MLOAD PUSH1 0x4 DUP12 ADD SWAP1 MSTORE MLOAD PUSH1 0x20 DUP2 KECCAK256 SWAP1 SWAP5 POP SWAP2 JUMPDEST PUSH1 0x1F NOT DUP5 AND DUP6 LT PUSH3 0x1E5A JUMPI PUSH1 0x1 SWAP5 POP DUP4 PUSH1 0x1F NOT DUP2 AND LT PUSH3 0x1E3F JUMPI JUMPDEST POP POP POP DUP2 SHL ADD PUSH1 0x4 DUP7 ADD SSTORE PUSH3 0x196C JUMP JUMPDEST ADD CALLDATALOAD PUSH1 0x0 NOT PUSH1 0x3 DUP5 SWAP1 SHL PUSH1 0xF8 AND SHR NOT AND SWAP1 SSTORE DUP11 DUP1 DUP1 PUSH3 0x1E2E JUMP JUMPDEST DUP2 DUP2 ADD CALLDATALOAD DUP4 SSTORE PUSH1 0x20 SWAP5 DUP6 ADD SWAP5 PUSH1 0x1 SWAP1 SWAP4 ADD SWAP3 ADD PUSH3 0x1E11 JUMP JUMPDEST SWAP1 SWAP2 POP PUSH1 0x4 DUP9 ADD PUSH2 0x1A0 MLOAD MSTORE PUSH1 0x20 PUSH2 0x1A0 MLOAD KECCAK256 PUSH1 0x1F DUP5 ADD PUSH1 0x5 SHR DUP2 ADD PUSH1 0x20 DUP6 LT PUSH3 0x1EC9 JUMPI JUMPDEST SWAP1 DUP5 SWAP4 SWAP3 SWAP2 JUMPDEST PUSH1 0x1F DUP4 ADD PUSH1 0x5 SHR DUP3 ADD DUP2 LT PUSH3 0x1EB7 JUMPI POP POP PUSH3 0x1937 JUMP JUMPDEST PUSH2 0x1A0 MLOAD DUP2 SSTORE DUP6 SWAP5 POP PUSH1 0x1 ADD PUSH3 0x1E9F JUMP JUMPDEST POP DUP1 PUSH3 0x1E99 JUMP JUMPDEST ADD CALLDATALOAD SWAP1 POP DUP13 DUP1 PUSH3 0x18F5 JUMP JUMPDEST PUSH2 0x1A0 DUP1 MLOAD PUSH1 0x3 DUP14 ADD SWAP1 MSTORE MLOAD PUSH1 0x20 DUP2 KECCAK256 SWAP1 SWAP5 POP SWAP2 JUMPDEST PUSH1 0x1F NOT DUP5 AND DUP6 LT PUSH3 0x1F3B JUMPI PUSH1 0x1 SWAP5 POP DUP4 PUSH1 0x1F NOT DUP2 AND LT PUSH3 0x1F20 JUMPI JUMPDEST POP POP POP DUP2 SHL ADD PUSH1 0x3 DUP9 ADD SSTORE PUSH3 0x190D JUMP JUMPDEST ADD CALLDATALOAD PUSH1 0x0 NOT PUSH1 0x3 DUP5 SWAP1 SHL PUSH1 0xF8 AND SHR NOT AND SWAP1 SSTORE DUP13 DUP1 DUP1 PUSH3 0x1F0F JUMP JUMPDEST DUP2 DUP2 ADD CALLDATALOAD DUP4 SSTORE PUSH1 0x20 SWAP5 DUP6 ADD SWAP5 PUSH1 0x1 SWAP1 SWAP4 ADD SWAP3 ADD PUSH3 0x1EF2 JUMP JUMPDEST SWAP1 SWAP2 POP PUSH1 0x3 DUP11 ADD PUSH2 0x1A0 MLOAD MSTORE PUSH1 0x20 PUSH2 0x1A0 MLOAD KECCAK256 PUSH1 0x1F DUP5 ADD PUSH1 0x5 SHR DUP2 ADD PUSH1 0x20 DUP6 LT PUSH3 0x1FAA JUMPI JUMPDEST SWAP1 DUP5 SWAP4 SWAP3 SWAP2 JUMPDEST PUSH1 0x1F DUP4 ADD PUSH1 0x5 SHR DUP3 ADD DUP2 LT PUSH3 0x1F98 JUMPI POP POP PUSH3 0x18D8 JUMP JUMPDEST PUSH2 0x1A0 MLOAD DUP2 SSTORE DUP6 SWAP5 POP PUSH1 0x1 ADD PUSH3 0x1F80 JUMP JUMPDEST POP DUP1 PUSH3 0x1F7A JUMP JUMPDEST PUSH2 0x180 MLOAD PUSH1 0x1 PUSH1 0x1 PUSH1 0xA0 SHL SUB AND EXTCODESIZE ISZERO PUSH3 0xDDB JUMPI PUSH1 0x40 MLOAD PUSH4 0x6E258E07 PUSH1 0xE1 SHL DUP2 MSTORE PUSH2 0x1A0 MLOAD PUSH2 0x180 MLOAD DUP3 SWAP1 PUSH1 0x4 SWAP1 DUP3 SWAP1 DUP5 SWAP1 PUSH1 0x1 PUSH1 0x1 PUSH1 0xA0 SHL SUB AND GAS CALL DUP1 ISZERO PUSH3 0x989 JUMPI PUSH3 0x2003 JUMPI JUMPDEST POP PUSH3 0x1808 JUMP JUMPDEST PUSH3 0x200E SWAP1 PUSH3 0x6120 JUMP JUMPDEST PUSH2 0x1A0 MLOAD PUSH3 0xDDB JUMPI DUP11 PUSH3 0x1FFC JUMP JUMPDEST POP PUSH2 0x1237 CHAINID EQ PUSH3 0x1802 JUMP JUMPDEST PUSH2 0x180 MLOAD PUSH1 0x1 PUSH1 0x1 PUSH1 0xA0 SHL SUB AND EXTCODESIZE ISZERO PUSH3 0xDDB JUMPI PUSH1 0x40 MLOAD PUSH4 0x15C6DEB9 PUSH1 0xE3 SHL DUP2 MSTORE PUSH1 0x1 PUSH1 0x1 PUSH1 0xA0 SHL SUB SWAP2 DUP3 AND PUSH1 0x4 DUP3 ADD MSTORE PUSH2 0x1A0 MLOAD PUSH2 0x180 MLOAD SWAP2 SWAP3 SWAP1 SWAP2 DUP4 SWAP2 PUSH1 0x24 SWAP2 DUP4 SWAP2 DUP6 SWAP2 AND GAS CALL DUP1 ISZERO PUSH3 0x989 JUMPI ISZERO PUSH3 0x17F8 JUMPI PUSH3 0x208B SWAP1 PUSH3 0x6120 JUMP JUMPDEST PUSH2 0x1A0 MLOAD PUSH3 0xDDB JUMPI DUP12 PUSH3 0x17F8 JUMP JUMPDEST PUSH3 0x20B8 SWAP2 POP PUSH1 0x20 RETURNDATASIZE PUSH1 0x20 GT PUSH3 0xE8D JUMPI PUSH3 0xE7D DUP2 DUP4 PUSH3 0x6167 JUMP JUMPDEST DUP13 PUSH3 0x17E7 JUMP JUMPDEST PUSH3 0x20CA SWAP1 PUSH3 0x6120 JUMP JUMPDEST PUSH2 0x1A0 MLOAD PUSH3 0xDDB JUMPI DUP12 PUSH3 0x17B4 JUMP JUMPDEST PUSH3 0x20E5 SWAP1 PUSH3 0x6120 JUMP JUMPDEST PUSH2 0x1A0 MLOAD PUSH3 0xDDB JUMPI DUP12 PUSH3 0x176F JUMP JUMPDEST PUSH1 0x40 MLOAD PUSH4 0xA9059CBB PUSH1 0xE0 SHL DUP2 MSTORE CALLER PUSH1 0x4 DUP3 ADD MSTORE PUSH2 0x2710 DUP11 DIV PUSH1 0x24 DUP3 ADD MSTORE PUSH2 0x1A0 MLOAD PUSH2 0x180 MLOAD PUSH1 0x20 SWAP2 DUP4 SWAP2 PUSH1 0x44 SWAP2 DUP4 SWAP2 PUSH1 0x1 PUSH1 0x1 PUSH1 0xA0 SHL SUB AND GAS CALL SWAP1 DUP2 ISZERO PUSH3 0x989 JUMPI PUSH2 0x1A0 MLOAD SWAP2 PUSH3 0x217C JUMPI JUMPDEST POP PUSH3 0x1714 JUMPI PUSH1 0x40 MLOAD PUSH3 0x461BCD PUSH1 0xE5 SHL DUP2 MSTORE PUSH1 0x20 PUSH1 0x4 DUP3 ADD MSTORE PUSH1 0x17 PUSH1 0x24 DUP3 ADD MSTORE PUSH1 0x0 DUP1 MLOAD PUSH1 0x20 PUSH3 0xB48B DUP4 CODECOPY DUP2 MLOAD SWAP2 MSTORE PUSH1 0x44 DUP3 ADD MSTORE PUSH1 0x64 SWAP1 REVERT JUMPDEST PUSH3 0x2199 SWAP2 POP PUSH1 0x20 RETURNDATASIZE PUSH1 0x20 GT PUSH3 0x114E JUMPI PUSH3 0x113E DUP2 DUP4 PUSH3 0x6167 JUMP JUMPDEST DUP13 PUSH3 0x2142 JUMP JUMPDEST PUSH3 0x21BD SWAP2 POP PUSH1 0x20 RETURNDATASIZE PUSH1 0x20 GT PUSH3 0x114E JUMPI PUSH3 0x113E DUP2 DUP4 PUSH3 0x6167 JUMP JUMPDEST DUP13 PUSH3 0x1702 JUMP JUMPDEST CALLVALUE PUSH3 0xDDB JUMPI PUSH2 0x160 CALLDATASIZE PUSH1 0x3 NOT ADD SLT PUSH3 0xDDB JUMPI PUSH3 0x21E2 PUSH3 0x5E7D JUMP JUMPDEST PUSH1 0x24 CALLDATALOAD SWAP1 PUSH1 0x1 PUSH1 0x1 PUSH1 0xA0 SHL SUB DUP3 AND DUP3 SUB PUSH3 0x97B JUMPI PUSH1 0xE4 CALLDATALOAD SWAP2 PUSH1 0x1 PUSH1 0x1 PUSH1 0xA0 SHL SUB DUP4 AND DUP4 SUB PUSH3 0x97B JUMPI PUSH2 0x104 CALLDATALOAD PUSH1 0x1 PUSH1 0x1 PUSH1 0xA0 SHL SUB DUP2 AND DUP2 SUB PUSH3 0x97B JUMPI PUSH2 0x124 CALLDATALOAD SWAP4 PUSH1 0x1 PUSH1 0x1 PUSH1 0xA0 SHL SUB DUP6 AND DUP6 SUB PUSH3 0x97B JUMPI PUSH3 0xFFFFFF PUSH2 0x144 CALLDATALOAD AND PUSH2 0x144 CALLDATALOAD SUB PUSH3 0xDDB JUMPI PUSH3 0x2263 PUSH1 0x1 DUP1 PUSH1 0xA0 SHL SUB PUSH2 0x1A0 MLOAD SLOAD AND CALLER EQ PUSH3 0x663F JUMP JUMPDEST PUSH1 0x1 PUSH1 0x1 PUSH1 0xA0 SHL SUB DUP5 AND ISZERO PUSH3 0x257D JUMPI PUSH1 0x1 PUSH1 0x1 PUSH1 0xA0 SHL SUB DUP4 AND ISZERO PUSH3 0x2538 JUMPI PUSH2 0x12C PUSH1 0x44 CALLDATALOAD GT PUSH3 0x2504 JUMPI PUSH1 0x84 CALLDATALOAD ISZERO PUSH3 0x24C8 JUMPI PUSH1 0xA4 CALLDATALOAD ISZERO PUSH3 0x248A JUMPI PUSH1 0xC4 CALLDATALOAD ISZERO PUSH3 0x2453 JUMPI PUSH1 0x1 PUSH1 0x1 PUSH1 0xA0 SHL SUB DUP2 AND PUSH3 0x23FA JUMPI JUMPDEST PUSH1 0x1 DUP1 SLOAD PUSH1 0x1 PUSH1 0x1 PUSH1 0xA0 SHL SUB NOT SWAP1 DUP2 AND PUSH1 0x1 PUSH1 0x1 PUSH1 0xA0 SHL SUB DUP1 DUP9 AND SWAP2 SWAP1 SWAP2 OR SWAP1 SWAP3 SSTORE PUSH1 0x2 DUP1 SLOAD DUP3 AND DUP4 DUP8 AND OR SWAP1 SSTORE PUSH1 0x44 CALLDATALOAD PUSH1 0x3 SSTORE PUSH1 0x64 CALLDATALOAD PUSH1 0x4 SSTORE PUSH1 0x84 CALLDATALOAD PUSH1 0x5 SSTORE PUSH1 0xA4 CALLDATALOAD PUSH1 0x6 SSTORE PUSH1 0xC4 CALLDATALOAD PUSH1 0x7 SSTORE PUSH1 0x8 DUP1 SLOAD DUP3 AND DUP4 DUP6 AND OR SWAP1 SSTORE PUSH1 0x9 DUP1 SLOAD SWAP1 SWAP2 AND SWAP2 DUP5 AND SWAP2 SWAP1 SWAP2 OR SWAP1 SSTORE PUSH1 0xA SLOAD PUSH32 0xA2A5DC7DC1A5ABD94F6CE111D7021D17B708D5BD93E6FF63894B54064EEADBDD SWAP6 PUSH2 0x160 SWAP6 SWAP5 PUSH3 0xFFFFFF SWAP5 SWAP1 SWAP4 SWAP2 SWAP3 SWAP1 SWAP2 SWAP1 PUSH2 0x144 CALLDATALOAD DUP7 AND PUSH3 0x23F0 JUMPI PUSH2 0x2710 JUMPDEST DUP7 AND PUSH1 0xA0 SWAP1 DUP2 SHL PUSH1 0x1 PUSH1 0x1 PUSH1 0xA0 SHL SUB SWAP6 DUP7 AND PUSH1 0x1 PUSH1 0x1 PUSH1 0xB8 SHL SUB NOT SWAP4 SWAP1 SWAP4 AND DUP4 OR OR PUSH1 0xA DUP2 SWAP1 SSTORE PUSH1 0x40 DUP1 MLOAD SWAP10 DUP8 AND DUP11 MSTORE SWAP7 DUP7 AND PUSH1 0x20 DUP11 ADD MSTORE PUSH1 0x44 CALLDATALOAD SWAP7 DUP10 ADD SWAP7 SWAP1 SWAP7 MSTORE PUSH1 0x64 CALLDATALOAD PUSH1 0x60 DUP10 ADD MSTORE PUSH1 0x84 CALLDATALOAD PUSH1 0x80 DUP10 ADD MSTORE PUSH1 0xA4 CALLDATALOAD DUP9 DUP3 ADD MSTORE PUSH1 0xC4 CALLDATALOAD PUSH1 0xC0 DUP10 ADD MSTORE SWAP2 DUP5 AND PUSH1 0xE0 DUP9 ADD MSTORE SWAP2 SWAP1 SWAP3 AND PUSH2 0x100 DUP7 ADD MSTORE PUSH2 0x120 DUP6 ADD MSTORE SHR AND PUSH2 0x140 DUP3 ADD MSTORE LOG1 PUSH2 0x1A0 MLOAD DUP1 RETURN JUMPDEST PUSH2 0x144 CALLDATALOAD PUSH3 0x2367 JUMP JUMPDEST SWAP1 SWAP3 SWAP2 PUSH1 0x1 PUSH1 0x1 PUSH1 0xA0 SHL SUB DUP5 AND ISZERO PUSH3 0x2416 JUMPI SWAP2 SWAP3 SWAP1 PUSH3 0x22BA JUMP JUMPDEST PUSH1 0x40 MLOAD PUSH3 0x461BCD PUSH1 0xE5 SHL DUP2 MSTORE PUSH1 0x20 PUSH1 0x4 DUP3 ADD MSTORE PUSH1 0x15 PUSH1 0x24 DUP3 ADD MSTORE PUSH21 0x1B1C081C9958DA5C1A595B9D081C995C5D5A5C9959 PUSH1 0x5A SHL PUSH1 0x44 DUP3 ADD MSTORE PUSH1 0x64 SWAP1 REVERT JUMPDEST PUSH1 0x40 MLOAD PUSH3 0x461BCD PUSH1 0xE5 SHL DUP2 MSTORE PUSH1 0x20 PUSH1 0x4 DUP3 ADD MSTORE PUSH1 0xF PUSH1 0x24 DUP3 ADD MSTORE PUSH15 0x1D185C99D95D081C995C5D5A5C9959 PUSH1 0x8A SHL PUSH1 0x44 DUP3 ADD MSTORE PUSH1 0x64 SWAP1 REVERT JUMPDEST PUSH1 0x40 MLOAD PUSH3 0x461BCD PUSH1 0xE5 SHL DUP2 MSTORE PUSH1 0x20 PUSH1 0x4 DUP3 ADD MSTORE PUSH1 0x16 PUSH1 0x24 DUP3 ADD MSTORE PUSH22 0x1D9A5C9D1D585B081D1BDAD95B881C995C5D5A5C9959 PUSH1 0x52 SHL PUSH1 0x44 DUP3 ADD MSTORE PUSH1 0x64 SWAP1 REVERT JUMPDEST PUSH1 0x40 MLOAD PUSH3 0x461BCD PUSH1 0xE5 SHL DUP2 MSTORE PUSH1 0x20 PUSH1 0x4 DUP3 ADD MSTORE PUSH1 0x14 PUSH1 0x24 DUP3 ADD MSTORE PUSH20 0x1D9A5C9D1D585B08195D1A081C995C5D5A5C9959 PUSH1 0x62 SHL PUSH1 0x44 DUP3 ADD MSTORE PUSH1 0x64 SWAP1 REVERT JUMPDEST PUSH1 0x40 MLOAD PUSH3 0x461BCD PUSH1 0xE5 SHL DUP2 MSTORE PUSH1 0x20 PUSH1 0x4 DUP3 ADD MSTORE PUSH1 0xC PUSH1 0x24 DUP3 ADD MSTORE PUSH12 0xCCCACA40E8DEDE40D0D2CED PUSH1 0xA3 SHL PUSH1 0x44 DUP3 ADD MSTORE PUSH1 0x64 SWAP1 REVERT JUMPDEST PUSH1 0x40 MLOAD PUSH3 0x461BCD PUSH1 0xE5 SHL DUP2 MSTORE PUSH1 0x20 PUSH1 0x4 DUP3 ADD MSTORE PUSH1 0x1B PUSH1 0x24 DUP3 ADD MSTORE PUSH32 0x706C6174666F726D20726563697069656E742072657175697265640000000000 PUSH1 0x44 DUP3 ADD MSTORE PUSH1 0x64 SWAP1 REVERT JUMPDEST PUSH1 0x40 MLOAD PUSH3 0x461BCD PUSH1 0xE5 SHL DUP2 MSTORE PUSH1 0x20 PUSH1 0x4 DUP3 ADD MSTORE PUSH1 0x16 PUSH1 0x24 DUP3 ADD MSTORE PUSH22 0x199959481C9958DA5C1A595B9D081C995C5D5A5C9959 PUSH1 0x52 SHL PUSH1 0x44 DUP3 ADD MSTORE PUSH1 0x64 SWAP1 REVERT JUMPDEST CALLVALUE PUSH3 0xDDB JUMPI PUSH2 0x1A0 MLOAD CALLDATASIZE PUSH1 0x3 NOT ADD SLT PUSH3 0xDDB JUMPI PUSH1 0x2 SLOAD PUSH1 0x40 MLOAD PUSH1 0x1 PUSH1 0x1 PUSH1 0xA0 SHL SUB SWAP1 SWAP2 AND DUP2 MSTORE PUSH1 0x20 SWAP1 RETURN JUMPDEST CALLVALUE PUSH3 0xDDB JUMPI PUSH2 0x1A0 MLOAD CALLDATASIZE PUSH1 0x3 NOT ADD SLT PUSH3 0xDDB JUMPI PUSH1 0x20 PUSH1 0x40 MLOAD PUSH2 0x2710 DUP2 MSTORE RETURN JUMPDEST CALLVALUE PUSH3 0xDDB JUMPI PUSH2 0x1A0 MLOAD CALLDATASIZE PUSH1 0x3 NOT ADD SLT PUSH3 0xDDB JUMPI PUSH1 0x8 SLOAD PUSH1 0x40 MLOAD PUSH1 0x1 PUSH1 0x1 PUSH1 0xA0 SHL SUB SWAP1 SWAP2 AND DUP2 MSTORE PUSH1 0x20 SWAP1 RETURN JUMPDEST CALLVALUE PUSH3 0xDDB JUMPI PUSH2 0x1A0 MLOAD CALLDATASIZE PUSH1 0x3 NOT ADD SLT PUSH3 0xDDB JUMPI PUSH1 0x20 PUSH1 0x3 SLOAD PUSH1 0x40 MLOAD SWAP1 DUP2 MSTORE RETURN JUMPDEST CALLVALUE PUSH3 0xDDB JUMPI PUSH2 0x1A0 MLOAD CALLDATASIZE PUSH1 0x3 NOT ADD SLT PUSH3 0xDDB JUMPI PUSH1 0x20 PUSH1 0x40 MLOAD PUSH8 0x6765C793FA10079D PUSH1 0x1B SHL DUP2 MSTORE RETURN JUMPDEST CALLVALUE PUSH3 0xDDB JUMPI PUSH2 0x1A0 MLOAD CALLDATASIZE PUSH1 0x3 NOT ADD SLT PUSH3 0xDDB JUMPI PUSH1 0x20 PUSH1 0xB SLOAD PUSH1 0x40 MLOAD SWAP1 DUP2 MSTORE RETURN JUMPDEST CALLVALUE PUSH3 0xDDB JUMPI PUSH1 0x40 CALLDATASIZE PUSH1 0x3 NOT ADD SLT PUSH3 0xDDB JUMPI PUSH3 0x26C7 PUSH1 0x24 CALLDATALOAD PUSH1 0x4 CALLDATALOAD PUSH3 0x6538 JUMP JUMPDEST PUSH1 0x40 MLOAD PUSH1 0x20 SWAP2 PUSH1 0x20 DUP3 ADD SWAP3 PUSH1 0x20 DUP4 MSTORE DUP2 MLOAD DUP1 SWAP5 MSTORE PUSH1 0x40 DUP4 ADD SWAP4 PUSH1 0x20 PUSH1 0x40 DUP3 PUSH1 0x5 SHL DUP7 ADD ADD SWAP4 ADD SWAP2 PUSH2 0x1A0 MLOAD SWAP6 JUMPDEST DUP3 DUP8 LT PUSH3 0x2702 JUMPI DUP6 DUP6 SUB DUP7 RETURN JUMPDEST SWAP1 SWAP2 SWAP3 SWAP4 DUP3 DUP1 PUSH3 0x2720 PUSH1 0x1 SWAP4 PUSH1 0x3F NOT DUP11 DUP3 SUB ADD DUP7 MSTORE DUP9 MLOAD PUSH3 0x6034 JUMP JUMPDEST SWAP7 ADD SWAP3 ADD SWAP7 ADD SWAP6 SWAP3 SWAP2 SWAP1 SWAP3 PUSH3 0x26F4 JUMP JUMPDEST PUSH3 0x273C CALLDATASIZE PUSH3 0x5EC4 JUMP JUMPDEST PUSH2 0x1E0 MSTORE POP PUSH1 0x8 SLOAD SWAP7 SWAP8 SWAP6 SWAP7 SWAP5 SWAP6 SWAP5 SWAP1 SWAP4 SWAP2 SWAP3 SWAP2 SWAP1 PUSH3 0x2767 SWAP1 PUSH1 0x1 PUSH1 0x1 PUSH1 0xA0 SHL SUB AND ISZERO ISZERO PUSH3 0x642D JUMP JUMPDEST PUSH1 0x9 SLOAD PUSH3 0x2780 SWAP1 PUSH1 0x1 PUSH1 0x1 PUSH1 0xA0 SHL SUB AND ISZERO ISZERO PUSH3 0x646F JUMP JUMPDEST PUSH3 0x2794 PUSH1 0x4 SLOAD PUSH3 0x1C3 DUP2 CALLVALUE GT PUSH3 0x64B3 JUMP JUMPDEST SWAP6 PUSH3 0x279F PUSH3 0x6679 JUMP JUMPDEST PUSH1 0x40 MLOAD DUP8 DUP2 MSTORE PUSH32 0xAC9D85DC25663B5CC567AFAED6BB7823377F8F9F4164BC741A6ED341C04A8EC7 PUSH1 0x20 CALLER SWAP3 LOG2 DUP9 ISZERO PUSH3 0x127C JUMPI DUP1 ISZERO PUSH3 0x1245 JUMPI PUSH2 0x7D0 PUSH2 0x1E0 MLOAD GT PUSH3 0x120A JUMPI PUSH1 0x2 SLOAD PUSH1 0x40 MLOAD SWAP1 PUSH1 0x1 PUSH1 0x1 PUSH1 0xA0 SHL SUB AND PUSH1 0x1 PUSH1 0x1 PUSH1 0x40 SHL SUB PUSH2 0x1808 DUP4 ADD SWAP1 DUP2 GT SWAP1 DUP4 GT OR PUSH3 0xAB2 JUMPI DUP2 SWAP1 PUSH2 0x1808 PUSH3 0x9C83 DUP4 CODECOPY PUSH1 0xE0 PUSH2 0x1808 DUP4 ADD DUP2 DUP2 MSTORE PUSH3 0x2837 SWAP2 PUSH3 0x1501 SWAP2 ADD DUP15 DUP13 PUSH3 0x6780 JUMP JUMPDEST SWAP1 PUSH8 0x6765C793FA10079D PUSH1 0x1B SHL PUSH1 0x40 PUSH2 0x1808 DUP6 ADD ADD MSTORE ADDRESS PUSH1 0x60 PUSH2 0x1808 DUP6 ADD ADD MSTORE CALLER PUSH1 0x80 PUSH2 0x1808 DUP6 ADD ADD MSTORE PUSH1 0xA0 PUSH2 0x1808 DUP5 ADD ADD MSTORE PUSH1 0x32 PUSH1 0xC0 PUSH2 0x1808 DUP5 ADD ADD MSTORE SUB SWAP1 PUSH2 0x1A0 MLOAD CREATE PUSH2 0x200 MSTORE PUSH2 0x200 MLOAD ISZERO PUSH3 0x989 JUMPI PUSH1 0x2 SLOAD PUSH1 0x1 PUSH1 0x1 PUSH1 0xA0 SHL SUB AND CALLER EQ SWAP7 PUSH3 0x28A4 DUP9 PUSH3 0x67DC JUMP JUMPDEST PUSH2 0x1C0 MSTORE PUSH1 0x1 SLOAD PUSH1 0x3 SLOAD PUSH1 0x5 SLOAD PUSH1 0x6 SLOAD PUSH1 0x7 SLOAD PUSH1 0x8 SLOAD PUSH1 0xA SLOAD PUSH1 0x40 MLOAD SWAP7 PUSH1 0x1 PUSH1 0x1 PUSH1 0xA0 SHL SUB SWAP1 DUP2 AND SWAP7 SWAP2 SWAP6 SWAP3 AND SWAP4 SWAP2 SWAP1 PUSH1 0x1 PUSH1 0x1 PUSH1 0x40 SHL SUB PUSH2 0x3464 DUP10 ADD SWAP1 DUP2 GT SWAP1 DUP10 GT OR PUSH3 0xAB2 JUMPI PUSH3 0xFFFFFF SWAP7 PUSH2 0x3464 PUSH3 0x681F DUP11 CODECOPY PUSH2 0x200 MLOAD PUSH1 0x1 PUSH1 0x1 PUSH1 0xA0 SHL SUB SWAP1 DUP2 AND PUSH2 0x3464 DUP12 ADD SWAP1 DUP2 MSTORE ADDRESS PUSH1 0x20 DUP3 ADD MSTORE PUSH1 0x40 DUP2 ADD SWAP3 SWAP1 SWAP3 MSTORE PUSH1 0x60 DUP3 ADD SWAP3 SWAP1 SWAP3 MSTORE PUSH1 0x80 DUP2 ADD SWAP3 SWAP1 SWAP3 MSTORE PUSH1 0xA0 DUP3 DUP2 ADD SWAP4 SWAP1 SWAP4 MSTORE PUSH1 0xC0 DUP3 ADD SWAP4 SWAP1 SWAP4 MSTORE PUSH1 0xE0 DUP2 ADD SWAP4 SWAP1 SWAP4 MSTORE PUSH2 0x1C0 MLOAD DUP3 AND PUSH2 0x100 DUP5 ADD MSTORE SWAP1 DUP4 AND PUSH2 0x120 DUP4 ADD MSTORE SWAP2 SWAP1 SWAP2 SHR SWAP2 SWAP1 SWAP2 AND PUSH2 0x140 DUP3 ADD MSTORE DUP2 SWAP1 SUB PUSH2 0x160 ADD SWAP2 CREATE SWAP8 DUP9 ISZERO PUSH3 0x989 JUMPI PUSH2 0x1E0 MLOAD PUSH8 0x6765C793FA10079D PUSH1 0x1B SHL MUL SWAP8 PUSH8 0x6765C793FA10079D PUSH1 0x1B SHL DUP10 DIV PUSH2 0x1E0 MLOAD SUB PUSH3 0x11B6 JUMPI PUSH8 0x6765C793FA10079D PUSH1 0x1B SHL PUSH2 0x2710 DUP11 DIV DUP2 SUB GT PUSH3 0x11B6 JUMPI PUSH1 0x40 MLOAD PUSH4 0xA9059CBB PUSH1 0xE0 SHL DUP2 MSTORE PUSH1 0x1 PUSH1 0x1 PUSH1 0xA0 SHL SUB DUP12 DUP2 AND PUSH1 0x4 DUP4 ADD MSTORE PUSH2 0x2710 DUP12 DIV PUSH8 0x6765C793FA10079D PUSH1 0x1B SHL SUB PUSH1 0x24 DUP4 ADD MSTORE PUSH2 0x1A0 MLOAD PUSH2 0x200 MLOAD PUSH1 0x20 SWAP3 DUP5 SWAP3 PUSH1 0x44 SWAP3 DUP5 SWAP3 AND GAS CALL SWAP1 DUP2 ISZERO PUSH3 0x989 JUMPI PUSH2 0x1A0 MLOAD SWAP2 PUSH3 0x34B8 JUMPI JUMPDEST POP ISZERO PUSH3 0x1156 JUMPI PUSH2 0x2710 DUP10 DIV PUSH3 0x340D JUMPI JUMPDEST PUSH1 0x1 PUSH1 0x1 PUSH1 0xA0 SHL SUB DUP11 AND EXTCODESIZE ISZERO PUSH3 0xDDB JUMPI PUSH1 0x40 MLOAD PUSH4 0x95564837 PUSH1 0xE0 SHL DUP2 MSTORE PUSH2 0x2710 DUP11 DIV PUSH8 0x6765C793FA10079D PUSH1 0x1B SHL SUB PUSH1 0x4 DUP3 ADD MSTORE DUP11 DUP2 PUSH1 0x24 DUP2 PUSH2 0x1A0 MLOAD SWAP4 PUSH2 0x1A0 MLOAD SWAP1 PUSH1 0x1 DUP1 PUSH1 0xA0 SHL SUB AND GAS CALL DUP1 ISZERO PUSH3 0x989 JUMPI PUSH3 0x33F2 JUMPI JUMPDEST POP PUSH1 0x1 PUSH1 0x1 PUSH1 0xA0 SHL SUB DUP11 AND EXTCODESIZE ISZERO PUSH3 0xDDB JUMPI PUSH1 0x40 MLOAD PUSH4 0x9485DC9 PUSH1 0xE2 SHL DUP2 MSTORE DUP11 DUP2 PUSH1 0x4 DUP2 PUSH2 0x1A0 MLOAD SWAP4 PUSH2 0x1A0 MLOAD SWAP1 PUSH1 0x1 DUP1 PUSH1 0xA0 SHL SUB AND GAS CALL DUP1 ISZERO PUSH3 0x989 JUMPI PUSH3 0x33D7 JUMPI JUMPDEST POP PUSH1 0x40 MLOAD PUSH4 0x6B456EF PUSH1 0xE2 SHL DUP2 MSTORE PUSH1 0x20 DUP2 PUSH1 0x4 DUP2 PUSH1 0x1 PUSH1 0x1 PUSH1 0xA0 SHL SUB DUP16 AND GAS STATICCALL SWAP1 DUP2 ISZERO PUSH3 0x989 JUMPI PUSH2 0x1A0 MLOAD SWAP2 PUSH3 0x33B3 JUMPI JUMPDEST POP PUSH1 0x1 PUSH1 0x1 PUSH1 0xA0 SHL SUB DUP2 AND PUSH3 0x3342 JUMPI JUMPDEST POP DUP1 ISZERO SWAP1 PUSH3 0x3336 JUMPI JUMPDEST PUSH3 0x32CA JUMPI JUMPDEST PUSH2 0x200 MLOAD PUSH2 0x1A0 DUP1 MLOAD PUSH1 0x1 PUSH1 0x1 PUSH1 0xA0 SHL SUB SWAP3 DUP4 AND SWAP1 MSTORE PUSH1 0xC PUSH1 0x20 MSTORE MLOAD PUSH1 0x40 SWAP1 KECCAK256 DUP1 SLOAD PUSH1 0x1 PUSH1 0x1 PUSH1 0xA0 SHL SUB NOT AND SWAP2 DUP12 AND SWAP2 SWAP1 SWAP2 OR SWAP1 SSTORE PUSH1 0xB SLOAD SWAP10 PUSH1 0x1 PUSH1 0x40 SHL DUP12 LT ISZERO PUSH3 0xAB2 JUMPI PUSH1 0x1 DUP12 ADD PUSH1 0xB SSTORE PUSH3 0x2B7A DUP12 PUSH3 0x61DA JUMP JUMPDEST POP POP PUSH3 0x2B87 DUP12 PUSH3 0x61DA JUMP JUMPDEST POP PUSH2 0x200 MLOAD DUP2 SLOAD PUSH1 0x1 PUSH1 0x1 PUSH1 0xA0 SHL SUB NOT SWAP1 DUP2 AND PUSH1 0x1 PUSH1 0x1 PUSH1 0xA0 SHL SUB SWAP3 DUP4 AND OR DUP4 SSTORE PUSH1 0x1 DUP4 ADD DUP1 SLOAD DUP3 AND SWAP3 DUP15 AND SWAP3 SWAP1 SWAP3 OR SWAP1 SWAP2 SSTORE PUSH1 0x2 DUP3 ADD DUP1 SLOAD SWAP1 SWAP2 AND CALLER OR SWAP1 SSTORE SWAP8 PUSH1 0x1 PUSH1 0x1 PUSH1 0x40 SHL SUB DUP3 GT PUSH3 0xAB2 JUMPI DUP2 SWAP1 PUSH3 0x2BE8 PUSH1 0x3 DUP12 ADD SLOAD PUSH3 0x622C JUMP JUMPDEST PUSH1 0x1F DUP2 GT PUSH3 0x326C JUMPI JUMPDEST POP PUSH2 0x1A0 MLOAD SWAP1 PUSH1 0x1F DUP4 GT PUSH1 0x1 EQ PUSH3 0x31F5 JUMPI PUSH2 0x1A0 MLOAD SWAP3 PUSH3 0x31E9 JUMPI JUMPDEST POP POP DUP2 PUSH1 0x1 SHL SWAP2 PUSH1 0x0 NOT SWAP1 PUSH1 0x3 SHL SHR NOT AND OR PUSH1 0x3 DUP9 ADD SSTORE JUMPDEST PUSH1 0x1 PUSH1 0x1 PUSH1 0x40 SHL SUB DUP3 GT PUSH3 0xAB2 JUMPI DUP2 SWAP1 PUSH3 0x2C47 PUSH1 0x4 DUP10 ADD SLOAD PUSH3 0x622C JUMP JUMPDEST PUSH1 0x1F DUP2 GT PUSH3 0x318B JUMPI JUMPDEST POP PUSH2 0x1A0 MLOAD SWAP1 PUSH1 0x1F DUP4 GT PUSH1 0x1 EQ PUSH3 0x3114 JUMPI PUSH2 0x1A0 MLOAD SWAP3 PUSH3 0x3108 JUMPI JUMPDEST POP POP DUP2 PUSH1 0x1 SHL SWAP2 PUSH1 0x0 NOT SWAP1 PUSH1 0x3 SHL SHR NOT AND OR PUSH1 0x4 DUP7 ADD SSTORE JUMPDEST PUSH1 0x1 PUSH1 0x1 PUSH1 0x40 SHL SUB DUP3 GT PUSH3 0xAB2 JUMPI DUP2 SWAP1 PUSH3 0x2CA6 PUSH1 0x5 DUP8 ADD SLOAD PUSH3 0x622C JUMP JUMPDEST PUSH1 0x1F DUP2 GT PUSH3 0x30AA JUMPI JUMPDEST POP PUSH2 0x1A0 MLOAD SWAP1 PUSH1 0x1F DUP4 GT PUSH1 0x1 EQ PUSH3 0x3033 JUMPI PUSH2 0x1A0 MLOAD SWAP3 PUSH3 0x3027 JUMPI JUMPDEST POP POP DUP2 PUSH1 0x1 SHL SWAP2 PUSH1 0x0 NOT SWAP1 PUSH1 0x3 SHL SHR NOT AND OR PUSH1 0x5 DUP5 ADD SSTORE JUMPDEST PUSH1 0x1 PUSH1 0x1 PUSH1 0x40 SHL SUB DUP3 GT PUSH3 0xAB2 JUMPI DUP2 SWAP1 PUSH3 0x2D05 PUSH1 0x6 DUP6 ADD SLOAD PUSH3 0x622C JUMP JUMPDEST PUSH1 0x1F DUP2 GT PUSH3 0x2FC9 JUMPI JUMPDEST POP PUSH2 0x1A0 MLOAD SWAP1 PUSH1 0x1F DUP4 GT PUSH1 0x1 EQ PUSH3 0x2F52 JUMPI PUSH2 0x1A0 MLOAD SWAP3 PUSH3 0x2F46 JUMPI JUMPDEST POP POP DUP2 PUSH1 0x1 SHL SWAP2 PUSH1 0x0 NOT SWAP1 PUSH1 0x3 SHL SHR NOT AND OR PUSH1 0x6 DUP3 ADD SSTORE JUMPDEST PUSH8 0x6765C793FA10079D PUSH1 0x1B SHL PUSH1 0x7 DUP3 ADD SSTORE PUSH2 0x2710 DUP3 DIV PUSH1 0x8 DUP3 ADD SSTORE PUSH1 0x9 TIMESTAMP SWAP2 ADD SSTORE PUSH3 0xFFFFFF PUSH1 0x3 SLOAD PUSH1 0x7 SLOAD PUSH1 0x1 DUP1 PUSH1 0xA0 SHL SUB PUSH1 0x8 SLOAD AND SWAP1 PUSH1 0xA SLOAD SWAP3 PUSH2 0x2710 PUSH1 0x40 MLOAD SWAP7 PUSH1 0x1 DUP1 PUSH1 0xA0 SHL SUB DUP10 AND DUP9 MSTORE PUSH8 0x6765C793FA10079D PUSH1 0x1B SHL PUSH1 0x20 DUP10 ADD MSTORE DIV PUSH1 0x40 DUP8 ADD MSTORE PUSH1 0x60 DUP7 ADD MSTORE PUSH1 0x80 DUP6 ADD MSTORE PUSH1 0xA0 DUP5 ADD MSTORE PUSH1 0x1 DUP1 PUSH1 0xA0 SHL SUB PUSH2 0x1C0 MLOAD AND PUSH1 0xC0 DUP5 ADD MSTORE PUSH1 0x1 DUP1 PUSH1 0xA0 SHL SUB DUP2 AND PUSH1 0xE0 DUP5 ADD MSTORE PUSH1 0xA0 SHR AND PUSH2 0x100 DUP3 ADD MSTORE PUSH1 0x1 DUP1 PUSH1 0xA0 SHL SUB PUSH2 0x200 MLOAD AND SWAP1 DUP4 PUSH1 0x0 DUP1 MLOAD PUSH1 0x20 PUSH3 0xB4AB DUP4 CODECOPY DUP2 MLOAD SWAP2 MSTORE PUSH2 0x120 CALLER SWAP4 LOG4 PUSH1 0x40 MLOAD PUSH4 0x17773EBB PUSH1 0xE0 SHL DUP2 MSTORE PUSH2 0x200 MLOAD PUSH1 0x20 SWAP1 DUP3 SWAP1 PUSH1 0x4 SWAP1 DUP3 SWAP1 PUSH1 0x1 PUSH1 0x1 PUSH1 0xA0 SHL SUB AND GAS STATICCALL SWAP1 DUP2 ISZERO PUSH3 0x989 JUMPI PUSH2 0x1A0 MLOAD SWAP2 PUSH3 0x2F0E JUMPI JUMPDEST POP PUSH1 0x40 MLOAD PUSH4 0x116E689F PUSH1 0xE1 SHL DUP2 MSTORE PUSH2 0x200 MLOAD PUSH1 0x20 SWAP1 DUP3 SWAP1 PUSH1 0x4 SWAP1 DUP3 SWAP1 PUSH1 0x1 PUSH1 0x1 PUSH1 0xA0 SHL SUB AND GAS STATICCALL SWAP1 DUP2 ISZERO PUSH3 0x989 JUMPI PUSH2 0x1A0 MLOAD SWAP2 PUSH3 0x2ED6 JUMPI JUMPDEST POP PUSH1 0x40 MLOAD SWAP2 PUSH1 0x32 DUP4 MSTORE PUSH1 0x20 DUP4 ADD MSTORE PUSH1 0x40 DUP3 ADD MSTORE DUP3 PUSH1 0x0 DUP1 MLOAD PUSH1 0x20 PUSH3 0xB4CB DUP4 CODECOPY DUP2 MLOAD SWAP2 MSTORE PUSH1 0x60 PUSH1 0x1 DUP1 PUSH1 0xA0 SHL SUB PUSH2 0x200 MLOAD AND SWAP4 LOG3 PUSH1 0x40 DUP1 MLOAD PUSH2 0x200 MLOAD SWAP4 DUP2 MSTORE PUSH1 0x1 PUSH1 0x1 PUSH1 0xA0 SHL SUB SWAP4 DUP5 AND PUSH1 0x20 DUP3 ADD MSTORE SWAP2 SWAP1 SWAP3 AND SWAP2 DUP2 ADD SWAP2 SWAP1 SWAP2 MSTORE PUSH1 0x60 SWAP1 RETURN JUMPDEST SWAP1 POP PUSH1 0x20 DUP2 RETURNDATASIZE PUSH1 0x20 GT PUSH3 0x2F05 JUMPI JUMPDEST DUP2 PUSH3 0x2EF4 PUSH1 0x20 SWAP4 DUP4 PUSH3 0x6167 JUMP JUMPDEST DUP2 ADD SUB SLT PUSH3 0x97B JUMPI MLOAD DUP5 PUSH3 0x2E77 JUMP JUMPDEST RETURNDATASIZE SWAP2 POP PUSH3 0x2EE5 JUMP JUMPDEST SWAP1 POP PUSH1 0x20 DUP2 RETURNDATASIZE PUSH1 0x20 GT PUSH3 0x2F3D JUMPI JUMPDEST DUP2 PUSH3 0x2F2C PUSH1 0x20 SWAP4 DUP4 PUSH3 0x6167 JUMP JUMPDEST DUP2 ADD SUB SLT PUSH3 0x97B JUMPI MLOAD DUP4 PUSH3 0x2E3D JUMP JUMPDEST RETURNDATASIZE SWAP2 POP PUSH3 0x2F1D JUMP JUMPDEST ADD CALLDATALOAD SWAP1 POP DUP7 DUP1 PUSH3 0x2D2C JUMP JUMPDEST PUSH2 0x1A0 DUP1 MLOAD PUSH1 0x6 DUP8 ADD SWAP1 MSTORE MLOAD PUSH1 0x20 DUP2 KECCAK256 SWAP1 SWAP5 POP SWAP2 JUMPDEST PUSH1 0x1F NOT DUP5 AND DUP6 LT PUSH3 0x2FB0 JUMPI PUSH1 0x1 SWAP5 POP DUP4 PUSH1 0x1F NOT DUP2 AND LT PUSH3 0x2F95 JUMPI JUMPDEST POP POP POP DUP2 SHL ADD PUSH1 0x6 DUP3 ADD SSTORE PUSH3 0x2D44 JUMP JUMPDEST ADD CALLDATALOAD PUSH1 0x0 NOT PUSH1 0x3 DUP5 SWAP1 SHL PUSH1 0xF8 AND SHR NOT AND SWAP1 SSTORE DUP7 DUP1 DUP1 PUSH3 0x2F84 JUMP JUMPDEST DUP2 DUP2 ADD CALLDATALOAD DUP4 SSTORE PUSH1 0x20 SWAP5 DUP6 ADD SWAP5 PUSH1 0x1 SWAP1 SWAP4 ADD SWAP3 ADD PUSH3 0x2F67 JUMP JUMPDEST SWAP1 SWAP2 POP PUSH1 0x6 DUP5 ADD PUSH2 0x1A0 MLOAD MSTORE PUSH1 0x20 PUSH2 0x1A0 MLOAD KECCAK256 PUSH1 0x1F DUP5 ADD PUSH1 0x5 SHR DUP2 ADD PUSH1 0x20 DUP6 LT PUSH3 0x301F JUMPI JUMPDEST SWAP1 DUP5 SWAP4 SWAP3 SWAP2 JUMPDEST PUSH1 0x1F DUP4 ADD PUSH1 0x5 SHR DUP3 ADD DUP2 LT PUSH3 0x300D JUMPI POP POP PUSH3 0x2D0F JUMP JUMPDEST PUSH2 0x1A0 MLOAD DUP2 SSTORE DUP6 SWAP5 POP PUSH1 0x1 ADD PUSH3 0x2FF5 JUMP JUMPDEST POP DUP1 PUSH3 0x2FEF JUMP JUMPDEST ADD CALLDATALOAD SWAP1 POP DUP9 DUP1 PUSH3 0x2CCD JUMP JUMPDEST PUSH2 0x1A0 DUP1 MLOAD PUSH1 0x5 DUP10 ADD SWAP1 MSTORE MLOAD PUSH1 0x20 DUP2 KECCAK256 SWAP1 SWAP5 POP SWAP2 JUMPDEST PUSH1 0x1F NOT DUP5 AND DUP6 LT PUSH3 0x3091 JUMPI PUSH1 0x1 SWAP5 POP DUP4 PUSH1 0x1F NOT DUP2 AND LT PUSH3 0x3076 JUMPI JUMPDEST POP POP POP DUP2 SHL ADD PUSH1 0x5 DUP5 ADD SSTORE PUSH3 0x2CE5 JUMP JUMPDEST ADD CALLDATALOAD PUSH1 0x0 NOT PUSH1 0x3 DUP5 SWAP1 SHL PUSH1 0xF8 AND SHR NOT AND SWAP1 SSTORE DUP9 DUP1 DUP1 PUSH3 0x3065 JUMP JUMPDEST DUP2 DUP2 ADD CALLDATALOAD DUP4 SSTORE PUSH1 0x20 SWAP5 DUP6 ADD SWAP5 PUSH1 0x1 SWAP1 SWAP4 ADD SWAP3 ADD PUSH3 0x3048 JUMP JUMPDEST SWAP1 SWAP2 POP PUSH1 0x5 DUP7 ADD PUSH2 0x1A0 MLOAD MSTORE PUSH1 0x20 PUSH2 0x1A0 MLOAD KECCAK256 PUSH1 0x1F DUP5 ADD PUSH1 0x5 SHR DUP2 ADD PUSH1 0x20 DUP6 LT PUSH3 0x3100 JUMPI JUMPDEST SWAP1 DUP5 SWAP4 SWAP3 SWAP2 JUMPDEST PUSH1 0x1F DUP4 ADD PUSH1 0x5 SHR DUP3 ADD DUP2 LT PUSH3 0x30EE JUMPI POP POP PUSH3 0x2CB0 JUMP JUMPDEST PUSH2 0x1A0 MLOAD DUP2 SSTORE DUP6 SWAP5 POP PUSH1 0x1 ADD PUSH3 0x30D6 JUMP JUMPDEST POP DUP1 PUSH3 0x30D0 JUMP JUMPDEST ADD CALLDATALOAD SWAP1 POP DUP11 DUP1 PUSH3 0x2C6E JUMP JUMPDEST PUSH2 0x1A0 DUP1 MLOAD PUSH1 0x4 DUP12 ADD SWAP1 MSTORE MLOAD PUSH1 0x20 DUP2 KECCAK256 SWAP1 SWAP5 POP SWAP2 JUMPDEST PUSH1 0x1F NOT DUP5 AND DUP6 LT PUSH3 0x3172 JUMPI PUSH1 0x1 SWAP5 POP DUP4 PUSH1 0x1F NOT DUP2 AND LT PUSH3 0x3157 JUMPI JUMPDEST POP POP POP DUP2 SHL ADD PUSH1 0x4 DUP7 ADD SSTORE PUSH3 0x2C86 JUMP JUMPDEST ADD CALLDATALOAD PUSH1 0x0 NOT PUSH1 0x3 DUP5 SWAP1 SHL PUSH1 0xF8 AND SHR NOT AND SWAP1 SSTORE DUP11 DUP1 DUP1 PUSH3 0x3146 JUMP JUMPDEST DUP2 DUP2 ADD CALLDATALOAD DUP4 SSTORE PUSH1 0x20 SWAP5 DUP6 ADD SWAP5 PUSH1 0x1 SWAP1 SWAP4 ADD SWAP3 ADD PUSH3 0x3129 JUMP JUMPDEST SWAP1 SWAP2 POP PUSH1 0x4 DUP9 ADD PUSH2 0x1A0 MLOAD MSTORE PUSH1 0x20 PUSH2 0x1A0 MLOAD KECCAK256 PUSH1 0x1F DUP5 ADD PUSH1 0x5 SHR DUP2 ADD PUSH1 0x20 DUP6 LT PUSH3 0x31E1 JUMPI JUMPDEST SWAP1 DUP5 SWAP4 SWAP3 SWAP2 JUMPDEST PUSH1 0x1F DUP4 ADD PUSH1 0x5 SHR DUP3 ADD DUP2 LT PUSH3 0x31CF JUMPI POP POP PUSH3 0x2C51 JUMP JUMPDEST PUSH2 0x1A0 MLOAD DUP2 SSTORE DUP6 SWAP5 POP PUSH1 0x1 ADD PUSH3 0x31B7 JUMP JUMPDEST POP DUP1 PUSH3 0x31B1 JUMP JUMPDEST ADD CALLDATALOAD SWAP1 POP DUP13 DUP1 PUSH3 0x2C0F JUMP JUMPDEST PUSH2 0x1A0 DUP1 MLOAD PUSH1 0x3 DUP14 ADD SWAP1 MSTORE MLOAD PUSH1 0x20 DUP2 KECCAK256 SWAP1 SWAP5 POP SWAP2 JUMPDEST PUSH1 0x1F NOT DUP5 AND DUP6 LT PUSH3 0x3253 JUMPI PUSH1 0x1 SWAP5 POP DUP4 PUSH1 0x1F NOT DUP2 AND LT PUSH3 0x3238 JUMPI JUMPDEST POP POP POP DUP2 SHL ADD PUSH1 0x3 DUP9 ADD SSTORE PUSH3 0x2C27 JUMP JUMPDEST ADD CALLDATALOAD PUSH1 0x0 NOT PUSH1 0x3 DUP5 SWAP1 SHL PUSH1 0xF8 AND SHR NOT AND SWAP1 SSTORE DUP13 DUP1 DUP1 PUSH3 0x3227 JUMP JUMPDEST DUP2 DUP2 ADD CALLDATALOAD DUP4 SSTORE PUSH1 0x20 SWAP5 DUP6 ADD SWAP5 PUSH1 0x1 SWAP1 SWAP4 ADD SWAP3 ADD PUSH3 0x320A JUMP JUMPDEST SWAP1 SWAP2 POP PUSH1 0x3 DUP11 ADD PUSH2 0x1A0 MLOAD MSTORE PUSH1 0x20 PUSH2 0x1A0 MLOAD KECCAK256 PUSH1 0x1F DUP5 ADD PUSH1 0x5 SHR DUP2 ADD PUSH1 0x20 DUP6 LT PUSH3 0x32C2 JUMPI JUMPDEST SWAP1 DUP5 SWAP4 SWAP3 SWAP2 JUMPDEST PUSH1 0x1F DUP4 ADD PUSH1 0x5 SHR DUP3 ADD DUP2 LT PUSH3 0x32B0 JUMPI POP POP PUSH3 0x2BF2 JUMP JUMPDEST PUSH2 0x1A0 MLOAD DUP2 SSTORE DUP6 SWAP5 POP PUSH1 0x1 ADD PUSH3 0x3298 JUMP JUMPDEST POP DUP1 PUSH3 0x3292 JUMP JUMPDEST PUSH2 0x200 MLOAD PUSH1 0x1 PUSH1 0x1 PUSH1 0xA0 SHL SUB AND EXTCODESIZE ISZERO PUSH3 0xDDB JUMPI PUSH1 0x40 MLOAD PUSH4 0x6E258E07 PUSH1 0xE1 SHL DUP2 MSTORE PUSH2 0x1A0 MLOAD PUSH2 0x200 MLOAD DUP3 SWAP1 PUSH1 0x4 SWAP1 DUP3 SWAP1 DUP5 SWAP1 PUSH1 0x1 PUSH1 0x1 PUSH1 0xA0 SHL SUB AND GAS CALL DUP1 ISZERO PUSH3 0x989 JUMPI PUSH3 0x331B JUMPI JUMPDEST POP PUSH3 0x2B22 JUMP JUMPDEST PUSH3 0x3326 SWAP1 PUSH3 0x6120 JUMP JUMPDEST PUSH2 0x1A0 MLOAD PUSH3 0xDDB JUMPI DUP11 PUSH3 0x3314 JUMP JUMPDEST POP PUSH2 0x1237 CHAINID EQ PUSH3 0x2B1C JUMP JUMPDEST PUSH2 0x200 MLOAD PUSH1 0x1 PUSH1 0x1 PUSH1 0xA0 SHL SUB AND EXTCODESIZE ISZERO PUSH3 0xDDB JUMPI PUSH1 0x40 MLOAD PUSH4 0x15C6DEB9 PUSH1 0xE3 SHL DUP2 MSTORE PUSH1 0x1 PUSH1 0x1 PUSH1 0xA0 SHL SUB SWAP2 DUP3 AND PUSH1 0x4 DUP3 ADD MSTORE PUSH2 0x1A0 MLOAD PUSH2 0x200 MLOAD SWAP2 SWAP3 SWAP1 SWAP2 DUP4 SWAP2 PUSH1 0x24 SWAP2 DUP4 SWAP2 DUP6 SWAP2 AND GAS CALL DUP1 ISZERO PUSH3 0x989 JUMPI ISZERO PUSH3 0x2B12 JUMPI PUSH3 0x33A3 SWAP1 PUSH3 0x6120 JUMP JUMPDEST PUSH2 0x1A0 MLOAD PUSH3 0xDDB JUMPI DUP12 PUSH3 0x2B12 JUMP JUMPDEST PUSH3 0x33D0 SWAP2 POP PUSH1 0x20 RETURNDATASIZE PUSH1 0x20 GT PUSH3 0xE8D JUMPI PUSH3 0xE7D DUP2 DUP4 PUSH3 0x6167 JUMP JUMPDEST DUP13 PUSH3 0x2B01 JUMP JUMPDEST PUSH3 0x33E2 SWAP1 PUSH3 0x6120 JUMP JUMPDEST PUSH2 0x1A0 MLOAD PUSH3 0xDDB JUMPI DUP12 PUSH3 0x2ACE JUMP JUMPDEST PUSH3 0x33FD SWAP1 PUSH3 0x6120 JUMP JUMPDEST PUSH2 0x1A0 MLOAD PUSH3 0xDDB JUMPI DUP12 PUSH3 0x2A89 JUMP JUMPDEST PUSH1 0x40 MLOAD PUSH4 0xA9059CBB PUSH1 0xE0 SHL DUP2 MSTORE CALLER PUSH1 0x4 DUP3 ADD MSTORE PUSH2 0x2710 DUP11 DIV PUSH1 0x24 DUP3 ADD MSTORE PUSH2 0x1A0 MLOAD PUSH2 0x200 MLOAD PUSH1 0x20 SWAP2 DUP4 SWAP2 PUSH1 0x44 SWAP2 DUP4 SWAP2 PUSH1 0x1 PUSH1 0x1 PUSH1 0xA0 SHL SUB AND GAS CALL SWAP1 DUP2 ISZERO PUSH3 0x989 JUMPI PUSH2 0x1A0 MLOAD SWAP2 PUSH3 0x3494 JUMPI JUMPDEST POP PUSH3 0x2A2E JUMPI PUSH1 0x40 MLOAD PUSH3 0x461BCD PUSH1 0xE5 SHL DUP2 MSTORE PUSH1 0x20 PUSH1 0x4 DUP3 ADD MSTORE PUSH1 0x17 PUSH1 0x24 DUP3 ADD MSTORE PUSH1 0x0 DUP1 MLOAD PUSH1 0x20 PUSH3 0xB48B DUP4 CODECOPY DUP2 MLOAD SWAP2 MSTORE PUSH1 0x44 DUP3 ADD MSTORE PUSH1 0x64 SWAP1 REVERT JUMPDEST PUSH3 0x34B1 SWAP2 POP PUSH1 0x20 RETURNDATASIZE PUSH1 0x20 GT PUSH3 0x114E JUMPI PUSH3 0x113E DUP2 DUP4 PUSH3 0x6167 JUMP JUMPDEST DUP13 PUSH3 0x345A JUMP JUMPDEST PUSH3 0x34D5 SWAP2 POP PUSH1 0x20 RETURNDATASIZE PUSH1 0x20 GT PUSH3 0x114E JUMPI PUSH3 0x113E DUP2 DUP4 PUSH3 0x6167 JUMP JUMPDEST DUP13 PUSH3 0x2A1C JUMP JUMPDEST CALLVALUE PUSH3 0xDDB JUMPI PUSH2 0x1A0 MLOAD CALLDATASIZE PUSH1 0x3 NOT ADD SLT PUSH3 0xDDB JUMPI PUSH1 0x20 PUSH1 0x6 SLOAD PUSH1 0x40 MLOAD SWAP1 DUP2 MSTORE RETURN JUMPDEST CALLVALUE PUSH3 0xDDB JUMPI PUSH2 0x1A0 MLOAD CALLDATASIZE PUSH1 0x3 NOT ADD SLT PUSH3 0xDDB JUMPI PUSH2 0x1A0 MLOAD SLOAD PUSH1 0x40 MLOAD PUSH1 0x1 PUSH1 0x1 PUSH1 0xA0 SHL SUB SWAP1 SWAP2 AND DUP2 MSTORE PUSH1 0x20 SWAP1 RETURN JUMPDEST CALLVALUE PUSH3 0xDDB JUMPI PUSH2 0x1A0 MLOAD CALLDATASIZE PUSH1 0x3 NOT ADD SLT PUSH3 0xDDB JUMPI PUSH1 0x20 PUSH1 0x4 SLOAD PUSH1 0x40 MLOAD SWAP1 DUP2 MSTORE RETURN JUMPDEST CALLVALUE PUSH3 0xDDB JUMPI PUSH2 0x1A0 MLOAD CALLDATASIZE PUSH1 0x3 NOT ADD SLT PUSH3 0xDDB JUMPI PUSH1 0x20 PUSH1 0x40 MLOAD PUSH2 0x1237 DUP2 MSTORE RETURN JUMPDEST CALLVALUE PUSH3 0xDDB JUMPI PUSH2 0x1A0 MLOAD CALLDATASIZE PUSH1 0x3 NOT ADD SLT PUSH3 0xDDB JUMPI PUSH1 0x20 PUSH1 0x7 SLOAD PUSH1 0x40 MLOAD SWAP1 DUP2 MSTORE RETURN JUMPDEST PUSH3 0x359D CALLDATASIZE PUSH3 0x5EC4 JUMP JUMPDEST PUSH2 0x260 MSTORE POP PUSH2 0x220 SWAP8 SWAP1 SWAP8 MSTORE PUSH1 0x4 SLOAD SWAP5 SWAP7 SWAP3 SWAP6 SWAP4 SWAP5 SWAP1 SWAP2 SWAP1 PUSH3 0x35C8 SWAP1 PUSH3 0x1C3 CALLVALUE DUP3 GT ISZERO PUSH3 0x63BC JUMP JUMPDEST SWAP6 DUP7 ISZERO SWAP6 DUP7 DUP1 PUSH3 0x4538 JUMPI JUMPDEST DUP8 ISZERO PUSH3 0x4510 JUMPI JUMPDEST POP PUSH3 0x35E7 PUSH3 0x6679 JUMP JUMPDEST PUSH1 0x40 MLOAD DUP9 DUP2 MSTORE PUSH32 0xB610EA5B60C2E916119AD74EB6F1C4E02B296189E982F615F38630738BE97865 PUSH1 0x20 CALLER SWAP3 LOG2 DUP6 ISZERO PUSH3 0x127C JUMPI DUP1 ISZERO PUSH3 0x1245 JUMPI PUSH2 0x7D0 PUSH2 0x260 MLOAD GT PUSH3 0x120A JUMPI PUSH1 0x2 SLOAD PUSH1 0x40 MLOAD SWAP1 PUSH1 0x1 PUSH1 0x1 PUSH1 0xA0 SHL SUB AND PUSH1 0x1 PUSH1 0x1 PUSH1 0x40 SHL SUB PUSH2 0x1808 DUP4 ADD SWAP1 DUP2 GT SWAP1 DUP4 GT OR PUSH3 0xAB2 JUMPI DUP2 SWAP1 PUSH2 0x1808 PUSH3 0x9C83 DUP4 CODECOPY PUSH1 0xE0 PUSH2 0x1808 DUP4 ADD MSTORE PUSH3 0x369E DUP13 DUP6 PUSH3 0x3687 PUSH1 0xE0 PUSH2 0x1808 DUP8 ADD ADD DUP14 PUSH2 0x220 MLOAD PUSH3 0x6780 JUMP JUMPDEST SWAP2 PUSH2 0x1808 DUP7 ADD DUP4 SUB PUSH1 0x20 PUSH2 0x1808 DUP9 ADD ADD MSTORE PUSH3 0x6780 JUMP JUMPDEST SWAP1 PUSH8 0x6765C793FA10079D PUSH1 0x1B SHL PUSH1 0x40 PUSH2 0x1808 DUP6 ADD ADD MSTORE ADDRESS PUSH1 0x60 PUSH2 0x1808 DUP6 ADD ADD MSTORE CALLER PUSH1 0x80 PUSH2 0x1808 DUP6 ADD ADD MSTORE PUSH1 0xA0 PUSH2 0x1808 DUP5 ADD ADD MSTORE PUSH1 0x32 PUSH1 0xC0 PUSH2 0x1808 DUP5 ADD ADD MSTORE SUB SWAP1 PUSH2 0x1A0 MLOAD CREATE PUSH2 0x280 MSTORE PUSH2 0x280 MLOAD ISZERO PUSH3 0x989 JUMPI PUSH1 0x2 SLOAD PUSH1 0x1 PUSH1 0x1 PUSH1 0xA0 SHL SUB AND CALLER EQ SWAP8 PUSH3 0x370B DUP10 PUSH3 0x67DC JUMP JUMPDEST PUSH2 0x240 MSTORE PUSH1 0x1 SLOAD PUSH1 0x3 SLOAD PUSH1 0x5 SLOAD PUSH1 0x6 SLOAD PUSH1 0x7 SLOAD PUSH1 0x8 SLOAD PUSH1 0xA SLOAD PUSH1 0x40 MLOAD SWAP7 PUSH1 0x1 PUSH1 0x1 PUSH1 0xA0 SHL SUB SWAP1 DUP2 AND SWAP7 SWAP2 SWAP6 SWAP3 AND SWAP4 SWAP2 SWAP1 PUSH1 0x1 PUSH1 0x1 PUSH1 0x40 SHL SUB PUSH2 0x3464 DUP10 ADD SWAP1 DUP2 GT SWAP1 DUP10 GT OR PUSH3 0xAB2 JUMPI PUSH3 0xFFFFFF SWAP7 PUSH2 0x3464 PUSH3 0x681F DUP11 CODECOPY PUSH2 0x280 MLOAD PUSH1 0x1 PUSH1 0x1 PUSH1 0xA0 SHL SUB SWAP1 DUP2 AND PUSH2 0x3464 DUP12 ADD SWAP1 DUP2 MSTORE ADDRESS PUSH1 0x20 DUP3 ADD MSTORE PUSH1 0x40 DUP2 ADD SWAP3 SWAP1 SWAP3 MSTORE PUSH1 0x60 DUP3 ADD SWAP3 SWAP1 SWAP3 MSTORE PUSH1 0x80 DUP2 ADD SWAP3 SWAP1 SWAP3 MSTORE PUSH1 0xA0 DUP3 DUP2 ADD SWAP4 SWAP1 SWAP4 MSTORE PUSH1 0xC0 DUP3 ADD SWAP4 SWAP1 SWAP4 MSTORE PUSH1 0xE0 DUP2 ADD SWAP4 SWAP1 SWAP4 MSTORE PUSH2 0x240 MLOAD DUP3 AND PUSH2 0x100 DUP5 ADD MSTORE SWAP1 DUP4 AND PUSH2 0x120 DUP4 ADD MSTORE SWAP2 SWAP1 SWAP2 SHR SWAP2 SWAP1 SWAP2 AND PUSH2 0x140 DUP3 ADD MSTORE DUP2 SWAP1 SUB PUSH2 0x160 ADD SWAP2 CREATE SWAP8 DUP9 ISZERO PUSH3 0x989 JUMPI PUSH2 0x260 MLOAD PUSH8 0x6765C793FA10079D PUSH1 0x1B SHL MUL SWAP8 PUSH8 0x6765C793FA10079D PUSH1 0x1B SHL DUP10 DIV PUSH2 0x260 MLOAD SUB PUSH3 0x11B6 JUMPI PUSH8 0x6765C793FA10079D PUSH1 0x1B SHL PUSH2 0x2710 DUP11 DIV DUP2 SUB GT PUSH3 0x11B6 JUMPI PUSH1 0x40 MLOAD PUSH4 0xA9059CBB PUSH1 0xE0 SHL DUP2 MSTORE PUSH1 0x1 PUSH1 0x1 PUSH1 0xA0 SHL SUB DUP12 DUP2 AND PUSH1 0x4 DUP4 ADD MSTORE PUSH2 0x2710 DUP12 DIV PUSH8 0x6765C793FA10079D PUSH1 0x1B SHL SUB PUSH1 0x24 DUP4 ADD MSTORE PUSH2 0x1A0 MLOAD PUSH2 0x280 MLOAD PUSH1 0x20 SWAP3 DUP5 SWAP3 PUSH1 0x44 SWAP3 DUP5 SWAP3 AND GAS CALL SWAP1 DUP2 ISZERO PUSH3 0x989 JUMPI PUSH2 0x1A0 MLOAD SWAP2 PUSH3 0x44EC JUMPI JUMPDEST POP ISZERO PUSH3 0x1156 JUMPI PUSH2 0x2710 DUP10 DIV PUSH3 0x4441 JUMPI JUMPDEST PUSH1 0x1 PUSH1 0x1 PUSH1 0xA0 SHL SUB DUP11 AND EXTCODESIZE ISZERO PUSH3 0xDDB JUMPI PUSH1 0x40 MLOAD PUSH4 0x95564837 PUSH1 0xE0 SHL DUP2 MSTORE PUSH2 0x2710 DUP11 DIV PUSH8 0x6765C793FA10079D PUSH1 0x1B SHL SUB PUSH1 0x4 DUP3 ADD MSTORE DUP11 DUP2 PUSH1 0x24 DUP2 PUSH2 0x1A0 MLOAD SWAP4 PUSH2 0x1A0 MLOAD SWAP1 PUSH1 0x1 DUP1 PUSH1 0xA0 SHL SUB AND GAS CALL DUP1 ISZERO PUSH3 0x989 JUMPI PUSH3 0x4426 JUMPI JUMPDEST POP DUP1 PUSH3 0x4258 JUMPI POP PUSH1 0x1 PUSH1 0x1 PUSH1 0xA0 SHL SUB DUP10 AND EXTCODESIZE ISZERO PUSH3 0xDDB JUMPI PUSH1 0x40 MLOAD PUSH4 0x1C7031D7 PUSH1 0xE3 SHL DUP2 MSTORE PUSH2 0x1A0 MLOAD DUP2 PUSH1 0x4 DUP2 DUP4 PUSH1 0x1 PUSH1 0x1 PUSH1 0xA0 SHL SUB DUP16 AND GAS CALL DUP1 ISZERO PUSH3 0x989 JUMPI PUSH3 0x423D JUMPI JUMPDEST POP PUSH1 0x40 MLOAD PUSH4 0x6B456EF PUSH1 0xE2 SHL DUP2 MSTORE PUSH1 0x20 DUP2 PUSH1 0x4 DUP2 PUSH1 0x1 PUSH1 0x1 PUSH1 0xA0 SHL SUB DUP15 AND GAS STATICCALL SWAP1 DUP2 ISZERO PUSH3 0x989 JUMPI PUSH2 0x1A0 MLOAD SWAP2 PUSH3 0x4219 JUMPI JUMPDEST POP PUSH1 0x1 PUSH1 0x1 PUSH1 0xA0 SHL SUB DUP2 AND PUSH3 0x41A8 JUMPI JUMPDEST POP DUP1 ISZERO SWAP1 PUSH3 0x419C JUMPI JUMPDEST PUSH3 0x4130 JUMPI JUMPDEST PUSH2 0x280 MLOAD PUSH2 0x1A0 DUP1 MLOAD PUSH1 0x1 PUSH1 0x1 PUSH1 0xA0 SHL SUB SWAP3 DUP4 AND SWAP1 MSTORE PUSH1 0xC PUSH1 0x20 MSTORE MLOAD PUSH1 0x40 SWAP1 KECCAK256 DUP1 SLOAD PUSH1 0x1 PUSH1 0x1 PUSH1 0xA0 SHL SUB NOT AND SWAP2 DUP11 AND SWAP2 SWAP1 SWAP2 OR SWAP1 SSTORE PUSH1 0xB SLOAD SWAP9 PUSH1 0x1 PUSH1 0x40 SHL DUP11 LT ISZERO PUSH3 0xAB2 JUMPI PUSH1 0x1 DUP11 ADD PUSH1 0xB SSTORE PUSH3 0x39E4 DUP11 PUSH3 0x61DA JUMP JUMPDEST POP POP PUSH3 0x39F1 DUP11 PUSH3 0x61DA JUMP JUMPDEST POP PUSH2 0x280 MLOAD DUP2 SLOAD PUSH1 0x1 PUSH1 0x1 PUSH1 0xA0 SHL SUB NOT SWAP1 DUP2 AND PUSH1 0x1 PUSH1 0x1 PUSH1 0xA0 SHL SUB SWAP3 DUP4 AND OR DUP4 SSTORE PUSH1 0x1 DUP4 ADD DUP1 SLOAD DUP3 AND SWAP3 DUP14 AND SWAP3 SWAP1 SWAP3 OR SWAP1 SWAP2 SSTORE PUSH1 0x2 DUP3 ADD DUP1 SLOAD SWAP1 SWAP2 AND CALLER OR SWAP1 SSTORE SWAP7 PUSH1 0x1 PUSH1 0x1 PUSH1 0x40 SHL SUB DUP2 GT PUSH3 0xAB2 JUMPI PUSH3 0x3A50 PUSH1 0x3 DUP10 ADD SLOAD PUSH3 0x622C JUMP JUMPDEST PUSH1 0x1F DUP2 GT PUSH3 0x40DE JUMPI JUMPDEST POP DUP1 PUSH2 0x1A0 MLOAD PUSH1 0x1F DUP3 GT PUSH1 0x1 EQ PUSH3 0x405F JUMPI PUSH2 0x1A0 MLOAD SWAP2 PUSH3 0x4050 JUMPI JUMPDEST POP DUP2 PUSH1 0x1 SHL SWAP2 PUSH1 0x0 NOT SWAP1 PUSH1 0x3 SHL SHR NOT AND OR PUSH1 0x3 DUP9 ADD SSTORE JUMPDEST PUSH1 0x1 PUSH1 0x1 PUSH1 0x40 SHL SUB DUP3 GT PUSH3 0xAB2 JUMPI DUP2 SWAP1 PUSH3 0x3AAE PUSH1 0x4 DUP10 ADD SLOAD PUSH3 0x622C JUMP JUMPDEST PUSH1 0x1F DUP2 GT PUSH3 0x3FF2 JUMPI JUMPDEST POP PUSH2 0x1A0 MLOAD SWAP1 PUSH1 0x1F DUP4 GT PUSH1 0x1 EQ PUSH3 0x3F7B JUMPI PUSH2 0x1A0 MLOAD SWAP3 PUSH3 0x3F6F JUMPI JUMPDEST POP POP DUP2 PUSH1 0x1 SHL SWAP2 PUSH1 0x0 NOT SWAP1 PUSH1 0x3 SHL SHR NOT AND OR PUSH1 0x4 DUP7 ADD SSTORE JUMPDEST PUSH1 0x1 PUSH1 0x1 PUSH1 0x40 SHL SUB DUP3 GT PUSH3 0xAB2 JUMPI DUP2 SWAP1 PUSH3 0x3B0D PUSH1 0x5 DUP8 ADD SLOAD PUSH3 0x622C JUMP JUMPDEST PUSH1 0x1F DUP2 GT PUSH3 0x3F11 JUMPI JUMPDEST POP PUSH2 0x1A0 MLOAD SWAP1 PUSH1 0x1F DUP4 GT PUSH1 0x1 EQ PUSH3 0x3E9A JUMPI PUSH2 0x1A0 MLOAD SWAP3 PUSH3 0x3E8E JUMPI JUMPDEST POP POP DUP2 PUSH1 0x1 SHL SWAP2 PUSH1 0x0 NOT SWAP1 PUSH1 0x3 SHL SHR NOT AND OR PUSH1 0x5 DUP5 ADD SSTORE JUMPDEST PUSH1 0x1 PUSH1 0x1 PUSH1 0x40 SHL SUB DUP3 GT PUSH3 0xAB2 JUMPI DUP2 SWAP1 PUSH3 0x3B6C PUSH1 0x6 DUP6 ADD SLOAD PUSH3 0x622C JUMP JUMPDEST PUSH1 0x1F DUP2 GT PUSH3 0x3E30 JUMPI JUMPDEST POP PUSH2 0x1A0 MLOAD SWAP1 PUSH1 0x1F DUP4 GT PUSH1 0x1 EQ PUSH3 0x3DB9 JUMPI PUSH2 0x1A0 MLOAD SWAP3 PUSH3 0x3DAD JUMPI JUMPDEST POP POP DUP2 PUSH1 0x1 SHL SWAP2 PUSH1 0x0 NOT SWAP1 PUSH1 0x3 SHL SHR NOT AND OR PUSH1 0x6 DUP3 ADD SSTORE JUMPDEST PUSH8 0x6765C793FA10079D PUSH1 0x1B SHL PUSH1 0x7 DUP3 ADD SSTORE PUSH2 0x2710 DUP3 DIV PUSH1 0x8 DUP3 ADD SSTORE PUSH1 0x9 TIMESTAMP SWAP2 ADD SSTORE PUSH3 0xFFFFFF PUSH1 0x3 SLOAD PUSH1 0x7 SLOAD PUSH1 0x1 DUP1 PUSH1 0xA0 SHL SUB PUSH1 0x8 SLOAD AND SWAP1 PUSH1 0xA SLOAD SWAP3 PUSH2 0x2710 PUSH1 0x40 MLOAD SWAP7 PUSH1 0x1 DUP1 PUSH1 0xA0 SHL SUB DUP10 AND DUP9 MSTORE PUSH8 0x6765C793FA10079D PUSH1 0x1B SHL PUSH1 0x20 DUP10 ADD MSTORE DIV PUSH1 0x40 DUP8 ADD MSTORE PUSH1 0x60 DUP7 ADD MSTORE PUSH1 0x80 DUP6 ADD MSTORE PUSH1 0xA0 DUP5 ADD MSTORE PUSH1 0x1 DUP1 PUSH1 0xA0 SHL SUB PUSH2 0x240 MLOAD AND PUSH1 0xC0 DUP5 ADD MSTORE PUSH1 0x1 DUP1 PUSH1 0xA0 SHL SUB DUP2 AND PUSH1 0xE0 DUP5 ADD MSTORE PUSH1 0xA0 SHR AND PUSH2 0x100 DUP3 ADD MSTORE PUSH1 0x1 DUP1 PUSH1 0xA0 SHL SUB PUSH2 0x280 MLOAD AND SWAP1 DUP4 PUSH1 0x0 DUP1 MLOAD PUSH1 0x20 PUSH3 0xB4AB DUP4 CODECOPY DUP2 MLOAD SWAP2 MSTORE PUSH2 0x120 CALLER SWAP4 LOG4 PUSH1 0x40 MLOAD PUSH4 0x17773EBB PUSH1 0xE0 SHL DUP2 MSTORE PUSH2 0x280 MLOAD PUSH1 0x20 SWAP1 DUP3 SWAP1 PUSH1 0x4 SWAP1 DUP3 SWAP1 PUSH1 0x1 PUSH1 0x1 PUSH1 0xA0 SHL SUB AND GAS STATICCALL SWAP1 DUP2 ISZERO PUSH3 0x989 JUMPI PUSH2 0x1A0 MLOAD SWAP2 PUSH3 0x3D75 JUMPI JUMPDEST POP PUSH1 0x40 MLOAD PUSH4 0x116E689F PUSH1 0xE1 SHL DUP2 MSTORE PUSH2 0x280 MLOAD PUSH1 0x20 SWAP1 DUP3 SWAP1 PUSH1 0x4 SWAP1 DUP3 SWAP1 PUSH1 0x1 PUSH1 0x1 PUSH1 0xA0 SHL SUB AND GAS STATICCALL SWAP1 DUP2 ISZERO PUSH3 0x989 JUMPI PUSH2 0x1A0 MLOAD SWAP2 PUSH3 0x3D3D JUMPI JUMPDEST POP PUSH1 0x40 MLOAD SWAP2 PUSH1 0x32 DUP4 MSTORE PUSH1 0x20 DUP4 ADD MSTORE PUSH1 0x40 DUP3 ADD MSTORE DUP3 PUSH1 0x0 DUP1 MLOAD PUSH1 0x20 PUSH3 0xB4CB DUP4 CODECOPY DUP2 MLOAD SWAP2 MSTORE PUSH1 0x60 PUSH1 0x1 DUP1 PUSH1 0xA0 SHL SUB PUSH2 0x280 MLOAD AND SWAP4 LOG3 PUSH1 0x40 DUP1 MLOAD PUSH2 0x280 MLOAD SWAP4 DUP2 MSTORE PUSH1 0x1 PUSH1 0x1 PUSH1 0xA0 SHL SUB SWAP4 DUP5 AND PUSH1 0x20 DUP3 ADD MSTORE SWAP2 SWAP1 SWAP3 AND SWAP2 DUP2 ADD SWAP2 SWAP1 SWAP2 MSTORE PUSH1 0x60 SWAP1 RETURN JUMPDEST SWAP1 POP PUSH1 0x20 DUP2 RETURNDATASIZE PUSH1 0x20 GT PUSH3 0x3D6C JUMPI JUMPDEST DUP2 PUSH3 0x3D5B PUSH1 0x20 SWAP4 DUP4 PUSH3 0x6167 JUMP JUMPDEST DUP2 ADD SUB SLT PUSH3 0x97B JUMPI MLOAD DUP5 PUSH3 0x3CDE JUMP JUMPDEST RETURNDATASIZE SWAP2 POP PUSH3 0x3D4C JUMP JUMPDEST SWAP1 POP PUSH1 0x20 DUP2 RETURNDATASIZE PUSH1 0x20 GT PUSH3 0x3DA4 JUMPI JUMPDEST DUP2 PUSH3 0x3D93 PUSH1 0x20 SWAP4 DUP4 PUSH3 0x6167 JUMP JUMPDEST DUP2 ADD SUB SLT PUSH3 0x97B JUMPI MLOAD DUP4 PUSH3 0x3CA4 JUMP JUMPDEST RETURNDATASIZE SWAP2 POP PUSH3 0x3D84 JUMP JUMPDEST ADD CALLDATALOAD SWAP1 POP DUP7 DUP1 PUSH3 0x3B93 JUMP JUMPDEST PUSH2 0x1A0 DUP1 MLOAD PUSH1 0x6 DUP8 ADD SWAP1 MSTORE MLOAD PUSH1 0x20 DUP2 KECCAK256 SWAP1 SWAP5 POP SWAP2 JUMPDEST PUSH1 0x1F NOT DUP5 AND DUP6 LT PUSH3 0x3E17 JUMPI PUSH1 0x1 SWAP5 POP DUP4 PUSH1 0x1F NOT DUP2 AND LT PUSH3 0x3DFC JUMPI JUMPDEST POP POP POP DUP2 SHL ADD PUSH1 0x6 DUP3 ADD SSTORE PUSH3 0x3BAB JUMP JUMPDEST ADD CALLDATALOAD PUSH1 0x0 NOT PUSH1 0x3 DUP5 SWAP1 SHL PUSH1 0xF8 AND SHR NOT AND SWAP1 SSTORE DUP7 DUP1 DUP1 PUSH3 0x3DEB JUMP JUMPDEST DUP2 DUP2 ADD CALLDATALOAD DUP4 SSTORE PUSH1 0x20 SWAP5 DUP6 ADD SWAP5 PUSH1 0x1 SWAP1 SWAP4 ADD SWAP3 ADD PUSH3 0x3DCE JUMP JUMPDEST SWAP1 SWAP2 POP PUSH1 0x6 DUP5 ADD PUSH2 0x1A0 MLOAD MSTORE PUSH1 0x20 PUSH2 0x1A0 MLOAD KECCAK256 PUSH1 0x1F DUP5 ADD PUSH1 0x5 SHR DUP2 ADD PUSH1 0x20 DUP6 LT PUSH3 0x3E86 JUMPI JUMPDEST SWAP1 DUP5 SWAP4 SWAP3 SWAP2 JUMPDEST PUSH1 0x1F DUP4 ADD PUSH1 0x5 SHR DUP3 ADD DUP2 LT PUSH3 0x3E74 JUMPI POP POP PUSH3 0x3B76 JUMP JUMPDEST PUSH2 0x1A0 MLOAD DUP2 SSTORE DUP6 SWAP5 POP PUSH1 0x1 ADD PUSH3 0x3E5C JUMP JUMPDEST POP DUP1 PUSH3 0x3E56 JUMP JUMPDEST ADD CALLDATALOAD SWAP1 POP DUP9 DUP1 PUSH3 0x3B34 JUMP JUMPDEST PUSH2 0x1A0 DUP1 MLOAD PUSH1 0x5 DUP10 ADD SWAP1 MSTORE MLOAD PUSH1 0x20 DUP2 KECCAK256 SWAP1 SWAP5 POP SWAP2 JUMPDEST PUSH1 0x1F NOT DUP5 AND DUP6 LT PUSH3 0x3EF8 JUMPI PUSH1 0x1 SWAP5 POP DUP4 PUSH1 0x1F NOT DUP2 AND LT PUSH3 0x3EDD JUMPI JUMPDEST POP POP POP DUP2 SHL ADD PUSH1 0x5 DUP5 ADD SSTORE PUSH3 0x3B4C JUMP JUMPDEST ADD CALLDATALOAD PUSH1 0x0 NOT PUSH1 0x3 DUP5 SWAP1 SHL PUSH1 0xF8 AND SHR NOT AND SWAP1 SSTORE DUP9 DUP1 DUP1 PUSH3 0x3ECC JUMP JUMPDEST DUP2 DUP2 ADD CALLDATALOAD DUP4 SSTORE PUSH1 0x20 SWAP5 DUP6 ADD SWAP5 PUSH1 0x1 SWAP1 SWAP4 ADD SWAP3 ADD PUSH3 0x3EAF JUMP JUMPDEST SWAP1 SWAP2 POP PUSH1 0x5 DUP7 ADD PUSH2 0x1A0 MLOAD MSTORE PUSH1 0x20 PUSH2 0x1A0 MLOAD KECCAK256 PUSH1 0x1F DUP5 ADD PUSH1 0x5 SHR DUP2 ADD PUSH1 0x20 DUP6 LT PUSH3 0x3F67 JUMPI JUMPDEST SWAP1 DUP5 SWAP4 SWAP3 SWAP2 JUMPDEST PUSH1 0x1F DUP4 ADD PUSH1 0x5 SHR DUP3 ADD DUP2 LT PUSH3 0x3F55 JUMPI POP POP PUSH3 0x3B17 JUMP JUMPDEST PUSH2 0x1A0 MLOAD DUP2 SSTORE DUP6 SWAP5 POP PUSH1 0x1 ADD PUSH3 0x3F3D JUMP JUMPDEST POP DUP1 PUSH3 0x3F37 JUMP JUMPDEST ADD CALLDATALOAD SWAP1 POP DUP11 DUP1 PUSH3 0x3AD5 JUMP JUMPDEST PUSH2 0x1A0 DUP1 MLOAD PUSH1 0x4 DUP12 ADD SWAP1 MSTORE MLOAD PUSH1 0x20 DUP2 KECCAK256 SWAP1 SWAP5 POP SWAP2 JUMPDEST PUSH1 0x1F NOT DUP5 AND DUP6 LT PUSH3 0x3FD9 JUMPI PUSH1 0x1 SWAP5 POP DUP4 PUSH1 0x1F NOT DUP2 AND LT PUSH3 0x3FBE JUMPI JUMPDEST POP POP POP DUP2 SHL ADD PUSH1 0x4 DUP7 ADD SSTORE PUSH3 0x3AED JUMP JUMPDEST ADD CALLDATALOAD PUSH1 0x0 NOT PUSH1 0x3 DUP5 SWAP1 SHL PUSH1 0xF8 AND SHR NOT AND SWAP1 SSTORE DUP11 DUP1 DUP1 PUSH3 0x3FAD JUMP JUMPDEST DUP2 DUP2 ADD CALLDATALOAD DUP4 SSTORE PUSH1 0x20 SWAP5 DUP6 ADD SWAP5 PUSH1 0x1 SWAP1 SWAP4 ADD SWAP3 ADD PUSH3 0x3F90 JUMP JUMPDEST SWAP1 SWAP2 POP PUSH1 0x4 DUP9 ADD PUSH2 0x1A0 MLOAD MSTORE PUSH1 0x20 PUSH2 0x1A0 MLOAD KECCAK256 PUSH1 0x1F DUP5 ADD PUSH1 0x5 SHR DUP2 ADD PUSH1 0x20 DUP6 LT PUSH3 0x4048 JUMPI JUMPDEST SWAP1 DUP5 SWAP4 SWAP3 SWAP2 JUMPDEST PUSH1 0x1F DUP4 ADD PUSH1 0x5 SHR DUP3 ADD DUP2 LT PUSH3 0x4036 JUMPI POP POP PUSH3 0x3AB8 JUMP JUMPDEST PUSH2 0x1A0 MLOAD DUP2 SSTORE DUP6 SWAP5 POP PUSH1 0x1 ADD PUSH3 0x401E JUMP JUMPDEST POP DUP1 PUSH3 0x4018 JUMP JUMPDEST SWAP1 POP PUSH2 0x220 MLOAD ADD CALLDATALOAD DUP13 PUSH3 0x3A77 JUMP JUMPDEST SWAP2 POP PUSH1 0x3 DUP10 ADD PUSH2 0x1A0 MLOAD MSTORE PUSH1 0x20 PUSH2 0x1A0 MLOAD KECCAK256 PUSH2 0x1A0 MLOAD SWAP3 JUMPDEST PUSH1 0x1F NOT DUP4 AND DUP5 LT PUSH3 0x40C2 JUMPI PUSH1 0x1 SWAP4 POP DUP3 PUSH1 0x1F NOT DUP2 AND LT PUSH3 0x40A4 JUMPI JUMPDEST POP POP DUP2 SHL ADD PUSH1 0x3 DUP9 ADD SSTORE PUSH3 0x3A8E JUMP JUMPDEST PUSH2 0x220 MLOAD ADD CALLDATALOAD PUSH1 0x0 NOT PUSH1 0x3 DUP5 SWAP1 SHL PUSH1 0xF8 AND SHR NOT AND SWAP1 SSTORE DUP13 DUP1 PUSH3 0x4094 JUMP JUMPDEST PUSH2 0x220 MLOAD DUP2 ADD CALLDATALOAD DUP3 SSTORE PUSH1 0x20 SWAP4 DUP5 ADD SWAP4 PUSH1 0x1 SWAP1 SWAP3 ADD SWAP2 ADD PUSH3 0x4077 JUMP JUMPDEST PUSH1 0x3 DUP10 ADD PUSH2 0x1A0 MLOAD MSTORE PUSH1 0x20 PUSH2 0x1A0 MLOAD KECCAK256 PUSH1 0x1F DUP4 ADD PUSH1 0x5 SHR DUP2 ADD PUSH1 0x20 DUP5 LT PUSH3 0x4128 JUMPI JUMPDEST PUSH1 0x1F DUP4 ADD PUSH1 0x5 SHR DUP3 ADD DUP2 LT PUSH3 0x4119 JUMPI POP POP PUSH3 0x3A5A JUMP JUMPDEST PUSH2 0x1A0 MLOAD DUP2 SSTORE PUSH1 0x1 ADD PUSH3 0x4101 JUMP JUMPDEST POP DUP1 PUSH3 0x4101 JUMP JUMPDEST PUSH2 0x280 MLOAD PUSH1 0x1 PUSH1 0x1 PUSH1 0xA0 SHL SUB AND EXTCODESIZE ISZERO PUSH3 0xDDB JUMPI PUSH1 0x40 MLOAD PUSH4 0x6E258E07 PUSH1 0xE1 SHL DUP2 MSTORE PUSH2 0x1A0 MLOAD PUSH2 0x280 MLOAD DUP3 SWAP1 PUSH1 0x4 SWAP1 DUP3 SWAP1 DUP5 SWAP1 PUSH1 0x1 PUSH1 0x1 PUSH1 0xA0 SHL SUB AND GAS CALL DUP1 ISZERO PUSH3 0x989 JUMPI PUSH3 0x4181 JUMPI JUMPDEST POP PUSH3 0x398C JUMP JUMPDEST PUSH3 0x418C SWAP1 PUSH3 0x6120 JUMP JUMPDEST PUSH2 0x1A0 MLOAD PUSH3 0xDDB JUMPI DUP10 PUSH3 0x417A JUMP JUMPDEST POP PUSH2 0x1237 CHAINID EQ PUSH3 0x3986 JUMP JUMPDEST PUSH2 0x280 MLOAD PUSH1 0x1 PUSH1 0x1 PUSH1 0xA0 SHL SUB AND EXTCODESIZE ISZERO PUSH3 0xDDB JUMPI PUSH1 0x40 MLOAD PUSH4 0x15C6DEB9 PUSH1 0xE3 SHL DUP2 MSTORE PUSH1 0x1 PUSH1 0x1 PUSH1 0xA0 SHL SUB SWAP2 DUP3 AND PUSH1 0x4 DUP3 ADD MSTORE PUSH2 0x1A0 MLOAD PUSH2 0x280 MLOAD SWAP2 SWAP3 SWAP1 SWAP2 DUP4 SWAP2 PUSH1 0x24 SWAP2 DUP4 SWAP2 DUP6 SWAP2 AND GAS CALL DUP1 ISZERO PUSH3 0x989 JUMPI ISZERO PUSH3 0x397C JUMPI PUSH3 0x4209 SWAP1 PUSH3 0x6120 JUMP JUMPDEST PUSH2 0x1A0 MLOAD PUSH3 0xDDB JUMPI DUP11 PUSH3 0x397C JUMP JUMPDEST PUSH3 0x4236 SWAP2 POP PUSH1 0x20 RETURNDATASIZE PUSH1 0x20 GT PUSH3 0xE8D JUMPI PUSH3 0xE7D DUP2 DUP4 PUSH3 0x6167 JUMP JUMPDEST DUP12 PUSH3 0x396B JUMP JUMPDEST PUSH3 0x4248 SWAP1 PUSH3 0x6120 JUMP JUMPDEST PUSH2 0x1A0 MLOAD PUSH3 0xDDB JUMPI DUP11 PUSH3 0x3938 JUMP JUMPDEST PUSH3 0x4264 JUMPI POP PUSH3 0x398C JUMP JUMPDEST PUSH1 0x1 PUSH1 0x1 PUSH1 0xA0 SHL SUB DUP10 AND EXTCODESIZE ISZERO PUSH3 0xDDB JUMPI PUSH1 0x40 MLOAD PUSH3 0xE2C3FD PUSH1 0xE1 SHL DUP2 MSTORE PUSH2 0x1A0 MLOAD DUP2 PUSH1 0x4 DUP2 DUP4 PUSH1 0x1 PUSH1 0x1 PUSH1 0xA0 SHL SUB DUP16 AND GAS CALL DUP1 ISZERO PUSH3 0x989 JUMPI PUSH3 0x440B JUMPI JUMPDEST POP PUSH1 0x40 MLOAD PUSH4 0x6B456EF PUSH1 0xE2 SHL DUP2 MSTORE PUSH1 0x20 DUP2 PUSH1 0x4 DUP2 PUSH1 0x1 PUSH1 0x1 PUSH1 0xA0 SHL SUB DUP15 AND GAS STATICCALL SWAP1 DUP2 ISZERO PUSH3 0x989 JUMPI PUSH2 0x1A0 MLOAD SWAP2 PUSH3 0x43E7 JUMPI JUMPDEST POP PUSH1 0x1 PUSH1 0x1 PUSH1 0xA0 SHL SUB DUP2 AND PUSH3 0x4376 JUMPI JUMPDEST POP DUP1 ISZERO SWAP1 PUSH3 0x436A JUMPI JUMPDEST PUSH3 0x42FE JUMPI JUMPDEST DUP10 PUSH3 0x417A JUMP JUMPDEST PUSH2 0x280 MLOAD PUSH1 0x1 PUSH1 0x1 PUSH1 0xA0 SHL SUB AND EXTCODESIZE ISZERO PUSH3 0xDDB JUMPI PUSH1 0x40 MLOAD PUSH4 0x6E258E07 PUSH1 0xE1 SHL DUP2 MSTORE PUSH2 0x1A0 MLOAD PUSH2 0x280 MLOAD DUP3 SWAP1 PUSH1 0x4 SWAP1 DUP3 SWAP1 DUP5 SWAP1 PUSH1 0x1 PUSH1 0x1 PUSH1 0xA0 SHL SUB AND GAS CALL DUP1 ISZERO PUSH3 0x989 JUMPI PUSH3 0x434F JUMPI JUMPDEST POP PUSH3 0x42F7 JUMP JUMPDEST PUSH3 0x435A SWAP1 PUSH3 0x6120 JUMP JUMPDEST PUSH2 0x1A0 MLOAD PUSH3 0xDDB JUMPI DUP10 PUSH3 0x4348 JUMP JUMPDEST POP PUSH2 0x1237 CHAINID EQ PUSH3 0x42F1 JUMP JUMPDEST PUSH2 0x280 MLOAD PUSH1 0x1 PUSH1 0x1 PUSH1 0xA0 SHL SUB AND EXTCODESIZE ISZERO PUSH3 0xDDB JUMPI PUSH1 0x40 MLOAD PUSH4 0x15C6DEB9 PUSH1 0xE3 SHL DUP2 MSTORE PUSH1 0x1 PUSH1 0x1 PUSH1 0xA0 SHL SUB SWAP2 DUP3 AND PUSH1 0x4 DUP3 ADD MSTORE PUSH2 0x1A0 MLOAD PUSH2 0x280 MLOAD SWAP2 SWAP3 SWAP1 SWAP2 DUP4 SWAP2 PUSH1 0x24 SWAP2 DUP4 SWAP2 DUP6 SWAP2 AND GAS CALL DUP1 ISZERO PUSH3 0x989 JUMPI ISZERO PUSH3 0x42E7 JUMPI PUSH3 0x43D7 SWAP1 PUSH3 0x6120 JUMP JUMPDEST PUSH2 0x1A0 MLOAD PUSH3 0xDDB JUMPI DUP11 PUSH3 0x42E7 JUMP JUMPDEST PUSH3 0x4404 SWAP2 POP PUSH1 0x20 RETURNDATASIZE PUSH1 0x20 GT PUSH3 0xE8D JUMPI PUSH3 0xE7D DUP2 DUP4 PUSH3 0x6167 JUMP JUMPDEST DUP12 PUSH3 0x42D6 JUMP JUMPDEST PUSH3 0x4416 SWAP1 PUSH3 0x6120 JUMP JUMPDEST PUSH2 0x1A0 MLOAD PUSH3 0xDDB JUMPI DUP11 PUSH3 0x42A3 JUMP JUMPDEST PUSH3 0x4431 SWAP1 PUSH3 0x6120 JUMP JUMPDEST PUSH2 0x1A0 MLOAD PUSH3 0xDDB JUMPI DUP12 PUSH3 0x38F0 JUMP JUMPDEST PUSH1 0x40 MLOAD PUSH4 0xA9059CBB PUSH1 0xE0 SHL DUP2 MSTORE CALLER PUSH1 0x4 DUP3 ADD MSTORE PUSH2 0x2710 DUP11 DIV PUSH1 0x24 DUP3 ADD MSTORE PUSH2 0x1A0 MLOAD PUSH2 0x280 MLOAD PUSH1 0x20 SWAP2 DUP4 SWAP2 PUSH1 0x44 SWAP2 DUP4 SWAP2 PUSH1 0x1 PUSH1 0x1 PUSH1 0xA0 SHL SUB AND GAS CALL SWAP1 DUP2 ISZERO PUSH3 0x989 JUMPI PUSH2 0x1A0 MLOAD SWAP2 PUSH3 0x44C8 JUMPI JUMPDEST POP PUSH3 0x3895 JUMPI PUSH1 0x40 MLOAD PUSH3 0x461BCD PUSH1 0xE5 SHL DUP2 MSTORE PUSH1 0x20 PUSH1 0x4 DUP3 ADD MSTORE PUSH1 0x17 PUSH1 0x24 DUP3 ADD MSTORE PUSH1 0x0 DUP1 MLOAD PUSH1 0x20 PUSH3 0xB48B DUP4 CODECOPY DUP2 MLOAD SWAP2 MSTORE PUSH1 0x44 DUP3 ADD MSTORE PUSH1 0x64 SWAP1 REVERT JUMPDEST PUSH3 0x44E5 SWAP2 POP PUSH1 0x20 RETURNDATASIZE PUSH1 0x20 GT PUSH3 0x114E JUMPI PUSH3 0x113E DUP2 DUP4 PUSH3 0x6167 JUMP JUMPDEST DUP13 PUSH3 0x448E JUMP JUMPDEST PUSH3 0x4509 SWAP2 POP PUSH1 0x20 RETURNDATASIZE PUSH1 0x20 GT PUSH3 0x114E JUMPI PUSH3 0x113E DUP2 DUP4 PUSH3 0x6167 JUMP JUMPDEST DUP13 PUSH3 0x3883 JUMP JUMPDEST PUSH3 0x4531 SWAP1 PUSH3 0x12DE PUSH1 0x1 DUP1 PUSH1 0xA0 SHL SUB PUSH3 0x12D2 DUP2 PUSH1 0x8 SLOAD AND ISZERO ISZERO PUSH3 0x642D JUMP JUMPDEST DUP10 PUSH3 0x35DC JUMP JUMPDEST PUSH1 0xA SLOAD PUSH1 0x1 PUSH1 0x1 PUSH1 0xA0 SHL SUB AND ISZERO ISZERO SWAP8 POP PUSH3 0x35D4 JUMP JUMPDEST CALLVALUE PUSH3 0xDDB JUMPI PUSH1 0x20 CALLDATASIZE PUSH1 0x3 NOT ADD SLT PUSH3 0xDDB JUMPI PUSH1 0x4 CALLDATALOAD PUSH3 0x456E PUSH3 0x6189 JUMP JUMPDEST POP PUSH1 0xB SLOAD DUP2 LT ISZERO PUSH3 0x45A9 JUMPI PUSH3 0x4594 PUSH3 0x458D PUSH3 0x948 SWAP3 PUSH3 0x61DA JUMP JUMPDEST POP PUSH3 0x631A JUMP JUMPDEST PUSH1 0x40 MLOAD SWAP2 DUP3 SWAP2 PUSH1 0x20 DUP4 MSTORE PUSH1 0x20 DUP4 ADD SWAP1 PUSH3 0x6034 JUMP JUMPDEST PUSH1 0x40 MLOAD PUSH3 0x461BCD PUSH1 0xE5 SHL DUP2 MSTORE PUSH1 0x20 PUSH1 0x4 DUP3 ADD MSTORE PUSH1 0x11 PUSH1 0x24 DUP3 ADD MSTORE PUSH17 0x1A5B9D985B1A59081B185D5B98DA081A59 PUSH1 0x7A SHL PUSH1 0x44 DUP3 ADD MSTORE PUSH1 0x64 SWAP1 REVERT JUMPDEST CALLVALUE PUSH3 0xDDB JUMPI PUSH2 0x1A0 MLOAD CALLDATASIZE PUSH1 0x3 NOT ADD SLT PUSH3 0xDDB JUMPI PUSH1 0x20 PUSH1 0x40 MLOAD PUSH1 0x32 DUP2 MSTORE RETURN JUMPDEST CALLVALUE PUSH3 0xDDB JUMPI PUSH2 0x1A0 MLOAD CALLDATASIZE PUSH1 0x3 NOT ADD SLT PUSH3 0xDDB JUMPI PUSH1 0x1 SLOAD PUSH1 0x40 MLOAD PUSH1 0x1 PUSH1 0x1 PUSH1 0xA0 SHL SUB SWAP1 SWAP2 AND DUP2 MSTORE PUSH1 0x20 SWAP1 RETURN JUMPDEST PUSH3 0x463A CALLDATASIZE PUSH3 0x5F59 JUMP JUMPDEST PUSH2 0x2A0 MSTORE PUSH1 0x4 SLOAD SWAP9 SWAP10 SWAP8 SWAP9 SWAP1 SWAP8 SWAP6 SWAP3 SWAP5 SWAP3 SWAP2 POP PUSH3 0x465A SWAP1 CALLVALUE EQ PUSH3 0x60DD JUMP JUMPDEST PUSH3 0x4664 PUSH3 0x6679 JUMP JUMPDEST DUP9 ISZERO PUSH3 0x127C JUMPI DUP6 ISZERO PUSH3 0x1245 JUMPI PUSH2 0x7D0 DUP8 GT PUSH3 0x120A JUMPI PUSH2 0x3E8 PUSH2 0x2A0 MLOAD GT PUSH3 0x11D0 JUMPI PUSH1 0x2 SLOAD PUSH1 0x40 MLOAD SWAP1 PUSH1 0x1 PUSH1 0x1 PUSH1 0xA0 SHL SUB AND PUSH1 0x1 PUSH1 0x1 PUSH1 0x40 SHL SUB PUSH2 0x1808 DUP4 ADD SWAP1 DUP2 GT SWAP1 DUP4 GT OR PUSH3 0xAB2 JUMPI DUP2 SWAP1 PUSH2 0x1808 PUSH3 0x9C83 DUP4 CODECOPY PUSH1 0xE0 PUSH2 0x1808 DUP4 ADD DUP2 DUP2 MSTORE PUSH3 0x46F2 SWAP2 PUSH3 0x46DA SWAP2 ADD DUP15 DUP12 PUSH3 0x6780 JUMP JUMPDEST PUSH2 0x1808 DUP5 ADD DUP2 SUB PUSH1 0x20 PUSH2 0x1808 DUP7 ADD ADD MSTORE DUP11 DUP14 PUSH3 0x6780 JUMP JUMPDEST SWAP1 PUSH8 0x6765C793FA10079D PUSH1 0x1B SHL PUSH1 0x40 PUSH2 0x1808 DUP6 ADD ADD MSTORE ADDRESS PUSH1 0x60 PUSH2 0x1808 DUP6 ADD ADD MSTORE CALLER PUSH1 0x80 PUSH2 0x1808 DUP6 ADD ADD MSTORE PUSH1 0xA0 PUSH2 0x1808 DUP5 ADD ADD MSTORE PUSH2 0x2A0 MLOAD PUSH1 0xC0 PUSH2 0x1808 DUP5 ADD ADD MSTORE SUB SWAP1 PUSH2 0x1A0 MLOAD CREATE PUSH2 0x2C0 MSTORE PUSH2 0x2C0 MLOAD ISZERO PUSH3 0x989 JUMPI PUSH3 0x475E PUSH1 0x1 DUP1 PUSH1 0xA0 SHL SUB PUSH1 0x2 SLOAD AND CALLER EQ PUSH3 0x67DC JUMP JUMPDEST SWAP6 PUSH1 0x1 DUP1 PUSH1 0xA0 SHL SUB PUSH1 0x1 SLOAD AND PUSH1 0x3 SLOAD SWAP1 PUSH1 0x5 SLOAD PUSH1 0x6 SLOAD PUSH1 0x7 SLOAD PUSH1 0x1 DUP1 PUSH1 0xA0 SHL SUB PUSH1 0x8 SLOAD AND SWAP2 PUSH1 0xA SLOAD SWAP4 PUSH1 0x40 MLOAD SWAP7 DUP8 PUSH2 0x3464 DUP2 ADD LT PUSH1 0x1 PUSH1 0x1 PUSH1 0x40 SHL SUB PUSH2 0x3464 DUP11 ADD GT OR PUSH3 0xAB2 JUMPI PUSH3 0xFFFFFF SWAP7 PUSH2 0x3464 PUSH3 0x681F DUP11 CODECOPY PUSH2 0x2C0 MLOAD PUSH1 0x1 PUSH1 0x1 PUSH1 0xA0 SHL SUB SWAP1 DUP2 AND PUSH2 0x3464 DUP12 ADD SWAP1 DUP2 MSTORE ADDRESS PUSH1 0x20 DUP3 ADD MSTORE PUSH1 0x40 DUP2 ADD SWAP3 SWAP1 SWAP3 MSTORE PUSH1 0x60 DUP3 ADD SWAP3 SWAP1 SWAP3 MSTORE PUSH1 0x80 DUP2 ADD SWAP3 SWAP1 SWAP3 MSTORE PUSH1 0xA0 DUP3 DUP2 ADD SWAP4 SWAP1 SWAP4 MSTORE PUSH1 0xC0 DUP3 ADD SWAP4 SWAP1 SWAP4 MSTORE PUSH1 0xE0 DUP2 ADD SWAP4 SWAP1 SWAP4 MSTORE DUP13 DUP3 AND PUSH2 0x100 DUP5 ADD MSTORE SWAP1 DUP4 AND PUSH2 0x120 DUP4 ADD MSTORE SWAP2 SWAP1 SWAP2 SHR SWAP2 SWAP1 SWAP2 AND PUSH2 0x140 DUP3 ADD MSTORE PUSH2 0x1A0 MLOAD SWAP1 DUP3 SWAP1 SUB PUSH2 0x160 ADD SWAP2 SWAP1 CREATE SWAP9 DUP10 ISZERO PUSH3 0x989 JUMPI DUP9 PUSH8 0x6765C793FA10079D PUSH1 0x1B SHL MUL SWAP9 PUSH8 0x6765C793FA10079D PUSH1 0x1B SHL DUP11 DIV SUB PUSH3 0x11B6 JUMPI PUSH8 0x6765C793FA10079D PUSH1 0x1B SHL PUSH2 0x2710 DUP11 DIV DUP2 SUB GT PUSH3 0x11B6 JUMPI PUSH1 0x40 MLOAD PUSH4 0xA9059CBB PUSH1 0xE0 SHL DUP2 MSTORE PUSH1 0x1 PUSH1 0x1 PUSH1 0xA0 SHL SUB DUP12 DUP2 AND PUSH1 0x4 DUP4 ADD MSTORE PUSH2 0x2710 DUP12 DIV PUSH8 0x6765C793FA10079D PUSH1 0x1B SHL SUB PUSH1 0x24 DUP4 ADD MSTORE PUSH2 0x1A0 MLOAD PUSH2 0x2C0 MLOAD PUSH1 0x20 SWAP3 DUP5 SWAP3 PUSH1 0x44 SWAP3 DUP5 SWAP3 AND GAS CALL SWAP1 DUP2 ISZERO PUSH3 0x989 JUMPI PUSH2 0x1A0 MLOAD SWAP2 PUSH3 0x51AE JUMPI JUMPDEST POP ISZERO PUSH3 0x1156 JUMPI PUSH2 0x2710 DUP10 DIV PUSH3 0x5103 JUMPI JUMPDEST PUSH1 0x1 PUSH1 0x1 PUSH1 0xA0 SHL SUB DUP11 AND EXTCODESIZE ISZERO PUSH3 0xDDB JUMPI PUSH1 0x40 MLOAD PUSH4 0x95564837 PUSH1 0xE0 SHL DUP2 MSTORE PUSH2 0x2710 DUP11 DIV PUSH8 0x6765C793FA10079D PUSH1 0x1B SHL SUB PUSH1 0x4 DUP3 ADD MSTORE DUP11 DUP2 PUSH1 0x24 DUP2 PUSH2 0x1A0 MLOAD SWAP4 PUSH2 0x1A0 MLOAD SWAP1 PUSH1 0x1 DUP1 PUSH1 0xA0 SHL SUB AND GAS CALL DUP1 ISZERO PUSH3 0x989 JUMPI PUSH3 0x50E8 JUMPI JUMPDEST POP PUSH2 0x2C0 MLOAD PUSH2 0x1A0 DUP1 MLOAD PUSH1 0x1 PUSH1 0x1 PUSH1 0xA0 SHL SUB SWAP3 DUP4 AND SWAP1 MSTORE PUSH1 0xC PUSH1 0x20 MSTORE MLOAD PUSH1 0x40 SWAP1 KECCAK256 DUP1 SLOAD PUSH1 0x1 PUSH1 0x1 PUSH1 0xA0 SHL SUB NOT AND SWAP2 DUP13 AND SWAP2 SWAP1 SWAP2 OR SWAP1 SSTORE PUSH1 0xB SLOAD SWAP11 PUSH1 0x1 PUSH1 0x40 SHL DUP13 LT ISZERO PUSH3 0xAB2 JUMPI PUSH1 0x1 DUP13 ADD PUSH1 0xB SSTORE PUSH3 0x4997 DUP13 PUSH3 0x61DA JUMP JUMPDEST POP POP PUSH3 0x49A4 DUP13 PUSH3 0x61DA JUMP JUMPDEST POP PUSH2 0x2C0 MLOAD DUP2 SLOAD PUSH1 0x1 PUSH1 0x1 PUSH1 0xA0 SHL SUB NOT SWAP1 DUP2 AND PUSH1 0x1 PUSH1 0x1 PUSH1 0xA0 SHL SUB SWAP3 DUP4 AND OR DUP4 SSTORE PUSH1 0x1 DUP4 ADD DUP1 SLOAD DUP3 AND SWAP3 DUP16 AND SWAP3 SWAP1 SWAP3 OR SWAP1 SWAP2 SSTORE PUSH1 0x2 DUP3 ADD DUP1 SLOAD SWAP1 SWAP2 AND CALLER OR SWAP1 SSTORE SWAP8 PUSH1 0x1 PUSH1 0x1 PUSH1 0x40 SHL SUB DUP3 GT PUSH3 0xAB2 JUMPI DUP2 SWAP1 PUSH3 0x4A05 PUSH1 0x3 DUP12 ADD SLOAD PUSH3 0x622C JUMP JUMPDEST PUSH1 0x1F DUP2 GT PUSH3 0x508A JUMPI JUMPDEST POP PUSH2 0x1A0 MLOAD SWAP1 PUSH1 0x1F DUP4 GT PUSH1 0x1 EQ PUSH3 0x5013 JUMPI PUSH2 0x1A0 MLOAD SWAP3 PUSH3 0x5007 JUMPI JUMPDEST POP POP DUP2 PUSH1 0x1 SHL SWAP2 PUSH1 0x0 NOT SWAP1 PUSH1 0x3 SHL SHR NOT AND OR PUSH1 0x3 DUP9 ADD SSTORE JUMPDEST PUSH1 0x1 PUSH1 0x1 PUSH1 0x40 SHL SUB DUP3 GT PUSH3 0xAB2 JUMPI DUP2 SWAP1 PUSH3 0x4A64 PUSH1 0x4 DUP10 ADD SLOAD PUSH3 0x622C JUMP JUMPDEST PUSH1 0x1F DUP2 GT PUSH3 0x4FA9 JUMPI JUMPDEST POP PUSH2 0x1A0 MLOAD SWAP1 PUSH1 0x1F DUP4 GT PUSH1 0x1 EQ PUSH3 0x4F32 JUMPI PUSH2 0x1A0 MLOAD SWAP3 PUSH3 0x4F26 JUMPI JUMPDEST POP POP DUP2 PUSH1 0x1 SHL SWAP2 PUSH1 0x0 NOT SWAP1 PUSH1 0x3 SHL SHR NOT AND OR PUSH1 0x4 DUP7 ADD SSTORE JUMPDEST PUSH1 0x1 PUSH1 0x1 PUSH1 0x40 SHL SUB DUP3 GT PUSH3 0xAB2 JUMPI DUP2 SWAP1 PUSH3 0x4AC3 PUSH1 0x5 DUP8 ADD SLOAD PUSH3 0x622C JUMP JUMPDEST PUSH1 0x1F DUP2 GT PUSH3 0x4EC8 JUMPI JUMPDEST POP PUSH2 0x1A0 MLOAD SWAP1 PUSH1 0x1F DUP4 GT PUSH1 0x1 EQ PUSH3 0x4E51 JUMPI PUSH2 0x1A0 MLOAD SWAP3 PUSH3 0x4E45 JUMPI JUMPDEST POP POP DUP2 PUSH1 0x1 SHL SWAP2 PUSH1 0x0 NOT SWAP1 PUSH1 0x3 SHL SHR NOT AND OR PUSH1 0x5 DUP5 ADD SSTORE JUMPDEST PUSH1 0x1 PUSH1 0x1 PUSH1 0x40 SHL SUB DUP3 GT PUSH3 0xAB2 JUMPI PUSH3 0x4B20 PUSH1 0x6 DUP5 ADD SLOAD PUSH3 0x622C JUMP JUMPDEST PUSH1 0x1F DUP2 GT PUSH3 0x4DF3 JUMPI JUMPDEST POP PUSH2 0x1A0 MLOAD SWAP1 PUSH1 0x1F DUP4 GT PUSH1 0x1 EQ PUSH3 0x4D72 JUMPI SWAP2 DUP1 SWAP2 PUSH3 0xFFFFFF SWAP6 SWAP5 SWAP4 PUSH2 0x1A0 MLOAD SWAP3 PUSH3 0x4D66 JUMPI JUMPDEST POP POP DUP2 PUSH1 0x1 SHL SWAP2 PUSH1 0x0 NOT SWAP1 PUSH1 0x3 SHL SHR NOT AND OR PUSH1 0x6 DUP3 ADD SSTORE JUMPDEST PUSH8 0x6765C793FA10079D PUSH1 0x1B SHL PUSH1 0x7 DUP3 ADD SSTORE PUSH2 0x2710 DUP5 DIV PUSH1 0x8 DUP3 ADD SSTORE PUSH1 0x9 TIMESTAMP SWAP2 ADD SSTORE PUSH1 0x3 SLOAD SWAP1 PUSH1 0x7 SLOAD PUSH1 0x1 DUP1 PUSH1 0xA0 SHL SUB PUSH1 0x8 SLOAD AND SWAP1 PUSH1 0xA SLOAD SWAP4 PUSH2 0x2710 PUSH1 0x40 MLOAD SWAP8 PUSH1 0x1 DUP1 PUSH1 0xA0 SHL SUB DUP11 AND DUP10 MSTORE PUSH8 0x6765C793FA10079D PUSH1 0x1B SHL PUSH1 0x20 DUP11 ADD MSTORE DIV PUSH1 0x40 DUP9 ADD MSTORE PUSH1 0x60 DUP8 ADD MSTORE PUSH1 0x80 DUP7 ADD MSTORE PUSH1 0xA0 DUP6 ADD MSTORE PUSH1 0x1 DUP1 PUSH1 0xA0 SHL SUB AND PUSH1 0xC0 DUP5 ADD MSTORE PUSH1 0x1 DUP1 PUSH1 0xA0 SHL SUB DUP2 AND PUSH1 0xE0 DUP5 ADD MSTORE PUSH1 0xA0 SHR AND PUSH2 0x100 DUP3 ADD MSTORE PUSH1 0x1 DUP1 PUSH1 0xA0 SHL SUB PUSH2 0x2C0 MLOAD AND SWAP1 DUP4 PUSH1 0x0 DUP1 MLOAD PUSH1 0x20 PUSH3 0xB4AB DUP4 CODECOPY DUP2 MLOAD SWAP2 MSTORE PUSH2 0x120 CALLER SWAP4 LOG4 PUSH1 0x40 MLOAD PUSH4 0x17773EBB PUSH1 0xE0 SHL DUP2 MSTORE PUSH2 0x2C0 MLOAD PUSH1 0x20 SWAP1 DUP3 SWAP1 PUSH1 0x4 SWAP1 DUP3 SWAP1 PUSH1 0x1 PUSH1 0x1 PUSH1 0xA0 SHL SUB AND GAS STATICCALL SWAP1 DUP2 ISZERO PUSH3 0x989 JUMPI PUSH2 0x1A0 MLOAD SWAP2 PUSH3 0x4D2E JUMPI JUMPDEST POP PUSH1 0x40 MLOAD PUSH4 0x116E689F PUSH1 0xE1 SHL DUP2 MSTORE PUSH2 0x2C0 MLOAD PUSH1 0x20 SWAP1 DUP3 SWAP1 PUSH1 0x4 SWAP1 DUP3 SWAP1 PUSH1 0x1 PUSH1 0x1 PUSH1 0xA0 SHL SUB AND GAS STATICCALL SWAP1 DUP2 ISZERO PUSH3 0x989 JUMPI PUSH2 0x1A0 MLOAD SWAP2 PUSH3 0x4CF6 JUMPI JUMPDEST POP PUSH1 0x40 MLOAD SWAP2 PUSH2 0x2A0 MLOAD DUP4 MSTORE PUSH1 0x20 DUP4 ADD MSTORE PUSH1 0x40 DUP3 ADD MSTORE DUP3 PUSH1 0x0 DUP1 MLOAD PUSH1 0x20 PUSH3 0xB4CB DUP4 CODECOPY DUP2 MLOAD SWAP2 MSTORE PUSH1 0x60 PUSH1 0x1 DUP1 PUSH1 0xA0 SHL SUB PUSH2 0x2C0 MLOAD AND SWAP4 LOG3 PUSH1 0x40 DUP1 MLOAD PUSH2 0x2C0 MLOAD SWAP4 DUP2 MSTORE PUSH1 0x1 PUSH1 0x1 PUSH1 0xA0 SHL SUB SWAP4 DUP5 AND PUSH1 0x20 DUP3 ADD MSTORE SWAP2 SWAP1 SWAP3 AND SWAP2 DUP2 ADD SWAP2 SWAP1 SWAP2 MSTORE PUSH1 0x60 SWAP1 RETURN JUMPDEST SWAP1 POP PUSH1 0x20 DUP2 RETURNDATASIZE PUSH1 0x20 GT PUSH3 0x4D25 JUMPI JUMPDEST DUP2 PUSH3 0x4D14 PUSH1 0x20 SWAP4 DUP4 PUSH3 0x6167 JUMP JUMPDEST DUP2 ADD SUB SLT PUSH3 0x97B JUMPI MLOAD DUP5 PUSH3 0x4C95 JUMP JUMPDEST RETURNDATASIZE SWAP2 POP PUSH3 0x4D05 JUMP JUMPDEST SWAP1 POP PUSH1 0x20 DUP2 RETURNDATASIZE PUSH1 0x20 GT PUSH3 0x4D5D JUMPI JUMPDEST DUP2 PUSH3 0x4D4C PUSH1 0x20 SWAP4 DUP4 PUSH3 0x6167 JUMP JUMPDEST DUP2 ADD SUB SLT PUSH3 0x97B JUMPI MLOAD DUP4 PUSH3 0x4C5B JUMP JUMPDEST RETURNDATASIZE SWAP2 POP PUSH3 0x4D3D JUMP JUMPDEST ADD CALLDATALOAD SWAP1 POP DUP9 DUP1 PUSH3 0x4B51 JUMP JUMPDEST PUSH1 0x6 DUP5 ADD PUSH2 0x1A0 MLOAD MSTORE PUSH1 0x20 PUSH2 0x1A0 MLOAD KECCAK256 SWAP2 PUSH2 0x1A0 MLOAD JUMPDEST PUSH1 0x1F NOT DUP6 AND DUP2 LT PUSH3 0x4DDA JUMPI POP SWAP2 DUP4 SWAP2 PUSH1 0x1 SWAP4 PUSH3 0xFFFFFF SWAP8 SWAP7 SWAP6 PUSH1 0x1F NOT DUP2 AND LT PUSH3 0x4DBF JUMPI JUMPDEST POP POP POP DUP2 SHL ADD PUSH1 0x6 DUP3 ADD SSTORE PUSH3 0x4B69 JUMP JUMPDEST ADD CALLDATALOAD PUSH1 0x0 NOT PUSH1 0x3 DUP5 SWAP1 SHL PUSH1 0xF8 AND SHR NOT AND SWAP1 SSTORE DUP9 DUP1 DUP1 PUSH3 0x4DAE JUMP JUMPDEST SWAP1 SWAP3 PUSH1 0x20 PUSH1 0x1 DUP2 SWAP3 DUP7 DUP7 ADD CALLDATALOAD DUP2 SSTORE ADD SWAP5 ADD SWAP2 ADD PUSH3 0x4D88 JUMP JUMPDEST PUSH1 0x6 DUP5 ADD PUSH2 0x1A0 MLOAD MSTORE PUSH1 0x20 PUSH2 0x1A0 MLOAD KECCAK256 PUSH1 0x1F DUP5 ADD PUSH1 0x5 SHR DUP2 ADD PUSH1 0x20 DUP6 LT PUSH3 0x4E3D JUMPI JUMPDEST PUSH1 0x1F DUP4 ADD PUSH1 0x5 SHR DUP3 ADD DUP2 LT PUSH3 0x4E2E JUMPI POP POP PUSH3 0x4B2A JUMP JUMPDEST PUSH2 0x1A0 MLOAD DUP2 SSTORE PUSH1 0x1 ADD PUSH3 0x4E16 JUMP JUMPDEST POP DUP1 PUSH3 0x4E16 JUMP JUMPDEST ADD CALLDATALOAD SWAP1 POP DUP10 DUP1 PUSH3 0x4AEA JUMP JUMPDEST PUSH2 0x1A0 DUP1 MLOAD PUSH1 0x5 DUP10 ADD SWAP1 MSTORE MLOAD PUSH1 0x20 DUP2 KECCAK256 SWAP1 SWAP5 POP SWAP2 JUMPDEST PUSH1 0x1F NOT DUP5 AND DUP6 LT PUSH3 0x4EAF JUMPI PUSH1 0x1 SWAP5 POP DUP4 PUSH1 0x1F NOT DUP2 AND LT PUSH3 0x4E94 JUMPI JUMPDEST POP POP POP DUP2 SHL ADD PUSH1 0x5 DUP5 ADD SSTORE PUSH3 0x4B02 JUMP JUMPDEST ADD CALLDATALOAD PUSH1 0x0 NOT PUSH1 0x3 DUP5 SWAP1 SHL PUSH1 0xF8 AND SHR NOT AND SWAP1 SSTORE DUP10 DUP1 DUP1 PUSH3 0x4E83 JUMP JUMPDEST DUP2 DUP2 ADD CALLDATALOAD DUP4 SSTORE PUSH1 0x20 SWAP5 DUP6 ADD SWAP5 PUSH1 0x1 SWAP1 SWAP4 ADD SWAP3 ADD PUSH3 0x4E66 JUMP JUMPDEST SWAP1 SWAP2 POP PUSH1 0x5 DUP7 ADD PUSH2 0x1A0 MLOAD MSTORE PUSH1 0x20 PUSH2 0x1A0 MLOAD KECCAK256 PUSH1 0x1F DUP5 ADD PUSH1 0x5 SHR DUP2 ADD PUSH1 0x20 DUP6 LT PUSH3 0x4F1E JUMPI JUMPDEST SWAP1 DUP5 SWAP4 SWAP3 SWAP2 JUMPDEST PUSH1 0x1F DUP4 ADD PUSH1 0x5 SHR DUP3 ADD DUP2 LT PUSH3 0x4F0C JUMPI POP POP PUSH3 0x4ACD JUMP JUMPDEST PUSH2 0x1A0 MLOAD DUP2 SSTORE DUP6 SWAP5 POP PUSH1 0x1 ADD PUSH3 0x4EF4 JUMP JUMPDEST POP DUP1 PUSH3 0x4EEE JUMP JUMPDEST ADD CALLDATALOAD SWAP1 POP DUP12 DUP1 PUSH3 0x4A8B JUMP JUMPDEST PUSH2 0x1A0 DUP1 MLOAD PUSH1 0x4 DUP12 ADD SWAP1 MSTORE MLOAD PUSH1 0x20 DUP2 KECCAK256 SWAP1 SWAP5 POP SWAP2 JUMPDEST PUSH1 0x1F NOT DUP5 AND DUP6 LT PUSH3 0x4F90 JUMPI PUSH1 0x1 SWAP5 POP DUP4 PUSH1 0x1F NOT DUP2 AND LT PUSH3 0x4F75 JUMPI JUMPDEST POP POP POP DUP2 SHL ADD PUSH1 0x4 DUP7 ADD SSTORE PUSH3 0x4AA3 JUMP JUMPDEST ADD CALLDATALOAD PUSH1 0x0 NOT PUSH1 0x3 DUP5 SWAP1 SHL PUSH1 0xF8 AND SHR NOT AND SWAP1 SSTORE DUP12 DUP1 DUP1 PUSH3 0x4F64 JUMP JUMPDEST DUP2 DUP2 ADD CALLDATALOAD DUP4 SSTORE PUSH1 0x20 SWAP5 DUP6 ADD SWAP5 PUSH1 0x1 SWAP1 SWAP4 ADD SWAP3 ADD PUSH3 0x4F47 JUMP JUMPDEST SWAP1 SWAP2 POP PUSH1 0x4 DUP9 ADD PUSH2 0x1A0 MLOAD MSTORE PUSH1 0x20 PUSH2 0x1A0 MLOAD KECCAK256 PUSH1 0x1F DUP5 ADD PUSH1 0x5 SHR DUP2 ADD PUSH1 0x20 DUP6 LT PUSH3 0x4FFF JUMPI JUMPDEST SWAP1 DUP5 SWAP4 SWAP3 SWAP2 JUMPDEST PUSH1 0x1F DUP4 ADD PUSH1 0x5 SHR DUP3 ADD DUP2 LT PUSH3 0x4FED JUMPI POP POP PUSH3 0x4A6E JUMP JUMPDEST PUSH2 0x1A0 MLOAD DUP2 SSTORE DUP6 SWAP5 POP PUSH1 0x1 ADD PUSH3 0x4FD5 JUMP JUMPDEST POP DUP1 PUSH3 0x4FCF JUMP JUMPDEST ADD CALLDATALOAD SWAP1 POP DUP14 DUP1 PUSH3 0x4A2C JUMP JUMPDEST PUSH2 0x1A0 DUP1 MLOAD PUSH1 0x3 DUP14 ADD SWAP1 MSTORE MLOAD PUSH1 0x20 DUP2 KECCAK256 SWAP1 SWAP5 POP SWAP2 JUMPDEST PUSH1 0x1F NOT DUP5 AND DUP6 LT PUSH3 0x5071 JUMPI PUSH1 0x1 SWAP5 POP DUP4 PUSH1 0x1F NOT DUP2 AND LT PUSH3 0x5056 JUMPI JUMPDEST POP POP POP DUP2 SHL ADD PUSH1 0x3 DUP9 ADD SSTORE PUSH3 0x4A44 JUMP JUMPDEST ADD CALLDATALOAD PUSH1 0x0 NOT PUSH1 0x3 DUP5 SWAP1 SHL PUSH1 0xF8 AND SHR NOT AND SWAP1 SSTORE DUP14 DUP1 DUP1 PUSH3 0x5045 JUMP JUMPDEST DUP2 DUP2 ADD CALLDATALOAD DUP4 SSTORE PUSH1 0x20 SWAP5 DUP6 ADD SWAP5 PUSH1 0x1 SWAP1 SWAP4 ADD SWAP3 ADD PUSH3 0x5028 JUMP JUMPDEST SWAP1 SWAP2 POP PUSH1 0x3 DUP11 ADD PUSH2 0x1A0 MLOAD MSTORE PUSH1 0x20 PUSH2 0x1A0 MLOAD KECCAK256 PUSH1 0x1F DUP5 ADD PUSH1 0x5 SHR DUP2 ADD PUSH1 0x20 DUP6 LT PUSH3 0x50E0 JUMPI JUMPDEST SWAP1 DUP5 SWAP4 SWAP3 SWAP2 JUMPDEST PUSH1 0x1F DUP4 ADD PUSH1 0x5 SHR DUP3 ADD DUP2 LT PUSH3 0x50CE JUMPI POP POP PUSH3 0x4A0F JUMP JUMPDEST PUSH2 0x1A0 MLOAD DUP2 SSTORE DUP6 SWAP5 POP PUSH1 0x1 ADD PUSH3 0x50B6 JUMP JUMPDEST POP DUP1 PUSH3 0x50B0 JUMP JUMPDEST PUSH3 0x50F3 SWAP1 PUSH3 0x6120 JUMP JUMPDEST PUSH2 0x1A0 MLOAD PUSH3 0xDDB JUMPI DUP12 PUSH3 0x493E JUMP JUMPDEST PUSH1 0x40 MLOAD PUSH4 0xA9059CBB PUSH1 0xE0 SHL DUP2 MSTORE CALLER PUSH1 0x4 DUP3 ADD MSTORE PUSH2 0x2710 DUP11 DIV PUSH1 0x24 DUP3 ADD MSTORE PUSH2 0x1A0 MLOAD PUSH2 0x2C0 MLOAD PUSH1 0x20 SWAP2 DUP4 SWAP2 PUSH1 0x44 SWAP2 DUP4 SWAP2 PUSH1 0x1 PUSH1 0x1 PUSH1 0xA0 SHL SUB AND GAS CALL SWAP1 DUP2 ISZERO PUSH3 0x989 JUMPI PUSH2 0x1A0 MLOAD SWAP2 PUSH3 0x518A JUMPI JUMPDEST POP PUSH3 0x48E3 JUMPI PUSH1 0x40 MLOAD PUSH3 0x461BCD PUSH1 0xE5 SHL DUP2 MSTORE PUSH1 0x20 PUSH1 0x4 DUP3 ADD MSTORE PUSH1 0x17 PUSH1 0x24 DUP3 ADD MSTORE PUSH1 0x0 DUP1 MLOAD PUSH1 0x20 PUSH3 0xB48B DUP4 CODECOPY DUP2 MLOAD SWAP2 MSTORE PUSH1 0x44 DUP3 ADD MSTORE PUSH1 0x64 SWAP1 REVERT JUMPDEST PUSH3 0x51A7 SWAP2 POP PUSH1 0x20 RETURNDATASIZE PUSH1 0x20 GT PUSH3 0x114E JUMPI PUSH3 0x113E DUP2 DUP4 PUSH3 0x6167 JUMP JUMPDEST DUP13 PUSH3 0x5150 JUMP JUMPDEST PUSH3 0x51CB SWAP2 POP PUSH1 0x20 RETURNDATASIZE PUSH1 0x20 GT PUSH3 0x114E JUMPI PUSH3 0x113E DUP2 DUP4 PUSH3 0x6167 JUMP JUMPDEST DUP13 PUSH3 0x48D1 JUMP JUMPDEST CALLVALUE PUSH3 0xDDB JUMPI PUSH2 0x1A0 MLOAD CALLDATASIZE PUSH1 0x3 NOT ADD SLT PUSH3 0xDDB JUMPI PUSH1 0x20 PUSH1 0x40 MLOAD PUSH2 0x3E8 DUP2 MSTORE RETURN JUMPDEST CALLVALUE PUSH3 0xDDB JUMPI PUSH2 0x1A0 MLOAD CALLDATASIZE PUSH1 0x3 NOT ADD SLT PUSH3 0xDDB JUMPI PUSH1 0x20 PUSH1 0x5 SLOAD PUSH1 0x40 MLOAD SWAP1 DUP2 MSTORE RETURN JUMPDEST CALLVALUE PUSH3 0xDDB JUMPI PUSH2 0x1A0 MLOAD CALLDATASIZE PUSH1 0x3 NOT ADD SLT PUSH3 0xDDB JUMPI PUSH1 0x20 PUSH3 0xFFFFFF PUSH1 0xA SLOAD PUSH1 0xA0 SHR AND PUSH1 0x40 MLOAD SWAP1 DUP2 MSTORE RETURN JUMPDEST CALLVALUE PUSH3 0xDDB JUMPI PUSH2 0x1A0 MLOAD CALLDATASIZE PUSH1 0x3 NOT ADD SLT PUSH3 0xDDB JUMPI PUSH1 0x9 SLOAD PUSH1 0x40 MLOAD PUSH1 0x1 PUSH1 0x1 PUSH1 0xA0 SHL SUB SWAP1 SWAP2 AND DUP2 MSTORE PUSH1 0x20 SWAP1 RETURN JUMPDEST PUSH3 0x5277 CALLDATASIZE PUSH3 0x5EC4 JUMP JUMPDEST SWAP7 SWAP8 SWAP9 SWAP5 SWAP1 POP PUSH3 0x528F PUSH1 0x4 SWAP5 SWAP3 SWAP5 SLOAD CALLVALUE EQ PUSH3 0x60DD JUMP JUMPDEST PUSH3 0x5299 PUSH3 0x6679 JUMP JUMPDEST DUP9 ISZERO PUSH3 0x127C JUMPI DUP6 ISZERO PUSH3 0x1245 JUMPI PUSH2 0x7D0 DUP8 GT PUSH3 0x120A JUMPI PUSH1 0x2 SLOAD PUSH1 0x40 MLOAD SWAP1 PUSH1 0x1 PUSH1 0x1 PUSH1 0xA0 SHL SUB AND PUSH1 0x1 PUSH1 0x1 PUSH1 0x40 SHL SUB PUSH2 0x1808 DUP4 ADD SWAP1 DUP2 GT SWAP1 DUP4 GT OR PUSH3 0xAB2 JUMPI DUP2 SWAP1 PUSH2 0x1808 PUSH3 0x9C83 DUP4 CODECOPY PUSH1 0xE0 PUSH2 0x1808 DUP4 ADD DUP2 DUP2 MSTORE PUSH3 0x5302 SWAP2 PUSH3 0x46DA SWAP2 ADD DUP15 DUP12 PUSH3 0x6780 JUMP JUMPDEST SWAP1 PUSH8 0x6765C793FA10079D PUSH1 0x1B SHL PUSH1 0x40 PUSH2 0x1808 DUP6 ADD ADD MSTORE ADDRESS PUSH1 0x60 PUSH2 0x1808 DUP6 ADD ADD MSTORE CALLER PUSH1 0x80 PUSH2 0x1808 DUP6 ADD ADD MSTORE PUSH1 0xA0 PUSH2 0x1808 DUP5 ADD ADD MSTORE PUSH1 0x32 PUSH1 0xC0 PUSH2 0x1808 DUP5 ADD ADD MSTORE SUB SWAP1 PUSH2 0x1A0 MLOAD CREATE PUSH2 0x2E0 MSTORE PUSH2 0x2E0 MLOAD ISZERO PUSH3 0x989 JUMPI PUSH3 0x536C PUSH1 0x1 DUP1 PUSH1 0xA0 SHL SUB PUSH1 0x2 SLOAD AND CALLER EQ PUSH3 0x67DC JUMP JUMPDEST SWAP6 PUSH1 0x1 DUP1 PUSH1 0xA0 SHL SUB PUSH1 0x1 SLOAD AND PUSH1 0x3 SLOAD SWAP1 PUSH1 0x5 SLOAD PUSH1 0x6 SLOAD PUSH1 0x7 SLOAD PUSH1 0x1 DUP1 PUSH1 0xA0 SHL SUB PUSH1 0x8 SLOAD AND SWAP2 PUSH1 0xA SLOAD SWAP4 PUSH1 0x40 MLOAD SWAP7 DUP8 PUSH2 0x3464 DUP2 ADD LT PUSH1 0x1 PUSH1 0x1 PUSH1 0x40 SHL SUB PUSH2 0x3464 DUP11 ADD GT OR PUSH3 0xAB2 JUMPI PUSH3 0xFFFFFF SWAP7 PUSH2 0x3464 PUSH3 0x681F DUP11 CODECOPY PUSH2 0x2E0 MLOAD PUSH1 0x1 PUSH1 0x1 PUSH1 0xA0 SHL SUB SWAP1 DUP2 AND PUSH2 0x3464 DUP12 ADD SWAP1 DUP2 MSTORE ADDRESS PUSH1 0x20 DUP3 ADD MSTORE PUSH1 0x40 DUP2 ADD SWAP3 SWAP1 SWAP3 MSTORE PUSH1 0x60 DUP3 ADD SWAP3 SWAP1 SWAP3 MSTORE PUSH1 0x80 DUP2 ADD SWAP3 SWAP1 SWAP3 MSTORE PUSH1 0xA0 DUP3 DUP2 ADD SWAP4 SWAP1 SWAP4 MSTORE PUSH1 0xC0 DUP3 ADD SWAP4 SWAP1 SWAP4 MSTORE PUSH1 0xE0 DUP2 ADD SWAP4 SWAP1 SWAP4 MSTORE DUP13 DUP3 AND PUSH2 0x100 DUP5 ADD MSTORE SWAP1 DUP4 AND PUSH2 0x120 DUP4 ADD MSTORE SWAP2 SWAP1 SWAP2 SHR SWAP2 SWAP1 SWAP2 AND PUSH2 0x140 DUP3 ADD MSTORE PUSH2 0x1A0 MLOAD SWAP1 DUP3 SWAP1 SUB PUSH2 0x160 ADD SWAP2 SWAP1 CREATE SWAP9 DUP10 ISZERO PUSH3 0x989 JUMPI PUSH8 0x6765C793FA10079D PUSH1 0x1B SHL DUP10 DUP2 MUL DIV DUP10 SUB PUSH3 0x11B6 JUMPI PUSH8 0x6765C793FA10079D PUSH1 0x1B SHL PUSH2 0x2710 DUP11 DUP3 MUL DIV DUP2 SUB GT PUSH3 0x11B6 JUMPI PUSH1 0x40 MLOAD PUSH4 0xA9059CBB PUSH1 0xE0 SHL DUP2 MSTORE PUSH1 0x1 PUSH1 0x1 PUSH1 0xA0 SHL SUB DUP12 DUP2 AND PUSH1 0x4 DUP4 ADD MSTORE PUSH2 0x2710 PUSH8 0x6765C793FA10079D PUSH1 0x1B SHL DUP13 DUP2 MUL SWAP2 SWAP1 SWAP2 DIV SWAP1 SUB PUSH1 0x24 DUP4 ADD MSTORE PUSH2 0x1A0 MLOAD PUSH2 0x2E0 MLOAD PUSH1 0x20 SWAP3 DUP5 SWAP3 PUSH1 0x44 SWAP3 DUP5 SWAP3 AND GAS CALL SWAP1 DUP2 ISZERO PUSH3 0x989 JUMPI PUSH2 0x1A0 MLOAD SWAP2 PUSH3 0x5DEE JUMPI JUMPDEST POP ISZERO PUSH3 0x1156 JUMPI PUSH2 0x2710 DUP10 PUSH8 0x6765C793FA10079D PUSH1 0x1B SHL MUL DIV PUSH3 0x5D36 JUMPI JUMPDEST PUSH1 0x1 PUSH1 0x1 PUSH1 0xA0 SHL SUB DUP11 AND EXTCODESIZE ISZERO PUSH3 0xDDB JUMPI PUSH1 0x40 MLOAD PUSH4 0x95564837 PUSH1 0xE0 SHL DUP2 MSTORE PUSH2 0x2710 DUP11 PUSH8 0x6765C793FA10079D PUSH1 0x1B SHL MUL DIV PUSH8 0x6765C793FA10079D PUSH1 0x1B SHL SUB PUSH1 0x4 DUP3 ADD MSTORE DUP11 DUP2 PUSH1 0x24 DUP2 PUSH2 0x1A0 MLOAD SWAP4 PUSH2 0x1A0 MLOAD SWAP1 PUSH1 0x1 DUP1 PUSH1 0xA0 SHL SUB AND GAS CALL DUP1 ISZERO PUSH3 0x989 JUMPI PUSH3 0x5D24 JUMPI JUMPDEST POP PUSH2 0x2E0 MLOAD PUSH2 0x1A0 DUP1 MLOAD PUSH1 0x1 PUSH1 0x1 PUSH1 0xA0 SHL SUB SWAP3 DUP4 AND SWAP1 MSTORE PUSH1 0xC PUSH1 0x20 MSTORE MLOAD PUSH1 0x40 SWAP1 KECCAK256 DUP1 SLOAD PUSH1 0x1 PUSH1 0x1 PUSH1 0xA0 SHL SUB NOT AND SWAP2 DUP13 AND SWAP2 SWAP1 SWAP2 OR SWAP1 SSTORE PUSH1 0xB SLOAD SWAP11 PUSH1 0x1 PUSH1 0x40 SHL DUP13 LT ISZERO PUSH3 0xAB2 JUMPI PUSH1 0x1 DUP13 ADD PUSH1 0xB SSTORE PUSH3 0x55BB DUP13 PUSH3 0x61DA JUMP JUMPDEST POP POP PUSH3 0x55C8 DUP13 PUSH3 0x61DA JUMP JUMPDEST POP PUSH2 0x2E0 MLOAD DUP2 SLOAD PUSH1 0x1 PUSH1 0x1 PUSH1 0xA0 SHL SUB NOT SWAP1 DUP2 AND PUSH1 0x1 PUSH1 0x1 PUSH1 0xA0 SHL SUB SWAP3 DUP4 AND OR DUP4 SSTORE PUSH1 0x1 DUP4 ADD DUP1 SLOAD DUP3 AND SWAP3 DUP16 AND SWAP3 SWAP1 SWAP3 OR SWAP1 SWAP2 SSTORE PUSH1 0x2 DUP3 ADD DUP1 SLOAD SWAP1 SWAP2 AND CALLER OR SWAP1 SSTORE SWAP8 PUSH1 0x1 PUSH1 0x1 PUSH1 0x40 SHL SUB DUP3 GT PUSH3 0xAB2 JUMPI DUP2 SWAP1 PUSH3 0x5629 PUSH1 0x3 DUP12 ADD SLOAD PUSH3 0x622C JUMP JUMPDEST PUSH1 0x1F DUP2 GT PUSH3 0x5CC6 JUMPI JUMPDEST POP PUSH2 0x1A0 MLOAD SWAP1 PUSH1 0x1F DUP4 GT PUSH1 0x1 EQ PUSH3 0x5C4F JUMPI PUSH2 0x1A0 MLOAD SWAP3 PUSH3 0x5C43 JUMPI JUMPDEST POP POP DUP2 PUSH1 0x1 SHL SWAP2 PUSH1 0x0 NOT SWAP1 PUSH1 0x3 SHL SHR NOT AND OR PUSH1 0x3 DUP9 ADD SSTORE JUMPDEST PUSH1 0x1 PUSH1 0x1 PUSH1 0x40 SHL SUB DUP3 GT PUSH3 0xAB2 JUMPI DUP2 SWAP1 PUSH3 0x5688 PUSH1 0x4 DUP10 ADD SLOAD PUSH3 0x622C JUMP JUMPDEST PUSH1 0x1F DUP2 GT PUSH3 0x5BE5 JUMPI JUMPDEST POP PUSH2 0x1A0 MLOAD SWAP1 PUSH1 0x1F DUP4 GT PUSH1 0x1 EQ PUSH3 0x5B6E JUMPI PUSH2 0x1A0 MLOAD SWAP3 PUSH3 0x5B62 JUMPI JUMPDEST POP POP DUP2 PUSH1 0x1 SHL SWAP2 PUSH1 0x0 NOT SWAP1 PUSH1 0x3 SHL SHR NOT AND OR PUSH1 0x4 DUP7 ADD SSTORE JUMPDEST PUSH1 0x1 PUSH1 0x1 PUSH1 0x40 SHL SUB DUP3 GT PUSH3 0xAB2 JUMPI DUP2 SWAP1 PUSH3 0x56E7 PUSH1 0x5 DUP8 ADD SLOAD PUSH3 0x622C JUMP JUMPDEST PUSH1 0x1F DUP2 GT PUSH3 0x5B04 JUMPI JUMPDEST POP PUSH2 0x1A0 MLOAD SWAP1 PUSH1 0x1F DUP4 GT PUSH1 0x1 EQ PUSH3 0x5A8D JUMPI PUSH2 0x1A0 MLOAD SWAP3 PUSH3 0x5A81 JUMPI JUMPDEST POP POP DUP2 PUSH1 0x1 SHL SWAP2 PUSH1 0x0 NOT SWAP1 PUSH1 0x3 SHL SHR NOT AND OR PUSH1 0x5 DUP5 ADD SSTORE JUMPDEST PUSH1 0x1 PUSH1 0x1 PUSH1 0x40 SHL SUB DUP3 GT PUSH3 0xAB2 JUMPI PUSH3 0x5744 PUSH1 0x6 DUP5 ADD SLOAD PUSH3 0x622C JUMP JUMPDEST PUSH1 0x1F DUP2 GT PUSH3 0x5A2F JUMPI JUMPDEST POP PUSH2 0x1A0 MLOAD SWAP1 PUSH1 0x1F DUP4 GT PUSH1 0x1 EQ PUSH3 0x59AE JUMPI SWAP2 DUP1 SWAP2 PUSH3 0xFFFFFF SWAP6 SWAP5 SWAP4 PUSH2 0x1A0 MLOAD SWAP3 PUSH3 0x59A2 JUMPI JUMPDEST POP POP DUP2 PUSH1 0x1 SHL SWAP2 PUSH1 0x0 NOT SWAP1 PUSH1 0x3 SHL SHR NOT AND OR PUSH1 0x6 DUP3 ADD SSTORE JUMPDEST PUSH8 0x6765C793FA10079D PUSH1 0x1B SHL PUSH1 0x7 DUP3 ADD SSTORE PUSH2 0x2710 DUP5 PUSH8 0x6765C793FA10079D PUSH1 0x1B SHL MUL DIV PUSH1 0x8 DUP3 ADD SSTORE PUSH1 0x9 TIMESTAMP SWAP2 ADD SSTORE PUSH1 0x3 SLOAD SWAP1 PUSH1 0x7 SLOAD PUSH1 0x1 DUP1 PUSH1 0xA0 SHL SUB PUSH1 0x8 SLOAD AND SWAP1 PUSH1 0xA SLOAD SWAP4 PUSH2 0x2710 PUSH1 0x40 MLOAD SWAP8 PUSH1 0x1 DUP1 PUSH1 0xA0 SHL SUB DUP11 AND DUP10 MSTORE PUSH8 0x6765C793FA10079D PUSH1 0x1B SHL PUSH1 0x20 DUP11 ADD MSTORE PUSH8 0x6765C793FA10079D PUSH1 0x1B SHL MUL DIV PUSH1 0x40 DUP9 ADD MSTORE PUSH1 0x60 DUP8 ADD MSTORE PUSH1 0x80 DUP7 ADD MSTORE PUSH1 0xA0 DUP6 ADD MSTORE PUSH1 0x1 DUP1 PUSH1 0xA0 SHL SUB AND PUSH1 0xC0 DUP5 ADD MSTORE PUSH1 0x1 DUP1 PUSH1 0xA0 SHL SUB DUP2 AND PUSH1 0xE0 DUP5 ADD MSTORE PUSH1 0xA0 SHR AND PUSH2 0x100 DUP3 ADD MSTORE PUSH1 0x1 DUP1 PUSH1 0xA0 SHL SUB PUSH2 0x2E0 MLOAD AND SWAP1 DUP4 PUSH1 0x0 DUP1 MLOAD PUSH1 0x20 PUSH3 0xB4AB DUP4 CODECOPY DUP2 MLOAD SWAP2 MSTORE PUSH2 0x120 CALLER SWAP4 LOG4 PUSH1 0x40 MLOAD PUSH4 0x17773EBB PUSH1 0xE0 SHL DUP2 MSTORE PUSH2 0x2E0 MLOAD PUSH1 0x20 SWAP1 DUP3 SWAP1 PUSH1 0x4 SWAP1 DUP3 SWAP1 PUSH1 0x1 PUSH1 0x1 PUSH1 0xA0 SHL SUB AND GAS STATICCALL SWAP1 DUP2 ISZERO PUSH3 0x989 JUMPI PUSH2 0x1A0 MLOAD SWAP2 PUSH3 0x596A JUMPI JUMPDEST POP PUSH1 0x40 MLOAD PUSH4 0x116E689F PUSH1 0xE1 SHL DUP2 MSTORE PUSH2 0x2E0 MLOAD PUSH1 0x20 SWAP1 DUP3 SWAP1 PUSH1 0x4 SWAP1 DUP3 SWAP1 PUSH1 0x1 PUSH1 0x1 PUSH1 0xA0 SHL SUB AND GAS STATICCALL SWAP1 DUP2 ISZERO PUSH3 0x989 JUMPI PUSH2 0x1A0 MLOAD SWAP2 PUSH3 0x5932 JUMPI JUMPDEST POP PUSH1 0x40 MLOAD SWAP2 PUSH1 0x32 DUP4 MSTORE PUSH1 0x20 DUP4 ADD MSTORE PUSH1 0x40 DUP3 ADD MSTORE DUP3 PUSH1 0x0 DUP1 MLOAD PUSH1 0x20 PUSH3 0xB4CB DUP4 CODECOPY DUP2 MLOAD SWAP2 MSTORE PUSH1 0x60 PUSH1 0x1 DUP1 PUSH1 0xA0 SHL SUB PUSH2 0x2E0 MLOAD AND SWAP4 LOG3 PUSH1 0x40 DUP1 MLOAD PUSH2 0x2E0 MLOAD SWAP4 DUP2 MSTORE PUSH1 0x1 PUSH1 0x1 PUSH1 0xA0 SHL SUB SWAP4 DUP5 AND PUSH1 0x20 DUP3 ADD MSTORE SWAP2 SWAP1 SWAP3 AND SWAP2 DUP2 ADD SWAP2 SWAP1 SWAP2 MSTORE PUSH1 0x60 SWAP1 RETURN JUMPDEST SWAP1 POP PUSH1 0x20 DUP2 RETURNDATASIZE PUSH1 0x20 GT PUSH3 0x5961 JUMPI JUMPDEST DUP2 PUSH3 0x5950 PUSH1 0x20 SWAP4 DUP4 PUSH3 0x6167 JUMP JUMPDEST DUP2 ADD SUB SLT PUSH3 0x97B JUMPI MLOAD DUP5 PUSH3 0x58D3 JUMP JUMPDEST RETURNDATASIZE SWAP2 POP PUSH3 0x5941 JUMP JUMPDEST SWAP1 POP PUSH1 0x20 DUP2 RETURNDATASIZE PUSH1 0x20 GT PUSH3 0x5999 JUMPI JUMPDEST DUP2 PUSH3 0x5988 PUSH1 0x20 SWAP4 DUP4 PUSH3 0x6167 JUMP JUMPDEST DUP2 ADD SUB SLT PUSH3 0x97B JUMPI MLOAD DUP4 PUSH3 0x5899 JUMP JUMPDEST RETURNDATASIZE SWAP2 POP PUSH3 0x5979 JUMP JUMPDEST ADD CALLDATALOAD SWAP1 POP DUP9 DUP1 PUSH3 0x5775 JUMP JUMPDEST PUSH1 0x6 DUP5 ADD PUSH2 0x1A0 MLOAD MSTORE PUSH1 0x20 PUSH2 0x1A0 MLOAD KECCAK256 SWAP2 PUSH2 0x1A0 MLOAD JUMPDEST PUSH1 0x1F NOT DUP6 AND DUP2 LT PUSH3 0x5A16 JUMPI POP SWAP2 DUP4 SWAP2 PUSH1 0x1 SWAP4 PUSH3 0xFFFFFF SWAP8 SWAP7 SWAP6 PUSH1 0x1F NOT DUP2 AND LT PUSH3 0x59FB JUMPI JUMPDEST POP POP POP DUP2 SHL ADD PUSH1 0x6 DUP3 ADD SSTORE PUSH3 0x578D JUMP JUMPDEST ADD CALLDATALOAD PUSH1 0x0 NOT PUSH1 0x3 DUP5 SWAP1 SHL PUSH1 0xF8 AND SHR NOT AND SWAP1 SSTORE DUP9 DUP1 DUP1 PUSH3 0x59EA JUMP JUMPDEST SWAP1 SWAP3 PUSH1 0x20 PUSH1 0x1 DUP2 SWAP3 DUP7 DUP7 ADD CALLDATALOAD DUP2 SSTORE ADD SWAP5 ADD SWAP2 ADD PUSH3 0x59C4 JUMP JUMPDEST PUSH1 0x6 DUP5 ADD PUSH2 0x1A0 MLOAD MSTORE PUSH1 0x20 PUSH2 0x1A0 MLOAD KECCAK256 PUSH1 0x1F DUP5 ADD PUSH1 0x5 SHR DUP2 ADD PUSH1 0x20 DUP6 LT PUSH3 0x5A79 JUMPI JUMPDEST PUSH1 0x1F DUP4 ADD PUSH1 0x5 SHR DUP3 ADD DUP2 LT PUSH3 0x5A6A JUMPI POP POP PUSH3 0x574E JUMP JUMPDEST PUSH2 0x1A0 MLOAD DUP2 SSTORE PUSH1 0x1 ADD PUSH3 0x5A52 JUMP JUMPDEST POP DUP1 PUSH3 0x5A52 JUMP JUMPDEST ADD CALLDATALOAD SWAP1 POP DUP10 DUP1 PUSH3 0x570E JUMP JUMPDEST PUSH2 0x1A0 DUP1 MLOAD PUSH1 0x5 DUP10 ADD SWAP1 MSTORE MLOAD PUSH1 0x20 DUP2 KECCAK256 SWAP1 SWAP5 POP SWAP2 JUMPDEST PUSH1 0x1F NOT DUP5 AND DUP6 LT PUSH3 0x5AEB JUMPI PUSH1 0x1 SWAP5 POP DUP4 PUSH1 0x1F NOT DUP2 AND LT PUSH3 0x5AD0 JUMPI JUMPDEST POP POP POP DUP2 SHL ADD PUSH1 0x5 DUP5 ADD SSTORE PUSH3 0x5726 JUMP JUMPDEST ADD CALLDATALOAD PUSH1 0x0 NOT PUSH1 0x3 DUP5 SWAP1 SHL PUSH1 0xF8 AND SHR NOT AND SWAP1 SSTORE DUP10 DUP1 DUP1 PUSH3 0x5ABF JUMP JUMPDEST DUP2 DUP2 ADD CALLDATALOAD DUP4 SSTORE PUSH1 0x20 SWAP5 DUP6 ADD SWAP5 PUSH1 0x1 SWAP1 SWAP4 ADD SWAP3 ADD PUSH3 0x5AA2 JUMP JUMPDEST SWAP1 SWAP2 POP PUSH1 0x5 DUP7 ADD PUSH2 0x1A0 MLOAD MSTORE PUSH1 0x20 PUSH2 0x1A0 MLOAD KECCAK256 PUSH1 0x1F DUP5 ADD PUSH1 0x5 SHR DUP2 ADD PUSH1 0x20 DUP6 LT PUSH3 0x5B5A JUMPI JUMPDEST SWAP1 DUP5 SWAP4 SWAP3 SWAP2 JUMPDEST PUSH1 0x1F DUP4 ADD PUSH1 0x5 SHR DUP3 ADD DUP2 LT PUSH3 0x5B48 JUMPI POP POP PUSH3 0x56F1 JUMP JUMPDEST PUSH2 0x1A0 MLOAD DUP2 SSTORE DUP6 SWAP5 POP PUSH1 0x1 ADD PUSH3 0x5B30 JUMP JUMPDEST POP DUP1 PUSH3 0x5B2A JUMP JUMPDEST ADD CALLDATALOAD SWAP1 POP DUP12 DUP1 PUSH3 0x56AF JUMP JUMPDEST PUSH2 0x1A0 DUP1 MLOAD PUSH1 0x4 DUP12 ADD SWAP1 MSTORE MLOAD PUSH1 0x20 DUP2 KECCAK256 SWAP1 SWAP5 POP SWAP2 JUMPDEST PUSH1 0x1F NOT DUP5 AND DUP6 LT PUSH3 0x5BCC JUMPI PUSH1 0x1 SWAP5 POP DUP4 PUSH1 0x1F NOT DUP2 AND LT PUSH3 0x5BB1 JUMPI JUMPDEST POP POP POP DUP2 SHL ADD PUSH1 0x4 DUP7 ADD SSTORE PUSH3 0x56C7 JUMP JUMPDEST ADD CALLDATALOAD PUSH1 0x0 NOT PUSH1 0x3 DUP5 SWAP1 SHL PUSH1 0xF8 AND SHR NOT AND SWAP1 SSTORE DUP12 DUP1 DUP1 PUSH3 0x5BA0 JUMP JUMPDEST DUP2 DUP2 ADD CALLDATALOAD DUP4 SSTORE PUSH1 0x20 SWAP5 DUP6 ADD SWAP5 PUSH1 0x1 SWAP1 SWAP4 ADD SWAP3 ADD PUSH3 0x5B83 JUMP JUMPDEST SWAP1 SWAP2 POP PUSH1 0x4 DUP9 ADD PUSH2 0x1A0 MLOAD MSTORE PUSH1 0x20 PUSH2 0x1A0 MLOAD KECCAK256 PUSH1 0x1F DUP5 ADD PUSH1 0x5 SHR DUP2 ADD PUSH1 0x20 DUP6 LT PUSH3 0x5C3B JUMPI JUMPDEST SWAP1 DUP5 SWAP4 SWAP3 SWAP2 JUMPDEST PUSH1 0x1F DUP4 ADD PUSH1 0x5 SHR DUP3 ADD DUP2 LT PUSH3 0x5C29 JUMPI POP POP PUSH3 0x5692 JUMP JUMPDEST PUSH2 0x1A0 MLOAD DUP2 SSTORE DUP6 SWAP5 POP PUSH1 0x1 ADD PUSH3 0x5C11 JUMP JUMPDEST POP DUP1 PUSH3 0x5C0B JUMP JUMPDEST ADD CALLDATALOAD SWAP1 POP DUP14 DUP1 PUSH3 0x5650 JUMP JUMPDEST PUSH2 0x1A0 DUP1 MLOAD PUSH1 0x3 DUP14 ADD SWAP1 MSTORE MLOAD PUSH1 0x20 DUP2 KECCAK256 SWAP1 SWAP5 POP SWAP2 JUMPDEST PUSH1 0x1F NOT DUP5 AND DUP6 LT PUSH3 0x5CAD JUMPI PUSH1 0x1 SWAP5 POP DUP4 PUSH1 0x1F NOT DUP2 AND LT PUSH3 0x5C92 JUMPI JUMPDEST POP POP POP DUP2 SHL ADD PUSH1 0x3 DUP9 ADD SSTORE PUSH3 0x5668 JUMP JUMPDEST ADD CALLDATALOAD PUSH1 0x0 NOT PUSH1 0x3 DUP5 SWAP1 SHL PUSH1 0xF8 AND SHR NOT AND SWAP1 SSTORE DUP14 DUP1 DUP1 PUSH3 0x5C81 JUMP JUMPDEST DUP2 DUP2 ADD CALLDATALOAD DUP4 SSTORE PUSH1 0x20 SWAP5 DUP6 ADD SWAP5 PUSH1 0x1 SWAP1 SWAP4 ADD SWAP3 ADD PUSH3 0x5C64 JUMP JUMPDEST SWAP1 SWAP2 POP PUSH1 0x3 DUP11 ADD PUSH2 0x1A0 MLOAD MSTORE PUSH1 0x20 PUSH2 0x1A0 MLOAD KECCAK256 PUSH1 0x1F DUP5 ADD PUSH1 0x5 SHR DUP2 ADD PUSH1 0x20 DUP6 LT PUSH3 0x5D1C JUMPI JUMPDEST SWAP1 DUP5 SWAP4 SWAP3 SWAP2 JUMPDEST PUSH1 0x1F DUP4 ADD PUSH1 0x5 SHR DUP3 ADD DUP2 LT PUSH3 0x5D0A JUMPI POP POP PUSH3 0x5633 JUMP JUMPDEST PUSH2 0x1A0 MLOAD DUP2 SSTORE DUP6 SWAP5 POP PUSH1 0x1 ADD PUSH3 0x5CF2 JUMP JUMPDEST POP DUP1 PUSH3 0x5CEC JUMP JUMPDEST PUSH3 0x5D2F SWAP1 PUSH3 0x6120 JUMP JUMPDEST DUP12 PUSH3 0x5562 JUMP JUMPDEST PUSH1 0x40 MLOAD PUSH4 0xA9059CBB PUSH1 0xE0 SHL DUP2 MSTORE CALLER PUSH1 0x4 DUP3 ADD MSTORE PUSH2 0x2710 PUSH8 0x6765C793FA10079D PUSH1 0x1B SHL DUP12 MUL DIV PUSH1 0x24 DUP3 ADD MSTORE PUSH2 0x1A0 MLOAD PUSH2 0x2E0 MLOAD PUSH1 0x20 SWAP2 DUP4 SWAP2 PUSH1 0x44 SWAP2 DUP4 SWAP2 PUSH1 0x1 PUSH1 0x1 PUSH1 0xA0 SHL SUB AND GAS CALL SWAP1 DUP2 ISZERO PUSH3 0x989 JUMPI PUSH2 0x1A0 MLOAD SWAP2 PUSH3 0x5DCA JUMPI JUMPDEST POP PUSH3 0x54FA JUMPI PUSH1 0x40 MLOAD PUSH3 0x461BCD PUSH1 0xE5 SHL DUP2 MSTORE PUSH1 0x20 PUSH1 0x4 DUP3 ADD MSTORE PUSH1 0x17 PUSH1 0x24 DUP3 ADD MSTORE PUSH1 0x0 DUP1 MLOAD PUSH1 0x20 PUSH3 0xB48B DUP4 CODECOPY DUP2 MLOAD SWAP2 MSTORE PUSH1 0x44 DUP3 ADD MSTORE PUSH1 0x64 SWAP1 REVERT JUMPDEST PUSH3 0x5DE7 SWAP2 POP PUSH1 0x20 RETURNDATASIZE PUSH1 0x20 GT PUSH3 0x114E JUMPI PUSH3 0x113E DUP2 DUP4 PUSH3 0x6167 JUMP JUMPDEST DUP13 PUSH3 0x5D90 JUMP JUMPDEST PUSH3 0x5E0B SWAP2 POP PUSH1 0x20 RETURNDATASIZE PUSH1 0x20 GT PUSH3 0x114E JUMPI PUSH3 0x113E DUP2 DUP4 PUSH3 0x6167 JUMP JUMPDEST DUP13 PUSH3 0x54DB JUMP JUMPDEST CALLVALUE PUSH3 0xDDB JUMPI PUSH1 0x20 CALLDATASIZE PUSH1 0x3 NOT ADD SLT PUSH3 0xDDB JUMPI PUSH1 0x20 PUSH1 0x1 PUSH1 0x1 PUSH1 0xA0 SHL SUB DUP1 PUSH3 0x5E3A PUSH3 0x5E7D JUMP JUMPDEST AND PUSH2 0x1A0 MLOAD MSTORE PUSH1 0xC DUP3 MSTORE PUSH1 0x40 PUSH2 0x1A0 MLOAD KECCAK256 SLOAD AND PUSH1 0x40 MLOAD SWAP1 DUP2 MSTORE RETURN JUMPDEST CALLVALUE PUSH3 0xDDB JUMPI PUSH2 0x1A0 MLOAD CALLDATASIZE PUSH1 0x3 NOT ADD SLT PUSH3 0xDDB JUMPI PUSH1 0xA SLOAD PUSH1 0x1 PUSH1 0x1 PUSH1 0xA0 SHL SUB AND DUP2 MSTORE PUSH1 0x20 SWAP1 RETURN JUMPDEST PUSH1 0x4 CALLDATALOAD SWAP1 PUSH1 0x1 PUSH1 0x1 PUSH1 0xA0 SHL SUB DUP3 AND DUP3 SUB PUSH3 0x97B JUMPI JUMP JUMPDEST SWAP2 DUP2 PUSH1 0x1F DUP5 ADD SLT ISZERO PUSH3 0x97B JUMPI DUP3 CALLDATALOAD SWAP2 PUSH1 0x1 PUSH1 0x1 PUSH1 0x40 SHL SUB DUP4 GT PUSH3 0x97B JUMPI PUSH1 0x20 DUP4 DUP2 DUP7 ADD SWAP6 ADD ADD GT PUSH3 0x97B JUMPI JUMP JUMPDEST PUSH1 0xC0 PUSH1 0x3 NOT DUP3 ADD SLT PUSH3 0x97B JUMPI PUSH1 0x1 PUSH1 0x1 PUSH1 0x40 SHL SUB SWAP1 PUSH1 0x4 CALLDATALOAD DUP3 DUP2 GT PUSH3 0x97B JUMPI DUP2 PUSH3 0x5EF4 SWAP2 PUSH1 0x4 ADD PUSH3 0x5E94 JUMP JUMPDEST SWAP4 SWAP1 SWAP4 SWAP3 PUSH1 0x24 CALLDATALOAD DUP2 DUP2 GT PUSH3 0x97B JUMPI DUP4 PUSH3 0x5F12 SWAP2 PUSH1 0x4 ADD PUSH3 0x5E94 JUMP JUMPDEST SWAP4 SWAP1 SWAP4 SWAP3 PUSH1 0x44 CALLDATALOAD DUP4 DUP2 GT PUSH3 0x97B JUMPI DUP3 PUSH3 0x5F30 SWAP2 PUSH1 0x4 ADD PUSH3 0x5E94 JUMP JUMPDEST SWAP4 SWAP1 SWAP4 SWAP3 PUSH1 0x64 CALLDATALOAD SWAP2 DUP3 GT PUSH3 0x97B JUMPI PUSH3 0x5F4D SWAP2 PUSH1 0x4 ADD PUSH3 0x5E94 JUMP JUMPDEST SWAP1 SWAP2 PUSH1 0x84 CALLDATALOAD SWAP1 PUSH1 0xA4 CALLDATALOAD SWAP1 JUMP JUMPDEST PUSH1 0xE0 PUSH1 0x3 NOT DUP3 ADD SLT PUSH3 0x97B JUMPI PUSH1 0x1 PUSH1 0x1 PUSH1 0x40 SHL SUB SWAP1 PUSH1 0x4 CALLDATALOAD DUP3 DUP2 GT PUSH3 0x97B JUMPI DUP2 PUSH3 0x5F89 SWAP2 PUSH1 0x4 ADD PUSH3 0x5E94 JUMP JUMPDEST SWAP4 SWAP1 SWAP4 SWAP3 PUSH1 0x24 CALLDATALOAD DUP2 DUP2 GT PUSH3 0x97B JUMPI DUP4 PUSH3 0x5FA7 SWAP2 PUSH1 0x4 ADD PUSH3 0x5E94 JUMP JUMPDEST SWAP4 SWAP1 SWAP4 SWAP3 PUSH1 0x44 CALLDATALOAD DUP4 DUP2 GT PUSH3 0x97B JUMPI DUP3 PUSH3 0x5FC5 SWAP2 PUSH1 0x4 ADD PUSH3 0x5E94 JUMP JUMPDEST SWAP4 SWAP1 SWAP4 SWAP3 PUSH1 0x64 CALLDATALOAD SWAP2 DUP3 GT PUSH3 0x97B JUMPI PUSH3 0x5FE2 SWAP2 PUSH1 0x4 ADD PUSH3 0x5E94 JUMP JUMPDEST SWAP1 SWAP2 PUSH1 0x84 CALLDATALOAD SWAP1 PUSH1 0xA4 CALLDATALOAD SWAP1 PUSH1 0xC4 CALLDATALOAD SWAP1 JUMP JUMPDEST SWAP2 SWAP1 DUP3 MLOAD SWAP3 DUP4 DUP3 MSTORE PUSH1 0x0 JUMPDEST DUP5 DUP2 LT PUSH3 0x601F JUMPI POP POP DUP3 PUSH1 0x0 PUSH1 0x20 DUP1 SWAP5 SWAP6 DUP5 ADD ADD MSTORE PUSH1 0x1F DUP1 NOT SWAP2 ADD AND ADD ADD SWAP1 JUMP JUMPDEST PUSH1 0x20 DUP2 DUP4 ADD DUP2 ADD MLOAD DUP5 DUP4 ADD DUP3 ADD MSTORE ADD PUSH3 0x5FFD JUMP JUMPDEST SWAP1 PUSH3 0x60BA PUSH3 0x60A7 PUSH3 0x6094 PUSH3 0x6081 PUSH2 0x140 PUSH1 0x1 DUP1 PUSH1 0xA0 SHL SUB DUP1 DUP9 MLOAD AND DUP8 MSTORE DUP1 PUSH1 0x20 DUP10 ADD MLOAD AND PUSH1 0x20 DUP9 ADD MSTORE PUSH1 0x40 DUP9 ADD MLOAD AND PUSH1 0x40 DUP8 ADD MSTORE PUSH1 0x60 DUP8 ADD MLOAD SWAP1 DUP1 PUSH1 0x60 DUP9 ADD MSTORE DUP7 ADD SWAP1 PUSH3 0x5FF2 JUMP JUMPDEST PUSH1 0x80 DUP7 ADD MLOAD DUP6 DUP3 SUB PUSH1 0x80 DUP8 ADD MSTORE PUSH3 0x5FF2 JUMP JUMPDEST PUSH1 0xA0 DUP6 ADD MLOAD DUP5 DUP3 SUB PUSH1 0xA0 DUP7 ADD MSTORE PUSH3 0x5FF2 JUMP JUMPDEST PUSH1 0xC0 DUP5 ADD MLOAD DUP4 DUP3 SUB PUSH1 0xC0 DUP6 ADD MSTORE PUSH3 0x5FF2 JUMP JUMPDEST SWAP2 PUSH1 0xE0 DUP2 ADD MLOAD PUSH1 0xE0 DUP4 ADD MSTORE PUSH2 0x100 DUP1 DUP3 ADD MLOAD SWAP1 DUP4 ADD MSTORE PUSH2 0x120 DUP1 SWAP2 ADD MLOAD SWAP2 ADD MSTORE SWAP1 JUMP JUMPDEST ISZERO PUSH3 0x60E5 JUMPI JUMP JUMPDEST PUSH1 0x40 MLOAD PUSH3 0x461BCD PUSH1 0xE5 SHL DUP2 MSTORE PUSH1 0x20 PUSH1 0x4 DUP3 ADD MSTORE PUSH1 0x13 PUSH1 0x24 DUP3 ADD MSTORE PUSH19 0xD8C2EADCC6D040CCCACA40DAD2E6DAC2E8C6D PUSH1 0x6B SHL PUSH1 0x44 DUP3 ADD MSTORE PUSH1 0x64 SWAP1 REVERT JUMPDEST PUSH1 0x1 PUSH1 0x1 PUSH1 0x40 SHL SUB DUP2 GT PUSH3 0x6134 JUMPI PUSH1 0x40 MSTORE JUMP JUMPDEST PUSH4 0x4E487B71 PUSH1 0xE0 SHL PUSH1 0x0 MSTORE PUSH1 0x41 PUSH1 0x4 MSTORE PUSH1 0x24 PUSH1 0x0 REVERT JUMPDEST PUSH2 0x140 DUP2 ADD SWAP1 DUP2 LT PUSH1 0x1 PUSH1 0x1 PUSH1 0x40 SHL SUB DUP3 GT OR PUSH3 0x6134 JUMPI PUSH1 0x40 MSTORE JUMP JUMPDEST SWAP1 PUSH1 0x1F DUP1 NOT SWAP2 ADD AND DUP2 ADD SWAP1 DUP2 LT PUSH1 0x1 PUSH1 0x1 PUSH1 0x40 SHL SUB DUP3 GT OR PUSH3 0x6134 JUMPI PUSH1 0x40 MSTORE JUMP JUMPDEST PUSH1 0x40 MLOAD SWAP1 PUSH3 0x6198 DUP3 PUSH3 0x614A JUMP JUMPDEST DUP2 PUSH2 0x120 PUSH1 0x0 SWAP2 DUP3 DUP2 MSTORE DUP3 PUSH1 0x20 DUP3 ADD MSTORE DUP3 PUSH1 0x40 DUP3 ADD MSTORE PUSH1 0x60 DUP1 DUP3 ADD MSTORE PUSH1 0x60 PUSH1 0x80 DUP3 ADD MSTORE PUSH1 0x60 PUSH1 0xA0 DUP3 ADD MSTORE PUSH1 0x60 PUSH1 0xC0 DUP3 ADD MSTORE DUP3 PUSH1 0xE0 DUP3 ADD MSTORE DUP3 PUSH2 0x100 DUP3 ADD MSTORE ADD MSTORE JUMP JUMPDEST PUSH1 0xB SLOAD DUP2 LT ISZERO PUSH3 0x6216 JUMPI PUSH1 0xA SWAP1 PUSH1 0xB PUSH1 0x0 MSTORE MUL PUSH32 0x175B7A638427703F0DBE7BB9BBF987A2551717B34E79F33B5B1008D1FA01DB9 ADD SWAP1 PUSH1 0x0 SWAP1 JUMP JUMPDEST PUSH4 0x4E487B71 PUSH1 0xE0 SHL PUSH1 0x0 MSTORE PUSH1 0x32 PUSH1 0x4 MSTORE PUSH1 0x24 PUSH1 0x0 REVERT JUMPDEST SWAP1 PUSH1 0x1 DUP3 DUP2 SHR SWAP3 AND DUP1 ISZERO PUSH3 0x625E JUMPI JUMPDEST PUSH1 0x20 DUP4 LT EQ PUSH3 0x6248 JUMPI JUMP JUMPDEST PUSH4 0x4E487B71 PUSH1 0xE0 SHL PUSH1 0x0 MSTORE PUSH1 0x22 PUSH1 0x4 MSTORE PUSH1 0x24 PUSH1 0x0 REVERT JUMPDEST SWAP2 PUSH1 0x7F AND SWAP2 PUSH3 0x623C JUMP JUMPDEST SWAP1 PUSH1 0x40 MLOAD SWAP2 DUP3 PUSH1 0x0 DUP3 SLOAD PUSH3 0x627E DUP2 PUSH3 0x622C JUMP JUMPDEST SWAP1 DUP2 DUP5 MSTORE PUSH1 0x20 SWAP5 PUSH1 0x1 SWAP2 PUSH1 0x1 DUP2 AND SWAP1 DUP2 PUSH1 0x0 EQ PUSH3 0x62F6 JUMPI POP PUSH1 0x1 EQ PUSH3 0x62B3 JUMPI JUMPDEST POP POP POP PUSH3 0x62B1 SWAP3 POP SUB DUP4 PUSH3 0x6167 JUMP JUMPDEST JUMP JUMPDEST PUSH1 0x0 SWAP1 DUP2 MSTORE DUP6 DUP2 KECCAK256 SWAP6 SWAP4 POP SWAP2 SWAP1 JUMPDEST DUP2 DUP4 LT PUSH3 0x62DD JUMPI POP POP PUSH3 0x62B1 SWAP4 POP DUP3 ADD ADD CODESIZE DUP1 DUP1 PUSH3 0x62A0 JUMP JUMPDEST DUP6 SLOAD DUP9 DUP5 ADD DUP6 ADD MSTORE SWAP5 DUP6 ADD SWAP5 DUP8 SWAP5 POP SWAP2 DUP4 ADD SWAP2 PUSH3 0x62C1 JUMP JUMPDEST SWAP3 POP POP POP PUSH3 0x62B1 SWAP5 SWAP3 POP PUSH1 0xFF NOT AND DUP3 DUP5 ADD MSTORE ISZERO ISZERO PUSH1 0x5 SHL DUP3 ADD ADD CODESIZE DUP1 DUP1 PUSH3 0x62A0 JUMP JUMPDEST SWAP1 PUSH1 0x40 MLOAD PUSH3 0x6329 DUP2 PUSH3 0x614A JUMP JUMPDEST PUSH2 0x120 PUSH1 0x9 DUP3 SWAP5 PUSH1 0x1 DUP1 PUSH1 0xA0 SHL SUB DUP1 DUP3 SLOAD AND DUP6 MSTORE DUP1 PUSH1 0x1 DUP4 ADD SLOAD AND PUSH1 0x20 DUP7 ADD MSTORE PUSH1 0x2 DUP3 ADD SLOAD AND PUSH1 0x40 DUP6 ADD MSTORE PUSH3 0x6362 PUSH1 0x3 DUP3 ADD PUSH3 0x6269 JUMP JUMPDEST PUSH1 0x60 DUP6 ADD MSTORE PUSH3 0x6375 PUSH1 0x4 DUP3 ADD PUSH3 0x6269 JUMP JUMPDEST PUSH1 0x80 DUP6 ADD MSTORE PUSH3 0x6388 PUSH1 0x5 DUP3 ADD PUSH3 0x6269 JUMP JUMPDEST PUSH1 0xA0 DUP6 ADD MSTORE PUSH3 0x639B PUSH1 0x6 DUP3 ADD PUSH3 0x6269 JUMP JUMPDEST PUSH1 0xC0 DUP6 ADD MSTORE PUSH1 0x7 DUP2 ADD SLOAD PUSH1 0xE0 DUP6 ADD MSTORE PUSH1 0x8 DUP2 ADD SLOAD PUSH2 0x100 DUP6 ADD MSTORE ADD SLOAD SWAP2 ADD MSTORE JUMP JUMPDEST ISZERO PUSH3 0x63C4 JUMPI JUMP JUMPDEST PUSH1 0x40 MLOAD PUSH3 0x461BCD PUSH1 0xE5 SHL DUP2 MSTORE PUSH1 0x20 PUSH1 0x4 DUP3 ADD MSTORE PUSH1 0x17 PUSH1 0x24 DUP3 ADD MSTORE PUSH32 0x696E73756666696369656E74206C61756E636820666565000000000000000000 PUSH1 0x44 DUP3 ADD MSTORE PUSH1 0x64 SWAP1 REVERT JUMPDEST SWAP2 SWAP1 DUP3 SUB SWAP2 DUP3 GT PUSH3 0x6417 JUMPI JUMP JUMPDEST PUSH4 0x4E487B71 PUSH1 0xE0 SHL PUSH1 0x0 MSTORE PUSH1 0x11 PUSH1 0x4 MSTORE PUSH1 0x24 PUSH1 0x0 REVERT JUMPDEST ISZERO PUSH3 0x6435 JUMPI JUMP JUMPDEST PUSH1 0x40 MLOAD PUSH3 0x461BCD PUSH1 0xE5 SHL DUP2 MSTORE PUSH1 0x20 PUSH1 0x4 DUP3 ADD MSTORE PUSH1 0x12 PUSH1 0x24 DUP3 ADD MSTORE PUSH18 0x19195E081C9BDD5D195C881B9BDD081CD95D PUSH1 0x72 SHL PUSH1 0x44 DUP3 ADD MSTORE PUSH1 0x64 SWAP1 REVERT JUMPDEST ISZERO PUSH3 0x6477 JUMPI JUMP JUMPDEST PUSH1 0x40 MLOAD PUSH3 0x461BCD PUSH1 0xE5 SHL DUP2 MSTORE PUSH1 0x20 PUSH1 0x4 DUP3 ADD MSTORE PUSH1 0x14 PUSH1 0x24 DUP3 ADD MSTORE PUSH20 0x1B1C081C9958DA5C1A595B9D081B9BDD081CD95D PUSH1 0x62 SHL PUSH1 0x44 DUP3 ADD MSTORE PUSH1 0x64 SWAP1 REVERT JUMPDEST ISZERO PUSH3 0x64BB JUMPI JUMP JUMPDEST PUSH1 0x40 MLOAD PUSH3 0x461BCD PUSH1 0xE5 SHL DUP2 MSTORE PUSH1 0x20 PUSH1 0x4 DUP3 ADD MSTORE PUSH1 0x22 PUSH1 0x24 DUP3 ADD MSTORE PUSH32 0x696E73756666696369656E742065746820666F72206665652B6C697175696469 PUSH1 0x44 DUP3 ADD MSTORE PUSH2 0x7479 PUSH1 0xF0 SHL PUSH1 0x64 DUP3 ADD MSTORE PUSH1 0x84 SWAP1 REVERT JUMPDEST PUSH1 0x1 PUSH1 0x1 PUSH1 0x40 SHL SUB DUP2 GT PUSH3 0x6134 JUMPI PUSH1 0x5 SHL PUSH1 0x20 ADD SWAP1 JUMP JUMPDEST DUP1 MLOAD DUP3 LT ISZERO PUSH3 0x6216 JUMPI PUSH1 0x20 SWAP2 PUSH1 0x5 SHL ADD ADD SWAP1 JUMP JUMPDEST PUSH1 0xB SLOAD SWAP3 SWAP2 DUP4 DUP3 LT ISZERO PUSH3 0x6617 JUMPI DUP2 ADD SWAP3 DUP4 DUP3 GT PUSH3 0x6417 JUMPI DUP1 DUP5 GT PUSH3 0x660E JUMPI JUMPDEST POP PUSH3 0x6567 DUP2 DUP5 PUSH3 0x6409 JUMP JUMPDEST SWAP3 PUSH3 0x6573 DUP5 PUSH3 0x650B JUMP JUMPDEST SWAP4 PUSH3 0x6583 PUSH1 0x40 MLOAD SWAP6 DUP7 PUSH3 0x6167 JUMP JUMPDEST DUP1 DUP6 MSTORE PUSH3 0x6594 PUSH1 0x1F NOT SWAP2 PUSH3 0x650B JUMP JUMPDEST ADD PUSH1 0x0 JUMPDEST DUP2 DUP2 LT PUSH3 0x65F4 JUMPI POP POP DUP4 PUSH1 0x0 JUMPDEST DUP3 DUP5 LT PUSH3 0x65B4 JUMPI POP POP POP POP JUMP JUMPDEST PUSH3 0x65C3 PUSH3 0x458D DUP6 PUSH3 0x61DA JUMP JUMPDEST PUSH3 0x65CF DUP3 DUP5 PUSH3 0x6523 JUMP JUMPDEST MSTORE PUSH3 0x65DC DUP2 DUP4 PUSH3 0x6523 JUMP JUMPDEST POP PUSH1 0x0 NOT DUP2 EQ PUSH3 0x6417 JUMPI PUSH1 0x1 SWAP4 DUP5 ADD SWAP4 ADD PUSH3 0x65A6 JUMP JUMPDEST PUSH1 0x20 SWAP1 PUSH3 0x6601 PUSH3 0x6189 JUMP JUMPDEST DUP3 DUP3 DUP10 ADD ADD MSTORE ADD PUSH3 0x6598 JUMP JUMPDEST SWAP3 POP CODESIZE PUSH3 0x655A JUMP JUMPDEST POP POP SWAP1 POP PUSH1 0x40 MLOAD PUSH1 0x20 DUP2 ADD DUP2 DUP2 LT PUSH1 0x1 PUSH1 0x1 PUSH1 0x40 SHL SUB DUP3 GT OR PUSH3 0x6134 JUMPI PUSH1 0x40 MSTORE PUSH1 0x0 DUP2 MSTORE SWAP1 JUMP JUMPDEST ISZERO PUSH3 0x6647 JUMPI JUMP JUMPDEST PUSH1 0x40 MLOAD PUSH3 0x461BCD PUSH1 0xE5 SHL DUP2 MSTORE PUSH1 0x20 PUSH1 0x4 DUP3 ADD MSTORE PUSH1 0xA PUSH1 0x24 DUP3 ADD MSTORE PUSH10 0x37B7363C9037BBB732B9 PUSH1 0xB1 SHL PUSH1 0x44 DUP3 ADD MSTORE PUSH1 0x64 SWAP1 REVERT JUMPDEST PUSH1 0x4 SLOAD PUSH3 0x668A DUP2 CALLVALUE LT ISZERO PUSH3 0x63BC JUMP JUMPDEST DUP1 ISZERO PUSH3 0x677D JUMPI PUSH1 0x0 DUP1 DUP1 DUP1 DUP1 PUSH1 0x1 DUP1 PUSH1 0xA0 SHL SUB SWAP6 DUP7 PUSH1 0x2 SLOAD AND GAS CALL SWAP1 RETURNDATASIZE ISZERO PUSH3 0x6776 JUMPI RETURNDATASIZE SWAP1 PUSH1 0x1 PUSH1 0x1 PUSH1 0x40 SHL SUB DUP3 GT PUSH3 0x6762 JUMPI PUSH1 0x40 MLOAD SWAP2 PUSH3 0x66D9 PUSH1 0x1F DUP3 ADD PUSH1 0x1F NOT AND PUSH1 0x20 ADD DUP5 PUSH3 0x6167 JUMP JUMPDEST DUP3 MSTORE PUSH1 0x20 RETURNDATASIZE SWAP3 ADD RETURNDATACOPY JUMPDEST ISZERO PUSH3 0x671D JUMPI PUSH1 0x2 SLOAD AND PUSH1 0x4 SLOAD PUSH1 0x40 MLOAD SWAP1 DUP2 MSTORE PUSH32 0x4CEF2D27CDF43D743C3C66401182E93989938E77D1BE10F3AB9E6AFDF799F839 PUSH1 0x20 CALLER SWAP3 LOG3 JUMP JUMPDEST PUSH1 0x40 MLOAD PUSH3 0x461BCD PUSH1 0xE5 SHL DUP2 MSTORE PUSH1 0x20 PUSH1 0x4 DUP3 ADD MSTORE PUSH1 0x1A PUSH1 0x24 DUP3 ADD MSTORE PUSH32 0x6C61756E636820666565207472616E73666572206661696C6564000000000000 PUSH1 0x44 DUP3 ADD MSTORE PUSH1 0x64 SWAP1 REVERT JUMPDEST PUSH4 0x4E487B71 PUSH1 0xE0 SHL DUP2 MSTORE PUSH1 0x41 PUSH1 0x4 MSTORE PUSH1 0x24 SWAP1 REVERT JUMPDEST POP PUSH3 0x66E2 JUMP JUMPDEST POP JUMP JUMPDEST SWAP1 DUP1 PUSH1 0x20 SWAP4 SWAP3 DUP2 DUP5 MSTORE DUP5 DUP5 ADD CALLDATACOPY PUSH1 0x0 DUP3 DUP3 ADD DUP5 ADD MSTORE PUSH1 0x1F ADD PUSH1 0x1F NOT AND ADD ADD SWAP1 JUMP JUMPDEST SWAP1 DUP2 PUSH1 0x20 SWAP2 SUB SLT PUSH3 0x97B JUMPI MLOAD DUP1 ISZERO ISZERO DUP2 SUB PUSH3 0x97B JUMPI SWAP1 JUMP JUMPDEST SWAP1 DUP2 PUSH1 0x20 SWAP2 SUB SLT PUSH3 0x97B JUMPI MLOAD PUSH1 0x1 PUSH1 0x1 PUSH1 0xA0 SHL SUB DUP2 AND DUP2 SUB PUSH3 0x97B JUMPI SWAP1 JUMP JUMPDEST PUSH1 0x8 SLOAD PUSH1 0x1 PUSH1 0x1 PUSH1 0xA0 SHL SUB SWAP2 SWAP1 DUP3 AND ISZERO PUSH3 0x6816 JUMPI PUSH2 0x1237 CHAINID EQ PUSH3 0x680E JUMPI PUSH3 0x6807 JUMPI POP PUSH2 0xDEAD SWAP1 JUMP JUMPDEST PUSH1 0x9 SLOAD AND SWAP1 JUMP JUMPDEST POP POP PUSH2 0xDEAD SWAP1 JUMP JUMPDEST POP PUSH1 0x9 SLOAD AND SWAP1 JUMP INVALID PUSH1 0x1F PUSH3 0x3464 CODESIZE DUP2 SWAP1 SUB SWAP2 DUP3 ADD PUSH1 0x1F NOT AND PUSH2 0x100 SWAP1 DUP2 ADD SWAP3 SWAP1 SWAP2 PUSH1 0x1 PUSH1 0x1 PUSH1 0x40 SHL SUB DUP5 GT DUP4 DUP6 LT OR PUSH3 0x470 JUMPI DUP2 PUSH2 0x160 SWAP3 DUP5 SWAP3 PUSH1 0x40 SWAP7 DUP8 MSTORE DUP4 CODECOPY DUP2 ADD SUB SLT PUSH3 0x46B JUMPI PUSH3 0x4E DUP2 PUSH3 0x486 JUMP JUMPDEST PUSH1 0x20 PUSH3 0x5D DUP2 DUP5 ADD PUSH3 0x486 JUMP JUMPDEST PUSH3 0x6A DUP6 DUP6 ADD PUSH3 0x486 JUMP JUMPDEST SWAP2 PUSH1 0x60 DUP6 ADD MLOAD PUSH1 0x80 DUP7 ADD MLOAD SWAP2 PUSH1 0xA0 DUP8 ADD MLOAD PUSH1 0xC0 DUP9 ADD MLOAD SWAP1 PUSH3 0x8F PUSH1 0xE0 DUP11 ADD PUSH3 0x486 JUMP JUMPDEST SWAP5 PUSH3 0x9F PUSH2 0x100 DUP12 ADD PUSH3 0x486 JUMP JUMPDEST SWAP5 PUSH2 0x140 PUSH3 0xB2 PUSH2 0x120 DUP14 ADD PUSH3 0x486 JUMP JUMPDEST SWAP12 ADD MLOAD SWAP8 PUSH3 0xFFFFFF DUP10 AND SWAP11 DUP12 DUP11 SUB PUSH3 0x46B JUMPI PUSH1 0x1 PUSH1 0x1 PUSH1 0xA0 SHL SUB SWAP11 DUP2 DUP13 AND ISZERO PUSH3 0x435 JUMPI DUP12 DUP4 AND ISZERO PUSH3 0x3FD JUMPI DUP12 AND SWAP9 DUP10 ISZERO PUSH3 0x3B8 JUMPI PUSH2 0x12C DUP5 GT PUSH3 0x384 JUMPI DUP5 ISZERO PUSH3 0x33F JUMPI DUP6 ISZERO PUSH3 0x2FA JUMPI DUP7 ISZERO PUSH3 0x2C3 JUMPI SWAP1 DUP12 DUP1 SWAP10 SWAP9 SWAP8 SWAP7 SWAP6 SWAP5 SWAP4 SWAP3 AND SWAP7 DUP8 PUSH3 0x25F JUMPI JUMPDEST POP PUSH1 0xA0 MSTORE PUSH1 0x80 MSTORE PUSH1 0x1 DUP1 PUSH1 0xA0 SHL SUB NOT SWAP8 DUP9 PUSH1 0x0 SLOAD AND OR PUSH1 0x0 SSTORE PUSH1 0x1 SSTORE PUSH1 0xC0 MSTORE PUSH1 0xE0 MSTORE PUSH1 0x4 SSTORE DUP4 PUSH1 0x5 SLOAD AND OR PUSH1 0x5 SSTORE AND SWAP1 PUSH1 0x6 SLOAD AND OR PUSH1 0x6 SSTORE PUSH1 0x7 SLOAD SWAP3 ISZERO PUSH1 0x0 EQ PUSH3 0x259 JUMPI POP PUSH2 0x2710 JUMPDEST PUSH3 0xFFFFFF PUSH1 0xA0 SHL PUSH1 0xA0 SWAP2 SWAP1 SWAP2 SHL AND SWAP3 AND PUSH1 0x1 PUSH1 0x1 PUSH1 0xB8 SHL SUB NOT SWAP2 SWAP1 SWAP2 AND OR OR PUSH1 0x7 SSTORE CALLVALUE PUSH1 0x2 SSTORE MLOAD PUSH2 0x2FC8 SWAP1 DUP2 PUSH3 0x49C DUP3 CODECOPY PUSH1 0x80 MLOAD DUP2 DUP2 DUP2 PUSH2 0x272 ADD MSTORE DUP2 DUP2 PUSH2 0x913 ADD MSTORE DUP2 DUP2 PUSH2 0x9DC ADD MSTORE DUP2 DUP2 PUSH2 0xB91 ADD MSTORE DUP2 DUP2 PUSH2 0xF04 ADD MSTORE DUP2 DUP2 PUSH2 0x1026 ADD MSTORE PUSH2 0x1188 ADD MSTORE PUSH1 0xA0 MLOAD DUP2 DUP2 DUP2 PUSH2 0x1E0 ADD MSTORE DUP2 DUP2 PUSH2 0x4CB ADD MSTORE DUP2 DUP2 PUSH2 0x719 ADD MSTORE DUP2 DUP2 PUSH2 0xA3B ADD MSTORE DUP2 DUP2 PUSH2 0x125E ADD MSTORE DUP2 DUP2 PUSH2 0x210B ADD MSTORE DUP2 DUP2 PUSH2 0x2688 ADD MSTORE DUP2 DUP2 PUSH2 0x2766 ADD MSTORE DUP2 DUP2 PUSH2 0x2C1F ADD MSTORE DUP2 DUP2 PUSH2 0x2DF1 ADD MSTORE PUSH2 0x2F17 ADD MSTORE PUSH1 0xC0 MLOAD DUP2 DUP2 DUP2 PUSH2 0xD0A ADD MSTORE DUP2 DUP2 PUSH2 0x1B28 ADD MSTORE DUP2 DUP2 PUSH2 0x253D ADD MSTORE PUSH2 0x25CB ADD MSTORE PUSH1 0xE0 MLOAD DUP2 DUP2 DUP2 PUSH2 0xE71 ADD MSTORE DUP2 DUP2 PUSH2 0x1AF5 ADD MSTORE DUP2 DUP2 PUSH2 0x2572 ADD MSTORE PUSH2 0x25FC ADD MSTORE RETURN JUMPDEST PUSH3 0x167 JUMP JUMPDEST SWAP1 SWAP2 SWAP3 SWAP4 SWAP5 SWAP6 SWAP7 SWAP8 SWAP9 DUP10 AND ISZERO PUSH3 0x280 JUMPI SWAP1 DUP12 SWAP9 SWAP8 SWAP7 SWAP6 SWAP5 SWAP4 SWAP3 SWAP2 PUSH3 0x11D JUMP JUMPDEST PUSH1 0x64 SWAP1 DUP16 MLOAD SWAP1 PUSH3 0x461BCD PUSH1 0xE5 SHL DUP3 MSTORE PUSH1 0x4 DUP3 ADD MSTORE PUSH1 0x15 PUSH1 0x24 DUP3 ADD MSTORE PUSH32 0x6C7020726563697069656E742072657175697265640000000000000000000000 PUSH1 0x44 DUP3 ADD MSTORE REVERT JUMPDEST POP DUP14 MLOAD PUSH3 0x461BCD PUSH1 0xE5 SHL DUP2 MSTORE PUSH1 0x4 DUP2 ADD DUP9 SWAP1 MSTORE PUSH1 0xF PUSH1 0x24 DUP3 ADD MSTORE PUSH15 0x1D185C99D95D081C995C5D5A5C9959 PUSH1 0x8A SHL PUSH1 0x44 DUP3 ADD MSTORE PUSH1 0x64 SWAP1 REVERT JUMPDEST POP DUP14 MLOAD PUSH3 0x461BCD PUSH1 0xE5 SHL DUP2 MSTORE PUSH1 0x4 DUP2 ADD DUP9 SWAP1 MSTORE PUSH1 0x16 PUSH1 0x24 DUP3 ADD MSTORE PUSH32 0x7669727475616C20746F6B656E20726571756972656400000000000000000000 PUSH1 0x44 DUP3 ADD MSTORE PUSH1 0x64 SWAP1 REVERT JUMPDEST POP DUP14 MLOAD PUSH3 0x461BCD PUSH1 0xE5 SHL DUP2 MSTORE PUSH1 0x4 DUP2 ADD DUP9 SWAP1 MSTORE PUSH1 0x14 PUSH1 0x24 DUP3 ADD MSTORE PUSH32 0x7669727475616C20657468207265717569726564000000000000000000000000 PUSH1 0x44 DUP3 ADD MSTORE PUSH1 0x64 SWAP1 REVERT JUMPDEST POP DUP14 MLOAD PUSH3 0x461BCD PUSH1 0xE5 SHL DUP2 MSTORE PUSH1 0x4 DUP2 ADD DUP9 SWAP1 MSTORE PUSH1 0xC PUSH1 0x24 DUP3 ADD MSTORE PUSH12 0xCCCACA40E8DEDE40D0D2CED PUSH1 0xA3 SHL PUSH1 0x44 DUP3 ADD MSTORE PUSH1 0x64 SWAP1 REVERT JUMPDEST POP DUP14 MLOAD PUSH3 0x461BCD PUSH1 0xE5 SHL DUP2 MSTORE PUSH1 0x4 DUP2 ADD DUP9 SWAP1 MSTORE PUSH1 0x16 PUSH1 0x24 DUP3 ADD MSTORE PUSH32 0x66656520726563697069656E7420726571756972656400000000000000000000 PUSH1 0x44 DUP3 ADD MSTORE PUSH1 0x64 SWAP1 REVERT JUMPDEST POP DUP14 MLOAD PUSH3 0x461BCD PUSH1 0xE5 SHL DUP2 MSTORE PUSH1 0x4 DUP2 ADD DUP9 SWAP1 MSTORE PUSH1 0x10 PUSH1 0x24 DUP3 ADD MSTORE PUSH16 0x199858DD1BDC9E481C995C5D5A5C9959 PUSH1 0x82 SHL PUSH1 0x44 DUP3 ADD MSTORE PUSH1 0x64 SWAP1 REVERT JUMPDEST POP DUP14 MLOAD PUSH3 0x461BCD PUSH1 0xE5 SHL DUP2 MSTORE PUSH1 0x4 DUP2 ADD DUP9 SWAP1 MSTORE PUSH1 0xE PUSH1 0x24 DUP3 ADD MSTORE PUSH14 0x1D1BDAD95B881C995C5D5A5C9959 PUSH1 0x92 SHL PUSH1 0x44 DUP3 ADD MSTORE PUSH1 0x64 SWAP1 REVERT JUMPDEST PUSH1 0x0 DUP1 REVERT JUMPDEST PUSH4 0x4E487B71 PUSH1 0xE0 SHL PUSH1 0x0 MSTORE PUSH1 0x41 PUSH1 0x4 MSTORE PUSH1 0x24 PUSH1 0x0 REVERT JUMPDEST MLOAD SWAP1 PUSH1 0x1 PUSH1 0x1 PUSH1 0xA0 SHL SUB DUP3 AND DUP3 SUB PUSH3 0x46B JUMPI JUMP INVALID PUSH1 0x80 PUSH1 0x40 MSTORE PUSH1 0x4 CALLDATASIZE LT ISZERO PUSH2 0x12 JUMPI PUSH1 0x0 DUP1 REVERT JUMPDEST PUSH1 0x0 CALLDATALOAD PUSH1 0xE0 SHR DUP1 PUSH4 0x1C587FA EQ PUSH2 0x1171 JUMPI DUP1 PUSH4 0x758D924 EQ PUSH2 0x1148 JUMPI DUP1 PUSH4 0xCC4574D EQ PUSH2 0x1122 JUMPI DUP1 PUSH4 0x1AD15BBC EQ PUSH2 0x10F9 JUMPI DUP1 PUSH4 0x24A9D853 EQ PUSH2 0x10DB JUMPI DUP1 PUSH4 0x25217724 EQ PUSH2 0x100F JUMPI DUP1 PUSH4 0x2760ECA1 EQ PUSH2 0xFF4 JUMPI DUP1 PUSH4 0x2A2C6972 EQ PUSH2 0xED8 JUMPI DUP1 PUSH4 0x2B852DE2 EQ PUSH2 0xEBA JUMPI DUP1 PUSH4 0x334041A6 EQ PUSH2 0xE94 JUMPI DUP1 PUSH4 0x343EE3B7 EQ PUSH2 0xE59 JUMPI DUP1 PUSH4 0x39406C50 EQ PUSH2 0xE30 JUMPI DUP1 PUSH4 0x398482D8 EQ PUSH2 0xE0D JUMPI DUP1 PUSH4 0x3DE1D8A4 EQ PUSH2 0xDE7 JUMPI DUP1 PUSH4 0x4329742D EQ PUSH2 0xD9D JUMPI DUP1 PUSH4 0x452E68DD EQ PUSH2 0xD74 JUMPI DUP1 PUSH4 0x46904840 EQ PUSH2 0xD4B JUMPI DUP1 PUSH4 0x4BEB394C EQ PUSH2 0xD2D JUMPI DUP1 PUSH4 0x52B86D2B EQ PUSH2 0xCF2 JUMPI DUP1 PUSH4 0x7F544E49 EQ PUSH2 0xCD4 JUMPI DUP1 PUSH4 0x8C575AA3 EQ PUSH2 0xB57 JUMPI DUP1 PUSH4 0x95564837 EQ PUSH2 0x9B8 JUMPI DUP1 PUSH4 0xA64190C4 EQ PUSH2 0x98E JUMPI DUP1 PUSH4 0xC1ABBE08 EQ PUSH2 0x968 JUMPI DUP1 PUSH4 0xC446795A EQ PUSH2 0x942 JUMPI DUP1 PUSH4 0xC45A0155 EQ PUSH2 0x8FD JUMPI DUP1 PUSH4 0xCBCB3171 EQ PUSH2 0x8DF JUMPI DUP1 PUSH4 0xD62CCB3F EQ PUSH2 0x8C1 JUMPI DUP1 PUSH4 0xD79875EB EQ PUSH2 0x63E JUMPI DUP1 PUSH4 0xD96A094A EQ PUSH2 0x3D5 JUMPI DUP1 PUSH4 0xE1A45218 EQ PUSH2 0x3B8 JUMPI DUP1 PUSH4 0xE3818EB8 EQ PUSH2 0x253 JUMPI DUP1 PUSH4 0xE7C2B772 EQ PUSH2 0x22D JUMPI DUP1 PUSH4 0xF95A02D0 EQ PUSH2 0x20F JUMPI DUP1 PUSH4 0xFC0C546A EQ PUSH2 0x1CA JUMPI PUSH4 0xFCCC2813 EQ PUSH2 0x1A8 JUMPI PUSH1 0x0 DUP1 REVERT JUMPDEST CALLVALUE PUSH2 0x1C5 JUMPI PUSH1 0x0 CALLDATASIZE PUSH1 0x3 NOT ADD SLT PUSH2 0x1C5 JUMPI PUSH1 0x20 PUSH1 0x40 MLOAD PUSH2 0xDEAD DUP2 MSTORE RETURN JUMPDEST PUSH1 0x0 DUP1 REVERT JUMPDEST CALLVALUE PUSH2 0x1C5 JUMPI PUSH1 0x0 CALLDATASIZE PUSH1 0x3 NOT ADD SLT PUSH2 0x1C5 JUMPI PUSH1 0x40 MLOAD PUSH32 0x0 PUSH1 0x1 PUSH1 0x1 PUSH1 0xA0 SHL SUB AND DUP2 MSTORE PUSH1 0x20 SWAP1 RETURN JUMPDEST CALLVALUE PUSH2 0x1C5 JUMPI PUSH1 0x0 CALLDATASIZE PUSH1 0x3 NOT ADD SLT PUSH2 0x1C5 JUMPI PUSH1 0x20 PUSH1 0x4 SLOAD PUSH1 0x40 MLOAD SWAP1 DUP2 MSTORE RETURN JUMPDEST CALLVALUE PUSH2 0x1C5 JUMPI PUSH1 0x0 CALLDATASIZE PUSH1 0x3 NOT ADD SLT PUSH2 0x1C5 JUMPI PUSH1 0x20 PUSH1 0xFF PUSH1 0x7 SLOAD PUSH1 0xC0 SHR AND PUSH1 0x40 MLOAD SWAP1 ISZERO ISZERO DUP2 MSTORE RETURN JUMPDEST CALLVALUE PUSH2 0x1C5 JUMPI PUSH1 0x0 CALLDATASIZE PUSH1 0x3 NOT ADD SLT PUSH2 0x1C5 JUMPI PUSH1 0x1 PUSH1 0x1 PUSH1 0xA0 SHL SUB PUSH2 0x299 CALLER PUSH32 0x0 DUP4 AND EQ PUSH2 0x1893 JUMP JUMPDEST PUSH1 0x7 SWAP1 PUSH2 0x389 PUSH32 0x5CFC9EA0E95E86463D8DACD6C53993376A8AFAB5437E80A8A98D57D7A8B0F234 DUP4 SLOAD SWAP3 PUSH2 0x2D3 PUSH1 0xFF DUP6 PUSH1 0xE0 SHR AND ISZERO PUSH2 0x18CE JUMP JUMPDEST PUSH1 0xFF PUSH1 0xE0 SHL NOT SWAP4 DUP5 AND PUSH1 0x1 PUSH1 0xE0 SHL OR DUP1 DUP7 SSTORE PUSH2 0x314 SWAP1 PUSH1 0xFF SWAP1 PUSH2 0x2FB PUSH1 0xB8 DUP3 SWAP1 SHR DUP4 AND PUSH2 0x1907 JUMP JUMPDEST PUSH2 0x30A DUP3 DUP3 PUSH1 0xC0 SHR AND ISZERO PUSH2 0x1945 JUMP JUMPDEST PUSH1 0xC8 SHR AND ISZERO PUSH2 0x1985 JUMP JUMPDEST PUSH2 0x321 PUSH1 0x2 SLOAD ISZERO ISZERO PUSH2 0x19C2 JUMP JUMPDEST PUSH2 0x330 DUP2 PUSH1 0x5 SLOAD AND ISZERO ISZERO PUSH2 0x1F27 JUMP JUMPDEST PUSH2 0x339 ADDRESS PUSH2 0x273D JUMP JUMPDEST POP DUP9 SLOAD PUSH3 0xFFFFFF PUSH1 0xC8 SHL NOT AND PUSH1 0x1 PUSH1 0xC8 SHL OR DUP10 SSTORE PUSH1 0x8 DUP1 SLOAD PUSH1 0x1 PUSH1 0x1 PUSH1 0xA0 SHL SUB NOT AND SWAP2 SWAP1 SWAP6 AND SWAP1 DUP2 OR SWAP1 SWAP5 SSTORE PUSH1 0x40 DUP1 MLOAD SWAP4 DUP5 MSTORE PUSH1 0x20 DUP5 ADD SWAP3 SWAP1 SWAP3 MSTORE SWAP1 DUP3 ADD MSTORE TIMESTAMP PUSH1 0x60 DUP3 ADD MSTORE SWAP1 SWAP3 DUP2 SWAP1 PUSH1 0x80 DUP3 ADD SWAP1 JUMP JUMPDEST SUB SWAP1 LOG2 PUSH2 0x394 PUSH2 0x2B46 JUMP JUMPDEST SWAP1 POP PUSH1 0x4 SLOAD DUP2 LT ISZERO PUSH2 0x3A9 JUMPI JUMPDEST POP DUP2 SLOAD AND SWAP1 SSTORE STOP JUMPDEST PUSH2 0x3B2 SWAP1 PUSH2 0x2237 JUMP JUMPDEST DUP3 PUSH2 0x3A1 JUMP JUMPDEST CALLVALUE PUSH2 0x1C5 JUMPI PUSH1 0x0 CALLDATASIZE PUSH1 0x3 NOT ADD SLT PUSH2 0x1C5 JUMPI PUSH1 0x20 PUSH1 0x40 MLOAD PUSH2 0x2710 DUP2 MSTORE RETURN JUMPDEST PUSH1 0x20 DUP1 PUSH1 0x3 NOT CALLDATASIZE ADD SLT PUSH2 0x1C5 JUMPI PUSH1 0x7 SLOAD PUSH2 0x3F5 PUSH1 0xFF DUP3 PUSH1 0xE0 SHR AND ISZERO PUSH2 0x18CE JUMP JUMPDEST PUSH1 0xFF PUSH1 0xE0 SHL NOT SWAP1 DUP2 AND PUSH1 0x1 PUSH1 0xE0 SHL OR PUSH1 0x7 DUP2 SWAP1 SSTORE PUSH2 0x42E SWAP1 PUSH1 0xFF SWAP1 PUSH2 0x41F PUSH1 0xB8 DUP3 SWAP1 SHR DUP4 AND PUSH2 0x1907 JUMP JUMPDEST PUSH2 0x30A DUP3 DUP3 PUSH1 0xC0 SHR AND ISZERO PUSH2 0x1DA3 JUMP JUMPDEST CALLVALUE ISZERO PUSH2 0x60A JUMPI PUSH2 0x2710 PUSH2 0x443 PUSH1 0x1 SLOAD CALLVALUE PUSH2 0x19FF JUMP JUMPDEST DIV SWAP1 PUSH2 0x44F DUP3 CALLVALUE PUSH2 0x1C43 JUMP JUMPDEST SWAP2 PUSH2 0x459 DUP4 PUSH2 0x252F JUMP JUMPDEST SWAP3 PUSH2 0x465 DUP5 ISZERO ISZERO PUSH2 0x1DDB JUMP JUMPDEST PUSH2 0x473 PUSH1 0x4 CALLDATALOAD DUP6 LT ISZERO PUSH2 0x1E1D JUMP JUMPDEST PUSH1 0x3 SLOAD SWAP1 DUP2 DUP6 GT PUSH2 0x5CC JUMPI PUSH2 0x497 SWAP2 PUSH2 0x48F DUP7 SWAP3 PUSH1 0x2 SLOAD PUSH2 0x1AC3 JUMP JUMPDEST PUSH1 0x2 SSTORE PUSH2 0x1C43 JUMP JUMPDEST PUSH1 0x3 SSTORE DUP1 PUSH2 0x5A4 JUMPI JUMPDEST PUSH1 0x40 MLOAD PUSH4 0xA9059CBB PUSH1 0xE0 SHL DUP2 MSTORE CALLER PUSH1 0x4 DUP3 ADD MSTORE PUSH1 0x24 DUP2 ADD DUP5 SWAP1 MSTORE DUP5 DUP2 PUSH1 0x44 DUP2 PUSH1 0x0 PUSH1 0x1 PUSH1 0x1 PUSH1 0xA0 SHL SUB PUSH32 0x0 AND GAS CALL DUP1 ISZERO PUSH2 0x598 JUMPI PUSH1 0x0 SWAP1 PUSH2 0x562 JUMPI JUMPDEST PUSH2 0x505 SWAP2 POP PUSH2 0x1E61 JUMP JUMPDEST PUSH32 0xBEAE048C6D270D9469F86CF6E8FEDDA3C60AD770F16C24C9FC131C8E9A09101D PUSH1 0x40 MLOAD DUP1 PUSH2 0x548 DUP7 CALLER SWAP6 CALLVALUE DUP5 PUSH1 0x40 SWAP2 SWAP5 SWAP4 SWAP3 PUSH1 0x60 DUP3 ADD SWAP6 DUP3 MSTORE PUSH1 0x20 DUP3 ADD MSTORE ADD MSTORE JUMP JUMPDEST SUB SWAP1 LOG2 PUSH2 0x553 PUSH2 0x262C JUMP JUMPDEST PUSH1 0x7 SLOAD AND PUSH1 0x7 SSTORE PUSH1 0x40 MLOAD SWAP1 DUP2 MSTORE RETURN JUMPDEST POP DUP5 DUP2 DUP2 RETURNDATASIZE DUP4 GT PUSH2 0x591 JUMPI JUMPDEST PUSH2 0x578 DUP2 DUP4 PUSH2 0x1D0D JUMP JUMPDEST DUP2 ADD SUB SLT PUSH2 0x1C5 JUMPI PUSH2 0x58C PUSH2 0x505 SWAP2 PUSH2 0x1E54 JUMP JUMPDEST PUSH2 0x4FB JUMP JUMPDEST POP RETURNDATASIZE PUSH2 0x56E JUMP JUMPDEST PUSH1 0x40 MLOAD RETURNDATASIZE PUSH1 0x0 DUP3 RETURNDATACOPY RETURNDATASIZE SWAP1 REVERT JUMPDEST PUSH2 0x5C7 PUSH1 0x0 DUP1 DUP1 DUP1 DUP6 PUSH1 0x1 DUP1 PUSH1 0xA0 SHL SUB DUP3 SLOAD AND GAS CALL PUSH2 0x5C1 PUSH2 0x1EA5 JUMP JUMPDEST POP PUSH2 0x1EE5 JUMP JUMPDEST PUSH2 0x4A0 JUMP JUMPDEST PUSH1 0x40 MLOAD PUSH3 0x461BCD PUSH1 0xE5 SHL DUP2 MSTORE PUSH1 0x4 DUP2 ADD DUP8 SWAP1 MSTORE PUSH1 0x16 PUSH1 0x24 DUP3 ADD MSTORE PUSH22 0x696E73756666696369656E74206C6971756964697479 PUSH1 0x50 SHL PUSH1 0x44 DUP3 ADD MSTORE PUSH1 0x64 SWAP1 REVERT JUMPDEST PUSH1 0x40 MLOAD PUSH3 0x461BCD PUSH1 0xE5 SHL DUP2 MSTORE PUSH1 0x4 DUP2 ADD DUP4 SWAP1 MSTORE PUSH1 0xC PUSH1 0x24 DUP3 ADD MSTORE PUSH12 0x195D1A081C995C5D5A5C9959 PUSH1 0xA2 SHL PUSH1 0x44 DUP3 ADD MSTORE PUSH1 0x64 SWAP1 REVERT JUMPDEST CALLVALUE PUSH2 0x1C5 JUMPI PUSH1 0x40 CALLDATASIZE PUSH1 0x3 NOT ADD SLT PUSH2 0x1C5 JUMPI PUSH1 0x4 CALLDATALOAD PUSH1 0x7 SLOAD SWAP1 PUSH2 0x666 PUSH1 0xFF DUP4 PUSH1 0xE0 SHR AND ISZERO PUSH2 0x18CE JUMP JUMPDEST PUSH1 0xFF PUSH1 0xE0 SHL NOT SWAP2 DUP3 AND PUSH1 0x1 PUSH1 0xE0 SHL OR PUSH1 0x7 DUP2 SWAP1 SSTORE PUSH2 0x690 SWAP1 PUSH1 0xFF SWAP1 PUSH2 0x41F PUSH1 0xB8 DUP3 SWAP1 SHR DUP4 AND PUSH2 0x1907 JUMP JUMPDEST PUSH2 0x69B DUP2 ISZERO ISZERO PUSH2 0x1CC9 JUMP JUMPDEST PUSH2 0x6A4 DUP2 PUSH2 0x25BF JUMP JUMPDEST SWAP2 PUSH2 0x6B0 DUP4 ISZERO ISZERO PUSH2 0x1DDB JUMP JUMPDEST PUSH1 0x2 SLOAD DUP4 GT PUSH2 0x87C JUMPI PUSH2 0x2710 PUSH2 0x6C8 PUSH1 0x1 SLOAD DUP6 PUSH2 0x19FF JUMP JUMPDEST DIV SWAP2 PUSH2 0x6D4 DUP4 DUP6 PUSH2 0x1C43 JUMP JUMPDEST SWAP3 PUSH2 0x6E3 PUSH1 0x24 CALLDATALOAD DUP6 LT ISZERO PUSH2 0x1E1D JUMP JUMPDEST PUSH1 0x40 MLOAD PUSH4 0x23B872DD PUSH1 0xE0 SHL DUP2 MSTORE CALLER PUSH1 0x4 DUP3 ADD MSTORE ADDRESS PUSH1 0x24 DUP3 ADD MSTORE PUSH1 0x44 DUP2 ADD DUP4 SWAP1 MSTORE PUSH1 0x20 SWAP6 PUSH1 0x1 PUSH1 0x1 PUSH1 0xA0 SHL SUB SWAP2 SWAP1 DUP8 DUP3 PUSH1 0x64 DUP2 PUSH1 0x0 PUSH32 0x0 DUP9 AND GAS CALL SWAP2 DUP3 ISZERO PUSH2 0x598 JUMPI PUSH1 0x0 SWAP3 PUSH2 0x840 JUMPI JUMPDEST POP PUSH2 0x758 PUSH2 0x76F SWAP3 PUSH2 0x1E61 JUMP JUMPDEST PUSH2 0x764 DUP6 PUSH1 0x3 SLOAD PUSH2 0x1AC3 JUMP JUMPDEST PUSH1 0x3 SSTORE PUSH1 0x2 SLOAD PUSH2 0x1C43 JUMP JUMPDEST PUSH1 0x2 SSTORE PUSH1 0x0 DUP1 DUP1 DUP1 DUP9 CALLER GAS CALL PUSH2 0x783 PUSH2 0x1EA5 JUMP JUMPDEST POP ISZERO PUSH2 0x805 JUMPI DUP2 PUSH2 0x7D5 SWAP2 DUP2 PUSH32 0x846C37EEF631E0943682D87352EC117C20008EB7F425C9B85AC011A6D4774CC0 SWAP5 PUSH2 0x7E7 JUMPI JUMPDEST POP POP PUSH1 0x40 DUP1 MLOAD SWAP5 DUP6 MSTORE PUSH1 0x20 DUP6 ADD DUP8 SWAP1 MSTORE DUP5 ADD MSTORE CALLER SWAP3 SWAP1 DUP2 SWAP1 PUSH1 0x60 DUP3 ADD SWAP1 JUMP JUMPDEST SUB SWAP1 LOG2 PUSH1 0x7 SLOAD AND PUSH1 0x7 SSTORE PUSH1 0x40 MLOAD SWAP1 DUP2 MSTORE RETURN JUMPDEST PUSH1 0x0 DUP1 DUP1 DUP1 SWAP4 PUSH2 0x7FE SWAP6 DUP3 SLOAD AND GAS CALL PUSH2 0x5C1 PUSH2 0x1EA5 JUMP JUMPDEST DUP8 DUP2 PUSH2 0x7B6 JUMP JUMPDEST PUSH1 0x40 MLOAD PUSH3 0x461BCD PUSH1 0xE5 SHL DUP2 MSTORE PUSH1 0x4 DUP2 ADD DUP8 SWAP1 MSTORE PUSH1 0x13 PUSH1 0x24 DUP3 ADD MSTORE PUSH19 0x195D1A081D1C985B9CD9995C8819985A5B1959 PUSH1 0x6A SHL PUSH1 0x44 DUP3 ADD MSTORE PUSH1 0x64 SWAP1 REVERT JUMPDEST SWAP2 POP DUP8 DUP3 DUP2 RETURNDATASIZE DUP4 GT PUSH2 0x875 JUMPI JUMPDEST PUSH2 0x857 DUP2 DUP4 PUSH2 0x1D0D JUMP JUMPDEST DUP2 ADD SUB SLT PUSH2 0x1C5 JUMPI PUSH2 0x758 PUSH2 0x86E PUSH2 0x76F SWAP4 PUSH2 0x1E54 JUMP JUMPDEST SWAP3 POP PUSH2 0x74B JUMP JUMPDEST POP RETURNDATASIZE PUSH2 0x84D JUMP JUMPDEST PUSH1 0x40 MLOAD PUSH3 0x461BCD PUSH1 0xE5 SHL DUP2 MSTORE PUSH1 0x20 PUSH1 0x4 DUP3 ADD MSTORE PUSH1 0x18 PUSH1 0x24 DUP3 ADD MSTORE PUSH32 0x696E73756666696369656E742065746820726573657276650000000000000000 PUSH1 0x44 DUP3 ADD MSTORE PUSH1 0x64 SWAP1 REVERT JUMPDEST CALLVALUE PUSH2 0x1C5 JUMPI PUSH1 0x0 CALLDATASIZE PUSH1 0x3 NOT ADD SLT PUSH2 0x1C5 JUMPI PUSH1 0x20 PUSH1 0x2 SLOAD PUSH1 0x40 MLOAD SWAP1 DUP2 MSTORE RETURN JUMPDEST CALLVALUE PUSH2 0x1C5 JUMPI PUSH1 0x0 CALLDATASIZE PUSH1 0x3 NOT ADD SLT PUSH2 0x1C5 JUMPI PUSH1 0x20 PUSH1 0x3 SLOAD PUSH1 0x40 MLOAD SWAP1 DUP2 MSTORE RETURN JUMPDEST CALLVALUE PUSH2 0x1C5 JUMPI PUSH1 0x0 CALLDATASIZE PUSH1 0x3 NOT ADD SLT PUSH2 0x1C5 JUMPI PUSH1 0x40 MLOAD PUSH32 0x0 PUSH1 0x1 PUSH1 0x1 PUSH1 0xA0 SHL SUB AND DUP2 MSTORE PUSH1 0x20 SWAP1 RETURN JUMPDEST CALLVALUE PUSH2 0x1C5 JUMPI PUSH1 0x0 CALLDATASIZE PUSH1 0x3 NOT ADD SLT PUSH2 0x1C5 JUMPI PUSH1 0x20 PUSH1 0xFF PUSH1 0x7 SLOAD PUSH1 0xC8 SHR AND PUSH1 0x40 MLOAD SWAP1 ISZERO ISZERO DUP2 MSTORE RETURN JUMPDEST CALLVALUE PUSH2 0x1C5 JUMPI PUSH1 0x0 CALLDATASIZE PUSH1 0x3 NOT ADD SLT PUSH2 0x1C5 JUMPI PUSH1 0x20 PUSH1 0xFF PUSH1 0x7 SLOAD PUSH1 0xD8 SHR AND PUSH1 0x40 MLOAD SWAP1 ISZERO ISZERO DUP2 MSTORE RETURN JUMPDEST CALLVALUE PUSH2 0x1C5 JUMPI PUSH1 0x20 CALLDATASIZE PUSH1 0x3 NOT ADD SLT PUSH2 0x1C5 JUMPI PUSH1 0x40 PUSH2 0x9AC PUSH1 0x4 CALLDATALOAD PUSH2 0x1D2F JUMP JUMPDEST DUP3 MLOAD SWAP2 DUP3 MSTORE PUSH1 0x20 DUP3 ADD MSTORE RETURN JUMPDEST CALLVALUE PUSH2 0x1C5 JUMPI PUSH1 0x20 DUP1 PUSH1 0x3 NOT CALLDATASIZE ADD SLT PUSH2 0x1C5 JUMPI PUSH1 0x1 PUSH1 0x1 PUSH1 0xA0 SHL SUB SWAP1 PUSH1 0x4 CALLDATALOAD PUSH2 0xA03 CALLER PUSH32 0x0 DUP6 AND EQ PUSH2 0x1893 JUMP JUMPDEST PUSH1 0x7 SLOAD SWAP3 PUSH1 0xFF DUP5 PUSH1 0xB8 SHR AND PUSH2 0xB21 JUMPI DUP3 PUSH1 0x24 SWAP2 PUSH2 0xA21 DUP5 ISZERO ISZERO PUSH2 0x1CC9 JUMP JUMPDEST PUSH1 0x40 MLOAD PUSH4 0x70A08231 PUSH1 0xE0 SHL DUP2 MSTORE ADDRESS PUSH1 0x4 DUP3 ADD MSTORE SWAP3 DUP4 SWAP2 DUP3 SWAP1 PUSH32 0x0 AND GAS STATICCALL DUP1 ISZERO PUSH2 0x598 JUMPI DUP3 SWAP2 PUSH1 0x0 SWAP2 PUSH2 0xAF0 JUMPI JUMPDEST POP LT PUSH2 0xAB5 JUMPI PUSH1 0xFF PUSH1 0xB8 SHL NOT SWAP1 SWAP3 AND PUSH1 0x1 PUSH1 0xB8 SHL OR PUSH1 0x7 SSTORE PUSH1 0x3 DUP3 SWAP1 SSTORE PUSH1 0x40 MLOAD SWAP2 DUP3 MSTORE PUSH32 0xA71ED34FF06AF8D6865A8F541AAE52D72FA89F0E5EE15F01D48FA6C62C856914 SWAP2 LOG1 STOP JUMPDEST PUSH1 0x40 MLOAD PUSH3 0x461BCD PUSH1 0xE5 SHL DUP2 MSTORE PUSH1 0x4 DUP2 ADD DUP4 SWAP1 MSTORE PUSH1 0x13 PUSH1 0x24 DUP3 ADD MSTORE PUSH19 0x696E73756666696369656E7420746F6B656E73 PUSH1 0x68 SHL PUSH1 0x44 DUP3 ADD MSTORE PUSH1 0x64 SWAP1 REVERT JUMPDEST DUP1 SWAP3 POP DUP5 DUP1 SWAP3 POP RETURNDATASIZE DUP4 GT PUSH2 0xB1A JUMPI JUMPDEST PUSH2 0xB09 DUP2 DUP4 PUSH2 0x1D0D JUMP JUMPDEST DUP2 ADD SUB SLT PUSH2 0x1C5 JUMPI DUP2 SWAP1 MLOAD DUP6 PUSH2 0xA6D JUMP JUMPDEST POP RETURNDATASIZE PUSH2 0xAFF JUMP JUMPDEST PUSH1 0x40 MLOAD PUSH3 0x461BCD PUSH1 0xE5 SHL DUP2 MSTORE PUSH1 0x4 DUP2 ADD DUP5 SWAP1 MSTORE PUSH1 0xE PUSH1 0x24 DUP3 ADD MSTORE PUSH14 0x185B1C9958591E481CD959591959 PUSH1 0x92 SHL PUSH1 0x44 DUP3 ADD MSTORE PUSH1 0x64 SWAP1 REVERT JUMPDEST CALLVALUE PUSH2 0x1C5 JUMPI PUSH1 0x60 CALLDATASIZE PUSH1 0x3 NOT ADD SLT PUSH2 0x1C5 JUMPI PUSH2 0xB70 PUSH2 0x187D JUMP JUMPDEST PUSH1 0x24 CALLDATALOAD PUSH1 0x1 PUSH1 0x1 PUSH1 0xA0 SHL SUB DUP2 DUP2 AND SWAP3 SWAP1 DUP4 DUP4 SUB PUSH2 0x1C5 JUMPI PUSH1 0x44 CALLDATALOAD SWAP1 PUSH2 0xBB8 DUP2 PUSH32 0x0 AND CALLER EQ PUSH2 0x1893 JUMP JUMPDEST PUSH2 0xBCA PUSH1 0xFF PUSH1 0x7 SLOAD PUSH1 0xC0 SHR AND ISZERO PUSH2 0x1945 JUMP JUMPDEST DUP2 ISZERO PUSH2 0xC9D JUMPI DUP3 AND DUP1 PUSH2 0xC53 JUMPI JUMPDEST SWAP1 PUSH32 0xBCDC4BFF84F936019028A7BCBEF6B449550D6334606377B822720E57E94276C4 SWAP5 PUSH2 0xC4E SWAP3 PUSH12 0xFFFFFFFFFFFFFFFFFFFFFFFF PUSH1 0xA0 SHL SWAP1 DUP2 PUSH1 0x5 SLOAD AND OR PUSH1 0x5 SSTORE PUSH1 0x6 SLOAD AND OR PUSH1 0x6 SSTORE DUP1 PUSH1 0x4 SSTORE PUSH1 0x40 MLOAD SWAP4 DUP5 SWAP4 DUP5 PUSH1 0x40 SWAP2 SWAP5 SWAP4 SWAP3 SWAP5 PUSH1 0x60 DUP3 ADD SWAP6 PUSH1 0x1 DUP1 PUSH1 0xA0 SHL SUB DUP1 SWAP3 AND DUP4 MSTORE AND PUSH1 0x20 DUP3 ADD MSTORE ADD MSTORE JUMP JUMPDEST SUB SWAP1 LOG1 STOP JUMPDEST SWAP1 DUP5 ISZERO PUSH2 0xC60 JUMPI SWAP1 PUSH2 0xBD8 JUMP JUMPDEST PUSH1 0x40 MLOAD PUSH3 0x461BCD PUSH1 0xE5 SHL DUP2 MSTORE PUSH1 0x20 PUSH1 0x4 DUP3 ADD MSTORE PUSH1 0x15 PUSH1 0x24 DUP3 ADD MSTORE PUSH21 0x1B1C081C9958DA5C1A595B9D081C995C5D5A5C9959 PUSH1 0x5A SHL PUSH1 0x44 DUP3 ADD MSTORE PUSH1 0x64 SWAP1 REVERT JUMPDEST PUSH1 0x40 MLOAD PUSH3 0x461BCD PUSH1 0xE5 SHL DUP2 MSTORE PUSH1 0x20 PUSH1 0x4 DUP3 ADD MSTORE PUSH1 0xF PUSH1 0x24 DUP3 ADD MSTORE PUSH15 0x1D185C99D95D081C995C5D5A5C9959 PUSH1 0x8A SHL PUSH1 0x44 DUP3 ADD MSTORE PUSH1 0x64 SWAP1 REVERT JUMPDEST CALLVALUE PUSH2 0x1C5 JUMPI PUSH1 0x0 CALLDATASIZE PUSH1 0x3 NOT ADD SLT PUSH2 0x1C5 JUMPI PUSH1 0x20 PUSH1 0xA SLOAD PUSH1 0x40 MLOAD SWAP1 DUP2 MSTORE RETURN JUMPDEST CALLVALUE PUSH2 0x1C5 JUMPI PUSH1 0x0 CALLDATASIZE PUSH1 0x3 NOT ADD SLT PUSH2 0x1C5 JUMPI PUSH1 0x20 PUSH1 0x40 MLOAD PUSH32 0x0 DUP2 MSTORE RETURN JUMPDEST CALLVALUE PUSH2 0x1C5 JUMPI PUSH1 0x20 CALLDATASIZE PUSH1 0x3 NOT ADD SLT PUSH2 0x1C5 JUMPI PUSH1 0x40 PUSH2 0x9AC PUSH1 0x4 CALLDATALOAD PUSH2 0x1C50 JUMP JUMPDEST CALLVALUE PUSH2 0x1C5 JUMPI PUSH1 0x0 CALLDATASIZE PUSH1 0x3 NOT ADD SLT PUSH2 0x1C5 JUMPI PUSH1 0x0 SLOAD PUSH1 0x40 MLOAD PUSH1 0x1 PUSH1 0x1 PUSH1 0xA0 SHL SUB SWAP1 SWAP2 AND DUP2 MSTORE PUSH1 0x20 SWAP1 RETURN JUMPDEST CALLVALUE PUSH2 0x1C5 JUMPI PUSH1 0x0 CALLDATASIZE PUSH1 0x3 NOT ADD SLT PUSH2 0x1C5 JUMPI PUSH1 0x6 SLOAD PUSH1 0x40 MLOAD PUSH1 0x1 PUSH1 0x1 PUSH1 0xA0 SHL SUB SWAP1 SWAP2 AND DUP2 MSTORE PUSH1 0x20 SWAP1 RETURN JUMPDEST CALLVALUE PUSH2 0x1C5 JUMPI PUSH1 0x0 CALLDATASIZE PUSH1 0x3 NOT ADD SLT PUSH2 0x1C5 JUMPI PUSH1 0x7 SLOAD PUSH2 0xDC1 PUSH1 0xFF DUP3 PUSH1 0xE0 SHR AND ISZERO PUSH2 0x18CE JUMP JUMPDEST PUSH1 0xFF PUSH1 0xE0 SHL NOT SWAP1 DUP2 AND PUSH1 0x1 PUSH1 0xE0 SHL OR PUSH1 0x7 SSTORE PUSH2 0xDDB PUSH2 0x1BDF JUMP JUMPDEST PUSH1 0x7 SLOAD AND PUSH1 0x7 SSTORE PUSH1 0x0 DUP1 RETURN JUMPDEST CALLVALUE PUSH2 0x1C5 JUMPI PUSH1 0x0 CALLDATASIZE PUSH1 0x3 NOT ADD SLT PUSH2 0x1C5 JUMPI PUSH1 0x20 PUSH3 0xFFFFFF PUSH1 0x7 SLOAD PUSH1 0xA0 SHR AND PUSH1 0x40 MLOAD SWAP1 DUP2 MSTORE RETURN JUMPDEST CALLVALUE PUSH2 0x1C5 JUMPI PUSH1 0x0 CALLDATASIZE PUSH1 0x3 NOT ADD SLT PUSH2 0x1C5 JUMPI PUSH1 0x20 PUSH2 0xE28 PUSH2 0x1AD0 JUMP JUMPDEST PUSH1 0x40 MLOAD SWAP1 DUP2 MSTORE RETURN JUMPDEST CALLVALUE PUSH2 0x1C5 JUMPI PUSH1 0x0 CALLDATASIZE PUSH1 0x3 NOT ADD SLT PUSH2 0x1C5 JUMPI PUSH1 0x7 SLOAD PUSH1 0x40 MLOAD PUSH1 0x1 PUSH1 0x1 PUSH1 0xA0 SHL SUB SWAP1 SWAP2 AND DUP2 MSTORE PUSH1 0x20 SWAP1 RETURN JUMPDEST CALLVALUE PUSH2 0x1C5 JUMPI PUSH1 0x0 CALLDATASIZE PUSH1 0x3 NOT ADD SLT PUSH2 0x1C5 JUMPI PUSH1 0x20 PUSH1 0x40 MLOAD PUSH32 0x0 DUP2 MSTORE RETURN JUMPDEST CALLVALUE PUSH2 0x1C5 JUMPI PUSH1 0x0 CALLDATASIZE PUSH1 0x3 NOT ADD SLT PUSH2 0x1C5 JUMPI PUSH1 0x20 PUSH1 0xFF PUSH1 0x7 SLOAD PUSH1 0xB8 SHR AND PUSH1 0x40 MLOAD SWAP1 ISZERO ISZERO DUP2 MSTORE RETURN JUMPDEST CALLVALUE PUSH2 0x1C5 JUMPI PUSH1 0x0 CALLDATASIZE PUSH1 0x3 NOT ADD SLT PUSH2 0x1C5 JUMPI PUSH1 0x20 PUSH1 0x9 SLOAD PUSH1 0x40 MLOAD SWAP1 DUP2 MSTORE RETURN JUMPDEST CALLVALUE PUSH2 0x1C5 JUMPI PUSH1 0x40 CALLDATASIZE PUSH1 0x3 NOT ADD SLT PUSH2 0x1C5 JUMPI PUSH2 0xEF1 PUSH2 0x187D JUMP JUMPDEST PUSH1 0x24 CALLDATALOAD SWAP1 PUSH1 0x1 PUSH1 0x1 PUSH1 0xA0 SHL SUB SWAP1 PUSH2 0xF2B CALLER PUSH32 0x0 DUP5 AND EQ PUSH2 0x1893 JUMP JUMPDEST AND SWAP1 DUP2 ISZERO PUSH2 0xFBA JUMPI PUSH2 0x12C DUP2 GT PUSH2 0xF86 JUMPI PUSH1 0x20 PUSH32 0xE42708D93B95810922305119A3271CA42233DA9EBE1E1E503F0E887817A32C7A SWAP2 DUP4 PUSH12 0xFFFFFFFFFFFFFFFFFFFFFFFF PUSH1 0xA0 SHL PUSH1 0x0 SLOAD AND OR PUSH1 0x0 SSTORE DUP1 PUSH1 0x1 SSTORE PUSH1 0x40 MLOAD SWAP1 DUP2 MSTORE LOG2 STOP JUMPDEST PUSH1 0x40 MLOAD PUSH3 0x461BCD PUSH1 0xE5 SHL DUP2 MSTORE PUSH1 0x20 PUSH1 0x4 DUP3 ADD MSTORE PUSH1 0xC PUSH1 0x24 DUP3 ADD MSTORE PUSH12 0xCCCACA40E8DEDE40D0D2CED PUSH1 0xA3 SHL PUSH1 0x44 DUP3 ADD MSTORE PUSH1 0x64 SWAP1 REVERT JUMPDEST PUSH1 0x40 MLOAD PUSH3 0x461BCD PUSH1 0xE5 SHL DUP2 MSTORE PUSH1 0x20 PUSH1 0x4 DUP3 ADD MSTORE PUSH1 0x12 PUSH1 0x24 DUP3 ADD MSTORE PUSH18 0x1C9958DA5C1A595B9D081C995C5D5A5C9959 PUSH1 0x72 SHL PUSH1 0x44 DUP3 ADD MSTORE PUSH1 0x64 SWAP1 REVERT JUMPDEST CALLVALUE PUSH2 0x1C5 JUMPI PUSH1 0x0 CALLDATASIZE PUSH1 0x3 NOT ADD SLT PUSH2 0x1C5 JUMPI PUSH1 0x20 PUSH2 0xE28 PUSH2 0x1A32 JUMP JUMPDEST CALLVALUE PUSH2 0x1C5 JUMPI PUSH1 0x0 CALLDATASIZE PUSH1 0x3 NOT ADD SLT PUSH2 0x1C5 JUMPI PUSH2 0x1054 CALLER PUSH32 0x0 PUSH1 0x1 PUSH1 0x1 PUSH1 0xA0 SHL SUB AND EQ PUSH2 0x1893 JUMP JUMPDEST PUSH1 0x7 SLOAD PUSH2 0x1067 PUSH1 0xFF DUP3 PUSH1 0xE0 SHR AND ISZERO PUSH2 0x18CE JUMP JUMPDEST PUSH1 0xFF PUSH1 0xE0 SHL NOT SWAP1 DUP2 AND PUSH1 0x1 PUSH1 0xE0 SHL OR PUSH1 0x7 DUP2 SWAP1 SSTORE PUSH2 0x1091 SWAP1 PUSH1 0xFF SWAP1 PUSH2 0x2FB PUSH1 0xB8 DUP3 SWAP1 SHR DUP4 AND PUSH2 0x1907 JUMP JUMPDEST PUSH1 0x2 SLOAD PUSH2 0x109F DUP2 ISZERO ISZERO PUSH2 0x19C2 JUMP JUMPDEST PUSH1 0x3 SLOAD PUSH1 0x40 MLOAD SWAP2 DUP3 MSTORE PUSH1 0x20 DUP3 ADD MSTORE PUSH32 0x5D6DC6B9835F5448AE2351719684F59735B30DFA8E62677CC6F9E98BD4C08F7F PUSH1 0x40 CALLER SWAP3 LOG2 PUSH2 0xDDB PUSH2 0x1F87 JUMP JUMPDEST CALLVALUE PUSH2 0x1C5 JUMPI PUSH1 0x0 CALLDATASIZE PUSH1 0x3 NOT ADD SLT PUSH2 0x1C5 JUMPI PUSH1 0x20 PUSH1 0x1 SLOAD PUSH1 0x40 MLOAD SWAP1 DUP2 MSTORE RETURN JUMPDEST CALLVALUE PUSH2 0x1C5 JUMPI PUSH1 0x0 CALLDATASIZE PUSH1 0x3 NOT ADD SLT PUSH2 0x1C5 JUMPI PUSH1 0x8 SLOAD PUSH1 0x40 MLOAD PUSH1 0x1 PUSH1 0x1 PUSH1 0xA0 SHL SUB SWAP1 SWAP2 AND DUP2 MSTORE PUSH1 0x20 SWAP1 RETURN JUMPDEST CALLVALUE PUSH2 0x1C5 JUMPI PUSH1 0x0 CALLDATASIZE PUSH1 0x3 NOT ADD SLT PUSH2 0x1C5 JUMPI PUSH1 0x20 PUSH1 0xFF PUSH1 0x7 SLOAD PUSH1 0xD0 SHR AND PUSH1 0x40 MLOAD SWAP1 ISZERO ISZERO DUP2 MSTORE RETURN JUMPDEST CALLVALUE PUSH2 0x1C5 JUMPI PUSH1 0x0 CALLDATASIZE PUSH1 0x3 NOT ADD SLT PUSH2 0x1C5 JUMPI PUSH1 0x5 SLOAD PUSH1 0x40 MLOAD PUSH1 0x1 PUSH1 0x1 PUSH1 0xA0 SHL SUB SWAP1 SWAP2 AND DUP2 MSTORE PUSH1 0x20 SWAP1 RETURN JUMPDEST CALLVALUE PUSH2 0x1C5 JUMPI PUSH1 0x0 CALLDATASIZE PUSH1 0x3 NOT ADD SLT PUSH2 0x1C5 JUMPI PUSH2 0x11B6 CALLER PUSH32 0x0 PUSH1 0x1 PUSH1 0x1 PUSH1 0xA0 SHL SUB AND EQ PUSH2 0x1893 JUMP JUMPDEST PUSH1 0x7 SLOAD PUSH2 0x11C9 PUSH1 0xFF DUP3 PUSH1 0xE0 SHR AND ISZERO PUSH2 0x18CE JUMP JUMPDEST PUSH1 0xFF PUSH1 0xE0 SHL NOT DUP2 AND PUSH1 0x1 PUSH1 0xE0 SHL OR PUSH1 0x7 DUP2 SWAP1 SSTORE PUSH2 0x11EC PUSH1 0xB8 DUP3 SWAP1 SHR PUSH1 0xFF AND PUSH2 0x1907 JUMP JUMPDEST PUSH2 0x11FC PUSH1 0xFF DUP3 PUSH1 0xC0 SHR AND ISZERO PUSH2 0x1945 JUMP JUMPDEST PUSH2 0x120C PUSH1 0xFF DUP3 PUSH1 0xC8 SHR AND ISZERO PUSH2 0x1985 JUMP JUMPDEST PUSH1 0x2 SLOAD PUSH2 0x1838 JUMPI PUSH1 0x1 PUSH1 0x1 PUSH1 0xA0 SHL SUB DUP3 AND ISZERO PUSH2 0x17FE JUMPI PUSH1 0x3 DUP1 SLOAD PUSH1 0x0 SWAP1 SWAP2 SSTORE PUSH1 0x40 MLOAD PUSH4 0x12A9293F PUSH1 0xE2 SHL DUP2 MSTORE SWAP1 SWAP2 PUSH1 0x20 DUP3 PUSH1 0x4 DUP2 PUSH1 0x1 PUSH1 0x1 PUSH1 0xA0 SHL SUB DUP9 AND GAS STATICCALL SWAP2 DUP3 ISZERO PUSH2 0x598 JUMPI PUSH1 0x0 SWAP3 PUSH2 0x17DD JUMPI JUMPDEST POP PUSH32 0x0 SWAP4 PUSH1 0x1 PUSH1 0x1 PUSH1 0xA0 SHL SUB DUP4 DUP2 AND SWAP1 DUP7 AND LT ISZERO PUSH2 0x17D7 JUMPI DUP5 JUMPDEST PUSH1 0x1 PUSH1 0x1 PUSH1 0xA0 SHL SUB DUP5 DUP2 AND SWAP1 DUP8 AND LT ISZERO PUSH2 0x17D1 JUMPI DUP4 JUMPDEST PUSH1 0x1 PUSH1 0x1 PUSH1 0xA0 SHL SUB DUP6 DUP2 AND SWAP1 DUP9 AND LT ISZERO PUSH2 0x17BC JUMPI PUSH11 0x1B34F91B7533CA6B68126 SWAP2 JUMPDEST PUSH1 0x1 PUSH1 0x1 PUSH1 0xA0 SHL SUB DUP7 DUP2 AND SWAP1 DUP10 AND LT ISZERO PUSH2 0x17B2 JUMPI PUSH3 0x338FF NOT JUMPDEST PUSH1 0x1 PUSH1 0x1 PUSH1 0xA0 SHL SUB DUP8 DUP2 AND SWAP1 DUP11 AND LT ISZERO PUSH2 0x17A8 JUMPI PUSH3 0xD89A0 SWAP4 JUMPDEST PUSH1 0x40 MLOAD PUSH4 0x9F56AB1 PUSH1 0xE1 SHL DUP2 MSTORE PUSH1 0x1 PUSH1 0x1 PUSH1 0xA0 SHL SUB DUP5 DUP2 AND PUSH1 0x4 DUP4 ADD MSTORE DUP6 DUP2 AND PUSH1 0x24 DUP4 ADD MSTORE PUSH1 0xA0 SWAP9 SWAP1 SWAP9 SHR PUSH3 0xFFFFFF AND PUSH1 0x44 DUP3 ADD MSTORE SWAP1 DUP8 AND PUSH1 0x64 DUP3 ADD MSTORE SWAP6 PUSH1 0x20 SWAP1 DUP8 SWAP1 PUSH1 0x84 SWAP1 DUP3 SWAP1 PUSH1 0x0 SWAP1 DUP11 AND GAS CALL SWAP6 DUP7 ISZERO PUSH2 0x598 JUMPI PUSH1 0x0 SWAP7 PUSH2 0x1777 JUMPI JUMPDEST POP PUSH1 0x7 SLOAD PUSH1 0x40 MLOAD PUSH4 0x95EA7B3 PUSH1 0xE0 SHL DUP2 MSTORE PUSH1 0x1 PUSH1 0x1 PUSH1 0xA0 SHL SUB SWAP2 DUP3 AND PUSH1 0x4 DUP3 ADD MSTORE PUSH1 0x0 PUSH1 0x24 DUP3 ADD DUP2 SWAP1 MSTORE SWAP1 SWAP2 PUSH1 0x20 SWAP2 DUP4 SWAP2 PUSH1 0x44 SWAP2 DUP4 SWAP2 DUP16 AND GAS CALL DUP1 ISZERO PUSH2 0x598 JUMPI PUSH2 0x173E JUMPI JUMPDEST POP PUSH1 0x7 SLOAD PUSH1 0x40 MLOAD PUSH4 0x95EA7B3 PUSH1 0xE0 SHL DUP2 MSTORE PUSH1 0x1 PUSH1 0x1 PUSH1 0xA0 SHL SUB SWAP1 SWAP2 AND PUSH1 0x4 DUP3 ADD MSTORE PUSH1 0x24 DUP2 ADD DUP10 SWAP1 MSTORE PUSH1 0x20 DUP2 DUP12 DUP2 PUSH1 0x0 DUP2 PUSH1 0x44 DUP2 ADD SUB SWAP3 PUSH1 0x1 PUSH1 0x1 PUSH1 0xA0 SHL SUB AND GAS CALL DUP1 ISZERO PUSH2 0x598 JUMPI PUSH2 0x1705 JUMPI JUMPDEST POP PUSH1 0x1 PUSH1 0x1 PUSH1 0xA0 SHL SUB DUP8 DUP2 AND SWAP1 DUP11 AND LT ISZERO PUSH2 0x16FE JUMPI DUP8 JUMPDEST PUSH1 0x1 PUSH1 0x1 PUSH1 0xA0 SHL SUB DUP9 DUP2 AND SWAP1 DUP12 AND LT ISZERO PUSH2 0x16F7 JUMPI PUSH1 0x0 SWAP1 JUMPDEST PUSH3 0xFFFFFF PUSH1 0x7 SLOAD PUSH1 0xA0 SHR AND SWAP6 PUSH2 0xE10 TIMESTAMP ADD TIMESTAMP GT PUSH2 0x16E1 JUMPI PUSH1 0x40 MLOAD SWAP4 DUP5 PUSH2 0x160 DUP2 ADD LT PUSH8 0xFFFFFFFFFFFFFFFF PUSH2 0x160 DUP8 ADD GT OR PUSH2 0x16CB JUMPI PUSH2 0x160 DUP6 ADD PUSH1 0x40 SWAP1 DUP2 MSTORE PUSH1 0x1 PUSH1 0x1 PUSH1 0xA0 SHL SUB SWAP7 DUP8 AND DUP7 MSTORE SWAP7 DUP7 AND PUSH1 0x20 DUP7 ADD SWAP1 DUP2 MSTORE DUP8 DUP7 ADD SWAP9 DUP10 MSTORE PUSH1 0x2 SWAP2 DUP3 SIGNEXTEND PUSH1 0x60 DUP8 ADD SWAP1 DUP2 MSTORE SWAP3 DUP3 SIGNEXTEND PUSH1 0x80 DUP8 DUP2 ADD SWAP2 DUP3 MSTORE PUSH1 0xA0 DUP9 ADD SWAP6 DUP7 MSTORE PUSH1 0xC0 DUP9 ADD SWAP7 DUP8 MSTORE PUSH1 0x0 PUSH1 0xE0 DUP10 ADD DUP2 DUP2 MSTORE PUSH2 0x100 DUP11 ADD DUP3 DUP2 MSTORE ADDRESS PUSH2 0x120 DUP13 ADD SWAP1 DUP2 MSTORE TIMESTAMP PUSH2 0xE10 ADD PUSH2 0x140 DUP14 ADD SWAP1 DUP2 MSTORE SWAP14 MLOAD PUSH4 0x4418B22B PUSH1 0xE1 SHL DUP2 MSTORE SWAP12 MLOAD DUP14 AND PUSH1 0x4 DUP14 ADD MSTORE SWAP6 MLOAD DUP13 AND PUSH1 0x24 DUP13 ADD MSTORE SWAP13 MLOAD PUSH3 0xFFFFFF AND PUSH1 0x44 DUP12 ADD MSTORE SWAP6 MLOAD DUP6 SIGNEXTEND PUSH1 0x64 DUP11 ADD MSTORE SWAP2 MLOAD SWAP1 SWAP4 SIGNEXTEND PUSH1 0x84 DUP9 ADD MSTORE SWAP4 MLOAD PUSH1 0xA4 DUP8 ADD MSTORE SWAP4 MLOAD PUSH1 0xC4 DUP7 ADD MSTORE SWAP1 MLOAD PUSH1 0xE4 DUP6 ADD MSTORE SWAP6 MLOAD PUSH2 0x104 DUP5 ADD MSTORE SWAP1 MLOAD DUP4 AND PUSH2 0x124 DUP4 ADD MSTORE SWAP3 MLOAD PUSH2 0x144 DUP3 ADD MSTORE SWAP4 DUP5 SWAP3 PUSH2 0x164 SWAP3 DUP5 SWAP3 AND GAS CALL DUP1 ISZERO PUSH2 0x598 JUMPI PUSH1 0x0 SWAP6 PUSH1 0x0 SWAP5 PUSH1 0x0 SWAP4 PUSH1 0x0 SWAP4 PUSH2 0x165D JUMPI JUMPDEST POP PUSH32 0x5CFC9EA0E95E86463D8DACD6C53993376A8AFAB5437E80A8A98D57D7A8B0F234 SWAP7 PUSH1 0x80 SWAP7 SWAP1 SWAP6 PUSH1 0x1 PUSH1 0x1 PUSH1 0x80 SHL SUB SWAP6 SWAP2 SWAP5 SWAP1 SWAP4 SWAP2 SWAP3 SWAP1 SWAP2 PUSH1 0x1 PUSH1 0x1 PUSH1 0xA0 SHL SUB SWAP2 DUP3 AND SWAP2 AND LT ISZERO PUSH2 0x1654 JUMPI POP DUP1 SWAP5 JUMPDEST DUP2 DUP2 GT PUSH2 0x163A JUMPI JUMPDEST POP POP PUSH1 0x7 DUP1 SLOAD PUSH3 0xFFFFFF PUSH1 0xC8 SHL NOT AND PUSH3 0x10101 PUSH1 0xC8 SHL OR SWAP1 SSTORE PUSH1 0x8 DUP1 SLOAD PUSH1 0x1 PUSH1 0x1 PUSH1 0xA0 SHL SUB NOT AND PUSH1 0x1 PUSH1 0x1 PUSH1 0xA0 SHL SUB SWAP3 SWAP1 SWAP3 AND SWAP2 DUP3 OR SWAP1 SSTORE PUSH1 0x9 SWAP7 SWAP1 SWAP7 SSTORE PUSH1 0x40 DUP1 MLOAD SWAP4 DUP5 MSTORE PUSH1 0x0 PUSH1 0x20 DUP6 ADD MSTORE SWAP2 AND SWAP1 DUP3 ADD MSTORE TIMESTAMP PUSH1 0x60 DUP3 ADD MSTORE LOG2 PUSH2 0x160F PUSH2 0x2B46 JUMP JUMPDEST SWAP1 POP PUSH1 0x4 SLOAD DUP2 LT ISZERO PUSH2 0x162B JUMPI JUMPDEST PUSH1 0x7 DUP1 SLOAD PUSH1 0xFF PUSH1 0xE0 SHL NOT AND SWAP1 SSTORE STOP JUMPDEST PUSH2 0x1634 SWAP1 PUSH2 0x2237 JUMP JUMPDEST DUP1 PUSH2 0x161C JUMP JUMPDEST PUSH2 0x164C SWAP2 PUSH2 0x1647 SWAP2 PUSH2 0x1C43 JUMP JUMPDEST PUSH2 0x2664 JUMP JUMPDEST POP DUP4 DUP9 PUSH2 0x15AE JUMP JUMPDEST SWAP1 POP DUP1 SWAP5 PUSH2 0x15A6 JUMP JUMPDEST SWAP7 SWAP5 SWAP8 POP SWAP5 POP SWAP2 POP POP PUSH1 0x80 DUP5 RETURNDATASIZE PUSH1 0x80 GT PUSH2 0x16C3 JUMPI JUMPDEST DUP2 PUSH2 0x167F PUSH1 0x80 SWAP4 DUP4 PUSH2 0x1D0D JUMP JUMPDEST DUP2 ADD SUB SLT PUSH2 0x1C5 JUMPI DUP4 MLOAD SWAP4 PUSH1 0x20 DUP2 ADD MLOAD SWAP6 PUSH1 0x1 PUSH1 0x1 PUSH1 0x80 SHL SUB DUP8 AND DUP8 SUB PUSH2 0x1C5 JUMPI PUSH1 0x40 DUP3 ADD MLOAD PUSH1 0x60 SWAP1 SWAP3 ADD MLOAD SWAP6 SWAP7 SWAP4 SWAP6 SWAP4 SWAP5 SWAP1 SWAP4 SWAP2 SWAP3 SWAP1 PUSH1 0x1 PUSH1 0x1 PUSH1 0x80 SHL SUB PUSH2 0x1556 JUMP JUMPDEST RETURNDATASIZE SWAP2 POP PUSH2 0x1672 JUMP JUMPDEST PUSH4 0x4E487B71 PUSH1 0xE0 SHL PUSH1 0x0 MSTORE PUSH1 0x41 PUSH1 0x4 MSTORE PUSH1 0x24 PUSH1 0x0 REVERT JUMPDEST PUSH4 0x4E487B71 PUSH1 0xE0 SHL PUSH1 0x0 MSTORE PUSH1 0x11 PUSH1 0x4 MSTORE PUSH1 0x24 PUSH1 0x0 REVERT JUMPDEST DUP9 SWAP1 PUSH2 0x141E JUMP JUMPDEST PUSH1 0x0 PUSH2 0x1406 JUMP JUMPDEST PUSH1 0x20 DUP2 RETURNDATASIZE PUSH1 0x20 GT PUSH2 0x1736 JUMPI JUMPDEST DUP2 PUSH2 0x171E PUSH1 0x20 SWAP4 DUP4 PUSH2 0x1D0D JUMP JUMPDEST DUP2 ADD SUB SLT PUSH2 0x1C5 JUMPI PUSH2 0x172F SWAP1 PUSH2 0x1E54 JUMP JUMPDEST POP DUP10 PUSH2 0x13EF JUMP JUMPDEST RETURNDATASIZE SWAP2 POP PUSH2 0x1711 JUMP JUMPDEST PUSH1 0x20 DUP2 RETURNDATASIZE PUSH1 0x20 GT PUSH2 0x176F JUMPI JUMPDEST DUP2 PUSH2 0x1757 PUSH1 0x20 SWAP4 DUP4 PUSH2 0x1D0D JUMP JUMPDEST DUP2 ADD SUB SLT PUSH2 0x1C5 JUMPI PUSH2 0x1768 SWAP1 PUSH2 0x1E54 JUMP JUMPDEST POP DUP10 PUSH2 0x13A3 JUMP JUMPDEST RETURNDATASIZE SWAP2 POP PUSH2 0x174A JUMP JUMPDEST PUSH2 0x179A SWAP2 SWAP7 POP PUSH1 0x20 RETURNDATASIZE PUSH1 0x20 GT PUSH2 0x17A1 JUMPI JUMPDEST PUSH2 0x1792 DUP2 DUP4 PUSH2 0x1D0D JUMP JUMPDEST DUP2 ADD SWAP1 PUSH2 0x1F68 JUMP JUMPDEST SWAP5 DUP10 PUSH2 0x135E JUMP JUMPDEST POP RETURNDATASIZE PUSH2 0x1788 JUMP JUMPDEST PUSH3 0x33900 SWAP4 PUSH2 0x1300 JUMP JUMPDEST PUSH3 0xD899F NOT PUSH2 0x12E6 JUMP JUMPDEST PUSH14 0x968CC63F21ED04D38C2AB4825F90 SWAP2 PUSH2 0x12CC JUMP JUMPDEST DUP6 PUSH2 0x12AA JUMP JUMPDEST DUP3 PUSH2 0x1294 JUMP JUMPDEST PUSH2 0x17F7 SWAP2 SWAP3 POP PUSH1 0x20 RETURNDATASIZE PUSH1 0x20 GT PUSH2 0x17A1 JUMPI PUSH2 0x1792 DUP2 DUP4 PUSH2 0x1D0D JUMP JUMPDEST SWAP1 DUP5 PUSH2 0x125B JUMP JUMPDEST PUSH1 0x40 MLOAD PUSH3 0x461BCD PUSH1 0xE5 SHL DUP2 MSTORE PUSH1 0x20 PUSH1 0x4 DUP3 ADD MSTORE PUSH1 0x12 PUSH1 0x24 DUP3 ADD MSTORE PUSH18 0x1D8CC81B585B9859D95C881B9BDD081CD95D PUSH1 0x72 SHL PUSH1 0x44 DUP3 ADD MSTORE PUSH1 0x64 SWAP1 REVERT JUMPDEST PUSH1 0x40 MLOAD PUSH3 0x461BCD PUSH1 0xE5 SHL DUP2 MSTORE PUSH1 0x20 PUSH1 0x4 DUP3 ADD MSTORE PUSH1 0x19 PUSH1 0x24 DUP3 ADD MSTORE PUSH32 0x6574682072657365727665206E6F7420737570706F7274656400000000000000 PUSH1 0x44 DUP3 ADD MSTORE PUSH1 0x64 SWAP1 REVERT JUMPDEST PUSH1 0x4 CALLDATALOAD SWAP1 PUSH1 0x1 PUSH1 0x1 PUSH1 0xA0 SHL SUB DUP3 AND DUP3 SUB PUSH2 0x1C5 JUMPI JUMP JUMPDEST ISZERO PUSH2 0x189A JUMPI JUMP JUMPDEST PUSH1 0x40 MLOAD PUSH3 0x461BCD PUSH1 0xE5 SHL DUP2 MSTORE PUSH1 0x20 PUSH1 0x4 DUP3 ADD MSTORE PUSH1 0xC PUSH1 0x24 DUP3 ADD MSTORE PUSH12 0x6F6E6C7920666163746F7279 PUSH1 0xA0 SHL PUSH1 0x44 DUP3 ADD MSTORE PUSH1 0x64 SWAP1 REVERT JUMPDEST ISZERO PUSH2 0x18D5 JUMPI JUMP JUMPDEST PUSH1 0x40 MLOAD PUSH3 0x461BCD PUSH1 0xE5 SHL DUP2 MSTORE PUSH1 0x20 PUSH1 0x4 DUP3 ADD MSTORE PUSH1 0xA PUSH1 0x24 DUP3 ADD MSTORE PUSH10 0x7265656E7472616E6379 PUSH1 0xB0 SHL PUSH1 0x44 DUP3 ADD MSTORE PUSH1 0x64 SWAP1 REVERT JUMPDEST ISZERO PUSH2 0x190E JUMPI JUMP JUMPDEST PUSH1 0x40 MLOAD PUSH3 0x461BCD PUSH1 0xE5 SHL DUP2 MSTORE PUSH1 0x20 PUSH1 0x4 DUP3 ADD MSTORE PUSH1 0xF PUSH1 0x24 DUP3 ADD MSTORE PUSH15 0x1C1BDBDB081B9BDD081CD959591959 PUSH1 0x8A SHL PUSH1 0x44 DUP3 ADD MSTORE PUSH1 0x64 SWAP1 REVERT JUMPDEST ISZERO PUSH2 0x194C JUMPI JUMP JUMPDEST PUSH1 0x40 MLOAD PUSH3 0x461BCD PUSH1 0xE5 SHL DUP2 MSTORE PUSH1 0x20 PUSH1 0x4 DUP3 ADD MSTORE PUSH1 0x11 PUSH1 0x24 DUP3 ADD MSTORE PUSH17 0x185B1C9958591E4819DC98591D585D1959 PUSH1 0x7A SHL PUSH1 0x44 DUP3 ADD MSTORE PUSH1 0x64 SWAP1 REVERT JUMPDEST ISZERO PUSH2 0x198C JUMPI JUMP JUMPDEST PUSH1 0x40 MLOAD PUSH3 0x461BCD PUSH1 0xE5 SHL DUP2 MSTORE PUSH1 0x20 PUSH1 0x4 DUP3 ADD MSTORE PUSH1 0xE PUSH1 0x24 DUP3 ADD MSTORE PUSH14 0x646578206375727665206C697665 PUSH1 0x90 SHL PUSH1 0x44 DUP3 ADD MSTORE PUSH1 0x64 SWAP1 REVERT JUMPDEST ISZERO PUSH2 0x19C9 JUMPI JUMP JUMPDEST PUSH1 0x40 MLOAD PUSH3 0x461BCD PUSH1 0xE5 SHL DUP2 MSTORE PUSH1 0x20 PUSH1 0x4 DUP3 ADD MSTORE PUSH1 0xE PUSH1 0x24 DUP3 ADD MSTORE PUSH14 0x6E6F206574682072657365727665 PUSH1 0x90 SHL PUSH1 0x44 DUP3 ADD MSTORE PUSH1 0x64 SWAP1 REVERT JUMPDEST DUP2 DUP2 MUL SWAP3 SWAP2 DUP2 ISZERO SWAP2 DUP5 DIV EQ OR ISZERO PUSH2 0x16E1 JUMPI JUMP JUMPDEST DUP2 ISZERO PUSH2 0x1A1C JUMPI DIV SWAP1 JUMP JUMPDEST PUSH4 0x4E487B71 PUSH1 0xE0 SHL PUSH1 0x0 MSTORE PUSH1 0x12 PUSH1 0x4 MSTORE PUSH1 0x24 PUSH1 0x0 REVERT JUMPDEST PUSH1 0x4 SLOAD DUP1 ISZERO PUSH2 0x1ABD JUMPI PUSH1 0x7 SLOAD PUSH1 0xFF DUP2 PUSH1 0xC8 SHR AND SWAP1 DUP2 ISZERO PUSH2 0x1A95 JUMPI JUMPDEST POP ISZERO PUSH2 0x1A8D JUMPI PUSH2 0x1A5B PUSH2 0x2B46 JUMP JUMPDEST SWAP1 POP JUMPDEST PUSH2 0x2710 SWAP2 DUP3 DUP3 MUL SWAP2 DUP1 DUP4 DIV DUP5 EQ SWAP1 ISZERO OR ISZERO PUSH2 0x16E1 JUMPI PUSH2 0x1A7C SWAP2 PUSH2 0x1A12 JUMP JUMPDEST SWAP1 DUP1 DUP3 GT PUSH2 0x1A88 JUMPI POP SWAP1 JUMP JUMPDEST SWAP1 POP SWAP1 JUMP JUMPDEST PUSH1 0x2 SLOAD PUSH2 0x1A5E JUMP JUMPDEST PUSH1 0xFF SWAP2 POP PUSH1 0xC0 SHR AND DUP1 PUSH2 0x1AA9 JUMPI JUMPDEST CODESIZE PUSH2 0x1A4D JUMP JUMPDEST POP PUSH1 0x8 SLOAD PUSH1 0x1 PUSH1 0x1 PUSH1 0xA0 SHL SUB AND ISZERO ISZERO PUSH2 0x1AA3 JUMP JUMPDEST POP PUSH1 0x0 SWAP1 JUMP JUMPDEST SWAP2 SWAP1 DUP3 ADD DUP1 SWAP3 GT PUSH2 0x16E1 JUMPI JUMP JUMPDEST PUSH1 0x7 SLOAD PUSH1 0xFF DUP2 PUSH1 0xC8 SHR AND SWAP1 DUP2 ISZERO PUSH2 0x1B90 JUMPI JUMPDEST POP DUP1 PUSH2 0x1B7C JUMPI JUMPDEST PUSH2 0x1B74 JUMPI PUSH2 0x1B1A PUSH1 0x3 SLOAD PUSH32 0x0 SWAP1 PUSH2 0x1AC3 JUMP JUMPDEST DUP1 ISZERO PUSH2 0x1ABD JUMPI PUSH2 0x1B4D PUSH1 0x2 SLOAD PUSH32 0x0 SWAP1 PUSH2 0x1AC3 JUMP JUMPDEST SWAP1 PUSH8 0xDE0B6B3A7640000 SWAP2 DUP3 DUP2 MUL SWAP3 DUP2 DUP5 DIV EQ SWAP1 ISZERO OR ISZERO PUSH2 0x16E1 JUMPI PUSH2 0x1B71 SWAP2 PUSH2 0x1A12 JUMP JUMPDEST SWAP1 JUMP JUMPDEST PUSH2 0x1B71 PUSH2 0x2036 JUMP JUMPDEST POP PUSH1 0x8 SLOAD PUSH1 0x1 PUSH1 0x1 PUSH1 0xA0 SHL SUB AND ISZERO ISZERO PUSH2 0x1AE9 JUMP JUMPDEST PUSH1 0xFF SWAP2 POP PUSH1 0xC0 SHR AND CODESIZE PUSH2 0x1AE2 JUMP JUMPDEST ISZERO PUSH2 0x1BA5 JUMPI JUMP JUMPDEST PUSH1 0x40 MLOAD PUSH3 0x461BCD PUSH1 0xE5 SHL DUP2 MSTORE PUSH1 0x20 PUSH1 0x4 DUP3 ADD MSTORE PUSH1 0x12 PUSH1 0x24 DUP3 ADD MSTORE PUSH18 0x1D185C99D95D081B9BDD081C995858DA1959 PUSH1 0x72 SHL PUSH1 0x44 DUP3 ADD MSTORE PUSH1 0x64 SWAP1 REVERT JUMPDEST PUSH1 0xFF PUSH1 0x7 SLOAD PUSH2 0x1BF2 DUP3 DUP3 PUSH1 0xB8 SHR AND PUSH2 0x1907 JUMP JUMPDEST PUSH2 0x1C01 DUP3 DUP3 PUSH1 0xC0 SHR AND ISZERO PUSH2 0x1945 JUMP JUMPDEST PUSH1 0xC8 SHR AND PUSH2 0x1C23 JUMPI PUSH2 0x1C19 PUSH1 0x2 SLOAD PUSH1 0x4 SLOAD GT ISZERO PUSH2 0x1B9E JUMP JUMPDEST PUSH2 0x1C21 PUSH2 0x1F87 JUMP JUMPDEST JUMP JUMPDEST PUSH2 0x1C21 PUSH2 0x1C2E PUSH2 0x2B46 JUMP JUMPDEST SWAP1 POP PUSH2 0x1C3E PUSH1 0x4 SLOAD DUP3 LT ISZERO PUSH2 0x1B9E JUMP JUMPDEST PUSH2 0x2237 JUMP JUMPDEST SWAP2 SWAP1 DUP3 SUB SWAP2 DUP3 GT PUSH2 0x16E1 JUMPI JUMP JUMPDEST PUSH1 0x7 SLOAD PUSH1 0xFF DUP2 PUSH1 0xB8 SHR AND ISZERO SWAP1 DUP2 ISZERO PUSH2 0x1CBA JUMPI JUMPDEST DUP2 ISZERO PUSH2 0x1CAC JUMPI JUMPDEST POP DUP1 ISZERO PUSH2 0x1CA4 JUMPI JUMPDEST PUSH2 0x1C9B JUMPI PUSH2 0x1C98 PUSH2 0x1C93 PUSH2 0x2710 PUSH2 0x1C8B PUSH1 0x1 SLOAD DUP6 PUSH2 0x19FF JUMP JUMPDEST DIV DUP1 SWAP4 PUSH2 0x1C43 JUMP JUMPDEST PUSH2 0x252F JUMP JUMPDEST SWAP2 JUMP JUMPDEST POP PUSH1 0x0 SWAP1 PUSH1 0x0 SWAP1 JUMP JUMPDEST POP DUP1 ISZERO PUSH2 0x1C72 JUMP JUMPDEST PUSH1 0xFF SWAP2 POP PUSH1 0xC8 SHR AND CODESIZE PUSH2 0x1C6A JUMP JUMPDEST SWAP1 POP PUSH1 0xFF DUP2 PUSH1 0xC0 SHR AND SWAP1 PUSH2 0x1C63 JUMP JUMPDEST ISZERO PUSH2 0x1CD0 JUMPI JUMP JUMPDEST PUSH1 0x40 MLOAD PUSH3 0x461BCD PUSH1 0xE5 SHL DUP2 MSTORE PUSH1 0x20 PUSH1 0x4 DUP3 ADD MSTORE PUSH1 0x15 PUSH1 0x24 DUP3 ADD MSTORE PUSH21 0x1D1BDAD95B88185B5BDD5B9D081C995C5D5A5C9959 PUSH1 0x5A SHL PUSH1 0x44 DUP3 ADD MSTORE PUSH1 0x64 SWAP1 REVERT JUMPDEST SWAP1 PUSH1 0x1F DUP1 NOT SWAP2 ADD AND DUP2 ADD SWAP1 DUP2 LT PUSH8 0xFFFFFFFFFFFFFFFF DUP3 GT OR PUSH2 0x16CB JUMPI PUSH1 0x40 MSTORE JUMP JUMPDEST PUSH1 0x7 SLOAD PUSH1 0xFF DUP2 PUSH1 0xB8 SHR AND ISZERO SWAP1 DUP2 ISZERO PUSH2 0x1D94 JUMPI JUMPDEST DUP2 ISZERO PUSH2 0x1D86 JUMPI JUMPDEST POP DUP1 ISZERO PUSH2 0x1D7E JUMPI JUMPDEST PUSH2 0x1C9B JUMPI PUSH2 0x1D5E SWAP1 PUSH2 0x25BF JUMP JUMPDEST DUP1 ISZERO PUSH2 0x1C9B JUMPI PUSH2 0x1C98 PUSH2 0x2710 PUSH2 0x1D76 PUSH1 0x1 SLOAD DUP5 PUSH2 0x19FF JUMP JUMPDEST DIV DUP1 SWAP3 PUSH2 0x1C43 JUMP JUMPDEST POP DUP1 ISZERO PUSH2 0x1D51 JUMP JUMPDEST PUSH1 0xFF SWAP2 POP PUSH1 0xC8 SHR AND CODESIZE PUSH2 0x1D49 JUMP JUMPDEST SWAP1 POP PUSH1 0xFF DUP2 PUSH1 0xC0 SHR AND SWAP1 PUSH2 0x1D42 JUMP JUMPDEST ISZERO PUSH2 0x1DAA JUMPI JUMP JUMPDEST PUSH1 0x40 MLOAD PUSH3 0x461BCD PUSH1 0xE5 SHL DUP2 MSTORE PUSH1 0x20 PUSH1 0x4 DUP3 ADD MSTORE PUSH1 0x9 PUSH1 0x24 DUP3 ADD MSTORE PUSH9 0x19DC98591D585D1959 PUSH1 0xBA SHL PUSH1 0x44 DUP3 ADD MSTORE PUSH1 0x64 SWAP1 REVERT JUMPDEST ISZERO PUSH2 0x1DE2 JUMPI JUMP JUMPDEST PUSH1 0x40 MLOAD PUSH3 0x461BCD PUSH1 0xE5 SHL DUP2 MSTORE PUSH1 0x20 PUSH1 0x4 DUP3 ADD MSTORE PUSH1 0x13 PUSH1 0x24 DUP3 ADD MSTORE PUSH19 0x1A5B9CDD59999A58DA595B9D081BDD5D1C1D5D PUSH1 0x6A SHL PUSH1 0x44 DUP3 ADD MSTORE PUSH1 0x64 SWAP1 REVERT JUMPDEST ISZERO PUSH2 0x1E24 JUMPI JUMP JUMPDEST PUSH1 0x40 MLOAD PUSH3 0x461BCD PUSH1 0xE5 SHL DUP2 MSTORE PUSH1 0x20 PUSH1 0x4 DUP3 ADD MSTORE PUSH1 0x8 PUSH1 0x24 DUP3 ADD MSTORE PUSH8 0x736C697070616765 PUSH1 0xC0 SHL PUSH1 0x44 DUP3 ADD MSTORE PUSH1 0x64 SWAP1 REVERT JUMPDEST MLOAD SWAP1 DUP2 ISZERO ISZERO DUP3 SUB PUSH2 0x1C5 JUMPI JUMP JUMPDEST ISZERO PUSH2 0x1E68 JUMPI JUMP JUMPDEST PUSH1 0x40 MLOAD PUSH3 0x461BCD PUSH1 0xE5 SHL DUP2 MSTORE PUSH1 0x20 PUSH1 0x4 DUP3 ADD MSTORE PUSH1 0x15 PUSH1 0x24 DUP3 ADD MSTORE PUSH21 0x1D1BDAD95B881D1C985B9CD9995C8819985A5B1959 PUSH1 0x5A SHL PUSH1 0x44 DUP3 ADD MSTORE PUSH1 0x64 SWAP1 REVERT JUMPDEST RETURNDATASIZE ISZERO PUSH2 0x1EE0 JUMPI RETURNDATASIZE SWAP1 PUSH8 0xFFFFFFFFFFFFFFFF DUP3 GT PUSH2 0x16CB JUMPI PUSH1 0x40 MLOAD SWAP2 PUSH2 0x1ED4 PUSH1 0x1F DUP3 ADD PUSH1 0x1F NOT AND PUSH1 0x20 ADD DUP5 PUSH2 0x1D0D JUMP JUMPDEST DUP3 MSTORE RETURNDATASIZE PUSH1 0x0 PUSH1 0x20 DUP5 ADD RETURNDATACOPY JUMP JUMPDEST PUSH1 0x60 SWAP1 JUMP JUMPDEST ISZERO PUSH2 0x1EEC JUMPI JUMP JUMPDEST PUSH1 0x40 MLOAD PUSH3 0x461BCD PUSH1 0xE5 SHL DUP2 MSTORE PUSH1 0x20 PUSH1 0x4 DUP3 ADD MSTORE PUSH1 0x13 PUSH1 0x24 DUP3 ADD MSTORE PUSH19 0x199959481D1C985B9CD9995C8819985A5B1959 PUSH1 0x6A SHL PUSH1 0x44 DUP3 ADD MSTORE PUSH1 0x64 SWAP1 REVERT JUMPDEST ISZERO PUSH2 0x1F2E JUMPI JUMP JUMPDEST PUSH1 0x40 MLOAD PUSH3 0x461BCD PUSH1 0xE5 SHL DUP2 MSTORE PUSH1 0x20 PUSH1 0x4 DUP3 ADD MSTORE PUSH1 0x12 PUSH1 0x24 DUP3 ADD MSTORE PUSH18 0x19195E081C9BDD5D195C881B9BDD081CD95D PUSH1 0x72 SHL PUSH1 0x44 DUP3 ADD MSTORE PUSH1 0x64 SWAP1 REVERT JUMPDEST SWAP1 DUP2 PUSH1 0x20 SWAP2 SUB SLT PUSH2 0x1C5 JUMPI MLOAD PUSH1 0x1 PUSH1 0x1 PUSH1 0xA0 SHL SUB DUP2 AND DUP2 SUB PUSH2 0x1C5 JUMPI SWAP1 JUMP JUMPDEST PUSH2 0x2022 PUSH32 0x71AA8C3702DBBC54247A4E6446450E64A46250DD72707A247DDB01D72EAEF445 PUSH1 0x1 DUP1 PUSH1 0xA0 SHL SUB PUSH2 0x1FC1 DUP2 PUSH1 0x5 SLOAD AND ISZERO ISZERO PUSH2 0x1F27 JUMP JUMPDEST PUSH1 0x7 DUP1 SLOAD PUSH1 0xFF PUSH1 0xC0 SHL NOT AND PUSH1 0x1 PUSH1 0xC0 SHL OR SWAP1 SSTORE TIMESTAMP PUSH1 0xA SSTORE PUSH1 0x6 SLOAD PUSH2 0x1FE6 SWAP1 DUP3 AND PUSH2 0x273D JUMP JUMPDEST POP PUSH1 0x8 DUP1 SLOAD PUSH1 0x1 PUSH1 0x1 PUSH1 0xA0 SHL SUB NOT AND SWAP6 SWAP1 SWAP2 AND SWAP5 DUP6 OR SWAP1 SSTORE PUSH1 0x40 DUP1 MLOAD SWAP4 DUP5 MSTORE PUSH1 0x20 DUP5 ADD SWAP3 SWAP1 SWAP3 MSTORE SWAP1 DUP3 ADD MSTORE TIMESTAMP PUSH1 0x60 DUP3 ADD MSTORE SWAP1 SWAP3 DUP2 SWAP1 PUSH1 0x80 DUP3 ADD SWAP1 JUMP JUMPDEST SUB SWAP1 LOG2 JUMP JUMPDEST MLOAD SWAP1 PUSH2 0xFFFF DUP3 AND DUP3 SUB PUSH2 0x1C5 JUMPI JUMP JUMPDEST PUSH1 0x7 SLOAD PUSH1 0xFF DUP2 PUSH1 0xD8 SHR AND DUP1 PUSH2 0x2223 JUMPI JUMPDEST PUSH2 0x2093 JUMPI POP PUSH2 0x2053 PUSH2 0x2B46 JUMP JUMPDEST SWAP1 DUP1 ISZERO DUP1 ISZERO PUSH2 0x208B JUMPI JUMPDEST PUSH2 0x2084 JUMPI PUSH8 0xDE0B6B3A7640000 SWAP2 DUP3 DUP2 MUL SWAP3 DUP2 DUP5 DIV EQ SWAP1 ISZERO OR ISZERO PUSH2 0x16E1 JUMPI PUSH2 0x1B71 SWAP2 PUSH2 0x1A12 JUMP JUMPDEST POP POP PUSH1 0x0 SWAP1 JUMP JUMPDEST POP DUP2 ISZERO PUSH2 0x205D JUMP JUMPDEST PUSH1 0x8 SLOAD PUSH1 0x40 MLOAD PUSH4 0x3850C7BD PUSH1 0xE0 SHL DUP2 MSTORE PUSH1 0x1 PUSH1 0x1 PUSH1 0xA0 SHL SUB SWAP2 PUSH1 0xE0 SWAP1 DUP3 SWAP1 PUSH1 0x4 SWAP1 DUP3 SWAP1 DUP7 AND GAS STATICCALL DUP1 ISZERO PUSH2 0x598 JUMPI DUP3 SWAP2 PUSH1 0x0 SWAP2 PUSH2 0x218B JUMPI JUMPDEST POP AND DUP1 ISZERO PUSH2 0x2183 JUMPI PUSH1 0x20 PUSH2 0x20DF DUP3 DUP5 SWAP4 PUSH2 0x19FF JUMP JUMPDEST SWAP4 PUSH1 0x4 PUSH1 0x40 MLOAD DUP1 SWAP5 DUP2 SWAP4 PUSH4 0x12A9293F PUSH1 0xE2 SHL DUP4 MSTORE AND GAS STATICCALL DUP1 ISZERO PUSH2 0x598 JUMPI DUP3 SWAP2 PUSH1 0x0 SWAP2 PUSH2 0x2164 JUMPI JUMPDEST POP AND SWAP1 PUSH32 0x0 AND LT PUSH2 0x2144 JUMPI DUP1 ISZERO PUSH2 0x1A1C JUMPI PUSH6 0x3782DACE9D9 PUSH1 0xD2 SHL DIV SWAP1 JUMP JUMPDEST PUSH8 0xDE0B6B3A7640000 SWAP1 DUP2 DUP2 MUL SWAP2 DUP2 DUP4 DIV EQ SWAP1 ISZERO OR ISZERO PUSH2 0x16E1 JUMPI PUSH1 0xC0 SHR SWAP1 JUMP JUMPDEST PUSH2 0x217D SWAP2 POP PUSH1 0x20 RETURNDATASIZE PUSH1 0x20 GT PUSH2 0x17A1 JUMPI PUSH2 0x1792 DUP2 DUP4 PUSH2 0x1D0D JUMP JUMPDEST CODESIZE PUSH2 0x2106 JUMP JUMPDEST POP POP POP PUSH1 0x0 SWAP1 JUMP JUMPDEST SWAP1 SWAP2 POP PUSH1 0xE0 DUP2 RETURNDATASIZE PUSH1 0xE0 GT PUSH2 0x221B JUMPI JUMPDEST DUP2 PUSH2 0x21A7 PUSH1 0xE0 SWAP4 DUP4 PUSH2 0x1D0D JUMP JUMPDEST DUP2 ADD SUB SLT PUSH2 0x2217 JUMPI DUP1 MLOAD SWAP2 DUP4 DUP4 AND DUP4 SUB PUSH2 0x2214 JUMPI PUSH1 0x20 DUP3 ADD MLOAD DUP1 PUSH1 0x2 SIGNEXTEND SUB PUSH2 0x2214 JUMPI PUSH2 0x21D5 PUSH1 0x40 DUP4 ADD PUSH2 0x2027 JUMP JUMPDEST POP PUSH2 0x21E2 PUSH1 0x60 DUP4 ADD PUSH2 0x2027 JUMP JUMPDEST POP PUSH2 0x21EF PUSH1 0x80 DUP4 ADD PUSH2 0x2027 JUMP JUMPDEST POP PUSH1 0xA0 DUP3 ADD MLOAD PUSH1 0xFF DUP2 AND SUB PUSH2 0x2214 JUMPI POP SWAP1 PUSH2 0x220D PUSH1 0xC0 DUP5 SWAP4 ADD PUSH2 0x1E54 JUMP JUMPDEST POP CODESIZE PUSH2 0x20CA JUMP JUMPDEST DUP1 REVERT JUMPDEST POP DUP1 REVERT JUMPDEST RETURNDATASIZE SWAP2 POP PUSH2 0x219A JUMP JUMPDEST POP PUSH1 0x8 SLOAD PUSH1 0x1 PUSH1 0x1 PUSH1 0xA0 SHL SUB AND ISZERO ISZERO PUSH2 0x2046 JUMP JUMPDEST PUSH1 0x7 SLOAD PUSH1 0x0 PUSH1 0xFF DUP3 PUSH1 0xC8 SHR AND ISZERO PUSH2 0x24F5 JUMPI PUSH1 0x8 SLOAD PUSH1 0x1 PUSH1 0x1 PUSH1 0xA0 SHL SUB SWAP2 SWAP1 DUP3 AND SWAP1 DUP2 ISZERO PUSH2 0x24C1 JUMPI PUSH2 0xFFFF PUSH1 0xC0 SHL NOT DUP5 AND PUSH1 0x1 PUSH1 0xC0 SHL OR PUSH1 0x7 DUP2 SWAP1 SSTORE TIMESTAMP PUSH1 0xA SSTORE PUSH1 0xD0 SHR PUSH1 0xFF AND SWAP2 DUP3 ISZERO PUSH2 0x2458 JUMPI POP DUP3 PUSH1 0x9 SLOAD SWAP5 DUP6 PUSH2 0x23D5 JUMPI JUMPDEST POP POP PUSH1 0x7 DUP1 SLOAD PUSH1 0xFF PUSH1 0xD0 SHL NOT AND SWAP1 SSTORE SWAP1 JUMPDEST DUP4 ISZERO ISZERO SWAP1 DUP2 PUSH2 0x23CC JUMPI JUMPDEST POP PUSH2 0x2307 JUMPI JUMPDEST POP PUSH32 0x6D6435BD27368EEAA8BEA9975846B4FFC3D4864FAABCEC7E007DC6014F4EA055 SWAP2 PUSH2 0x2022 PUSH2 0x22DE PUSH2 0x2EFC JUMP JUMPDEST PUSH1 0x8 SLOAD PUSH1 0x40 DUP1 MLOAD SWAP8 DUP9 MSTORE PUSH1 0x20 DUP9 ADD SWAP5 SWAP1 SWAP5 MSTORE SWAP3 DUP7 ADD MSTORE TIMESTAMP PUSH1 0x60 DUP7 ADD MSTORE SWAP2 AND SWAP3 SWAP1 DUP2 SWAP1 PUSH1 0x80 DUP3 ADD SWAP1 JUMP JUMPDEST DUP1 PUSH1 0x20 DUP4 PUSH1 0x8 SLOAD AND PUSH1 0x44 PUSH1 0x40 MLOAD DUP1 SWAP5 DUP2 SWAP4 PUSH4 0xA9059CBB PUSH1 0xE0 SHL DUP4 MSTORE PUSH2 0xDEAD PUSH1 0x4 DUP5 ADD MSTORE DUP10 PUSH1 0x24 DUP5 ADD MSTORE GAS CALL SWAP2 DUP3 ISZERO PUSH2 0x23C0 JUMPI DUP1 SWAP3 PUSH2 0x2383 JUMPI JUMPDEST POP POP ISZERO PUSH2 0x234D JUMPI CODESIZE PUSH2 0x22B0 JUMP JUMPDEST PUSH1 0x40 MLOAD PUSH3 0x461BCD PUSH1 0xE5 SHL DUP2 MSTORE PUSH1 0x20 PUSH1 0x4 DUP3 ADD MSTORE PUSH1 0xE PUSH1 0x24 DUP3 ADD MSTORE PUSH14 0x1B1C08189D5C9B8819985A5B1959 PUSH1 0x92 SHL PUSH1 0x44 DUP3 ADD MSTORE PUSH1 0x64 SWAP1 REVERT JUMPDEST SWAP1 SWAP2 POP PUSH1 0x20 DUP3 RETURNDATASIZE PUSH1 0x20 GT PUSH2 0x23B8 JUMPI JUMPDEST DUP2 PUSH2 0x239F PUSH1 0x20 SWAP4 DUP4 PUSH2 0x1D0D JUMP JUMPDEST DUP2 ADD SUB SLT PUSH2 0x2214 JUMPI POP PUSH2 0x23B1 SWAP1 PUSH2 0x1E54 JUMP JUMPDEST CODESIZE DUP1 PUSH2 0x2340 JUMP JUMPDEST RETURNDATASIZE SWAP2 POP PUSH2 0x2392 JUMP JUMPDEST PUSH1 0x40 MLOAD SWAP1 RETURNDATASIZE SWAP1 DUP3 RETURNDATACOPY RETURNDATASIZE SWAP1 REVERT JUMPDEST SWAP1 POP ISZERO CODESIZE PUSH2 0x22AA JUMP JUMPDEST AND DUP1 EXTCODESIZE ISZERO PUSH2 0x2217 JUMPI DUP2 DUP1 SWAP2 PUSH1 0x64 PUSH1 0x40 MLOAD DUP1 SWAP5 DUP2 SWAP4 PUSH4 0x23B872DD PUSH1 0xE0 SHL DUP4 MSTORE ADDRESS PUSH1 0x4 DUP5 ADD MSTORE PUSH2 0xDEAD PUSH1 0x24 DUP5 ADD MSTORE DUP11 PUSH1 0x44 DUP5 ADD MSTORE GAS CALL DUP1 ISZERO PUSH2 0x244D JUMPI PUSH2 0x2421 JUMPI JUMPDEST POP PUSH1 0x9 DUP2 SWAP1 SSTORE DUP3 CODESIZE PUSH2 0x228F JUMP JUMPDEST PUSH8 0xFFFFFFFFFFFFFFFF DUP2 GT PUSH2 0x2439 JUMPI PUSH1 0x40 MSTORE CODESIZE PUSH2 0x2414 JUMP JUMPDEST PUSH4 0x4E487B71 PUSH1 0xE0 SHL DUP3 MSTORE PUSH1 0x41 PUSH1 0x4 MSTORE PUSH1 0x24 DUP3 REVERT JUMPDEST PUSH1 0x40 MLOAD RETURNDATASIZE DUP5 DUP3 RETURNDATACOPY RETURNDATASIZE SWAP1 REVERT JUMPDEST PUSH1 0x24 SWAP2 SWAP3 SWAP5 POP PUSH1 0x20 SWAP1 PUSH1 0x40 MLOAD SWAP3 DUP4 DUP1 SWAP3 PUSH4 0x70A08231 PUSH1 0xE0 SHL DUP3 MSTORE ADDRESS PUSH1 0x4 DUP4 ADD MSTORE GAS STATICCALL SWAP1 DUP2 ISZERO PUSH2 0x244D JUMPI DUP3 SWAP2 PUSH2 0x248F JUMPI JUMPDEST POP SWAP3 PUSH2 0x22A0 JUMP JUMPDEST SWAP1 POP PUSH1 0x20 DUP2 RETURNDATASIZE PUSH1 0x20 GT PUSH2 0x24B9 JUMPI JUMPDEST DUP2 PUSH2 0x24AA PUSH1 0x20 SWAP4 DUP4 PUSH2 0x1D0D JUMP JUMPDEST DUP2 ADD SUB SLT PUSH2 0x2217 JUMPI MLOAD CODESIZE PUSH2 0x2488 JUMP JUMPDEST RETURNDATASIZE SWAP2 POP PUSH2 0x249D JUMP JUMPDEST PUSH1 0x40 MLOAD PUSH3 0x461BCD PUSH1 0xE5 SHL DUP2 MSTORE PUSH1 0x20 PUSH1 0x4 DUP3 ADD MSTORE PUSH1 0xC PUSH1 0x24 DUP3 ADD MSTORE PUSH12 0x1C185A5C881B9BDD081CD95D PUSH1 0xA2 SHL PUSH1 0x44 DUP3 ADD MSTORE PUSH1 0x64 SWAP1 REVERT JUMPDEST PUSH1 0x40 MLOAD PUSH3 0x461BCD PUSH1 0xE5 SHL DUP2 MSTORE PUSH1 0x20 PUSH1 0x4 DUP3 ADD MSTORE PUSH1 0x12 PUSH1 0x24 DUP3 ADD MSTORE PUSH18 0x646578206375727665206E6F74206C697665 PUSH1 0x70 SHL PUSH1 0x44 DUP3 ADD MSTORE PUSH1 0x64 SWAP1 REVERT JUMPDEST DUP1 ISZERO PUSH2 0x1ABD JUMPI PUSH2 0x2562 PUSH1 0x2 SLOAD PUSH32 0x0 SWAP1 PUSH2 0x1AC3 JUMP JUMPDEST SWAP1 PUSH2 0x25AE PUSH1 0x3 SLOAD SWAP3 PUSH2 0x25A8 PUSH2 0x2597 PUSH32 0x0 DUP7 PUSH2 0x1AC3 JUMP JUMPDEST SWAP4 PUSH2 0x25A2 DUP6 DUP5 PUSH2 0x19FF JUMP JUMPDEST SWAP3 PUSH2 0x1AC3 JUMP JUMPDEST SWAP1 PUSH2 0x1A12 JUMP JUMPDEST DUP1 DUP3 GT ISZERO PUSH2 0x2183 JUMPI PUSH2 0x1A7C SWAP2 PUSH2 0x1C43 JUMP JUMPDEST PUSH1 0x2 SLOAD SWAP1 PUSH2 0x25AE PUSH2 0x25F0 PUSH32 0x0 DUP5 PUSH2 0x1AC3 JUMP JUMPDEST SWAP2 PUSH2 0x25A8 PUSH2 0x2621 PUSH1 0x3 SLOAD PUSH32 0x0 SWAP1 PUSH2 0x1AC3 JUMP JUMPDEST SWAP2 PUSH2 0x25A2 DUP4 DUP7 PUSH2 0x19FF JUMP JUMPDEST PUSH1 0x7 SLOAD PUSH1 0xFF DUP2 PUSH1 0xC0 SHR AND SWAP1 DUP2 ISZERO PUSH2 0x2656 JUMPI JUMPDEST POP PUSH2 0x1C21 JUMPI PUSH1 0x2 SLOAD PUSH1 0x4 SLOAD GT PUSH2 0x1C21 JUMPI PUSH2 0x1C21 PUSH2 0x1F87 JUMP JUMPDEST PUSH1 0xFF SWAP2 POP PUSH1 0xC8 SHR AND CODESIZE PUSH2 0x263E JUMP JUMPDEST DUP1 ISZERO PUSH2 0x1ABD JUMPI PUSH1 0x40 MLOAD PUSH4 0x852CD8D PUSH1 0xE3 SHL DUP2 MSTORE PUSH1 0x4 DUP2 ADD DUP3 SWAP1 MSTORE PUSH1 0x20 DUP2 PUSH1 0x24 DUP2 PUSH1 0x0 PUSH32 0x0 PUSH1 0x1 PUSH1 0x1 PUSH1 0xA0 SHL SUB AND GAS CALL SWAP1 DUP2 ISZERO PUSH2 0x598 JUMPI PUSH1 0x0 SWAP2 PUSH2 0x2703 JUMPI JUMPDEST POP ISZERO PUSH2 0x26CA JUMPI SWAP1 JUMP JUMPDEST PUSH1 0x40 MLOAD PUSH3 0x461BCD PUSH1 0xE5 SHL DUP2 MSTORE PUSH1 0x20 PUSH1 0x4 DUP3 ADD MSTORE PUSH1 0x11 PUSH1 0x24 DUP3 ADD MSTORE PUSH17 0x1D1BDAD95B88189D5C9B8819985A5B1959 PUSH1 0x7A SHL PUSH1 0x44 DUP3 ADD MSTORE PUSH1 0x64 SWAP1 REVERT JUMPDEST SWAP1 POP PUSH1 0x20 DUP2 RETURNDATASIZE PUSH1 0x20 GT PUSH2 0x2735 JUMPI JUMPDEST DUP2 PUSH2 0x271E PUSH1 0x20 SWAP4 DUP4 PUSH2 0x1D0D JUMP JUMPDEST DUP2 ADD SUB SLT PUSH2 0x1C5 JUMPI PUSH2 0x272F SWAP1 PUSH2 0x1E54 JUMP JUMPDEST CODESIZE PUSH2 0x26C1 JUMP JUMPDEST RETURNDATASIZE SWAP2 POP PUSH2 0x2711 JUMP JUMPDEST PUSH1 0x0 SWAP2 PUSH1 0x1 PUSH1 0x1 PUSH1 0xA0 SHL SUB SWAP2 DUP3 AND SWAP1 DUP4 DUP3 ISZERO PUSH2 0x2AF6 JUMPI PUSH1 0x3 SLOAD SWAP2 PUSH1 0x2 SLOAD SWAP5 DUP7 PUSH1 0x3 SSTORE DUP7 PUSH1 0x2 SSTORE DUP1 PUSH32 0x0 AND SWAP7 DUP2 PUSH1 0x5 SLOAD AND SWAP2 DUP2 PUSH1 0x40 SWAP2 DUP3 MLOAD PUSH4 0x95EA7B3 PUSH1 0xE0 SHL SWAP1 DUP2 DUP2 MSTORE PUSH1 0x4 SWAP7 DUP8 DUP3 ADD MSTORE DUP4 PUSH1 0x24 DUP3 ADD MSTORE DUP13 DUP2 PUSH1 0x44 DUP2 PUSH1 0x20 SWAP10 DUP11 SWAP5 GAS CALL DUP1 ISZERO PUSH2 0x2AEC JUMPI SWAP2 DUP7 SWAP2 DUP12 SWAP4 PUSH2 0x2AAE JUMPI JUMPDEST POP PUSH1 0x5 SLOAD DUP7 MLOAD SWAP2 DUP3 MSTORE DUP5 AND PUSH1 0x1 PUSH1 0x1 PUSH1 0xA0 SHL SUB AND DUP9 DUP3 ADD SWAP1 DUP2 MSTORE PUSH1 0x20 DUP2 ADD SWAP4 SWAP1 SWAP4 MSTORE SWAP2 DUP3 SWAP1 DUP15 SWAP1 DUP3 SWAP1 DUP8 SWAP1 DUP3 SWAP1 PUSH1 0x40 ADD SUB SWAP3 GAS CALL DUP1 ISZERO PUSH2 0x2AA4 JUMPI PUSH2 0x2A6C JUMPI JUMPDEST POP DUP1 PUSH1 0x5 SLOAD AND PUSH2 0xE10 TIMESTAMP ADD DUP1 TIMESTAMP GT PUSH2 0x2A59 JUMPI DUP12 SWAP2 DUP14 SWAP2 DUP7 MLOAD SWAP13 DUP14 SWAP4 PUSH4 0xF305D719 PUSH1 0xE0 SHL DUP6 MSTORE DUP11 DUP6 ADD MSTORE DUP13 PUSH1 0x24 DUP6 ADD MSTORE DUP7 PUSH1 0x44 DUP6 ADD MSTORE DUP7 PUSH1 0x64 DUP6 ADD MSTORE PUSH1 0x84 DUP5 ADD MSTORE PUSH1 0xA4 DUP4 ADD MSTORE DUP2 GAS SWAP4 PUSH1 0xC4 SWAP3 PUSH1 0x60 SWAP6 CALL SWAP10 DUP11 ISZERO PUSH2 0x2A4F JUMPI DUP3 SWAP11 DUP4 SWAP11 DUP5 SWAP2 PUSH2 0x2A0D JUMPI JUMPDEST POP SWAP10 DUP1 SWAP12 DUP1 SWAP14 DUP5 PUSH1 0x5 SLOAD AND DUP8 MLOAD SWAP1 PUSH4 0xC45A0155 PUSH1 0xE0 SHL DUP3 MSTORE DUP10 DUP3 DUP13 DUP2 DUP5 GAS STATICCALL SWAP2 DUP3 ISZERO PUSH2 0x29E4 JUMPI DUP12 SWAP4 SWAP3 SWAP2 DUP12 SWAP2 DUP11 SWAP4 PUSH2 0x29EE JUMPI JUMPDEST POP DUP11 MLOAD PUSH4 0x15AB88C9 PUSH1 0xE3 SHL DUP2 MSTORE SWAP5 DUP6 SWAP2 DUP3 SWAP1 GAS STATICCALL SWAP3 DUP4 ISZERO PUSH2 0x29E4 JUMPI DUP8 DUP12 SWAP4 SWAP3 DUP14 SWAP3 DUP12 SWAP7 PUSH2 0x29BE JUMPI JUMPDEST POP SWAP1 PUSH1 0x44 SWAP3 SWAP2 DUP2 DUP14 MLOAD SWAP8 DUP9 SWAP7 DUP8 SWAP6 PUSH4 0xE6A43905 PUSH1 0xE0 SHL DUP8 MSTORE DUP7 ADD MSTORE AND PUSH1 0x24 DUP5 ADD MSTORE AND GAS STATICCALL SWAP1 DUP2 ISZERO PUSH2 0x29B4 JUMPI DUP7 SWAP2 PUSH2 0x2997 JUMPI JUMPDEST POP SWAP11 DUP2 DUP2 GT PUSH2 0x297F JUMPI JUMPDEST POP POP DUP1 DUP3 GT PUSH2 0x2912 JUMPI JUMPDEST POP POP POP POP POP POP POP JUMP JUMPDEST DUP4 SWAP3 PUSH2 0x2921 DUP5 SWAP4 SWAP3 DUP5 SWAP4 PUSH2 0x1C43 JUMP JUMPDEST SWAP1 DUP3 SLOAD AND GAS CALL PUSH2 0x292F PUSH2 0x1EA5 JUMP JUMPDEST POP ISZERO PUSH2 0x293E JUMPI DUP1 DUP1 DUP1 DUP1 PUSH2 0x2909 JUMP JUMPDEST MLOAD PUSH3 0x461BCD PUSH1 0xE5 SHL DUP2 MSTORE SWAP2 DUP3 ADD MSTORE PUSH1 0x18 PUSH1 0x24 DUP3 ADD MSTORE PUSH32 0x6574682064757374207472616E73666572206661696C65640000000000000000 PUSH1 0x44 DUP3 ADD MSTORE PUSH1 0x64 SWAP2 POP REVERT JUMPDEST PUSH2 0x298F SWAP3 SWAP11 POP SWAP1 PUSH2 0x1647 SWAP2 PUSH2 0x1C43 JUMP JUMPDEST SWAP8 CODESIZE DUP1 PUSH2 0x28FF JUMP JUMPDEST PUSH2 0x29AE SWAP2 POP DUP9 RETURNDATASIZE DUP11 GT PUSH2 0x17A1 JUMPI PUSH2 0x1792 DUP2 DUP4 PUSH2 0x1D0D JUMP JUMPDEST CODESIZE PUSH2 0x28F5 JUMP JUMPDEST DUP8 MLOAD RETURNDATASIZE DUP9 DUP3 RETURNDATACOPY RETURNDATASIZE SWAP1 REVERT JUMPDEST PUSH1 0x44 SWAP4 SWAP3 SWAP2 SWAP7 POP PUSH2 0x29DB SWAP1 DUP7 RETURNDATASIZE DUP9 GT PUSH2 0x17A1 JUMPI PUSH2 0x1792 DUP2 DUP4 PUSH2 0x1D0D JUMP JUMPDEST SWAP6 SWAP1 SWAP2 SWAP3 PUSH2 0x28C3 JUMP JUMPDEST DUP10 MLOAD RETURNDATASIZE DUP11 DUP3 RETURNDATACOPY RETURNDATASIZE SWAP1 REVERT JUMPDEST PUSH2 0x2A06 SWAP2 SWAP4 POP DUP3 RETURNDATASIZE DUP5 GT PUSH2 0x17A1 JUMPI PUSH2 0x1792 DUP2 DUP4 PUSH2 0x1D0D JUMP JUMPDEST SWAP2 CODESIZE PUSH2 0x289B JUMP JUMPDEST SWAP12 POP POP SWAP9 POP PUSH1 0x60 DUP11 RETURNDATASIZE PUSH1 0x60 GT PUSH2 0x2A47 JUMPI JUMPDEST DUP2 PUSH2 0x2A2B PUSH1 0x60 SWAP4 DUP4 PUSH2 0x1D0D JUMP JUMPDEST DUP2 ADD SUB SLT PUSH2 0x2217 JUMPI DUP10 MLOAD SWAP9 DUP4 DUP6 DUP13 ADD MLOAD SWAP12 ADD MLOAD SWAP10 SWAP11 SWAP10 CODESIZE PUSH2 0x2868 JUMP JUMPDEST RETURNDATASIZE SWAP2 POP PUSH2 0x2A1E JUMP JUMPDEST DUP4 MLOAD RETURNDATASIZE DUP5 DUP3 RETURNDATACOPY RETURNDATASIZE SWAP1 REVERT JUMPDEST PUSH4 0x4E487B71 PUSH1 0xE0 SHL DUP5 MSTORE PUSH1 0x11 DUP8 MSTORE PUSH1 0x24 DUP5 REVERT JUMPDEST DUP5 DUP2 DUP2 RETURNDATASIZE DUP4 GT PUSH2 0x2A9D JUMPI JUMPDEST PUSH2 0x2A81 DUP2 DUP4 PUSH2 0x1D0D JUMP JUMPDEST DUP2 ADD SUB SLT PUSH2 0x2A99 JUMPI PUSH2 0x2A92 SWAP1 PUSH2 0x1E54 JUMP JUMPDEST POP CODESIZE PUSH2 0x2807 JUMP JUMPDEST DUP3 DUP1 REVERT JUMPDEST POP RETURNDATASIZE PUSH2 0x2A77 JUMP JUMPDEST DUP5 MLOAD RETURNDATASIZE DUP6 DUP3 RETURNDATACOPY RETURNDATASIZE SWAP1 REVERT JUMPDEST DUP3 DUP2 SWAP4 SWAP3 SWAP5 POP RETURNDATASIZE DUP4 GT PUSH2 0x2AE5 JUMPI JUMPDEST PUSH2 0x2AC6 DUP2 DUP4 PUSH2 0x1D0D JUMP JUMPDEST DUP2 ADD SUB SLT PUSH2 0x2AE1 JUMPI DUP10 SWAP2 PUSH2 0x2ADA DUP8 SWAP3 PUSH2 0x1E54 JUMP JUMPDEST POP CODESIZE PUSH2 0x27C8 JUMP JUMPDEST DUP4 DUP1 REVERT JUMPDEST POP RETURNDATASIZE PUSH2 0x2ABC JUMP JUMPDEST DUP6 MLOAD RETURNDATASIZE DUP7 DUP3 RETURNDATACOPY RETURNDATASIZE SWAP1 REVERT JUMPDEST PUSH1 0x40 MLOAD PUSH3 0x461BCD PUSH1 0xE5 SHL DUP2 MSTORE PUSH1 0x20 PUSH1 0x4 DUP3 ADD MSTORE PUSH1 0x14 PUSH1 0x24 DUP3 ADD MSTORE PUSH20 0x1B1C081C9958D95A5D995C881C995C5D5A5C9959 PUSH1 0x62 SHL PUSH1 0x44 DUP3 ADD MSTORE PUSH1 0x64 SWAP1 REVERT JUMPDEST MLOAD SWAP1 PUSH1 0x1 PUSH1 0x1 PUSH1 0x70 SHL SUB DUP3 AND DUP3 SUB PUSH2 0x1C5 JUMPI JUMP JUMPDEST PUSH1 0x8 SLOAD PUSH1 0x0 SWAP2 SWAP1 PUSH1 0x1 PUSH1 0x1 PUSH1 0xA0 SHL SUB SWAP1 DUP4 SWAP1 DUP2 SWAP1 DUP4 AND DUP1 ISZERO PUSH2 0x2EF4 JUMPI PUSH1 0x7 SLOAD PUSH1 0xFF DUP2 PUSH1 0xD8 SHR AND PUSH2 0x2DA3 JUMPI POP DUP4 PUSH1 0x5 SLOAD AND SWAP1 DUP2 ISZERO PUSH2 0x2D9A JUMPI PUSH1 0x40 SWAP5 DUP6 MLOAD DUP1 SWAP4 PUSH4 0x15AB88C9 PUSH1 0xE3 SHL DUP3 MSTORE DUP2 PUSH1 0x4 PUSH1 0x20 SWAP4 DUP5 SWAP4 GAS STATICCALL SWAP4 DUP5 ISZERO PUSH2 0x2D90 JUMPI DUP10 SWAP5 PUSH2 0x2D71 JUMPI JUMPDEST POP DUP7 MLOAD PUSH4 0xDFE1681 PUSH1 0xE0 SHL DUP2 MSTORE SWAP1 DUP1 DUP3 PUSH1 0x4 DUP2 DUP8 GAS STATICCALL SWAP2 DUP3 ISZERO PUSH2 0x2D67 JUMPI DUP11 SWAP3 PUSH2 0x2D48 JUMPI JUMPDEST POP DUP8 MLOAD PUSH4 0xD21220A7 PUSH1 0xE0 SHL DUP2 MSTORE SWAP4 DUP2 DUP6 PUSH1 0x4 DUP2 DUP5 GAS STATICCALL SWAP5 DUP6 ISZERO PUSH2 0x2D3E JUMPI DUP12 SWAP6 PUSH2 0x2D17 JUMPI JUMPDEST POP SWAP1 PUSH1 0x60 PUSH1 0x4 SWAP3 DUP11 MLOAD SWAP4 DUP5 DUP1 SWAP3 PUSH4 0x240BC6B PUSH1 0xE2 SHL DUP3 MSTORE GAS STATICCALL SWAP11 DUP12 ISZERO PUSH2 0x2D0C JUMPI DUP1 SWAP10 DUP2 SWAP13 PUSH2 0x2CAD JUMPI JUMPDEST POP POP POP POP DUP2 DUP1 PUSH32 0x0 AND SWAP2 AND SWAP3 DUP2 DUP5 EQ DUP1 PUSH2 0x2CA0 JUMPI JUMPDEST ISZERO PUSH2 0x2C67 JUMPI POP POP POP POP POP POP POP PUSH1 0x1 PUSH1 0x1 PUSH1 0x70 SHL SUB DUP1 SWAP2 AND SWAP3 AND SWAP1 JUMP JUMPDEST SWAP6 SWAP9 SWAP5 SWAP8 SWAP7 SWAP6 DUP3 AND EQ SWAP3 DUP4 PUSH2 0x2C94 JUMPI JUMPDEST POP POP POP PUSH2 0x2C82 JUMPI POP POP JUMP JUMPDEST PUSH1 0x1 PUSH1 0x1 PUSH1 0x70 SHL SUB SWAP1 DUP2 AND SWAP5 POP AND SWAP2 POP JUMP JUMPDEST AND EQ SWAP1 POP CODESIZE DUP1 DUP1 PUSH2 0x2C77 JUMP JUMPDEST POP DUP3 DUP6 AND DUP4 DUP3 AND EQ PUSH2 0x2C4B JUMP JUMPDEST SWAP2 SWAP4 SWAP12 POP SWAP2 SWAP9 POP PUSH1 0x60 DUP10 RETURNDATASIZE PUSH1 0x60 GT PUSH2 0x2D04 JUMPI JUMPDEST DUP2 PUSH2 0x2CCD PUSH1 0x60 SWAP4 DUP4 PUSH2 0x1D0D JUMP JUMPDEST DUP2 ADD SUB SLT PUSH2 0x2217 JUMPI PUSH2 0x2CE9 PUSH2 0x2CE1 DUP11 PUSH2 0x2B32 JUMP JUMPDEST SWAP4 DUP11 ADD PUSH2 0x2B32 JUMP JUMPDEST SWAP9 ADD MLOAD PUSH4 0xFFFFFFFF DUP2 AND SUB PUSH2 0x2214 JUMPI POP SWAP6 SWAP8 CODESIZE DUP1 DUP1 DUP1 PUSH2 0x2C17 JUMP JUMPDEST RETURNDATASIZE SWAP2 POP PUSH2 0x2CC0 JUMP JUMPDEST DUP10 MLOAD SWAP1 RETURNDATASIZE SWAP1 DUP3 RETURNDATACOPY RETURNDATASIZE SWAP1 REVERT JUMPDEST DUP3 SWAP2 SWAP6 POP PUSH2 0x2D35 PUSH1 0x60 SWAP2 PUSH1 0x4 SWAP5 RETURNDATASIZE DUP6 GT PUSH2 0x17A1 JUMPI PUSH2 0x1792 DUP2 DUP4 PUSH2 0x1D0D JUMP JUMPDEST SWAP6 SWAP2 SWAP3 POP PUSH2 0x2BEE JUMP JUMPDEST DUP10 MLOAD RETURNDATASIZE DUP14 DUP3 RETURNDATACOPY RETURNDATASIZE SWAP1 REVERT JUMPDEST DUP2 PUSH2 0x2D60 SWAP3 SWAP4 POP RETURNDATASIZE DUP5 GT PUSH2 0x17A1 JUMPI PUSH2 0x1792 DUP2 DUP4 PUSH2 0x1D0D JUMP JUMPDEST SWAP1 CODESIZE PUSH2 0x2BCA JUMP JUMPDEST DUP9 MLOAD RETURNDATASIZE DUP13 DUP3 RETURNDATACOPY RETURNDATASIZE SWAP1 REVERT JUMPDEST DUP2 PUSH2 0x2D89 SWAP3 SWAP6 POP RETURNDATASIZE DUP7 GT PUSH2 0x17A1 JUMPI PUSH2 0x1792 DUP2 DUP4 PUSH2 0x1D0D JUMP JUMPDEST SWAP3 CODESIZE PUSH2 0x2BA6 JUMP JUMPDEST DUP8 MLOAD RETURNDATASIZE DUP12 DUP3 RETURNDATACOPY RETURNDATASIZE SWAP1 REVERT JUMPDEST POP POP POP POP POP DUP2 SWAP1 JUMP JUMPDEST SWAP3 POP SWAP5 SWAP1 POP DUP3 PUSH1 0x40 SWAP6 DUP7 MLOAD SWAP4 PUSH4 0x12A9293F PUSH1 0xE2 SHL DUP6 MSTORE DUP5 PUSH1 0x4 DUP2 PUSH1 0x20 SWAP6 DUP7 SWAP5 AND GAS STATICCALL SWAP4 DUP5 ISZERO PUSH2 0x2EEA JUMPI DUP4 SWAP5 PUSH2 0x2ECB JUMPI JUMPDEST POP DUP7 MLOAD PUSH4 0x70A08231 PUSH1 0xE0 SHL DUP1 DUP3 MSTORE PUSH1 0x4 DUP3 ADD DUP4 SWAP1 MSTORE SWAP1 SWAP6 DUP4 DUP8 PUSH1 0x24 DUP2 PUSH32 0x0 DUP6 AND GAS STATICCALL SWAP7 DUP8 ISZERO PUSH2 0x2EC1 JUMPI DUP6 SWAP8 PUSH2 0x2E8E JUMPI JUMPDEST POP DUP4 SWAP3 SWAP2 PUSH1 0x24 SWAP2 DUP11 MLOAD SWAP8 DUP9 SWAP5 DUP6 SWAP4 DUP5 MSTORE PUSH1 0x4 DUP5 ADD MSTORE AND GAS STATICCALL SWAP6 DUP7 ISZERO PUSH2 0x2E83 JUMPI POP DUP2 SWAP6 PUSH2 0x2E50 JUMPI JUMPDEST POP POP POP SWAP2 SWAP1 JUMP JUMPDEST SWAP1 SWAP2 DUP1 SWAP4 SWAP6 POP DUP2 RETURNDATASIZE DUP4 GT PUSH2 0x2E7C JUMPI JUMPDEST PUSH2 0x2E69 DUP2 DUP4 PUSH2 0x1D0D JUMP JUMPDEST DUP2 ADD SUB SLT PUSH2 0x2214 JUMPI POP MLOAD SWAP2 CODESIZE DUP1 DUP1 PUSH2 0x2E49 JUMP JUMPDEST POP RETURNDATASIZE PUSH2 0x2E5F JUMP JUMPDEST MLOAD SWAP2 RETURNDATASIZE SWAP2 POP DUP3 RETURNDATACOPY RETURNDATASIZE SWAP1 REVERT JUMPDEST SWAP1 SWAP7 POP DUP4 DUP2 DUP2 RETURNDATASIZE DUP4 GT PUSH2 0x2EBA JUMPI JUMPDEST PUSH2 0x2EA6 DUP2 DUP4 PUSH2 0x1D0D JUMP JUMPDEST DUP2 ADD SUB SLT PUSH2 0x2EB6 JUMPI MLOAD SWAP6 DUP4 PUSH2 0x2E22 JUMP JUMPDEST DUP5 DUP1 REVERT JUMPDEST POP RETURNDATASIZE PUSH2 0x2E9C JUMP JUMPDEST DUP10 MLOAD RETURNDATASIZE DUP8 DUP3 RETURNDATACOPY RETURNDATASIZE SWAP1 REVERT JUMPDEST PUSH2 0x2EE3 SWAP2 SWAP5 POP DUP3 RETURNDATASIZE DUP5 GT PUSH2 0x17A1 JUMPI PUSH2 0x1792 DUP2 DUP4 PUSH2 0x1D0D JUMP JUMPDEST SWAP3 CODESIZE PUSH2 0x2DD3 JUMP JUMPDEST DUP8 MLOAD RETURNDATASIZE DUP6 DUP3 RETURNDATACOPY RETURNDATASIZE SWAP1 REVERT JUMPDEST POP POP POP POP DUP2 SWAP1 JUMP JUMPDEST PUSH1 0x40 MLOAD PUSH4 0x70A08231 PUSH1 0xE0 SHL DUP2 MSTORE ADDRESS PUSH1 0x4 DUP3 ADD MSTORE PUSH1 0x20 DUP2 PUSH1 0x24 DUP2 PUSH32 0x0 PUSH1 0x1 PUSH1 0x1 PUSH1 0xA0 SHL SUB AND GAS STATICCALL SWAP1 DUP2 ISZERO PUSH2 0x598 JUMPI PUSH1 0x0 SWAP2 PUSH2 0x2F60 JUMPI JUMPDEST POP DUP1 ISZERO PUSH2 0x1ABD JUMPI PUSH2 0x1B71 SWAP1 PUSH2 0x2664 JUMP JUMPDEST SWAP1 POP PUSH1 0x20 DUP2 RETURNDATASIZE PUSH1 0x20 GT PUSH2 0x2F8A JUMPI JUMPDEST DUP2 PUSH2 0x2F7B PUSH1 0x20 SWAP4 DUP4 PUSH2 0x1D0D JUMP JUMPDEST DUP2 ADD SUB SLT PUSH2 0x1C5 JUMPI MLOAD CODESIZE PUSH2 0x2F50 JUMP JUMPDEST RETURNDATASIZE SWAP2 POP PUSH2 0x2F6E JUMP INVALID LOG2 PUSH5 0x6970667358 0x22 SLT KECCAK256 SWAP10 0xD9 0x4B DUP10 DUP9 PUSH31 0x277097556243B39D5582B3C47517B5D35FD712ADF16ACD5DCA1264736F6C63 NUMBER STOP ADDMOD XOR STOP CALLER PUSH1 0x40 PUSH2 0x140 DUP2 MSTORE CALLVALUE PUSH3 0x60D JUMPI PUSH3 0x1808 DUP1 CODESIZE SUB DUP1 PUSH3 0x1F DUP2 PUSH3 0x612 JUMP JUMPDEST SWAP3 DUP4 CODECOPY DUP2 ADD SWAP2 PUSH1 0xE0 DUP3 DUP5 SUB SLT PUSH3 0x60D JUMPI DUP2 MLOAD PUSH1 0x1 PUSH1 0x1 PUSH1 0x40 SHL SUB SWAP1 DUP2 DUP2 GT PUSH3 0x60D JUMPI DUP5 PUSH3 0x51 SWAP2 DUP6 ADD PUSH3 0x638 JUMP JUMPDEST SWAP4 PUSH1 0x20 SWAP1 DUP2 DUP6 ADD MLOAD SWAP1 DUP4 DUP3 GT PUSH3 0x60D JUMPI PUSH3 0x6F SWAP2 DUP7 ADD PUSH3 0x638 JUMP JUMPDEST SWAP1 DUP4 DUP6 ADD MLOAD SWAP5 PUSH3 0x83 PUSH1 0x60 DUP3 ADD PUSH3 0x6AA JUMP JUMPDEST PUSH3 0x91 PUSH1 0x80 DUP4 ADD PUSH3 0x6AA JUMP JUMPDEST SWAP1 PUSH1 0xC0 PUSH3 0xA2 PUSH1 0xA0 DUP6 ADD PUSH3 0x6AA JUMP JUMPDEST SWAP4 ADD MLOAD SWAP9 DUP1 MLOAD ISZERO PUSH3 0x5D9 JUMPI DUP6 MLOAD ISZERO PUSH3 0x5A3 JUMPI DUP9 ISZERO PUSH3 0x56D JUMPI PUSH1 0x1 PUSH1 0x1 PUSH1 0xA0 SHL SUB DUP3 DUP2 AND SWAP8 SWAP1 DUP9 ISZERO PUSH3 0x536 JUMPI DUP1 DUP6 AND ISZERO PUSH3 0x4FF JUMPI DUP6 AND ISZERO PUSH3 0x4C7 JUMPI PUSH2 0x3E8 DUP12 GT PUSH3 0x48E JUMPI DUP2 MLOAD DUP2 DUP2 GT PUSH3 0x478 JUMPI PUSH1 0x0 SWAP8 DUP9 SLOAD SWAP2 PUSH1 0x1 SWAP5 DUP6 DUP5 DUP2 SHR SWAP5 AND DUP1 ISZERO PUSH3 0x46D JUMPI JUMPDEST DUP11 DUP6 LT EQ PUSH3 0x459 JUMPI DUP2 SWAP1 PUSH1 0x1F SWAP5 DUP6 DUP2 GT PUSH3 0x406 JUMPI JUMPDEST POP DUP11 SWAP1 DUP6 DUP4 GT PUSH1 0x1 EQ PUSH3 0x3A1 JUMPI DUP13 SWAP3 PUSH3 0x395 JUMPI JUMPDEST POP POP PUSH1 0x0 NOT PUSH1 0x3 DUP4 SWAP1 SHL SHR NOT AND SWAP1 DUP6 SHL OR DUP10 SSTORE JUMPDEST DUP1 MLOAD SWAP3 DUP4 GT PUSH3 0x381 JUMPI DUP4 SLOAD DUP5 DUP2 DUP2 SHR SWAP2 AND DUP1 ISZERO PUSH3 0x376 JUMPI JUMPDEST DUP10 DUP3 LT EQ PUSH3 0x362 JUMPI SWAP1 DUP2 DUP4 DUP6 SWAP5 SWAP4 GT PUSH3 0x30D JUMPI JUMPDEST POP DUP9 SWAP2 DUP4 GT PUSH1 0x1 EQ PUSH3 0x2A9 JUMPI DUP10 SWAP3 PUSH3 0x29D JUMPI JUMPDEST POP POP PUSH1 0x0 NOT PUSH1 0x3 DUP4 SWAP1 SHL SHR NOT AND SWAP1 DUP3 SHL OR SWAP1 SSTORE JUMPDEST DUP8 PUSH1 0x2 SSTORE PUSH1 0x80 MSTORE PUSH1 0xA0 MSTORE PUSH1 0xC0 MSTORE DUP6 PUSH1 0xE0 MSTORE PUSH2 0xFA0 DUP1 DUP8 MUL SWAP1 DUP8 DUP3 DIV EQ DUP8 ISZERO OR ISZERO PUSH3 0x289 JUMPI PUSH2 0x2710 SWAP1 DIV SWAP5 PUSH2 0x120 SWAP6 DUP1 DUP8 MSTORE DUP8 SUB SWAP7 DUP8 GT PUSH3 0x289 JUMPI SWAP1 PUSH32 0xDDF252AD1BE2C89B69C2B068FC378DAA952BA7F163C4A11628F55A4DF523B3EF SWAP2 PUSH2 0x100 SWAP8 DUP9 MSTORE DUP5 DUP5 MSTORE PUSH1 0x6 DUP3 MSTORE DUP1 DUP7 DUP6 KECCAK256 SSTORE DUP6 MLOAD SWAP1 DUP2 MSTORE LOG3 MLOAD SWAP1 PUSH2 0x1148 SWAP3 DUP4 PUSH3 0x6C0 DUP5 CODECOPY PUSH1 0x80 MLOAD DUP4 DUP2 DUP2 PUSH2 0x243 ADD MSTORE DUP2 DUP2 PUSH2 0x30A ADD MSTORE PUSH2 0x366 ADD MSTORE PUSH1 0xA0 MLOAD DUP4 DUP2 DUP2 PUSH2 0x77D ADD MSTORE PUSH2 0xC8D ADD MSTORE PUSH1 0xC0 MLOAD DUP4 DUP2 DUP2 PUSH2 0x198 ADD MSTORE PUSH2 0x87A ADD MSTORE PUSH1 0xE0 MLOAD DUP4 DUP2 DUP2 PUSH2 0x64F ADD MSTORE PUSH2 0xEC8 ADD MSTORE MLOAD DUP3 DUP2 DUP2 PUSH2 0xAEC ADD MSTORE PUSH2 0xF06 ADD MSTORE MLOAD DUP2 PUSH2 0xA4E ADD MSTORE RETURN JUMPDEST PUSH4 0x4E487B71 PUSH1 0xE0 SHL DUP4 MSTORE PUSH1 0x11 PUSH1 0x4 MSTORE PUSH1 0x24 DUP4 REVERT JUMPDEST ADD MLOAD SWAP1 POP CODESIZE DUP1 PUSH3 0x193 JUMP JUMPDEST DUP5 DUP11 MSTORE DUP9 DUP11 KECCAK256 DUP6 SWAP5 POP SWAP2 SWAP1 PUSH1 0x1F NOT DUP5 AND DUP12 JUMPDEST DUP12 DUP3 DUP3 LT PUSH3 0x2F6 JUMPI POP POP DUP5 GT PUSH3 0x2DC JUMPI JUMPDEST POP POP POP DUP2 SHL ADD SWAP1 SSTORE PUSH3 0x1A7 JUMP JUMPDEST ADD MLOAD PUSH1 0x0 NOT PUSH1 0xF8 DUP5 PUSH1 0x3 SHL AND SHR NOT AND SWAP1 SSTORE CODESIZE DUP1 DUP1 PUSH3 0x2CE JUMP JUMPDEST DUP4 DUP6 ADD MLOAD DUP7 SSTORE DUP9 SWAP8 SWAP1 SWAP6 ADD SWAP5 SWAP4 DUP5 ADD SWAP4 ADD PUSH3 0x2BB JUMP JUMPDEST SWAP1 SWAP2 SWAP3 POP DUP5 DUP11 MSTORE DUP9 DUP11 KECCAK256 DUP4 DUP1 DUP7 ADD PUSH1 0x5 SHR DUP3 ADD SWAP3 DUP12 DUP8 LT PUSH3 0x358 JUMPI JUMPDEST SWAP2 DUP7 SWAP6 DUP9 SWAP3 SWAP6 SWAP5 SWAP4 ADD PUSH1 0x5 SHR ADD SWAP2 JUMPDEST DUP3 DUP2 LT PUSH3 0x349 JUMPI POP POP PUSH3 0x17E JUMP JUMPDEST DUP13 DUP2 SSTORE DUP7 SWAP6 POP DUP8 SWAP2 ADD PUSH3 0x339 JUMP JUMPDEST SWAP3 POP DUP2 SWAP3 PUSH3 0x32A JUMP JUMPDEST PUSH4 0x4E487B71 PUSH1 0xE0 SHL DUP11 MSTORE PUSH1 0x22 PUSH1 0x4 MSTORE PUSH1 0x24 DUP11 REVERT JUMPDEST SWAP1 PUSH1 0x7F AND SWAP1 PUSH3 0x168 JUMP JUMPDEST PUSH4 0x4E487B71 PUSH1 0xE0 SHL DUP10 MSTORE PUSH1 0x41 PUSH1 0x4 MSTORE PUSH1 0x24 DUP10 REVERT JUMPDEST ADD MLOAD SWAP1 POP CODESIZE DUP1 PUSH3 0x13A JUMP JUMPDEST DUP13 DUP1 MSTORE DUP12 DUP14 KECCAK256 DUP9 SWAP5 POP SWAP2 SWAP1 PUSH1 0x1F NOT DUP5 AND DUP15 DUP15 JUMPDEST DUP3 DUP3 LT PUSH3 0x3EE JUMPI POP POP DUP5 GT PUSH3 0x3D4 JUMPI JUMPDEST POP POP POP DUP2 SHL ADD DUP10 SSTORE PUSH3 0x14E JUMP JUMPDEST ADD MLOAD PUSH1 0x0 NOT PUSH1 0xF8 DUP5 PUSH1 0x3 SHL AND SHR NOT AND SWAP1 SSTORE CODESIZE DUP1 DUP1 PUSH3 0x3C6 JUMP JUMPDEST DUP4 DUP6 ADD MLOAD DUP7 SSTORE DUP12 SWAP8 SWAP1 SWAP6 ADD SWAP5 SWAP4 DUP5 ADD SWAP4 ADD DUP15 PUSH3 0x3B4 JUMP JUMPDEST SWAP1 SWAP2 POP DUP12 DUP1 MSTORE DUP11 DUP13 KECCAK256 DUP6 DUP1 DUP6 ADD PUSH1 0x5 SHR DUP3 ADD SWAP3 DUP14 DUP7 LT PUSH3 0x44F JUMPI JUMPDEST SWAP2 DUP10 SWAP2 DUP7 SWAP6 SWAP5 SWAP4 ADD PUSH1 0x5 SHR ADD SWAP2 JUMPDEST DUP3 DUP2 LT PUSH3 0x440 JUMPI POP POP PUSH3 0x124 JUMP JUMPDEST DUP15 DUP2 SSTORE DUP6 SWAP5 POP DUP10 SWAP2 ADD PUSH3 0x430 JUMP JUMPDEST SWAP3 POP DUP2 SWAP3 PUSH3 0x422 JUMP JUMPDEST PUSH4 0x4E487B71 PUSH1 0xE0 SHL DUP12 MSTORE PUSH1 0x22 PUSH1 0x4 MSTORE PUSH1 0x24 DUP12 REVERT JUMPDEST SWAP4 PUSH1 0x7F AND SWAP4 PUSH3 0x10D JUMP JUMPDEST PUSH4 0x4E487B71 PUSH1 0xE0 SHL PUSH1 0x0 MSTORE PUSH1 0x41 PUSH1 0x4 MSTORE PUSH1 0x24 PUSH1 0x0 REVERT JUMPDEST DUP9 MLOAD PUSH3 0x461BCD PUSH1 0xE5 SHL DUP2 MSTORE PUSH1 0x4 DUP2 ADD DUP8 SWAP1 MSTORE PUSH1 0x12 PUSH1 0x24 DUP3 ADD MSTORE PUSH18 0xE8E4C2C8CA40CCCACA40E8DEDE40D0D2CED PUSH1 0x73 SHL PUSH1 0x44 DUP3 ADD MSTORE PUSH1 0x64 SWAP1 REVERT JUMPDEST DUP9 MLOAD PUSH3 0x461BCD PUSH1 0xE5 SHL DUP2 MSTORE PUSH1 0x4 DUP2 ADD DUP8 SWAP1 MSTORE PUSH1 0x11 PUSH1 0x24 DUP3 ADD MSTORE PUSH17 0x1C1B185D199BDC9B481C995C5D5A5C9959 PUSH1 0x7A SHL PUSH1 0x44 DUP3 ADD MSTORE PUSH1 0x64 SWAP1 REVERT JUMPDEST DUP10 MLOAD PUSH3 0x461BCD PUSH1 0xE5 SHL DUP2 MSTORE PUSH1 0x4 DUP2 ADD DUP9 SWAP1 MSTORE PUSH1 0x10 PUSH1 0x24 DUP3 ADD MSTORE PUSH16 0x18DC99585D1BDC881C995C5D5A5C9959 PUSH1 0x82 SHL PUSH1 0x44 DUP3 ADD MSTORE PUSH1 0x64 SWAP1 REVERT JUMPDEST DUP10 MLOAD PUSH3 0x461BCD PUSH1 0xE5 SHL DUP2 MSTORE PUSH1 0x4 DUP2 ADD DUP9 SWAP1 MSTORE PUSH1 0x10 PUSH1 0x24 DUP3 ADD MSTORE PUSH16 0x199858DD1BDC9E481C995C5D5A5C9959 PUSH1 0x82 SHL PUSH1 0x44 DUP3 ADD MSTORE PUSH1 0x64 SWAP1 REVERT JUMPDEST DUP8 MLOAD PUSH3 0x461BCD PUSH1 0xE5 SHL DUP2 MSTORE PUSH1 0x4 DUP2 ADD DUP7 SWAP1 MSTORE PUSH1 0xF PUSH1 0x24 DUP3 ADD MSTORE PUSH15 0x1CDD5C1C1B1E481C995C5D5A5C9959 PUSH1 0x8A SHL PUSH1 0x44 DUP3 ADD MSTORE PUSH1 0x64 SWAP1 REVERT JUMPDEST DUP8 MLOAD PUSH3 0x461BCD PUSH1 0xE5 SHL DUP2 MSTORE PUSH1 0x4 DUP2 ADD DUP7 SWAP1 MSTORE PUSH1 0xF PUSH1 0x24 DUP3 ADD MSTORE PUSH15 0x1CDE5B589BDB081C995C5D5A5C9959 PUSH1 0x8A SHL PUSH1 0x44 DUP3 ADD MSTORE PUSH1 0x64 SWAP1 REVERT JUMPDEST DUP8 MLOAD PUSH3 0x461BCD PUSH1 0xE5 SHL DUP2 MSTORE PUSH1 0x4 DUP2 ADD DUP7 SWAP1 MSTORE PUSH1 0xD PUSH1 0x24 DUP3 ADD MSTORE PUSH13 0x1B985B59481C995C5D5A5C9959 PUSH1 0x9A SHL PUSH1 0x44 DUP3 ADD MSTORE PUSH1 0x64 SWAP1 REVERT JUMPDEST PUSH1 0x0 DUP1 REVERT JUMPDEST PUSH1 0x40 MLOAD SWAP2 SWAP1 PUSH1 0x1F ADD PUSH1 0x1F NOT AND DUP3 ADD PUSH1 0x1 PUSH1 0x1 PUSH1 0x40 SHL SUB DUP2 GT DUP4 DUP3 LT OR PUSH3 0x478 JUMPI PUSH1 0x40 MSTORE JUMP JUMPDEST SWAP2 SWAP1 DUP1 PUSH1 0x1F DUP5 ADD SLT ISZERO PUSH3 0x60D JUMPI DUP3 MLOAD PUSH1 0x1 PUSH1 0x1 PUSH1 0x40 SHL SUB DUP2 GT PUSH3 0x478 JUMPI PUSH1 0x20 SWAP1 PUSH3 0x66E PUSH1 0x1F DUP3 ADD PUSH1 0x1F NOT AND DUP4 ADD PUSH3 0x612 JUMP JUMPDEST SWAP3 DUP2 DUP5 MSTORE DUP3 DUP3 DUP8 ADD ADD GT PUSH3 0x60D JUMPI PUSH1 0x0 JUMPDEST DUP2 DUP2 LT PUSH3 0x696 JUMPI POP DUP3 PUSH1 0x0 SWAP4 SWAP5 SWAP6 POP ADD ADD MSTORE SWAP1 JUMP JUMPDEST DUP6 DUP2 ADD DUP4 ADD MLOAD DUP5 DUP3 ADD DUP5 ADD MSTORE DUP3 ADD PUSH3 0x680 JUMP JUMPDEST MLOAD SWAP1 PUSH1 0x1 PUSH1 0x1 PUSH1 0xA0 SHL SUB DUP3 AND DUP3 SUB PUSH3 0x60D JUMPI JUMP INVALID PUSH1 0x80 PUSH1 0x40 DUP2 DUP2 MSTORE PUSH1 0x4 SWAP2 DUP3 CALLDATASIZE LT ISZERO PUSH2 0x16 JUMPI PUSH1 0x0 DUP1 REVERT JUMPDEST PUSH1 0x0 SWAP3 DUP4 CALLDATALOAD PUSH1 0xE0 SHR SWAP2 DUP3 PUSH4 0x2D05D3F EQ PUSH2 0xC79 JUMPI POP DUP2 PUSH4 0x44991D8 EQ PUSH2 0xC5A JUMPI DUP2 PUSH4 0x6FDDE03 EQ PUSH2 0xB80 JUMPI DUP2 PUSH4 0x95EA7B3 EQ PUSH2 0xB0F JUMPI DUP2 PUSH4 0x17773EBB EQ PUSH2 0xAD4 JUMPI DUP2 PUSH4 0x18160DDD EQ PUSH2 0xAB5 JUMPI DUP2 PUSH4 0x1E26906B EQ PUSH2 0xA8E JUMPI DUP2 PUSH4 0x2044DBB2 EQ PUSH2 0xA71 JUMPI DUP2 PUSH4 0x22DCD13E EQ PUSH2 0xA36 JUMPI DUP2 PUSH4 0x23B872DD EQ PUSH2 0x92F JUMPI DUP2 PUSH4 0x2BEBF6BF EQ PUSH2 0x865 JUMPI DUP2 PUSH4 0x2F9F1032 EQ PUSH2 0x849 JUMPI DUP2 PUSH4 0x313CE567 EQ PUSH2 0x82D JUMPI DUP2 PUSH4 0x351FEE46 EQ PUSH2 0x769 JUMPI DUP2 PUSH4 0x42966C68 EQ PUSH2 0x68F JUMPI DUP2 PUSH4 0x5B632360 EQ PUSH2 0x672 JUMPI DUP2 PUSH4 0x5FAAD8C5 EQ PUSH2 0x637 JUMPI DUP2 PUSH4 0x70A08231 EQ PUSH2 0x5FF JUMPI DUP2 PUSH4 0x95D89B41 EQ PUSH2 0x4DC JUMPI DUP2 PUSH4 0x9E5F358A EQ PUSH2 0x4BE JUMPI DUP2 PUSH4 0xA9059CBB EQ PUSH2 0x48D JUMPI DUP2 PUSH4 0xAE36F5C8 EQ PUSH2 0x339 JUMPI DUP2 PUSH4 0xC45A0155 EQ PUSH2 0x2F5 JUMPI DUP2 PUSH4 0xDC4B1C0E EQ PUSH2 0x22B JUMPI POP DUP1 PUSH4 0xDD62ED3E EQ PUSH2 0x1E3 JUMPI DUP1 PUSH4 0xE1A45218 EQ PUSH2 0x1C7 JUMPI DUP1 PUSH4 0xEB13554F EQ PUSH2 0x184 JUMPI PUSH4 0xF242AB41 EQ PUSH2 0x159 JUMPI PUSH1 0x0 DUP1 REVERT JUMPDEST CALLVALUE PUSH2 0x180 JUMPI DUP2 PUSH1 0x3 NOT CALLDATASIZE ADD SLT PUSH2 0x180 JUMPI PUSH1 0x3 SLOAD SWAP1 MLOAD PUSH1 0x1 PUSH1 0x1 PUSH1 0xA0 SHL SUB SWAP1 SWAP2 AND DUP2 MSTORE PUSH1 0x20 SWAP1 RETURN JUMPDEST POP DUP1 REVERT JUMPDEST POP CALLVALUE PUSH2 0x180 JUMPI DUP2 PUSH1 0x3 NOT CALLDATASIZE ADD SLT PUSH2 0x180 JUMPI MLOAD PUSH32 0x0 PUSH1 0x1 PUSH1 0x1 PUSH1 0xA0 SHL SUB AND DUP2 MSTORE PUSH1 0x20 SWAP1 RETURN JUMPDEST POP CALLVALUE PUSH2 0x180 JUMPI DUP2 PUSH1 0x3 NOT CALLDATASIZE ADD SLT PUSH2 0x180 JUMPI PUSH1 0x20 SWAP1 MLOAD PUSH2 0x2710 DUP2 MSTORE RETURN JUMPDEST POP CALLVALUE PUSH2 0x180 JUMPI DUP1 PUSH1 0x3 NOT CALLDATASIZE ADD SLT PUSH2 0x180 JUMPI DUP1 PUSH1 0x20 SWAP3 PUSH2 0x200 PUSH2 0xD05 JUMP JUMPDEST PUSH2 0x208 PUSH2 0xD20 JUMP JUMPDEST PUSH1 0x1 PUSH1 0x1 PUSH1 0xA0 SHL SUB SWAP2 DUP3 AND DUP4 MSTORE PUSH1 0x7 DUP7 MSTORE DUP4 DUP4 KECCAK256 SWAP2 AND DUP3 MSTORE DUP5 MSTORE KECCAK256 SLOAD SWAP1 MLOAD SWAP1 DUP2 MSTORE RETURN JUMPDEST SWAP1 POP CALLVALUE PUSH2 0x2F1 JUMPI DUP3 PUSH1 0x3 NOT CALLDATASIZE ADD SLT PUSH2 0x2F1 JUMPI PUSH2 0x271 CALLER PUSH32 0x0 PUSH1 0x1 PUSH1 0x1 PUSH1 0xA0 SHL SUB AND EQ PUSH2 0xDD6 JUMP JUMPDEST PUSH1 0x3 SLOAD SWAP2 PUSH1 0xFF DUP4 PUSH1 0xA0 SHR AND PUSH2 0x2BA JUMPI POP POP PUSH1 0xFF PUSH1 0xA0 SHL NOT AND PUSH1 0x1 PUSH1 0xA0 SHL OR PUSH1 0x3 SSTORE CALLER PUSH32 0x60B9765CF08F04B4850CD9A0F8DA6FA9E854AFD328723CC3F6ADEA6FB4F18D23 DUP3 DUP1 LOG2 DUP1 RETURN JUMPDEST SWAP1 PUSH1 0x20 PUSH1 0x64 SWAP3 MLOAD SWAP2 PUSH3 0x461BCD PUSH1 0xE5 SHL DUP4 MSTORE DUP3 ADD MSTORE PUSH1 0x11 PUSH1 0x24 DUP3 ADD MSTORE PUSH17 0x185B1C9958591E481C995B9BDD5B98D959 PUSH1 0x7A SHL PUSH1 0x44 DUP3 ADD MSTORE REVERT JUMPDEST DUP3 DUP1 REVERT JUMPDEST POP POP CALLVALUE PUSH2 0x180 JUMPI DUP2 PUSH1 0x3 NOT CALLDATASIZE ADD SLT PUSH2 0x180 JUMPI MLOAD PUSH32 0x0 PUSH1 0x1 PUSH1 0x1 PUSH1 0xA0 SHL SUB AND DUP2 MSTORE PUSH1 0x20 SWAP1 RETURN JUMPDEST DUP4 SWAP2 POP CALLVALUE PUSH2 0x180 JUMPI PUSH1 0x20 CALLDATASIZE PUSH1 0x3 NOT ADD SLT PUSH2 0x180 JUMPI PUSH2 0x355 PUSH2 0xD05 JUMP JUMPDEST PUSH1 0x1 PUSH1 0x1 PUSH1 0xA0 SHL SUB SWAP1 DUP2 SWAP1 PUSH2 0x38D CALLER PUSH32 0x0 DUP5 AND EQ PUSH2 0xDD6 JUMP JUMPDEST AND SWAP2 DUP3 ISZERO PUSH2 0x45A JUMPI PUSH1 0x3 SLOAD SWAP2 PUSH1 0xFF DUP4 PUSH1 0xA0 SHR AND PUSH2 0x417 JUMPI DUP3 AND PUSH2 0x3E1 JUMPI POP PUSH1 0x1 PUSH1 0x1 PUSH1 0xA0 SHL SUB NOT AND DUP2 OR PUSH1 0x3 SSTORE PUSH32 0xC3CD203585FBC28DCC1692611D2EBC4190312A5B189047DF793C69B157AA0D29 DUP3 DUP1 LOG2 DUP1 RETURN JUMPDEST PUSH1 0x64 SWAP1 PUSH1 0x20 DUP7 MLOAD SWAP2 PUSH3 0x461BCD PUSH1 0xE5 SHL DUP4 MSTORE DUP3 ADD MSTORE PUSH1 0x10 PUSH1 0x24 DUP3 ADD MSTORE PUSH16 0x1C185A5C88185B1C9958591E481CD95D PUSH1 0x82 SHL PUSH1 0x44 DUP3 ADD MSTORE REVERT JUMPDEST DUP6 MLOAD PUSH3 0x461BCD PUSH1 0xE5 SHL DUP2 MSTORE PUSH1 0x20 DUP2 DUP5 ADD MSTORE PUSH1 0x19 PUSH1 0x24 DUP3 ADD MSTORE PUSH32 0x666163746F727920636F6E74726F6C2072656E6F756E63656400000000000000 PUSH1 0x44 DUP3 ADD MSTORE PUSH1 0x64 SWAP1 REVERT JUMPDEST PUSH1 0x64 SWAP1 PUSH1 0x20 DUP7 MLOAD SWAP2 PUSH3 0x461BCD PUSH1 0xE5 SHL DUP4 MSTORE DUP3 ADD MSTORE PUSH1 0xD PUSH1 0x24 DUP3 ADD MSTORE PUSH13 0x1C185A5C881C995C5D5A5C9959 PUSH1 0x9A SHL PUSH1 0x44 DUP3 ADD MSTORE REVERT JUMPDEST POP POP CALLVALUE PUSH2 0x180 JUMPI DUP1 PUSH1 0x3 NOT CALLDATASIZE ADD SLT PUSH2 0x180 JUMPI PUSH1 0x20 SWAP1 PUSH2 0x4B7 PUSH2 0x4AD PUSH2 0xD05 JUMP JUMPDEST PUSH1 0x24 CALLDATALOAD SWAP1 CALLER PUSH2 0xE31 JUMP JUMPDEST MLOAD PUSH1 0x1 DUP2 MSTORE RETURN JUMPDEST SWAP1 POP CALLVALUE PUSH2 0x2F1 JUMPI DUP3 PUSH1 0x3 NOT CALLDATASIZE ADD SLT PUSH2 0x2F1 JUMPI PUSH1 0x20 SWAP3 POP SLOAD SWAP1 MLOAD SWAP1 DUP2 MSTORE RETURN JUMPDEST DUP4 DUP4 CALLVALUE PUSH2 0x180 JUMPI DUP2 PUSH1 0x3 NOT CALLDATASIZE ADD SLT PUSH2 0x180 JUMPI DUP1 MLOAD SWAP1 DUP3 PUSH1 0x1 DUP1 SLOAD SWAP1 DUP2 PUSH1 0x1 SHR SWAP1 PUSH1 0x1 DUP4 AND SWAP3 DUP4 ISZERO PUSH2 0x5F5 JUMPI JUMPDEST PUSH1 0x20 SWAP4 DUP5 DUP5 LT DUP2 EQ PUSH2 0x5E2 JUMPI DUP4 DUP9 MSTORE SWAP1 DUP2 ISZERO PUSH2 0x5C6 JUMPI POP PUSH1 0x1 EQ PUSH2 0x570 JUMPI JUMPDEST POP POP POP DUP3 SWAP1 SUB PUSH1 0x1F ADD PUSH1 0x1F NOT AND DUP3 ADD SWAP3 PUSH8 0xFFFFFFFFFFFFFFFF DUP5 GT DUP4 DUP6 LT OR PUSH2 0x55D JUMPI POP DUP3 SWAP2 DUP3 PUSH2 0x559 SWAP3 MSTORE DUP3 PUSH2 0xCBC JUMP JUMPDEST SUB SWAP1 RETURN JUMPDEST PUSH4 0x4E487B71 PUSH1 0xE0 SHL DUP2 MSTORE PUSH1 0x41 DUP6 MSTORE PUSH1 0x24 SWAP1 REVERT JUMPDEST PUSH1 0x1 DUP8 MSTORE SWAP2 SWAP3 POP DUP6 SWAP2 DUP4 PUSH32 0xB10E2D527612073B26EECDFD717E6A320CF44B4AFAC2B0732D9FCBE2B7FA0CF6 JUMPDEST DUP4 DUP6 LT PUSH2 0x5B2 JUMPI POP POP POP POP DUP4 ADD ADD DUP6 DUP1 DUP1 PUSH2 0x527 JUMP JUMPDEST DUP1 SLOAD DUP9 DUP7 ADD DUP4 ADD MSTORE SWAP4 ADD SWAP3 DUP5 SWAP1 DUP3 ADD PUSH2 0x59C JUMP JUMPDEST PUSH1 0xFF NOT AND DUP8 DUP6 ADD MSTORE POP POP ISZERO ISZERO PUSH1 0x5 SHL DUP5 ADD ADD SWAP1 POP DUP6 DUP1 DUP1 PUSH2 0x527 JUMP JUMPDEST PUSH4 0x4E487B71 PUSH1 0xE0 SHL DUP10 MSTORE PUSH1 0x22 DUP11 MSTORE PUSH1 0x24 DUP10 REVERT JUMPDEST SWAP2 PUSH1 0x7F AND SWAP2 PUSH2 0x508 JUMP JUMPDEST POP POP CALLVALUE PUSH2 0x180 JUMPI PUSH1 0x20 CALLDATASIZE PUSH1 0x3 NOT ADD SLT PUSH2 0x180 JUMPI PUSH1 0x20 SWAP2 DUP2 SWAP1 PUSH1 0x1 PUSH1 0x1 PUSH1 0xA0 SHL SUB PUSH2 0x627 PUSH2 0xD05 JUMP JUMPDEST AND DUP2 MSTORE PUSH1 0x6 DUP5 MSTORE KECCAK256 SLOAD SWAP1 MLOAD SWAP1 DUP2 MSTORE RETURN JUMPDEST POP POP CALLVALUE PUSH2 0x180 JUMPI DUP2 PUSH1 0x3 NOT CALLDATASIZE ADD SLT PUSH2 0x180 JUMPI PUSH1 0x20 SWAP1 MLOAD PUSH32 0x0 DUP2 MSTORE RETURN JUMPDEST POP POP CALLVALUE PUSH2 0x180 JUMPI DUP2 PUSH1 0x3 NOT CALLDATASIZE ADD SLT PUSH2 0x180 JUMPI PUSH1 0x20 SWAP1 MLOAD PUSH2 0x3E8 DUP2 MSTORE RETURN JUMPDEST SWAP1 POP CALLVALUE PUSH2 0x2F1 JUMPI PUSH1 0x20 SWAP3 DUP4 PUSH1 0x3 NOT CALLDATASIZE ADD SLT PUSH2 0x766 JUMPI DUP2 CALLDATALOAD SWAP2 DUP3 ISZERO PUSH2 0x731 JUMPI POP CALLER DUP2 MSTORE PUSH1 0x6 DUP5 MSTORE PUSH2 0x6CE DUP3 DUP5 DUP4 KECCAK256 SLOAD PUSH2 0x6C9 DUP3 DUP3 LT ISZERO PUSH2 0xD98 JUMP JUMPDEST PUSH2 0xD36 JUMP JUMPDEST CALLER DUP3 MSTORE PUSH1 0x6 DUP6 MSTORE DUP4 DUP3 KECCAK256 SSTORE PUSH2 0x6E5 DUP3 PUSH1 0x2 SLOAD PUSH2 0xD36 JUMP JUMPDEST PUSH1 0x2 SSTORE DUP3 MLOAD DUP3 DUP2 MSTORE PUSH1 0x0 DUP1 MLOAD PUSH1 0x20 PUSH2 0x10F3 DUP4 CODECOPY DUP2 MLOAD SWAP2 MSTORE DUP6 CALLER SWAP3 LOG3 DUP2 MLOAD SWAP1 DUP2 MSTORE PUSH32 0xCC16F5DBB4873280815C1EE09DBD06736CFFCC184412CF7A71A0FDB75D397CA5 DUP4 CALLER SWAP3 LOG2 MLOAD PUSH1 0x1 DUP2 MSTORE RETURN JUMPDEST DUP4 MLOAD PUSH3 0x461BCD PUSH1 0xE5 SHL DUP2 MSTORE SWAP1 DUP2 ADD DUP6 SWAP1 MSTORE PUSH1 0xF PUSH1 0x24 DUP3 ADD MSTORE PUSH15 0x185B5BDD5B9D081C995C5D5A5C9959 PUSH1 0x8A SHL PUSH1 0x44 DUP3 ADD MSTORE PUSH1 0x64 SWAP1 REVERT JUMPDEST DUP1 REVERT JUMPDEST DUP4 DUP4 CALLVALUE PUSH2 0x180 JUMPI DUP2 PUSH1 0x3 NOT CALLDATASIZE ADD SLT PUSH2 0x180 JUMPI PUSH32 0x0 PUSH1 0x1 PUSH1 0x1 PUSH1 0xA0 SHL SUB DUP2 AND SWAP1 CALLER DUP3 SWAP1 SUB PUSH2 0x7FB JUMPI DUP5 PUSH2 0x7CD SWAP2 PUSH1 0x20 SWAP7 SLOAD SWAP6 DUP7 SWAP3 PUSH2 0x7C6 DUP5 ISZERO ISZERO PUSH2 0xD59 JUMP JUMPDEST SSTORE ADDRESS PUSH2 0x1010 JUMP JUMPDEST PUSH32 0xD046302BDC39599E60A5981E59227DCD1C643F512F56F2E984390C3AC6EADEDB DUP5 DUP4 MLOAD DUP6 DUP2 MSTORE LOG2 MLOAD SWAP1 DUP2 MSTORE RETURN JUMPDEST DUP3 MLOAD PUSH3 0x461BCD PUSH1 0xE5 SHL DUP2 MSTORE PUSH1 0x20 DUP2 DUP8 ADD MSTORE PUSH1 0xC PUSH1 0x24 DUP3 ADD MSTORE PUSH12 0x37B7363C9031B932B0BA37B9 PUSH1 0xA1 SHL PUSH1 0x44 DUP3 ADD MSTORE PUSH1 0x64 SWAP1 REVERT JUMPDEST POP POP CALLVALUE PUSH2 0x180 JUMPI DUP2 PUSH1 0x3 NOT CALLDATASIZE ADD SLT PUSH2 0x180 JUMPI PUSH1 0x20 SWAP1 MLOAD PUSH1 0x12 DUP2 MSTORE RETURN JUMPDEST POP POP CALLVALUE PUSH2 0x180 JUMPI DUP2 PUSH1 0x3 NOT CALLDATASIZE ADD SLT PUSH2 0x180 JUMPI PUSH1 0x20 SWAP1 MLOAD PUSH1 0x32 DUP2 MSTORE RETURN JUMPDEST SWAP2 SWAP1 POP CALLVALUE PUSH2 0x2F1 JUMPI DUP3 PUSH1 0x3 NOT CALLDATASIZE ADD SLT PUSH2 0x2F1 JUMPI PUSH32 0x0 SWAP2 PUSH1 0x1 PUSH1 0x1 PUSH1 0xA0 SHL SUB DUP4 AND SWAP1 CALLER DUP3 SWAP1 SUB PUSH2 0x8FC JUMPI POP PUSH2 0x8CE PUSH1 0x20 SWAP5 PUSH1 0x5 SLOAD SWAP5 DUP6 SWAP2 PUSH2 0x8C5 DUP4 ISZERO ISZERO PUSH2 0xD59 JUMP JUMPDEST PUSH1 0x5 SSTORE ADDRESS PUSH2 0x1010 JUMP JUMPDEST PUSH32 0x636F1043CFF5F4C437926A4412416778DDC5E970FEB177685B587E81DAD9095 DUP5 DUP4 MLOAD DUP6 DUP2 MSTORE LOG2 MLOAD SWAP1 DUP2 MSTORE RETURN JUMPDEST PUSH1 0x64 SWAP1 PUSH1 0x20 DUP5 MLOAD SWAP2 PUSH3 0x461BCD PUSH1 0xE5 SHL DUP4 MSTORE DUP3 ADD MSTORE PUSH1 0xD PUSH1 0x24 DUP3 ADD MSTORE PUSH13 0x6F6E6C7920706C6174666F726D PUSH1 0x98 SHL PUSH1 0x44 DUP3 ADD MSTORE REVERT JUMPDEST SWAP2 SWAP1 POP CALLVALUE PUSH2 0x2F1 JUMPI PUSH1 0x60 CALLDATASIZE PUSH1 0x3 NOT ADD SLT PUSH2 0x2F1 JUMPI PUSH2 0x94B PUSH2 0xD05 JUMP JUMPDEST PUSH2 0x953 PUSH2 0xD20 JUMP JUMPDEST PUSH1 0x44 CALLDATALOAD SWAP2 PUSH1 0x1 DUP1 PUSH1 0xA0 SHL SUB DUP2 AND DUP1 DUP8 MSTORE PUSH1 0x20 SWAP6 PUSH1 0x7 DUP8 MSTORE DUP6 DUP9 KECCAK256 CALLER DUP10 MSTORE DUP8 MSTORE DUP6 DUP9 KECCAK256 SLOAD SWAP1 DUP6 DUP3 LT PUSH2 0x9FE JUMPI POP SWAP5 DUP1 SWAP7 SWAP8 PUSH2 0x4B7 SWAP7 DUP7 PUSH1 0x0 NOT DUP3 SUB PUSH2 0x99C JUMPI JUMPDEST POP POP POP POP POP PUSH2 0xE31 JUMP JUMPDEST PUSH2 0x9A5 SWAP2 PUSH2 0xD36 JUMP JUMPDEST DUP4 DUP3 MSTORE PUSH1 0x7 DUP11 MSTORE DUP3 DUP3 KECCAK256 CALLER DUP4 MSTORE DUP11 MSTORE DUP3 DUP3 KECCAK256 SSTORE DUP3 DUP2 MSTORE PUSH1 0x7 DUP10 MSTORE DUP2 DUP2 KECCAK256 CALLER DUP3 MSTORE DUP10 MSTORE KECCAK256 SLOAD SWAP1 DUP7 MLOAD SWAP2 DUP3 MSTORE PUSH32 0x8C5BE1E5EBEC7D5BD14F71427D1E84F3DD0314C0F7B2291E5B200AC8C7C3B925 DUP9 CALLER SWAP4 LOG3 CODESIZE DUP6 DUP2 DUP1 DUP7 PUSH2 0x992 JUMP JUMPDEST DUP7 MLOAD PUSH3 0x461BCD PUSH1 0xE5 SHL DUP2 MSTORE SWAP1 DUP2 ADD DUP9 SWAP1 MSTORE PUSH1 0x12 PUSH1 0x24 DUP3 ADD MSTORE PUSH18 0x185B1B1BDDD85B98D948195E18D959591959 PUSH1 0x72 SHL PUSH1 0x44 DUP3 ADD MSTORE PUSH1 0x64 SWAP1 REVERT JUMPDEST POP POP CALLVALUE PUSH2 0x180 JUMPI DUP2 PUSH1 0x3 NOT CALLDATASIZE ADD SLT PUSH2 0x180 JUMPI PUSH1 0x20 SWAP1 MLOAD PUSH32 0x0 DUP2 MSTORE RETURN JUMPDEST POP POP CALLVALUE PUSH2 0x180 JUMPI DUP2 PUSH1 0x3 NOT CALLDATASIZE ADD SLT PUSH2 0x180 JUMPI PUSH1 0x20 SWAP1 MLOAD PUSH2 0xFA0 DUP2 MSTORE RETURN JUMPDEST POP POP CALLVALUE PUSH2 0x180 JUMPI DUP2 PUSH1 0x3 NOT CALLDATASIZE ADD SLT PUSH2 0x180 JUMPI PUSH1 0x20 SWAP1 PUSH1 0xFF PUSH1 0x3 SLOAD PUSH1 0xA0 SHR AND SWAP1 MLOAD SWAP1 ISZERO ISZERO DUP2 MSTORE RETURN JUMPDEST POP POP CALLVALUE PUSH2 0x180 JUMPI DUP2 PUSH1 0x3 NOT CALLDATASIZE ADD SLT PUSH2 0x180 JUMPI PUSH1 0x20 SWAP1 PUSH1 0x2 SLOAD SWAP1 MLOAD SWAP1 DUP2 MSTORE RETURN JUMPDEST POP POP CALLVALUE PUSH2 0x180 JUMPI DUP2 PUSH1 0x3 NOT CALLDATASIZE ADD SLT PUSH2 0x180 JUMPI PUSH1 0x20 SWAP1 MLOAD PUSH32 0x0 DUP2 MSTORE RETURN JUMPDEST POP POP CALLVALUE PUSH2 0x180 JUMPI DUP1 PUSH1 0x3 NOT CALLDATASIZE ADD SLT PUSH2 0x180 JUMPI PUSH1 0x20 SWAP2 DUP2 PUSH2 0xB2D PUSH2 0xD05 JUMP JUMPDEST SWAP2 PUSH1 0x24 CALLDATALOAD SWAP2 DUP3 SWAP2 CALLER DUP2 MSTORE PUSH1 0x7 DUP8 MSTORE DUP2 DUP2 KECCAK256 SWAP5 PUSH1 0x1 DUP1 PUSH1 0xA0 SHL SUB AND SWAP5 DUP6 DUP3 MSTORE DUP8 MSTORE KECCAK256 SSTORE DUP3 MLOAD SWAP1 DUP2 MSTORE PUSH32 0x8C5BE1E5EBEC7D5BD14F71427D1E84F3DD0314C0F7B2291E5B200AC8C7C3B925 DUP5 CALLER SWAP3 LOG3 MLOAD PUSH1 0x1 DUP2 MSTORE RETURN JUMPDEST DUP4 DUP4 CALLVALUE PUSH2 0x180 JUMPI DUP2 PUSH1 0x3 NOT CALLDATASIZE ADD SLT PUSH2 0x180 JUMPI DUP1 MLOAD SWAP1 DUP3 DUP4 SLOAD PUSH1 0x1 DUP2 PUSH1 0x1 SHR SWAP1 PUSH1 0x1 DUP4 AND SWAP3 DUP4 ISZERO PUSH2 0xC50 JUMPI JUMPDEST PUSH1 0x20 SWAP4 DUP5 DUP5 LT DUP2 EQ PUSH2 0x5E2 JUMPI DUP4 DUP9 MSTORE SWAP1 DUP2 ISZERO PUSH2 0x5C6 JUMPI POP PUSH1 0x1 EQ PUSH2 0xBFB JUMPI POP POP POP DUP3 SWAP1 SUB PUSH1 0x1F ADD PUSH1 0x1F NOT AND DUP3 ADD SWAP3 PUSH8 0xFFFFFFFFFFFFFFFF DUP5 GT DUP4 DUP6 LT OR PUSH2 0x55D JUMPI POP DUP3 SWAP2 DUP3 PUSH2 0x559 SWAP3 MSTORE DUP3 PUSH2 0xCBC JUMP JUMPDEST DUP7 DUP1 MSTORE SWAP2 SWAP3 POP DUP6 SWAP2 DUP4 PUSH32 0x290DECD9548B62A8D60345A988386FC84BA6BC95484008F6362F93160EF3E563 JUMPDEST DUP4 DUP6 LT PUSH2 0xC3C JUMPI POP POP POP POP DUP4 ADD ADD DUP6 DUP1 DUP1 PUSH2 0x527 JUMP JUMPDEST DUP1 SLOAD DUP9 DUP7 ADD DUP4 ADD MSTORE SWAP4 ADD SWAP3 DUP5 SWAP1 DUP3 ADD PUSH2 0xC26 JUMP JUMPDEST SWAP2 PUSH1 0x7F AND SWAP2 PUSH2 0xBAB JUMP JUMPDEST POP POP CALLVALUE PUSH2 0x180 JUMPI DUP2 PUSH1 0x3 NOT CALLDATASIZE ADD SLT PUSH2 0x180 JUMPI PUSH1 0x20 SWAP1 PUSH1 0x5 SLOAD SWAP1 MLOAD SWAP1 DUP2 MSTORE RETURN JUMPDEST DUP5 SWAP1 CALLVALUE PUSH2 0x180 JUMPI DUP2 PUSH1 0x3 NOT CALLDATASIZE ADD SLT PUSH2 0x180 JUMPI PUSH32 0x0 PUSH1 0x1 PUSH1 0x1 PUSH1 0xA0 SHL SUB AND DUP2 MSTORE PUSH1 0x20 SWAP1 RETURN JUMPDEST PUSH1 0x20 DUP1 DUP3 MSTORE DUP3 MLOAD DUP2 DUP4 ADD DUP2 SWAP1 MSTORE SWAP1 SWAP4 SWAP3 PUSH1 0x0 JUMPDEST DUP3 DUP2 LT PUSH2 0xCF1 JUMPI POP POP PUSH1 0x40 SWAP3 SWAP4 POP PUSH1 0x0 DUP4 DUP3 DUP5 ADD ADD MSTORE PUSH1 0x1F DUP1 NOT SWAP2 ADD AND ADD ADD SWAP1 JUMP JUMPDEST DUP2 DUP2 ADD DUP7 ADD MLOAD DUP5 DUP3 ADD PUSH1 0x40 ADD MSTORE DUP6 ADD PUSH2 0xCCF JUMP JUMPDEST PUSH1 0x4 CALLDATALOAD SWAP1 PUSH1 0x1 PUSH1 0x1 PUSH1 0xA0 SHL SUB DUP3 AND DUP3 SUB PUSH2 0xD1B JUMPI JUMP JUMPDEST PUSH1 0x0 DUP1 REVERT JUMPDEST PUSH1 0x24 CALLDATALOAD SWAP1 PUSH1 0x1 PUSH1 0x1 PUSH1 0xA0 SHL SUB DUP3 AND DUP3 SUB PUSH2 0xD1B JUMPI JUMP JUMPDEST SWAP2 SWAP1 DUP3 SUB SWAP2 DUP3 GT PUSH2 0xD43 JUMPI JUMP JUMPDEST PUSH4 0x4E487B71 PUSH1 0xE0 SHL PUSH1 0x0 MSTORE PUSH1 0x11 PUSH1 0x4 MSTORE PUSH1 0x24 PUSH1 0x0 REVERT JUMPDEST ISZERO PUSH2 0xD60 JUMPI JUMP JUMPDEST PUSH1 0x40 MLOAD PUSH3 0x461BCD PUSH1 0xE5 SHL DUP2 MSTORE PUSH1 0x20 PUSH1 0x4 DUP3 ADD MSTORE PUSH1 0x10 PUSH1 0x24 DUP3 ADD MSTORE PUSH16 0x6E6F7468696E6720746F20636C61696D PUSH1 0x80 SHL PUSH1 0x44 DUP3 ADD MSTORE PUSH1 0x64 SWAP1 REVERT JUMPDEST ISZERO PUSH2 0xD9F JUMPI JUMP JUMPDEST PUSH1 0x40 MLOAD PUSH3 0x461BCD PUSH1 0xE5 SHL DUP2 MSTORE PUSH1 0x20 PUSH1 0x4 DUP3 ADD MSTORE PUSH1 0xF PUSH1 0x24 DUP3 ADD MSTORE PUSH15 0x62616C616E636520746F6F206C6F77 PUSH1 0x88 SHL PUSH1 0x44 DUP3 ADD MSTORE PUSH1 0x64 SWAP1 REVERT JUMPDEST ISZERO PUSH2 0xDDD JUMPI JUMP JUMPDEST PUSH1 0x40 MLOAD PUSH3 0x461BCD PUSH1 0xE5 SHL DUP2 MSTORE PUSH1 0x20 PUSH1 0x4 DUP3 ADD MSTORE PUSH1 0xC PUSH1 0x24 DUP3 ADD MSTORE PUSH12 0x6F6E6C7920666163746F7279 PUSH1 0xA0 SHL PUSH1 0x44 DUP3 ADD MSTORE PUSH1 0x64 SWAP1 REVERT JUMPDEST DUP2 DUP2 MUL SWAP3 SWAP2 DUP2 ISZERO SWAP2 DUP5 DIV EQ OR ISZERO PUSH2 0xD43 JUMPI JUMP JUMPDEST SWAP2 SWAP1 DUP3 ADD DUP1 SWAP3 GT PUSH2 0xD43 JUMPI JUMP JUMPDEST PUSH1 0x1 PUSH1 0x1 PUSH1 0xA0 SHL SUB DUP1 DUP4 AND SWAP4 SWAP2 SWAP3 SWAP1 DUP5 ISZERO PUSH2 0xFDC JUMPI DUP4 AND SWAP3 PUSH1 0x0 SWAP2 DUP5 DUP4 MSTORE PUSH1 0x20 SWAP3 PUSH1 0x6 DUP5 MSTORE PUSH1 0x40 SWAP2 PUSH2 0xE74 DUP4 DUP4 KECCAK256 SLOAD SWAP2 PUSH2 0xE6D DUP9 DUP5 LT ISZERO PUSH2 0xD98 JUMP JUMPDEST DUP8 SWAP6 PUSH2 0x10B6 JUMP JUMPDEST DUP1 PUSH2 0xFD3 JUMPI JUMPDEST PUSH2 0xEBD JUMPI JUMPDEST SWAP1 PUSH2 0xE9A PUSH1 0x0 DUP1 MLOAD PUSH1 0x20 PUSH2 0x10F3 DUP4 CODECOPY DUP2 MLOAD SWAP2 MSTORE SWAP7 DUP5 SWAP4 PUSH2 0xD36 JUMP JUMPDEST DUP8 DUP3 MSTORE PUSH1 0x6 DUP7 MSTORE DUP3 DUP3 KECCAK256 SSTORE DUP8 DUP2 MSTORE KECCAK256 PUSH2 0xEB4 DUP4 DUP3 SLOAD PUSH2 0xE24 JUMP JUMPDEST SWAP1 SSTORE MLOAD SWAP1 DUP2 MSTORE LOG3 JUMP JUMPDEST PUSH2 0x2710 DUP9 DUP9 DUP3 PUSH2 0xEED PUSH32 0x0 DUP12 PUSH2 0xE11 JUMP JUMPDEST DIV SWAP3 DUP4 PUSH2 0xEFE JUMPI JUMPDEST POP POP POP POP PUSH2 0xE7F JUMP JUMPDEST DUP7 SWAP6 SWAP5 SWAP4 SWAP8 POP PUSH32 0x0 PUSH2 0xF2F SWAP1 DUP12 PUSH2 0xE11 JUMP JUMPDEST DIV DUP6 DUP9 DUP11 DUP5 DUP14 PUSH2 0xF3F DUP7 DUP6 PUSH2 0xD36 JUMP JUMPDEST SWAP4 PUSH2 0xF49 SWAP2 PUSH2 0xD36 JUMP JUMPDEST SWAP12 DUP6 PUSH1 0x4 SLOAD SWAP1 PUSH2 0xF58 SWAP2 PUSH2 0xE24 JUMP JUMPDEST PUSH1 0x4 SSTORE DUP4 PUSH1 0x5 SLOAD SWAP1 PUSH2 0xF69 SWAP2 PUSH2 0xE24 JUMP JUMPDEST PUSH1 0x5 SSTORE ADDRESS DUP11 MSTORE PUSH1 0x6 DUP4 MSTORE DUP5 DUP11 KECCAK256 DUP2 DUP2 SLOAD SWAP1 PUSH2 0xF83 SWAP2 PUSH2 0xE24 JUMP JUMPDEST SWAP1 SSTORE DUP5 MLOAD SWAP1 DUP2 MSTORE ADDRESS SWAP3 PUSH1 0x0 DUP1 MLOAD PUSH1 0x20 PUSH2 0x10F3 DUP4 CODECOPY DUP2 MLOAD SWAP2 MSTORE SWAP2 LOG3 DUP2 MLOAD SWAP3 DUP4 MSTORE DUP11 DUP4 ADD MSTORE PUSH32 0x93BD139EA85D53C55E02DEC709128F827EBD5CB8A4A0D873193711B70B0A15B9 SWAP2 LOG3 SWAP1 SWAP2 DUP9 DUP9 CODESIZE PUSH2 0xEF5 JUMP JUMPDEST POP DUP6 ISZERO ISZERO PUSH2 0xE7A JUMP JUMPDEST PUSH1 0x40 MLOAD PUSH3 0x461BCD PUSH1 0xE5 SHL DUP2 MSTORE PUSH1 0x20 PUSH1 0x4 DUP3 ADD MSTORE PUSH1 0xC PUSH1 0x24 DUP3 ADD MSTORE PUSH12 0x7A65726F2061646472657373 PUSH1 0xA0 SHL PUSH1 0x44 DUP3 ADD MSTORE PUSH1 0x64 SWAP1 REVERT JUMPDEST PUSH1 0x1 DUP1 PUSH1 0xA0 SHL SUB DUP1 SWAP2 AND SWAP2 PUSH1 0x0 SWAP4 DUP4 DUP6 MSTORE PUSH1 0x6 PUSH1 0x20 MSTORE PUSH1 0x40 DUP6 KECCAK256 SLOAD DUP2 DUP2 LT PUSH2 0x1078 JUMPI PUSH1 0x0 DUP1 MLOAD PUSH1 0x20 PUSH2 0x10F3 DUP4 CODECOPY DUP2 MLOAD SWAP2 MSTORE SWAP4 PUSH1 0x20 SWAP4 PUSH2 0x1051 DUP5 PUSH1 0x40 SWAP5 PUSH2 0xD36 JUMP JUMPDEST DUP8 DUP10 MSTORE PUSH1 0x6 DUP7 MSTORE DUP4 DUP10 KECCAK256 SSTORE AND SWAP6 DUP7 DUP2 MSTORE KECCAK256 PUSH2 0x106D DUP3 DUP3 SLOAD PUSH2 0xE24 JUMP JUMPDEST SWAP1 SSTORE PUSH1 0x40 MLOAD SWAP1 DUP2 MSTORE LOG3 JUMP JUMPDEST PUSH1 0x40 MLOAD PUSH3 0x461BCD PUSH1 0xE5 SHL DUP2 MSTORE PUSH1 0x20 PUSH1 0x4 DUP3 ADD MSTORE PUSH1 0x16 PUSH1 0x24 DUP3 ADD MSTORE PUSH22 0x1A5B9CDD59999A58DA595B9D08199959481D985D5B1D PUSH1 0x52 SHL PUSH1 0x44 DUP3 ADD MSTORE PUSH1 0x64 SWAP1 REVERT JUMPDEST PUSH1 0x3 SLOAD PUSH1 0x1 PUSH1 0x1 PUSH1 0xA0 SHL SUB SWAP1 DUP2 AND SWAP2 DUP3 ISZERO PUSH2 0x10E9 JUMPI DUP2 AND DUP3 EQ SWAP3 DUP4 ISZERO PUSH2 0x10DD JUMPI JUMPDEST POP POP POP SWAP1 JUMP JUMPDEST AND EQ SWAP1 POP CODESIZE DUP1 DUP1 PUSH2 0x10D7 JUMP JUMPDEST POP POP POP POP PUSH1 0x0 SWAP1 JUMP INVALID 0xDD CALLCODE MSTORE 0xAD SHL 0xE2 0xC8 SWAP12 PUSH10 0xC2B068FC378DAA952BA7 CALL PUSH4 0xC4A11628 CREATE2 GAS 0x4D CREATE2 0x23 0xB3 0xEF LOG2 PUSH5 0x6970667358 0x22 SLT KECCAK256 PREVRANDAO 0xFC 0xB1 0x4B EXTCODEHASH PUSH29 0xB8A9286ECA6BF592A4F3CAF9627E236F36D27101F0273E8F794E64736F PUSH13 0x6343000818003363726561746F PUSH19 0x207472616E73666572206661696C6564000000 STOP STOP STOP STOP STOP STOP DIV PUSH30 0x6CD3E0239E764A392DB701C655FEA8A19D6D059350EC7D8DF5DC84004320 DUP7 KECCAK256 BLOBHASH 0x4F SWAP3 SMOD PUSH2 0xBD37 ORIGIN SAR 0xDD 0x1F SLT MCOPY ADDMOD TSTORE DUP2 TIMESTAMP PUSH9 0x20D3CA4E8B1F0AB3DA 0xB7 0xA5 PUSH25 0xA2646970667358221220E571C896093F1D59C0A97934C00F0F PUSH7 0xD7AB77059DB4D6 LOG1 EXTCODEHASH SWAP3 0xEC 0xB6 CREATE PUSH24 0xCC0C64736F6C634300081800330000000000000000000000 "},"methodIdentifiers":{"BPS_DENOMINATOR()":"e1a45218","BURN_ADDRESS()":"fccc2813","DEFAULT_TOKEN_TRADE_FEE_BPS()":"4a9ddfdd","FIXED_TOTAL_SUPPLY()":"b3602acd","MAX_TOKEN_TRADE_FEE_BPS()":"39cbfa1f","ROBINHOOD_CHAIN_ID()":"80fa02f7","createLaunch(string,string,string,string,uint256,uint256)":"1036338c","createLaunchInstant(string,string,string,string,uint256,uint256)":"96875aa0","createLaunchInstantWithTax(string,string,string,string,uint256,uint256,uint256)":"f0181892","createLaunchLiveDexCurve(string,string,string,string,uint256,uint256)":"5de3bafb","createLaunchLiveDexCurveWithTax(string,string,string,string,uint256,uint256,uint256)":"fd04bbac","createLaunchWithTax(string,string,string,string,uint256,uint256,uint256)":"3c0f4305","defaultDexRouter()":"d578192c","defaultFeeBps()":"bcae25a4","defaultGraduationTargetEth()":"63f0eb04","defaultLpRecipient()":"13ed4aa6","defaultV3Fee()":"150004eb","defaultV3PositionManager()":"0261ef92","defaultVirtualEthReserve()":"1c8c0d92","defaultVirtualTokenReserve()":"93a8e04d","feeRecipient()":"46904840","getLaunch(uint256)":"5930d3ce","getLaunchCount()":"9ff0251f","getLaunches(uint256,uint256)":"9b3b9f98","launchFeeWei()":"83eeb3bb","owner()":"8da5cb5b","platformFeeRecipient()":"eb13554f","poolByToken(address)":"0b0420bb","setDefaults(address,address,uint256,uint256,uint256,uint256,uint256,address,address,address,uint24)":"eb487999","transferOwnership(address)":"f2fde38b"}}}}}