{"contracts/mocks/MockDex.sol":{"MockV3PositionManager":{"abi":[{"inputs":[{"internalType":"address","name":"_weth","type":"address"}],"stateMutability":"nonpayable","type":"constructor"},{"anonymous":false,"inputs":[{"indexed":true,"internalType":"address","name":"from","type":"address"},{"indexed":true,"internalType":"address","name":"to","type":"address"},{"indexed":true,"internalType":"uint256","name":"tokenId","type":"uint256"}],"name":"Transfer","type":"event"},{"inputs":[],"name":"WETH9","outputs":[{"internalType":"address","name":"","type":"address"}],"stateMutability":"view","type":"function"},{"inputs":[{"internalType":"address","name":"token0","type":"address"},{"internalType":"address","name":"token1","type":"address"},{"internalType":"uint24","name":"fee","type":"uint24"},{"internalType":"uint160","name":"sqrtPriceX96","type":"uint160"}],"name":"createAndInitializePoolIfNecessary","outputs":[{"internalType":"address","name":"pool","type":"address"}],"stateMutability":"payable","type":"function"},{"inputs":[{"components":[{"internalType":"address","name":"token0","type":"address"},{"internalType":"address","name":"token1","type":"address"},{"internalType":"uint24","name":"fee","type":"uint24"},{"internalType":"int24","name":"tickLower","type":"int24"},{"internalType":"int24","name":"tickUpper","type":"int24"},{"internalType":"uint256","name":"amount0Desired","type":"uint256"},{"internalType":"uint256","name":"amount1Desired","type":"uint256"},{"internalType":"uint256","name":"amount0Min","type":"uint256"},{"internalType":"uint256","name":"amount1Min","type":"uint256"},{"internalType":"address","name":"recipient","type":"address"},{"internalType":"uint256","name":"deadline","type":"uint256"}],"internalType":"struct MockV3PositionManager.MintParams","name":"params","type":"tuple"}],"name":"mint","outputs":[{"internalType":"uint256","name":"tokenId","type":"uint256"},{"internalType":"uint128","name":"liquidity","type":"uint128"},{"internalType":"uint256","name":"amount0","type":"uint256"},{"internalType":"uint256","name":"amount1","type":"uint256"}],"stateMutability":"payable","type":"function"},{"inputs":[],"name":"nextTokenId","outputs":[{"internalType":"uint256","name":"","type":"uint256"}],"stateMutability":"view","type":"function"},{"inputs":[{"internalType":"uint256","name":"tokenId","type":"uint256"}],"name":"ownerOf","outputs":[{"internalType":"address","name":"owner","type":"address"}],"stateMutability":"view","type":"function"},{"inputs":[{"internalType":"bytes32","name":"key","type":"bytes32"}],"name":"pools","outputs":[{"internalType":"address","name":"pool","type":"address"}],"stateMutability":"view","type":"function"},{"inputs":[{"internalType":"address","name":"from","type":"address"},{"internalType":"address","name":"to","type":"address"},{"internalType":"uint256","name":"tokenId","type":"uint256"}],"name":"transferFrom","outputs":[],"stateMutability":"nonpayable","type":"function"}],"evm":{"bytecode":{"linkReferences":{},"object":"60a0346100aa57601f610c2138819003918201601f19168301916001600160401b038311848410176100af578084926020946040528339810103126100aa57516001600160a01b0381168082036100aa5760016000551561007557608052604051610b5b90816100c682396080518161047e0152f35b60405162461bcd60e51b815260206004820152600d60248201526c1dd95d1a081c995c5d5a5c9959609a1b6044820152606490fd5b600080fd5b634e487b7160e01b600052604160045260246000fdfe6040608081526004908136101561001557600080fd5b600091823560e01c806313ead562146105a157806323b872dd146104ad5780634aa4a4fc146104695780636352211e1461043757806375794a3c1461041a57806388316456146100a35763b5217bb41461006e57600080fd5b3461009f57602036600319011261009f5735825260016020908152918190205490516001600160a01b039091168152f35b8280fd5b509190610160366003190112610416576001600160a01b0390816100c56106ed565b16156103df576100d3610704565b6100db61071a565b6044359162ffffff831683036103db57906100f69291610780565b83526020906001825282818520541680156103a85760a4359260c4359484151580610327575b8661024e575b1561024857845b6fffffffffffffffffffffffffffffffff90818111156102435750805b1692803b1561023f57878460248b838951958694859363384f4ca960e11b85528401525af1801561023557610207575b5086549060001982146101f4576080985081906001820189556101976106ed565b828a526002855281878b2091166001600160601b0360a01b8254161790556101bd6106ed565b168551987fddf252ad1be2c89b69c2b068fc378daa952ba7f163c4a11628f55a4df523b3ef8180a486528501528301526060820152f35b634e487b7160e01b885260118952602488fd5b67ffffffffffffffff81989298116102225784529538610176565b634e487b7160e01b825260418952602482fd5b85513d8a823e3d90fd5b8780fd5b610146565b85610129565b61029d83888b878c8761025f61071a565b8c516323b872dd60e01b8152339581019586526001600160a01b03909416602086015260408501959095529195869492909216928492839160600190565b03925af190811561031d5789916102f0575b5061012257845162461bcd60e51b8152808a0184905260166024820152751d1bdad95b8c481d1c985b9cd9995c8819985a5b195960521b6044820152606490fd5b6103109150843d8611610316575b6103088183610730565b810190610768565b386102af565b503d6102fe565b86513d8b823e3d90fd5b61033883878b878c8761025f610704565b03925af190811561031d57899161038b575b5061011c57845162461bcd60e51b8152808a0184905260166024820152751d1bdad95b8c081d1c985b9cd9995c8819985a5b195960521b6044820152606490fd5b6103a29150843d8611610316576103088183610730565b3861034a565b815162461bcd60e51b8152808701849052600d60248201526c1c1bdbdb081c995c5d5a5c9959609a1b6044820152606490fd5b8580fd5b5162461bcd60e51b815260208185015260126024820152711c9958da5c1a595b9d081c995c5d5a5c995960721b6044820152606490fd5b5080fd5b505034610416578160031936011261041657602091549051908152f35b503461009f57602036600319011261009f5735825260026020908152918190205490516001600160a01b039091168152f35b505034610416578160031936011261041657517f00000000000000000000000000000000000000000000000000000000000000006001600160a01b03168152602090f35b503461009f57606036600319011261009f576104c76106bc565b6104cf6106d7565b9160443593848652600260205260018060a01b039182808389205416941680940361057357833303610542575084865260026020528520921691826001600160601b0360a01b8254161790557fddf252ad1be2c89b69c2b068fc378daa952ba7f163c4a11628f55a4df523b3ef8480a480f35b6020606492519162461bcd60e51b8352820152600c60248201526b1b9bdd08185c1c1c9bdd995960a21b6044820152fd5b6020606492519162461bcd60e51b835282015260096024820152683737ba1037bbb732b960b91b6044820152fd5b5090608036600319011261009f576105b76106bc565b906105c06106d7565b926044359262ffffff8416918285036106b8576001600160a01b039460643586811691908290036106b4576105f6908885610780565b93848952600160205286868a205416978815610619575b60208989895191168152f35b909192939497508551946103598087019587871067ffffffffffffffff8811176106a1575086949289608097959381936107cd893916855216602084015286830152606082015203019085f0801561069757602094838392169481526001865220836001600160601b0360a01b82541617905538808080808061060d565b81513d86823e3d90fd5b634e487b7160e01b8c526041905260248bfd5b8880fd5b8680fd5b600435906001600160a01b03821682036106d257565b600080fd5b602435906001600160a01b03821682036106d257565b610124356001600160a01b03811681036106d25790565b6004356001600160a01b03811681036106d25790565b6024356001600160a01b03811681036106d25790565b90601f8019910116810190811067ffffffffffffffff82111761075257604052565b634e487b7160e01b600052604160045260246000fd5b908160209103126106d2575180151581036106d25790565b909162ffffff9060405192602084019460018060a01b038092168652166040840152166060820152606081526080810181811067ffffffffffffffff821117610752576040525190209056fe60e0346100c257601f61035938819003918201601f19168301916001600160401b038311848410176100c7578084926080946040528339810103126100c257610047816100dd565b90610054602082016100dd565b60408201519162ffffff831683036100c257606001516001600160a01b03811693908490036100c25760805260a05260c052600080546001600160a01b03191691909117905560405161026790816100f2823960805181610202015260a0518160c5015260c0518160890152f35b600080fd5b634e487b7160e01b600052604160045260246000fd5b51906001600160a01b03821682036100c25756fe60806040818152600436101561001457600080fd5b600091823560e01c9081630dfe1681146101ee575080631a686502146101c75780633850c7bd1461017f578063709e99521461011b5780638db791d2146100f4578063d21220a7146100b15763ddca3f431461006f57600080fd5b346100ad57816003193601126100ad576020905162ffffff7f0000000000000000000000000000000000000000000000000000000000000000168152f35b5080fd5b50346100ad57816003193601126100ad57517f00000000000000000000000000000000000000000000000000000000000000006001600160a01b03168152602090f35b50346100ad57816003193601126100ad57905490516001600160a01b039091168152602090f35b823461017c57602036600319011261017c576004356001600160801b038082168092036101785760015491818316018181116101645716906001600160801b0319161760015580f35b634e487b7160e01b84526011600452602484fd5b8280fd5b80fd5b50346100ad57816003193601126100ad578160e09260018060a01b0381541692805193845281602085015283015280606083015280608083015260a0820152600160c0820152f35b50346100ad57816003193601126100ad576020906001600160801b03600154169051908152f35b8390346100ad57816003193601126100ad577f00000000000000000000000000000000000000000000000000000000000000006001600160a01b03168152602090f3fea26469706673582212204b35bc21dbb48482ced70a17cb0def59da1066bd29d9823384a63711fb61e28864736f6c63430008180033a2646970667358221220239eb97693252bd59471b0945cd41f806bf32228c25dd6d94432537982c52f6f64736f6c63430008180033","opcodes":"PUSH1 0xA0 CALLVALUE PUSH2 0xAA JUMPI PUSH1 0x1F PUSH2 0xC21 CODESIZE DUP2 SWAP1 SUB SWAP2 DUP3 ADD PUSH1 0x1F NOT AND DUP4 ADD SWAP2 PUSH1 0x1 PUSH1 0x1 PUSH1 0x40 SHL SUB DUP4 GT DUP5 DUP5 LT OR PUSH2 0xAF JUMPI DUP1 DUP5 SWAP3 PUSH1 0x20 SWAP5 PUSH1 0x40 MSTORE DUP4 CODECOPY DUP2 ADD SUB SLT PUSH2 0xAA JUMPI MLOAD PUSH1 0x1 PUSH1 0x1 PUSH1 0xA0 SHL SUB DUP2 AND DUP1 DUP3 SUB PUSH2 0xAA JUMPI PUSH1 0x1 PUSH1 0x0 SSTORE ISZERO PUSH2 0x75 JUMPI PUSH1 0x80 MSTORE PUSH1 0x40 MLOAD PUSH2 0xB5B SWAP1 DUP2 PUSH2 0xC6 DUP3 CODECOPY PUSH1 0x80 MLOAD DUP2 PUSH2 0x47E ADD MSTORE RETURN JUMPDEST PUSH1 0x40 MLOAD PUSH3 0x461BCD PUSH1 0xE5 SHL DUP2 MSTORE PUSH1 0x20 PUSH1 0x4 DUP3 ADD MSTORE PUSH1 0xD PUSH1 0x24 DUP3 ADD MSTORE PUSH13 0x1DD95D1A081C995C5D5A5C9959 PUSH1 0x9A SHL PUSH1 0x44 DUP3 ADD MSTORE PUSH1 0x64 SWAP1 REVERT JUMPDEST PUSH1 0x0 DUP1 REVERT JUMPDEST PUSH4 0x4E487B71 PUSH1 0xE0 SHL PUSH1 0x0 MSTORE PUSH1 0x41 PUSH1 0x4 MSTORE PUSH1 0x24 PUSH1 0x0 REVERT INVALID PUSH1 0x40 PUSH1 0x80 DUP2 MSTORE PUSH1 0x4 SWAP1 DUP2 CALLDATASIZE LT ISZERO PUSH2 0x15 JUMPI PUSH1 0x0 DUP1 REVERT JUMPDEST PUSH1 0x0 SWAP2 DUP3 CALLDATALOAD PUSH1 0xE0 SHR DUP1 PUSH4 0x13EAD562 EQ PUSH2 0x5A1 JUMPI DUP1 PUSH4 0x23B872DD EQ PUSH2 0x4AD JUMPI DUP1 PUSH4 0x4AA4A4FC EQ PUSH2 0x469 JUMPI DUP1 PUSH4 0x6352211E EQ PUSH2 0x437 JUMPI DUP1 PUSH4 0x75794A3C EQ PUSH2 0x41A JUMPI DUP1 PUSH4 0x88316456 EQ PUSH2 0xA3 JUMPI PUSH4 0xB5217BB4 EQ PUSH2 0x6E JUMPI PUSH1 0x0 DUP1 REVERT JUMPDEST CALLVALUE PUSH2 0x9F JUMPI PUSH1 0x20 CALLDATASIZE PUSH1 0x3 NOT ADD SLT PUSH2 0x9F JUMPI CALLDATALOAD DUP3 MSTORE PUSH1 0x1 PUSH1 0x20 SWAP1 DUP2 MSTORE SWAP2 DUP2 SWAP1 KECCAK256 SLOAD SWAP1 MLOAD PUSH1 0x1 PUSH1 0x1 PUSH1 0xA0 SHL SUB SWAP1 SWAP2 AND DUP2 MSTORE RETURN JUMPDEST DUP3 DUP1 REVERT JUMPDEST POP SWAP2 SWAP1 PUSH2 0x160 CALLDATASIZE PUSH1 0x3 NOT ADD SLT PUSH2 0x416 JUMPI PUSH1 0x1 PUSH1 0x1 PUSH1 0xA0 SHL SUB SWAP1 DUP2 PUSH2 0xC5 PUSH2 0x6ED JUMP JUMPDEST AND ISZERO PUSH2 0x3DF JUMPI PUSH2 0xD3 PUSH2 0x704 JUMP JUMPDEST PUSH2 0xDB PUSH2 0x71A JUMP JUMPDEST PUSH1 0x44 CALLDATALOAD SWAP2 PUSH3 0xFFFFFF DUP4 AND DUP4 SUB PUSH2 0x3DB JUMPI SWAP1 PUSH2 0xF6 SWAP3 SWAP2 PUSH2 0x780 JUMP JUMPDEST DUP4 MSTORE PUSH1 0x20 SWAP1 PUSH1 0x1 DUP3 MSTORE DUP3 DUP2 DUP6 KECCAK256 SLOAD AND DUP1 ISZERO PUSH2 0x3A8 JUMPI PUSH1 0xA4 CALLDATALOAD SWAP3 PUSH1 0xC4 CALLDATALOAD SWAP5 DUP5 ISZERO ISZERO DUP1 PUSH2 0x327 JUMPI JUMPDEST DUP7 PUSH2 0x24E JUMPI JUMPDEST ISZERO PUSH2 0x248 JUMPI DUP5 JUMPDEST PUSH16 0xFFFFFFFFFFFFFFFFFFFFFFFFFFFFFFFF SWAP1 DUP2 DUP2 GT ISZERO PUSH2 0x243 JUMPI POP DUP1 JUMPDEST AND SWAP3 DUP1 EXTCODESIZE ISZERO PUSH2 0x23F JUMPI DUP8 DUP5 PUSH1 0x24 DUP12 DUP4 DUP10 MLOAD SWAP6 DUP7 SWAP5 DUP6 SWAP4 PUSH4 0x384F4CA9 PUSH1 0xE1 SHL DUP6 MSTORE DUP5 ADD MSTORE GAS CALL DUP1 ISZERO PUSH2 0x235 JUMPI PUSH2 0x207 JUMPI JUMPDEST POP DUP7 SLOAD SWAP1 PUSH1 0x0 NOT DUP3 EQ PUSH2 0x1F4 JUMPI PUSH1 0x80 SWAP9 POP DUP2 SWAP1 PUSH1 0x1 DUP3 ADD DUP10 SSTORE PUSH2 0x197 PUSH2 0x6ED JUMP JUMPDEST DUP3 DUP11 MSTORE PUSH1 0x2 DUP6 MSTORE DUP2 DUP8 DUP12 KECCAK256 SWAP2 AND PUSH1 0x1 PUSH1 0x1 PUSH1 0x60 SHL SUB PUSH1 0xA0 SHL DUP3 SLOAD AND OR SWAP1 SSTORE PUSH2 0x1BD PUSH2 0x6ED JUMP JUMPDEST AND DUP6 MLOAD SWAP9 PUSH32 0xDDF252AD1BE2C89B69C2B068FC378DAA952BA7F163C4A11628F55A4DF523B3EF DUP2 DUP1 LOG4 DUP7 MSTORE DUP6 ADD MSTORE DUP4 ADD MSTORE PUSH1 0x60 DUP3 ADD MSTORE RETURN JUMPDEST PUSH4 0x4E487B71 PUSH1 0xE0 SHL DUP9 MSTORE PUSH1 0x11 DUP10 MSTORE PUSH1 0x24 DUP9 REVERT JUMPDEST PUSH8 0xFFFFFFFFFFFFFFFF DUP2 SWAP9 SWAP3 SWAP9 GT PUSH2 0x222 JUMPI DUP5 MSTORE SWAP6 CODESIZE PUSH2 0x176 JUMP JUMPDEST PUSH4 0x4E487B71 PUSH1 0xE0 SHL DUP3 MSTORE PUSH1 0x41 DUP10 MSTORE PUSH1 0x24 DUP3 REVERT JUMPDEST DUP6 MLOAD RETURNDATASIZE DUP11 DUP3 RETURNDATACOPY RETURNDATASIZE SWAP1 REVERT JUMPDEST DUP8 DUP1 REVERT JUMPDEST PUSH2 0x146 JUMP JUMPDEST DUP6 PUSH2 0x129 JUMP JUMPDEST PUSH2 0x29D DUP4 DUP9 DUP12 DUP8 DUP13 DUP8 PUSH2 0x25F PUSH2 0x71A JUMP JUMPDEST DUP13 MLOAD PUSH4 0x23B872DD PUSH1 0xE0 SHL DUP2 MSTORE CALLER SWAP6 DUP2 ADD SWAP6 DUP7 MSTORE PUSH1 0x1 PUSH1 0x1 PUSH1 0xA0 SHL SUB SWAP1 SWAP5 AND PUSH1 0x20 DUP7 ADD MSTORE PUSH1 0x40 DUP6 ADD SWAP6 SWAP1 SWAP6 MSTORE SWAP2 SWAP6 DUP7 SWAP5 SWAP3 SWAP1 SWAP3 AND SWAP3 DUP5 SWAP3 DUP4 SWAP2 PUSH1 0x60 ADD SWAP1 JUMP JUMPDEST SUB SWAP3 GAS CALL SWAP1 DUP2 ISZERO PUSH2 0x31D JUMPI DUP10 SWAP2 PUSH2 0x2F0 JUMPI JUMPDEST POP PUSH2 0x122 JUMPI DUP5 MLOAD PUSH3 0x461BCD PUSH1 0xE5 SHL DUP2 MSTORE DUP1 DUP11 ADD DUP5 SWAP1 MSTORE PUSH1 0x16 PUSH1 0x24 DUP3 ADD MSTORE PUSH22 0x1D1BDAD95B8C481D1C985B9CD9995C8819985A5B1959 PUSH1 0x52 SHL PUSH1 0x44 DUP3 ADD MSTORE PUSH1 0x64 SWAP1 REVERT JUMPDEST PUSH2 0x310 SWAP2 POP DUP5 RETURNDATASIZE DUP7 GT PUSH2 0x316 JUMPI JUMPDEST PUSH2 0x308 DUP2 DUP4 PUSH2 0x730 JUMP JUMPDEST DUP2 ADD SWAP1 PUSH2 0x768 JUMP JUMPDEST CODESIZE PUSH2 0x2AF JUMP JUMPDEST POP RETURNDATASIZE PUSH2 0x2FE JUMP JUMPDEST DUP7 MLOAD RETURNDATASIZE DUP12 DUP3 RETURNDATACOPY RETURNDATASIZE SWAP1 REVERT JUMPDEST PUSH2 0x338 DUP4 DUP8 DUP12 DUP8 DUP13 DUP8 PUSH2 0x25F PUSH2 0x704 JUMP JUMPDEST SUB SWAP3 GAS CALL SWAP1 DUP2 ISZERO PUSH2 0x31D JUMPI DUP10 SWAP2 PUSH2 0x38B JUMPI JUMPDEST POP PUSH2 0x11C JUMPI DUP5 MLOAD PUSH3 0x461BCD PUSH1 0xE5 SHL DUP2 MSTORE DUP1 DUP11 ADD DUP5 SWAP1 MSTORE PUSH1 0x16 PUSH1 0x24 DUP3 ADD MSTORE PUSH22 0x1D1BDAD95B8C081D1C985B9CD9995C8819985A5B1959 PUSH1 0x52 SHL PUSH1 0x44 DUP3 ADD MSTORE PUSH1 0x64 SWAP1 REVERT JUMPDEST PUSH2 0x3A2 SWAP2 POP DUP5 RETURNDATASIZE DUP7 GT PUSH2 0x316 JUMPI PUSH2 0x308 DUP2 DUP4 PUSH2 0x730 JUMP JUMPDEST CODESIZE PUSH2 0x34A JUMP JUMPDEST DUP2 MLOAD PUSH3 0x461BCD PUSH1 0xE5 SHL DUP2 MSTORE DUP1 DUP8 ADD DUP5 SWAP1 MSTORE PUSH1 0xD PUSH1 0x24 DUP3 ADD MSTORE PUSH13 0x1C1BDBDB081C995C5D5A5C9959 PUSH1 0x9A SHL PUSH1 0x44 DUP3 ADD MSTORE PUSH1 0x64 SWAP1 REVERT JUMPDEST DUP6 DUP1 REVERT JUMPDEST MLOAD PUSH3 0x461BCD PUSH1 0xE5 SHL DUP2 MSTORE PUSH1 0x20 DUP2 DUP6 ADD MSTORE PUSH1 0x12 PUSH1 0x24 DUP3 ADD MSTORE PUSH18 0x1C9958DA5C1A595B9D081C995C5D5A5C9959 PUSH1 0x72 SHL PUSH1 0x44 DUP3 ADD MSTORE PUSH1 0x64 SWAP1 REVERT JUMPDEST POP DUP1 REVERT JUMPDEST POP POP CALLVALUE PUSH2 0x416 JUMPI DUP2 PUSH1 0x3 NOT CALLDATASIZE ADD SLT PUSH2 0x416 JUMPI PUSH1 0x20 SWAP2 SLOAD SWAP1 MLOAD SWAP1 DUP2 MSTORE RETURN JUMPDEST POP CALLVALUE PUSH2 0x9F JUMPI PUSH1 0x20 CALLDATASIZE PUSH1 0x3 NOT ADD SLT PUSH2 0x9F JUMPI CALLDATALOAD DUP3 MSTORE PUSH1 0x2 PUSH1 0x20 SWAP1 DUP2 MSTORE SWAP2 DUP2 SWAP1 KECCAK256 SLOAD SWAP1 MLOAD PUSH1 0x1 PUSH1 0x1 PUSH1 0xA0 SHL SUB SWAP1 SWAP2 AND DUP2 MSTORE RETURN JUMPDEST POP POP CALLVALUE PUSH2 0x416 JUMPI DUP2 PUSH1 0x3 NOT CALLDATASIZE ADD SLT PUSH2 0x416 JUMPI MLOAD PUSH32 0x0 PUSH1 0x1 PUSH1 0x1 PUSH1 0xA0 SHL SUB AND DUP2 MSTORE PUSH1 0x20 SWAP1 RETURN JUMPDEST POP CALLVALUE PUSH2 0x9F JUMPI PUSH1 0x60 CALLDATASIZE PUSH1 0x3 NOT ADD SLT PUSH2 0x9F JUMPI PUSH2 0x4C7 PUSH2 0x6BC JUMP JUMPDEST PUSH2 0x4CF PUSH2 0x6D7 JUMP JUMPDEST SWAP2 PUSH1 0x44 CALLDATALOAD SWAP4 DUP5 DUP7 MSTORE PUSH1 0x2 PUSH1 0x20 MSTORE PUSH1 0x1 DUP1 PUSH1 0xA0 SHL SUB SWAP2 DUP3 DUP1 DUP4 DUP10 KECCAK256 SLOAD AND SWAP5 AND DUP1 SWAP5 SUB PUSH2 0x573 JUMPI DUP4 CALLER SUB PUSH2 0x542 JUMPI POP DUP5 DUP7 MSTORE PUSH1 0x2 PUSH1 0x20 MSTORE DUP6 KECCAK256 SWAP3 AND SWAP2 DUP3 PUSH1 0x1 PUSH1 0x1 PUSH1 0x60 SHL SUB PUSH1 0xA0 SHL DUP3 SLOAD AND OR SWAP1 SSTORE PUSH32 0xDDF252AD1BE2C89B69C2B068FC378DAA952BA7F163C4A11628F55A4DF523B3EF DUP5 DUP1 LOG4 DUP1 RETURN JUMPDEST PUSH1 0x20 PUSH1 0x64 SWAP3 MLOAD SWAP2 PUSH3 0x461BCD PUSH1 0xE5 SHL DUP4 MSTORE DUP3 ADD MSTORE PUSH1 0xC PUSH1 0x24 DUP3 ADD MSTORE PUSH12 0x1B9BDD08185C1C1C9BDD9959 PUSH1 0xA2 SHL PUSH1 0x44 DUP3 ADD MSTORE REVERT JUMPDEST PUSH1 0x20 PUSH1 0x64 SWAP3 MLOAD SWAP2 PUSH3 0x461BCD PUSH1 0xE5 SHL DUP4 MSTORE DUP3 ADD MSTORE PUSH1 0x9 PUSH1 0x24 DUP3 ADD MSTORE PUSH9 0x3737BA1037BBB732B9 PUSH1 0xB9 SHL PUSH1 0x44 DUP3 ADD MSTORE REVERT JUMPDEST POP SWAP1 PUSH1 0x80 CALLDATASIZE PUSH1 0x3 NOT ADD SLT PUSH2 0x9F JUMPI PUSH2 0x5B7 PUSH2 0x6BC JUMP JUMPDEST SWAP1 PUSH2 0x5C0 PUSH2 0x6D7 JUMP JUMPDEST SWAP3 PUSH1 0x44 CALLDATALOAD SWAP3 PUSH3 0xFFFFFF DUP5 AND SWAP2 DUP3 DUP6 SUB PUSH2 0x6B8 JUMPI PUSH1 0x1 PUSH1 0x1 PUSH1 0xA0 SHL SUB SWAP5 PUSH1 0x64 CALLDATALOAD DUP7 DUP2 AND SWAP2 SWAP1 DUP3 SWAP1 SUB PUSH2 0x6B4 JUMPI PUSH2 0x5F6 SWAP1 DUP9 DUP6 PUSH2 0x780 JUMP JUMPDEST SWAP4 DUP5 DUP10 MSTORE PUSH1 0x1 PUSH1 0x20 MSTORE DUP7 DUP7 DUP11 KECCAK256 SLOAD AND SWAP8 DUP9 ISZERO PUSH2 0x619 JUMPI JUMPDEST PUSH1 0x20 DUP10 DUP10 DUP10 MLOAD SWAP2 AND DUP2 MSTORE RETURN JUMPDEST SWAP1 SWAP2 SWAP3 SWAP4 SWAP5 SWAP8 POP DUP6 MLOAD SWAP5 PUSH2 0x359 DUP1 DUP8 ADD SWAP6 DUP8 DUP8 LT PUSH8 0xFFFFFFFFFFFFFFFF DUP9 GT OR PUSH2 0x6A1 JUMPI POP DUP7 SWAP5 SWAP3 DUP10 PUSH1 0x80 SWAP8 SWAP6 SWAP4 DUP2 SWAP4 PUSH2 0x7CD DUP10 CODECOPY AND DUP6 MSTORE AND PUSH1 0x20 DUP5 ADD MSTORE DUP7 DUP4 ADD MSTORE PUSH1 0x60 DUP3 ADD MSTORE SUB ADD SWAP1 DUP6 CREATE DUP1 ISZERO PUSH2 0x697 JUMPI PUSH1 0x20 SWAP5 DUP4 DUP4 SWAP3 AND SWAP5 DUP2 MSTORE PUSH1 0x1 DUP7 MSTORE KECCAK256 DUP4 PUSH1 0x1 PUSH1 0x1 PUSH1 0x60 SHL SUB PUSH1 0xA0 SHL DUP3 SLOAD AND OR SWAP1 SSTORE CODESIZE DUP1 DUP1 DUP1 DUP1 DUP1 PUSH2 0x60D JUMP JUMPDEST DUP2 MLOAD RETURNDATASIZE DUP7 DUP3 RETURNDATACOPY RETURNDATASIZE SWAP1 REVERT JUMPDEST PUSH4 0x4E487B71 PUSH1 0xE0 SHL DUP13 MSTORE PUSH1 0x41 SWAP1 MSTORE PUSH1 0x24 DUP12 REVERT JUMPDEST DUP9 DUP1 REVERT JUMPDEST DUP7 DUP1 REVERT JUMPDEST PUSH1 0x4 CALLDATALOAD SWAP1 PUSH1 0x1 PUSH1 0x1 PUSH1 0xA0 SHL SUB DUP3 AND DUP3 SUB PUSH2 0x6D2 JUMPI JUMP JUMPDEST PUSH1 0x0 DUP1 REVERT JUMPDEST PUSH1 0x24 CALLDATALOAD SWAP1 PUSH1 0x1 PUSH1 0x1 PUSH1 0xA0 SHL SUB DUP3 AND DUP3 SUB PUSH2 0x6D2 JUMPI JUMP JUMPDEST PUSH2 0x124 CALLDATALOAD PUSH1 0x1 PUSH1 0x1 PUSH1 0xA0 SHL SUB DUP2 AND DUP2 SUB PUSH2 0x6D2 JUMPI SWAP1 JUMP JUMPDEST PUSH1 0x4 CALLDATALOAD PUSH1 0x1 PUSH1 0x1 PUSH1 0xA0 SHL SUB DUP2 AND DUP2 SUB PUSH2 0x6D2 JUMPI SWAP1 JUMP JUMPDEST PUSH1 0x24 CALLDATALOAD PUSH1 0x1 PUSH1 0x1 PUSH1 0xA0 SHL SUB DUP2 AND DUP2 SUB PUSH2 0x6D2 JUMPI SWAP1 JUMP JUMPDEST SWAP1 PUSH1 0x1F DUP1 NOT SWAP2 ADD AND DUP2 ADD SWAP1 DUP2 LT PUSH8 0xFFFFFFFFFFFFFFFF DUP3 GT OR PUSH2 0x752 JUMPI PUSH1 0x40 MSTORE JUMP JUMPDEST PUSH4 0x4E487B71 PUSH1 0xE0 SHL PUSH1 0x0 MSTORE PUSH1 0x41 PUSH1 0x4 MSTORE PUSH1 0x24 PUSH1 0x0 REVERT JUMPDEST SWAP1 DUP2 PUSH1 0x20 SWAP2 SUB SLT PUSH2 0x6D2 JUMPI MLOAD DUP1 ISZERO ISZERO DUP2 SUB PUSH2 0x6D2 JUMPI SWAP1 JUMP JUMPDEST SWAP1 SWAP2 PUSH3 0xFFFFFF SWAP1 PUSH1 0x40 MLOAD SWAP3 PUSH1 0x20 DUP5 ADD SWAP5 PUSH1 0x1 DUP1 PUSH1 0xA0 SHL SUB DUP1 SWAP3 AND DUP7 MSTORE AND PUSH1 0x40 DUP5 ADD MSTORE AND PUSH1 0x60 DUP3 ADD MSTORE PUSH1 0x60 DUP2 MSTORE PUSH1 0x80 DUP2 ADD DUP2 DUP2 LT PUSH8 0xFFFFFFFFFFFFFFFF DUP3 GT OR PUSH2 0x752 JUMPI PUSH1 0x40 MSTORE MLOAD SWAP1 KECCAK256 SWAP1 JUMP INVALID PUSH1 0xE0 CALLVALUE PUSH2 0xC2 JUMPI PUSH1 0x1F PUSH2 0x359 CODESIZE DUP2 SWAP1 SUB SWAP2 DUP3 ADD PUSH1 0x1F NOT AND DUP4 ADD SWAP2 PUSH1 0x1 PUSH1 0x1 PUSH1 0x40 SHL SUB DUP4 GT DUP5 DUP5 LT OR PUSH2 0xC7 JUMPI DUP1 DUP5 SWAP3 PUSH1 0x80 SWAP5 PUSH1 0x40 MSTORE DUP4 CODECOPY DUP2 ADD SUB SLT PUSH2 0xC2 JUMPI PUSH2 0x47 DUP2 PUSH2 0xDD JUMP JUMPDEST SWAP1 PUSH2 0x54 PUSH1 0x20 DUP3 ADD PUSH2 0xDD JUMP JUMPDEST PUSH1 0x40 DUP3 ADD MLOAD SWAP2 PUSH3 0xFFFFFF DUP4 AND DUP4 SUB PUSH2 0xC2 JUMPI PUSH1 0x60 ADD MLOAD PUSH1 0x1 PUSH1 0x1 PUSH1 0xA0 SHL SUB DUP2 AND SWAP4 SWAP1 DUP5 SWAP1 SUB PUSH2 0xC2 JUMPI PUSH1 0x80 MSTORE PUSH1 0xA0 MSTORE PUSH1 0xC0 MSTORE PUSH1 0x0 DUP1 SLOAD PUSH1 0x1 PUSH1 0x1 PUSH1 0xA0 SHL SUB NOT AND SWAP2 SWAP1 SWAP2 OR SWAP1 SSTORE PUSH1 0x40 MLOAD PUSH2 0x267 SWAP1 DUP2 PUSH2 0xF2 DUP3 CODECOPY PUSH1 0x80 MLOAD DUP2 PUSH2 0x202 ADD MSTORE PUSH1 0xA0 MLOAD DUP2 PUSH1 0xC5 ADD MSTORE PUSH1 0xC0 MLOAD DUP2 PUSH1 0x89 ADD MSTORE RETURN JUMPDEST PUSH1 0x0 DUP1 REVERT JUMPDEST PUSH4 0x4E487B71 PUSH1 0xE0 SHL PUSH1 0x0 MSTORE PUSH1 0x41 PUSH1 0x4 MSTORE PUSH1 0x24 PUSH1 0x0 REVERT JUMPDEST MLOAD SWAP1 PUSH1 0x1 PUSH1 0x1 PUSH1 0xA0 SHL SUB DUP3 AND DUP3 SUB PUSH2 0xC2 JUMPI JUMP INVALID PUSH1 0x80 PUSH1 0x40 DUP2 DUP2 MSTORE PUSH1 0x4 CALLDATASIZE LT ISZERO PUSH2 0x14 JUMPI PUSH1 0x0 DUP1 REVERT JUMPDEST PUSH1 0x0 SWAP2 DUP3 CALLDATALOAD PUSH1 0xE0 SHR SWAP1 DUP2 PUSH4 0xDFE1681 EQ PUSH2 0x1EE JUMPI POP DUP1 PUSH4 0x1A686502 EQ PUSH2 0x1C7 JUMPI DUP1 PUSH4 0x3850C7BD EQ PUSH2 0x17F JUMPI DUP1 PUSH4 0x709E9952 EQ PUSH2 0x11B JUMPI DUP1 PUSH4 0x8DB791D2 EQ PUSH2 0xF4 JUMPI DUP1 PUSH4 0xD21220A7 EQ PUSH2 0xB1 JUMPI PUSH4 0xDDCA3F43 EQ PUSH2 0x6F JUMPI PUSH1 0x0 DUP1 REVERT JUMPDEST CALLVALUE PUSH2 0xAD JUMPI DUP2 PUSH1 0x3 NOT CALLDATASIZE ADD SLT PUSH2 0xAD JUMPI PUSH1 0x20 SWAP1 MLOAD PUSH3 0xFFFFFF PUSH32 0x0 AND DUP2 MSTORE RETURN JUMPDEST POP DUP1 REVERT JUMPDEST POP CALLVALUE PUSH2 0xAD JUMPI DUP2 PUSH1 0x3 NOT CALLDATASIZE ADD SLT PUSH2 0xAD JUMPI MLOAD PUSH32 0x0 PUSH1 0x1 PUSH1 0x1 PUSH1 0xA0 SHL SUB AND DUP2 MSTORE PUSH1 0x20 SWAP1 RETURN JUMPDEST POP CALLVALUE PUSH2 0xAD JUMPI DUP2 PUSH1 0x3 NOT CALLDATASIZE ADD SLT PUSH2 0xAD JUMPI SWAP1 SLOAD SWAP1 MLOAD PUSH1 0x1 PUSH1 0x1 PUSH1 0xA0 SHL SUB SWAP1 SWAP2 AND DUP2 MSTORE PUSH1 0x20 SWAP1 RETURN JUMPDEST DUP3 CALLVALUE PUSH2 0x17C JUMPI PUSH1 0x20 CALLDATASIZE PUSH1 0x3 NOT ADD SLT PUSH2 0x17C JUMPI PUSH1 0x4 CALLDATALOAD PUSH1 0x1 PUSH1 0x1 PUSH1 0x80 SHL SUB DUP1 DUP3 AND DUP1 SWAP3 SUB PUSH2 0x178 JUMPI PUSH1 0x1 SLOAD SWAP2 DUP2 DUP4 AND ADD DUP2 DUP2 GT PUSH2 0x164 JUMPI AND SWAP1 PUSH1 0x1 PUSH1 0x1 PUSH1 0x80 SHL SUB NOT AND OR PUSH1 0x1 SSTORE DUP1 RETURN JUMPDEST PUSH4 0x4E487B71 PUSH1 0xE0 SHL DUP5 MSTORE PUSH1 0x11 PUSH1 0x4 MSTORE PUSH1 0x24 DUP5 REVERT JUMPDEST DUP3 DUP1 REVERT JUMPDEST DUP1 REVERT JUMPDEST POP CALLVALUE PUSH2 0xAD JUMPI DUP2 PUSH1 0x3 NOT CALLDATASIZE ADD SLT PUSH2 0xAD JUMPI DUP2 PUSH1 0xE0 SWAP3 PUSH1 0x1 DUP1 PUSH1 0xA0 SHL SUB DUP2 SLOAD AND SWAP3 DUP1 MLOAD SWAP4 DUP5 MSTORE DUP2 PUSH1 0x20 DUP6 ADD MSTORE DUP4 ADD MSTORE DUP1 PUSH1 0x60 DUP4 ADD MSTORE DUP1 PUSH1 0x80 DUP4 ADD MSTORE PUSH1 0xA0 DUP3 ADD MSTORE PUSH1 0x1 PUSH1 0xC0 DUP3 ADD MSTORE RETURN JUMPDEST POP CALLVALUE PUSH2 0xAD JUMPI DUP2 PUSH1 0x3 NOT CALLDATASIZE ADD SLT PUSH2 0xAD JUMPI PUSH1 0x20 SWAP1 PUSH1 0x1 PUSH1 0x1 PUSH1 0x80 SHL SUB PUSH1 0x1 SLOAD AND SWAP1 MLOAD SWAP1 DUP2 MSTORE RETURN JUMPDEST DUP4 SWAP1 CALLVALUE PUSH2 0xAD JUMPI DUP2 PUSH1 0x3 NOT CALLDATASIZE ADD SLT PUSH2 0xAD JUMPI PUSH32 0x0 PUSH1 0x1 PUSH1 0x1 PUSH1 0xA0 SHL SUB AND DUP2 MSTORE PUSH1 0x20 SWAP1 RETURN INVALID LOG2 PUSH5 0x6970667358 0x22 SLT KECCAK256 0x4B CALLDATALOAD 0xBC 0x21 0xDB 0xB4 DUP5 DUP3 0xCE 0xD7 EXP OR 0xCB 0xD 0xEF MSIZE 0xDA LT PUSH7 0xBD29D9823384A6 CALLDATACOPY GT 0xFB PUSH2 0xE288 PUSH5 0x736F6C6343 STOP ADDMOD XOR STOP CALLER LOG2 PUSH5 0x6970667358 0x22 SLT KECCAK256 0x23 SWAP15 0xB9 PUSH23 0x93252BD59471B0945CD41F806BF32228C25DD6D9443253 PUSH26 0x82C52F6F64736F6C634300081800330000000000000000000000 "},"methodIdentifiers":{"WETH9()":"4aa4a4fc","createAndInitializePoolIfNecessary(address,address,uint24,uint160)":"13ead562","mint((address,address,uint24,int24,int24,uint256,uint256,uint256,uint256,address,uint256))":"88316456","nextTokenId()":"75794a3c","ownerOf(uint256)":"6352211e","pools(bytes32)":"b5217bb4","transferFrom(address,address,uint256)":"23b872dd"}}}}}