{"contracts/mocks/MockDex.sol":{"MockDexRouter":{"abi":[{"inputs":[{"internalType":"address","name":"_weth","type":"address"}],"stateMutability":"nonpayable","type":"constructor"},{"inputs":[],"name":"WETH","outputs":[{"internalType":"address","name":"","type":"address"}],"stateMutability":"view","type":"function"},{"inputs":[{"internalType":"address","name":"token","type":"address"},{"internalType":"uint256","name":"amountTokenDesired","type":"uint256"},{"internalType":"uint256","name":"","type":"uint256"},{"internalType":"uint256","name":"","type":"uint256"},{"internalType":"address","name":"to","type":"address"},{"internalType":"uint256","name":"","type":"uint256"}],"name":"addLiquidityETH","outputs":[{"internalType":"uint256","name":"amountToken","type":"uint256"},{"internalType":"uint256","name":"amountETH","type":"uint256"},{"internalType":"uint256","name":"liquidity","type":"uint256"}],"stateMutability":"payable","type":"function"},{"inputs":[],"name":"factory","outputs":[{"internalType":"address","name":"","type":"address"}],"stateMutability":"view","type":"function"}],"evm":{"bytecode":{"linkReferences":{},"object":"60c03461010d576001600160401b0390601f6111d738819003918201601f1916830191848311848410176100c25780849260209460405283398101031261010d57516001600160a01b03919082811680820361010d57156100d85760805260405190610c1890818301908111838210176100c25782916105bf833903906000f080156100b6571660a0526040516104ac9081610113823960805181818160b301526103eb015260a051818181607d01526103a80152f35b6040513d6000823e3d90fd5b634e487b7160e01b600052604160045260246000fd5b60405162461bcd60e51b815260206004820152600d60248201526c1dd95d1a081c995c5d5a5c9959609a1b6044820152606490fd5b600080fdfe608060409080825260048036101561001657600080fd5b600091823560e01c908163ad5c4648146103d757508063c45a0155146103935763f305d7191461004557600080fd5b60c036600319011261038f576001600160a01b039281358481169081900361038b5760249283359360843587811680910361038757877f0000000000000000000000000000000000000000000000000000000000000000169685519163e6a4390560e01b83528585840152897f00000000000000000000000000000000000000000000000000000000000000001695868585015260209660449a88868d81845afa95861561037d57859661035e575b508c8616156102e4575b505097868a9b829b9a8a519384926323b872dd60e01b8452338b85015288169c8d8a85015283015281865a92606493f19081156102da5783916102a4575b501561026b57348910156102645788975b803b1561026057896064878580948f8e908e519889978896633f0449e560e21b88528701528c8601528401525af180156102565761022d575b50808080809434905af1903d15610227573d9067ffffffffffffffff8211610215578651916101be601f8201601f191688018461041a565b8252853d92013e5b156101e05750506060945081519384523490840152820152f35b86601372195d1a081d1c985b9cd9995c8819985a5b1959606a1b9260649587519562461bcd60e51b8752860152840152820152fd5b634e487b7160e01b8152604185528390fd5b506101c6565b67ffffffffffffffff811161024457865238610186565b634e487b7160e01b8252604185528382fd5b87513d84823e3d90fd5b8280fd5b349761014d565b865162461bcd60e51b8152808601879052601581860152741d1bdad95b881d1c985b9cd9995c8819985a5b1959605a1b818c0152606490fd5b90508681813d83116102d3575b6102bb818361041a565b8101031261026057518015158103610260573861013c565b503d6102b1565b88513d85823e3d90fd5b82955091606488868b94958f8e519788968795630edef2e760e31b87528601528c85015230908401525af19081156102da578a9b8a9b9a9289928691610331575b509592509b9a996100fe565b6103519150833d8511610357575b610349818361041a565b810190610452565b38610325565b503d61033f565b610376919650893d8b1161035757610349818361041a565b94386100f4565b8a513d87823e3d90fd5b8680fd5b8380fd5b5080fd5b82843461038f578160031936011261038f57517f00000000000000000000000000000000000000000000000000000000000000006001600160a01b03168152602090f35b83903461038f578160031936011261038f577f00000000000000000000000000000000000000000000000000000000000000006001600160a01b03168152602090f35b90601f8019910116810190811067ffffffffffffffff82111761043c57604052565b634e487b7160e01b600052604160045260246000fd5b9081602091031261047157516001600160a01b03811681036104715790565b600080fdfea26469706673582212208408129e1d8934c0662eb11e5cd6d2da0333913f00cee2d32720b0dcd57d34c964736f6c634300081800336080806040523461001657610bfc908161001c8239f35b600080fdfe6080604081815260048036101561001557600080fd5b600092833560e01c91826376f797381461008757505063e6a439051461003a57600080fd5b3461008357806003193601126100835760209181610056610274565b9161005f61028f565b6001600160a01b039384168252818652828220908416825285522054915191168152f35b5080fd5b83859134610270576060366003190112610270576100a3610274565b936100ac61028f565b916001600160a01b036044358181169391929084900361026c57828516978381169289841461023f5750888310156102375783905b1693841561020d57848852602098888a5284888a20971696878a528a5284888a2054166101e1578751936109218086019486861067ffffffffffffffff8711176101ce57509185939160a095936102a68639888452898d8501528a8401526060830152608082015203019086f080156101c457169381815280865283812083825286528484808320926bffffffffffffffffffffffff60a01b938385825416179055808952818120858252895220918254161790557fa92a2b95c8d8436f6ac4c673c61487364f877efb9534d4296fad8ef904546c94858451868152a351908152f35b84513d87823e3d90fd5b634e487b7160e01b8c526041905260248bfd5b875162461bcd60e51b81528084018b9052600660248201526565786973747360d01b6044820152606490fd5b865162461bcd60e51b815260208184015260248101839052637a65726f60e01b6044820152606490fd5b9483906100e1565b62461bcd60e51b815260208382015260096024820152681a59195b9d1a58d85b60ba1b6044820152606490fd5b8680fd5b8280fd5b600435906001600160a01b038216820361028a57565b600080fd5b602435906001600160a01b038216820361028a5756fe610120346100f057601f61092138819003918201601f19168301916001600160401b038311848410176100f55780849260a0946040528339810103126100f0576100488161010b565b906100556020820161010b565b6100616040830161010b565b9061007a60806100736060860161010b565b940161010b565b9360805260a05260c05260e0526101009081526040516108019182610120833960805182818161055e01526105a5015260a0518281816102c40152610674015260c05182818161023801526105d1015260e0518281816104df015261065101525181818160250152818161014501526102800152f35b600080fd5b634e487b7160e01b600052604160045260246000fd5b51906001600160a01b03821682036100f05756fe60806040818152600480361015610064575b505050361561001f57600080fd5b610053337f00000000000000000000000000000000000000000000000000000000000000006001600160a01b031614610791565b61005f3460015461076e565b600155005b600092833560e01c90816301809a32146106ee5750806306fdde031461069b5780630902f1ac1461058d5780630dfe16811461054957806318160ddd1461052a578063313ce5671461050e5780633fc8cef3146104ca578063478aa284146104ad57806370a082311461047557806395d89b411461040f578063a9059cbb146102f3578063d21220a7146102af578063f887ea401461026b578063fc0c546a146102235763fc11279403610011573461021f57606036600319011261021f576001600160a01b036024358181169391929084900361021b5761016c604435937f0000000000000000000000000000000000000000000000000000000000000000163314610791565b83156101e4579061018185939235845461076e565b83558161018c578280f35b816020916101bd7fddf252ad1be2c89b69c2b068fc378daa952ba7f163c4a11628f55a4df523b3ef9460025461076e565b600255858552600383528085206101d583825461076e565b905551908152a3388181808280f35b6020606492519162461bcd60e51b835282015260126024820152711c9958da5c1a595b9d081c995c5d5a5c995960721b6044820152fd5b8480fd5b8280fd5b505034610267578160031936011261026757517f00000000000000000000000000000000000000000000000000000000000000006001600160a01b03168152602090f35b5080fd5b505034610267578160031936011261026757517f00000000000000000000000000000000000000000000000000000000000000006001600160a01b03168152602090f35b505034610267578160031936011261026757517f00000000000000000000000000000000000000000000000000000000000000006001600160a01b03168152602090f35b50913461040c578160031936011261040c5761030d610753565b6001600160a01b0316906024359082156103da573381526003602052838120548281106103a557828103908111610392576020955090849133825260038752828220558381522061035f82825461076e565b905582519081527fddf252ad1be2c89b69c2b068fc378daa952ba7f163c4a11628f55a4df523b3ef843392a35160018152f35b634e487b7160e01b825260118652602482fd5b845162461bcd60e51b8152602081880152600f60248201526e62616c616e636520746f6f206c6f7760881b6044820152606490fd5b835162461bcd60e51b8152602081870152600c60248201526b7a65726f206164647265737360a01b6044820152606490fd5b80fd5b509190346102675781600319360112610267578051918183019083821067ffffffffffffffff831117610462575061045e93508152600382526204d4c560ec1b6020830152519182918261070a565b0390f35b634e487b7160e01b815260418552602490fd5b5050346102675760203660031901126102675760209181906001600160a01b0361049d610753565b1681526003845220549051908152f35b505034610267578160031936011261026757602091549051908152f35b505034610267578160031936011261026757517f00000000000000000000000000000000000000000000000000000000000000006001600160a01b03168152602090f35b5050346102675781600319360112610267576020905160128152f35b5050346102675781600319360112610267576020906002549051908152f35b505034610267578160031936011261026757517f00000000000000000000000000000000000000000000000000000000000000006001600160a01b03168152602090f35b505034610267578160031936011261026757606091907f00000000000000000000000000000000000000000000000000000000000000006001600160a01b039081167f0000000000000000000000000000000000000000000000000000000000000000821614908161064c575b5015610636576001600160701b03809254169160015416915b8151926001600160701b03809216845216602083015263ffffffff421690820152f35b6001600160701b03806001541692541691610613565b8091507f000000000000000000000000000000000000000000000000000000000000000016907f00000000000000000000000000000000000000000000000000000000000000001614386105fa565b509190346102675781600319360112610267578051918183019083821067ffffffffffffffff831117610462575061045e93508152600782526604d6f636b204c560cc1b6020830152519182918261070a565b8490346102675781600319360112610267576020906001548152f35b6020808252825181830181905290939260005b82811061073f57505060409293506000838284010152601f8019910116010190565b81810186015184820160400152850161071d565b600435906001600160a01b038216820361076957565b600080fd5b9190820180921161077b57565b634e487b7160e01b600052601160045260246000fd5b1561079857565b60405162461bcd60e51b815260206004820152600b60248201526a37b7363c903937baba32b960a91b6044820152606490fdfea2646970667358221220cf4767faf61928c367d8819079357275b99a61bd202286a95739433a905506e864736f6c63430008180033a26469706673582212204f9fa43ce7d74f52157643452c142a672632230998ce25755f7066487c54355064736f6c63430008180033","opcodes":"PUSH1 0xC0 CALLVALUE PUSH2 0x10D JUMPI PUSH1 0x1 PUSH1 0x1 PUSH1 0x40 SHL SUB SWAP1 PUSH1 0x1F PUSH2 0x11D7 CODESIZE DUP2 SWAP1 SUB SWAP2 DUP3 ADD PUSH1 0x1F NOT AND DUP4 ADD SWAP2 DUP5 DUP4 GT DUP5 DUP5 LT OR PUSH2 0xC2 JUMPI DUP1 DUP5 SWAP3 PUSH1 0x20 SWAP5 PUSH1 0x40 MSTORE DUP4 CODECOPY DUP2 ADD SUB SLT PUSH2 0x10D JUMPI MLOAD PUSH1 0x1 PUSH1 0x1 PUSH1 0xA0 SHL SUB SWAP2 SWAP1 DUP3 DUP2 AND DUP1 DUP3 SUB PUSH2 0x10D JUMPI ISZERO PUSH2 0xD8 JUMPI PUSH1 0x80 MSTORE PUSH1 0x40 MLOAD SWAP1 PUSH2 0xC18 SWAP1 DUP2 DUP4 ADD SWAP1 DUP2 GT DUP4 DUP3 LT OR PUSH2 0xC2 JUMPI DUP3 SWAP2 PUSH2 0x5BF DUP4 CODECOPY SUB SWAP1 PUSH1 0x0 CREATE DUP1 ISZERO PUSH2 0xB6 JUMPI AND PUSH1 0xA0 MSTORE PUSH1 0x40 MLOAD PUSH2 0x4AC SWAP1 DUP2 PUSH2 0x113 DUP3 CODECOPY PUSH1 0x80 MLOAD DUP2 DUP2 DUP2 PUSH1 0xB3 ADD MSTORE PUSH2 0x3EB ADD MSTORE PUSH1 0xA0 MLOAD DUP2 DUP2 DUP2 PUSH1 0x7D ADD MSTORE PUSH2 0x3A8 ADD MSTORE RETURN JUMPDEST PUSH1 0x40 MLOAD RETURNDATASIZE PUSH1 0x0 DUP3 RETURNDATACOPY RETURNDATASIZE SWAP1 REVERT JUMPDEST PUSH4 0x4E487B71 PUSH1 0xE0 SHL PUSH1 0x0 MSTORE PUSH1 0x41 PUSH1 0x4 MSTORE PUSH1 0x24 PUSH1 0x0 REVERT JUMPDEST PUSH1 0x40 MLOAD PUSH3 0x461BCD PUSH1 0xE5 SHL DUP2 MSTORE PUSH1 0x20 PUSH1 0x4 DUP3 ADD MSTORE PUSH1 0xD PUSH1 0x24 DUP3 ADD MSTORE PUSH13 0x1DD95D1A081C995C5D5A5C9959 PUSH1 0x9A SHL PUSH1 0x44 DUP3 ADD MSTORE PUSH1 0x64 SWAP1 REVERT JUMPDEST PUSH1 0x0 DUP1 REVERT INVALID PUSH1 0x80 PUSH1 0x40 SWAP1 DUP1 DUP3 MSTORE PUSH1 0x4 DUP1 CALLDATASIZE LT ISZERO PUSH2 0x16 JUMPI PUSH1 0x0 DUP1 REVERT JUMPDEST PUSH1 0x0 SWAP2 DUP3 CALLDATALOAD PUSH1 0xE0 SHR SWAP1 DUP2 PUSH4 0xAD5C4648 EQ PUSH2 0x3D7 JUMPI POP DUP1 PUSH4 0xC45A0155 EQ PUSH2 0x393 JUMPI PUSH4 0xF305D719 EQ PUSH2 0x45 JUMPI PUSH1 0x0 DUP1 REVERT JUMPDEST PUSH1 0xC0 CALLDATASIZE PUSH1 0x3 NOT ADD SLT PUSH2 0x38F JUMPI PUSH1 0x1 PUSH1 0x1 PUSH1 0xA0 SHL SUB SWAP3 DUP2 CALLDATALOAD DUP5 DUP2 AND SWAP1 DUP2 SWAP1 SUB PUSH2 0x38B JUMPI PUSH1 0x24 SWAP3 DUP4 CALLDATALOAD SWAP4 PUSH1 0x84 CALLDATALOAD DUP8 DUP2 AND DUP1 SWAP2 SUB PUSH2 0x387 JUMPI DUP8 PUSH32 0x0 AND SWAP7 DUP6 MLOAD SWAP2 PUSH4 0xE6A43905 PUSH1 0xE0 SHL DUP4 MSTORE DUP6 DUP6 DUP5 ADD MSTORE DUP10 PUSH32 0x0 AND SWAP6 DUP7 DUP6 DUP6 ADD MSTORE PUSH1 0x20 SWAP7 PUSH1 0x44 SWAP11 DUP9 DUP7 DUP14 DUP2 DUP5 GAS STATICCALL SWAP6 DUP7 ISZERO PUSH2 0x37D JUMPI DUP6 SWAP7 PUSH2 0x35E JUMPI JUMPDEST POP DUP13 DUP7 AND ISZERO PUSH2 0x2E4 JUMPI JUMPDEST POP POP SWAP8 DUP7 DUP11 SWAP12 DUP3 SWAP12 SWAP11 DUP11 MLOAD SWAP4 DUP5 SWAP3 PUSH4 0x23B872DD PUSH1 0xE0 SHL DUP5 MSTORE CALLER DUP12 DUP6 ADD MSTORE DUP9 AND SWAP13 DUP14 DUP11 DUP6 ADD MSTORE DUP4 ADD MSTORE DUP2 DUP7 GAS SWAP3 PUSH1 0x64 SWAP4 CALL SWAP1 DUP2 ISZERO PUSH2 0x2DA JUMPI DUP4 SWAP2 PUSH2 0x2A4 JUMPI JUMPDEST POP ISZERO PUSH2 0x26B JUMPI CALLVALUE DUP10 LT ISZERO PUSH2 0x264 JUMPI DUP9 SWAP8 JUMPDEST DUP1 EXTCODESIZE ISZERO PUSH2 0x260 JUMPI DUP10 PUSH1 0x64 DUP8 DUP6 DUP1 SWAP5 DUP16 DUP15 SWAP1 DUP15 MLOAD SWAP9 DUP10 SWAP8 DUP9 SWAP7 PUSH4 0x3F0449E5 PUSH1 0xE2 SHL DUP9 MSTORE DUP8 ADD MSTORE DUP13 DUP7 ADD MSTORE DUP5 ADD MSTORE GAS CALL DUP1 ISZERO PUSH2 0x256 JUMPI PUSH2 0x22D JUMPI JUMPDEST POP DUP1 DUP1 DUP1 DUP1 SWAP5 CALLVALUE SWAP1 GAS CALL SWAP1 RETURNDATASIZE ISZERO PUSH2 0x227 JUMPI RETURNDATASIZE SWAP1 PUSH8 0xFFFFFFFFFFFFFFFF DUP3 GT PUSH2 0x215 JUMPI DUP7 MLOAD SWAP2 PUSH2 0x1BE PUSH1 0x1F DUP3 ADD PUSH1 0x1F NOT AND DUP9 ADD DUP5 PUSH2 0x41A JUMP JUMPDEST DUP3 MSTORE DUP6 RETURNDATASIZE SWAP3 ADD RETURNDATACOPY JUMPDEST ISZERO PUSH2 0x1E0 JUMPI POP POP PUSH1 0x60 SWAP5 POP DUP2 MLOAD SWAP4 DUP5 MSTORE CALLVALUE SWAP1 DUP5 ADD MSTORE DUP3 ADD MSTORE RETURN JUMPDEST DUP7 PUSH1 0x13 PUSH19 0x195D1A081D1C985B9CD9995C8819985A5B1959 PUSH1 0x6A SHL SWAP3 PUSH1 0x64 SWAP6 DUP8 MLOAD SWAP6 PUSH3 0x461BCD PUSH1 0xE5 SHL DUP8 MSTORE DUP7 ADD MSTORE DUP5 ADD MSTORE DUP3 ADD MSTORE REVERT JUMPDEST PUSH4 0x4E487B71 PUSH1 0xE0 SHL DUP2 MSTORE PUSH1 0x41 DUP6 MSTORE DUP4 SWAP1 REVERT JUMPDEST POP PUSH2 0x1C6 JUMP JUMPDEST PUSH8 0xFFFFFFFFFFFFFFFF DUP2 GT PUSH2 0x244 JUMPI DUP7 MSTORE CODESIZE PUSH2 0x186 JUMP JUMPDEST PUSH4 0x4E487B71 PUSH1 0xE0 SHL DUP3 MSTORE PUSH1 0x41 DUP6 MSTORE DUP4 DUP3 REVERT JUMPDEST DUP8 MLOAD RETURNDATASIZE DUP5 DUP3 RETURNDATACOPY RETURNDATASIZE SWAP1 REVERT JUMPDEST DUP3 DUP1 REVERT JUMPDEST CALLVALUE SWAP8 PUSH2 0x14D JUMP JUMPDEST DUP7 MLOAD PUSH3 0x461BCD PUSH1 0xE5 SHL DUP2 MSTORE DUP1 DUP7 ADD DUP8 SWAP1 MSTORE PUSH1 0x15 DUP2 DUP7 ADD MSTORE PUSH21 0x1D1BDAD95B881D1C985B9CD9995C8819985A5B1959 PUSH1 0x5A SHL DUP2 DUP13 ADD MSTORE PUSH1 0x64 SWAP1 REVERT JUMPDEST SWAP1 POP DUP7 DUP2 DUP2 RETURNDATASIZE DUP4 GT PUSH2 0x2D3 JUMPI JUMPDEST PUSH2 0x2BB DUP2 DUP4 PUSH2 0x41A JUMP JUMPDEST DUP2 ADD SUB SLT PUSH2 0x260 JUMPI MLOAD DUP1 ISZERO ISZERO DUP2 SUB PUSH2 0x260 JUMPI CODESIZE PUSH2 0x13C JUMP JUMPDEST POP RETURNDATASIZE PUSH2 0x2B1 JUMP JUMPDEST DUP9 MLOAD RETURNDATASIZE DUP6 DUP3 RETURNDATACOPY RETURNDATASIZE SWAP1 REVERT JUMPDEST DUP3 SWAP6 POP SWAP2 PUSH1 0x64 DUP9 DUP7 DUP12 SWAP5 SWAP6 DUP16 DUP15 MLOAD SWAP8 DUP9 SWAP7 DUP8 SWAP6 PUSH4 0xEDEF2E7 PUSH1 0xE3 SHL DUP8 MSTORE DUP7 ADD MSTORE DUP13 DUP6 ADD MSTORE ADDRESS SWAP1 DUP5 ADD MSTORE GAS CALL SWAP1 DUP2 ISZERO PUSH2 0x2DA JUMPI DUP11 SWAP12 DUP11 SWAP12 SWAP11 SWAP3 DUP10 SWAP3 DUP7 SWAP2 PUSH2 0x331 JUMPI JUMPDEST POP SWAP6 SWAP3 POP SWAP12 SWAP11 SWAP10 PUSH2 0xFE JUMP JUMPDEST PUSH2 0x351 SWAP2 POP DUP4 RETURNDATASIZE DUP6 GT PUSH2 0x357 JUMPI JUMPDEST PUSH2 0x349 DUP2 DUP4 PUSH2 0x41A JUMP JUMPDEST DUP2 ADD SWAP1 PUSH2 0x452 JUMP JUMPDEST CODESIZE PUSH2 0x325 JUMP JUMPDEST POP RETURNDATASIZE PUSH2 0x33F JUMP JUMPDEST PUSH2 0x376 SWAP2 SWAP7 POP DUP10 RETURNDATASIZE DUP12 GT PUSH2 0x357 JUMPI PUSH2 0x349 DUP2 DUP4 PUSH2 0x41A JUMP JUMPDEST SWAP5 CODESIZE PUSH2 0xF4 JUMP JUMPDEST DUP11 MLOAD RETURNDATASIZE DUP8 DUP3 RETURNDATACOPY RETURNDATASIZE SWAP1 REVERT JUMPDEST DUP7 DUP1 REVERT JUMPDEST DUP4 DUP1 REVERT JUMPDEST POP DUP1 REVERT JUMPDEST DUP3 DUP5 CALLVALUE PUSH2 0x38F JUMPI DUP2 PUSH1 0x3 NOT CALLDATASIZE ADD SLT PUSH2 0x38F JUMPI MLOAD PUSH32 0x0 PUSH1 0x1 PUSH1 0x1 PUSH1 0xA0 SHL SUB AND DUP2 MSTORE PUSH1 0x20 SWAP1 RETURN JUMPDEST DUP4 SWAP1 CALLVALUE PUSH2 0x38F JUMPI DUP2 PUSH1 0x3 NOT CALLDATASIZE ADD SLT PUSH2 0x38F JUMPI PUSH32 0x0 PUSH1 0x1 PUSH1 0x1 PUSH1 0xA0 SHL SUB AND DUP2 MSTORE PUSH1 0x20 SWAP1 RETURN JUMPDEST SWAP1 PUSH1 0x1F DUP1 NOT SWAP2 ADD AND DUP2 ADD SWAP1 DUP2 LT PUSH8 0xFFFFFFFFFFFFFFFF DUP3 GT OR PUSH2 0x43C JUMPI PUSH1 0x40 MSTORE JUMP JUMPDEST PUSH4 0x4E487B71 PUSH1 0xE0 SHL PUSH1 0x0 MSTORE PUSH1 0x41 PUSH1 0x4 MSTORE PUSH1 0x24 PUSH1 0x0 REVERT JUMPDEST SWAP1 DUP2 PUSH1 0x20 SWAP2 SUB SLT PUSH2 0x471 JUMPI MLOAD PUSH1 0x1 PUSH1 0x1 PUSH1 0xA0 SHL SUB DUP2 AND DUP2 SUB PUSH2 0x471 JUMPI SWAP1 JUMP JUMPDEST PUSH1 0x0 DUP1 REVERT INVALID LOG2 PUSH5 0x6970667358 0x22 SLT KECCAK256 DUP5 ADDMOD SLT SWAP15 SAR DUP10 CALLVALUE 0xC0 PUSH7 0x2EB11E5CD6D2DA SUB CALLER SWAP2 EXTCODEHASH STOP 0xCE 0xE2 0xD3 0x27 KECCAK256 0xB0 0xDC 0xD5 PUSH30 0x34C964736F6C634300081800336080806040523461001657610BFC908161 STOP SHR DUP3 CODECOPY RETURN JUMPDEST PUSH1 0x0 DUP1 REVERT INVALID PUSH1 0x80 PUSH1 0x40 DUP2 DUP2 MSTORE PUSH1 0x4 DUP1 CALLDATASIZE LT ISZERO PUSH2 0x15 JUMPI PUSH1 0x0 DUP1 REVERT JUMPDEST PUSH1 0x0 SWAP3 DUP4 CALLDATALOAD PUSH1 0xE0 SHR SWAP2 DUP3 PUSH4 0x76F79738 EQ PUSH2 0x87 JUMPI POP POP PUSH4 0xE6A43905 EQ PUSH2 0x3A JUMPI PUSH1 0x0 DUP1 REVERT JUMPDEST CALLVALUE PUSH2 0x83 JUMPI DUP1 PUSH1 0x3 NOT CALLDATASIZE ADD SLT PUSH2 0x83 JUMPI PUSH1 0x20 SWAP2 DUP2 PUSH2 0x56 PUSH2 0x274 JUMP JUMPDEST SWAP2 PUSH2 0x5F PUSH2 0x28F JUMP JUMPDEST PUSH1 0x1 PUSH1 0x1 PUSH1 0xA0 SHL SUB SWAP4 DUP5 AND DUP3 MSTORE DUP2 DUP7 MSTORE DUP3 DUP3 KECCAK256 SWAP1 DUP5 AND DUP3 MSTORE DUP6 MSTORE KECCAK256 SLOAD SWAP2 MLOAD SWAP2 AND DUP2 MSTORE RETURN JUMPDEST POP DUP1 REVERT JUMPDEST DUP4 DUP6 SWAP2 CALLVALUE PUSH2 0x270 JUMPI PUSH1 0x60 CALLDATASIZE PUSH1 0x3 NOT ADD SLT PUSH2 0x270 JUMPI PUSH2 0xA3 PUSH2 0x274 JUMP JUMPDEST SWAP4 PUSH2 0xAC PUSH2 0x28F JUMP JUMPDEST SWAP2 PUSH1 0x1 PUSH1 0x1 PUSH1 0xA0 SHL SUB PUSH1 0x44 CALLDATALOAD DUP2 DUP2 AND SWAP4 SWAP2 SWAP3 SWAP1 DUP5 SWAP1 SUB PUSH2 0x26C JUMPI DUP3 DUP6 AND SWAP8 DUP4 DUP2 AND SWAP3 DUP10 DUP5 EQ PUSH2 0x23F JUMPI POP DUP9 DUP4 LT ISZERO PUSH2 0x237 JUMPI DUP4 SWAP1 JUMPDEST AND SWAP4 DUP5 ISZERO PUSH2 0x20D JUMPI DUP5 DUP9 MSTORE PUSH1 0x20 SWAP9 DUP9 DUP11 MSTORE DUP5 DUP9 DUP11 KECCAK256 SWAP8 AND SWAP7 DUP8 DUP11 MSTORE DUP11 MSTORE DUP5 DUP9 DUP11 KECCAK256 SLOAD AND PUSH2 0x1E1 JUMPI DUP8 MLOAD SWAP4 PUSH2 0x921 DUP1 DUP7 ADD SWAP5 DUP7 DUP7 LT PUSH8 0xFFFFFFFFFFFFFFFF DUP8 GT OR PUSH2 0x1CE JUMPI POP SWAP2 DUP6 SWAP4 SWAP2 PUSH1 0xA0 SWAP6 SWAP4 PUSH2 0x2A6 DUP7 CODECOPY DUP9 DUP5 MSTORE DUP10 DUP14 DUP6 ADD MSTORE DUP11 DUP5 ADD MSTORE PUSH1 0x60 DUP4 ADD MSTORE PUSH1 0x80 DUP3 ADD MSTORE SUB ADD SWAP1 DUP7 CREATE DUP1 ISZERO PUSH2 0x1C4 JUMPI AND SWAP4 DUP2 DUP2 MSTORE DUP1 DUP7 MSTORE DUP4 DUP2 KECCAK256 DUP4 DUP3 MSTORE DUP7 MSTORE DUP5 DUP5 DUP1 DUP4 KECCAK256 SWAP3 PUSH12 0xFFFFFFFFFFFFFFFFFFFFFFFF PUSH1 0xA0 SHL SWAP4 DUP4 DUP6 DUP3 SLOAD AND OR SWAP1 SSTORE DUP1 DUP10 MSTORE DUP2 DUP2 KECCAK256 DUP6 DUP3 MSTORE DUP10 MSTORE KECCAK256 SWAP2 DUP3 SLOAD AND OR SWAP1 SSTORE PUSH32 0xA92A2B95C8D8436F6AC4C673C61487364F877EFB9534D4296FAD8EF904546C94 DUP6 DUP5 MLOAD DUP7 DUP2 MSTORE LOG3 MLOAD SWAP1 DUP2 MSTORE RETURN JUMPDEST DUP5 MLOAD RETURNDATASIZE DUP8 DUP3 RETURNDATACOPY RETURNDATASIZE SWAP1 REVERT JUMPDEST PUSH4 0x4E487B71 PUSH1 0xE0 SHL DUP13 MSTORE PUSH1 0x41 SWAP1 MSTORE PUSH1 0x24 DUP12 REVERT JUMPDEST DUP8 MLOAD PUSH3 0x461BCD PUSH1 0xE5 SHL DUP2 MSTORE DUP1 DUP5 ADD DUP12 SWAP1 MSTORE PUSH1 0x6 PUSH1 0x24 DUP3 ADD MSTORE PUSH6 0x657869737473 PUSH1 0xD0 SHL PUSH1 0x44 DUP3 ADD MSTORE PUSH1 0x64 SWAP1 REVERT JUMPDEST DUP7 MLOAD PUSH3 0x461BCD PUSH1 0xE5 SHL DUP2 MSTORE PUSH1 0x20 DUP2 DUP5 ADD MSTORE PUSH1 0x24 DUP2 ADD DUP4 SWAP1 MSTORE PUSH4 0x7A65726F PUSH1 0xE0 SHL PUSH1 0x44 DUP3 ADD MSTORE PUSH1 0x64 SWAP1 REVERT JUMPDEST SWAP5 DUP4 SWAP1 PUSH2 0xE1 JUMP JUMPDEST PUSH3 0x461BCD PUSH1 0xE5 SHL DUP2 MSTORE PUSH1 0x20 DUP4 DUP3 ADD MSTORE PUSH1 0x9 PUSH1 0x24 DUP3 ADD MSTORE PUSH9 0x1A59195B9D1A58D85B PUSH1 0xBA SHL PUSH1 0x44 DUP3 ADD MSTORE PUSH1 0x64 SWAP1 REVERT JUMPDEST DUP7 DUP1 REVERT JUMPDEST DUP3 DUP1 REVERT JUMPDEST PUSH1 0x4 CALLDATALOAD SWAP1 PUSH1 0x1 PUSH1 0x1 PUSH1 0xA0 SHL SUB DUP3 AND DUP3 SUB PUSH2 0x28A JUMPI JUMP JUMPDEST PUSH1 0x0 DUP1 REVERT JUMPDEST PUSH1 0x24 CALLDATALOAD SWAP1 PUSH1 0x1 PUSH1 0x1 PUSH1 0xA0 SHL SUB DUP3 AND DUP3 SUB PUSH2 0x28A JUMPI JUMP INVALID PUSH2 0x120 CALLVALUE PUSH2 0xF0 JUMPI PUSH1 0x1F PUSH2 0x921 CODESIZE DUP2 SWAP1 SUB SWAP2 DUP3 ADD PUSH1 0x1F NOT AND DUP4 ADD SWAP2 PUSH1 0x1 PUSH1 0x1 PUSH1 0x40 SHL SUB DUP4 GT DUP5 DUP5 LT OR PUSH2 0xF5 JUMPI DUP1 DUP5 SWAP3 PUSH1 0xA0 SWAP5 PUSH1 0x40 MSTORE DUP4 CODECOPY DUP2 ADD SUB SLT PUSH2 0xF0 JUMPI PUSH2 0x48 DUP2 PUSH2 0x10B JUMP JUMPDEST SWAP1 PUSH2 0x55 PUSH1 0x20 DUP3 ADD PUSH2 0x10B JUMP JUMPDEST PUSH2 0x61 PUSH1 0x40 DUP4 ADD PUSH2 0x10B JUMP JUMPDEST SWAP1 PUSH2 0x7A PUSH1 0x80 PUSH2 0x73 PUSH1 0x60 DUP7 ADD PUSH2 0x10B JUMP JUMPDEST SWAP5 ADD PUSH2 0x10B JUMP JUMPDEST SWAP4 PUSH1 0x80 MSTORE PUSH1 0xA0 MSTORE PUSH1 0xC0 MSTORE PUSH1 0xE0 MSTORE PUSH2 0x100 SWAP1 DUP2 MSTORE PUSH1 0x40 MLOAD PUSH2 0x801 SWAP2 DUP3 PUSH2 0x120 DUP4 CODECOPY PUSH1 0x80 MLOAD DUP3 DUP2 DUP2 PUSH2 0x55E ADD MSTORE PUSH2 0x5A5 ADD MSTORE PUSH1 0xA0 MLOAD DUP3 DUP2 DUP2 PUSH2 0x2C4 ADD MSTORE PUSH2 0x674 ADD MSTORE PUSH1 0xC0 MLOAD DUP3 DUP2 DUP2 PUSH2 0x238 ADD MSTORE PUSH2 0x5D1 ADD MSTORE PUSH1 0xE0 MLOAD DUP3 DUP2 DUP2 PUSH2 0x4DF ADD MSTORE PUSH2 0x651 ADD MSTORE MLOAD DUP2 DUP2 DUP2 PUSH1 0x25 ADD MSTORE DUP2 DUP2 PUSH2 0x145 ADD MSTORE PUSH2 0x280 ADD MSTORE RETURN JUMPDEST PUSH1 0x0 DUP1 REVERT JUMPDEST PUSH4 0x4E487B71 PUSH1 0xE0 SHL PUSH1 0x0 MSTORE PUSH1 0x41 PUSH1 0x4 MSTORE PUSH1 0x24 PUSH1 0x0 REVERT JUMPDEST MLOAD SWAP1 PUSH1 0x1 PUSH1 0x1 PUSH1 0xA0 SHL SUB DUP3 AND DUP3 SUB PUSH2 0xF0 JUMPI JUMP INVALID PUSH1 0x80 PUSH1 0x40 DUP2 DUP2 MSTORE PUSH1 0x4 DUP1 CALLDATASIZE LT ISZERO PUSH2 0x64 JUMPI JUMPDEST POP POP POP CALLDATASIZE ISZERO PUSH2 0x1F JUMPI PUSH1 0x0 DUP1 REVERT JUMPDEST PUSH2 0x53 CALLER PUSH32 0x0 PUSH1 0x1 PUSH1 0x1 PUSH1 0xA0 SHL SUB AND EQ PUSH2 0x791 JUMP JUMPDEST PUSH2 0x5F CALLVALUE PUSH1 0x1 SLOAD PUSH2 0x76E JUMP JUMPDEST PUSH1 0x1 SSTORE STOP JUMPDEST PUSH1 0x0 SWAP3 DUP4 CALLDATALOAD PUSH1 0xE0 SHR SWAP1 DUP2 PUSH4 0x1809A32 EQ PUSH2 0x6EE JUMPI POP DUP1 PUSH4 0x6FDDE03 EQ PUSH2 0x69B JUMPI DUP1 PUSH4 0x902F1AC EQ PUSH2 0x58D JUMPI DUP1 PUSH4 0xDFE1681 EQ PUSH2 0x549 JUMPI DUP1 PUSH4 0x18160DDD EQ PUSH2 0x52A JUMPI DUP1 PUSH4 0x313CE567 EQ PUSH2 0x50E JUMPI DUP1 PUSH4 0x3FC8CEF3 EQ PUSH2 0x4CA JUMPI DUP1 PUSH4 0x478AA284 EQ PUSH2 0x4AD JUMPI DUP1 PUSH4 0x70A08231 EQ PUSH2 0x475 JUMPI DUP1 PUSH4 0x95D89B41 EQ PUSH2 0x40F JUMPI DUP1 PUSH4 0xA9059CBB EQ PUSH2 0x2F3 JUMPI DUP1 PUSH4 0xD21220A7 EQ PUSH2 0x2AF JUMPI DUP1 PUSH4 0xF887EA40 EQ PUSH2 0x26B JUMPI DUP1 PUSH4 0xFC0C546A EQ PUSH2 0x223 JUMPI PUSH4 0xFC112794 SUB PUSH2 0x11 JUMPI CALLVALUE PUSH2 0x21F JUMPI PUSH1 0x60 CALLDATASIZE PUSH1 0x3 NOT ADD SLT PUSH2 0x21F JUMPI PUSH1 0x1 PUSH1 0x1 PUSH1 0xA0 SHL SUB PUSH1 0x24 CALLDATALOAD DUP2 DUP2 AND SWAP4 SWAP2 SWAP3 SWAP1 DUP5 SWAP1 SUB PUSH2 0x21B JUMPI PUSH2 0x16C PUSH1 0x44 CALLDATALOAD SWAP4 PUSH32 0x0 AND CALLER EQ PUSH2 0x791 JUMP JUMPDEST DUP4 ISZERO PUSH2 0x1E4 JUMPI SWAP1 PUSH2 0x181 DUP6 SWAP4 SWAP3 CALLDATALOAD DUP5 SLOAD PUSH2 0x76E JUMP JUMPDEST DUP4 SSTORE DUP2 PUSH2 0x18C JUMPI DUP3 DUP1 RETURN JUMPDEST DUP2 PUSH1 0x20 SWAP2 PUSH2 0x1BD PUSH32 0xDDF252AD1BE2C89B69C2B068FC378DAA952BA7F163C4A11628F55A4DF523B3EF SWAP5 PUSH1 0x2 SLOAD PUSH2 0x76E JUMP JUMPDEST PUSH1 0x2 SSTORE DUP6 DUP6 MSTORE PUSH1 0x3 DUP4 MSTORE DUP1 DUP6 KECCAK256 PUSH2 0x1D5 DUP4 DUP3 SLOAD PUSH2 0x76E JUMP JUMPDEST SWAP1 SSTORE MLOAD SWAP1 DUP2 MSTORE LOG3 CODESIZE DUP2 DUP2 DUP1 DUP3 DUP1 RETURN JUMPDEST PUSH1 0x20 PUSH1 0x64 SWAP3 MLOAD SWAP2 PUSH3 0x461BCD PUSH1 0xE5 SHL DUP4 MSTORE DUP3 ADD MSTORE PUSH1 0x12 PUSH1 0x24 DUP3 ADD MSTORE PUSH18 0x1C9958DA5C1A595B9D081C995C5D5A5C9959 PUSH1 0x72 SHL PUSH1 0x44 DUP3 ADD MSTORE REVERT JUMPDEST DUP5 DUP1 REVERT JUMPDEST DUP3 DUP1 REVERT JUMPDEST POP POP CALLVALUE PUSH2 0x267 JUMPI DUP2 PUSH1 0x3 NOT CALLDATASIZE ADD SLT PUSH2 0x267 JUMPI MLOAD PUSH32 0x0 PUSH1 0x1 PUSH1 0x1 PUSH1 0xA0 SHL SUB AND DUP2 MSTORE PUSH1 0x20 SWAP1 RETURN JUMPDEST POP DUP1 REVERT JUMPDEST POP POP CALLVALUE PUSH2 0x267 JUMPI DUP2 PUSH1 0x3 NOT CALLDATASIZE ADD SLT PUSH2 0x267 JUMPI MLOAD PUSH32 0x0 PUSH1 0x1 PUSH1 0x1 PUSH1 0xA0 SHL SUB AND DUP2 MSTORE PUSH1 0x20 SWAP1 RETURN JUMPDEST POP POP CALLVALUE PUSH2 0x267 JUMPI DUP2 PUSH1 0x3 NOT CALLDATASIZE ADD SLT PUSH2 0x267 JUMPI MLOAD PUSH32 0x0 PUSH1 0x1 PUSH1 0x1 PUSH1 0xA0 SHL SUB AND DUP2 MSTORE PUSH1 0x20 SWAP1 RETURN JUMPDEST POP SWAP2 CALLVALUE PUSH2 0x40C JUMPI DUP2 PUSH1 0x3 NOT CALLDATASIZE ADD SLT PUSH2 0x40C JUMPI PUSH2 0x30D PUSH2 0x753 JUMP JUMPDEST PUSH1 0x1 PUSH1 0x1 PUSH1 0xA0 SHL SUB AND SWAP1 PUSH1 0x24 CALLDATALOAD SWAP1 DUP3 ISZERO PUSH2 0x3DA JUMPI CALLER DUP2 MSTORE PUSH1 0x3 PUSH1 0x20 MSTORE DUP4 DUP2 KECCAK256 SLOAD DUP3 DUP2 LT PUSH2 0x3A5 JUMPI DUP3 DUP2 SUB SWAP1 DUP2 GT PUSH2 0x392 JUMPI PUSH1 0x20 SWAP6 POP SWAP1 DUP5 SWAP2 CALLER DUP3 MSTORE PUSH1 0x3 DUP8 MSTORE DUP3 DUP3 KECCAK256 SSTORE DUP4 DUP2 MSTORE KECCAK256 PUSH2 0x35F DUP3 DUP3 SLOAD PUSH2 0x76E JUMP JUMPDEST SWAP1 SSTORE DUP3 MLOAD SWAP1 DUP2 MSTORE PUSH32 0xDDF252AD1BE2C89B69C2B068FC378DAA952BA7F163C4A11628F55A4DF523B3EF DUP5 CALLER SWAP3 LOG3 MLOAD PUSH1 0x1 DUP2 MSTORE RETURN JUMPDEST PUSH4 0x4E487B71 PUSH1 0xE0 SHL DUP3 MSTORE PUSH1 0x11 DUP7 MSTORE PUSH1 0x24 DUP3 REVERT JUMPDEST DUP5 MLOAD PUSH3 0x461BCD PUSH1 0xE5 SHL DUP2 MSTORE PUSH1 0x20 DUP2 DUP9 ADD MSTORE PUSH1 0xF PUSH1 0x24 DUP3 ADD MSTORE PUSH15 0x62616C616E636520746F6F206C6F77 PUSH1 0x88 SHL PUSH1 0x44 DUP3 ADD MSTORE PUSH1 0x64 SWAP1 REVERT JUMPDEST DUP4 MLOAD PUSH3 0x461BCD PUSH1 0xE5 SHL DUP2 MSTORE PUSH1 0x20 DUP2 DUP8 ADD MSTORE PUSH1 0xC PUSH1 0x24 DUP3 ADD MSTORE PUSH12 0x7A65726F2061646472657373 PUSH1 0xA0 SHL PUSH1 0x44 DUP3 ADD MSTORE PUSH1 0x64 SWAP1 REVERT JUMPDEST DUP1 REVERT JUMPDEST POP SWAP2 SWAP1 CALLVALUE PUSH2 0x267 JUMPI DUP2 PUSH1 0x3 NOT CALLDATASIZE ADD SLT PUSH2 0x267 JUMPI DUP1 MLOAD SWAP2 DUP2 DUP4 ADD SWAP1 DUP4 DUP3 LT PUSH8 0xFFFFFFFFFFFFFFFF DUP4 GT OR PUSH2 0x462 JUMPI POP PUSH2 0x45E SWAP4 POP DUP2 MSTORE PUSH1 0x3 DUP3 MSTORE PUSH3 0x4D4C5 PUSH1 0xEC SHL PUSH1 0x20 DUP4 ADD MSTORE MLOAD SWAP2 DUP3 SWAP2 DUP3 PUSH2 0x70A JUMP JUMPDEST SUB SWAP1 RETURN JUMPDEST PUSH4 0x4E487B71 PUSH1 0xE0 SHL DUP2 MSTORE PUSH1 0x41 DUP6 MSTORE PUSH1 0x24 SWAP1 REVERT JUMPDEST POP POP CALLVALUE PUSH2 0x267 JUMPI PUSH1 0x20 CALLDATASIZE PUSH1 0x3 NOT ADD SLT PUSH2 0x267 JUMPI PUSH1 0x20 SWAP2 DUP2 SWAP1 PUSH1 0x1 PUSH1 0x1 PUSH1 0xA0 SHL SUB PUSH2 0x49D PUSH2 0x753 JUMP JUMPDEST AND DUP2 MSTORE PUSH1 0x3 DUP5 MSTORE KECCAK256 SLOAD SWAP1 MLOAD SWAP1 DUP2 MSTORE RETURN JUMPDEST POP POP CALLVALUE PUSH2 0x267 JUMPI DUP2 PUSH1 0x3 NOT CALLDATASIZE ADD SLT PUSH2 0x267 JUMPI PUSH1 0x20 SWAP2 SLOAD SWAP1 MLOAD SWAP1 DUP2 MSTORE RETURN JUMPDEST POP POP CALLVALUE PUSH2 0x267 JUMPI DUP2 PUSH1 0x3 NOT CALLDATASIZE ADD SLT PUSH2 0x267 JUMPI MLOAD PUSH32 0x0 PUSH1 0x1 PUSH1 0x1 PUSH1 0xA0 SHL SUB AND DUP2 MSTORE PUSH1 0x20 SWAP1 RETURN JUMPDEST POP POP CALLVALUE PUSH2 0x267 JUMPI DUP2 PUSH1 0x3 NOT CALLDATASIZE ADD SLT PUSH2 0x267 JUMPI PUSH1 0x20 SWAP1 MLOAD PUSH1 0x12 DUP2 MSTORE RETURN JUMPDEST POP POP CALLVALUE PUSH2 0x267 JUMPI DUP2 PUSH1 0x3 NOT CALLDATASIZE ADD SLT PUSH2 0x267 JUMPI PUSH1 0x20 SWAP1 PUSH1 0x2 SLOAD SWAP1 MLOAD SWAP1 DUP2 MSTORE RETURN JUMPDEST POP POP CALLVALUE PUSH2 0x267 JUMPI DUP2 PUSH1 0x3 NOT CALLDATASIZE ADD SLT PUSH2 0x267 JUMPI MLOAD PUSH32 0x0 PUSH1 0x1 PUSH1 0x1 PUSH1 0xA0 SHL SUB AND DUP2 MSTORE PUSH1 0x20 SWAP1 RETURN JUMPDEST POP POP CALLVALUE PUSH2 0x267 JUMPI DUP2 PUSH1 0x3 NOT CALLDATASIZE ADD SLT PUSH2 0x267 JUMPI PUSH1 0x60 SWAP2 SWAP1 PUSH32 0x0 PUSH1 0x1 PUSH1 0x1 PUSH1 0xA0 SHL SUB SWAP1 DUP2 AND PUSH32 0x0 DUP3 AND EQ SWAP1 DUP2 PUSH2 0x64C JUMPI JUMPDEST POP ISZERO PUSH2 0x636 JUMPI PUSH1 0x1 PUSH1 0x1 PUSH1 0x70 SHL SUB DUP1 SWAP3 SLOAD AND SWAP2 PUSH1 0x1 SLOAD AND SWAP2 JUMPDEST DUP2 MLOAD SWAP3 PUSH1 0x1 PUSH1 0x1 PUSH1 0x70 SHL SUB DUP1 SWAP3 AND DUP5 MSTORE AND PUSH1 0x20 DUP4 ADD MSTORE PUSH4 0xFFFFFFFF TIMESTAMP AND SWAP1 DUP3 ADD MSTORE RETURN JUMPDEST PUSH1 0x1 PUSH1 0x1 PUSH1 0x70 SHL SUB DUP1 PUSH1 0x1 SLOAD AND SWAP3 SLOAD AND SWAP2 PUSH2 0x613 JUMP JUMPDEST DUP1 SWAP2 POP PUSH32 0x0 AND SWAP1 PUSH32 0x0 AND EQ CODESIZE PUSH2 0x5FA JUMP JUMPDEST POP SWAP2 SWAP1 CALLVALUE PUSH2 0x267 JUMPI DUP2 PUSH1 0x3 NOT CALLDATASIZE ADD SLT PUSH2 0x267 JUMPI DUP1 MLOAD SWAP2 DUP2 DUP4 ADD SWAP1 DUP4 DUP3 LT PUSH8 0xFFFFFFFFFFFFFFFF DUP4 GT OR PUSH2 0x462 JUMPI POP PUSH2 0x45E SWAP4 POP DUP2 MSTORE PUSH1 0x7 DUP3 MSTORE PUSH7 0x4D6F636B204C5 PUSH1 0xCC SHL PUSH1 0x20 DUP4 ADD MSTORE MLOAD SWAP2 DUP3 SWAP2 DUP3 PUSH2 0x70A JUMP JUMPDEST DUP5 SWAP1 CALLVALUE PUSH2 0x267 JUMPI DUP2 PUSH1 0x3 NOT CALLDATASIZE ADD SLT PUSH2 0x267 JUMPI PUSH1 0x20 SWAP1 PUSH1 0x1 SLOAD DUP2 MSTORE RETURN JUMPDEST PUSH1 0x20 DUP1 DUP3 MSTORE DUP3 MLOAD DUP2 DUP4 ADD DUP2 SWAP1 MSTORE SWAP1 SWAP4 SWAP3 PUSH1 0x0 JUMPDEST DUP3 DUP2 LT PUSH2 0x73F JUMPI POP POP PUSH1 0x40 SWAP3 SWAP4 POP PUSH1 0x0 DUP4 DUP3 DUP5 ADD ADD MSTORE PUSH1 0x1F DUP1 NOT SWAP2 ADD AND ADD ADD SWAP1 JUMP JUMPDEST DUP2 DUP2 ADD DUP7 ADD MLOAD DUP5 DUP3 ADD PUSH1 0x40 ADD MSTORE DUP6 ADD PUSH2 0x71D JUMP JUMPDEST PUSH1 0x4 CALLDATALOAD SWAP1 PUSH1 0x1 PUSH1 0x1 PUSH1 0xA0 SHL SUB DUP3 AND DUP3 SUB PUSH2 0x769 JUMPI JUMP JUMPDEST PUSH1 0x0 DUP1 REVERT JUMPDEST SWAP2 SWAP1 DUP3 ADD DUP1 SWAP3 GT PUSH2 0x77B JUMPI JUMP JUMPDEST PUSH4 0x4E487B71 PUSH1 0xE0 SHL PUSH1 0x0 MSTORE PUSH1 0x11 PUSH1 0x4 MSTORE PUSH1 0x24 PUSH1 0x0 REVERT JUMPDEST ISZERO PUSH2 0x798 JUMPI JUMP JUMPDEST PUSH1 0x40 MLOAD PUSH3 0x461BCD PUSH1 0xE5 SHL DUP2 MSTORE PUSH1 0x20 PUSH1 0x4 DUP3 ADD MSTORE PUSH1 0xB PUSH1 0x24 DUP3 ADD MSTORE PUSH11 0x37B7363C903937BABA32B9 PUSH1 0xA9 SHL PUSH1 0x44 DUP3 ADD MSTORE PUSH1 0x64 SWAP1 REVERT INVALID LOG2 PUSH5 0x6970667358 0x22 SLT KECCAK256 0xCF SELFBALANCE PUSH8 0xFAF61928C367D881 SWAP1 PUSH26 0x357275B99A61BD202286A95739433A905506E864736F6C634300 ADDMOD XOR STOP CALLER LOG2 PUSH5 0x6970667358 0x22 SLT KECCAK256 0x4F SWAP16 LOG4 EXTCODECOPY 0xE7 0xD7 0x4F MSTORE ISZERO PUSH23 0x43452C142A672632230998CE25755F7066487C54355064 PUSH20 0x6F6C634300081800330000000000000000000000 "},"methodIdentifiers":{"WETH()":"ad5c4648","addLiquidityETH(address,uint256,uint256,uint256,address,uint256)":"f305d719","factory()":"c45a0155"}}}}}