{"contracts/mocks/MockDex.sol":{"MockDexPair":{"abi":[{"inputs":[{"internalType":"address","name":"_token0","type":"address"},{"internalType":"address","name":"_token1","type":"address"},{"internalType":"address","name":"_token","type":"address"},{"internalType":"address","name":"_weth","type":"address"},{"internalType":"address","name":"_router","type":"address"}],"stateMutability":"nonpayable","type":"constructor"},{"anonymous":false,"inputs":[{"indexed":true,"internalType":"address","name":"from","type":"address"},{"indexed":true,"internalType":"address","name":"to","type":"address"},{"indexed":false,"internalType":"uint256","name":"value","type":"uint256"}],"name":"Transfer","type":"event"},{"inputs":[{"internalType":"address","name":"account","type":"address"}],"name":"balanceOf","outputs":[{"internalType":"uint256","name":"","type":"uint256"}],"stateMutability":"view","type":"function"},{"inputs":[],"name":"decimals","outputs":[{"internalType":"uint8","name":"","type":"uint8"}],"stateMutability":"view","type":"function"},{"inputs":[],"name":"ethLiquidity","outputs":[{"internalType":"uint256","name":"","type":"uint256"}],"stateMutability":"view","type":"function"},{"inputs":[],"name":"getReserves","outputs":[{"internalType":"uint112","name":"reserve0","type":"uint112"},{"internalType":"uint112","name":"reserve1","type":"uint112"},{"internalType":"uint32","name":"blockTimestampLast","type":"uint32"}],"stateMutability":"view","type":"function"},{"inputs":[],"name":"name","outputs":[{"internalType":"string","name":"","type":"string"}],"stateMutability":"view","type":"function"},{"inputs":[{"internalType":"uint256","name":"tokenAmount","type":"uint256"},{"internalType":"address","name":"lpRecipient","type":"address"},{"internalType":"uint256","name":"liquidity","type":"uint256"}],"name":"notifyLiquidity","outputs":[],"stateMutability":"nonpayable","type":"function"},{"inputs":[],"name":"router","outputs":[{"internalType":"address","name":"","type":"address"}],"stateMutability":"view","type":"function"},{"inputs":[],"name":"symbol","outputs":[{"internalType":"string","name":"","type":"string"}],"stateMutability":"view","type":"function"},{"inputs":[],"name":"token","outputs":[{"internalType":"address","name":"","type":"address"}],"stateMutability":"view","type":"function"},{"inputs":[],"name":"token0","outputs":[{"internalType":"address","name":"","type":"address"}],"stateMutability":"view","type":"function"},{"inputs":[],"name":"token1","outputs":[{"internalType":"address","name":"","type":"address"}],"stateMutability":"view","type":"function"},{"inputs":[],"name":"tokenLiquidity","outputs":[{"internalType":"uint256","name":"","type":"uint256"}],"stateMutability":"view","type":"function"},{"inputs":[],"name":"totalSupply","outputs":[{"internalType":"uint256","name":"","type":"uint256"}],"stateMutability":"view","type":"function"},{"inputs":[{"internalType":"address","name":"to","type":"address"},{"internalType":"uint256","name":"amount","type":"uint256"}],"name":"transfer","outputs":[{"internalType":"bool","name":"","type":"bool"}],"stateMutability":"nonpayable","type":"function"},{"inputs":[],"name":"weth","outputs":[{"internalType":"address","name":"","type":"address"}],"stateMutability":"view","type":"function"},{"stateMutability":"payable","type":"receive"}],"evm":{"bytecode":{"linkReferences":{},"object":"610120346100f057601f61092138819003918201601f19168301916001600160401b038311848410176100f55780849260a0946040528339810103126100f0576100488161010b565b906100556020820161010b565b6100616040830161010b565b9061007a60806100736060860161010b565b940161010b565b9360805260a05260c05260e0526101009081526040516108019182610120833960805182818161055e01526105a5015260a0518281816102c40152610674015260c05182818161023801526105d1015260e0518281816104df015261065101525181818160250152818161014501526102800152f35b600080fd5b634e487b7160e01b600052604160045260246000fd5b51906001600160a01b03821682036100f05756fe60806040818152600480361015610064575b505050361561001f57600080fd5b610053337f00000000000000000000000000000000000000000000000000000000000000006001600160a01b031614610791565b61005f3460015461076e565b600155005b600092833560e01c90816301809a32146106ee5750806306fdde031461069b5780630902f1ac1461058d5780630dfe16811461054957806318160ddd1461052a578063313ce5671461050e5780633fc8cef3146104ca578063478aa284146104ad57806370a082311461047557806395d89b411461040f578063a9059cbb146102f3578063d21220a7146102af578063f887ea401461026b578063fc0c546a146102235763fc11279403610011573461021f57606036600319011261021f576001600160a01b036024358181169391929084900361021b5761016c604435937f0000000000000000000000000000000000000000000000000000000000000000163314610791565b83156101e4579061018185939235845461076e565b83558161018c578280f35b816020916101bd7fddf252ad1be2c89b69c2b068fc378daa952ba7f163c4a11628f55a4df523b3ef9460025461076e565b600255858552600383528085206101d583825461076e565b905551908152a3388181808280f35b6020606492519162461bcd60e51b835282015260126024820152711c9958da5c1a595b9d081c995c5d5a5c995960721b6044820152fd5b8480fd5b8280fd5b505034610267578160031936011261026757517f00000000000000000000000000000000000000000000000000000000000000006001600160a01b03168152602090f35b5080fd5b505034610267578160031936011261026757517f00000000000000000000000000000000000000000000000000000000000000006001600160a01b03168152602090f35b505034610267578160031936011261026757517f00000000000000000000000000000000000000000000000000000000000000006001600160a01b03168152602090f35b50913461040c578160031936011261040c5761030d610753565b6001600160a01b0316906024359082156103da573381526003602052838120548281106103a557828103908111610392576020955090849133825260038752828220558381522061035f82825461076e565b905582519081527fddf252ad1be2c89b69c2b068fc378daa952ba7f163c4a11628f55a4df523b3ef843392a35160018152f35b634e487b7160e01b825260118652602482fd5b845162461bcd60e51b8152602081880152600f60248201526e62616c616e636520746f6f206c6f7760881b6044820152606490fd5b835162461bcd60e51b8152602081870152600c60248201526b7a65726f206164647265737360a01b6044820152606490fd5b80fd5b509190346102675781600319360112610267578051918183019083821067ffffffffffffffff831117610462575061045e93508152600382526204d4c560ec1b6020830152519182918261070a565b0390f35b634e487b7160e01b815260418552602490fd5b5050346102675760203660031901126102675760209181906001600160a01b0361049d610753565b1681526003845220549051908152f35b505034610267578160031936011261026757602091549051908152f35b505034610267578160031936011261026757517f00000000000000000000000000000000000000000000000000000000000000006001600160a01b03168152602090f35b5050346102675781600319360112610267576020905160128152f35b5050346102675781600319360112610267576020906002549051908152f35b505034610267578160031936011261026757517f00000000000000000000000000000000000000000000000000000000000000006001600160a01b03168152602090f35b505034610267578160031936011261026757606091907f00000000000000000000000000000000000000000000000000000000000000006001600160a01b039081167f0000000000000000000000000000000000000000000000000000000000000000821614908161064c575b5015610636576001600160701b03809254169160015416915b8151926001600160701b03809216845216602083015263ffffffff421690820152f35b6001600160701b03806001541692541691610613565b8091507f000000000000000000000000000000000000000000000000000000000000000016907f00000000000000000000000000000000000000000000000000000000000000001614386105fa565b509190346102675781600319360112610267578051918183019083821067ffffffffffffffff831117610462575061045e93508152600782526604d6f636b204c560cc1b6020830152519182918261070a565b8490346102675781600319360112610267576020906001548152f35b6020808252825181830181905290939260005b82811061073f57505060409293506000838284010152601f8019910116010190565b81810186015184820160400152850161071d565b600435906001600160a01b038216820361076957565b600080fd5b9190820180921161077b57565b634e487b7160e01b600052601160045260246000fd5b1561079857565b60405162461bcd60e51b815260206004820152600b60248201526a37b7363c903937baba32b960a91b6044820152606490fdfea2646970667358221220cf4767faf61928c367d8819079357275b99a61bd202286a95739433a905506e864736f6c63430008180033","opcodes":"PUSH2 0x120 CALLVALUE PUSH2 0xF0 JUMPI PUSH1 0x1F PUSH2 0x921 CODESIZE DUP2 SWAP1 SUB SWAP2 DUP3 ADD PUSH1 0x1F NOT AND DUP4 ADD SWAP2 PUSH1 0x1 PUSH1 0x1 PUSH1 0x40 SHL SUB DUP4 GT DUP5 DUP5 LT OR PUSH2 0xF5 JUMPI DUP1 DUP5 SWAP3 PUSH1 0xA0 SWAP5 PUSH1 0x40 MSTORE DUP4 CODECOPY DUP2 ADD SUB SLT PUSH2 0xF0 JUMPI PUSH2 0x48 DUP2 PUSH2 0x10B JUMP JUMPDEST SWAP1 PUSH2 0x55 PUSH1 0x20 DUP3 ADD PUSH2 0x10B JUMP JUMPDEST PUSH2 0x61 PUSH1 0x40 DUP4 ADD PUSH2 0x10B JUMP JUMPDEST SWAP1 PUSH2 0x7A PUSH1 0x80 PUSH2 0x73 PUSH1 0x60 DUP7 ADD PUSH2 0x10B JUMP JUMPDEST SWAP5 ADD PUSH2 0x10B JUMP JUMPDEST SWAP4 PUSH1 0x80 MSTORE PUSH1 0xA0 MSTORE PUSH1 0xC0 MSTORE PUSH1 0xE0 MSTORE PUSH2 0x100 SWAP1 DUP2 MSTORE PUSH1 0x40 MLOAD PUSH2 0x801 SWAP2 DUP3 PUSH2 0x120 DUP4 CODECOPY PUSH1 0x80 MLOAD DUP3 DUP2 DUP2 PUSH2 0x55E ADD MSTORE PUSH2 0x5A5 ADD MSTORE PUSH1 0xA0 MLOAD DUP3 DUP2 DUP2 PUSH2 0x2C4 ADD MSTORE PUSH2 0x674 ADD MSTORE PUSH1 0xC0 MLOAD DUP3 DUP2 DUP2 PUSH2 0x238 ADD MSTORE PUSH2 0x5D1 ADD MSTORE PUSH1 0xE0 MLOAD DUP3 DUP2 DUP2 PUSH2 0x4DF ADD MSTORE PUSH2 0x651 ADD MSTORE MLOAD DUP2 DUP2 DUP2 PUSH1 0x25 ADD MSTORE DUP2 DUP2 PUSH2 0x145 ADD MSTORE PUSH2 0x280 ADD MSTORE RETURN JUMPDEST PUSH1 0x0 DUP1 REVERT JUMPDEST PUSH4 0x4E487B71 PUSH1 0xE0 SHL PUSH1 0x0 MSTORE PUSH1 0x41 PUSH1 0x4 MSTORE PUSH1 0x24 PUSH1 0x0 REVERT JUMPDEST MLOAD SWAP1 PUSH1 0x1 PUSH1 0x1 PUSH1 0xA0 SHL SUB DUP3 AND DUP3 SUB PUSH2 0xF0 JUMPI JUMP INVALID PUSH1 0x80 PUSH1 0x40 DUP2 DUP2 MSTORE PUSH1 0x4 DUP1 CALLDATASIZE LT ISZERO PUSH2 0x64 JUMPI JUMPDEST POP POP POP CALLDATASIZE ISZERO PUSH2 0x1F JUMPI PUSH1 0x0 DUP1 REVERT JUMPDEST PUSH2 0x53 CALLER PUSH32 0x0 PUSH1 0x1 PUSH1 0x1 PUSH1 0xA0 SHL SUB AND EQ PUSH2 0x791 JUMP JUMPDEST PUSH2 0x5F CALLVALUE PUSH1 0x1 SLOAD PUSH2 0x76E JUMP JUMPDEST PUSH1 0x1 SSTORE STOP JUMPDEST PUSH1 0x0 SWAP3 DUP4 CALLDATALOAD PUSH1 0xE0 SHR SWAP1 DUP2 PUSH4 0x1809A32 EQ PUSH2 0x6EE JUMPI POP DUP1 PUSH4 0x6FDDE03 EQ PUSH2 0x69B JUMPI DUP1 PUSH4 0x902F1AC EQ PUSH2 0x58D JUMPI DUP1 PUSH4 0xDFE1681 EQ PUSH2 0x549 JUMPI DUP1 PUSH4 0x18160DDD EQ PUSH2 0x52A JUMPI DUP1 PUSH4 0x313CE567 EQ PUSH2 0x50E JUMPI DUP1 PUSH4 0x3FC8CEF3 EQ PUSH2 0x4CA JUMPI DUP1 PUSH4 0x478AA284 EQ PUSH2 0x4AD JUMPI DUP1 PUSH4 0x70A08231 EQ PUSH2 0x475 JUMPI DUP1 PUSH4 0x95D89B41 EQ PUSH2 0x40F JUMPI DUP1 PUSH4 0xA9059CBB EQ PUSH2 0x2F3 JUMPI DUP1 PUSH4 0xD21220A7 EQ PUSH2 0x2AF JUMPI DUP1 PUSH4 0xF887EA40 EQ PUSH2 0x26B JUMPI DUP1 PUSH4 0xFC0C546A EQ PUSH2 0x223 JUMPI PUSH4 0xFC112794 SUB PUSH2 0x11 JUMPI CALLVALUE PUSH2 0x21F JUMPI PUSH1 0x60 CALLDATASIZE PUSH1 0x3 NOT ADD SLT PUSH2 0x21F JUMPI PUSH1 0x1 PUSH1 0x1 PUSH1 0xA0 SHL SUB PUSH1 0x24 CALLDATALOAD DUP2 DUP2 AND SWAP4 SWAP2 SWAP3 SWAP1 DUP5 SWAP1 SUB PUSH2 0x21B JUMPI PUSH2 0x16C PUSH1 0x44 CALLDATALOAD SWAP4 PUSH32 0x0 AND CALLER EQ PUSH2 0x791 JUMP JUMPDEST DUP4 ISZERO PUSH2 0x1E4 JUMPI SWAP1 PUSH2 0x181 DUP6 SWAP4 SWAP3 CALLDATALOAD DUP5 SLOAD PUSH2 0x76E JUMP JUMPDEST DUP4 SSTORE DUP2 PUSH2 0x18C JUMPI DUP3 DUP1 RETURN JUMPDEST DUP2 PUSH1 0x20 SWAP2 PUSH2 0x1BD PUSH32 0xDDF252AD1BE2C89B69C2B068FC378DAA952BA7F163C4A11628F55A4DF523B3EF SWAP5 PUSH1 0x2 SLOAD PUSH2 0x76E JUMP JUMPDEST PUSH1 0x2 SSTORE DUP6 DUP6 MSTORE PUSH1 0x3 DUP4 MSTORE DUP1 DUP6 KECCAK256 PUSH2 0x1D5 DUP4 DUP3 SLOAD PUSH2 0x76E JUMP JUMPDEST SWAP1 SSTORE MLOAD SWAP1 DUP2 MSTORE LOG3 CODESIZE DUP2 DUP2 DUP1 DUP3 DUP1 RETURN JUMPDEST PUSH1 0x20 PUSH1 0x64 SWAP3 MLOAD SWAP2 PUSH3 0x461BCD PUSH1 0xE5 SHL DUP4 MSTORE DUP3 ADD MSTORE PUSH1 0x12 PUSH1 0x24 DUP3 ADD MSTORE PUSH18 0x1C9958DA5C1A595B9D081C995C5D5A5C9959 PUSH1 0x72 SHL PUSH1 0x44 DUP3 ADD MSTORE REVERT JUMPDEST DUP5 DUP1 REVERT JUMPDEST DUP3 DUP1 REVERT JUMPDEST POP POP CALLVALUE PUSH2 0x267 JUMPI DUP2 PUSH1 0x3 NOT CALLDATASIZE ADD SLT PUSH2 0x267 JUMPI MLOAD PUSH32 0x0 PUSH1 0x1 PUSH1 0x1 PUSH1 0xA0 SHL SUB AND DUP2 MSTORE PUSH1 0x20 SWAP1 RETURN JUMPDEST POP DUP1 REVERT JUMPDEST POP POP CALLVALUE PUSH2 0x267 JUMPI DUP2 PUSH1 0x3 NOT CALLDATASIZE ADD SLT PUSH2 0x267 JUMPI MLOAD PUSH32 0x0 PUSH1 0x1 PUSH1 0x1 PUSH1 0xA0 SHL SUB AND DUP2 MSTORE PUSH1 0x20 SWAP1 RETURN JUMPDEST POP POP CALLVALUE PUSH2 0x267 JUMPI DUP2 PUSH1 0x3 NOT CALLDATASIZE ADD SLT PUSH2 0x267 JUMPI MLOAD PUSH32 0x0 PUSH1 0x1 PUSH1 0x1 PUSH1 0xA0 SHL SUB AND DUP2 MSTORE PUSH1 0x20 SWAP1 RETURN JUMPDEST POP SWAP2 CALLVALUE PUSH2 0x40C JUMPI DUP2 PUSH1 0x3 NOT CALLDATASIZE ADD SLT PUSH2 0x40C JUMPI PUSH2 0x30D PUSH2 0x753 JUMP JUMPDEST PUSH1 0x1 PUSH1 0x1 PUSH1 0xA0 SHL SUB AND SWAP1 PUSH1 0x24 CALLDATALOAD SWAP1 DUP3 ISZERO PUSH2 0x3DA JUMPI CALLER DUP2 MSTORE PUSH1 0x3 PUSH1 0x20 MSTORE DUP4 DUP2 KECCAK256 SLOAD DUP3 DUP2 LT PUSH2 0x3A5 JUMPI DUP3 DUP2 SUB SWAP1 DUP2 GT PUSH2 0x392 JUMPI PUSH1 0x20 SWAP6 POP SWAP1 DUP5 SWAP2 CALLER DUP3 MSTORE PUSH1 0x3 DUP8 MSTORE DUP3 DUP3 KECCAK256 SSTORE DUP4 DUP2 MSTORE KECCAK256 PUSH2 0x35F DUP3 DUP3 SLOAD PUSH2 0x76E JUMP JUMPDEST SWAP1 SSTORE DUP3 MLOAD SWAP1 DUP2 MSTORE PUSH32 0xDDF252AD1BE2C89B69C2B068FC378DAA952BA7F163C4A11628F55A4DF523B3EF DUP5 CALLER SWAP3 LOG3 MLOAD PUSH1 0x1 DUP2 MSTORE RETURN JUMPDEST PUSH4 0x4E487B71 PUSH1 0xE0 SHL DUP3 MSTORE PUSH1 0x11 DUP7 MSTORE PUSH1 0x24 DUP3 REVERT JUMPDEST DUP5 MLOAD PUSH3 0x461BCD PUSH1 0xE5 SHL DUP2 MSTORE PUSH1 0x20 DUP2 DUP9 ADD MSTORE PUSH1 0xF PUSH1 0x24 DUP3 ADD MSTORE PUSH15 0x62616C616E636520746F6F206C6F77 PUSH1 0x88 SHL PUSH1 0x44 DUP3 ADD MSTORE PUSH1 0x64 SWAP1 REVERT JUMPDEST DUP4 MLOAD PUSH3 0x461BCD PUSH1 0xE5 SHL DUP2 MSTORE PUSH1 0x20 DUP2 DUP8 ADD MSTORE PUSH1 0xC PUSH1 0x24 DUP3 ADD MSTORE PUSH12 0x7A65726F2061646472657373 PUSH1 0xA0 SHL PUSH1 0x44 DUP3 ADD MSTORE PUSH1 0x64 SWAP1 REVERT JUMPDEST DUP1 REVERT JUMPDEST POP SWAP2 SWAP1 CALLVALUE PUSH2 0x267 JUMPI DUP2 PUSH1 0x3 NOT CALLDATASIZE ADD SLT PUSH2 0x267 JUMPI DUP1 MLOAD SWAP2 DUP2 DUP4 ADD SWAP1 DUP4 DUP3 LT PUSH8 0xFFFFFFFFFFFFFFFF DUP4 GT OR PUSH2 0x462 JUMPI POP PUSH2 0x45E SWAP4 POP DUP2 MSTORE PUSH1 0x3 DUP3 MSTORE PUSH3 0x4D4C5 PUSH1 0xEC SHL PUSH1 0x20 DUP4 ADD MSTORE MLOAD SWAP2 DUP3 SWAP2 DUP3 PUSH2 0x70A JUMP JUMPDEST SUB SWAP1 RETURN JUMPDEST PUSH4 0x4E487B71 PUSH1 0xE0 SHL DUP2 MSTORE PUSH1 0x41 DUP6 MSTORE PUSH1 0x24 SWAP1 REVERT JUMPDEST POP POP CALLVALUE PUSH2 0x267 JUMPI PUSH1 0x20 CALLDATASIZE PUSH1 0x3 NOT ADD SLT PUSH2 0x267 JUMPI PUSH1 0x20 SWAP2 DUP2 SWAP1 PUSH1 0x1 PUSH1 0x1 PUSH1 0xA0 SHL SUB PUSH2 0x49D PUSH2 0x753 JUMP JUMPDEST AND DUP2 MSTORE PUSH1 0x3 DUP5 MSTORE KECCAK256 SLOAD SWAP1 MLOAD SWAP1 DUP2 MSTORE RETURN JUMPDEST POP POP CALLVALUE PUSH2 0x267 JUMPI DUP2 PUSH1 0x3 NOT CALLDATASIZE ADD SLT PUSH2 0x267 JUMPI PUSH1 0x20 SWAP2 SLOAD SWAP1 MLOAD SWAP1 DUP2 MSTORE RETURN JUMPDEST POP POP CALLVALUE PUSH2 0x267 JUMPI DUP2 PUSH1 0x3 NOT CALLDATASIZE ADD SLT PUSH2 0x267 JUMPI MLOAD PUSH32 0x0 PUSH1 0x1 PUSH1 0x1 PUSH1 0xA0 SHL SUB AND DUP2 MSTORE PUSH1 0x20 SWAP1 RETURN JUMPDEST POP POP CALLVALUE PUSH2 0x267 JUMPI DUP2 PUSH1 0x3 NOT CALLDATASIZE ADD SLT PUSH2 0x267 JUMPI PUSH1 0x20 SWAP1 MLOAD PUSH1 0x12 DUP2 MSTORE RETURN JUMPDEST POP POP CALLVALUE PUSH2 0x267 JUMPI DUP2 PUSH1 0x3 NOT CALLDATASIZE ADD SLT PUSH2 0x267 JUMPI PUSH1 0x20 SWAP1 PUSH1 0x2 SLOAD SWAP1 MLOAD SWAP1 DUP2 MSTORE RETURN JUMPDEST POP POP CALLVALUE PUSH2 0x267 JUMPI DUP2 PUSH1 0x3 NOT CALLDATASIZE ADD SLT PUSH2 0x267 JUMPI MLOAD PUSH32 0x0 PUSH1 0x1 PUSH1 0x1 PUSH1 0xA0 SHL SUB AND DUP2 MSTORE PUSH1 0x20 SWAP1 RETURN JUMPDEST POP POP CALLVALUE PUSH2 0x267 JUMPI DUP2 PUSH1 0x3 NOT CALLDATASIZE ADD SLT PUSH2 0x267 JUMPI PUSH1 0x60 SWAP2 SWAP1 PUSH32 0x0 PUSH1 0x1 PUSH1 0x1 PUSH1 0xA0 SHL SUB SWAP1 DUP2 AND PUSH32 0x0 DUP3 AND EQ SWAP1 DUP2 PUSH2 0x64C JUMPI JUMPDEST POP ISZERO PUSH2 0x636 JUMPI PUSH1 0x1 PUSH1 0x1 PUSH1 0x70 SHL SUB DUP1 SWAP3 SLOAD AND SWAP2 PUSH1 0x1 SLOAD AND SWAP2 JUMPDEST DUP2 MLOAD SWAP3 PUSH1 0x1 PUSH1 0x1 PUSH1 0x70 SHL SUB DUP1 SWAP3 AND DUP5 MSTORE AND PUSH1 0x20 DUP4 ADD MSTORE PUSH4 0xFFFFFFFF TIMESTAMP AND SWAP1 DUP3 ADD MSTORE RETURN JUMPDEST PUSH1 0x1 PUSH1 0x1 PUSH1 0x70 SHL SUB DUP1 PUSH1 0x1 SLOAD AND SWAP3 SLOAD AND SWAP2 PUSH2 0x613 JUMP JUMPDEST DUP1 SWAP2 POP PUSH32 0x0 AND SWAP1 PUSH32 0x0 AND EQ CODESIZE PUSH2 0x5FA JUMP JUMPDEST POP SWAP2 SWAP1 CALLVALUE PUSH2 0x267 JUMPI DUP2 PUSH1 0x3 NOT CALLDATASIZE ADD SLT PUSH2 0x267 JUMPI DUP1 MLOAD SWAP2 DUP2 DUP4 ADD SWAP1 DUP4 DUP3 LT PUSH8 0xFFFFFFFFFFFFFFFF DUP4 GT OR PUSH2 0x462 JUMPI POP PUSH2 0x45E SWAP4 POP DUP2 MSTORE PUSH1 0x7 DUP3 MSTORE PUSH7 0x4D6F636B204C5 PUSH1 0xCC SHL PUSH1 0x20 DUP4 ADD MSTORE MLOAD SWAP2 DUP3 SWAP2 DUP3 PUSH2 0x70A JUMP JUMPDEST DUP5 SWAP1 CALLVALUE PUSH2 0x267 JUMPI DUP2 PUSH1 0x3 NOT CALLDATASIZE ADD SLT PUSH2 0x267 JUMPI PUSH1 0x20 SWAP1 PUSH1 0x1 SLOAD DUP2 MSTORE RETURN JUMPDEST PUSH1 0x20 DUP1 DUP3 MSTORE DUP3 MLOAD DUP2 DUP4 ADD DUP2 SWAP1 MSTORE SWAP1 SWAP4 SWAP3 PUSH1 0x0 JUMPDEST DUP3 DUP2 LT PUSH2 0x73F JUMPI POP POP PUSH1 0x40 SWAP3 SWAP4 POP PUSH1 0x0 DUP4 DUP3 DUP5 ADD ADD MSTORE PUSH1 0x1F DUP1 NOT SWAP2 ADD AND ADD ADD SWAP1 JUMP JUMPDEST DUP2 DUP2 ADD DUP7 ADD MLOAD DUP5 DUP3 ADD PUSH1 0x40 ADD MSTORE DUP6 ADD PUSH2 0x71D JUMP JUMPDEST PUSH1 0x4 CALLDATALOAD SWAP1 PUSH1 0x1 PUSH1 0x1 PUSH1 0xA0 SHL SUB DUP3 AND DUP3 SUB PUSH2 0x769 JUMPI JUMP JUMPDEST PUSH1 0x0 DUP1 REVERT JUMPDEST SWAP2 SWAP1 DUP3 ADD DUP1 SWAP3 GT PUSH2 0x77B JUMPI JUMP JUMPDEST PUSH4 0x4E487B71 PUSH1 0xE0 SHL PUSH1 0x0 MSTORE PUSH1 0x11 PUSH1 0x4 MSTORE PUSH1 0x24 PUSH1 0x0 REVERT JUMPDEST ISZERO PUSH2 0x798 JUMPI JUMP JUMPDEST PUSH1 0x40 MLOAD PUSH3 0x461BCD PUSH1 0xE5 SHL DUP2 MSTORE PUSH1 0x20 PUSH1 0x4 DUP3 ADD MSTORE PUSH1 0xB PUSH1 0x24 DUP3 ADD MSTORE PUSH11 0x37B7363C903937BABA32B9 PUSH1 0xA9 SHL PUSH1 0x44 DUP3 ADD MSTORE PUSH1 0x64 SWAP1 REVERT INVALID LOG2 PUSH5 0x6970667358 0x22 SLT KECCAK256 0xCF SELFBALANCE PUSH8 0xFAF61928C367D881 SWAP1 PUSH26 0x357275B99A61BD202286A95739433A905506E864736F6C634300 ADDMOD XOR STOP CALLER "},"methodIdentifiers":{"balanceOf(address)":"70a08231","decimals()":"313ce567","ethLiquidity()":"01809a32","getReserves()":"0902f1ac","name()":"06fdde03","notifyLiquidity(uint256,address,uint256)":"fc112794","router()":"f887ea40","symbol()":"95d89b41","token()":"fc0c546a","token0()":"0dfe1681","token1()":"d21220a7","tokenLiquidity()":"478aa284","totalSupply()":"18160ddd","transfer(address,uint256)":"a9059cbb","weth()":"3fc8cef3"}}}}}