{"contracts/mocks/MockDex.sol":{"MockV3Pool":{"abi":[{"inputs":[{"internalType":"address","name":"_token0","type":"address"},{"internalType":"address","name":"_token1","type":"address"},{"internalType":"uint24","name":"_fee","type":"uint24"},{"internalType":"uint160","name":"_sqrtPriceX96","type":"uint160"}],"stateMutability":"nonpayable","type":"constructor"},{"inputs":[{"internalType":"uint128","name":"amount","type":"uint128"}],"name":"addLiquidity","outputs":[],"stateMutability":"nonpayable","type":"function"},{"inputs":[],"name":"fee","outputs":[{"internalType":"uint24","name":"","type":"uint24"}],"stateMutability":"view","type":"function"},{"inputs":[],"name":"liquidity","outputs":[{"internalType":"uint128","name":"","type":"uint128"}],"stateMutability":"view","type":"function"},{"inputs":[],"name":"slot0","outputs":[{"internalType":"uint160","name":"","type":"uint160"},{"internalType":"int24","name":"","type":"int24"},{"internalType":"uint16","name":"","type":"uint16"},{"internalType":"uint16","name":"","type":"uint16"},{"internalType":"uint16","name":"","type":"uint16"},{"internalType":"uint8","name":"","type":"uint8"},{"internalType":"bool","name":"","type":"bool"}],"stateMutability":"view","type":"function"},{"inputs":[],"name":"sqrtPriceX96","outputs":[{"internalType":"uint160","name":"","type":"uint160"}],"stateMutability":"view","type":"function"},{"inputs":[],"name":"token0","outputs":[{"internalType":"address","name":"","type":"address"}],"stateMutability":"view","type":"function"},{"inputs":[],"name":"token1","outputs":[{"internalType":"address","name":"","type":"address"}],"stateMutability":"view","type":"function"}],"evm":{"bytecode":{"linkReferences":{},"object":"60e0346100c257601f61035938819003918201601f19168301916001600160401b038311848410176100c7578084926080946040528339810103126100c257610047816100dd565b90610054602082016100dd565b60408201519162ffffff831683036100c257606001516001600160a01b03811693908490036100c25760805260a05260c052600080546001600160a01b03191691909117905560405161026790816100f2823960805181610202015260a0518160c5015260c0518160890152f35b600080fd5b634e487b7160e01b600052604160045260246000fd5b51906001600160a01b03821682036100c25756fe60806040818152600436101561001457600080fd5b600091823560e01c9081630dfe1681146101ee575080631a686502146101c75780633850c7bd1461017f578063709e99521461011b5780638db791d2146100f4578063d21220a7146100b15763ddca3f431461006f57600080fd5b346100ad57816003193601126100ad576020905162ffffff7f0000000000000000000000000000000000000000000000000000000000000000168152f35b5080fd5b50346100ad57816003193601126100ad57517f00000000000000000000000000000000000000000000000000000000000000006001600160a01b03168152602090f35b50346100ad57816003193601126100ad57905490516001600160a01b039091168152602090f35b823461017c57602036600319011261017c576004356001600160801b038082168092036101785760015491818316018181116101645716906001600160801b0319161760015580f35b634e487b7160e01b84526011600452602484fd5b8280fd5b80fd5b50346100ad57816003193601126100ad578160e09260018060a01b0381541692805193845281602085015283015280606083015280608083015260a0820152600160c0820152f35b50346100ad57816003193601126100ad576020906001600160801b03600154169051908152f35b8390346100ad57816003193601126100ad577f00000000000000000000000000000000000000000000000000000000000000006001600160a01b03168152602090f3fea26469706673582212204b35bc21dbb48482ced70a17cb0def59da1066bd29d9823384a63711fb61e28864736f6c63430008180033","opcodes":"PUSH1 0xE0 CALLVALUE PUSH2 0xC2 JUMPI PUSH1 0x1F PUSH2 0x359 CODESIZE DUP2 SWAP1 SUB SWAP2 DUP3 ADD PUSH1 0x1F NOT AND DUP4 ADD SWAP2 PUSH1 0x1 PUSH1 0x1 PUSH1 0x40 SHL SUB DUP4 GT DUP5 DUP5 LT OR PUSH2 0xC7 JUMPI DUP1 DUP5 SWAP3 PUSH1 0x80 SWAP5 PUSH1 0x40 MSTORE DUP4 CODECOPY DUP2 ADD SUB SLT PUSH2 0xC2 JUMPI PUSH2 0x47 DUP2 PUSH2 0xDD JUMP JUMPDEST SWAP1 PUSH2 0x54 PUSH1 0x20 DUP3 ADD PUSH2 0xDD JUMP JUMPDEST PUSH1 0x40 DUP3 ADD MLOAD SWAP2 PUSH3 0xFFFFFF DUP4 AND DUP4 SUB PUSH2 0xC2 JUMPI PUSH1 0x60 ADD MLOAD PUSH1 0x1 PUSH1 0x1 PUSH1 0xA0 SHL SUB DUP2 AND SWAP4 SWAP1 DUP5 SWAP1 SUB PUSH2 0xC2 JUMPI PUSH1 0x80 MSTORE PUSH1 0xA0 MSTORE PUSH1 0xC0 MSTORE PUSH1 0x0 DUP1 SLOAD PUSH1 0x1 PUSH1 0x1 PUSH1 0xA0 SHL SUB NOT AND SWAP2 SWAP1 SWAP2 OR SWAP1 SSTORE PUSH1 0x40 MLOAD PUSH2 0x267 SWAP1 DUP2 PUSH2 0xF2 DUP3 CODECOPY PUSH1 0x80 MLOAD DUP2 PUSH2 0x202 ADD MSTORE PUSH1 0xA0 MLOAD DUP2 PUSH1 0xC5 ADD MSTORE PUSH1 0xC0 MLOAD DUP2 PUSH1 0x89 ADD MSTORE RETURN JUMPDEST PUSH1 0x0 DUP1 REVERT JUMPDEST PUSH4 0x4E487B71 PUSH1 0xE0 SHL PUSH1 0x0 MSTORE PUSH1 0x41 PUSH1 0x4 MSTORE PUSH1 0x24 PUSH1 0x0 REVERT JUMPDEST MLOAD SWAP1 PUSH1 0x1 PUSH1 0x1 PUSH1 0xA0 SHL SUB DUP3 AND DUP3 SUB PUSH2 0xC2 JUMPI JUMP INVALID PUSH1 0x80 PUSH1 0x40 DUP2 DUP2 MSTORE PUSH1 0x4 CALLDATASIZE LT ISZERO PUSH2 0x14 JUMPI PUSH1 0x0 DUP1 REVERT JUMPDEST PUSH1 0x0 SWAP2 DUP3 CALLDATALOAD PUSH1 0xE0 SHR SWAP1 DUP2 PUSH4 0xDFE1681 EQ PUSH2 0x1EE JUMPI POP DUP1 PUSH4 0x1A686502 EQ PUSH2 0x1C7 JUMPI DUP1 PUSH4 0x3850C7BD EQ PUSH2 0x17F JUMPI DUP1 PUSH4 0x709E9952 EQ PUSH2 0x11B JUMPI DUP1 PUSH4 0x8DB791D2 EQ PUSH2 0xF4 JUMPI DUP1 PUSH4 0xD21220A7 EQ PUSH2 0xB1 JUMPI PUSH4 0xDDCA3F43 EQ PUSH2 0x6F JUMPI PUSH1 0x0 DUP1 REVERT JUMPDEST CALLVALUE PUSH2 0xAD JUMPI DUP2 PUSH1 0x3 NOT CALLDATASIZE ADD SLT PUSH2 0xAD JUMPI PUSH1 0x20 SWAP1 MLOAD PUSH3 0xFFFFFF PUSH32 0x0 AND DUP2 MSTORE RETURN JUMPDEST POP DUP1 REVERT JUMPDEST POP CALLVALUE PUSH2 0xAD JUMPI DUP2 PUSH1 0x3 NOT CALLDATASIZE ADD SLT PUSH2 0xAD JUMPI MLOAD PUSH32 0x0 PUSH1 0x1 PUSH1 0x1 PUSH1 0xA0 SHL SUB AND DUP2 MSTORE PUSH1 0x20 SWAP1 RETURN JUMPDEST POP CALLVALUE PUSH2 0xAD JUMPI DUP2 PUSH1 0x3 NOT CALLDATASIZE ADD SLT PUSH2 0xAD JUMPI SWAP1 SLOAD SWAP1 MLOAD PUSH1 0x1 PUSH1 0x1 PUSH1 0xA0 SHL SUB SWAP1 SWAP2 AND DUP2 MSTORE PUSH1 0x20 SWAP1 RETURN JUMPDEST DUP3 CALLVALUE PUSH2 0x17C JUMPI PUSH1 0x20 CALLDATASIZE PUSH1 0x3 NOT ADD SLT PUSH2 0x17C JUMPI PUSH1 0x4 CALLDATALOAD PUSH1 0x1 PUSH1 0x1 PUSH1 0x80 SHL SUB DUP1 DUP3 AND DUP1 SWAP3 SUB PUSH2 0x178 JUMPI PUSH1 0x1 SLOAD SWAP2 DUP2 DUP4 AND ADD DUP2 DUP2 GT PUSH2 0x164 JUMPI AND SWAP1 PUSH1 0x1 PUSH1 0x1 PUSH1 0x80 SHL SUB NOT AND OR PUSH1 0x1 SSTORE DUP1 RETURN JUMPDEST PUSH4 0x4E487B71 PUSH1 0xE0 SHL DUP5 MSTORE PUSH1 0x11 PUSH1 0x4 MSTORE PUSH1 0x24 DUP5 REVERT JUMPDEST DUP3 DUP1 REVERT JUMPDEST DUP1 REVERT JUMPDEST POP CALLVALUE PUSH2 0xAD JUMPI DUP2 PUSH1 0x3 NOT CALLDATASIZE ADD SLT PUSH2 0xAD JUMPI DUP2 PUSH1 0xE0 SWAP3 PUSH1 0x1 DUP1 PUSH1 0xA0 SHL SUB DUP2 SLOAD AND SWAP3 DUP1 MLOAD SWAP4 DUP5 MSTORE DUP2 PUSH1 0x20 DUP6 ADD MSTORE DUP4 ADD MSTORE DUP1 PUSH1 0x60 DUP4 ADD MSTORE DUP1 PUSH1 0x80 DUP4 ADD MSTORE PUSH1 0xA0 DUP3 ADD MSTORE PUSH1 0x1 PUSH1 0xC0 DUP3 ADD MSTORE RETURN JUMPDEST POP CALLVALUE PUSH2 0xAD JUMPI DUP2 PUSH1 0x3 NOT CALLDATASIZE ADD SLT PUSH2 0xAD JUMPI PUSH1 0x20 SWAP1 PUSH1 0x1 PUSH1 0x1 PUSH1 0x80 SHL SUB PUSH1 0x1 SLOAD AND SWAP1 MLOAD SWAP1 DUP2 MSTORE RETURN JUMPDEST DUP4 SWAP1 CALLVALUE PUSH2 0xAD JUMPI DUP2 PUSH1 0x3 NOT CALLDATASIZE ADD SLT PUSH2 0xAD JUMPI PUSH32 0x0 PUSH1 0x1 PUSH1 0x1 PUSH1 0xA0 SHL SUB AND DUP2 MSTORE PUSH1 0x20 SWAP1 RETURN INVALID LOG2 PUSH5 0x6970667358 0x22 SLT KECCAK256 0x4B CALLDATALOAD 0xBC 0x21 0xDB 0xB4 DUP5 DUP3 0xCE 0xD7 EXP OR 0xCB 0xD 0xEF MSIZE 0xDA LT PUSH7 0xBD29D9823384A6 CALLDATACOPY GT 0xFB PUSH2 0xE288 PUSH5 0x736F6C6343 STOP ADDMOD XOR STOP CALLER "},"methodIdentifiers":{"addLiquidity(uint128)":"709e9952","fee()":"ddca3f43","liquidity()":"1a686502","slot0()":"3850c7bd","sqrtPriceX96()":"8db791d2","token0()":"0dfe1681","token1()":"d21220a7"}}}}}