{"contracts/MemeLaunchDeployers.sol":{"MemePoolDeployer":{"abi":[{"inputs":[{"internalType":"address","name":"token","type":"address"},{"internalType":"address","name":"factory","type":"address"},{"internalType":"address","name":"feeRecipient","type":"address"},{"internalType":"uint256","name":"feeBps","type":"uint256"},{"internalType":"uint256","name":"virtualEthReserve","type":"uint256"},{"internalType":"uint256","name":"virtualTokenReserve","type":"uint256"},{"internalType":"uint256","name":"graduationTargetEth","type":"uint256"},{"internalType":"address","name":"dexRouter","type":"address"},{"internalType":"address","name":"lpRecipient","type":"address"},{"internalType":"address","name":"v3PositionManager","type":"address"},{"internalType":"uint24","name":"v3Fee","type":"uint24"}],"name":"deployPool","outputs":[{"internalType":"address","name":"","type":"address"}],"stateMutability":"nonpayable","type":"function"}],"evm":{"bytecode":{"linkReferences":{},"object":"608080604052346100165761360b908161001c8239f35b600080fdfe608080604052600436101561001357600080fd5b6000803560e01c63f79620971461002957600080fd5b3461016e576101608060031936011261016a576001600160a01b036004358181169491929085900361016657602435948386168096036101625760443584811680910361015e5760e43585811680910361015a576101043586811680910361015657610124359187831680930361015257610144359362ffffff851680950361014e576134649a8b89019689881067ffffffffffffffff89111761013a57899a9b9c9998996101728a398752602087015260408601526064356060860152608435608086015260a43560a086015260c43560c086015260e085015261010084015261012083015261014082015203019083f090811561012f576020925060405191168152f35b6040513d84823e3d90fd5b634e487b7160e01b8c52604160045260248cfd5b8980fd5b8880fd5b8780fd5b8680fd5b8580fd5b8480fd5b8380fd5b5080fd5b80fdfe601f6200346438819003918201601f19166101009081019290916001600160401b0384118385101762000470578161016092849260409687528339810103126200046b576200004e8162000486565b60206200005d81840162000486565b6200006a85850162000486565b91606085015160808601519160a087015160c0880151906200008f60e08a0162000486565b946200009f6101008b0162000486565b94610140620000b26101208d0162000486565b9b01519762ffffff89169a8b8a036200046b576001600160a01b039a818c161562000435578b831615620003fd578b16988915620003b85761012c8411620003845784156200033f578515620002fa578615620002c357908b8099989796959493921696876200025f575b5060a05260805260018060a01b03199788600054161760005560015560c05260e0526004558360055416176005551690600654161760065560075492156000146200025957506127105b62ffffff60a01b60a09190911b1692166001600160b81b03199190911617176007553460025551612fc890816200049c823960805181818161027201528181610913015281816109dc01528181610b9101528181610f04015281816110260152611188015260a0518181816101e0015281816104cb0152818161071901528181610a3b0152818161125e0152818161210b015281816126880152818161276601528181612c1f01528181612df10152612f17015260c051818181610d0a01528181611b280152818161253d01526125cb015260e051818181610e7101528181611af50152818161257201526125fc0152f35b62000167565b9091929394959697988916156200028057908b98979695949392916200011d565b6064908f519062461bcd60e51b82526004820152601560248201527f6c7020726563697069656e7420726571756972656400000000000000000000006044820152fd5b508d5162461bcd60e51b815260048101889052600f60248201526e1d185c99d95d081c995c5d5a5c9959608a1b6044820152606490fd5b508d5162461bcd60e51b815260048101889052601660248201527f7669727475616c20746f6b656e207265717569726564000000000000000000006044820152606490fd5b508d5162461bcd60e51b815260048101889052601460248201527f7669727475616c206574682072657175697265640000000000000000000000006044820152606490fd5b508d5162461bcd60e51b815260048101889052600c60248201526b0cccaca40e8dede40d0d2ced60a31b6044820152606490fd5b508d5162461bcd60e51b815260048101889052601660248201527f66656520726563697069656e74207265717569726564000000000000000000006044820152606490fd5b508d5162461bcd60e51b815260048101889052601060248201526f199858dd1bdc9e481c995c5d5a5c995960821b6044820152606490fd5b508d5162461bcd60e51b815260048101889052600e60248201526d1d1bdad95b881c995c5d5a5c995960921b6044820152606490fd5b600080fd5b634e487b7160e01b600052604160045260246000fd5b51906001600160a01b03821682036200046b5756fe6080604052600436101561001257600080fd5b60003560e01c806301c587fa146111715780630758d924146111485780630cc4574d146111225780631ad15bbc146110f957806324a9d853146110db578063252177241461100f5780632760eca114610ff45780632a2c697214610ed85780632b852de214610eba578063334041a614610e94578063343ee3b714610e5957806339406c5014610e30578063398482d814610e0d5780633de1d8a414610de75780634329742d14610d9d578063452e68dd14610d745780634690484014610d4b5780634beb394c14610d2d57806352b86d2b14610cf25780637f544e4914610cd45780638c575aa314610b5757806395564837146109b8578063a64190c41461098e578063c1abbe0814610968578063c446795a14610942578063c45a0155146108fd578063cbcb3171146108df578063d62ccb3f146108c1578063d79875eb1461063e578063d96a094a146103d5578063e1a45218146103b8578063e3818eb814610253578063e7c2b7721461022d578063f95a02d01461020f578063fc0c546a146101ca5763fccc2813146101a857600080fd5b346101c55760003660031901126101c557602060405161dead8152f35b600080fd5b346101c55760003660031901126101c5576040517f00000000000000000000000000000000000000000000000000000000000000006001600160a01b03168152602090f35b346101c55760003660031901126101c5576020600454604051908152f35b346101c55760003660031901126101c557602060ff60075460c01c166040519015158152f35b346101c55760003660031901126101c5576001600160a01b03610299337f0000000000000000000000000000000000000000000000000000000000000000831614611893565b6007906103897f5cfc9ea0e95e86463d8dacd6c53993376a8afab5437e80a8a98d57d7a8b0f2348354926102d360ff8560e01c16156118ce565b60ff60e01b19938416600160e01b178086556103149060ff906102fb60b882901c8316611907565b61030a828260c01c1615611945565b60c81c1615611985565b61032160025415156119c2565b61033081600554161515611f27565b6103393061273d565b50885462ffffff60c81b1916600160c81b178955600880546001600160a01b0319169190951690811790945560408051938452602084019290925290820152426060820152909281906080820190565b0390a2610394612b46565b90506004548110156103a9575b508154169055005b6103b290612237565b826103a1565b346101c55760003660031901126101c55760206040516127108152f35b6020806003193601126101c5576007546103f560ff8260e01c16156118ce565b60ff60e01b19908116600160e01b17600781905561042e9060ff9061041f60b882901c8316611907565b61030a828260c01c1615611da3565b341561060a57612710610443600154346119ff565b049061044f8234611c43565b916104598361252f565b92610465841515611ddb565b610473600435851015611e1d565b600354908185116105cc576104979161048f8692600254611ac3565b600255611c43565b600355806105a4575b60405163a9059cbb60e01b815233600482015260248101849052848160448160006001600160a01b037f0000000000000000000000000000000000000000000000000000000000000000165af1801561059857600090610562575b6105059150611e61565b7fbeae048c6d270d9469f86cf6e8fedda3c60ad770f16c24c9fc131c8e9a09101d6040518061054886339534846040919493926060820195825260208201520152565b0390a261055361262c565b60075416600755604051908152f35b508481813d8311610591575b6105788183611d0d565b810103126101c55761058c61050591611e54565b6104fb565b503d61056e565b6040513d6000823e3d90fd5b6105c760008080808560018060a01b038254165af16105c1611ea5565b50611ee5565b6104a0565b60405162461bcd60e51b8152600481018790526016602482015275696e73756666696369656e74206c697175696469747960501b6044820152606490fd5b60405162461bcd60e51b815260048101839052600c60248201526b195d1a081c995c5d5a5c995960a21b6044820152606490fd5b346101c55760403660031901126101c5576004356007549061066660ff8360e01c16156118ce565b60ff60e01b19918216600160e01b1760078190556106909060ff9061041f60b882901c8316611907565b61069b811515611cc9565b6106a4816125bf565b916106b0831515611ddb565b600254831161087c576127106106c8600154856119ff565b04916106d48385611c43565b926106e3602435851015611e1d565b6040516323b872dd60e01b8152336004820152306024820152604481018390526020956001600160a01b039190878260648160007f000000000000000000000000000000000000000000000000000000000000000088165af191821561059857600092610840575b5061075861076f92611e61565b61076485600354611ac3565b600355600254611c43565b600255600080808088335af1610783611ea5565b501561080557816107d591817f846c37eef631e0943682d87352ec117c20008eb7f425c9b85ac011a6d4774cc0946107e7575b5050604080519485526020850187905284015233929081906060820190565b0390a260075416600755604051908152f35b6000808080936107fe958254165af16105c1611ea5565b87816107b6565b60405162461bcd60e51b8152600481018790526013602482015272195d1a081d1c985b9cd9995c8819985a5b1959606a1b6044820152606490fd5b91508782813d8311610875575b6108578183611d0d565b810103126101c55761075861086e61076f93611e54565b925061074b565b503d61084d565b60405162461bcd60e51b815260206004820152601860248201527f696e73756666696369656e7420657468207265736572766500000000000000006044820152606490fd5b346101c55760003660031901126101c5576020600254604051908152f35b346101c55760003660031901126101c5576020600354604051908152f35b346101c55760003660031901126101c5576040517f00000000000000000000000000000000000000000000000000000000000000006001600160a01b03168152602090f35b346101c55760003660031901126101c557602060ff60075460c81c166040519015158152f35b346101c55760003660031901126101c557602060ff60075460d81c166040519015158152f35b346101c55760203660031901126101c55760406109ac600435611d2f565b82519182526020820152f35b346101c5576020806003193601126101c5576001600160a01b0390600435610a03337f0000000000000000000000000000000000000000000000000000000000000000851614611893565b6007549260ff8460b81c16610b215782602491610a21841515611cc9565b6040516370a0823160e01b815230600482015292839182907f0000000000000000000000000000000000000000000000000000000000000000165afa8015610598578291600091610af0575b5010610ab55760ff60b81b19909216600160b81b1760075560038290556040519182527fa71ed34ff06af8d6865a8f541aae52d72fa89f0e5ee15f01d48fa6c62c85691491a1005b60405162461bcd60e51b8152600481018390526013602482015272696e73756666696369656e7420746f6b656e7360681b6044820152606490fd5b809250848092503d8311610b1a575b610b098183611d0d565b810103126101c55781905185610a6d565b503d610aff565b60405162461bcd60e51b815260048101849052600e60248201526d185b1c9958591e481cd95959195960921b6044820152606490fd5b346101c55760603660031901126101c557610b7061187d565b6024356001600160a01b0381811692908383036101c55760443590610bb8817f0000000000000000000000000000000000000000000000000000000000000000163314611893565b610bca60ff60075460c01c1615611945565b8115610c9d57821680610c53575b907fbcdc4bff84f936019028a7bcbef6b449550d6334606377b822720e57e94276c494610c4e926bffffffffffffffffffffffff60a01b908160055416176005556006541617600655806004556040519384938460409194939294606082019560018060a01b0380921683521660208201520152565b0390a1005b908415610c605790610bd8565b60405162461bcd60e51b81526020600482015260156024820152741b1c081c9958da5c1a595b9d081c995c5d5a5c9959605a1b6044820152606490fd5b60405162461bcd60e51b815260206004820152600f60248201526e1d185c99d95d081c995c5d5a5c9959608a1b6044820152606490fd5b346101c55760003660031901126101c5576020600a54604051908152f35b346101c55760003660031901126101c55760206040517f00000000000000000000000000000000000000000000000000000000000000008152f35b346101c55760203660031901126101c55760406109ac600435611c50565b346101c55760003660031901126101c5576000546040516001600160a01b039091168152602090f35b346101c55760003660031901126101c5576006546040516001600160a01b039091168152602090f35b346101c55760003660031901126101c557600754610dc160ff8260e01c16156118ce565b60ff60e01b19908116600160e01b17600755610ddb611bdf565b60075416600755600080f35b346101c55760003660031901126101c557602062ffffff60075460a01c16604051908152f35b346101c55760003660031901126101c5576020610e28611ad0565b604051908152f35b346101c55760003660031901126101c5576007546040516001600160a01b039091168152602090f35b346101c55760003660031901126101c55760206040517f00000000000000000000000000000000000000000000000000000000000000008152f35b346101c55760003660031901126101c557602060ff60075460b81c166040519015158152f35b346101c55760003660031901126101c5576020600954604051908152f35b346101c55760403660031901126101c557610ef161187d565b602435906001600160a01b0390610f2b337f0000000000000000000000000000000000000000000000000000000000000000841614611893565b16908115610fba5761012c8111610f865760207fe42708d93b95810922305119a3271ca42233da9ebe1e1e503f0e887817a32c7a91836bffffffffffffffffffffffff60a01b600054161760005580600155604051908152a2005b60405162461bcd60e51b815260206004820152600c60248201526b0cccaca40e8dede40d0d2ced60a31b6044820152606490fd5b60405162461bcd60e51b81526020600482015260126024820152711c9958da5c1a595b9d081c995c5d5a5c995960721b6044820152606490fd5b346101c55760003660031901126101c5576020610e28611a32565b346101c55760003660031901126101c557611054337f00000000000000000000000000000000000000000000000000000000000000006001600160a01b031614611893565b60075461106760ff8260e01c16156118ce565b60ff60e01b19908116600160e01b1760078190556110919060ff906102fb60b882901c8316611907565b60025461109f8115156119c2565b60035460405191825260208201527f5d6dc6b9835f5448ae2351719684f59735b30dfa8e62677cc6f9e98bd4c08f7f60403392a2610ddb611f87565b346101c55760003660031901126101c5576020600154604051908152f35b346101c55760003660031901126101c5576008546040516001600160a01b039091168152602090f35b346101c55760003660031901126101c557602060ff60075460d01c166040519015158152f35b346101c55760003660031901126101c5576005546040516001600160a01b039091168152602090f35b346101c55760003660031901126101c5576111b6337f00000000000000000000000000000000000000000000000000000000000000006001600160a01b031614611893565b6007546111c960ff8260e01c16156118ce565b60ff60e01b198116600160e01b1760078190556111ec60b882901c60ff16611907565b6111fc60ff8260c01c1615611945565b61120c60ff8260c81c1615611985565b600254611838576001600160a01b038216156117fe576003805460009091556040516312a9293f60e21b815290916020826004816001600160a01b0388165afa918215610598576000926117dd575b507f0000000000000000000000000000000000000000000000000000000000000000936001600160a01b0383811690861610156117d757845b6001600160a01b0384811690871610156117d157835b6001600160a01b0385811690881610156117bc576a01b34f91b7533ca6b68126915b6001600160a01b0386811690891610156117b257620338ff195b6001600160a01b03878116908a1610156117a857620d89a0935b6040516309f56ab160e11b81526001600160a01b038481166004830152858116602483015260a09890981c62ffffff166044820152908716606482015295602090879060849082906000908a165af195861561059857600096611777575b5060075460405163095ea7b360e01b81526001600160a01b0391821660048201526000602482018190529091602091839160449183918f165af180156105985761173e575b5060075460405163095ea7b360e01b81526001600160a01b039091166004820152602481018990526020818b816000816044810103926001600160a01b03165af1801561059857611705575b506001600160a01b03878116908a1610156116fe57875b6001600160a01b03888116908b1610156116f7576000905b62ffffff60075460a01c1695610e10420142116116e157604051938461016081011067ffffffffffffffff610160870111176116cb57610160850160409081526001600160a01b03968716865296861660208601908152878601988952600291820b6060870190815292820b608087810191825260a0880195865260c08801968752600060e089018181526101008a01828152306101208c0190815242610e10016101408d019081529d51634418b22b60e11b81529b518d1660048d015295518c1660248c01529c5162ffffff1660448b01529551850b60648a0152915190930b6084880152935160a4870152935160c4860152905160e48501529551610104840152905183166101248301529251610144820152938492610164928492165af180156105985760009560009460009360009361165d575b507f5cfc9ea0e95e86463d8dacd6c53993376a8afab5437e80a8a98d57d7a8b0f2349660809690956001600160801b039591949093919290916001600160a01b0391821691161015611654575080945b81811161163a575b50506007805462ffffff60c81b19166201010160c81b179055600880546001600160a01b0319166001600160a01b039290921691821790556009969096556040805193845260006020850152911690820152426060820152a261160f612b46565b905060045481101561162b575b6007805460ff60e01b19169055005b61163490612237565b8061161c565b61164c9161164791611c43565b612664565b5083886115ae565b905080946115a6565b9694975094509150506080843d6080116116c3575b8161167f60809383611d0d565b810103126101c5578351936020810151956001600160801b03871687036101c557604082015160609092015195969395939490939192906001600160801b03611556565b3d9150611672565b634e487b7160e01b600052604160045260246000fd5b634e487b7160e01b600052601160045260246000fd5b889061141e565b6000611406565b6020813d602011611736575b8161171e60209383611d0d565b810103126101c55761172f90611e54565b50896113ef565b3d9150611711565b6020813d60201161176f575b8161175760209383611d0d565b810103126101c55761176890611e54565b50896113a3565b3d915061174a565b61179a91965060203d6020116117a1575b6117928183611d0d565b810190611f68565b948961135e565b503d611788565b6203390093611300565b620d899f196112e6565b6d968cc63f21ed04d38c2ab4825f90916112cc565b856112aa565b82611294565b6117f791925060203d6020116117a1576117928183611d0d565b908461125b565b60405162461bcd60e51b81526020600482015260126024820152711d8cc81b585b9859d95c881b9bdd081cd95d60721b6044820152606490fd5b60405162461bcd60e51b815260206004820152601960248201527f6574682072657365727665206e6f7420737570706f72746564000000000000006044820152606490fd5b600435906001600160a01b03821682036101c557565b1561189a57565b60405162461bcd60e51b815260206004820152600c60248201526b6f6e6c7920666163746f727960a01b6044820152606490fd5b156118d557565b60405162461bcd60e51b815260206004820152600a6024820152697265656e7472616e637960b01b6044820152606490fd5b1561190e57565b60405162461bcd60e51b815260206004820152600f60248201526e1c1bdbdb081b9bdd081cd959591959608a1b6044820152606490fd5b1561194c57565b60405162461bcd60e51b8152602060048201526011602482015270185b1c9958591e4819dc98591d585d1959607a1b6044820152606490fd5b1561198c57565b60405162461bcd60e51b815260206004820152600e60248201526d646578206375727665206c69766560901b6044820152606490fd5b156119c957565b60405162461bcd60e51b815260206004820152600e60248201526d6e6f20657468207265736572766560901b6044820152606490fd5b818102929181159184041417156116e157565b8115611a1c570490565b634e487b7160e01b600052601260045260246000fd5b6004548015611abd5760075460ff8160c81c16908115611a95575b5015611a8d57611a5b612b46565b90505b61271091828202918083048414901517156116e157611a7c91611a12565b90808211611a88575090565b905090565b600254611a5e565b60ff915060c01c1680611aa9575b38611a4d565b506008546001600160a01b03161515611aa3565b50600090565b919082018092116116e157565b60075460ff8160c81c16908115611b90575b5080611b7c575b611b7457611b1a6003547f000000000000000000000000000000000000000000000000000000000000000090611ac3565b8015611abd57611b4d6002547f000000000000000000000000000000000000000000000000000000000000000090611ac3565b90670de0b6b3a7640000918281029281840414901517156116e157611b7191611a12565b90565b611b71612036565b506008546001600160a01b03161515611ae9565b60ff915060c01c1638611ae2565b15611ba557565b60405162461bcd60e51b81526020600482015260126024820152711d185c99d95d081b9bdd081c995858da195960721b6044820152606490fd5b60ff600754611bf2828260b81c16611907565b611c01828260c01c1615611945565b60c81c16611c2357611c196002546004541115611b9e565b611c21611f87565b565b611c21611c2e612b46565b9050611c3e600454821015611b9e565b612237565b919082039182116116e157565b60075460ff8160b81c1615908115611cba575b8115611cac575b508015611ca4575b611c9b57611c98611c93612710611c8b600154856119ff565b048093611c43565b61252f565b91565b50600090600090565b508015611c72565b60ff915060c81c1638611c6a565b905060ff8160c01c1690611c63565b15611cd057565b60405162461bcd60e51b81526020600482015260156024820152741d1bdad95b88185b5bdd5b9d081c995c5d5a5c9959605a1b6044820152606490fd5b90601f8019910116810190811067ffffffffffffffff8211176116cb57604052565b60075460ff8160b81c1615908115611d94575b8115611d86575b508015611d7e575b611c9b57611d5e906125bf565b8015611c9b57611c98612710611d76600154846119ff565b048092611c43565b508015611d51565b60ff915060c81c1638611d49565b905060ff8160c01c1690611d42565b15611daa57565b60405162461bcd60e51b815260206004820152600960248201526819dc98591d585d195960ba1b6044820152606490fd5b15611de257565b60405162461bcd60e51b81526020600482015260136024820152721a5b9cdd59999a58da595b9d081bdd5d1c1d5d606a1b6044820152606490fd5b15611e2457565b60405162461bcd60e51b8152602060048201526008602482015267736c69707061676560c01b6044820152606490fd5b519081151582036101c557565b15611e6857565b60405162461bcd60e51b81526020600482015260156024820152741d1bdad95b881d1c985b9cd9995c8819985a5b1959605a1b6044820152606490fd5b3d15611ee0573d9067ffffffffffffffff82116116cb5760405191611ed4601f8201601f191660200184611d0d565b82523d6000602084013e565b606090565b15611eec57565b60405162461bcd60e51b8152602060048201526013602482015272199959481d1c985b9cd9995c8819985a5b1959606a1b6044820152606490fd5b15611f2e57565b60405162461bcd60e51b815260206004820152601260248201527119195e081c9bdd5d195c881b9bdd081cd95d60721b6044820152606490fd5b908160209103126101c557516001600160a01b03811681036101c55790565b6120227f71aa8c3702dbbc54247a4e6446450e64a46250dd72707a247ddb01d72eaef44560018060a01b03611fc181600554161515611f27565b6007805460ff60c01b1916600160c01b17905542600a55600654611fe690821661273d565b50600880546001600160a01b03191695909116948517905560408051938452602084019290925290820152426060820152909281906080820190565b0390a2565b519061ffff821682036101c557565b60075460ff8160d81c1680612223575b6120935750612053612b46565b908015801561208b575b61208457670de0b6b3a7640000918281029281840414901517156116e157611b7191611a12565b5050600090565b50811561205d565b600854604051633850c7bd60e01b81526001600160a01b039160e0908290600490829086165afa801561059857829160009161218b575b501680156121835760206120df8284936119ff565b936004604051809481936312a9293f60e21b8352165afa8015610598578291600091612164575b5016907f00000000000000000000000000000000000000000000000000000000000000001610612144578015611a1c576503782dace9d960d21b0490565b670de0b6b3a7640000908181029181830414901517156116e15760c01c90565b61217d915060203d6020116117a1576117928183611d0d565b38612106565b505050600090565b90915060e0813d60e01161221b575b816121a760e09383611d0d565b810103126122175780519183831683036122145760208201518060020b03612214576121d560408301612027565b506121e260608301612027565b506121ef60808301612027565b5060a082015160ff81160361221457509061220d60c0849301611e54565b50386120ca565b80fd5b5080fd5b3d915061219a565b506008546001600160a01b03161515612046565b600754600060ff8260c81c16156124f5576008546001600160a01b03919082169081156124c15761ffff60c01b198416600160c01b17600781905542600a5560d01c60ff1691821561245857508260095494856123d5575b50506007805460ff60d01b19169055905b83151590816123cc575b50612307575b507f6d6435bd27368eeaa8bea9975846b4ffc3d4864faabcec7e007dc6014f4ea055916120226122de612efc565b600854604080519788526020880194909452928601524260608601529116929081906080820190565b806020836008541660446040518094819363a9059cbb60e01b835261dead60048401528960248401525af19182156123c0578092612383575b50501561234d57386122b0565b60405162461bcd60e51b815260206004820152600e60248201526d1b1c08189d5c9b8819985a5b195960921b6044820152606490fd5b9091506020823d6020116123b8575b8161239f60209383611d0d565b8101031261221457506123b190611e54565b3880612340565b3d9150612392565b604051903d90823e3d90fd5b905015386122aa565b16803b15612217578180916064604051809481936323b872dd60e01b835230600484015261dead60248401528a60448401525af1801561244d57612421575b506009819055823861228f565b67ffffffffffffffff81116124395760405238612414565b634e487b7160e01b82526041600452602482fd5b6040513d84823e3d90fd5b602491929450602090604051928380926370a0823160e01b82523060048301525afa90811561244d57829161248f575b50926122a0565b90506020813d6020116124b9575b816124aa60209383611d0d565b81010312612217575138612488565b3d915061249d565b60405162461bcd60e51b815260206004820152600c60248201526b1c185a5c881b9bdd081cd95d60a21b6044820152606490fd5b60405162461bcd60e51b8152602060048201526012602482015271646578206375727665206e6f74206c69766560701b6044820152606490fd5b8015611abd576125626002547f000000000000000000000000000000000000000000000000000000000000000090611ac3565b906125ae600354926125a86125977f000000000000000000000000000000000000000000000000000000000000000086611ac3565b936125a285846119ff565b92611ac3565b90611a12565b8082111561218357611a7c91611c43565b600254906125ae6125f07f000000000000000000000000000000000000000000000000000000000000000084611ac3565b916125a86126216003547f000000000000000000000000000000000000000000000000000000000000000090611ac3565b916125a283866119ff565b60075460ff8160c01c16908115612656575b50611c215760025460045411611c2157611c21611f87565b60ff915060c81c163861263e565b8015611abd57604051630852cd8d60e31b81526004810182905260208160248160007f00000000000000000000000000000000000000000000000000000000000000006001600160a01b03165af190811561059857600091612703575b50156126ca5790565b60405162461bcd60e51b81526020600482015260116024820152701d1bdad95b88189d5c9b8819985a5b1959607a1b6044820152606490fd5b90506020813d602011612735575b8161271e60209383611d0d565b810103126101c55761272f90611e54565b386126c1565b3d9150612711565b6000916001600160a01b0391821690838215612af65760035491600254948660035586600255807f0000000000000000000000000000000000000000000000000000000000000000169681600554169181604091825163095ea7b360e01b90818152600496878201528360248201528c816044816020998a945af18015612aec579186918b93612aae575b50600554865191825284166001600160a01b031688820190815260208101939093529182908e9082908790829060400103925af18015612aa457612a6c575b508060055416610e104201804211612a59578b918d9186519c8d9363f305d71960e01b85528a8501528c6024850152866044850152866064850152608484015260a4830152815a9360c492606095f1998a15612a4f57829a839a8491612a0d575b5099809b809d846005541687519063c45a015560e01b825289828c81845afa9182156129e4578b9392918b918a936129ee575b508a516315ab88c960e31b815294859182905afa9283156129e457878b93928d928b966129be575b509060449291818d51978896879563e6a4390560e01b8752860152166024840152165afa9081156129b4578691612997575b509a81811161297f575b5050808211612912575b50505050505050565b83926129218493928493611c43565b908254165af161292f611ea5565b501561293e5780808080612909565b5162461bcd60e51b815291820152601860248201527f6574682064757374207472616e73666572206661696c65640000000000000000604482015260649150fd5b61298f929a509061164791611c43565b9738806128ff565b6129ae9150883d8a116117a1576117928183611d0d565b386128f5565b87513d88823e3d90fd5b604493929196506129db90863d88116117a1576117928183611d0d565b959091926128c3565b89513d8a823e3d90fd5b612a06919350823d84116117a1576117928183611d0d565b913861289b565b9b5050985060608a3d606011612a47575b81612a2b60609383611d0d565b810103126122175789519883858c01519b0151999a9938612868565b3d9150612a1e565b83513d84823e3d90fd5b634e487b7160e01b845260118752602484fd5b8481813d8311612a9d575b612a818183611d0d565b81010312612a9957612a9290611e54565b5038612807565b8280fd5b503d612a77565b84513d85823e3d90fd5b8281939294503d8311612ae5575b612ac68183611d0d565b81010312612ae1578991612ada8792611e54565b50386127c8565b8380fd5b503d612abc565b85513d86823e3d90fd5b60405162461bcd60e51b81526020600482015260146024820152731b1c081c9958d95a5d995c881c995c5d5a5c995960621b6044820152606490fd5b51906001600160701b03821682036101c557565b600854600091906001600160a01b03908390819083168015612ef45760075460ff8160d81c16612da357508360055416908115612d9a57604094855180936315ab88c960e31b825281600460209384935afa938415612d90578994612d71575b508651630dfe168160e01b8152908082600481875afa918215612d67578a92612d48575b50875163d21220a760e01b8152938185600481845afa948515612d3e578b95612d17575b509060606004928a5193848092630240bc6b60e21b82525afa9a8b15612d0c578099819c612cad575b5050505081807f00000000000000000000000000000000000000000000000000000000000000001691169281841480612ca0575b15612c6757505050505050506001600160701b03809116921690565b9598949796958216149283612c94575b505050612c82575050565b6001600160701b039081169450169150565b16149050388080612c77565b5082851683821614612c4b565b91939b509198506060893d606011612d04575b81612ccd60609383611d0d565b8101031261221757612ce9612ce18a612b32565b938a01612b32565b98015163ffffffff8116036122145750959738808080612c17565b3d9150612cc0565b8951903d90823e3d90fd5b82919550612d356060916004943d85116117a1576117928183611d0d565b95919250612bee565b89513d8d823e3d90fd5b81612d609293503d84116117a1576117928183611d0d565b9038612bca565b88513d8c823e3d90fd5b81612d899295503d86116117a1576117928183611d0d565b9238612ba6565b87513d8b823e3d90fd5b50505050508190565b9250949050826040958651936312a9293f60e21b8552846004816020958694165afa938415612eea578394612ecb575b5086516370a0823160e01b80825260048201839052909583876024817f000000000000000000000000000000000000000000000000000000000000000085165afa968715612ec1578597612e8e575b508392916024918a51978894859384526004840152165afa958615612e8357508195612e50575b5050509190565b909180939550813d8311612e7c575b612e698183611d0d565b8101031261221457505191388080612e49565b503d612e5f565b51913d9150823e3d90fd5b9096508381813d8311612eba575b612ea68183611d0d565b81010312612eb657519583612e22565b8480fd5b503d612e9c565b89513d87823e3d90fd5b612ee3919450823d84116117a1576117928183611d0d565b9238612dd3565b87513d85823e3d90fd5b505050508190565b6040516370a0823160e01b81523060048201526020816024817f00000000000000000000000000000000000000000000000000000000000000006001600160a01b03165afa90811561059857600091612f60575b508015611abd57611b7190612664565b90506020813d602011612f8a575b81612f7b60209383611d0d565b810103126101c5575138612f50565b3d9150612f6e56fea264697066735822122099d94b89887e277097556243b39d5582b3c47517b5d35fd712adf16acd5dca1264736f6c63430008180033a2646970667358221220666cb625dab72d4c01a321d48a6d7ea76a813b5908dfbba4bd0b04ceb5b9e53364736f6c63430008180033","opcodes":"PUSH1 0x80 DUP1 PUSH1 0x40 MSTORE CALLVALUE PUSH2 0x16 JUMPI PUSH2 0x360B SWAP1 DUP2 PUSH2 0x1C DUP3 CODECOPY RETURN JUMPDEST PUSH1 0x0 DUP1 REVERT INVALID PUSH1 0x80 DUP1 PUSH1 0x40 MSTORE PUSH1 0x4 CALLDATASIZE LT ISZERO PUSH2 0x13 JUMPI PUSH1 0x0 DUP1 REVERT JUMPDEST PUSH1 0x0 DUP1 CALLDATALOAD PUSH1 0xE0 SHR PUSH4 0xF7962097 EQ PUSH2 0x29 JUMPI PUSH1 0x0 DUP1 REVERT JUMPDEST CALLVALUE PUSH2 0x16E JUMPI PUSH2 0x160 DUP1 PUSH1 0x3 NOT CALLDATASIZE ADD SLT PUSH2 0x16A JUMPI PUSH1 0x1 PUSH1 0x1 PUSH1 0xA0 SHL SUB PUSH1 0x4 CALLDATALOAD DUP2 DUP2 AND SWAP5 SWAP2 SWAP3 SWAP1 DUP6 SWAP1 SUB PUSH2 0x166 JUMPI PUSH1 0x24 CALLDATALOAD SWAP5 DUP4 DUP7 AND DUP1 SWAP7 SUB PUSH2 0x162 JUMPI PUSH1 0x44 CALLDATALOAD DUP5 DUP2 AND DUP1 SWAP2 SUB PUSH2 0x15E JUMPI PUSH1 0xE4 CALLDATALOAD DUP6 DUP2 AND DUP1 SWAP2 SUB PUSH2 0x15A JUMPI PUSH2 0x104 CALLDATALOAD DUP7 DUP2 AND DUP1 SWAP2 SUB PUSH2 0x156 JUMPI PUSH2 0x124 CALLDATALOAD SWAP2 DUP8 DUP4 AND DUP1 SWAP4 SUB PUSH2 0x152 JUMPI PUSH2 0x144 CALLDATALOAD SWAP4 PUSH3 0xFFFFFF DUP6 AND DUP1 SWAP6 SUB PUSH2 0x14E JUMPI PUSH2 0x3464 SWAP11 DUP12 DUP10 ADD SWAP7 DUP10 DUP9 LT PUSH8 0xFFFFFFFFFFFFFFFF DUP10 GT OR PUSH2 0x13A JUMPI DUP10 SWAP11 SWAP12 SWAP13 SWAP10 SWAP9 SWAP10 PUSH2 0x172 DUP11 CODECOPY DUP8 MSTORE PUSH1 0x20 DUP8 ADD MSTORE PUSH1 0x40 DUP7 ADD MSTORE PUSH1 0x64 CALLDATALOAD PUSH1 0x60 DUP7 ADD MSTORE PUSH1 0x84 CALLDATALOAD PUSH1 0x80 DUP7 ADD MSTORE PUSH1 0xA4 CALLDATALOAD PUSH1 0xA0 DUP7 ADD MSTORE PUSH1 0xC4 CALLDATALOAD PUSH1 0xC0 DUP7 ADD MSTORE PUSH1 0xE0 DUP6 ADD MSTORE PUSH2 0x100 DUP5 ADD MSTORE PUSH2 0x120 DUP4 ADD MSTORE PUSH2 0x140 DUP3 ADD MSTORE SUB ADD SWAP1 DUP4 CREATE SWAP1 DUP2 ISZERO PUSH2 0x12F JUMPI PUSH1 0x20 SWAP3 POP PUSH1 0x40 MLOAD SWAP2 AND DUP2 MSTORE RETURN JUMPDEST PUSH1 0x40 MLOAD RETURNDATASIZE DUP5 DUP3 RETURNDATACOPY RETURNDATASIZE SWAP1 REVERT JUMPDEST PUSH4 0x4E487B71 PUSH1 0xE0 SHL DUP13 MSTORE PUSH1 0x41 PUSH1 0x4 MSTORE PUSH1 0x24 DUP13 REVERT JUMPDEST DUP10 DUP1 REVERT JUMPDEST DUP9 DUP1 REVERT JUMPDEST DUP8 DUP1 REVERT JUMPDEST DUP7 DUP1 REVERT JUMPDEST DUP6 DUP1 REVERT JUMPDEST DUP5 DUP1 REVERT JUMPDEST DUP4 DUP1 REVERT JUMPDEST POP DUP1 REVERT JUMPDEST DUP1 REVERT INVALID PUSH1 0x1F PUSH3 0x3464 CODESIZE DUP2 SWAP1 SUB SWAP2 DUP3 ADD PUSH1 0x1F NOT AND PUSH2 0x100 SWAP1 DUP2 ADD SWAP3 SWAP1 SWAP2 PUSH1 0x1 PUSH1 0x1 PUSH1 0x40 SHL SUB DUP5 GT DUP4 DUP6 LT OR PUSH3 0x470 JUMPI DUP2 PUSH2 0x160 SWAP3 DUP5 SWAP3 PUSH1 0x40 SWAP7 DUP8 MSTORE DUP4 CODECOPY DUP2 ADD SUB SLT PUSH3 0x46B JUMPI PUSH3 0x4E DUP2 PUSH3 0x486 JUMP JUMPDEST PUSH1 0x20 PUSH3 0x5D DUP2 DUP5 ADD PUSH3 0x486 JUMP JUMPDEST PUSH3 0x6A DUP6 DUP6 ADD PUSH3 0x486 JUMP JUMPDEST SWAP2 PUSH1 0x60 DUP6 ADD MLOAD PUSH1 0x80 DUP7 ADD MLOAD SWAP2 PUSH1 0xA0 DUP8 ADD MLOAD PUSH1 0xC0 DUP9 ADD MLOAD SWAP1 PUSH3 0x8F PUSH1 0xE0 DUP11 ADD PUSH3 0x486 JUMP JUMPDEST SWAP5 PUSH3 0x9F PUSH2 0x100 DUP12 ADD PUSH3 0x486 JUMP JUMPDEST SWAP5 PUSH2 0x140 PUSH3 0xB2 PUSH2 0x120 DUP14 ADD PUSH3 0x486 JUMP JUMPDEST SWAP12 ADD MLOAD SWAP8 PUSH3 0xFFFFFF DUP10 AND SWAP11 DUP12 DUP11 SUB PUSH3 0x46B JUMPI PUSH1 0x1 PUSH1 0x1 PUSH1 0xA0 SHL SUB SWAP11 DUP2 DUP13 AND ISZERO PUSH3 0x435 JUMPI DUP12 DUP4 AND ISZERO PUSH3 0x3FD JUMPI DUP12 AND SWAP9 DUP10 ISZERO PUSH3 0x3B8 JUMPI PUSH2 0x12C DUP5 GT PUSH3 0x384 JUMPI DUP5 ISZERO PUSH3 0x33F JUMPI DUP6 ISZERO PUSH3 0x2FA JUMPI DUP7 ISZERO PUSH3 0x2C3 JUMPI SWAP1 DUP12 DUP1 SWAP10 SWAP9 SWAP8 SWAP7 SWAP6 SWAP5 SWAP4 SWAP3 AND SWAP7 DUP8 PUSH3 0x25F JUMPI JUMPDEST POP PUSH1 0xA0 MSTORE PUSH1 0x80 MSTORE PUSH1 0x1 DUP1 PUSH1 0xA0 SHL SUB NOT SWAP8 DUP9 PUSH1 0x0 SLOAD AND OR PUSH1 0x0 SSTORE PUSH1 0x1 SSTORE PUSH1 0xC0 MSTORE PUSH1 0xE0 MSTORE PUSH1 0x4 SSTORE DUP4 PUSH1 0x5 SLOAD AND OR PUSH1 0x5 SSTORE AND SWAP1 PUSH1 0x6 SLOAD AND OR PUSH1 0x6 SSTORE PUSH1 0x7 SLOAD SWAP3 ISZERO PUSH1 0x0 EQ PUSH3 0x259 JUMPI POP PUSH2 0x2710 JUMPDEST PUSH3 0xFFFFFF PUSH1 0xA0 SHL PUSH1 0xA0 SWAP2 SWAP1 SWAP2 SHL AND SWAP3 AND PUSH1 0x1 PUSH1 0x1 PUSH1 0xB8 SHL SUB NOT SWAP2 SWAP1 SWAP2 AND OR OR PUSH1 0x7 SSTORE CALLVALUE PUSH1 0x2 SSTORE MLOAD PUSH2 0x2FC8 SWAP1 DUP2 PUSH3 0x49C DUP3 CODECOPY PUSH1 0x80 MLOAD DUP2 DUP2 DUP2 PUSH2 0x272 ADD MSTORE DUP2 DUP2 PUSH2 0x913 ADD MSTORE DUP2 DUP2 PUSH2 0x9DC ADD MSTORE DUP2 DUP2 PUSH2 0xB91 ADD MSTORE DUP2 DUP2 PUSH2 0xF04 ADD MSTORE DUP2 DUP2 PUSH2 0x1026 ADD MSTORE PUSH2 0x1188 ADD MSTORE PUSH1 0xA0 MLOAD DUP2 DUP2 DUP2 PUSH2 0x1E0 ADD MSTORE DUP2 DUP2 PUSH2 0x4CB ADD MSTORE DUP2 DUP2 PUSH2 0x719 ADD MSTORE DUP2 DUP2 PUSH2 0xA3B ADD MSTORE DUP2 DUP2 PUSH2 0x125E ADD MSTORE DUP2 DUP2 PUSH2 0x210B ADD MSTORE DUP2 DUP2 PUSH2 0x2688 ADD MSTORE DUP2 DUP2 PUSH2 0x2766 ADD MSTORE DUP2 DUP2 PUSH2 0x2C1F ADD MSTORE DUP2 DUP2 PUSH2 0x2DF1 ADD MSTORE PUSH2 0x2F17 ADD MSTORE PUSH1 0xC0 MLOAD DUP2 DUP2 DUP2 PUSH2 0xD0A ADD MSTORE DUP2 DUP2 PUSH2 0x1B28 ADD MSTORE DUP2 DUP2 PUSH2 0x253D ADD MSTORE PUSH2 0x25CB ADD MSTORE PUSH1 0xE0 MLOAD DUP2 DUP2 DUP2 PUSH2 0xE71 ADD MSTORE DUP2 DUP2 PUSH2 0x1AF5 ADD MSTORE DUP2 DUP2 PUSH2 0x2572 ADD MSTORE PUSH2 0x25FC ADD MSTORE RETURN JUMPDEST PUSH3 0x167 JUMP JUMPDEST SWAP1 SWAP2 SWAP3 SWAP4 SWAP5 SWAP6 SWAP7 SWAP8 SWAP9 DUP10 AND ISZERO PUSH3 0x280 JUMPI SWAP1 DUP12 SWAP9 SWAP8 SWAP7 SWAP6 SWAP5 SWAP4 SWAP3 SWAP2 PUSH3 0x11D JUMP JUMPDEST PUSH1 0x64 SWAP1 DUP16 MLOAD SWAP1 PUSH3 0x461BCD PUSH1 0xE5 SHL DUP3 MSTORE PUSH1 0x4 DUP3 ADD MSTORE PUSH1 0x15 PUSH1 0x24 DUP3 ADD MSTORE PUSH32 0x6C7020726563697069656E742072657175697265640000000000000000000000 PUSH1 0x44 DUP3 ADD MSTORE REVERT JUMPDEST POP DUP14 MLOAD PUSH3 0x461BCD PUSH1 0xE5 SHL DUP2 MSTORE PUSH1 0x4 DUP2 ADD DUP9 SWAP1 MSTORE PUSH1 0xF PUSH1 0x24 DUP3 ADD MSTORE PUSH15 0x1D185C99D95D081C995C5D5A5C9959 PUSH1 0x8A SHL PUSH1 0x44 DUP3 ADD MSTORE PUSH1 0x64 SWAP1 REVERT JUMPDEST POP DUP14 MLOAD PUSH3 0x461BCD PUSH1 0xE5 SHL DUP2 MSTORE PUSH1 0x4 DUP2 ADD DUP9 SWAP1 MSTORE PUSH1 0x16 PUSH1 0x24 DUP3 ADD MSTORE PUSH32 0x7669727475616C20746F6B656E20726571756972656400000000000000000000 PUSH1 0x44 DUP3 ADD MSTORE PUSH1 0x64 SWAP1 REVERT JUMPDEST POP DUP14 MLOAD PUSH3 0x461BCD PUSH1 0xE5 SHL DUP2 MSTORE PUSH1 0x4 DUP2 ADD DUP9 SWAP1 MSTORE PUSH1 0x14 PUSH1 0x24 DUP3 ADD MSTORE PUSH32 0x7669727475616C20657468207265717569726564000000000000000000000000 PUSH1 0x44 DUP3 ADD MSTORE PUSH1 0x64 SWAP1 REVERT JUMPDEST POP DUP14 MLOAD PUSH3 0x461BCD PUSH1 0xE5 SHL DUP2 MSTORE PUSH1 0x4 DUP2 ADD DUP9 SWAP1 MSTORE PUSH1 0xC PUSH1 0x24 DUP3 ADD MSTORE PUSH12 0xCCCACA40E8DEDE40D0D2CED PUSH1 0xA3 SHL PUSH1 0x44 DUP3 ADD MSTORE PUSH1 0x64 SWAP1 REVERT JUMPDEST POP DUP14 MLOAD PUSH3 0x461BCD PUSH1 0xE5 SHL DUP2 MSTORE PUSH1 0x4 DUP2 ADD DUP9 SWAP1 MSTORE PUSH1 0x16 PUSH1 0x24 DUP3 ADD MSTORE PUSH32 0x66656520726563697069656E7420726571756972656400000000000000000000 PUSH1 0x44 DUP3 ADD MSTORE PUSH1 0x64 SWAP1 REVERT JUMPDEST POP DUP14 MLOAD PUSH3 0x461BCD PUSH1 0xE5 SHL DUP2 MSTORE PUSH1 0x4 DUP2 ADD DUP9 SWAP1 MSTORE PUSH1 0x10 PUSH1 0x24 DUP3 ADD MSTORE PUSH16 0x199858DD1BDC9E481C995C5D5A5C9959 PUSH1 0x82 SHL PUSH1 0x44 DUP3 ADD MSTORE PUSH1 0x64 SWAP1 REVERT JUMPDEST POP DUP14 MLOAD PUSH3 0x461BCD PUSH1 0xE5 SHL DUP2 MSTORE PUSH1 0x4 DUP2 ADD DUP9 SWAP1 MSTORE PUSH1 0xE PUSH1 0x24 DUP3 ADD MSTORE PUSH14 0x1D1BDAD95B881C995C5D5A5C9959 PUSH1 0x92 SHL PUSH1 0x44 DUP3 ADD MSTORE PUSH1 0x64 SWAP1 REVERT JUMPDEST PUSH1 0x0 DUP1 REVERT JUMPDEST PUSH4 0x4E487B71 PUSH1 0xE0 SHL PUSH1 0x0 MSTORE PUSH1 0x41 PUSH1 0x4 MSTORE PUSH1 0x24 PUSH1 0x0 REVERT JUMPDEST MLOAD SWAP1 PUSH1 0x1 PUSH1 0x1 PUSH1 0xA0 SHL SUB DUP3 AND DUP3 SUB PUSH3 0x46B JUMPI JUMP INVALID PUSH1 0x80 PUSH1 0x40 MSTORE PUSH1 0x4 CALLDATASIZE LT ISZERO PUSH2 0x12 JUMPI PUSH1 0x0 DUP1 REVERT JUMPDEST PUSH1 0x0 CALLDATALOAD PUSH1 0xE0 SHR DUP1 PUSH4 0x1C587FA EQ PUSH2 0x1171 JUMPI DUP1 PUSH4 0x758D924 EQ PUSH2 0x1148 JUMPI DUP1 PUSH4 0xCC4574D EQ PUSH2 0x1122 JUMPI DUP1 PUSH4 0x1AD15BBC EQ PUSH2 0x10F9 JUMPI DUP1 PUSH4 0x24A9D853 EQ PUSH2 0x10DB JUMPI DUP1 PUSH4 0x25217724 EQ PUSH2 0x100F JUMPI DUP1 PUSH4 0x2760ECA1 EQ PUSH2 0xFF4 JUMPI DUP1 PUSH4 0x2A2C6972 EQ PUSH2 0xED8 JUMPI DUP1 PUSH4 0x2B852DE2 EQ PUSH2 0xEBA JUMPI DUP1 PUSH4 0x334041A6 EQ PUSH2 0xE94 JUMPI DUP1 PUSH4 0x343EE3B7 EQ PUSH2 0xE59 JUMPI DUP1 PUSH4 0x39406C50 EQ PUSH2 0xE30 JUMPI DUP1 PUSH4 0x398482D8 EQ PUSH2 0xE0D JUMPI DUP1 PUSH4 0x3DE1D8A4 EQ PUSH2 0xDE7 JUMPI DUP1 PUSH4 0x4329742D EQ PUSH2 0xD9D JUMPI DUP1 PUSH4 0x452E68DD EQ PUSH2 0xD74 JUMPI DUP1 PUSH4 0x46904840 EQ PUSH2 0xD4B JUMPI DUP1 PUSH4 0x4BEB394C EQ PUSH2 0xD2D JUMPI DUP1 PUSH4 0x52B86D2B EQ PUSH2 0xCF2 JUMPI DUP1 PUSH4 0x7F544E49 EQ PUSH2 0xCD4 JUMPI DUP1 PUSH4 0x8C575AA3 EQ PUSH2 0xB57 JUMPI DUP1 PUSH4 0x95564837 EQ PUSH2 0x9B8 JUMPI DUP1 PUSH4 0xA64190C4 EQ PUSH2 0x98E JUMPI DUP1 PUSH4 0xC1ABBE08 EQ PUSH2 0x968 JUMPI DUP1 PUSH4 0xC446795A EQ PUSH2 0x942 JUMPI DUP1 PUSH4 0xC45A0155 EQ PUSH2 0x8FD JUMPI DUP1 PUSH4 0xCBCB3171 EQ PUSH2 0x8DF JUMPI DUP1 PUSH4 0xD62CCB3F EQ PUSH2 0x8C1 JUMPI DUP1 PUSH4 0xD79875EB EQ PUSH2 0x63E JUMPI DUP1 PUSH4 0xD96A094A EQ PUSH2 0x3D5 JUMPI DUP1 PUSH4 0xE1A45218 EQ PUSH2 0x3B8 JUMPI DUP1 PUSH4 0xE3818EB8 EQ PUSH2 0x253 JUMPI DUP1 PUSH4 0xE7C2B772 EQ PUSH2 0x22D JUMPI DUP1 PUSH4 0xF95A02D0 EQ PUSH2 0x20F JUMPI DUP1 PUSH4 0xFC0C546A EQ PUSH2 0x1CA JUMPI PUSH4 0xFCCC2813 EQ PUSH2 0x1A8 JUMPI PUSH1 0x0 DUP1 REVERT JUMPDEST CALLVALUE PUSH2 0x1C5 JUMPI PUSH1 0x0 CALLDATASIZE PUSH1 0x3 NOT ADD SLT PUSH2 0x1C5 JUMPI PUSH1 0x20 PUSH1 0x40 MLOAD PUSH2 0xDEAD DUP2 MSTORE RETURN JUMPDEST PUSH1 0x0 DUP1 REVERT JUMPDEST CALLVALUE PUSH2 0x1C5 JUMPI PUSH1 0x0 CALLDATASIZE PUSH1 0x3 NOT ADD SLT PUSH2 0x1C5 JUMPI PUSH1 0x40 MLOAD PUSH32 0x0 PUSH1 0x1 PUSH1 0x1 PUSH1 0xA0 SHL SUB AND DUP2 MSTORE PUSH1 0x20 SWAP1 RETURN JUMPDEST CALLVALUE PUSH2 0x1C5 JUMPI PUSH1 0x0 CALLDATASIZE PUSH1 0x3 NOT ADD SLT PUSH2 0x1C5 JUMPI PUSH1 0x20 PUSH1 0x4 SLOAD PUSH1 0x40 MLOAD SWAP1 DUP2 MSTORE RETURN JUMPDEST CALLVALUE PUSH2 0x1C5 JUMPI PUSH1 0x0 CALLDATASIZE PUSH1 0x3 NOT ADD SLT PUSH2 0x1C5 JUMPI PUSH1 0x20 PUSH1 0xFF PUSH1 0x7 SLOAD PUSH1 0xC0 SHR AND PUSH1 0x40 MLOAD SWAP1 ISZERO ISZERO DUP2 MSTORE RETURN JUMPDEST CALLVALUE PUSH2 0x1C5 JUMPI PUSH1 0x0 CALLDATASIZE PUSH1 0x3 NOT ADD SLT PUSH2 0x1C5 JUMPI PUSH1 0x1 PUSH1 0x1 PUSH1 0xA0 SHL SUB PUSH2 0x299 CALLER PUSH32 0x0 DUP4 AND EQ PUSH2 0x1893 JUMP JUMPDEST PUSH1 0x7 SWAP1 PUSH2 0x389 PUSH32 0x5CFC9EA0E95E86463D8DACD6C53993376A8AFAB5437E80A8A98D57D7A8B0F234 DUP4 SLOAD SWAP3 PUSH2 0x2D3 PUSH1 0xFF DUP6 PUSH1 0xE0 SHR AND ISZERO PUSH2 0x18CE JUMP JUMPDEST PUSH1 0xFF PUSH1 0xE0 SHL NOT SWAP4 DUP5 AND PUSH1 0x1 PUSH1 0xE0 SHL OR DUP1 DUP7 SSTORE PUSH2 0x314 SWAP1 PUSH1 0xFF SWAP1 PUSH2 0x2FB PUSH1 0xB8 DUP3 SWAP1 SHR DUP4 AND PUSH2 0x1907 JUMP JUMPDEST PUSH2 0x30A DUP3 DUP3 PUSH1 0xC0 SHR AND ISZERO PUSH2 0x1945 JUMP JUMPDEST PUSH1 0xC8 SHR AND ISZERO PUSH2 0x1985 JUMP JUMPDEST PUSH2 0x321 PUSH1 0x2 SLOAD ISZERO ISZERO PUSH2 0x19C2 JUMP JUMPDEST PUSH2 0x330 DUP2 PUSH1 0x5 SLOAD AND ISZERO ISZERO PUSH2 0x1F27 JUMP JUMPDEST PUSH2 0x339 ADDRESS PUSH2 0x273D JUMP JUMPDEST POP DUP9 SLOAD PUSH3 0xFFFFFF PUSH1 0xC8 SHL NOT AND PUSH1 0x1 PUSH1 0xC8 SHL OR DUP10 SSTORE PUSH1 0x8 DUP1 SLOAD PUSH1 0x1 PUSH1 0x1 PUSH1 0xA0 SHL SUB NOT AND SWAP2 SWAP1 SWAP6 AND SWAP1 DUP2 OR SWAP1 SWAP5 SSTORE PUSH1 0x40 DUP1 MLOAD SWAP4 DUP5 MSTORE PUSH1 0x20 DUP5 ADD SWAP3 SWAP1 SWAP3 MSTORE SWAP1 DUP3 ADD MSTORE TIMESTAMP PUSH1 0x60 DUP3 ADD MSTORE SWAP1 SWAP3 DUP2 SWAP1 PUSH1 0x80 DUP3 ADD SWAP1 JUMP JUMPDEST SUB SWAP1 LOG2 PUSH2 0x394 PUSH2 0x2B46 JUMP JUMPDEST SWAP1 POP PUSH1 0x4 SLOAD DUP2 LT ISZERO PUSH2 0x3A9 JUMPI JUMPDEST POP DUP2 SLOAD AND SWAP1 SSTORE STOP JUMPDEST PUSH2 0x3B2 SWAP1 PUSH2 0x2237 JUMP JUMPDEST DUP3 PUSH2 0x3A1 JUMP JUMPDEST CALLVALUE PUSH2 0x1C5 JUMPI PUSH1 0x0 CALLDATASIZE PUSH1 0x3 NOT ADD SLT PUSH2 0x1C5 JUMPI PUSH1 0x20 PUSH1 0x40 MLOAD PUSH2 0x2710 DUP2 MSTORE RETURN JUMPDEST PUSH1 0x20 DUP1 PUSH1 0x3 NOT CALLDATASIZE ADD SLT PUSH2 0x1C5 JUMPI PUSH1 0x7 SLOAD PUSH2 0x3F5 PUSH1 0xFF DUP3 PUSH1 0xE0 SHR AND ISZERO PUSH2 0x18CE JUMP JUMPDEST PUSH1 0xFF PUSH1 0xE0 SHL NOT SWAP1 DUP2 AND PUSH1 0x1 PUSH1 0xE0 SHL OR PUSH1 0x7 DUP2 SWAP1 SSTORE PUSH2 0x42E SWAP1 PUSH1 0xFF SWAP1 PUSH2 0x41F PUSH1 0xB8 DUP3 SWAP1 SHR DUP4 AND PUSH2 0x1907 JUMP JUMPDEST PUSH2 0x30A DUP3 DUP3 PUSH1 0xC0 SHR AND ISZERO PUSH2 0x1DA3 JUMP JUMPDEST CALLVALUE ISZERO PUSH2 0x60A JUMPI PUSH2 0x2710 PUSH2 0x443 PUSH1 0x1 SLOAD CALLVALUE PUSH2 0x19FF JUMP JUMPDEST DIV SWAP1 PUSH2 0x44F DUP3 CALLVALUE PUSH2 0x1C43 JUMP JUMPDEST SWAP2 PUSH2 0x459 DUP4 PUSH2 0x252F JUMP JUMPDEST SWAP3 PUSH2 0x465 DUP5 ISZERO ISZERO PUSH2 0x1DDB JUMP JUMPDEST PUSH2 0x473 PUSH1 0x4 CALLDATALOAD DUP6 LT ISZERO PUSH2 0x1E1D JUMP JUMPDEST PUSH1 0x3 SLOAD SWAP1 DUP2 DUP6 GT PUSH2 0x5CC JUMPI PUSH2 0x497 SWAP2 PUSH2 0x48F DUP7 SWAP3 PUSH1 0x2 SLOAD PUSH2 0x1AC3 JUMP JUMPDEST PUSH1 0x2 SSTORE PUSH2 0x1C43 JUMP JUMPDEST PUSH1 0x3 SSTORE DUP1 PUSH2 0x5A4 JUMPI JUMPDEST PUSH1 0x40 MLOAD PUSH4 0xA9059CBB PUSH1 0xE0 SHL DUP2 MSTORE CALLER PUSH1 0x4 DUP3 ADD MSTORE PUSH1 0x24 DUP2 ADD DUP5 SWAP1 MSTORE DUP5 DUP2 PUSH1 0x44 DUP2 PUSH1 0x0 PUSH1 0x1 PUSH1 0x1 PUSH1 0xA0 SHL SUB PUSH32 0x0 AND GAS CALL DUP1 ISZERO PUSH2 0x598 JUMPI PUSH1 0x0 SWAP1 PUSH2 0x562 JUMPI JUMPDEST PUSH2 0x505 SWAP2 POP PUSH2 0x1E61 JUMP JUMPDEST PUSH32 0xBEAE048C6D270D9469F86CF6E8FEDDA3C60AD770F16C24C9FC131C8E9A09101D PUSH1 0x40 MLOAD DUP1 PUSH2 0x548 DUP7 CALLER SWAP6 CALLVALUE DUP5 PUSH1 0x40 SWAP2 SWAP5 SWAP4 SWAP3 PUSH1 0x60 DUP3 ADD SWAP6 DUP3 MSTORE PUSH1 0x20 DUP3 ADD MSTORE ADD MSTORE JUMP JUMPDEST SUB SWAP1 LOG2 PUSH2 0x553 PUSH2 0x262C JUMP JUMPDEST PUSH1 0x7 SLOAD AND PUSH1 0x7 SSTORE PUSH1 0x40 MLOAD SWAP1 DUP2 MSTORE RETURN JUMPDEST POP DUP5 DUP2 DUP2 RETURNDATASIZE DUP4 GT PUSH2 0x591 JUMPI JUMPDEST PUSH2 0x578 DUP2 DUP4 PUSH2 0x1D0D JUMP JUMPDEST DUP2 ADD SUB SLT PUSH2 0x1C5 JUMPI PUSH2 0x58C PUSH2 0x505 SWAP2 PUSH2 0x1E54 JUMP JUMPDEST PUSH2 0x4FB JUMP JUMPDEST POP RETURNDATASIZE PUSH2 0x56E JUMP JUMPDEST PUSH1 0x40 MLOAD RETURNDATASIZE PUSH1 0x0 DUP3 RETURNDATACOPY RETURNDATASIZE SWAP1 REVERT JUMPDEST PUSH2 0x5C7 PUSH1 0x0 DUP1 DUP1 DUP1 DUP6 PUSH1 0x1 DUP1 PUSH1 0xA0 SHL SUB DUP3 SLOAD AND GAS CALL PUSH2 0x5C1 PUSH2 0x1EA5 JUMP JUMPDEST POP PUSH2 0x1EE5 JUMP JUMPDEST PUSH2 0x4A0 JUMP JUMPDEST PUSH1 0x40 MLOAD PUSH3 0x461BCD PUSH1 0xE5 SHL DUP2 MSTORE PUSH1 0x4 DUP2 ADD DUP8 SWAP1 MSTORE PUSH1 0x16 PUSH1 0x24 DUP3 ADD MSTORE PUSH22 0x696E73756666696369656E74206C6971756964697479 PUSH1 0x50 SHL PUSH1 0x44 DUP3 ADD MSTORE PUSH1 0x64 SWAP1 REVERT JUMPDEST PUSH1 0x40 MLOAD PUSH3 0x461BCD PUSH1 0xE5 SHL DUP2 MSTORE PUSH1 0x4 DUP2 ADD DUP4 SWAP1 MSTORE PUSH1 0xC PUSH1 0x24 DUP3 ADD MSTORE PUSH12 0x195D1A081C995C5D5A5C9959 PUSH1 0xA2 SHL PUSH1 0x44 DUP3 ADD MSTORE PUSH1 0x64 SWAP1 REVERT JUMPDEST CALLVALUE PUSH2 0x1C5 JUMPI PUSH1 0x40 CALLDATASIZE PUSH1 0x3 NOT ADD SLT PUSH2 0x1C5 JUMPI PUSH1 0x4 CALLDATALOAD PUSH1 0x7 SLOAD SWAP1 PUSH2 0x666 PUSH1 0xFF DUP4 PUSH1 0xE0 SHR AND ISZERO PUSH2 0x18CE JUMP JUMPDEST PUSH1 0xFF PUSH1 0xE0 SHL NOT SWAP2 DUP3 AND PUSH1 0x1 PUSH1 0xE0 SHL OR PUSH1 0x7 DUP2 SWAP1 SSTORE PUSH2 0x690 SWAP1 PUSH1 0xFF SWAP1 PUSH2 0x41F PUSH1 0xB8 DUP3 SWAP1 SHR DUP4 AND PUSH2 0x1907 JUMP JUMPDEST PUSH2 0x69B DUP2 ISZERO ISZERO PUSH2 0x1CC9 JUMP JUMPDEST PUSH2 0x6A4 DUP2 PUSH2 0x25BF JUMP JUMPDEST SWAP2 PUSH2 0x6B0 DUP4 ISZERO ISZERO PUSH2 0x1DDB JUMP JUMPDEST PUSH1 0x2 SLOAD DUP4 GT PUSH2 0x87C JUMPI PUSH2 0x2710 PUSH2 0x6C8 PUSH1 0x1 SLOAD DUP6 PUSH2 0x19FF JUMP JUMPDEST DIV SWAP2 PUSH2 0x6D4 DUP4 DUP6 PUSH2 0x1C43 JUMP JUMPDEST SWAP3 PUSH2 0x6E3 PUSH1 0x24 CALLDATALOAD DUP6 LT ISZERO PUSH2 0x1E1D JUMP JUMPDEST PUSH1 0x40 MLOAD PUSH4 0x23B872DD PUSH1 0xE0 SHL DUP2 MSTORE CALLER PUSH1 0x4 DUP3 ADD MSTORE ADDRESS PUSH1 0x24 DUP3 ADD MSTORE PUSH1 0x44 DUP2 ADD DUP4 SWAP1 MSTORE PUSH1 0x20 SWAP6 PUSH1 0x1 PUSH1 0x1 PUSH1 0xA0 SHL SUB SWAP2 SWAP1 DUP8 DUP3 PUSH1 0x64 DUP2 PUSH1 0x0 PUSH32 0x0 DUP9 AND GAS CALL SWAP2 DUP3 ISZERO PUSH2 0x598 JUMPI PUSH1 0x0 SWAP3 PUSH2 0x840 JUMPI JUMPDEST POP PUSH2 0x758 PUSH2 0x76F SWAP3 PUSH2 0x1E61 JUMP JUMPDEST PUSH2 0x764 DUP6 PUSH1 0x3 SLOAD PUSH2 0x1AC3 JUMP JUMPDEST PUSH1 0x3 SSTORE PUSH1 0x2 SLOAD PUSH2 0x1C43 JUMP JUMPDEST PUSH1 0x2 SSTORE PUSH1 0x0 DUP1 DUP1 DUP1 DUP9 CALLER GAS CALL PUSH2 0x783 PUSH2 0x1EA5 JUMP JUMPDEST POP ISZERO PUSH2 0x805 JUMPI DUP2 PUSH2 0x7D5 SWAP2 DUP2 PUSH32 0x846C37EEF631E0943682D87352EC117C20008EB7F425C9B85AC011A6D4774CC0 SWAP5 PUSH2 0x7E7 JUMPI JUMPDEST POP POP PUSH1 0x40 DUP1 MLOAD SWAP5 DUP6 MSTORE PUSH1 0x20 DUP6 ADD DUP8 SWAP1 MSTORE DUP5 ADD MSTORE CALLER SWAP3 SWAP1 DUP2 SWAP1 PUSH1 0x60 DUP3 ADD SWAP1 JUMP JUMPDEST SUB SWAP1 LOG2 PUSH1 0x7 SLOAD AND PUSH1 0x7 SSTORE PUSH1 0x40 MLOAD SWAP1 DUP2 MSTORE RETURN JUMPDEST PUSH1 0x0 DUP1 DUP1 DUP1 SWAP4 PUSH2 0x7FE SWAP6 DUP3 SLOAD AND GAS CALL PUSH2 0x5C1 PUSH2 0x1EA5 JUMP JUMPDEST DUP8 DUP2 PUSH2 0x7B6 JUMP JUMPDEST PUSH1 0x40 MLOAD PUSH3 0x461BCD PUSH1 0xE5 SHL DUP2 MSTORE PUSH1 0x4 DUP2 ADD DUP8 SWAP1 MSTORE PUSH1 0x13 PUSH1 0x24 DUP3 ADD MSTORE PUSH19 0x195D1A081D1C985B9CD9995C8819985A5B1959 PUSH1 0x6A SHL PUSH1 0x44 DUP3 ADD MSTORE PUSH1 0x64 SWAP1 REVERT JUMPDEST SWAP2 POP DUP8 DUP3 DUP2 RETURNDATASIZE DUP4 GT PUSH2 0x875 JUMPI JUMPDEST PUSH2 0x857 DUP2 DUP4 PUSH2 0x1D0D JUMP JUMPDEST DUP2 ADD SUB SLT PUSH2 0x1C5 JUMPI PUSH2 0x758 PUSH2 0x86E PUSH2 0x76F SWAP4 PUSH2 0x1E54 JUMP JUMPDEST SWAP3 POP PUSH2 0x74B JUMP JUMPDEST POP RETURNDATASIZE PUSH2 0x84D JUMP JUMPDEST PUSH1 0x40 MLOAD PUSH3 0x461BCD PUSH1 0xE5 SHL DUP2 MSTORE PUSH1 0x20 PUSH1 0x4 DUP3 ADD MSTORE PUSH1 0x18 PUSH1 0x24 DUP3 ADD MSTORE PUSH32 0x696E73756666696369656E742065746820726573657276650000000000000000 PUSH1 0x44 DUP3 ADD MSTORE PUSH1 0x64 SWAP1 REVERT JUMPDEST CALLVALUE PUSH2 0x1C5 JUMPI PUSH1 0x0 CALLDATASIZE PUSH1 0x3 NOT ADD SLT PUSH2 0x1C5 JUMPI PUSH1 0x20 PUSH1 0x2 SLOAD PUSH1 0x40 MLOAD SWAP1 DUP2 MSTORE RETURN JUMPDEST CALLVALUE PUSH2 0x1C5 JUMPI PUSH1 0x0 CALLDATASIZE PUSH1 0x3 NOT ADD SLT PUSH2 0x1C5 JUMPI PUSH1 0x20 PUSH1 0x3 SLOAD PUSH1 0x40 MLOAD SWAP1 DUP2 MSTORE RETURN JUMPDEST CALLVALUE PUSH2 0x1C5 JUMPI PUSH1 0x0 CALLDATASIZE PUSH1 0x3 NOT ADD SLT PUSH2 0x1C5 JUMPI PUSH1 0x40 MLOAD PUSH32 0x0 PUSH1 0x1 PUSH1 0x1 PUSH1 0xA0 SHL SUB AND DUP2 MSTORE PUSH1 0x20 SWAP1 RETURN JUMPDEST CALLVALUE PUSH2 0x1C5 JUMPI PUSH1 0x0 CALLDATASIZE PUSH1 0x3 NOT ADD SLT PUSH2 0x1C5 JUMPI PUSH1 0x20 PUSH1 0xFF PUSH1 0x7 SLOAD PUSH1 0xC8 SHR AND PUSH1 0x40 MLOAD SWAP1 ISZERO ISZERO DUP2 MSTORE RETURN JUMPDEST CALLVALUE PUSH2 0x1C5 JUMPI PUSH1 0x0 CALLDATASIZE PUSH1 0x3 NOT ADD SLT PUSH2 0x1C5 JUMPI PUSH1 0x20 PUSH1 0xFF PUSH1 0x7 SLOAD PUSH1 0xD8 SHR AND PUSH1 0x40 MLOAD SWAP1 ISZERO ISZERO DUP2 MSTORE RETURN JUMPDEST CALLVALUE PUSH2 0x1C5 JUMPI PUSH1 0x20 CALLDATASIZE PUSH1 0x3 NOT ADD SLT PUSH2 0x1C5 JUMPI PUSH1 0x40 PUSH2 0x9AC PUSH1 0x4 CALLDATALOAD PUSH2 0x1D2F JUMP JUMPDEST DUP3 MLOAD SWAP2 DUP3 MSTORE PUSH1 0x20 DUP3 ADD MSTORE RETURN JUMPDEST CALLVALUE PUSH2 0x1C5 JUMPI PUSH1 0x20 DUP1 PUSH1 0x3 NOT CALLDATASIZE ADD SLT PUSH2 0x1C5 JUMPI PUSH1 0x1 PUSH1 0x1 PUSH1 0xA0 SHL SUB SWAP1 PUSH1 0x4 CALLDATALOAD PUSH2 0xA03 CALLER PUSH32 0x0 DUP6 AND EQ PUSH2 0x1893 JUMP JUMPDEST PUSH1 0x7 SLOAD SWAP3 PUSH1 0xFF DUP5 PUSH1 0xB8 SHR AND PUSH2 0xB21 JUMPI DUP3 PUSH1 0x24 SWAP2 PUSH2 0xA21 DUP5 ISZERO ISZERO PUSH2 0x1CC9 JUMP JUMPDEST PUSH1 0x40 MLOAD PUSH4 0x70A08231 PUSH1 0xE0 SHL DUP2 MSTORE ADDRESS PUSH1 0x4 DUP3 ADD MSTORE SWAP3 DUP4 SWAP2 DUP3 SWAP1 PUSH32 0x0 AND GAS STATICCALL DUP1 ISZERO PUSH2 0x598 JUMPI DUP3 SWAP2 PUSH1 0x0 SWAP2 PUSH2 0xAF0 JUMPI JUMPDEST POP LT PUSH2 0xAB5 JUMPI PUSH1 0xFF PUSH1 0xB8 SHL NOT SWAP1 SWAP3 AND PUSH1 0x1 PUSH1 0xB8 SHL OR PUSH1 0x7 SSTORE PUSH1 0x3 DUP3 SWAP1 SSTORE PUSH1 0x40 MLOAD SWAP2 DUP3 MSTORE PUSH32 0xA71ED34FF06AF8D6865A8F541AAE52D72FA89F0E5EE15F01D48FA6C62C856914 SWAP2 LOG1 STOP JUMPDEST PUSH1 0x40 MLOAD PUSH3 0x461BCD PUSH1 0xE5 SHL DUP2 MSTORE PUSH1 0x4 DUP2 ADD DUP4 SWAP1 MSTORE PUSH1 0x13 PUSH1 0x24 DUP3 ADD MSTORE PUSH19 0x696E73756666696369656E7420746F6B656E73 PUSH1 0x68 SHL PUSH1 0x44 DUP3 ADD MSTORE PUSH1 0x64 SWAP1 REVERT JUMPDEST DUP1 SWAP3 POP DUP5 DUP1 SWAP3 POP RETURNDATASIZE DUP4 GT PUSH2 0xB1A JUMPI JUMPDEST PUSH2 0xB09 DUP2 DUP4 PUSH2 0x1D0D JUMP JUMPDEST DUP2 ADD SUB SLT PUSH2 0x1C5 JUMPI DUP2 SWAP1 MLOAD DUP6 PUSH2 0xA6D JUMP JUMPDEST POP RETURNDATASIZE PUSH2 0xAFF JUMP JUMPDEST PUSH1 0x40 MLOAD PUSH3 0x461BCD PUSH1 0xE5 SHL DUP2 MSTORE PUSH1 0x4 DUP2 ADD DUP5 SWAP1 MSTORE PUSH1 0xE PUSH1 0x24 DUP3 ADD MSTORE PUSH14 0x185B1C9958591E481CD959591959 PUSH1 0x92 SHL PUSH1 0x44 DUP3 ADD MSTORE PUSH1 0x64 SWAP1 REVERT JUMPDEST CALLVALUE PUSH2 0x1C5 JUMPI PUSH1 0x60 CALLDATASIZE PUSH1 0x3 NOT ADD SLT PUSH2 0x1C5 JUMPI PUSH2 0xB70 PUSH2 0x187D JUMP JUMPDEST PUSH1 0x24 CALLDATALOAD PUSH1 0x1 PUSH1 0x1 PUSH1 0xA0 SHL SUB DUP2 DUP2 AND SWAP3 SWAP1 DUP4 DUP4 SUB PUSH2 0x1C5 JUMPI PUSH1 0x44 CALLDATALOAD SWAP1 PUSH2 0xBB8 DUP2 PUSH32 0x0 AND CALLER EQ PUSH2 0x1893 JUMP JUMPDEST PUSH2 0xBCA PUSH1 0xFF PUSH1 0x7 SLOAD PUSH1 0xC0 SHR AND ISZERO PUSH2 0x1945 JUMP JUMPDEST DUP2 ISZERO PUSH2 0xC9D JUMPI DUP3 AND DUP1 PUSH2 0xC53 JUMPI JUMPDEST SWAP1 PUSH32 0xBCDC4BFF84F936019028A7BCBEF6B449550D6334606377B822720E57E94276C4 SWAP5 PUSH2 0xC4E SWAP3 PUSH12 0xFFFFFFFFFFFFFFFFFFFFFFFF PUSH1 0xA0 SHL SWAP1 DUP2 PUSH1 0x5 SLOAD AND OR PUSH1 0x5 SSTORE PUSH1 0x6 SLOAD AND OR PUSH1 0x6 SSTORE DUP1 PUSH1 0x4 SSTORE PUSH1 0x40 MLOAD SWAP4 DUP5 SWAP4 DUP5 PUSH1 0x40 SWAP2 SWAP5 SWAP4 SWAP3 SWAP5 PUSH1 0x60 DUP3 ADD SWAP6 PUSH1 0x1 DUP1 PUSH1 0xA0 SHL SUB DUP1 SWAP3 AND DUP4 MSTORE AND PUSH1 0x20 DUP3 ADD MSTORE ADD MSTORE JUMP JUMPDEST SUB SWAP1 LOG1 STOP JUMPDEST SWAP1 DUP5 ISZERO PUSH2 0xC60 JUMPI SWAP1 PUSH2 0xBD8 JUMP JUMPDEST PUSH1 0x40 MLOAD PUSH3 0x461BCD PUSH1 0xE5 SHL DUP2 MSTORE PUSH1 0x20 PUSH1 0x4 DUP3 ADD MSTORE PUSH1 0x15 PUSH1 0x24 DUP3 ADD MSTORE PUSH21 0x1B1C081C9958DA5C1A595B9D081C995C5D5A5C9959 PUSH1 0x5A SHL PUSH1 0x44 DUP3 ADD MSTORE PUSH1 0x64 SWAP1 REVERT JUMPDEST PUSH1 0x40 MLOAD PUSH3 0x461BCD PUSH1 0xE5 SHL DUP2 MSTORE PUSH1 0x20 PUSH1 0x4 DUP3 ADD MSTORE PUSH1 0xF PUSH1 0x24 DUP3 ADD MSTORE PUSH15 0x1D185C99D95D081C995C5D5A5C9959 PUSH1 0x8A SHL PUSH1 0x44 DUP3 ADD MSTORE PUSH1 0x64 SWAP1 REVERT JUMPDEST CALLVALUE PUSH2 0x1C5 JUMPI PUSH1 0x0 CALLDATASIZE PUSH1 0x3 NOT ADD SLT PUSH2 0x1C5 JUMPI PUSH1 0x20 PUSH1 0xA SLOAD PUSH1 0x40 MLOAD SWAP1 DUP2 MSTORE RETURN JUMPDEST CALLVALUE PUSH2 0x1C5 JUMPI PUSH1 0x0 CALLDATASIZE PUSH1 0x3 NOT ADD SLT PUSH2 0x1C5 JUMPI PUSH1 0x20 PUSH1 0x40 MLOAD PUSH32 0x0 DUP2 MSTORE RETURN JUMPDEST CALLVALUE PUSH2 0x1C5 JUMPI PUSH1 0x20 CALLDATASIZE PUSH1 0x3 NOT ADD SLT PUSH2 0x1C5 JUMPI PUSH1 0x40 PUSH2 0x9AC PUSH1 0x4 CALLDATALOAD PUSH2 0x1C50 JUMP JUMPDEST CALLVALUE PUSH2 0x1C5 JUMPI PUSH1 0x0 CALLDATASIZE PUSH1 0x3 NOT ADD SLT PUSH2 0x1C5 JUMPI PUSH1 0x0 SLOAD PUSH1 0x40 MLOAD PUSH1 0x1 PUSH1 0x1 PUSH1 0xA0 SHL SUB SWAP1 SWAP2 AND DUP2 MSTORE PUSH1 0x20 SWAP1 RETURN JUMPDEST CALLVALUE PUSH2 0x1C5 JUMPI PUSH1 0x0 CALLDATASIZE PUSH1 0x3 NOT ADD SLT PUSH2 0x1C5 JUMPI PUSH1 0x6 SLOAD PUSH1 0x40 MLOAD PUSH1 0x1 PUSH1 0x1 PUSH1 0xA0 SHL SUB SWAP1 SWAP2 AND DUP2 MSTORE PUSH1 0x20 SWAP1 RETURN JUMPDEST CALLVALUE PUSH2 0x1C5 JUMPI PUSH1 0x0 CALLDATASIZE PUSH1 0x3 NOT ADD SLT PUSH2 0x1C5 JUMPI PUSH1 0x7 SLOAD PUSH2 0xDC1 PUSH1 0xFF DUP3 PUSH1 0xE0 SHR AND ISZERO PUSH2 0x18CE JUMP JUMPDEST PUSH1 0xFF PUSH1 0xE0 SHL NOT SWAP1 DUP2 AND PUSH1 0x1 PUSH1 0xE0 SHL OR PUSH1 0x7 SSTORE PUSH2 0xDDB PUSH2 0x1BDF JUMP JUMPDEST PUSH1 0x7 SLOAD AND PUSH1 0x7 SSTORE PUSH1 0x0 DUP1 RETURN JUMPDEST CALLVALUE PUSH2 0x1C5 JUMPI PUSH1 0x0 CALLDATASIZE PUSH1 0x3 NOT ADD SLT PUSH2 0x1C5 JUMPI PUSH1 0x20 PUSH3 0xFFFFFF PUSH1 0x7 SLOAD PUSH1 0xA0 SHR AND PUSH1 0x40 MLOAD SWAP1 DUP2 MSTORE RETURN JUMPDEST CALLVALUE PUSH2 0x1C5 JUMPI PUSH1 0x0 CALLDATASIZE PUSH1 0x3 NOT ADD SLT PUSH2 0x1C5 JUMPI PUSH1 0x20 PUSH2 0xE28 PUSH2 0x1AD0 JUMP JUMPDEST PUSH1 0x40 MLOAD SWAP1 DUP2 MSTORE RETURN JUMPDEST CALLVALUE PUSH2 0x1C5 JUMPI PUSH1 0x0 CALLDATASIZE PUSH1 0x3 NOT ADD SLT PUSH2 0x1C5 JUMPI PUSH1 0x7 SLOAD PUSH1 0x40 MLOAD PUSH1 0x1 PUSH1 0x1 PUSH1 0xA0 SHL SUB SWAP1 SWAP2 AND DUP2 MSTORE PUSH1 0x20 SWAP1 RETURN JUMPDEST CALLVALUE PUSH2 0x1C5 JUMPI PUSH1 0x0 CALLDATASIZE PUSH1 0x3 NOT ADD SLT PUSH2 0x1C5 JUMPI PUSH1 0x20 PUSH1 0x40 MLOAD PUSH32 0x0 DUP2 MSTORE RETURN JUMPDEST CALLVALUE PUSH2 0x1C5 JUMPI PUSH1 0x0 CALLDATASIZE PUSH1 0x3 NOT ADD SLT PUSH2 0x1C5 JUMPI PUSH1 0x20 PUSH1 0xFF PUSH1 0x7 SLOAD PUSH1 0xB8 SHR AND PUSH1 0x40 MLOAD SWAP1 ISZERO ISZERO DUP2 MSTORE RETURN JUMPDEST CALLVALUE PUSH2 0x1C5 JUMPI PUSH1 0x0 CALLDATASIZE PUSH1 0x3 NOT ADD SLT PUSH2 0x1C5 JUMPI PUSH1 0x20 PUSH1 0x9 SLOAD PUSH1 0x40 MLOAD SWAP1 DUP2 MSTORE RETURN JUMPDEST CALLVALUE PUSH2 0x1C5 JUMPI PUSH1 0x40 CALLDATASIZE PUSH1 0x3 NOT ADD SLT PUSH2 0x1C5 JUMPI PUSH2 0xEF1 PUSH2 0x187D JUMP JUMPDEST PUSH1 0x24 CALLDATALOAD SWAP1 PUSH1 0x1 PUSH1 0x1 PUSH1 0xA0 SHL SUB SWAP1 PUSH2 0xF2B CALLER PUSH32 0x0 DUP5 AND EQ PUSH2 0x1893 JUMP JUMPDEST AND SWAP1 DUP2 ISZERO PUSH2 0xFBA JUMPI PUSH2 0x12C DUP2 GT PUSH2 0xF86 JUMPI PUSH1 0x20 PUSH32 0xE42708D93B95810922305119A3271CA42233DA9EBE1E1E503F0E887817A32C7A SWAP2 DUP4 PUSH12 0xFFFFFFFFFFFFFFFFFFFFFFFF PUSH1 0xA0 SHL PUSH1 0x0 SLOAD AND OR PUSH1 0x0 SSTORE DUP1 PUSH1 0x1 SSTORE PUSH1 0x40 MLOAD SWAP1 DUP2 MSTORE LOG2 STOP JUMPDEST PUSH1 0x40 MLOAD PUSH3 0x461BCD PUSH1 0xE5 SHL DUP2 MSTORE PUSH1 0x20 PUSH1 0x4 DUP3 ADD MSTORE PUSH1 0xC PUSH1 0x24 DUP3 ADD MSTORE PUSH12 0xCCCACA40E8DEDE40D0D2CED PUSH1 0xA3 SHL PUSH1 0x44 DUP3 ADD MSTORE PUSH1 0x64 SWAP1 REVERT JUMPDEST PUSH1 0x40 MLOAD PUSH3 0x461BCD PUSH1 0xE5 SHL DUP2 MSTORE PUSH1 0x20 PUSH1 0x4 DUP3 ADD MSTORE PUSH1 0x12 PUSH1 0x24 DUP3 ADD MSTORE PUSH18 0x1C9958DA5C1A595B9D081C995C5D5A5C9959 PUSH1 0x72 SHL PUSH1 0x44 DUP3 ADD MSTORE PUSH1 0x64 SWAP1 REVERT JUMPDEST CALLVALUE PUSH2 0x1C5 JUMPI PUSH1 0x0 CALLDATASIZE PUSH1 0x3 NOT ADD SLT PUSH2 0x1C5 JUMPI PUSH1 0x20 PUSH2 0xE28 PUSH2 0x1A32 JUMP JUMPDEST CALLVALUE PUSH2 0x1C5 JUMPI PUSH1 0x0 CALLDATASIZE PUSH1 0x3 NOT ADD SLT PUSH2 0x1C5 JUMPI PUSH2 0x1054 CALLER PUSH32 0x0 PUSH1 0x1 PUSH1 0x1 PUSH1 0xA0 SHL SUB AND EQ PUSH2 0x1893 JUMP JUMPDEST PUSH1 0x7 SLOAD PUSH2 0x1067 PUSH1 0xFF DUP3 PUSH1 0xE0 SHR AND ISZERO PUSH2 0x18CE JUMP JUMPDEST PUSH1 0xFF PUSH1 0xE0 SHL NOT SWAP1 DUP2 AND PUSH1 0x1 PUSH1 0xE0 SHL OR PUSH1 0x7 DUP2 SWAP1 SSTORE PUSH2 0x1091 SWAP1 PUSH1 0xFF SWAP1 PUSH2 0x2FB PUSH1 0xB8 DUP3 SWAP1 SHR DUP4 AND PUSH2 0x1907 JUMP JUMPDEST PUSH1 0x2 SLOAD PUSH2 0x109F DUP2 ISZERO ISZERO PUSH2 0x19C2 JUMP JUMPDEST PUSH1 0x3 SLOAD PUSH1 0x40 MLOAD SWAP2 DUP3 MSTORE PUSH1 0x20 DUP3 ADD MSTORE PUSH32 0x5D6DC6B9835F5448AE2351719684F59735B30DFA8E62677CC6F9E98BD4C08F7F PUSH1 0x40 CALLER SWAP3 LOG2 PUSH2 0xDDB PUSH2 0x1F87 JUMP JUMPDEST CALLVALUE PUSH2 0x1C5 JUMPI PUSH1 0x0 CALLDATASIZE PUSH1 0x3 NOT ADD SLT PUSH2 0x1C5 JUMPI PUSH1 0x20 PUSH1 0x1 SLOAD PUSH1 0x40 MLOAD SWAP1 DUP2 MSTORE RETURN JUMPDEST CALLVALUE PUSH2 0x1C5 JUMPI PUSH1 0x0 CALLDATASIZE PUSH1 0x3 NOT ADD SLT PUSH2 0x1C5 JUMPI PUSH1 0x8 SLOAD PUSH1 0x40 MLOAD PUSH1 0x1 PUSH1 0x1 PUSH1 0xA0 SHL SUB SWAP1 SWAP2 AND DUP2 MSTORE PUSH1 0x20 SWAP1 RETURN JUMPDEST CALLVALUE PUSH2 0x1C5 JUMPI PUSH1 0x0 CALLDATASIZE PUSH1 0x3 NOT ADD SLT PUSH2 0x1C5 JUMPI PUSH1 0x20 PUSH1 0xFF PUSH1 0x7 SLOAD PUSH1 0xD0 SHR AND PUSH1 0x40 MLOAD SWAP1 ISZERO ISZERO DUP2 MSTORE RETURN JUMPDEST CALLVALUE PUSH2 0x1C5 JUMPI PUSH1 0x0 CALLDATASIZE PUSH1 0x3 NOT ADD SLT PUSH2 0x1C5 JUMPI PUSH1 0x5 SLOAD PUSH1 0x40 MLOAD PUSH1 0x1 PUSH1 0x1 PUSH1 0xA0 SHL SUB SWAP1 SWAP2 AND DUP2 MSTORE PUSH1 0x20 SWAP1 RETURN JUMPDEST CALLVALUE PUSH2 0x1C5 JUMPI PUSH1 0x0 CALLDATASIZE PUSH1 0x3 NOT ADD SLT PUSH2 0x1C5 JUMPI PUSH2 0x11B6 CALLER PUSH32 0x0 PUSH1 0x1 PUSH1 0x1 PUSH1 0xA0 SHL SUB AND EQ PUSH2 0x1893 JUMP JUMPDEST PUSH1 0x7 SLOAD PUSH2 0x11C9 PUSH1 0xFF DUP3 PUSH1 0xE0 SHR AND ISZERO PUSH2 0x18CE JUMP JUMPDEST PUSH1 0xFF PUSH1 0xE0 SHL NOT DUP2 AND PUSH1 0x1 PUSH1 0xE0 SHL OR PUSH1 0x7 DUP2 SWAP1 SSTORE PUSH2 0x11EC PUSH1 0xB8 DUP3 SWAP1 SHR PUSH1 0xFF AND PUSH2 0x1907 JUMP JUMPDEST PUSH2 0x11FC PUSH1 0xFF DUP3 PUSH1 0xC0 SHR AND ISZERO PUSH2 0x1945 JUMP JUMPDEST PUSH2 0x120C PUSH1 0xFF DUP3 PUSH1 0xC8 SHR AND ISZERO PUSH2 0x1985 JUMP JUMPDEST PUSH1 0x2 SLOAD PUSH2 0x1838 JUMPI PUSH1 0x1 PUSH1 0x1 PUSH1 0xA0 SHL SUB DUP3 AND ISZERO PUSH2 0x17FE JUMPI PUSH1 0x3 DUP1 SLOAD PUSH1 0x0 SWAP1 SWAP2 SSTORE PUSH1 0x40 MLOAD PUSH4 0x12A9293F PUSH1 0xE2 SHL DUP2 MSTORE SWAP1 SWAP2 PUSH1 0x20 DUP3 PUSH1 0x4 DUP2 PUSH1 0x1 PUSH1 0x1 PUSH1 0xA0 SHL SUB DUP9 AND GAS STATICCALL SWAP2 DUP3 ISZERO PUSH2 0x598 JUMPI PUSH1 0x0 SWAP3 PUSH2 0x17DD JUMPI JUMPDEST POP PUSH32 0x0 SWAP4 PUSH1 0x1 PUSH1 0x1 PUSH1 0xA0 SHL SUB DUP4 DUP2 AND SWAP1 DUP7 AND LT ISZERO PUSH2 0x17D7 JUMPI DUP5 JUMPDEST PUSH1 0x1 PUSH1 0x1 PUSH1 0xA0 SHL SUB DUP5 DUP2 AND SWAP1 DUP8 AND LT ISZERO PUSH2 0x17D1 JUMPI DUP4 JUMPDEST PUSH1 0x1 PUSH1 0x1 PUSH1 0xA0 SHL SUB DUP6 DUP2 AND SWAP1 DUP9 AND LT ISZERO PUSH2 0x17BC JUMPI PUSH11 0x1B34F91B7533CA6B68126 SWAP2 JUMPDEST PUSH1 0x1 PUSH1 0x1 PUSH1 0xA0 SHL SUB DUP7 DUP2 AND SWAP1 DUP10 AND LT ISZERO PUSH2 0x17B2 JUMPI PUSH3 0x338FF NOT JUMPDEST PUSH1 0x1 PUSH1 0x1 PUSH1 0xA0 SHL SUB DUP8 DUP2 AND SWAP1 DUP11 AND LT ISZERO PUSH2 0x17A8 JUMPI PUSH3 0xD89A0 SWAP4 JUMPDEST PUSH1 0x40 MLOAD PUSH4 0x9F56AB1 PUSH1 0xE1 SHL DUP2 MSTORE PUSH1 0x1 PUSH1 0x1 PUSH1 0xA0 SHL SUB DUP5 DUP2 AND PUSH1 0x4 DUP4 ADD MSTORE DUP6 DUP2 AND PUSH1 0x24 DUP4 ADD MSTORE PUSH1 0xA0 SWAP9 SWAP1 SWAP9 SHR PUSH3 0xFFFFFF AND PUSH1 0x44 DUP3 ADD MSTORE SWAP1 DUP8 AND PUSH1 0x64 DUP3 ADD MSTORE SWAP6 PUSH1 0x20 SWAP1 DUP8 SWAP1 PUSH1 0x84 SWAP1 DUP3 SWAP1 PUSH1 0x0 SWAP1 DUP11 AND GAS CALL SWAP6 DUP7 ISZERO PUSH2 0x598 JUMPI PUSH1 0x0 SWAP7 PUSH2 0x1777 JUMPI JUMPDEST POP PUSH1 0x7 SLOAD PUSH1 0x40 MLOAD PUSH4 0x95EA7B3 PUSH1 0xE0 SHL DUP2 MSTORE PUSH1 0x1 PUSH1 0x1 PUSH1 0xA0 SHL SUB SWAP2 DUP3 AND PUSH1 0x4 DUP3 ADD MSTORE PUSH1 0x0 PUSH1 0x24 DUP3 ADD DUP2 SWAP1 MSTORE SWAP1 SWAP2 PUSH1 0x20 SWAP2 DUP4 SWAP2 PUSH1 0x44 SWAP2 DUP4 SWAP2 DUP16 AND GAS CALL DUP1 ISZERO PUSH2 0x598 JUMPI PUSH2 0x173E JUMPI JUMPDEST POP PUSH1 0x7 SLOAD PUSH1 0x40 MLOAD PUSH4 0x95EA7B3 PUSH1 0xE0 SHL DUP2 MSTORE PUSH1 0x1 PUSH1 0x1 PUSH1 0xA0 SHL SUB SWAP1 SWAP2 AND PUSH1 0x4 DUP3 ADD MSTORE PUSH1 0x24 DUP2 ADD DUP10 SWAP1 MSTORE PUSH1 0x20 DUP2 DUP12 DUP2 PUSH1 0x0 DUP2 PUSH1 0x44 DUP2 ADD SUB SWAP3 PUSH1 0x1 PUSH1 0x1 PUSH1 0xA0 SHL SUB AND GAS CALL DUP1 ISZERO PUSH2 0x598 JUMPI PUSH2 0x1705 JUMPI JUMPDEST POP PUSH1 0x1 PUSH1 0x1 PUSH1 0xA0 SHL SUB DUP8 DUP2 AND SWAP1 DUP11 AND LT ISZERO PUSH2 0x16FE JUMPI DUP8 JUMPDEST PUSH1 0x1 PUSH1 0x1 PUSH1 0xA0 SHL SUB DUP9 DUP2 AND SWAP1 DUP12 AND LT ISZERO PUSH2 0x16F7 JUMPI PUSH1 0x0 SWAP1 JUMPDEST PUSH3 0xFFFFFF PUSH1 0x7 SLOAD PUSH1 0xA0 SHR AND SWAP6 PUSH2 0xE10 TIMESTAMP ADD TIMESTAMP GT PUSH2 0x16E1 JUMPI PUSH1 0x40 MLOAD SWAP4 DUP5 PUSH2 0x160 DUP2 ADD LT PUSH8 0xFFFFFFFFFFFFFFFF PUSH2 0x160 DUP8 ADD GT OR PUSH2 0x16CB JUMPI PUSH2 0x160 DUP6 ADD PUSH1 0x40 SWAP1 DUP2 MSTORE PUSH1 0x1 PUSH1 0x1 PUSH1 0xA0 SHL SUB SWAP7 DUP8 AND DUP7 MSTORE SWAP7 DUP7 AND PUSH1 0x20 DUP7 ADD SWAP1 DUP2 MSTORE DUP8 DUP7 ADD SWAP9 DUP10 MSTORE PUSH1 0x2 SWAP2 DUP3 SIGNEXTEND PUSH1 0x60 DUP8 ADD SWAP1 DUP2 MSTORE SWAP3 DUP3 SIGNEXTEND PUSH1 0x80 DUP8 DUP2 ADD SWAP2 DUP3 MSTORE PUSH1 0xA0 DUP9 ADD SWAP6 DUP7 MSTORE PUSH1 0xC0 DUP9 ADD SWAP7 DUP8 MSTORE PUSH1 0x0 PUSH1 0xE0 DUP10 ADD DUP2 DUP2 MSTORE PUSH2 0x100 DUP11 ADD DUP3 DUP2 MSTORE ADDRESS PUSH2 0x120 DUP13 ADD SWAP1 DUP2 MSTORE TIMESTAMP PUSH2 0xE10 ADD PUSH2 0x140 DUP14 ADD SWAP1 DUP2 MSTORE SWAP14 MLOAD PUSH4 0x4418B22B PUSH1 0xE1 SHL DUP2 MSTORE SWAP12 MLOAD DUP14 AND PUSH1 0x4 DUP14 ADD MSTORE SWAP6 MLOAD DUP13 AND PUSH1 0x24 DUP13 ADD MSTORE SWAP13 MLOAD PUSH3 0xFFFFFF AND PUSH1 0x44 DUP12 ADD MSTORE SWAP6 MLOAD DUP6 SIGNEXTEND PUSH1 0x64 DUP11 ADD MSTORE SWAP2 MLOAD SWAP1 SWAP4 SIGNEXTEND PUSH1 0x84 DUP9 ADD MSTORE SWAP4 MLOAD PUSH1 0xA4 DUP8 ADD MSTORE SWAP4 MLOAD PUSH1 0xC4 DUP7 ADD MSTORE SWAP1 MLOAD PUSH1 0xE4 DUP6 ADD MSTORE SWAP6 MLOAD PUSH2 0x104 DUP5 ADD MSTORE SWAP1 MLOAD DUP4 AND PUSH2 0x124 DUP4 ADD MSTORE SWAP3 MLOAD PUSH2 0x144 DUP3 ADD MSTORE SWAP4 DUP5 SWAP3 PUSH2 0x164 SWAP3 DUP5 SWAP3 AND GAS CALL DUP1 ISZERO PUSH2 0x598 JUMPI PUSH1 0x0 SWAP6 PUSH1 0x0 SWAP5 PUSH1 0x0 SWAP4 PUSH1 0x0 SWAP4 PUSH2 0x165D JUMPI JUMPDEST POP PUSH32 0x5CFC9EA0E95E86463D8DACD6C53993376A8AFAB5437E80A8A98D57D7A8B0F234 SWAP7 PUSH1 0x80 SWAP7 SWAP1 SWAP6 PUSH1 0x1 PUSH1 0x1 PUSH1 0x80 SHL SUB SWAP6 SWAP2 SWAP5 SWAP1 SWAP4 SWAP2 SWAP3 SWAP1 SWAP2 PUSH1 0x1 PUSH1 0x1 PUSH1 0xA0 SHL SUB SWAP2 DUP3 AND SWAP2 AND LT ISZERO PUSH2 0x1654 JUMPI POP DUP1 SWAP5 JUMPDEST DUP2 DUP2 GT PUSH2 0x163A JUMPI JUMPDEST POP POP PUSH1 0x7 DUP1 SLOAD PUSH3 0xFFFFFF PUSH1 0xC8 SHL NOT AND PUSH3 0x10101 PUSH1 0xC8 SHL OR SWAP1 SSTORE PUSH1 0x8 DUP1 SLOAD PUSH1 0x1 PUSH1 0x1 PUSH1 0xA0 SHL SUB NOT AND PUSH1 0x1 PUSH1 0x1 PUSH1 0xA0 SHL SUB SWAP3 SWAP1 SWAP3 AND SWAP2 DUP3 OR SWAP1 SSTORE PUSH1 0x9 SWAP7 SWAP1 SWAP7 SSTORE PUSH1 0x40 DUP1 MLOAD SWAP4 DUP5 MSTORE PUSH1 0x0 PUSH1 0x20 DUP6 ADD MSTORE SWAP2 AND SWAP1 DUP3 ADD MSTORE TIMESTAMP PUSH1 0x60 DUP3 ADD MSTORE LOG2 PUSH2 0x160F PUSH2 0x2B46 JUMP JUMPDEST SWAP1 POP PUSH1 0x4 SLOAD DUP2 LT ISZERO PUSH2 0x162B JUMPI JUMPDEST PUSH1 0x7 DUP1 SLOAD PUSH1 0xFF PUSH1 0xE0 SHL NOT AND SWAP1 SSTORE STOP JUMPDEST PUSH2 0x1634 SWAP1 PUSH2 0x2237 JUMP JUMPDEST DUP1 PUSH2 0x161C JUMP JUMPDEST PUSH2 0x164C SWAP2 PUSH2 0x1647 SWAP2 PUSH2 0x1C43 JUMP JUMPDEST PUSH2 0x2664 JUMP JUMPDEST POP DUP4 DUP9 PUSH2 0x15AE JUMP JUMPDEST SWAP1 POP DUP1 SWAP5 PUSH2 0x15A6 JUMP JUMPDEST SWAP7 SWAP5 SWAP8 POP SWAP5 POP SWAP2 POP POP PUSH1 0x80 DUP5 RETURNDATASIZE PUSH1 0x80 GT PUSH2 0x16C3 JUMPI JUMPDEST DUP2 PUSH2 0x167F PUSH1 0x80 SWAP4 DUP4 PUSH2 0x1D0D JUMP JUMPDEST DUP2 ADD SUB SLT PUSH2 0x1C5 JUMPI DUP4 MLOAD SWAP4 PUSH1 0x20 DUP2 ADD MLOAD SWAP6 PUSH1 0x1 PUSH1 0x1 PUSH1 0x80 SHL SUB DUP8 AND DUP8 SUB PUSH2 0x1C5 JUMPI PUSH1 0x40 DUP3 ADD MLOAD PUSH1 0x60 SWAP1 SWAP3 ADD MLOAD SWAP6 SWAP7 SWAP4 SWAP6 SWAP4 SWAP5 SWAP1 SWAP4 SWAP2 SWAP3 SWAP1 PUSH1 0x1 PUSH1 0x1 PUSH1 0x80 SHL SUB PUSH2 0x1556 JUMP JUMPDEST RETURNDATASIZE SWAP2 POP PUSH2 0x1672 JUMP JUMPDEST PUSH4 0x4E487B71 PUSH1 0xE0 SHL PUSH1 0x0 MSTORE PUSH1 0x41 PUSH1 0x4 MSTORE PUSH1 0x24 PUSH1 0x0 REVERT JUMPDEST PUSH4 0x4E487B71 PUSH1 0xE0 SHL PUSH1 0x0 MSTORE PUSH1 0x11 PUSH1 0x4 MSTORE PUSH1 0x24 PUSH1 0x0 REVERT JUMPDEST DUP9 SWAP1 PUSH2 0x141E JUMP JUMPDEST PUSH1 0x0 PUSH2 0x1406 JUMP JUMPDEST PUSH1 0x20 DUP2 RETURNDATASIZE PUSH1 0x20 GT PUSH2 0x1736 JUMPI JUMPDEST DUP2 PUSH2 0x171E PUSH1 0x20 SWAP4 DUP4 PUSH2 0x1D0D JUMP JUMPDEST DUP2 ADD SUB SLT PUSH2 0x1C5 JUMPI PUSH2 0x172F SWAP1 PUSH2 0x1E54 JUMP JUMPDEST POP DUP10 PUSH2 0x13EF JUMP JUMPDEST RETURNDATASIZE SWAP2 POP PUSH2 0x1711 JUMP JUMPDEST PUSH1 0x20 DUP2 RETURNDATASIZE PUSH1 0x20 GT PUSH2 0x176F JUMPI JUMPDEST DUP2 PUSH2 0x1757 PUSH1 0x20 SWAP4 DUP4 PUSH2 0x1D0D JUMP JUMPDEST DUP2 ADD SUB SLT PUSH2 0x1C5 JUMPI PUSH2 0x1768 SWAP1 PUSH2 0x1E54 JUMP JUMPDEST POP DUP10 PUSH2 0x13A3 JUMP JUMPDEST RETURNDATASIZE SWAP2 POP PUSH2 0x174A JUMP JUMPDEST PUSH2 0x179A SWAP2 SWAP7 POP PUSH1 0x20 RETURNDATASIZE PUSH1 0x20 GT PUSH2 0x17A1 JUMPI JUMPDEST PUSH2 0x1792 DUP2 DUP4 PUSH2 0x1D0D JUMP JUMPDEST DUP2 ADD SWAP1 PUSH2 0x1F68 JUMP JUMPDEST SWAP5 DUP10 PUSH2 0x135E JUMP JUMPDEST POP RETURNDATASIZE PUSH2 0x1788 JUMP JUMPDEST PUSH3 0x33900 SWAP4 PUSH2 0x1300 JUMP JUMPDEST PUSH3 0xD899F NOT PUSH2 0x12E6 JUMP JUMPDEST PUSH14 0x968CC63F21ED04D38C2AB4825F90 SWAP2 PUSH2 0x12CC JUMP JUMPDEST DUP6 PUSH2 0x12AA JUMP JUMPDEST DUP3 PUSH2 0x1294 JUMP JUMPDEST PUSH2 0x17F7 SWAP2 SWAP3 POP PUSH1 0x20 RETURNDATASIZE PUSH1 0x20 GT PUSH2 0x17A1 JUMPI PUSH2 0x1792 DUP2 DUP4 PUSH2 0x1D0D JUMP JUMPDEST SWAP1 DUP5 PUSH2 0x125B JUMP JUMPDEST PUSH1 0x40 MLOAD PUSH3 0x461BCD PUSH1 0xE5 SHL DUP2 MSTORE PUSH1 0x20 PUSH1 0x4 DUP3 ADD MSTORE PUSH1 0x12 PUSH1 0x24 DUP3 ADD MSTORE PUSH18 0x1D8CC81B585B9859D95C881B9BDD081CD95D PUSH1 0x72 SHL PUSH1 0x44 DUP3 ADD MSTORE PUSH1 0x64 SWAP1 REVERT JUMPDEST PUSH1 0x40 MLOAD PUSH3 0x461BCD PUSH1 0xE5 SHL DUP2 MSTORE PUSH1 0x20 PUSH1 0x4 DUP3 ADD MSTORE PUSH1 0x19 PUSH1 0x24 DUP3 ADD MSTORE PUSH32 0x6574682072657365727665206E6F7420737570706F7274656400000000000000 PUSH1 0x44 DUP3 ADD MSTORE PUSH1 0x64 SWAP1 REVERT JUMPDEST PUSH1 0x4 CALLDATALOAD SWAP1 PUSH1 0x1 PUSH1 0x1 PUSH1 0xA0 SHL SUB DUP3 AND DUP3 SUB PUSH2 0x1C5 JUMPI JUMP JUMPDEST ISZERO PUSH2 0x189A JUMPI JUMP JUMPDEST PUSH1 0x40 MLOAD PUSH3 0x461BCD PUSH1 0xE5 SHL DUP2 MSTORE PUSH1 0x20 PUSH1 0x4 DUP3 ADD MSTORE PUSH1 0xC PUSH1 0x24 DUP3 ADD MSTORE PUSH12 0x6F6E6C7920666163746F7279 PUSH1 0xA0 SHL PUSH1 0x44 DUP3 ADD MSTORE PUSH1 0x64 SWAP1 REVERT JUMPDEST ISZERO PUSH2 0x18D5 JUMPI JUMP JUMPDEST PUSH1 0x40 MLOAD PUSH3 0x461BCD PUSH1 0xE5 SHL DUP2 MSTORE PUSH1 0x20 PUSH1 0x4 DUP3 ADD MSTORE PUSH1 0xA PUSH1 0x24 DUP3 ADD MSTORE PUSH10 0x7265656E7472616E6379 PUSH1 0xB0 SHL PUSH1 0x44 DUP3 ADD MSTORE PUSH1 0x64 SWAP1 REVERT JUMPDEST ISZERO PUSH2 0x190E JUMPI JUMP JUMPDEST PUSH1 0x40 MLOAD PUSH3 0x461BCD PUSH1 0xE5 SHL DUP2 MSTORE PUSH1 0x20 PUSH1 0x4 DUP3 ADD MSTORE PUSH1 0xF PUSH1 0x24 DUP3 ADD MSTORE PUSH15 0x1C1BDBDB081B9BDD081CD959591959 PUSH1 0x8A SHL PUSH1 0x44 DUP3 ADD MSTORE PUSH1 0x64 SWAP1 REVERT JUMPDEST ISZERO PUSH2 0x194C JUMPI JUMP JUMPDEST PUSH1 0x40 MLOAD PUSH3 0x461BCD PUSH1 0xE5 SHL DUP2 MSTORE PUSH1 0x20 PUSH1 0x4 DUP3 ADD MSTORE PUSH1 0x11 PUSH1 0x24 DUP3 ADD MSTORE PUSH17 0x185B1C9958591E4819DC98591D585D1959 PUSH1 0x7A SHL PUSH1 0x44 DUP3 ADD MSTORE PUSH1 0x64 SWAP1 REVERT JUMPDEST ISZERO PUSH2 0x198C JUMPI JUMP JUMPDEST PUSH1 0x40 MLOAD PUSH3 0x461BCD PUSH1 0xE5 SHL DUP2 MSTORE PUSH1 0x20 PUSH1 0x4 DUP3 ADD MSTORE PUSH1 0xE PUSH1 0x24 DUP3 ADD MSTORE PUSH14 0x646578206375727665206C697665 PUSH1 0x90 SHL PUSH1 0x44 DUP3 ADD MSTORE PUSH1 0x64 SWAP1 REVERT JUMPDEST ISZERO PUSH2 0x19C9 JUMPI JUMP JUMPDEST PUSH1 0x40 MLOAD PUSH3 0x461BCD PUSH1 0xE5 SHL DUP2 MSTORE PUSH1 0x20 PUSH1 0x4 DUP3 ADD MSTORE PUSH1 0xE PUSH1 0x24 DUP3 ADD MSTORE PUSH14 0x6E6F206574682072657365727665 PUSH1 0x90 SHL PUSH1 0x44 DUP3 ADD MSTORE PUSH1 0x64 SWAP1 REVERT JUMPDEST DUP2 DUP2 MUL SWAP3 SWAP2 DUP2 ISZERO SWAP2 DUP5 DIV EQ OR ISZERO PUSH2 0x16E1 JUMPI JUMP JUMPDEST DUP2 ISZERO PUSH2 0x1A1C JUMPI DIV SWAP1 JUMP JUMPDEST PUSH4 0x4E487B71 PUSH1 0xE0 SHL PUSH1 0x0 MSTORE PUSH1 0x12 PUSH1 0x4 MSTORE PUSH1 0x24 PUSH1 0x0 REVERT JUMPDEST PUSH1 0x4 SLOAD DUP1 ISZERO PUSH2 0x1ABD JUMPI PUSH1 0x7 SLOAD PUSH1 0xFF DUP2 PUSH1 0xC8 SHR AND SWAP1 DUP2 ISZERO PUSH2 0x1A95 JUMPI JUMPDEST POP ISZERO PUSH2 0x1A8D JUMPI PUSH2 0x1A5B PUSH2 0x2B46 JUMP JUMPDEST SWAP1 POP JUMPDEST PUSH2 0x2710 SWAP2 DUP3 DUP3 MUL SWAP2 DUP1 DUP4 DIV DUP5 EQ SWAP1 ISZERO OR ISZERO PUSH2 0x16E1 JUMPI PUSH2 0x1A7C SWAP2 PUSH2 0x1A12 JUMP JUMPDEST SWAP1 DUP1 DUP3 GT PUSH2 0x1A88 JUMPI POP SWAP1 JUMP JUMPDEST SWAP1 POP SWAP1 JUMP JUMPDEST PUSH1 0x2 SLOAD PUSH2 0x1A5E JUMP JUMPDEST PUSH1 0xFF SWAP2 POP PUSH1 0xC0 SHR AND DUP1 PUSH2 0x1AA9 JUMPI JUMPDEST CODESIZE PUSH2 0x1A4D JUMP JUMPDEST POP PUSH1 0x8 SLOAD PUSH1 0x1 PUSH1 0x1 PUSH1 0xA0 SHL SUB AND ISZERO ISZERO PUSH2 0x1AA3 JUMP JUMPDEST POP PUSH1 0x0 SWAP1 JUMP JUMPDEST SWAP2 SWAP1 DUP3 ADD DUP1 SWAP3 GT PUSH2 0x16E1 JUMPI JUMP JUMPDEST PUSH1 0x7 SLOAD PUSH1 0xFF DUP2 PUSH1 0xC8 SHR AND SWAP1 DUP2 ISZERO PUSH2 0x1B90 JUMPI JUMPDEST POP DUP1 PUSH2 0x1B7C JUMPI JUMPDEST PUSH2 0x1B74 JUMPI PUSH2 0x1B1A PUSH1 0x3 SLOAD PUSH32 0x0 SWAP1 PUSH2 0x1AC3 JUMP JUMPDEST DUP1 ISZERO PUSH2 0x1ABD JUMPI PUSH2 0x1B4D PUSH1 0x2 SLOAD PUSH32 0x0 SWAP1 PUSH2 0x1AC3 JUMP JUMPDEST SWAP1 PUSH8 0xDE0B6B3A7640000 SWAP2 DUP3 DUP2 MUL SWAP3 DUP2 DUP5 DIV EQ SWAP1 ISZERO OR ISZERO PUSH2 0x16E1 JUMPI PUSH2 0x1B71 SWAP2 PUSH2 0x1A12 JUMP JUMPDEST SWAP1 JUMP JUMPDEST PUSH2 0x1B71 PUSH2 0x2036 JUMP JUMPDEST POP PUSH1 0x8 SLOAD PUSH1 0x1 PUSH1 0x1 PUSH1 0xA0 SHL SUB AND ISZERO ISZERO PUSH2 0x1AE9 JUMP JUMPDEST PUSH1 0xFF SWAP2 POP PUSH1 0xC0 SHR AND CODESIZE PUSH2 0x1AE2 JUMP JUMPDEST ISZERO PUSH2 0x1BA5 JUMPI JUMP JUMPDEST PUSH1 0x40 MLOAD PUSH3 0x461BCD PUSH1 0xE5 SHL DUP2 MSTORE PUSH1 0x20 PUSH1 0x4 DUP3 ADD MSTORE PUSH1 0x12 PUSH1 0x24 DUP3 ADD MSTORE PUSH18 0x1D185C99D95D081B9BDD081C995858DA1959 PUSH1 0x72 SHL PUSH1 0x44 DUP3 ADD MSTORE PUSH1 0x64 SWAP1 REVERT JUMPDEST PUSH1 0xFF PUSH1 0x7 SLOAD PUSH2 0x1BF2 DUP3 DUP3 PUSH1 0xB8 SHR AND PUSH2 0x1907 JUMP JUMPDEST PUSH2 0x1C01 DUP3 DUP3 PUSH1 0xC0 SHR AND ISZERO PUSH2 0x1945 JUMP JUMPDEST PUSH1 0xC8 SHR AND PUSH2 0x1C23 JUMPI PUSH2 0x1C19 PUSH1 0x2 SLOAD PUSH1 0x4 SLOAD GT ISZERO PUSH2 0x1B9E JUMP JUMPDEST PUSH2 0x1C21 PUSH2 0x1F87 JUMP JUMPDEST JUMP JUMPDEST PUSH2 0x1C21 PUSH2 0x1C2E PUSH2 0x2B46 JUMP JUMPDEST SWAP1 POP PUSH2 0x1C3E PUSH1 0x4 SLOAD DUP3 LT ISZERO PUSH2 0x1B9E JUMP JUMPDEST PUSH2 0x2237 JUMP JUMPDEST SWAP2 SWAP1 DUP3 SUB SWAP2 DUP3 GT PUSH2 0x16E1 JUMPI JUMP JUMPDEST PUSH1 0x7 SLOAD PUSH1 0xFF DUP2 PUSH1 0xB8 SHR AND ISZERO SWAP1 DUP2 ISZERO PUSH2 0x1CBA JUMPI JUMPDEST DUP2 ISZERO PUSH2 0x1CAC JUMPI JUMPDEST POP DUP1 ISZERO PUSH2 0x1CA4 JUMPI JUMPDEST PUSH2 0x1C9B JUMPI PUSH2 0x1C98 PUSH2 0x1C93 PUSH2 0x2710 PUSH2 0x1C8B PUSH1 0x1 SLOAD DUP6 PUSH2 0x19FF JUMP JUMPDEST DIV DUP1 SWAP4 PUSH2 0x1C43 JUMP JUMPDEST PUSH2 0x252F JUMP JUMPDEST SWAP2 JUMP JUMPDEST POP PUSH1 0x0 SWAP1 PUSH1 0x0 SWAP1 JUMP JUMPDEST POP DUP1 ISZERO PUSH2 0x1C72 JUMP JUMPDEST PUSH1 0xFF SWAP2 POP PUSH1 0xC8 SHR AND CODESIZE PUSH2 0x1C6A JUMP JUMPDEST SWAP1 POP PUSH1 0xFF DUP2 PUSH1 0xC0 SHR AND SWAP1 PUSH2 0x1C63 JUMP JUMPDEST ISZERO PUSH2 0x1CD0 JUMPI JUMP JUMPDEST PUSH1 0x40 MLOAD PUSH3 0x461BCD PUSH1 0xE5 SHL DUP2 MSTORE PUSH1 0x20 PUSH1 0x4 DUP3 ADD MSTORE PUSH1 0x15 PUSH1 0x24 DUP3 ADD MSTORE PUSH21 0x1D1BDAD95B88185B5BDD5B9D081C995C5D5A5C9959 PUSH1 0x5A SHL PUSH1 0x44 DUP3 ADD MSTORE PUSH1 0x64 SWAP1 REVERT JUMPDEST SWAP1 PUSH1 0x1F DUP1 NOT SWAP2 ADD AND DUP2 ADD SWAP1 DUP2 LT PUSH8 0xFFFFFFFFFFFFFFFF DUP3 GT OR PUSH2 0x16CB JUMPI PUSH1 0x40 MSTORE JUMP JUMPDEST PUSH1 0x7 SLOAD PUSH1 0xFF DUP2 PUSH1 0xB8 SHR AND ISZERO SWAP1 DUP2 ISZERO PUSH2 0x1D94 JUMPI JUMPDEST DUP2 ISZERO PUSH2 0x1D86 JUMPI JUMPDEST POP DUP1 ISZERO PUSH2 0x1D7E JUMPI JUMPDEST PUSH2 0x1C9B JUMPI PUSH2 0x1D5E SWAP1 PUSH2 0x25BF JUMP JUMPDEST DUP1 ISZERO PUSH2 0x1C9B JUMPI PUSH2 0x1C98 PUSH2 0x2710 PUSH2 0x1D76 PUSH1 0x1 SLOAD DUP5 PUSH2 0x19FF JUMP JUMPDEST DIV DUP1 SWAP3 PUSH2 0x1C43 JUMP JUMPDEST POP DUP1 ISZERO PUSH2 0x1D51 JUMP JUMPDEST PUSH1 0xFF SWAP2 POP PUSH1 0xC8 SHR AND CODESIZE PUSH2 0x1D49 JUMP JUMPDEST SWAP1 POP PUSH1 0xFF DUP2 PUSH1 0xC0 SHR AND SWAP1 PUSH2 0x1D42 JUMP JUMPDEST ISZERO PUSH2 0x1DAA JUMPI JUMP JUMPDEST PUSH1 0x40 MLOAD PUSH3 0x461BCD PUSH1 0xE5 SHL DUP2 MSTORE PUSH1 0x20 PUSH1 0x4 DUP3 ADD MSTORE PUSH1 0x9 PUSH1 0x24 DUP3 ADD MSTORE PUSH9 0x19DC98591D585D1959 PUSH1 0xBA SHL PUSH1 0x44 DUP3 ADD MSTORE PUSH1 0x64 SWAP1 REVERT JUMPDEST ISZERO PUSH2 0x1DE2 JUMPI JUMP JUMPDEST PUSH1 0x40 MLOAD PUSH3 0x461BCD PUSH1 0xE5 SHL DUP2 MSTORE PUSH1 0x20 PUSH1 0x4 DUP3 ADD MSTORE PUSH1 0x13 PUSH1 0x24 DUP3 ADD MSTORE PUSH19 0x1A5B9CDD59999A58DA595B9D081BDD5D1C1D5D PUSH1 0x6A SHL PUSH1 0x44 DUP3 ADD MSTORE PUSH1 0x64 SWAP1 REVERT JUMPDEST ISZERO PUSH2 0x1E24 JUMPI JUMP JUMPDEST PUSH1 0x40 MLOAD PUSH3 0x461BCD PUSH1 0xE5 SHL DUP2 MSTORE PUSH1 0x20 PUSH1 0x4 DUP3 ADD MSTORE PUSH1 0x8 PUSH1 0x24 DUP3 ADD MSTORE PUSH8 0x736C697070616765 PUSH1 0xC0 SHL PUSH1 0x44 DUP3 ADD MSTORE PUSH1 0x64 SWAP1 REVERT JUMPDEST MLOAD SWAP1 DUP2 ISZERO ISZERO DUP3 SUB PUSH2 0x1C5 JUMPI JUMP JUMPDEST ISZERO PUSH2 0x1E68 JUMPI JUMP JUMPDEST PUSH1 0x40 MLOAD PUSH3 0x461BCD PUSH1 0xE5 SHL DUP2 MSTORE PUSH1 0x20 PUSH1 0x4 DUP3 ADD MSTORE PUSH1 0x15 PUSH1 0x24 DUP3 ADD MSTORE PUSH21 0x1D1BDAD95B881D1C985B9CD9995C8819985A5B1959 PUSH1 0x5A SHL PUSH1 0x44 DUP3 ADD MSTORE PUSH1 0x64 SWAP1 REVERT JUMPDEST RETURNDATASIZE ISZERO PUSH2 0x1EE0 JUMPI RETURNDATASIZE SWAP1 PUSH8 0xFFFFFFFFFFFFFFFF DUP3 GT PUSH2 0x16CB JUMPI PUSH1 0x40 MLOAD SWAP2 PUSH2 0x1ED4 PUSH1 0x1F DUP3 ADD PUSH1 0x1F NOT AND PUSH1 0x20 ADD DUP5 PUSH2 0x1D0D JUMP JUMPDEST DUP3 MSTORE RETURNDATASIZE PUSH1 0x0 PUSH1 0x20 DUP5 ADD RETURNDATACOPY JUMP JUMPDEST PUSH1 0x60 SWAP1 JUMP JUMPDEST ISZERO PUSH2 0x1EEC JUMPI JUMP JUMPDEST PUSH1 0x40 MLOAD PUSH3 0x461BCD PUSH1 0xE5 SHL DUP2 MSTORE PUSH1 0x20 PUSH1 0x4 DUP3 ADD MSTORE PUSH1 0x13 PUSH1 0x24 DUP3 ADD MSTORE PUSH19 0x199959481D1C985B9CD9995C8819985A5B1959 PUSH1 0x6A SHL PUSH1 0x44 DUP3 ADD MSTORE PUSH1 0x64 SWAP1 REVERT JUMPDEST ISZERO PUSH2 0x1F2E JUMPI JUMP JUMPDEST PUSH1 0x40 MLOAD PUSH3 0x461BCD PUSH1 0xE5 SHL DUP2 MSTORE PUSH1 0x20 PUSH1 0x4 DUP3 ADD MSTORE PUSH1 0x12 PUSH1 0x24 DUP3 ADD MSTORE PUSH18 0x19195E081C9BDD5D195C881B9BDD081CD95D PUSH1 0x72 SHL PUSH1 0x44 DUP3 ADD MSTORE PUSH1 0x64 SWAP1 REVERT JUMPDEST SWAP1 DUP2 PUSH1 0x20 SWAP2 SUB SLT PUSH2 0x1C5 JUMPI MLOAD PUSH1 0x1 PUSH1 0x1 PUSH1 0xA0 SHL SUB DUP2 AND DUP2 SUB PUSH2 0x1C5 JUMPI SWAP1 JUMP JUMPDEST PUSH2 0x2022 PUSH32 0x71AA8C3702DBBC54247A4E6446450E64A46250DD72707A247DDB01D72EAEF445 PUSH1 0x1 DUP1 PUSH1 0xA0 SHL SUB PUSH2 0x1FC1 DUP2 PUSH1 0x5 SLOAD AND ISZERO ISZERO PUSH2 0x1F27 JUMP JUMPDEST PUSH1 0x7 DUP1 SLOAD PUSH1 0xFF PUSH1 0xC0 SHL NOT AND PUSH1 0x1 PUSH1 0xC0 SHL OR SWAP1 SSTORE TIMESTAMP PUSH1 0xA SSTORE PUSH1 0x6 SLOAD PUSH2 0x1FE6 SWAP1 DUP3 AND PUSH2 0x273D JUMP JUMPDEST POP PUSH1 0x8 DUP1 SLOAD PUSH1 0x1 PUSH1 0x1 PUSH1 0xA0 SHL SUB NOT AND SWAP6 SWAP1 SWAP2 AND SWAP5 DUP6 OR SWAP1 SSTORE PUSH1 0x40 DUP1 MLOAD SWAP4 DUP5 MSTORE PUSH1 0x20 DUP5 ADD SWAP3 SWAP1 SWAP3 MSTORE SWAP1 DUP3 ADD MSTORE TIMESTAMP PUSH1 0x60 DUP3 ADD MSTORE SWAP1 SWAP3 DUP2 SWAP1 PUSH1 0x80 DUP3 ADD SWAP1 JUMP JUMPDEST SUB SWAP1 LOG2 JUMP JUMPDEST MLOAD SWAP1 PUSH2 0xFFFF DUP3 AND DUP3 SUB PUSH2 0x1C5 JUMPI JUMP JUMPDEST PUSH1 0x7 SLOAD PUSH1 0xFF DUP2 PUSH1 0xD8 SHR AND DUP1 PUSH2 0x2223 JUMPI JUMPDEST PUSH2 0x2093 JUMPI POP PUSH2 0x2053 PUSH2 0x2B46 JUMP JUMPDEST SWAP1 DUP1 ISZERO DUP1 ISZERO PUSH2 0x208B JUMPI JUMPDEST PUSH2 0x2084 JUMPI PUSH8 0xDE0B6B3A7640000 SWAP2 DUP3 DUP2 MUL SWAP3 DUP2 DUP5 DIV EQ SWAP1 ISZERO OR ISZERO PUSH2 0x16E1 JUMPI PUSH2 0x1B71 SWAP2 PUSH2 0x1A12 JUMP JUMPDEST POP POP PUSH1 0x0 SWAP1 JUMP JUMPDEST POP DUP2 ISZERO PUSH2 0x205D JUMP JUMPDEST PUSH1 0x8 SLOAD PUSH1 0x40 MLOAD PUSH4 0x3850C7BD PUSH1 0xE0 SHL DUP2 MSTORE PUSH1 0x1 PUSH1 0x1 PUSH1 0xA0 SHL SUB SWAP2 PUSH1 0xE0 SWAP1 DUP3 SWAP1 PUSH1 0x4 SWAP1 DUP3 SWAP1 DUP7 AND GAS STATICCALL DUP1 ISZERO PUSH2 0x598 JUMPI DUP3 SWAP2 PUSH1 0x0 SWAP2 PUSH2 0x218B JUMPI JUMPDEST POP AND DUP1 ISZERO PUSH2 0x2183 JUMPI PUSH1 0x20 PUSH2 0x20DF DUP3 DUP5 SWAP4 PUSH2 0x19FF JUMP JUMPDEST SWAP4 PUSH1 0x4 PUSH1 0x40 MLOAD DUP1 SWAP5 DUP2 SWAP4 PUSH4 0x12A9293F PUSH1 0xE2 SHL DUP4 MSTORE AND GAS STATICCALL DUP1 ISZERO PUSH2 0x598 JUMPI DUP3 SWAP2 PUSH1 0x0 SWAP2 PUSH2 0x2164 JUMPI JUMPDEST POP AND SWAP1 PUSH32 0x0 AND LT PUSH2 0x2144 JUMPI DUP1 ISZERO PUSH2 0x1A1C JUMPI PUSH6 0x3782DACE9D9 PUSH1 0xD2 SHL DIV SWAP1 JUMP JUMPDEST PUSH8 0xDE0B6B3A7640000 SWAP1 DUP2 DUP2 MUL SWAP2 DUP2 DUP4 DIV EQ SWAP1 ISZERO OR ISZERO PUSH2 0x16E1 JUMPI PUSH1 0xC0 SHR SWAP1 JUMP JUMPDEST PUSH2 0x217D SWAP2 POP PUSH1 0x20 RETURNDATASIZE PUSH1 0x20 GT PUSH2 0x17A1 JUMPI PUSH2 0x1792 DUP2 DUP4 PUSH2 0x1D0D JUMP JUMPDEST CODESIZE PUSH2 0x2106 JUMP JUMPDEST POP POP POP PUSH1 0x0 SWAP1 JUMP JUMPDEST SWAP1 SWAP2 POP PUSH1 0xE0 DUP2 RETURNDATASIZE PUSH1 0xE0 GT PUSH2 0x221B JUMPI JUMPDEST DUP2 PUSH2 0x21A7 PUSH1 0xE0 SWAP4 DUP4 PUSH2 0x1D0D JUMP JUMPDEST DUP2 ADD SUB SLT PUSH2 0x2217 JUMPI DUP1 MLOAD SWAP2 DUP4 DUP4 AND DUP4 SUB PUSH2 0x2214 JUMPI PUSH1 0x20 DUP3 ADD MLOAD DUP1 PUSH1 0x2 SIGNEXTEND SUB PUSH2 0x2214 JUMPI PUSH2 0x21D5 PUSH1 0x40 DUP4 ADD PUSH2 0x2027 JUMP JUMPDEST POP PUSH2 0x21E2 PUSH1 0x60 DUP4 ADD PUSH2 0x2027 JUMP JUMPDEST POP PUSH2 0x21EF PUSH1 0x80 DUP4 ADD PUSH2 0x2027 JUMP JUMPDEST POP PUSH1 0xA0 DUP3 ADD MLOAD PUSH1 0xFF DUP2 AND SUB PUSH2 0x2214 JUMPI POP SWAP1 PUSH2 0x220D PUSH1 0xC0 DUP5 SWAP4 ADD PUSH2 0x1E54 JUMP JUMPDEST POP CODESIZE PUSH2 0x20CA JUMP JUMPDEST DUP1 REVERT JUMPDEST POP DUP1 REVERT JUMPDEST RETURNDATASIZE SWAP2 POP PUSH2 0x219A JUMP JUMPDEST POP PUSH1 0x8 SLOAD PUSH1 0x1 PUSH1 0x1 PUSH1 0xA0 SHL SUB AND ISZERO ISZERO PUSH2 0x2046 JUMP JUMPDEST PUSH1 0x7 SLOAD PUSH1 0x0 PUSH1 0xFF DUP3 PUSH1 0xC8 SHR AND ISZERO PUSH2 0x24F5 JUMPI PUSH1 0x8 SLOAD PUSH1 0x1 PUSH1 0x1 PUSH1 0xA0 SHL SUB SWAP2 SWAP1 DUP3 AND SWAP1 DUP2 ISZERO PUSH2 0x24C1 JUMPI PUSH2 0xFFFF PUSH1 0xC0 SHL NOT DUP5 AND PUSH1 0x1 PUSH1 0xC0 SHL OR PUSH1 0x7 DUP2 SWAP1 SSTORE TIMESTAMP PUSH1 0xA SSTORE PUSH1 0xD0 SHR PUSH1 0xFF AND SWAP2 DUP3 ISZERO PUSH2 0x2458 JUMPI POP DUP3 PUSH1 0x9 SLOAD SWAP5 DUP6 PUSH2 0x23D5 JUMPI JUMPDEST POP POP PUSH1 0x7 DUP1 SLOAD PUSH1 0xFF PUSH1 0xD0 SHL NOT AND SWAP1 SSTORE SWAP1 JUMPDEST DUP4 ISZERO ISZERO SWAP1 DUP2 PUSH2 0x23CC JUMPI JUMPDEST POP PUSH2 0x2307 JUMPI JUMPDEST POP PUSH32 0x6D6435BD27368EEAA8BEA9975846B4FFC3D4864FAABCEC7E007DC6014F4EA055 SWAP2 PUSH2 0x2022 PUSH2 0x22DE PUSH2 0x2EFC JUMP JUMPDEST PUSH1 0x8 SLOAD PUSH1 0x40 DUP1 MLOAD SWAP8 DUP9 MSTORE PUSH1 0x20 DUP9 ADD SWAP5 SWAP1 SWAP5 MSTORE SWAP3 DUP7 ADD MSTORE TIMESTAMP PUSH1 0x60 DUP7 ADD MSTORE SWAP2 AND SWAP3 SWAP1 DUP2 SWAP1 PUSH1 0x80 DUP3 ADD SWAP1 JUMP JUMPDEST DUP1 PUSH1 0x20 DUP4 PUSH1 0x8 SLOAD AND PUSH1 0x44 PUSH1 0x40 MLOAD DUP1 SWAP5 DUP2 SWAP4 PUSH4 0xA9059CBB PUSH1 0xE0 SHL DUP4 MSTORE PUSH2 0xDEAD PUSH1 0x4 DUP5 ADD MSTORE DUP10 PUSH1 0x24 DUP5 ADD MSTORE GAS CALL SWAP2 DUP3 ISZERO PUSH2 0x23C0 JUMPI DUP1 SWAP3 PUSH2 0x2383 JUMPI JUMPDEST POP POP ISZERO PUSH2 0x234D JUMPI CODESIZE PUSH2 0x22B0 JUMP JUMPDEST PUSH1 0x40 MLOAD PUSH3 0x461BCD PUSH1 0xE5 SHL DUP2 MSTORE PUSH1 0x20 PUSH1 0x4 DUP3 ADD MSTORE PUSH1 0xE PUSH1 0x24 DUP3 ADD MSTORE PUSH14 0x1B1C08189D5C9B8819985A5B1959 PUSH1 0x92 SHL PUSH1 0x44 DUP3 ADD MSTORE PUSH1 0x64 SWAP1 REVERT JUMPDEST SWAP1 SWAP2 POP PUSH1 0x20 DUP3 RETURNDATASIZE PUSH1 0x20 GT PUSH2 0x23B8 JUMPI JUMPDEST DUP2 PUSH2 0x239F PUSH1 0x20 SWAP4 DUP4 PUSH2 0x1D0D JUMP JUMPDEST DUP2 ADD SUB SLT PUSH2 0x2214 JUMPI POP PUSH2 0x23B1 SWAP1 PUSH2 0x1E54 JUMP JUMPDEST CODESIZE DUP1 PUSH2 0x2340 JUMP JUMPDEST RETURNDATASIZE SWAP2 POP PUSH2 0x2392 JUMP JUMPDEST PUSH1 0x40 MLOAD SWAP1 RETURNDATASIZE SWAP1 DUP3 RETURNDATACOPY RETURNDATASIZE SWAP1 REVERT JUMPDEST SWAP1 POP ISZERO CODESIZE PUSH2 0x22AA JUMP JUMPDEST AND DUP1 EXTCODESIZE ISZERO PUSH2 0x2217 JUMPI DUP2 DUP1 SWAP2 PUSH1 0x64 PUSH1 0x40 MLOAD DUP1 SWAP5 DUP2 SWAP4 PUSH4 0x23B872DD PUSH1 0xE0 SHL DUP4 MSTORE ADDRESS PUSH1 0x4 DUP5 ADD MSTORE PUSH2 0xDEAD PUSH1 0x24 DUP5 ADD MSTORE DUP11 PUSH1 0x44 DUP5 ADD MSTORE GAS CALL DUP1 ISZERO PUSH2 0x244D JUMPI PUSH2 0x2421 JUMPI JUMPDEST POP PUSH1 0x9 DUP2 SWAP1 SSTORE DUP3 CODESIZE PUSH2 0x228F JUMP JUMPDEST PUSH8 0xFFFFFFFFFFFFFFFF DUP2 GT PUSH2 0x2439 JUMPI PUSH1 0x40 MSTORE CODESIZE PUSH2 0x2414 JUMP JUMPDEST PUSH4 0x4E487B71 PUSH1 0xE0 SHL DUP3 MSTORE PUSH1 0x41 PUSH1 0x4 MSTORE PUSH1 0x24 DUP3 REVERT JUMPDEST PUSH1 0x40 MLOAD RETURNDATASIZE DUP5 DUP3 RETURNDATACOPY RETURNDATASIZE SWAP1 REVERT JUMPDEST PUSH1 0x24 SWAP2 SWAP3 SWAP5 POP PUSH1 0x20 SWAP1 PUSH1 0x40 MLOAD SWAP3 DUP4 DUP1 SWAP3 PUSH4 0x70A08231 PUSH1 0xE0 SHL DUP3 MSTORE ADDRESS PUSH1 0x4 DUP4 ADD MSTORE GAS STATICCALL SWAP1 DUP2 ISZERO PUSH2 0x244D JUMPI DUP3 SWAP2 PUSH2 0x248F JUMPI JUMPDEST POP SWAP3 PUSH2 0x22A0 JUMP JUMPDEST SWAP1 POP PUSH1 0x20 DUP2 RETURNDATASIZE PUSH1 0x20 GT PUSH2 0x24B9 JUMPI JUMPDEST DUP2 PUSH2 0x24AA PUSH1 0x20 SWAP4 DUP4 PUSH2 0x1D0D JUMP JUMPDEST DUP2 ADD SUB SLT PUSH2 0x2217 JUMPI MLOAD CODESIZE PUSH2 0x2488 JUMP JUMPDEST RETURNDATASIZE SWAP2 POP PUSH2 0x249D JUMP JUMPDEST PUSH1 0x40 MLOAD PUSH3 0x461BCD PUSH1 0xE5 SHL DUP2 MSTORE PUSH1 0x20 PUSH1 0x4 DUP3 ADD MSTORE PUSH1 0xC PUSH1 0x24 DUP3 ADD MSTORE PUSH12 0x1C185A5C881B9BDD081CD95D PUSH1 0xA2 SHL PUSH1 0x44 DUP3 ADD MSTORE PUSH1 0x64 SWAP1 REVERT JUMPDEST PUSH1 0x40 MLOAD PUSH3 0x461BCD PUSH1 0xE5 SHL DUP2 MSTORE PUSH1 0x20 PUSH1 0x4 DUP3 ADD MSTORE PUSH1 0x12 PUSH1 0x24 DUP3 ADD MSTORE PUSH18 0x646578206375727665206E6F74206C697665 PUSH1 0x70 SHL PUSH1 0x44 DUP3 ADD MSTORE PUSH1 0x64 SWAP1 REVERT JUMPDEST DUP1 ISZERO PUSH2 0x1ABD JUMPI PUSH2 0x2562 PUSH1 0x2 SLOAD PUSH32 0x0 SWAP1 PUSH2 0x1AC3 JUMP JUMPDEST SWAP1 PUSH2 0x25AE PUSH1 0x3 SLOAD SWAP3 PUSH2 0x25A8 PUSH2 0x2597 PUSH32 0x0 DUP7 PUSH2 0x1AC3 JUMP JUMPDEST SWAP4 PUSH2 0x25A2 DUP6 DUP5 PUSH2 0x19FF JUMP JUMPDEST SWAP3 PUSH2 0x1AC3 JUMP JUMPDEST SWAP1 PUSH2 0x1A12 JUMP JUMPDEST DUP1 DUP3 GT ISZERO PUSH2 0x2183 JUMPI PUSH2 0x1A7C SWAP2 PUSH2 0x1C43 JUMP JUMPDEST PUSH1 0x2 SLOAD SWAP1 PUSH2 0x25AE PUSH2 0x25F0 PUSH32 0x0 DUP5 PUSH2 0x1AC3 JUMP JUMPDEST SWAP2 PUSH2 0x25A8 PUSH2 0x2621 PUSH1 0x3 SLOAD PUSH32 0x0 SWAP1 PUSH2 0x1AC3 JUMP JUMPDEST SWAP2 PUSH2 0x25A2 DUP4 DUP7 PUSH2 0x19FF JUMP JUMPDEST PUSH1 0x7 SLOAD PUSH1 0xFF DUP2 PUSH1 0xC0 SHR AND SWAP1 DUP2 ISZERO PUSH2 0x2656 JUMPI JUMPDEST POP PUSH2 0x1C21 JUMPI PUSH1 0x2 SLOAD PUSH1 0x4 SLOAD GT PUSH2 0x1C21 JUMPI PUSH2 0x1C21 PUSH2 0x1F87 JUMP JUMPDEST PUSH1 0xFF SWAP2 POP PUSH1 0xC8 SHR AND CODESIZE PUSH2 0x263E JUMP JUMPDEST DUP1 ISZERO PUSH2 0x1ABD JUMPI PUSH1 0x40 MLOAD PUSH4 0x852CD8D PUSH1 0xE3 SHL DUP2 MSTORE PUSH1 0x4 DUP2 ADD DUP3 SWAP1 MSTORE PUSH1 0x20 DUP2 PUSH1 0x24 DUP2 PUSH1 0x0 PUSH32 0x0 PUSH1 0x1 PUSH1 0x1 PUSH1 0xA0 SHL SUB AND GAS CALL SWAP1 DUP2 ISZERO PUSH2 0x598 JUMPI PUSH1 0x0 SWAP2 PUSH2 0x2703 JUMPI JUMPDEST POP ISZERO PUSH2 0x26CA JUMPI SWAP1 JUMP JUMPDEST PUSH1 0x40 MLOAD PUSH3 0x461BCD PUSH1 0xE5 SHL DUP2 MSTORE PUSH1 0x20 PUSH1 0x4 DUP3 ADD MSTORE PUSH1 0x11 PUSH1 0x24 DUP3 ADD MSTORE PUSH17 0x1D1BDAD95B88189D5C9B8819985A5B1959 PUSH1 0x7A SHL PUSH1 0x44 DUP3 ADD MSTORE PUSH1 0x64 SWAP1 REVERT JUMPDEST SWAP1 POP PUSH1 0x20 DUP2 RETURNDATASIZE PUSH1 0x20 GT PUSH2 0x2735 JUMPI JUMPDEST DUP2 PUSH2 0x271E PUSH1 0x20 SWAP4 DUP4 PUSH2 0x1D0D JUMP JUMPDEST DUP2 ADD SUB SLT PUSH2 0x1C5 JUMPI PUSH2 0x272F SWAP1 PUSH2 0x1E54 JUMP JUMPDEST CODESIZE PUSH2 0x26C1 JUMP JUMPDEST RETURNDATASIZE SWAP2 POP PUSH2 0x2711 JUMP JUMPDEST PUSH1 0x0 SWAP2 PUSH1 0x1 PUSH1 0x1 PUSH1 0xA0 SHL SUB SWAP2 DUP3 AND SWAP1 DUP4 DUP3 ISZERO PUSH2 0x2AF6 JUMPI PUSH1 0x3 SLOAD SWAP2 PUSH1 0x2 SLOAD SWAP5 DUP7 PUSH1 0x3 SSTORE DUP7 PUSH1 0x2 SSTORE DUP1 PUSH32 0x0 AND SWAP7 DUP2 PUSH1 0x5 SLOAD AND SWAP2 DUP2 PUSH1 0x40 SWAP2 DUP3 MLOAD PUSH4 0x95EA7B3 PUSH1 0xE0 SHL SWAP1 DUP2 DUP2 MSTORE PUSH1 0x4 SWAP7 DUP8 DUP3 ADD MSTORE DUP4 PUSH1 0x24 DUP3 ADD MSTORE DUP13 DUP2 PUSH1 0x44 DUP2 PUSH1 0x20 SWAP10 DUP11 SWAP5 GAS CALL DUP1 ISZERO PUSH2 0x2AEC JUMPI SWAP2 DUP7 SWAP2 DUP12 SWAP4 PUSH2 0x2AAE JUMPI JUMPDEST POP PUSH1 0x5 SLOAD DUP7 MLOAD SWAP2 DUP3 MSTORE DUP5 AND PUSH1 0x1 PUSH1 0x1 PUSH1 0xA0 SHL SUB AND DUP9 DUP3 ADD SWAP1 DUP2 MSTORE PUSH1 0x20 DUP2 ADD SWAP4 SWAP1 SWAP4 MSTORE SWAP2 DUP3 SWAP1 DUP15 SWAP1 DUP3 SWAP1 DUP8 SWAP1 DUP3 SWAP1 PUSH1 0x40 ADD SUB SWAP3 GAS CALL DUP1 ISZERO PUSH2 0x2AA4 JUMPI PUSH2 0x2A6C JUMPI JUMPDEST POP DUP1 PUSH1 0x5 SLOAD AND PUSH2 0xE10 TIMESTAMP ADD DUP1 TIMESTAMP GT PUSH2 0x2A59 JUMPI DUP12 SWAP2 DUP14 SWAP2 DUP7 MLOAD SWAP13 DUP14 SWAP4 PUSH4 0xF305D719 PUSH1 0xE0 SHL DUP6 MSTORE DUP11 DUP6 ADD MSTORE DUP13 PUSH1 0x24 DUP6 ADD MSTORE DUP7 PUSH1 0x44 DUP6 ADD MSTORE DUP7 PUSH1 0x64 DUP6 ADD MSTORE PUSH1 0x84 DUP5 ADD MSTORE PUSH1 0xA4 DUP4 ADD MSTORE DUP2 GAS SWAP4 PUSH1 0xC4 SWAP3 PUSH1 0x60 SWAP6 CALL SWAP10 DUP11 ISZERO PUSH2 0x2A4F JUMPI DUP3 SWAP11 DUP4 SWAP11 DUP5 SWAP2 PUSH2 0x2A0D JUMPI JUMPDEST POP SWAP10 DUP1 SWAP12 DUP1 SWAP14 DUP5 PUSH1 0x5 SLOAD AND DUP8 MLOAD SWAP1 PUSH4 0xC45A0155 PUSH1 0xE0 SHL DUP3 MSTORE DUP10 DUP3 DUP13 DUP2 DUP5 GAS STATICCALL SWAP2 DUP3 ISZERO PUSH2 0x29E4 JUMPI DUP12 SWAP4 SWAP3 SWAP2 DUP12 SWAP2 DUP11 SWAP4 PUSH2 0x29EE JUMPI JUMPDEST POP DUP11 MLOAD PUSH4 0x15AB88C9 PUSH1 0xE3 SHL DUP2 MSTORE SWAP5 DUP6 SWAP2 DUP3 SWAP1 GAS STATICCALL SWAP3 DUP4 ISZERO PUSH2 0x29E4 JUMPI DUP8 DUP12 SWAP4 SWAP3 DUP14 SWAP3 DUP12 SWAP7 PUSH2 0x29BE JUMPI JUMPDEST POP SWAP1 PUSH1 0x44 SWAP3 SWAP2 DUP2 DUP14 MLOAD SWAP8 DUP9 SWAP7 DUP8 SWAP6 PUSH4 0xE6A43905 PUSH1 0xE0 SHL DUP8 MSTORE DUP7 ADD MSTORE AND PUSH1 0x24 DUP5 ADD MSTORE AND GAS STATICCALL SWAP1 DUP2 ISZERO PUSH2 0x29B4 JUMPI DUP7 SWAP2 PUSH2 0x2997 JUMPI JUMPDEST POP SWAP11 DUP2 DUP2 GT PUSH2 0x297F JUMPI JUMPDEST POP POP DUP1 DUP3 GT PUSH2 0x2912 JUMPI JUMPDEST POP POP POP POP POP POP POP JUMP JUMPDEST DUP4 SWAP3 PUSH2 0x2921 DUP5 SWAP4 SWAP3 DUP5 SWAP4 PUSH2 0x1C43 JUMP JUMPDEST SWAP1 DUP3 SLOAD AND GAS CALL PUSH2 0x292F PUSH2 0x1EA5 JUMP JUMPDEST POP ISZERO PUSH2 0x293E JUMPI DUP1 DUP1 DUP1 DUP1 PUSH2 0x2909 JUMP JUMPDEST MLOAD PUSH3 0x461BCD PUSH1 0xE5 SHL DUP2 MSTORE SWAP2 DUP3 ADD MSTORE PUSH1 0x18 PUSH1 0x24 DUP3 ADD MSTORE PUSH32 0x6574682064757374207472616E73666572206661696C65640000000000000000 PUSH1 0x44 DUP3 ADD MSTORE PUSH1 0x64 SWAP2 POP REVERT JUMPDEST PUSH2 0x298F SWAP3 SWAP11 POP SWAP1 PUSH2 0x1647 SWAP2 PUSH2 0x1C43 JUMP JUMPDEST SWAP8 CODESIZE DUP1 PUSH2 0x28FF JUMP JUMPDEST PUSH2 0x29AE SWAP2 POP DUP9 RETURNDATASIZE DUP11 GT PUSH2 0x17A1 JUMPI PUSH2 0x1792 DUP2 DUP4 PUSH2 0x1D0D JUMP JUMPDEST CODESIZE PUSH2 0x28F5 JUMP JUMPDEST DUP8 MLOAD RETURNDATASIZE DUP9 DUP3 RETURNDATACOPY RETURNDATASIZE SWAP1 REVERT JUMPDEST PUSH1 0x44 SWAP4 SWAP3 SWAP2 SWAP7 POP PUSH2 0x29DB SWAP1 DUP7 RETURNDATASIZE DUP9 GT PUSH2 0x17A1 JUMPI PUSH2 0x1792 DUP2 DUP4 PUSH2 0x1D0D JUMP JUMPDEST SWAP6 SWAP1 SWAP2 SWAP3 PUSH2 0x28C3 JUMP JUMPDEST DUP10 MLOAD RETURNDATASIZE DUP11 DUP3 RETURNDATACOPY RETURNDATASIZE SWAP1 REVERT JUMPDEST PUSH2 0x2A06 SWAP2 SWAP4 POP DUP3 RETURNDATASIZE DUP5 GT PUSH2 0x17A1 JUMPI PUSH2 0x1792 DUP2 DUP4 PUSH2 0x1D0D JUMP JUMPDEST SWAP2 CODESIZE PUSH2 0x289B JUMP JUMPDEST SWAP12 POP POP SWAP9 POP PUSH1 0x60 DUP11 RETURNDATASIZE PUSH1 0x60 GT PUSH2 0x2A47 JUMPI JUMPDEST DUP2 PUSH2 0x2A2B PUSH1 0x60 SWAP4 DUP4 PUSH2 0x1D0D JUMP JUMPDEST DUP2 ADD SUB SLT PUSH2 0x2217 JUMPI DUP10 MLOAD SWAP9 DUP4 DUP6 DUP13 ADD MLOAD SWAP12 ADD MLOAD SWAP10 SWAP11 SWAP10 CODESIZE PUSH2 0x2868 JUMP JUMPDEST RETURNDATASIZE SWAP2 POP PUSH2 0x2A1E JUMP JUMPDEST DUP4 MLOAD RETURNDATASIZE DUP5 DUP3 RETURNDATACOPY RETURNDATASIZE SWAP1 REVERT JUMPDEST PUSH4 0x4E487B71 PUSH1 0xE0 SHL DUP5 MSTORE PUSH1 0x11 DUP8 MSTORE PUSH1 0x24 DUP5 REVERT JUMPDEST DUP5 DUP2 DUP2 RETURNDATASIZE DUP4 GT PUSH2 0x2A9D JUMPI JUMPDEST PUSH2 0x2A81 DUP2 DUP4 PUSH2 0x1D0D JUMP JUMPDEST DUP2 ADD SUB SLT PUSH2 0x2A99 JUMPI PUSH2 0x2A92 SWAP1 PUSH2 0x1E54 JUMP JUMPDEST POP CODESIZE PUSH2 0x2807 JUMP JUMPDEST DUP3 DUP1 REVERT JUMPDEST POP RETURNDATASIZE PUSH2 0x2A77 JUMP JUMPDEST DUP5 MLOAD RETURNDATASIZE DUP6 DUP3 RETURNDATACOPY RETURNDATASIZE SWAP1 REVERT JUMPDEST DUP3 DUP2 SWAP4 SWAP3 SWAP5 POP RETURNDATASIZE DUP4 GT PUSH2 0x2AE5 JUMPI JUMPDEST PUSH2 0x2AC6 DUP2 DUP4 PUSH2 0x1D0D JUMP JUMPDEST DUP2 ADD SUB SLT PUSH2 0x2AE1 JUMPI DUP10 SWAP2 PUSH2 0x2ADA DUP8 SWAP3 PUSH2 0x1E54 JUMP JUMPDEST POP CODESIZE PUSH2 0x27C8 JUMP JUMPDEST DUP4 DUP1 REVERT JUMPDEST POP RETURNDATASIZE PUSH2 0x2ABC JUMP JUMPDEST DUP6 MLOAD RETURNDATASIZE DUP7 DUP3 RETURNDATACOPY RETURNDATASIZE SWAP1 REVERT JUMPDEST PUSH1 0x40 MLOAD PUSH3 0x461BCD PUSH1 0xE5 SHL DUP2 MSTORE PUSH1 0x20 PUSH1 0x4 DUP3 ADD MSTORE PUSH1 0x14 PUSH1 0x24 DUP3 ADD MSTORE PUSH20 0x1B1C081C9958D95A5D995C881C995C5D5A5C9959 PUSH1 0x62 SHL PUSH1 0x44 DUP3 ADD MSTORE PUSH1 0x64 SWAP1 REVERT JUMPDEST MLOAD SWAP1 PUSH1 0x1 PUSH1 0x1 PUSH1 0x70 SHL SUB DUP3 AND DUP3 SUB PUSH2 0x1C5 JUMPI JUMP JUMPDEST PUSH1 0x8 SLOAD PUSH1 0x0 SWAP2 SWAP1 PUSH1 0x1 PUSH1 0x1 PUSH1 0xA0 SHL SUB SWAP1 DUP4 SWAP1 DUP2 SWAP1 DUP4 AND DUP1 ISZERO PUSH2 0x2EF4 JUMPI PUSH1 0x7 SLOAD PUSH1 0xFF DUP2 PUSH1 0xD8 SHR AND PUSH2 0x2DA3 JUMPI POP DUP4 PUSH1 0x5 SLOAD AND SWAP1 DUP2 ISZERO PUSH2 0x2D9A JUMPI PUSH1 0x40 SWAP5 DUP6 MLOAD DUP1 SWAP4 PUSH4 0x15AB88C9 PUSH1 0xE3 SHL DUP3 MSTORE DUP2 PUSH1 0x4 PUSH1 0x20 SWAP4 DUP5 SWAP4 GAS STATICCALL SWAP4 DUP5 ISZERO PUSH2 0x2D90 JUMPI DUP10 SWAP5 PUSH2 0x2D71 JUMPI JUMPDEST POP DUP7 MLOAD PUSH4 0xDFE1681 PUSH1 0xE0 SHL DUP2 MSTORE SWAP1 DUP1 DUP3 PUSH1 0x4 DUP2 DUP8 GAS STATICCALL SWAP2 DUP3 ISZERO PUSH2 0x2D67 JUMPI DUP11 SWAP3 PUSH2 0x2D48 JUMPI JUMPDEST POP DUP8 MLOAD PUSH4 0xD21220A7 PUSH1 0xE0 SHL DUP2 MSTORE SWAP4 DUP2 DUP6 PUSH1 0x4 DUP2 DUP5 GAS STATICCALL SWAP5 DUP6 ISZERO PUSH2 0x2D3E JUMPI DUP12 SWAP6 PUSH2 0x2D17 JUMPI JUMPDEST POP SWAP1 PUSH1 0x60 PUSH1 0x4 SWAP3 DUP11 MLOAD SWAP4 DUP5 DUP1 SWAP3 PUSH4 0x240BC6B PUSH1 0xE2 SHL DUP3 MSTORE GAS STATICCALL SWAP11 DUP12 ISZERO PUSH2 0x2D0C JUMPI DUP1 SWAP10 DUP2 SWAP13 PUSH2 0x2CAD JUMPI JUMPDEST POP POP POP POP DUP2 DUP1 PUSH32 0x0 AND SWAP2 AND SWAP3 DUP2 DUP5 EQ DUP1 PUSH2 0x2CA0 JUMPI JUMPDEST ISZERO PUSH2 0x2C67 JUMPI POP POP POP POP POP POP POP PUSH1 0x1 PUSH1 0x1 PUSH1 0x70 SHL SUB DUP1 SWAP2 AND SWAP3 AND SWAP1 JUMP JUMPDEST SWAP6 SWAP9 SWAP5 SWAP8 SWAP7 SWAP6 DUP3 AND EQ SWAP3 DUP4 PUSH2 0x2C94 JUMPI JUMPDEST POP POP POP PUSH2 0x2C82 JUMPI POP POP JUMP JUMPDEST PUSH1 0x1 PUSH1 0x1 PUSH1 0x70 SHL SUB SWAP1 DUP2 AND SWAP5 POP AND SWAP2 POP JUMP JUMPDEST AND EQ SWAP1 POP CODESIZE DUP1 DUP1 PUSH2 0x2C77 JUMP JUMPDEST POP DUP3 DUP6 AND DUP4 DUP3 AND EQ PUSH2 0x2C4B JUMP JUMPDEST SWAP2 SWAP4 SWAP12 POP SWAP2 SWAP9 POP PUSH1 0x60 DUP10 RETURNDATASIZE PUSH1 0x60 GT PUSH2 0x2D04 JUMPI JUMPDEST DUP2 PUSH2 0x2CCD PUSH1 0x60 SWAP4 DUP4 PUSH2 0x1D0D JUMP JUMPDEST DUP2 ADD SUB SLT PUSH2 0x2217 JUMPI PUSH2 0x2CE9 PUSH2 0x2CE1 DUP11 PUSH2 0x2B32 JUMP JUMPDEST SWAP4 DUP11 ADD PUSH2 0x2B32 JUMP JUMPDEST SWAP9 ADD MLOAD PUSH4 0xFFFFFFFF DUP2 AND SUB PUSH2 0x2214 JUMPI POP SWAP6 SWAP8 CODESIZE DUP1 DUP1 DUP1 PUSH2 0x2C17 JUMP JUMPDEST RETURNDATASIZE SWAP2 POP PUSH2 0x2CC0 JUMP JUMPDEST DUP10 MLOAD SWAP1 RETURNDATASIZE SWAP1 DUP3 RETURNDATACOPY RETURNDATASIZE SWAP1 REVERT JUMPDEST DUP3 SWAP2 SWAP6 POP PUSH2 0x2D35 PUSH1 0x60 SWAP2 PUSH1 0x4 SWAP5 RETURNDATASIZE DUP6 GT PUSH2 0x17A1 JUMPI PUSH2 0x1792 DUP2 DUP4 PUSH2 0x1D0D JUMP JUMPDEST SWAP6 SWAP2 SWAP3 POP PUSH2 0x2BEE JUMP JUMPDEST DUP10 MLOAD RETURNDATASIZE DUP14 DUP3 RETURNDATACOPY RETURNDATASIZE SWAP1 REVERT JUMPDEST DUP2 PUSH2 0x2D60 SWAP3 SWAP4 POP RETURNDATASIZE DUP5 GT PUSH2 0x17A1 JUMPI PUSH2 0x1792 DUP2 DUP4 PUSH2 0x1D0D JUMP JUMPDEST SWAP1 CODESIZE PUSH2 0x2BCA JUMP JUMPDEST DUP9 MLOAD RETURNDATASIZE DUP13 DUP3 RETURNDATACOPY RETURNDATASIZE SWAP1 REVERT JUMPDEST DUP2 PUSH2 0x2D89 SWAP3 SWAP6 POP RETURNDATASIZE DUP7 GT PUSH2 0x17A1 JUMPI PUSH2 0x1792 DUP2 DUP4 PUSH2 0x1D0D JUMP JUMPDEST SWAP3 CODESIZE PUSH2 0x2BA6 JUMP JUMPDEST DUP8 MLOAD RETURNDATASIZE DUP12 DUP3 RETURNDATACOPY RETURNDATASIZE SWAP1 REVERT JUMPDEST POP POP POP POP POP DUP2 SWAP1 JUMP JUMPDEST SWAP3 POP SWAP5 SWAP1 POP DUP3 PUSH1 0x40 SWAP6 DUP7 MLOAD SWAP4 PUSH4 0x12A9293F PUSH1 0xE2 SHL DUP6 MSTORE DUP5 PUSH1 0x4 DUP2 PUSH1 0x20 SWAP6 DUP7 SWAP5 AND GAS STATICCALL SWAP4 DUP5 ISZERO PUSH2 0x2EEA JUMPI DUP4 SWAP5 PUSH2 0x2ECB JUMPI JUMPDEST POP DUP7 MLOAD PUSH4 0x70A08231 PUSH1 0xE0 SHL DUP1 DUP3 MSTORE PUSH1 0x4 DUP3 ADD DUP4 SWAP1 MSTORE SWAP1 SWAP6 DUP4 DUP8 PUSH1 0x24 DUP2 PUSH32 0x0 DUP6 AND GAS STATICCALL SWAP7 DUP8 ISZERO PUSH2 0x2EC1 JUMPI DUP6 SWAP8 PUSH2 0x2E8E JUMPI JUMPDEST POP DUP4 SWAP3 SWAP2 PUSH1 0x24 SWAP2 DUP11 MLOAD SWAP8 DUP9 SWAP5 DUP6 SWAP4 DUP5 MSTORE PUSH1 0x4 DUP5 ADD MSTORE AND GAS STATICCALL SWAP6 DUP7 ISZERO PUSH2 0x2E83 JUMPI POP DUP2 SWAP6 PUSH2 0x2E50 JUMPI JUMPDEST POP POP POP SWAP2 SWAP1 JUMP JUMPDEST SWAP1 SWAP2 DUP1 SWAP4 SWAP6 POP DUP2 RETURNDATASIZE DUP4 GT PUSH2 0x2E7C JUMPI JUMPDEST PUSH2 0x2E69 DUP2 DUP4 PUSH2 0x1D0D JUMP JUMPDEST DUP2 ADD SUB SLT PUSH2 0x2214 JUMPI POP MLOAD SWAP2 CODESIZE DUP1 DUP1 PUSH2 0x2E49 JUMP JUMPDEST POP RETURNDATASIZE PUSH2 0x2E5F JUMP JUMPDEST MLOAD SWAP2 RETURNDATASIZE SWAP2 POP DUP3 RETURNDATACOPY RETURNDATASIZE SWAP1 REVERT JUMPDEST SWAP1 SWAP7 POP DUP4 DUP2 DUP2 RETURNDATASIZE DUP4 GT PUSH2 0x2EBA JUMPI JUMPDEST PUSH2 0x2EA6 DUP2 DUP4 PUSH2 0x1D0D JUMP JUMPDEST DUP2 ADD SUB SLT PUSH2 0x2EB6 JUMPI MLOAD SWAP6 DUP4 PUSH2 0x2E22 JUMP JUMPDEST DUP5 DUP1 REVERT JUMPDEST POP RETURNDATASIZE PUSH2 0x2E9C JUMP JUMPDEST DUP10 MLOAD RETURNDATASIZE DUP8 DUP3 RETURNDATACOPY RETURNDATASIZE SWAP1 REVERT JUMPDEST PUSH2 0x2EE3 SWAP2 SWAP5 POP DUP3 RETURNDATASIZE DUP5 GT PUSH2 0x17A1 JUMPI PUSH2 0x1792 DUP2 DUP4 PUSH2 0x1D0D JUMP JUMPDEST SWAP3 CODESIZE PUSH2 0x2DD3 JUMP JUMPDEST DUP8 MLOAD RETURNDATASIZE DUP6 DUP3 RETURNDATACOPY RETURNDATASIZE SWAP1 REVERT JUMPDEST POP POP POP POP DUP2 SWAP1 JUMP JUMPDEST PUSH1 0x40 MLOAD PUSH4 0x70A08231 PUSH1 0xE0 SHL DUP2 MSTORE ADDRESS PUSH1 0x4 DUP3 ADD MSTORE PUSH1 0x20 DUP2 PUSH1 0x24 DUP2 PUSH32 0x0 PUSH1 0x1 PUSH1 0x1 PUSH1 0xA0 SHL SUB AND GAS STATICCALL SWAP1 DUP2 ISZERO PUSH2 0x598 JUMPI PUSH1 0x0 SWAP2 PUSH2 0x2F60 JUMPI JUMPDEST POP DUP1 ISZERO PUSH2 0x1ABD JUMPI PUSH2 0x1B71 SWAP1 PUSH2 0x2664 JUMP JUMPDEST SWAP1 POP PUSH1 0x20 DUP2 RETURNDATASIZE PUSH1 0x20 GT PUSH2 0x2F8A JUMPI JUMPDEST DUP2 PUSH2 0x2F7B PUSH1 0x20 SWAP4 DUP4 PUSH2 0x1D0D JUMP JUMPDEST DUP2 ADD SUB SLT PUSH2 0x1C5 JUMPI MLOAD CODESIZE PUSH2 0x2F50 JUMP JUMPDEST RETURNDATASIZE SWAP2 POP PUSH2 0x2F6E JUMP INVALID LOG2 PUSH5 0x6970667358 0x22 SLT KECCAK256 SWAP10 0xD9 0x4B DUP10 DUP9 PUSH31 0x277097556243B39D5582B3C47517B5D35FD712ADF16ACD5DCA1264736F6C63 NUMBER STOP ADDMOD XOR STOP CALLER LOG2 PUSH5 0x6970667358 0x22 SLT KECCAK256 PUSH7 0x6CB625DAB72D4C ADD LOG3 0x21 0xD4 DUP11 PUSH14 0x7EA76A813B5908DFBBA4BD0B04CE 0xB5 0xB9 0xE5 CALLER PUSH5 0x736F6C6343 STOP ADDMOD XOR STOP CALLER "},"methodIdentifiers":{"deployPool(address,address,address,uint256,uint256,uint256,uint256,address,address,address,uint24)":"f7962097"}}}}}