{"contracts/EtherpumpGoEscrow.sol":{"EtherpumpGoEscrow":{"abi":[{"anonymous":false,"inputs":[{"indexed":true,"internalType":"bytes32","name":"bountyId","type":"bytes32"},{"indexed":true,"internalType":"address","name":"creator","type":"address"},{"indexed":false,"internalType":"uint256","name":"amount","type":"uint256"}],"name":"BountyFunded","type":"event"},{"anonymous":false,"inputs":[{"indexed":true,"internalType":"bytes32","name":"bountyId","type":"bytes32"},{"indexed":true,"internalType":"address","name":"creator","type":"address"},{"indexed":false,"internalType":"uint256","name":"amount","type":"uint256"}],"name":"BountyRefunded","type":"event"},{"anonymous":false,"inputs":[{"indexed":true,"internalType":"bytes32","name":"bountyId","type":"bytes32"},{"indexed":true,"internalType":"address","name":"winner","type":"address"},{"indexed":false,"internalType":"uint256","name":"amount","type":"uint256"}],"name":"BountyReleased","type":"event"},{"inputs":[{"internalType":"bytes32","name":"","type":"bytes32"}],"name":"bounties","outputs":[{"internalType":"address","name":"creator","type":"address"},{"internalType":"uint256","name":"amount","type":"uint256"},{"internalType":"bool","name":"released","type":"bool"},{"internalType":"bool","name":"refunded","type":"bool"}],"stateMutability":"view","type":"function"},{"inputs":[{"internalType":"bytes32","name":"bountyId","type":"bytes32"}],"name":"fund","outputs":[],"stateMutability":"payable","type":"function"},{"inputs":[{"internalType":"bytes32","name":"bountyId","type":"bytes32"}],"name":"refund","outputs":[],"stateMutability":"nonpayable","type":"function"},{"inputs":[{"internalType":"bytes32","name":"bountyId","type":"bytes32"},{"internalType":"address payable","name":"winner","type":"address"}],"name":"release","outputs":[],"stateMutability":"nonpayable","type":"function"}],"evm":{"bytecode":{"linkReferences":{},"object":"608080604052346100165761052f908161001c8239f35b600080fdfe6040608081526004908136101561001557600080fd5b600091823560e01c80631bbdcfd3146102ed5780637249fbb614610237578063bf14c119146100a75763bf5522da1461004d57600080fd5b346100a35760203660031901126100a3578160809360ff92358152806020522060018060a01b038154169260026001830154920154918151948552602085015282821615159084015260081c1615156060820152f35b8280fd5b509190602090816003193601126100a35783359081156102045734156101d757818452838352808420546001600160a01b039081166101a3578151906080820182811067ffffffffffffffff82111761019057908392917f9e18730d7709cbfbb56bb1b182ecdd270b4759d3a1efc5d5e7c9f70c6e36676294523382526002868301923484528481019389855260608201938a8552888b528a8a52868b209251166bffffffffffffffffffffffff60a01b83541617825551600182015501915115159060ff61ff0084549251151560081b1692169061ffff19161717905551923484523393a380f35b634e487b7160e01b875260418852602487fd5b815162461bcd60e51b8152808701859052600e60248201526d185b1c9958591e48199d5b99195960921b6044820152606490fd5b5162461bcd60e51b815280850183905260086024820152676e6f2066756e647360c01b6044820152606490fd5b5162461bcd60e51b8152808501839052600e60248201526d696e76616c696420626f756e747960901b6044820152606490fd5b50346100a35760203660031901126100a35735808352826020528183209161026960018060a01b0384541633146103eb565b8360028401600181549560ff871615806102de575b61028790610425565b019061010082549661ff001916179055556102b18480808087335af16102ab61045a565b506104bb565b519182527fdd01b4689a2372afbf170143867234d409c5b6dd10f83918afd6e200f00f405860203393a380f35b50600887901c60ff161561027e565b50346100a357816003193601126100a3576001600160a01b036024358181169383359390918590036103e757838652856020526103318287209384541633146103eb565b84156103b45750816020918660027fb077b726ac63e04dbbae3e649506cb2cebbf4cd76595c45aa2652a490f12a46d9501600181549460ff861615806103a5575b61037b90610425565b0190600182549560ff19161790555561039d87808080868b5af16102ab61045a565b51908152a380f35b50600886901c60ff1615610372565b6020606492519162461bcd60e51b8352820152600e60248201526d34b73b30b634b2103bb4b73732b960911b6044820152fd5b8580fd5b156103f257565b60405162461bcd60e51b815260206004820152600b60248201526a3737ba1031b932b0ba37b960a91b6044820152606490fd5b1561042c57565b60405162461bcd60e51b815260206004820152600660248201526518db1bdcd95960d21b6044820152606490fd5b3d156104b65767ffffffffffffffff903d8281116104a05760405192601f8201601f19908116603f01168401908111848210176104a05760405282523d6000602084013e565b634e487b7160e01b600052604160045260246000fd5b606090565b156104c257565b60405162461bcd60e51b815260206004820152600f60248201526e1d1c985b9cd9995c8819985a5b1959608a1b6044820152606490fdfea26469706673582212208f01a159bd7d4e5a60a4aa0a217018b9bd82af8f7ca94a184bb604f874f3312664736f6c63430008180033","opcodes":"PUSH1 0x80 DUP1 PUSH1 0x40 MSTORE CALLVALUE PUSH2 0x16 JUMPI PUSH2 0x52F SWAP1 DUP2 PUSH2 0x1C DUP3 CODECOPY RETURN JUMPDEST PUSH1 0x0 DUP1 REVERT INVALID PUSH1 0x40 PUSH1 0x80 DUP2 MSTORE PUSH1 0x4 SWAP1 DUP2 CALLDATASIZE LT ISZERO PUSH2 0x15 JUMPI PUSH1 0x0 DUP1 REVERT JUMPDEST PUSH1 0x0 SWAP2 DUP3 CALLDATALOAD PUSH1 0xE0 SHR DUP1 PUSH4 0x1BBDCFD3 EQ PUSH2 0x2ED JUMPI DUP1 PUSH4 0x7249FBB6 EQ PUSH2 0x237 JUMPI DUP1 PUSH4 0xBF14C119 EQ PUSH2 0xA7 JUMPI PUSH4 0xBF5522DA EQ PUSH2 0x4D JUMPI PUSH1 0x0 DUP1 REVERT JUMPDEST CALLVALUE PUSH2 0xA3 JUMPI PUSH1 0x20 CALLDATASIZE PUSH1 0x3 NOT ADD SLT PUSH2 0xA3 JUMPI DUP2 PUSH1 0x80 SWAP4 PUSH1 0xFF SWAP3 CALLDATALOAD DUP2 MSTORE DUP1 PUSH1 0x20 MSTORE KECCAK256 PUSH1 0x1 DUP1 PUSH1 0xA0 SHL SUB DUP2 SLOAD AND SWAP3 PUSH1 0x2 PUSH1 0x1 DUP4 ADD SLOAD SWAP3 ADD SLOAD SWAP2 DUP2 MLOAD SWAP5 DUP6 MSTORE PUSH1 0x20 DUP6 ADD MSTORE DUP3 DUP3 AND ISZERO ISZERO SWAP1 DUP5 ADD MSTORE PUSH1 0x8 SHR AND ISZERO ISZERO PUSH1 0x60 DUP3 ADD MSTORE RETURN JUMPDEST DUP3 DUP1 REVERT JUMPDEST POP SWAP2 SWAP1 PUSH1 0x20 SWAP1 DUP2 PUSH1 0x3 NOT CALLDATASIZE ADD SLT PUSH2 0xA3 JUMPI DUP4 CALLDATALOAD SWAP1 DUP2 ISZERO PUSH2 0x204 JUMPI CALLVALUE ISZERO PUSH2 0x1D7 JUMPI DUP2 DUP5 MSTORE DUP4 DUP4 MSTORE DUP1 DUP5 KECCAK256 SLOAD PUSH1 0x1 PUSH1 0x1 PUSH1 0xA0 SHL SUB SWAP1 DUP2 AND PUSH2 0x1A3 JUMPI DUP2 MLOAD SWAP1 PUSH1 0x80 DUP3 ADD DUP3 DUP2 LT PUSH8 0xFFFFFFFFFFFFFFFF DUP3 GT OR PUSH2 0x190 JUMPI SWAP1 DUP4 SWAP3 SWAP2 PUSH32 0x9E18730D7709CBFBB56BB1B182ECDD270B4759D3A1EFC5D5E7C9F70C6E366762 SWAP5 MSTORE CALLER DUP3 MSTORE PUSH1 0x2 DUP7 DUP4 ADD SWAP3 CALLVALUE DUP5 MSTORE DUP5 DUP2 ADD SWAP4 DUP10 DUP6 MSTORE PUSH1 0x60 DUP3 ADD SWAP4 DUP11 DUP6 MSTORE DUP9 DUP12 MSTORE DUP11 DUP11 MSTORE DUP7 DUP12 KECCAK256 SWAP3 MLOAD AND PUSH12 0xFFFFFFFFFFFFFFFFFFFFFFFF PUSH1 0xA0 SHL DUP4 SLOAD AND OR DUP3 SSTORE MLOAD PUSH1 0x1 DUP3 ADD SSTORE ADD SWAP2 MLOAD ISZERO ISZERO SWAP1 PUSH1 0xFF PUSH2 0xFF00 DUP5 SLOAD SWAP3 MLOAD ISZERO ISZERO PUSH1 0x8 SHL AND SWAP3 AND SWAP1 PUSH2 0xFFFF NOT AND OR OR SWAP1 SSTORE MLOAD SWAP3 CALLVALUE DUP5 MSTORE CALLER SWAP4 LOG3 DUP1 RETURN JUMPDEST PUSH4 0x4E487B71 PUSH1 0xE0 SHL DUP8 MSTORE PUSH1 0x41 DUP9 MSTORE PUSH1 0x24 DUP8 REVERT JUMPDEST DUP2 MLOAD PUSH3 0x461BCD PUSH1 0xE5 SHL DUP2 MSTORE DUP1 DUP8 ADD DUP6 SWAP1 MSTORE PUSH1 0xE PUSH1 0x24 DUP3 ADD MSTORE PUSH14 0x185B1C9958591E48199D5B991959 PUSH1 0x92 SHL PUSH1 0x44 DUP3 ADD MSTORE PUSH1 0x64 SWAP1 REVERT JUMPDEST MLOAD PUSH3 0x461BCD PUSH1 0xE5 SHL DUP2 MSTORE DUP1 DUP6 ADD DUP4 SWAP1 MSTORE PUSH1 0x8 PUSH1 0x24 DUP3 ADD MSTORE PUSH8 0x6E6F2066756E6473 PUSH1 0xC0 SHL PUSH1 0x44 DUP3 ADD MSTORE PUSH1 0x64 SWAP1 REVERT JUMPDEST MLOAD PUSH3 0x461BCD PUSH1 0xE5 SHL DUP2 MSTORE DUP1 DUP6 ADD DUP4 SWAP1 MSTORE PUSH1 0xE PUSH1 0x24 DUP3 ADD MSTORE PUSH14 0x696E76616C696420626F756E7479 PUSH1 0x90 SHL PUSH1 0x44 DUP3 ADD MSTORE PUSH1 0x64 SWAP1 REVERT JUMPDEST POP CALLVALUE PUSH2 0xA3 JUMPI PUSH1 0x20 CALLDATASIZE PUSH1 0x3 NOT ADD SLT PUSH2 0xA3 JUMPI CALLDATALOAD DUP1 DUP4 MSTORE DUP3 PUSH1 0x20 MSTORE DUP2 DUP4 KECCAK256 SWAP2 PUSH2 0x269 PUSH1 0x1 DUP1 PUSH1 0xA0 SHL SUB DUP5 SLOAD AND CALLER EQ PUSH2 0x3EB JUMP JUMPDEST DUP4 PUSH1 0x2 DUP5 ADD PUSH1 0x1 DUP2 SLOAD SWAP6 PUSH1 0xFF DUP8 AND ISZERO DUP1 PUSH2 0x2DE JUMPI JUMPDEST PUSH2 0x287 SWAP1 PUSH2 0x425 JUMP JUMPDEST ADD SWAP1 PUSH2 0x100 DUP3 SLOAD SWAP7 PUSH2 0xFF00 NOT AND OR SWAP1 SSTORE SSTORE PUSH2 0x2B1 DUP5 DUP1 DUP1 DUP1 DUP8 CALLER GAS CALL PUSH2 0x2AB PUSH2 0x45A JUMP JUMPDEST POP PUSH2 0x4BB JUMP JUMPDEST MLOAD SWAP2 DUP3 MSTORE PUSH32 0xDD01B4689A2372AFBF170143867234D409C5B6DD10F83918AFD6E200F00F4058 PUSH1 0x20 CALLER SWAP4 LOG3 DUP1 RETURN JUMPDEST POP PUSH1 0x8 DUP8 SWAP1 SHR PUSH1 0xFF AND ISZERO PUSH2 0x27E JUMP JUMPDEST POP CALLVALUE PUSH2 0xA3 JUMPI DUP2 PUSH1 0x3 NOT CALLDATASIZE ADD SLT PUSH2 0xA3 JUMPI PUSH1 0x1 PUSH1 0x1 PUSH1 0xA0 SHL SUB PUSH1 0x24 CALLDATALOAD DUP2 DUP2 AND SWAP4 DUP4 CALLDATALOAD SWAP4 SWAP1 SWAP2 DUP6 SWAP1 SUB PUSH2 0x3E7 JUMPI DUP4 DUP7 MSTORE DUP6 PUSH1 0x20 MSTORE PUSH2 0x331 DUP3 DUP8 KECCAK256 SWAP4 DUP5 SLOAD AND CALLER EQ PUSH2 0x3EB JUMP JUMPDEST DUP5 ISZERO PUSH2 0x3B4 JUMPI POP DUP2 PUSH1 0x20 SWAP2 DUP7 PUSH1 0x2 PUSH32 0xB077B726AC63E04DBBAE3E649506CB2CEBBF4CD76595C45AA2652A490F12A46D SWAP6 ADD PUSH1 0x1 DUP2 SLOAD SWAP5 PUSH1 0xFF DUP7 AND ISZERO DUP1 PUSH2 0x3A5 JUMPI JUMPDEST PUSH2 0x37B SWAP1 PUSH2 0x425 JUMP JUMPDEST ADD SWAP1 PUSH1 0x1 DUP3 SLOAD SWAP6 PUSH1 0xFF NOT AND OR SWAP1 SSTORE SSTORE PUSH2 0x39D DUP8 DUP1 DUP1 DUP1 DUP7 DUP12 GAS CALL PUSH2 0x2AB PUSH2 0x45A JUMP JUMPDEST MLOAD SWAP1 DUP2 MSTORE LOG3 DUP1 RETURN JUMPDEST POP PUSH1 0x8 DUP7 SWAP1 SHR PUSH1 0xFF AND ISZERO PUSH2 0x372 JUMP JUMPDEST PUSH1 0x20 PUSH1 0x64 SWAP3 MLOAD SWAP2 PUSH3 0x461BCD PUSH1 0xE5 SHL DUP4 MSTORE DUP3 ADD MSTORE PUSH1 0xE PUSH1 0x24 DUP3 ADD MSTORE PUSH14 0x34B73B30B634B2103BB4B73732B9 PUSH1 0x91 SHL PUSH1 0x44 DUP3 ADD MSTORE REVERT JUMPDEST DUP6 DUP1 REVERT JUMPDEST ISZERO PUSH2 0x3F2 JUMPI JUMP JUMPDEST PUSH1 0x40 MLOAD PUSH3 0x461BCD PUSH1 0xE5 SHL DUP2 MSTORE PUSH1 0x20 PUSH1 0x4 DUP3 ADD MSTORE PUSH1 0xB PUSH1 0x24 DUP3 ADD MSTORE PUSH11 0x3737BA1031B932B0BA37B9 PUSH1 0xA9 SHL PUSH1 0x44 DUP3 ADD MSTORE PUSH1 0x64 SWAP1 REVERT JUMPDEST ISZERO PUSH2 0x42C JUMPI JUMP JUMPDEST PUSH1 0x40 MLOAD PUSH3 0x461BCD PUSH1 0xE5 SHL DUP2 MSTORE PUSH1 0x20 PUSH1 0x4 DUP3 ADD MSTORE PUSH1 0x6 PUSH1 0x24 DUP3 ADD MSTORE PUSH6 0x18DB1BDCD959 PUSH1 0xD2 SHL PUSH1 0x44 DUP3 ADD MSTORE PUSH1 0x64 SWAP1 REVERT JUMPDEST RETURNDATASIZE ISZERO PUSH2 0x4B6 JUMPI PUSH8 0xFFFFFFFFFFFFFFFF SWAP1 RETURNDATASIZE DUP3 DUP2 GT PUSH2 0x4A0 JUMPI PUSH1 0x40 MLOAD SWAP3 PUSH1 0x1F DUP3 ADD PUSH1 0x1F NOT SWAP1 DUP2 AND PUSH1 0x3F ADD AND DUP5 ADD SWAP1 DUP2 GT DUP5 DUP3 LT OR PUSH2 0x4A0 JUMPI PUSH1 0x40 MSTORE DUP3 MSTORE RETURNDATASIZE PUSH1 0x0 PUSH1 0x20 DUP5 ADD RETURNDATACOPY JUMP JUMPDEST PUSH4 0x4E487B71 PUSH1 0xE0 SHL PUSH1 0x0 MSTORE PUSH1 0x41 PUSH1 0x4 MSTORE PUSH1 0x24 PUSH1 0x0 REVERT JUMPDEST PUSH1 0x60 SWAP1 JUMP JUMPDEST ISZERO PUSH2 0x4C2 JUMPI JUMP JUMPDEST PUSH1 0x40 MLOAD PUSH3 0x461BCD PUSH1 0xE5 SHL DUP2 MSTORE PUSH1 0x20 PUSH1 0x4 DUP3 ADD MSTORE PUSH1 0xF PUSH1 0x24 DUP3 ADD MSTORE PUSH15 0x1D1C985B9CD9995C8819985A5B1959 PUSH1 0x8A SHL PUSH1 0x44 DUP3 ADD MSTORE PUSH1 0x64 SWAP1 REVERT INVALID LOG2 PUSH5 0x6970667358 0x22 SLT KECCAK256 DUP16 ADD LOG1 MSIZE 0xBD PUSH30 0x4E5A60A4AA0A217018B9BD82AF8F7CA94A184BB604F874F3312664736F6C PUSH4 0x43000818 STOP CALLER "},"methodIdentifiers":{"bounties(bytes32)":"bf5522da","fund(bytes32)":"bf14c119","refund(bytes32)":"7249fbb6","release(bytes32,address)":"1bbdcfd3"}}}}}