{"contracts/MemePoolERC20Quote.sol":{"MemePoolERC20Quote":{"abi":[{"inputs":[{"internalType":"address","name":"_token","type":"address"},{"internalType":"address","name":"_quoteToken","type":"address"}],"stateMutability":"nonpayable","type":"constructor"},{"anonymous":false,"inputs":[{"indexed":true,"internalType":"address","name":"buyer","type":"address"},{"indexed":false,"internalType":"uint256","name":"ethIn","type":"uint256"},{"indexed":false,"internalType":"uint256","name":"feePaid","type":"uint256"},{"indexed":false,"internalType":"uint256","name":"tokensOut","type":"uint256"}],"name":"Buy","type":"event"},{"anonymous":false,"inputs":[{"indexed":true,"internalType":"address","name":"recipient","type":"address"},{"indexed":false,"internalType":"uint256","name":"feeBps","type":"uint256"}],"name":"FeeConfigUpdated","type":"event"},{"anonymous":false,"inputs":[{"indexed":true,"internalType":"address","name":"pair","type":"address"},{"indexed":false,"internalType":"uint256","name":"tokenMigrated","type":"uint256"},{"indexed":false,"internalType":"uint256","name":"quoteMigrated","type":"uint256"},{"indexed":false,"internalType":"uint256","name":"lpMinted","type":"uint256"},{"indexed":false,"internalType":"uint256","name":"timestamp","type":"uint256"}],"name":"Graduated","type":"event"},{"anonymous":false,"inputs":[{"indexed":false,"internalType":"address","name":"dexRouter","type":"address"},{"indexed":false,"internalType":"address","name":"lpRecipient","type":"address"},{"indexed":false,"internalType":"uint256","name":"graduationTargetQuote","type":"uint256"}],"name":"MigrationConfigUpdated","type":"event"},{"anonymous":false,"inputs":[{"indexed":false,"internalType":"uint256","name":"tokenLiquidity","type":"uint256"}],"name":"PoolSeeded","type":"event"},{"anonymous":false,"inputs":[{"indexed":true,"internalType":"address","name":"buyer","type":"address"},{"indexed":true,"internalType":"address","name":"quoteToken","type":"address"},{"indexed":false,"internalType":"uint256","name":"quoteIn","type":"uint256"},{"indexed":false,"internalType":"uint256","name":"feePaid","type":"uint256"},{"indexed":false,"internalType":"uint256","name":"tokensOut","type":"uint256"}],"name":"QuoteBuy","type":"event"},{"anonymous":false,"inputs":[{"indexed":true,"internalType":"address","name":"seller","type":"address"},{"indexed":true,"internalType":"address","name":"quoteToken","type":"address"},{"indexed":false,"internalType":"uint256","name":"tokensIn","type":"uint256"},{"indexed":false,"internalType":"uint256","name":"quoteOut","type":"uint256"},{"indexed":false,"internalType":"uint256","name":"feePaid","type":"uint256"}],"name":"QuoteSell","type":"event"},{"anonymous":false,"inputs":[{"indexed":true,"internalType":"address","name":"seller","type":"address"},{"indexed":false,"internalType":"uint256","name":"tokensIn","type":"uint256"},{"indexed":false,"internalType":"uint256","name":"ethOut","type":"uint256"},{"indexed":false,"internalType":"uint256","name":"feePaid","type":"uint256"}],"name":"Sell","type":"event"},{"inputs":[],"name":"BPS_DENOMINATOR","outputs":[{"internalType":"uint256","name":"","type":"uint256"}],"stateMutability":"view","type":"function"},{"inputs":[],"name":"QUOTE_DECIMAL_SCALE","outputs":[{"internalType":"uint256","name":"","type":"uint256"}],"stateMutability":"view","type":"function"},{"inputs":[{"internalType":"uint256","name":"quoteAmountIn","type":"uint256"},{"internalType":"uint256","name":"minTokensOut","type":"uint256"}],"name":"buyWithQuote","outputs":[{"internalType":"uint256","name":"tokensOut","type":"uint256"}],"stateMutability":"nonpayable","type":"function"},{"inputs":[{"internalType":"address","name":"newRecipient","type":"address"},{"internalType":"uint256","name":"newFeeBps","type":"uint256"}],"name":"configureFees","outputs":[],"stateMutability":"nonpayable","type":"function"},{"inputs":[{"internalType":"address","name":"newDexRouter","type":"address"},{"internalType":"address","name":"newLpRecipient","type":"address"},{"internalType":"uint256","name":"newTargetQuote","type":"uint256"}],"name":"configureMigration","outputs":[],"stateMutability":"nonpayable","type":"function"},{"inputs":[],"name":"dexRouter","outputs":[{"internalType":"address","name":"","type":"address"}],"stateMutability":"view","type":"function"},{"inputs":[],"name":"ethReserve","outputs":[{"internalType":"uint256","name":"","type":"uint256"}],"stateMutability":"view","type":"function"},{"inputs":[],"name":"factory","outputs":[{"internalType":"address","name":"","type":"address"}],"stateMutability":"view","type":"function"},{"inputs":[],"name":"feeBps","outputs":[{"internalType":"uint256","name":"","type":"uint256"}],"stateMutability":"view","type":"function"},{"inputs":[],"name":"feeRecipient","outputs":[{"internalType":"address","name":"","type":"address"}],"stateMutability":"view","type":"function"},{"inputs":[],"name":"graduated","outputs":[{"internalType":"bool","name":"","type":"bool"}],"stateMutability":"view","type":"function"},{"inputs":[],"name":"graduatedAt","outputs":[{"internalType":"uint256","name":"","type":"uint256"}],"stateMutability":"view","type":"function"},{"inputs":[],"name":"graduationTargetEth","outputs":[{"internalType":"uint256","name":"","type":"uint256"}],"stateMutability":"view","type":"function"},{"inputs":[],"name":"graduationTargetQuote","outputs":[{"internalType":"uint256","name":"","type":"uint256"}],"stateMutability":"view","type":"function"},{"inputs":[{"internalType":"address","name":"_feeRecipient","type":"address"},{"internalType":"uint256","name":"_feeBps","type":"uint256"},{"internalType":"uint256","name":"_virtualQuoteReserve","type":"uint256"},{"internalType":"uint256","name":"_virtualTokenReserve","type":"uint256"},{"internalType":"uint256","name":"_graduationTargetQuote","type":"uint256"},{"internalType":"address","name":"_dexRouter","type":"address"},{"internalType":"address","name":"_lpRecipient","type":"address"}],"name":"initialize","outputs":[],"stateMutability":"nonpayable","type":"function"},{"inputs":[],"name":"initialized","outputs":[{"internalType":"bool","name":"","type":"bool"}],"stateMutability":"view","type":"function"},{"inputs":[],"name":"lpRecipient","outputs":[{"internalType":"address","name":"","type":"address"}],"stateMutability":"view","type":"function"},{"inputs":[],"name":"migratedPair","outputs":[{"internalType":"address","name":"","type":"address"}],"stateMutability":"view","type":"function"},{"inputs":[{"internalType":"uint256","name":"quoteAmountIn","type":"uint256"}],"name":"quoteBuy","outputs":[{"internalType":"uint256","name":"tokensOut","type":"uint256"},{"internalType":"uint256","name":"feePaid","type":"uint256"}],"stateMutability":"view","type":"function"},{"inputs":[],"name":"quoteReserve","outputs":[{"internalType":"uint256","name":"","type":"uint256"}],"stateMutability":"view","type":"function"},{"inputs":[{"internalType":"uint256","name":"tokenAmountIn","type":"uint256"}],"name":"quoteSell","outputs":[{"internalType":"uint256","name":"quoteOut","type":"uint256"},{"internalType":"uint256","name":"feePaid","type":"uint256"}],"stateMutability":"view","type":"function"},{"inputs":[],"name":"quoteToken","outputs":[{"internalType":"address","name":"","type":"address"}],"stateMutability":"view","type":"function"},{"inputs":[{"internalType":"uint256","name":"tokenAmount","type":"uint256"}],"name":"seed","outputs":[],"stateMutability":"nonpayable","type":"function"},{"inputs":[],"name":"seeded","outputs":[{"internalType":"bool","name":"","type":"bool"}],"stateMutability":"view","type":"function"},{"inputs":[{"internalType":"uint256","name":"tokenAmountIn","type":"uint256"},{"internalType":"uint256","name":"minQuoteOut","type":"uint256"}],"name":"sell","outputs":[{"internalType":"uint256","name":"quoteOut","type":"uint256"}],"stateMutability":"nonpayable","type":"function"},{"inputs":[],"name":"spotPrice","outputs":[{"internalType":"uint256","name":"","type":"uint256"}],"stateMutability":"view","type":"function"},{"inputs":[],"name":"targetProgressBps","outputs":[{"internalType":"uint256","name":"","type":"uint256"}],"stateMutability":"view","type":"function"},{"inputs":[],"name":"token","outputs":[{"internalType":"address","name":"","type":"address"}],"stateMutability":"view","type":"function"},{"inputs":[],"name":"tokenReserve","outputs":[{"internalType":"uint256","name":"","type":"uint256"}],"stateMutability":"view","type":"function"},{"inputs":[],"name":"triggerGraduation","outputs":[],"stateMutability":"nonpayable","type":"function"},{"inputs":[],"name":"virtualEthReserve","outputs":[{"internalType":"uint256","name":"","type":"uint256"}],"stateMutability":"view","type":"function"},{"inputs":[],"name":"virtualQuoteReserve","outputs":[{"internalType":"uint256","name":"","type":"uint256"}],"stateMutability":"view","type":"function"},{"inputs":[],"name":"virtualTokenReserve","outputs":[{"internalType":"uint256","name":"","type":"uint256"}],"stateMutability":"view","type":"function"}],"evm":{"bytecode":{"linkReferences":{},"object":"60e0346200019a57601f6200224238819003918201601f19168301916001600160401b038311848410176200019f5780849260409485528339810103126200019a576200005a60206200005283620001b5565b9201620001b5565b906001600160a01b038082161562000164578216156200012e5760a05260c052336080526040516120779081620001cb8239608051818181610642015281816106e9015281816108f301528181610b1c015261111d015260a0518181816101a3015281816103440152818161095c01528181610d58015281816118f20152818161194e01528181611a8c01528181611b6a0152611d7c015260c0518181816103bf01528181610cb001528181611225015281816119b401528181611a1301528181611aba01528181611b920152611ca30152f35b60405162461bcd60e51b815260206004820152600e60248201526d1c5d5bdd19481c995c5d5a5c995960921b6044820152606490fd5b60405162461bcd60e51b815260206004820152600e60248201526d1d1bdad95b881c995c5d5a5c995960921b6044820152606490fd5b600080fd5b634e487b7160e01b600052604160045260246000fd5b51906001600160a01b03821682036200019a5756fe608060408181526004918236101561001657600080fd5b600092833560e01c9182630758d924146112a457508163158ef93e1461127d5781631ad15bbc14611254578163217a4b701461121057816324a9d853146111f15781632760eca1146111d45781632a2c6972146110ee578163334041a6146110c7578163343ee3b7146110a8578163398482d8146110845781634329742d14610fd3578163452e68dd14610faa5781634690484014610f825781634beb394c14610f6357816352b86d2b146101f4578163649249d314610f445781636818735c14610be85781637f544e4914610bc95781638c575aa314610aba57816395564837146108cb5781639da771f4146105ef578163a64190c41461089d578163a8cec45f14610691578163aca6b65a14610671578163c45a01551461062d578163cbcb31711461060e578163d62ccb3f146105ef578163d79875eb1461025a578163e1a452181461023d578163e7c2b77214610216578163f5596626146101f457508063f95a02d0146101d65763fc0c546a1461019057600080fd5b346101d257816003193601126101d257517f00000000000000000000000000000000000000000000000000000000000000006001600160a01b03168152602090f35b5080fd5b50346101d257816003193601126101d2576020906006549051908152f35b90503461021257826003193601126102125760209250549051908152f35b8280fd5b5050346101d257816003193601126101d25760209060ff60085460b01c1690519015158152f35b5050346101d257816003193601126101d257602090516127108152f35b919050346102125761026b366112e4565b926008549161028060ff8460b81c1615611474565b60ff60b81b19928316600160b81b1760088190556102b49060ff906102aa60a882901c83166114ad565b60b01c161561159b565b6102bf8115156117e8565b6102c881611ff1565b956102d48715156115d3565b60025487116105ac576127106102ec600154896112fa565b04906103046102fb838a61152b565b97881015611615565b85516323b872dd60e01b8152338186019081523060208281019190915260408201869052996001600160a01b03969290918b90829081906060010381878b7f0000000000000000000000000000000000000000000000000000000000000000165af19081156105a2579161038761039e928c95948e8892610585575b5050611722565b610393876003546113fa565b60035560025461152b565b600255875163a9059cbb60e01b8082523383830190815260208101949094527f000000000000000000000000000000000000000000000000000000000000000088169790939091908c90829081906040010381888c5af190811561057b578c93929161041191879161055e575b5061169c565b856104b4575b50505050506104a47f979d7dfe5ba2269a5f9d4eb1050fb4e24587c61b13db43d174af3c3171added69186517f846c37eef631e0943682d87352ec117c20008eb7f425c9b85ac011a6d4774cc0339180610484858d8a846040919493926060820195825260208201520152565b0390a2865193845260208401889052604084015233929081906060820190565b0390a36008541660085551908152f35b84548a51948552166001600160a01b03169083019081526020810185905282908190604001038185895af1918215610553576104a4927f979d7dfe5ba2269a5f9d4eb1050fb4e24587c61b13db43d174af3c3171added6949261051d9291610526575b506116e0565b91883880610417565b61054691508b3d8d1161054c575b61053e818361164c565b810190611684565b38610517565b503d610534565b8751903d90823e3d90fd5b6105759150853d871161054c5761053e818361164c565b3861040b565b8a513d87823e3d90fd5b61059b9250803d1061054c5761053e818361164c565b388e610380565b89513d86823e3d90fd5b845162461bcd60e51b8152602081850152601a60248201527f696e73756666696369656e742071756f746520726573657276650000000000006044820152606490fd5b5050346101d257816003193601126101d2576020906002549051908152f35b5050346101d257816003193601126101d2576020906003549051908152f35b5050346101d257816003193601126101d257517f00000000000000000000000000000000000000000000000000000000000000006001600160a01b03168152602090f35b5050346101d257816003193601126101d2576020905164e8d4a510008152f35b919050346102125760e0366003190112610212576106ad6112c9565b916001600160a01b039160a43583811692608435916064359160443591602435908790036108995760c4359780891680990361089557610710817f0000000000000000000000000000000000000000000000000000000000000000163314611384565b6008549960ff8b60a01c1661085c57169586156108215761073561012c8311156113bf565b83156107e65784156107ab575061074d851515611766565b8661079b575b6bffffffffffffffffffffffff60a01b95868b5416178a55600155556005556006556007541617600755600160a01b916affffffffffffffffffffff60a81b16171760085580f35b6107a68815156117a4565b610753565b5162461bcd60e51b815260208184015260166024820152751d9a5c9d1d585b081d1bdad95b881c995c5d5a5c995960521b6044820152606490fd5b5162461bcd60e51b815260208184015260166024820152751d9a5c9d1d585b081c5d5bdd19481c995c5d5a5c995960521b6044820152606490fd5b5162461bcd60e51b81526020818401526016602482015275199959481c9958da5c1a595b9d081c995c5d5a5c995960521b6044820152606490fd5b875162461bcd60e51b81526020818601526013602482015272185b1c9958591e481a5b9a5d1a585b1a5e9959606a1b6044820152606490fd5b8a80fd5b8980fd5b905082346108c85760203660031901126108c857506108bc903561182c565b82519182526020820152f35b80fd5b839150346101d25760209081600319360112610212578035906001600160a01b039061091a337f0000000000000000000000000000000000000000000000000000000000000000841614611384565b6008549160ff8360a81c16610a865760ff8360a01c1615610a5157846024916109448615156117e8565b88516370a0823160e01b8152308582015292839182907f0000000000000000000000000000000000000000000000000000000000000000165afa908115610a47579084918791610a12575b50106109d9575060ff60a81b1916600160a81b176008556003819055925192835290917fa71ed34ff06af8d6865a8f541aae52d72fa89f0e5ee15f01d48fa6c62c8569149190a180f35b855162461bcd60e51b81529081018490526013602482015272696e73756666696369656e7420746f6b656e7360681b6044820152606490fd5b809250868092503d8311610a40575b610a2b818361164c565b81010312610a3c578390518861098f565b8580fd5b503d610a21565b87513d88823e3d90fd5b865162461bcd60e51b8152808301869052600f60248201526e1b9bdd081a5b9a5d1a585b1a5e9959608a1b6044820152606490fd5b865162461bcd60e51b8152808301869052600e60248201526d185b1c9958591e481cd95959195960921b6044820152606490fd5b5050346101d25760603660031901126101d257610ad56112c9565b602435906001600160a01b0380831690818403610a3c577fbcdc4bff84f936019028a7bcbef6b449550d6334606377b822720e57e94276c494610bb39260443592610b43817f0000000000000000000000000000000000000000000000000000000000000000163314611384565b60085490610b5760ff8360b01c16156114eb565b610b62851515611766565b86169081610bb9575b600780546001600160a01b0319908116909317905516176008556006829055516001600160a01b03938416815292909316602083015260408201929092529081906060820190565b0390a180f35b610bc48315156117a4565b610b6b565b5050346101d257816003193601126101d257602090600a549051908152f35b8383346101d257610bf8366112e4565b9260085491610c0d60ff8460b81c1615611474565b60ff60b81b19928316600160b81b176008819055610c379060ff906102aa60a882901c83166114ad565b8015610f1057612710610c4c600154836112fa565b04610c57818361152b565b92610c78610c6485611f6a565b97610c708915156115d3565b881015611615565b6003548711610ed45785516323b872dd60e01b8152338982019081523060208083019190915260408201869052996001600160a01b037f00000000000000000000000000000000000000000000000000000000000000008116979390928c90829081906060010381888c5af190811561057b5791610d008d94928d948891610eb7575061169c565b86610e38575b610d15610d54956002546113fa565b600255610d248360035461152b565b6003558a5163a9059cbb60e01b815233918101918252602082019390935291938492839187918391604090910190565b03927f0000000000000000000000000000000000000000000000000000000000000000165af19182156105535788927fef15014c0b5775df7c57e26f3ddd7a80b0c875a3b685fd3b7121b5a6bf5bb3ff9492610db69291610e1b575b50611722565b8651848152602081018290526040810183905233907fbeae048c6d270d9469f86cf6e8fedda3c60ad770f16c24c9fc131c8e9a09101d90606090a28651938452602084015260408301523391606090a3610e0e611fc6565b6008541660085551908152f35b610e3291508b3d8d1161054c5761053e818361164c565b8b610db0565b85548b5163a9059cbb60e01b81529083166001600160a01b0316828201908152602081018990529295919491935091829081906040010381888c5af190811561057b5792610d158c93610e988f9694610d5498958a91610ea057506116e0565b955050610d06565b6105469150883d8a1161054c5761053e818361164c565b610ece9150863d881161054c5761053e818361164c565b8f61040b565b855162461bcd60e51b81526020818a01526016602482015275696e73756666696369656e74206c697175696469747960501b6044820152606490fd5b835162461bcd60e51b8152602081880152600e60248201526d1c5d5bdd19481c995c5d5a5c995960921b6044820152606490fd5b5050346101d257816003193601126101d2576020906006549051908152f35b905082346108c85760203660031901126108c857506108bc9035611538565b5050346101d257816003193601126101d257905490516001600160a01b039091168152602090f35b5050346101d257816003193601126101d25760085490516001600160a01b039091168152602090f35b90503461021257826003193601126102125760085491610ff960ff8460b81c1615611474565b60ff60b81b19928316600160b81b17600881905561102d9060ff9061102360a882901c83166114ad565b60b01c16156114eb565b6002546006541161104c57505061104261188a565b6008541660085580f35b906020606492519162461bcd60e51b835282015260126024820152711d185c99d95d081b9bdd081c995858da195960721b6044820152fd5b5050346101d257816003193601126101d2576020906110a1611407565b9051908152f35b5050346101d257816003193601126101d2576020906005549051908152f35b5050346101d257816003193601126101d25760209060ff60085460a81c1690519015158152f35b919050346102125780600319360112610212576111096112c9565b60243591906001600160a01b0390611144337f0000000000000000000000000000000000000000000000000000000000000000841614611384565b1692831561119d57508160209161118061012c7fe42708d93b95810922305119a3271ca42233da9ebe1e1e503f0e887817a32c7a9511156113bf565b85546001600160a01b03191685178655600182905551908152a280f35b6020606492519162461bcd60e51b835282015260126024820152711c9958da5c1a595b9d081c995c5d5a5c995960721b6044820152fd5b5050346101d257816003193601126101d2576020906110a1611343565b5050346101d257816003193601126101d2576020906001549051908152f35b5050346101d257816003193601126101d257517f00000000000000000000000000000000000000000000000000000000000000006001600160a01b03168152602090f35b5050346101d257816003193601126101d25760095490516001600160a01b039091168152602090f35b5050346101d257816003193601126101d25760209060ff60085460a01c1690519015158152f35b8490346101d257816003193601126101d2576007546001600160a01b03168152602090f35b600435906001600160a01b03821682036112df57565b600080fd5b60409060031901126112df576004359060243590565b8181029291811591840414171561130d57565b634e487b7160e01b600052601160045260246000fd5b811561132d570490565b634e487b7160e01b600052601260045260246000fd5b600654801561137e57600254612710918282029180830484149015171561130d5761136d91611323565b90808211611379575090565b905090565b50600090565b1561138b57565b60405162461bcd60e51b815260206004820152600c60248201526b6f6e6c7920666163746f727960a01b6044820152606490fd5b156113c657565b60405162461bcd60e51b815260206004820152600c60248201526b0cccaca40e8dede40d0d2ced60a31b6044820152606490fd5b9190820180921161130d57565b611416600354600554906113fa565b801561137e5761142b600254600454906113fa565b9064e8d4a510009182810292818404148115171561130d576c0c9f2c9cd04674edea400000000291808304670de0b6b3a7640000149015171561130d5761147191611323565b90565b1561147b57565b60405162461bcd60e51b815260206004820152600a6024820152697265656e7472616e637960b01b6044820152606490fd5b156114b457565b60405162461bcd60e51b815260206004820152600f60248201526e1c1bdbdb081b9bdd081cd959591959608a1b6044820152606490fd5b156114f257565b60405162461bcd60e51b8152602060048201526011602482015270185b1c9958591e4819dc98591d585d1959607a1b6044820152606490fd5b9190820391821161130d57565b60085460ff8160a81c161590811561158d575b508015611585575b61157c5761157961157461271061156c600154856112fa565b04809361152b565b611f6a565b91565b50600090600090565b508015611553565b60ff915060b01c163861154b565b156115a257565b60405162461bcd60e51b815260206004820152600960248201526819dc98591d585d195960ba1b6044820152606490fd5b156115da57565b60405162461bcd60e51b81526020600482015260136024820152721a5b9cdd59999a58da595b9d081bdd5d1c1d5d606a1b6044820152606490fd5b1561161c57565b60405162461bcd60e51b8152602060048201526008602482015267736c69707061676560c01b6044820152606490fd5b90601f8019910116810190811067ffffffffffffffff82111761166e57604052565b634e487b7160e01b600052604160045260246000fd5b908160209103126112df575180151581036112df5790565b156116a357565b60405162461bcd60e51b81526020600482015260156024820152741c5d5bdd19481d1c985b9cd9995c8819985a5b1959605a1b6044820152606490fd5b156116e757565b60405162461bcd60e51b8152602060048201526013602482015272199959481d1c985b9cd9995c8819985a5b1959606a1b6044820152606490fd5b1561172957565b60405162461bcd60e51b81526020600482015260156024820152741d1bdad95b881d1c985b9cd9995c8819985a5b1959605a1b6044820152606490fd5b1561176d57565b60405162461bcd60e51b815260206004820152600f60248201526e1d185c99d95d081c995c5d5a5c9959608a1b6044820152606490fd5b156117ab57565b60405162461bcd60e51b81526020600482015260156024820152741b1c081c9958da5c1a595b9d081c995c5d5a5c9959605a1b6044820152606490fd5b156117ef57565b60405162461bcd60e51b81526020600482015260156024820152741d1bdad95b88185b5bdd5b9d081c995c5d5a5c9959605a1b6044820152606490fd5b60085460ff8160a81c161590811561187c575b508015611874575b61157c5761185490611ff1565b801561157c5761157961271061186c600154846112fa565b04809261152b565b508015611847565b60ff915060b01c163861183f565b6007546001600160a01b03168015611f3057600160b01b60ff60b01b19600854161760085542600a55600354600254600060035560006002556040519263095ea7b360e01b908185526004850152600060248501526044936020818681600060018060a01b037f0000000000000000000000000000000000000000000000000000000000000000165af18015611d4b57611f11575b506007546040518281526001600160a01b039091166004820152602481018490526020818060448101038160007f00000000000000000000000000000000000000000000000000000000000000006001600160a01b03165af18015611d4b57611ef2575b506007546040518281526001600160a01b0391821660048201526000602482018190529092916020918491889183917f0000000000000000000000000000000000000000000000000000000000000000165af1908115611d4b578392602092611ed5575b506007546040519182526001600160a01b031660048201526024810192909252818060448101038160007f00000000000000000000000000000000000000000000000000000000000000006001600160a01b03165af18015611d4b57611eb6575b506007546008546001600160a01b0391821694911642610e10810190811061130d576101046060926000604051988994859362e8e33760e81b855260018060a01b037f000000000000000000000000000000000000000000000000000000000000000016600486015260018060a01b037f00000000000000000000000000000000000000000000000000000000000000001660248601528a898601528960648601528360848601528360a486015260c485015260e48401525af1918215611d4b57600093600095600094611e70575b5060075460405163c45a015560e01b815290602090829060049082906001600160a01b03165afa908115611d4b578491602091600091611e53575b5060405163e6a4390560e01b81526001600160a01b037f0000000000000000000000000000000000000000000000000000000000000000811660048301527f0000000000000000000000000000000000000000000000000000000000000000811660248301529093849290918391165afa908115611d4b57600091611e24575b5060018060a01b03166bffffffffffffffffffffffff60a01b6009541617600955848111611d57575b50848111611c50575b50507f71aa8c3702dbbc54247a4e6446450e64a46250dd72707a247ddb01d72eaef4459160809160018060a01b03600954169460405192835260208301526040820152426060820152a2565b600054611c9d916020916001600160a01b031690611c6f90889061152b565b60405163a9059cbb60e01b81526001600160a01b039092166004830152602482015291829081906044820190565b038160007f00000000000000000000000000000000000000000000000000000000000000006001600160a01b03165af1908115611d4b57600091611d2c575b5015611ce85780611c04565b6064907f71756f74652064757374207472616e73666572206661696c65640000000000006040519162461bcd60e51b835260206004840152601a6024840152820152fd5b611d45915060203d60201161054c5761053e818361164c565b38611cdc565b6040513d6000823e3d90fd5b600054611d76916020916001600160a01b031690611c6f90889061152b565b038160007f00000000000000000000000000000000000000000000000000000000000000006001600160a01b03165af1908115611d4b57600091611e05575b5015611dc15738611bfb565b60405162461bcd60e51b815260206004820152601a60248201527f746f6b656e2064757374207472616e73666572206661696c656400000000000081840152606490fd5b611e1e915060203d60201161054c5761053e818361164c565b38611db5565b611e46915060203d602011611e4c575b611e3e818361164c565b810190612022565b38611bd2565b503d611e34565b611e6a9150823d8411611e4c57611e3e818361164c565b38611b52565b9450925093506060833d606011611eae575b81611e8f6060938361164c565b810103126112df57825193604060208501519401519493949238611b17565b3d9150611e82565b611ece9060203d60201161054c5761053e818361164c565b5038611a48565b611eeb90833d851161054c5761053e818361164c565b50386119e7565b611f0a9060203d60201161054c5761053e818361164c565b5038611983565b611f299060203d60201161054c5761053e818361164c565b503861191f565b60405162461bcd60e51b815260206004820152601260248201527119195e081c9bdd5d195c881b9bdd081cd95d60721b6044820152606490fd5b801561137e57611f7f600254600454906113fa565b90611fad60035492611fa7611f96600554866113fa565b93611fa185846112fa565b926113fa565b90611323565b80821115611fbe5761136d9161152b565b505050600090565b60ff60085460b01c168015611fe4575b611fe257611fe261188a565b565b5060025460065411611fd6565b60025490611fad612004600454846113fa565b91611fa7612017600354600554906113fa565b91611fa183866112fa565b908160209103126112df57516001600160a01b03811681036112df579056fea26469706673582212200b01d6da30d4ba38d175ad52e96d41a1e84e2f7bdd4b29fb4b59f80142f1c3a964736f6c63430008180033","opcodes":"PUSH1 0xE0 CALLVALUE PUSH3 0x19A JUMPI PUSH1 0x1F PUSH3 0x2242 CODESIZE DUP2 SWAP1 SUB SWAP2 DUP3 ADD PUSH1 0x1F NOT AND DUP4 ADD SWAP2 PUSH1 0x1 PUSH1 0x1 PUSH1 0x40 SHL SUB DUP4 GT DUP5 DUP5 LT OR PUSH3 0x19F JUMPI DUP1 DUP5 SWAP3 PUSH1 0x40 SWAP5 DUP6 MSTORE DUP4 CODECOPY DUP2 ADD SUB SLT PUSH3 0x19A JUMPI PUSH3 0x5A PUSH1 0x20 PUSH3 0x52 DUP4 PUSH3 0x1B5 JUMP JUMPDEST SWAP3 ADD PUSH3 0x1B5 JUMP JUMPDEST SWAP1 PUSH1 0x1 PUSH1 0x1 PUSH1 0xA0 SHL SUB DUP1 DUP3 AND ISZERO PUSH3 0x164 JUMPI DUP3 AND ISZERO PUSH3 0x12E JUMPI PUSH1 0xA0 MSTORE PUSH1 0xC0 MSTORE CALLER PUSH1 0x80 MSTORE PUSH1 0x40 MLOAD PUSH2 0x2077 SWAP1 DUP2 PUSH3 0x1CB DUP3 CODECOPY PUSH1 0x80 MLOAD DUP2 DUP2 DUP2 PUSH2 0x642 ADD MSTORE DUP2 DUP2 PUSH2 0x6E9 ADD MSTORE DUP2 DUP2 PUSH2 0x8F3 ADD MSTORE DUP2 DUP2 PUSH2 0xB1C ADD MSTORE PUSH2 0x111D ADD MSTORE PUSH1 0xA0 MLOAD DUP2 DUP2 DUP2 PUSH2 0x1A3 ADD MSTORE DUP2 DUP2 PUSH2 0x344 ADD MSTORE DUP2 DUP2 PUSH2 0x95C ADD MSTORE DUP2 DUP2 PUSH2 0xD58 ADD MSTORE DUP2 DUP2 PUSH2 0x18F2 ADD MSTORE DUP2 DUP2 PUSH2 0x194E ADD MSTORE DUP2 DUP2 PUSH2 0x1A8C ADD MSTORE DUP2 DUP2 PUSH2 0x1B6A ADD MSTORE PUSH2 0x1D7C ADD MSTORE PUSH1 0xC0 MLOAD DUP2 DUP2 DUP2 PUSH2 0x3BF ADD MSTORE DUP2 DUP2 PUSH2 0xCB0 ADD MSTORE DUP2 DUP2 PUSH2 0x1225 ADD MSTORE DUP2 DUP2 PUSH2 0x19B4 ADD MSTORE DUP2 DUP2 PUSH2 0x1A13 ADD MSTORE DUP2 DUP2 PUSH2 0x1ABA ADD MSTORE DUP2 DUP2 PUSH2 0x1B92 ADD MSTORE PUSH2 0x1CA3 ADD MSTORE RETURN JUMPDEST PUSH1 0x40 MLOAD PUSH3 0x461BCD PUSH1 0xE5 SHL DUP2 MSTORE PUSH1 0x20 PUSH1 0x4 DUP3 ADD MSTORE PUSH1 0xE PUSH1 0x24 DUP3 ADD MSTORE PUSH14 0x1C5D5BDD19481C995C5D5A5C9959 PUSH1 0x92 SHL PUSH1 0x44 DUP3 ADD MSTORE PUSH1 0x64 SWAP1 REVERT JUMPDEST PUSH1 0x40 MLOAD PUSH3 0x461BCD PUSH1 0xE5 SHL DUP2 MSTORE PUSH1 0x20 PUSH1 0x4 DUP3 ADD MSTORE PUSH1 0xE PUSH1 0x24 DUP3 ADD MSTORE PUSH14 0x1D1BDAD95B881C995C5D5A5C9959 PUSH1 0x92 SHL PUSH1 0x44 DUP3 ADD MSTORE PUSH1 0x64 SWAP1 REVERT JUMPDEST PUSH1 0x0 DUP1 REVERT JUMPDEST PUSH4 0x4E487B71 PUSH1 0xE0 SHL PUSH1 0x0 MSTORE PUSH1 0x41 PUSH1 0x4 MSTORE PUSH1 0x24 PUSH1 0x0 REVERT JUMPDEST MLOAD SWAP1 PUSH1 0x1 PUSH1 0x1 PUSH1 0xA0 SHL SUB DUP3 AND DUP3 SUB PUSH3 0x19A JUMPI JUMP INVALID PUSH1 0x80 PUSH1 0x40 DUP2 DUP2 MSTORE PUSH1 0x4 SWAP2 DUP3 CALLDATASIZE LT ISZERO PUSH2 0x16 JUMPI PUSH1 0x0 DUP1 REVERT JUMPDEST PUSH1 0x0 SWAP3 DUP4 CALLDATALOAD PUSH1 0xE0 SHR SWAP2 DUP3 PUSH4 0x758D924 EQ PUSH2 0x12A4 JUMPI POP DUP2 PUSH4 0x158EF93E EQ PUSH2 0x127D JUMPI DUP2 PUSH4 0x1AD15BBC EQ PUSH2 0x1254 JUMPI DUP2 PUSH4 0x217A4B70 EQ PUSH2 0x1210 JUMPI DUP2 PUSH4 0x24A9D853 EQ PUSH2 0x11F1 JUMPI DUP2 PUSH4 0x2760ECA1 EQ PUSH2 0x11D4 JUMPI DUP2 PUSH4 0x2A2C6972 EQ PUSH2 0x10EE JUMPI DUP2 PUSH4 0x334041A6 EQ PUSH2 0x10C7 JUMPI DUP2 PUSH4 0x343EE3B7 EQ PUSH2 0x10A8 JUMPI DUP2 PUSH4 0x398482D8 EQ PUSH2 0x1084 JUMPI DUP2 PUSH4 0x4329742D EQ PUSH2 0xFD3 JUMPI DUP2 PUSH4 0x452E68DD EQ PUSH2 0xFAA JUMPI DUP2 PUSH4 0x46904840 EQ PUSH2 0xF82 JUMPI DUP2 PUSH4 0x4BEB394C EQ PUSH2 0xF63 JUMPI DUP2 PUSH4 0x52B86D2B EQ PUSH2 0x1F4 JUMPI DUP2 PUSH4 0x649249D3 EQ PUSH2 0xF44 JUMPI DUP2 PUSH4 0x6818735C EQ PUSH2 0xBE8 JUMPI DUP2 PUSH4 0x7F544E49 EQ PUSH2 0xBC9 JUMPI DUP2 PUSH4 0x8C575AA3 EQ PUSH2 0xABA JUMPI DUP2 PUSH4 0x95564837 EQ PUSH2 0x8CB JUMPI DUP2 PUSH4 0x9DA771F4 EQ PUSH2 0x5EF JUMPI DUP2 PUSH4 0xA64190C4 EQ PUSH2 0x89D JUMPI DUP2 PUSH4 0xA8CEC45F EQ PUSH2 0x691 JUMPI DUP2 PUSH4 0xACA6B65A EQ PUSH2 0x671 JUMPI DUP2 PUSH4 0xC45A0155 EQ PUSH2 0x62D JUMPI DUP2 PUSH4 0xCBCB3171 EQ PUSH2 0x60E JUMPI DUP2 PUSH4 0xD62CCB3F EQ PUSH2 0x5EF JUMPI DUP2 PUSH4 0xD79875EB EQ PUSH2 0x25A JUMPI DUP2 PUSH4 0xE1A45218 EQ PUSH2 0x23D JUMPI DUP2 PUSH4 0xE7C2B772 EQ PUSH2 0x216 JUMPI DUP2 PUSH4 0xF5596626 EQ PUSH2 0x1F4 JUMPI POP DUP1 PUSH4 0xF95A02D0 EQ PUSH2 0x1D6 JUMPI PUSH4 0xFC0C546A EQ PUSH2 0x190 JUMPI PUSH1 0x0 DUP1 REVERT JUMPDEST CALLVALUE PUSH2 0x1D2 JUMPI DUP2 PUSH1 0x3 NOT CALLDATASIZE ADD SLT PUSH2 0x1D2 JUMPI MLOAD PUSH32 0x0 PUSH1 0x1 PUSH1 0x1 PUSH1 0xA0 SHL SUB AND DUP2 MSTORE PUSH1 0x20 SWAP1 RETURN JUMPDEST POP DUP1 REVERT JUMPDEST POP CALLVALUE PUSH2 0x1D2 JUMPI DUP2 PUSH1 0x3 NOT CALLDATASIZE ADD SLT PUSH2 0x1D2 JUMPI PUSH1 0x20 SWAP1 PUSH1 0x6 SLOAD SWAP1 MLOAD SWAP1 DUP2 MSTORE RETURN JUMPDEST SWAP1 POP CALLVALUE PUSH2 0x212 JUMPI DUP3 PUSH1 0x3 NOT CALLDATASIZE ADD SLT PUSH2 0x212 JUMPI PUSH1 0x20 SWAP3 POP SLOAD SWAP1 MLOAD SWAP1 DUP2 MSTORE RETURN JUMPDEST DUP3 DUP1 REVERT JUMPDEST POP POP CALLVALUE PUSH2 0x1D2 JUMPI DUP2 PUSH1 0x3 NOT CALLDATASIZE ADD SLT PUSH2 0x1D2 JUMPI PUSH1 0x20 SWAP1 PUSH1 0xFF PUSH1 0x8 SLOAD PUSH1 0xB0 SHR AND SWAP1 MLOAD SWAP1 ISZERO ISZERO DUP2 MSTORE RETURN JUMPDEST POP POP CALLVALUE PUSH2 0x1D2 JUMPI DUP2 PUSH1 0x3 NOT CALLDATASIZE ADD SLT PUSH2 0x1D2 JUMPI PUSH1 0x20 SWAP1 MLOAD PUSH2 0x2710 DUP2 MSTORE RETURN JUMPDEST SWAP2 SWAP1 POP CALLVALUE PUSH2 0x212 JUMPI PUSH2 0x26B CALLDATASIZE PUSH2 0x12E4 JUMP JUMPDEST SWAP3 PUSH1 0x8 SLOAD SWAP2 PUSH2 0x280 PUSH1 0xFF DUP5 PUSH1 0xB8 SHR AND ISZERO PUSH2 0x1474 JUMP JUMPDEST PUSH1 0xFF PUSH1 0xB8 SHL NOT SWAP3 DUP4 AND PUSH1 0x1 PUSH1 0xB8 SHL OR PUSH1 0x8 DUP2 SWAP1 SSTORE PUSH2 0x2B4 SWAP1 PUSH1 0xFF SWAP1 PUSH2 0x2AA PUSH1 0xA8 DUP3 SWAP1 SHR DUP4 AND PUSH2 0x14AD JUMP JUMPDEST PUSH1 0xB0 SHR AND ISZERO PUSH2 0x159B JUMP JUMPDEST PUSH2 0x2BF DUP2 ISZERO ISZERO PUSH2 0x17E8 JUMP JUMPDEST PUSH2 0x2C8 DUP2 PUSH2 0x1FF1 JUMP JUMPDEST SWAP6 PUSH2 0x2D4 DUP8 ISZERO ISZERO PUSH2 0x15D3 JUMP JUMPDEST PUSH1 0x2 SLOAD DUP8 GT PUSH2 0x5AC JUMPI PUSH2 0x2710 PUSH2 0x2EC PUSH1 0x1 SLOAD DUP10 PUSH2 0x12FA JUMP JUMPDEST DIV SWAP1 PUSH2 0x304 PUSH2 0x2FB DUP4 DUP11 PUSH2 0x152B JUMP JUMPDEST SWAP8 DUP9 LT ISZERO PUSH2 0x1615 JUMP JUMPDEST DUP6 MLOAD PUSH4 0x23B872DD PUSH1 0xE0 SHL DUP2 MSTORE CALLER DUP2 DUP7 ADD SWAP1 DUP2 MSTORE ADDRESS PUSH1 0x20 DUP3 DUP2 ADD SWAP2 SWAP1 SWAP2 MSTORE PUSH1 0x40 DUP3 ADD DUP7 SWAP1 MSTORE SWAP10 PUSH1 0x1 PUSH1 0x1 PUSH1 0xA0 SHL SUB SWAP7 SWAP3 SWAP1 SWAP2 DUP12 SWAP1 DUP3 SWAP1 DUP2 SWAP1 PUSH1 0x60 ADD SUB DUP2 DUP8 DUP12 PUSH32 0x0 AND GAS CALL SWAP1 DUP2 ISZERO PUSH2 0x5A2 JUMPI SWAP2 PUSH2 0x387 PUSH2 0x39E SWAP3 DUP13 SWAP6 SWAP5 DUP15 DUP9 SWAP3 PUSH2 0x585 JUMPI JUMPDEST POP POP PUSH2 0x1722 JUMP JUMPDEST PUSH2 0x393 DUP8 PUSH1 0x3 SLOAD PUSH2 0x13FA JUMP JUMPDEST PUSH1 0x3 SSTORE PUSH1 0x2 SLOAD PUSH2 0x152B JUMP JUMPDEST PUSH1 0x2 SSTORE DUP8 MLOAD PUSH4 0xA9059CBB PUSH1 0xE0 SHL DUP1 DUP3 MSTORE CALLER DUP4 DUP4 ADD SWAP1 DUP2 MSTORE PUSH1 0x20 DUP2 ADD SWAP5 SWAP1 SWAP5 MSTORE PUSH32 0x0 DUP9 AND SWAP8 SWAP1 SWAP4 SWAP1 SWAP2 SWAP1 DUP13 SWAP1 DUP3 SWAP1 DUP2 SWAP1 PUSH1 0x40 ADD SUB DUP2 DUP9 DUP13 GAS CALL SWAP1 DUP2 ISZERO PUSH2 0x57B JUMPI DUP13 SWAP4 SWAP3 SWAP2 PUSH2 0x411 SWAP2 DUP8 SWAP2 PUSH2 0x55E JUMPI JUMPDEST POP PUSH2 0x169C JUMP JUMPDEST DUP6 PUSH2 0x4B4 JUMPI JUMPDEST POP POP POP POP POP PUSH2 0x4A4 PUSH32 0x979D7DFE5BA2269A5F9D4EB1050FB4E24587C61B13DB43D174AF3C3171ADDED6 SWAP2 DUP7 MLOAD PUSH32 0x846C37EEF631E0943682D87352EC117C20008EB7F425C9B85AC011A6D4774CC0 CALLER SWAP2 DUP1 PUSH2 0x484 DUP6 DUP14 DUP11 DUP5 PUSH1 0x40 SWAP2 SWAP5 SWAP4 SWAP3 PUSH1 0x60 DUP3 ADD SWAP6 DUP3 MSTORE PUSH1 0x20 DUP3 ADD MSTORE ADD MSTORE JUMP JUMPDEST SUB SWAP1 LOG2 DUP7 MLOAD SWAP4 DUP5 MSTORE PUSH1 0x20 DUP5 ADD DUP9 SWAP1 MSTORE PUSH1 0x40 DUP5 ADD MSTORE CALLER SWAP3 SWAP1 DUP2 SWAP1 PUSH1 0x60 DUP3 ADD SWAP1 JUMP JUMPDEST SUB SWAP1 LOG3 PUSH1 0x8 SLOAD AND PUSH1 0x8 SSTORE MLOAD SWAP1 DUP2 MSTORE RETURN JUMPDEST DUP5 SLOAD DUP11 MLOAD SWAP5 DUP6 MSTORE AND PUSH1 0x1 PUSH1 0x1 PUSH1 0xA0 SHL SUB AND SWAP1 DUP4 ADD SWAP1 DUP2 MSTORE PUSH1 0x20 DUP2 ADD DUP6 SWAP1 MSTORE DUP3 SWAP1 DUP2 SWAP1 PUSH1 0x40 ADD SUB DUP2 DUP6 DUP10 GAS CALL SWAP2 DUP3 ISZERO PUSH2 0x553 JUMPI PUSH2 0x4A4 SWAP3 PUSH32 0x979D7DFE5BA2269A5F9D4EB1050FB4E24587C61B13DB43D174AF3C3171ADDED6 SWAP5 SWAP3 PUSH2 0x51D SWAP3 SWAP2 PUSH2 0x526 JUMPI JUMPDEST POP PUSH2 0x16E0 JUMP JUMPDEST SWAP2 DUP9 CODESIZE DUP1 PUSH2 0x417 JUMP JUMPDEST PUSH2 0x546 SWAP2 POP DUP12 RETURNDATASIZE DUP14 GT PUSH2 0x54C JUMPI JUMPDEST PUSH2 0x53E DUP2 DUP4 PUSH2 0x164C JUMP JUMPDEST DUP2 ADD SWAP1 PUSH2 0x1684 JUMP JUMPDEST CODESIZE PUSH2 0x517 JUMP JUMPDEST POP RETURNDATASIZE PUSH2 0x534 JUMP JUMPDEST DUP8 MLOAD SWAP1 RETURNDATASIZE SWAP1 DUP3 RETURNDATACOPY RETURNDATASIZE SWAP1 REVERT JUMPDEST PUSH2 0x575 SWAP2 POP DUP6 RETURNDATASIZE DUP8 GT PUSH2 0x54C JUMPI PUSH2 0x53E DUP2 DUP4 PUSH2 0x164C JUMP JUMPDEST CODESIZE PUSH2 0x40B JUMP JUMPDEST DUP11 MLOAD RETURNDATASIZE DUP8 DUP3 RETURNDATACOPY RETURNDATASIZE SWAP1 REVERT JUMPDEST PUSH2 0x59B SWAP3 POP DUP1 RETURNDATASIZE LT PUSH2 0x54C JUMPI PUSH2 0x53E DUP2 DUP4 PUSH2 0x164C JUMP JUMPDEST CODESIZE DUP15 PUSH2 0x380 JUMP JUMPDEST DUP10 MLOAD RETURNDATASIZE DUP7 DUP3 RETURNDATACOPY RETURNDATASIZE SWAP1 REVERT JUMPDEST DUP5 MLOAD PUSH3 0x461BCD PUSH1 0xE5 SHL DUP2 MSTORE PUSH1 0x20 DUP2 DUP6 ADD MSTORE PUSH1 0x1A PUSH1 0x24 DUP3 ADD MSTORE PUSH32 0x696E73756666696369656E742071756F74652072657365727665000000000000 PUSH1 0x44 DUP3 ADD MSTORE PUSH1 0x64 SWAP1 REVERT JUMPDEST POP POP CALLVALUE PUSH2 0x1D2 JUMPI DUP2 PUSH1 0x3 NOT CALLDATASIZE ADD SLT PUSH2 0x1D2 JUMPI PUSH1 0x20 SWAP1 PUSH1 0x2 SLOAD SWAP1 MLOAD SWAP1 DUP2 MSTORE RETURN JUMPDEST POP POP CALLVALUE PUSH2 0x1D2 JUMPI DUP2 PUSH1 0x3 NOT CALLDATASIZE ADD SLT PUSH2 0x1D2 JUMPI PUSH1 0x20 SWAP1 PUSH1 0x3 SLOAD SWAP1 MLOAD SWAP1 DUP2 MSTORE RETURN JUMPDEST POP POP CALLVALUE PUSH2 0x1D2 JUMPI DUP2 PUSH1 0x3 NOT CALLDATASIZE ADD SLT PUSH2 0x1D2 JUMPI MLOAD PUSH32 0x0 PUSH1 0x1 PUSH1 0x1 PUSH1 0xA0 SHL SUB AND DUP2 MSTORE PUSH1 0x20 SWAP1 RETURN JUMPDEST POP POP CALLVALUE PUSH2 0x1D2 JUMPI DUP2 PUSH1 0x3 NOT CALLDATASIZE ADD SLT PUSH2 0x1D2 JUMPI PUSH1 0x20 SWAP1 MLOAD PUSH5 0xE8D4A51000 DUP2 MSTORE RETURN JUMPDEST SWAP2 SWAP1 POP CALLVALUE PUSH2 0x212 JUMPI PUSH1 0xE0 CALLDATASIZE PUSH1 0x3 NOT ADD SLT PUSH2 0x212 JUMPI PUSH2 0x6AD PUSH2 0x12C9 JUMP JUMPDEST SWAP2 PUSH1 0x1 PUSH1 0x1 PUSH1 0xA0 SHL SUB SWAP2 PUSH1 0xA4 CALLDATALOAD DUP4 DUP2 AND SWAP3 PUSH1 0x84 CALLDATALOAD SWAP2 PUSH1 0x64 CALLDATALOAD SWAP2 PUSH1 0x44 CALLDATALOAD SWAP2 PUSH1 0x24 CALLDATALOAD SWAP1 DUP8 SWAP1 SUB PUSH2 0x899 JUMPI PUSH1 0xC4 CALLDATALOAD SWAP8 DUP1 DUP10 AND DUP1 SWAP10 SUB PUSH2 0x895 JUMPI PUSH2 0x710 DUP2 PUSH32 0x0 AND CALLER EQ PUSH2 0x1384 JUMP JUMPDEST PUSH1 0x8 SLOAD SWAP10 PUSH1 0xFF DUP12 PUSH1 0xA0 SHR AND PUSH2 0x85C JUMPI AND SWAP6 DUP7 ISZERO PUSH2 0x821 JUMPI PUSH2 0x735 PUSH2 0x12C DUP4 GT ISZERO PUSH2 0x13BF JUMP JUMPDEST DUP4 ISZERO PUSH2 0x7E6 JUMPI DUP5 ISZERO PUSH2 0x7AB JUMPI POP PUSH2 0x74D DUP6 ISZERO ISZERO PUSH2 0x1766 JUMP JUMPDEST DUP7 PUSH2 0x79B JUMPI JUMPDEST PUSH12 0xFFFFFFFFFFFFFFFFFFFFFFFF PUSH1 0xA0 SHL SWAP6 DUP7 DUP12 SLOAD AND OR DUP11 SSTORE PUSH1 0x1 SSTORE SSTORE PUSH1 0x5 SSTORE PUSH1 0x6 SSTORE PUSH1 0x7 SLOAD AND OR PUSH1 0x7 SSTORE PUSH1 0x1 PUSH1 0xA0 SHL SWAP2 PUSH11 0xFFFFFFFFFFFFFFFFFFFFFF PUSH1 0xA8 SHL AND OR OR PUSH1 0x8 SSTORE DUP1 RETURN JUMPDEST PUSH2 0x7A6 DUP9 ISZERO ISZERO PUSH2 0x17A4 JUMP JUMPDEST PUSH2 0x753 JUMP JUMPDEST MLOAD PUSH3 0x461BCD PUSH1 0xE5 SHL DUP2 MSTORE PUSH1 0x20 DUP2 DUP5 ADD MSTORE PUSH1 0x16 PUSH1 0x24 DUP3 ADD MSTORE PUSH22 0x1D9A5C9D1D585B081D1BDAD95B881C995C5D5A5C9959 PUSH1 0x52 SHL PUSH1 0x44 DUP3 ADD MSTORE PUSH1 0x64 SWAP1 REVERT JUMPDEST MLOAD PUSH3 0x461BCD PUSH1 0xE5 SHL DUP2 MSTORE PUSH1 0x20 DUP2 DUP5 ADD MSTORE PUSH1 0x16 PUSH1 0x24 DUP3 ADD MSTORE PUSH22 0x1D9A5C9D1D585B081C5D5BDD19481C995C5D5A5C9959 PUSH1 0x52 SHL PUSH1 0x44 DUP3 ADD MSTORE PUSH1 0x64 SWAP1 REVERT JUMPDEST MLOAD PUSH3 0x461BCD PUSH1 0xE5 SHL DUP2 MSTORE PUSH1 0x20 DUP2 DUP5 ADD MSTORE PUSH1 0x16 PUSH1 0x24 DUP3 ADD MSTORE PUSH22 0x199959481C9958DA5C1A595B9D081C995C5D5A5C9959 PUSH1 0x52 SHL PUSH1 0x44 DUP3 ADD MSTORE PUSH1 0x64 SWAP1 REVERT JUMPDEST DUP8 MLOAD PUSH3 0x461BCD PUSH1 0xE5 SHL DUP2 MSTORE PUSH1 0x20 DUP2 DUP7 ADD MSTORE PUSH1 0x13 PUSH1 0x24 DUP3 ADD MSTORE PUSH19 0x185B1C9958591E481A5B9A5D1A585B1A5E9959 PUSH1 0x6A SHL PUSH1 0x44 DUP3 ADD MSTORE PUSH1 0x64 SWAP1 REVERT JUMPDEST DUP11 DUP1 REVERT JUMPDEST DUP10 DUP1 REVERT JUMPDEST SWAP1 POP DUP3 CALLVALUE PUSH2 0x8C8 JUMPI PUSH1 0x20 CALLDATASIZE PUSH1 0x3 NOT ADD SLT PUSH2 0x8C8 JUMPI POP PUSH2 0x8BC SWAP1 CALLDATALOAD PUSH2 0x182C JUMP JUMPDEST DUP3 MLOAD SWAP2 DUP3 MSTORE PUSH1 0x20 DUP3 ADD MSTORE RETURN JUMPDEST DUP1 REVERT JUMPDEST DUP4 SWAP2 POP CALLVALUE PUSH2 0x1D2 JUMPI PUSH1 0x20 SWAP1 DUP2 PUSH1 0x3 NOT CALLDATASIZE ADD SLT PUSH2 0x212 JUMPI DUP1 CALLDATALOAD SWAP1 PUSH1 0x1 PUSH1 0x1 PUSH1 0xA0 SHL SUB SWAP1 PUSH2 0x91A CALLER PUSH32 0x0 DUP5 AND EQ PUSH2 0x1384 JUMP JUMPDEST PUSH1 0x8 SLOAD SWAP2 PUSH1 0xFF DUP4 PUSH1 0xA8 SHR AND PUSH2 0xA86 JUMPI PUSH1 0xFF DUP4 PUSH1 0xA0 SHR AND ISZERO PUSH2 0xA51 JUMPI DUP5 PUSH1 0x24 SWAP2 PUSH2 0x944 DUP7 ISZERO ISZERO PUSH2 0x17E8 JUMP JUMPDEST DUP9 MLOAD PUSH4 0x70A08231 PUSH1 0xE0 SHL DUP2 MSTORE ADDRESS DUP6 DUP3 ADD MSTORE SWAP3 DUP4 SWAP2 DUP3 SWAP1 PUSH32 0x0 AND GAS STATICCALL SWAP1 DUP2 ISZERO PUSH2 0xA47 JUMPI SWAP1 DUP5 SWAP2 DUP8 SWAP2 PUSH2 0xA12 JUMPI JUMPDEST POP LT PUSH2 0x9D9 JUMPI POP PUSH1 0xFF PUSH1 0xA8 SHL NOT AND PUSH1 0x1 PUSH1 0xA8 SHL OR PUSH1 0x8 SSTORE PUSH1 0x3 DUP2 SWAP1 SSTORE SWAP3 MLOAD SWAP3 DUP4 MSTORE SWAP1 SWAP2 PUSH32 0xA71ED34FF06AF8D6865A8F541AAE52D72FA89F0E5EE15F01D48FA6C62C856914 SWAP2 SWAP1 LOG1 DUP1 RETURN JUMPDEST DUP6 MLOAD PUSH3 0x461BCD PUSH1 0xE5 SHL DUP2 MSTORE SWAP1 DUP2 ADD DUP5 SWAP1 MSTORE PUSH1 0x13 PUSH1 0x24 DUP3 ADD MSTORE PUSH19 0x696E73756666696369656E7420746F6B656E73 PUSH1 0x68 SHL PUSH1 0x44 DUP3 ADD MSTORE PUSH1 0x64 SWAP1 REVERT JUMPDEST DUP1 SWAP3 POP DUP7 DUP1 SWAP3 POP RETURNDATASIZE DUP4 GT PUSH2 0xA40 JUMPI JUMPDEST PUSH2 0xA2B DUP2 DUP4 PUSH2 0x164C JUMP JUMPDEST DUP2 ADD SUB SLT PUSH2 0xA3C JUMPI DUP4 SWAP1 MLOAD DUP9 PUSH2 0x98F JUMP JUMPDEST DUP6 DUP1 REVERT JUMPDEST POP RETURNDATASIZE PUSH2 0xA21 JUMP JUMPDEST DUP8 MLOAD RETURNDATASIZE DUP9 DUP3 RETURNDATACOPY RETURNDATASIZE SWAP1 REVERT JUMPDEST DUP7 MLOAD PUSH3 0x461BCD PUSH1 0xE5 SHL DUP2 MSTORE DUP1 DUP4 ADD DUP7 SWAP1 MSTORE PUSH1 0xF PUSH1 0x24 DUP3 ADD MSTORE PUSH15 0x1B9BDD081A5B9A5D1A585B1A5E9959 PUSH1 0x8A SHL PUSH1 0x44 DUP3 ADD MSTORE PUSH1 0x64 SWAP1 REVERT JUMPDEST DUP7 MLOAD PUSH3 0x461BCD PUSH1 0xE5 SHL DUP2 MSTORE DUP1 DUP4 ADD DUP7 SWAP1 MSTORE PUSH1 0xE PUSH1 0x24 DUP3 ADD MSTORE PUSH14 0x185B1C9958591E481CD959591959 PUSH1 0x92 SHL PUSH1 0x44 DUP3 ADD MSTORE PUSH1 0x64 SWAP1 REVERT JUMPDEST POP POP CALLVALUE PUSH2 0x1D2 JUMPI PUSH1 0x60 CALLDATASIZE PUSH1 0x3 NOT ADD SLT PUSH2 0x1D2 JUMPI PUSH2 0xAD5 PUSH2 0x12C9 JUMP JUMPDEST PUSH1 0x24 CALLDATALOAD SWAP1 PUSH1 0x1 PUSH1 0x1 PUSH1 0xA0 SHL SUB DUP1 DUP4 AND SWAP1 DUP2 DUP5 SUB PUSH2 0xA3C JUMPI PUSH32 0xBCDC4BFF84F936019028A7BCBEF6B449550D6334606377B822720E57E94276C4 SWAP5 PUSH2 0xBB3 SWAP3 PUSH1 0x44 CALLDATALOAD SWAP3 PUSH2 0xB43 DUP2 PUSH32 0x0 AND CALLER EQ PUSH2 0x1384 JUMP JUMPDEST PUSH1 0x8 SLOAD SWAP1 PUSH2 0xB57 PUSH1 0xFF DUP4 PUSH1 0xB0 SHR AND ISZERO PUSH2 0x14EB JUMP JUMPDEST PUSH2 0xB62 DUP6 ISZERO ISZERO PUSH2 0x1766 JUMP JUMPDEST DUP7 AND SWAP1 DUP2 PUSH2 0xBB9 JUMPI JUMPDEST PUSH1 0x7 DUP1 SLOAD PUSH1 0x1 PUSH1 0x1 PUSH1 0xA0 SHL SUB NOT SWAP1 DUP2 AND SWAP1 SWAP4 OR SWAP1 SSTORE AND OR PUSH1 0x8 SSTORE PUSH1 0x6 DUP3 SWAP1 SSTORE MLOAD PUSH1 0x1 PUSH1 0x1 PUSH1 0xA0 SHL SUB SWAP4 DUP5 AND DUP2 MSTORE SWAP3 SWAP1 SWAP4 AND PUSH1 0x20 DUP4 ADD MSTORE PUSH1 0x40 DUP3 ADD SWAP3 SWAP1 SWAP3 MSTORE SWAP1 DUP2 SWAP1 PUSH1 0x60 DUP3 ADD SWAP1 JUMP JUMPDEST SUB SWAP1 LOG1 DUP1 RETURN JUMPDEST PUSH2 0xBC4 DUP4 ISZERO ISZERO PUSH2 0x17A4 JUMP JUMPDEST PUSH2 0xB6B JUMP JUMPDEST POP POP CALLVALUE PUSH2 0x1D2 JUMPI DUP2 PUSH1 0x3 NOT CALLDATASIZE ADD SLT PUSH2 0x1D2 JUMPI PUSH1 0x20 SWAP1 PUSH1 0xA SLOAD SWAP1 MLOAD SWAP1 DUP2 MSTORE RETURN JUMPDEST DUP4 DUP4 CALLVALUE PUSH2 0x1D2 JUMPI PUSH2 0xBF8 CALLDATASIZE PUSH2 0x12E4 JUMP JUMPDEST SWAP3 PUSH1 0x8 SLOAD SWAP2 PUSH2 0xC0D PUSH1 0xFF DUP5 PUSH1 0xB8 SHR AND ISZERO PUSH2 0x1474 JUMP JUMPDEST PUSH1 0xFF PUSH1 0xB8 SHL NOT SWAP3 DUP4 AND PUSH1 0x1 PUSH1 0xB8 SHL OR PUSH1 0x8 DUP2 SWAP1 SSTORE PUSH2 0xC37 SWAP1 PUSH1 0xFF SWAP1 PUSH2 0x2AA PUSH1 0xA8 DUP3 SWAP1 SHR DUP4 AND PUSH2 0x14AD JUMP JUMPDEST DUP1 ISZERO PUSH2 0xF10 JUMPI PUSH2 0x2710 PUSH2 0xC4C PUSH1 0x1 SLOAD DUP4 PUSH2 0x12FA JUMP JUMPDEST DIV PUSH2 0xC57 DUP2 DUP4 PUSH2 0x152B JUMP JUMPDEST SWAP3 PUSH2 0xC78 PUSH2 0xC64 DUP6 PUSH2 0x1F6A JUMP JUMPDEST SWAP8 PUSH2 0xC70 DUP10 ISZERO ISZERO PUSH2 0x15D3 JUMP JUMPDEST DUP9 LT ISZERO PUSH2 0x1615 JUMP JUMPDEST PUSH1 0x3 SLOAD DUP8 GT PUSH2 0xED4 JUMPI DUP6 MLOAD PUSH4 0x23B872DD PUSH1 0xE0 SHL DUP2 MSTORE CALLER DUP10 DUP3 ADD SWAP1 DUP2 MSTORE ADDRESS PUSH1 0x20 DUP1 DUP4 ADD SWAP2 SWAP1 SWAP2 MSTORE PUSH1 0x40 DUP3 ADD DUP7 SWAP1 MSTORE SWAP10 PUSH1 0x1 PUSH1 0x1 PUSH1 0xA0 SHL SUB PUSH32 0x0 DUP2 AND SWAP8 SWAP4 SWAP1 SWAP3 DUP13 SWAP1 DUP3 SWAP1 DUP2 SWAP1 PUSH1 0x60 ADD SUB DUP2 DUP9 DUP13 GAS CALL SWAP1 DUP2 ISZERO PUSH2 0x57B JUMPI SWAP2 PUSH2 0xD00 DUP14 SWAP5 SWAP3 DUP14 SWAP5 DUP9 SWAP2 PUSH2 0xEB7 JUMPI POP PUSH2 0x169C JUMP JUMPDEST DUP7 PUSH2 0xE38 JUMPI JUMPDEST PUSH2 0xD15 PUSH2 0xD54 SWAP6 PUSH1 0x2 SLOAD PUSH2 0x13FA JUMP JUMPDEST PUSH1 0x2 SSTORE PUSH2 0xD24 DUP4 PUSH1 0x3 SLOAD PUSH2 0x152B JUMP JUMPDEST PUSH1 0x3 SSTORE DUP11 MLOAD PUSH4 0xA9059CBB PUSH1 0xE0 SHL DUP2 MSTORE CALLER SWAP2 DUP2 ADD SWAP2 DUP3 MSTORE PUSH1 0x20 DUP3 ADD SWAP4 SWAP1 SWAP4 MSTORE SWAP2 SWAP4 DUP5 SWAP3 DUP4 SWAP2 DUP8 SWAP2 DUP4 SWAP2 PUSH1 0x40 SWAP1 SWAP2 ADD SWAP1 JUMP JUMPDEST SUB SWAP3 PUSH32 0x0 AND GAS CALL SWAP2 DUP3 ISZERO PUSH2 0x553 JUMPI DUP9 SWAP3 PUSH32 0xEF15014C0B5775DF7C57E26F3DDD7A80B0C875A3B685FD3B7121B5A6BF5BB3FF SWAP5 SWAP3 PUSH2 0xDB6 SWAP3 SWAP2 PUSH2 0xE1B JUMPI JUMPDEST POP PUSH2 0x1722 JUMP JUMPDEST DUP7 MLOAD DUP5 DUP2 MSTORE PUSH1 0x20 DUP2 ADD DUP3 SWAP1 MSTORE PUSH1 0x40 DUP2 ADD DUP4 SWAP1 MSTORE CALLER SWAP1 PUSH32 0xBEAE048C6D270D9469F86CF6E8FEDDA3C60AD770F16C24C9FC131C8E9A09101D SWAP1 PUSH1 0x60 SWAP1 LOG2 DUP7 MLOAD SWAP4 DUP5 MSTORE PUSH1 0x20 DUP5 ADD MSTORE PUSH1 0x40 DUP4 ADD MSTORE CALLER SWAP2 PUSH1 0x60 SWAP1 LOG3 PUSH2 0xE0E PUSH2 0x1FC6 JUMP JUMPDEST PUSH1 0x8 SLOAD AND PUSH1 0x8 SSTORE MLOAD SWAP1 DUP2 MSTORE RETURN JUMPDEST PUSH2 0xE32 SWAP2 POP DUP12 RETURNDATASIZE DUP14 GT PUSH2 0x54C JUMPI PUSH2 0x53E DUP2 DUP4 PUSH2 0x164C JUMP JUMPDEST DUP12 PUSH2 0xDB0 JUMP JUMPDEST DUP6 SLOAD DUP12 MLOAD PUSH4 0xA9059CBB PUSH1 0xE0 SHL DUP2 MSTORE SWAP1 DUP4 AND PUSH1 0x1 PUSH1 0x1 PUSH1 0xA0 SHL SUB AND DUP3 DUP3 ADD SWAP1 DUP2 MSTORE PUSH1 0x20 DUP2 ADD DUP10 SWAP1 MSTORE SWAP3 SWAP6 SWAP2 SWAP5 SWAP2 SWAP4 POP SWAP2 DUP3 SWAP1 DUP2 SWAP1 PUSH1 0x40 ADD SUB DUP2 DUP9 DUP13 GAS CALL SWAP1 DUP2 ISZERO PUSH2 0x57B JUMPI SWAP3 PUSH2 0xD15 DUP13 SWAP4 PUSH2 0xE98 DUP16 SWAP7 SWAP5 PUSH2 0xD54 SWAP9 SWAP6 DUP11 SWAP2 PUSH2 0xEA0 JUMPI POP PUSH2 0x16E0 JUMP JUMPDEST SWAP6 POP POP PUSH2 0xD06 JUMP JUMPDEST PUSH2 0x546 SWAP2 POP DUP9 RETURNDATASIZE DUP11 GT PUSH2 0x54C JUMPI PUSH2 0x53E DUP2 DUP4 PUSH2 0x164C JUMP JUMPDEST PUSH2 0xECE SWAP2 POP DUP7 RETURNDATASIZE DUP9 GT PUSH2 0x54C JUMPI PUSH2 0x53E DUP2 DUP4 PUSH2 0x164C JUMP JUMPDEST DUP16 PUSH2 0x40B JUMP JUMPDEST DUP6 MLOAD PUSH3 0x461BCD PUSH1 0xE5 SHL DUP2 MSTORE PUSH1 0x20 DUP2 DUP11 ADD MSTORE PUSH1 0x16 PUSH1 0x24 DUP3 ADD MSTORE PUSH22 0x696E73756666696369656E74206C6971756964697479 PUSH1 0x50 SHL PUSH1 0x44 DUP3 ADD MSTORE PUSH1 0x64 SWAP1 REVERT JUMPDEST DUP4 MLOAD PUSH3 0x461BCD PUSH1 0xE5 SHL DUP2 MSTORE PUSH1 0x20 DUP2 DUP9 ADD MSTORE PUSH1 0xE PUSH1 0x24 DUP3 ADD MSTORE PUSH14 0x1C5D5BDD19481C995C5D5A5C9959 PUSH1 0x92 SHL PUSH1 0x44 DUP3 ADD MSTORE PUSH1 0x64 SWAP1 REVERT JUMPDEST POP POP CALLVALUE PUSH2 0x1D2 JUMPI DUP2 PUSH1 0x3 NOT CALLDATASIZE ADD SLT PUSH2 0x1D2 JUMPI PUSH1 0x20 SWAP1 PUSH1 0x6 SLOAD SWAP1 MLOAD SWAP1 DUP2 MSTORE RETURN JUMPDEST SWAP1 POP DUP3 CALLVALUE PUSH2 0x8C8 JUMPI PUSH1 0x20 CALLDATASIZE PUSH1 0x3 NOT ADD SLT PUSH2 0x8C8 JUMPI POP PUSH2 0x8BC SWAP1 CALLDATALOAD PUSH2 0x1538 JUMP JUMPDEST POP POP CALLVALUE PUSH2 0x1D2 JUMPI DUP2 PUSH1 0x3 NOT CALLDATASIZE ADD SLT PUSH2 0x1D2 JUMPI SWAP1 SLOAD SWAP1 MLOAD PUSH1 0x1 PUSH1 0x1 PUSH1 0xA0 SHL SUB SWAP1 SWAP2 AND DUP2 MSTORE PUSH1 0x20 SWAP1 RETURN JUMPDEST POP POP CALLVALUE PUSH2 0x1D2 JUMPI DUP2 PUSH1 0x3 NOT CALLDATASIZE ADD SLT PUSH2 0x1D2 JUMPI PUSH1 0x8 SLOAD SWAP1 MLOAD PUSH1 0x1 PUSH1 0x1 PUSH1 0xA0 SHL SUB SWAP1 SWAP2 AND DUP2 MSTORE PUSH1 0x20 SWAP1 RETURN JUMPDEST SWAP1 POP CALLVALUE PUSH2 0x212 JUMPI DUP3 PUSH1 0x3 NOT CALLDATASIZE ADD SLT PUSH2 0x212 JUMPI PUSH1 0x8 SLOAD SWAP2 PUSH2 0xFF9 PUSH1 0xFF DUP5 PUSH1 0xB8 SHR AND ISZERO PUSH2 0x1474 JUMP JUMPDEST PUSH1 0xFF PUSH1 0xB8 SHL NOT SWAP3 DUP4 AND PUSH1 0x1 PUSH1 0xB8 SHL OR PUSH1 0x8 DUP2 SWAP1 SSTORE PUSH2 0x102D SWAP1 PUSH1 0xFF SWAP1 PUSH2 0x1023 PUSH1 0xA8 DUP3 SWAP1 SHR DUP4 AND PUSH2 0x14AD JUMP JUMPDEST PUSH1 0xB0 SHR AND ISZERO PUSH2 0x14EB JUMP JUMPDEST PUSH1 0x2 SLOAD PUSH1 0x6 SLOAD GT PUSH2 0x104C JUMPI POP POP PUSH2 0x1042 PUSH2 0x188A JUMP JUMPDEST PUSH1 0x8 SLOAD AND PUSH1 0x8 SSTORE DUP1 RETURN JUMPDEST SWAP1 PUSH1 0x20 PUSH1 0x64 SWAP3 MLOAD SWAP2 PUSH3 0x461BCD PUSH1 0xE5 SHL DUP4 MSTORE DUP3 ADD MSTORE PUSH1 0x12 PUSH1 0x24 DUP3 ADD MSTORE PUSH18 0x1D185C99D95D081B9BDD081C995858DA1959 PUSH1 0x72 SHL PUSH1 0x44 DUP3 ADD MSTORE REVERT JUMPDEST POP POP CALLVALUE PUSH2 0x1D2 JUMPI DUP2 PUSH1 0x3 NOT CALLDATASIZE ADD SLT PUSH2 0x1D2 JUMPI PUSH1 0x20 SWAP1 PUSH2 0x10A1 PUSH2 0x1407 JUMP JUMPDEST SWAP1 MLOAD SWAP1 DUP2 MSTORE RETURN JUMPDEST POP POP CALLVALUE PUSH2 0x1D2 JUMPI DUP2 PUSH1 0x3 NOT CALLDATASIZE ADD SLT PUSH2 0x1D2 JUMPI PUSH1 0x20 SWAP1 PUSH1 0x5 SLOAD SWAP1 MLOAD SWAP1 DUP2 MSTORE RETURN JUMPDEST POP POP CALLVALUE PUSH2 0x1D2 JUMPI DUP2 PUSH1 0x3 NOT CALLDATASIZE ADD SLT PUSH2 0x1D2 JUMPI PUSH1 0x20 SWAP1 PUSH1 0xFF PUSH1 0x8 SLOAD PUSH1 0xA8 SHR AND SWAP1 MLOAD SWAP1 ISZERO ISZERO DUP2 MSTORE RETURN JUMPDEST SWAP2 SWAP1 POP CALLVALUE PUSH2 0x212 JUMPI DUP1 PUSH1 0x3 NOT CALLDATASIZE ADD SLT PUSH2 0x212 JUMPI PUSH2 0x1109 PUSH2 0x12C9 JUMP JUMPDEST PUSH1 0x24 CALLDATALOAD SWAP2 SWAP1 PUSH1 0x1 PUSH1 0x1 PUSH1 0xA0 SHL SUB SWAP1 PUSH2 0x1144 CALLER PUSH32 0x0 DUP5 AND EQ PUSH2 0x1384 JUMP JUMPDEST AND SWAP3 DUP4 ISZERO PUSH2 0x119D JUMPI POP DUP2 PUSH1 0x20 SWAP2 PUSH2 0x1180 PUSH2 0x12C PUSH32 0xE42708D93B95810922305119A3271CA42233DA9EBE1E1E503F0E887817A32C7A SWAP6 GT ISZERO PUSH2 0x13BF JUMP JUMPDEST DUP6 SLOAD PUSH1 0x1 PUSH1 0x1 PUSH1 0xA0 SHL SUB NOT AND DUP6 OR DUP7 SSTORE PUSH1 0x1 DUP3 SWAP1 SSTORE MLOAD SWAP1 DUP2 MSTORE LOG2 DUP1 RETURN JUMPDEST PUSH1 0x20 PUSH1 0x64 SWAP3 MLOAD SWAP2 PUSH3 0x461BCD PUSH1 0xE5 SHL DUP4 MSTORE DUP3 ADD MSTORE PUSH1 0x12 PUSH1 0x24 DUP3 ADD MSTORE PUSH18 0x1C9958DA5C1A595B9D081C995C5D5A5C9959 PUSH1 0x72 SHL PUSH1 0x44 DUP3 ADD MSTORE REVERT JUMPDEST POP POP CALLVALUE PUSH2 0x1D2 JUMPI DUP2 PUSH1 0x3 NOT CALLDATASIZE ADD SLT PUSH2 0x1D2 JUMPI PUSH1 0x20 SWAP1 PUSH2 0x10A1 PUSH2 0x1343 JUMP JUMPDEST POP POP CALLVALUE PUSH2 0x1D2 JUMPI DUP2 PUSH1 0x3 NOT CALLDATASIZE ADD SLT PUSH2 0x1D2 JUMPI PUSH1 0x20 SWAP1 PUSH1 0x1 SLOAD SWAP1 MLOAD SWAP1 DUP2 MSTORE RETURN JUMPDEST POP POP CALLVALUE PUSH2 0x1D2 JUMPI DUP2 PUSH1 0x3 NOT CALLDATASIZE ADD SLT PUSH2 0x1D2 JUMPI MLOAD PUSH32 0x0 PUSH1 0x1 PUSH1 0x1 PUSH1 0xA0 SHL SUB AND DUP2 MSTORE PUSH1 0x20 SWAP1 RETURN JUMPDEST POP POP CALLVALUE PUSH2 0x1D2 JUMPI DUP2 PUSH1 0x3 NOT CALLDATASIZE ADD SLT PUSH2 0x1D2 JUMPI PUSH1 0x9 SLOAD SWAP1 MLOAD PUSH1 0x1 PUSH1 0x1 PUSH1 0xA0 SHL SUB SWAP1 SWAP2 AND DUP2 MSTORE PUSH1 0x20 SWAP1 RETURN JUMPDEST POP POP CALLVALUE PUSH2 0x1D2 JUMPI DUP2 PUSH1 0x3 NOT CALLDATASIZE ADD SLT PUSH2 0x1D2 JUMPI PUSH1 0x20 SWAP1 PUSH1 0xFF PUSH1 0x8 SLOAD PUSH1 0xA0 SHR AND SWAP1 MLOAD SWAP1 ISZERO ISZERO DUP2 MSTORE RETURN JUMPDEST DUP5 SWAP1 CALLVALUE PUSH2 0x1D2 JUMPI DUP2 PUSH1 0x3 NOT CALLDATASIZE ADD SLT PUSH2 0x1D2 JUMPI PUSH1 0x7 SLOAD PUSH1 0x1 PUSH1 0x1 PUSH1 0xA0 SHL SUB AND DUP2 MSTORE PUSH1 0x20 SWAP1 RETURN JUMPDEST PUSH1 0x4 CALLDATALOAD SWAP1 PUSH1 0x1 PUSH1 0x1 PUSH1 0xA0 SHL SUB DUP3 AND DUP3 SUB PUSH2 0x12DF JUMPI JUMP JUMPDEST PUSH1 0x0 DUP1 REVERT JUMPDEST PUSH1 0x40 SWAP1 PUSH1 0x3 NOT ADD SLT PUSH2 0x12DF JUMPI PUSH1 0x4 CALLDATALOAD SWAP1 PUSH1 0x24 CALLDATALOAD SWAP1 JUMP JUMPDEST DUP2 DUP2 MUL SWAP3 SWAP2 DUP2 ISZERO SWAP2 DUP5 DIV EQ OR ISZERO PUSH2 0x130D JUMPI JUMP JUMPDEST PUSH4 0x4E487B71 PUSH1 0xE0 SHL PUSH1 0x0 MSTORE PUSH1 0x11 PUSH1 0x4 MSTORE PUSH1 0x24 PUSH1 0x0 REVERT JUMPDEST DUP2 ISZERO PUSH2 0x132D JUMPI DIV SWAP1 JUMP JUMPDEST PUSH4 0x4E487B71 PUSH1 0xE0 SHL PUSH1 0x0 MSTORE PUSH1 0x12 PUSH1 0x4 MSTORE PUSH1 0x24 PUSH1 0x0 REVERT JUMPDEST PUSH1 0x6 SLOAD DUP1 ISZERO PUSH2 0x137E JUMPI PUSH1 0x2 SLOAD PUSH2 0x2710 SWAP2 DUP3 DUP3 MUL SWAP2 DUP1 DUP4 DIV DUP5 EQ SWAP1 ISZERO OR ISZERO PUSH2 0x130D JUMPI PUSH2 0x136D SWAP2 PUSH2 0x1323 JUMP JUMPDEST SWAP1 DUP1 DUP3 GT PUSH2 0x1379 JUMPI POP SWAP1 JUMP JUMPDEST SWAP1 POP SWAP1 JUMP JUMPDEST POP PUSH1 0x0 SWAP1 JUMP JUMPDEST ISZERO PUSH2 0x138B JUMPI JUMP JUMPDEST PUSH1 0x40 MLOAD PUSH3 0x461BCD PUSH1 0xE5 SHL DUP2 MSTORE PUSH1 0x20 PUSH1 0x4 DUP3 ADD MSTORE PUSH1 0xC PUSH1 0x24 DUP3 ADD MSTORE PUSH12 0x6F6E6C7920666163746F7279 PUSH1 0xA0 SHL PUSH1 0x44 DUP3 ADD MSTORE PUSH1 0x64 SWAP1 REVERT JUMPDEST ISZERO PUSH2 0x13C6 JUMPI JUMP JUMPDEST PUSH1 0x40 MLOAD PUSH3 0x461BCD PUSH1 0xE5 SHL DUP2 MSTORE PUSH1 0x20 PUSH1 0x4 DUP3 ADD MSTORE PUSH1 0xC PUSH1 0x24 DUP3 ADD MSTORE PUSH12 0xCCCACA40E8DEDE40D0D2CED PUSH1 0xA3 SHL PUSH1 0x44 DUP3 ADD MSTORE PUSH1 0x64 SWAP1 REVERT JUMPDEST SWAP2 SWAP1 DUP3 ADD DUP1 SWAP3 GT PUSH2 0x130D JUMPI JUMP JUMPDEST PUSH2 0x1416 PUSH1 0x3 SLOAD PUSH1 0x5 SLOAD SWAP1 PUSH2 0x13FA JUMP JUMPDEST DUP1 ISZERO PUSH2 0x137E JUMPI PUSH2 0x142B PUSH1 0x2 SLOAD PUSH1 0x4 SLOAD SWAP1 PUSH2 0x13FA JUMP JUMPDEST SWAP1 PUSH5 0xE8D4A51000 SWAP2 DUP3 DUP2 MUL SWAP3 DUP2 DUP5 DIV EQ DUP2 ISZERO OR ISZERO PUSH2 0x130D JUMPI PUSH13 0xC9F2C9CD04674EDEA40000000 MUL SWAP2 DUP1 DUP4 DIV PUSH8 0xDE0B6B3A7640000 EQ SWAP1 ISZERO OR ISZERO PUSH2 0x130D JUMPI PUSH2 0x1471 SWAP2 PUSH2 0x1323 JUMP JUMPDEST SWAP1 JUMP JUMPDEST ISZERO PUSH2 0x147B JUMPI JUMP JUMPDEST PUSH1 0x40 MLOAD PUSH3 0x461BCD PUSH1 0xE5 SHL DUP2 MSTORE PUSH1 0x20 PUSH1 0x4 DUP3 ADD MSTORE PUSH1 0xA PUSH1 0x24 DUP3 ADD MSTORE PUSH10 0x7265656E7472616E6379 PUSH1 0xB0 SHL PUSH1 0x44 DUP3 ADD MSTORE PUSH1 0x64 SWAP1 REVERT JUMPDEST ISZERO PUSH2 0x14B4 JUMPI JUMP JUMPDEST PUSH1 0x40 MLOAD PUSH3 0x461BCD PUSH1 0xE5 SHL DUP2 MSTORE PUSH1 0x20 PUSH1 0x4 DUP3 ADD MSTORE PUSH1 0xF PUSH1 0x24 DUP3 ADD MSTORE PUSH15 0x1C1BDBDB081B9BDD081CD959591959 PUSH1 0x8A SHL PUSH1 0x44 DUP3 ADD MSTORE PUSH1 0x64 SWAP1 REVERT JUMPDEST ISZERO PUSH2 0x14F2 JUMPI JUMP JUMPDEST PUSH1 0x40 MLOAD PUSH3 0x461BCD PUSH1 0xE5 SHL DUP2 MSTORE PUSH1 0x20 PUSH1 0x4 DUP3 ADD MSTORE PUSH1 0x11 PUSH1 0x24 DUP3 ADD MSTORE PUSH17 0x185B1C9958591E4819DC98591D585D1959 PUSH1 0x7A SHL PUSH1 0x44 DUP3 ADD MSTORE PUSH1 0x64 SWAP1 REVERT JUMPDEST SWAP2 SWAP1 DUP3 SUB SWAP2 DUP3 GT PUSH2 0x130D JUMPI JUMP JUMPDEST PUSH1 0x8 SLOAD PUSH1 0xFF DUP2 PUSH1 0xA8 SHR AND ISZERO SWAP1 DUP2 ISZERO PUSH2 0x158D JUMPI JUMPDEST POP DUP1 ISZERO PUSH2 0x1585 JUMPI JUMPDEST PUSH2 0x157C JUMPI PUSH2 0x1579 PUSH2 0x1574 PUSH2 0x2710 PUSH2 0x156C PUSH1 0x1 SLOAD DUP6 PUSH2 0x12FA JUMP JUMPDEST DIV DUP1 SWAP4 PUSH2 0x152B JUMP JUMPDEST PUSH2 0x1F6A JUMP JUMPDEST SWAP2 JUMP JUMPDEST POP PUSH1 0x0 SWAP1 PUSH1 0x0 SWAP1 JUMP JUMPDEST POP DUP1 ISZERO PUSH2 0x1553 JUMP JUMPDEST PUSH1 0xFF SWAP2 POP PUSH1 0xB0 SHR AND CODESIZE PUSH2 0x154B JUMP JUMPDEST ISZERO PUSH2 0x15A2 JUMPI JUMP JUMPDEST PUSH1 0x40 MLOAD PUSH3 0x461BCD PUSH1 0xE5 SHL DUP2 MSTORE PUSH1 0x20 PUSH1 0x4 DUP3 ADD MSTORE PUSH1 0x9 PUSH1 0x24 DUP3 ADD MSTORE PUSH9 0x19DC98591D585D1959 PUSH1 0xBA SHL PUSH1 0x44 DUP3 ADD MSTORE PUSH1 0x64 SWAP1 REVERT JUMPDEST ISZERO PUSH2 0x15DA JUMPI JUMP JUMPDEST PUSH1 0x40 MLOAD PUSH3 0x461BCD PUSH1 0xE5 SHL DUP2 MSTORE PUSH1 0x20 PUSH1 0x4 DUP3 ADD MSTORE PUSH1 0x13 PUSH1 0x24 DUP3 ADD MSTORE PUSH19 0x1A5B9CDD59999A58DA595B9D081BDD5D1C1D5D PUSH1 0x6A SHL PUSH1 0x44 DUP3 ADD MSTORE PUSH1 0x64 SWAP1 REVERT JUMPDEST ISZERO PUSH2 0x161C JUMPI JUMP JUMPDEST PUSH1 0x40 MLOAD PUSH3 0x461BCD PUSH1 0xE5 SHL DUP2 MSTORE PUSH1 0x20 PUSH1 0x4 DUP3 ADD MSTORE PUSH1 0x8 PUSH1 0x24 DUP3 ADD MSTORE PUSH8 0x736C697070616765 PUSH1 0xC0 SHL PUSH1 0x44 DUP3 ADD MSTORE PUSH1 0x64 SWAP1 REVERT JUMPDEST SWAP1 PUSH1 0x1F DUP1 NOT SWAP2 ADD AND DUP2 ADD SWAP1 DUP2 LT PUSH8 0xFFFFFFFFFFFFFFFF DUP3 GT OR PUSH2 0x166E JUMPI PUSH1 0x40 MSTORE JUMP JUMPDEST PUSH4 0x4E487B71 PUSH1 0xE0 SHL PUSH1 0x0 MSTORE PUSH1 0x41 PUSH1 0x4 MSTORE PUSH1 0x24 PUSH1 0x0 REVERT JUMPDEST SWAP1 DUP2 PUSH1 0x20 SWAP2 SUB SLT PUSH2 0x12DF JUMPI MLOAD DUP1 ISZERO ISZERO DUP2 SUB PUSH2 0x12DF JUMPI SWAP1 JUMP JUMPDEST ISZERO PUSH2 0x16A3 JUMPI JUMP JUMPDEST PUSH1 0x40 MLOAD PUSH3 0x461BCD PUSH1 0xE5 SHL DUP2 MSTORE PUSH1 0x20 PUSH1 0x4 DUP3 ADD MSTORE PUSH1 0x15 PUSH1 0x24 DUP3 ADD MSTORE PUSH21 0x1C5D5BDD19481D1C985B9CD9995C8819985A5B1959 PUSH1 0x5A SHL PUSH1 0x44 DUP3 ADD MSTORE PUSH1 0x64 SWAP1 REVERT JUMPDEST ISZERO PUSH2 0x16E7 JUMPI JUMP JUMPDEST PUSH1 0x40 MLOAD PUSH3 0x461BCD PUSH1 0xE5 SHL DUP2 MSTORE PUSH1 0x20 PUSH1 0x4 DUP3 ADD MSTORE PUSH1 0x13 PUSH1 0x24 DUP3 ADD MSTORE PUSH19 0x199959481D1C985B9CD9995C8819985A5B1959 PUSH1 0x6A SHL PUSH1 0x44 DUP3 ADD MSTORE PUSH1 0x64 SWAP1 REVERT JUMPDEST ISZERO PUSH2 0x1729 JUMPI JUMP JUMPDEST PUSH1 0x40 MLOAD PUSH3 0x461BCD PUSH1 0xE5 SHL DUP2 MSTORE PUSH1 0x20 PUSH1 0x4 DUP3 ADD MSTORE PUSH1 0x15 PUSH1 0x24 DUP3 ADD MSTORE PUSH21 0x1D1BDAD95B881D1C985B9CD9995C8819985A5B1959 PUSH1 0x5A SHL PUSH1 0x44 DUP3 ADD MSTORE PUSH1 0x64 SWAP1 REVERT JUMPDEST ISZERO PUSH2 0x176D JUMPI JUMP JUMPDEST PUSH1 0x40 MLOAD PUSH3 0x461BCD PUSH1 0xE5 SHL DUP2 MSTORE PUSH1 0x20 PUSH1 0x4 DUP3 ADD MSTORE PUSH1 0xF PUSH1 0x24 DUP3 ADD MSTORE PUSH15 0x1D185C99D95D081C995C5D5A5C9959 PUSH1 0x8A SHL PUSH1 0x44 DUP3 ADD MSTORE PUSH1 0x64 SWAP1 REVERT JUMPDEST ISZERO PUSH2 0x17AB JUMPI JUMP JUMPDEST PUSH1 0x40 MLOAD PUSH3 0x461BCD PUSH1 0xE5 SHL DUP2 MSTORE PUSH1 0x20 PUSH1 0x4 DUP3 ADD MSTORE PUSH1 0x15 PUSH1 0x24 DUP3 ADD MSTORE PUSH21 0x1B1C081C9958DA5C1A595B9D081C995C5D5A5C9959 PUSH1 0x5A SHL PUSH1 0x44 DUP3 ADD MSTORE PUSH1 0x64 SWAP1 REVERT JUMPDEST ISZERO PUSH2 0x17EF JUMPI JUMP JUMPDEST PUSH1 0x40 MLOAD PUSH3 0x461BCD PUSH1 0xE5 SHL DUP2 MSTORE PUSH1 0x20 PUSH1 0x4 DUP3 ADD MSTORE PUSH1 0x15 PUSH1 0x24 DUP3 ADD MSTORE PUSH21 0x1D1BDAD95B88185B5BDD5B9D081C995C5D5A5C9959 PUSH1 0x5A SHL PUSH1 0x44 DUP3 ADD MSTORE PUSH1 0x64 SWAP1 REVERT JUMPDEST PUSH1 0x8 SLOAD PUSH1 0xFF DUP2 PUSH1 0xA8 SHR AND ISZERO SWAP1 DUP2 ISZERO PUSH2 0x187C JUMPI JUMPDEST POP DUP1 ISZERO PUSH2 0x1874 JUMPI JUMPDEST PUSH2 0x157C JUMPI PUSH2 0x1854 SWAP1 PUSH2 0x1FF1 JUMP JUMPDEST DUP1 ISZERO PUSH2 0x157C JUMPI PUSH2 0x1579 PUSH2 0x2710 PUSH2 0x186C PUSH1 0x1 SLOAD DUP5 PUSH2 0x12FA JUMP JUMPDEST DIV DUP1 SWAP3 PUSH2 0x152B JUMP JUMPDEST POP DUP1 ISZERO PUSH2 0x1847 JUMP JUMPDEST PUSH1 0xFF SWAP2 POP PUSH1 0xB0 SHR AND CODESIZE PUSH2 0x183F JUMP JUMPDEST PUSH1 0x7 SLOAD PUSH1 0x1 PUSH1 0x1 PUSH1 0xA0 SHL SUB AND DUP1 ISZERO PUSH2 0x1F30 JUMPI PUSH1 0x1 PUSH1 0xB0 SHL PUSH1 0xFF PUSH1 0xB0 SHL NOT PUSH1 0x8 SLOAD AND OR PUSH1 0x8 SSTORE TIMESTAMP PUSH1 0xA SSTORE PUSH1 0x3 SLOAD PUSH1 0x2 SLOAD PUSH1 0x0 PUSH1 0x3 SSTORE PUSH1 0x0 PUSH1 0x2 SSTORE PUSH1 0x40 MLOAD SWAP3 PUSH4 0x95EA7B3 PUSH1 0xE0 SHL SWAP1 DUP2 DUP6 MSTORE PUSH1 0x4 DUP6 ADD MSTORE PUSH1 0x0 PUSH1 0x24 DUP6 ADD MSTORE PUSH1 0x44 SWAP4 PUSH1 0x20 DUP2 DUP7 DUP2 PUSH1 0x0 PUSH1 0x1 DUP1 PUSH1 0xA0 SHL SUB PUSH32 0x0 AND GAS CALL DUP1 ISZERO PUSH2 0x1D4B JUMPI PUSH2 0x1F11 JUMPI JUMPDEST POP PUSH1 0x7 SLOAD PUSH1 0x40 MLOAD DUP3 DUP2 MSTORE PUSH1 0x1 PUSH1 0x1 PUSH1 0xA0 SHL SUB SWAP1 SWAP2 AND PUSH1 0x4 DUP3 ADD MSTORE PUSH1 0x24 DUP2 ADD DUP5 SWAP1 MSTORE PUSH1 0x20 DUP2 DUP1 PUSH1 0x44 DUP2 ADD SUB DUP2 PUSH1 0x0 PUSH32 0x0 PUSH1 0x1 PUSH1 0x1 PUSH1 0xA0 SHL SUB AND GAS CALL DUP1 ISZERO PUSH2 0x1D4B JUMPI PUSH2 0x1EF2 JUMPI JUMPDEST POP PUSH1 0x7 SLOAD PUSH1 0x40 MLOAD DUP3 DUP2 MSTORE PUSH1 0x1 PUSH1 0x1 PUSH1 0xA0 SHL SUB SWAP2 DUP3 AND PUSH1 0x4 DUP3 ADD MSTORE PUSH1 0x0 PUSH1 0x24 DUP3 ADD DUP2 SWAP1 MSTORE SWAP1 SWAP3 SWAP2 PUSH1 0x20 SWAP2 DUP5 SWAP2 DUP9 SWAP2 DUP4 SWAP2 PUSH32 0x0 AND GAS CALL SWAP1 DUP2 ISZERO PUSH2 0x1D4B JUMPI DUP4 SWAP3 PUSH1 0x20 SWAP3 PUSH2 0x1ED5 JUMPI JUMPDEST POP PUSH1 0x7 SLOAD PUSH1 0x40 MLOAD SWAP2 DUP3 MSTORE PUSH1 0x1 PUSH1 0x1 PUSH1 0xA0 SHL SUB AND PUSH1 0x4 DUP3 ADD MSTORE PUSH1 0x24 DUP2 ADD SWAP3 SWAP1 SWAP3 MSTORE DUP2 DUP1 PUSH1 0x44 DUP2 ADD SUB DUP2 PUSH1 0x0 PUSH32 0x0 PUSH1 0x1 PUSH1 0x1 PUSH1 0xA0 SHL SUB AND GAS CALL DUP1 ISZERO PUSH2 0x1D4B JUMPI PUSH2 0x1EB6 JUMPI JUMPDEST POP PUSH1 0x7 SLOAD PUSH1 0x8 SLOAD PUSH1 0x1 PUSH1 0x1 PUSH1 0xA0 SHL SUB SWAP2 DUP3 AND SWAP5 SWAP2 AND TIMESTAMP PUSH2 0xE10 DUP2 ADD SWAP1 DUP2 LT PUSH2 0x130D JUMPI PUSH2 0x104 PUSH1 0x60 SWAP3 PUSH1 0x0 PUSH1 0x40 MLOAD SWAP9 DUP10 SWAP5 DUP6 SWAP4 PUSH3 0xE8E337 PUSH1 0xE8 SHL DUP6 MSTORE PUSH1 0x1 DUP1 PUSH1 0xA0 SHL SUB PUSH32 0x0 AND PUSH1 0x4 DUP7 ADD MSTORE PUSH1 0x1 DUP1 PUSH1 0xA0 SHL SUB PUSH32 0x0 AND PUSH1 0x24 DUP7 ADD MSTORE DUP11 DUP10 DUP7 ADD MSTORE DUP10 PUSH1 0x64 DUP7 ADD MSTORE DUP4 PUSH1 0x84 DUP7 ADD MSTORE DUP4 PUSH1 0xA4 DUP7 ADD MSTORE PUSH1 0xC4 DUP6 ADD MSTORE PUSH1 0xE4 DUP5 ADD MSTORE GAS CALL SWAP2 DUP3 ISZERO PUSH2 0x1D4B JUMPI PUSH1 0x0 SWAP4 PUSH1 0x0 SWAP6 PUSH1 0x0 SWAP5 PUSH2 0x1E70 JUMPI JUMPDEST POP PUSH1 0x7 SLOAD PUSH1 0x40 MLOAD PUSH4 0xC45A0155 PUSH1 0xE0 SHL DUP2 MSTORE SWAP1 PUSH1 0x20 SWAP1 DUP3 SWAP1 PUSH1 0x4 SWAP1 DUP3 SWAP1 PUSH1 0x1 PUSH1 0x1 PUSH1 0xA0 SHL SUB AND GAS STATICCALL SWAP1 DUP2 ISZERO PUSH2 0x1D4B JUMPI DUP5 SWAP2 PUSH1 0x20 SWAP2 PUSH1 0x0 SWAP2 PUSH2 0x1E53 JUMPI JUMPDEST POP PUSH1 0x40 MLOAD PUSH4 0xE6A43905 PUSH1 0xE0 SHL DUP2 MSTORE PUSH1 0x1 PUSH1 0x1 PUSH1 0xA0 SHL SUB PUSH32 0x0 DUP2 AND PUSH1 0x4 DUP4 ADD MSTORE PUSH32 0x0 DUP2 AND PUSH1 0x24 DUP4 ADD MSTORE SWAP1 SWAP4 DUP5 SWAP3 SWAP1 SWAP2 DUP4 SWAP2 AND GAS STATICCALL SWAP1 DUP2 ISZERO PUSH2 0x1D4B JUMPI PUSH1 0x0 SWAP2 PUSH2 0x1E24 JUMPI JUMPDEST POP PUSH1 0x1 DUP1 PUSH1 0xA0 SHL SUB AND PUSH12 0xFFFFFFFFFFFFFFFFFFFFFFFF PUSH1 0xA0 SHL PUSH1 0x9 SLOAD AND OR PUSH1 0x9 SSTORE DUP5 DUP2 GT PUSH2 0x1D57 JUMPI JUMPDEST POP DUP5 DUP2 GT PUSH2 0x1C50 JUMPI JUMPDEST POP POP PUSH32 0x71AA8C3702DBBC54247A4E6446450E64A46250DD72707A247DDB01D72EAEF445 SWAP2 PUSH1 0x80 SWAP2 PUSH1 0x1 DUP1 PUSH1 0xA0 SHL SUB PUSH1 0x9 SLOAD AND SWAP5 PUSH1 0x40 MLOAD SWAP3 DUP4 MSTORE PUSH1 0x20 DUP4 ADD MSTORE PUSH1 0x40 DUP3 ADD MSTORE TIMESTAMP PUSH1 0x60 DUP3 ADD MSTORE LOG2 JUMP JUMPDEST PUSH1 0x0 SLOAD PUSH2 0x1C9D SWAP2 PUSH1 0x20 SWAP2 PUSH1 0x1 PUSH1 0x1 PUSH1 0xA0 SHL SUB AND SWAP1 PUSH2 0x1C6F SWAP1 DUP9 SWAP1 PUSH2 0x152B JUMP JUMPDEST PUSH1 0x40 MLOAD PUSH4 0xA9059CBB PUSH1 0xE0 SHL DUP2 MSTORE PUSH1 0x1 PUSH1 0x1 PUSH1 0xA0 SHL SUB SWAP1 SWAP3 AND PUSH1 0x4 DUP4 ADD MSTORE PUSH1 0x24 DUP3 ADD MSTORE SWAP2 DUP3 SWAP1 DUP2 SWAP1 PUSH1 0x44 DUP3 ADD SWAP1 JUMP JUMPDEST SUB DUP2 PUSH1 0x0 PUSH32 0x0 PUSH1 0x1 PUSH1 0x1 PUSH1 0xA0 SHL SUB AND GAS CALL SWAP1 DUP2 ISZERO PUSH2 0x1D4B JUMPI PUSH1 0x0 SWAP2 PUSH2 0x1D2C JUMPI JUMPDEST POP ISZERO PUSH2 0x1CE8 JUMPI DUP1 PUSH2 0x1C04 JUMP JUMPDEST PUSH1 0x64 SWAP1 PUSH32 0x71756F74652064757374207472616E73666572206661696C6564000000000000 PUSH1 0x40 MLOAD SWAP2 PUSH3 0x461BCD PUSH1 0xE5 SHL DUP4 MSTORE PUSH1 0x20 PUSH1 0x4 DUP5 ADD MSTORE PUSH1 0x1A PUSH1 0x24 DUP5 ADD MSTORE DUP3 ADD MSTORE REVERT JUMPDEST PUSH2 0x1D45 SWAP2 POP PUSH1 0x20 RETURNDATASIZE PUSH1 0x20 GT PUSH2 0x54C JUMPI PUSH2 0x53E DUP2 DUP4 PUSH2 0x164C JUMP JUMPDEST CODESIZE PUSH2 0x1CDC JUMP JUMPDEST PUSH1 0x40 MLOAD RETURNDATASIZE PUSH1 0x0 DUP3 RETURNDATACOPY RETURNDATASIZE SWAP1 REVERT JUMPDEST PUSH1 0x0 SLOAD PUSH2 0x1D76 SWAP2 PUSH1 0x20 SWAP2 PUSH1 0x1 PUSH1 0x1 PUSH1 0xA0 SHL SUB AND SWAP1 PUSH2 0x1C6F SWAP1 DUP9 SWAP1 PUSH2 0x152B JUMP JUMPDEST SUB DUP2 PUSH1 0x0 PUSH32 0x0 PUSH1 0x1 PUSH1 0x1 PUSH1 0xA0 SHL SUB AND GAS CALL SWAP1 DUP2 ISZERO PUSH2 0x1D4B JUMPI PUSH1 0x0 SWAP2 PUSH2 0x1E05 JUMPI JUMPDEST POP ISZERO PUSH2 0x1DC1 JUMPI CODESIZE PUSH2 0x1BFB JUMP JUMPDEST PUSH1 0x40 MLOAD PUSH3 0x461BCD PUSH1 0xE5 SHL DUP2 MSTORE PUSH1 0x20 PUSH1 0x4 DUP3 ADD MSTORE PUSH1 0x1A PUSH1 0x24 DUP3 ADD MSTORE PUSH32 0x746F6B656E2064757374207472616E73666572206661696C6564000000000000 DUP2 DUP5 ADD MSTORE PUSH1 0x64 SWAP1 REVERT JUMPDEST PUSH2 0x1E1E SWAP2 POP PUSH1 0x20 RETURNDATASIZE PUSH1 0x20 GT PUSH2 0x54C JUMPI PUSH2 0x53E DUP2 DUP4 PUSH2 0x164C JUMP JUMPDEST CODESIZE PUSH2 0x1DB5 JUMP JUMPDEST PUSH2 0x1E46 SWAP2 POP PUSH1 0x20 RETURNDATASIZE PUSH1 0x20 GT PUSH2 0x1E4C JUMPI JUMPDEST PUSH2 0x1E3E DUP2 DUP4 PUSH2 0x164C JUMP JUMPDEST DUP2 ADD SWAP1 PUSH2 0x2022 JUMP JUMPDEST CODESIZE PUSH2 0x1BD2 JUMP JUMPDEST POP RETURNDATASIZE PUSH2 0x1E34 JUMP JUMPDEST PUSH2 0x1E6A SWAP2 POP DUP3 RETURNDATASIZE DUP5 GT PUSH2 0x1E4C JUMPI PUSH2 0x1E3E DUP2 DUP4 PUSH2 0x164C JUMP JUMPDEST CODESIZE PUSH2 0x1B52 JUMP JUMPDEST SWAP5 POP SWAP3 POP SWAP4 POP PUSH1 0x60 DUP4 RETURNDATASIZE PUSH1 0x60 GT PUSH2 0x1EAE JUMPI JUMPDEST DUP2 PUSH2 0x1E8F PUSH1 0x60 SWAP4 DUP4 PUSH2 0x164C JUMP JUMPDEST DUP2 ADD SUB SLT PUSH2 0x12DF JUMPI DUP3 MLOAD SWAP4 PUSH1 0x40 PUSH1 0x20 DUP6 ADD MLOAD SWAP5 ADD MLOAD SWAP5 SWAP4 SWAP5 SWAP3 CODESIZE PUSH2 0x1B17 JUMP JUMPDEST RETURNDATASIZE SWAP2 POP PUSH2 0x1E82 JUMP JUMPDEST PUSH2 0x1ECE SWAP1 PUSH1 0x20 RETURNDATASIZE PUSH1 0x20 GT PUSH2 0x54C JUMPI PUSH2 0x53E DUP2 DUP4 PUSH2 0x164C JUMP JUMPDEST POP CODESIZE PUSH2 0x1A48 JUMP JUMPDEST PUSH2 0x1EEB SWAP1 DUP4 RETURNDATASIZE DUP6 GT PUSH2 0x54C JUMPI PUSH2 0x53E DUP2 DUP4 PUSH2 0x164C JUMP JUMPDEST POP CODESIZE PUSH2 0x19E7 JUMP JUMPDEST PUSH2 0x1F0A SWAP1 PUSH1 0x20 RETURNDATASIZE PUSH1 0x20 GT PUSH2 0x54C JUMPI PUSH2 0x53E DUP2 DUP4 PUSH2 0x164C JUMP JUMPDEST POP CODESIZE PUSH2 0x1983 JUMP JUMPDEST PUSH2 0x1F29 SWAP1 PUSH1 0x20 RETURNDATASIZE PUSH1 0x20 GT PUSH2 0x54C JUMPI PUSH2 0x53E DUP2 DUP4 PUSH2 0x164C JUMP JUMPDEST POP CODESIZE PUSH2 0x191F JUMP JUMPDEST PUSH1 0x40 MLOAD PUSH3 0x461BCD PUSH1 0xE5 SHL DUP2 MSTORE PUSH1 0x20 PUSH1 0x4 DUP3 ADD MSTORE PUSH1 0x12 PUSH1 0x24 DUP3 ADD MSTORE PUSH18 0x19195E081C9BDD5D195C881B9BDD081CD95D PUSH1 0x72 SHL PUSH1 0x44 DUP3 ADD MSTORE PUSH1 0x64 SWAP1 REVERT JUMPDEST DUP1 ISZERO PUSH2 0x137E JUMPI PUSH2 0x1F7F PUSH1 0x2 SLOAD PUSH1 0x4 SLOAD SWAP1 PUSH2 0x13FA JUMP JUMPDEST SWAP1 PUSH2 0x1FAD PUSH1 0x3 SLOAD SWAP3 PUSH2 0x1FA7 PUSH2 0x1F96 PUSH1 0x5 SLOAD DUP7 PUSH2 0x13FA JUMP JUMPDEST SWAP4 PUSH2 0x1FA1 DUP6 DUP5 PUSH2 0x12FA JUMP JUMPDEST SWAP3 PUSH2 0x13FA JUMP JUMPDEST SWAP1 PUSH2 0x1323 JUMP JUMPDEST DUP1 DUP3 GT ISZERO PUSH2 0x1FBE JUMPI PUSH2 0x136D SWAP2 PUSH2 0x152B JUMP JUMPDEST POP POP POP PUSH1 0x0 SWAP1 JUMP JUMPDEST PUSH1 0xFF PUSH1 0x8 SLOAD PUSH1 0xB0 SHR AND DUP1 ISZERO PUSH2 0x1FE4 JUMPI JUMPDEST PUSH2 0x1FE2 JUMPI PUSH2 0x1FE2 PUSH2 0x188A JUMP JUMPDEST JUMP JUMPDEST POP PUSH1 0x2 SLOAD PUSH1 0x6 SLOAD GT PUSH2 0x1FD6 JUMP JUMPDEST PUSH1 0x2 SLOAD SWAP1 PUSH2 0x1FAD PUSH2 0x2004 PUSH1 0x4 SLOAD DUP5 PUSH2 0x13FA JUMP JUMPDEST SWAP2 PUSH2 0x1FA7 PUSH2 0x2017 PUSH1 0x3 SLOAD PUSH1 0x5 SLOAD SWAP1 PUSH2 0x13FA JUMP JUMPDEST SWAP2 PUSH2 0x1FA1 DUP4 DUP7 PUSH2 0x12FA JUMP JUMPDEST SWAP1 DUP2 PUSH1 0x20 SWAP2 SUB SLT PUSH2 0x12DF JUMPI MLOAD PUSH1 0x1 PUSH1 0x1 PUSH1 0xA0 SHL SUB DUP2 AND DUP2 SUB PUSH2 0x12DF JUMPI SWAP1 JUMP INVALID LOG2 PUSH5 0x6970667358 0x22 SLT KECCAK256 SIGNEXTEND ADD 0xD6 0xDA ADDRESS 0xD4 0xBA CODESIZE 0xD1 PUSH22 0xAD52E96D41A1E84E2F7BDD4B29FB4B59F80142F1C3A9 PUSH5 0x736F6C6343 STOP ADDMOD XOR STOP CALLER "},"methodIdentifiers":{"BPS_DENOMINATOR()":"e1a45218","QUOTE_DECIMAL_SCALE()":"aca6b65a","buyWithQuote(uint256,uint256)":"6818735c","configureFees(address,uint256)":"2a2c6972","configureMigration(address,address,uint256)":"8c575aa3","dexRouter()":"0758d924","ethReserve()":"d62ccb3f","factory()":"c45a0155","feeBps()":"24a9d853","feeRecipient()":"46904840","graduated()":"e7c2b772","graduatedAt()":"7f544e49","graduationTargetEth()":"f95a02d0","graduationTargetQuote()":"649249d3","initialize(address,uint256,uint256,uint256,uint256,address,address)":"a8cec45f","initialized()":"158ef93e","lpRecipient()":"452e68dd","migratedPair()":"1ad15bbc","quoteBuy(uint256)":"4beb394c","quoteReserve()":"9da771f4","quoteSell(uint256)":"a64190c4","quoteToken()":"217a4b70","seed(uint256)":"95564837","seeded()":"334041a6","sell(uint256,uint256)":"d79875eb","spotPrice()":"398482d8","targetProgressBps()":"2760eca1","token()":"fc0c546a","tokenReserve()":"cbcb3171","triggerGraduation()":"4329742d","virtualEthReserve()":"52b86d2b","virtualQuoteReserve()":"f5596626","virtualTokenReserve()":"343ee3b7"}}}}}