{"contracts/MemeLaunchFactory.sol":{"MemeLaunchFactory":{"abi":[{"inputs":[{"internalType":"address","name":"_feeRecipient","type":"address"},{"internalType":"address","name":"_platformFeeRecipient","type":"address"},{"internalType":"uint256","name":"_defaultFeeBps","type":"uint256"},{"internalType":"uint256","name":"_launchFeeWei","type":"uint256"},{"internalType":"uint256","name":"_defaultVirtualEthReserve","type":"uint256"},{"internalType":"uint256","name":"_defaultVirtualTokenReserve","type":"uint256"},{"internalType":"uint256","name":"_defaultGraduationTargetEth","type":"uint256"},{"internalType":"address","name":"_defaultDexRouter","type":"address"},{"internalType":"address","name":"_defaultLpRecipient","type":"address"}],"stateMutability":"nonpayable","type":"constructor"},{"anonymous":false,"inputs":[{"indexed":false,"internalType":"address","name":"feeRecipient","type":"address"},{"indexed":false,"internalType":"address","name":"platformFeeRecipient","type":"address"},{"indexed":false,"internalType":"uint256","name":"feeBps","type":"uint256"},{"indexed":false,"internalType":"uint256","name":"launchFeeWei","type":"uint256"},{"indexed":false,"internalType":"uint256","name":"virtualEthReserve","type":"uint256"},{"indexed":false,"internalType":"uint256","name":"virtualTokenReserve","type":"uint256"},{"indexed":false,"internalType":"uint256","name":"graduationTargetEth","type":"uint256"},{"indexed":false,"internalType":"address","name":"dexRouter","type":"address"},{"indexed":false,"internalType":"address","name":"lpRecipient","type":"address"}],"name":"DefaultsUpdated","type":"event"},{"anonymous":false,"inputs":[{"indexed":true,"internalType":"address","name":"creator","type":"address"},{"indexed":false,"internalType":"uint256","name":"ethLiquidity","type":"uint256"}],"name":"InstantLaunchRequested","type":"event"},{"anonymous":false,"inputs":[{"indexed":true,"internalType":"uint256","name":"launchId","type":"uint256"},{"indexed":true,"internalType":"address","name":"creator","type":"address"},{"indexed":true,"internalType":"address","name":"token","type":"address"},{"indexed":false,"internalType":"address","name":"pool","type":"address"},{"indexed":false,"internalType":"uint256","name":"totalSupply","type":"uint256"},{"indexed":false,"internalType":"uint256","name":"creatorAllocation","type":"uint256"},{"indexed":false,"internalType":"uint256","name":"feeBps","type":"uint256"},{"indexed":false,"internalType":"uint256","name":"graduationTargetEth","type":"uint256"},{"indexed":false,"internalType":"address","name":"dexRouter","type":"address"},{"indexed":false,"internalType":"address","name":"lpRecipient","type":"address"}],"name":"LaunchCreated","type":"event"},{"anonymous":false,"inputs":[{"indexed":true,"internalType":"address","name":"payer","type":"address"},{"indexed":true,"internalType":"address","name":"recipient","type":"address"},{"indexed":false,"internalType":"uint256","name":"amountWei","type":"uint256"}],"name":"LaunchFeePaid","type":"event"},{"anonymous":false,"inputs":[{"indexed":true,"internalType":"address","name":"previousOwner","type":"address"},{"indexed":true,"internalType":"address","name":"newOwner","type":"address"}],"name":"OwnershipTransferred","type":"event"},{"anonymous":false,"inputs":[{"indexed":true,"internalType":"uint256","name":"launchId","type":"uint256"},{"indexed":true,"internalType":"address","name":"token","type":"address"},{"indexed":false,"internalType":"uint256","name":"tradeFeeBps","type":"uint256"},{"indexed":false,"internalType":"uint256","name":"creatorFeeBps","type":"uint256"},{"indexed":false,"internalType":"uint256","name":"platformFeeBps","type":"uint256"}],"name":"TokenTaxConfigured","type":"event"},{"inputs":[],"name":"BPS_DENOMINATOR","outputs":[{"internalType":"uint256","name":"","type":"uint256"}],"stateMutability":"view","type":"function"},{"inputs":[],"name":"BURN_ADDRESS","outputs":[{"internalType":"address","name":"","type":"address"}],"stateMutability":"view","type":"function"},{"inputs":[],"name":"DEFAULT_TOKEN_TRADE_FEE_BPS","outputs":[{"internalType":"uint256","name":"","type":"uint256"}],"stateMutability":"view","type":"function"},{"inputs":[],"name":"MAX_TOKEN_TRADE_FEE_BPS","outputs":[{"internalType":"uint256","name":"","type":"uint256"}],"stateMutability":"view","type":"function"},{"inputs":[],"name":"ROBINHOOD_CHAIN_ID","outputs":[{"internalType":"uint256","name":"","type":"uint256"}],"stateMutability":"view","type":"function"},{"inputs":[{"internalType":"string","name":"name","type":"string"},{"internalType":"string","name":"symbol","type":"string"},{"internalType":"string","name":"imageURI","type":"string"},{"internalType":"string","name":"description","type":"string"},{"internalType":"uint256","name":"totalSupply","type":"uint256"},{"internalType":"uint256","name":"creatorAllocationBps","type":"uint256"}],"name":"createLaunch","outputs":[{"internalType":"uint256","name":"launchId","type":"uint256"},{"internalType":"address","name":"tokenAddress","type":"address"},{"internalType":"address","name":"poolAddress","type":"address"}],"stateMutability":"payable","type":"function"},{"inputs":[{"internalType":"string","name":"name","type":"string"},{"internalType":"string","name":"symbol","type":"string"},{"internalType":"string","name":"imageURI","type":"string"},{"internalType":"string","name":"description","type":"string"},{"internalType":"uint256","name":"totalSupply","type":"uint256"},{"internalType":"uint256","name":"creatorAllocationBps","type":"uint256"}],"name":"createLaunchInstant","outputs":[{"internalType":"uint256","name":"launchId","type":"uint256"},{"internalType":"address","name":"tokenAddress","type":"address"},{"internalType":"address","name":"poolAddress","type":"address"}],"stateMutability":"payable","type":"function"},{"inputs":[{"internalType":"string","name":"name","type":"string"},{"internalType":"string","name":"symbol","type":"string"},{"internalType":"string","name":"imageURI","type":"string"},{"internalType":"string","name":"description","type":"string"},{"internalType":"uint256","name":"totalSupply","type":"uint256"},{"internalType":"uint256","name":"creatorAllocationBps","type":"uint256"},{"internalType":"uint256","name":"tokenTradeFeeBps","type":"uint256"}],"name":"createLaunchInstantWithTax","outputs":[{"internalType":"uint256","name":"launchId","type":"uint256"},{"internalType":"address","name":"tokenAddress","type":"address"},{"internalType":"address","name":"poolAddress","type":"address"}],"stateMutability":"payable","type":"function"},{"inputs":[{"internalType":"string","name":"name","type":"string"},{"internalType":"string","name":"symbol","type":"string"},{"internalType":"string","name":"imageURI","type":"string"},{"internalType":"string","name":"description","type":"string"},{"internalType":"uint256","name":"totalSupply","type":"uint256"},{"internalType":"uint256","name":"creatorAllocationBps","type":"uint256"},{"internalType":"uint256","name":"tokenTradeFeeBps","type":"uint256"}],"name":"createLaunchWithTax","outputs":[{"internalType":"uint256","name":"launchId","type":"uint256"},{"internalType":"address","name":"tokenAddress","type":"address"},{"internalType":"address","name":"poolAddress","type":"address"}],"stateMutability":"payable","type":"function"},{"inputs":[],"name":"defaultDexRouter","outputs":[{"internalType":"address","name":"","type":"address"}],"stateMutability":"view","type":"function"},{"inputs":[],"name":"defaultFeeBps","outputs":[{"internalType":"uint256","name":"","type":"uint256"}],"stateMutability":"view","type":"function"},{"inputs":[],"name":"defaultGraduationTargetEth","outputs":[{"internalType":"uint256","name":"","type":"uint256"}],"stateMutability":"view","type":"function"},{"inputs":[],"name":"defaultLpRecipient","outputs":[{"internalType":"address","name":"","type":"address"}],"stateMutability":"view","type":"function"},{"inputs":[],"name":"defaultVirtualEthReserve","outputs":[{"internalType":"uint256","name":"","type":"uint256"}],"stateMutability":"view","type":"function"},{"inputs":[],"name":"defaultVirtualTokenReserve","outputs":[{"internalType":"uint256","name":"","type":"uint256"}],"stateMutability":"view","type":"function"},{"inputs":[],"name":"feeRecipient","outputs":[{"internalType":"address","name":"","type":"address"}],"stateMutability":"view","type":"function"},{"inputs":[{"internalType":"uint256","name":"launchId","type":"uint256"}],"name":"getLaunch","outputs":[{"components":[{"internalType":"address","name":"token","type":"address"},{"internalType":"address","name":"pool","type":"address"},{"internalType":"address","name":"creator","type":"address"},{"internalType":"string","name":"name","type":"string"},{"internalType":"string","name":"symbol","type":"string"},{"internalType":"string","name":"imageURI","type":"string"},{"internalType":"string","name":"description","type":"string"},{"internalType":"uint256","name":"totalSupply","type":"uint256"},{"internalType":"uint256","name":"creatorAllocation","type":"uint256"},{"internalType":"uint256","name":"createdAt","type":"uint256"}],"internalType":"struct MemeLaunchFactory.LaunchInfo","name":"","type":"tuple"}],"stateMutability":"view","type":"function"},{"inputs":[],"name":"getLaunchCount","outputs":[{"internalType":"uint256","name":"","type":"uint256"}],"stateMutability":"view","type":"function"},{"inputs":[{"internalType":"uint256","name":"offset","type":"uint256"},{"internalType":"uint256","name":"limit","type":"uint256"}],"name":"getLaunches","outputs":[{"components":[{"internalType":"address","name":"token","type":"address"},{"internalType":"address","name":"pool","type":"address"},{"internalType":"address","name":"creator","type":"address"},{"internalType":"string","name":"name","type":"string"},{"internalType":"string","name":"symbol","type":"string"},{"internalType":"string","name":"imageURI","type":"string"},{"internalType":"string","name":"description","type":"string"},{"internalType":"uint256","name":"totalSupply","type":"uint256"},{"internalType":"uint256","name":"creatorAllocation","type":"uint256"},{"internalType":"uint256","name":"createdAt","type":"uint256"}],"internalType":"struct MemeLaunchFactory.LaunchInfo[]","name":"data","type":"tuple[]"}],"stateMutability":"view","type":"function"},{"inputs":[],"name":"launchFeeWei","outputs":[{"internalType":"uint256","name":"","type":"uint256"}],"stateMutability":"view","type":"function"},{"inputs":[],"name":"owner","outputs":[{"internalType":"address","name":"","type":"address"}],"stateMutability":"view","type":"function"},{"inputs":[],"name":"platformFeeRecipient","outputs":[{"internalType":"address","name":"","type":"address"}],"stateMutability":"view","type":"function"},{"inputs":[{"internalType":"address","name":"token","type":"address"}],"name":"poolByToken","outputs":[{"internalType":"address","name":"pool","type":"address"}],"stateMutability":"view","type":"function"},{"inputs":[{"internalType":"address","name":"newFeeRecipient","type":"address"},{"internalType":"address","name":"newPlatformFeeRecipient","type":"address"},{"internalType":"uint256","name":"newFeeBps","type":"uint256"},{"internalType":"uint256","name":"newLaunchFeeWei","type":"uint256"},{"internalType":"uint256","name":"newVirtualEthReserve","type":"uint256"},{"internalType":"uint256","name":"newVirtualTokenReserve","type":"uint256"},{"internalType":"uint256","name":"newGraduationTargetEth","type":"uint256"},{"internalType":"address","name":"newDexRouter","type":"address"},{"internalType":"address","name":"newLpRecipient","type":"address"}],"name":"setDefaults","outputs":[],"stateMutability":"nonpayable","type":"function"},{"inputs":[{"internalType":"address","name":"newOwner","type":"address"}],"name":"transferOwnership","outputs":[],"stateMutability":"nonpayable","type":"function"}],"evm":{"bytecode":{"linkReferences":{},"object":"608034620002fd57601f620081e938819003918201601f191683019291906001600160401b038411838510176200030257816101209284926040968752833981010312620002fd57620000528162000318565b6020916200006283820162000318565b92848201516060830151608084015160a08501519160c0860151936200009a6101006200009260e08a0162000318565b980162000318565b6001600160a01b03988916999097908a15620002b95761012c83116200028657891690811562000242578415620001fe578515620001ba57861562000184578916968762000139575b5060018060a01b031999338b60005416176000558a60015416176001558960025416176002556003556004556005556006556007558360085416176008551690600954161760095551617ebb90816200032e8239f35b898916620000e3576064908c519062461bcd60e51b82526004820152601560248201527f6c7020726563697069656e7420726571756972656400000000000000000000006044820152fd5b8b5162461bcd60e51b815260048101899052600f60248201526e1d185c99d95d081c995c5d5a5c9959608a1b6044820152606490fd5b8b5162461bcd60e51b815260048101899052601660248201527f7669727475616c20746f6b656e207265717569726564000000000000000000006044820152606490fd5b8b5162461bcd60e51b815260048101899052601460248201527f7669727475616c206574682072657175697265640000000000000000000000006044820152606490fd5b8b5162461bcd60e51b815260048101899052601b60248201527f706c6174666f726d20726563697069656e7420726571756972656400000000006044820152606490fd5b8b5162461bcd60e51b815260048101899052600c60248201526b0cccaca40e8dede40d0d2ced60a31b6044820152606490fd5b8b5162461bcd60e51b815260048101899052601660248201527f66656520726563697069656e74207265717569726564000000000000000000006044820152606490fd5b600080fd5b634e487b7160e01b600052604160045260246000fd5b51906001600160a01b0382168203620002fd5756fe6102008060405260043610156200001557600080fd5b60003560e01c9081630b0420bb1462003f39575080631036338c146200325657806313ed4aa6146200322b5780631c8c0d92146200320b57806339cbfa1f14620031ec5780633c0f430514620024c45780634690484014620024995780634a9ddfdd146200247b5780635930d3ce14620023e757806363f0eb0414620023c757806380fa02f714620023a857806383eeb3bb14620023885780638da5cb5b146200235d57806393a8e04d146200233d57806396875aa014620015ec5780639b3b9f9814620015615780639ff0251f1462001541578063b82942a514620011de578063bcae25a414620011be578063d578192c1462001193578063e1a452181462001174578063eb13554f1462001149578063f01818921462000220578063f2fde38b14620001715763fccc2813146200014d57600080fd5b346200016c5760003660031901126200016c57602060405161dead8152f35b600080fd5b346200016c5760203660031901126200016c576200018e62003f75565b6000546001600160a01b0380821692620001aa338514620046bd565b16918215620001ea5782907f8be0079c531659141344cd1fd0a4f28419497f9722a3daafe3b4186f6b6457e0600080a36001600160a01b03191617600055005b60405162461bcd60e51b815260206004820152600e60248201526d1bdddb995c881c995c5d5a5c995960921b6044820152606490fd5b6200022b3662004051565b6080526008549899919890969195929492919062000254906001600160a01b031615156200449d565b6009546200026d906001600160a01b03161515620044df565b620002886004546200028181341162004523565b346200457b565b9762000293620046f7565b6040518981527fac9d85dc25663b5cc567afaed6bb7823377f8f9f4164bc741a6ed341c04a8ec760203392a2600060c0528a1562001114578115620010dd578915620010a6576107d088116200106b576103e8608051116200103157600254604051906001600160a01b03166001600160401b0361172d8301908111908311176200101b578190620003576200033f8f61172d62006719863960e061172d860181815201908d6200483d565b61172d84018103602061172d8601015286866200483d565b908d604061172d8501015230606061172d8501015233608061172d8501015260a061172d8401015260805160c061172d8401015203906000f060a05260a0511562000ec5576002546001600160a01b03163314620003b58162004878565b9960018060a01b03600154166003546005546006546007549160018060a01b0360085416936040519586611e5e8101106001600160401b03611e5e890111176200101b57611e5e620048bb883960a080516001600160a01b03908116611e5e8a019081523060208201526040810193909352606083019390935260808201939093529182019290925260c081019290925260e0820192909252908d166101008201528190036101200191f061012052610120511562000ec5578a89810204890362001005576200048c6127108a8d02048c6200457b565b60405163a9059cbb60e01b8152610120516001600160a01b0390811660048301526024820183905260a05160209183916044918391600091165af190811562000ec55760009162000fe1575b501562000fa557898c6127108282020462000ed1575b5050610120516001600160a01b03163b156200016c5760405190639556483760e01b825260048201526000816024818360018060a01b0361012051165af1801562000ec55762000eae575b50610120516001600160a01b03163b1562000dcc576040516309485dc960e21b815260c051610120518290600490829084906001600160a01b03165af18015620009915762000e94575b506040516306b456ef60e21b815261012051602090829060049082906001600160a01b03165afa908115620009915760c0519162000e4b575b506001600160a01b03811662000dde575b5080159062000dd2575b62000d64575b60a05160c080516001600160a01b039283169052600b60205251604090206101205181546001600160a01b0319169216919091179055600a549a600160401b8c101562000ab55760018c01600a55620006368c620042bc565b5050620006438c620042bc565b5060a05181546001600160a01b03199081166001600160a01b03928316178355610120516001840180548316919093161790915560028201805490911633179055976001600160401b03821162000ab5578190620006a560038b01546200430d565b601f811162000d09575b5060c05190601f831160011462000c935760c0519262000c87575b50508160011b916000199060031b1c19161760038801555b6001600160401b03821162000ab55781906200070260048901546200430d565b601f811162000c2c575b5060c05190601f831160011462000bb65760c0519262000baa575b50508160011b916000199060031b1c19161760048601555b6001600160401b03821162000ab55781906200075f60058701546200430d565b601f811162000b4f575b5060c05190601f831160011462000ad95760c0519262000acd575b50508160011b916000199060031b1c19161760058401555b6001600160401b03821162000ab5578190620007bc60068501546200430d565b601f811162000a5a575b5060c05190601f8311600114620009e45760c05192620009d8575b50508160011b916000199060031b1c19161760068201555b8360078201556127108285020460088201556009429101556003546007549061271060018060a01b0360085416936040519660018060a01b0361012051168852806020890152020460408601526060850152608084015260a083015260018060a01b031660c082015260018060a01b0360a05116908260008051602062007e6683398151915260e03393a4604051906317773ebb60e01b825260208260048160018060a01b0360a051165afa918215620009915760c051926200099e575b506040519163116e689f60e11b835260208360048160018060a01b0360a051165afa8015620009915760c0519062000956575b620009529350604051916080518352602083015260408201528160008051602062007e46833981519152606060018060a01b0360a0511693a3604080516101205160a0519382526001600160a01b039384166020830152909216908201529081906060820190565b0390f35b506020833d60201162000988575b81620009736020938362004249565b810103126200016c57620009529251620008ea565b3d915062000964565b6040513d60c051823e3d90fd5b9091506020813d602011620009cf575b81620009bd6020938362004249565b810103126200016c57519082620008b7565b3d9150620009ae565b013590508780620007e1565b60c080516006870190525160208120909450915b601f198416851062000a41576001945083601f1981161062000a26575b505050811b016006820155620007f9565b0135600019600384901b60f8161c1916905587808062000a15565b81810135835560209485019460019093019201620009f8565b9091506006840160c05152602060c05120601f840160051c81016020851062000aad575b90849392915b601f830160051c8201811062000a9c575050620007c6565b60c051815585945060010162000a84565b508062000a7e565b634e487b7160e01b60c051526041600452602460c051fd5b01359050898062000784565b60c080516005890190525160208120909450915b601f198416851062000b36576001945083601f1981161062000b1b575b505050811b0160058401556200079c565b0135600019600384901b60f8161c1916905589808062000b0a565b8181013583556020948501946001909301920162000aed565b9091506005860160c05152602060c05120601f840160051c81016020851062000ba2575b90849392915b601f830160051c8201811062000b9157505062000769565b60c051815585945060010162000b79565b508062000b73565b013590508b8062000727565b60c0805160048b0190525160208120909450915b601f198416851062000c13576001945083601f1981161062000bf8575b505050811b0160048601556200073f565b0135600019600384901b60f8161c191690558b808062000be7565b8181013583556020948501946001909301920162000bca565b9091506004880160c05152602060c05120601f840160051c81016020851062000c7f575b90849392915b601f830160051c8201811062000c6e5750506200070c565b60c051815585945060010162000c56565b508062000c50565b013590508d80620006ca565b60c0805160038d0190525160208120909450915b601f198416851062000cf0576001945083601f1981161062000cd5575b505050811b016003880155620006e2565b0135600019600384901b60f8161c191690558d808062000cc4565b8181013583556020948501946001909301920162000ca7565b90915060038a0160c05152602060c05120601f840160051c81016020851062000d5c575b90849392915b601f830160051c8201811062000d4b575050620006af565b60c051815585945060010162000d33565b508062000d2d565b60a0516001600160a01b03163b1562000dcc57604051636e258e0760e11b815260c05160a0518290600490829084906001600160a01b03165af18015620009915762000db2575b50620005dd565b62000dbd9062004235565b60c05162000dcc578b62000dab565b60c05180fd5b506112374614620005d7565b60a0516001600160a01b03163b1562000dcc576040516315c6deb960e31b81526001600160a01b03918216600482015260c05160a05191929091839160249183918591165af18015620009915715620005cd5762000e3c9062004235565b60c05162000dcc578c620005cd565b90506020813d60201162000e8b575b8162000e696020938362004249565b8101031262000dcc57516001600160a01b038116810362000dcc578d620005bc565b3d915062000e5a565b62000e9f9062004235565b60c05162000dcc578c62000583565b62000eb99062004235565b600060c0528c62000539565b6040513d6000823e3d90fd5b60405163a9059cbb60e01b81523360048201526127109190920204602482015260208180604481010381600060018060a01b0360a051165af190811562000ec55760009162000f6f575b501562000f2a57898c620004ee565b60405162461bcd60e51b815260206004820152601760248201527f63726561746f72207472616e73666572206661696c65640000000000000000006044820152606490fd5b62000f96915060203d60201162000f9d575b62000f8d818362004249565b8101906200485e565b8e62000f1b565b503d62000f81565b60405162461bcd60e51b81526020600482015260146024820152731c1bdbdb081d1c985b9cd9995c8819985a5b195960621b6044820152606490fd5b62000ffe915060203d60201162000f9d5762000f8d818362004249565b8e620004d8565b634e487b7160e01b600052601160045260246000fd5b634e487b7160e01b600052604160045260246000fd5b60405162461bcd60e51b81526020600482015260126024820152710e8e4c2c8ca40cccaca40e8dede40d0d2ced60731b6044820152606490fd5b60405162461bcd60e51b81526020600482015260136024820152720c2d8d8dec6c2e8d2dedc40e8dede40d0d2ced606b1b6044820152606490fd5b60405162461bcd60e51b815260206004820152600f60248201526e1cdd5c1c1b1e481c995c5d5a5c9959608a1b6044820152606490fd5b60405162461bcd60e51b815260206004820152600f60248201526e1cde5b589bdb081c995c5d5a5c9959608a1b6044820152606490fd5b60405162461bcd60e51b815260206004820152600d60248201526c1b985b59481c995c5d5a5c9959609a1b6044820152606490fd5b346200016c5760003660031901126200016c576002546040516001600160a01b039091168152602090f35b346200016c5760003660031901126200016c5760206040516127108152f35b346200016c5760003660031901126200016c576008546040516001600160a01b039091168152602090f35b346200016c5760003660031901126200016c576020600354604051908152f35b346200016c576101203660031901126200016c57620011fc62003f75565b6024356001600160a01b03811681036200016c5760649160e4356001600160a01b03811681036200016c5761010435916001600160a01b03831683036200016c576200125460018060a01b03600054163314620046bd565b6001600160a01b031692831562001504576001600160a01b03811615620014c05761012c604435116200148d5760843515620014525760a43515620014155760c43515620013df576001600160a01b03821662001394575b907f62de0c78f593b14f1d09c895ce83a42ea45a7d77a716a05432a53193305b3c5a946101209493926001600160601b0360a01b8581600154161760015560018060a01b038216816002541617600255604435600355823560045560843560055560a43560065560c43560075560018060a01b03841681600854161760085560018060a01b03851690600954161760095560405194855260018060a01b031660208501526044356040850152356060840152608435608084015260a43560a084015260c43560c084015260018060a01b031660e083015260018060a01b0316610100820152a1005b6001600160a01b038316620012ac5760405162461bcd60e51b81526020600482015260156024820152741b1c081c9958da5c1a595b9d081c995c5d5a5c9959605a1b60448201528590fd5b60405162461bcd60e51b815260206004820152600f60248201526e1d185c99d95d081c995c5d5a5c9959608a1b60448201528590fd5b60405162461bcd60e51b81526020600482015260166024820152751d9a5c9d1d585b081d1bdad95b881c995c5d5a5c995960521b60448201528590fd5b60405162461bcd60e51b81526020600482015260146024820152731d9a5c9d1d585b08195d1a081c995c5d5a5c995960621b60448201528590fd5b60405162461bcd60e51b815260206004820152600c60248201526b0cccaca40e8dede40d0d2ced60a31b60448201528590fd5b60405162461bcd60e51b815260206004820152601b60248201527f706c6174666f726d20726563697069656e74207265717569726564000000000060448201528590fd5b60405162461bcd60e51b8152602060048201526016602482015275199959481c9958da5c1a595b9d081c995c5d5a5c995960521b60448201528590fd5b346200016c5760003660031901126200016c576020600a54604051908152f35b346200016c5760403660031901126200016c5762001584602435600435620045b6565b60405160209160208201926020835281518094526040830193602060408260051b8601019301916000955b828710620015bd5785850386f35b909192938280620015db600193603f198a820301865288516200412c565b9601920196019592919092620015af565b620015f73662003fbc565b946200161860018060a09c97949a9b9c9695961b036008541615156200449d565b60095462001631906001600160a01b03161515620044df565b620016456004546200028181341162004523565b9662001650620046f7565b6040518881527fac9d85dc25663b5cc567afaed6bb7823377f8f9f4164bc741a6ed341c04a8ec760203392a26000610100528a1562001114578015620010dd578815620010a6576107d087116200106b57600061010052600254604051906001600160a01b03166001600160401b0361172d8301908111908311176200101b578190620017118d8f620016fa8c889261172d62006719893960e061172d890181815201916200483d565b9161172d86018303602061172d880101526200483d565b908c604061172d8501015230606061172d8501015233608061172d8501015260a061172d84010152603260c061172d8401015203906000f060e05260e0511562000ec5576002546001600160a01b03163314996200176f8b62004878565b600154600354600554600654600754600854604051969f96956001600160a01b039182169592949291166001600160401b03611e5e8801908111908811176200101b57611e5e620048bb883960e080516001600160a01b03908116611e5e8a0190815230602082015260408101939093526060830193909352608082019390935260a081019390935260c08301939093528101929092528c166101008201528190036101200191f09a8b1562000ec5578a89810204890362001005578b620018766020620018458e6127108e820204906200457b565b60405163a9059cbb60e01b81526001600160a01b039094166004850152602484018190529291829081906044820190565b0381600060018060a01b0360e051165af190811562000ec55760009162002319575b501562000fa557898c612710828202046200229c575b50506001600160a01b038d163b156200016c5760008d602482936040519485938492639556483760e01b8452600484015260018060a01b03165af1801562000ec55762002284575b506001600160a01b038c163b156200219e576040516309485dc960e21b81528c816004816101005193610100519060018060a01b03165af1801562001d505762002269575b50600460208d604051928380926306b456ef60e21b825260018060a01b03165afa90811562001d5057610100519162002220575b506001600160a01b038116620021b1575b50801590620021a5575b62002134575b60e05161010080516001600160a01b039283169052600b602052516040902080546001600160a01b031916918d16919091179055600a549b600160401b8d101562001e775760018d01600a55620019e78d620042bc565b5050620019f48d620042bc565b509760018060a01b0360e051166001600160601b0360a01b8a5416178955600189018d60018060a01b03166001600160601b0360a01b82541617905560028901336001600160601b0360a01b8254161790556001600160401b03821162001e7757819062001a6660038b01546200430d565b601f8111620020d6575b506101005190601f83116001146200205f57610100519262002053575b50508160011b916000199060031b1c19161760038801555b6001600160401b03821162001e7757819062001ac560048901546200430d565b601f811162001ff5575b506101005190601f831160011462001f7e57610100519262001f72575b50508160011b916000199060031b1c19161760048601555b6001600160401b03821162001e7757819062001b2460058701546200430d565b601f811162001f14575b506101005190601f831160011462001e9d57610100519262001e91575b50508160011b916000199060031b1c19161760058401555b6001600160401b03821162001e7757819062001b8360068501546200430d565b601f811162001e19575b506101005190601f831160011462001da257610100519262001d96575b50508160011b916000199060031b1c19161760068201555b8360078201556127108285020460088201556009429101556003546007549061271060018060a01b0360085416936040519660018060a01b0389168852806020890152020460408601526060850152608084015260a083015260018060a01b031660c082015260018060a01b0360e05116908360008051602062007e6683398151915260e03393a46040516317773ebb60e01b815260e051602090829060049082906001600160a01b03165afa90811562001d5057610100519162001d5e575b5060405163116e689f60e11b815260e051602090829060049082906001600160a01b03165afa90811562001d5057610100519162001d18575b506040519160328352602083015260408201528260008051602062007e46833981519152606060018060a01b0360e0511693a36040805160e0519381526001600160a01b0393841660208201529190921691810191909152606090f35b90506020813d60201162001d47575b8162001d366020938362004249565b810103126200016c57518462001cbb565b3d915062001d27565b6040513d61010051823e3d90fd5b90506020813d60201162001d8d575b8162001d7c6020938362004249565b810103126200016c57518362001c82565b3d915062001d6d565b01359050888062001baa565b61010080516006870190525160208120909450915b601f198416851062001e00576001945083601f1981161062001de5575b505050811b01600682015562001bc2565b0135600019600384901b60f8161c1916905588808062001dd4565b8181013583556020948501946001909301920162001db7565b90915060068401610100515260206101005120601f840160051c81016020851062001e6f575b90849392915b601f830160051c8201811062001e5d57505062001b8d565b61010051815585945060010162001e45565b508062001e3f565b634e487b7160e01b61010051526041600452602461010051fd5b013590508a8062001b4b565b61010080516005890190525160208120909450915b601f198416851062001efb576001945083601f1981161062001ee0575b505050811b01600584015562001b63565b0135600019600384901b60f8161c191690558a808062001ecf565b8181013583556020948501946001909301920162001eb2565b90915060058601610100515260206101005120601f840160051c81016020851062001f6a575b90849392915b601f830160051c8201811062001f5857505062001b2e565b61010051815585945060010162001f40565b508062001f3a565b013590508c8062001aec565b610100805160048b0190525160208120909450915b601f198416851062001fdc576001945083601f1981161062001fc1575b505050811b01600486015562001b04565b0135600019600384901b60f8161c191690558c808062001fb0565b8181013583556020948501946001909301920162001f93565b90915060048801610100515260206101005120601f840160051c8101602085106200204b575b90849392915b601f830160051c820181106200203957505062001acf565b61010051815585945060010162002021565b50806200201b565b013590508e8062001a8d565b610100805160038d0190525160208120909450915b601f1984168510620020bd576001945083601f19811610620020a2575b505050811b01600388015562001aa5565b0135600019600384901b60f8161c191690558e808062002091565b8181013583556020948501946001909301920162002074565b90915060038a01610100515260206101005120601f840160051c8101602085106200212c575b90849392915b601f830160051c820181106200211a57505062001a70565b61010051815585945060010162002102565b5080620020fc565b60e0516001600160a01b03163b156200219e57604051636e258e0760e11b81526101005160e0518290600490829084906001600160a01b03165af1801562001d505762002183575b5062001990565b6200218e9062004235565b610100516200219e578c6200217c565b6101005180fd5b5061123746146200198a565b60e0516001600160a01b03163b156200219e576040516315c6deb960e31b81526001600160a01b0391821660048201526101005160e05191929091839160249183918591165af1801562001d5057156200198057620022109062004235565b610100516200219e578d62001980565b90506020813d60201162002260575b816200223e6020938362004249565b810103126200219e57516001600160a01b03811681036200219e578e6200196f565b3d91506200222f565b620022749062004235565b610100516200219e578d6200193b565b6200228f9062004235565b6000610100528d620018f6565b60405163a9059cbb60e01b81523360048201526127109190920204602482015260208180604481010381600060018060a01b0360e051165af190811562000ec557600091620022f5575b501562000f2a57898c620018ae565b62002312915060203d60201162000f9d5762000f8d818362004249565b8f620022e6565b62002336915060203d60201162000f9d5762000f8d818362004249565b8f62001898565b346200016c5760003660031901126200016c576020600654604051908152f35b346200016c5760003660031901126200016c576000546040516001600160a01b039091168152602090f35b346200016c5760003660031901126200016c576020600454604051908152f35b346200016c5760003660031901126200016c5760206040516112378152f35b346200016c5760003660031901126200016c576020600754604051908152f35b346200016c5760203660031901126200016c57600435620024076200426b565b50600a5481101562002442576200242d620024266200095292620042bc565b50620043fb565b6040519182916020835260208301906200412c565b60405162461bcd60e51b81526020600482015260116024820152701a5b9d985b1a59081b185d5b98da081a59607a1b6044820152606490fd5b346200016c5760003660031901126200016c57602060405160328152f35b346200016c5760003660031901126200016c576001546040516001600160a01b039091168152602090f35b620024cf3662004051565b6101405260045498999198909691959294929190620024f0903414620041d5565b620024fa620046f7565b600061018052891562001114578015620010dd578815620010a6576107d087116200106b576103e861014051116200103157600254604051906001600160a01b03166001600160401b0361172d8301908111908311176200101b578190620025946200257c8e61172d62006719863960e061172d860181815201908c6200483d565b61172d84018103602061172d86010152858d6200483d565b908c604061172d8501015230606061172d8501015233608061172d8501015260a061172d840101526101405160c061172d8401015203906000f061016052610160511562000ec5576002546001600160a01b0316331497620025f68962004878565b600154600354600554600654600754600854604051969f96956001600160a01b039182169592949291166001600160401b03611e5e8801908111908811176200101b57611e5e620048bb8839610160516001600160a01b03908116611e5e890190815230602082015260408101929092526060820192909252608081019290925260a082019290925260c081019290925260e0820192909252908c1661010082015281900361012001906000f06101e0526101e0511562000ec5578a8981020489036200100557620026cf6127108a8d02048c6200457b565b60405163a9059cbb60e01b81526101e0516001600160a01b039081166004830152602482018390526101605160209183916044918391600091165af190811562000ec557600091620031c8575b501562000fa557898c612710828202046200314a575b50506101e0516001600160a01b03163b156200016c5760405190639556483760e01b825260048201526000816024818360018060a01b036101e051165af1801562000ec55762003132575b506101805162002f32575b506101605161018080516001600160a01b039283169052600b60205251604090206101e05181546001600160a01b0319169216919091179055600a549a600160401b8c101562002c755760018c01600a55620027e48c620042bc565b5050620027f18c620042bc565b506101605181546001600160a01b03199081166001600160a01b039283161783556101e0516001840180548316919093161790915560028201805490911633179055976001600160401b03821162002c755781906200285460038b01546200430d565b601f811162002ed4575b506101805190601f831160011462002e5d57610180519262002e51575b50508160011b916000199060031b1c19161760038801555b6001600160401b03821162002c75578190620028b360048901546200430d565b601f811162002df3575b506101805190601f831160011462002d7c57610180519262002d70575b50508160011b916000199060031b1c19161760048601555b6001600160401b03821162002c755781906200291260058701546200430d565b601f811162002d12575b506101805190601f831160011462002c9b57610180519262002c8f575b50508160011b916000199060031b1c19161760058401555b6001600160401b03821162002c755781906200297160068501546200430d565b601f811162002c17575b506101805190601f831160011462002ba057610180519262002b94575b50508160011b916000199060031b1c19161760068201555b8360078201556127108285020460088201556009429101556003546007549061271060018060a01b0360085416936040519660018060a01b036101e051168852806020890152020460408601526060850152608084015260a083015260018060a01b031660c082015260018060a01b036101605116908260008051602062007e6683398151915260e03393a4604051906317773ebb60e01b825260208260048160018060a01b0361016051165afa91821562002b4c57610180519262002b5a575b506040519163116e689f60e11b835260208360048160018060a01b0361016051165afa801562002b4c57610180519062002b11575b62000952935060405191610140518352602083015260408201528160008051602062007e46833981519152606060018060a01b03610160511693a3604080516101e051610160519382526001600160a01b039384166020830152909216908201529081906060820190565b506020833d60201162002b43575b8162002b2e6020938362004249565b810103126200016c5762000952925162002aa6565b3d915062002b1f565b6040513d61018051823e3d90fd5b9091506020813d60201162002b8b575b8162002b796020938362004249565b810103126200016c5751908262002a71565b3d915062002b6a565b01359050878062002998565b61018080516006870190525160208120909450915b601f198416851062002bfe576001945083601f1981161062002be3575b505050811b016006820155620029b0565b0135600019600384901b60f8161c1916905587808062002bd2565b8181013583556020948501946001909301920162002bb5565b90915060068401610180515260206101805120601f840160051c81016020851062002c6d575b90849392915b601f830160051c8201811062002c5b5750506200297b565b61018051815585945060010162002c43565b508062002c3d565b634e487b7160e01b61018051526041600452602461018051fd5b01359050898062002939565b61018080516005890190525160208120909450915b601f198416851062002cf9576001945083601f1981161062002cde575b505050811b01600584015562002951565b0135600019600384901b60f8161c1916905589808062002ccd565b8181013583556020948501946001909301920162002cb0565b90915060058601610180515260206101805120601f840160051c81016020851062002d68575b90849392915b601f830160051c8201811062002d565750506200291c565b61018051815585945060010162002d3e565b508062002d38565b013590508b80620028da565b610180805160048b0190525160208120909450915b601f198416851062002dda576001945083601f1981161062002dbf575b505050811b016004860155620028f2565b0135600019600384901b60f8161c191690558b808062002dae565b8181013583556020948501946001909301920162002d91565b90915060048801610180515260206101805120601f840160051c81016020851062002e49575b90849392915b601f830160051c8201811062002e37575050620028bd565b61018051815585945060010162002e1f565b508062002e19565b013590508d806200287b565b610180805160038d0190525160208120909450915b601f198416851062002ebb576001945083601f1981161062002ea0575b505050811b01600388015562002893565b0135600019600384901b60f8161c191690558d808062002e8f565b8181013583556020948501946001909301920162002e72565b90915060038a01610180515260206101805120601f840160051c81016020851062002f2a575b90849392915b601f830160051c8201811062002f185750506200285e565b61018051815585945060010162002f00565b508062002efa565b6101e0516001600160a01b03163b156200304a576040516309485dc960e21b8152610180516101e0518290600490829084906001600160a01b03165af1801562002b4c5762003117575b506040516306b456ef60e21b81526101e051602090829060049082906001600160a01b03165afa90811562002b4c576101805191620030ce575b506001600160a01b0381166200305d575b5080159062003051575b62002fde575b8b62002788565b610160516001600160a01b03163b156200304a57604051636e258e0760e11b815261018051610160518290600490829084906001600160a01b03165af1801562002b4c576200302f575b5062002fd7565b6200303a9062004235565b610180516200304a578b62003028565b6101805180fd5b50611237461462002fd1565b610160516001600160a01b03163b156200304a576040516315c6deb960e31b81526001600160a01b039182166004820152610180516101605191929091839160249183918591165af1801562002b4c571562002fc757620030be9062004235565b610180516200304a578c62002fc7565b90506020813d6020116200310e575b81620030ec6020938362004249565b810103126200304a57516001600160a01b03811681036200304a578d62002fb6565b3d9150620030dd565b620031229062004235565b610180516200304a578c62002f7c565b6200313d9062004235565b6000610180528c6200277d565b60405163a9059cbb60e01b81523360048201526127109190920204602482015260208180604481010381600060018060a01b0361016051165af190811562000ec557600091620031a4575b501562000f2a57898c62002732565b620031c1915060203d60201162000f9d5762000f8d818362004249565b8e62003195565b620031e5915060203d60201162000f9d5762000f8d818362004249565b8e6200271c565b346200016c5760003660031901126200016c5760206040516103e88152f35b346200016c5760003660031901126200016c576020600554604051908152f35b346200016c5760003660031901126200016c576009546040516001600160a01b039091168152602090f35b620032613662003fbc565b946200327b60049a95929897999a949394543414620041d5565b62003285620046f7565b60006101c052891562001114578815620010dd578715620010a6576107d086116200106b5760006101c052600254604051906001600160a01b03166001600160401b0361172d8301908111908311176200101b57819062003318620033008e61172d62006719863960e061172d860181815201908b6200483d565b61172d84018103602061172d860101528d8c6200483d565b908b604061172d8501015230606061172d8501015233608061172d8501015260a061172d84010152603260c061172d8401015203906000f06101a0526101a0511562000ec5576002546001600160a01b0316331498620033788a62004878565b600154600354600554600654600754600854604051969e96956001600160a01b039182169592949291166001600160401b03611e5e8801908111908811176200101b57611e5e620048bb88396101a0516001600160a01b03908116611e5e890190815230602082015260408101929092526060820192909252608081019290925260a082019290925260c081019290925260e0820192909252908b1661010082015281900361012001906000f09a8b1562000ec5578a89810204890362001005578b620034536020620018458e6127108e820204906200457b565b0381600060018060a01b036101a051165af190811562000ec55760009162003f15575b501562000fa557898c6127108282020462003e97575b50506001600160a01b038d163b156200016c5760008d602482936040519485938492639556483760e01b8452600484015260018060a01b03165af1801562000ec55762003e7f575b506101c05162003c8b575b506101a0516101c080516001600160a01b039283169052600b602052516040902080546001600160a01b031916918d16919091179055600a549b600160401b8d1015620039ce5760018d01600a55620035388d620042bc565b5050620035458d620042bc565b509760018060a01b036101a051166001600160601b0360a01b8a5416178955600189018d60018060a01b03166001600160601b0360a01b82541617905560028901336001600160601b0360a01b8254161790556001600160401b038211620039ce578190620035b860038b01546200430d565b601f811162003c2d575b506101c05190601f831160011462003bb6576101c0519262003baa575b50508160011b916000199060031b1c19161760038801555b6001600160401b038211620039ce5781906200361760048901546200430d565b601f811162003b4c575b506101c05190601f831160011462003ad5576101c0519262003ac9575b50508160011b916000199060031b1c19161760048601555b6001600160401b038211620039ce5781906200367660058701546200430d565b601f811162003a6b575b506101c05190601f8311600114620039f4576101c05192620039e8575b50508160011b916000199060031b1c19161760058401555b6001600160401b038211620039ce578190620036d560068501546200430d565b601f811162003970575b506101c05190601f8311600114620038f9576101c05192620038ed575b50508160011b916000199060031b1c19161760068201555b8360078201556127108285020460088201556009429101556003546007549061271060018060a01b0360085416936040519660018060a01b0389168852806020890152020460408601526060850152608084015260a083015260018060a01b031660c082015260018060a01b036101a05116908360008051602062007e6683398151915260e03393a46040516317773ebb60e01b81526101a051602090829060049082906001600160a01b03165afa908115620038a7576101c05191620038b5575b5060405163116e689f60e11b81526101a051602090829060049082906001600160a01b03165afa908115620038a7576101c051916200386f575b506040519160328352602083015260408201528260008051602062007e46833981519152606060018060a01b036101a0511693a3604080516101a0519381526001600160a01b0393841660208201529190921691810191909152606090f35b90506020813d6020116200389e575b816200388d6020938362004249565b810103126200016c57518462003810565b3d91506200387e565b6040513d6101c051823e3d90fd5b90506020813d602011620038e4575b81620038d36020938362004249565b810103126200016c575183620037d6565b3d9150620038c4565b013590508880620036fc565b6101c080516006870190525160208120909450915b601f198416851062003957576001945083601f198116106200393c575b505050811b01600682015562003714565b0135600019600384901b60f8161c191690558880806200392b565b818101358355602094850194600190930192016200390e565b909150600684016101c0515260206101c05120601f840160051c810160208510620039c6575b90849392915b601f830160051c82018110620039b4575050620036df565b6101c05181558594506001016200399c565b508062003996565b634e487b7160e01b6101c05152604160045260246101c051fd5b013590508a806200369d565b6101c080516005890190525160208120909450915b601f198416851062003a52576001945083601f1981161062003a37575b505050811b016005840155620036b5565b0135600019600384901b60f8161c191690558a808062003a26565b8181013583556020948501946001909301920162003a09565b909150600586016101c0515260206101c05120601f840160051c81016020851062003ac1575b90849392915b601f830160051c8201811062003aaf57505062003680565b6101c051815585945060010162003a97565b508062003a91565b013590508c806200363e565b6101c0805160048b0190525160208120909450915b601f198416851062003b33576001945083601f1981161062003b18575b505050811b01600486015562003656565b0135600019600384901b60f8161c191690558c808062003b07565b8181013583556020948501946001909301920162003aea565b909150600488016101c0515260206101c05120601f840160051c81016020851062003ba2575b90849392915b601f830160051c8201811062003b9057505062003621565b6101c051815585945060010162003b78565b508062003b72565b013590508e80620035df565b6101c0805160038d0190525160208120909450915b601f198416851062003c14576001945083601f1981161062003bf9575b505050811b016003880155620035f7565b0135600019600384901b60f8161c191690558e808062003be8565b8181013583556020948501946001909301920162003bcb565b90915060038a016101c0515260206101c05120601f840160051c81016020851062003c83575b90849392915b601f830160051c8201811062003c71575050620035c2565b6101c051815585945060010162003c59565b508062003c53565b6001600160a01b038c163b1562003d97576040516309485dc960e21b81528c816004816101c051936101c0519060018060a01b03165af18015620038a75762003e64575b50600460208d604051928380926306b456ef60e21b825260018060a01b03165afa908115620038a7576101c0519162003e1b575b506001600160a01b03811662003daa575b5080159062003d9e575b62003d2b575b8c620034df565b6101a0516001600160a01b03163b1562003d9757604051636e258e0760e11b81526101c0516101a0518290600490829084906001600160a01b03165af18015620038a75762003d7c575b5062003d24565b62003d879062004235565b6101c05162003d97578c62003d75565b6101c05180fd5b50611237461462003d1e565b6101a0516001600160a01b03163b1562003d97576040516315c6deb960e31b81526001600160a01b0391821660048201526101c0516101a05191929091839160249183918591165af18015620038a7571562003d145762003e0b9062004235565b6101c05162003d97578d62003d14565b90506020813d60201162003e5b575b8162003e396020938362004249565b8101031262003d9757516001600160a01b038116810362003d97578e62003d03565b3d915062003e2a565b62003e6f9062004235565b6101c05162003d97578d62003ccf565b62003e8a9062004235565b60006101c0528d620034d4565b60405163a9059cbb60e01b81523360048201526127109190920204602482015260208180604481010381600060018060a01b036101a051165af190811562000ec55760009162003ef1575b501562000f2a57898c6200348c565b62003f0e915060203d60201162000f9d5762000f8d818362004249565b8f62003ee2565b62003f32915060203d60201162000f9d5762000f8d818362004249565b8f62003476565b346200016c5760203660031901126200016c576020906001600160a01b038062003f6262003f75565b16600052600b8352604060002054168152f35b600435906001600160a01b03821682036200016c57565b9181601f840112156200016c578235916001600160401b0383116200016c57602083818601950101116200016c57565b60c06003198201126200016c576001600160401b03906004358281116200016c578162003fec9160040162003f8c565b939093926024358181116200016c57836200400a9160040162003f8c565b939093926044358381116200016c5782620040289160040162003f8c565b939093926064359182116200016c57620040459160040162003f8c565b90916084359060a43590565b60e06003198201126200016c576001600160401b03906004358281116200016c5781620040819160040162003f8c565b939093926024358181116200016c57836200409f9160040162003f8c565b939093926044358381116200016c5782620040bd9160040162003f8c565b939093926064359182116200016c57620040da9160040162003f8c565b90916084359060a4359060c43590565b919082519283825260005b84811062004117575050826000602080949584010152601f8019910116010190565b602081830181015184830182015201620040f5565b90620041b26200419f6200418c6200417961014060018060a01b038088511687528060208901511660208801526040880151166040870152606087015190806060880152860190620040ea565b60808601518582036080870152620040ea565b60a085015184820360a0860152620040ea565b60c084015183820360c0850152620040ea565b9160e081015160e083015261010080820151908301526101208091015191015290565b15620041dd57565b60405162461bcd60e51b81526020600482015260136024820152720d8c2eadcc6d040cccaca40dad2e6dac2e8c6d606b1b6044820152606490fd5b61014081019081106001600160401b038211176200101b57604052565b6001600160401b0381116200101b57604052565b90601f801991011681019081106001600160401b038211176200101b57604052565b604051906200427a8262004218565b8161012060009182815282602082015282604082015260608082015260606080820152606060a0820152606060c08201528260e0820152826101008201520152565b600a54811015620042f757600a9081600052027fc65a7bb8d6351c1cf70c95a316cc6a92839c986682d98bc35f958f4883f9d2a80190600090565b634e487b7160e01b600052603260045260246000fd5b90600182811c921680156200433f575b60208310146200432957565b634e487b7160e01b600052602260045260246000fd5b91607f16916200431d565b906040519182600082546200435f816200430d565b90818452602094600191600181169081600014620043d7575060011462004394575b505050620043929250038362004249565b565b600090815285812095935091905b818310620043be57505062004392935082010138808062004381565b85548884018501529485019487945091830191620043a2565b925050506200439294925060ff191682840152151560051b82010138808062004381565b906040516200440a8162004218565b6101206009829460018060a01b03808254168552806001830154166020860152600282015416604085015262004443600382016200434a565b606085015262004456600482016200434a565b608085015262004469600582016200434a565b60a08501526200447c600682016200434a565b60c0850152600781015460e085015260088101546101008501520154910152565b15620044a557565b60405162461bcd60e51b815260206004820152601260248201527119195e081c9bdd5d195c881b9bdd081cd95d60721b6044820152606490fd5b15620044e757565b60405162461bcd60e51b81526020600482015260146024820152731b1c081c9958da5c1a595b9d081b9bdd081cd95d60621b6044820152606490fd5b156200452b57565b60405162461bcd60e51b815260206004820152602260248201527f696e73756666696369656e742065746820666f72206665652b6c697175696469604482015261747960f01b6064820152608490fd5b919082039182116200100557565b6001600160401b0381116200101b5760051b60200190565b8051821015620042f75760209160051b010190565b600a54929183821015620046955781019283821162001005578084116200468c575b50620045e581846200457b565b92620045f18462004589565b9362004601604051958662004249565b80855262004612601f199162004589565b0160005b818110620046725750508360005b828410620046325750505050565b620046416200242685620042bc565b6200464d8284620045a1565b526200465a8183620045a1565b50600019811462001005576001938401930162004624565b6020906200467f6200426b565b8282890101520162004616565b925038620045d8565b50509050604051602081018181106001600160401b038211176200101b576040526000815290565b15620046c557565b60405162461bcd60e51b815260206004820152600a60248201526937b7363c9037bbb732b960b11b6044820152606490fd5b600454803410620047f8578015620047f55760008080808060018060a01b039586600254165af1903d15620047ee573d906001600160401b038211620047da576040519162004751601f8201601f19166020018462004249565b825260203d92013e5b156200479557600254166004546040519081527f4cef2d27cdf43d743c3c66401182e93989938e77d1be10f3ab9e6afdf799f83960203392a3565b60405162461bcd60e51b815260206004820152601a60248201527f6c61756e636820666565207472616e73666572206661696c65640000000000006044820152606490fd5b634e487b7160e01b81526041600452602490fd5b506200475a565b50565b60405162461bcd60e51b815260206004820152601760248201527f696e73756666696369656e74206c61756e6368206665650000000000000000006044820152606490fd5b908060209392818452848401376000828201840152601f01601f1916010190565b908160209103126200016c575180151581036200016c5790565b6008546001600160a01b039190821615620048b2576112374614620048aa57620048a3575061dead90565b6009541690565b505061dead90565b50600954169056fe601f62001e5e38819003918201601f19166101009081019290916001600160401b03841183851017620003b257816101209284926040968752833981010312620003ad576200004e81620003c8565b6020906200005e828401620003c8565b916200006c858501620003c8565b926060850151608086015160a08701519160c088015193620000a06101006200009860e08c01620003c8565b9a01620003c8565b6001600160a01b03989097908982161562000378578983161562000341578916998a15620002fd5761012c8411620002ca57841562000286578515620002425786156200020c5789169687620001c1575b5060a05260805260018060a01b03199788600054161760005560015560c05260e052600455836005541617600555169060065416176006553460025551611a809081620003de8239608051818181610723015281816107a50152818161096801528181610cbc0152610dd4015260a051818181610161015281816102f80152818161054501528181610802015261148a015260c051818181610ac4015281816111040152818161193101526119c7015260e051818181610c43015281816110d10152818161196601526119f80152f35b898916620000f1576064908c519062461bcd60e51b82526004820152601560248201527f6c7020726563697069656e7420726571756972656400000000000000000000006044820152fd5b8b5162461bcd60e51b815260048101899052600f60248201526e1d185c99d95d081c995c5d5a5c9959608a1b6044820152606490fd5b8b5162461bcd60e51b815260048101899052601660248201527f7669727475616c20746f6b656e207265717569726564000000000000000000006044820152606490fd5b8b5162461bcd60e51b815260048101899052601460248201527f7669727475616c206574682072657175697265640000000000000000000000006044820152606490fd5b8b5162461bcd60e51b815260048101899052600c60248201526b0cccaca40e8dede40d0d2ced60a31b6044820152606490fd5b8b5162461bcd60e51b815260048101899052601660248201527f66656520726563697069656e74207265717569726564000000000000000000006044820152606490fd5b8b5162461bcd60e51b815260048101899052601060248201526f199858dd1bdc9e481c995c5d5a5c995960821b6044820152606490fd5b8b5162461bcd60e51b815260048101899052600e60248201526d1d1bdad95b881c995c5d5a5c995960921b6044820152606490fd5b600080fd5b634e487b7160e01b600052604160045260246000fd5b51906001600160a01b0382168203620003ad5756fe608060408181526004918236101561001657600080fd5b600092833560e01c9182630758d92414610f00575081631ad15bbc14610ed757816324a9d85314610eb85781632521772414610dbc5781632760eca114610d9f5781632a2c697214610c8d578163334041a614610c66578163343ee3b714610c2b578163398482d814610c075781634329742d14610b57578163452e68dd14610b2e5781634690484014610b065781634beb394c14610ae757816352b86d2b14610aac5781637f544e4914610a8d5781638c575aa31461092b578163955648371461077d578163a64190c414610752578163c45a01551461070e578163cbcb3171146106ef578163d62ccb3f146106d0578163d79875eb14610463578163d96a094a146101fa578163e1a45218146101dd578163e7c2b772146101b6578163f95a02d014610194575063fc0c546a1461014e57600080fd5b34610190578160031936011261019057517f00000000000000000000000000000000000000000000000000000000000000006001600160a01b03168152602090f35b5080fd5b9050346101b257826003193601126101b25760209250549051908152f35b8280fd5b50503461019057816003193601126101905760209060ff60065460a81c1690519015158152f35b505034610190578160031936011261019057602090516127108152f35b91905060209283600319360112610460576006549061021f60ff8360b01c1615610f7b565b60ff60b01b19918216600160b01b1760068190556102539060ff9061024960a082901c8316610fb4565b60a81c161561129a565b341561042e5761271061026860015434611032565b04906102748234611150565b9461027e86611923565b9561028a8715156112d2565b6102978235881015611314565b600354908188116103f2576102f3926102c1898b946102b982956002546110bc565b600255611150565b600355856103cb575b875163a9059cbb60e01b8152339181019182526020820192909252909283918291604090910190565b0381857f00000000000000000000000000000000000000000000000000000000000000006001600160a01b03165af19182156103c0579061033992610393575b50611363565b7fbeae048c6d270d9469f86cf6e8fedda3c60ad770f16c24c9fc131c8e9a09101d83518061037b87339534846040919493926060820195825260208201520152565b0390a2610386611a28565b6006541660065551908152f35b6103b39150873d89116103b9575b6103ab8183611204565b81019061134b565b38610333565b503d6103a1565b8551903d90823e3d90fd5b6103ed858080808a60018060a01b038254165af16103e76113a7565b506113e7565b6102ca565b865162461bcd60e51b81528084018a90526016602482015275696e73756666696369656e74206c697175696469747960501b6044820152606490fd5b825162461bcd60e51b8152808501869052600c60248201526b195d1a081c995c5d5a5c995960a21b6044820152606490fd5b80fd5b919050346101b257806003193601126101b25781356006549061048c60ff8360b01c1615610f7b565b60ff60b01b19918216600160b01b1760068190556104b69060ff9061024960a082901c8316610fb4565b6104c18115156111c0565b6104ca816119bb565b946104d68615156112d2565b600254861161068d576127106104ee60015488611032565b04956104fa8782611150565b95610509602435881015611314565b85516323b872dd60e01b81523382820190815230602082810191909152604082018790526001600160a01b0394929182908190606001038188887f0000000000000000000000000000000000000000000000000000000000000000165af19081156106835761059a929161058391879161066a5750611363565b61058f866003546110bc565b600355600254611150565b600255828080808a335af16105ad6113a7565b5015610631575086807f846c37eef631e0943682d87352ec117c20008eb7f425c9b85ac011a6d4774cc0936106049360209a610614575b505086519485525060208401879052604084015233929081906060820190565b0390a26006541660065551908152f35b81806106299481938254165af16103e76113a7565b8038806105e4565b606490602087519162461bcd60e51b83528201526013602482015272195d1a081d1c985b9cd9995c8819985a5b1959606a1b6044820152fd5b6103b3915060203d6020116103b9576103ab8183611204565b88513d87823e3d90fd5b835162461bcd60e51b8152602081870152601860248201527f696e73756666696369656e7420657468207265736572766500000000000000006044820152606490fd5b5050346101905781600319360112610190576020906002549051908152f35b5050346101905781600319360112610190576020906003549051908152f35b505034610190578160031936011261019057517f00000000000000000000000000000000000000000000000000000000000000006001600160a01b03168152602090f35b905082346104605760203660031901126104605750610771903561123c565b82519182526020820152f35b8391503461019057602090816003193601126101b2578035906001600160a01b03906107cc337f0000000000000000000000000000000000000000000000000000000000000000841614610f40565b6006549160ff8360a01c166108f757846024916107ea8615156111c0565b88516370a0823160e01b8152308582015292839182907f0000000000000000000000000000000000000000000000000000000000000000165afa9081156108ed5790849187916108b8575b501061087f575060ff60a01b1916600160a01b176006556003819055925192835290917fa71ed34ff06af8d6865a8f541aae52d72fa89f0e5ee15f01d48fa6c62c8569149190a180f35b855162461bcd60e51b81529081018490526013602482015272696e73756666696369656e7420746f6b656e7360681b6044820152606490fd5b809250868092503d83116108e6575b6108d18183611204565b810103126108e25783905188610835565b8580fd5b503d6108c7565b87513d88823e3d90fd5b865162461bcd60e51b8152808301869052600e60248201526d185b1c9958591e481cd95959195960921b6044820152606490fd5b8391503461019057606036600319011261019057610947610f25565b602435916001600160a01b03908184168085036108e2576044359261098f817f0000000000000000000000000000000000000000000000000000000000000000163314610f40565b600654906109a360ff8360a81c1615610ff2565b8415610a585785169081610a18575b600580546001600160a01b0319908116939093179055161760065581905593516001600160a01b039182168152911660208201526040810192909252907fbcdc4bff84f936019028a7bcbef6b449550d6334606377b822720e57e94276c490606090a180f35b826109b257885162461bcd60e51b815260208186015260156024820152741b1c081c9958da5c1a595b9d081c995c5d5a5c9959605a1b6044820152606490fd5b885162461bcd60e51b8152602081860152600f60248201526e1d185c99d95d081c995c5d5a5c9959608a1b6044820152606490fd5b5050346101905781600319360112610190576020906008549051908152f35b505034610190578160031936011261019057602090517f00000000000000000000000000000000000000000000000000000000000000008152f35b905082346104605760203660031901126104605750610771903561115d565b505034610190578160031936011261019057905490516001600160a01b039091168152602090f35b50503461019057816003193601126101905760065490516001600160a01b039091168152602090f35b9050346101b257826003193601126101b25760065491610b7d60ff8460b01c1615610f7b565b60ff60b01b19928316600160b01b176006819055610bb19060ff90610ba760a082901c8316610fb4565b60a81c1615610ff2565b600254825411610bcf575050610bc5611448565b6006541660065580f35b906020606492519162461bcd60e51b835282015260126024820152711d185c99d95d081b9bdd081c995858da195960721b6044820152fd5b505034610190578160031936011261019057602090610c246110c9565b9051908152f35b505034610190578160031936011261019057602090517f00000000000000000000000000000000000000000000000000000000000000008152f35b50503461019057816003193601126101905760209060ff60065460a01c1690519015158152f35b919050346101b257806003193601126101b257610ca8610f25565b60243591906001600160a01b0390610ce3337f0000000000000000000000000000000000000000000000000000000000000000841614610f40565b16928315610d685761012c8311610d37575083546001600160a01b031916831784556001829055519081527fe42708d93b95810922305119a3271ca42233da9ebe1e1e503f0e887817a32c7a90602090a280f35b6020606492519162461bcd60e51b8352820152600c60248201526b0cccaca40e8dede40d0d2ced60a31b6044820152fd5b6020606492519162461bcd60e51b835282015260126024820152711c9958da5c1a595b9d081c995c5d5a5c995960721b6044820152fd5b505034610190578160031936011261019057602090610c2461107b565b9050346101b257826003193601126101b257610e02337f00000000000000000000000000000000000000000000000000000000000000006001600160a01b031614610f40565b60065491610e1660ff8460b01c1615610f7b565b60ff60b01b19928316600160b01b176006819055610e409060ff90610ba760a082901c8316610fb4565b600254918215610e8557507f5d6dc6b9835f5448ae2351719684f59735b30dfa8e62677cc6f9e98bd4c08f7f90600354815193845260208401523392a2610bc5611448565b6020606492519162461bcd60e51b8352820152600e60248201526d6e6f20657468207265736572766560901b6044820152fd5b5050346101905781600319360112610190576020906001549051908152f35b50503461019057816003193601126101905760075490516001600160a01b039091168152602090f35b8490346101905781600319360112610190576005546001600160a01b03168152602090f35b600435906001600160a01b0382168203610f3b57565b600080fd5b15610f4757565b60405162461bcd60e51b815260206004820152600c60248201526b6f6e6c7920666163746f727960a01b6044820152606490fd5b15610f8257565b60405162461bcd60e51b815260206004820152600a6024820152697265656e7472616e637960b01b6044820152606490fd5b15610fbb57565b60405162461bcd60e51b815260206004820152600f60248201526e1c1bdbdb081b9bdd081cd959591959608a1b6044820152606490fd5b15610ff957565b60405162461bcd60e51b8152602060048201526011602482015270185b1c9958591e4819dc98591d585d1959607a1b6044820152606490fd5b8181029291811591840414171561104557565b634e487b7160e01b600052601160045260246000fd5b8115611065570490565b634e487b7160e01b600052601260045260246000fd5b60045480156110b6576002546127109182820291808304841490151715611045576110a59161105b565b908082116110b1575090565b905090565b50600090565b9190820180921161104557565b6110f66003547f0000000000000000000000000000000000000000000000000000000000000000906110bc565b80156110b6576111296002547f0000000000000000000000000000000000000000000000000000000000000000906110bc565b90670de0b6b3a7640000918281029281840414901517156110455761114d9161105b565b90565b9190820391821161104557565b60065460ff8160a01c16159081156111b2575b5080156111aa575b6111a15761119e61119961271061119160015485611032565b048093611150565b611923565b91565b50600090600090565b508015611178565b60ff915060a81c1638611170565b156111c757565b60405162461bcd60e51b81526020600482015260156024820152741d1bdad95b88185b5bdd5b9d081c995c5d5a5c9959605a1b6044820152606490fd5b90601f8019910116810190811067ffffffffffffffff82111761122657604052565b634e487b7160e01b600052604160045260246000fd5b60065460ff8160a01c161590811561128c575b508015611284575b6111a157611264906119bb565b80156111a15761119e61271061127c60015484611032565b048092611150565b508015611257565b60ff915060a81c163861124f565b156112a157565b60405162461bcd60e51b815260206004820152600960248201526819dc98591d585d195960ba1b6044820152606490fd5b156112d957565b60405162461bcd60e51b81526020600482015260136024820152721a5b9cdd59999a58da595b9d081bdd5d1c1d5d606a1b6044820152606490fd5b1561131b57565b60405162461bcd60e51b8152602060048201526008602482015267736c69707061676560c01b6044820152606490fd5b90816020910312610f3b57518015158103610f3b5790565b1561136a57565b60405162461bcd60e51b81526020600482015260156024820152741d1bdad95b881d1c985b9cd9995c8819985a5b1959605a1b6044820152606490fd5b3d156113e2573d9067ffffffffffffffff821161122657604051916113d6601f8201601f191660200184611204565b82523d6000602084013e565b606090565b156113ee57565b60405162461bcd60e51b8152602060048201526013602482015272199959481d1c985b9cd9995c8819985a5b1959606a1b6044820152606490fd5b90816020910312610f3b57516001600160a01b0381168103610f3b5790565b6005546001600160a01b039081169081156118e957600160a81b60ff60a81b1960065416176006554260085560035491600254906000928360035583600255807f0000000000000000000000000000000000000000000000000000000000000000169360409283518263095ea7b360e01b80835260049384840152602492828482015289816044816020998a945af180156118df579186918c936118c2575b50600554895191825288166001600160a01b0316868201908152602081019390935291829081906040010381858d5af18015611888576118a5575b50846005541694806006541695610e1042018042116118925760c48b8b6060948f948d519c8d96879563f305d71960e01b87528d8701528b860152896044860152896064860152608485015260a48401525af19788156118885782998397849a611844575b50600554895163c45a015560e01b815290841688828981845afa91821561181b578892918a918893611825575b508c516315ab88c960e31b815293849182905afa91821561181b578389878e95948d948b966117f5575b508160449495969751978896879563e6a4390560e01b8752860152168c840152165afa9081156117eb57918489928e9488916117be575b50169d8e6bffffffffffffffffffffffff60a01b60075416176007558381116116ed575b50505050868111611683575b505085519788525050508401528201524260608201527f71aa8c3702dbbc54247a4e6446450e64a46250dd72707a247ddb01d72eaef44590608090a2565b828092611691898394611150565b908254165af161169f6113a7565b50156116ad57808080611645565b60189060649386519362461bcd60e51b85528401528201527f6574682064757374207472616e73666572206661696c656400000000000000006044820152fd5b611734936116fa91611150565b86548c5163a9059cbb60e01b81529087166001600160a01b03168a8201908152602081019290925293849291839189918391604090910190565b03925af19081156117b4578491611797575b50156117555789863880611639565b875162461bcd60e51b8152808601879052601a818601527f746f6b656e2064757374207472616e73666572206661696c65640000000000006044820152606490fd5b6117ae9150873d89116103b9576103ab8183611204565b38611746565b89513d86823e3d90fd5b6117de9150843d86116117e4575b6117d68183611204565b810190611429565b38611615565b503d6117cc565b8a513d87823e3d90fd5b8596506118128391604496973d8a116117e4576117d68183611204565b969594506115de565b8b513d88823e3d90fd5b61183d919350823d84116117e4576117d68183611204565b91386115b4565b9a50985095506060893d606011611880575b8161186360609383611204565b810103126101905788519587868b01519a01519699969838611587565b3d9150611856565b87513d84823e3d90fd5b5050634e487b7160e01b82525060118352fd5b6118bb90853d87116103b9576103ab8183611204565b5038611522565b6118d890833d85116103b9576103ab8183611204565b50386114e7565b88513d85823e3d90fd5b60405162461bcd60e51b815260206004820152601260248201527119195e081c9bdd5d195c881b9bdd081cd95d60721b6044820152606490fd5b80156110b6576119566002547f0000000000000000000000000000000000000000000000000000000000000000906110bc565b906119a26003549261199c61198b7f0000000000000000000000000000000000000000000000000000000000000000866110bc565b936119968584611032565b926110bc565b9061105b565b808211156119b3576110a591611150565b505050600090565b600254906119a26119ec7f0000000000000000000000000000000000000000000000000000000000000000846110bc565b9161199c611a1d6003547f0000000000000000000000000000000000000000000000000000000000000000906110bc565b916119968386611032565b60ff60065460a81c16611a485760025460045411611a4857611a48611448565b56fea2646970667358221220a2d2c21743871442ce4b02c5554bb646ad2f4caaae2b91120a487832fdc24a2864736f6c6343000818003360406101408152346200060d576200172d803803806200001f8162000612565b92833981019160e0828403126200060d5781516001600160401b03908181116200060d57846200005191850162000638565b9360209081850151908382116200060d576200006f91860162000638565b9083850151946200008360608201620006aa565b6200009160808301620006aa565b9060c0620000a260a08501620006aa565b93015198805115620005d957855115620005a35788156200056d576001600160a01b0382811697908815620005365780851615620004ff57851615620004c7576103e88b116200048e57815181811162000478576000978854916001948584811c941680156200046d575b8a85101462000459578190601f9485811162000406575b508a90858311600114620003a1578c9262000395575b5050600019600383901b1c191690851b1789555b8051928311620003815783548481811c9116801562000376575b898210146200036257908183859493116200030d575b5088918311600114620002a95789926200029d575b5050600019600383901b1c191690821b1790555b8760025560805260a05260c0528560e052610fa080870290878204148715171562000289576127109004946101209580875287039687116200028957907fddf252ad1be2c89b69c2b068fc378daa952ba7f163c4a11628f55a4df523b3ef916101009788528484526006825280868520558551908152a3519061106d9283620006c08439608051838181610238015281816102ff015261035b015260a0518381816106980152610ba8015260c05183818161018d0152610795015260e0518381816106440152610db3015251828181610a070152610df1015251816109690152f35b634e487b7160e01b83526011600452602483fd5b01519050388062000193565b848a52888a208594509190601f1984168b5b8b828210620002f65750508411620002dc575b505050811b019055620001a7565b015160001960f88460031b161c19169055388080620002ce565b8385015186558897909501949384019301620002bb565b90919250848a52888a208380860160051c8201928b871062000358575b91869588929594930160051c01915b828110620003495750506200017e565b8c815586955087910162000339565b925081926200032a565b634e487b7160e01b8a52602260045260248afd5b90607f169062000168565b634e487b7160e01b89526041600452602489fd5b0151905038806200013a565b8c80528b8d208894509190601f1984168e8e5b828210620003ee5750508411620003d4575b505050811b0189556200014e565b015160001960f88460031b161c19169055388080620003c6565b8385015186558b979095019493840193018e620003b4565b9091508b80528a8c208580850160051c8201928d86106200044f575b918991869594930160051c01915b8281106200044057505062000124565b8e815585945089910162000430565b9250819262000422565b634e487b7160e01b8b52602260045260248bfd5b93607f16936200010d565b634e487b7160e01b600052604160045260246000fd5b885162461bcd60e51b81526004810187905260126024820152710e8e4c2c8ca40cccaca40e8dede40d0d2ced60731b6044820152606490fd5b885162461bcd60e51b81526004810187905260116024820152701c1b185d199bdc9b481c995c5d5a5c9959607a1b6044820152606490fd5b895162461bcd60e51b815260048101889052601060248201526f18dc99585d1bdc881c995c5d5a5c995960821b6044820152606490fd5b895162461bcd60e51b815260048101889052601060248201526f199858dd1bdc9e481c995c5d5a5c995960821b6044820152606490fd5b875162461bcd60e51b815260048101869052600f60248201526e1cdd5c1c1b1e481c995c5d5a5c9959608a1b6044820152606490fd5b875162461bcd60e51b815260048101869052600f60248201526e1cde5b589bdb081c995c5d5a5c9959608a1b6044820152606490fd5b875162461bcd60e51b815260048101869052600d60248201526c1b985b59481c995c5d5a5c9959609a1b6044820152606490fd5b600080fd5b6040519190601f01601f191682016001600160401b038111838210176200047857604052565b919080601f840112156200060d5782516001600160401b03811162000478576020906200066e601f8201601f1916830162000612565b928184528282870101116200060d5760005b8181106200069657508260009394955001015290565b858101830151848201840152820162000680565b51906001600160a01b03821682036200060d5756fe608060408181526004918236101561001657600080fd5b600092833560e01c91826302d05d3f14610b9457508163044991d814610b7557816306fdde0314610a9b578163095ea7b314610a2a57816317773ebb146109ef57816318160ddd146109d05781631e26906b146109a95781632044dbb21461098c57816322dcd13e1461095157816323b872dd1461084a5781632bebf6bf146107805781632f9f103214610764578163313ce56714610748578163351fee46146106845781635b632360146106675781635faad8c51461062c57816370a08231146105f457816395d89b41146104d15781639e5f358a146104b3578163a9059cbb14610482578163ae36f5c81461032e578163c45a0155146102ea578163dc4b1c0e1461022057508063dd62ed3e146101d8578063e1a45218146101bc578063eb13554f146101795763f242ab411461014e57600080fd5b3461017557816003193601126101755760035490516001600160a01b039091168152602090f35b5080fd5b5034610175578160031936011261017557517f00000000000000000000000000000000000000000000000000000000000000006001600160a01b03168152602090f35b5034610175578160031936011261017557602090516127108152f35b5034610175578060031936011261017557806020926101f5610c20565b6101fd610c3b565b6001600160a01b0391821683526007865283832091168252845220549051908152f35b9050346102e657826003193601126102e657610266337f00000000000000000000000000000000000000000000000000000000000000006001600160a01b031614610cb3565b6003549160ff8360a01c166102af57505060ff60a01b1916600160a01b17600355337f60b9765cf08f04b4850cd9a0f8da6fa9e854afd328723cc3f6adea6fb4f18d238280a280f35b906020606492519162461bcd60e51b83528201526011602482015270185b1c9958591e481c995b9bdd5b98d959607a1b6044820152fd5b8280fd5b505034610175578160031936011261017557517f00000000000000000000000000000000000000000000000000000000000000006001600160a01b03168152602090f35b839150346101755760203660031901126101755761034a610c20565b6001600160a01b03908190610382337f0000000000000000000000000000000000000000000000000000000000000000841614610cb3565b1691821561044f576003549160ff8360a01c1661040c5782166103d657506001600160a01b03191681176003557fc3cd203585fbc28dcc1692611d2ebc4190312a5b189047df793c69b157aa0d298280a280f35b606490602086519162461bcd60e51b8352820152601060248201526f1c185a5c88185b1c9958591e481cd95d60821b6044820152fd5b855162461bcd60e51b8152602081840152601960248201527f666163746f727920636f6e74726f6c2072656e6f756e636564000000000000006044820152606490fd5b606490602086519162461bcd60e51b8352820152600d60248201526c1c185a5c881c995c5d5a5c9959609a1b6044820152fd5b5050346101755780600319360112610175576020906104ac6104a2610c20565b6024359033610d0e565b5160018152f35b9050346102e657826003193601126102e65760209250549051908152f35b8383346101755781600319360112610175578051908260018054908160011c90600183169283156105ea575b60209384841081146105d7578388529081156105bb5750600114610565575b505050829003601f01601f191682019267ffffffffffffffff841183851017610552575082918261054e925282610bd7565b0390f35b634e487b7160e01b815260418552602490fd5b600187529192508591837fb10e2d527612073b26eecdfd717e6a320cf44b4afac2b0732d9fcbe2b7fa0cf65b8385106105a7575050505083010185808061051c565b805488860183015293019284908201610591565b60ff1916878501525050151560051b840101905085808061051c565b634e487b7160e01b895260228a52602489fd5b91607f16916104fd565b5050346101755760203660031901126101755760209181906001600160a01b0361061c610c20565b1681526006845220549051908152f35b505034610175578160031936011261017557602090517f00000000000000000000000000000000000000000000000000000000000000008152f35b505034610175578160031936011261017557602090516103e88152f35b8383346101755781600319360112610175577f00000000000000000000000000000000000000000000000000000000000000006001600160a01b038116903382900361071657846106e891602096549586926106e1841515610c74565b5530610f43565b7fd046302bdc39599e60a5981e59227dcd1c643f512f56f2e984390c3ac6eadedb848351858152a251908152f35b825162461bcd60e51b8152602081870152600c60248201526b37b7363c9031b932b0ba37b960a11b6044820152606490fd5b5050346101755781600319360112610175576020905160128152f35b5050346101755781600319360112610175576020905160328152f35b919050346102e657826003193601126102e6577f0000000000000000000000000000000000000000000000000000000000000000916001600160a01b038316903382900361081757506107e96020946005549485916107e0831515610c74565b60055530610f43565b7f0636f1043cff5f4c437926a4412416778ddc5e970feb177685b587e81dad9095848351858152a251908152f35b606490602084519162461bcd60e51b8352820152600d60248201526c6f6e6c7920706c6174666f726d60981b6044820152fd5b919050346102e65760603660031901126102e657610866610c20565b61086e610c3b565b6044359160018060a01b03811680875260209560078752858820338952875285882054908582106109195750948096976104ac968660001982036108b7575b5050505050610d0e565b6108c091610c51565b83825260078a528282203383528a528282205582815260078952818120338252895220549086519182527f8c5be1e5ebec7d5bd14f71427d1e84f3dd0314c0f7b2291e5b200ac8c7c3b925883393a338858180866108ad565b865162461bcd60e51b81529081018890526012602482015271185b1b1bddd85b98d948195e18d95959195960721b6044820152606490fd5b505034610175578160031936011261017557602090517f00000000000000000000000000000000000000000000000000000000000000008152f35b50503461017557816003193601126101755760209051610fa08152f35b50503461017557816003193601126101755760209060ff60035460a01c1690519015158152f35b5050346101755781600319360112610175576020906002549051908152f35b505034610175578160031936011261017557602090517f00000000000000000000000000000000000000000000000000000000000000008152f35b50503461017557806003193601126101755760209181610a48610c20565b91602435918291338152600787528181209460018060a01b0316948582528752205582519081527f8c5be1e5ebec7d5bd14f71427d1e84f3dd0314c0f7b2291e5b200ac8c7c3b925843392a35160018152f35b83833461017557816003193601126101755780519082835460018160011c9060018316928315610b6b575b60209384841081146105d7578388529081156105bb5750600114610b1657505050829003601f01601f191682019267ffffffffffffffff841183851017610552575082918261054e925282610bd7565b8680529192508591837f290decd9548b62a8d60345a988386fc84ba6bc95484008f6362f93160ef3e5635b838510610b57575050505083010185808061051c565b805488860183015293019284908201610b41565b91607f1691610ac6565b5050346101755781600319360112610175576020906005549051908152f35b8490346101755781600319360112610175577f00000000000000000000000000000000000000000000000000000000000000006001600160a01b03168152602090f35b6020808252825181830181905290939260005b828110610c0c57505060409293506000838284010152601f8019910116010190565b818101860151848201604001528501610bea565b600435906001600160a01b0382168203610c3657565b600080fd5b602435906001600160a01b0382168203610c3657565b91908203918211610c5e57565b634e487b7160e01b600052601160045260246000fd5b15610c7b57565b60405162461bcd60e51b815260206004820152601060248201526f6e6f7468696e6720746f20636c61696d60801b6044820152606490fd5b15610cba57565b60405162461bcd60e51b815260206004820152600c60248201526b6f6e6c7920666163746f727960a01b6044820152606490fd5b81810292918115918404141715610c5e57565b91908201809211610c5e57565b6001600160a01b03808316939192908415610f0f57831692600091848352602092600684526040918282205490868210610ed957610d4d908795610ffb565b80610ed0575b610da8575b90610d857fddf252ad1be2c89b69c2b068fc378daa952ba7f163c4a11628f55a4df523b3ef968493610c51565b878252600686528282205587815220610d9f838254610d01565b905551908152a3565b612710888882610dd87f00000000000000000000000000000000000000000000000000000000000000008b610cee565b049283610de9575b50505050610d58565b8695949397507f0000000000000000000000000000000000000000000000000000000000000000610e1a908b610cee565b0485888a848d610e2a8685610c51565b93610e3491610c51565b9b8560045490610e4391610d01565b6004558360055490610e5491610d01565b600555308a5260068352848a2081815490610e6e91610d01565b9055845190815230927fddf252ad1be2c89b69c2b068fc378daa952ba7f163c4a11628f55a4df523b3ef91a381519283528a8301527f93bd139ea85d53c55e02dec709128f827ebd5cb8a4a0d873193711b70b0a15b991a39091888838610de0565b50851515610d53565b835162461bcd60e51b815260048101879052600f60248201526e62616c616e636520746f6f206c6f7760881b6044820152606490fd5b60405162461bcd60e51b815260206004820152600c60248201526b7a65726f206164647265737360a01b6044820152606490fd5b60018060a01b038091169160009383855260066020526040852054818110610fbd577fddf252ad1be2c89b69c2b068fc378daa952ba7f163c4a11628f55a4df523b3ef93602093610f9684604094610c51565b8789526006865283892055169586815220610fb2828254610d01565b9055604051908152a3565b60405162461bcd60e51b81526020600482015260166024820152751a5b9cdd59999a58da595b9d08199959481d985d5b1d60521b6044820152606490fd5b6003546001600160a01b0390811691821561102e5781168214928315611022575b50505090565b1614905038808061101c565b5050505060009056fea26469706673582212208a8d56e206380fe30f47d374f12ca945e94e5f473668ae158a7571ae27c8689c64736f6c634300081800338620494f920761bd37321ddd1f125e085d81426820d3ca4e8b1f0ab3dab7a578dc7fea29d21f6a39e7f1b42ad6100f8cdaff48535852696a1155de8a81d87a06a26469706673582212205ce01d02d621153bae7930aad2db3db328168a08c5f3a0eb5917ff27da74d5cd64736f6c63430008180033","opcodes":"PUSH1 0x80 CALLVALUE PUSH3 0x2FD JUMPI PUSH1 0x1F PUSH3 0x81E9 CODESIZE DUP2 SWAP1 SUB SWAP2 DUP3 ADD PUSH1 0x1F NOT AND DUP4 ADD SWAP3 SWAP2 SWAP1 PUSH1 0x1 PUSH1 0x1 PUSH1 0x40 SHL SUB DUP5 GT DUP4 DUP6 LT OR PUSH3 0x302 JUMPI DUP2 PUSH2 0x120 SWAP3 DUP5 SWAP3 PUSH1 0x40 SWAP7 DUP8 MSTORE DUP4 CODECOPY DUP2 ADD SUB SLT PUSH3 0x2FD JUMPI PUSH3 0x52 DUP2 PUSH3 0x318 JUMP JUMPDEST PUSH1 0x20 SWAP2 PUSH3 0x62 DUP4 DUP3 ADD PUSH3 0x318 JUMP JUMPDEST SWAP3 DUP5 DUP3 ADD MLOAD PUSH1 0x60 DUP4 ADD MLOAD PUSH1 0x80 DUP5 ADD MLOAD PUSH1 0xA0 DUP6 ADD MLOAD SWAP2 PUSH1 0xC0 DUP7 ADD MLOAD SWAP4 PUSH3 0x9A PUSH2 0x100 PUSH3 0x92 PUSH1 0xE0 DUP11 ADD PUSH3 0x318 JUMP JUMPDEST SWAP9 ADD PUSH3 0x318 JUMP JUMPDEST PUSH1 0x1 PUSH1 0x1 PUSH1 0xA0 SHL SUB SWAP9 DUP10 AND SWAP10 SWAP1 SWAP8 SWAP1 DUP11 ISZERO PUSH3 0x2B9 JUMPI PUSH2 0x12C DUP4 GT PUSH3 0x286 JUMPI DUP10 AND SWAP1 DUP2 ISZERO PUSH3 0x242 JUMPI DUP5 ISZERO PUSH3 0x1FE JUMPI DUP6 ISZERO PUSH3 0x1BA JUMPI DUP7 ISZERO PUSH3 0x184 JUMPI DUP10 AND SWAP7 DUP8 PUSH3 0x139 JUMPI JUMPDEST POP PUSH1 0x1 DUP1 PUSH1 0xA0 SHL SUB NOT SWAP10 CALLER DUP12 PUSH1 0x0 SLOAD AND OR PUSH1 0x0 SSTORE DUP11 PUSH1 0x1 SLOAD AND OR PUSH1 0x1 SSTORE DUP10 PUSH1 0x2 SLOAD AND OR PUSH1 0x2 SSTORE PUSH1 0x3 SSTORE PUSH1 0x4 SSTORE PUSH1 0x5 SSTORE PUSH1 0x6 SSTORE PUSH1 0x7 SSTORE DUP4 PUSH1 0x8 SLOAD AND OR PUSH1 0x8 SSTORE AND SWAP1 PUSH1 0x9 SLOAD AND OR PUSH1 0x9 SSTORE MLOAD PUSH2 0x7EBB SWAP1 DUP2 PUSH3 0x32E DUP3 CODECOPY RETURN JUMPDEST DUP10 DUP10 AND PUSH3 0xE3 JUMPI PUSH1 0x64 SWAP1 DUP13 MLOAD SWAP1 PUSH3 0x461BCD PUSH1 0xE5 SHL DUP3 MSTORE PUSH1 0x4 DUP3 ADD MSTORE PUSH1 0x15 PUSH1 0x24 DUP3 ADD MSTORE PUSH32 0x6C7020726563697069656E742072657175697265640000000000000000000000 PUSH1 0x44 DUP3 ADD MSTORE REVERT JUMPDEST DUP12 MLOAD PUSH3 0x461BCD PUSH1 0xE5 SHL DUP2 MSTORE PUSH1 0x4 DUP2 ADD DUP10 SWAP1 MSTORE PUSH1 0xF PUSH1 0x24 DUP3 ADD MSTORE PUSH15 0x1D185C99D95D081C995C5D5A5C9959 PUSH1 0x8A SHL PUSH1 0x44 DUP3 ADD MSTORE PUSH1 0x64 SWAP1 REVERT JUMPDEST DUP12 MLOAD PUSH3 0x461BCD PUSH1 0xE5 SHL DUP2 MSTORE PUSH1 0x4 DUP2 ADD DUP10 SWAP1 MSTORE PUSH1 0x16 PUSH1 0x24 DUP3 ADD MSTORE PUSH32 0x7669727475616C20746F6B656E20726571756972656400000000000000000000 PUSH1 0x44 DUP3 ADD MSTORE PUSH1 0x64 SWAP1 REVERT JUMPDEST DUP12 MLOAD PUSH3 0x461BCD PUSH1 0xE5 SHL DUP2 MSTORE PUSH1 0x4 DUP2 ADD DUP10 SWAP1 MSTORE PUSH1 0x14 PUSH1 0x24 DUP3 ADD MSTORE PUSH32 0x7669727475616C20657468207265717569726564000000000000000000000000 PUSH1 0x44 DUP3 ADD MSTORE PUSH1 0x64 SWAP1 REVERT JUMPDEST DUP12 MLOAD PUSH3 0x461BCD PUSH1 0xE5 SHL DUP2 MSTORE PUSH1 0x4 DUP2 ADD DUP10 SWAP1 MSTORE PUSH1 0x1B PUSH1 0x24 DUP3 ADD MSTORE PUSH32 0x706C6174666F726D20726563697069656E742072657175697265640000000000 PUSH1 0x44 DUP3 ADD MSTORE PUSH1 0x64 SWAP1 REVERT JUMPDEST DUP12 MLOAD PUSH3 0x461BCD PUSH1 0xE5 SHL DUP2 MSTORE PUSH1 0x4 DUP2 ADD DUP10 SWAP1 MSTORE PUSH1 0xC PUSH1 0x24 DUP3 ADD MSTORE PUSH12 0xCCCACA40E8DEDE40D0D2CED PUSH1 0xA3 SHL PUSH1 0x44 DUP3 ADD MSTORE PUSH1 0x64 SWAP1 REVERT JUMPDEST DUP12 MLOAD PUSH3 0x461BCD PUSH1 0xE5 SHL DUP2 MSTORE PUSH1 0x4 DUP2 ADD DUP10 SWAP1 MSTORE PUSH1 0x16 PUSH1 0x24 DUP3 ADD MSTORE PUSH32 0x66656520726563697069656E7420726571756972656400000000000000000000 PUSH1 0x44 DUP3 ADD MSTORE PUSH1 0x64 SWAP1 REVERT JUMPDEST PUSH1 0x0 DUP1 REVERT JUMPDEST PUSH4 0x4E487B71 PUSH1 0xE0 SHL PUSH1 0x0 MSTORE PUSH1 0x41 PUSH1 0x4 MSTORE PUSH1 0x24 PUSH1 0x0 REVERT JUMPDEST MLOAD SWAP1 PUSH1 0x1 PUSH1 0x1 PUSH1 0xA0 SHL SUB DUP3 AND DUP3 SUB PUSH3 0x2FD JUMPI JUMP INVALID PUSH2 0x200 DUP1 PUSH1 0x40 MSTORE PUSH1 0x4 CALLDATASIZE LT ISZERO PUSH3 0x15 JUMPI PUSH1 0x0 DUP1 REVERT JUMPDEST PUSH1 0x0 CALLDATALOAD PUSH1 0xE0 SHR SWAP1 DUP2 PUSH4 0xB0420BB EQ PUSH3 0x3F39 JUMPI POP DUP1 PUSH4 0x1036338C EQ PUSH3 0x3256 JUMPI DUP1 PUSH4 0x13ED4AA6 EQ PUSH3 0x322B JUMPI DUP1 PUSH4 0x1C8C0D92 EQ PUSH3 0x320B JUMPI DUP1 PUSH4 0x39CBFA1F EQ PUSH3 0x31EC JUMPI DUP1 PUSH4 0x3C0F4305 EQ PUSH3 0x24C4 JUMPI DUP1 PUSH4 0x46904840 EQ PUSH3 0x2499 JUMPI DUP1 PUSH4 0x4A9DDFDD EQ PUSH3 0x247B JUMPI DUP1 PUSH4 0x5930D3CE EQ PUSH3 0x23E7 JUMPI DUP1 PUSH4 0x63F0EB04 EQ PUSH3 0x23C7 JUMPI DUP1 PUSH4 0x80FA02F7 EQ PUSH3 0x23A8 JUMPI DUP1 PUSH4 0x83EEB3BB EQ PUSH3 0x2388 JUMPI DUP1 PUSH4 0x8DA5CB5B EQ PUSH3 0x235D JUMPI DUP1 PUSH4 0x93A8E04D EQ PUSH3 0x233D JUMPI DUP1 PUSH4 0x96875AA0 EQ PUSH3 0x15EC JUMPI DUP1 PUSH4 0x9B3B9F98 EQ PUSH3 0x1561 JUMPI DUP1 PUSH4 0x9FF0251F EQ PUSH3 0x1541 JUMPI DUP1 PUSH4 0xB82942A5 EQ PUSH3 0x11DE JUMPI DUP1 PUSH4 0xBCAE25A4 EQ PUSH3 0x11BE JUMPI DUP1 PUSH4 0xD578192C EQ PUSH3 0x1193 JUMPI DUP1 PUSH4 0xE1A45218 EQ PUSH3 0x1174 JUMPI DUP1 PUSH4 0xEB13554F EQ PUSH3 0x1149 JUMPI DUP1 PUSH4 0xF0181892 EQ PUSH3 0x220 JUMPI DUP1 PUSH4 0xF2FDE38B EQ PUSH3 0x171 JUMPI PUSH4 0xFCCC2813 EQ PUSH3 0x14D JUMPI PUSH1 0x0 DUP1 REVERT JUMPDEST CALLVALUE PUSH3 0x16C JUMPI PUSH1 0x0 CALLDATASIZE PUSH1 0x3 NOT ADD SLT PUSH3 0x16C JUMPI PUSH1 0x20 PUSH1 0x40 MLOAD PUSH2 0xDEAD DUP2 MSTORE RETURN JUMPDEST PUSH1 0x0 DUP1 REVERT JUMPDEST CALLVALUE PUSH3 0x16C JUMPI PUSH1 0x20 CALLDATASIZE PUSH1 0x3 NOT ADD SLT PUSH3 0x16C JUMPI PUSH3 0x18E PUSH3 0x3F75 JUMP JUMPDEST PUSH1 0x0 SLOAD PUSH1 0x1 PUSH1 0x1 PUSH1 0xA0 SHL SUB DUP1 DUP3 AND SWAP3 PUSH3 0x1AA CALLER DUP6 EQ PUSH3 0x46BD JUMP JUMPDEST AND SWAP2 DUP3 ISZERO PUSH3 0x1EA JUMPI DUP3 SWAP1 PUSH32 0x8BE0079C531659141344CD1FD0A4F28419497F9722A3DAAFE3B4186F6B6457E0 PUSH1 0x0 DUP1 LOG3 PUSH1 0x1 PUSH1 0x1 PUSH1 0xA0 SHL SUB NOT AND OR PUSH1 0x0 SSTORE STOP JUMPDEST PUSH1 0x40 MLOAD PUSH3 0x461BCD PUSH1 0xE5 SHL DUP2 MSTORE PUSH1 0x20 PUSH1 0x4 DUP3 ADD MSTORE PUSH1 0xE PUSH1 0x24 DUP3 ADD MSTORE PUSH14 0x1BDDDB995C881C995C5D5A5C9959 PUSH1 0x92 SHL PUSH1 0x44 DUP3 ADD MSTORE PUSH1 0x64 SWAP1 REVERT JUMPDEST PUSH3 0x22B CALLDATASIZE PUSH3 0x4051 JUMP JUMPDEST PUSH1 0x80 MSTORE PUSH1 0x8 SLOAD SWAP9 SWAP10 SWAP2 SWAP9 SWAP1 SWAP7 SWAP2 SWAP6 SWAP3 SWAP5 SWAP3 SWAP2 SWAP1 PUSH3 0x254 SWAP1 PUSH1 0x1 PUSH1 0x1 PUSH1 0xA0 SHL SUB AND ISZERO ISZERO PUSH3 0x449D JUMP JUMPDEST PUSH1 0x9 SLOAD PUSH3 0x26D SWAP1 PUSH1 0x1 PUSH1 0x1 PUSH1 0xA0 SHL SUB AND ISZERO ISZERO PUSH3 0x44DF JUMP JUMPDEST PUSH3 0x288 PUSH1 0x4 SLOAD PUSH3 0x281 DUP2 CALLVALUE GT PUSH3 0x4523 JUMP JUMPDEST CALLVALUE PUSH3 0x457B JUMP JUMPDEST SWAP8 PUSH3 0x293 PUSH3 0x46F7 JUMP JUMPDEST PUSH1 0x40 MLOAD DUP10 DUP2 MSTORE PUSH32 0xAC9D85DC25663B5CC567AFAED6BB7823377F8F9F4164BC741A6ED341C04A8EC7 PUSH1 0x20 CALLER SWAP3 LOG2 PUSH1 0x0 PUSH1 0xC0 MSTORE DUP11 ISZERO PUSH3 0x1114 JUMPI DUP2 ISZERO PUSH3 0x10DD JUMPI DUP10 ISZERO PUSH3 0x10A6 JUMPI PUSH2 0x7D0 DUP9 GT PUSH3 0x106B JUMPI PUSH2 0x3E8 PUSH1 0x80 MLOAD GT PUSH3 0x1031 JUMPI PUSH1 0x2 SLOAD PUSH1 0x40 MLOAD SWAP1 PUSH1 0x1 PUSH1 0x1 PUSH1 0xA0 SHL SUB AND PUSH1 0x1 PUSH1 0x1 PUSH1 0x40 SHL SUB PUSH2 0x172D DUP4 ADD SWAP1 DUP2 GT SWAP1 DUP4 GT OR PUSH3 0x101B JUMPI DUP2 SWAP1 PUSH3 0x357 PUSH3 0x33F DUP16 PUSH2 0x172D PUSH3 0x6719 DUP7 CODECOPY PUSH1 0xE0 PUSH2 0x172D DUP7 ADD DUP2 DUP2 MSTORE ADD SWAP1 DUP14 PUSH3 0x483D JUMP JUMPDEST PUSH2 0x172D DUP5 ADD DUP2 SUB PUSH1 0x20 PUSH2 0x172D DUP7 ADD ADD MSTORE DUP7 DUP7 PUSH3 0x483D JUMP JUMPDEST SWAP1 DUP14 PUSH1 0x40 PUSH2 0x172D DUP6 ADD ADD MSTORE ADDRESS PUSH1 0x60 PUSH2 0x172D DUP6 ADD ADD MSTORE CALLER PUSH1 0x80 PUSH2 0x172D DUP6 ADD ADD MSTORE PUSH1 0xA0 PUSH2 0x172D DUP5 ADD ADD MSTORE PUSH1 0x80 MLOAD PUSH1 0xC0 PUSH2 0x172D DUP5 ADD ADD MSTORE SUB SWAP1 PUSH1 0x0 CREATE PUSH1 0xA0 MSTORE PUSH1 0xA0 MLOAD ISZERO PUSH3 0xEC5 JUMPI PUSH1 0x2 SLOAD PUSH1 0x1 PUSH1 0x1 PUSH1 0xA0 SHL SUB AND CALLER EQ PUSH3 0x3B5 DUP2 PUSH3 0x4878 JUMP JUMPDEST SWAP10 PUSH1 0x1 DUP1 PUSH1 0xA0 SHL SUB PUSH1 0x1 SLOAD AND PUSH1 0x3 SLOAD PUSH1 0x5 SLOAD PUSH1 0x6 SLOAD PUSH1 0x7 SLOAD SWAP2 PUSH1 0x1 DUP1 PUSH1 0xA0 SHL SUB PUSH1 0x8 SLOAD AND SWAP4 PUSH1 0x40 MLOAD SWAP6 DUP7 PUSH2 0x1E5E DUP2 ADD LT PUSH1 0x1 PUSH1 0x1 PUSH1 0x40 SHL SUB PUSH2 0x1E5E DUP10 ADD GT OR PUSH3 0x101B JUMPI PUSH2 0x1E5E PUSH3 0x48BB DUP9 CODECOPY PUSH1 0xA0 DUP1 MLOAD PUSH1 0x1 PUSH1 0x1 PUSH1 0xA0 SHL SUB SWAP1 DUP2 AND PUSH2 0x1E5E DUP11 ADD SWAP1 DUP2 MSTORE ADDRESS PUSH1 0x20 DUP3 ADD MSTORE PUSH1 0x40 DUP2 ADD SWAP4 SWAP1 SWAP4 MSTORE PUSH1 0x60 DUP4 ADD SWAP4 SWAP1 SWAP4 MSTORE PUSH1 0x80 DUP3 ADD SWAP4 SWAP1 SWAP4 MSTORE SWAP2 DUP3 ADD SWAP3 SWAP1 SWAP3 MSTORE PUSH1 0xC0 DUP2 ADD SWAP3 SWAP1 SWAP3 MSTORE PUSH1 0xE0 DUP3 ADD SWAP3 SWAP1 SWAP3 MSTORE SWAP1 DUP14 AND PUSH2 0x100 DUP3 ADD MSTORE DUP2 SWAP1 SUB PUSH2 0x120 ADD SWAP2 CREATE PUSH2 0x120 MSTORE PUSH2 0x120 MLOAD ISZERO PUSH3 0xEC5 JUMPI DUP11 DUP10 DUP2 MUL DIV DUP10 SUB PUSH3 0x1005 JUMPI PUSH3 0x48C PUSH2 0x2710 DUP11 DUP14 MUL DIV DUP13 PUSH3 0x457B JUMP JUMPDEST PUSH1 0x40 MLOAD PUSH4 0xA9059CBB PUSH1 0xE0 SHL DUP2 MSTORE PUSH2 0x120 MLOAD PUSH1 0x1 PUSH1 0x1 PUSH1 0xA0 SHL SUB SWAP1 DUP2 AND PUSH1 0x4 DUP4 ADD MSTORE PUSH1 0x24 DUP3 ADD DUP4 SWAP1 MSTORE PUSH1 0xA0 MLOAD PUSH1 0x20 SWAP2 DUP4 SWAP2 PUSH1 0x44 SWAP2 DUP4 SWAP2 PUSH1 0x0 SWAP2 AND GAS CALL SWAP1 DUP2 ISZERO PUSH3 0xEC5 JUMPI PUSH1 0x0 SWAP2 PUSH3 0xFE1 JUMPI JUMPDEST POP ISZERO PUSH3 0xFA5 JUMPI DUP10 DUP13 PUSH2 0x2710 DUP3 DUP3 MUL DIV PUSH3 0xED1 JUMPI JUMPDEST POP POP PUSH2 0x120 MLOAD PUSH1 0x1 PUSH1 0x1 PUSH1 0xA0 SHL SUB AND EXTCODESIZE ISZERO PUSH3 0x16C JUMPI PUSH1 0x40 MLOAD SWAP1 PUSH4 0x95564837 PUSH1 0xE0 SHL DUP3 MSTORE PUSH1 0x4 DUP3 ADD MSTORE PUSH1 0x0 DUP2 PUSH1 0x24 DUP2 DUP4 PUSH1 0x1 DUP1 PUSH1 0xA0 SHL SUB PUSH2 0x120 MLOAD AND GAS CALL DUP1 ISZERO PUSH3 0xEC5 JUMPI PUSH3 0xEAE JUMPI JUMPDEST POP PUSH2 0x120 MLOAD PUSH1 0x1 PUSH1 0x1 PUSH1 0xA0 SHL SUB AND EXTCODESIZE ISZERO PUSH3 0xDCC JUMPI PUSH1 0x40 MLOAD PUSH4 0x9485DC9 PUSH1 0xE2 SHL DUP2 MSTORE PUSH1 0xC0 MLOAD PUSH2 0x120 MLOAD DUP3 SWAP1 PUSH1 0x4 SWAP1 DUP3 SWAP1 DUP5 SWAP1 PUSH1 0x1 PUSH1 0x1 PUSH1 0xA0 SHL SUB AND GAS CALL DUP1 ISZERO PUSH3 0x991 JUMPI PUSH3 0xE94 JUMPI JUMPDEST POP PUSH1 0x40 MLOAD PUSH4 0x6B456EF PUSH1 0xE2 SHL DUP2 MSTORE PUSH2 0x120 MLOAD PUSH1 0x20 SWAP1 DUP3 SWAP1 PUSH1 0x4 SWAP1 DUP3 SWAP1 PUSH1 0x1 PUSH1 0x1 PUSH1 0xA0 SHL SUB AND GAS STATICCALL SWAP1 DUP2 ISZERO PUSH3 0x991 JUMPI PUSH1 0xC0 MLOAD SWAP2 PUSH3 0xE4B JUMPI JUMPDEST POP PUSH1 0x1 PUSH1 0x1 PUSH1 0xA0 SHL SUB DUP2 AND PUSH3 0xDDE JUMPI JUMPDEST POP DUP1 ISZERO SWAP1 PUSH3 0xDD2 JUMPI JUMPDEST PUSH3 0xD64 JUMPI JUMPDEST PUSH1 0xA0 MLOAD PUSH1 0xC0 DUP1 MLOAD PUSH1 0x1 PUSH1 0x1 PUSH1 0xA0 SHL SUB SWAP3 DUP4 AND SWAP1 MSTORE PUSH1 0xB PUSH1 0x20 MSTORE MLOAD PUSH1 0x40 SWAP1 KECCAK256 PUSH2 0x120 MLOAD DUP2 SLOAD PUSH1 0x1 PUSH1 0x1 PUSH1 0xA0 SHL SUB NOT AND SWAP3 AND SWAP2 SWAP1 SWAP2 OR SWAP1 SSTORE PUSH1 0xA SLOAD SWAP11 PUSH1 0x1 PUSH1 0x40 SHL DUP13 LT ISZERO PUSH3 0xAB5 JUMPI PUSH1 0x1 DUP13 ADD PUSH1 0xA SSTORE PUSH3 0x636 DUP13 PUSH3 0x42BC JUMP JUMPDEST POP POP PUSH3 0x643 DUP13 PUSH3 0x42BC JUMP JUMPDEST POP PUSH1 0xA0 MLOAD DUP2 SLOAD PUSH1 0x1 PUSH1 0x1 PUSH1 0xA0 SHL SUB NOT SWAP1 DUP2 AND PUSH1 0x1 PUSH1 0x1 PUSH1 0xA0 SHL SUB SWAP3 DUP4 AND OR DUP4 SSTORE PUSH2 0x120 MLOAD PUSH1 0x1 DUP5 ADD DUP1 SLOAD DUP4 AND SWAP2 SWAP1 SWAP4 AND OR SWAP1 SWAP2 SSTORE PUSH1 0x2 DUP3 ADD DUP1 SLOAD SWAP1 SWAP2 AND CALLER OR SWAP1 SSTORE SWAP8 PUSH1 0x1 PUSH1 0x1 PUSH1 0x40 SHL SUB DUP3 GT PUSH3 0xAB5 JUMPI DUP2 SWAP1 PUSH3 0x6A5 PUSH1 0x3 DUP12 ADD SLOAD PUSH3 0x430D JUMP JUMPDEST PUSH1 0x1F DUP2 GT PUSH3 0xD09 JUMPI JUMPDEST POP PUSH1 0xC0 MLOAD SWAP1 PUSH1 0x1F DUP4 GT PUSH1 0x1 EQ PUSH3 0xC93 JUMPI PUSH1 0xC0 MLOAD SWAP3 PUSH3 0xC87 JUMPI JUMPDEST POP POP DUP2 PUSH1 0x1 SHL SWAP2 PUSH1 0x0 NOT SWAP1 PUSH1 0x3 SHL SHR NOT AND OR PUSH1 0x3 DUP9 ADD SSTORE JUMPDEST PUSH1 0x1 PUSH1 0x1 PUSH1 0x40 SHL SUB DUP3 GT PUSH3 0xAB5 JUMPI DUP2 SWAP1 PUSH3 0x702 PUSH1 0x4 DUP10 ADD SLOAD PUSH3 0x430D JUMP JUMPDEST PUSH1 0x1F DUP2 GT PUSH3 0xC2C JUMPI JUMPDEST POP PUSH1 0xC0 MLOAD SWAP1 PUSH1 0x1F DUP4 GT PUSH1 0x1 EQ PUSH3 0xBB6 JUMPI PUSH1 0xC0 MLOAD SWAP3 PUSH3 0xBAA JUMPI JUMPDEST POP POP DUP2 PUSH1 0x1 SHL SWAP2 PUSH1 0x0 NOT SWAP1 PUSH1 0x3 SHL SHR NOT AND OR PUSH1 0x4 DUP7 ADD SSTORE JUMPDEST PUSH1 0x1 PUSH1 0x1 PUSH1 0x40 SHL SUB DUP3 GT PUSH3 0xAB5 JUMPI DUP2 SWAP1 PUSH3 0x75F PUSH1 0x5 DUP8 ADD SLOAD PUSH3 0x430D JUMP JUMPDEST PUSH1 0x1F DUP2 GT PUSH3 0xB4F JUMPI JUMPDEST POP PUSH1 0xC0 MLOAD SWAP1 PUSH1 0x1F DUP4 GT PUSH1 0x1 EQ PUSH3 0xAD9 JUMPI PUSH1 0xC0 MLOAD SWAP3 PUSH3 0xACD JUMPI JUMPDEST POP POP DUP2 PUSH1 0x1 SHL SWAP2 PUSH1 0x0 NOT SWAP1 PUSH1 0x3 SHL SHR NOT AND OR PUSH1 0x5 DUP5 ADD SSTORE JUMPDEST PUSH1 0x1 PUSH1 0x1 PUSH1 0x40 SHL SUB DUP3 GT PUSH3 0xAB5 JUMPI DUP2 SWAP1 PUSH3 0x7BC PUSH1 0x6 DUP6 ADD SLOAD PUSH3 0x430D JUMP JUMPDEST PUSH1 0x1F DUP2 GT PUSH3 0xA5A JUMPI JUMPDEST POP PUSH1 0xC0 MLOAD SWAP1 PUSH1 0x1F DUP4 GT PUSH1 0x1 EQ PUSH3 0x9E4 JUMPI PUSH1 0xC0 MLOAD SWAP3 PUSH3 0x9D8 JUMPI JUMPDEST POP POP DUP2 PUSH1 0x1 SHL SWAP2 PUSH1 0x0 NOT SWAP1 PUSH1 0x3 SHL SHR NOT AND OR PUSH1 0x6 DUP3 ADD SSTORE JUMPDEST DUP4 PUSH1 0x7 DUP3 ADD SSTORE PUSH2 0x2710 DUP3 DUP6 MUL DIV PUSH1 0x8 DUP3 ADD SSTORE PUSH1 0x9 TIMESTAMP SWAP2 ADD SSTORE PUSH1 0x3 SLOAD PUSH1 0x7 SLOAD SWAP1 PUSH2 0x2710 PUSH1 0x1 DUP1 PUSH1 0xA0 SHL SUB PUSH1 0x8 SLOAD AND SWAP4 PUSH1 0x40 MLOAD SWAP7 PUSH1 0x1 DUP1 PUSH1 0xA0 SHL SUB PUSH2 0x120 MLOAD AND DUP9 MSTORE DUP1 PUSH1 0x20 DUP10 ADD MSTORE MUL DIV PUSH1 0x40 DUP7 ADD MSTORE PUSH1 0x60 DUP6 ADD MSTORE PUSH1 0x80 DUP5 ADD MSTORE PUSH1 0xA0 DUP4 ADD MSTORE PUSH1 0x1 DUP1 PUSH1 0xA0 SHL SUB AND PUSH1 0xC0 DUP3 ADD MSTORE PUSH1 0x1 DUP1 PUSH1 0xA0 SHL SUB PUSH1 0xA0 MLOAD AND SWAP1 DUP3 PUSH1 0x0 DUP1 MLOAD PUSH1 0x20 PUSH3 0x7E66 DUP4 CODECOPY DUP2 MLOAD SWAP2 MSTORE PUSH1 0xE0 CALLER SWAP4 LOG4 PUSH1 0x40 MLOAD SWAP1 PUSH4 0x17773EBB PUSH1 0xE0 SHL DUP3 MSTORE PUSH1 0x20 DUP3 PUSH1 0x4 DUP2 PUSH1 0x1 DUP1 PUSH1 0xA0 SHL SUB PUSH1 0xA0 MLOAD AND GAS STATICCALL SWAP2 DUP3 ISZERO PUSH3 0x991 JUMPI PUSH1 0xC0 MLOAD SWAP3 PUSH3 0x99E JUMPI JUMPDEST POP PUSH1 0x40 MLOAD SWAP2 PUSH4 0x116E689F PUSH1 0xE1 SHL DUP4 MSTORE PUSH1 0x20 DUP4 PUSH1 0x4 DUP2 PUSH1 0x1 DUP1 PUSH1 0xA0 SHL SUB PUSH1 0xA0 MLOAD AND GAS STATICCALL DUP1 ISZERO PUSH3 0x991 JUMPI PUSH1 0xC0 MLOAD SWAP1 PUSH3 0x956 JUMPI JUMPDEST PUSH3 0x952 SWAP4 POP PUSH1 0x40 MLOAD SWAP2 PUSH1 0x80 MLOAD DUP4 MSTORE PUSH1 0x20 DUP4 ADD MSTORE PUSH1 0x40 DUP3 ADD MSTORE DUP2 PUSH1 0x0 DUP1 MLOAD PUSH1 0x20 PUSH3 0x7E46 DUP4 CODECOPY DUP2 MLOAD SWAP2 MSTORE PUSH1 0x60 PUSH1 0x1 DUP1 PUSH1 0xA0 SHL SUB PUSH1 0xA0 MLOAD AND SWAP4 LOG3 PUSH1 0x40 DUP1 MLOAD PUSH2 0x120 MLOAD PUSH1 0xA0 MLOAD SWAP4 DUP3 MSTORE PUSH1 0x1 PUSH1 0x1 PUSH1 0xA0 SHL SUB SWAP4 DUP5 AND PUSH1 0x20 DUP4 ADD MSTORE SWAP1 SWAP3 AND SWAP1 DUP3 ADD MSTORE SWAP1 DUP2 SWAP1 PUSH1 0x60 DUP3 ADD SWAP1 JUMP JUMPDEST SUB SWAP1 RETURN JUMPDEST POP PUSH1 0x20 DUP4 RETURNDATASIZE PUSH1 0x20 GT PUSH3 0x988 JUMPI JUMPDEST DUP2 PUSH3 0x973 PUSH1 0x20 SWAP4 DUP4 PUSH3 0x4249 JUMP JUMPDEST DUP2 ADD SUB SLT PUSH3 0x16C JUMPI PUSH3 0x952 SWAP3 MLOAD PUSH3 0x8EA JUMP JUMPDEST RETURNDATASIZE SWAP2 POP PUSH3 0x964 JUMP JUMPDEST PUSH1 0x40 MLOAD RETURNDATASIZE PUSH1 0xC0 MLOAD DUP3 RETURNDATACOPY RETURNDATASIZE SWAP1 REVERT JUMPDEST SWAP1 SWAP2 POP PUSH1 0x20 DUP2 RETURNDATASIZE PUSH1 0x20 GT PUSH3 0x9CF JUMPI JUMPDEST DUP2 PUSH3 0x9BD PUSH1 0x20 SWAP4 DUP4 PUSH3 0x4249 JUMP JUMPDEST DUP2 ADD SUB SLT PUSH3 0x16C JUMPI MLOAD SWAP1 DUP3 PUSH3 0x8B7 JUMP JUMPDEST RETURNDATASIZE SWAP2 POP PUSH3 0x9AE JUMP JUMPDEST ADD CALLDATALOAD SWAP1 POP DUP8 DUP1 PUSH3 0x7E1 JUMP JUMPDEST PUSH1 0xC0 DUP1 MLOAD PUSH1 0x6 DUP8 ADD SWAP1 MSTORE MLOAD PUSH1 0x20 DUP2 KECCAK256 SWAP1 SWAP5 POP SWAP2 JUMPDEST PUSH1 0x1F NOT DUP5 AND DUP6 LT PUSH3 0xA41 JUMPI PUSH1 0x1 SWAP5 POP DUP4 PUSH1 0x1F NOT DUP2 AND LT PUSH3 0xA26 JUMPI JUMPDEST POP POP POP DUP2 SHL ADD PUSH1 0x6 DUP3 ADD SSTORE PUSH3 0x7F9 JUMP JUMPDEST ADD CALLDATALOAD PUSH1 0x0 NOT PUSH1 0x3 DUP5 SWAP1 SHL PUSH1 0xF8 AND SHR NOT AND SWAP1 SSTORE DUP8 DUP1 DUP1 PUSH3 0xA15 JUMP JUMPDEST DUP2 DUP2 ADD CALLDATALOAD DUP4 SSTORE PUSH1 0x20 SWAP5 DUP6 ADD SWAP5 PUSH1 0x1 SWAP1 SWAP4 ADD SWAP3 ADD PUSH3 0x9F8 JUMP JUMPDEST SWAP1 SWAP2 POP PUSH1 0x6 DUP5 ADD PUSH1 0xC0 MLOAD MSTORE PUSH1 0x20 PUSH1 0xC0 MLOAD KECCAK256 PUSH1 0x1F DUP5 ADD PUSH1 0x5 SHR DUP2 ADD PUSH1 0x20 DUP6 LT PUSH3 0xAAD JUMPI JUMPDEST SWAP1 DUP5 SWAP4 SWAP3 SWAP2 JUMPDEST PUSH1 0x1F DUP4 ADD PUSH1 0x5 SHR DUP3 ADD DUP2 LT PUSH3 0xA9C JUMPI POP POP PUSH3 0x7C6 JUMP JUMPDEST PUSH1 0xC0 MLOAD DUP2 SSTORE DUP6 SWAP5 POP PUSH1 0x1 ADD PUSH3 0xA84 JUMP JUMPDEST POP DUP1 PUSH3 0xA7E JUMP JUMPDEST PUSH4 0x4E487B71 PUSH1 0xE0 SHL PUSH1 0xC0 MLOAD MSTORE PUSH1 0x41 PUSH1 0x4 MSTORE PUSH1 0x24 PUSH1 0xC0 MLOAD REVERT JUMPDEST ADD CALLDATALOAD SWAP1 POP DUP10 DUP1 PUSH3 0x784 JUMP JUMPDEST PUSH1 0xC0 DUP1 MLOAD PUSH1 0x5 DUP10 ADD SWAP1 MSTORE MLOAD PUSH1 0x20 DUP2 KECCAK256 SWAP1 SWAP5 POP SWAP2 JUMPDEST PUSH1 0x1F NOT DUP5 AND DUP6 LT PUSH3 0xB36 JUMPI PUSH1 0x1 SWAP5 POP DUP4 PUSH1 0x1F NOT DUP2 AND LT PUSH3 0xB1B JUMPI JUMPDEST POP POP POP DUP2 SHL ADD PUSH1 0x5 DUP5 ADD SSTORE PUSH3 0x79C JUMP JUMPDEST ADD CALLDATALOAD PUSH1 0x0 NOT PUSH1 0x3 DUP5 SWAP1 SHL PUSH1 0xF8 AND SHR NOT AND SWAP1 SSTORE DUP10 DUP1 DUP1 PUSH3 0xB0A JUMP JUMPDEST DUP2 DUP2 ADD CALLDATALOAD DUP4 SSTORE PUSH1 0x20 SWAP5 DUP6 ADD SWAP5 PUSH1 0x1 SWAP1 SWAP4 ADD SWAP3 ADD PUSH3 0xAED JUMP JUMPDEST SWAP1 SWAP2 POP PUSH1 0x5 DUP7 ADD PUSH1 0xC0 MLOAD MSTORE PUSH1 0x20 PUSH1 0xC0 MLOAD KECCAK256 PUSH1 0x1F DUP5 ADD PUSH1 0x5 SHR DUP2 ADD PUSH1 0x20 DUP6 LT PUSH3 0xBA2 JUMPI JUMPDEST SWAP1 DUP5 SWAP4 SWAP3 SWAP2 JUMPDEST PUSH1 0x1F DUP4 ADD PUSH1 0x5 SHR DUP3 ADD DUP2 LT PUSH3 0xB91 JUMPI POP POP PUSH3 0x769 JUMP JUMPDEST PUSH1 0xC0 MLOAD DUP2 SSTORE DUP6 SWAP5 POP PUSH1 0x1 ADD PUSH3 0xB79 JUMP JUMPDEST POP DUP1 PUSH3 0xB73 JUMP JUMPDEST ADD CALLDATALOAD SWAP1 POP DUP12 DUP1 PUSH3 0x727 JUMP JUMPDEST PUSH1 0xC0 DUP1 MLOAD PUSH1 0x4 DUP12 ADD SWAP1 MSTORE MLOAD PUSH1 0x20 DUP2 KECCAK256 SWAP1 SWAP5 POP SWAP2 JUMPDEST PUSH1 0x1F NOT DUP5 AND DUP6 LT PUSH3 0xC13 JUMPI PUSH1 0x1 SWAP5 POP DUP4 PUSH1 0x1F NOT DUP2 AND LT PUSH3 0xBF8 JUMPI JUMPDEST POP POP POP DUP2 SHL ADD PUSH1 0x4 DUP7 ADD SSTORE PUSH3 0x73F JUMP JUMPDEST ADD CALLDATALOAD PUSH1 0x0 NOT PUSH1 0x3 DUP5 SWAP1 SHL PUSH1 0xF8 AND SHR NOT AND SWAP1 SSTORE DUP12 DUP1 DUP1 PUSH3 0xBE7 JUMP JUMPDEST DUP2 DUP2 ADD CALLDATALOAD DUP4 SSTORE PUSH1 0x20 SWAP5 DUP6 ADD SWAP5 PUSH1 0x1 SWAP1 SWAP4 ADD SWAP3 ADD PUSH3 0xBCA JUMP JUMPDEST SWAP1 SWAP2 POP PUSH1 0x4 DUP9 ADD PUSH1 0xC0 MLOAD MSTORE PUSH1 0x20 PUSH1 0xC0 MLOAD KECCAK256 PUSH1 0x1F DUP5 ADD PUSH1 0x5 SHR DUP2 ADD PUSH1 0x20 DUP6 LT PUSH3 0xC7F JUMPI JUMPDEST SWAP1 DUP5 SWAP4 SWAP3 SWAP2 JUMPDEST PUSH1 0x1F DUP4 ADD PUSH1 0x5 SHR DUP3 ADD DUP2 LT PUSH3 0xC6E JUMPI POP POP PUSH3 0x70C JUMP JUMPDEST PUSH1 0xC0 MLOAD DUP2 SSTORE DUP6 SWAP5 POP PUSH1 0x1 ADD PUSH3 0xC56 JUMP JUMPDEST POP DUP1 PUSH3 0xC50 JUMP JUMPDEST ADD CALLDATALOAD SWAP1 POP DUP14 DUP1 PUSH3 0x6CA JUMP JUMPDEST PUSH1 0xC0 DUP1 MLOAD PUSH1 0x3 DUP14 ADD SWAP1 MSTORE MLOAD PUSH1 0x20 DUP2 KECCAK256 SWAP1 SWAP5 POP SWAP2 JUMPDEST PUSH1 0x1F NOT DUP5 AND DUP6 LT PUSH3 0xCF0 JUMPI PUSH1 0x1 SWAP5 POP DUP4 PUSH1 0x1F NOT DUP2 AND LT PUSH3 0xCD5 JUMPI JUMPDEST POP POP POP DUP2 SHL ADD PUSH1 0x3 DUP9 ADD SSTORE PUSH3 0x6E2 JUMP JUMPDEST ADD CALLDATALOAD PUSH1 0x0 NOT PUSH1 0x3 DUP5 SWAP1 SHL PUSH1 0xF8 AND SHR NOT AND SWAP1 SSTORE DUP14 DUP1 DUP1 PUSH3 0xCC4 JUMP JUMPDEST DUP2 DUP2 ADD CALLDATALOAD DUP4 SSTORE PUSH1 0x20 SWAP5 DUP6 ADD SWAP5 PUSH1 0x1 SWAP1 SWAP4 ADD SWAP3 ADD PUSH3 0xCA7 JUMP JUMPDEST SWAP1 SWAP2 POP PUSH1 0x3 DUP11 ADD PUSH1 0xC0 MLOAD MSTORE PUSH1 0x20 PUSH1 0xC0 MLOAD KECCAK256 PUSH1 0x1F DUP5 ADD PUSH1 0x5 SHR DUP2 ADD PUSH1 0x20 DUP6 LT PUSH3 0xD5C JUMPI JUMPDEST SWAP1 DUP5 SWAP4 SWAP3 SWAP2 JUMPDEST PUSH1 0x1F DUP4 ADD PUSH1 0x5 SHR DUP3 ADD DUP2 LT PUSH3 0xD4B JUMPI POP POP PUSH3 0x6AF JUMP JUMPDEST PUSH1 0xC0 MLOAD DUP2 SSTORE DUP6 SWAP5 POP PUSH1 0x1 ADD PUSH3 0xD33 JUMP JUMPDEST POP DUP1 PUSH3 0xD2D JUMP JUMPDEST PUSH1 0xA0 MLOAD PUSH1 0x1 PUSH1 0x1 PUSH1 0xA0 SHL SUB AND EXTCODESIZE ISZERO PUSH3 0xDCC JUMPI PUSH1 0x40 MLOAD PUSH4 0x6E258E07 PUSH1 0xE1 SHL DUP2 MSTORE PUSH1 0xC0 MLOAD PUSH1 0xA0 MLOAD DUP3 SWAP1 PUSH1 0x4 SWAP1 DUP3 SWAP1 DUP5 SWAP1 PUSH1 0x1 PUSH1 0x1 PUSH1 0xA0 SHL SUB AND GAS CALL DUP1 ISZERO PUSH3 0x991 JUMPI PUSH3 0xDB2 JUMPI JUMPDEST POP PUSH3 0x5DD JUMP JUMPDEST PUSH3 0xDBD SWAP1 PUSH3 0x4235 JUMP JUMPDEST PUSH1 0xC0 MLOAD PUSH3 0xDCC JUMPI DUP12 PUSH3 0xDAB JUMP JUMPDEST PUSH1 0xC0 MLOAD DUP1 REVERT JUMPDEST POP PUSH2 0x1237 CHAINID EQ PUSH3 0x5D7 JUMP JUMPDEST PUSH1 0xA0 MLOAD PUSH1 0x1 PUSH1 0x1 PUSH1 0xA0 SHL SUB AND EXTCODESIZE ISZERO PUSH3 0xDCC JUMPI PUSH1 0x40 MLOAD PUSH4 0x15C6DEB9 PUSH1 0xE3 SHL DUP2 MSTORE PUSH1 0x1 PUSH1 0x1 PUSH1 0xA0 SHL SUB SWAP2 DUP3 AND PUSH1 0x4 DUP3 ADD MSTORE PUSH1 0xC0 MLOAD PUSH1 0xA0 MLOAD SWAP2 SWAP3 SWAP1 SWAP2 DUP4 SWAP2 PUSH1 0x24 SWAP2 DUP4 SWAP2 DUP6 SWAP2 AND GAS CALL DUP1 ISZERO PUSH3 0x991 JUMPI ISZERO PUSH3 0x5CD JUMPI PUSH3 0xE3C SWAP1 PUSH3 0x4235 JUMP JUMPDEST PUSH1 0xC0 MLOAD PUSH3 0xDCC JUMPI DUP13 PUSH3 0x5CD JUMP JUMPDEST SWAP1 POP PUSH1 0x20 DUP2 RETURNDATASIZE PUSH1 0x20 GT PUSH3 0xE8B JUMPI JUMPDEST DUP2 PUSH3 0xE69 PUSH1 0x20 SWAP4 DUP4 PUSH3 0x4249 JUMP JUMPDEST DUP2 ADD SUB SLT PUSH3 0xDCC JUMPI MLOAD PUSH1 0x1 PUSH1 0x1 PUSH1 0xA0 SHL SUB DUP2 AND DUP2 SUB PUSH3 0xDCC JUMPI DUP14 PUSH3 0x5BC JUMP JUMPDEST RETURNDATASIZE SWAP2 POP PUSH3 0xE5A JUMP JUMPDEST PUSH3 0xE9F SWAP1 PUSH3 0x4235 JUMP JUMPDEST PUSH1 0xC0 MLOAD PUSH3 0xDCC JUMPI DUP13 PUSH3 0x583 JUMP JUMPDEST PUSH3 0xEB9 SWAP1 PUSH3 0x4235 JUMP JUMPDEST PUSH1 0x0 PUSH1 0xC0 MSTORE DUP13 PUSH3 0x539 JUMP JUMPDEST PUSH1 0x40 MLOAD RETURNDATASIZE PUSH1 0x0 DUP3 RETURNDATACOPY RETURNDATASIZE SWAP1 REVERT JUMPDEST PUSH1 0x40 MLOAD PUSH4 0xA9059CBB PUSH1 0xE0 SHL DUP2 MSTORE CALLER PUSH1 0x4 DUP3 ADD MSTORE PUSH2 0x2710 SWAP2 SWAP1 SWAP3 MUL DIV PUSH1 0x24 DUP3 ADD MSTORE PUSH1 0x20 DUP2 DUP1 PUSH1 0x44 DUP2 ADD SUB DUP2 PUSH1 0x0 PUSH1 0x1 DUP1 PUSH1 0xA0 SHL SUB PUSH1 0xA0 MLOAD AND GAS CALL SWAP1 DUP2 ISZERO PUSH3 0xEC5 JUMPI PUSH1 0x0 SWAP2 PUSH3 0xF6F JUMPI JUMPDEST POP ISZERO PUSH3 0xF2A JUMPI DUP10 DUP13 PUSH3 0x4EE JUMP JUMPDEST PUSH1 0x40 MLOAD PUSH3 0x461BCD PUSH1 0xE5 SHL DUP2 MSTORE PUSH1 0x20 PUSH1 0x4 DUP3 ADD MSTORE PUSH1 0x17 PUSH1 0x24 DUP3 ADD MSTORE PUSH32 0x63726561746F72207472616E73666572206661696C6564000000000000000000 PUSH1 0x44 DUP3 ADD MSTORE PUSH1 0x64 SWAP1 REVERT JUMPDEST PUSH3 0xF96 SWAP2 POP PUSH1 0x20 RETURNDATASIZE PUSH1 0x20 GT PUSH3 0xF9D JUMPI JUMPDEST PUSH3 0xF8D DUP2 DUP4 PUSH3 0x4249 JUMP JUMPDEST DUP2 ADD SWAP1 PUSH3 0x485E JUMP JUMPDEST DUP15 PUSH3 0xF1B JUMP JUMPDEST POP RETURNDATASIZE PUSH3 0xF81 JUMP JUMPDEST PUSH1 0x40 MLOAD PUSH3 0x461BCD PUSH1 0xE5 SHL DUP2 MSTORE PUSH1 0x20 PUSH1 0x4 DUP3 ADD MSTORE PUSH1 0x14 PUSH1 0x24 DUP3 ADD MSTORE PUSH20 0x1C1BDBDB081D1C985B9CD9995C8819985A5B1959 PUSH1 0x62 SHL PUSH1 0x44 DUP3 ADD MSTORE PUSH1 0x64 SWAP1 REVERT JUMPDEST PUSH3 0xFFE SWAP2 POP PUSH1 0x20 RETURNDATASIZE PUSH1 0x20 GT PUSH3 0xF9D JUMPI PUSH3 0xF8D DUP2 DUP4 PUSH3 0x4249 JUMP JUMPDEST DUP15 PUSH3 0x4D8 JUMP JUMPDEST PUSH4 0x4E487B71 PUSH1 0xE0 SHL PUSH1 0x0 MSTORE PUSH1 0x11 PUSH1 0x4 MSTORE PUSH1 0x24 PUSH1 0x0 REVERT JUMPDEST PUSH4 0x4E487B71 PUSH1 0xE0 SHL PUSH1 0x0 MSTORE PUSH1 0x41 PUSH1 0x4 MSTORE PUSH1 0x24 PUSH1 0x0 REVERT JUMPDEST PUSH1 0x40 MLOAD PUSH3 0x461BCD PUSH1 0xE5 SHL DUP2 MSTORE PUSH1 0x20 PUSH1 0x4 DUP3 ADD MSTORE PUSH1 0x12 PUSH1 0x24 DUP3 ADD MSTORE PUSH18 0xE8E4C2C8CA40CCCACA40E8DEDE40D0D2CED PUSH1 0x73 SHL PUSH1 0x44 DUP3 ADD MSTORE PUSH1 0x64 SWAP1 REVERT JUMPDEST PUSH1 0x40 MLOAD PUSH3 0x461BCD PUSH1 0xE5 SHL DUP2 MSTORE PUSH1 0x20 PUSH1 0x4 DUP3 ADD MSTORE PUSH1 0x13 PUSH1 0x24 DUP3 ADD MSTORE PUSH19 0xC2D8D8DEC6C2E8D2DEDC40E8DEDE40D0D2CED PUSH1 0x6B SHL PUSH1 0x44 DUP3 ADD MSTORE PUSH1 0x64 SWAP1 REVERT JUMPDEST PUSH1 0x40 MLOAD PUSH3 0x461BCD PUSH1 0xE5 SHL DUP2 MSTORE PUSH1 0x20 PUSH1 0x4 DUP3 ADD MSTORE PUSH1 0xF PUSH1 0x24 DUP3 ADD MSTORE PUSH15 0x1CDD5C1C1B1E481C995C5D5A5C9959 PUSH1 0x8A SHL PUSH1 0x44 DUP3 ADD MSTORE PUSH1 0x64 SWAP1 REVERT JUMPDEST PUSH1 0x40 MLOAD PUSH3 0x461BCD PUSH1 0xE5 SHL DUP2 MSTORE PUSH1 0x20 PUSH1 0x4 DUP3 ADD MSTORE PUSH1 0xF PUSH1 0x24 DUP3 ADD MSTORE PUSH15 0x1CDE5B589BDB081C995C5D5A5C9959 PUSH1 0x8A SHL PUSH1 0x44 DUP3 ADD MSTORE PUSH1 0x64 SWAP1 REVERT JUMPDEST PUSH1 0x40 MLOAD PUSH3 0x461BCD PUSH1 0xE5 SHL DUP2 MSTORE PUSH1 0x20 PUSH1 0x4 DUP3 ADD MSTORE PUSH1 0xD PUSH1 0x24 DUP3 ADD MSTORE PUSH13 0x1B985B59481C995C5D5A5C9959 PUSH1 0x9A SHL PUSH1 0x44 DUP3 ADD MSTORE PUSH1 0x64 SWAP1 REVERT JUMPDEST CALLVALUE PUSH3 0x16C JUMPI PUSH1 0x0 CALLDATASIZE PUSH1 0x3 NOT ADD SLT PUSH3 0x16C JUMPI PUSH1 0x2 SLOAD PUSH1 0x40 MLOAD PUSH1 0x1 PUSH1 0x1 PUSH1 0xA0 SHL SUB SWAP1 SWAP2 AND DUP2 MSTORE PUSH1 0x20 SWAP1 RETURN JUMPDEST CALLVALUE PUSH3 0x16C JUMPI PUSH1 0x0 CALLDATASIZE PUSH1 0x3 NOT ADD SLT PUSH3 0x16C JUMPI PUSH1 0x20 PUSH1 0x40 MLOAD PUSH2 0x2710 DUP2 MSTORE RETURN JUMPDEST CALLVALUE PUSH3 0x16C JUMPI PUSH1 0x0 CALLDATASIZE PUSH1 0x3 NOT ADD SLT PUSH3 0x16C JUMPI PUSH1 0x8 SLOAD PUSH1 0x40 MLOAD PUSH1 0x1 PUSH1 0x1 PUSH1 0xA0 SHL SUB SWAP1 SWAP2 AND DUP2 MSTORE PUSH1 0x20 SWAP1 RETURN JUMPDEST CALLVALUE PUSH3 0x16C JUMPI PUSH1 0x0 CALLDATASIZE PUSH1 0x3 NOT ADD SLT PUSH3 0x16C JUMPI PUSH1 0x20 PUSH1 0x3 SLOAD PUSH1 0x40 MLOAD SWAP1 DUP2 MSTORE RETURN JUMPDEST CALLVALUE PUSH3 0x16C JUMPI PUSH2 0x120 CALLDATASIZE PUSH1 0x3 NOT ADD SLT PUSH3 0x16C JUMPI PUSH3 0x11FC PUSH3 0x3F75 JUMP JUMPDEST PUSH1 0x24 CALLDATALOAD PUSH1 0x1 PUSH1 0x1 PUSH1 0xA0 SHL SUB DUP2 AND DUP2 SUB PUSH3 0x16C JUMPI PUSH1 0x64 SWAP2 PUSH1 0xE4 CALLDATALOAD PUSH1 0x1 PUSH1 0x1 PUSH1 0xA0 SHL SUB DUP2 AND DUP2 SUB PUSH3 0x16C JUMPI PUSH2 0x104 CALLDATALOAD SWAP2 PUSH1 0x1 PUSH1 0x1 PUSH1 0xA0 SHL SUB DUP4 AND DUP4 SUB PUSH3 0x16C JUMPI PUSH3 0x1254 PUSH1 0x1 DUP1 PUSH1 0xA0 SHL SUB PUSH1 0x0 SLOAD AND CALLER EQ PUSH3 0x46BD JUMP JUMPDEST PUSH1 0x1 PUSH1 0x1 PUSH1 0xA0 SHL SUB AND SWAP3 DUP4 ISZERO PUSH3 0x1504 JUMPI PUSH1 0x1 PUSH1 0x1 PUSH1 0xA0 SHL SUB DUP2 AND ISZERO PUSH3 0x14C0 JUMPI PUSH2 0x12C PUSH1 0x44 CALLDATALOAD GT PUSH3 0x148D JUMPI PUSH1 0x84 CALLDATALOAD ISZERO PUSH3 0x1452 JUMPI PUSH1 0xA4 CALLDATALOAD ISZERO PUSH3 0x1415 JUMPI PUSH1 0xC4 CALLDATALOAD ISZERO PUSH3 0x13DF JUMPI PUSH1 0x1 PUSH1 0x1 PUSH1 0xA0 SHL SUB DUP3 AND PUSH3 0x1394 JUMPI JUMPDEST SWAP1 PUSH32 0x62DE0C78F593B14F1D09C895CE83A42EA45A7D77A716A05432A53193305B3C5A SWAP5 PUSH2 0x120 SWAP5 SWAP4 SWAP3 PUSH1 0x1 PUSH1 0x1 PUSH1 0x60 SHL SUB PUSH1 0xA0 SHL DUP6 DUP2 PUSH1 0x1 SLOAD AND OR PUSH1 0x1 SSTORE PUSH1 0x1 DUP1 PUSH1 0xA0 SHL SUB DUP3 AND DUP2 PUSH1 0x2 SLOAD AND OR PUSH1 0x2 SSTORE PUSH1 0x44 CALLDATALOAD PUSH1 0x3 SSTORE DUP3 CALLDATALOAD PUSH1 0x4 SSTORE PUSH1 0x84 CALLDATALOAD PUSH1 0x5 SSTORE PUSH1 0xA4 CALLDATALOAD PUSH1 0x6 SSTORE PUSH1 0xC4 CALLDATALOAD PUSH1 0x7 SSTORE PUSH1 0x1 DUP1 PUSH1 0xA0 SHL SUB DUP5 AND DUP2 PUSH1 0x8 SLOAD AND OR PUSH1 0x8 SSTORE PUSH1 0x1 DUP1 PUSH1 0xA0 SHL SUB DUP6 AND SWAP1 PUSH1 0x9 SLOAD AND OR PUSH1 0x9 SSTORE PUSH1 0x40 MLOAD SWAP5 DUP6 MSTORE PUSH1 0x1 DUP1 PUSH1 0xA0 SHL SUB AND PUSH1 0x20 DUP6 ADD MSTORE PUSH1 0x44 CALLDATALOAD PUSH1 0x40 DUP6 ADD MSTORE CALLDATALOAD PUSH1 0x60 DUP5 ADD MSTORE PUSH1 0x84 CALLDATALOAD PUSH1 0x80 DUP5 ADD MSTORE PUSH1 0xA4 CALLDATALOAD PUSH1 0xA0 DUP5 ADD MSTORE PUSH1 0xC4 CALLDATALOAD PUSH1 0xC0 DUP5 ADD MSTORE PUSH1 0x1 DUP1 PUSH1 0xA0 SHL SUB AND PUSH1 0xE0 DUP4 ADD MSTORE PUSH1 0x1 DUP1 PUSH1 0xA0 SHL SUB AND PUSH2 0x100 DUP3 ADD MSTORE LOG1 STOP JUMPDEST PUSH1 0x1 PUSH1 0x1 PUSH1 0xA0 SHL SUB DUP4 AND PUSH3 0x12AC JUMPI PUSH1 0x40 MLOAD PUSH3 0x461BCD PUSH1 0xE5 SHL DUP2 MSTORE PUSH1 0x20 PUSH1 0x4 DUP3 ADD MSTORE PUSH1 0x15 PUSH1 0x24 DUP3 ADD MSTORE PUSH21 0x1B1C081C9958DA5C1A595B9D081C995C5D5A5C9959 PUSH1 0x5A SHL PUSH1 0x44 DUP3 ADD MSTORE DUP6 SWAP1 REVERT JUMPDEST PUSH1 0x40 MLOAD PUSH3 0x461BCD PUSH1 0xE5 SHL DUP2 MSTORE PUSH1 0x20 PUSH1 0x4 DUP3 ADD MSTORE PUSH1 0xF PUSH1 0x24 DUP3 ADD MSTORE PUSH15 0x1D185C99D95D081C995C5D5A5C9959 PUSH1 0x8A SHL PUSH1 0x44 DUP3 ADD MSTORE DUP6 SWAP1 REVERT JUMPDEST PUSH1 0x40 MLOAD PUSH3 0x461BCD PUSH1 0xE5 SHL DUP2 MSTORE PUSH1 0x20 PUSH1 0x4 DUP3 ADD MSTORE PUSH1 0x16 PUSH1 0x24 DUP3 ADD MSTORE PUSH22 0x1D9A5C9D1D585B081D1BDAD95B881C995C5D5A5C9959 PUSH1 0x52 SHL PUSH1 0x44 DUP3 ADD MSTORE DUP6 SWAP1 REVERT JUMPDEST PUSH1 0x40 MLOAD PUSH3 0x461BCD PUSH1 0xE5 SHL DUP2 MSTORE PUSH1 0x20 PUSH1 0x4 DUP3 ADD MSTORE PUSH1 0x14 PUSH1 0x24 DUP3 ADD MSTORE PUSH20 0x1D9A5C9D1D585B08195D1A081C995C5D5A5C9959 PUSH1 0x62 SHL PUSH1 0x44 DUP3 ADD MSTORE DUP6 SWAP1 REVERT JUMPDEST PUSH1 0x40 MLOAD PUSH3 0x461BCD PUSH1 0xE5 SHL DUP2 MSTORE PUSH1 0x20 PUSH1 0x4 DUP3 ADD MSTORE PUSH1 0xC PUSH1 0x24 DUP3 ADD MSTORE PUSH12 0xCCCACA40E8DEDE40D0D2CED PUSH1 0xA3 SHL PUSH1 0x44 DUP3 ADD MSTORE DUP6 SWAP1 REVERT JUMPDEST PUSH1 0x40 MLOAD PUSH3 0x461BCD PUSH1 0xE5 SHL DUP2 MSTORE PUSH1 0x20 PUSH1 0x4 DUP3 ADD MSTORE PUSH1 0x1B PUSH1 0x24 DUP3 ADD MSTORE PUSH32 0x706C6174666F726D20726563697069656E742072657175697265640000000000 PUSH1 0x44 DUP3 ADD MSTORE DUP6 SWAP1 REVERT JUMPDEST PUSH1 0x40 MLOAD PUSH3 0x461BCD PUSH1 0xE5 SHL DUP2 MSTORE PUSH1 0x20 PUSH1 0x4 DUP3 ADD MSTORE PUSH1 0x16 PUSH1 0x24 DUP3 ADD MSTORE PUSH22 0x199959481C9958DA5C1A595B9D081C995C5D5A5C9959 PUSH1 0x52 SHL PUSH1 0x44 DUP3 ADD MSTORE DUP6 SWAP1 REVERT JUMPDEST CALLVALUE PUSH3 0x16C JUMPI PUSH1 0x0 CALLDATASIZE PUSH1 0x3 NOT ADD SLT PUSH3 0x16C JUMPI PUSH1 0x20 PUSH1 0xA SLOAD PUSH1 0x40 MLOAD SWAP1 DUP2 MSTORE RETURN JUMPDEST CALLVALUE PUSH3 0x16C JUMPI PUSH1 0x40 CALLDATASIZE PUSH1 0x3 NOT ADD SLT PUSH3 0x16C JUMPI PUSH3 0x1584 PUSH1 0x24 CALLDATALOAD PUSH1 0x4 CALLDATALOAD PUSH3 0x45B6 JUMP JUMPDEST PUSH1 0x40 MLOAD PUSH1 0x20 SWAP2 PUSH1 0x20 DUP3 ADD SWAP3 PUSH1 0x20 DUP4 MSTORE DUP2 MLOAD DUP1 SWAP5 MSTORE PUSH1 0x40 DUP4 ADD SWAP4 PUSH1 0x20 PUSH1 0x40 DUP3 PUSH1 0x5 SHL DUP7 ADD ADD SWAP4 ADD SWAP2 PUSH1 0x0 SWAP6 JUMPDEST DUP3 DUP8 LT PUSH3 0x15BD JUMPI DUP6 DUP6 SUB DUP7 RETURN JUMPDEST SWAP1 SWAP2 SWAP3 SWAP4 DUP3 DUP1 PUSH3 0x15DB PUSH1 0x1 SWAP4 PUSH1 0x3F NOT DUP11 DUP3 SUB ADD DUP7 MSTORE DUP9 MLOAD PUSH3 0x412C JUMP JUMPDEST SWAP7 ADD SWAP3 ADD SWAP7 ADD SWAP6 SWAP3 SWAP2 SWAP1 SWAP3 PUSH3 0x15AF JUMP JUMPDEST PUSH3 0x15F7 CALLDATASIZE PUSH3 0x3FBC JUMP JUMPDEST SWAP5 PUSH3 0x1618 PUSH1 0x1 DUP1 PUSH1 0xA0 SWAP13 SWAP8 SWAP5 SWAP11 SWAP12 SWAP13 SWAP7 SWAP6 SWAP7 SHL SUB PUSH1 0x8 SLOAD AND ISZERO ISZERO PUSH3 0x449D JUMP JUMPDEST PUSH1 0x9 SLOAD PUSH3 0x1631 SWAP1 PUSH1 0x1 PUSH1 0x1 PUSH1 0xA0 SHL SUB AND ISZERO ISZERO PUSH3 0x44DF JUMP JUMPDEST PUSH3 0x1645 PUSH1 0x4 SLOAD PUSH3 0x281 DUP2 CALLVALUE GT PUSH3 0x4523 JUMP JUMPDEST SWAP7 PUSH3 0x1650 PUSH3 0x46F7 JUMP JUMPDEST PUSH1 0x40 MLOAD DUP9 DUP2 MSTORE PUSH32 0xAC9D85DC25663B5CC567AFAED6BB7823377F8F9F4164BC741A6ED341C04A8EC7 PUSH1 0x20 CALLER SWAP3 LOG2 PUSH1 0x0 PUSH2 0x100 MSTORE DUP11 ISZERO PUSH3 0x1114 JUMPI DUP1 ISZERO PUSH3 0x10DD JUMPI DUP9 ISZERO PUSH3 0x10A6 JUMPI PUSH2 0x7D0 DUP8 GT PUSH3 0x106B JUMPI PUSH1 0x0 PUSH2 0x100 MSTORE PUSH1 0x2 SLOAD PUSH1 0x40 MLOAD SWAP1 PUSH1 0x1 PUSH1 0x1 PUSH1 0xA0 SHL SUB AND PUSH1 0x1 PUSH1 0x1 PUSH1 0x40 SHL SUB PUSH2 0x172D DUP4 ADD SWAP1 DUP2 GT SWAP1 DUP4 GT OR PUSH3 0x101B JUMPI DUP2 SWAP1 PUSH3 0x1711 DUP14 DUP16 PUSH3 0x16FA DUP13 DUP9 SWAP3 PUSH2 0x172D PUSH3 0x6719 DUP10 CODECOPY PUSH1 0xE0 PUSH2 0x172D DUP10 ADD DUP2 DUP2 MSTORE ADD SWAP2 PUSH3 0x483D JUMP JUMPDEST SWAP2 PUSH2 0x172D DUP7 ADD DUP4 SUB PUSH1 0x20 PUSH2 0x172D DUP9 ADD ADD MSTORE PUSH3 0x483D JUMP JUMPDEST SWAP1 DUP13 PUSH1 0x40 PUSH2 0x172D DUP6 ADD ADD MSTORE ADDRESS PUSH1 0x60 PUSH2 0x172D DUP6 ADD ADD MSTORE CALLER PUSH1 0x80 PUSH2 0x172D DUP6 ADD ADD MSTORE PUSH1 0xA0 PUSH2 0x172D DUP5 ADD ADD MSTORE PUSH1 0x32 PUSH1 0xC0 PUSH2 0x172D DUP5 ADD ADD MSTORE SUB SWAP1 PUSH1 0x0 CREATE PUSH1 0xE0 MSTORE PUSH1 0xE0 MLOAD ISZERO PUSH3 0xEC5 JUMPI PUSH1 0x2 SLOAD PUSH1 0x1 PUSH1 0x1 PUSH1 0xA0 SHL SUB AND CALLER EQ SWAP10 PUSH3 0x176F DUP12 PUSH3 0x4878 JUMP JUMPDEST PUSH1 0x1 SLOAD PUSH1 0x3 SLOAD PUSH1 0x5 SLOAD PUSH1 0x6 SLOAD PUSH1 0x7 SLOAD PUSH1 0x8 SLOAD PUSH1 0x40 MLOAD SWAP7 SWAP16 SWAP7 SWAP6 PUSH1 0x1 PUSH1 0x1 PUSH1 0xA0 SHL SUB SWAP2 DUP3 AND SWAP6 SWAP3 SWAP5 SWAP3 SWAP2 AND PUSH1 0x1 PUSH1 0x1 PUSH1 0x40 SHL SUB PUSH2 0x1E5E DUP9 ADD SWAP1 DUP2 GT SWAP1 DUP9 GT OR PUSH3 0x101B JUMPI PUSH2 0x1E5E PUSH3 0x48BB DUP9 CODECOPY PUSH1 0xE0 DUP1 MLOAD PUSH1 0x1 PUSH1 0x1 PUSH1 0xA0 SHL SUB SWAP1 DUP2 AND PUSH2 0x1E5E DUP11 ADD SWAP1 DUP2 MSTORE ADDRESS PUSH1 0x20 DUP3 ADD MSTORE PUSH1 0x40 DUP2 ADD SWAP4 SWAP1 SWAP4 MSTORE PUSH1 0x60 DUP4 ADD SWAP4 SWAP1 SWAP4 MSTORE PUSH1 0x80 DUP3 ADD SWAP4 SWAP1 SWAP4 MSTORE PUSH1 0xA0 DUP2 ADD SWAP4 SWAP1 SWAP4 MSTORE PUSH1 0xC0 DUP4 ADD SWAP4 SWAP1 SWAP4 MSTORE DUP2 ADD SWAP3 SWAP1 SWAP3 MSTORE DUP13 AND PUSH2 0x100 DUP3 ADD MSTORE DUP2 SWAP1 SUB PUSH2 0x120 ADD SWAP2 CREATE SWAP11 DUP12 ISZERO PUSH3 0xEC5 JUMPI DUP11 DUP10 DUP2 MUL DIV DUP10 SUB PUSH3 0x1005 JUMPI DUP12 PUSH3 0x1876 PUSH1 0x20 PUSH3 0x1845 DUP15 PUSH2 0x2710 DUP15 DUP3 MUL DIV SWAP1 PUSH3 0x457B JUMP JUMPDEST PUSH1 0x40 MLOAD PUSH4 0xA9059CBB PUSH1 0xE0 SHL DUP2 MSTORE PUSH1 0x1 PUSH1 0x1 PUSH1 0xA0 SHL SUB SWAP1 SWAP5 AND PUSH1 0x4 DUP6 ADD MSTORE PUSH1 0x24 DUP5 ADD DUP2 SWAP1 MSTORE SWAP3 SWAP2 DUP3 SWAP1 DUP2 SWAP1 PUSH1 0x44 DUP3 ADD SWAP1 JUMP JUMPDEST SUB DUP2 PUSH1 0x0 PUSH1 0x1 DUP1 PUSH1 0xA0 SHL SUB PUSH1 0xE0 MLOAD AND GAS CALL SWAP1 DUP2 ISZERO PUSH3 0xEC5 JUMPI PUSH1 0x0 SWAP2 PUSH3 0x2319 JUMPI JUMPDEST POP ISZERO PUSH3 0xFA5 JUMPI DUP10 DUP13 PUSH2 0x2710 DUP3 DUP3 MUL DIV PUSH3 0x229C JUMPI JUMPDEST POP POP PUSH1 0x1 PUSH1 0x1 PUSH1 0xA0 SHL SUB DUP14 AND EXTCODESIZE ISZERO PUSH3 0x16C JUMPI PUSH1 0x0 DUP14 PUSH1 0x24 DUP3 SWAP4 PUSH1 0x40 MLOAD SWAP5 DUP6 SWAP4 DUP5 SWAP3 PUSH4 0x95564837 PUSH1 0xE0 SHL DUP5 MSTORE PUSH1 0x4 DUP5 ADD MSTORE PUSH1 0x1 DUP1 PUSH1 0xA0 SHL SUB AND GAS CALL DUP1 ISZERO PUSH3 0xEC5 JUMPI PUSH3 0x2284 JUMPI JUMPDEST POP PUSH1 0x1 PUSH1 0x1 PUSH1 0xA0 SHL SUB DUP13 AND EXTCODESIZE ISZERO PUSH3 0x219E JUMPI PUSH1 0x40 MLOAD PUSH4 0x9485DC9 PUSH1 0xE2 SHL DUP2 MSTORE DUP13 DUP2 PUSH1 0x4 DUP2 PUSH2 0x100 MLOAD SWAP4 PUSH2 0x100 MLOAD SWAP1 PUSH1 0x1 DUP1 PUSH1 0xA0 SHL SUB AND GAS CALL DUP1 ISZERO PUSH3 0x1D50 JUMPI PUSH3 0x2269 JUMPI JUMPDEST POP PUSH1 0x4 PUSH1 0x20 DUP14 PUSH1 0x40 MLOAD SWAP3 DUP4 DUP1 SWAP3 PUSH4 0x6B456EF PUSH1 0xE2 SHL DUP3 MSTORE PUSH1 0x1 DUP1 PUSH1 0xA0 SHL SUB AND GAS STATICCALL SWAP1 DUP2 ISZERO PUSH3 0x1D50 JUMPI PUSH2 0x100 MLOAD SWAP2 PUSH3 0x2220 JUMPI JUMPDEST POP PUSH1 0x1 PUSH1 0x1 PUSH1 0xA0 SHL SUB DUP2 AND PUSH3 0x21B1 JUMPI JUMPDEST POP DUP1 ISZERO SWAP1 PUSH3 0x21A5 JUMPI JUMPDEST PUSH3 0x2134 JUMPI JUMPDEST PUSH1 0xE0 MLOAD PUSH2 0x100 DUP1 MLOAD PUSH1 0x1 PUSH1 0x1 PUSH1 0xA0 SHL SUB SWAP3 DUP4 AND SWAP1 MSTORE PUSH1 0xB PUSH1 0x20 MSTORE MLOAD PUSH1 0x40 SWAP1 KECCAK256 DUP1 SLOAD PUSH1 0x1 PUSH1 0x1 PUSH1 0xA0 SHL SUB NOT AND SWAP2 DUP14 AND SWAP2 SWAP1 SWAP2 OR SWAP1 SSTORE PUSH1 0xA SLOAD SWAP12 PUSH1 0x1 PUSH1 0x40 SHL DUP14 LT ISZERO PUSH3 0x1E77 JUMPI PUSH1 0x1 DUP14 ADD PUSH1 0xA SSTORE PUSH3 0x19E7 DUP14 PUSH3 0x42BC JUMP JUMPDEST POP POP PUSH3 0x19F4 DUP14 PUSH3 0x42BC JUMP JUMPDEST POP SWAP8 PUSH1 0x1 DUP1 PUSH1 0xA0 SHL SUB PUSH1 0xE0 MLOAD AND PUSH1 0x1 PUSH1 0x1 PUSH1 0x60 SHL SUB PUSH1 0xA0 SHL DUP11 SLOAD AND OR DUP10 SSTORE PUSH1 0x1 DUP10 ADD DUP14 PUSH1 0x1 DUP1 PUSH1 0xA0 SHL SUB AND PUSH1 0x1 PUSH1 0x1 PUSH1 0x60 SHL SUB PUSH1 0xA0 SHL DUP3 SLOAD AND OR SWAP1 SSTORE PUSH1 0x2 DUP10 ADD CALLER PUSH1 0x1 PUSH1 0x1 PUSH1 0x60 SHL SUB PUSH1 0xA0 SHL DUP3 SLOAD AND OR SWAP1 SSTORE PUSH1 0x1 PUSH1 0x1 PUSH1 0x40 SHL SUB DUP3 GT PUSH3 0x1E77 JUMPI DUP2 SWAP1 PUSH3 0x1A66 PUSH1 0x3 DUP12 ADD SLOAD PUSH3 0x430D JUMP JUMPDEST PUSH1 0x1F DUP2 GT PUSH3 0x20D6 JUMPI JUMPDEST POP PUSH2 0x100 MLOAD SWAP1 PUSH1 0x1F DUP4 GT PUSH1 0x1 EQ PUSH3 0x205F JUMPI PUSH2 0x100 MLOAD SWAP3 PUSH3 0x2053 JUMPI JUMPDEST POP POP DUP2 PUSH1 0x1 SHL SWAP2 PUSH1 0x0 NOT SWAP1 PUSH1 0x3 SHL SHR NOT AND OR PUSH1 0x3 DUP9 ADD SSTORE JUMPDEST PUSH1 0x1 PUSH1 0x1 PUSH1 0x40 SHL SUB DUP3 GT PUSH3 0x1E77 JUMPI DUP2 SWAP1 PUSH3 0x1AC5 PUSH1 0x4 DUP10 ADD SLOAD PUSH3 0x430D JUMP JUMPDEST PUSH1 0x1F DUP2 GT PUSH3 0x1FF5 JUMPI JUMPDEST POP PUSH2 0x100 MLOAD SWAP1 PUSH1 0x1F DUP4 GT PUSH1 0x1 EQ PUSH3 0x1F7E JUMPI PUSH2 0x100 MLOAD SWAP3 PUSH3 0x1F72 JUMPI JUMPDEST POP POP DUP2 PUSH1 0x1 SHL SWAP2 PUSH1 0x0 NOT SWAP1 PUSH1 0x3 SHL SHR NOT AND OR PUSH1 0x4 DUP7 ADD SSTORE JUMPDEST PUSH1 0x1 PUSH1 0x1 PUSH1 0x40 SHL SUB DUP3 GT PUSH3 0x1E77 JUMPI DUP2 SWAP1 PUSH3 0x1B24 PUSH1 0x5 DUP8 ADD SLOAD PUSH3 0x430D JUMP JUMPDEST PUSH1 0x1F DUP2 GT PUSH3 0x1F14 JUMPI JUMPDEST POP PUSH2 0x100 MLOAD SWAP1 PUSH1 0x1F DUP4 GT PUSH1 0x1 EQ PUSH3 0x1E9D JUMPI PUSH2 0x100 MLOAD SWAP3 PUSH3 0x1E91 JUMPI JUMPDEST POP POP DUP2 PUSH1 0x1 SHL SWAP2 PUSH1 0x0 NOT SWAP1 PUSH1 0x3 SHL SHR NOT AND OR PUSH1 0x5 DUP5 ADD SSTORE JUMPDEST PUSH1 0x1 PUSH1 0x1 PUSH1 0x40 SHL SUB DUP3 GT PUSH3 0x1E77 JUMPI DUP2 SWAP1 PUSH3 0x1B83 PUSH1 0x6 DUP6 ADD SLOAD PUSH3 0x430D JUMP JUMPDEST PUSH1 0x1F DUP2 GT PUSH3 0x1E19 JUMPI JUMPDEST POP PUSH2 0x100 MLOAD SWAP1 PUSH1 0x1F DUP4 GT PUSH1 0x1 EQ PUSH3 0x1DA2 JUMPI PUSH2 0x100 MLOAD SWAP3 PUSH3 0x1D96 JUMPI JUMPDEST POP POP DUP2 PUSH1 0x1 SHL SWAP2 PUSH1 0x0 NOT SWAP1 PUSH1 0x3 SHL SHR NOT AND OR PUSH1 0x6 DUP3 ADD SSTORE JUMPDEST DUP4 PUSH1 0x7 DUP3 ADD SSTORE PUSH2 0x2710 DUP3 DUP6 MUL DIV PUSH1 0x8 DUP3 ADD SSTORE PUSH1 0x9 TIMESTAMP SWAP2 ADD SSTORE PUSH1 0x3 SLOAD PUSH1 0x7 SLOAD SWAP1 PUSH2 0x2710 PUSH1 0x1 DUP1 PUSH1 0xA0 SHL SUB PUSH1 0x8 SLOAD AND SWAP4 PUSH1 0x40 MLOAD SWAP7 PUSH1 0x1 DUP1 PUSH1 0xA0 SHL SUB DUP10 AND DUP9 MSTORE DUP1 PUSH1 0x20 DUP10 ADD MSTORE MUL DIV PUSH1 0x40 DUP7 ADD MSTORE PUSH1 0x60 DUP6 ADD MSTORE PUSH1 0x80 DUP5 ADD MSTORE PUSH1 0xA0 DUP4 ADD MSTORE PUSH1 0x1 DUP1 PUSH1 0xA0 SHL SUB AND PUSH1 0xC0 DUP3 ADD MSTORE PUSH1 0x1 DUP1 PUSH1 0xA0 SHL SUB PUSH1 0xE0 MLOAD AND SWAP1 DUP4 PUSH1 0x0 DUP1 MLOAD PUSH1 0x20 PUSH3 0x7E66 DUP4 CODECOPY DUP2 MLOAD SWAP2 MSTORE PUSH1 0xE0 CALLER SWAP4 LOG4 PUSH1 0x40 MLOAD PUSH4 0x17773EBB PUSH1 0xE0 SHL DUP2 MSTORE PUSH1 0xE0 MLOAD PUSH1 0x20 SWAP1 DUP3 SWAP1 PUSH1 0x4 SWAP1 DUP3 SWAP1 PUSH1 0x1 PUSH1 0x1 PUSH1 0xA0 SHL SUB AND GAS STATICCALL SWAP1 DUP2 ISZERO PUSH3 0x1D50 JUMPI PUSH2 0x100 MLOAD SWAP2 PUSH3 0x1D5E JUMPI JUMPDEST POP PUSH1 0x40 MLOAD PUSH4 0x116E689F PUSH1 0xE1 SHL DUP2 MSTORE PUSH1 0xE0 MLOAD PUSH1 0x20 SWAP1 DUP3 SWAP1 PUSH1 0x4 SWAP1 DUP3 SWAP1 PUSH1 0x1 PUSH1 0x1 PUSH1 0xA0 SHL SUB AND GAS STATICCALL SWAP1 DUP2 ISZERO PUSH3 0x1D50 JUMPI PUSH2 0x100 MLOAD SWAP2 PUSH3 0x1D18 JUMPI JUMPDEST POP PUSH1 0x40 MLOAD SWAP2 PUSH1 0x32 DUP4 MSTORE PUSH1 0x20 DUP4 ADD MSTORE PUSH1 0x40 DUP3 ADD MSTORE DUP3 PUSH1 0x0 DUP1 MLOAD PUSH1 0x20 PUSH3 0x7E46 DUP4 CODECOPY DUP2 MLOAD SWAP2 MSTORE PUSH1 0x60 PUSH1 0x1 DUP1 PUSH1 0xA0 SHL SUB PUSH1 0xE0 MLOAD AND SWAP4 LOG3 PUSH1 0x40 DUP1 MLOAD PUSH1 0xE0 MLOAD SWAP4 DUP2 MSTORE PUSH1 0x1 PUSH1 0x1 PUSH1 0xA0 SHL SUB SWAP4 DUP5 AND PUSH1 0x20 DUP3 ADD MSTORE SWAP2 SWAP1 SWAP3 AND SWAP2 DUP2 ADD SWAP2 SWAP1 SWAP2 MSTORE PUSH1 0x60 SWAP1 RETURN JUMPDEST SWAP1 POP PUSH1 0x20 DUP2 RETURNDATASIZE PUSH1 0x20 GT PUSH3 0x1D47 JUMPI JUMPDEST DUP2 PUSH3 0x1D36 PUSH1 0x20 SWAP4 DUP4 PUSH3 0x4249 JUMP JUMPDEST DUP2 ADD SUB SLT PUSH3 0x16C JUMPI MLOAD DUP5 PUSH3 0x1CBB JUMP JUMPDEST RETURNDATASIZE SWAP2 POP PUSH3 0x1D27 JUMP JUMPDEST PUSH1 0x40 MLOAD RETURNDATASIZE PUSH2 0x100 MLOAD DUP3 RETURNDATACOPY RETURNDATASIZE SWAP1 REVERT JUMPDEST SWAP1 POP PUSH1 0x20 DUP2 RETURNDATASIZE PUSH1 0x20 GT PUSH3 0x1D8D JUMPI JUMPDEST DUP2 PUSH3 0x1D7C PUSH1 0x20 SWAP4 DUP4 PUSH3 0x4249 JUMP JUMPDEST DUP2 ADD SUB SLT PUSH3 0x16C JUMPI MLOAD DUP4 PUSH3 0x1C82 JUMP JUMPDEST RETURNDATASIZE SWAP2 POP PUSH3 0x1D6D JUMP JUMPDEST ADD CALLDATALOAD SWAP1 POP DUP9 DUP1 PUSH3 0x1BAA JUMP JUMPDEST PUSH2 0x100 DUP1 MLOAD PUSH1 0x6 DUP8 ADD SWAP1 MSTORE MLOAD PUSH1 0x20 DUP2 KECCAK256 SWAP1 SWAP5 POP SWAP2 JUMPDEST PUSH1 0x1F NOT DUP5 AND DUP6 LT PUSH3 0x1E00 JUMPI PUSH1 0x1 SWAP5 POP DUP4 PUSH1 0x1F NOT DUP2 AND LT PUSH3 0x1DE5 JUMPI JUMPDEST POP POP POP DUP2 SHL ADD PUSH1 0x6 DUP3 ADD SSTORE PUSH3 0x1BC2 JUMP JUMPDEST ADD CALLDATALOAD PUSH1 0x0 NOT PUSH1 0x3 DUP5 SWAP1 SHL PUSH1 0xF8 AND SHR NOT AND SWAP1 SSTORE DUP9 DUP1 DUP1 PUSH3 0x1DD4 JUMP JUMPDEST DUP2 DUP2 ADD CALLDATALOAD DUP4 SSTORE PUSH1 0x20 SWAP5 DUP6 ADD SWAP5 PUSH1 0x1 SWAP1 SWAP4 ADD SWAP3 ADD PUSH3 0x1DB7 JUMP JUMPDEST SWAP1 SWAP2 POP PUSH1 0x6 DUP5 ADD PUSH2 0x100 MLOAD MSTORE PUSH1 0x20 PUSH2 0x100 MLOAD KECCAK256 PUSH1 0x1F DUP5 ADD PUSH1 0x5 SHR DUP2 ADD PUSH1 0x20 DUP6 LT PUSH3 0x1E6F JUMPI JUMPDEST SWAP1 DUP5 SWAP4 SWAP3 SWAP2 JUMPDEST PUSH1 0x1F DUP4 ADD PUSH1 0x5 SHR DUP3 ADD DUP2 LT PUSH3 0x1E5D JUMPI POP POP PUSH3 0x1B8D JUMP JUMPDEST PUSH2 0x100 MLOAD DUP2 SSTORE DUP6 SWAP5 POP PUSH1 0x1 ADD PUSH3 0x1E45 JUMP JUMPDEST POP DUP1 PUSH3 0x1E3F JUMP JUMPDEST PUSH4 0x4E487B71 PUSH1 0xE0 SHL PUSH2 0x100 MLOAD MSTORE PUSH1 0x41 PUSH1 0x4 MSTORE PUSH1 0x24 PUSH2 0x100 MLOAD REVERT JUMPDEST ADD CALLDATALOAD SWAP1 POP DUP11 DUP1 PUSH3 0x1B4B JUMP JUMPDEST PUSH2 0x100 DUP1 MLOAD PUSH1 0x5 DUP10 ADD SWAP1 MSTORE MLOAD PUSH1 0x20 DUP2 KECCAK256 SWAP1 SWAP5 POP SWAP2 JUMPDEST PUSH1 0x1F NOT DUP5 AND DUP6 LT PUSH3 0x1EFB JUMPI PUSH1 0x1 SWAP5 POP DUP4 PUSH1 0x1F NOT DUP2 AND LT PUSH3 0x1EE0 JUMPI JUMPDEST POP POP POP DUP2 SHL ADD PUSH1 0x5 DUP5 ADD SSTORE PUSH3 0x1B63 JUMP JUMPDEST ADD CALLDATALOAD PUSH1 0x0 NOT PUSH1 0x3 DUP5 SWAP1 SHL PUSH1 0xF8 AND SHR NOT AND SWAP1 SSTORE DUP11 DUP1 DUP1 PUSH3 0x1ECF JUMP JUMPDEST DUP2 DUP2 ADD CALLDATALOAD DUP4 SSTORE PUSH1 0x20 SWAP5 DUP6 ADD SWAP5 PUSH1 0x1 SWAP1 SWAP4 ADD SWAP3 ADD PUSH3 0x1EB2 JUMP JUMPDEST SWAP1 SWAP2 POP PUSH1 0x5 DUP7 ADD PUSH2 0x100 MLOAD MSTORE PUSH1 0x20 PUSH2 0x100 MLOAD KECCAK256 PUSH1 0x1F DUP5 ADD PUSH1 0x5 SHR DUP2 ADD PUSH1 0x20 DUP6 LT PUSH3 0x1F6A JUMPI JUMPDEST SWAP1 DUP5 SWAP4 SWAP3 SWAP2 JUMPDEST PUSH1 0x1F DUP4 ADD PUSH1 0x5 SHR DUP3 ADD DUP2 LT PUSH3 0x1F58 JUMPI POP POP PUSH3 0x1B2E JUMP JUMPDEST PUSH2 0x100 MLOAD DUP2 SSTORE DUP6 SWAP5 POP PUSH1 0x1 ADD PUSH3 0x1F40 JUMP JUMPDEST POP DUP1 PUSH3 0x1F3A JUMP JUMPDEST ADD CALLDATALOAD SWAP1 POP DUP13 DUP1 PUSH3 0x1AEC JUMP JUMPDEST PUSH2 0x100 DUP1 MLOAD PUSH1 0x4 DUP12 ADD SWAP1 MSTORE MLOAD PUSH1 0x20 DUP2 KECCAK256 SWAP1 SWAP5 POP SWAP2 JUMPDEST PUSH1 0x1F NOT DUP5 AND DUP6 LT PUSH3 0x1FDC JUMPI PUSH1 0x1 SWAP5 POP DUP4 PUSH1 0x1F NOT DUP2 AND LT PUSH3 0x1FC1 JUMPI JUMPDEST POP POP POP DUP2 SHL ADD PUSH1 0x4 DUP7 ADD SSTORE PUSH3 0x1B04 JUMP JUMPDEST ADD CALLDATALOAD PUSH1 0x0 NOT PUSH1 0x3 DUP5 SWAP1 SHL PUSH1 0xF8 AND SHR NOT AND SWAP1 SSTORE DUP13 DUP1 DUP1 PUSH3 0x1FB0 JUMP JUMPDEST DUP2 DUP2 ADD CALLDATALOAD DUP4 SSTORE PUSH1 0x20 SWAP5 DUP6 ADD SWAP5 PUSH1 0x1 SWAP1 SWAP4 ADD SWAP3 ADD PUSH3 0x1F93 JUMP JUMPDEST SWAP1 SWAP2 POP PUSH1 0x4 DUP9 ADD PUSH2 0x100 MLOAD MSTORE PUSH1 0x20 PUSH2 0x100 MLOAD KECCAK256 PUSH1 0x1F DUP5 ADD PUSH1 0x5 SHR DUP2 ADD PUSH1 0x20 DUP6 LT PUSH3 0x204B JUMPI JUMPDEST SWAP1 DUP5 SWAP4 SWAP3 SWAP2 JUMPDEST PUSH1 0x1F DUP4 ADD PUSH1 0x5 SHR DUP3 ADD DUP2 LT PUSH3 0x2039 JUMPI POP POP PUSH3 0x1ACF JUMP JUMPDEST PUSH2 0x100 MLOAD DUP2 SSTORE DUP6 SWAP5 POP PUSH1 0x1 ADD PUSH3 0x2021 JUMP JUMPDEST POP DUP1 PUSH3 0x201B JUMP JUMPDEST ADD CALLDATALOAD SWAP1 POP DUP15 DUP1 PUSH3 0x1A8D JUMP JUMPDEST PUSH2 0x100 DUP1 MLOAD PUSH1 0x3 DUP14 ADD SWAP1 MSTORE MLOAD PUSH1 0x20 DUP2 KECCAK256 SWAP1 SWAP5 POP SWAP2 JUMPDEST PUSH1 0x1F NOT DUP5 AND DUP6 LT PUSH3 0x20BD JUMPI PUSH1 0x1 SWAP5 POP DUP4 PUSH1 0x1F NOT DUP2 AND LT PUSH3 0x20A2 JUMPI JUMPDEST POP POP POP DUP2 SHL ADD PUSH1 0x3 DUP9 ADD SSTORE PUSH3 0x1AA5 JUMP JUMPDEST ADD CALLDATALOAD PUSH1 0x0 NOT PUSH1 0x3 DUP5 SWAP1 SHL PUSH1 0xF8 AND SHR NOT AND SWAP1 SSTORE DUP15 DUP1 DUP1 PUSH3 0x2091 JUMP JUMPDEST DUP2 DUP2 ADD CALLDATALOAD DUP4 SSTORE PUSH1 0x20 SWAP5 DUP6 ADD SWAP5 PUSH1 0x1 SWAP1 SWAP4 ADD SWAP3 ADD PUSH3 0x2074 JUMP JUMPDEST SWAP1 SWAP2 POP PUSH1 0x3 DUP11 ADD PUSH2 0x100 MLOAD MSTORE PUSH1 0x20 PUSH2 0x100 MLOAD KECCAK256 PUSH1 0x1F DUP5 ADD PUSH1 0x5 SHR DUP2 ADD PUSH1 0x20 DUP6 LT PUSH3 0x212C JUMPI JUMPDEST SWAP1 DUP5 SWAP4 SWAP3 SWAP2 JUMPDEST PUSH1 0x1F DUP4 ADD PUSH1 0x5 SHR DUP3 ADD DUP2 LT PUSH3 0x211A JUMPI POP POP PUSH3 0x1A70 JUMP JUMPDEST PUSH2 0x100 MLOAD DUP2 SSTORE DUP6 SWAP5 POP PUSH1 0x1 ADD PUSH3 0x2102 JUMP JUMPDEST POP DUP1 PUSH3 0x20FC JUMP JUMPDEST PUSH1 0xE0 MLOAD PUSH1 0x1 PUSH1 0x1 PUSH1 0xA0 SHL SUB AND EXTCODESIZE ISZERO PUSH3 0x219E JUMPI PUSH1 0x40 MLOAD PUSH4 0x6E258E07 PUSH1 0xE1 SHL DUP2 MSTORE PUSH2 0x100 MLOAD PUSH1 0xE0 MLOAD DUP3 SWAP1 PUSH1 0x4 SWAP1 DUP3 SWAP1 DUP5 SWAP1 PUSH1 0x1 PUSH1 0x1 PUSH1 0xA0 SHL SUB AND GAS CALL DUP1 ISZERO PUSH3 0x1D50 JUMPI PUSH3 0x2183 JUMPI JUMPDEST POP PUSH3 0x1990 JUMP JUMPDEST PUSH3 0x218E SWAP1 PUSH3 0x4235 JUMP JUMPDEST PUSH2 0x100 MLOAD PUSH3 0x219E JUMPI DUP13 PUSH3 0x217C JUMP JUMPDEST PUSH2 0x100 MLOAD DUP1 REVERT JUMPDEST POP PUSH2 0x1237 CHAINID EQ PUSH3 0x198A JUMP JUMPDEST PUSH1 0xE0 MLOAD PUSH1 0x1 PUSH1 0x1 PUSH1 0xA0 SHL SUB AND EXTCODESIZE ISZERO PUSH3 0x219E JUMPI PUSH1 0x40 MLOAD PUSH4 0x15C6DEB9 PUSH1 0xE3 SHL DUP2 MSTORE PUSH1 0x1 PUSH1 0x1 PUSH1 0xA0 SHL SUB SWAP2 DUP3 AND PUSH1 0x4 DUP3 ADD MSTORE PUSH2 0x100 MLOAD PUSH1 0xE0 MLOAD SWAP2 SWAP3 SWAP1 SWAP2 DUP4 SWAP2 PUSH1 0x24 SWAP2 DUP4 SWAP2 DUP6 SWAP2 AND GAS CALL DUP1 ISZERO PUSH3 0x1D50 JUMPI ISZERO PUSH3 0x1980 JUMPI PUSH3 0x2210 SWAP1 PUSH3 0x4235 JUMP JUMPDEST PUSH2 0x100 MLOAD PUSH3 0x219E JUMPI DUP14 PUSH3 0x1980 JUMP JUMPDEST SWAP1 POP PUSH1 0x20 DUP2 RETURNDATASIZE PUSH1 0x20 GT PUSH3 0x2260 JUMPI JUMPDEST DUP2 PUSH3 0x223E PUSH1 0x20 SWAP4 DUP4 PUSH3 0x4249 JUMP JUMPDEST DUP2 ADD SUB SLT PUSH3 0x219E JUMPI MLOAD PUSH1 0x1 PUSH1 0x1 PUSH1 0xA0 SHL SUB DUP2 AND DUP2 SUB PUSH3 0x219E JUMPI DUP15 PUSH3 0x196F JUMP JUMPDEST RETURNDATASIZE SWAP2 POP PUSH3 0x222F JUMP JUMPDEST PUSH3 0x2274 SWAP1 PUSH3 0x4235 JUMP JUMPDEST PUSH2 0x100 MLOAD PUSH3 0x219E JUMPI DUP14 PUSH3 0x193B JUMP JUMPDEST PUSH3 0x228F SWAP1 PUSH3 0x4235 JUMP JUMPDEST PUSH1 0x0 PUSH2 0x100 MSTORE DUP14 PUSH3 0x18F6 JUMP JUMPDEST PUSH1 0x40 MLOAD PUSH4 0xA9059CBB PUSH1 0xE0 SHL DUP2 MSTORE CALLER PUSH1 0x4 DUP3 ADD MSTORE PUSH2 0x2710 SWAP2 SWAP1 SWAP3 MUL DIV PUSH1 0x24 DUP3 ADD MSTORE PUSH1 0x20 DUP2 DUP1 PUSH1 0x44 DUP2 ADD SUB DUP2 PUSH1 0x0 PUSH1 0x1 DUP1 PUSH1 0xA0 SHL SUB PUSH1 0xE0 MLOAD AND GAS CALL SWAP1 DUP2 ISZERO PUSH3 0xEC5 JUMPI PUSH1 0x0 SWAP2 PUSH3 0x22F5 JUMPI JUMPDEST POP ISZERO PUSH3 0xF2A JUMPI DUP10 DUP13 PUSH3 0x18AE JUMP JUMPDEST PUSH3 0x2312 SWAP2 POP PUSH1 0x20 RETURNDATASIZE PUSH1 0x20 GT PUSH3 0xF9D JUMPI PUSH3 0xF8D DUP2 DUP4 PUSH3 0x4249 JUMP JUMPDEST DUP16 PUSH3 0x22E6 JUMP JUMPDEST PUSH3 0x2336 SWAP2 POP PUSH1 0x20 RETURNDATASIZE PUSH1 0x20 GT PUSH3 0xF9D JUMPI PUSH3 0xF8D DUP2 DUP4 PUSH3 0x4249 JUMP JUMPDEST DUP16 PUSH3 0x1898 JUMP JUMPDEST CALLVALUE PUSH3 0x16C JUMPI PUSH1 0x0 CALLDATASIZE PUSH1 0x3 NOT ADD SLT PUSH3 0x16C JUMPI PUSH1 0x20 PUSH1 0x6 SLOAD PUSH1 0x40 MLOAD SWAP1 DUP2 MSTORE RETURN JUMPDEST CALLVALUE PUSH3 0x16C JUMPI PUSH1 0x0 CALLDATASIZE PUSH1 0x3 NOT ADD SLT PUSH3 0x16C JUMPI PUSH1 0x0 SLOAD PUSH1 0x40 MLOAD PUSH1 0x1 PUSH1 0x1 PUSH1 0xA0 SHL SUB SWAP1 SWAP2 AND DUP2 MSTORE PUSH1 0x20 SWAP1 RETURN JUMPDEST CALLVALUE PUSH3 0x16C JUMPI PUSH1 0x0 CALLDATASIZE PUSH1 0x3 NOT ADD SLT PUSH3 0x16C JUMPI PUSH1 0x20 PUSH1 0x4 SLOAD PUSH1 0x40 MLOAD SWAP1 DUP2 MSTORE RETURN JUMPDEST CALLVALUE PUSH3 0x16C JUMPI PUSH1 0x0 CALLDATASIZE PUSH1 0x3 NOT ADD SLT PUSH3 0x16C JUMPI PUSH1 0x20 PUSH1 0x40 MLOAD PUSH2 0x1237 DUP2 MSTORE RETURN JUMPDEST CALLVALUE PUSH3 0x16C JUMPI PUSH1 0x0 CALLDATASIZE PUSH1 0x3 NOT ADD SLT PUSH3 0x16C JUMPI PUSH1 0x20 PUSH1 0x7 SLOAD PUSH1 0x40 MLOAD SWAP1 DUP2 MSTORE RETURN JUMPDEST CALLVALUE PUSH3 0x16C JUMPI PUSH1 0x20 CALLDATASIZE PUSH1 0x3 NOT ADD SLT PUSH3 0x16C JUMPI PUSH1 0x4 CALLDATALOAD PUSH3 0x2407 PUSH3 0x426B JUMP JUMPDEST POP PUSH1 0xA SLOAD DUP2 LT ISZERO PUSH3 0x2442 JUMPI PUSH3 0x242D PUSH3 0x2426 PUSH3 0x952 SWAP3 PUSH3 0x42BC JUMP JUMPDEST POP PUSH3 0x43FB JUMP JUMPDEST PUSH1 0x40 MLOAD SWAP2 DUP3 SWAP2 PUSH1 0x20 DUP4 MSTORE PUSH1 0x20 DUP4 ADD SWAP1 PUSH3 0x412C JUMP JUMPDEST PUSH1 0x40 MLOAD PUSH3 0x461BCD PUSH1 0xE5 SHL DUP2 MSTORE PUSH1 0x20 PUSH1 0x4 DUP3 ADD MSTORE PUSH1 0x11 PUSH1 0x24 DUP3 ADD MSTORE PUSH17 0x1A5B9D985B1A59081B185D5B98DA081A59 PUSH1 0x7A SHL PUSH1 0x44 DUP3 ADD MSTORE PUSH1 0x64 SWAP1 REVERT JUMPDEST CALLVALUE PUSH3 0x16C JUMPI PUSH1 0x0 CALLDATASIZE PUSH1 0x3 NOT ADD SLT PUSH3 0x16C JUMPI PUSH1 0x20 PUSH1 0x40 MLOAD PUSH1 0x32 DUP2 MSTORE RETURN JUMPDEST CALLVALUE PUSH3 0x16C JUMPI PUSH1 0x0 CALLDATASIZE PUSH1 0x3 NOT ADD SLT PUSH3 0x16C JUMPI PUSH1 0x1 SLOAD PUSH1 0x40 MLOAD PUSH1 0x1 PUSH1 0x1 PUSH1 0xA0 SHL SUB SWAP1 SWAP2 AND DUP2 MSTORE PUSH1 0x20 SWAP1 RETURN JUMPDEST PUSH3 0x24CF CALLDATASIZE PUSH3 0x4051 JUMP JUMPDEST PUSH2 0x140 MSTORE PUSH1 0x4 SLOAD SWAP9 SWAP10 SWAP2 SWAP9 SWAP1 SWAP7 SWAP2 SWAP6 SWAP3 SWAP5 SWAP3 SWAP2 SWAP1 PUSH3 0x24F0 SWAP1 CALLVALUE EQ PUSH3 0x41D5 JUMP JUMPDEST PUSH3 0x24FA PUSH3 0x46F7 JUMP JUMPDEST PUSH1 0x0 PUSH2 0x180 MSTORE DUP10 ISZERO PUSH3 0x1114 JUMPI DUP1 ISZERO PUSH3 0x10DD JUMPI DUP9 ISZERO PUSH3 0x10A6 JUMPI PUSH2 0x7D0 DUP8 GT PUSH3 0x106B JUMPI PUSH2 0x3E8 PUSH2 0x140 MLOAD GT PUSH3 0x1031 JUMPI PUSH1 0x2 SLOAD PUSH1 0x40 MLOAD SWAP1 PUSH1 0x1 PUSH1 0x1 PUSH1 0xA0 SHL SUB AND PUSH1 0x1 PUSH1 0x1 PUSH1 0x40 SHL SUB PUSH2 0x172D DUP4 ADD SWAP1 DUP2 GT SWAP1 DUP4 GT OR PUSH3 0x101B JUMPI DUP2 SWAP1 PUSH3 0x2594 PUSH3 0x257C DUP15 PUSH2 0x172D PUSH3 0x6719 DUP7 CODECOPY PUSH1 0xE0 PUSH2 0x172D DUP7 ADD DUP2 DUP2 MSTORE ADD SWAP1 DUP13 PUSH3 0x483D JUMP JUMPDEST PUSH2 0x172D DUP5 ADD DUP2 SUB PUSH1 0x20 PUSH2 0x172D DUP7 ADD ADD MSTORE DUP6 DUP14 PUSH3 0x483D JUMP JUMPDEST SWAP1 DUP13 PUSH1 0x40 PUSH2 0x172D DUP6 ADD ADD MSTORE ADDRESS PUSH1 0x60 PUSH2 0x172D DUP6 ADD ADD MSTORE CALLER PUSH1 0x80 PUSH2 0x172D DUP6 ADD ADD MSTORE PUSH1 0xA0 PUSH2 0x172D DUP5 ADD ADD MSTORE PUSH2 0x140 MLOAD PUSH1 0xC0 PUSH2 0x172D DUP5 ADD ADD MSTORE SUB SWAP1 PUSH1 0x0 CREATE PUSH2 0x160 MSTORE PUSH2 0x160 MLOAD ISZERO PUSH3 0xEC5 JUMPI PUSH1 0x2 SLOAD PUSH1 0x1 PUSH1 0x1 PUSH1 0xA0 SHL SUB AND CALLER EQ SWAP8 PUSH3 0x25F6 DUP10 PUSH3 0x4878 JUMP JUMPDEST PUSH1 0x1 SLOAD PUSH1 0x3 SLOAD PUSH1 0x5 SLOAD PUSH1 0x6 SLOAD PUSH1 0x7 SLOAD PUSH1 0x8 SLOAD PUSH1 0x40 MLOAD SWAP7 SWAP16 SWAP7 SWAP6 PUSH1 0x1 PUSH1 0x1 PUSH1 0xA0 SHL SUB SWAP2 DUP3 AND SWAP6 SWAP3 SWAP5 SWAP3 SWAP2 AND PUSH1 0x1 PUSH1 0x1 PUSH1 0x40 SHL SUB PUSH2 0x1E5E DUP9 ADD SWAP1 DUP2 GT SWAP1 DUP9 GT OR PUSH3 0x101B JUMPI PUSH2 0x1E5E PUSH3 0x48BB DUP9 CODECOPY PUSH2 0x160 MLOAD PUSH1 0x1 PUSH1 0x1 PUSH1 0xA0 SHL SUB SWAP1 DUP2 AND PUSH2 0x1E5E DUP10 ADD SWAP1 DUP2 MSTORE ADDRESS PUSH1 0x20 DUP3 ADD MSTORE PUSH1 0x40 DUP2 ADD SWAP3 SWAP1 SWAP3 MSTORE PUSH1 0x60 DUP3 ADD SWAP3 SWAP1 SWAP3 MSTORE PUSH1 0x80 DUP2 ADD SWAP3 SWAP1 SWAP3 MSTORE PUSH1 0xA0 DUP3 ADD SWAP3 SWAP1 SWAP3 MSTORE PUSH1 0xC0 DUP2 ADD SWAP3 SWAP1 SWAP3 MSTORE PUSH1 0xE0 DUP3 ADD SWAP3 SWAP1 SWAP3 MSTORE SWAP1 DUP13 AND PUSH2 0x100 DUP3 ADD MSTORE DUP2 SWAP1 SUB PUSH2 0x120 ADD SWAP1 PUSH1 0x0 CREATE PUSH2 0x1E0 MSTORE PUSH2 0x1E0 MLOAD ISZERO PUSH3 0xEC5 JUMPI DUP11 DUP10 DUP2 MUL DIV DUP10 SUB PUSH3 0x1005 JUMPI PUSH3 0x26CF PUSH2 0x2710 DUP11 DUP14 MUL DIV DUP13 PUSH3 0x457B JUMP JUMPDEST PUSH1 0x40 MLOAD PUSH4 0xA9059CBB PUSH1 0xE0 SHL DUP2 MSTORE PUSH2 0x1E0 MLOAD PUSH1 0x1 PUSH1 0x1 PUSH1 0xA0 SHL SUB SWAP1 DUP2 AND PUSH1 0x4 DUP4 ADD MSTORE PUSH1 0x24 DUP3 ADD DUP4 SWAP1 MSTORE PUSH2 0x160 MLOAD PUSH1 0x20 SWAP2 DUP4 SWAP2 PUSH1 0x44 SWAP2 DUP4 SWAP2 PUSH1 0x0 SWAP2 AND GAS CALL SWAP1 DUP2 ISZERO PUSH3 0xEC5 JUMPI PUSH1 0x0 SWAP2 PUSH3 0x31C8 JUMPI JUMPDEST POP ISZERO PUSH3 0xFA5 JUMPI DUP10 DUP13 PUSH2 0x2710 DUP3 DUP3 MUL DIV PUSH3 0x314A JUMPI JUMPDEST POP POP PUSH2 0x1E0 MLOAD PUSH1 0x1 PUSH1 0x1 PUSH1 0xA0 SHL SUB AND EXTCODESIZE ISZERO PUSH3 0x16C JUMPI PUSH1 0x40 MLOAD SWAP1 PUSH4 0x95564837 PUSH1 0xE0 SHL DUP3 MSTORE PUSH1 0x4 DUP3 ADD MSTORE PUSH1 0x0 DUP2 PUSH1 0x24 DUP2 DUP4 PUSH1 0x1 DUP1 PUSH1 0xA0 SHL SUB PUSH2 0x1E0 MLOAD AND GAS CALL DUP1 ISZERO PUSH3 0xEC5 JUMPI PUSH3 0x3132 JUMPI JUMPDEST POP PUSH2 0x180 MLOAD PUSH3 0x2F32 JUMPI JUMPDEST POP PUSH2 0x160 MLOAD PUSH2 0x180 DUP1 MLOAD PUSH1 0x1 PUSH1 0x1 PUSH1 0xA0 SHL SUB SWAP3 DUP4 AND SWAP1 MSTORE PUSH1 0xB PUSH1 0x20 MSTORE MLOAD PUSH1 0x40 SWAP1 KECCAK256 PUSH2 0x1E0 MLOAD DUP2 SLOAD PUSH1 0x1 PUSH1 0x1 PUSH1 0xA0 SHL SUB NOT AND SWAP3 AND SWAP2 SWAP1 SWAP2 OR SWAP1 SSTORE PUSH1 0xA SLOAD SWAP11 PUSH1 0x1 PUSH1 0x40 SHL DUP13 LT ISZERO PUSH3 0x2C75 JUMPI PUSH1 0x1 DUP13 ADD PUSH1 0xA SSTORE PUSH3 0x27E4 DUP13 PUSH3 0x42BC JUMP JUMPDEST POP POP PUSH3 0x27F1 DUP13 PUSH3 0x42BC JUMP JUMPDEST POP PUSH2 0x160 MLOAD DUP2 SLOAD PUSH1 0x1 PUSH1 0x1 PUSH1 0xA0 SHL SUB NOT SWAP1 DUP2 AND PUSH1 0x1 PUSH1 0x1 PUSH1 0xA0 SHL SUB SWAP3 DUP4 AND OR DUP4 SSTORE PUSH2 0x1E0 MLOAD PUSH1 0x1 DUP5 ADD DUP1 SLOAD DUP4 AND SWAP2 SWAP1 SWAP4 AND OR SWAP1 SWAP2 SSTORE PUSH1 0x2 DUP3 ADD DUP1 SLOAD SWAP1 SWAP2 AND CALLER OR SWAP1 SSTORE SWAP8 PUSH1 0x1 PUSH1 0x1 PUSH1 0x40 SHL SUB DUP3 GT PUSH3 0x2C75 JUMPI DUP2 SWAP1 PUSH3 0x2854 PUSH1 0x3 DUP12 ADD SLOAD PUSH3 0x430D JUMP JUMPDEST PUSH1 0x1F DUP2 GT PUSH3 0x2ED4 JUMPI JUMPDEST POP PUSH2 0x180 MLOAD SWAP1 PUSH1 0x1F DUP4 GT PUSH1 0x1 EQ PUSH3 0x2E5D JUMPI PUSH2 0x180 MLOAD SWAP3 PUSH3 0x2E51 JUMPI JUMPDEST POP POP DUP2 PUSH1 0x1 SHL SWAP2 PUSH1 0x0 NOT SWAP1 PUSH1 0x3 SHL SHR NOT AND OR PUSH1 0x3 DUP9 ADD SSTORE JUMPDEST PUSH1 0x1 PUSH1 0x1 PUSH1 0x40 SHL SUB DUP3 GT PUSH3 0x2C75 JUMPI DUP2 SWAP1 PUSH3 0x28B3 PUSH1 0x4 DUP10 ADD SLOAD PUSH3 0x430D JUMP JUMPDEST PUSH1 0x1F DUP2 GT PUSH3 0x2DF3 JUMPI JUMPDEST POP PUSH2 0x180 MLOAD SWAP1 PUSH1 0x1F DUP4 GT PUSH1 0x1 EQ PUSH3 0x2D7C JUMPI PUSH2 0x180 MLOAD SWAP3 PUSH3 0x2D70 JUMPI JUMPDEST POP POP DUP2 PUSH1 0x1 SHL SWAP2 PUSH1 0x0 NOT SWAP1 PUSH1 0x3 SHL SHR NOT AND OR PUSH1 0x4 DUP7 ADD SSTORE JUMPDEST PUSH1 0x1 PUSH1 0x1 PUSH1 0x40 SHL SUB DUP3 GT PUSH3 0x2C75 JUMPI DUP2 SWAP1 PUSH3 0x2912 PUSH1 0x5 DUP8 ADD SLOAD PUSH3 0x430D JUMP JUMPDEST PUSH1 0x1F DUP2 GT PUSH3 0x2D12 JUMPI JUMPDEST POP PUSH2 0x180 MLOAD SWAP1 PUSH1 0x1F DUP4 GT PUSH1 0x1 EQ PUSH3 0x2C9B JUMPI PUSH2 0x180 MLOAD SWAP3 PUSH3 0x2C8F JUMPI JUMPDEST POP POP DUP2 PUSH1 0x1 SHL SWAP2 PUSH1 0x0 NOT SWAP1 PUSH1 0x3 SHL SHR NOT AND OR PUSH1 0x5 DUP5 ADD SSTORE JUMPDEST PUSH1 0x1 PUSH1 0x1 PUSH1 0x40 SHL SUB DUP3 GT PUSH3 0x2C75 JUMPI DUP2 SWAP1 PUSH3 0x2971 PUSH1 0x6 DUP6 ADD SLOAD PUSH3 0x430D JUMP JUMPDEST PUSH1 0x1F DUP2 GT PUSH3 0x2C17 JUMPI JUMPDEST POP PUSH2 0x180 MLOAD SWAP1 PUSH1 0x1F DUP4 GT PUSH1 0x1 EQ PUSH3 0x2BA0 JUMPI PUSH2 0x180 MLOAD SWAP3 PUSH3 0x2B94 JUMPI JUMPDEST POP POP DUP2 PUSH1 0x1 SHL SWAP2 PUSH1 0x0 NOT SWAP1 PUSH1 0x3 SHL SHR NOT AND OR PUSH1 0x6 DUP3 ADD SSTORE JUMPDEST DUP4 PUSH1 0x7 DUP3 ADD SSTORE PUSH2 0x2710 DUP3 DUP6 MUL DIV PUSH1 0x8 DUP3 ADD SSTORE PUSH1 0x9 TIMESTAMP SWAP2 ADD SSTORE PUSH1 0x3 SLOAD PUSH1 0x7 SLOAD SWAP1 PUSH2 0x2710 PUSH1 0x1 DUP1 PUSH1 0xA0 SHL SUB PUSH1 0x8 SLOAD AND SWAP4 PUSH1 0x40 MLOAD SWAP7 PUSH1 0x1 DUP1 PUSH1 0xA0 SHL SUB PUSH2 0x1E0 MLOAD AND DUP9 MSTORE DUP1 PUSH1 0x20 DUP10 ADD MSTORE MUL DIV PUSH1 0x40 DUP7 ADD MSTORE PUSH1 0x60 DUP6 ADD MSTORE PUSH1 0x80 DUP5 ADD MSTORE PUSH1 0xA0 DUP4 ADD MSTORE PUSH1 0x1 DUP1 PUSH1 0xA0 SHL SUB AND PUSH1 0xC0 DUP3 ADD MSTORE PUSH1 0x1 DUP1 PUSH1 0xA0 SHL SUB PUSH2 0x160 MLOAD AND SWAP1 DUP3 PUSH1 0x0 DUP1 MLOAD PUSH1 0x20 PUSH3 0x7E66 DUP4 CODECOPY DUP2 MLOAD SWAP2 MSTORE PUSH1 0xE0 CALLER SWAP4 LOG4 PUSH1 0x40 MLOAD SWAP1 PUSH4 0x17773EBB PUSH1 0xE0 SHL DUP3 MSTORE PUSH1 0x20 DUP3 PUSH1 0x4 DUP2 PUSH1 0x1 DUP1 PUSH1 0xA0 SHL SUB PUSH2 0x160 MLOAD AND GAS STATICCALL SWAP2 DUP3 ISZERO PUSH3 0x2B4C JUMPI PUSH2 0x180 MLOAD SWAP3 PUSH3 0x2B5A JUMPI JUMPDEST POP PUSH1 0x40 MLOAD SWAP2 PUSH4 0x116E689F PUSH1 0xE1 SHL DUP4 MSTORE PUSH1 0x20 DUP4 PUSH1 0x4 DUP2 PUSH1 0x1 DUP1 PUSH1 0xA0 SHL SUB PUSH2 0x160 MLOAD AND GAS STATICCALL DUP1 ISZERO PUSH3 0x2B4C JUMPI PUSH2 0x180 MLOAD SWAP1 PUSH3 0x2B11 JUMPI JUMPDEST PUSH3 0x952 SWAP4 POP PUSH1 0x40 MLOAD SWAP2 PUSH2 0x140 MLOAD DUP4 MSTORE PUSH1 0x20 DUP4 ADD MSTORE PUSH1 0x40 DUP3 ADD MSTORE DUP2 PUSH1 0x0 DUP1 MLOAD PUSH1 0x20 PUSH3 0x7E46 DUP4 CODECOPY DUP2 MLOAD SWAP2 MSTORE PUSH1 0x60 PUSH1 0x1 DUP1 PUSH1 0xA0 SHL SUB PUSH2 0x160 MLOAD AND SWAP4 LOG3 PUSH1 0x40 DUP1 MLOAD PUSH2 0x1E0 MLOAD PUSH2 0x160 MLOAD SWAP4 DUP3 MSTORE PUSH1 0x1 PUSH1 0x1 PUSH1 0xA0 SHL SUB SWAP4 DUP5 AND PUSH1 0x20 DUP4 ADD MSTORE SWAP1 SWAP3 AND SWAP1 DUP3 ADD MSTORE SWAP1 DUP2 SWAP1 PUSH1 0x60 DUP3 ADD SWAP1 JUMP JUMPDEST POP PUSH1 0x20 DUP4 RETURNDATASIZE PUSH1 0x20 GT PUSH3 0x2B43 JUMPI JUMPDEST DUP2 PUSH3 0x2B2E PUSH1 0x20 SWAP4 DUP4 PUSH3 0x4249 JUMP JUMPDEST DUP2 ADD SUB SLT PUSH3 0x16C JUMPI PUSH3 0x952 SWAP3 MLOAD PUSH3 0x2AA6 JUMP JUMPDEST RETURNDATASIZE SWAP2 POP PUSH3 0x2B1F JUMP JUMPDEST PUSH1 0x40 MLOAD RETURNDATASIZE PUSH2 0x180 MLOAD DUP3 RETURNDATACOPY RETURNDATASIZE SWAP1 REVERT JUMPDEST SWAP1 SWAP2 POP PUSH1 0x20 DUP2 RETURNDATASIZE PUSH1 0x20 GT PUSH3 0x2B8B JUMPI JUMPDEST DUP2 PUSH3 0x2B79 PUSH1 0x20 SWAP4 DUP4 PUSH3 0x4249 JUMP JUMPDEST DUP2 ADD SUB SLT PUSH3 0x16C JUMPI MLOAD SWAP1 DUP3 PUSH3 0x2A71 JUMP JUMPDEST RETURNDATASIZE SWAP2 POP PUSH3 0x2B6A JUMP JUMPDEST ADD CALLDATALOAD SWAP1 POP DUP8 DUP1 PUSH3 0x2998 JUMP JUMPDEST PUSH2 0x180 DUP1 MLOAD PUSH1 0x6 DUP8 ADD SWAP1 MSTORE MLOAD PUSH1 0x20 DUP2 KECCAK256 SWAP1 SWAP5 POP SWAP2 JUMPDEST PUSH1 0x1F NOT DUP5 AND DUP6 LT PUSH3 0x2BFE JUMPI PUSH1 0x1 SWAP5 POP DUP4 PUSH1 0x1F NOT DUP2 AND LT PUSH3 0x2BE3 JUMPI JUMPDEST POP POP POP DUP2 SHL ADD PUSH1 0x6 DUP3 ADD SSTORE PUSH3 0x29B0 JUMP JUMPDEST ADD CALLDATALOAD PUSH1 0x0 NOT PUSH1 0x3 DUP5 SWAP1 SHL PUSH1 0xF8 AND SHR NOT AND SWAP1 SSTORE DUP8 DUP1 DUP1 PUSH3 0x2BD2 JUMP JUMPDEST DUP2 DUP2 ADD CALLDATALOAD DUP4 SSTORE PUSH1 0x20 SWAP5 DUP6 ADD SWAP5 PUSH1 0x1 SWAP1 SWAP4 ADD SWAP3 ADD PUSH3 0x2BB5 JUMP JUMPDEST SWAP1 SWAP2 POP PUSH1 0x6 DUP5 ADD PUSH2 0x180 MLOAD MSTORE PUSH1 0x20 PUSH2 0x180 MLOAD KECCAK256 PUSH1 0x1F DUP5 ADD PUSH1 0x5 SHR DUP2 ADD PUSH1 0x20 DUP6 LT PUSH3 0x2C6D JUMPI JUMPDEST SWAP1 DUP5 SWAP4 SWAP3 SWAP2 JUMPDEST PUSH1 0x1F DUP4 ADD PUSH1 0x5 SHR DUP3 ADD DUP2 LT PUSH3 0x2C5B JUMPI POP POP PUSH3 0x297B JUMP JUMPDEST PUSH2 0x180 MLOAD DUP2 SSTORE DUP6 SWAP5 POP PUSH1 0x1 ADD PUSH3 0x2C43 JUMP JUMPDEST POP DUP1 PUSH3 0x2C3D JUMP JUMPDEST PUSH4 0x4E487B71 PUSH1 0xE0 SHL PUSH2 0x180 MLOAD MSTORE PUSH1 0x41 PUSH1 0x4 MSTORE PUSH1 0x24 PUSH2 0x180 MLOAD REVERT JUMPDEST ADD CALLDATALOAD SWAP1 POP DUP10 DUP1 PUSH3 0x2939 JUMP JUMPDEST PUSH2 0x180 DUP1 MLOAD PUSH1 0x5 DUP10 ADD SWAP1 MSTORE MLOAD PUSH1 0x20 DUP2 KECCAK256 SWAP1 SWAP5 POP SWAP2 JUMPDEST PUSH1 0x1F NOT DUP5 AND DUP6 LT PUSH3 0x2CF9 JUMPI PUSH1 0x1 SWAP5 POP DUP4 PUSH1 0x1F NOT DUP2 AND LT PUSH3 0x2CDE JUMPI JUMPDEST POP POP POP DUP2 SHL ADD PUSH1 0x5 DUP5 ADD SSTORE PUSH3 0x2951 JUMP JUMPDEST ADD CALLDATALOAD PUSH1 0x0 NOT PUSH1 0x3 DUP5 SWAP1 SHL PUSH1 0xF8 AND SHR NOT AND SWAP1 SSTORE DUP10 DUP1 DUP1 PUSH3 0x2CCD JUMP JUMPDEST DUP2 DUP2 ADD CALLDATALOAD DUP4 SSTORE PUSH1 0x20 SWAP5 DUP6 ADD SWAP5 PUSH1 0x1 SWAP1 SWAP4 ADD SWAP3 ADD PUSH3 0x2CB0 JUMP JUMPDEST SWAP1 SWAP2 POP PUSH1 0x5 DUP7 ADD PUSH2 0x180 MLOAD MSTORE PUSH1 0x20 PUSH2 0x180 MLOAD KECCAK256 PUSH1 0x1F DUP5 ADD PUSH1 0x5 SHR DUP2 ADD PUSH1 0x20 DUP6 LT PUSH3 0x2D68 JUMPI JUMPDEST SWAP1 DUP5 SWAP4 SWAP3 SWAP2 JUMPDEST PUSH1 0x1F DUP4 ADD PUSH1 0x5 SHR DUP3 ADD DUP2 LT PUSH3 0x2D56 JUMPI POP POP PUSH3 0x291C JUMP JUMPDEST PUSH2 0x180 MLOAD DUP2 SSTORE DUP6 SWAP5 POP PUSH1 0x1 ADD PUSH3 0x2D3E JUMP JUMPDEST POP DUP1 PUSH3 0x2D38 JUMP JUMPDEST ADD CALLDATALOAD SWAP1 POP DUP12 DUP1 PUSH3 0x28DA JUMP JUMPDEST PUSH2 0x180 DUP1 MLOAD PUSH1 0x4 DUP12 ADD SWAP1 MSTORE MLOAD PUSH1 0x20 DUP2 KECCAK256 SWAP1 SWAP5 POP SWAP2 JUMPDEST PUSH1 0x1F NOT DUP5 AND DUP6 LT PUSH3 0x2DDA JUMPI PUSH1 0x1 SWAP5 POP DUP4 PUSH1 0x1F NOT DUP2 AND LT PUSH3 0x2DBF JUMPI JUMPDEST POP POP POP DUP2 SHL ADD PUSH1 0x4 DUP7 ADD SSTORE PUSH3 0x28F2 JUMP JUMPDEST ADD CALLDATALOAD PUSH1 0x0 NOT PUSH1 0x3 DUP5 SWAP1 SHL PUSH1 0xF8 AND SHR NOT AND SWAP1 SSTORE DUP12 DUP1 DUP1 PUSH3 0x2DAE JUMP JUMPDEST DUP2 DUP2 ADD CALLDATALOAD DUP4 SSTORE PUSH1 0x20 SWAP5 DUP6 ADD SWAP5 PUSH1 0x1 SWAP1 SWAP4 ADD SWAP3 ADD PUSH3 0x2D91 JUMP JUMPDEST SWAP1 SWAP2 POP PUSH1 0x4 DUP9 ADD PUSH2 0x180 MLOAD MSTORE PUSH1 0x20 PUSH2 0x180 MLOAD KECCAK256 PUSH1 0x1F DUP5 ADD PUSH1 0x5 SHR DUP2 ADD PUSH1 0x20 DUP6 LT PUSH3 0x2E49 JUMPI JUMPDEST SWAP1 DUP5 SWAP4 SWAP3 SWAP2 JUMPDEST PUSH1 0x1F DUP4 ADD PUSH1 0x5 SHR DUP3 ADD DUP2 LT PUSH3 0x2E37 JUMPI POP POP PUSH3 0x28BD JUMP JUMPDEST PUSH2 0x180 MLOAD DUP2 SSTORE DUP6 SWAP5 POP PUSH1 0x1 ADD PUSH3 0x2E1F JUMP JUMPDEST POP DUP1 PUSH3 0x2E19 JUMP JUMPDEST ADD CALLDATALOAD SWAP1 POP DUP14 DUP1 PUSH3 0x287B JUMP JUMPDEST PUSH2 0x180 DUP1 MLOAD PUSH1 0x3 DUP14 ADD SWAP1 MSTORE MLOAD PUSH1 0x20 DUP2 KECCAK256 SWAP1 SWAP5 POP SWAP2 JUMPDEST PUSH1 0x1F NOT DUP5 AND DUP6 LT PUSH3 0x2EBB JUMPI PUSH1 0x1 SWAP5 POP DUP4 PUSH1 0x1F NOT DUP2 AND LT PUSH3 0x2EA0 JUMPI JUMPDEST POP POP POP DUP2 SHL ADD PUSH1 0x3 DUP9 ADD SSTORE PUSH3 0x2893 JUMP JUMPDEST ADD CALLDATALOAD PUSH1 0x0 NOT PUSH1 0x3 DUP5 SWAP1 SHL PUSH1 0xF8 AND SHR NOT AND SWAP1 SSTORE DUP14 DUP1 DUP1 PUSH3 0x2E8F JUMP JUMPDEST DUP2 DUP2 ADD CALLDATALOAD DUP4 SSTORE PUSH1 0x20 SWAP5 DUP6 ADD SWAP5 PUSH1 0x1 SWAP1 SWAP4 ADD SWAP3 ADD PUSH3 0x2E72 JUMP JUMPDEST SWAP1 SWAP2 POP PUSH1 0x3 DUP11 ADD PUSH2 0x180 MLOAD MSTORE PUSH1 0x20 PUSH2 0x180 MLOAD KECCAK256 PUSH1 0x1F DUP5 ADD PUSH1 0x5 SHR DUP2 ADD PUSH1 0x20 DUP6 LT PUSH3 0x2F2A JUMPI JUMPDEST SWAP1 DUP5 SWAP4 SWAP3 SWAP2 JUMPDEST PUSH1 0x1F DUP4 ADD PUSH1 0x5 SHR DUP3 ADD DUP2 LT PUSH3 0x2F18 JUMPI POP POP PUSH3 0x285E JUMP JUMPDEST PUSH2 0x180 MLOAD DUP2 SSTORE DUP6 SWAP5 POP PUSH1 0x1 ADD PUSH3 0x2F00 JUMP JUMPDEST POP DUP1 PUSH3 0x2EFA JUMP JUMPDEST PUSH2 0x1E0 MLOAD PUSH1 0x1 PUSH1 0x1 PUSH1 0xA0 SHL SUB AND EXTCODESIZE ISZERO PUSH3 0x304A JUMPI PUSH1 0x40 MLOAD PUSH4 0x9485DC9 PUSH1 0xE2 SHL DUP2 MSTORE PUSH2 0x180 MLOAD PUSH2 0x1E0 MLOAD DUP3 SWAP1 PUSH1 0x4 SWAP1 DUP3 SWAP1 DUP5 SWAP1 PUSH1 0x1 PUSH1 0x1 PUSH1 0xA0 SHL SUB AND GAS CALL DUP1 ISZERO PUSH3 0x2B4C JUMPI PUSH3 0x3117 JUMPI JUMPDEST POP PUSH1 0x40 MLOAD PUSH4 0x6B456EF PUSH1 0xE2 SHL DUP2 MSTORE PUSH2 0x1E0 MLOAD PUSH1 0x20 SWAP1 DUP3 SWAP1 PUSH1 0x4 SWAP1 DUP3 SWAP1 PUSH1 0x1 PUSH1 0x1 PUSH1 0xA0 SHL SUB AND GAS STATICCALL SWAP1 DUP2 ISZERO PUSH3 0x2B4C JUMPI PUSH2 0x180 MLOAD SWAP2 PUSH3 0x30CE JUMPI JUMPDEST POP PUSH1 0x1 PUSH1 0x1 PUSH1 0xA0 SHL SUB DUP2 AND PUSH3 0x305D JUMPI JUMPDEST POP DUP1 ISZERO SWAP1 PUSH3 0x3051 JUMPI JUMPDEST PUSH3 0x2FDE JUMPI JUMPDEST DUP12 PUSH3 0x2788 JUMP JUMPDEST PUSH2 0x160 MLOAD PUSH1 0x1 PUSH1 0x1 PUSH1 0xA0 SHL SUB AND EXTCODESIZE ISZERO PUSH3 0x304A JUMPI PUSH1 0x40 MLOAD PUSH4 0x6E258E07 PUSH1 0xE1 SHL DUP2 MSTORE PUSH2 0x180 MLOAD PUSH2 0x160 MLOAD DUP3 SWAP1 PUSH1 0x4 SWAP1 DUP3 SWAP1 DUP5 SWAP1 PUSH1 0x1 PUSH1 0x1 PUSH1 0xA0 SHL SUB AND GAS CALL DUP1 ISZERO PUSH3 0x2B4C JUMPI PUSH3 0x302F JUMPI JUMPDEST POP PUSH3 0x2FD7 JUMP JUMPDEST PUSH3 0x303A SWAP1 PUSH3 0x4235 JUMP JUMPDEST PUSH2 0x180 MLOAD PUSH3 0x304A JUMPI DUP12 PUSH3 0x3028 JUMP JUMPDEST PUSH2 0x180 MLOAD DUP1 REVERT JUMPDEST POP PUSH2 0x1237 CHAINID EQ PUSH3 0x2FD1 JUMP JUMPDEST PUSH2 0x160 MLOAD PUSH1 0x1 PUSH1 0x1 PUSH1 0xA0 SHL SUB AND EXTCODESIZE ISZERO PUSH3 0x304A JUMPI PUSH1 0x40 MLOAD PUSH4 0x15C6DEB9 PUSH1 0xE3 SHL DUP2 MSTORE PUSH1 0x1 PUSH1 0x1 PUSH1 0xA0 SHL SUB SWAP2 DUP3 AND PUSH1 0x4 DUP3 ADD MSTORE PUSH2 0x180 MLOAD PUSH2 0x160 MLOAD SWAP2 SWAP3 SWAP1 SWAP2 DUP4 SWAP2 PUSH1 0x24 SWAP2 DUP4 SWAP2 DUP6 SWAP2 AND GAS CALL DUP1 ISZERO PUSH3 0x2B4C JUMPI ISZERO PUSH3 0x2FC7 JUMPI PUSH3 0x30BE SWAP1 PUSH3 0x4235 JUMP JUMPDEST PUSH2 0x180 MLOAD PUSH3 0x304A JUMPI DUP13 PUSH3 0x2FC7 JUMP JUMPDEST SWAP1 POP PUSH1 0x20 DUP2 RETURNDATASIZE PUSH1 0x20 GT PUSH3 0x310E JUMPI JUMPDEST DUP2 PUSH3 0x30EC PUSH1 0x20 SWAP4 DUP4 PUSH3 0x4249 JUMP JUMPDEST DUP2 ADD SUB SLT PUSH3 0x304A JUMPI MLOAD PUSH1 0x1 PUSH1 0x1 PUSH1 0xA0 SHL SUB DUP2 AND DUP2 SUB PUSH3 0x304A JUMPI DUP14 PUSH3 0x2FB6 JUMP JUMPDEST RETURNDATASIZE SWAP2 POP PUSH3 0x30DD JUMP JUMPDEST PUSH3 0x3122 SWAP1 PUSH3 0x4235 JUMP JUMPDEST PUSH2 0x180 MLOAD PUSH3 0x304A JUMPI DUP13 PUSH3 0x2F7C JUMP JUMPDEST PUSH3 0x313D SWAP1 PUSH3 0x4235 JUMP JUMPDEST PUSH1 0x0 PUSH2 0x180 MSTORE DUP13 PUSH3 0x277D JUMP JUMPDEST PUSH1 0x40 MLOAD PUSH4 0xA9059CBB PUSH1 0xE0 SHL DUP2 MSTORE CALLER PUSH1 0x4 DUP3 ADD MSTORE PUSH2 0x2710 SWAP2 SWAP1 SWAP3 MUL DIV PUSH1 0x24 DUP3 ADD MSTORE PUSH1 0x20 DUP2 DUP1 PUSH1 0x44 DUP2 ADD SUB DUP2 PUSH1 0x0 PUSH1 0x1 DUP1 PUSH1 0xA0 SHL SUB PUSH2 0x160 MLOAD AND GAS CALL SWAP1 DUP2 ISZERO PUSH3 0xEC5 JUMPI PUSH1 0x0 SWAP2 PUSH3 0x31A4 JUMPI JUMPDEST POP ISZERO PUSH3 0xF2A JUMPI DUP10 DUP13 PUSH3 0x2732 JUMP JUMPDEST PUSH3 0x31C1 SWAP2 POP PUSH1 0x20 RETURNDATASIZE PUSH1 0x20 GT PUSH3 0xF9D JUMPI PUSH3 0xF8D DUP2 DUP4 PUSH3 0x4249 JUMP JUMPDEST DUP15 PUSH3 0x3195 JUMP JUMPDEST PUSH3 0x31E5 SWAP2 POP PUSH1 0x20 RETURNDATASIZE PUSH1 0x20 GT PUSH3 0xF9D JUMPI PUSH3 0xF8D DUP2 DUP4 PUSH3 0x4249 JUMP JUMPDEST DUP15 PUSH3 0x271C JUMP JUMPDEST CALLVALUE PUSH3 0x16C JUMPI PUSH1 0x0 CALLDATASIZE PUSH1 0x3 NOT ADD SLT PUSH3 0x16C JUMPI PUSH1 0x20 PUSH1 0x40 MLOAD PUSH2 0x3E8 DUP2 MSTORE RETURN JUMPDEST CALLVALUE PUSH3 0x16C JUMPI PUSH1 0x0 CALLDATASIZE PUSH1 0x3 NOT ADD SLT PUSH3 0x16C JUMPI PUSH1 0x20 PUSH1 0x5 SLOAD PUSH1 0x40 MLOAD SWAP1 DUP2 MSTORE RETURN JUMPDEST CALLVALUE PUSH3 0x16C JUMPI PUSH1 0x0 CALLDATASIZE PUSH1 0x3 NOT ADD SLT PUSH3 0x16C JUMPI PUSH1 0x9 SLOAD PUSH1 0x40 MLOAD PUSH1 0x1 PUSH1 0x1 PUSH1 0xA0 SHL SUB SWAP1 SWAP2 AND DUP2 MSTORE PUSH1 0x20 SWAP1 RETURN JUMPDEST PUSH3 0x3261 CALLDATASIZE PUSH3 0x3FBC JUMP JUMPDEST SWAP5 PUSH3 0x327B PUSH1 0x4 SWAP11 SWAP6 SWAP3 SWAP9 SWAP8 SWAP10 SWAP11 SWAP5 SWAP4 SWAP5 SLOAD CALLVALUE EQ PUSH3 0x41D5 JUMP JUMPDEST PUSH3 0x3285 PUSH3 0x46F7 JUMP JUMPDEST PUSH1 0x0 PUSH2 0x1C0 MSTORE DUP10 ISZERO PUSH3 0x1114 JUMPI DUP9 ISZERO PUSH3 0x10DD JUMPI DUP8 ISZERO PUSH3 0x10A6 JUMPI PUSH2 0x7D0 DUP7 GT PUSH3 0x106B JUMPI PUSH1 0x0 PUSH2 0x1C0 MSTORE PUSH1 0x2 SLOAD PUSH1 0x40 MLOAD SWAP1 PUSH1 0x1 PUSH1 0x1 PUSH1 0xA0 SHL SUB AND PUSH1 0x1 PUSH1 0x1 PUSH1 0x40 SHL SUB PUSH2 0x172D DUP4 ADD SWAP1 DUP2 GT SWAP1 DUP4 GT OR PUSH3 0x101B JUMPI DUP2 SWAP1 PUSH3 0x3318 PUSH3 0x3300 DUP15 PUSH2 0x172D PUSH3 0x6719 DUP7 CODECOPY PUSH1 0xE0 PUSH2 0x172D DUP7 ADD DUP2 DUP2 MSTORE ADD SWAP1 DUP12 PUSH3 0x483D JUMP JUMPDEST PUSH2 0x172D DUP5 ADD DUP2 SUB PUSH1 0x20 PUSH2 0x172D DUP7 ADD ADD MSTORE DUP14 DUP13 PUSH3 0x483D JUMP JUMPDEST SWAP1 DUP12 PUSH1 0x40 PUSH2 0x172D DUP6 ADD ADD MSTORE ADDRESS PUSH1 0x60 PUSH2 0x172D DUP6 ADD ADD MSTORE CALLER PUSH1 0x80 PUSH2 0x172D DUP6 ADD ADD MSTORE PUSH1 0xA0 PUSH2 0x172D DUP5 ADD ADD MSTORE PUSH1 0x32 PUSH1 0xC0 PUSH2 0x172D DUP5 ADD ADD MSTORE SUB SWAP1 PUSH1 0x0 CREATE PUSH2 0x1A0 MSTORE PUSH2 0x1A0 MLOAD ISZERO PUSH3 0xEC5 JUMPI PUSH1 0x2 SLOAD PUSH1 0x1 PUSH1 0x1 PUSH1 0xA0 SHL SUB AND CALLER EQ SWAP9 PUSH3 0x3378 DUP11 PUSH3 0x4878 JUMP JUMPDEST PUSH1 0x1 SLOAD PUSH1 0x3 SLOAD PUSH1 0x5 SLOAD PUSH1 0x6 SLOAD PUSH1 0x7 SLOAD PUSH1 0x8 SLOAD PUSH1 0x40 MLOAD SWAP7 SWAP15 SWAP7 SWAP6 PUSH1 0x1 PUSH1 0x1 PUSH1 0xA0 SHL SUB SWAP2 DUP3 AND SWAP6 SWAP3 SWAP5 SWAP3 SWAP2 AND PUSH1 0x1 PUSH1 0x1 PUSH1 0x40 SHL SUB PUSH2 0x1E5E DUP9 ADD SWAP1 DUP2 GT SWAP1 DUP9 GT OR PUSH3 0x101B JUMPI PUSH2 0x1E5E PUSH3 0x48BB DUP9 CODECOPY PUSH2 0x1A0 MLOAD PUSH1 0x1 PUSH1 0x1 PUSH1 0xA0 SHL SUB SWAP1 DUP2 AND PUSH2 0x1E5E DUP10 ADD SWAP1 DUP2 MSTORE ADDRESS PUSH1 0x20 DUP3 ADD MSTORE PUSH1 0x40 DUP2 ADD SWAP3 SWAP1 SWAP3 MSTORE PUSH1 0x60 DUP3 ADD SWAP3 SWAP1 SWAP3 MSTORE PUSH1 0x80 DUP2 ADD SWAP3 SWAP1 SWAP3 MSTORE PUSH1 0xA0 DUP3 ADD SWAP3 SWAP1 SWAP3 MSTORE PUSH1 0xC0 DUP2 ADD SWAP3 SWAP1 SWAP3 MSTORE PUSH1 0xE0 DUP3 ADD SWAP3 SWAP1 SWAP3 MSTORE SWAP1 DUP12 AND PUSH2 0x100 DUP3 ADD MSTORE DUP2 SWAP1 SUB PUSH2 0x120 ADD SWAP1 PUSH1 0x0 CREATE SWAP11 DUP12 ISZERO PUSH3 0xEC5 JUMPI DUP11 DUP10 DUP2 MUL DIV DUP10 SUB PUSH3 0x1005 JUMPI DUP12 PUSH3 0x3453 PUSH1 0x20 PUSH3 0x1845 DUP15 PUSH2 0x2710 DUP15 DUP3 MUL DIV SWAP1 PUSH3 0x457B JUMP JUMPDEST SUB DUP2 PUSH1 0x0 PUSH1 0x1 DUP1 PUSH1 0xA0 SHL SUB PUSH2 0x1A0 MLOAD AND GAS CALL SWAP1 DUP2 ISZERO PUSH3 0xEC5 JUMPI PUSH1 0x0 SWAP2 PUSH3 0x3F15 JUMPI JUMPDEST POP ISZERO PUSH3 0xFA5 JUMPI DUP10 DUP13 PUSH2 0x2710 DUP3 DUP3 MUL DIV PUSH3 0x3E97 JUMPI JUMPDEST POP POP PUSH1 0x1 PUSH1 0x1 PUSH1 0xA0 SHL SUB DUP14 AND EXTCODESIZE ISZERO PUSH3 0x16C JUMPI PUSH1 0x0 DUP14 PUSH1 0x24 DUP3 SWAP4 PUSH1 0x40 MLOAD SWAP5 DUP6 SWAP4 DUP5 SWAP3 PUSH4 0x95564837 PUSH1 0xE0 SHL DUP5 MSTORE PUSH1 0x4 DUP5 ADD MSTORE PUSH1 0x1 DUP1 PUSH1 0xA0 SHL SUB AND GAS CALL DUP1 ISZERO PUSH3 0xEC5 JUMPI PUSH3 0x3E7F JUMPI JUMPDEST POP PUSH2 0x1C0 MLOAD PUSH3 0x3C8B JUMPI JUMPDEST POP PUSH2 0x1A0 MLOAD PUSH2 0x1C0 DUP1 MLOAD PUSH1 0x1 PUSH1 0x1 PUSH1 0xA0 SHL SUB SWAP3 DUP4 AND SWAP1 MSTORE PUSH1 0xB PUSH1 0x20 MSTORE MLOAD PUSH1 0x40 SWAP1 KECCAK256 DUP1 SLOAD PUSH1 0x1 PUSH1 0x1 PUSH1 0xA0 SHL SUB NOT AND SWAP2 DUP14 AND SWAP2 SWAP1 SWAP2 OR SWAP1 SSTORE PUSH1 0xA SLOAD SWAP12 PUSH1 0x1 PUSH1 0x40 SHL DUP14 LT ISZERO PUSH3 0x39CE JUMPI PUSH1 0x1 DUP14 ADD PUSH1 0xA SSTORE PUSH3 0x3538 DUP14 PUSH3 0x42BC JUMP JUMPDEST POP POP PUSH3 0x3545 DUP14 PUSH3 0x42BC JUMP JUMPDEST POP SWAP8 PUSH1 0x1 DUP1 PUSH1 0xA0 SHL SUB PUSH2 0x1A0 MLOAD AND PUSH1 0x1 PUSH1 0x1 PUSH1 0x60 SHL SUB PUSH1 0xA0 SHL DUP11 SLOAD AND OR DUP10 SSTORE PUSH1 0x1 DUP10 ADD DUP14 PUSH1 0x1 DUP1 PUSH1 0xA0 SHL SUB AND PUSH1 0x1 PUSH1 0x1 PUSH1 0x60 SHL SUB PUSH1 0xA0 SHL DUP3 SLOAD AND OR SWAP1 SSTORE PUSH1 0x2 DUP10 ADD CALLER PUSH1 0x1 PUSH1 0x1 PUSH1 0x60 SHL SUB PUSH1 0xA0 SHL DUP3 SLOAD AND OR SWAP1 SSTORE PUSH1 0x1 PUSH1 0x1 PUSH1 0x40 SHL SUB DUP3 GT PUSH3 0x39CE JUMPI DUP2 SWAP1 PUSH3 0x35B8 PUSH1 0x3 DUP12 ADD SLOAD PUSH3 0x430D JUMP JUMPDEST PUSH1 0x1F DUP2 GT PUSH3 0x3C2D JUMPI JUMPDEST POP PUSH2 0x1C0 MLOAD SWAP1 PUSH1 0x1F DUP4 GT PUSH1 0x1 EQ PUSH3 0x3BB6 JUMPI PUSH2 0x1C0 MLOAD SWAP3 PUSH3 0x3BAA JUMPI JUMPDEST POP POP DUP2 PUSH1 0x1 SHL SWAP2 PUSH1 0x0 NOT SWAP1 PUSH1 0x3 SHL SHR NOT AND OR PUSH1 0x3 DUP9 ADD SSTORE JUMPDEST PUSH1 0x1 PUSH1 0x1 PUSH1 0x40 SHL SUB DUP3 GT PUSH3 0x39CE JUMPI DUP2 SWAP1 PUSH3 0x3617 PUSH1 0x4 DUP10 ADD SLOAD PUSH3 0x430D JUMP JUMPDEST PUSH1 0x1F DUP2 GT PUSH3 0x3B4C JUMPI JUMPDEST POP PUSH2 0x1C0 MLOAD SWAP1 PUSH1 0x1F DUP4 GT PUSH1 0x1 EQ PUSH3 0x3AD5 JUMPI PUSH2 0x1C0 MLOAD SWAP3 PUSH3 0x3AC9 JUMPI JUMPDEST POP POP DUP2 PUSH1 0x1 SHL SWAP2 PUSH1 0x0 NOT SWAP1 PUSH1 0x3 SHL SHR NOT AND OR PUSH1 0x4 DUP7 ADD SSTORE JUMPDEST PUSH1 0x1 PUSH1 0x1 PUSH1 0x40 SHL SUB DUP3 GT PUSH3 0x39CE JUMPI DUP2 SWAP1 PUSH3 0x3676 PUSH1 0x5 DUP8 ADD SLOAD PUSH3 0x430D JUMP JUMPDEST PUSH1 0x1F DUP2 GT PUSH3 0x3A6B JUMPI JUMPDEST POP PUSH2 0x1C0 MLOAD SWAP1 PUSH1 0x1F DUP4 GT PUSH1 0x1 EQ PUSH3 0x39F4 JUMPI PUSH2 0x1C0 MLOAD SWAP3 PUSH3 0x39E8 JUMPI JUMPDEST POP POP DUP2 PUSH1 0x1 SHL SWAP2 PUSH1 0x0 NOT SWAP1 PUSH1 0x3 SHL SHR NOT AND OR PUSH1 0x5 DUP5 ADD SSTORE JUMPDEST PUSH1 0x1 PUSH1 0x1 PUSH1 0x40 SHL SUB DUP3 GT PUSH3 0x39CE JUMPI DUP2 SWAP1 PUSH3 0x36D5 PUSH1 0x6 DUP6 ADD SLOAD PUSH3 0x430D JUMP JUMPDEST PUSH1 0x1F DUP2 GT PUSH3 0x3970 JUMPI JUMPDEST POP PUSH2 0x1C0 MLOAD SWAP1 PUSH1 0x1F DUP4 GT PUSH1 0x1 EQ PUSH3 0x38F9 JUMPI PUSH2 0x1C0 MLOAD SWAP3 PUSH3 0x38ED JUMPI JUMPDEST POP POP DUP2 PUSH1 0x1 SHL SWAP2 PUSH1 0x0 NOT SWAP1 PUSH1 0x3 SHL SHR NOT AND OR PUSH1 0x6 DUP3 ADD SSTORE JUMPDEST DUP4 PUSH1 0x7 DUP3 ADD SSTORE PUSH2 0x2710 DUP3 DUP6 MUL DIV PUSH1 0x8 DUP3 ADD SSTORE PUSH1 0x9 TIMESTAMP SWAP2 ADD SSTORE PUSH1 0x3 SLOAD PUSH1 0x7 SLOAD SWAP1 PUSH2 0x2710 PUSH1 0x1 DUP1 PUSH1 0xA0 SHL SUB PUSH1 0x8 SLOAD AND SWAP4 PUSH1 0x40 MLOAD SWAP7 PUSH1 0x1 DUP1 PUSH1 0xA0 SHL SUB DUP10 AND DUP9 MSTORE DUP1 PUSH1 0x20 DUP10 ADD MSTORE MUL DIV PUSH1 0x40 DUP7 ADD MSTORE PUSH1 0x60 DUP6 ADD MSTORE PUSH1 0x80 DUP5 ADD MSTORE PUSH1 0xA0 DUP4 ADD MSTORE PUSH1 0x1 DUP1 PUSH1 0xA0 SHL SUB AND PUSH1 0xC0 DUP3 ADD MSTORE PUSH1 0x1 DUP1 PUSH1 0xA0 SHL SUB PUSH2 0x1A0 MLOAD AND SWAP1 DUP4 PUSH1 0x0 DUP1 MLOAD PUSH1 0x20 PUSH3 0x7E66 DUP4 CODECOPY DUP2 MLOAD SWAP2 MSTORE PUSH1 0xE0 CALLER SWAP4 LOG4 PUSH1 0x40 MLOAD PUSH4 0x17773EBB PUSH1 0xE0 SHL DUP2 MSTORE PUSH2 0x1A0 MLOAD PUSH1 0x20 SWAP1 DUP3 SWAP1 PUSH1 0x4 SWAP1 DUP3 SWAP1 PUSH1 0x1 PUSH1 0x1 PUSH1 0xA0 SHL SUB AND GAS STATICCALL SWAP1 DUP2 ISZERO PUSH3 0x38A7 JUMPI PUSH2 0x1C0 MLOAD SWAP2 PUSH3 0x38B5 JUMPI JUMPDEST POP PUSH1 0x40 MLOAD PUSH4 0x116E689F PUSH1 0xE1 SHL DUP2 MSTORE PUSH2 0x1A0 MLOAD PUSH1 0x20 SWAP1 DUP3 SWAP1 PUSH1 0x4 SWAP1 DUP3 SWAP1 PUSH1 0x1 PUSH1 0x1 PUSH1 0xA0 SHL SUB AND GAS STATICCALL SWAP1 DUP2 ISZERO PUSH3 0x38A7 JUMPI PUSH2 0x1C0 MLOAD SWAP2 PUSH3 0x386F JUMPI JUMPDEST POP PUSH1 0x40 MLOAD SWAP2 PUSH1 0x32 DUP4 MSTORE PUSH1 0x20 DUP4 ADD MSTORE PUSH1 0x40 DUP3 ADD MSTORE DUP3 PUSH1 0x0 DUP1 MLOAD PUSH1 0x20 PUSH3 0x7E46 DUP4 CODECOPY DUP2 MLOAD SWAP2 MSTORE PUSH1 0x60 PUSH1 0x1 DUP1 PUSH1 0xA0 SHL SUB PUSH2 0x1A0 MLOAD AND SWAP4 LOG3 PUSH1 0x40 DUP1 MLOAD PUSH2 0x1A0 MLOAD SWAP4 DUP2 MSTORE PUSH1 0x1 PUSH1 0x1 PUSH1 0xA0 SHL SUB SWAP4 DUP5 AND PUSH1 0x20 DUP3 ADD MSTORE SWAP2 SWAP1 SWAP3 AND SWAP2 DUP2 ADD SWAP2 SWAP1 SWAP2 MSTORE PUSH1 0x60 SWAP1 RETURN JUMPDEST SWAP1 POP PUSH1 0x20 DUP2 RETURNDATASIZE PUSH1 0x20 GT PUSH3 0x389E JUMPI JUMPDEST DUP2 PUSH3 0x388D PUSH1 0x20 SWAP4 DUP4 PUSH3 0x4249 JUMP JUMPDEST DUP2 ADD SUB SLT PUSH3 0x16C JUMPI MLOAD DUP5 PUSH3 0x3810 JUMP JUMPDEST RETURNDATASIZE SWAP2 POP PUSH3 0x387E JUMP JUMPDEST PUSH1 0x40 MLOAD RETURNDATASIZE PUSH2 0x1C0 MLOAD DUP3 RETURNDATACOPY RETURNDATASIZE SWAP1 REVERT JUMPDEST SWAP1 POP PUSH1 0x20 DUP2 RETURNDATASIZE PUSH1 0x20 GT PUSH3 0x38E4 JUMPI JUMPDEST DUP2 PUSH3 0x38D3 PUSH1 0x20 SWAP4 DUP4 PUSH3 0x4249 JUMP JUMPDEST DUP2 ADD SUB SLT PUSH3 0x16C JUMPI MLOAD DUP4 PUSH3 0x37D6 JUMP JUMPDEST RETURNDATASIZE SWAP2 POP PUSH3 0x38C4 JUMP JUMPDEST ADD CALLDATALOAD SWAP1 POP DUP9 DUP1 PUSH3 0x36FC JUMP JUMPDEST PUSH2 0x1C0 DUP1 MLOAD PUSH1 0x6 DUP8 ADD SWAP1 MSTORE MLOAD PUSH1 0x20 DUP2 KECCAK256 SWAP1 SWAP5 POP SWAP2 JUMPDEST PUSH1 0x1F NOT DUP5 AND DUP6 LT PUSH3 0x3957 JUMPI PUSH1 0x1 SWAP5 POP DUP4 PUSH1 0x1F NOT DUP2 AND LT PUSH3 0x393C JUMPI JUMPDEST POP POP POP DUP2 SHL ADD PUSH1 0x6 DUP3 ADD SSTORE PUSH3 0x3714 JUMP JUMPDEST ADD CALLDATALOAD PUSH1 0x0 NOT PUSH1 0x3 DUP5 SWAP1 SHL PUSH1 0xF8 AND SHR NOT AND SWAP1 SSTORE DUP9 DUP1 DUP1 PUSH3 0x392B JUMP JUMPDEST DUP2 DUP2 ADD CALLDATALOAD DUP4 SSTORE PUSH1 0x20 SWAP5 DUP6 ADD SWAP5 PUSH1 0x1 SWAP1 SWAP4 ADD SWAP3 ADD PUSH3 0x390E JUMP JUMPDEST SWAP1 SWAP2 POP PUSH1 0x6 DUP5 ADD PUSH2 0x1C0 MLOAD MSTORE PUSH1 0x20 PUSH2 0x1C0 MLOAD KECCAK256 PUSH1 0x1F DUP5 ADD PUSH1 0x5 SHR DUP2 ADD PUSH1 0x20 DUP6 LT PUSH3 0x39C6 JUMPI JUMPDEST SWAP1 DUP5 SWAP4 SWAP3 SWAP2 JUMPDEST PUSH1 0x1F DUP4 ADD PUSH1 0x5 SHR DUP3 ADD DUP2 LT PUSH3 0x39B4 JUMPI POP POP PUSH3 0x36DF JUMP JUMPDEST PUSH2 0x1C0 MLOAD DUP2 SSTORE DUP6 SWAP5 POP PUSH1 0x1 ADD PUSH3 0x399C JUMP JUMPDEST POP DUP1 PUSH3 0x3996 JUMP JUMPDEST PUSH4 0x4E487B71 PUSH1 0xE0 SHL PUSH2 0x1C0 MLOAD MSTORE PUSH1 0x41 PUSH1 0x4 MSTORE PUSH1 0x24 PUSH2 0x1C0 MLOAD REVERT JUMPDEST ADD CALLDATALOAD SWAP1 POP DUP11 DUP1 PUSH3 0x369D JUMP JUMPDEST PUSH2 0x1C0 DUP1 MLOAD PUSH1 0x5 DUP10 ADD SWAP1 MSTORE MLOAD PUSH1 0x20 DUP2 KECCAK256 SWAP1 SWAP5 POP SWAP2 JUMPDEST PUSH1 0x1F NOT DUP5 AND DUP6 LT PUSH3 0x3A52 JUMPI PUSH1 0x1 SWAP5 POP DUP4 PUSH1 0x1F NOT DUP2 AND LT PUSH3 0x3A37 JUMPI JUMPDEST POP POP POP DUP2 SHL ADD PUSH1 0x5 DUP5 ADD SSTORE PUSH3 0x36B5 JUMP JUMPDEST ADD CALLDATALOAD PUSH1 0x0 NOT PUSH1 0x3 DUP5 SWAP1 SHL PUSH1 0xF8 AND SHR NOT AND SWAP1 SSTORE DUP11 DUP1 DUP1 PUSH3 0x3A26 JUMP JUMPDEST DUP2 DUP2 ADD CALLDATALOAD DUP4 SSTORE PUSH1 0x20 SWAP5 DUP6 ADD SWAP5 PUSH1 0x1 SWAP1 SWAP4 ADD SWAP3 ADD PUSH3 0x3A09 JUMP JUMPDEST SWAP1 SWAP2 POP PUSH1 0x5 DUP7 ADD PUSH2 0x1C0 MLOAD MSTORE PUSH1 0x20 PUSH2 0x1C0 MLOAD KECCAK256 PUSH1 0x1F DUP5 ADD PUSH1 0x5 SHR DUP2 ADD PUSH1 0x20 DUP6 LT PUSH3 0x3AC1 JUMPI JUMPDEST SWAP1 DUP5 SWAP4 SWAP3 SWAP2 JUMPDEST PUSH1 0x1F DUP4 ADD PUSH1 0x5 SHR DUP3 ADD DUP2 LT PUSH3 0x3AAF JUMPI POP POP PUSH3 0x3680 JUMP JUMPDEST PUSH2 0x1C0 MLOAD DUP2 SSTORE DUP6 SWAP5 POP PUSH1 0x1 ADD PUSH3 0x3A97 JUMP JUMPDEST POP DUP1 PUSH3 0x3A91 JUMP JUMPDEST ADD CALLDATALOAD SWAP1 POP DUP13 DUP1 PUSH3 0x363E JUMP JUMPDEST PUSH2 0x1C0 DUP1 MLOAD PUSH1 0x4 DUP12 ADD SWAP1 MSTORE MLOAD PUSH1 0x20 DUP2 KECCAK256 SWAP1 SWAP5 POP SWAP2 JUMPDEST PUSH1 0x1F NOT DUP5 AND DUP6 LT PUSH3 0x3B33 JUMPI PUSH1 0x1 SWAP5 POP DUP4 PUSH1 0x1F NOT DUP2 AND LT PUSH3 0x3B18 JUMPI JUMPDEST POP POP POP DUP2 SHL ADD PUSH1 0x4 DUP7 ADD SSTORE PUSH3 0x3656 JUMP JUMPDEST ADD CALLDATALOAD PUSH1 0x0 NOT PUSH1 0x3 DUP5 SWAP1 SHL PUSH1 0xF8 AND SHR NOT AND SWAP1 SSTORE DUP13 DUP1 DUP1 PUSH3 0x3B07 JUMP JUMPDEST DUP2 DUP2 ADD CALLDATALOAD DUP4 SSTORE PUSH1 0x20 SWAP5 DUP6 ADD SWAP5 PUSH1 0x1 SWAP1 SWAP4 ADD SWAP3 ADD PUSH3 0x3AEA JUMP JUMPDEST SWAP1 SWAP2 POP PUSH1 0x4 DUP9 ADD PUSH2 0x1C0 MLOAD MSTORE PUSH1 0x20 PUSH2 0x1C0 MLOAD KECCAK256 PUSH1 0x1F DUP5 ADD PUSH1 0x5 SHR DUP2 ADD PUSH1 0x20 DUP6 LT PUSH3 0x3BA2 JUMPI JUMPDEST SWAP1 DUP5 SWAP4 SWAP3 SWAP2 JUMPDEST PUSH1 0x1F DUP4 ADD PUSH1 0x5 SHR DUP3 ADD DUP2 LT PUSH3 0x3B90 JUMPI POP POP PUSH3 0x3621 JUMP JUMPDEST PUSH2 0x1C0 MLOAD DUP2 SSTORE DUP6 SWAP5 POP PUSH1 0x1 ADD PUSH3 0x3B78 JUMP JUMPDEST POP DUP1 PUSH3 0x3B72 JUMP JUMPDEST ADD CALLDATALOAD SWAP1 POP DUP15 DUP1 PUSH3 0x35DF JUMP JUMPDEST PUSH2 0x1C0 DUP1 MLOAD PUSH1 0x3 DUP14 ADD SWAP1 MSTORE MLOAD PUSH1 0x20 DUP2 KECCAK256 SWAP1 SWAP5 POP SWAP2 JUMPDEST PUSH1 0x1F NOT DUP5 AND DUP6 LT PUSH3 0x3C14 JUMPI PUSH1 0x1 SWAP5 POP DUP4 PUSH1 0x1F NOT DUP2 AND LT PUSH3 0x3BF9 JUMPI JUMPDEST POP POP POP DUP2 SHL ADD PUSH1 0x3 DUP9 ADD SSTORE PUSH3 0x35F7 JUMP JUMPDEST ADD CALLDATALOAD PUSH1 0x0 NOT PUSH1 0x3 DUP5 SWAP1 SHL PUSH1 0xF8 AND SHR NOT AND SWAP1 SSTORE DUP15 DUP1 DUP1 PUSH3 0x3BE8 JUMP JUMPDEST DUP2 DUP2 ADD CALLDATALOAD DUP4 SSTORE PUSH1 0x20 SWAP5 DUP6 ADD SWAP5 PUSH1 0x1 SWAP1 SWAP4 ADD SWAP3 ADD PUSH3 0x3BCB JUMP JUMPDEST SWAP1 SWAP2 POP PUSH1 0x3 DUP11 ADD PUSH2 0x1C0 MLOAD MSTORE PUSH1 0x20 PUSH2 0x1C0 MLOAD KECCAK256 PUSH1 0x1F DUP5 ADD PUSH1 0x5 SHR DUP2 ADD PUSH1 0x20 DUP6 LT PUSH3 0x3C83 JUMPI JUMPDEST SWAP1 DUP5 SWAP4 SWAP3 SWAP2 JUMPDEST PUSH1 0x1F DUP4 ADD PUSH1 0x5 SHR DUP3 ADD DUP2 LT PUSH3 0x3C71 JUMPI POP POP PUSH3 0x35C2 JUMP JUMPDEST PUSH2 0x1C0 MLOAD DUP2 SSTORE DUP6 SWAP5 POP PUSH1 0x1 ADD PUSH3 0x3C59 JUMP JUMPDEST POP DUP1 PUSH3 0x3C53 JUMP JUMPDEST PUSH1 0x1 PUSH1 0x1 PUSH1 0xA0 SHL SUB DUP13 AND EXTCODESIZE ISZERO PUSH3 0x3D97 JUMPI PUSH1 0x40 MLOAD PUSH4 0x9485DC9 PUSH1 0xE2 SHL DUP2 MSTORE DUP13 DUP2 PUSH1 0x4 DUP2 PUSH2 0x1C0 MLOAD SWAP4 PUSH2 0x1C0 MLOAD SWAP1 PUSH1 0x1 DUP1 PUSH1 0xA0 SHL SUB AND GAS CALL DUP1 ISZERO PUSH3 0x38A7 JUMPI PUSH3 0x3E64 JUMPI JUMPDEST POP PUSH1 0x4 PUSH1 0x20 DUP14 PUSH1 0x40 MLOAD SWAP3 DUP4 DUP1 SWAP3 PUSH4 0x6B456EF PUSH1 0xE2 SHL DUP3 MSTORE PUSH1 0x1 DUP1 PUSH1 0xA0 SHL SUB AND GAS STATICCALL SWAP1 DUP2 ISZERO PUSH3 0x38A7 JUMPI PUSH2 0x1C0 MLOAD SWAP2 PUSH3 0x3E1B JUMPI JUMPDEST POP PUSH1 0x1 PUSH1 0x1 PUSH1 0xA0 SHL SUB DUP2 AND PUSH3 0x3DAA JUMPI JUMPDEST POP DUP1 ISZERO SWAP1 PUSH3 0x3D9E JUMPI JUMPDEST PUSH3 0x3D2B JUMPI JUMPDEST DUP13 PUSH3 0x34DF JUMP JUMPDEST PUSH2 0x1A0 MLOAD PUSH1 0x1 PUSH1 0x1 PUSH1 0xA0 SHL SUB AND EXTCODESIZE ISZERO PUSH3 0x3D97 JUMPI PUSH1 0x40 MLOAD PUSH4 0x6E258E07 PUSH1 0xE1 SHL DUP2 MSTORE PUSH2 0x1C0 MLOAD PUSH2 0x1A0 MLOAD DUP3 SWAP1 PUSH1 0x4 SWAP1 DUP3 SWAP1 DUP5 SWAP1 PUSH1 0x1 PUSH1 0x1 PUSH1 0xA0 SHL SUB AND GAS CALL DUP1 ISZERO PUSH3 0x38A7 JUMPI PUSH3 0x3D7C JUMPI JUMPDEST POP PUSH3 0x3D24 JUMP JUMPDEST PUSH3 0x3D87 SWAP1 PUSH3 0x4235 JUMP JUMPDEST PUSH2 0x1C0 MLOAD PUSH3 0x3D97 JUMPI DUP13 PUSH3 0x3D75 JUMP JUMPDEST PUSH2 0x1C0 MLOAD DUP1 REVERT JUMPDEST POP PUSH2 0x1237 CHAINID EQ PUSH3 0x3D1E JUMP JUMPDEST PUSH2 0x1A0 MLOAD PUSH1 0x1 PUSH1 0x1 PUSH1 0xA0 SHL SUB AND EXTCODESIZE ISZERO PUSH3 0x3D97 JUMPI PUSH1 0x40 MLOAD PUSH4 0x15C6DEB9 PUSH1 0xE3 SHL DUP2 MSTORE PUSH1 0x1 PUSH1 0x1 PUSH1 0xA0 SHL SUB SWAP2 DUP3 AND PUSH1 0x4 DUP3 ADD MSTORE PUSH2 0x1C0 MLOAD PUSH2 0x1A0 MLOAD SWAP2 SWAP3 SWAP1 SWAP2 DUP4 SWAP2 PUSH1 0x24 SWAP2 DUP4 SWAP2 DUP6 SWAP2 AND GAS CALL DUP1 ISZERO PUSH3 0x38A7 JUMPI ISZERO PUSH3 0x3D14 JUMPI PUSH3 0x3E0B SWAP1 PUSH3 0x4235 JUMP JUMPDEST PUSH2 0x1C0 MLOAD PUSH3 0x3D97 JUMPI DUP14 PUSH3 0x3D14 JUMP JUMPDEST SWAP1 POP PUSH1 0x20 DUP2 RETURNDATASIZE PUSH1 0x20 GT PUSH3 0x3E5B JUMPI JUMPDEST DUP2 PUSH3 0x3E39 PUSH1 0x20 SWAP4 DUP4 PUSH3 0x4249 JUMP JUMPDEST DUP2 ADD SUB SLT PUSH3 0x3D97 JUMPI MLOAD PUSH1 0x1 PUSH1 0x1 PUSH1 0xA0 SHL SUB DUP2 AND DUP2 SUB PUSH3 0x3D97 JUMPI DUP15 PUSH3 0x3D03 JUMP JUMPDEST RETURNDATASIZE SWAP2 POP PUSH3 0x3E2A JUMP JUMPDEST PUSH3 0x3E6F SWAP1 PUSH3 0x4235 JUMP JUMPDEST PUSH2 0x1C0 MLOAD PUSH3 0x3D97 JUMPI DUP14 PUSH3 0x3CCF JUMP JUMPDEST PUSH3 0x3E8A SWAP1 PUSH3 0x4235 JUMP JUMPDEST PUSH1 0x0 PUSH2 0x1C0 MSTORE DUP14 PUSH3 0x34D4 JUMP JUMPDEST PUSH1 0x40 MLOAD PUSH4 0xA9059CBB PUSH1 0xE0 SHL DUP2 MSTORE CALLER PUSH1 0x4 DUP3 ADD MSTORE PUSH2 0x2710 SWAP2 SWAP1 SWAP3 MUL DIV PUSH1 0x24 DUP3 ADD MSTORE PUSH1 0x20 DUP2 DUP1 PUSH1 0x44 DUP2 ADD SUB DUP2 PUSH1 0x0 PUSH1 0x1 DUP1 PUSH1 0xA0 SHL SUB PUSH2 0x1A0 MLOAD AND GAS CALL SWAP1 DUP2 ISZERO PUSH3 0xEC5 JUMPI PUSH1 0x0 SWAP2 PUSH3 0x3EF1 JUMPI JUMPDEST POP ISZERO PUSH3 0xF2A JUMPI DUP10 DUP13 PUSH3 0x348C JUMP JUMPDEST PUSH3 0x3F0E SWAP2 POP PUSH1 0x20 RETURNDATASIZE PUSH1 0x20 GT PUSH3 0xF9D JUMPI PUSH3 0xF8D DUP2 DUP4 PUSH3 0x4249 JUMP JUMPDEST DUP16 PUSH3 0x3EE2 JUMP JUMPDEST PUSH3 0x3F32 SWAP2 POP PUSH1 0x20 RETURNDATASIZE PUSH1 0x20 GT PUSH3 0xF9D JUMPI PUSH3 0xF8D DUP2 DUP4 PUSH3 0x4249 JUMP JUMPDEST DUP16 PUSH3 0x3476 JUMP JUMPDEST CALLVALUE PUSH3 0x16C JUMPI PUSH1 0x20 CALLDATASIZE PUSH1 0x3 NOT ADD SLT PUSH3 0x16C JUMPI PUSH1 0x20 SWAP1 PUSH1 0x1 PUSH1 0x1 PUSH1 0xA0 SHL SUB DUP1 PUSH3 0x3F62 PUSH3 0x3F75 JUMP JUMPDEST AND PUSH1 0x0 MSTORE PUSH1 0xB DUP4 MSTORE PUSH1 0x40 PUSH1 0x0 KECCAK256 SLOAD AND DUP2 MSTORE RETURN JUMPDEST PUSH1 0x4 CALLDATALOAD SWAP1 PUSH1 0x1 PUSH1 0x1 PUSH1 0xA0 SHL SUB DUP3 AND DUP3 SUB PUSH3 0x16C JUMPI JUMP JUMPDEST SWAP2 DUP2 PUSH1 0x1F DUP5 ADD SLT ISZERO PUSH3 0x16C JUMPI DUP3 CALLDATALOAD SWAP2 PUSH1 0x1 PUSH1 0x1 PUSH1 0x40 SHL SUB DUP4 GT PUSH3 0x16C JUMPI PUSH1 0x20 DUP4 DUP2 DUP7 ADD SWAP6 ADD ADD GT PUSH3 0x16C JUMPI JUMP JUMPDEST PUSH1 0xC0 PUSH1 0x3 NOT DUP3 ADD SLT PUSH3 0x16C JUMPI PUSH1 0x1 PUSH1 0x1 PUSH1 0x40 SHL SUB SWAP1 PUSH1 0x4 CALLDATALOAD DUP3 DUP2 GT PUSH3 0x16C JUMPI DUP2 PUSH3 0x3FEC SWAP2 PUSH1 0x4 ADD PUSH3 0x3F8C JUMP JUMPDEST SWAP4 SWAP1 SWAP4 SWAP3 PUSH1 0x24 CALLDATALOAD DUP2 DUP2 GT PUSH3 0x16C JUMPI DUP4 PUSH3 0x400A SWAP2 PUSH1 0x4 ADD PUSH3 0x3F8C JUMP JUMPDEST SWAP4 SWAP1 SWAP4 SWAP3 PUSH1 0x44 CALLDATALOAD DUP4 DUP2 GT PUSH3 0x16C JUMPI DUP3 PUSH3 0x4028 SWAP2 PUSH1 0x4 ADD PUSH3 0x3F8C JUMP JUMPDEST SWAP4 SWAP1 SWAP4 SWAP3 PUSH1 0x64 CALLDATALOAD SWAP2 DUP3 GT PUSH3 0x16C JUMPI PUSH3 0x4045 SWAP2 PUSH1 0x4 ADD PUSH3 0x3F8C JUMP JUMPDEST SWAP1 SWAP2 PUSH1 0x84 CALLDATALOAD SWAP1 PUSH1 0xA4 CALLDATALOAD SWAP1 JUMP JUMPDEST PUSH1 0xE0 PUSH1 0x3 NOT DUP3 ADD SLT PUSH3 0x16C JUMPI PUSH1 0x1 PUSH1 0x1 PUSH1 0x40 SHL SUB SWAP1 PUSH1 0x4 CALLDATALOAD DUP3 DUP2 GT PUSH3 0x16C JUMPI DUP2 PUSH3 0x4081 SWAP2 PUSH1 0x4 ADD PUSH3 0x3F8C JUMP JUMPDEST SWAP4 SWAP1 SWAP4 SWAP3 PUSH1 0x24 CALLDATALOAD DUP2 DUP2 GT PUSH3 0x16C JUMPI DUP4 PUSH3 0x409F SWAP2 PUSH1 0x4 ADD PUSH3 0x3F8C JUMP JUMPDEST SWAP4 SWAP1 SWAP4 SWAP3 PUSH1 0x44 CALLDATALOAD DUP4 DUP2 GT PUSH3 0x16C JUMPI DUP3 PUSH3 0x40BD SWAP2 PUSH1 0x4 ADD PUSH3 0x3F8C JUMP JUMPDEST SWAP4 SWAP1 SWAP4 SWAP3 PUSH1 0x64 CALLDATALOAD SWAP2 DUP3 GT PUSH3 0x16C JUMPI PUSH3 0x40DA SWAP2 PUSH1 0x4 ADD PUSH3 0x3F8C JUMP JUMPDEST SWAP1 SWAP2 PUSH1 0x84 CALLDATALOAD SWAP1 PUSH1 0xA4 CALLDATALOAD SWAP1 PUSH1 0xC4 CALLDATALOAD SWAP1 JUMP JUMPDEST SWAP2 SWAP1 DUP3 MLOAD SWAP3 DUP4 DUP3 MSTORE PUSH1 0x0 JUMPDEST DUP5 DUP2 LT PUSH3 0x4117 JUMPI POP POP DUP3 PUSH1 0x0 PUSH1 0x20 DUP1 SWAP5 SWAP6 DUP5 ADD ADD MSTORE PUSH1 0x1F DUP1 NOT SWAP2 ADD AND ADD ADD SWAP1 JUMP JUMPDEST PUSH1 0x20 DUP2 DUP4 ADD DUP2 ADD MLOAD DUP5 DUP4 ADD DUP3 ADD MSTORE ADD PUSH3 0x40F5 JUMP JUMPDEST SWAP1 PUSH3 0x41B2 PUSH3 0x419F PUSH3 0x418C PUSH3 0x4179 PUSH2 0x140 PUSH1 0x1 DUP1 PUSH1 0xA0 SHL SUB DUP1 DUP9 MLOAD AND DUP8 MSTORE DUP1 PUSH1 0x20 DUP10 ADD MLOAD AND PUSH1 0x20 DUP9 ADD MSTORE PUSH1 0x40 DUP9 ADD MLOAD AND PUSH1 0x40 DUP8 ADD MSTORE PUSH1 0x60 DUP8 ADD MLOAD SWAP1 DUP1 PUSH1 0x60 DUP9 ADD MSTORE DUP7 ADD SWAP1 PUSH3 0x40EA JUMP JUMPDEST PUSH1 0x80 DUP7 ADD MLOAD DUP6 DUP3 SUB PUSH1 0x80 DUP8 ADD MSTORE PUSH3 0x40EA JUMP JUMPDEST PUSH1 0xA0 DUP6 ADD MLOAD DUP5 DUP3 SUB PUSH1 0xA0 DUP7 ADD MSTORE PUSH3 0x40EA JUMP JUMPDEST PUSH1 0xC0 DUP5 ADD MLOAD DUP4 DUP3 SUB PUSH1 0xC0 DUP6 ADD MSTORE PUSH3 0x40EA JUMP JUMPDEST SWAP2 PUSH1 0xE0 DUP2 ADD MLOAD PUSH1 0xE0 DUP4 ADD MSTORE PUSH2 0x100 DUP1 DUP3 ADD MLOAD SWAP1 DUP4 ADD MSTORE PUSH2 0x120 DUP1 SWAP2 ADD MLOAD SWAP2 ADD MSTORE SWAP1 JUMP JUMPDEST ISZERO PUSH3 0x41DD JUMPI JUMP JUMPDEST PUSH1 0x40 MLOAD PUSH3 0x461BCD PUSH1 0xE5 SHL DUP2 MSTORE PUSH1 0x20 PUSH1 0x4 DUP3 ADD MSTORE PUSH1 0x13 PUSH1 0x24 DUP3 ADD MSTORE PUSH19 0xD8C2EADCC6D040CCCACA40DAD2E6DAC2E8C6D PUSH1 0x6B SHL PUSH1 0x44 DUP3 ADD MSTORE PUSH1 0x64 SWAP1 REVERT JUMPDEST PUSH2 0x140 DUP2 ADD SWAP1 DUP2 LT PUSH1 0x1 PUSH1 0x1 PUSH1 0x40 SHL SUB DUP3 GT OR PUSH3 0x101B JUMPI PUSH1 0x40 MSTORE JUMP JUMPDEST PUSH1 0x1 PUSH1 0x1 PUSH1 0x40 SHL SUB DUP2 GT PUSH3 0x101B JUMPI PUSH1 0x40 MSTORE JUMP JUMPDEST SWAP1 PUSH1 0x1F DUP1 NOT SWAP2 ADD AND DUP2 ADD SWAP1 DUP2 LT PUSH1 0x1 PUSH1 0x1 PUSH1 0x40 SHL SUB DUP3 GT OR PUSH3 0x101B JUMPI PUSH1 0x40 MSTORE JUMP JUMPDEST PUSH1 0x40 MLOAD SWAP1 PUSH3 0x427A DUP3 PUSH3 0x4218 JUMP JUMPDEST DUP2 PUSH2 0x120 PUSH1 0x0 SWAP2 DUP3 DUP2 MSTORE DUP3 PUSH1 0x20 DUP3 ADD MSTORE DUP3 PUSH1 0x40 DUP3 ADD MSTORE PUSH1 0x60 DUP1 DUP3 ADD MSTORE PUSH1 0x60 PUSH1 0x80 DUP3 ADD MSTORE PUSH1 0x60 PUSH1 0xA0 DUP3 ADD MSTORE PUSH1 0x60 PUSH1 0xC0 DUP3 ADD MSTORE DUP3 PUSH1 0xE0 DUP3 ADD MSTORE DUP3 PUSH2 0x100 DUP3 ADD MSTORE ADD MSTORE JUMP JUMPDEST PUSH1 0xA SLOAD DUP2 LT ISZERO PUSH3 0x42F7 JUMPI PUSH1 0xA SWAP1 DUP2 PUSH1 0x0 MSTORE MUL PUSH32 0xC65A7BB8D6351C1CF70C95A316CC6A92839C986682D98BC35F958F4883F9D2A8 ADD SWAP1 PUSH1 0x0 SWAP1 JUMP JUMPDEST PUSH4 0x4E487B71 PUSH1 0xE0 SHL PUSH1 0x0 MSTORE PUSH1 0x32 PUSH1 0x4 MSTORE PUSH1 0x24 PUSH1 0x0 REVERT JUMPDEST SWAP1 PUSH1 0x1 DUP3 DUP2 SHR SWAP3 AND DUP1 ISZERO PUSH3 0x433F JUMPI JUMPDEST PUSH1 0x20 DUP4 LT EQ PUSH3 0x4329 JUMPI JUMP JUMPDEST PUSH4 0x4E487B71 PUSH1 0xE0 SHL PUSH1 0x0 MSTORE PUSH1 0x22 PUSH1 0x4 MSTORE PUSH1 0x24 PUSH1 0x0 REVERT JUMPDEST SWAP2 PUSH1 0x7F AND SWAP2 PUSH3 0x431D JUMP JUMPDEST SWAP1 PUSH1 0x40 MLOAD SWAP2 DUP3 PUSH1 0x0 DUP3 SLOAD PUSH3 0x435F DUP2 PUSH3 0x430D JUMP JUMPDEST SWAP1 DUP2 DUP5 MSTORE PUSH1 0x20 SWAP5 PUSH1 0x1 SWAP2 PUSH1 0x1 DUP2 AND SWAP1 DUP2 PUSH1 0x0 EQ PUSH3 0x43D7 JUMPI POP PUSH1 0x1 EQ PUSH3 0x4394 JUMPI JUMPDEST POP POP POP PUSH3 0x4392 SWAP3 POP SUB DUP4 PUSH3 0x4249 JUMP JUMPDEST JUMP JUMPDEST PUSH1 0x0 SWAP1 DUP2 MSTORE DUP6 DUP2 KECCAK256 SWAP6 SWAP4 POP SWAP2 SWAP1 JUMPDEST DUP2 DUP4 LT PUSH3 0x43BE JUMPI POP POP PUSH3 0x4392 SWAP4 POP DUP3 ADD ADD CODESIZE DUP1 DUP1 PUSH3 0x4381 JUMP JUMPDEST DUP6 SLOAD DUP9 DUP5 ADD DUP6 ADD MSTORE SWAP5 DUP6 ADD SWAP5 DUP8 SWAP5 POP SWAP2 DUP4 ADD SWAP2 PUSH3 0x43A2 JUMP JUMPDEST SWAP3 POP POP POP PUSH3 0x4392 SWAP5 SWAP3 POP PUSH1 0xFF NOT AND DUP3 DUP5 ADD MSTORE ISZERO ISZERO PUSH1 0x5 SHL DUP3 ADD ADD CODESIZE DUP1 DUP1 PUSH3 0x4381 JUMP JUMPDEST SWAP1 PUSH1 0x40 MLOAD PUSH3 0x440A DUP2 PUSH3 0x4218 JUMP JUMPDEST PUSH2 0x120 PUSH1 0x9 DUP3 SWAP5 PUSH1 0x1 DUP1 PUSH1 0xA0 SHL SUB DUP1 DUP3 SLOAD AND DUP6 MSTORE DUP1 PUSH1 0x1 DUP4 ADD SLOAD AND PUSH1 0x20 DUP7 ADD MSTORE PUSH1 0x2 DUP3 ADD SLOAD AND PUSH1 0x40 DUP6 ADD MSTORE PUSH3 0x4443 PUSH1 0x3 DUP3 ADD PUSH3 0x434A JUMP JUMPDEST PUSH1 0x60 DUP6 ADD MSTORE PUSH3 0x4456 PUSH1 0x4 DUP3 ADD PUSH3 0x434A JUMP JUMPDEST PUSH1 0x80 DUP6 ADD MSTORE PUSH3 0x4469 PUSH1 0x5 DUP3 ADD PUSH3 0x434A JUMP JUMPDEST PUSH1 0xA0 DUP6 ADD MSTORE PUSH3 0x447C PUSH1 0x6 DUP3 ADD PUSH3 0x434A JUMP JUMPDEST PUSH1 0xC0 DUP6 ADD MSTORE PUSH1 0x7 DUP2 ADD SLOAD PUSH1 0xE0 DUP6 ADD MSTORE PUSH1 0x8 DUP2 ADD SLOAD PUSH2 0x100 DUP6 ADD MSTORE ADD SLOAD SWAP2 ADD MSTORE JUMP JUMPDEST ISZERO PUSH3 0x44A5 JUMPI JUMP JUMPDEST PUSH1 0x40 MLOAD PUSH3 0x461BCD PUSH1 0xE5 SHL DUP2 MSTORE PUSH1 0x20 PUSH1 0x4 DUP3 ADD MSTORE PUSH1 0x12 PUSH1 0x24 DUP3 ADD MSTORE PUSH18 0x19195E081C9BDD5D195C881B9BDD081CD95D PUSH1 0x72 SHL PUSH1 0x44 DUP3 ADD MSTORE PUSH1 0x64 SWAP1 REVERT JUMPDEST ISZERO PUSH3 0x44E7 JUMPI JUMP JUMPDEST PUSH1 0x40 MLOAD PUSH3 0x461BCD PUSH1 0xE5 SHL DUP2 MSTORE PUSH1 0x20 PUSH1 0x4 DUP3 ADD MSTORE PUSH1 0x14 PUSH1 0x24 DUP3 ADD MSTORE PUSH20 0x1B1C081C9958DA5C1A595B9D081B9BDD081CD95D PUSH1 0x62 SHL PUSH1 0x44 DUP3 ADD MSTORE PUSH1 0x64 SWAP1 REVERT JUMPDEST ISZERO PUSH3 0x452B JUMPI JUMP JUMPDEST PUSH1 0x40 MLOAD PUSH3 0x461BCD PUSH1 0xE5 SHL DUP2 MSTORE PUSH1 0x20 PUSH1 0x4 DUP3 ADD MSTORE PUSH1 0x22 PUSH1 0x24 DUP3 ADD MSTORE PUSH32 0x696E73756666696369656E742065746820666F72206665652B6C697175696469 PUSH1 0x44 DUP3 ADD MSTORE PUSH2 0x7479 PUSH1 0xF0 SHL PUSH1 0x64 DUP3 ADD MSTORE PUSH1 0x84 SWAP1 REVERT JUMPDEST SWAP2 SWAP1 DUP3 SUB SWAP2 DUP3 GT PUSH3 0x1005 JUMPI JUMP JUMPDEST PUSH1 0x1 PUSH1 0x1 PUSH1 0x40 SHL SUB DUP2 GT PUSH3 0x101B JUMPI PUSH1 0x5 SHL PUSH1 0x20 ADD SWAP1 JUMP JUMPDEST DUP1 MLOAD DUP3 LT ISZERO PUSH3 0x42F7 JUMPI PUSH1 0x20 SWAP2 PUSH1 0x5 SHL ADD ADD SWAP1 JUMP JUMPDEST PUSH1 0xA SLOAD SWAP3 SWAP2 DUP4 DUP3 LT ISZERO PUSH3 0x4695 JUMPI DUP2 ADD SWAP3 DUP4 DUP3 GT PUSH3 0x1005 JUMPI DUP1 DUP5 GT PUSH3 0x468C JUMPI JUMPDEST POP PUSH3 0x45E5 DUP2 DUP5 PUSH3 0x457B JUMP JUMPDEST SWAP3 PUSH3 0x45F1 DUP5 PUSH3 0x4589 JUMP JUMPDEST SWAP4 PUSH3 0x4601 PUSH1 0x40 MLOAD SWAP6 DUP7 PUSH3 0x4249 JUMP JUMPDEST DUP1 DUP6 MSTORE PUSH3 0x4612 PUSH1 0x1F NOT SWAP2 PUSH3 0x4589 JUMP JUMPDEST ADD PUSH1 0x0 JUMPDEST DUP2 DUP2 LT PUSH3 0x4672 JUMPI POP POP DUP4 PUSH1 0x0 JUMPDEST DUP3 DUP5 LT PUSH3 0x4632 JUMPI POP POP POP POP JUMP JUMPDEST PUSH3 0x4641 PUSH3 0x2426 DUP6 PUSH3 0x42BC JUMP JUMPDEST PUSH3 0x464D DUP3 DUP5 PUSH3 0x45A1 JUMP JUMPDEST MSTORE PUSH3 0x465A DUP2 DUP4 PUSH3 0x45A1 JUMP JUMPDEST POP PUSH1 0x0 NOT DUP2 EQ PUSH3 0x1005 JUMPI PUSH1 0x1 SWAP4 DUP5 ADD SWAP4 ADD PUSH3 0x4624 JUMP JUMPDEST PUSH1 0x20 SWAP1 PUSH3 0x467F PUSH3 0x426B JUMP JUMPDEST DUP3 DUP3 DUP10 ADD ADD MSTORE ADD PUSH3 0x4616 JUMP JUMPDEST SWAP3 POP CODESIZE PUSH3 0x45D8 JUMP JUMPDEST POP POP SWAP1 POP PUSH1 0x40 MLOAD PUSH1 0x20 DUP2 ADD DUP2 DUP2 LT PUSH1 0x1 PUSH1 0x1 PUSH1 0x40 SHL SUB DUP3 GT OR PUSH3 0x101B JUMPI PUSH1 0x40 MSTORE PUSH1 0x0 DUP2 MSTORE SWAP1 JUMP JUMPDEST ISZERO PUSH3 0x46C5 JUMPI JUMP JUMPDEST PUSH1 0x40 MLOAD PUSH3 0x461BCD PUSH1 0xE5 SHL DUP2 MSTORE PUSH1 0x20 PUSH1 0x4 DUP3 ADD MSTORE PUSH1 0xA PUSH1 0x24 DUP3 ADD MSTORE PUSH10 0x37B7363C9037BBB732B9 PUSH1 0xB1 SHL PUSH1 0x44 DUP3 ADD MSTORE PUSH1 0x64 SWAP1 REVERT JUMPDEST PUSH1 0x4 SLOAD DUP1 CALLVALUE LT PUSH3 0x47F8 JUMPI DUP1 ISZERO PUSH3 0x47F5 JUMPI PUSH1 0x0 DUP1 DUP1 DUP1 DUP1 PUSH1 0x1 DUP1 PUSH1 0xA0 SHL SUB SWAP6 DUP7 PUSH1 0x2 SLOAD AND GAS CALL SWAP1 RETURNDATASIZE ISZERO PUSH3 0x47EE JUMPI RETURNDATASIZE SWAP1 PUSH1 0x1 PUSH1 0x1 PUSH1 0x40 SHL SUB DUP3 GT PUSH3 0x47DA JUMPI PUSH1 0x40 MLOAD SWAP2 PUSH3 0x4751 PUSH1 0x1F DUP3 ADD PUSH1 0x1F NOT AND PUSH1 0x20 ADD DUP5 PUSH3 0x4249 JUMP JUMPDEST DUP3 MSTORE PUSH1 0x20 RETURNDATASIZE SWAP3 ADD RETURNDATACOPY JUMPDEST ISZERO PUSH3 0x4795 JUMPI PUSH1 0x2 SLOAD AND PUSH1 0x4 SLOAD PUSH1 0x40 MLOAD SWAP1 DUP2 MSTORE PUSH32 0x4CEF2D27CDF43D743C3C66401182E93989938E77D1BE10F3AB9E6AFDF799F839 PUSH1 0x20 CALLER SWAP3 LOG3 JUMP JUMPDEST PUSH1 0x40 MLOAD PUSH3 0x461BCD PUSH1 0xE5 SHL DUP2 MSTORE PUSH1 0x20 PUSH1 0x4 DUP3 ADD MSTORE PUSH1 0x1A PUSH1 0x24 DUP3 ADD MSTORE PUSH32 0x6C61756E636820666565207472616E73666572206661696C6564000000000000 PUSH1 0x44 DUP3 ADD MSTORE PUSH1 0x64 SWAP1 REVERT JUMPDEST PUSH4 0x4E487B71 PUSH1 0xE0 SHL DUP2 MSTORE PUSH1 0x41 PUSH1 0x4 MSTORE PUSH1 0x24 SWAP1 REVERT JUMPDEST POP PUSH3 0x475A JUMP JUMPDEST POP JUMP JUMPDEST PUSH1 0x40 MLOAD PUSH3 0x461BCD PUSH1 0xE5 SHL DUP2 MSTORE PUSH1 0x20 PUSH1 0x4 DUP3 ADD MSTORE PUSH1 0x17 PUSH1 0x24 DUP3 ADD MSTORE PUSH32 0x696E73756666696369656E74206C61756E636820666565000000000000000000 PUSH1 0x44 DUP3 ADD MSTORE PUSH1 0x64 SWAP1 REVERT JUMPDEST SWAP1 DUP1 PUSH1 0x20 SWAP4 SWAP3 DUP2 DUP5 MSTORE DUP5 DUP5 ADD CALLDATACOPY PUSH1 0x0 DUP3 DUP3 ADD DUP5 ADD MSTORE PUSH1 0x1F ADD PUSH1 0x1F NOT AND ADD ADD SWAP1 JUMP JUMPDEST SWAP1 DUP2 PUSH1 0x20 SWAP2 SUB SLT PUSH3 0x16C JUMPI MLOAD DUP1 ISZERO ISZERO DUP2 SUB PUSH3 0x16C JUMPI SWAP1 JUMP JUMPDEST PUSH1 0x8 SLOAD PUSH1 0x1 PUSH1 0x1 PUSH1 0xA0 SHL SUB SWAP2 SWAP1 DUP3 AND ISZERO PUSH3 0x48B2 JUMPI PUSH2 0x1237 CHAINID EQ PUSH3 0x48AA JUMPI PUSH3 0x48A3 JUMPI POP PUSH2 0xDEAD SWAP1 JUMP JUMPDEST PUSH1 0x9 SLOAD AND SWAP1 JUMP JUMPDEST POP POP PUSH2 0xDEAD SWAP1 JUMP JUMPDEST POP PUSH1 0x9 SLOAD AND SWAP1 JUMP INVALID PUSH1 0x1F PUSH3 0x1E5E CODESIZE DUP2 SWAP1 SUB SWAP2 DUP3 ADD PUSH1 0x1F NOT AND PUSH2 0x100 SWAP1 DUP2 ADD SWAP3 SWAP1 SWAP2 PUSH1 0x1 PUSH1 0x1 PUSH1 0x40 SHL SUB DUP5 GT DUP4 DUP6 LT OR PUSH3 0x3B2 JUMPI DUP2 PUSH2 0x120 SWAP3 DUP5 SWAP3 PUSH1 0x40 SWAP7 DUP8 MSTORE DUP4 CODECOPY DUP2 ADD SUB SLT PUSH3 0x3AD JUMPI PUSH3 0x4E DUP2 PUSH3 0x3C8 JUMP JUMPDEST PUSH1 0x20 SWAP1 PUSH3 0x5E DUP3 DUP5 ADD PUSH3 0x3C8 JUMP JUMPDEST SWAP2 PUSH3 0x6C DUP6 DUP6 ADD PUSH3 0x3C8 JUMP JUMPDEST SWAP3 PUSH1 0x60 DUP6 ADD MLOAD PUSH1 0x80 DUP7 ADD MLOAD PUSH1 0xA0 DUP8 ADD MLOAD SWAP2 PUSH1 0xC0 DUP9 ADD MLOAD SWAP4 PUSH3 0xA0 PUSH2 0x100 PUSH3 0x98 PUSH1 0xE0 DUP13 ADD PUSH3 0x3C8 JUMP JUMPDEST SWAP11 ADD PUSH3 0x3C8 JUMP JUMPDEST PUSH1 0x1 PUSH1 0x1 PUSH1 0xA0 SHL SUB SWAP9 SWAP1 SWAP8 SWAP1 DUP10 DUP3 AND ISZERO PUSH3 0x378 JUMPI DUP10 DUP4 AND ISZERO PUSH3 0x341 JUMPI DUP10 AND SWAP10 DUP11 ISZERO PUSH3 0x2FD JUMPI PUSH2 0x12C DUP5 GT PUSH3 0x2CA JUMPI DUP5 ISZERO PUSH3 0x286 JUMPI DUP6 ISZERO PUSH3 0x242 JUMPI DUP7 ISZERO PUSH3 0x20C JUMPI DUP10 AND SWAP7 DUP8 PUSH3 0x1C1 JUMPI JUMPDEST POP PUSH1 0xA0 MSTORE PUSH1 0x80 MSTORE PUSH1 0x1 DUP1 PUSH1 0xA0 SHL SUB NOT SWAP8 DUP9 PUSH1 0x0 SLOAD AND OR PUSH1 0x0 SSTORE PUSH1 0x1 SSTORE PUSH1 0xC0 MSTORE PUSH1 0xE0 MSTORE PUSH1 0x4 SSTORE DUP4 PUSH1 0x5 SLOAD AND OR PUSH1 0x5 SSTORE AND SWAP1 PUSH1 0x6 SLOAD AND OR PUSH1 0x6 SSTORE CALLVALUE PUSH1 0x2 SSTORE MLOAD PUSH2 0x1A80 SWAP1 DUP2 PUSH3 0x3DE DUP3 CODECOPY PUSH1 0x80 MLOAD DUP2 DUP2 DUP2 PUSH2 0x723 ADD MSTORE DUP2 DUP2 PUSH2 0x7A5 ADD MSTORE DUP2 DUP2 PUSH2 0x968 ADD MSTORE DUP2 DUP2 PUSH2 0xCBC ADD MSTORE PUSH2 0xDD4 ADD MSTORE PUSH1 0xA0 MLOAD DUP2 DUP2 DUP2 PUSH2 0x161 ADD MSTORE DUP2 DUP2 PUSH2 0x2F8 ADD MSTORE DUP2 DUP2 PUSH2 0x545 ADD MSTORE DUP2 DUP2 PUSH2 0x802 ADD MSTORE PUSH2 0x148A ADD MSTORE PUSH1 0xC0 MLOAD DUP2 DUP2 DUP2 PUSH2 0xAC4 ADD MSTORE DUP2 DUP2 PUSH2 0x1104 ADD MSTORE DUP2 DUP2 PUSH2 0x1931 ADD MSTORE PUSH2 0x19C7 ADD MSTORE PUSH1 0xE0 MLOAD DUP2 DUP2 DUP2 PUSH2 0xC43 ADD MSTORE DUP2 DUP2 PUSH2 0x10D1 ADD MSTORE DUP2 DUP2 PUSH2 0x1966 ADD MSTORE PUSH2 0x19F8 ADD MSTORE RETURN JUMPDEST DUP10 DUP10 AND PUSH3 0xF1 JUMPI PUSH1 0x64 SWAP1 DUP13 MLOAD SWAP1 PUSH3 0x461BCD PUSH1 0xE5 SHL DUP3 MSTORE PUSH1 0x4 DUP3 ADD MSTORE PUSH1 0x15 PUSH1 0x24 DUP3 ADD MSTORE PUSH32 0x6C7020726563697069656E742072657175697265640000000000000000000000 PUSH1 0x44 DUP3 ADD MSTORE REVERT JUMPDEST DUP12 MLOAD PUSH3 0x461BCD PUSH1 0xE5 SHL DUP2 MSTORE PUSH1 0x4 DUP2 ADD DUP10 SWAP1 MSTORE PUSH1 0xF PUSH1 0x24 DUP3 ADD MSTORE PUSH15 0x1D185C99D95D081C995C5D5A5C9959 PUSH1 0x8A SHL PUSH1 0x44 DUP3 ADD MSTORE PUSH1 0x64 SWAP1 REVERT JUMPDEST DUP12 MLOAD PUSH3 0x461BCD PUSH1 0xE5 SHL DUP2 MSTORE PUSH1 0x4 DUP2 ADD DUP10 SWAP1 MSTORE PUSH1 0x16 PUSH1 0x24 DUP3 ADD MSTORE PUSH32 0x7669727475616C20746F6B656E20726571756972656400000000000000000000 PUSH1 0x44 DUP3 ADD MSTORE PUSH1 0x64 SWAP1 REVERT JUMPDEST DUP12 MLOAD PUSH3 0x461BCD PUSH1 0xE5 SHL DUP2 MSTORE PUSH1 0x4 DUP2 ADD DUP10 SWAP1 MSTORE PUSH1 0x14 PUSH1 0x24 DUP3 ADD MSTORE PUSH32 0x7669727475616C20657468207265717569726564000000000000000000000000 PUSH1 0x44 DUP3 ADD MSTORE PUSH1 0x64 SWAP1 REVERT JUMPDEST DUP12 MLOAD PUSH3 0x461BCD PUSH1 0xE5 SHL DUP2 MSTORE PUSH1 0x4 DUP2 ADD DUP10 SWAP1 MSTORE PUSH1 0xC PUSH1 0x24 DUP3 ADD MSTORE PUSH12 0xCCCACA40E8DEDE40D0D2CED PUSH1 0xA3 SHL PUSH1 0x44 DUP3 ADD MSTORE PUSH1 0x64 SWAP1 REVERT JUMPDEST DUP12 MLOAD PUSH3 0x461BCD PUSH1 0xE5 SHL DUP2 MSTORE PUSH1 0x4 DUP2 ADD DUP10 SWAP1 MSTORE PUSH1 0x16 PUSH1 0x24 DUP3 ADD MSTORE PUSH32 0x66656520726563697069656E7420726571756972656400000000000000000000 PUSH1 0x44 DUP3 ADD MSTORE PUSH1 0x64 SWAP1 REVERT JUMPDEST DUP12 MLOAD PUSH3 0x461BCD PUSH1 0xE5 SHL DUP2 MSTORE PUSH1 0x4 DUP2 ADD DUP10 SWAP1 MSTORE PUSH1 0x10 PUSH1 0x24 DUP3 ADD MSTORE PUSH16 0x199858DD1BDC9E481C995C5D5A5C9959 PUSH1 0x82 SHL PUSH1 0x44 DUP3 ADD MSTORE PUSH1 0x64 SWAP1 REVERT JUMPDEST DUP12 MLOAD PUSH3 0x461BCD PUSH1 0xE5 SHL DUP2 MSTORE PUSH1 0x4 DUP2 ADD DUP10 SWAP1 MSTORE PUSH1 0xE PUSH1 0x24 DUP3 ADD MSTORE PUSH14 0x1D1BDAD95B881C995C5D5A5C9959 PUSH1 0x92 SHL PUSH1 0x44 DUP3 ADD MSTORE PUSH1 0x64 SWAP1 REVERT JUMPDEST PUSH1 0x0 DUP1 REVERT JUMPDEST PUSH4 0x4E487B71 PUSH1 0xE0 SHL PUSH1 0x0 MSTORE PUSH1 0x41 PUSH1 0x4 MSTORE PUSH1 0x24 PUSH1 0x0 REVERT JUMPDEST MLOAD SWAP1 PUSH1 0x1 PUSH1 0x1 PUSH1 0xA0 SHL SUB DUP3 AND DUP3 SUB PUSH3 0x3AD JUMPI JUMP INVALID PUSH1 0x80 PUSH1 0x40 DUP2 DUP2 MSTORE PUSH1 0x4 SWAP2 DUP3 CALLDATASIZE LT ISZERO PUSH2 0x16 JUMPI PUSH1 0x0 DUP1 REVERT JUMPDEST PUSH1 0x0 SWAP3 DUP4 CALLDATALOAD PUSH1 0xE0 SHR SWAP2 DUP3 PUSH4 0x758D924 EQ PUSH2 0xF00 JUMPI POP DUP2 PUSH4 0x1AD15BBC EQ PUSH2 0xED7 JUMPI DUP2 PUSH4 0x24A9D853 EQ PUSH2 0xEB8 JUMPI DUP2 PUSH4 0x25217724 EQ PUSH2 0xDBC JUMPI DUP2 PUSH4 0x2760ECA1 EQ PUSH2 0xD9F JUMPI DUP2 PUSH4 0x2A2C6972 EQ PUSH2 0xC8D JUMPI DUP2 PUSH4 0x334041A6 EQ PUSH2 0xC66 JUMPI DUP2 PUSH4 0x343EE3B7 EQ PUSH2 0xC2B JUMPI DUP2 PUSH4 0x398482D8 EQ PUSH2 0xC07 JUMPI DUP2 PUSH4 0x4329742D EQ PUSH2 0xB57 JUMPI DUP2 PUSH4 0x452E68DD EQ PUSH2 0xB2E JUMPI DUP2 PUSH4 0x46904840 EQ PUSH2 0xB06 JUMPI DUP2 PUSH4 0x4BEB394C EQ PUSH2 0xAE7 JUMPI DUP2 PUSH4 0x52B86D2B EQ PUSH2 0xAAC JUMPI DUP2 PUSH4 0x7F544E49 EQ PUSH2 0xA8D JUMPI DUP2 PUSH4 0x8C575AA3 EQ PUSH2 0x92B JUMPI DUP2 PUSH4 0x95564837 EQ PUSH2 0x77D JUMPI DUP2 PUSH4 0xA64190C4 EQ PUSH2 0x752 JUMPI DUP2 PUSH4 0xC45A0155 EQ PUSH2 0x70E JUMPI DUP2 PUSH4 0xCBCB3171 EQ PUSH2 0x6EF JUMPI DUP2 PUSH4 0xD62CCB3F EQ PUSH2 0x6D0 JUMPI DUP2 PUSH4 0xD79875EB EQ PUSH2 0x463 JUMPI DUP2 PUSH4 0xD96A094A EQ PUSH2 0x1FA JUMPI DUP2 PUSH4 0xE1A45218 EQ PUSH2 0x1DD JUMPI DUP2 PUSH4 0xE7C2B772 EQ PUSH2 0x1B6 JUMPI DUP2 PUSH4 0xF95A02D0 EQ PUSH2 0x194 JUMPI POP PUSH4 0xFC0C546A EQ PUSH2 0x14E JUMPI PUSH1 0x0 DUP1 REVERT JUMPDEST CALLVALUE PUSH2 0x190 JUMPI DUP2 PUSH1 0x3 NOT CALLDATASIZE ADD SLT PUSH2 0x190 JUMPI MLOAD PUSH32 0x0 PUSH1 0x1 PUSH1 0x1 PUSH1 0xA0 SHL SUB AND DUP2 MSTORE PUSH1 0x20 SWAP1 RETURN JUMPDEST POP DUP1 REVERT JUMPDEST SWAP1 POP CALLVALUE PUSH2 0x1B2 JUMPI DUP3 PUSH1 0x3 NOT CALLDATASIZE ADD SLT PUSH2 0x1B2 JUMPI PUSH1 0x20 SWAP3 POP SLOAD SWAP1 MLOAD SWAP1 DUP2 MSTORE RETURN JUMPDEST DUP3 DUP1 REVERT JUMPDEST POP POP CALLVALUE PUSH2 0x190 JUMPI DUP2 PUSH1 0x3 NOT CALLDATASIZE ADD SLT PUSH2 0x190 JUMPI PUSH1 0x20 SWAP1 PUSH1 0xFF PUSH1 0x6 SLOAD PUSH1 0xA8 SHR AND SWAP1 MLOAD SWAP1 ISZERO ISZERO DUP2 MSTORE RETURN JUMPDEST POP POP CALLVALUE PUSH2 0x190 JUMPI DUP2 PUSH1 0x3 NOT CALLDATASIZE ADD SLT PUSH2 0x190 JUMPI PUSH1 0x20 SWAP1 MLOAD PUSH2 0x2710 DUP2 MSTORE RETURN JUMPDEST SWAP2 SWAP1 POP PUSH1 0x20 SWAP3 DUP4 PUSH1 0x3 NOT CALLDATASIZE ADD SLT PUSH2 0x460 JUMPI PUSH1 0x6 SLOAD SWAP1 PUSH2 0x21F PUSH1 0xFF DUP4 PUSH1 0xB0 SHR AND ISZERO PUSH2 0xF7B JUMP JUMPDEST PUSH1 0xFF PUSH1 0xB0 SHL NOT SWAP2 DUP3 AND PUSH1 0x1 PUSH1 0xB0 SHL OR PUSH1 0x6 DUP2 SWAP1 SSTORE PUSH2 0x253 SWAP1 PUSH1 0xFF SWAP1 PUSH2 0x249 PUSH1 0xA0 DUP3 SWAP1 SHR DUP4 AND PUSH2 0xFB4 JUMP JUMPDEST PUSH1 0xA8 SHR AND ISZERO PUSH2 0x129A JUMP JUMPDEST CALLVALUE ISZERO PUSH2 0x42E JUMPI PUSH2 0x2710 PUSH2 0x268 PUSH1 0x1 SLOAD CALLVALUE PUSH2 0x1032 JUMP JUMPDEST DIV SWAP1 PUSH2 0x274 DUP3 CALLVALUE PUSH2 0x1150 JUMP JUMPDEST SWAP5 PUSH2 0x27E DUP7 PUSH2 0x1923 JUMP JUMPDEST SWAP6 PUSH2 0x28A DUP8 ISZERO ISZERO PUSH2 0x12D2 JUMP JUMPDEST PUSH2 0x297 DUP3 CALLDATALOAD DUP9 LT ISZERO PUSH2 0x1314 JUMP JUMPDEST PUSH1 0x3 SLOAD SWAP1 DUP2 DUP9 GT PUSH2 0x3F2 JUMPI PUSH2 0x2F3 SWAP3 PUSH2 0x2C1 DUP10 DUP12 SWAP5 PUSH2 0x2B9 DUP3 SWAP6 PUSH1 0x2 SLOAD PUSH2 0x10BC JUMP JUMPDEST PUSH1 0x2 SSTORE PUSH2 0x1150 JUMP JUMPDEST PUSH1 0x3 SSTORE DUP6 PUSH2 0x3CB JUMPI JUMPDEST DUP8 MLOAD PUSH4 0xA9059CBB PUSH1 0xE0 SHL DUP2 MSTORE CALLER SWAP2 DUP2 ADD SWAP2 DUP3 MSTORE PUSH1 0x20 DUP3 ADD SWAP3 SWAP1 SWAP3 MSTORE SWAP1 SWAP3 DUP4 SWAP2 DUP3 SWAP2 PUSH1 0x40 SWAP1 SWAP2 ADD SWAP1 JUMP JUMPDEST SUB DUP2 DUP6 PUSH32 0x0 PUSH1 0x1 PUSH1 0x1 PUSH1 0xA0 SHL SUB AND GAS CALL SWAP2 DUP3 ISZERO PUSH2 0x3C0 JUMPI SWAP1 PUSH2 0x339 SWAP3 PUSH2 0x393 JUMPI JUMPDEST POP PUSH2 0x1363 JUMP JUMPDEST PUSH32 0xBEAE048C6D270D9469F86CF6E8FEDDA3C60AD770F16C24C9FC131C8E9A09101D DUP4 MLOAD DUP1 PUSH2 0x37B DUP8 CALLER SWAP6 CALLVALUE DUP5 PUSH1 0x40 SWAP2 SWAP5 SWAP4 SWAP3 PUSH1 0x60 DUP3 ADD SWAP6 DUP3 MSTORE PUSH1 0x20 DUP3 ADD MSTORE ADD MSTORE JUMP JUMPDEST SUB SWAP1 LOG2 PUSH2 0x386 PUSH2 0x1A28 JUMP JUMPDEST PUSH1 0x6 SLOAD AND PUSH1 0x6 SSTORE MLOAD SWAP1 DUP2 MSTORE RETURN JUMPDEST PUSH2 0x3B3 SWAP2 POP DUP8 RETURNDATASIZE DUP10 GT PUSH2 0x3B9 JUMPI JUMPDEST PUSH2 0x3AB DUP2 DUP4 PUSH2 0x1204 JUMP JUMPDEST DUP2 ADD SWAP1 PUSH2 0x134B JUMP JUMPDEST CODESIZE PUSH2 0x333 JUMP JUMPDEST POP RETURNDATASIZE PUSH2 0x3A1 JUMP JUMPDEST DUP6 MLOAD SWAP1 RETURNDATASIZE SWAP1 DUP3 RETURNDATACOPY RETURNDATASIZE SWAP1 REVERT JUMPDEST PUSH2 0x3ED DUP6 DUP1 DUP1 DUP1 DUP11 PUSH1 0x1 DUP1 PUSH1 0xA0 SHL SUB DUP3 SLOAD AND GAS CALL PUSH2 0x3E7 PUSH2 0x13A7 JUMP JUMPDEST POP PUSH2 0x13E7 JUMP JUMPDEST PUSH2 0x2CA JUMP JUMPDEST DUP7 MLOAD PUSH3 0x461BCD PUSH1 0xE5 SHL DUP2 MSTORE DUP1 DUP5 ADD DUP11 SWAP1 MSTORE PUSH1 0x16 PUSH1 0x24 DUP3 ADD MSTORE PUSH22 0x696E73756666696369656E74206C6971756964697479 PUSH1 0x50 SHL PUSH1 0x44 DUP3 ADD MSTORE PUSH1 0x64 SWAP1 REVERT JUMPDEST DUP3 MLOAD PUSH3 0x461BCD PUSH1 0xE5 SHL DUP2 MSTORE DUP1 DUP6 ADD DUP7 SWAP1 MSTORE PUSH1 0xC PUSH1 0x24 DUP3 ADD MSTORE PUSH12 0x195D1A081C995C5D5A5C9959 PUSH1 0xA2 SHL PUSH1 0x44 DUP3 ADD MSTORE PUSH1 0x64 SWAP1 REVERT JUMPDEST DUP1 REVERT JUMPDEST SWAP2 SWAP1 POP CALLVALUE PUSH2 0x1B2 JUMPI DUP1 PUSH1 0x3 NOT CALLDATASIZE ADD SLT PUSH2 0x1B2 JUMPI DUP2 CALLDATALOAD PUSH1 0x6 SLOAD SWAP1 PUSH2 0x48C PUSH1 0xFF DUP4 PUSH1 0xB0 SHR AND ISZERO PUSH2 0xF7B JUMP JUMPDEST PUSH1 0xFF PUSH1 0xB0 SHL NOT SWAP2 DUP3 AND PUSH1 0x1 PUSH1 0xB0 SHL OR PUSH1 0x6 DUP2 SWAP1 SSTORE PUSH2 0x4B6 SWAP1 PUSH1 0xFF SWAP1 PUSH2 0x249 PUSH1 0xA0 DUP3 SWAP1 SHR DUP4 AND PUSH2 0xFB4 JUMP JUMPDEST PUSH2 0x4C1 DUP2 ISZERO ISZERO PUSH2 0x11C0 JUMP JUMPDEST PUSH2 0x4CA DUP2 PUSH2 0x19BB JUMP JUMPDEST SWAP5 PUSH2 0x4D6 DUP7 ISZERO ISZERO PUSH2 0x12D2 JUMP JUMPDEST PUSH1 0x2 SLOAD DUP7 GT PUSH2 0x68D JUMPI PUSH2 0x2710 PUSH2 0x4EE PUSH1 0x1 SLOAD DUP9 PUSH2 0x1032 JUMP JUMPDEST DIV SWAP6 PUSH2 0x4FA DUP8 DUP3 PUSH2 0x1150 JUMP JUMPDEST SWAP6 PUSH2 0x509 PUSH1 0x24 CALLDATALOAD DUP9 LT ISZERO PUSH2 0x1314 JUMP JUMPDEST DUP6 MLOAD PUSH4 0x23B872DD PUSH1 0xE0 SHL DUP2 MSTORE CALLER DUP3 DUP3 ADD SWAP1 DUP2 MSTORE ADDRESS PUSH1 0x20 DUP3 DUP2 ADD SWAP2 SWAP1 SWAP2 MSTORE PUSH1 0x40 DUP3 ADD DUP8 SWAP1 MSTORE PUSH1 0x1 PUSH1 0x1 PUSH1 0xA0 SHL SUB SWAP5 SWAP3 SWAP2 DUP3 SWAP1 DUP2 SWAP1 PUSH1 0x60 ADD SUB DUP2 DUP9 DUP9 PUSH32 0x0 AND GAS CALL SWAP1 DUP2 ISZERO PUSH2 0x683 JUMPI PUSH2 0x59A SWAP3 SWAP2 PUSH2 0x583 SWAP2 DUP8 SWAP2 PUSH2 0x66A JUMPI POP PUSH2 0x1363 JUMP JUMPDEST PUSH2 0x58F DUP7 PUSH1 0x3 SLOAD PUSH2 0x10BC JUMP JUMPDEST PUSH1 0x3 SSTORE PUSH1 0x2 SLOAD PUSH2 0x1150 JUMP JUMPDEST PUSH1 0x2 SSTORE DUP3 DUP1 DUP1 DUP1 DUP11 CALLER GAS CALL PUSH2 0x5AD PUSH2 0x13A7 JUMP JUMPDEST POP ISZERO PUSH2 0x631 JUMPI POP DUP7 DUP1 PUSH32 0x846C37EEF631E0943682D87352EC117C20008EB7F425C9B85AC011A6D4774CC0 SWAP4 PUSH2 0x604 SWAP4 PUSH1 0x20 SWAP11 PUSH2 0x614 JUMPI JUMPDEST POP POP DUP7 MLOAD SWAP5 DUP6 MSTORE POP PUSH1 0x20 DUP5 ADD DUP8 SWAP1 MSTORE PUSH1 0x40 DUP5 ADD MSTORE CALLER SWAP3 SWAP1 DUP2 SWAP1 PUSH1 0x60 DUP3 ADD SWAP1 JUMP JUMPDEST SUB SWAP1 LOG2 PUSH1 0x6 SLOAD AND PUSH1 0x6 SSTORE MLOAD SWAP1 DUP2 MSTORE RETURN JUMPDEST DUP2 DUP1 PUSH2 0x629 SWAP5 DUP2 SWAP4 DUP3 SLOAD AND GAS CALL PUSH2 0x3E7 PUSH2 0x13A7 JUMP JUMPDEST DUP1 CODESIZE DUP1 PUSH2 0x5E4 JUMP JUMPDEST PUSH1 0x64 SWAP1 PUSH1 0x20 DUP8 MLOAD SWAP2 PUSH3 0x461BCD PUSH1 0xE5 SHL DUP4 MSTORE DUP3 ADD MSTORE PUSH1 0x13 PUSH1 0x24 DUP3 ADD MSTORE PUSH19 0x195D1A081D1C985B9CD9995C8819985A5B1959 PUSH1 0x6A SHL PUSH1 0x44 DUP3 ADD MSTORE REVERT JUMPDEST PUSH2 0x3B3 SWAP2 POP PUSH1 0x20 RETURNDATASIZE PUSH1 0x20 GT PUSH2 0x3B9 JUMPI PUSH2 0x3AB DUP2 DUP4 PUSH2 0x1204 JUMP JUMPDEST DUP9 MLOAD RETURNDATASIZE DUP8 DUP3 RETURNDATACOPY RETURNDATASIZE SWAP1 REVERT JUMPDEST DUP4 MLOAD PUSH3 0x461BCD PUSH1 0xE5 SHL DUP2 MSTORE PUSH1 0x20 DUP2 DUP8 ADD MSTORE PUSH1 0x18 PUSH1 0x24 DUP3 ADD MSTORE PUSH32 0x696E73756666696369656E742065746820726573657276650000000000000000 PUSH1 0x44 DUP3 ADD MSTORE PUSH1 0x64 SWAP1 REVERT JUMPDEST POP POP CALLVALUE PUSH2 0x190 JUMPI DUP2 PUSH1 0x3 NOT CALLDATASIZE ADD SLT PUSH2 0x190 JUMPI PUSH1 0x20 SWAP1 PUSH1 0x2 SLOAD SWAP1 MLOAD SWAP1 DUP2 MSTORE RETURN JUMPDEST POP POP CALLVALUE PUSH2 0x190 JUMPI DUP2 PUSH1 0x3 NOT CALLDATASIZE ADD SLT PUSH2 0x190 JUMPI PUSH1 0x20 SWAP1 PUSH1 0x3 SLOAD SWAP1 MLOAD SWAP1 DUP2 MSTORE RETURN JUMPDEST POP POP CALLVALUE PUSH2 0x190 JUMPI DUP2 PUSH1 0x3 NOT CALLDATASIZE ADD SLT PUSH2 0x190 JUMPI MLOAD PUSH32 0x0 PUSH1 0x1 PUSH1 0x1 PUSH1 0xA0 SHL SUB AND DUP2 MSTORE PUSH1 0x20 SWAP1 RETURN JUMPDEST SWAP1 POP DUP3 CALLVALUE PUSH2 0x460 JUMPI PUSH1 0x20 CALLDATASIZE PUSH1 0x3 NOT ADD SLT PUSH2 0x460 JUMPI POP PUSH2 0x771 SWAP1 CALLDATALOAD PUSH2 0x123C JUMP JUMPDEST DUP3 MLOAD SWAP2 DUP3 MSTORE PUSH1 0x20 DUP3 ADD MSTORE RETURN JUMPDEST DUP4 SWAP2 POP CALLVALUE PUSH2 0x190 JUMPI PUSH1 0x20 SWAP1 DUP2 PUSH1 0x3 NOT CALLDATASIZE ADD SLT PUSH2 0x1B2 JUMPI DUP1 CALLDATALOAD SWAP1 PUSH1 0x1 PUSH1 0x1 PUSH1 0xA0 SHL SUB SWAP1 PUSH2 0x7CC CALLER PUSH32 0x0 DUP5 AND EQ PUSH2 0xF40 JUMP JUMPDEST PUSH1 0x6 SLOAD SWAP2 PUSH1 0xFF DUP4 PUSH1 0xA0 SHR AND PUSH2 0x8F7 JUMPI DUP5 PUSH1 0x24 SWAP2 PUSH2 0x7EA DUP7 ISZERO ISZERO PUSH2 0x11C0 JUMP JUMPDEST DUP9 MLOAD PUSH4 0x70A08231 PUSH1 0xE0 SHL DUP2 MSTORE ADDRESS DUP6 DUP3 ADD MSTORE SWAP3 DUP4 SWAP2 DUP3 SWAP1 PUSH32 0x0 AND GAS STATICCALL SWAP1 DUP2 ISZERO PUSH2 0x8ED JUMPI SWAP1 DUP5 SWAP2 DUP8 SWAP2 PUSH2 0x8B8 JUMPI JUMPDEST POP LT PUSH2 0x87F JUMPI POP PUSH1 0xFF PUSH1 0xA0 SHL NOT AND PUSH1 0x1 PUSH1 0xA0 SHL OR PUSH1 0x6 SSTORE PUSH1 0x3 DUP2 SWAP1 SSTORE SWAP3 MLOAD SWAP3 DUP4 MSTORE SWAP1 SWAP2 PUSH32 0xA71ED34FF06AF8D6865A8F541AAE52D72FA89F0E5EE15F01D48FA6C62C856914 SWAP2 SWAP1 LOG1 DUP1 RETURN JUMPDEST DUP6 MLOAD PUSH3 0x461BCD PUSH1 0xE5 SHL DUP2 MSTORE SWAP1 DUP2 ADD DUP5 SWAP1 MSTORE PUSH1 0x13 PUSH1 0x24 DUP3 ADD MSTORE PUSH19 0x696E73756666696369656E7420746F6B656E73 PUSH1 0x68 SHL PUSH1 0x44 DUP3 ADD MSTORE PUSH1 0x64 SWAP1 REVERT JUMPDEST DUP1 SWAP3 POP DUP7 DUP1 SWAP3 POP RETURNDATASIZE DUP4 GT PUSH2 0x8E6 JUMPI JUMPDEST PUSH2 0x8D1 DUP2 DUP4 PUSH2 0x1204 JUMP JUMPDEST DUP2 ADD SUB SLT PUSH2 0x8E2 JUMPI DUP4 SWAP1 MLOAD DUP9 PUSH2 0x835 JUMP JUMPDEST DUP6 DUP1 REVERT JUMPDEST POP RETURNDATASIZE PUSH2 0x8C7 JUMP JUMPDEST DUP8 MLOAD RETURNDATASIZE DUP9 DUP3 RETURNDATACOPY RETURNDATASIZE SWAP1 REVERT JUMPDEST DUP7 MLOAD PUSH3 0x461BCD PUSH1 0xE5 SHL DUP2 MSTORE DUP1 DUP4 ADD DUP7 SWAP1 MSTORE PUSH1 0xE PUSH1 0x24 DUP3 ADD MSTORE PUSH14 0x185B1C9958591E481CD959591959 PUSH1 0x92 SHL PUSH1 0x44 DUP3 ADD MSTORE PUSH1 0x64 SWAP1 REVERT JUMPDEST DUP4 SWAP2 POP CALLVALUE PUSH2 0x190 JUMPI PUSH1 0x60 CALLDATASIZE PUSH1 0x3 NOT ADD SLT PUSH2 0x190 JUMPI PUSH2 0x947 PUSH2 0xF25 JUMP JUMPDEST PUSH1 0x24 CALLDATALOAD SWAP2 PUSH1 0x1 PUSH1 0x1 PUSH1 0xA0 SHL SUB SWAP1 DUP2 DUP5 AND DUP1 DUP6 SUB PUSH2 0x8E2 JUMPI PUSH1 0x44 CALLDATALOAD SWAP3 PUSH2 0x98F DUP2 PUSH32 0x0 AND CALLER EQ PUSH2 0xF40 JUMP JUMPDEST PUSH1 0x6 SLOAD SWAP1 PUSH2 0x9A3 PUSH1 0xFF DUP4 PUSH1 0xA8 SHR AND ISZERO PUSH2 0xFF2 JUMP JUMPDEST DUP5 ISZERO PUSH2 0xA58 JUMPI DUP6 AND SWAP1 DUP2 PUSH2 0xA18 JUMPI JUMPDEST PUSH1 0x5 DUP1 SLOAD PUSH1 0x1 PUSH1 0x1 PUSH1 0xA0 SHL SUB NOT SWAP1 DUP2 AND SWAP4 SWAP1 SWAP4 OR SWAP1 SSTORE AND OR PUSH1 0x6 SSTORE DUP2 SWAP1 SSTORE SWAP4 MLOAD PUSH1 0x1 PUSH1 0x1 PUSH1 0xA0 SHL SUB SWAP2 DUP3 AND DUP2 MSTORE SWAP2 AND PUSH1 0x20 DUP3 ADD MSTORE PUSH1 0x40 DUP2 ADD SWAP3 SWAP1 SWAP3 MSTORE SWAP1 PUSH32 0xBCDC4BFF84F936019028A7BCBEF6B449550D6334606377B822720E57E94276C4 SWAP1 PUSH1 0x60 SWAP1 LOG1 DUP1 RETURN JUMPDEST DUP3 PUSH2 0x9B2 JUMPI DUP9 MLOAD PUSH3 0x461BCD PUSH1 0xE5 SHL DUP2 MSTORE PUSH1 0x20 DUP2 DUP7 ADD MSTORE PUSH1 0x15 PUSH1 0x24 DUP3 ADD MSTORE PUSH21 0x1B1C081C9958DA5C1A595B9D081C995C5D5A5C9959 PUSH1 0x5A SHL PUSH1 0x44 DUP3 ADD MSTORE PUSH1 0x64 SWAP1 REVERT JUMPDEST DUP9 MLOAD PUSH3 0x461BCD PUSH1 0xE5 SHL DUP2 MSTORE PUSH1 0x20 DUP2 DUP7 ADD MSTORE PUSH1 0xF PUSH1 0x24 DUP3 ADD MSTORE PUSH15 0x1D185C99D95D081C995C5D5A5C9959 PUSH1 0x8A SHL PUSH1 0x44 DUP3 ADD MSTORE PUSH1 0x64 SWAP1 REVERT JUMPDEST POP POP CALLVALUE PUSH2 0x190 JUMPI DUP2 PUSH1 0x3 NOT CALLDATASIZE ADD SLT PUSH2 0x190 JUMPI PUSH1 0x20 SWAP1 PUSH1 0x8 SLOAD SWAP1 MLOAD SWAP1 DUP2 MSTORE RETURN JUMPDEST POP POP CALLVALUE PUSH2 0x190 JUMPI DUP2 PUSH1 0x3 NOT CALLDATASIZE ADD SLT PUSH2 0x190 JUMPI PUSH1 0x20 SWAP1 MLOAD PUSH32 0x0 DUP2 MSTORE RETURN JUMPDEST SWAP1 POP DUP3 CALLVALUE PUSH2 0x460 JUMPI PUSH1 0x20 CALLDATASIZE PUSH1 0x3 NOT ADD SLT PUSH2 0x460 JUMPI POP PUSH2 0x771 SWAP1 CALLDATALOAD PUSH2 0x115D JUMP JUMPDEST POP POP CALLVALUE PUSH2 0x190 JUMPI DUP2 PUSH1 0x3 NOT CALLDATASIZE ADD SLT PUSH2 0x190 JUMPI SWAP1 SLOAD SWAP1 MLOAD PUSH1 0x1 PUSH1 0x1 PUSH1 0xA0 SHL SUB SWAP1 SWAP2 AND DUP2 MSTORE PUSH1 0x20 SWAP1 RETURN JUMPDEST POP POP CALLVALUE PUSH2 0x190 JUMPI DUP2 PUSH1 0x3 NOT CALLDATASIZE ADD SLT PUSH2 0x190 JUMPI PUSH1 0x6 SLOAD SWAP1 MLOAD PUSH1 0x1 PUSH1 0x1 PUSH1 0xA0 SHL SUB SWAP1 SWAP2 AND DUP2 MSTORE PUSH1 0x20 SWAP1 RETURN JUMPDEST SWAP1 POP CALLVALUE PUSH2 0x1B2 JUMPI DUP3 PUSH1 0x3 NOT CALLDATASIZE ADD SLT PUSH2 0x1B2 JUMPI PUSH1 0x6 SLOAD SWAP2 PUSH2 0xB7D PUSH1 0xFF DUP5 PUSH1 0xB0 SHR AND ISZERO PUSH2 0xF7B JUMP JUMPDEST PUSH1 0xFF PUSH1 0xB0 SHL NOT SWAP3 DUP4 AND PUSH1 0x1 PUSH1 0xB0 SHL OR PUSH1 0x6 DUP2 SWAP1 SSTORE PUSH2 0xBB1 SWAP1 PUSH1 0xFF SWAP1 PUSH2 0xBA7 PUSH1 0xA0 DUP3 SWAP1 SHR DUP4 AND PUSH2 0xFB4 JUMP JUMPDEST PUSH1 0xA8 SHR AND ISZERO PUSH2 0xFF2 JUMP JUMPDEST PUSH1 0x2 SLOAD DUP3 SLOAD GT PUSH2 0xBCF JUMPI POP POP PUSH2 0xBC5 PUSH2 0x1448 JUMP JUMPDEST PUSH1 0x6 SLOAD AND PUSH1 0x6 SSTORE DUP1 RETURN JUMPDEST SWAP1 PUSH1 0x20 PUSH1 0x64 SWAP3 MLOAD SWAP2 PUSH3 0x461BCD PUSH1 0xE5 SHL DUP4 MSTORE DUP3 ADD MSTORE PUSH1 0x12 PUSH1 0x24 DUP3 ADD MSTORE PUSH18 0x1D185C99D95D081B9BDD081C995858DA1959 PUSH1 0x72 SHL PUSH1 0x44 DUP3 ADD MSTORE REVERT JUMPDEST POP POP CALLVALUE PUSH2 0x190 JUMPI DUP2 PUSH1 0x3 NOT CALLDATASIZE ADD SLT PUSH2 0x190 JUMPI PUSH1 0x20 SWAP1 PUSH2 0xC24 PUSH2 0x10C9 JUMP JUMPDEST SWAP1 MLOAD SWAP1 DUP2 MSTORE RETURN JUMPDEST POP POP CALLVALUE PUSH2 0x190 JUMPI DUP2 PUSH1 0x3 NOT CALLDATASIZE ADD SLT PUSH2 0x190 JUMPI PUSH1 0x20 SWAP1 MLOAD PUSH32 0x0 DUP2 MSTORE RETURN JUMPDEST POP POP CALLVALUE PUSH2 0x190 JUMPI DUP2 PUSH1 0x3 NOT CALLDATASIZE ADD SLT PUSH2 0x190 JUMPI PUSH1 0x20 SWAP1 PUSH1 0xFF PUSH1 0x6 SLOAD PUSH1 0xA0 SHR AND SWAP1 MLOAD SWAP1 ISZERO ISZERO DUP2 MSTORE RETURN JUMPDEST SWAP2 SWAP1 POP CALLVALUE PUSH2 0x1B2 JUMPI DUP1 PUSH1 0x3 NOT CALLDATASIZE ADD SLT PUSH2 0x1B2 JUMPI PUSH2 0xCA8 PUSH2 0xF25 JUMP JUMPDEST PUSH1 0x24 CALLDATALOAD SWAP2 SWAP1 PUSH1 0x1 PUSH1 0x1 PUSH1 0xA0 SHL SUB SWAP1 PUSH2 0xCE3 CALLER PUSH32 0x0 DUP5 AND EQ PUSH2 0xF40 JUMP JUMPDEST AND SWAP3 DUP4 ISZERO PUSH2 0xD68 JUMPI PUSH2 0x12C DUP4 GT PUSH2 0xD37 JUMPI POP DUP4 SLOAD PUSH1 0x1 PUSH1 0x1 PUSH1 0xA0 SHL SUB NOT AND DUP4 OR DUP5 SSTORE PUSH1 0x1 DUP3 SWAP1 SSTORE MLOAD SWAP1 DUP2 MSTORE PUSH32 0xE42708D93B95810922305119A3271CA42233DA9EBE1E1E503F0E887817A32C7A SWAP1 PUSH1 0x20 SWAP1 LOG2 DUP1 RETURN JUMPDEST PUSH1 0x20 PUSH1 0x64 SWAP3 MLOAD SWAP2 PUSH3 0x461BCD PUSH1 0xE5 SHL DUP4 MSTORE DUP3 ADD MSTORE PUSH1 0xC PUSH1 0x24 DUP3 ADD MSTORE PUSH12 0xCCCACA40E8DEDE40D0D2CED PUSH1 0xA3 SHL PUSH1 0x44 DUP3 ADD MSTORE REVERT JUMPDEST PUSH1 0x20 PUSH1 0x64 SWAP3 MLOAD SWAP2 PUSH3 0x461BCD PUSH1 0xE5 SHL DUP4 MSTORE DUP3 ADD MSTORE PUSH1 0x12 PUSH1 0x24 DUP3 ADD MSTORE PUSH18 0x1C9958DA5C1A595B9D081C995C5D5A5C9959 PUSH1 0x72 SHL PUSH1 0x44 DUP3 ADD MSTORE REVERT JUMPDEST POP POP CALLVALUE PUSH2 0x190 JUMPI DUP2 PUSH1 0x3 NOT CALLDATASIZE ADD SLT PUSH2 0x190 JUMPI PUSH1 0x20 SWAP1 PUSH2 0xC24 PUSH2 0x107B JUMP JUMPDEST SWAP1 POP CALLVALUE PUSH2 0x1B2 JUMPI DUP3 PUSH1 0x3 NOT CALLDATASIZE ADD SLT PUSH2 0x1B2 JUMPI PUSH2 0xE02 CALLER PUSH32 0x0 PUSH1 0x1 PUSH1 0x1 PUSH1 0xA0 SHL SUB AND EQ PUSH2 0xF40 JUMP JUMPDEST PUSH1 0x6 SLOAD SWAP2 PUSH2 0xE16 PUSH1 0xFF DUP5 PUSH1 0xB0 SHR AND ISZERO PUSH2 0xF7B JUMP JUMPDEST PUSH1 0xFF PUSH1 0xB0 SHL NOT SWAP3 DUP4 AND PUSH1 0x1 PUSH1 0xB0 SHL OR PUSH1 0x6 DUP2 SWAP1 SSTORE PUSH2 0xE40 SWAP1 PUSH1 0xFF SWAP1 PUSH2 0xBA7 PUSH1 0xA0 DUP3 SWAP1 SHR DUP4 AND PUSH2 0xFB4 JUMP JUMPDEST PUSH1 0x2 SLOAD SWAP2 DUP3 ISZERO PUSH2 0xE85 JUMPI POP PUSH32 0x5D6DC6B9835F5448AE2351719684F59735B30DFA8E62677CC6F9E98BD4C08F7F SWAP1 PUSH1 0x3 SLOAD DUP2 MLOAD SWAP4 DUP5 MSTORE PUSH1 0x20 DUP5 ADD MSTORE CALLER SWAP3 LOG2 PUSH2 0xBC5 PUSH2 0x1448 JUMP JUMPDEST PUSH1 0x20 PUSH1 0x64 SWAP3 MLOAD SWAP2 PUSH3 0x461BCD PUSH1 0xE5 SHL DUP4 MSTORE DUP3 ADD MSTORE PUSH1 0xE PUSH1 0x24 DUP3 ADD MSTORE PUSH14 0x6E6F206574682072657365727665 PUSH1 0x90 SHL PUSH1 0x44 DUP3 ADD MSTORE REVERT JUMPDEST POP POP CALLVALUE PUSH2 0x190 JUMPI DUP2 PUSH1 0x3 NOT CALLDATASIZE ADD SLT PUSH2 0x190 JUMPI PUSH1 0x20 SWAP1 PUSH1 0x1 SLOAD SWAP1 MLOAD SWAP1 DUP2 MSTORE RETURN JUMPDEST POP POP CALLVALUE PUSH2 0x190 JUMPI DUP2 PUSH1 0x3 NOT CALLDATASIZE ADD SLT PUSH2 0x190 JUMPI PUSH1 0x7 SLOAD SWAP1 MLOAD PUSH1 0x1 PUSH1 0x1 PUSH1 0xA0 SHL SUB SWAP1 SWAP2 AND DUP2 MSTORE PUSH1 0x20 SWAP1 RETURN JUMPDEST DUP5 SWAP1 CALLVALUE PUSH2 0x190 JUMPI DUP2 PUSH1 0x3 NOT CALLDATASIZE ADD SLT PUSH2 0x190 JUMPI PUSH1 0x5 SLOAD PUSH1 0x1 PUSH1 0x1 PUSH1 0xA0 SHL SUB AND DUP2 MSTORE PUSH1 0x20 SWAP1 RETURN JUMPDEST PUSH1 0x4 CALLDATALOAD SWAP1 PUSH1 0x1 PUSH1 0x1 PUSH1 0xA0 SHL SUB DUP3 AND DUP3 SUB PUSH2 0xF3B JUMPI JUMP JUMPDEST PUSH1 0x0 DUP1 REVERT JUMPDEST ISZERO PUSH2 0xF47 JUMPI JUMP JUMPDEST PUSH1 0x40 MLOAD PUSH3 0x461BCD PUSH1 0xE5 SHL DUP2 MSTORE PUSH1 0x20 PUSH1 0x4 DUP3 ADD MSTORE PUSH1 0xC PUSH1 0x24 DUP3 ADD MSTORE PUSH12 0x6F6E6C7920666163746F7279 PUSH1 0xA0 SHL PUSH1 0x44 DUP3 ADD MSTORE PUSH1 0x64 SWAP1 REVERT JUMPDEST ISZERO PUSH2 0xF82 JUMPI JUMP JUMPDEST PUSH1 0x40 MLOAD PUSH3 0x461BCD PUSH1 0xE5 SHL DUP2 MSTORE PUSH1 0x20 PUSH1 0x4 DUP3 ADD MSTORE PUSH1 0xA PUSH1 0x24 DUP3 ADD MSTORE PUSH10 0x7265656E7472616E6379 PUSH1 0xB0 SHL PUSH1 0x44 DUP3 ADD MSTORE PUSH1 0x64 SWAP1 REVERT JUMPDEST ISZERO PUSH2 0xFBB JUMPI JUMP JUMPDEST PUSH1 0x40 MLOAD PUSH3 0x461BCD PUSH1 0xE5 SHL DUP2 MSTORE PUSH1 0x20 PUSH1 0x4 DUP3 ADD MSTORE PUSH1 0xF PUSH1 0x24 DUP3 ADD MSTORE PUSH15 0x1C1BDBDB081B9BDD081CD959591959 PUSH1 0x8A SHL PUSH1 0x44 DUP3 ADD MSTORE PUSH1 0x64 SWAP1 REVERT JUMPDEST ISZERO PUSH2 0xFF9 JUMPI JUMP JUMPDEST PUSH1 0x40 MLOAD PUSH3 0x461BCD PUSH1 0xE5 SHL DUP2 MSTORE PUSH1 0x20 PUSH1 0x4 DUP3 ADD MSTORE PUSH1 0x11 PUSH1 0x24 DUP3 ADD MSTORE PUSH17 0x185B1C9958591E4819DC98591D585D1959 PUSH1 0x7A SHL PUSH1 0x44 DUP3 ADD MSTORE PUSH1 0x64 SWAP1 REVERT JUMPDEST DUP2 DUP2 MUL SWAP3 SWAP2 DUP2 ISZERO SWAP2 DUP5 DIV EQ OR ISZERO PUSH2 0x1045 JUMPI JUMP JUMPDEST PUSH4 0x4E487B71 PUSH1 0xE0 SHL PUSH1 0x0 MSTORE PUSH1 0x11 PUSH1 0x4 MSTORE PUSH1 0x24 PUSH1 0x0 REVERT JUMPDEST DUP2 ISZERO PUSH2 0x1065 JUMPI DIV SWAP1 JUMP JUMPDEST PUSH4 0x4E487B71 PUSH1 0xE0 SHL PUSH1 0x0 MSTORE PUSH1 0x12 PUSH1 0x4 MSTORE PUSH1 0x24 PUSH1 0x0 REVERT JUMPDEST PUSH1 0x4 SLOAD DUP1 ISZERO PUSH2 0x10B6 JUMPI PUSH1 0x2 SLOAD PUSH2 0x2710 SWAP2 DUP3 DUP3 MUL SWAP2 DUP1 DUP4 DIV DUP5 EQ SWAP1 ISZERO OR ISZERO PUSH2 0x1045 JUMPI PUSH2 0x10A5 SWAP2 PUSH2 0x105B JUMP JUMPDEST SWAP1 DUP1 DUP3 GT PUSH2 0x10B1 JUMPI POP SWAP1 JUMP JUMPDEST SWAP1 POP SWAP1 JUMP JUMPDEST POP PUSH1 0x0 SWAP1 JUMP JUMPDEST SWAP2 SWAP1 DUP3 ADD DUP1 SWAP3 GT PUSH2 0x1045 JUMPI JUMP JUMPDEST PUSH2 0x10F6 PUSH1 0x3 SLOAD PUSH32 0x0 SWAP1 PUSH2 0x10BC JUMP JUMPDEST DUP1 ISZERO PUSH2 0x10B6 JUMPI PUSH2 0x1129 PUSH1 0x2 SLOAD PUSH32 0x0 SWAP1 PUSH2 0x10BC JUMP JUMPDEST SWAP1 PUSH8 0xDE0B6B3A7640000 SWAP2 DUP3 DUP2 MUL SWAP3 DUP2 DUP5 DIV EQ SWAP1 ISZERO OR ISZERO PUSH2 0x1045 JUMPI PUSH2 0x114D SWAP2 PUSH2 0x105B JUMP JUMPDEST SWAP1 JUMP JUMPDEST SWAP2 SWAP1 DUP3 SUB SWAP2 DUP3 GT PUSH2 0x1045 JUMPI JUMP JUMPDEST PUSH1 0x6 SLOAD PUSH1 0xFF DUP2 PUSH1 0xA0 SHR AND ISZERO SWAP1 DUP2 ISZERO PUSH2 0x11B2 JUMPI JUMPDEST POP DUP1 ISZERO PUSH2 0x11AA JUMPI JUMPDEST PUSH2 0x11A1 JUMPI PUSH2 0x119E PUSH2 0x1199 PUSH2 0x2710 PUSH2 0x1191 PUSH1 0x1 SLOAD DUP6 PUSH2 0x1032 JUMP JUMPDEST DIV DUP1 SWAP4 PUSH2 0x1150 JUMP JUMPDEST PUSH2 0x1923 JUMP JUMPDEST SWAP2 JUMP JUMPDEST POP PUSH1 0x0 SWAP1 PUSH1 0x0 SWAP1 JUMP JUMPDEST POP DUP1 ISZERO PUSH2 0x1178 JUMP JUMPDEST PUSH1 0xFF SWAP2 POP PUSH1 0xA8 SHR AND CODESIZE PUSH2 0x1170 JUMP JUMPDEST ISZERO PUSH2 0x11C7 JUMPI JUMP JUMPDEST PUSH1 0x40 MLOAD PUSH3 0x461BCD PUSH1 0xE5 SHL DUP2 MSTORE PUSH1 0x20 PUSH1 0x4 DUP3 ADD MSTORE PUSH1 0x15 PUSH1 0x24 DUP3 ADD MSTORE PUSH21 0x1D1BDAD95B88185B5BDD5B9D081C995C5D5A5C9959 PUSH1 0x5A SHL PUSH1 0x44 DUP3 ADD MSTORE PUSH1 0x64 SWAP1 REVERT JUMPDEST SWAP1 PUSH1 0x1F DUP1 NOT SWAP2 ADD AND DUP2 ADD SWAP1 DUP2 LT PUSH8 0xFFFFFFFFFFFFFFFF DUP3 GT OR PUSH2 0x1226 JUMPI PUSH1 0x40 MSTORE JUMP JUMPDEST PUSH4 0x4E487B71 PUSH1 0xE0 SHL PUSH1 0x0 MSTORE PUSH1 0x41 PUSH1 0x4 MSTORE PUSH1 0x24 PUSH1 0x0 REVERT JUMPDEST PUSH1 0x6 SLOAD PUSH1 0xFF DUP2 PUSH1 0xA0 SHR AND ISZERO SWAP1 DUP2 ISZERO PUSH2 0x128C JUMPI JUMPDEST POP DUP1 ISZERO PUSH2 0x1284 JUMPI JUMPDEST PUSH2 0x11A1 JUMPI PUSH2 0x1264 SWAP1 PUSH2 0x19BB JUMP JUMPDEST DUP1 ISZERO PUSH2 0x11A1 JUMPI PUSH2 0x119E PUSH2 0x2710 PUSH2 0x127C PUSH1 0x1 SLOAD DUP5 PUSH2 0x1032 JUMP JUMPDEST DIV DUP1 SWAP3 PUSH2 0x1150 JUMP JUMPDEST POP DUP1 ISZERO PUSH2 0x1257 JUMP JUMPDEST PUSH1 0xFF SWAP2 POP PUSH1 0xA8 SHR AND CODESIZE PUSH2 0x124F JUMP JUMPDEST ISZERO PUSH2 0x12A1 JUMPI JUMP JUMPDEST PUSH1 0x40 MLOAD PUSH3 0x461BCD PUSH1 0xE5 SHL DUP2 MSTORE PUSH1 0x20 PUSH1 0x4 DUP3 ADD MSTORE PUSH1 0x9 PUSH1 0x24 DUP3 ADD MSTORE PUSH9 0x19DC98591D585D1959 PUSH1 0xBA SHL PUSH1 0x44 DUP3 ADD MSTORE PUSH1 0x64 SWAP1 REVERT JUMPDEST ISZERO PUSH2 0x12D9 JUMPI JUMP JUMPDEST PUSH1 0x40 MLOAD PUSH3 0x461BCD PUSH1 0xE5 SHL DUP2 MSTORE PUSH1 0x20 PUSH1 0x4 DUP3 ADD MSTORE PUSH1 0x13 PUSH1 0x24 DUP3 ADD MSTORE PUSH19 0x1A5B9CDD59999A58DA595B9D081BDD5D1C1D5D PUSH1 0x6A SHL PUSH1 0x44 DUP3 ADD MSTORE PUSH1 0x64 SWAP1 REVERT JUMPDEST ISZERO PUSH2 0x131B JUMPI JUMP JUMPDEST PUSH1 0x40 MLOAD PUSH3 0x461BCD PUSH1 0xE5 SHL DUP2 MSTORE PUSH1 0x20 PUSH1 0x4 DUP3 ADD MSTORE PUSH1 0x8 PUSH1 0x24 DUP3 ADD MSTORE PUSH8 0x736C697070616765 PUSH1 0xC0 SHL PUSH1 0x44 DUP3 ADD MSTORE PUSH1 0x64 SWAP1 REVERT JUMPDEST SWAP1 DUP2 PUSH1 0x20 SWAP2 SUB SLT PUSH2 0xF3B JUMPI MLOAD DUP1 ISZERO ISZERO DUP2 SUB PUSH2 0xF3B JUMPI SWAP1 JUMP JUMPDEST ISZERO PUSH2 0x136A JUMPI JUMP JUMPDEST PUSH1 0x40 MLOAD PUSH3 0x461BCD PUSH1 0xE5 SHL DUP2 MSTORE PUSH1 0x20 PUSH1 0x4 DUP3 ADD MSTORE PUSH1 0x15 PUSH1 0x24 DUP3 ADD MSTORE PUSH21 0x1D1BDAD95B881D1C985B9CD9995C8819985A5B1959 PUSH1 0x5A SHL PUSH1 0x44 DUP3 ADD MSTORE PUSH1 0x64 SWAP1 REVERT JUMPDEST RETURNDATASIZE ISZERO PUSH2 0x13E2 JUMPI RETURNDATASIZE SWAP1 PUSH8 0xFFFFFFFFFFFFFFFF DUP3 GT PUSH2 0x1226 JUMPI PUSH1 0x40 MLOAD SWAP2 PUSH2 0x13D6 PUSH1 0x1F DUP3 ADD PUSH1 0x1F NOT AND PUSH1 0x20 ADD DUP5 PUSH2 0x1204 JUMP JUMPDEST DUP3 MSTORE RETURNDATASIZE PUSH1 0x0 PUSH1 0x20 DUP5 ADD RETURNDATACOPY JUMP JUMPDEST PUSH1 0x60 SWAP1 JUMP JUMPDEST ISZERO PUSH2 0x13EE JUMPI JUMP JUMPDEST PUSH1 0x40 MLOAD PUSH3 0x461BCD PUSH1 0xE5 SHL DUP2 MSTORE PUSH1 0x20 PUSH1 0x4 DUP3 ADD MSTORE PUSH1 0x13 PUSH1 0x24 DUP3 ADD MSTORE PUSH19 0x199959481D1C985B9CD9995C8819985A5B1959 PUSH1 0x6A SHL PUSH1 0x44 DUP3 ADD MSTORE PUSH1 0x64 SWAP1 REVERT JUMPDEST SWAP1 DUP2 PUSH1 0x20 SWAP2 SUB SLT PUSH2 0xF3B JUMPI MLOAD PUSH1 0x1 PUSH1 0x1 PUSH1 0xA0 SHL SUB DUP2 AND DUP2 SUB PUSH2 0xF3B JUMPI SWAP1 JUMP JUMPDEST PUSH1 0x5 SLOAD PUSH1 0x1 PUSH1 0x1 PUSH1 0xA0 SHL SUB SWAP1 DUP2 AND SWAP1 DUP2 ISZERO PUSH2 0x18E9 JUMPI PUSH1 0x1 PUSH1 0xA8 SHL PUSH1 0xFF PUSH1 0xA8 SHL NOT PUSH1 0x6 SLOAD AND OR PUSH1 0x6 SSTORE TIMESTAMP PUSH1 0x8 SSTORE PUSH1 0x3 SLOAD SWAP2 PUSH1 0x2 SLOAD SWAP1 PUSH1 0x0 SWAP3 DUP4 PUSH1 0x3 SSTORE DUP4 PUSH1 0x2 SSTORE DUP1 PUSH32 0x0 AND SWAP4 PUSH1 0x40 SWAP3 DUP4 MLOAD DUP3 PUSH4 0x95EA7B3 PUSH1 0xE0 SHL DUP1 DUP4 MSTORE PUSH1 0x4 SWAP4 DUP5 DUP5 ADD MSTORE PUSH1 0x24 SWAP3 DUP3 DUP5 DUP3 ADD MSTORE DUP10 DUP2 PUSH1 0x44 DUP2 PUSH1 0x20 SWAP10 DUP11 SWAP5 GAS CALL DUP1 ISZERO PUSH2 0x18DF JUMPI SWAP2 DUP7 SWAP2 DUP13 SWAP4 PUSH2 0x18C2 JUMPI JUMPDEST POP PUSH1 0x5 SLOAD DUP10 MLOAD SWAP2 DUP3 MSTORE DUP9 AND PUSH1 0x1 PUSH1 0x1 PUSH1 0xA0 SHL SUB AND DUP7 DUP3 ADD SWAP1 DUP2 MSTORE PUSH1 0x20 DUP2 ADD SWAP4 SWAP1 SWAP4 MSTORE SWAP2 DUP3 SWAP1 DUP2 SWAP1 PUSH1 0x40 ADD SUB DUP2 DUP6 DUP14 GAS CALL DUP1 ISZERO PUSH2 0x1888 JUMPI PUSH2 0x18A5 JUMPI JUMPDEST POP DUP5 PUSH1 0x5 SLOAD AND SWAP5 DUP1 PUSH1 0x6 SLOAD AND SWAP6 PUSH2 0xE10 TIMESTAMP ADD DUP1 TIMESTAMP GT PUSH2 0x1892 JUMPI PUSH1 0xC4 DUP12 DUP12 PUSH1 0x60 SWAP5 DUP16 SWAP5 DUP14 MLOAD SWAP13 DUP14 SWAP7 DUP8 SWAP6 PUSH4 0xF305D719 PUSH1 0xE0 SHL DUP8 MSTORE DUP14 DUP8 ADD MSTORE DUP12 DUP7 ADD MSTORE DUP10 PUSH1 0x44 DUP7 ADD MSTORE DUP10 PUSH1 0x64 DUP7 ADD MSTORE PUSH1 0x84 DUP6 ADD MSTORE PUSH1 0xA4 DUP5 ADD MSTORE GAS CALL SWAP8 DUP9 ISZERO PUSH2 0x1888 JUMPI DUP3 SWAP10 DUP4 SWAP8 DUP5 SWAP11 PUSH2 0x1844 JUMPI JUMPDEST POP PUSH1 0x5 SLOAD DUP10 MLOAD PUSH4 0xC45A0155 PUSH1 0xE0 SHL DUP2 MSTORE SWAP1 DUP5 AND DUP9 DUP3 DUP10 DUP2 DUP5 GAS STATICCALL SWAP2 DUP3 ISZERO PUSH2 0x181B JUMPI DUP9 SWAP3 SWAP2 DUP11 SWAP2 DUP9 SWAP4 PUSH2 0x1825 JUMPI JUMPDEST POP DUP13 MLOAD PUSH4 0x15AB88C9 PUSH1 0xE3 SHL DUP2 MSTORE SWAP4 DUP5 SWAP2 DUP3 SWAP1 GAS STATICCALL SWAP2 DUP3 ISZERO PUSH2 0x181B JUMPI DUP4 DUP10 DUP8 DUP15 SWAP6 SWAP5 DUP14 SWAP5 DUP12 SWAP7 PUSH2 0x17F5 JUMPI JUMPDEST POP DUP2 PUSH1 0x44 SWAP5 SWAP6 SWAP7 SWAP8 MLOAD SWAP8 DUP9 SWAP7 DUP8 SWAP6 PUSH4 0xE6A43905 PUSH1 0xE0 SHL DUP8 MSTORE DUP7 ADD MSTORE AND DUP13 DUP5 ADD MSTORE AND GAS STATICCALL SWAP1 DUP2 ISZERO PUSH2 0x17EB JUMPI SWAP2 DUP5 DUP10 SWAP3 DUP15 SWAP5 DUP9 SWAP2 PUSH2 0x17BE JUMPI JUMPDEST POP AND SWAP14 DUP15 PUSH12 0xFFFFFFFFFFFFFFFFFFFFFFFF PUSH1 0xA0 SHL PUSH1 0x7 SLOAD AND OR PUSH1 0x7 SSTORE DUP4 DUP2 GT PUSH2 0x16ED JUMPI JUMPDEST POP POP POP POP DUP7 DUP2 GT PUSH2 0x1683 JUMPI JUMPDEST POP POP DUP6 MLOAD SWAP8 DUP9 MSTORE POP POP POP DUP5 ADD MSTORE DUP3 ADD MSTORE TIMESTAMP PUSH1 0x60 DUP3 ADD MSTORE PUSH32 0x71AA8C3702DBBC54247A4E6446450E64A46250DD72707A247DDB01D72EAEF445 SWAP1 PUSH1 0x80 SWAP1 LOG2 JUMP JUMPDEST DUP3 DUP1 SWAP3 PUSH2 0x1691 DUP10 DUP4 SWAP5 PUSH2 0x1150 JUMP JUMPDEST SWAP1 DUP3 SLOAD AND GAS CALL PUSH2 0x169F PUSH2 0x13A7 JUMP JUMPDEST POP ISZERO PUSH2 0x16AD JUMPI DUP1 DUP1 DUP1 PUSH2 0x1645 JUMP JUMPDEST PUSH1 0x18 SWAP1 PUSH1 0x64 SWAP4 DUP7 MLOAD SWAP4 PUSH3 0x461BCD PUSH1 0xE5 SHL DUP6 MSTORE DUP5 ADD MSTORE DUP3 ADD MSTORE PUSH32 0x6574682064757374207472616E73666572206661696C65640000000000000000 PUSH1 0x44 DUP3 ADD MSTORE REVERT JUMPDEST PUSH2 0x1734 SWAP4 PUSH2 0x16FA SWAP2 PUSH2 0x1150 JUMP JUMPDEST DUP7 SLOAD DUP13 MLOAD PUSH4 0xA9059CBB PUSH1 0xE0 SHL DUP2 MSTORE SWAP1 DUP8 AND PUSH1 0x1 PUSH1 0x1 PUSH1 0xA0 SHL SUB AND DUP11 DUP3 ADD SWAP1 DUP2 MSTORE PUSH1 0x20 DUP2 ADD SWAP3 SWAP1 SWAP3 MSTORE SWAP4 DUP5 SWAP3 SWAP2 DUP4 SWAP2 DUP10 SWAP2 DUP4 SWAP2 PUSH1 0x40 SWAP1 SWAP2 ADD SWAP1 JUMP JUMPDEST SUB SWAP3 GAS CALL SWAP1 DUP2 ISZERO PUSH2 0x17B4 JUMPI DUP5 SWAP2 PUSH2 0x1797 JUMPI JUMPDEST POP ISZERO PUSH2 0x1755 JUMPI DUP10 DUP7 CODESIZE DUP1 PUSH2 0x1639 JUMP JUMPDEST DUP8 MLOAD PUSH3 0x461BCD PUSH1 0xE5 SHL DUP2 MSTORE DUP1 DUP7 ADD DUP8 SWAP1 MSTORE PUSH1 0x1A DUP2 DUP7 ADD MSTORE PUSH32 0x746F6B656E2064757374207472616E73666572206661696C6564000000000000 PUSH1 0x44 DUP3 ADD MSTORE PUSH1 0x64 SWAP1 REVERT JUMPDEST PUSH2 0x17AE SWAP2 POP DUP8 RETURNDATASIZE DUP10 GT PUSH2 0x3B9 JUMPI PUSH2 0x3AB DUP2 DUP4 PUSH2 0x1204 JUMP JUMPDEST CODESIZE PUSH2 0x1746 JUMP JUMPDEST DUP10 MLOAD RETURNDATASIZE DUP7 DUP3 RETURNDATACOPY RETURNDATASIZE SWAP1 REVERT JUMPDEST PUSH2 0x17DE SWAP2 POP DUP5 RETURNDATASIZE DUP7 GT PUSH2 0x17E4 JUMPI JUMPDEST PUSH2 0x17D6 DUP2 DUP4 PUSH2 0x1204 JUMP JUMPDEST DUP2 ADD SWAP1 PUSH2 0x1429 JUMP JUMPDEST CODESIZE PUSH2 0x1615 JUMP JUMPDEST POP RETURNDATASIZE PUSH2 0x17CC JUMP JUMPDEST DUP11 MLOAD RETURNDATASIZE DUP8 DUP3 RETURNDATACOPY RETURNDATASIZE SWAP1 REVERT JUMPDEST DUP6 SWAP7 POP PUSH2 0x1812 DUP4 SWAP2 PUSH1 0x44 SWAP7 SWAP8 RETURNDATASIZE DUP11 GT PUSH2 0x17E4 JUMPI PUSH2 0x17D6 DUP2 DUP4 PUSH2 0x1204 JUMP JUMPDEST SWAP7 SWAP6 SWAP5 POP PUSH2 0x15DE JUMP JUMPDEST DUP12 MLOAD RETURNDATASIZE DUP9 DUP3 RETURNDATACOPY RETURNDATASIZE SWAP1 REVERT JUMPDEST PUSH2 0x183D SWAP2 SWAP4 POP DUP3 RETURNDATASIZE DUP5 GT PUSH2 0x17E4 JUMPI PUSH2 0x17D6 DUP2 DUP4 PUSH2 0x1204 JUMP JUMPDEST SWAP2 CODESIZE PUSH2 0x15B4 JUMP JUMPDEST SWAP11 POP SWAP9 POP SWAP6 POP PUSH1 0x60 DUP10 RETURNDATASIZE PUSH1 0x60 GT PUSH2 0x1880 JUMPI JUMPDEST DUP2 PUSH2 0x1863 PUSH1 0x60 SWAP4 DUP4 PUSH2 0x1204 JUMP JUMPDEST DUP2 ADD SUB SLT PUSH2 0x190 JUMPI DUP9 MLOAD SWAP6 DUP8 DUP7 DUP12 ADD MLOAD SWAP11 ADD MLOAD SWAP7 SWAP10 SWAP7 SWAP9 CODESIZE PUSH2 0x1587 JUMP JUMPDEST RETURNDATASIZE SWAP2 POP PUSH2 0x1856 JUMP JUMPDEST DUP8 MLOAD RETURNDATASIZE DUP5 DUP3 RETURNDATACOPY RETURNDATASIZE SWAP1 REVERT JUMPDEST POP POP PUSH4 0x4E487B71 PUSH1 0xE0 SHL DUP3 MSTORE POP PUSH1 0x11 DUP4 MSTORE REVERT JUMPDEST PUSH2 0x18BB SWAP1 DUP6 RETURNDATASIZE DUP8 GT PUSH2 0x3B9 JUMPI PUSH2 0x3AB DUP2 DUP4 PUSH2 0x1204 JUMP JUMPDEST POP CODESIZE PUSH2 0x1522 JUMP JUMPDEST PUSH2 0x18D8 SWAP1 DUP4 RETURNDATASIZE DUP6 GT PUSH2 0x3B9 JUMPI PUSH2 0x3AB DUP2 DUP4 PUSH2 0x1204 JUMP JUMPDEST POP CODESIZE PUSH2 0x14E7 JUMP JUMPDEST DUP9 MLOAD RETURNDATASIZE DUP6 DUP3 RETURNDATACOPY RETURNDATASIZE SWAP1 REVERT JUMPDEST PUSH1 0x40 MLOAD PUSH3 0x461BCD PUSH1 0xE5 SHL DUP2 MSTORE PUSH1 0x20 PUSH1 0x4 DUP3 ADD MSTORE PUSH1 0x12 PUSH1 0x24 DUP3 ADD MSTORE PUSH18 0x19195E081C9BDD5D195C881B9BDD081CD95D PUSH1 0x72 SHL PUSH1 0x44 DUP3 ADD MSTORE PUSH1 0x64 SWAP1 REVERT JUMPDEST DUP1 ISZERO PUSH2 0x10B6 JUMPI PUSH2 0x1956 PUSH1 0x2 SLOAD PUSH32 0x0 SWAP1 PUSH2 0x10BC JUMP JUMPDEST SWAP1 PUSH2 0x19A2 PUSH1 0x3 SLOAD SWAP3 PUSH2 0x199C PUSH2 0x198B PUSH32 0x0 DUP7 PUSH2 0x10BC JUMP JUMPDEST SWAP4 PUSH2 0x1996 DUP6 DUP5 PUSH2 0x1032 JUMP JUMPDEST SWAP3 PUSH2 0x10BC JUMP JUMPDEST SWAP1 PUSH2 0x105B JUMP JUMPDEST DUP1 DUP3 GT ISZERO PUSH2 0x19B3 JUMPI PUSH2 0x10A5 SWAP2 PUSH2 0x1150 JUMP JUMPDEST POP POP POP PUSH1 0x0 SWAP1 JUMP JUMPDEST PUSH1 0x2 SLOAD SWAP1 PUSH2 0x19A2 PUSH2 0x19EC PUSH32 0x0 DUP5 PUSH2 0x10BC JUMP JUMPDEST SWAP2 PUSH2 0x199C PUSH2 0x1A1D PUSH1 0x3 SLOAD PUSH32 0x0 SWAP1 PUSH2 0x10BC JUMP JUMPDEST SWAP2 PUSH2 0x1996 DUP4 DUP7 PUSH2 0x1032 JUMP JUMPDEST PUSH1 0xFF PUSH1 0x6 SLOAD PUSH1 0xA8 SHR AND PUSH2 0x1A48 JUMPI PUSH1 0x2 SLOAD PUSH1 0x4 SLOAD GT PUSH2 0x1A48 JUMPI PUSH2 0x1A48 PUSH2 0x1448 JUMP JUMPDEST JUMP INVALID LOG2 PUSH5 0x6970667358 0x22 SLT KECCAK256 LOG2 0xD2 0xC2 OR NUMBER DUP8 EQ TIMESTAMP 0xCE 0x4B MUL 0xC5 SSTORE 0x4B 0xB6 CHAINID 0xAD 0x2F 0x4C 0xAA 0xAE 0x2B SWAP2 SLT EXP BASEFEE PUSH25 0x32FDC24A2864736F6C63430008180033604061014081523462 STOP MOD 0xD JUMPI PUSH3 0x172D DUP1 CODESIZE SUB DUP1 PUSH3 0x1F DUP2 PUSH3 0x612 JUMP JUMPDEST SWAP3 DUP4 CODECOPY DUP2 ADD SWAP2 PUSH1 0xE0 DUP3 DUP5 SUB SLT PUSH3 0x60D JUMPI DUP2 MLOAD PUSH1 0x1 PUSH1 0x1 PUSH1 0x40 SHL SUB SWAP1 DUP2 DUP2 GT PUSH3 0x60D JUMPI DUP5 PUSH3 0x51 SWAP2 DUP6 ADD PUSH3 0x638 JUMP JUMPDEST SWAP4 PUSH1 0x20 SWAP1 DUP2 DUP6 ADD MLOAD SWAP1 DUP4 DUP3 GT PUSH3 0x60D JUMPI PUSH3 0x6F SWAP2 DUP7 ADD PUSH3 0x638 JUMP JUMPDEST SWAP1 DUP4 DUP6 ADD MLOAD SWAP5 PUSH3 0x83 PUSH1 0x60 DUP3 ADD PUSH3 0x6AA JUMP JUMPDEST PUSH3 0x91 PUSH1 0x80 DUP4 ADD PUSH3 0x6AA JUMP JUMPDEST SWAP1 PUSH1 0xC0 PUSH3 0xA2 PUSH1 0xA0 DUP6 ADD PUSH3 0x6AA JUMP JUMPDEST SWAP4 ADD MLOAD SWAP9 DUP1 MLOAD ISZERO PUSH3 0x5D9 JUMPI DUP6 MLOAD ISZERO PUSH3 0x5A3 JUMPI DUP9 ISZERO PUSH3 0x56D JUMPI PUSH1 0x1 PUSH1 0x1 PUSH1 0xA0 SHL SUB DUP3 DUP2 AND SWAP8 SWAP1 DUP9 ISZERO PUSH3 0x536 JUMPI DUP1 DUP6 AND ISZERO PUSH3 0x4FF JUMPI DUP6 AND ISZERO PUSH3 0x4C7 JUMPI PUSH2 0x3E8 DUP12 GT PUSH3 0x48E JUMPI DUP2 MLOAD DUP2 DUP2 GT PUSH3 0x478 JUMPI PUSH1 0x0 SWAP8 DUP9 SLOAD SWAP2 PUSH1 0x1 SWAP5 DUP6 DUP5 DUP2 SHR SWAP5 AND DUP1 ISZERO PUSH3 0x46D JUMPI JUMPDEST DUP11 DUP6 LT EQ PUSH3 0x459 JUMPI DUP2 SWAP1 PUSH1 0x1F SWAP5 DUP6 DUP2 GT PUSH3 0x406 JUMPI JUMPDEST POP DUP11 SWAP1 DUP6 DUP4 GT PUSH1 0x1 EQ PUSH3 0x3A1 JUMPI DUP13 SWAP3 PUSH3 0x395 JUMPI JUMPDEST POP POP PUSH1 0x0 NOT PUSH1 0x3 DUP4 SWAP1 SHL SHR NOT AND SWAP1 DUP6 SHL OR DUP10 SSTORE JUMPDEST DUP1 MLOAD SWAP3 DUP4 GT PUSH3 0x381 JUMPI DUP4 SLOAD DUP5 DUP2 DUP2 SHR SWAP2 AND DUP1 ISZERO PUSH3 0x376 JUMPI JUMPDEST DUP10 DUP3 LT EQ PUSH3 0x362 JUMPI SWAP1 DUP2 DUP4 DUP6 SWAP5 SWAP4 GT PUSH3 0x30D JUMPI JUMPDEST POP DUP9 SWAP2 DUP4 GT PUSH1 0x1 EQ PUSH3 0x2A9 JUMPI DUP10 SWAP3 PUSH3 0x29D JUMPI JUMPDEST POP POP PUSH1 0x0 NOT PUSH1 0x3 DUP4 SWAP1 SHL SHR NOT AND SWAP1 DUP3 SHL OR SWAP1 SSTORE JUMPDEST DUP8 PUSH1 0x2 SSTORE PUSH1 0x80 MSTORE PUSH1 0xA0 MSTORE PUSH1 0xC0 MSTORE DUP6 PUSH1 0xE0 MSTORE PUSH2 0xFA0 DUP1 DUP8 MUL SWAP1 DUP8 DUP3 DIV EQ DUP8 ISZERO OR ISZERO PUSH3 0x289 JUMPI PUSH2 0x2710 SWAP1 DIV SWAP5 PUSH2 0x120 SWAP6 DUP1 DUP8 MSTORE DUP8 SUB SWAP7 DUP8 GT PUSH3 0x289 JUMPI SWAP1 PUSH32 0xDDF252AD1BE2C89B69C2B068FC378DAA952BA7F163C4A11628F55A4DF523B3EF SWAP2 PUSH2 0x100 SWAP8 DUP9 MSTORE DUP5 DUP5 MSTORE PUSH1 0x6 DUP3 MSTORE DUP1 DUP7 DUP6 KECCAK256 SSTORE DUP6 MLOAD SWAP1 DUP2 MSTORE LOG3 MLOAD SWAP1 PUSH2 0x106D SWAP3 DUP4 PUSH3 0x6C0 DUP5 CODECOPY PUSH1 0x80 MLOAD DUP4 DUP2 DUP2 PUSH2 0x238 ADD MSTORE DUP2 DUP2 PUSH2 0x2FF ADD MSTORE PUSH2 0x35B ADD MSTORE PUSH1 0xA0 MLOAD DUP4 DUP2 DUP2 PUSH2 0x698 ADD MSTORE PUSH2 0xBA8 ADD MSTORE PUSH1 0xC0 MLOAD DUP4 DUP2 DUP2 PUSH2 0x18D ADD MSTORE PUSH2 0x795 ADD MSTORE PUSH1 0xE0 MLOAD DUP4 DUP2 DUP2 PUSH2 0x644 ADD MSTORE PUSH2 0xDB3 ADD MSTORE MLOAD DUP3 DUP2 DUP2 PUSH2 0xA07 ADD MSTORE PUSH2 0xDF1 ADD MSTORE MLOAD DUP2 PUSH2 0x969 ADD MSTORE RETURN JUMPDEST PUSH4 0x4E487B71 PUSH1 0xE0 SHL DUP4 MSTORE PUSH1 0x11 PUSH1 0x4 MSTORE PUSH1 0x24 DUP4 REVERT JUMPDEST ADD MLOAD SWAP1 POP CODESIZE DUP1 PUSH3 0x193 JUMP JUMPDEST DUP5 DUP11 MSTORE DUP9 DUP11 KECCAK256 DUP6 SWAP5 POP SWAP2 SWAP1 PUSH1 0x1F NOT DUP5 AND DUP12 JUMPDEST DUP12 DUP3 DUP3 LT PUSH3 0x2F6 JUMPI POP POP DUP5 GT PUSH3 0x2DC JUMPI JUMPDEST POP POP POP DUP2 SHL ADD SWAP1 SSTORE PUSH3 0x1A7 JUMP JUMPDEST ADD MLOAD PUSH1 0x0 NOT PUSH1 0xF8 DUP5 PUSH1 0x3 SHL AND SHR NOT AND SWAP1 SSTORE CODESIZE DUP1 DUP1 PUSH3 0x2CE JUMP JUMPDEST DUP4 DUP6 ADD MLOAD DUP7 SSTORE DUP9 SWAP8 SWAP1 SWAP6 ADD SWAP5 SWAP4 DUP5 ADD SWAP4 ADD PUSH3 0x2BB JUMP JUMPDEST SWAP1 SWAP2 SWAP3 POP DUP5 DUP11 MSTORE DUP9 DUP11 KECCAK256 DUP4 DUP1 DUP7 ADD PUSH1 0x5 SHR DUP3 ADD SWAP3 DUP12 DUP8 LT PUSH3 0x358 JUMPI JUMPDEST SWAP2 DUP7 SWAP6 DUP9 SWAP3 SWAP6 SWAP5 SWAP4 ADD PUSH1 0x5 SHR ADD SWAP2 JUMPDEST DUP3 DUP2 LT PUSH3 0x349 JUMPI POP POP PUSH3 0x17E JUMP JUMPDEST DUP13 DUP2 SSTORE DUP7 SWAP6 POP DUP8 SWAP2 ADD PUSH3 0x339 JUMP JUMPDEST SWAP3 POP DUP2 SWAP3 PUSH3 0x32A JUMP JUMPDEST PUSH4 0x4E487B71 PUSH1 0xE0 SHL DUP11 MSTORE PUSH1 0x22 PUSH1 0x4 MSTORE PUSH1 0x24 DUP11 REVERT JUMPDEST SWAP1 PUSH1 0x7F AND SWAP1 PUSH3 0x168 JUMP JUMPDEST PUSH4 0x4E487B71 PUSH1 0xE0 SHL DUP10 MSTORE PUSH1 0x41 PUSH1 0x4 MSTORE PUSH1 0x24 DUP10 REVERT JUMPDEST ADD MLOAD SWAP1 POP CODESIZE DUP1 PUSH3 0x13A JUMP JUMPDEST DUP13 DUP1 MSTORE DUP12 DUP14 KECCAK256 DUP9 SWAP5 POP SWAP2 SWAP1 PUSH1 0x1F NOT DUP5 AND DUP15 DUP15 JUMPDEST DUP3 DUP3 LT PUSH3 0x3EE JUMPI POP POP DUP5 GT PUSH3 0x3D4 JUMPI JUMPDEST POP POP POP DUP2 SHL ADD DUP10 SSTORE PUSH3 0x14E JUMP JUMPDEST ADD MLOAD PUSH1 0x0 NOT PUSH1 0xF8 DUP5 PUSH1 0x3 SHL AND SHR NOT AND SWAP1 SSTORE CODESIZE DUP1 DUP1 PUSH3 0x3C6 JUMP JUMPDEST DUP4 DUP6 ADD MLOAD DUP7 SSTORE DUP12 SWAP8 SWAP1 SWAP6 ADD SWAP5 SWAP4 DUP5 ADD SWAP4 ADD DUP15 PUSH3 0x3B4 JUMP JUMPDEST SWAP1 SWAP2 POP DUP12 DUP1 MSTORE DUP11 DUP13 KECCAK256 DUP6 DUP1 DUP6 ADD PUSH1 0x5 SHR DUP3 ADD SWAP3 DUP14 DUP7 LT PUSH3 0x44F JUMPI JUMPDEST SWAP2 DUP10 SWAP2 DUP7 SWAP6 SWAP5 SWAP4 ADD PUSH1 0x5 SHR ADD SWAP2 JUMPDEST DUP3 DUP2 LT PUSH3 0x440 JUMPI POP POP PUSH3 0x124 JUMP JUMPDEST DUP15 DUP2 SSTORE DUP6 SWAP5 POP DUP10 SWAP2 ADD PUSH3 0x430 JUMP JUMPDEST SWAP3 POP DUP2 SWAP3 PUSH3 0x422 JUMP JUMPDEST PUSH4 0x4E487B71 PUSH1 0xE0 SHL DUP12 MSTORE PUSH1 0x22 PUSH1 0x4 MSTORE PUSH1 0x24 DUP12 REVERT JUMPDEST SWAP4 PUSH1 0x7F AND SWAP4 PUSH3 0x10D JUMP JUMPDEST PUSH4 0x4E487B71 PUSH1 0xE0 SHL PUSH1 0x0 MSTORE PUSH1 0x41 PUSH1 0x4 MSTORE PUSH1 0x24 PUSH1 0x0 REVERT JUMPDEST DUP9 MLOAD PUSH3 0x461BCD PUSH1 0xE5 SHL DUP2 MSTORE PUSH1 0x4 DUP2 ADD DUP8 SWAP1 MSTORE PUSH1 0x12 PUSH1 0x24 DUP3 ADD MSTORE PUSH18 0xE8E4C2C8CA40CCCACA40E8DEDE40D0D2CED PUSH1 0x73 SHL PUSH1 0x44 DUP3 ADD MSTORE PUSH1 0x64 SWAP1 REVERT JUMPDEST DUP9 MLOAD PUSH3 0x461BCD PUSH1 0xE5 SHL DUP2 MSTORE PUSH1 0x4 DUP2 ADD DUP8 SWAP1 MSTORE PUSH1 0x11 PUSH1 0x24 DUP3 ADD MSTORE PUSH17 0x1C1B185D199BDC9B481C995C5D5A5C9959 PUSH1 0x7A SHL PUSH1 0x44 DUP3 ADD MSTORE PUSH1 0x64 SWAP1 REVERT JUMPDEST DUP10 MLOAD PUSH3 0x461BCD PUSH1 0xE5 SHL DUP2 MSTORE PUSH1 0x4 DUP2 ADD DUP9 SWAP1 MSTORE PUSH1 0x10 PUSH1 0x24 DUP3 ADD MSTORE PUSH16 0x18DC99585D1BDC881C995C5D5A5C9959 PUSH1 0x82 SHL PUSH1 0x44 DUP3 ADD MSTORE PUSH1 0x64 SWAP1 REVERT JUMPDEST DUP10 MLOAD PUSH3 0x461BCD PUSH1 0xE5 SHL DUP2 MSTORE PUSH1 0x4 DUP2 ADD DUP9 SWAP1 MSTORE PUSH1 0x10 PUSH1 0x24 DUP3 ADD MSTORE PUSH16 0x199858DD1BDC9E481C995C5D5A5C9959 PUSH1 0x82 SHL PUSH1 0x44 DUP3 ADD MSTORE PUSH1 0x64 SWAP1 REVERT JUMPDEST DUP8 MLOAD PUSH3 0x461BCD PUSH1 0xE5 SHL DUP2 MSTORE PUSH1 0x4 DUP2 ADD DUP7 SWAP1 MSTORE PUSH1 0xF PUSH1 0x24 DUP3 ADD MSTORE PUSH15 0x1CDD5C1C1B1E481C995C5D5A5C9959 PUSH1 0x8A SHL PUSH1 0x44 DUP3 ADD MSTORE PUSH1 0x64 SWAP1 REVERT JUMPDEST DUP8 MLOAD PUSH3 0x461BCD PUSH1 0xE5 SHL DUP2 MSTORE PUSH1 0x4 DUP2 ADD DUP7 SWAP1 MSTORE PUSH1 0xF PUSH1 0x24 DUP3 ADD MSTORE PUSH15 0x1CDE5B589BDB081C995C5D5A5C9959 PUSH1 0x8A SHL PUSH1 0x44 DUP3 ADD MSTORE PUSH1 0x64 SWAP1 REVERT JUMPDEST DUP8 MLOAD PUSH3 0x461BCD PUSH1 0xE5 SHL DUP2 MSTORE PUSH1 0x4 DUP2 ADD DUP7 SWAP1 MSTORE PUSH1 0xD PUSH1 0x24 DUP3 ADD MSTORE PUSH13 0x1B985B59481C995C5D5A5C9959 PUSH1 0x9A SHL PUSH1 0x44 DUP3 ADD MSTORE PUSH1 0x64 SWAP1 REVERT JUMPDEST PUSH1 0x0 DUP1 REVERT JUMPDEST PUSH1 0x40 MLOAD SWAP2 SWAP1 PUSH1 0x1F ADD PUSH1 0x1F NOT AND DUP3 ADD PUSH1 0x1 PUSH1 0x1 PUSH1 0x40 SHL SUB DUP2 GT DUP4 DUP3 LT OR PUSH3 0x478 JUMPI PUSH1 0x40 MSTORE JUMP JUMPDEST SWAP2 SWAP1 DUP1 PUSH1 0x1F DUP5 ADD SLT ISZERO PUSH3 0x60D JUMPI DUP3 MLOAD PUSH1 0x1 PUSH1 0x1 PUSH1 0x40 SHL SUB DUP2 GT PUSH3 0x478 JUMPI PUSH1 0x20 SWAP1 PUSH3 0x66E PUSH1 0x1F DUP3 ADD PUSH1 0x1F NOT AND DUP4 ADD PUSH3 0x612 JUMP JUMPDEST SWAP3 DUP2 DUP5 MSTORE DUP3 DUP3 DUP8 ADD ADD GT PUSH3 0x60D JUMPI PUSH1 0x0 JUMPDEST DUP2 DUP2 LT PUSH3 0x696 JUMPI POP DUP3 PUSH1 0x0 SWAP4 SWAP5 SWAP6 POP ADD ADD MSTORE SWAP1 JUMP JUMPDEST DUP6 DUP2 ADD DUP4 ADD MLOAD DUP5 DUP3 ADD DUP5 ADD MSTORE DUP3 ADD PUSH3 0x680 JUMP JUMPDEST MLOAD SWAP1 PUSH1 0x1 PUSH1 0x1 PUSH1 0xA0 SHL SUB DUP3 AND DUP3 SUB PUSH3 0x60D JUMPI JUMP INVALID PUSH1 0x80 PUSH1 0x40 DUP2 DUP2 MSTORE PUSH1 0x4 SWAP2 DUP3 CALLDATASIZE LT ISZERO PUSH2 0x16 JUMPI PUSH1 0x0 DUP1 REVERT JUMPDEST PUSH1 0x0 SWAP3 DUP4 CALLDATALOAD PUSH1 0xE0 SHR SWAP2 DUP3 PUSH4 0x2D05D3F EQ PUSH2 0xB94 JUMPI POP DUP2 PUSH4 0x44991D8 EQ PUSH2 0xB75 JUMPI DUP2 PUSH4 0x6FDDE03 EQ PUSH2 0xA9B JUMPI DUP2 PUSH4 0x95EA7B3 EQ PUSH2 0xA2A JUMPI DUP2 PUSH4 0x17773EBB EQ PUSH2 0x9EF JUMPI DUP2 PUSH4 0x18160DDD EQ PUSH2 0x9D0 JUMPI DUP2 PUSH4 0x1E26906B EQ PUSH2 0x9A9 JUMPI DUP2 PUSH4 0x2044DBB2 EQ PUSH2 0x98C JUMPI DUP2 PUSH4 0x22DCD13E EQ PUSH2 0x951 JUMPI DUP2 PUSH4 0x23B872DD EQ PUSH2 0x84A JUMPI DUP2 PUSH4 0x2BEBF6BF EQ PUSH2 0x780 JUMPI DUP2 PUSH4 0x2F9F1032 EQ PUSH2 0x764 JUMPI DUP2 PUSH4 0x313CE567 EQ PUSH2 0x748 JUMPI DUP2 PUSH4 0x351FEE46 EQ PUSH2 0x684 JUMPI DUP2 PUSH4 0x5B632360 EQ PUSH2 0x667 JUMPI DUP2 PUSH4 0x5FAAD8C5 EQ PUSH2 0x62C JUMPI DUP2 PUSH4 0x70A08231 EQ PUSH2 0x5F4 JUMPI DUP2 PUSH4 0x95D89B41 EQ PUSH2 0x4D1 JUMPI DUP2 PUSH4 0x9E5F358A EQ PUSH2 0x4B3 JUMPI DUP2 PUSH4 0xA9059CBB EQ PUSH2 0x482 JUMPI DUP2 PUSH4 0xAE36F5C8 EQ PUSH2 0x32E JUMPI DUP2 PUSH4 0xC45A0155 EQ PUSH2 0x2EA JUMPI DUP2 PUSH4 0xDC4B1C0E EQ PUSH2 0x220 JUMPI POP DUP1 PUSH4 0xDD62ED3E EQ PUSH2 0x1D8 JUMPI DUP1 PUSH4 0xE1A45218 EQ PUSH2 0x1BC JUMPI DUP1 PUSH4 0xEB13554F EQ PUSH2 0x179 JUMPI PUSH4 0xF242AB41 EQ PUSH2 0x14E JUMPI PUSH1 0x0 DUP1 REVERT JUMPDEST CALLVALUE PUSH2 0x175 JUMPI DUP2 PUSH1 0x3 NOT CALLDATASIZE ADD SLT PUSH2 0x175 JUMPI PUSH1 0x3 SLOAD SWAP1 MLOAD PUSH1 0x1 PUSH1 0x1 PUSH1 0xA0 SHL SUB SWAP1 SWAP2 AND DUP2 MSTORE PUSH1 0x20 SWAP1 RETURN JUMPDEST POP DUP1 REVERT JUMPDEST POP CALLVALUE PUSH2 0x175 JUMPI DUP2 PUSH1 0x3 NOT CALLDATASIZE ADD SLT PUSH2 0x175 JUMPI MLOAD PUSH32 0x0 PUSH1 0x1 PUSH1 0x1 PUSH1 0xA0 SHL SUB AND DUP2 MSTORE PUSH1 0x20 SWAP1 RETURN JUMPDEST POP CALLVALUE PUSH2 0x175 JUMPI DUP2 PUSH1 0x3 NOT CALLDATASIZE ADD SLT PUSH2 0x175 JUMPI PUSH1 0x20 SWAP1 MLOAD PUSH2 0x2710 DUP2 MSTORE RETURN JUMPDEST POP CALLVALUE PUSH2 0x175 JUMPI DUP1 PUSH1 0x3 NOT CALLDATASIZE ADD SLT PUSH2 0x175 JUMPI DUP1 PUSH1 0x20 SWAP3 PUSH2 0x1F5 PUSH2 0xC20 JUMP JUMPDEST PUSH2 0x1FD PUSH2 0xC3B JUMP JUMPDEST PUSH1 0x1 PUSH1 0x1 PUSH1 0xA0 SHL SUB SWAP2 DUP3 AND DUP4 MSTORE PUSH1 0x7 DUP7 MSTORE DUP4 DUP4 KECCAK256 SWAP2 AND DUP3 MSTORE DUP5 MSTORE KECCAK256 SLOAD SWAP1 MLOAD SWAP1 DUP2 MSTORE RETURN JUMPDEST SWAP1 POP CALLVALUE PUSH2 0x2E6 JUMPI DUP3 PUSH1 0x3 NOT CALLDATASIZE ADD SLT PUSH2 0x2E6 JUMPI PUSH2 0x266 CALLER PUSH32 0x0 PUSH1 0x1 PUSH1 0x1 PUSH1 0xA0 SHL SUB AND EQ PUSH2 0xCB3 JUMP JUMPDEST PUSH1 0x3 SLOAD SWAP2 PUSH1 0xFF DUP4 PUSH1 0xA0 SHR AND PUSH2 0x2AF JUMPI POP POP PUSH1 0xFF PUSH1 0xA0 SHL NOT AND PUSH1 0x1 PUSH1 0xA0 SHL OR PUSH1 0x3 SSTORE CALLER PUSH32 0x60B9765CF08F04B4850CD9A0F8DA6FA9E854AFD328723CC3F6ADEA6FB4F18D23 DUP3 DUP1 LOG2 DUP1 RETURN JUMPDEST SWAP1 PUSH1 0x20 PUSH1 0x64 SWAP3 MLOAD SWAP2 PUSH3 0x461BCD PUSH1 0xE5 SHL DUP4 MSTORE DUP3 ADD MSTORE PUSH1 0x11 PUSH1 0x24 DUP3 ADD MSTORE PUSH17 0x185B1C9958591E481C995B9BDD5B98D959 PUSH1 0x7A SHL PUSH1 0x44 DUP3 ADD MSTORE REVERT JUMPDEST DUP3 DUP1 REVERT JUMPDEST POP POP CALLVALUE PUSH2 0x175 JUMPI DUP2 PUSH1 0x3 NOT CALLDATASIZE ADD SLT PUSH2 0x175 JUMPI MLOAD PUSH32 0x0 PUSH1 0x1 PUSH1 0x1 PUSH1 0xA0 SHL SUB AND DUP2 MSTORE PUSH1 0x20 SWAP1 RETURN JUMPDEST DUP4 SWAP2 POP CALLVALUE PUSH2 0x175 JUMPI PUSH1 0x20 CALLDATASIZE PUSH1 0x3 NOT ADD SLT PUSH2 0x175 JUMPI PUSH2 0x34A PUSH2 0xC20 JUMP JUMPDEST PUSH1 0x1 PUSH1 0x1 PUSH1 0xA0 SHL SUB SWAP1 DUP2 SWAP1 PUSH2 0x382 CALLER PUSH32 0x0 DUP5 AND EQ PUSH2 0xCB3 JUMP JUMPDEST AND SWAP2 DUP3 ISZERO PUSH2 0x44F JUMPI PUSH1 0x3 SLOAD SWAP2 PUSH1 0xFF DUP4 PUSH1 0xA0 SHR AND PUSH2 0x40C JUMPI DUP3 AND PUSH2 0x3D6 JUMPI POP PUSH1 0x1 PUSH1 0x1 PUSH1 0xA0 SHL SUB NOT AND DUP2 OR PUSH1 0x3 SSTORE PUSH32 0xC3CD203585FBC28DCC1692611D2EBC4190312A5B189047DF793C69B157AA0D29 DUP3 DUP1 LOG2 DUP1 RETURN JUMPDEST PUSH1 0x64 SWAP1 PUSH1 0x20 DUP7 MLOAD SWAP2 PUSH3 0x461BCD PUSH1 0xE5 SHL DUP4 MSTORE DUP3 ADD MSTORE PUSH1 0x10 PUSH1 0x24 DUP3 ADD MSTORE PUSH16 0x1C185A5C88185B1C9958591E481CD95D PUSH1 0x82 SHL PUSH1 0x44 DUP3 ADD MSTORE REVERT JUMPDEST DUP6 MLOAD PUSH3 0x461BCD PUSH1 0xE5 SHL DUP2 MSTORE PUSH1 0x20 DUP2 DUP5 ADD MSTORE PUSH1 0x19 PUSH1 0x24 DUP3 ADD MSTORE PUSH32 0x666163746F727920636F6E74726F6C2072656E6F756E63656400000000000000 PUSH1 0x44 DUP3 ADD MSTORE PUSH1 0x64 SWAP1 REVERT JUMPDEST PUSH1 0x64 SWAP1 PUSH1 0x20 DUP7 MLOAD SWAP2 PUSH3 0x461BCD PUSH1 0xE5 SHL DUP4 MSTORE DUP3 ADD MSTORE PUSH1 0xD PUSH1 0x24 DUP3 ADD MSTORE PUSH13 0x1C185A5C881C995C5D5A5C9959 PUSH1 0x9A SHL PUSH1 0x44 DUP3 ADD MSTORE REVERT JUMPDEST POP POP CALLVALUE PUSH2 0x175 JUMPI DUP1 PUSH1 0x3 NOT CALLDATASIZE ADD SLT PUSH2 0x175 JUMPI PUSH1 0x20 SWAP1 PUSH2 0x4AC PUSH2 0x4A2 PUSH2 0xC20 JUMP JUMPDEST PUSH1 0x24 CALLDATALOAD SWAP1 CALLER PUSH2 0xD0E JUMP JUMPDEST MLOAD PUSH1 0x1 DUP2 MSTORE RETURN JUMPDEST SWAP1 POP CALLVALUE PUSH2 0x2E6 JUMPI DUP3 PUSH1 0x3 NOT CALLDATASIZE ADD SLT PUSH2 0x2E6 JUMPI PUSH1 0x20 SWAP3 POP SLOAD SWAP1 MLOAD SWAP1 DUP2 MSTORE RETURN JUMPDEST DUP4 DUP4 CALLVALUE PUSH2 0x175 JUMPI DUP2 PUSH1 0x3 NOT CALLDATASIZE ADD SLT PUSH2 0x175 JUMPI DUP1 MLOAD SWAP1 DUP3 PUSH1 0x1 DUP1 SLOAD SWAP1 DUP2 PUSH1 0x1 SHR SWAP1 PUSH1 0x1 DUP4 AND SWAP3 DUP4 ISZERO PUSH2 0x5EA JUMPI JUMPDEST PUSH1 0x20 SWAP4 DUP5 DUP5 LT DUP2 EQ PUSH2 0x5D7 JUMPI DUP4 DUP9 MSTORE SWAP1 DUP2 ISZERO PUSH2 0x5BB JUMPI POP PUSH1 0x1 EQ PUSH2 0x565 JUMPI JUMPDEST POP POP POP DUP3 SWAP1 SUB PUSH1 0x1F ADD PUSH1 0x1F NOT AND DUP3 ADD SWAP3 PUSH8 0xFFFFFFFFFFFFFFFF DUP5 GT DUP4 DUP6 LT OR PUSH2 0x552 JUMPI POP DUP3 SWAP2 DUP3 PUSH2 0x54E SWAP3 MSTORE DUP3 PUSH2 0xBD7 JUMP JUMPDEST SUB SWAP1 RETURN JUMPDEST PUSH4 0x4E487B71 PUSH1 0xE0 SHL DUP2 MSTORE PUSH1 0x41 DUP6 MSTORE PUSH1 0x24 SWAP1 REVERT JUMPDEST PUSH1 0x1 DUP8 MSTORE SWAP2 SWAP3 POP DUP6 SWAP2 DUP4 PUSH32 0xB10E2D527612073B26EECDFD717E6A320CF44B4AFAC2B0732D9FCBE2B7FA0CF6 JUMPDEST DUP4 DUP6 LT PUSH2 0x5A7 JUMPI POP POP POP POP DUP4 ADD ADD DUP6 DUP1 DUP1 PUSH2 0x51C JUMP JUMPDEST DUP1 SLOAD DUP9 DUP7 ADD DUP4 ADD MSTORE SWAP4 ADD SWAP3 DUP5 SWAP1 DUP3 ADD PUSH2 0x591 JUMP JUMPDEST PUSH1 0xFF NOT AND DUP8 DUP6 ADD MSTORE POP POP ISZERO ISZERO PUSH1 0x5 SHL DUP5 ADD ADD SWAP1 POP DUP6 DUP1 DUP1 PUSH2 0x51C JUMP JUMPDEST PUSH4 0x4E487B71 PUSH1 0xE0 SHL DUP10 MSTORE PUSH1 0x22 DUP11 MSTORE PUSH1 0x24 DUP10 REVERT JUMPDEST SWAP2 PUSH1 0x7F AND SWAP2 PUSH2 0x4FD JUMP JUMPDEST POP POP CALLVALUE PUSH2 0x175 JUMPI PUSH1 0x20 CALLDATASIZE PUSH1 0x3 NOT ADD SLT PUSH2 0x175 JUMPI PUSH1 0x20 SWAP2 DUP2 SWAP1 PUSH1 0x1 PUSH1 0x1 PUSH1 0xA0 SHL SUB PUSH2 0x61C PUSH2 0xC20 JUMP JUMPDEST AND DUP2 MSTORE PUSH1 0x6 DUP5 MSTORE KECCAK256 SLOAD SWAP1 MLOAD SWAP1 DUP2 MSTORE RETURN JUMPDEST POP POP CALLVALUE PUSH2 0x175 JUMPI DUP2 PUSH1 0x3 NOT CALLDATASIZE ADD SLT PUSH2 0x175 JUMPI PUSH1 0x20 SWAP1 MLOAD PUSH32 0x0 DUP2 MSTORE RETURN JUMPDEST POP POP CALLVALUE PUSH2 0x175 JUMPI DUP2 PUSH1 0x3 NOT CALLDATASIZE ADD SLT PUSH2 0x175 JUMPI PUSH1 0x20 SWAP1 MLOAD PUSH2 0x3E8 DUP2 MSTORE RETURN JUMPDEST DUP4 DUP4 CALLVALUE PUSH2 0x175 JUMPI DUP2 PUSH1 0x3 NOT CALLDATASIZE ADD SLT PUSH2 0x175 JUMPI PUSH32 0x0 PUSH1 0x1 PUSH1 0x1 PUSH1 0xA0 SHL SUB DUP2 AND SWAP1 CALLER DUP3 SWAP1 SUB PUSH2 0x716 JUMPI DUP5 PUSH2 0x6E8 SWAP2 PUSH1 0x20 SWAP7 SLOAD SWAP6 DUP7 SWAP3 PUSH2 0x6E1 DUP5 ISZERO ISZERO PUSH2 0xC74 JUMP JUMPDEST SSTORE ADDRESS PUSH2 0xF43 JUMP JUMPDEST PUSH32 0xD046302BDC39599E60A5981E59227DCD1C643F512F56F2E984390C3AC6EADEDB DUP5 DUP4 MLOAD DUP6 DUP2 MSTORE LOG2 MLOAD SWAP1 DUP2 MSTORE RETURN JUMPDEST DUP3 MLOAD PUSH3 0x461BCD PUSH1 0xE5 SHL DUP2 MSTORE PUSH1 0x20 DUP2 DUP8 ADD MSTORE PUSH1 0xC PUSH1 0x24 DUP3 ADD MSTORE PUSH12 0x37B7363C9031B932B0BA37B9 PUSH1 0xA1 SHL PUSH1 0x44 DUP3 ADD MSTORE PUSH1 0x64 SWAP1 REVERT JUMPDEST POP POP CALLVALUE PUSH2 0x175 JUMPI DUP2 PUSH1 0x3 NOT CALLDATASIZE ADD SLT PUSH2 0x175 JUMPI PUSH1 0x20 SWAP1 MLOAD PUSH1 0x12 DUP2 MSTORE RETURN JUMPDEST POP POP CALLVALUE PUSH2 0x175 JUMPI DUP2 PUSH1 0x3 NOT CALLDATASIZE ADD SLT PUSH2 0x175 JUMPI PUSH1 0x20 SWAP1 MLOAD PUSH1 0x32 DUP2 MSTORE RETURN JUMPDEST SWAP2 SWAP1 POP CALLVALUE PUSH2 0x2E6 JUMPI DUP3 PUSH1 0x3 NOT CALLDATASIZE ADD SLT PUSH2 0x2E6 JUMPI PUSH32 0x0 SWAP2 PUSH1 0x1 PUSH1 0x1 PUSH1 0xA0 SHL SUB DUP4 AND SWAP1 CALLER DUP3 SWAP1 SUB PUSH2 0x817 JUMPI POP PUSH2 0x7E9 PUSH1 0x20 SWAP5 PUSH1 0x5 SLOAD SWAP5 DUP6 SWAP2 PUSH2 0x7E0 DUP4 ISZERO ISZERO PUSH2 0xC74 JUMP JUMPDEST PUSH1 0x5 SSTORE ADDRESS PUSH2 0xF43 JUMP JUMPDEST PUSH32 0x636F1043CFF5F4C437926A4412416778DDC5E970FEB177685B587E81DAD9095 DUP5 DUP4 MLOAD DUP6 DUP2 MSTORE LOG2 MLOAD SWAP1 DUP2 MSTORE RETURN JUMPDEST PUSH1 0x64 SWAP1 PUSH1 0x20 DUP5 MLOAD SWAP2 PUSH3 0x461BCD PUSH1 0xE5 SHL DUP4 MSTORE DUP3 ADD MSTORE PUSH1 0xD PUSH1 0x24 DUP3 ADD MSTORE PUSH13 0x6F6E6C7920706C6174666F726D PUSH1 0x98 SHL PUSH1 0x44 DUP3 ADD MSTORE REVERT JUMPDEST SWAP2 SWAP1 POP CALLVALUE PUSH2 0x2E6 JUMPI PUSH1 0x60 CALLDATASIZE PUSH1 0x3 NOT ADD SLT PUSH2 0x2E6 JUMPI PUSH2 0x866 PUSH2 0xC20 JUMP JUMPDEST PUSH2 0x86E PUSH2 0xC3B JUMP JUMPDEST PUSH1 0x44 CALLDATALOAD SWAP2 PUSH1 0x1 DUP1 PUSH1 0xA0 SHL SUB DUP2 AND DUP1 DUP8 MSTORE PUSH1 0x20 SWAP6 PUSH1 0x7 DUP8 MSTORE DUP6 DUP9 KECCAK256 CALLER DUP10 MSTORE DUP8 MSTORE DUP6 DUP9 KECCAK256 SLOAD SWAP1 DUP6 DUP3 LT PUSH2 0x919 JUMPI POP SWAP5 DUP1 SWAP7 SWAP8 PUSH2 0x4AC SWAP7 DUP7 PUSH1 0x0 NOT DUP3 SUB PUSH2 0x8B7 JUMPI JUMPDEST POP POP POP POP POP PUSH2 0xD0E JUMP JUMPDEST PUSH2 0x8C0 SWAP2 PUSH2 0xC51 JUMP JUMPDEST DUP4 DUP3 MSTORE PUSH1 0x7 DUP11 MSTORE DUP3 DUP3 KECCAK256 CALLER DUP4 MSTORE DUP11 MSTORE DUP3 DUP3 KECCAK256 SSTORE DUP3 DUP2 MSTORE PUSH1 0x7 DUP10 MSTORE DUP2 DUP2 KECCAK256 CALLER DUP3 MSTORE DUP10 MSTORE KECCAK256 SLOAD SWAP1 DUP7 MLOAD SWAP2 DUP3 MSTORE PUSH32 0x8C5BE1E5EBEC7D5BD14F71427D1E84F3DD0314C0F7B2291E5B200AC8C7C3B925 DUP9 CALLER SWAP4 LOG3 CODESIZE DUP6 DUP2 DUP1 DUP7 PUSH2 0x8AD JUMP JUMPDEST DUP7 MLOAD PUSH3 0x461BCD PUSH1 0xE5 SHL DUP2 MSTORE SWAP1 DUP2 ADD DUP9 SWAP1 MSTORE PUSH1 0x12 PUSH1 0x24 DUP3 ADD MSTORE PUSH18 0x185B1B1BDDD85B98D948195E18D959591959 PUSH1 0x72 SHL PUSH1 0x44 DUP3 ADD MSTORE PUSH1 0x64 SWAP1 REVERT JUMPDEST POP POP CALLVALUE PUSH2 0x175 JUMPI DUP2 PUSH1 0x3 NOT CALLDATASIZE ADD SLT PUSH2 0x175 JUMPI PUSH1 0x20 SWAP1 MLOAD PUSH32 0x0 DUP2 MSTORE RETURN JUMPDEST POP POP CALLVALUE PUSH2 0x175 JUMPI DUP2 PUSH1 0x3 NOT CALLDATASIZE ADD SLT PUSH2 0x175 JUMPI PUSH1 0x20 SWAP1 MLOAD PUSH2 0xFA0 DUP2 MSTORE RETURN JUMPDEST POP POP CALLVALUE PUSH2 0x175 JUMPI DUP2 PUSH1 0x3 NOT CALLDATASIZE ADD SLT PUSH2 0x175 JUMPI PUSH1 0x20 SWAP1 PUSH1 0xFF PUSH1 0x3 SLOAD PUSH1 0xA0 SHR AND SWAP1 MLOAD SWAP1 ISZERO ISZERO DUP2 MSTORE RETURN JUMPDEST POP POP CALLVALUE PUSH2 0x175 JUMPI DUP2 PUSH1 0x3 NOT CALLDATASIZE ADD SLT PUSH2 0x175 JUMPI PUSH1 0x20 SWAP1 PUSH1 0x2 SLOAD SWAP1 MLOAD SWAP1 DUP2 MSTORE RETURN JUMPDEST POP POP CALLVALUE PUSH2 0x175 JUMPI DUP2 PUSH1 0x3 NOT CALLDATASIZE ADD SLT PUSH2 0x175 JUMPI PUSH1 0x20 SWAP1 MLOAD PUSH32 0x0 DUP2 MSTORE RETURN JUMPDEST POP POP CALLVALUE PUSH2 0x175 JUMPI DUP1 PUSH1 0x3 NOT CALLDATASIZE ADD SLT PUSH2 0x175 JUMPI PUSH1 0x20 SWAP2 DUP2 PUSH2 0xA48 PUSH2 0xC20 JUMP JUMPDEST SWAP2 PUSH1 0x24 CALLDATALOAD SWAP2 DUP3 SWAP2 CALLER DUP2 MSTORE PUSH1 0x7 DUP8 MSTORE DUP2 DUP2 KECCAK256 SWAP5 PUSH1 0x1 DUP1 PUSH1 0xA0 SHL SUB AND SWAP5 DUP6 DUP3 MSTORE DUP8 MSTORE KECCAK256 SSTORE DUP3 MLOAD SWAP1 DUP2 MSTORE PUSH32 0x8C5BE1E5EBEC7D5BD14F71427D1E84F3DD0314C0F7B2291E5B200AC8C7C3B925 DUP5 CALLER SWAP3 LOG3 MLOAD PUSH1 0x1 DUP2 MSTORE RETURN JUMPDEST DUP4 DUP4 CALLVALUE PUSH2 0x175 JUMPI DUP2 PUSH1 0x3 NOT CALLDATASIZE ADD SLT PUSH2 0x175 JUMPI DUP1 MLOAD SWAP1 DUP3 DUP4 SLOAD PUSH1 0x1 DUP2 PUSH1 0x1 SHR SWAP1 PUSH1 0x1 DUP4 AND SWAP3 DUP4 ISZERO PUSH2 0xB6B JUMPI JUMPDEST PUSH1 0x20 SWAP4 DUP5 DUP5 LT DUP2 EQ PUSH2 0x5D7 JUMPI DUP4 DUP9 MSTORE SWAP1 DUP2 ISZERO PUSH2 0x5BB JUMPI POP PUSH1 0x1 EQ PUSH2 0xB16 JUMPI POP POP POP DUP3 SWAP1 SUB PUSH1 0x1F ADD PUSH1 0x1F NOT AND DUP3 ADD SWAP3 PUSH8 0xFFFFFFFFFFFFFFFF DUP5 GT DUP4 DUP6 LT OR PUSH2 0x552 JUMPI POP DUP3 SWAP2 DUP3 PUSH2 0x54E SWAP3 MSTORE DUP3 PUSH2 0xBD7 JUMP JUMPDEST DUP7 DUP1 MSTORE SWAP2 SWAP3 POP DUP6 SWAP2 DUP4 PUSH32 0x290DECD9548B62A8D60345A988386FC84BA6BC95484008F6362F93160EF3E563 JUMPDEST DUP4 DUP6 LT PUSH2 0xB57 JUMPI POP POP POP POP DUP4 ADD ADD DUP6 DUP1 DUP1 PUSH2 0x51C JUMP JUMPDEST DUP1 SLOAD DUP9 DUP7 ADD DUP4 ADD MSTORE SWAP4 ADD SWAP3 DUP5 SWAP1 DUP3 ADD PUSH2 0xB41 JUMP JUMPDEST SWAP2 PUSH1 0x7F AND SWAP2 PUSH2 0xAC6 JUMP JUMPDEST POP POP CALLVALUE PUSH2 0x175 JUMPI DUP2 PUSH1 0x3 NOT CALLDATASIZE ADD SLT PUSH2 0x175 JUMPI PUSH1 0x20 SWAP1 PUSH1 0x5 SLOAD SWAP1 MLOAD SWAP1 DUP2 MSTORE RETURN JUMPDEST DUP5 SWAP1 CALLVALUE PUSH2 0x175 JUMPI DUP2 PUSH1 0x3 NOT CALLDATASIZE ADD SLT PUSH2 0x175 JUMPI PUSH32 0x0 PUSH1 0x1 PUSH1 0x1 PUSH1 0xA0 SHL SUB AND DUP2 MSTORE PUSH1 0x20 SWAP1 RETURN JUMPDEST PUSH1 0x20 DUP1 DUP3 MSTORE DUP3 MLOAD DUP2 DUP4 ADD DUP2 SWAP1 MSTORE SWAP1 SWAP4 SWAP3 PUSH1 0x0 JUMPDEST DUP3 DUP2 LT PUSH2 0xC0C JUMPI POP POP PUSH1 0x40 SWAP3 SWAP4 POP PUSH1 0x0 DUP4 DUP3 DUP5 ADD ADD MSTORE PUSH1 0x1F DUP1 NOT SWAP2 ADD AND ADD ADD SWAP1 JUMP JUMPDEST DUP2 DUP2 ADD DUP7 ADD MLOAD DUP5 DUP3 ADD PUSH1 0x40 ADD MSTORE DUP6 ADD PUSH2 0xBEA JUMP JUMPDEST PUSH1 0x4 CALLDATALOAD SWAP1 PUSH1 0x1 PUSH1 0x1 PUSH1 0xA0 SHL SUB DUP3 AND DUP3 SUB PUSH2 0xC36 JUMPI JUMP JUMPDEST PUSH1 0x0 DUP1 REVERT JUMPDEST PUSH1 0x24 CALLDATALOAD SWAP1 PUSH1 0x1 PUSH1 0x1 PUSH1 0xA0 SHL SUB DUP3 AND DUP3 SUB PUSH2 0xC36 JUMPI JUMP JUMPDEST SWAP2 SWAP1 DUP3 SUB SWAP2 DUP3 GT PUSH2 0xC5E JUMPI JUMP JUMPDEST PUSH4 0x4E487B71 PUSH1 0xE0 SHL PUSH1 0x0 MSTORE PUSH1 0x11 PUSH1 0x4 MSTORE PUSH1 0x24 PUSH1 0x0 REVERT JUMPDEST ISZERO PUSH2 0xC7B JUMPI JUMP JUMPDEST PUSH1 0x40 MLOAD PUSH3 0x461BCD PUSH1 0xE5 SHL DUP2 MSTORE PUSH1 0x20 PUSH1 0x4 DUP3 ADD MSTORE PUSH1 0x10 PUSH1 0x24 DUP3 ADD MSTORE PUSH16 0x6E6F7468696E6720746F20636C61696D PUSH1 0x80 SHL PUSH1 0x44 DUP3 ADD MSTORE PUSH1 0x64 SWAP1 REVERT JUMPDEST ISZERO PUSH2 0xCBA JUMPI JUMP JUMPDEST PUSH1 0x40 MLOAD PUSH3 0x461BCD PUSH1 0xE5 SHL DUP2 MSTORE PUSH1 0x20 PUSH1 0x4 DUP3 ADD MSTORE PUSH1 0xC PUSH1 0x24 DUP3 ADD MSTORE PUSH12 0x6F6E6C7920666163746F7279 PUSH1 0xA0 SHL PUSH1 0x44 DUP3 ADD MSTORE PUSH1 0x64 SWAP1 REVERT JUMPDEST DUP2 DUP2 MUL SWAP3 SWAP2 DUP2 ISZERO SWAP2 DUP5 DIV EQ OR ISZERO PUSH2 0xC5E JUMPI JUMP JUMPDEST SWAP2 SWAP1 DUP3 ADD DUP1 SWAP3 GT PUSH2 0xC5E JUMPI JUMP JUMPDEST PUSH1 0x1 PUSH1 0x1 PUSH1 0xA0 SHL SUB DUP1 DUP4 AND SWAP4 SWAP2 SWAP3 SWAP1 DUP5 ISZERO PUSH2 0xF0F JUMPI DUP4 AND SWAP3 PUSH1 0x0 SWAP2 DUP5 DUP4 MSTORE PUSH1 0x20 SWAP3 PUSH1 0x6 DUP5 MSTORE PUSH1 0x40 SWAP2 DUP3 DUP3 KECCAK256 SLOAD SWAP1 DUP7 DUP3 LT PUSH2 0xED9 JUMPI PUSH2 0xD4D SWAP1 DUP8 SWAP6 PUSH2 0xFFB JUMP JUMPDEST DUP1 PUSH2 0xED0 JUMPI JUMPDEST PUSH2 0xDA8 JUMPI JUMPDEST SWAP1 PUSH2 0xD85 PUSH32 0xDDF252AD1BE2C89B69C2B068FC378DAA952BA7F163C4A11628F55A4DF523B3EF SWAP7 DUP5 SWAP4 PUSH2 0xC51 JUMP JUMPDEST DUP8 DUP3 MSTORE PUSH1 0x6 DUP7 MSTORE DUP3 DUP3 KECCAK256 SSTORE DUP8 DUP2 MSTORE KECCAK256 PUSH2 0xD9F DUP4 DUP3 SLOAD PUSH2 0xD01 JUMP JUMPDEST SWAP1 SSTORE MLOAD SWAP1 DUP2 MSTORE LOG3 JUMP JUMPDEST PUSH2 0x2710 DUP9 DUP9 DUP3 PUSH2 0xDD8 PUSH32 0x0 DUP12 PUSH2 0xCEE JUMP JUMPDEST DIV SWAP3 DUP4 PUSH2 0xDE9 JUMPI JUMPDEST POP POP POP POP PUSH2 0xD58 JUMP JUMPDEST DUP7 SWAP6 SWAP5 SWAP4 SWAP8 POP PUSH32 0x0 PUSH2 0xE1A SWAP1 DUP12 PUSH2 0xCEE JUMP JUMPDEST DIV DUP6 DUP9 DUP11 DUP5 DUP14 PUSH2 0xE2A DUP7 DUP6 PUSH2 0xC51 JUMP JUMPDEST SWAP4 PUSH2 0xE34 SWAP2 PUSH2 0xC51 JUMP JUMPDEST SWAP12 DUP6 PUSH1 0x4 SLOAD SWAP1 PUSH2 0xE43 SWAP2 PUSH2 0xD01 JUMP JUMPDEST PUSH1 0x4 SSTORE DUP4 PUSH1 0x5 SLOAD SWAP1 PUSH2 0xE54 SWAP2 PUSH2 0xD01 JUMP JUMPDEST PUSH1 0x5 SSTORE ADDRESS DUP11 MSTORE PUSH1 0x6 DUP4 MSTORE DUP5 DUP11 KECCAK256 DUP2 DUP2 SLOAD SWAP1 PUSH2 0xE6E SWAP2 PUSH2 0xD01 JUMP JUMPDEST SWAP1 SSTORE DUP5 MLOAD SWAP1 DUP2 MSTORE ADDRESS SWAP3 PUSH32 0xDDF252AD1BE2C89B69C2B068FC378DAA952BA7F163C4A11628F55A4DF523B3EF SWAP2 LOG3 DUP2 MLOAD SWAP3 DUP4 MSTORE DUP11 DUP4 ADD MSTORE PUSH32 0x93BD139EA85D53C55E02DEC709128F827EBD5CB8A4A0D873193711B70B0A15B9 SWAP2 LOG3 SWAP1 SWAP2 DUP9 DUP9 CODESIZE PUSH2 0xDE0 JUMP JUMPDEST POP DUP6 ISZERO ISZERO PUSH2 0xD53 JUMP JUMPDEST DUP4 MLOAD PUSH3 0x461BCD PUSH1 0xE5 SHL DUP2 MSTORE PUSH1 0x4 DUP2 ADD DUP8 SWAP1 MSTORE PUSH1 0xF PUSH1 0x24 DUP3 ADD MSTORE PUSH15 0x62616C616E636520746F6F206C6F77 PUSH1 0x88 SHL PUSH1 0x44 DUP3 ADD MSTORE PUSH1 0x64 SWAP1 REVERT JUMPDEST PUSH1 0x40 MLOAD PUSH3 0x461BCD PUSH1 0xE5 SHL DUP2 MSTORE PUSH1 0x20 PUSH1 0x4 DUP3 ADD MSTORE PUSH1 0xC PUSH1 0x24 DUP3 ADD MSTORE PUSH12 0x7A65726F2061646472657373 PUSH1 0xA0 SHL PUSH1 0x44 DUP3 ADD MSTORE PUSH1 0x64 SWAP1 REVERT JUMPDEST PUSH1 0x1 DUP1 PUSH1 0xA0 SHL SUB DUP1 SWAP2 AND SWAP2 PUSH1 0x0 SWAP4 DUP4 DUP6 MSTORE PUSH1 0x6 PUSH1 0x20 MSTORE PUSH1 0x40 DUP6 KECCAK256 SLOAD DUP2 DUP2 LT PUSH2 0xFBD JUMPI PUSH32 0xDDF252AD1BE2C89B69C2B068FC378DAA952BA7F163C4A11628F55A4DF523B3EF SWAP4 PUSH1 0x20 SWAP4 PUSH2 0xF96 DUP5 PUSH1 0x40 SWAP5 PUSH2 0xC51 JUMP JUMPDEST DUP8 DUP10 MSTORE PUSH1 0x6 DUP7 MSTORE DUP4 DUP10 KECCAK256 SSTORE AND SWAP6 DUP7 DUP2 MSTORE KECCAK256 PUSH2 0xFB2 DUP3 DUP3 SLOAD PUSH2 0xD01 JUMP JUMPDEST SWAP1 SSTORE PUSH1 0x40 MLOAD SWAP1 DUP2 MSTORE LOG3 JUMP JUMPDEST PUSH1 0x40 MLOAD PUSH3 0x461BCD PUSH1 0xE5 SHL DUP2 MSTORE PUSH1 0x20 PUSH1 0x4 DUP3 ADD MSTORE PUSH1 0x16 PUSH1 0x24 DUP3 ADD MSTORE PUSH22 0x1A5B9CDD59999A58DA595B9D08199959481D985D5B1D PUSH1 0x52 SHL PUSH1 0x44 DUP3 ADD MSTORE PUSH1 0x64 SWAP1 REVERT JUMPDEST PUSH1 0x3 SLOAD PUSH1 0x1 PUSH1 0x1 PUSH1 0xA0 SHL SUB SWAP1 DUP2 AND SWAP2 DUP3 ISZERO PUSH2 0x102E JUMPI DUP2 AND DUP3 EQ SWAP3 DUP4 ISZERO PUSH2 0x1022 JUMPI JUMPDEST POP POP POP SWAP1 JUMP JUMPDEST AND EQ SWAP1 POP CODESIZE DUP1 DUP1 PUSH2 0x101C JUMP JUMPDEST POP POP POP POP PUSH1 0x0 SWAP1 JUMP INVALID LOG2 PUSH5 0x6970667358 0x22 SLT KECCAK256 DUP11 DUP14 JUMP 0xE2 MOD CODESIZE 0xF 0xE3 0xF SELFBALANCE 0xD3 PUSH21 0xF12CA945E94E5F473668AE158A7571AE27C8689C64 PUSH20 0x6F6C634300081800338620494F920761BD37321D 0xDD 0x1F SLT MCOPY ADDMOD TSTORE DUP2 TIMESTAMP PUSH9 0x20D3CA4E8B1F0AB3DA 0xB7 0xA5 PUSH25 0xDC7FEA29D21F6A39E7F1B42AD6100F8CDAFF48535852696A11 SSTORE 0xDE DUP11 DUP2 0xD8 PUSH27 0x6A26469706673582212205CE01D02D621153BAE7930AAD2DB3DB3 0x28 AND DUP11 ADDMOD 0xC5 RETURN LOG0 0xEB MSIZE OR SELFDESTRUCT 0x27 0xDA PUSH21 0xD5CD64736F6C634300081800330000000000000000 "},"methodIdentifiers":{"BPS_DENOMINATOR()":"e1a45218","BURN_ADDRESS()":"fccc2813","DEFAULT_TOKEN_TRADE_FEE_BPS()":"4a9ddfdd","MAX_TOKEN_TRADE_FEE_BPS()":"39cbfa1f","ROBINHOOD_CHAIN_ID()":"80fa02f7","createLaunch(string,string,string,string,uint256,uint256)":"1036338c","createLaunchInstant(string,string,string,string,uint256,uint256)":"96875aa0","createLaunchInstantWithTax(string,string,string,string,uint256,uint256,uint256)":"f0181892","createLaunchWithTax(string,string,string,string,uint256,uint256,uint256)":"3c0f4305","defaultDexRouter()":"d578192c","defaultFeeBps()":"bcae25a4","defaultGraduationTargetEth()":"63f0eb04","defaultLpRecipient()":"13ed4aa6","defaultVirtualEthReserve()":"1c8c0d92","defaultVirtualTokenReserve()":"93a8e04d","feeRecipient()":"46904840","getLaunch(uint256)":"5930d3ce","getLaunchCount()":"9ff0251f","getLaunches(uint256,uint256)":"9b3b9f98","launchFeeWei()":"83eeb3bb","owner()":"8da5cb5b","platformFeeRecipient()":"eb13554f","poolByToken(address)":"0b0420bb","setDefaults(address,address,uint256,uint256,uint256,uint256,uint256,address,address)":"b82942a5","transferOwnership(address)":"f2fde38b"}}}}}