{"contracts/mocks/MockDex.sol":{"MockDexPair":{"abi":[{"inputs":[{"internalType":"address","name":"_token","type":"address"},{"internalType":"address","name":"_weth","type":"address"},{"internalType":"address","name":"_router","type":"address"}],"stateMutability":"nonpayable","type":"constructor"},{"inputs":[],"name":"ethLiquidity","outputs":[{"internalType":"uint256","name":"","type":"uint256"}],"stateMutability":"view","type":"function"},{"inputs":[{"internalType":"uint256","name":"tokenAmount","type":"uint256"}],"name":"notifyTokenLiquidity","outputs":[],"stateMutability":"nonpayable","type":"function"},{"inputs":[],"name":"router","outputs":[{"internalType":"address","name":"","type":"address"}],"stateMutability":"view","type":"function"},{"inputs":[],"name":"token","outputs":[{"internalType":"address","name":"","type":"address"}],"stateMutability":"view","type":"function"},{"inputs":[],"name":"tokenLiquidity","outputs":[{"internalType":"uint256","name":"","type":"uint256"}],"stateMutability":"view","type":"function"},{"inputs":[],"name":"weth","outputs":[{"internalType":"address","name":"","type":"address"}],"stateMutability":"view","type":"function"},{"stateMutability":"payable","type":"receive"}],"evm":{"bytecode":{"linkReferences":{},"object":"60e0346100a057601f61037438819003918201601f19168301916001600160401b038311848410176100a5578084926060946040528339810103126100a057610047816100bb565b906100606040610059602084016100bb565b92016100bb565b9160805260a05260c0526040516102a490816100d082396080518160c0015260a051816101c2015260c051818181602101528181610108015261014f0152f35b600080fd5b634e487b7160e01b600052604160045260246000fd5b51906001600160a01b03821682036100a05756fe6080806040526004361015610060575b50361561001b57600080fd5b61004f337f00000000000000000000000000000000000000000000000000000000000000006001600160a01b031614610211565b61005b3460015461024b565b600155005b600090813560e01c90816301809a32146101f1575080633fc8cef3146101ac578063478aa2841461018f578063c223428914610137578063f887ea40146100f25763fc0c546a0361000f57346100ef57806003193601126100ef576040517f00000000000000000000000000000000000000000000000000000000000000006001600160a01b03168152602090f35b80fd5b50346100ef57806003193601126100ef576040517f00000000000000000000000000000000000000000000000000000000000000006001600160a01b03168152602090f35b50346100ef5760203660031901126100ef5761017d337f00000000000000000000000000000000000000000000000000000000000000006001600160a01b031614610211565b61018a600435825461024b565b815580f35b50346100ef57806003193601126100ef5760209054604051908152f35b50346100ef57806003193601126100ef576040517f00000000000000000000000000000000000000000000000000000000000000006001600160a01b03168152602090f35b90503461020d578160031936011261020d576020906001548152f35b5080fd5b1561021857565b60405162461bcd60e51b815260206004820152600b60248201526a37b7363c903937baba32b960a91b6044820152606490fd5b9190820180921161025857565b634e487b7160e01b600052601160045260246000fdfea26469706673582212202fe0f3f04894a9b16067ac041f54db2e17b77a74aa93afe73a0ba74f7a52aac764736f6c63430008180033","opcodes":"PUSH1 0xE0 CALLVALUE PUSH2 0xA0 JUMPI PUSH1 0x1F PUSH2 0x374 CODESIZE DUP2 SWAP1 SUB SWAP2 DUP3 ADD PUSH1 0x1F NOT AND DUP4 ADD SWAP2 PUSH1 0x1 PUSH1 0x1 PUSH1 0x40 SHL SUB DUP4 GT DUP5 DUP5 LT OR PUSH2 0xA5 JUMPI DUP1 DUP5 SWAP3 PUSH1 0x60 SWAP5 PUSH1 0x40 MSTORE DUP4 CODECOPY DUP2 ADD SUB SLT PUSH2 0xA0 JUMPI PUSH2 0x47 DUP2 PUSH2 0xBB JUMP JUMPDEST SWAP1 PUSH2 0x60 PUSH1 0x40 PUSH2 0x59 PUSH1 0x20 DUP5 ADD PUSH2 0xBB JUMP JUMPDEST SWAP3 ADD PUSH2 0xBB JUMP JUMPDEST SWAP2 PUSH1 0x80 MSTORE PUSH1 0xA0 MSTORE PUSH1 0xC0 MSTORE PUSH1 0x40 MLOAD PUSH2 0x2A4 SWAP1 DUP2 PUSH2 0xD0 DUP3 CODECOPY PUSH1 0x80 MLOAD DUP2 PUSH1 0xC0 ADD MSTORE PUSH1 0xA0 MLOAD DUP2 PUSH2 0x1C2 ADD MSTORE PUSH1 0xC0 MLOAD DUP2 DUP2 DUP2 PUSH1 0x21 ADD MSTORE DUP2 DUP2 PUSH2 0x108 ADD MSTORE PUSH2 0x14F ADD MSTORE RETURN JUMPDEST PUSH1 0x0 DUP1 REVERT JUMPDEST PUSH4 0x4E487B71 PUSH1 0xE0 SHL PUSH1 0x0 MSTORE PUSH1 0x41 PUSH1 0x4 MSTORE PUSH1 0x24 PUSH1 0x0 REVERT JUMPDEST MLOAD SWAP1 PUSH1 0x1 PUSH1 0x1 PUSH1 0xA0 SHL SUB DUP3 AND DUP3 SUB PUSH2 0xA0 JUMPI JUMP INVALID PUSH1 0x80 DUP1 PUSH1 0x40 MSTORE PUSH1 0x4 CALLDATASIZE LT ISZERO PUSH2 0x60 JUMPI JUMPDEST POP CALLDATASIZE ISZERO PUSH2 0x1B JUMPI PUSH1 0x0 DUP1 REVERT JUMPDEST PUSH2 0x4F CALLER PUSH32 0x0 PUSH1 0x1 PUSH1 0x1 PUSH1 0xA0 SHL SUB AND EQ PUSH2 0x211 JUMP JUMPDEST PUSH2 0x5B CALLVALUE PUSH1 0x1 SLOAD PUSH2 0x24B JUMP JUMPDEST PUSH1 0x1 SSTORE STOP JUMPDEST PUSH1 0x0 SWAP1 DUP2 CALLDATALOAD PUSH1 0xE0 SHR SWAP1 DUP2 PUSH4 0x1809A32 EQ PUSH2 0x1F1 JUMPI POP DUP1 PUSH4 0x3FC8CEF3 EQ PUSH2 0x1AC JUMPI DUP1 PUSH4 0x478AA284 EQ PUSH2 0x18F JUMPI DUP1 PUSH4 0xC2234289 EQ PUSH2 0x137 JUMPI DUP1 PUSH4 0xF887EA40 EQ PUSH2 0xF2 JUMPI PUSH4 0xFC0C546A SUB PUSH2 0xF JUMPI CALLVALUE PUSH2 0xEF JUMPI DUP1 PUSH1 0x3 NOT CALLDATASIZE ADD SLT PUSH2 0xEF JUMPI PUSH1 0x40 MLOAD PUSH32 0x0 PUSH1 0x1 PUSH1 0x1 PUSH1 0xA0 SHL SUB AND DUP2 MSTORE PUSH1 0x20 SWAP1 RETURN JUMPDEST DUP1 REVERT JUMPDEST POP CALLVALUE PUSH2 0xEF JUMPI DUP1 PUSH1 0x3 NOT CALLDATASIZE ADD SLT PUSH2 0xEF JUMPI PUSH1 0x40 MLOAD PUSH32 0x0 PUSH1 0x1 PUSH1 0x1 PUSH1 0xA0 SHL SUB AND DUP2 MSTORE PUSH1 0x20 SWAP1 RETURN JUMPDEST POP CALLVALUE PUSH2 0xEF JUMPI PUSH1 0x20 CALLDATASIZE PUSH1 0x3 NOT ADD SLT PUSH2 0xEF JUMPI PUSH2 0x17D CALLER PUSH32 0x0 PUSH1 0x1 PUSH1 0x1 PUSH1 0xA0 SHL SUB AND EQ PUSH2 0x211 JUMP JUMPDEST PUSH2 0x18A PUSH1 0x4 CALLDATALOAD DUP3 SLOAD PUSH2 0x24B JUMP JUMPDEST DUP2 SSTORE DUP1 RETURN JUMPDEST POP CALLVALUE PUSH2 0xEF JUMPI DUP1 PUSH1 0x3 NOT CALLDATASIZE ADD SLT PUSH2 0xEF JUMPI PUSH1 0x20 SWAP1 SLOAD PUSH1 0x40 MLOAD SWAP1 DUP2 MSTORE RETURN JUMPDEST POP CALLVALUE PUSH2 0xEF JUMPI DUP1 PUSH1 0x3 NOT CALLDATASIZE ADD SLT PUSH2 0xEF JUMPI PUSH1 0x40 MLOAD PUSH32 0x0 PUSH1 0x1 PUSH1 0x1 PUSH1 0xA0 SHL SUB AND DUP2 MSTORE PUSH1 0x20 SWAP1 RETURN JUMPDEST SWAP1 POP CALLVALUE PUSH2 0x20D JUMPI DUP2 PUSH1 0x3 NOT CALLDATASIZE ADD SLT PUSH2 0x20D JUMPI PUSH1 0x20 SWAP1 PUSH1 0x1 SLOAD DUP2 MSTORE RETURN JUMPDEST POP DUP1 REVERT JUMPDEST ISZERO PUSH2 0x218 JUMPI JUMP JUMPDEST PUSH1 0x40 MLOAD PUSH3 0x461BCD PUSH1 0xE5 SHL DUP2 MSTORE PUSH1 0x20 PUSH1 0x4 DUP3 ADD MSTORE PUSH1 0xB PUSH1 0x24 DUP3 ADD MSTORE PUSH11 0x37B7363C903937BABA32B9 PUSH1 0xA9 SHL PUSH1 0x44 DUP3 ADD MSTORE PUSH1 0x64 SWAP1 REVERT JUMPDEST SWAP2 SWAP1 DUP3 ADD DUP1 SWAP3 GT PUSH2 0x258 JUMPI JUMP JUMPDEST PUSH4 0x4E487B71 PUSH1 0xE0 SHL PUSH1 0x0 MSTORE PUSH1 0x11 PUSH1 0x4 MSTORE PUSH1 0x24 PUSH1 0x0 REVERT INVALID LOG2 PUSH5 0x6970667358 0x22 SLT KECCAK256 0x2F 0xE0 RETURN CREATE BASEFEE SWAP5 0xA9 0xB1 PUSH1 0x67 0xAC DIV 0x1F SLOAD 0xDB 0x2E OR 0xB7 PUSH27 0x74AA93AFE73A0BA74F7A52AAC764736F6C63430008180033000000 "},"methodIdentifiers":{"ethLiquidity()":"01809a32","notifyTokenLiquidity(uint256)":"c2234289","router()":"f887ea40","token()":"fc0c546a","tokenLiquidity()":"478aa284","weth()":"3fc8cef3"}}}}}