{"contracts/MemeLaunchFactory.sol":{"MemeLaunchFactory":{"abi":[{"inputs":[{"internalType":"address","name":"_feeRecipient","type":"address"},{"internalType":"address","name":"_platformFeeRecipient","type":"address"},{"internalType":"uint256","name":"_defaultFeeBps","type":"uint256"},{"internalType":"uint256","name":"_launchFeeWei","type":"uint256"},{"internalType":"uint256","name":"_defaultVirtualEthReserve","type":"uint256"},{"internalType":"uint256","name":"_defaultVirtualTokenReserve","type":"uint256"},{"internalType":"uint256","name":"_defaultGraduationTargetEth","type":"uint256"},{"internalType":"address","name":"_defaultDexRouter","type":"address"},{"internalType":"address","name":"_defaultLpRecipient","type":"address"}],"stateMutability":"nonpayable","type":"constructor"},{"anonymous":false,"inputs":[{"indexed":false,"internalType":"address","name":"feeRecipient","type":"address"},{"indexed":false,"internalType":"address","name":"platformFeeRecipient","type":"address"},{"indexed":false,"internalType":"uint256","name":"feeBps","type":"uint256"},{"indexed":false,"internalType":"uint256","name":"launchFeeWei","type":"uint256"},{"indexed":false,"internalType":"uint256","name":"virtualEthReserve","type":"uint256"},{"indexed":false,"internalType":"uint256","name":"virtualTokenReserve","type":"uint256"},{"indexed":false,"internalType":"uint256","name":"graduationTargetEth","type":"uint256"},{"indexed":false,"internalType":"address","name":"dexRouter","type":"address"},{"indexed":false,"internalType":"address","name":"lpRecipient","type":"address"}],"name":"DefaultsUpdated","type":"event"},{"anonymous":false,"inputs":[{"indexed":true,"internalType":"address","name":"creator","type":"address"},{"indexed":false,"internalType":"uint256","name":"ethLiquidity","type":"uint256"}],"name":"InstantLaunchRequested","type":"event"},{"anonymous":false,"inputs":[{"indexed":true,"internalType":"uint256","name":"launchId","type":"uint256"},{"indexed":true,"internalType":"address","name":"creator","type":"address"},{"indexed":true,"internalType":"address","name":"token","type":"address"},{"indexed":false,"internalType":"address","name":"pool","type":"address"},{"indexed":false,"internalType":"uint256","name":"totalSupply","type":"uint256"},{"indexed":false,"internalType":"uint256","name":"creatorAllocation","type":"uint256"},{"indexed":false,"internalType":"uint256","name":"feeBps","type":"uint256"},{"indexed":false,"internalType":"uint256","name":"graduationTargetEth","type":"uint256"},{"indexed":false,"internalType":"address","name":"dexRouter","type":"address"},{"indexed":false,"internalType":"address","name":"lpRecipient","type":"address"}],"name":"LaunchCreated","type":"event"},{"anonymous":false,"inputs":[{"indexed":true,"internalType":"address","name":"payer","type":"address"},{"indexed":true,"internalType":"address","name":"recipient","type":"address"},{"indexed":false,"internalType":"uint256","name":"amountWei","type":"uint256"}],"name":"LaunchFeePaid","type":"event"},{"anonymous":false,"inputs":[{"indexed":true,"internalType":"address","name":"creator","type":"address"},{"indexed":false,"internalType":"uint256","name":"ethLiquidity","type":"uint256"}],"name":"LiveDexCurveRequested","type":"event"},{"anonymous":false,"inputs":[{"indexed":true,"internalType":"address","name":"previousOwner","type":"address"},{"indexed":true,"internalType":"address","name":"newOwner","type":"address"}],"name":"OwnershipTransferred","type":"event"},{"anonymous":false,"inputs":[{"indexed":true,"internalType":"uint256","name":"launchId","type":"uint256"},{"indexed":true,"internalType":"address","name":"token","type":"address"},{"indexed":false,"internalType":"uint256","name":"tradeFeeBps","type":"uint256"},{"indexed":false,"internalType":"uint256","name":"creatorFeeBps","type":"uint256"},{"indexed":false,"internalType":"uint256","name":"platformFeeBps","type":"uint256"}],"name":"TokenTaxConfigured","type":"event"},{"inputs":[],"name":"BPS_DENOMINATOR","outputs":[{"internalType":"uint256","name":"","type":"uint256"}],"stateMutability":"view","type":"function"},{"inputs":[],"name":"BURN_ADDRESS","outputs":[{"internalType":"address","name":"","type":"address"}],"stateMutability":"view","type":"function"},{"inputs":[],"name":"DEFAULT_TOKEN_TRADE_FEE_BPS","outputs":[{"internalType":"uint256","name":"","type":"uint256"}],"stateMutability":"view","type":"function"},{"inputs":[],"name":"MAX_TOKEN_TRADE_FEE_BPS","outputs":[{"internalType":"uint256","name":"","type":"uint256"}],"stateMutability":"view","type":"function"},{"inputs":[],"name":"ROBINHOOD_CHAIN_ID","outputs":[{"internalType":"uint256","name":"","type":"uint256"}],"stateMutability":"view","type":"function"},{"inputs":[{"internalType":"string","name":"name","type":"string"},{"internalType":"string","name":"symbol","type":"string"},{"internalType":"string","name":"imageURI","type":"string"},{"internalType":"string","name":"description","type":"string"},{"internalType":"uint256","name":"totalSupply","type":"uint256"},{"internalType":"uint256","name":"creatorAllocationBps","type":"uint256"}],"name":"createLaunch","outputs":[{"internalType":"uint256","name":"launchId","type":"uint256"},{"internalType":"address","name":"tokenAddress","type":"address"},{"internalType":"address","name":"poolAddress","type":"address"}],"stateMutability":"payable","type":"function"},{"inputs":[{"internalType":"string","name":"name","type":"string"},{"internalType":"string","name":"symbol","type":"string"},{"internalType":"string","name":"imageURI","type":"string"},{"internalType":"string","name":"description","type":"string"},{"internalType":"uint256","name":"totalSupply","type":"uint256"},{"internalType":"uint256","name":"creatorAllocationBps","type":"uint256"}],"name":"createLaunchInstant","outputs":[{"internalType":"uint256","name":"launchId","type":"uint256"},{"internalType":"address","name":"tokenAddress","type":"address"},{"internalType":"address","name":"poolAddress","type":"address"}],"stateMutability":"payable","type":"function"},{"inputs":[{"internalType":"string","name":"name","type":"string"},{"internalType":"string","name":"symbol","type":"string"},{"internalType":"string","name":"imageURI","type":"string"},{"internalType":"string","name":"description","type":"string"},{"internalType":"uint256","name":"totalSupply","type":"uint256"},{"internalType":"uint256","name":"creatorAllocationBps","type":"uint256"},{"internalType":"uint256","name":"tokenTradeFeeBps","type":"uint256"}],"name":"createLaunchInstantWithTax","outputs":[{"internalType":"uint256","name":"launchId","type":"uint256"},{"internalType":"address","name":"tokenAddress","type":"address"},{"internalType":"address","name":"poolAddress","type":"address"}],"stateMutability":"payable","type":"function"},{"inputs":[{"internalType":"string","name":"name","type":"string"},{"internalType":"string","name":"symbol","type":"string"},{"internalType":"string","name":"imageURI","type":"string"},{"internalType":"string","name":"description","type":"string"},{"internalType":"uint256","name":"totalSupply","type":"uint256"},{"internalType":"uint256","name":"creatorAllocationBps","type":"uint256"}],"name":"createLaunchLiveDexCurve","outputs":[{"internalType":"uint256","name":"launchId","type":"uint256"},{"internalType":"address","name":"tokenAddress","type":"address"},{"internalType":"address","name":"poolAddress","type":"address"}],"stateMutability":"payable","type":"function"},{"inputs":[{"internalType":"string","name":"name","type":"string"},{"internalType":"string","name":"symbol","type":"string"},{"internalType":"string","name":"imageURI","type":"string"},{"internalType":"string","name":"description","type":"string"},{"internalType":"uint256","name":"totalSupply","type":"uint256"},{"internalType":"uint256","name":"creatorAllocationBps","type":"uint256"},{"internalType":"uint256","name":"tokenTradeFeeBps","type":"uint256"}],"name":"createLaunchLiveDexCurveWithTax","outputs":[{"internalType":"uint256","name":"launchId","type":"uint256"},{"internalType":"address","name":"tokenAddress","type":"address"},{"internalType":"address","name":"poolAddress","type":"address"}],"stateMutability":"payable","type":"function"},{"inputs":[{"internalType":"string","name":"name","type":"string"},{"internalType":"string","name":"symbol","type":"string"},{"internalType":"string","name":"imageURI","type":"string"},{"internalType":"string","name":"description","type":"string"},{"internalType":"uint256","name":"totalSupply","type":"uint256"},{"internalType":"uint256","name":"creatorAllocationBps","type":"uint256"},{"internalType":"uint256","name":"tokenTradeFeeBps","type":"uint256"}],"name":"createLaunchWithTax","outputs":[{"internalType":"uint256","name":"launchId","type":"uint256"},{"internalType":"address","name":"tokenAddress","type":"address"},{"internalType":"address","name":"poolAddress","type":"address"}],"stateMutability":"payable","type":"function"},{"inputs":[],"name":"defaultDexRouter","outputs":[{"internalType":"address","name":"","type":"address"}],"stateMutability":"view","type":"function"},{"inputs":[],"name":"defaultFeeBps","outputs":[{"internalType":"uint256","name":"","type":"uint256"}],"stateMutability":"view","type":"function"},{"inputs":[],"name":"defaultGraduationTargetEth","outputs":[{"internalType":"uint256","name":"","type":"uint256"}],"stateMutability":"view","type":"function"},{"inputs":[],"name":"defaultLpRecipient","outputs":[{"internalType":"address","name":"","type":"address"}],"stateMutability":"view","type":"function"},{"inputs":[],"name":"defaultVirtualEthReserve","outputs":[{"internalType":"uint256","name":"","type":"uint256"}],"stateMutability":"view","type":"function"},{"inputs":[],"name":"defaultVirtualTokenReserve","outputs":[{"internalType":"uint256","name":"","type":"uint256"}],"stateMutability":"view","type":"function"},{"inputs":[],"name":"feeRecipient","outputs":[{"internalType":"address","name":"","type":"address"}],"stateMutability":"view","type":"function"},{"inputs":[{"internalType":"uint256","name":"launchId","type":"uint256"}],"name":"getLaunch","outputs":[{"components":[{"internalType":"address","name":"token","type":"address"},{"internalType":"address","name":"pool","type":"address"},{"internalType":"address","name":"creator","type":"address"},{"internalType":"string","name":"name","type":"string"},{"internalType":"string","name":"symbol","type":"string"},{"internalType":"string","name":"imageURI","type":"string"},{"internalType":"string","name":"description","type":"string"},{"internalType":"uint256","name":"totalSupply","type":"uint256"},{"internalType":"uint256","name":"creatorAllocation","type":"uint256"},{"internalType":"uint256","name":"createdAt","type":"uint256"}],"internalType":"struct MemeLaunchFactory.LaunchInfo","name":"","type":"tuple"}],"stateMutability":"view","type":"function"},{"inputs":[],"name":"getLaunchCount","outputs":[{"internalType":"uint256","name":"","type":"uint256"}],"stateMutability":"view","type":"function"},{"inputs":[{"internalType":"uint256","name":"offset","type":"uint256"},{"internalType":"uint256","name":"limit","type":"uint256"}],"name":"getLaunches","outputs":[{"components":[{"internalType":"address","name":"token","type":"address"},{"internalType":"address","name":"pool","type":"address"},{"internalType":"address","name":"creator","type":"address"},{"internalType":"string","name":"name","type":"string"},{"internalType":"string","name":"symbol","type":"string"},{"internalType":"string","name":"imageURI","type":"string"},{"internalType":"string","name":"description","type":"string"},{"internalType":"uint256","name":"totalSupply","type":"uint256"},{"internalType":"uint256","name":"creatorAllocation","type":"uint256"},{"internalType":"uint256","name":"createdAt","type":"uint256"}],"internalType":"struct MemeLaunchFactory.LaunchInfo[]","name":"data","type":"tuple[]"}],"stateMutability":"view","type":"function"},{"inputs":[],"name":"launchFeeWei","outputs":[{"internalType":"uint256","name":"","type":"uint256"}],"stateMutability":"view","type":"function"},{"inputs":[],"name":"owner","outputs":[{"internalType":"address","name":"","type":"address"}],"stateMutability":"view","type":"function"},{"inputs":[],"name":"platformFeeRecipient","outputs":[{"internalType":"address","name":"","type":"address"}],"stateMutability":"view","type":"function"},{"inputs":[{"internalType":"address","name":"token","type":"address"}],"name":"poolByToken","outputs":[{"internalType":"address","name":"pool","type":"address"}],"stateMutability":"view","type":"function"},{"inputs":[{"internalType":"address","name":"newFeeRecipient","type":"address"},{"internalType":"address","name":"newPlatformFeeRecipient","type":"address"},{"internalType":"uint256","name":"newFeeBps","type":"uint256"},{"internalType":"uint256","name":"newLaunchFeeWei","type":"uint256"},{"internalType":"uint256","name":"newVirtualEthReserve","type":"uint256"},{"internalType":"uint256","name":"newVirtualTokenReserve","type":"uint256"},{"internalType":"uint256","name":"newGraduationTargetEth","type":"uint256"},{"internalType":"address","name":"newDexRouter","type":"address"},{"internalType":"address","name":"newLpRecipient","type":"address"}],"name":"setDefaults","outputs":[],"stateMutability":"nonpayable","type":"function"},{"inputs":[{"internalType":"address","name":"newOwner","type":"address"}],"name":"transferOwnership","outputs":[],"stateMutability":"nonpayable","type":"function"}],"evm":{"bytecode":{"linkReferences":{},"object":"608034620002fd57601f6200aca238819003918201601f191683019291906001600160401b038411838510176200030257816101209284926040968752833981010312620002fd57620000528162000318565b6020916200006283820162000318565b92848201516060830151608084015160a08501519160c0860151936200009a6101006200009260e08a0162000318565b980162000318565b6001600160a01b03988916999097908a15620002b95761012c83116200028657891690811562000242578415620001fe578515620001ba57861562000184578916968762000139575b5060018060a01b031999338b60005416176000558a6001541617600155896002541617600255600355600455600555600655600755836008541617600855169060095416176009555161a97490816200032e8239f35b898916620000e3576064908c519062461bcd60e51b82526004820152601560248201527f6c7020726563697069656e7420726571756972656400000000000000000000006044820152fd5b8b5162461bcd60e51b815260048101899052600f60248201526e1d185c99d95d081c995c5d5a5c9959608a1b6044820152606490fd5b8b5162461bcd60e51b815260048101899052601660248201527f7669727475616c20746f6b656e207265717569726564000000000000000000006044820152606490fd5b8b5162461bcd60e51b815260048101899052601460248201527f7669727475616c206574682072657175697265640000000000000000000000006044820152606490fd5b8b5162461bcd60e51b815260048101899052601b60248201527f706c6174666f726d20726563697069656e7420726571756972656400000000006044820152606490fd5b8b5162461bcd60e51b815260048101899052600c60248201526b0cccaca40e8dede40d0d2ced60a31b6044820152606490fd5b8b5162461bcd60e51b815260048101899052601660248201527f66656520726563697069656e74207265717569726564000000000000000000006044820152606490fd5b600080fd5b634e487b7160e01b600052604160045260246000fd5b51906001600160a01b0382168203620002fd5756fe6102c08060405260043610156200001557600080fd5b60003560e01c9081630b0420bb1462005c64575080631036338c1462004fae57806313ed4aa61462004f835780631c8c0d921462004f6357806339cbfa1f1462004f445780633c0f4305146200424957806346904840146200421e5780634a9ddfdd14620042005780635930d3ce146200416c5780635de3bafb14620032cf57806363f0eb0414620032af57806380fa02f7146200329057806383eeb3bb14620032705780638da5cb5b146200324557806393a8e04d146200322557806396875aa014620024e75780639b3b9f98146200245c5780639ff0251f146200243c578063b82942a514620020d9578063bcae25a414620020b9578063d578192c146200208e578063e1a45218146200206f578063eb13554f1462002044578063f018189214620012fb578063f2fde38b146200124c578063fccc2813146200122d5763fd04bbac146200016557600080fd5b620001703662005d7c565b6080526008549899919890969195929492919062000199906001600160a01b03161515620061c8565b600954620001b2906001600160a01b031615156200620a565b620001cd600454620001c68134116200624e565b34620062a6565b97620001d862006422565b6040518981527fb610ea5b60c2e916119ad74eb6f1c4e02b296189e982f615f38630738be9786560203392a2600060c0528a15620011f8578115620011c15789156200118a576107d088116200114f576103e8608051116200111557600254604051906001600160a01b03166001600160401b03611808830190811190831117620010ff5781906200029c620002848f611808620090f7863960e0611808860181815201908d62006568565b61180884018103602061180886010152868662006568565b908d604061180885010152306060611808850101523360806118088501015260a06118088401015260805160c06118088401015203906000f060a05260a0511562000f92576002546001600160a01b03163314620002fa81620065c4565b9960018060a01b03600154166003546005546006546007549160018060a01b0360085416936040519586612af08101106001600160401b03612af089011117620010ff57612af062006607883960a080516001600160a01b03908116612af08a019081523060208201526040810193909352606083019390935260808201939093529182019290925260c081019290925260e0820192909252908d166101008201528190036101200191f06101a0526101a0511562000f92578a898102048903620010e957620003d16127108a8d02048c620062a6565b60405163a9059cbb60e01b81526101a0516001600160a01b0390811660048301526024820183905260a05160209183916044918391600091165af190811562000f9257600091620010c5575b50156200108957898c6127108282020462000fb5575b50506101a0516001600160a01b03163b15620008d65760405190639556483760e01b825260048201526000816024818360018060a01b036101a051165af1801562000f925762000f9e575b5060c0511562000dee576101a0516001600160a01b03163b1562000d1f576040516309485dc960e21b815260c0516101a0518290600490829084906001600160a01b03165af18015620008e45762000dd4575b506040516306b456ef60e21b81526101a051602090829060049082906001600160a01b03165afa908115620008e45760c0519162000d9e575b506001600160a01b03811662000d31575b5080159062000d25575b62000cb7575b60a05160c080516001600160a01b039283169052600b60205251604090206101a05181546001600160a01b0319169216919091179055600a549a600160401b8c101562000a085760018c01600a55620005848c62005fe7565b5050620005918c62005fe7565b5060a05181546001600160a01b03199081166001600160a01b039283161783556101a0516001840180548316919093161790915560028201805490911633179055976001600160401b03821162000a08578190620005f360038b015462006038565b601f811162000c5c575b5060c05190601f831160011462000be65760c0519262000bda575b50508160011b916000199060031b1c19161760038801555b6001600160401b03821162000a0857819062000650600489015462006038565b601f811162000b7f575b5060c05190601f831160011462000b095760c0519262000afd575b50508160011b916000199060031b1c19161760048601555b6001600160401b03821162000a08578190620006ad600587015462006038565b601f811162000aa2575b5060c05190601f831160011462000a2c5760c0519262000a20575b50508160011b916000199060031b1c19161760058401555b6001600160401b03821162000a085781906200070a600685015462006038565b601f8111620009ad575b5060c05190601f8311600114620009375760c051926200092b575b50508160011b916000199060031b1c19161760068201555b8360078201556127108285020460088201556009429101556003546007549061271060018060a01b0360085416936040519660018060a01b036101a051168852806020890152020460408601526060850152608084015260a083015260018060a01b031660c082015260018060a01b0360a0511690826000805160206200a91f83398151915260e03393a4604051906317773ebb60e01b825260208260048160018060a01b0360a051165afa918215620008e45760c05192620008f1575b506040519163116e689f60e11b835260208360048160018060a01b0360a051165afa8015620008e45760c05190620008a4575b620008a0935060405191608051835260208301526040820152816000805160206200a8ff833981519152606060018060a01b0360a0511693a3604080516101a05160a0519382526001600160a01b039384166020830152909216908201529081906060820190565b0390f35b506020833d602011620008db575b81620008c16020938362005f74565b81010312620008d657620008a0925162000838565b600080fd5b3d9150620008b2565b6040513d60c051823e3d90fd5b9091506020813d60201162000922575b81620009106020938362005f74565b81010312620008d65751903862000805565b3d915062000901565b0135905038806200072f565b60c080516006870190525160208120909450915b601f198416851062000994576001945083601f1981161062000979575b505050811b01600682015562000747565b0135600019600384901b60f8161c1916905538808062000968565b818101358355602094850194600190930192016200094b565b9091506006840160c05152602060c05120601f840160051c81016020851062000a00575b90849392915b601f830160051c82018110620009ef57505062000714565b60c0518155859450600101620009d7565b5080620009d1565b634e487b7160e01b60c051526041600452602460c051fd5b013590503880620006d2565b60c080516005890190525160208120909450915b601f198416851062000a89576001945083601f1981161062000a6e575b505050811b016005840155620006ea565b0135600019600384901b60f8161c1916905538808062000a5d565b8181013583556020948501946001909301920162000a40565b9091506005860160c05152602060c05120601f840160051c81016020851062000af5575b90849392915b601f830160051c8201811062000ae4575050620006b7565b60c051815585945060010162000acc565b508062000ac6565b01359050388062000675565b60c0805160048b0190525160208120909450915b601f198416851062000b66576001945083601f1981161062000b4b575b505050811b0160048601556200068d565b0135600019600384901b60f8161c1916905538808062000b3a565b8181013583556020948501946001909301920162000b1d565b9091506004880160c05152602060c05120601f840160051c81016020851062000bd2575b90849392915b601f830160051c8201811062000bc15750506200065a565b60c051815585945060010162000ba9565b508062000ba3565b01359050388062000618565b60c0805160038d0190525160208120909450915b601f198416851062000c43576001945083601f1981161062000c28575b505050811b01600388015562000630565b0135600019600384901b60f8161c1916905538808062000c17565b8181013583556020948501946001909301920162000bfa565b90915060038a0160c05152602060c05120601f840160051c81016020851062000caf575b90849392915b601f830160051c8201811062000c9e575050620005fd565b60c051815585945060010162000c86565b508062000c80565b60a0516001600160a01b03163b1562000d1f57604051636e258e0760e11b815260c05160a0518290600490829084906001600160a01b03165af18015620008e45762000d05575b506200052b565b62000d109062005f60565b60c05162000d1f573862000cfe565b60c05180fd5b50611237461462000525565b60a0516001600160a01b03163b1562000d1f576040516315c6deb960e31b81526001600160a01b03918216600482015260c05160a05191929091839160249183918591165af18015620008e457156200051b5762000d8f9062005f60565b60c05162000d1f57386200051b565b62000dc5915060203d60201162000dcc575b62000dbc818362005f74565b810190620065a3565b386200050a565b503d62000db0565b62000ddf9062005f60565b60c05162000d1f5738620004d1565b6101a0516001600160a01b03163b15620008d657604051631c7031d760e31b81526101a0516000908290600490829084906001600160a01b03165af1801562000f925762000f7b575b506040516306b456ef60e21b81526101a051602090829060049082906001600160a01b03165afa908115620008e45760c0519162000f57575b506001600160a01b03811662000eea575b5080159062000ede575b156200052b5760a0516001600160a01b03163b1562000d1f57604051636e258e0760e11b815260c05160a0518290600490829084906001600160a01b03165af18015620008e45762000d0557506200052b565b50611237461462000e8b565b60a0516001600160a01b03163b1562000d1f576040516315c6deb960e31b81526001600160a01b03918216600482015260c05160a05191929091839160249183918591165af18015620008e4571562000e815762000f489062005f60565b60c05162000d1f573862000e81565b62000f74915060203d60201162000dcc5762000dbc818362005f74565b3862000e70565b62000f869062005f60565b600060c0523862000e37565b6040513d6000823e3d90fd5b62000fa99062005f60565b600060c052386200047e565b60405163a9059cbb60e01b81523360048201526127109190920204602482015260208180604481010381600060018060a01b0360a051165af190811562000f925760009162001053575b50156200100e57898c62000433565b60405162461bcd60e51b815260206004820152601760248201527f63726561746f72207472616e73666572206661696c65640000000000000000006044820152606490fd5b6200107a915060203d60201162001081575b62001071818362005f74565b81019062006589565b3862000fff565b503d62001065565b60405162461bcd60e51b81526020600482015260146024820152731c1bdbdb081d1c985b9cd9995c8819985a5b195960621b6044820152606490fd5b620010e2915060203d602011620010815762001071818362005f74565b386200041d565b634e487b7160e01b600052601160045260246000fd5b634e487b7160e01b600052604160045260246000fd5b60405162461bcd60e51b81526020600482015260126024820152710e8e4c2c8ca40cccaca40e8dede40d0d2ced60731b6044820152606490fd5b60405162461bcd60e51b81526020600482015260136024820152720c2d8d8dec6c2e8d2dedc40e8dede40d0d2ced606b1b6044820152606490fd5b60405162461bcd60e51b815260206004820152600f60248201526e1cdd5c1c1b1e481c995c5d5a5c9959608a1b6044820152606490fd5b60405162461bcd60e51b815260206004820152600f60248201526e1cde5b589bdb081c995c5d5a5c9959608a1b6044820152606490fd5b60405162461bcd60e51b815260206004820152600d60248201526c1b985b59481c995c5d5a5c9959609a1b6044820152606490fd5b34620008d6576000366003190112620008d657602060405161dead8152f35b34620008d6576020366003190112620008d6576200126962005ca0565b6000546001600160a01b038082169262001285338514620063e8565b16918215620012c55782907f8be0079c531659141344cd1fd0a4f28419497f9722a3daafe3b4186f6b6457e0600080a36001600160a01b03191617600055005b60405162461bcd60e51b815260206004820152600e60248201526d1bdddb995c881c995c5d5a5c995960921b6044820152606490fd5b620013063662005d7c565b60e052600854989991989096919592949291906200132f906001600160a01b03161515620061c8565b60095462001348906001600160a01b031615156200620a565b6200135c600454620001c68134116200624e565b976200136762006422565b6040518981527fac9d85dc25663b5cc567afaed6bb7823377f8f9f4164bc741a6ed341c04a8ec760203392a26000610120528a15620011f8578115620011c15789156200118a576107d088116200114f576103e860e051116200111557600254604051906001600160a01b03166001600160401b03611808830190811190831117620010ff57819062001414620002848f611808620090f7863960e0611808860181815201908d62006568565b908d604061180885010152306060611808850101523360806118088501015260a06118088401015260e05160c06118088401015203906000f061010052610100511562000f92576002546001600160a01b031633146200147481620065c4565b9960018060a01b03600154166003546005546006546007549160018060a01b0360085416936040519586612af08101106001600160401b03612af089011117620010ff57612af062006607883960018060a01b036101005116612af0880152306020612af0890101526040612af0880101526060612af0870101526080612af08601015260a0612af08501015260c0612af08401015260e0612af08301015260018060a01b038c16610100612af08301015261012081612af08101030191f06101e0526101e0511562000f92578a898102048903620010e9576200155f6127108a8d02048c620062a6565b60405163a9059cbb60e01b81526101e0516001600160a01b039081166004830152602482018390526101005160209183916044918391600091165af190811562000f925760009162002020575b50156200108957898c6127108282020462001fa2575b50506101e0516001600160a01b03163b15620008d65760405190639556483760e01b825260048201526000816024818360018060a01b036101e051165af1801562000f925762001f8a575b506101e0516001600160a01b03163b1562001ec7576040516309485dc960e21b8152610120516101e0518290600490829084906001600160a01b03165af1801562001a755762001f6f575b506040516306b456ef60e21b81526101e051602090829060049082906001600160a01b03165afa90811562001a7557610120519162001f4b575b506001600160a01b03811662001eda575b5080159062001ece575b62001e5b575b6101005161012080516001600160a01b039283169052600b60205251604090206101e05181546001600160a01b0319169216919091179055600a549a600160401b8c101562001b9e5760018c01600a556200170e8c62005fe7565b50506200171b8c62005fe7565b506101005181546001600160a01b03199081166001600160a01b039283161783556101e0516001840180548316919093161790915560028201805490911633179055976001600160401b03821162001b9e5781906200177e60038b015462006038565b601f811162001dfd575b506101205190601f831160011462001d8657610120519262001d7a575b50508160011b916000199060031b1c19161760038801555b6001600160401b03821162001b9e578190620017dd600489015462006038565b601f811162001d1c575b506101205190601f831160011462001ca557610120519262001c99575b50508160011b916000199060031b1c19161760048601555b6001600160401b03821162001b9e5781906200183c600587015462006038565b601f811162001c3b575b506101205190601f831160011462001bc457610120519262001bb8575b50508160011b916000199060031b1c19161760058401555b6001600160401b03821162001b9e5781906200189b600685015462006038565b601f811162001b40575b506101205190601f831160011462001ac957610120519262001abd575b50508160011b916000199060031b1c19161760068201555b8360078201556127108285020460088201556009429101556003546007549061271060018060a01b0360085416936040519660018060a01b036101e051168852806020890152020460408601526060850152608084015260a083015260018060a01b031660c082015260018060a01b03610100511690826000805160206200a91f83398151915260e03393a4604051906317773ebb60e01b825260208260048160018060a01b0361010051165afa91821562001a7557610120519262001a83575b506040519163116e689f60e11b835260208360048160018060a01b0361010051165afa801562001a7557610120519062001a3a575b620008a093506040519160e051835260208301526040820152816000805160206200a8ff833981519152606060018060a01b03610100511693a3604080516101e051610100519382526001600160a01b039384166020830152909216908201529081906060820190565b506020833d60201162001a6c575b8162001a576020938362005f74565b81010312620008d657620008a09251620019d0565b3d915062001a48565b6040513d61012051823e3d90fd5b9091506020813d60201162001ab4575b8162001aa26020938362005f74565b81010312620008d6575190826200199b565b3d915062001a93565b013590508780620018c2565b61012080516006870190525160208120909450915b601f198416851062001b27576001945083601f1981161062001b0c575b505050811b016006820155620018da565b0135600019600384901b60f8161c1916905587808062001afb565b8181013583556020948501946001909301920162001ade565b90915060068401610120515260206101205120601f840160051c81016020851062001b96575b90849392915b601f830160051c8201811062001b84575050620018a5565b61012051815585945060010162001b6c565b508062001b66565b634e487b7160e01b61012051526041600452602461012051fd5b01359050898062001863565b61012080516005890190525160208120909450915b601f198416851062001c22576001945083601f1981161062001c07575b505050811b0160058401556200187b565b0135600019600384901b60f8161c1916905589808062001bf6565b8181013583556020948501946001909301920162001bd9565b90915060058601610120515260206101205120601f840160051c81016020851062001c91575b90849392915b601f830160051c8201811062001c7f57505062001846565b61012051815585945060010162001c67565b508062001c61565b013590508b8062001804565b610120805160048b0190525160208120909450915b601f198416851062001d03576001945083601f1981161062001ce8575b505050811b0160048601556200181c565b0135600019600384901b60f8161c191690558b808062001cd7565b8181013583556020948501946001909301920162001cba565b90915060048801610120515260206101205120601f840160051c81016020851062001d72575b90849392915b601f830160051c8201811062001d60575050620017e7565b61012051815585945060010162001d48565b508062001d42565b013590508d80620017a5565b610120805160038d0190525160208120909450915b601f198416851062001de4576001945083601f1981161062001dc9575b505050811b016003880155620017bd565b0135600019600384901b60f8161c191690558d808062001db8565b8181013583556020948501946001909301920162001d9b565b90915060038a01610120515260206101205120601f840160051c81016020851062001e53575b90849392915b601f830160051c8201811062001e4157505062001788565b61012051815585945060010162001e29565b508062001e23565b610100516001600160a01b03163b1562001ec757604051636e258e0760e11b815261012051610100518290600490829084906001600160a01b03165af1801562001a755762001eac575b50620016b3565b62001eb79062005f60565b6101205162001ec7578b62001ea5565b6101205180fd5b506112374614620016ad565b610100516001600160a01b03163b1562001ec7576040516315c6deb960e31b81526001600160a01b039182166004820152610120516101005191929091839160249183918591165af1801562001a755715620016a35762001f3b9062005f60565b6101205162001ec7578c620016a3565b62001f68915060203d60201162000dcc5762000dbc818362005f74565b8d62001692565b62001f7a9062005f60565b6101205162001ec7578c62001658565b62001f959062005f60565b6000610120528c6200160d565b60405163a9059cbb60e01b81523360048201526127109190920204602482015260208180604481010381600060018060a01b0361010051165af190811562000f925760009162001ffc575b50156200100e57898c620015c2565b62002019915060203d602011620010815762001071818362005f74565b8e62001fed565b6200203d915060203d602011620010815762001071818362005f74565b8e620015ac565b34620008d6576000366003190112620008d6576002546040516001600160a01b039091168152602090f35b34620008d6576000366003190112620008d65760206040516127108152f35b34620008d6576000366003190112620008d6576008546040516001600160a01b039091168152602090f35b34620008d6576000366003190112620008d6576020600354604051908152f35b34620008d657610120366003190112620008d657620020f762005ca0565b6024356001600160a01b0381168103620008d65760649160e4356001600160a01b0381168103620008d65761010435916001600160a01b0383168303620008d6576200214f60018060a01b03600054163314620063e8565b6001600160a01b0316928315620023ff576001600160a01b03811615620023bb5761012c604435116200238857608435156200234d5760a43515620023105760c43515620022da576001600160a01b0382166200228f575b907f62de0c78f593b14f1d09c895ce83a42ea45a7d77a716a05432a53193305b3c5a946101209493926001600160601b0360a01b8581600154161760015560018060a01b038216816002541617600255604435600355823560045560843560055560a43560065560c43560075560018060a01b03841681600854161760085560018060a01b03851690600954161760095560405194855260018060a01b031660208501526044356040850152356060840152608435608084015260a43560a084015260c43560c084015260018060a01b031660e083015260018060a01b0316610100820152a1005b6001600160a01b038316620021a75760405162461bcd60e51b81526020600482015260156024820152741b1c081c9958da5c1a595b9d081c995c5d5a5c9959605a1b60448201528590fd5b60405162461bcd60e51b815260206004820152600f60248201526e1d185c99d95d081c995c5d5a5c9959608a1b60448201528590fd5b60405162461bcd60e51b81526020600482015260166024820152751d9a5c9d1d585b081d1bdad95b881c995c5d5a5c995960521b60448201528590fd5b60405162461bcd60e51b81526020600482015260146024820152731d9a5c9d1d585b08195d1a081c995c5d5a5c995960621b60448201528590fd5b60405162461bcd60e51b815260206004820152600c60248201526b0cccaca40e8dede40d0d2ced60a31b60448201528590fd5b60405162461bcd60e51b815260206004820152601b60248201527f706c6174666f726d20726563697069656e74207265717569726564000000000060448201528590fd5b60405162461bcd60e51b8152602060048201526016602482015275199959481c9958da5c1a595b9d081c995c5d5a5c995960521b60448201528590fd5b34620008d6576000366003190112620008d6576020600a54604051908152f35b34620008d6576040366003190112620008d6576200247f602435600435620062e1565b60405160209160208201926020835281518094526040830193602060408260051b8601019301916000955b828710620024b85785850386f35b909192938280620024d6600193603f198a8203018652885162005e57565b9601920196019592919092620024aa565b620024f23662005ce7565b946200251360018060a09c97949a9b9c9695961b03600854161515620061c8565b6009546200252c906001600160a01b031615156200620a565b62002540600454620001c68134116200624e565b966200254b62006422565b6040518881527fac9d85dc25663b5cc567afaed6bb7823377f8f9f4164bc741a6ed341c04a8ec760203392a26000610160528a15620011f8578015620011c15788156200118a576107d087116200114f57600061016052600254604051906001600160a01b03166001600160401b03611808830190811190831117620010ff5781906200260c8d8f620025f58c8892611808620090f7893960e06118088901818152019162006568565b916118088601830360206118088801015262006568565b908c604061180885010152306060611808850101523360806118088501015260a061180884010152603260c06118088401015203906000f061014052610140511562000f92576002546001600160a01b03163314996200266c8b620065c4565b600154600354600554600654600754600854604051969f96956001600160a01b039182169592949291166001600160401b03612af0880190811190881117620010ff57612af0620066078839610140516001600160a01b03908116612af0890190815230602082015260408101929092526060820192909252608081019290925260a082019290925260c081019290925260e0820192909252908c166101008201528190036101200191f09a8b1562000f92578a898102048903620010e9578b620027766020620027458e6127108e82020490620062a6565b60405163a9059cbb60e01b81526001600160a01b039094166004850152602484018190529291829081906044820190565b0381600060018060a01b0361014051165af190811562000f925760009162003201575b50156200108957898c6127108282020462003183575b50506001600160a01b038d163b15620008d65760008d602482936040519485938492639556483760e01b8452600484015260018060a01b03165af1801562000f92576200316b575b506001600160a01b038c163b15620030a8576040516309485dc960e21b81528c816004816101605193610160519060018060a01b03165af1801562002c585762003150575b50600460208d604051928380926306b456ef60e21b825260018060a01b03165afa90811562002c585761016051916200312c575b506001600160a01b038116620030bb575b50801590620030af575b6200303c575b6101405161016080516001600160a01b039283169052600b602052516040902080546001600160a01b031916918d16919091179055600a549b600160401b8d101562002d7f5760018d01600a55620028e98d62005fe7565b5050620028f68d62005fe7565b509760018060a01b0361014051166001600160601b0360a01b8a5416178955600189018d60018060a01b03166001600160601b0360a01b82541617905560028901336001600160601b0360a01b8254161790556001600160401b03821162002d7f5781906200296960038b015462006038565b601f811162002fde575b506101605190601f831160011462002f6757610160519262002f5b575b50508160011b916000199060031b1c19161760038801555b6001600160401b03821162002d7f578190620029c8600489015462006038565b601f811162002efd575b506101605190601f831160011462002e8657610160519262002e7a575b50508160011b916000199060031b1c19161760048601555b6001600160401b03821162002d7f57819062002a27600587015462006038565b601f811162002e1c575b506101605190601f831160011462002da557610160519262002d99575b50508160011b916000199060031b1c19161760058401555b6001600160401b03821162002d7f57819062002a86600685015462006038565b601f811162002d21575b506101605190601f831160011462002caa57610160519262002c9e575b50508160011b916000199060031b1c19161760068201555b8360078201556127108285020460088201556009429101556003546007549061271060018060a01b0360085416936040519660018060a01b0389168852806020890152020460408601526060850152608084015260a083015260018060a01b031660c082015260018060a01b03610140511690836000805160206200a91f83398151915260e03393a46040516317773ebb60e01b815261014051602090829060049082906001600160a01b03165afa90811562002c5857610160519162002c66575b5060405163116e689f60e11b815261014051602090829060049082906001600160a01b03165afa90811562002c5857610160519162002c20575b50604051916032835260208301526040820152826000805160206200a8ff833981519152606060018060a01b03610140511693a360408051610140519381526001600160a01b0393841660208201529190921691810191909152606090f35b90506020813d60201162002c4f575b8162002c3e6020938362005f74565b81010312620008d657518462002bc1565b3d915062002c2f565b6040513d61016051823e3d90fd5b90506020813d60201162002c95575b8162002c846020938362005f74565b81010312620008d657518362002b87565b3d915062002c75565b01359050888062002aad565b61016080516006870190525160208120909450915b601f198416851062002d08576001945083601f1981161062002ced575b505050811b01600682015562002ac5565b0135600019600384901b60f8161c1916905588808062002cdc565b8181013583556020948501946001909301920162002cbf565b90915060068401610160515260206101605120601f840160051c81016020851062002d77575b90849392915b601f830160051c8201811062002d6557505062002a90565b61016051815585945060010162002d4d565b508062002d47565b634e487b7160e01b61016051526041600452602461016051fd5b013590508a8062002a4e565b61016080516005890190525160208120909450915b601f198416851062002e03576001945083601f1981161062002de8575b505050811b01600584015562002a66565b0135600019600384901b60f8161c191690558a808062002dd7565b8181013583556020948501946001909301920162002dba565b90915060058601610160515260206101605120601f840160051c81016020851062002e72575b90849392915b601f830160051c8201811062002e6057505062002a31565b61016051815585945060010162002e48565b508062002e42565b013590508c80620029ef565b610160805160048b0190525160208120909450915b601f198416851062002ee4576001945083601f1981161062002ec9575b505050811b01600486015562002a07565b0135600019600384901b60f8161c191690558c808062002eb8565b8181013583556020948501946001909301920162002e9b565b90915060048801610160515260206101605120601f840160051c81016020851062002f53575b90849392915b601f830160051c8201811062002f41575050620029d2565b61016051815585945060010162002f29565b508062002f23565b013590508e8062002990565b610160805160038d0190525160208120909450915b601f198416851062002fc5576001945083601f1981161062002faa575b505050811b016003880155620029a8565b0135600019600384901b60f8161c191690558e808062002f99565b8181013583556020948501946001909301920162002f7c565b90915060038a01610160515260206101605120601f840160051c81016020851062003034575b90849392915b601f830160051c820181106200302257505062002973565b6101605181558594506001016200300a565b508062003004565b610140516001600160a01b03163b15620030a857604051636e258e0760e11b815261016051610140518290600490829084906001600160a01b03165af1801562002c58576200308d575b5062002891565b620030989062005f60565b61016051620030a8578c62003086565b6101605180fd5b5061123746146200288b565b610140516001600160a01b03163b15620030a8576040516315c6deb960e31b81526001600160a01b039182166004820152610160516101405191929091839160249183918591165af1801562002c58571562002881576200311c9062005f60565b61016051620030a8578d62002881565b62003149915060203d60201162000dcc5762000dbc818362005f74565b8e62002870565b6200315b9062005f60565b61016051620030a8578d6200283c565b620031769062005f60565b6000610160528d620027f7565b60405163a9059cbb60e01b81523360048201526127109190920204602482015260208180604481010381600060018060a01b0361014051165af190811562000f9257600091620031dd575b50156200100e57898c620027af565b620031fa915060203d602011620010815762001071818362005f74565b8f620031ce565b6200321e915060203d602011620010815762001071818362005f74565b8f62002799565b34620008d6576000366003190112620008d6576020600654604051908152f35b34620008d6576000366003190112620008d6576000546040516001600160a01b039091168152602090f35b34620008d6576000366003190112620008d6576020600454604051908152f35b34620008d6576000366003190112620008d65760206040516112378152f35b34620008d6576000366003190112620008d6576020600754604051908152f35b620032da3662005ce7565b94620032fb60018060a09c97949a9b9c9695961b03600854161515620061c8565b60095462003314906001600160a01b031615156200620a565b62003328600454620001c68134116200624e565b966200333362006422565b6040518881527fb610ea5b60c2e916119ad74eb6f1c4e02b296189e982f615f38630738be9786560203392a260006101c0528a15620011f8578015620011c15788156200118a576107d087116200114f5760006101c052600254604051906001600160a01b03166001600160401b03611808830190811190831117620010ff578190620033dd8d8f620025f58c8892611808620090f7893960e06118088901818152019162006568565b908c604061180885010152306060611808850101523360806118088501015260a061180884010152603260c06118088401015203906000f061018052610180511562000f92576002546001600160a01b03163314996200343d8b620065c4565b600154600354600554600654600754600854604051969f96956001600160a01b039182169592949291166001600160401b03612af0880190811190881117620010ff57612af0620066078839610180516001600160a01b03908116612af0890190815230602082015260408101929092526060820192909252608081019290925260a082019290925260c081019290925260e0820192909252908c166101008201528190036101200191f09a8b1562000f92578a898102048903620010e9578b620035166020620027458e6127108e82020490620062a6565b0381600060018060a01b0361018051165af190811562000f925760009162004148575b50156200108957898c61271082820204620040ca575b50506001600160a01b038d163b15620008d65760008d602482936040519485938492639556483760e01b8452600484015260018060a01b03165af1801562000f9257620040b2575b506101c0511562003f15576001600160a01b038c163b1562003e52576040516309485dc960e21b81528c816004816101c051936101c0519060018060a01b03165af1801562003a025762003efa575b50600460208d604051928380926306b456ef60e21b825260018060a01b03165afa90811562003a02576101c0519162003ed6575b506001600160a01b03811662003e65575b5080159062003e59575b62003de6575b610180516101c080516001600160a01b039283169052600b602052516040902080546001600160a01b031916918d16919091179055600a549b600160401b8d101562003b295760018d01600a55620036938d62005fe7565b5050620036a08d62005fe7565b509760018060a01b0361018051166001600160601b0360a01b8a5416178955600189018d60018060a01b03166001600160601b0360a01b82541617905560028901336001600160601b0360a01b8254161790556001600160401b03821162003b295781906200371360038b015462006038565b601f811162003d88575b506101c05190601f831160011462003d11576101c0519262003d05575b50508160011b916000199060031b1c19161760038801555b6001600160401b03821162003b2957819062003772600489015462006038565b601f811162003ca7575b506101c05190601f831160011462003c30576101c0519262003c24575b50508160011b916000199060031b1c19161760048601555b6001600160401b03821162003b29578190620037d1600587015462006038565b601f811162003bc6575b506101c05190601f831160011462003b4f576101c0519262003b43575b50508160011b916000199060031b1c19161760058401555b6001600160401b03821162003b2957819062003830600685015462006038565b601f811162003acb575b506101c05190601f831160011462003a54576101c0519262003a48575b50508160011b916000199060031b1c19161760068201555b8360078201556127108285020460088201556009429101556003546007549061271060018060a01b0360085416936040519660018060a01b0389168852806020890152020460408601526060850152608084015260a083015260018060a01b031660c082015260018060a01b03610180511690836000805160206200a91f83398151915260e03393a46040516317773ebb60e01b815261018051602090829060049082906001600160a01b03165afa90811562003a02576101c0519162003a10575b5060405163116e689f60e11b815261018051602090829060049082906001600160a01b03165afa90811562003a02576101c05191620039ca575b50604051916032835260208301526040820152826000805160206200a8ff833981519152606060018060a01b03610180511693a360408051610180519381526001600160a01b0393841660208201529190921691810191909152606090f35b90506020813d602011620039f9575b81620039e86020938362005f74565b81010312620008d65751846200396b565b3d9150620039d9565b6040513d6101c051823e3d90fd5b90506020813d60201162003a3f575b8162003a2e6020938362005f74565b81010312620008d657518362003931565b3d915062003a1f565b01359050888062003857565b6101c080516006870190525160208120909450915b601f198416851062003ab2576001945083601f1981161062003a97575b505050811b0160068201556200386f565b0135600019600384901b60f8161c1916905588808062003a86565b8181013583556020948501946001909301920162003a69565b909150600684016101c0515260206101c05120601f840160051c81016020851062003b21575b90849392915b601f830160051c8201811062003b0f5750506200383a565b6101c051815585945060010162003af7565b508062003af1565b634e487b7160e01b6101c05152604160045260246101c051fd5b013590508a80620037f8565b6101c080516005890190525160208120909450915b601f198416851062003bad576001945083601f1981161062003b92575b505050811b01600584015562003810565b0135600019600384901b60f8161c191690558a808062003b81565b8181013583556020948501946001909301920162003b64565b909150600586016101c0515260206101c05120601f840160051c81016020851062003c1c575b90849392915b601f830160051c8201811062003c0a575050620037db565b6101c051815585945060010162003bf2565b508062003bec565b013590508c8062003799565b6101c0805160048b0190525160208120909450915b601f198416851062003c8e576001945083601f1981161062003c73575b505050811b016004860155620037b1565b0135600019600384901b60f8161c191690558c808062003c62565b8181013583556020948501946001909301920162003c45565b909150600488016101c0515260206101c05120601f840160051c81016020851062003cfd575b90849392915b601f830160051c8201811062003ceb5750506200377c565b6101c051815585945060010162003cd3565b508062003ccd565b013590508e806200373a565b6101c0805160038d0190525160208120909450915b601f198416851062003d6f576001945083601f1981161062003d54575b505050811b01600388015562003752565b0135600019600384901b60f8161c191690558e808062003d43565b8181013583556020948501946001909301920162003d26565b90915060038a016101c0515260206101c05120601f840160051c81016020851062003dde575b90849392915b601f830160051c8201811062003dcc5750506200371d565b6101c051815585945060010162003db4565b508062003dae565b610180516001600160a01b03163b1562003e5257604051636e258e0760e11b81526101c051610180518290600490829084906001600160a01b03165af1801562003a025762003e37575b506200363b565b62003e429062005f60565b6101c05162003e52578c62003e30565b6101c05180fd5b50611237461462003635565b610180516001600160a01b03163b1562003e52576040516315c6deb960e31b81526001600160a01b0391821660048201526101c0516101805191929091839160249183918591165af1801562003a0257156200362b5762003ec69062005f60565b6101c05162003e52578d6200362b565b62003ef3915060203d60201162000dcc5762000dbc818362005f74565b8e6200361a565b62003f059062005f60565b6101c05162003e52578d620035e6565b6001600160a01b038c163b15620008d6576000808d600460405180948193631c7031d760e31b835260018060a01b03165af1801562000f92576200409a575b50600460208d604051928380926306b456ef60e21b825260018060a01b03165afa90811562003a02576101c0519162004076575b506001600160a01b03811662004005575b5080159062003ff9575b156200363b57610180516001600160a01b03163b1562003e5257604051636e258e0760e11b81526101c051610180518290600490829084906001600160a01b03165af1801562003a025762003e3757506200363b565b50611237461462003fa3565b610180516001600160a01b03163b1562003e52576040516315c6deb960e31b81526001600160a01b0391821660048201526101c0516101805191929091839160249183918591165af1801562003a02571562003f9957620040669062005f60565b6101c05162003e52578d62003f99565b62004093915060203d60201162000dcc5762000dbc818362005f74565b8e62003f88565b620040a59062005f60565b60006101c0528d62003f54565b620040bd9062005f60565b60006101c0528d62003597565b60405163a9059cbb60e01b81523360048201526127109190920204602482015260208180604481010381600060018060a01b0361018051165af190811562000f925760009162004124575b50156200100e57898c6200354f565b62004141915060203d602011620010815762001071818362005f74565b8f62004115565b62004165915060203d602011620010815762001071818362005f74565b8f62003539565b34620008d6576020366003190112620008d6576004356200418c62005f96565b50600a54811015620041c757620041b2620041ab620008a09262005fe7565b5062006126565b60405191829160208352602083019062005e57565b60405162461bcd60e51b81526020600482015260116024820152701a5b9d985b1a59081b185d5b98da081a59607a1b6044820152606490fd5b34620008d6576000366003190112620008d657602060405160328152f35b34620008d6576000366003190112620008d6576001546040516001600160a01b039091168152602090f35b620042543662005d7c565b61020052600454989991989096919592949291906200427590341462005f00565b6200427f62006422565b6000610240528915620011f8578015620011c15788156200118a576107d087116200114f576103e861020051116200111557600254604051906001600160a01b03166001600160401b03611808830190811190831117620010ff57819062004319620043018e611808620090f7863960e0611808860181815201908c62006568565b61180884018103602061180886010152858d62006568565b908c604061180885010152306060611808850101523360806118088501015260a0611808840101526102005160c06118088401015203906000f061022052610220511562000f92576002546001600160a01b03163314976200437b89620065c4565b600154600354600554600654600754600854604051969f96956001600160a01b039182169592949291166001600160401b03612af0880190811190881117620010ff57612af0620066078839610220516001600160a01b03908116612af0890190815230602082015260408101929092526060820192909252608081019290925260a082019290925260c081019290925260e0820192909252908c1661010082015281900361012001906000f06102a0526102a0511562000f92578a898102048903620010e957620044546127108a8d02048c620062a6565b60405163a9059cbb60e01b81526102a0516001600160a01b039081166004830152602482018390526102205160209183916044918391600091165af190811562000f925760009162004f20575b50156200108957898c6127108282020462004ea2575b50506102a0516001600160a01b03163b15620008d65760405190639556483760e01b825260048201526000816024818360018060a01b036102a051165af1801562000f925762004e8a575b50610240511562004da5576102a0516001600160a01b03163b1562004dc7576040516309485dc960e21b8152610240516102a0518290600490829084906001600160a01b03165af18015620049755762004e6f575b506040516306b456ef60e21b81526102a051602090829060049082906001600160a01b03165afa9081156200497557610240519162004e4b575b506001600160a01b03811662004dda575b5080159062004dce575b62004d5b575b6102205161024080516001600160a01b039283169052600b60205251604090206102a05181546001600160a01b0319169216919091179055600a549a600160401b8c101562004a9e5760018c01600a556200460d8c62005fe7565b50506200461a8c62005fe7565b506102205181546001600160a01b03199081166001600160a01b039283161783556102a0516001840180548316919093161790915560028201805490911633179055976001600160401b03821162004a9e5781906200467d60038b015462006038565b601f811162004cfd575b506102405190601f831160011462004c8657610240519262004c7a575b50508160011b916000199060031b1c19161760038801555b6001600160401b03821162004a9e578190620046dc600489015462006038565b601f811162004c1c575b506102405190601f831160011462004ba557610240519262004b99575b50508160011b916000199060031b1c19161760048601555b6001600160401b03821162004a9e5781906200473b600587015462006038565b601f811162004b3b575b506102405190601f831160011462004ac457610240519262004ab8575b50508160011b916000199060031b1c19161760058401555b6001600160401b03821162004a9e5781906200479a600685015462006038565b601f811162004a40575b506102405190601f8311600114620049c9576102405192620049bd575b50508160011b916000199060031b1c19161760068201555b8360078201556127108285020460088201556009429101556003546007549061271060018060a01b0360085416936040519660018060a01b036102a051168852806020890152020460408601526060850152608084015260a083015260018060a01b031660c082015260018060a01b03610220511690826000805160206200a91f83398151915260e03393a4604051906317773ebb60e01b825260208260048160018060a01b0361022051165afa9182156200497557610240519262004983575b506040519163116e689f60e11b835260208360048160018060a01b0361022051165afa8015620049755761024051906200493a575b620008a093506040519161020051835260208301526040820152816000805160206200a8ff833981519152606060018060a01b03610220511693a3604080516102a051610220519382526001600160a01b039384166020830152909216908201529081906060820190565b506020833d6020116200496c575b81620049576020938362005f74565b81010312620008d657620008a09251620048cf565b3d915062004948565b6040513d61024051823e3d90fd5b9091506020813d602011620049b4575b81620049a26020938362005f74565b81010312620008d6575190826200489a565b3d915062004993565b013590508780620047c1565b61024080516006870190525160208120909450915b601f198416851062004a27576001945083601f1981161062004a0c575b505050811b016006820155620047d9565b0135600019600384901b60f8161c19169055878080620049fb565b81810135835560209485019460019093019201620049de565b90915060068401610240515260206102405120601f840160051c81016020851062004a96575b90849392915b601f830160051c8201811062004a84575050620047a4565b61024051815585945060010162004a6c565b508062004a66565b634e487b7160e01b61024051526041600452602461024051fd5b01359050898062004762565b61024080516005890190525160208120909450915b601f198416851062004b22576001945083601f1981161062004b07575b505050811b0160058401556200477a565b0135600019600384901b60f8161c1916905589808062004af6565b8181013583556020948501946001909301920162004ad9565b90915060058601610240515260206102405120601f840160051c81016020851062004b91575b90849392915b601f830160051c8201811062004b7f57505062004745565b61024051815585945060010162004b67565b508062004b61565b013590508b8062004703565b610240805160048b0190525160208120909450915b601f198416851062004c03576001945083601f1981161062004be8575b505050811b0160048601556200471b565b0135600019600384901b60f8161c191690558b808062004bd7565b8181013583556020948501946001909301920162004bba565b90915060048801610240515260206102405120601f840160051c81016020851062004c72575b90849392915b601f830160051c8201811062004c60575050620046e6565b61024051815585945060010162004c48565b508062004c42565b013590508d80620046a4565b610240805160038d0190525160208120909450915b601f198416851062004ce4576001945083601f1981161062004cc9575b505050811b016003880155620046bc565b0135600019600384901b60f8161c191690558d808062004cb8565b8181013583556020948501946001909301920162004c9b565b90915060038a01610240515260206102405120601f840160051c81016020851062004d53575b90849392915b601f830160051c8201811062004d4157505062004687565b61024051815585945060010162004d29565b508062004d23565b610220516001600160a01b03163b1562004dc757604051636e258e0760e11b815261024051610220518290600490829084906001600160a01b03165af18015620049755762004dac575b50620045b2565b62004db79062005f60565b6102405162004dc7578b62004da5565b6102405180fd5b506112374614620045ac565b610220516001600160a01b03163b1562004dc7576040516315c6deb960e31b81526001600160a01b039182166004820152610240516102205191929091839160249183918591165af18015620049755715620045a25762004e3b9062005f60565b6102405162004dc7578c620045a2565b62004e68915060203d60201162000dcc5762000dbc818362005f74565b8d62004591565b62004e7a9062005f60565b6102405162004dc7578c62004557565b62004e959062005f60565b6000610240528c62004502565b60405163a9059cbb60e01b81523360048201526127109190920204602482015260208180604481010381600060018060a01b0361022051165af190811562000f925760009162004efc575b50156200100e57898c620044b7565b62004f19915060203d602011620010815762001071818362005f74565b8e62004eed565b62004f3d915060203d602011620010815762001071818362005f74565b8e620044a1565b34620008d6576000366003190112620008d65760206040516103e88152f35b34620008d6576000366003190112620008d6576020600554604051908152f35b34620008d6576000366003190112620008d6576009546040516001600160a01b039091168152602090f35b62004fb93662005ce7565b9462004fd360049a95929897999a94939454341462005f00565b62004fdd62006422565b6000610280528915620011f8578815620011c15787156200118a576107d086116200114f57600061028052600254604051906001600160a01b03166001600160401b03611808830190811190831117620010ff57819062005070620050588e611808620090f7863960e0611808860181815201908b62006568565b611808840181036020611808860101528d8c62006568565b908b604061180885010152306060611808850101523360806118088501015260a061180884010152603260c06118088401015203906000f061026052610260511562000f92576002546001600160a01b0316331498620050d08a620065c4565b600154600354600554600654600754600854604051969e96956001600160a01b039182169592949291166001600160401b03612af0880190811190881117620010ff57612af0620066078839610260516001600160a01b03908116612af0890190815230602082015260408101929092526060820192909252608081019290925260a082019290925260c081019290925260e0820192909252908b1661010082015281900361012001906000f09a8b1562000f92578a898102048903620010e9578b620051ab6020620027458e6127108e82020490620062a6565b0381600060018060a01b0361026051165af190811562000f925760009162005c40575b50156200108957898c6127108282020462005bc2575b50506001600160a01b038d163b15620008d65760008d602482936040519485938492639556483760e01b8452600484015260018060a01b03165af1801562000f925762005baa575b50610280511562005ac5576001600160a01b038c163b1562005ae7576040516309485dc960e21b81528c816004816102805193610280519060018060a01b03165af18015620056975762005b8f575b50600460208d604051928380926306b456ef60e21b825260018060a01b03165afa9081156200569757610280519162005b6b575b506001600160a01b03811662005afa575b5080159062005aee575b62005a7b575b6102605161028080516001600160a01b039283169052600b602052516040902080546001600160a01b031916918d16919091179055600a549b600160401b8d1015620057be5760018d01600a55620053288d62005fe7565b5050620053358d62005fe7565b509760018060a01b0361026051166001600160601b0360a01b8a5416178955600189018d60018060a01b03166001600160601b0360a01b82541617905560028901336001600160601b0360a01b8254161790556001600160401b038211620057be578190620053a860038b015462006038565b601f811162005a1d575b506102805190601f8311600114620059a65761028051926200599a575b50508160011b916000199060031b1c19161760038801555b6001600160401b038211620057be57819062005407600489015462006038565b601f81116200593c575b506102805190601f8311600114620058c5576102805192620058b9575b50508160011b916000199060031b1c19161760048601555b6001600160401b038211620057be57819062005466600587015462006038565b601f81116200585b575b506102805190601f8311600114620057e4576102805192620057d8575b50508160011b916000199060031b1c19161760058401555b6001600160401b038211620057be578190620054c5600685015462006038565b601f811162005760575b506102805190601f8311600114620056e9576102805192620056dd575b50508160011b916000199060031b1c19161760068201555b8360078201556127108285020460088201556009429101556003546007549061271060018060a01b0360085416936040519660018060a01b0389168852806020890152020460408601526060850152608084015260a083015260018060a01b031660c082015260018060a01b03610260511690836000805160206200a91f83398151915260e03393a46040516317773ebb60e01b815261026051602090829060049082906001600160a01b03165afa90811562005697576102805191620056a5575b5060405163116e689f60e11b815261026051602090829060049082906001600160a01b03165afa908115620056975761028051916200565f575b50604051916032835260208301526040820152826000805160206200a8ff833981519152606060018060a01b03610260511693a360408051610260519381526001600160a01b0393841660208201529190921691810191909152606090f35b90506020813d6020116200568e575b816200567d6020938362005f74565b81010312620008d657518462005600565b3d91506200566e565b6040513d61028051823e3d90fd5b90506020813d602011620056d4575b81620056c36020938362005f74565b81010312620008d6575183620055c6565b3d9150620056b4565b013590508880620054ec565b61028080516006870190525160208120909450915b601f198416851062005747576001945083601f198116106200572c575b505050811b01600682015562005504565b0135600019600384901b60f8161c191690558880806200571b565b81810135835560209485019460019093019201620056fe565b90915060068401610280515260206102805120601f840160051c810160208510620057b6575b90849392915b601f830160051c82018110620057a4575050620054cf565b6102805181558594506001016200578c565b508062005786565b634e487b7160e01b61028051526041600452602461028051fd5b013590508a806200548d565b61028080516005890190525160208120909450915b601f198416851062005842576001945083601f1981161062005827575b505050811b016005840155620054a5565b0135600019600384901b60f8161c191690558a808062005816565b81810135835560209485019460019093019201620057f9565b90915060058601610280515260206102805120601f840160051c810160208510620058b1575b90849392915b601f830160051c820181106200589f57505062005470565b61028051815585945060010162005887565b508062005881565b013590508c806200542e565b610280805160048b0190525160208120909450915b601f198416851062005923576001945083601f1981161062005908575b505050811b01600486015562005446565b0135600019600384901b60f8161c191690558c8080620058f7565b81810135835560209485019460019093019201620058da565b90915060048801610280515260206102805120601f840160051c81016020851062005992575b90849392915b601f830160051c820181106200598057505062005411565b61028051815585945060010162005968565b508062005962565b013590508e80620053cf565b610280805160038d0190525160208120909450915b601f198416851062005a04576001945083601f19811610620059e9575b505050811b016003880155620053e7565b0135600019600384901b60f8161c191690558e8080620059d8565b81810135835560209485019460019093019201620059bb565b90915060038a01610280515260206102805120601f840160051c81016020851062005a73575b90849392915b601f830160051c8201811062005a61575050620053b2565b61028051815585945060010162005a49565b508062005a43565b610260516001600160a01b03163b1562005ae757604051636e258e0760e11b815261028051610260518290600490829084906001600160a01b03165af18015620056975762005acc575b50620052d0565b62005ad79062005f60565b6102805162005ae7578c62005ac5565b6102805180fd5b506112374614620052ca565b610260516001600160a01b03163b1562005ae7576040516315c6deb960e31b81526001600160a01b039182166004820152610280516102605191929091839160249183918591165af18015620056975715620052c05762005b5b9062005f60565b6102805162005ae7578d620052c0565b62005b88915060203d60201162000dcc5762000dbc818362005f74565b8e620052af565b62005b9a9062005f60565b6102805162005ae7578d6200527b565b62005bb59062005f60565b6000610280528d6200522c565b60405163a9059cbb60e01b81523360048201526127109190920204602482015260208180604481010381600060018060a01b0361026051165af190811562000f925760009162005c1c575b50156200100e57898c620051e4565b62005c39915060203d602011620010815762001071818362005f74565b8f62005c0d565b62005c5d915060203d602011620010815762001071818362005f74565b8f620051ce565b34620008d6576020366003190112620008d6576020906001600160a01b038062005c8d62005ca0565b16600052600b8352604060002054168152f35b600435906001600160a01b0382168203620008d657565b9181601f84011215620008d6578235916001600160401b038311620008d65760208381860195010111620008d657565b60c0600319820112620008d6576001600160401b0390600435828111620008d6578162005d179160040162005cb7565b93909392602435818111620008d6578362005d359160040162005cb7565b93909392604435838111620008d6578262005d539160040162005cb7565b93909392606435918211620008d65762005d709160040162005cb7565b90916084359060a43590565b60e0600319820112620008d6576001600160401b0390600435828111620008d6578162005dac9160040162005cb7565b93909392602435818111620008d6578362005dca9160040162005cb7565b93909392604435838111620008d6578262005de89160040162005cb7565b93909392606435918211620008d65762005e059160040162005cb7565b90916084359060a4359060c43590565b919082519283825260005b84811062005e42575050826000602080949584010152601f8019910116010190565b60208183018101518483018201520162005e20565b9062005edd62005eca62005eb762005ea461014060018060a01b03808851168752806020890151166020880152604088015116604087015260608701519080606088015286019062005e15565b6080860151858203608087015262005e15565b60a085015184820360a086015262005e15565b60c084015183820360c085015262005e15565b9160e081015160e083015261010080820151908301526101208091015191015290565b1562005f0857565b60405162461bcd60e51b81526020600482015260136024820152720d8c2eadcc6d040cccaca40dad2e6dac2e8c6d606b1b6044820152606490fd5b61014081019081106001600160401b03821117620010ff57604052565b6001600160401b038111620010ff57604052565b90601f801991011681019081106001600160401b03821117620010ff57604052565b6040519062005fa58262005f43565b8161012060009182815282602082015282604082015260608082015260606080820152606060a0820152606060c08201528260e0820152826101008201520152565b600a548110156200602257600a9081600052027fc65a7bb8d6351c1cf70c95a316cc6a92839c986682d98bc35f958f4883f9d2a80190600090565b634e487b7160e01b600052603260045260246000fd5b90600182811c921680156200606a575b60208310146200605457565b634e487b7160e01b600052602260045260246000fd5b91607f169162006048565b906040519182600082546200608a8162006038565b90818452602094600191600181169081600014620061025750600114620060bf575b505050620060bd9250038362005f74565b565b600090815285812095935091905b818310620060e9575050620060bd9350820101388080620060ac565b85548884018501529485019487945091830191620060cd565b92505050620060bd94925060ff191682840152151560051b820101388080620060ac565b90604051620061358162005f43565b6101206009829460018060a01b0380825416855280600183015416602086015260028201541660408501526200616e6003820162006075565b6060850152620061816004820162006075565b6080850152620061946005820162006075565b60a0850152620061a76006820162006075565b60c0850152600781015460e085015260088101546101008501520154910152565b15620061d057565b60405162461bcd60e51b815260206004820152601260248201527119195e081c9bdd5d195c881b9bdd081cd95d60721b6044820152606490fd5b156200621257565b60405162461bcd60e51b81526020600482015260146024820152731b1c081c9958da5c1a595b9d081b9bdd081cd95d60621b6044820152606490fd5b156200625657565b60405162461bcd60e51b815260206004820152602260248201527f696e73756666696369656e742065746820666f72206665652b6c697175696469604482015261747960f01b6064820152608490fd5b91908203918211620010e957565b6001600160401b038111620010ff5760051b60200190565b8051821015620060225760209160051b010190565b600a54929183821015620063c057810192838211620010e957808411620063b7575b50620063108184620062a6565b926200631c84620062b4565b936200632c604051958662005f74565b8085526200633d601f1991620062b4565b0160005b8181106200639d5750508360005b8284106200635d5750505050565b6200636c620041ab8562005fe7565b620063788284620062cc565b52620063858183620062cc565b506000198114620010e957600193840193016200634f565b602090620063aa62005f96565b8282890101520162006341565b92503862006303565b50509050604051602081018181106001600160401b03821117620010ff576040526000815290565b15620063f057565b60405162461bcd60e51b815260206004820152600a60248201526937b7363c9037bbb732b960b11b6044820152606490fd5b60045480341062006523578015620065205760008080808060018060a01b039586600254165af1903d1562006519573d906001600160401b0382116200650557604051916200647c601f8201601f19166020018462005f74565b825260203d92013e5b15620064c057600254166004546040519081527f4cef2d27cdf43d743c3c66401182e93989938e77d1be10f3ab9e6afdf799f83960203392a3565b60405162461bcd60e51b815260206004820152601a60248201527f6c61756e636820666565207472616e73666572206661696c65640000000000006044820152606490fd5b634e487b7160e01b81526041600452602490fd5b5062006485565b50565b60405162461bcd60e51b815260206004820152601760248201527f696e73756666696369656e74206c61756e6368206665650000000000000000006044820152606490fd5b908060209392818452848401376000828201840152601f01601f1916010190565b90816020910312620008d657518015158103620008d65790565b90816020910312620008d657516001600160a01b0381168103620008d65790565b6008546001600160a01b039190821615620065fe576112374614620065f657620065ef575061dead90565b6009541690565b505061dead90565b50600954169056fe601f62002af038819003918201601f19166101009081019290916001600160401b03841183851017620003d557816101209284926040968752833981010312620003d0576200004e81620003eb565b6020906200005e828401620003eb565b916200006c858501620003eb565b926060850151608086015160a08701519160c088015193620000a06101006200009860e08c01620003eb565b9a01620003eb565b6001600160a01b0398909790898216156200039b578983161562000364578916998a15620003205761012c8411620002ed578415620002a9578515620002655786156200022f5789169687620001e4575b5060a05260805260018060a01b03199788600054161760005560015560c05260e0526004558360055416176005551690600654161760065534600255516126ef908162000401823960805181818161023b01528181610c6f01528181610d1801528181610edb015281816111c701526112df015260a0518181816101a2015281816102ec0152818161085401528181610a9101528181610d7501528181611b78015281816123ca01528181612574015261261f015260c051818181611037015281816116c60152818161219d0152612233015260e05181818161114e01528181611693015281816121d201526122640152f35b898916620000f1576064908c519062461bcd60e51b82526004820152601560248201527f6c7020726563697069656e7420726571756972656400000000000000000000006044820152fd5b8b5162461bcd60e51b815260048101899052600f60248201526e1d185c99d95d081c995c5d5a5c9959608a1b6044820152606490fd5b8b5162461bcd60e51b815260048101899052601660248201527f7669727475616c20746f6b656e207265717569726564000000000000000000006044820152606490fd5b8b5162461bcd60e51b815260048101899052601460248201527f7669727475616c206574682072657175697265640000000000000000000000006044820152606490fd5b8b5162461bcd60e51b815260048101899052600c60248201526b0cccaca40e8dede40d0d2ced60a31b6044820152606490fd5b8b5162461bcd60e51b815260048101899052601660248201527f66656520726563697069656e74207265717569726564000000000000000000006044820152606490fd5b8b5162461bcd60e51b815260048101899052601060248201526f199858dd1bdc9e481c995c5d5a5c995960821b6044820152606490fd5b8b5162461bcd60e51b815260048101899052600e60248201526d1d1bdad95b881c995c5d5a5c995960921b6044820152606490fd5b600080fd5b634e487b7160e01b600052604160045260246000fd5b51906001600160a01b0382168203620003d05756fe608060408181526004918236101561001657600080fd5b600092833560e01c9182630758d924146113db575081631ad15bbc146113b257816324a9d8531461139357816325217724146112c75781632760eca1146112aa5781632a2c697214611198578163334041a614611171578163343ee3b714611136578163398482d8146111125781634329742d146110ca578163452e68dd146110a157816346904840146110795781634beb394c1461105a57816352b86d2b1461101f5781637f544e49146110005781638c575aa314610e9e5781639556483714610cf0578163a64190c414610cc5578163c446795a14610c9e578163c45a015514610c5a578163cbcb317114610c3b578163d62ccb3f14610c1c578163d79875eb146109af578163d96a094a14610751578163e1a4521814610734578163e3818eb81461021a578163e7c2b772146101f3578163f95a02d0146101d157508063fc0c546a1461018e5763fccc28131461016f57600080fd5b3461018a578160031936011261018a576020905161dead8152f35b5080fd5b503461018a578160031936011261018a57517f00000000000000000000000000000000000000000000000000000000000000006001600160a01b03168152602090f35b9050346101ef57826003193601126101ef5760209250549051908152f35b8280fd5b50503461018a578160031936011261018a5760209060ff60065460a81c1690519015158152f35b9050346101ef57826003193601126101ef576001600160a01b0390610262337f000000000000000000000000000000000000000000000000000000000000000084161461141b565b60069283549261027860ff8560b81c1615611456565b60ff60b81b19938416600160b81b178086556102b99060ff906102a060a082901c831661148f565b6102af828260a81c16156114cd565b60b01c161561150d565b6002546102c781151561154a565b81600554166102d7811515611ae6565b30156106fa57600354928860035588600255807f0000000000000000000000000000000000000000000000000000000000000000169185519063095ea7b360e01b90818352888301528a6024830152818b8160446020958693895af180156106f05791839188936106d3575b5060055489519182526001600160a01b03908616168a82019081526020810193909352918290819003604001818e885af180156106c95761069c575b50816005541693610e10420194854211610689579060608560c48b8f9585908d519b8c95869463f305d71960e01b86528501528d602485015288604485015288606485015230608485015260a48401525af196871561067f5782958397849961063b575b506005548a5163c45a015560e01b815290871686828e81845afa91821561063157968695949392918e98829893610612575b508d516315ab88c960e31b815298899182905afa968715610608578d918d8a92889a6105da575b50918894939181604494519b8c96879563e6a4390560e01b8752860152166024840152165afa9485156105d05790879184966105a1575b50818111610587575b5050868111610522575b5050895460ff60b01b1916600160b01b178a5550600780546001600160a01b0319169290911691821790559351908152602081019190915260408101919091524260608201527f5cfc9ea0e95e86463d8dacd6c53993376a8afab5437e80a8a98d57d7a8b0f2349080608081010390a26104fe6122ff565b91905054811015610513575b50815416905580f35b61051c90611f8a565b3861050a565b818061052f8982946117e1565b878254165af161053d611a64565b501561054a578a81610486565b8760649188519162461bcd60e51b83528201526018602482015277195d1a08191d5cdd081d1c985b9cd9995c8819985a5b195960421b6044820152fd5b61059991610594916117e1565b6125fb565b50853861047c565b6105c2919650853d87116105c9575b6105ba81836118ab565b8101906122cc565b9438610473565b503d6105b0565b8a513d85823e3d90fd5b83604494929b506105fb8b97969492883d8a116105c9576105ba81836118ab565b9b9250935091939461043c565b8c513d87823e3d90fd5b61062a919350823d84116105c9576105ba81836118ab565b9138610415565b8c513d88823e3d90fd5b9650975095506060853d606011610677575b8161065a606093836118ab565b8101031261018a57845195888487015196015196959697386103e3565b3d915061064d565b88513d84823e3d90fd5b634e487b7160e01b8c526011895260248cfd5b6106bb90823d84116106c2575b6106b381836118ab565b810190611a08565b503861037f565b503d6106a9565b87513d8d823e3d90fd5b6106e990833d85116106c2576106b381836118ab565b5038610343565b88513d8e823e3d90fd5b835162461bcd60e51b815260208187015260146024820152731b1c081c9958d95a5d995c881c995c5d5a5c995960621b6044820152606490fd5b50503461018a578160031936011261018a57602090516127108152f35b919050602092836003193601126109ac576006549061077660ff8360b81c1615611456565b60ff60b81b19918216600160b81b1760068190556107af9060ff906107a060a082901c831661148f565b6102af828260a81c1615611957565b341561097a576127106107c460015434611587565b04906107d082346117e1565b946107da8661218f565b956107e687151561198f565b6107f382358810156119d1565b6003549081881161093e5761084f9261081d898b946108158295600254611661565b6002556117e1565b60035585610917575b875163a9059cbb60e01b8152339181019182526020820192909252909283918291604090910190565b0381857f00000000000000000000000000000000000000000000000000000000000000006001600160a01b03165af191821561090c5790610895926108ef575b50611a20565b7fbeae048c6d270d9469f86cf6e8fedda3c60ad770f16c24c9fc131c8e9a09101d8351806108d787339534846040919493926060820195825260208201520152565b0390a26108e2612294565b6006541660065551908152f35b6109069150873d89116106c2576106b381836118ab565b3861088f565b8551903d90823e3d90fd5b610939858080808a60018060a01b038254165af1610933611a64565b50611aa4565b610826565b865162461bcd60e51b81528084018a90526016602482015275696e73756666696369656e74206c697175696469747960501b6044820152606490fd5b825162461bcd60e51b8152808501869052600c60248201526b195d1a081c995c5d5a5c995960a21b6044820152606490fd5b80fd5b919050346101ef57806003193601126101ef578135600654906109d860ff8360b81c1615611456565b60ff60b81b19918216600160b81b176006819055610a029060ff906107a060a082901c831661148f565b610a0d811515611867565b610a1681612227565b94610a2286151561198f565b6002548611610bd957612710610a3a60015488611587565b0495610a4687826117e1565b95610a556024358810156119d1565b85516323b872dd60e01b81523382820190815230602082810191909152604082018790526001600160a01b0394929182908190606001038188887f0000000000000000000000000000000000000000000000000000000000000000165af1908115610bcf57610ae69291610acf918791610bb65750611a20565b610adb86600354611661565b6003556002546117e1565b600255828080808a335af1610af9611a64565b5015610b7d575086807f846c37eef631e0943682d87352ec117c20008eb7f425c9b85ac011a6d4774cc093610b509360209a610b60575b505086519485525060208401879052604084015233929081906060820190565b0390a26006541660065551908152f35b8180610b759481938254165af1610933611a64565b803880610b30565b606490602087519162461bcd60e51b83528201526013602482015272195d1a081d1c985b9cd9995c8819985a5b1959606a1b6044820152fd5b610906915060203d6020116106c2576106b381836118ab565b88513d87823e3d90fd5b835162461bcd60e51b8152602081870152601860248201527f696e73756666696369656e7420657468207265736572766500000000000000006044820152606490fd5b50503461018a578160031936011261018a576020906002549051908152f35b50503461018a578160031936011261018a576020906003549051908152f35b50503461018a578160031936011261018a57517f00000000000000000000000000000000000000000000000000000000000000006001600160a01b03168152602090f35b50503461018a578160031936011261018a5760209060ff60065460b01c1690519015158152f35b905082346109ac5760203660031901126109ac5750610ce490356118e3565b82519182526020820152f35b8391503461018a57602090816003193601126101ef578035906001600160a01b0390610d3f337f000000000000000000000000000000000000000000000000000000000000000084161461141b565b6006549160ff8360a01c16610e6a5784602491610d5d861515611867565b88516370a0823160e01b8152308582015292839182907f0000000000000000000000000000000000000000000000000000000000000000165afa908115610e60579084918791610e2b575b5010610df2575060ff60a01b1916600160a01b176006556003819055925192835290917fa71ed34ff06af8d6865a8f541aae52d72fa89f0e5ee15f01d48fa6c62c8569149190a180f35b855162461bcd60e51b81529081018490526013602482015272696e73756666696369656e7420746f6b656e7360681b6044820152606490fd5b809250868092503d8311610e59575b610e4481836118ab565b81010312610e555783905188610da8565b8580fd5b503d610e3a565b87513d88823e3d90fd5b865162461bcd60e51b8152808301869052600e60248201526d185b1c9958591e481cd95959195960921b6044820152606490fd5b8391503461018a57606036600319011261018a57610eba611400565b602435916001600160a01b0390818416808503610e555760443592610f02817f000000000000000000000000000000000000000000000000000000000000000016331461141b565b60065490610f1660ff8360a81c16156114cd565b8415610fcb5785169081610f8b575b600580546001600160a01b0319908116939093179055161760065581905593516001600160a01b039182168152911660208201526040810192909252907fbcdc4bff84f936019028a7bcbef6b449550d6334606377b822720e57e94276c490606090a180f35b82610f2557885162461bcd60e51b815260208186015260156024820152741b1c081c9958da5c1a595b9d081c995c5d5a5c9959605a1b6044820152606490fd5b885162461bcd60e51b8152602081860152600f60248201526e1d185c99d95d081c995c5d5a5c9959608a1b6044820152606490fd5b50503461018a578160031936011261018a576020906008549051908152f35b50503461018a578160031936011261018a57602090517f00000000000000000000000000000000000000000000000000000000000000008152f35b905082346109ac5760203660031901126109ac5750610ce490356117ee565b50503461018a578160031936011261018a57905490516001600160a01b039091168152602090f35b50503461018a578160031936011261018a5760065490516001600160a01b039091168152602090f35b83346109ac57806003193601126109ac576006546110ee60ff8260b81c1615611456565b60ff60b81b19908116600160b81b1760065561110861177d565b6006541660065580f35b50503461018a578160031936011261018a5760209061112f61166e565b9051908152f35b50503461018a578160031936011261018a57602090517f00000000000000000000000000000000000000000000000000000000000000008152f35b50503461018a578160031936011261018a5760209060ff60065460a01c1690519015158152f35b919050346101ef57806003193601126101ef576111b3611400565b60243591906001600160a01b03906111ee337f000000000000000000000000000000000000000000000000000000000000000084161461141b565b169283156112735761012c8311611242575083546001600160a01b031916831784556001829055519081527fe42708d93b95810922305119a3271ca42233da9ebe1e1e503f0e887817a32c7a90602090a280f35b6020606492519162461bcd60e51b8352820152600c60248201526b0cccaca40e8dede40d0d2ced60a31b6044820152fd5b6020606492519162461bcd60e51b835282015260126024820152711c9958da5c1a595b9d081c995c5d5a5c995960721b6044820152fd5b50503461018a578160031936011261018a5760209061112f6115d0565b50503461018a578160031936011261018a5761130d337f00000000000000000000000000000000000000000000000000000000000000006001600160a01b03161461141b565b6006549061132160ff8360b81c1615611456565b60ff60b81b19918216600160b81b17600681905561134b9060ff906102a060a082901c831661148f565b7f5d6dc6b9835f5448ae2351719684f59735b30dfa8e62677cc6f9e98bd4c08f7f6002549161137b83151561154a565b600354815193845260208401523392a2611108611b27565b50503461018a578160031936011261018a576020906001549051908152f35b50503461018a578160031936011261018a5760075490516001600160a01b039091168152602090f35b84903461018a578160031936011261018a576005546001600160a01b03168152602090f35b600435906001600160a01b038216820361141657565b600080fd5b1561142257565b60405162461bcd60e51b815260206004820152600c60248201526b6f6e6c7920666163746f727960a01b6044820152606490fd5b1561145d57565b60405162461bcd60e51b815260206004820152600a6024820152697265656e7472616e637960b01b6044820152606490fd5b1561149657565b60405162461bcd60e51b815260206004820152600f60248201526e1c1bdbdb081b9bdd081cd959591959608a1b6044820152606490fd5b156114d457565b60405162461bcd60e51b8152602060048201526011602482015270185b1c9958591e4819dc98591d585d1959607a1b6044820152606490fd5b1561151457565b60405162461bcd60e51b815260206004820152600e60248201526d646578206375727665206c69766560901b6044820152606490fd5b1561155157565b60405162461bcd60e51b815260206004820152600e60248201526d6e6f20657468207265736572766560901b6044820152606490fd5b8181029291811591840414171561159a57565b634e487b7160e01b600052601160045260246000fd5b81156115ba570490565b634e487b7160e01b600052601260045260246000fd5b600454801561165b5760065460ff8160b01c16908115611633575b501561162b576115f96122ff565b90505b612710918282029180830484149015171561159a5761161a916115b0565b90808211611626575090565b905090565b6002546115fc565b60ff915060a81c1680611647575b386115eb565b506007546001600160a01b03161515611641565b50600090565b9190820180921161159a57565b60065460ff8160b01c1690811561172e575b508061171a575b611712576116b86003547f000000000000000000000000000000000000000000000000000000000000000090611661565b801561165b576116eb6002547f000000000000000000000000000000000000000000000000000000000000000090611661565b90670de0b6b3a76400009182810292818404149015171561159a5761170f916115b0565b90565b61170f611f42565b506007546001600160a01b03161515611687565b60ff915060a81c1638611680565b1561174357565b60405162461bcd60e51b81526020600482015260126024820152711d185c99d95d081b9bdd081c995858da195960721b6044820152606490fd5b60ff600654611790828260a01c1661148f565b61179f828260a81c16156114cd565b60b01c166117c1576117b7600254600454111561173c565b6117bf611b27565b565b6117bf6117cc6122ff565b90506117dc60045482101561173c565b611f8a565b9190820391821161159a57565b60065460ff8160a01c1615908115611858575b811561184a575b508015611842575b6118395761183661183161271061182960015485611587565b0480936117e1565b61218f565b91565b50600090600090565b508015611810565b60ff915060b01c1638611808565b905060ff8160a81c1690611801565b1561186e57565b60405162461bcd60e51b81526020600482015260156024820152741d1bdad95b88185b5bdd5b9d081c995c5d5a5c9959605a1b6044820152606490fd5b90601f8019910116810190811067ffffffffffffffff8211176118cd57604052565b634e487b7160e01b600052604160045260246000fd5b60065460ff8160a01c1615908115611948575b811561193a575b508015611932575b6118395761191290612227565b80156118395761183661271061192a60015484611587565b0480926117e1565b508015611905565b60ff915060b01c16386118fd565b905060ff8160a81c16906118f6565b1561195e57565b60405162461bcd60e51b815260206004820152600960248201526819dc98591d585d195960ba1b6044820152606490fd5b1561199657565b60405162461bcd60e51b81526020600482015260136024820152721a5b9cdd59999a58da595b9d081bdd5d1c1d5d606a1b6044820152606490fd5b156119d857565b60405162461bcd60e51b8152602060048201526008602482015267736c69707061676560c01b6044820152606490fd5b90816020910312611416575180151581036114165790565b15611a2757565b60405162461bcd60e51b81526020600482015260156024820152741d1bdad95b881d1c985b9cd9995c8819985a5b1959605a1b6044820152606490fd5b3d15611a9f573d9067ffffffffffffffff82116118cd5760405191611a93601f8201601f1916602001846118ab565b82523d6000602084013e565b606090565b15611aab57565b60405162461bcd60e51b8152602060048201526013602482015272199959481d1c985b9cd9995c8819985a5b1959606a1b6044820152606490fd5b15611aed57565b60405162461bcd60e51b815260206004820152601260248201527119195e081c9bdd5d195c881b9bdd081cd95d60721b6044820152606490fd5b6005546001600160a01b0390811690611b41821515611ae6565b6006805460ff60a81b198116600160a81b179091554260085581168015611f065760035491600254906000948560035585600255817f0000000000000000000000000000000000000000000000000000000000000000169260409687519163095ea7b360e01b808452600494858501528260248501526020938481604481878c5af18015611efc579185918b93611edf575b506005548c5191825288166001600160a01b0316878201908152602081019390935291829081906040010381868b5af180156105d057611ec2575b508460055416610e104201804211611eaf5760c488846060948d948f519d8e96879563f305d71960e01b87528d8701526024860152896044860152896064860152608485015260a48401525af1978815611ea55782968398849a611e61575b506005548b5163c45a015560e01b815290881686828981845afa918215611e3857889392918e89928994611e42575b50516315ab88c960e31b815294859182905afa928315611e3857928796959493928a8f93819b9a958994611e18575b5060449394519b8c95869463e6a4390560e01b86528d860152166024840152165afa958615611e0e579088918497611def575b50818111611dda575b5050878111611d75575b5050600780546001600160a01b0319169490931693841790925550509351908152602081019190915260408101919091524260608201527f71aa8c3702dbbc54247a4e6446450e64a46250dd72707a247ddb01d72eaef4459080608081015b0390a2565b8180611d828a82946117e1565b888254165af1611d90611a64565b5015611d9d578080611d11565b875162461bcd60e51b8152918201526018602482015277195d1a08191d5cdd081d1c985b9cd9995c8819985a5b195960421b604482015260649150fd5b611de791610594916117e1565b508638611d07565b611e07919750853d87116105c9576105ba81836118ab565b9538611cfe565b8b513d85823e3d90fd5b60449450611e3290873d89116105c9576105ba81836118ab565b93611ccb565b8d513d88823e3d90fd5b611e5a919450833d85116105c9576105ba81836118ab565b9238611c9c565b9750985096506060863d606011611e9d575b81611e80606093836118ab565b8101031261018a5785519689848801519701519796979838611c6d565b3d9150611e73565b89513d84823e3d90fd5b634e487b7160e01b845260118652602484fd5b611ed890843d86116106c2576106b381836118ab565b5038611c0e565b611ef590833d85116106c2576106b381836118ab565b5038611bd3565b8b513d86823e3d90fd5b60405162461bcd60e51b81526020600482015260146024820152731b1c081c9958d95a5d995c881c995c5d5a5c995960621b6044820152606490fd5b611f4a6122ff565b9080158015611f82575b611f7b57670de0b6b3a76400009182810292818404149015171561159a5761170f916115b0565b5050600090565b508115611f54565b9060065460ff8160b01c1615612155576007546001600160a01b039081169182156121215761ffff60a81b1916600160a81b1760065542600855604080516370a0823160e01b815230600482015290926020908183602481845afa9283156120e7576000936120f2575b5082612055575b5050611d707f6d6435bd27368eeaa8bea9975846b4ffc3d4864faabcec7e007dc6014f4ea05593949561202c612559565b936007541695519384934292859094939260609260808301968352602083015260408201520152565b81600091604487518094819363a9059cbb60e01b835261dead60048401528860248401525af19081156120e7576000916120ca575b50156120965780611ffb565b60649084519062461bcd60e51b82526004820152600e60248201526d1b1c08189d5c9b8819985a5b195960921b6044820152fd5b6120e19150823d84116106c2576106b381836118ab565b3861208a565b85513d6000823e3d90fd5b90928282813d831161211a575b61210981836118ab565b810103126109ac5750519138611ff4565b503d6120ff565b60405162461bcd60e51b815260206004820152600c60248201526b1c185a5c881b9bdd081cd95d60a21b6044820152606490fd5b60405162461bcd60e51b8152602060048201526012602482015271646578206375727665206e6f74206c69766560701b6044820152606490fd5b801561165b576121c26002547f000000000000000000000000000000000000000000000000000000000000000090611661565b9061220e600354926122086121f77f000000000000000000000000000000000000000000000000000000000000000086611661565b936122028584611587565b92611661565b906115b0565b8082111561221f5761161a916117e1565b505050600090565b6002549061220e6122587f000000000000000000000000000000000000000000000000000000000000000084611661565b916122086122896003547f000000000000000000000000000000000000000000000000000000000000000090611661565b916122028386611587565b60065460ff8160a81c169081156122be575b506117bf57600254600454116117bf576117bf611b27565b60ff915060b01c16386122a6565b9081602091031261141657516001600160a01b03811681036114165790565b51906001600160701b038216820361141657565b600754600091906001600160a01b03908390819083168015801561254d575b61254557836005541690604094855180936315ab88c960e31b825281600460209384935afa93841561253b57899461251c575b508651630dfe168160e01b8152908082600481875afa918215612512578a926124f3575b50875163d21220a760e01b8152938185600481845afa9485156124e9578b956124c2575b509060606004928a5193848092630240bc6b60e21b82525afa9a8b156124b7578099819c612458575b5050505081807f0000000000000000000000000000000000000000000000000000000000000000169116928184148061244b575b1561241257505050505050506001600160701b03809116921690565b959894979695821614928361243f575b50505061242d575050565b6001600160701b039081169450169150565b16149050388080612422565b50828516838216146123f6565b91939b509198506060893d6060116124af575b81612478606093836118ab565b8101031261018a5761249461248c8a6122eb565b938a016122eb565b98015163ffffffff8116036109ac57509597388080806123c2565b3d915061246b565b8951903d90823e3d90fd5b829195506124e06060916004943d85116105c9576105ba81836118ab565b95919250612399565b89513d8d823e3d90fd5b8161250b9293503d84116105c9576105ba81836118ab565b9038612375565b88513d8c823e3d90fd5b816125349295503d86116105c9576105ba81836118ab565b9238612351565b87513d8b823e3d90fd5b505050508190565b5083600554161561231e565b6040516370a0823160e01b81523060048201526020816024817f00000000000000000000000000000000000000000000000000000000000000006001600160a01b03165afa9081156125ef576000916125bd575b50801561165b5761170f906125fb565b90506020813d6020116125e7575b816125d8602093836118ab565b810103126114165751386125ad565b3d91506125cb565b6040513d6000823e3d90fd5b801561165b57604051630852cd8d60e31b81526004810182905260208160248160007f00000000000000000000000000000000000000000000000000000000000000006001600160a01b03165af19081156125ef5760009161269a575b50156126615790565b60405162461bcd60e51b81526020600482015260116024820152701d1bdad95b88189d5c9b8819985a5b1959607a1b6044820152606490fd5b6126b3915060203d6020116106c2576106b381836118ab565b3861265856fea2646970667358221220efba7e76bee9ac440d34f6b2792fe5ec1d2efc94da64b0148c9175cf5476f18064736f6c6343000818003360406101408152346200060d5762001808803803806200001f8162000612565b92833981019160e0828403126200060d5781516001600160401b03908181116200060d57846200005191850162000638565b9360209081850151908382116200060d576200006f91860162000638565b9083850151946200008360608201620006aa565b6200009160808301620006aa565b9060c0620000a260a08501620006aa565b93015198805115620005d957855115620005a35788156200056d576001600160a01b0382811697908815620005365780851615620004ff57851615620004c7576103e88b116200048e57815181811162000478576000978854916001948584811c941680156200046d575b8a85101462000459578190601f9485811162000406575b508a90858311600114620003a1578c9262000395575b5050600019600383901b1c191690851b1789555b8051928311620003815783548481811c9116801562000376575b898210146200036257908183859493116200030d575b5088918311600114620002a95789926200029d575b5050600019600383901b1c191690821b1790555b8760025560805260a05260c0528560e052610fa080870290878204148715171562000289576127109004946101209580875287039687116200028957907fddf252ad1be2c89b69c2b068fc378daa952ba7f163c4a11628f55a4df523b3ef916101009788528484526006825280868520558551908152a351906111489283620006c084396080518381816102430152818161030a0152610366015260a05183818161077d0152610c8d015260c051838181610198015261087a015260e05183818161064f0152610ec8015251828181610aec0152610f0601525181610a4e0152f35b634e487b7160e01b83526011600452602483fd5b01519050388062000193565b848a52888a208594509190601f1984168b5b8b828210620002f65750508411620002dc575b505050811b019055620001a7565b015160001960f88460031b161c19169055388080620002ce565b8385015186558897909501949384019301620002bb565b90919250848a52888a208380860160051c8201928b871062000358575b91869588929594930160051c01915b828110620003495750506200017e565b8c815586955087910162000339565b925081926200032a565b634e487b7160e01b8a52602260045260248afd5b90607f169062000168565b634e487b7160e01b89526041600452602489fd5b0151905038806200013a565b8c80528b8d208894509190601f1984168e8e5b828210620003ee5750508411620003d4575b505050811b0189556200014e565b015160001960f88460031b161c19169055388080620003c6565b8385015186558b979095019493840193018e620003b4565b9091508b80528a8c208580850160051c8201928d86106200044f575b918991869594930160051c01915b8281106200044057505062000124565b8e815585945089910162000430565b9250819262000422565b634e487b7160e01b8b52602260045260248bfd5b93607f16936200010d565b634e487b7160e01b600052604160045260246000fd5b885162461bcd60e51b81526004810187905260126024820152710e8e4c2c8ca40cccaca40e8dede40d0d2ced60731b6044820152606490fd5b885162461bcd60e51b81526004810187905260116024820152701c1b185d199bdc9b481c995c5d5a5c9959607a1b6044820152606490fd5b895162461bcd60e51b815260048101889052601060248201526f18dc99585d1bdc881c995c5d5a5c995960821b6044820152606490fd5b895162461bcd60e51b815260048101889052601060248201526f199858dd1bdc9e481c995c5d5a5c995960821b6044820152606490fd5b875162461bcd60e51b815260048101869052600f60248201526e1cdd5c1c1b1e481c995c5d5a5c9959608a1b6044820152606490fd5b875162461bcd60e51b815260048101869052600f60248201526e1cde5b589bdb081c995c5d5a5c9959608a1b6044820152606490fd5b875162461bcd60e51b815260048101869052600d60248201526c1b985b59481c995c5d5a5c9959609a1b6044820152606490fd5b600080fd5b6040519190601f01601f191682016001600160401b038111838210176200047857604052565b919080601f840112156200060d5782516001600160401b03811162000478576020906200066e601f8201601f1916830162000612565b928184528282870101116200060d5760005b8181106200069657508260009394955001015290565b858101830151848201840152820162000680565b51906001600160a01b03821682036200060d5756fe608060408181526004918236101561001657600080fd5b600092833560e01c91826302d05d3f14610c7957508163044991d814610c5a57816306fdde0314610b80578163095ea7b314610b0f57816317773ebb14610ad457816318160ddd14610ab55781631e26906b14610a8e5781632044dbb214610a7157816322dcd13e14610a3657816323b872dd1461092f5781632bebf6bf146108655781632f9f103214610849578163313ce5671461082d578163351fee461461076957816342966c681461068f5781635b632360146106725781635faad8c51461063757816370a08231146105ff57816395d89b41146104dc5781639e5f358a146104be578163a9059cbb1461048d578163ae36f5c814610339578163c45a0155146102f5578163dc4b1c0e1461022b57508063dd62ed3e146101e3578063e1a45218146101c7578063eb13554f146101845763f242ab411461015957600080fd5b3461018057816003193601126101805760035490516001600160a01b039091168152602090f35b5080fd5b5034610180578160031936011261018057517f00000000000000000000000000000000000000000000000000000000000000006001600160a01b03168152602090f35b5034610180578160031936011261018057602090516127108152f35b503461018057806003193601126101805780602092610200610d05565b610208610d20565b6001600160a01b0391821683526007865283832091168252845220549051908152f35b9050346102f157826003193601126102f157610271337f00000000000000000000000000000000000000000000000000000000000000006001600160a01b031614610dd6565b6003549160ff8360a01c166102ba57505060ff60a01b1916600160a01b17600355337f60b9765cf08f04b4850cd9a0f8da6fa9e854afd328723cc3f6adea6fb4f18d238280a280f35b906020606492519162461bcd60e51b83528201526011602482015270185b1c9958591e481c995b9bdd5b98d959607a1b6044820152fd5b8280fd5b505034610180578160031936011261018057517f00000000000000000000000000000000000000000000000000000000000000006001600160a01b03168152602090f35b8391503461018057602036600319011261018057610355610d05565b6001600160a01b0390819061038d337f0000000000000000000000000000000000000000000000000000000000000000841614610dd6565b1691821561045a576003549160ff8360a01c166104175782166103e157506001600160a01b03191681176003557fc3cd203585fbc28dcc1692611d2ebc4190312a5b189047df793c69b157aa0d298280a280f35b606490602086519162461bcd60e51b8352820152601060248201526f1c185a5c88185b1c9958591e481cd95d60821b6044820152fd5b855162461bcd60e51b8152602081840152601960248201527f666163746f727920636f6e74726f6c2072656e6f756e636564000000000000006044820152606490fd5b606490602086519162461bcd60e51b8352820152600d60248201526c1c185a5c881c995c5d5a5c9959609a1b6044820152fd5b5050346101805780600319360112610180576020906104b76104ad610d05565b6024359033610e31565b5160018152f35b9050346102f157826003193601126102f15760209250549051908152f35b8383346101805781600319360112610180578051908260018054908160011c90600183169283156105f5575b60209384841081146105e2578388529081156105c65750600114610570575b505050829003601f01601f191682019267ffffffffffffffff84118385101761055d5750829182610559925282610cbc565b0390f35b634e487b7160e01b815260418552602490fd5b600187529192508591837fb10e2d527612073b26eecdfd717e6a320cf44b4afac2b0732d9fcbe2b7fa0cf65b8385106105b25750505050830101858080610527565b80548886018301529301928490820161059c565b60ff1916878501525050151560051b8401019050858080610527565b634e487b7160e01b895260228a52602489fd5b91607f1691610508565b5050346101805760203660031901126101805760209181906001600160a01b03610627610d05565b1681526006845220549051908152f35b505034610180578160031936011261018057602090517f00000000000000000000000000000000000000000000000000000000000000008152f35b505034610180578160031936011261018057602090516103e88152f35b9050346102f157602092836003193601126107665781359182156107315750338152600684526106ce82848320546106c982821015610d98565b610d36565b33825260068552838220556106e582600254610d36565b60025582518281526000805160206110f3833981519152853392a381519081527fcc16f5dbb4873280815c1ee09dbd06736cffcc184412cf7a71a0fdb75d397ca5833392a25160018152f35b835162461bcd60e51b8152908101859052600f60248201526e185b5bdd5b9d081c995c5d5a5c9959608a1b6044820152606490fd5b80fd5b8383346101805781600319360112610180577f00000000000000000000000000000000000000000000000000000000000000006001600160a01b03811690338290036107fb57846107cd91602096549586926107c6841515610d59565b5530611010565b7fd046302bdc39599e60a5981e59227dcd1c643f512f56f2e984390c3ac6eadedb848351858152a251908152f35b825162461bcd60e51b8152602081870152600c60248201526b37b7363c9031b932b0ba37b960a11b6044820152606490fd5b5050346101805781600319360112610180576020905160128152f35b5050346101805781600319360112610180576020905160328152f35b919050346102f157826003193601126102f1577f0000000000000000000000000000000000000000000000000000000000000000916001600160a01b03831690338290036108fc57506108ce6020946005549485916108c5831515610d59565b60055530611010565b7f0636f1043cff5f4c437926a4412416778ddc5e970feb177685b587e81dad9095848351858152a251908152f35b606490602084519162461bcd60e51b8352820152600d60248201526c6f6e6c7920706c6174666f726d60981b6044820152fd5b919050346102f15760603660031901126102f15761094b610d05565b610953610d20565b6044359160018060a01b03811680875260209560078752858820338952875285882054908582106109fe5750948096976104b79686600019820361099c575b5050505050610e31565b6109a591610d36565b83825260078a528282203383528a528282205582815260078952818120338252895220549086519182527f8c5be1e5ebec7d5bd14f71427d1e84f3dd0314c0f7b2291e5b200ac8c7c3b925883393a33885818086610992565b865162461bcd60e51b81529081018890526012602482015271185b1b1bddd85b98d948195e18d95959195960721b6044820152606490fd5b505034610180578160031936011261018057602090517f00000000000000000000000000000000000000000000000000000000000000008152f35b50503461018057816003193601126101805760209051610fa08152f35b50503461018057816003193601126101805760209060ff60035460a01c1690519015158152f35b5050346101805781600319360112610180576020906002549051908152f35b505034610180578160031936011261018057602090517f00000000000000000000000000000000000000000000000000000000000000008152f35b50503461018057806003193601126101805760209181610b2d610d05565b91602435918291338152600787528181209460018060a01b0316948582528752205582519081527f8c5be1e5ebec7d5bd14f71427d1e84f3dd0314c0f7b2291e5b200ac8c7c3b925843392a35160018152f35b83833461018057816003193601126101805780519082835460018160011c9060018316928315610c50575b60209384841081146105e2578388529081156105c65750600114610bfb57505050829003601f01601f191682019267ffffffffffffffff84118385101761055d5750829182610559925282610cbc565b8680529192508591837f290decd9548b62a8d60345a988386fc84ba6bc95484008f6362f93160ef3e5635b838510610c3c5750505050830101858080610527565b805488860183015293019284908201610c26565b91607f1691610bab565b5050346101805781600319360112610180576020906005549051908152f35b8490346101805781600319360112610180577f00000000000000000000000000000000000000000000000000000000000000006001600160a01b03168152602090f35b6020808252825181830181905290939260005b828110610cf157505060409293506000838284010152601f8019910116010190565b818101860151848201604001528501610ccf565b600435906001600160a01b0382168203610d1b57565b600080fd5b602435906001600160a01b0382168203610d1b57565b91908203918211610d4357565b634e487b7160e01b600052601160045260246000fd5b15610d6057565b60405162461bcd60e51b815260206004820152601060248201526f6e6f7468696e6720746f20636c61696d60801b6044820152606490fd5b15610d9f57565b60405162461bcd60e51b815260206004820152600f60248201526e62616c616e636520746f6f206c6f7760881b6044820152606490fd5b15610ddd57565b60405162461bcd60e51b815260206004820152600c60248201526b6f6e6c7920666163746f727960a01b6044820152606490fd5b81810292918115918404141715610d4357565b91908201809211610d4357565b6001600160a01b03808316939192908415610fdc5783169260009184835260209260068452604091610e748383205491610e6d88841015610d98565b87956110b6565b80610fd3575b610ebd575b90610e9a6000805160206110f3833981519152968493610d36565b878252600686528282205587815220610eb4838254610e24565b905551908152a3565b612710888882610eed7f00000000000000000000000000000000000000000000000000000000000000008b610e11565b049283610efe575b50505050610e7f565b8695949397507f0000000000000000000000000000000000000000000000000000000000000000610f2f908b610e11565b0485888a848d610f3f8685610d36565b93610f4991610d36565b9b8560045490610f5891610e24565b6004558360055490610f6991610e24565b600555308a5260068352848a2081815490610f8391610e24565b9055845190815230926000805160206110f383398151915291a381519283528a8301527f93bd139ea85d53c55e02dec709128f827ebd5cb8a4a0d873193711b70b0a15b991a39091888838610ef5565b50851515610e7a565b60405162461bcd60e51b815260206004820152600c60248201526b7a65726f206164647265737360a01b6044820152606490fd5b60018060a01b038091169160009383855260066020526040852054818110611078576000805160206110f38339815191529360209361105184604094610d36565b878952600686528389205516958681522061106d828254610e24565b9055604051908152a3565b60405162461bcd60e51b81526020600482015260166024820152751a5b9cdd59999a58da595b9d08199959481d985d5b1d60521b6044820152606490fd5b6003546001600160a01b039081169182156110e957811682149283156110dd575b50505090565b161490503880806110d7565b5050505060009056feddf252ad1be2c89b69c2b068fc378daa952ba7f163c4a11628f55a4df523b3efa264697066735822122044fcb14b3f7cb8a9286eca6bf592a4f3caf9627e236f36d27101f0273e8f794e64736f6c634300081800338620494f920761bd37321ddd1f125e085d81426820d3ca4e8b1f0ab3dab7a578dc7fea29d21f6a39e7f1b42ad6100f8cdaff48535852696a1155de8a81d87a06a26469706673582212201314e1826943f7001af184f3f6fd788334ebf0f2605d1be5adf0807804530f0864736f6c63430008180033","opcodes":"PUSH1 0x80 CALLVALUE PUSH3 0x2FD JUMPI PUSH1 0x1F PUSH3 0xACA2 CODESIZE DUP2 SWAP1 SUB SWAP2 DUP3 ADD PUSH1 0x1F NOT AND DUP4 ADD SWAP3 SWAP2 SWAP1 PUSH1 0x1 PUSH1 0x1 PUSH1 0x40 SHL SUB DUP5 GT DUP4 DUP6 LT OR PUSH3 0x302 JUMPI DUP2 PUSH2 0x120 SWAP3 DUP5 SWAP3 PUSH1 0x40 SWAP7 DUP8 MSTORE DUP4 CODECOPY DUP2 ADD SUB SLT PUSH3 0x2FD JUMPI PUSH3 0x52 DUP2 PUSH3 0x318 JUMP JUMPDEST PUSH1 0x20 SWAP2 PUSH3 0x62 DUP4 DUP3 ADD PUSH3 0x318 JUMP JUMPDEST SWAP3 DUP5 DUP3 ADD MLOAD PUSH1 0x60 DUP4 ADD MLOAD PUSH1 0x80 DUP5 ADD MLOAD PUSH1 0xA0 DUP6 ADD MLOAD SWAP2 PUSH1 0xC0 DUP7 ADD MLOAD SWAP4 PUSH3 0x9A PUSH2 0x100 PUSH3 0x92 PUSH1 0xE0 DUP11 ADD PUSH3 0x318 JUMP JUMPDEST SWAP9 ADD PUSH3 0x318 JUMP JUMPDEST PUSH1 0x1 PUSH1 0x1 PUSH1 0xA0 SHL SUB SWAP9 DUP10 AND SWAP10 SWAP1 SWAP8 SWAP1 DUP11 ISZERO PUSH3 0x2B9 JUMPI PUSH2 0x12C DUP4 GT PUSH3 0x286 JUMPI DUP10 AND SWAP1 DUP2 ISZERO PUSH3 0x242 JUMPI DUP5 ISZERO PUSH3 0x1FE JUMPI DUP6 ISZERO PUSH3 0x1BA JUMPI DUP7 ISZERO PUSH3 0x184 JUMPI DUP10 AND SWAP7 DUP8 PUSH3 0x139 JUMPI JUMPDEST POP PUSH1 0x1 DUP1 PUSH1 0xA0 SHL SUB NOT SWAP10 CALLER DUP12 PUSH1 0x0 SLOAD AND OR PUSH1 0x0 SSTORE DUP11 PUSH1 0x1 SLOAD AND OR PUSH1 0x1 SSTORE DUP10 PUSH1 0x2 SLOAD AND OR PUSH1 0x2 SSTORE PUSH1 0x3 SSTORE PUSH1 0x4 SSTORE PUSH1 0x5 SSTORE PUSH1 0x6 SSTORE PUSH1 0x7 SSTORE DUP4 PUSH1 0x8 SLOAD AND OR PUSH1 0x8 SSTORE AND SWAP1 PUSH1 0x9 SLOAD AND OR PUSH1 0x9 SSTORE MLOAD PUSH2 0xA974 SWAP1 DUP2 PUSH3 0x32E DUP3 CODECOPY RETURN JUMPDEST DUP10 DUP10 AND PUSH3 0xE3 JUMPI PUSH1 0x64 SWAP1 DUP13 MLOAD SWAP1 PUSH3 0x461BCD PUSH1 0xE5 SHL DUP3 MSTORE PUSH1 0x4 DUP3 ADD MSTORE PUSH1 0x15 PUSH1 0x24 DUP3 ADD MSTORE PUSH32 0x6C7020726563697069656E742072657175697265640000000000000000000000 PUSH1 0x44 DUP3 ADD MSTORE REVERT JUMPDEST DUP12 MLOAD PUSH3 0x461BCD PUSH1 0xE5 SHL DUP2 MSTORE PUSH1 0x4 DUP2 ADD DUP10 SWAP1 MSTORE PUSH1 0xF PUSH1 0x24 DUP3 ADD MSTORE PUSH15 0x1D185C99D95D081C995C5D5A5C9959 PUSH1 0x8A SHL PUSH1 0x44 DUP3 ADD MSTORE PUSH1 0x64 SWAP1 REVERT JUMPDEST DUP12 MLOAD PUSH3 0x461BCD PUSH1 0xE5 SHL DUP2 MSTORE PUSH1 0x4 DUP2 ADD DUP10 SWAP1 MSTORE PUSH1 0x16 PUSH1 0x24 DUP3 ADD MSTORE PUSH32 0x7669727475616C20746F6B656E20726571756972656400000000000000000000 PUSH1 0x44 DUP3 ADD MSTORE PUSH1 0x64 SWAP1 REVERT JUMPDEST DUP12 MLOAD PUSH3 0x461BCD PUSH1 0xE5 SHL DUP2 MSTORE PUSH1 0x4 DUP2 ADD DUP10 SWAP1 MSTORE PUSH1 0x14 PUSH1 0x24 DUP3 ADD MSTORE PUSH32 0x7669727475616C20657468207265717569726564000000000000000000000000 PUSH1 0x44 DUP3 ADD MSTORE PUSH1 0x64 SWAP1 REVERT JUMPDEST DUP12 MLOAD PUSH3 0x461BCD PUSH1 0xE5 SHL DUP2 MSTORE PUSH1 0x4 DUP2 ADD DUP10 SWAP1 MSTORE PUSH1 0x1B PUSH1 0x24 DUP3 ADD MSTORE PUSH32 0x706C6174666F726D20726563697069656E742072657175697265640000000000 PUSH1 0x44 DUP3 ADD MSTORE PUSH1 0x64 SWAP1 REVERT JUMPDEST DUP12 MLOAD PUSH3 0x461BCD PUSH1 0xE5 SHL DUP2 MSTORE PUSH1 0x4 DUP2 ADD DUP10 SWAP1 MSTORE PUSH1 0xC PUSH1 0x24 DUP3 ADD MSTORE PUSH12 0xCCCACA40E8DEDE40D0D2CED PUSH1 0xA3 SHL PUSH1 0x44 DUP3 ADD MSTORE PUSH1 0x64 SWAP1 REVERT JUMPDEST DUP12 MLOAD PUSH3 0x461BCD PUSH1 0xE5 SHL DUP2 MSTORE PUSH1 0x4 DUP2 ADD DUP10 SWAP1 MSTORE PUSH1 0x16 PUSH1 0x24 DUP3 ADD MSTORE PUSH32 0x66656520726563697069656E7420726571756972656400000000000000000000 PUSH1 0x44 DUP3 ADD MSTORE PUSH1 0x64 SWAP1 REVERT JUMPDEST PUSH1 0x0 DUP1 REVERT JUMPDEST PUSH4 0x4E487B71 PUSH1 0xE0 SHL PUSH1 0x0 MSTORE PUSH1 0x41 PUSH1 0x4 MSTORE PUSH1 0x24 PUSH1 0x0 REVERT JUMPDEST MLOAD SWAP1 PUSH1 0x1 PUSH1 0x1 PUSH1 0xA0 SHL SUB DUP3 AND DUP3 SUB PUSH3 0x2FD JUMPI JUMP INVALID PUSH2 0x2C0 DUP1 PUSH1 0x40 MSTORE PUSH1 0x4 CALLDATASIZE LT ISZERO PUSH3 0x15 JUMPI PUSH1 0x0 DUP1 REVERT JUMPDEST PUSH1 0x0 CALLDATALOAD PUSH1 0xE0 SHR SWAP1 DUP2 PUSH4 0xB0420BB EQ PUSH3 0x5C64 JUMPI POP DUP1 PUSH4 0x1036338C EQ PUSH3 0x4FAE JUMPI DUP1 PUSH4 0x13ED4AA6 EQ PUSH3 0x4F83 JUMPI DUP1 PUSH4 0x1C8C0D92 EQ PUSH3 0x4F63 JUMPI DUP1 PUSH4 0x39CBFA1F EQ PUSH3 0x4F44 JUMPI DUP1 PUSH4 0x3C0F4305 EQ PUSH3 0x4249 JUMPI DUP1 PUSH4 0x46904840 EQ PUSH3 0x421E JUMPI DUP1 PUSH4 0x4A9DDFDD EQ PUSH3 0x4200 JUMPI DUP1 PUSH4 0x5930D3CE EQ PUSH3 0x416C JUMPI DUP1 PUSH4 0x5DE3BAFB EQ PUSH3 0x32CF JUMPI DUP1 PUSH4 0x63F0EB04 EQ PUSH3 0x32AF JUMPI DUP1 PUSH4 0x80FA02F7 EQ PUSH3 0x3290 JUMPI DUP1 PUSH4 0x83EEB3BB EQ PUSH3 0x3270 JUMPI DUP1 PUSH4 0x8DA5CB5B EQ PUSH3 0x3245 JUMPI DUP1 PUSH4 0x93A8E04D EQ PUSH3 0x3225 JUMPI DUP1 PUSH4 0x96875AA0 EQ PUSH3 0x24E7 JUMPI DUP1 PUSH4 0x9B3B9F98 EQ PUSH3 0x245C JUMPI DUP1 PUSH4 0x9FF0251F EQ PUSH3 0x243C JUMPI DUP1 PUSH4 0xB82942A5 EQ PUSH3 0x20D9 JUMPI DUP1 PUSH4 0xBCAE25A4 EQ PUSH3 0x20B9 JUMPI DUP1 PUSH4 0xD578192C EQ PUSH3 0x208E JUMPI DUP1 PUSH4 0xE1A45218 EQ PUSH3 0x206F JUMPI DUP1 PUSH4 0xEB13554F EQ PUSH3 0x2044 JUMPI DUP1 PUSH4 0xF0181892 EQ PUSH3 0x12FB JUMPI DUP1 PUSH4 0xF2FDE38B EQ PUSH3 0x124C JUMPI DUP1 PUSH4 0xFCCC2813 EQ PUSH3 0x122D JUMPI PUSH4 0xFD04BBAC EQ PUSH3 0x165 JUMPI PUSH1 0x0 DUP1 REVERT JUMPDEST PUSH3 0x170 CALLDATASIZE PUSH3 0x5D7C JUMP JUMPDEST PUSH1 0x80 MSTORE PUSH1 0x8 SLOAD SWAP9 SWAP10 SWAP2 SWAP9 SWAP1 SWAP7 SWAP2 SWAP6 SWAP3 SWAP5 SWAP3 SWAP2 SWAP1 PUSH3 0x199 SWAP1 PUSH1 0x1 PUSH1 0x1 PUSH1 0xA0 SHL SUB AND ISZERO ISZERO PUSH3 0x61C8 JUMP JUMPDEST PUSH1 0x9 SLOAD PUSH3 0x1B2 SWAP1 PUSH1 0x1 PUSH1 0x1 PUSH1 0xA0 SHL SUB AND ISZERO ISZERO PUSH3 0x620A JUMP JUMPDEST PUSH3 0x1CD PUSH1 0x4 SLOAD PUSH3 0x1C6 DUP2 CALLVALUE GT PUSH3 0x624E JUMP JUMPDEST CALLVALUE PUSH3 0x62A6 JUMP JUMPDEST SWAP8 PUSH3 0x1D8 PUSH3 0x6422 JUMP JUMPDEST PUSH1 0x40 MLOAD DUP10 DUP2 MSTORE PUSH32 0xB610EA5B60C2E916119AD74EB6F1C4E02B296189E982F615F38630738BE97865 PUSH1 0x20 CALLER SWAP3 LOG2 PUSH1 0x0 PUSH1 0xC0 MSTORE DUP11 ISZERO PUSH3 0x11F8 JUMPI DUP2 ISZERO PUSH3 0x11C1 JUMPI DUP10 ISZERO PUSH3 0x118A JUMPI PUSH2 0x7D0 DUP9 GT PUSH3 0x114F JUMPI PUSH2 0x3E8 PUSH1 0x80 MLOAD GT PUSH3 0x1115 JUMPI PUSH1 0x2 SLOAD PUSH1 0x40 MLOAD SWAP1 PUSH1 0x1 PUSH1 0x1 PUSH1 0xA0 SHL SUB AND PUSH1 0x1 PUSH1 0x1 PUSH1 0x40 SHL SUB PUSH2 0x1808 DUP4 ADD SWAP1 DUP2 GT SWAP1 DUP4 GT OR PUSH3 0x10FF JUMPI DUP2 SWAP1 PUSH3 0x29C PUSH3 0x284 DUP16 PUSH2 0x1808 PUSH3 0x90F7 DUP7 CODECOPY PUSH1 0xE0 PUSH2 0x1808 DUP7 ADD DUP2 DUP2 MSTORE ADD SWAP1 DUP14 PUSH3 0x6568 JUMP JUMPDEST PUSH2 0x1808 DUP5 ADD DUP2 SUB PUSH1 0x20 PUSH2 0x1808 DUP7 ADD ADD MSTORE DUP7 DUP7 PUSH3 0x6568 JUMP JUMPDEST SWAP1 DUP14 PUSH1 0x40 PUSH2 0x1808 DUP6 ADD ADD MSTORE ADDRESS PUSH1 0x60 PUSH2 0x1808 DUP6 ADD ADD MSTORE CALLER PUSH1 0x80 PUSH2 0x1808 DUP6 ADD ADD MSTORE PUSH1 0xA0 PUSH2 0x1808 DUP5 ADD ADD MSTORE PUSH1 0x80 MLOAD PUSH1 0xC0 PUSH2 0x1808 DUP5 ADD ADD MSTORE SUB SWAP1 PUSH1 0x0 CREATE PUSH1 0xA0 MSTORE PUSH1 0xA0 MLOAD ISZERO PUSH3 0xF92 JUMPI PUSH1 0x2 SLOAD PUSH1 0x1 PUSH1 0x1 PUSH1 0xA0 SHL SUB AND CALLER EQ PUSH3 0x2FA DUP2 PUSH3 0x65C4 JUMP JUMPDEST SWAP10 PUSH1 0x1 DUP1 PUSH1 0xA0 SHL SUB PUSH1 0x1 SLOAD AND PUSH1 0x3 SLOAD PUSH1 0x5 SLOAD PUSH1 0x6 SLOAD PUSH1 0x7 SLOAD SWAP2 PUSH1 0x1 DUP1 PUSH1 0xA0 SHL SUB PUSH1 0x8 SLOAD AND SWAP4 PUSH1 0x40 MLOAD SWAP6 DUP7 PUSH2 0x2AF0 DUP2 ADD LT PUSH1 0x1 PUSH1 0x1 PUSH1 0x40 SHL SUB PUSH2 0x2AF0 DUP10 ADD GT OR PUSH3 0x10FF JUMPI PUSH2 0x2AF0 PUSH3 0x6607 DUP9 CODECOPY PUSH1 0xA0 DUP1 MLOAD PUSH1 0x1 PUSH1 0x1 PUSH1 0xA0 SHL SUB SWAP1 DUP2 AND PUSH2 0x2AF0 DUP11 ADD SWAP1 DUP2 MSTORE ADDRESS PUSH1 0x20 DUP3 ADD MSTORE PUSH1 0x40 DUP2 ADD SWAP4 SWAP1 SWAP4 MSTORE PUSH1 0x60 DUP4 ADD SWAP4 SWAP1 SWAP4 MSTORE PUSH1 0x80 DUP3 ADD SWAP4 SWAP1 SWAP4 MSTORE SWAP2 DUP3 ADD SWAP3 SWAP1 SWAP3 MSTORE PUSH1 0xC0 DUP2 ADD SWAP3 SWAP1 SWAP3 MSTORE PUSH1 0xE0 DUP3 ADD SWAP3 SWAP1 SWAP3 MSTORE SWAP1 DUP14 AND PUSH2 0x100 DUP3 ADD MSTORE DUP2 SWAP1 SUB PUSH2 0x120 ADD SWAP2 CREATE PUSH2 0x1A0 MSTORE PUSH2 0x1A0 MLOAD ISZERO PUSH3 0xF92 JUMPI DUP11 DUP10 DUP2 MUL DIV DUP10 SUB PUSH3 0x10E9 JUMPI PUSH3 0x3D1 PUSH2 0x2710 DUP11 DUP14 MUL DIV DUP13 PUSH3 0x62A6 JUMP JUMPDEST PUSH1 0x40 MLOAD PUSH4 0xA9059CBB PUSH1 0xE0 SHL DUP2 MSTORE PUSH2 0x1A0 MLOAD PUSH1 0x1 PUSH1 0x1 PUSH1 0xA0 SHL SUB SWAP1 DUP2 AND PUSH1 0x4 DUP4 ADD MSTORE PUSH1 0x24 DUP3 ADD DUP4 SWAP1 MSTORE PUSH1 0xA0 MLOAD PUSH1 0x20 SWAP2 DUP4 SWAP2 PUSH1 0x44 SWAP2 DUP4 SWAP2 PUSH1 0x0 SWAP2 AND GAS CALL SWAP1 DUP2 ISZERO PUSH3 0xF92 JUMPI PUSH1 0x0 SWAP2 PUSH3 0x10C5 JUMPI JUMPDEST POP ISZERO PUSH3 0x1089 JUMPI DUP10 DUP13 PUSH2 0x2710 DUP3 DUP3 MUL DIV PUSH3 0xFB5 JUMPI JUMPDEST POP POP PUSH2 0x1A0 MLOAD PUSH1 0x1 PUSH1 0x1 PUSH1 0xA0 SHL SUB AND EXTCODESIZE ISZERO PUSH3 0x8D6 JUMPI PUSH1 0x40 MLOAD SWAP1 PUSH4 0x95564837 PUSH1 0xE0 SHL DUP3 MSTORE PUSH1 0x4 DUP3 ADD MSTORE PUSH1 0x0 DUP2 PUSH1 0x24 DUP2 DUP4 PUSH1 0x1 DUP1 PUSH1 0xA0 SHL SUB PUSH2 0x1A0 MLOAD AND GAS CALL DUP1 ISZERO PUSH3 0xF92 JUMPI PUSH3 0xF9E JUMPI JUMPDEST POP PUSH1 0xC0 MLOAD ISZERO PUSH3 0xDEE JUMPI PUSH2 0x1A0 MLOAD PUSH1 0x1 PUSH1 0x1 PUSH1 0xA0 SHL SUB AND EXTCODESIZE ISZERO PUSH3 0xD1F JUMPI PUSH1 0x40 MLOAD PUSH4 0x9485DC9 PUSH1 0xE2 SHL DUP2 MSTORE PUSH1 0xC0 MLOAD PUSH2 0x1A0 MLOAD DUP3 SWAP1 PUSH1 0x4 SWAP1 DUP3 SWAP1 DUP5 SWAP1 PUSH1 0x1 PUSH1 0x1 PUSH1 0xA0 SHL SUB AND GAS CALL DUP1 ISZERO PUSH3 0x8E4 JUMPI PUSH3 0xDD4 JUMPI JUMPDEST POP PUSH1 0x40 MLOAD PUSH4 0x6B456EF PUSH1 0xE2 SHL DUP2 MSTORE PUSH2 0x1A0 MLOAD PUSH1 0x20 SWAP1 DUP3 SWAP1 PUSH1 0x4 SWAP1 DUP3 SWAP1 PUSH1 0x1 PUSH1 0x1 PUSH1 0xA0 SHL SUB AND GAS STATICCALL SWAP1 DUP2 ISZERO PUSH3 0x8E4 JUMPI PUSH1 0xC0 MLOAD SWAP2 PUSH3 0xD9E JUMPI JUMPDEST POP PUSH1 0x1 PUSH1 0x1 PUSH1 0xA0 SHL SUB DUP2 AND PUSH3 0xD31 JUMPI JUMPDEST POP DUP1 ISZERO SWAP1 PUSH3 0xD25 JUMPI JUMPDEST PUSH3 0xCB7 JUMPI JUMPDEST PUSH1 0xA0 MLOAD PUSH1 0xC0 DUP1 MLOAD PUSH1 0x1 PUSH1 0x1 PUSH1 0xA0 SHL SUB SWAP3 DUP4 AND SWAP1 MSTORE PUSH1 0xB PUSH1 0x20 MSTORE MLOAD PUSH1 0x40 SWAP1 KECCAK256 PUSH2 0x1A0 MLOAD DUP2 SLOAD PUSH1 0x1 PUSH1 0x1 PUSH1 0xA0 SHL SUB NOT AND SWAP3 AND SWAP2 SWAP1 SWAP2 OR SWAP1 SSTORE PUSH1 0xA SLOAD SWAP11 PUSH1 0x1 PUSH1 0x40 SHL DUP13 LT ISZERO PUSH3 0xA08 JUMPI PUSH1 0x1 DUP13 ADD PUSH1 0xA SSTORE PUSH3 0x584 DUP13 PUSH3 0x5FE7 JUMP JUMPDEST POP POP PUSH3 0x591 DUP13 PUSH3 0x5FE7 JUMP JUMPDEST POP PUSH1 0xA0 MLOAD DUP2 SLOAD PUSH1 0x1 PUSH1 0x1 PUSH1 0xA0 SHL SUB NOT SWAP1 DUP2 AND PUSH1 0x1 PUSH1 0x1 PUSH1 0xA0 SHL SUB SWAP3 DUP4 AND OR DUP4 SSTORE PUSH2 0x1A0 MLOAD PUSH1 0x1 DUP5 ADD DUP1 SLOAD DUP4 AND SWAP2 SWAP1 SWAP4 AND OR SWAP1 SWAP2 SSTORE PUSH1 0x2 DUP3 ADD DUP1 SLOAD SWAP1 SWAP2 AND CALLER OR SWAP1 SSTORE SWAP8 PUSH1 0x1 PUSH1 0x1 PUSH1 0x40 SHL SUB DUP3 GT PUSH3 0xA08 JUMPI DUP2 SWAP1 PUSH3 0x5F3 PUSH1 0x3 DUP12 ADD SLOAD PUSH3 0x6038 JUMP JUMPDEST PUSH1 0x1F DUP2 GT PUSH3 0xC5C JUMPI JUMPDEST POP PUSH1 0xC0 MLOAD SWAP1 PUSH1 0x1F DUP4 GT PUSH1 0x1 EQ PUSH3 0xBE6 JUMPI PUSH1 0xC0 MLOAD SWAP3 PUSH3 0xBDA JUMPI JUMPDEST POP POP DUP2 PUSH1 0x1 SHL SWAP2 PUSH1 0x0 NOT SWAP1 PUSH1 0x3 SHL SHR NOT AND OR PUSH1 0x3 DUP9 ADD SSTORE JUMPDEST PUSH1 0x1 PUSH1 0x1 PUSH1 0x40 SHL SUB DUP3 GT PUSH3 0xA08 JUMPI DUP2 SWAP1 PUSH3 0x650 PUSH1 0x4 DUP10 ADD SLOAD PUSH3 0x6038 JUMP JUMPDEST PUSH1 0x1F DUP2 GT PUSH3 0xB7F JUMPI JUMPDEST POP PUSH1 0xC0 MLOAD SWAP1 PUSH1 0x1F DUP4 GT PUSH1 0x1 EQ PUSH3 0xB09 JUMPI PUSH1 0xC0 MLOAD SWAP3 PUSH3 0xAFD JUMPI JUMPDEST POP POP DUP2 PUSH1 0x1 SHL SWAP2 PUSH1 0x0 NOT SWAP1 PUSH1 0x3 SHL SHR NOT AND OR PUSH1 0x4 DUP7 ADD SSTORE JUMPDEST PUSH1 0x1 PUSH1 0x1 PUSH1 0x40 SHL SUB DUP3 GT PUSH3 0xA08 JUMPI DUP2 SWAP1 PUSH3 0x6AD PUSH1 0x5 DUP8 ADD SLOAD PUSH3 0x6038 JUMP JUMPDEST PUSH1 0x1F DUP2 GT PUSH3 0xAA2 JUMPI JUMPDEST POP PUSH1 0xC0 MLOAD SWAP1 PUSH1 0x1F DUP4 GT PUSH1 0x1 EQ PUSH3 0xA2C JUMPI PUSH1 0xC0 MLOAD SWAP3 PUSH3 0xA20 JUMPI JUMPDEST POP POP DUP2 PUSH1 0x1 SHL SWAP2 PUSH1 0x0 NOT SWAP1 PUSH1 0x3 SHL SHR NOT AND OR PUSH1 0x5 DUP5 ADD SSTORE JUMPDEST PUSH1 0x1 PUSH1 0x1 PUSH1 0x40 SHL SUB DUP3 GT PUSH3 0xA08 JUMPI DUP2 SWAP1 PUSH3 0x70A PUSH1 0x6 DUP6 ADD SLOAD PUSH3 0x6038 JUMP JUMPDEST PUSH1 0x1F DUP2 GT PUSH3 0x9AD JUMPI JUMPDEST POP PUSH1 0xC0 MLOAD SWAP1 PUSH1 0x1F DUP4 GT PUSH1 0x1 EQ PUSH3 0x937 JUMPI PUSH1 0xC0 MLOAD SWAP3 PUSH3 0x92B JUMPI JUMPDEST POP POP DUP2 PUSH1 0x1 SHL SWAP2 PUSH1 0x0 NOT SWAP1 PUSH1 0x3 SHL SHR NOT AND OR PUSH1 0x6 DUP3 ADD SSTORE JUMPDEST DUP4 PUSH1 0x7 DUP3 ADD SSTORE PUSH2 0x2710 DUP3 DUP6 MUL DIV PUSH1 0x8 DUP3 ADD SSTORE PUSH1 0x9 TIMESTAMP SWAP2 ADD SSTORE PUSH1 0x3 SLOAD PUSH1 0x7 SLOAD SWAP1 PUSH2 0x2710 PUSH1 0x1 DUP1 PUSH1 0xA0 SHL SUB PUSH1 0x8 SLOAD AND SWAP4 PUSH1 0x40 MLOAD SWAP7 PUSH1 0x1 DUP1 PUSH1 0xA0 SHL SUB PUSH2 0x1A0 MLOAD AND DUP9 MSTORE DUP1 PUSH1 0x20 DUP10 ADD MSTORE MUL DIV PUSH1 0x40 DUP7 ADD MSTORE PUSH1 0x60 DUP6 ADD MSTORE PUSH1 0x80 DUP5 ADD MSTORE PUSH1 0xA0 DUP4 ADD MSTORE PUSH1 0x1 DUP1 PUSH1 0xA0 SHL SUB AND PUSH1 0xC0 DUP3 ADD MSTORE PUSH1 0x1 DUP1 PUSH1 0xA0 SHL SUB PUSH1 0xA0 MLOAD AND SWAP1 DUP3 PUSH1 0x0 DUP1 MLOAD PUSH1 0x20 PUSH3 0xA91F DUP4 CODECOPY DUP2 MLOAD SWAP2 MSTORE PUSH1 0xE0 CALLER SWAP4 LOG4 PUSH1 0x40 MLOAD SWAP1 PUSH4 0x17773EBB PUSH1 0xE0 SHL DUP3 MSTORE PUSH1 0x20 DUP3 PUSH1 0x4 DUP2 PUSH1 0x1 DUP1 PUSH1 0xA0 SHL SUB PUSH1 0xA0 MLOAD AND GAS STATICCALL SWAP2 DUP3 ISZERO PUSH3 0x8E4 JUMPI PUSH1 0xC0 MLOAD SWAP3 PUSH3 0x8F1 JUMPI JUMPDEST POP PUSH1 0x40 MLOAD SWAP2 PUSH4 0x116E689F PUSH1 0xE1 SHL DUP4 MSTORE PUSH1 0x20 DUP4 PUSH1 0x4 DUP2 PUSH1 0x1 DUP1 PUSH1 0xA0 SHL SUB PUSH1 0xA0 MLOAD AND GAS STATICCALL DUP1 ISZERO PUSH3 0x8E4 JUMPI PUSH1 0xC0 MLOAD SWAP1 PUSH3 0x8A4 JUMPI JUMPDEST PUSH3 0x8A0 SWAP4 POP PUSH1 0x40 MLOAD SWAP2 PUSH1 0x80 MLOAD DUP4 MSTORE PUSH1 0x20 DUP4 ADD MSTORE PUSH1 0x40 DUP3 ADD MSTORE DUP2 PUSH1 0x0 DUP1 MLOAD PUSH1 0x20 PUSH3 0xA8FF DUP4 CODECOPY DUP2 MLOAD SWAP2 MSTORE PUSH1 0x60 PUSH1 0x1 DUP1 PUSH1 0xA0 SHL SUB PUSH1 0xA0 MLOAD AND SWAP4 LOG3 PUSH1 0x40 DUP1 MLOAD PUSH2 0x1A0 MLOAD PUSH1 0xA0 MLOAD SWAP4 DUP3 MSTORE PUSH1 0x1 PUSH1 0x1 PUSH1 0xA0 SHL SUB SWAP4 DUP5 AND PUSH1 0x20 DUP4 ADD MSTORE SWAP1 SWAP3 AND SWAP1 DUP3 ADD MSTORE SWAP1 DUP2 SWAP1 PUSH1 0x60 DUP3 ADD SWAP1 JUMP JUMPDEST SUB SWAP1 RETURN JUMPDEST POP PUSH1 0x20 DUP4 RETURNDATASIZE PUSH1 0x20 GT PUSH3 0x8DB JUMPI JUMPDEST DUP2 PUSH3 0x8C1 PUSH1 0x20 SWAP4 DUP4 PUSH3 0x5F74 JUMP JUMPDEST DUP2 ADD SUB SLT PUSH3 0x8D6 JUMPI PUSH3 0x8A0 SWAP3 MLOAD PUSH3 0x838 JUMP JUMPDEST PUSH1 0x0 DUP1 REVERT JUMPDEST RETURNDATASIZE SWAP2 POP PUSH3 0x8B2 JUMP JUMPDEST PUSH1 0x40 MLOAD RETURNDATASIZE PUSH1 0xC0 MLOAD DUP3 RETURNDATACOPY RETURNDATASIZE SWAP1 REVERT JUMPDEST SWAP1 SWAP2 POP PUSH1 0x20 DUP2 RETURNDATASIZE PUSH1 0x20 GT PUSH3 0x922 JUMPI JUMPDEST DUP2 PUSH3 0x910 PUSH1 0x20 SWAP4 DUP4 PUSH3 0x5F74 JUMP JUMPDEST DUP2 ADD SUB SLT PUSH3 0x8D6 JUMPI MLOAD SWAP1 CODESIZE PUSH3 0x805 JUMP JUMPDEST RETURNDATASIZE SWAP2 POP PUSH3 0x901 JUMP JUMPDEST ADD CALLDATALOAD SWAP1 POP CODESIZE DUP1 PUSH3 0x72F JUMP JUMPDEST PUSH1 0xC0 DUP1 MLOAD PUSH1 0x6 DUP8 ADD SWAP1 MSTORE MLOAD PUSH1 0x20 DUP2 KECCAK256 SWAP1 SWAP5 POP SWAP2 JUMPDEST PUSH1 0x1F NOT DUP5 AND DUP6 LT PUSH3 0x994 JUMPI PUSH1 0x1 SWAP5 POP DUP4 PUSH1 0x1F NOT DUP2 AND LT PUSH3 0x979 JUMPI JUMPDEST POP POP POP DUP2 SHL ADD PUSH1 0x6 DUP3 ADD SSTORE PUSH3 0x747 JUMP JUMPDEST ADD CALLDATALOAD PUSH1 0x0 NOT PUSH1 0x3 DUP5 SWAP1 SHL PUSH1 0xF8 AND SHR NOT AND SWAP1 SSTORE CODESIZE DUP1 DUP1 PUSH3 0x968 JUMP JUMPDEST DUP2 DUP2 ADD CALLDATALOAD DUP4 SSTORE PUSH1 0x20 SWAP5 DUP6 ADD SWAP5 PUSH1 0x1 SWAP1 SWAP4 ADD SWAP3 ADD PUSH3 0x94B JUMP JUMPDEST SWAP1 SWAP2 POP PUSH1 0x6 DUP5 ADD PUSH1 0xC0 MLOAD MSTORE PUSH1 0x20 PUSH1 0xC0 MLOAD KECCAK256 PUSH1 0x1F DUP5 ADD PUSH1 0x5 SHR DUP2 ADD PUSH1 0x20 DUP6 LT PUSH3 0xA00 JUMPI JUMPDEST SWAP1 DUP5 SWAP4 SWAP3 SWAP2 JUMPDEST PUSH1 0x1F DUP4 ADD PUSH1 0x5 SHR DUP3 ADD DUP2 LT PUSH3 0x9EF JUMPI POP POP PUSH3 0x714 JUMP JUMPDEST PUSH1 0xC0 MLOAD DUP2 SSTORE DUP6 SWAP5 POP PUSH1 0x1 ADD PUSH3 0x9D7 JUMP JUMPDEST POP DUP1 PUSH3 0x9D1 JUMP JUMPDEST PUSH4 0x4E487B71 PUSH1 0xE0 SHL PUSH1 0xC0 MLOAD MSTORE PUSH1 0x41 PUSH1 0x4 MSTORE PUSH1 0x24 PUSH1 0xC0 MLOAD REVERT JUMPDEST ADD CALLDATALOAD SWAP1 POP CODESIZE DUP1 PUSH3 0x6D2 JUMP JUMPDEST PUSH1 0xC0 DUP1 MLOAD PUSH1 0x5 DUP10 ADD SWAP1 MSTORE MLOAD PUSH1 0x20 DUP2 KECCAK256 SWAP1 SWAP5 POP SWAP2 JUMPDEST PUSH1 0x1F NOT DUP5 AND DUP6 LT PUSH3 0xA89 JUMPI PUSH1 0x1 SWAP5 POP DUP4 PUSH1 0x1F NOT DUP2 AND LT PUSH3 0xA6E JUMPI JUMPDEST POP POP POP DUP2 SHL ADD PUSH1 0x5 DUP5 ADD SSTORE PUSH3 0x6EA JUMP JUMPDEST ADD CALLDATALOAD PUSH1 0x0 NOT PUSH1 0x3 DUP5 SWAP1 SHL PUSH1 0xF8 AND SHR NOT AND SWAP1 SSTORE CODESIZE DUP1 DUP1 PUSH3 0xA5D JUMP JUMPDEST DUP2 DUP2 ADD CALLDATALOAD DUP4 SSTORE PUSH1 0x20 SWAP5 DUP6 ADD SWAP5 PUSH1 0x1 SWAP1 SWAP4 ADD SWAP3 ADD PUSH3 0xA40 JUMP JUMPDEST SWAP1 SWAP2 POP PUSH1 0x5 DUP7 ADD PUSH1 0xC0 MLOAD MSTORE PUSH1 0x20 PUSH1 0xC0 MLOAD KECCAK256 PUSH1 0x1F DUP5 ADD PUSH1 0x5 SHR DUP2 ADD PUSH1 0x20 DUP6 LT PUSH3 0xAF5 JUMPI JUMPDEST SWAP1 DUP5 SWAP4 SWAP3 SWAP2 JUMPDEST PUSH1 0x1F DUP4 ADD PUSH1 0x5 SHR DUP3 ADD DUP2 LT PUSH3 0xAE4 JUMPI POP POP PUSH3 0x6B7 JUMP JUMPDEST PUSH1 0xC0 MLOAD DUP2 SSTORE DUP6 SWAP5 POP PUSH1 0x1 ADD PUSH3 0xACC JUMP JUMPDEST POP DUP1 PUSH3 0xAC6 JUMP JUMPDEST ADD CALLDATALOAD SWAP1 POP CODESIZE DUP1 PUSH3 0x675 JUMP JUMPDEST PUSH1 0xC0 DUP1 MLOAD PUSH1 0x4 DUP12 ADD SWAP1 MSTORE MLOAD PUSH1 0x20 DUP2 KECCAK256 SWAP1 SWAP5 POP SWAP2 JUMPDEST PUSH1 0x1F NOT DUP5 AND DUP6 LT PUSH3 0xB66 JUMPI PUSH1 0x1 SWAP5 POP DUP4 PUSH1 0x1F NOT DUP2 AND LT PUSH3 0xB4B JUMPI JUMPDEST POP POP POP DUP2 SHL ADD PUSH1 0x4 DUP7 ADD SSTORE PUSH3 0x68D JUMP JUMPDEST ADD CALLDATALOAD PUSH1 0x0 NOT PUSH1 0x3 DUP5 SWAP1 SHL PUSH1 0xF8 AND SHR NOT AND SWAP1 SSTORE CODESIZE DUP1 DUP1 PUSH3 0xB3A JUMP JUMPDEST DUP2 DUP2 ADD CALLDATALOAD DUP4 SSTORE PUSH1 0x20 SWAP5 DUP6 ADD SWAP5 PUSH1 0x1 SWAP1 SWAP4 ADD SWAP3 ADD PUSH3 0xB1D JUMP JUMPDEST SWAP1 SWAP2 POP PUSH1 0x4 DUP9 ADD PUSH1 0xC0 MLOAD MSTORE PUSH1 0x20 PUSH1 0xC0 MLOAD KECCAK256 PUSH1 0x1F DUP5 ADD PUSH1 0x5 SHR DUP2 ADD PUSH1 0x20 DUP6 LT PUSH3 0xBD2 JUMPI JUMPDEST SWAP1 DUP5 SWAP4 SWAP3 SWAP2 JUMPDEST PUSH1 0x1F DUP4 ADD PUSH1 0x5 SHR DUP3 ADD DUP2 LT PUSH3 0xBC1 JUMPI POP POP PUSH3 0x65A JUMP JUMPDEST PUSH1 0xC0 MLOAD DUP2 SSTORE DUP6 SWAP5 POP PUSH1 0x1 ADD PUSH3 0xBA9 JUMP JUMPDEST POP DUP1 PUSH3 0xBA3 JUMP JUMPDEST ADD CALLDATALOAD SWAP1 POP CODESIZE DUP1 PUSH3 0x618 JUMP JUMPDEST PUSH1 0xC0 DUP1 MLOAD PUSH1 0x3 DUP14 ADD SWAP1 MSTORE MLOAD PUSH1 0x20 DUP2 KECCAK256 SWAP1 SWAP5 POP SWAP2 JUMPDEST PUSH1 0x1F NOT DUP5 AND DUP6 LT PUSH3 0xC43 JUMPI PUSH1 0x1 SWAP5 POP DUP4 PUSH1 0x1F NOT DUP2 AND LT PUSH3 0xC28 JUMPI JUMPDEST POP POP POP DUP2 SHL ADD PUSH1 0x3 DUP9 ADD SSTORE PUSH3 0x630 JUMP JUMPDEST ADD CALLDATALOAD PUSH1 0x0 NOT PUSH1 0x3 DUP5 SWAP1 SHL PUSH1 0xF8 AND SHR NOT AND SWAP1 SSTORE CODESIZE DUP1 DUP1 PUSH3 0xC17 JUMP JUMPDEST DUP2 DUP2 ADD CALLDATALOAD DUP4 SSTORE PUSH1 0x20 SWAP5 DUP6 ADD SWAP5 PUSH1 0x1 SWAP1 SWAP4 ADD SWAP3 ADD PUSH3 0xBFA JUMP JUMPDEST SWAP1 SWAP2 POP PUSH1 0x3 DUP11 ADD PUSH1 0xC0 MLOAD MSTORE PUSH1 0x20 PUSH1 0xC0 MLOAD KECCAK256 PUSH1 0x1F DUP5 ADD PUSH1 0x5 SHR DUP2 ADD PUSH1 0x20 DUP6 LT PUSH3 0xCAF JUMPI JUMPDEST SWAP1 DUP5 SWAP4 SWAP3 SWAP2 JUMPDEST PUSH1 0x1F DUP4 ADD PUSH1 0x5 SHR DUP3 ADD DUP2 LT PUSH3 0xC9E JUMPI POP POP PUSH3 0x5FD JUMP JUMPDEST PUSH1 0xC0 MLOAD DUP2 SSTORE DUP6 SWAP5 POP PUSH1 0x1 ADD PUSH3 0xC86 JUMP JUMPDEST POP DUP1 PUSH3 0xC80 JUMP JUMPDEST PUSH1 0xA0 MLOAD PUSH1 0x1 PUSH1 0x1 PUSH1 0xA0 SHL SUB AND EXTCODESIZE ISZERO PUSH3 0xD1F JUMPI PUSH1 0x40 MLOAD PUSH4 0x6E258E07 PUSH1 0xE1 SHL DUP2 MSTORE PUSH1 0xC0 MLOAD PUSH1 0xA0 MLOAD DUP3 SWAP1 PUSH1 0x4 SWAP1 DUP3 SWAP1 DUP5 SWAP1 PUSH1 0x1 PUSH1 0x1 PUSH1 0xA0 SHL SUB AND GAS CALL DUP1 ISZERO PUSH3 0x8E4 JUMPI PUSH3 0xD05 JUMPI JUMPDEST POP PUSH3 0x52B JUMP JUMPDEST PUSH3 0xD10 SWAP1 PUSH3 0x5F60 JUMP JUMPDEST PUSH1 0xC0 MLOAD PUSH3 0xD1F JUMPI CODESIZE PUSH3 0xCFE JUMP JUMPDEST PUSH1 0xC0 MLOAD DUP1 REVERT JUMPDEST POP PUSH2 0x1237 CHAINID EQ PUSH3 0x525 JUMP JUMPDEST PUSH1 0xA0 MLOAD PUSH1 0x1 PUSH1 0x1 PUSH1 0xA0 SHL SUB AND EXTCODESIZE ISZERO PUSH3 0xD1F JUMPI PUSH1 0x40 MLOAD PUSH4 0x15C6DEB9 PUSH1 0xE3 SHL DUP2 MSTORE PUSH1 0x1 PUSH1 0x1 PUSH1 0xA0 SHL SUB SWAP2 DUP3 AND PUSH1 0x4 DUP3 ADD MSTORE PUSH1 0xC0 MLOAD PUSH1 0xA0 MLOAD SWAP2 SWAP3 SWAP1 SWAP2 DUP4 SWAP2 PUSH1 0x24 SWAP2 DUP4 SWAP2 DUP6 SWAP2 AND GAS CALL DUP1 ISZERO PUSH3 0x8E4 JUMPI ISZERO PUSH3 0x51B JUMPI PUSH3 0xD8F SWAP1 PUSH3 0x5F60 JUMP JUMPDEST PUSH1 0xC0 MLOAD PUSH3 0xD1F JUMPI CODESIZE PUSH3 0x51B JUMP JUMPDEST PUSH3 0xDC5 SWAP2 POP PUSH1 0x20 RETURNDATASIZE PUSH1 0x20 GT PUSH3 0xDCC JUMPI JUMPDEST PUSH3 0xDBC DUP2 DUP4 PUSH3 0x5F74 JUMP JUMPDEST DUP2 ADD SWAP1 PUSH3 0x65A3 JUMP JUMPDEST CODESIZE PUSH3 0x50A JUMP JUMPDEST POP RETURNDATASIZE PUSH3 0xDB0 JUMP JUMPDEST PUSH3 0xDDF SWAP1 PUSH3 0x5F60 JUMP JUMPDEST PUSH1 0xC0 MLOAD PUSH3 0xD1F JUMPI CODESIZE PUSH3 0x4D1 JUMP JUMPDEST PUSH2 0x1A0 MLOAD PUSH1 0x1 PUSH1 0x1 PUSH1 0xA0 SHL SUB AND EXTCODESIZE ISZERO PUSH3 0x8D6 JUMPI PUSH1 0x40 MLOAD PUSH4 0x1C7031D7 PUSH1 0xE3 SHL DUP2 MSTORE PUSH2 0x1A0 MLOAD PUSH1 0x0 SWAP1 DUP3 SWAP1 PUSH1 0x4 SWAP1 DUP3 SWAP1 DUP5 SWAP1 PUSH1 0x1 PUSH1 0x1 PUSH1 0xA0 SHL SUB AND GAS CALL DUP1 ISZERO PUSH3 0xF92 JUMPI PUSH3 0xF7B JUMPI JUMPDEST POP PUSH1 0x40 MLOAD PUSH4 0x6B456EF PUSH1 0xE2 SHL DUP2 MSTORE PUSH2 0x1A0 MLOAD PUSH1 0x20 SWAP1 DUP3 SWAP1 PUSH1 0x4 SWAP1 DUP3 SWAP1 PUSH1 0x1 PUSH1 0x1 PUSH1 0xA0 SHL SUB AND GAS STATICCALL SWAP1 DUP2 ISZERO PUSH3 0x8E4 JUMPI PUSH1 0xC0 MLOAD SWAP2 PUSH3 0xF57 JUMPI JUMPDEST POP PUSH1 0x1 PUSH1 0x1 PUSH1 0xA0 SHL SUB DUP2 AND PUSH3 0xEEA JUMPI JUMPDEST POP DUP1 ISZERO SWAP1 PUSH3 0xEDE JUMPI JUMPDEST ISZERO PUSH3 0x52B JUMPI PUSH1 0xA0 MLOAD PUSH1 0x1 PUSH1 0x1 PUSH1 0xA0 SHL SUB AND EXTCODESIZE ISZERO PUSH3 0xD1F JUMPI PUSH1 0x40 MLOAD PUSH4 0x6E258E07 PUSH1 0xE1 SHL DUP2 MSTORE PUSH1 0xC0 MLOAD PUSH1 0xA0 MLOAD DUP3 SWAP1 PUSH1 0x4 SWAP1 DUP3 SWAP1 DUP5 SWAP1 PUSH1 0x1 PUSH1 0x1 PUSH1 0xA0 SHL SUB AND GAS CALL DUP1 ISZERO PUSH3 0x8E4 JUMPI PUSH3 0xD05 JUMPI POP PUSH3 0x52B JUMP JUMPDEST POP PUSH2 0x1237 CHAINID EQ PUSH3 0xE8B JUMP JUMPDEST PUSH1 0xA0 MLOAD PUSH1 0x1 PUSH1 0x1 PUSH1 0xA0 SHL SUB AND EXTCODESIZE ISZERO PUSH3 0xD1F JUMPI PUSH1 0x40 MLOAD PUSH4 0x15C6DEB9 PUSH1 0xE3 SHL DUP2 MSTORE PUSH1 0x1 PUSH1 0x1 PUSH1 0xA0 SHL SUB SWAP2 DUP3 AND PUSH1 0x4 DUP3 ADD MSTORE PUSH1 0xC0 MLOAD PUSH1 0xA0 MLOAD SWAP2 SWAP3 SWAP1 SWAP2 DUP4 SWAP2 PUSH1 0x24 SWAP2 DUP4 SWAP2 DUP6 SWAP2 AND GAS CALL DUP1 ISZERO PUSH3 0x8E4 JUMPI ISZERO PUSH3 0xE81 JUMPI PUSH3 0xF48 SWAP1 PUSH3 0x5F60 JUMP JUMPDEST PUSH1 0xC0 MLOAD PUSH3 0xD1F JUMPI CODESIZE PUSH3 0xE81 JUMP JUMPDEST PUSH3 0xF74 SWAP2 POP PUSH1 0x20 RETURNDATASIZE PUSH1 0x20 GT PUSH3 0xDCC JUMPI PUSH3 0xDBC DUP2 DUP4 PUSH3 0x5F74 JUMP JUMPDEST CODESIZE PUSH3 0xE70 JUMP JUMPDEST PUSH3 0xF86 SWAP1 PUSH3 0x5F60 JUMP JUMPDEST PUSH1 0x0 PUSH1 0xC0 MSTORE CODESIZE PUSH3 0xE37 JUMP JUMPDEST PUSH1 0x40 MLOAD RETURNDATASIZE PUSH1 0x0 DUP3 RETURNDATACOPY RETURNDATASIZE SWAP1 REVERT JUMPDEST PUSH3 0xFA9 SWAP1 PUSH3 0x5F60 JUMP JUMPDEST PUSH1 0x0 PUSH1 0xC0 MSTORE CODESIZE PUSH3 0x47E JUMP JUMPDEST PUSH1 0x40 MLOAD PUSH4 0xA9059CBB PUSH1 0xE0 SHL DUP2 MSTORE CALLER PUSH1 0x4 DUP3 ADD MSTORE PUSH2 0x2710 SWAP2 SWAP1 SWAP3 MUL DIV PUSH1 0x24 DUP3 ADD MSTORE PUSH1 0x20 DUP2 DUP1 PUSH1 0x44 DUP2 ADD SUB DUP2 PUSH1 0x0 PUSH1 0x1 DUP1 PUSH1 0xA0 SHL SUB PUSH1 0xA0 MLOAD AND GAS CALL SWAP1 DUP2 ISZERO PUSH3 0xF92 JUMPI PUSH1 0x0 SWAP2 PUSH3 0x1053 JUMPI JUMPDEST POP ISZERO PUSH3 0x100E JUMPI DUP10 DUP13 PUSH3 0x433 JUMP JUMPDEST PUSH1 0x40 MLOAD PUSH3 0x461BCD PUSH1 0xE5 SHL DUP2 MSTORE PUSH1 0x20 PUSH1 0x4 DUP3 ADD MSTORE PUSH1 0x17 PUSH1 0x24 DUP3 ADD MSTORE PUSH32 0x63726561746F72207472616E73666572206661696C6564000000000000000000 PUSH1 0x44 DUP3 ADD MSTORE PUSH1 0x64 SWAP1 REVERT JUMPDEST PUSH3 0x107A SWAP2 POP PUSH1 0x20 RETURNDATASIZE PUSH1 0x20 GT PUSH3 0x1081 JUMPI JUMPDEST PUSH3 0x1071 DUP2 DUP4 PUSH3 0x5F74 JUMP JUMPDEST DUP2 ADD SWAP1 PUSH3 0x6589 JUMP JUMPDEST CODESIZE PUSH3 0xFFF JUMP JUMPDEST POP RETURNDATASIZE PUSH3 0x1065 JUMP JUMPDEST PUSH1 0x40 MLOAD PUSH3 0x461BCD PUSH1 0xE5 SHL DUP2 MSTORE PUSH1 0x20 PUSH1 0x4 DUP3 ADD MSTORE PUSH1 0x14 PUSH1 0x24 DUP3 ADD MSTORE PUSH20 0x1C1BDBDB081D1C985B9CD9995C8819985A5B1959 PUSH1 0x62 SHL PUSH1 0x44 DUP3 ADD MSTORE PUSH1 0x64 SWAP1 REVERT JUMPDEST PUSH3 0x10E2 SWAP2 POP PUSH1 0x20 RETURNDATASIZE PUSH1 0x20 GT PUSH3 0x1081 JUMPI PUSH3 0x1071 DUP2 DUP4 PUSH3 0x5F74 JUMP JUMPDEST CODESIZE PUSH3 0x41D JUMP JUMPDEST PUSH4 0x4E487B71 PUSH1 0xE0 SHL PUSH1 0x0 MSTORE PUSH1 0x11 PUSH1 0x4 MSTORE PUSH1 0x24 PUSH1 0x0 REVERT JUMPDEST PUSH4 0x4E487B71 PUSH1 0xE0 SHL PUSH1 0x0 MSTORE PUSH1 0x41 PUSH1 0x4 MSTORE PUSH1 0x24 PUSH1 0x0 REVERT JUMPDEST PUSH1 0x40 MLOAD PUSH3 0x461BCD PUSH1 0xE5 SHL DUP2 MSTORE PUSH1 0x20 PUSH1 0x4 DUP3 ADD MSTORE PUSH1 0x12 PUSH1 0x24 DUP3 ADD MSTORE PUSH18 0xE8E4C2C8CA40CCCACA40E8DEDE40D0D2CED PUSH1 0x73 SHL PUSH1 0x44 DUP3 ADD MSTORE PUSH1 0x64 SWAP1 REVERT JUMPDEST PUSH1 0x40 MLOAD PUSH3 0x461BCD PUSH1 0xE5 SHL DUP2 MSTORE PUSH1 0x20 PUSH1 0x4 DUP3 ADD MSTORE PUSH1 0x13 PUSH1 0x24 DUP3 ADD MSTORE PUSH19 0xC2D8D8DEC6C2E8D2DEDC40E8DEDE40D0D2CED PUSH1 0x6B SHL PUSH1 0x44 DUP3 ADD MSTORE PUSH1 0x64 SWAP1 REVERT JUMPDEST PUSH1 0x40 MLOAD PUSH3 0x461BCD PUSH1 0xE5 SHL DUP2 MSTORE PUSH1 0x20 PUSH1 0x4 DUP3 ADD MSTORE PUSH1 0xF PUSH1 0x24 DUP3 ADD MSTORE PUSH15 0x1CDD5C1C1B1E481C995C5D5A5C9959 PUSH1 0x8A SHL PUSH1 0x44 DUP3 ADD MSTORE PUSH1 0x64 SWAP1 REVERT JUMPDEST PUSH1 0x40 MLOAD PUSH3 0x461BCD PUSH1 0xE5 SHL DUP2 MSTORE PUSH1 0x20 PUSH1 0x4 DUP3 ADD MSTORE PUSH1 0xF PUSH1 0x24 DUP3 ADD MSTORE PUSH15 0x1CDE5B589BDB081C995C5D5A5C9959 PUSH1 0x8A SHL PUSH1 0x44 DUP3 ADD MSTORE PUSH1 0x64 SWAP1 REVERT JUMPDEST PUSH1 0x40 MLOAD PUSH3 0x461BCD PUSH1 0xE5 SHL DUP2 MSTORE PUSH1 0x20 PUSH1 0x4 DUP3 ADD MSTORE PUSH1 0xD PUSH1 0x24 DUP3 ADD MSTORE PUSH13 0x1B985B59481C995C5D5A5C9959 PUSH1 0x9A SHL PUSH1 0x44 DUP3 ADD MSTORE PUSH1 0x64 SWAP1 REVERT JUMPDEST CALLVALUE PUSH3 0x8D6 JUMPI PUSH1 0x0 CALLDATASIZE PUSH1 0x3 NOT ADD SLT PUSH3 0x8D6 JUMPI PUSH1 0x20 PUSH1 0x40 MLOAD PUSH2 0xDEAD DUP2 MSTORE RETURN JUMPDEST CALLVALUE PUSH3 0x8D6 JUMPI PUSH1 0x20 CALLDATASIZE PUSH1 0x3 NOT ADD SLT PUSH3 0x8D6 JUMPI PUSH3 0x1269 PUSH3 0x5CA0 JUMP JUMPDEST PUSH1 0x0 SLOAD PUSH1 0x1 PUSH1 0x1 PUSH1 0xA0 SHL SUB DUP1 DUP3 AND SWAP3 PUSH3 0x1285 CALLER DUP6 EQ PUSH3 0x63E8 JUMP JUMPDEST AND SWAP2 DUP3 ISZERO PUSH3 0x12C5 JUMPI DUP3 SWAP1 PUSH32 0x8BE0079C531659141344CD1FD0A4F28419497F9722A3DAAFE3B4186F6B6457E0 PUSH1 0x0 DUP1 LOG3 PUSH1 0x1 PUSH1 0x1 PUSH1 0xA0 SHL SUB NOT AND OR PUSH1 0x0 SSTORE STOP JUMPDEST PUSH1 0x40 MLOAD PUSH3 0x461BCD PUSH1 0xE5 SHL DUP2 MSTORE PUSH1 0x20 PUSH1 0x4 DUP3 ADD MSTORE PUSH1 0xE PUSH1 0x24 DUP3 ADD MSTORE PUSH14 0x1BDDDB995C881C995C5D5A5C9959 PUSH1 0x92 SHL PUSH1 0x44 DUP3 ADD MSTORE PUSH1 0x64 SWAP1 REVERT JUMPDEST PUSH3 0x1306 CALLDATASIZE PUSH3 0x5D7C JUMP JUMPDEST PUSH1 0xE0 MSTORE PUSH1 0x8 SLOAD SWAP9 SWAP10 SWAP2 SWAP9 SWAP1 SWAP7 SWAP2 SWAP6 SWAP3 SWAP5 SWAP3 SWAP2 SWAP1 PUSH3 0x132F SWAP1 PUSH1 0x1 PUSH1 0x1 PUSH1 0xA0 SHL SUB AND ISZERO ISZERO PUSH3 0x61C8 JUMP JUMPDEST PUSH1 0x9 SLOAD PUSH3 0x1348 SWAP1 PUSH1 0x1 PUSH1 0x1 PUSH1 0xA0 SHL SUB AND ISZERO ISZERO PUSH3 0x620A JUMP JUMPDEST PUSH3 0x135C PUSH1 0x4 SLOAD PUSH3 0x1C6 DUP2 CALLVALUE GT PUSH3 0x624E JUMP JUMPDEST SWAP8 PUSH3 0x1367 PUSH3 0x6422 JUMP JUMPDEST PUSH1 0x40 MLOAD DUP10 DUP2 MSTORE PUSH32 0xAC9D85DC25663B5CC567AFAED6BB7823377F8F9F4164BC741A6ED341C04A8EC7 PUSH1 0x20 CALLER SWAP3 LOG2 PUSH1 0x0 PUSH2 0x120 MSTORE DUP11 ISZERO PUSH3 0x11F8 JUMPI DUP2 ISZERO PUSH3 0x11C1 JUMPI DUP10 ISZERO PUSH3 0x118A JUMPI PUSH2 0x7D0 DUP9 GT PUSH3 0x114F JUMPI PUSH2 0x3E8 PUSH1 0xE0 MLOAD GT PUSH3 0x1115 JUMPI PUSH1 0x2 SLOAD PUSH1 0x40 MLOAD SWAP1 PUSH1 0x1 PUSH1 0x1 PUSH1 0xA0 SHL SUB AND PUSH1 0x1 PUSH1 0x1 PUSH1 0x40 SHL SUB PUSH2 0x1808 DUP4 ADD SWAP1 DUP2 GT SWAP1 DUP4 GT OR PUSH3 0x10FF JUMPI DUP2 SWAP1 PUSH3 0x1414 PUSH3 0x284 DUP16 PUSH2 0x1808 PUSH3 0x90F7 DUP7 CODECOPY PUSH1 0xE0 PUSH2 0x1808 DUP7 ADD DUP2 DUP2 MSTORE ADD SWAP1 DUP14 PUSH3 0x6568 JUMP JUMPDEST SWAP1 DUP14 PUSH1 0x40 PUSH2 0x1808 DUP6 ADD ADD MSTORE ADDRESS PUSH1 0x60 PUSH2 0x1808 DUP6 ADD ADD MSTORE CALLER PUSH1 0x80 PUSH2 0x1808 DUP6 ADD ADD MSTORE PUSH1 0xA0 PUSH2 0x1808 DUP5 ADD ADD MSTORE PUSH1 0xE0 MLOAD PUSH1 0xC0 PUSH2 0x1808 DUP5 ADD ADD MSTORE SUB SWAP1 PUSH1 0x0 CREATE PUSH2 0x100 MSTORE PUSH2 0x100 MLOAD ISZERO PUSH3 0xF92 JUMPI PUSH1 0x2 SLOAD PUSH1 0x1 PUSH1 0x1 PUSH1 0xA0 SHL SUB AND CALLER EQ PUSH3 0x1474 DUP2 PUSH3 0x65C4 JUMP JUMPDEST SWAP10 PUSH1 0x1 DUP1 PUSH1 0xA0 SHL SUB PUSH1 0x1 SLOAD AND PUSH1 0x3 SLOAD PUSH1 0x5 SLOAD PUSH1 0x6 SLOAD PUSH1 0x7 SLOAD SWAP2 PUSH1 0x1 DUP1 PUSH1 0xA0 SHL SUB PUSH1 0x8 SLOAD AND SWAP4 PUSH1 0x40 MLOAD SWAP6 DUP7 PUSH2 0x2AF0 DUP2 ADD LT PUSH1 0x1 PUSH1 0x1 PUSH1 0x40 SHL SUB PUSH2 0x2AF0 DUP10 ADD GT OR PUSH3 0x10FF JUMPI PUSH2 0x2AF0 PUSH3 0x6607 DUP9 CODECOPY PUSH1 0x1 DUP1 PUSH1 0xA0 SHL SUB PUSH2 0x100 MLOAD AND PUSH2 0x2AF0 DUP9 ADD MSTORE ADDRESS PUSH1 0x20 PUSH2 0x2AF0 DUP10 ADD ADD MSTORE PUSH1 0x40 PUSH2 0x2AF0 DUP9 ADD ADD MSTORE PUSH1 0x60 PUSH2 0x2AF0 DUP8 ADD ADD MSTORE PUSH1 0x80 PUSH2 0x2AF0 DUP7 ADD ADD MSTORE PUSH1 0xA0 PUSH2 0x2AF0 DUP6 ADD ADD MSTORE PUSH1 0xC0 PUSH2 0x2AF0 DUP5 ADD ADD MSTORE PUSH1 0xE0 PUSH2 0x2AF0 DUP4 ADD ADD MSTORE PUSH1 0x1 DUP1 PUSH1 0xA0 SHL SUB DUP13 AND PUSH2 0x100 PUSH2 0x2AF0 DUP4 ADD ADD MSTORE PUSH2 0x120 DUP2 PUSH2 0x2AF0 DUP2 ADD SUB ADD SWAP2 CREATE PUSH2 0x1E0 MSTORE PUSH2 0x1E0 MLOAD ISZERO PUSH3 0xF92 JUMPI DUP11 DUP10 DUP2 MUL DIV DUP10 SUB PUSH3 0x10E9 JUMPI PUSH3 0x155F PUSH2 0x2710 DUP11 DUP14 MUL DIV DUP13 PUSH3 0x62A6 JUMP JUMPDEST PUSH1 0x40 MLOAD PUSH4 0xA9059CBB PUSH1 0xE0 SHL DUP2 MSTORE PUSH2 0x1E0 MLOAD PUSH1 0x1 PUSH1 0x1 PUSH1 0xA0 SHL SUB SWAP1 DUP2 AND PUSH1 0x4 DUP4 ADD MSTORE PUSH1 0x24 DUP3 ADD DUP4 SWAP1 MSTORE PUSH2 0x100 MLOAD PUSH1 0x20 SWAP2 DUP4 SWAP2 PUSH1 0x44 SWAP2 DUP4 SWAP2 PUSH1 0x0 SWAP2 AND GAS CALL SWAP1 DUP2 ISZERO PUSH3 0xF92 JUMPI PUSH1 0x0 SWAP2 PUSH3 0x2020 JUMPI JUMPDEST POP ISZERO PUSH3 0x1089 JUMPI DUP10 DUP13 PUSH2 0x2710 DUP3 DUP3 MUL DIV PUSH3 0x1FA2 JUMPI JUMPDEST POP POP PUSH2 0x1E0 MLOAD PUSH1 0x1 PUSH1 0x1 PUSH1 0xA0 SHL SUB AND EXTCODESIZE ISZERO PUSH3 0x8D6 JUMPI PUSH1 0x40 MLOAD SWAP1 PUSH4 0x95564837 PUSH1 0xE0 SHL DUP3 MSTORE PUSH1 0x4 DUP3 ADD MSTORE PUSH1 0x0 DUP2 PUSH1 0x24 DUP2 DUP4 PUSH1 0x1 DUP1 PUSH1 0xA0 SHL SUB PUSH2 0x1E0 MLOAD AND GAS CALL DUP1 ISZERO PUSH3 0xF92 JUMPI PUSH3 0x1F8A JUMPI JUMPDEST POP PUSH2 0x1E0 MLOAD PUSH1 0x1 PUSH1 0x1 PUSH1 0xA0 SHL SUB AND EXTCODESIZE ISZERO PUSH3 0x1EC7 JUMPI PUSH1 0x40 MLOAD PUSH4 0x9485DC9 PUSH1 0xE2 SHL DUP2 MSTORE PUSH2 0x120 MLOAD PUSH2 0x1E0 MLOAD DUP3 SWAP1 PUSH1 0x4 SWAP1 DUP3 SWAP1 DUP5 SWAP1 PUSH1 0x1 PUSH1 0x1 PUSH1 0xA0 SHL SUB AND GAS CALL DUP1 ISZERO PUSH3 0x1A75 JUMPI PUSH3 0x1F6F JUMPI JUMPDEST POP PUSH1 0x40 MLOAD PUSH4 0x6B456EF PUSH1 0xE2 SHL DUP2 MSTORE PUSH2 0x1E0 MLOAD PUSH1 0x20 SWAP1 DUP3 SWAP1 PUSH1 0x4 SWAP1 DUP3 SWAP1 PUSH1 0x1 PUSH1 0x1 PUSH1 0xA0 SHL SUB AND GAS STATICCALL SWAP1 DUP2 ISZERO PUSH3 0x1A75 JUMPI PUSH2 0x120 MLOAD SWAP2 PUSH3 0x1F4B JUMPI JUMPDEST POP PUSH1 0x1 PUSH1 0x1 PUSH1 0xA0 SHL SUB DUP2 AND PUSH3 0x1EDA JUMPI JUMPDEST POP DUP1 ISZERO SWAP1 PUSH3 0x1ECE JUMPI JUMPDEST PUSH3 0x1E5B JUMPI JUMPDEST PUSH2 0x100 MLOAD PUSH2 0x120 DUP1 MLOAD PUSH1 0x1 PUSH1 0x1 PUSH1 0xA0 SHL SUB SWAP3 DUP4 AND SWAP1 MSTORE PUSH1 0xB PUSH1 0x20 MSTORE MLOAD PUSH1 0x40 SWAP1 KECCAK256 PUSH2 0x1E0 MLOAD DUP2 SLOAD PUSH1 0x1 PUSH1 0x1 PUSH1 0xA0 SHL SUB NOT AND SWAP3 AND SWAP2 SWAP1 SWAP2 OR SWAP1 SSTORE PUSH1 0xA SLOAD SWAP11 PUSH1 0x1 PUSH1 0x40 SHL DUP13 LT ISZERO PUSH3 0x1B9E JUMPI PUSH1 0x1 DUP13 ADD PUSH1 0xA SSTORE PUSH3 0x170E DUP13 PUSH3 0x5FE7 JUMP JUMPDEST POP POP PUSH3 0x171B DUP13 PUSH3 0x5FE7 JUMP JUMPDEST POP PUSH2 0x100 MLOAD DUP2 SLOAD PUSH1 0x1 PUSH1 0x1 PUSH1 0xA0 SHL SUB NOT SWAP1 DUP2 AND PUSH1 0x1 PUSH1 0x1 PUSH1 0xA0 SHL SUB SWAP3 DUP4 AND OR DUP4 SSTORE PUSH2 0x1E0 MLOAD PUSH1 0x1 DUP5 ADD DUP1 SLOAD DUP4 AND SWAP2 SWAP1 SWAP4 AND OR SWAP1 SWAP2 SSTORE PUSH1 0x2 DUP3 ADD DUP1 SLOAD SWAP1 SWAP2 AND CALLER OR SWAP1 SSTORE SWAP8 PUSH1 0x1 PUSH1 0x1 PUSH1 0x40 SHL SUB DUP3 GT PUSH3 0x1B9E JUMPI DUP2 SWAP1 PUSH3 0x177E PUSH1 0x3 DUP12 ADD SLOAD PUSH3 0x6038 JUMP JUMPDEST PUSH1 0x1F DUP2 GT PUSH3 0x1DFD JUMPI JUMPDEST POP PUSH2 0x120 MLOAD SWAP1 PUSH1 0x1F DUP4 GT PUSH1 0x1 EQ PUSH3 0x1D86 JUMPI PUSH2 0x120 MLOAD SWAP3 PUSH3 0x1D7A JUMPI JUMPDEST POP POP DUP2 PUSH1 0x1 SHL SWAP2 PUSH1 0x0 NOT SWAP1 PUSH1 0x3 SHL SHR NOT AND OR PUSH1 0x3 DUP9 ADD SSTORE JUMPDEST PUSH1 0x1 PUSH1 0x1 PUSH1 0x40 SHL SUB DUP3 GT PUSH3 0x1B9E JUMPI DUP2 SWAP1 PUSH3 0x17DD PUSH1 0x4 DUP10 ADD SLOAD PUSH3 0x6038 JUMP JUMPDEST PUSH1 0x1F DUP2 GT PUSH3 0x1D1C JUMPI JUMPDEST POP PUSH2 0x120 MLOAD SWAP1 PUSH1 0x1F DUP4 GT PUSH1 0x1 EQ PUSH3 0x1CA5 JUMPI PUSH2 0x120 MLOAD SWAP3 PUSH3 0x1C99 JUMPI JUMPDEST POP POP DUP2 PUSH1 0x1 SHL SWAP2 PUSH1 0x0 NOT SWAP1 PUSH1 0x3 SHL SHR NOT AND OR PUSH1 0x4 DUP7 ADD SSTORE JUMPDEST PUSH1 0x1 PUSH1 0x1 PUSH1 0x40 SHL SUB DUP3 GT PUSH3 0x1B9E JUMPI DUP2 SWAP1 PUSH3 0x183C PUSH1 0x5 DUP8 ADD SLOAD PUSH3 0x6038 JUMP JUMPDEST PUSH1 0x1F DUP2 GT PUSH3 0x1C3B JUMPI JUMPDEST POP PUSH2 0x120 MLOAD SWAP1 PUSH1 0x1F DUP4 GT PUSH1 0x1 EQ PUSH3 0x1BC4 JUMPI PUSH2 0x120 MLOAD SWAP3 PUSH3 0x1BB8 JUMPI JUMPDEST POP POP DUP2 PUSH1 0x1 SHL SWAP2 PUSH1 0x0 NOT SWAP1 PUSH1 0x3 SHL SHR NOT AND OR PUSH1 0x5 DUP5 ADD SSTORE JUMPDEST PUSH1 0x1 PUSH1 0x1 PUSH1 0x40 SHL SUB DUP3 GT PUSH3 0x1B9E JUMPI DUP2 SWAP1 PUSH3 0x189B PUSH1 0x6 DUP6 ADD SLOAD PUSH3 0x6038 JUMP JUMPDEST PUSH1 0x1F DUP2 GT PUSH3 0x1B40 JUMPI JUMPDEST POP PUSH2 0x120 MLOAD SWAP1 PUSH1 0x1F DUP4 GT PUSH1 0x1 EQ PUSH3 0x1AC9 JUMPI PUSH2 0x120 MLOAD SWAP3 PUSH3 0x1ABD JUMPI JUMPDEST POP POP DUP2 PUSH1 0x1 SHL SWAP2 PUSH1 0x0 NOT SWAP1 PUSH1 0x3 SHL SHR NOT AND OR PUSH1 0x6 DUP3 ADD SSTORE JUMPDEST DUP4 PUSH1 0x7 DUP3 ADD SSTORE PUSH2 0x2710 DUP3 DUP6 MUL DIV PUSH1 0x8 DUP3 ADD SSTORE PUSH1 0x9 TIMESTAMP SWAP2 ADD SSTORE PUSH1 0x3 SLOAD PUSH1 0x7 SLOAD SWAP1 PUSH2 0x2710 PUSH1 0x1 DUP1 PUSH1 0xA0 SHL SUB PUSH1 0x8 SLOAD AND SWAP4 PUSH1 0x40 MLOAD SWAP7 PUSH1 0x1 DUP1 PUSH1 0xA0 SHL SUB PUSH2 0x1E0 MLOAD AND DUP9 MSTORE DUP1 PUSH1 0x20 DUP10 ADD MSTORE MUL DIV PUSH1 0x40 DUP7 ADD MSTORE PUSH1 0x60 DUP6 ADD MSTORE PUSH1 0x80 DUP5 ADD MSTORE PUSH1 0xA0 DUP4 ADD MSTORE PUSH1 0x1 DUP1 PUSH1 0xA0 SHL SUB AND PUSH1 0xC0 DUP3 ADD MSTORE PUSH1 0x1 DUP1 PUSH1 0xA0 SHL SUB PUSH2 0x100 MLOAD AND SWAP1 DUP3 PUSH1 0x0 DUP1 MLOAD PUSH1 0x20 PUSH3 0xA91F DUP4 CODECOPY DUP2 MLOAD SWAP2 MSTORE PUSH1 0xE0 CALLER SWAP4 LOG4 PUSH1 0x40 MLOAD SWAP1 PUSH4 0x17773EBB PUSH1 0xE0 SHL DUP3 MSTORE PUSH1 0x20 DUP3 PUSH1 0x4 DUP2 PUSH1 0x1 DUP1 PUSH1 0xA0 SHL SUB PUSH2 0x100 MLOAD AND GAS STATICCALL SWAP2 DUP3 ISZERO PUSH3 0x1A75 JUMPI PUSH2 0x120 MLOAD SWAP3 PUSH3 0x1A83 JUMPI JUMPDEST POP PUSH1 0x40 MLOAD SWAP2 PUSH4 0x116E689F PUSH1 0xE1 SHL DUP4 MSTORE PUSH1 0x20 DUP4 PUSH1 0x4 DUP2 PUSH1 0x1 DUP1 PUSH1 0xA0 SHL SUB PUSH2 0x100 MLOAD AND GAS STATICCALL DUP1 ISZERO PUSH3 0x1A75 JUMPI PUSH2 0x120 MLOAD SWAP1 PUSH3 0x1A3A JUMPI JUMPDEST PUSH3 0x8A0 SWAP4 POP PUSH1 0x40 MLOAD SWAP2 PUSH1 0xE0 MLOAD DUP4 MSTORE PUSH1 0x20 DUP4 ADD MSTORE PUSH1 0x40 DUP3 ADD MSTORE DUP2 PUSH1 0x0 DUP1 MLOAD PUSH1 0x20 PUSH3 0xA8FF DUP4 CODECOPY DUP2 MLOAD SWAP2 MSTORE PUSH1 0x60 PUSH1 0x1 DUP1 PUSH1 0xA0 SHL SUB PUSH2 0x100 MLOAD AND SWAP4 LOG3 PUSH1 0x40 DUP1 MLOAD PUSH2 0x1E0 MLOAD PUSH2 0x100 MLOAD SWAP4 DUP3 MSTORE PUSH1 0x1 PUSH1 0x1 PUSH1 0xA0 SHL SUB SWAP4 DUP5 AND PUSH1 0x20 DUP4 ADD MSTORE SWAP1 SWAP3 AND SWAP1 DUP3 ADD MSTORE SWAP1 DUP2 SWAP1 PUSH1 0x60 DUP3 ADD SWAP1 JUMP JUMPDEST POP PUSH1 0x20 DUP4 RETURNDATASIZE PUSH1 0x20 GT PUSH3 0x1A6C JUMPI JUMPDEST DUP2 PUSH3 0x1A57 PUSH1 0x20 SWAP4 DUP4 PUSH3 0x5F74 JUMP JUMPDEST DUP2 ADD SUB SLT PUSH3 0x8D6 JUMPI PUSH3 0x8A0 SWAP3 MLOAD PUSH3 0x19D0 JUMP JUMPDEST RETURNDATASIZE SWAP2 POP PUSH3 0x1A48 JUMP JUMPDEST PUSH1 0x40 MLOAD RETURNDATASIZE PUSH2 0x120 MLOAD DUP3 RETURNDATACOPY RETURNDATASIZE SWAP1 REVERT JUMPDEST SWAP1 SWAP2 POP PUSH1 0x20 DUP2 RETURNDATASIZE PUSH1 0x20 GT PUSH3 0x1AB4 JUMPI JUMPDEST DUP2 PUSH3 0x1AA2 PUSH1 0x20 SWAP4 DUP4 PUSH3 0x5F74 JUMP JUMPDEST DUP2 ADD SUB SLT PUSH3 0x8D6 JUMPI MLOAD SWAP1 DUP3 PUSH3 0x199B JUMP JUMPDEST RETURNDATASIZE SWAP2 POP PUSH3 0x1A93 JUMP JUMPDEST ADD CALLDATALOAD SWAP1 POP DUP8 DUP1 PUSH3 0x18C2 JUMP JUMPDEST PUSH2 0x120 DUP1 MLOAD PUSH1 0x6 DUP8 ADD SWAP1 MSTORE MLOAD PUSH1 0x20 DUP2 KECCAK256 SWAP1 SWAP5 POP SWAP2 JUMPDEST PUSH1 0x1F NOT DUP5 AND DUP6 LT PUSH3 0x1B27 JUMPI PUSH1 0x1 SWAP5 POP DUP4 PUSH1 0x1F NOT DUP2 AND LT PUSH3 0x1B0C JUMPI JUMPDEST POP POP POP DUP2 SHL ADD PUSH1 0x6 DUP3 ADD SSTORE PUSH3 0x18DA JUMP JUMPDEST ADD CALLDATALOAD PUSH1 0x0 NOT PUSH1 0x3 DUP5 SWAP1 SHL PUSH1 0xF8 AND SHR NOT AND SWAP1 SSTORE DUP8 DUP1 DUP1 PUSH3 0x1AFB JUMP JUMPDEST DUP2 DUP2 ADD CALLDATALOAD DUP4 SSTORE PUSH1 0x20 SWAP5 DUP6 ADD SWAP5 PUSH1 0x1 SWAP1 SWAP4 ADD SWAP3 ADD PUSH3 0x1ADE JUMP JUMPDEST SWAP1 SWAP2 POP PUSH1 0x6 DUP5 ADD PUSH2 0x120 MLOAD MSTORE PUSH1 0x20 PUSH2 0x120 MLOAD KECCAK256 PUSH1 0x1F DUP5 ADD PUSH1 0x5 SHR DUP2 ADD PUSH1 0x20 DUP6 LT PUSH3 0x1B96 JUMPI JUMPDEST SWAP1 DUP5 SWAP4 SWAP3 SWAP2 JUMPDEST PUSH1 0x1F DUP4 ADD PUSH1 0x5 SHR DUP3 ADD DUP2 LT PUSH3 0x1B84 JUMPI POP POP PUSH3 0x18A5 JUMP JUMPDEST PUSH2 0x120 MLOAD DUP2 SSTORE DUP6 SWAP5 POP PUSH1 0x1 ADD PUSH3 0x1B6C JUMP JUMPDEST POP DUP1 PUSH3 0x1B66 JUMP JUMPDEST PUSH4 0x4E487B71 PUSH1 0xE0 SHL PUSH2 0x120 MLOAD MSTORE PUSH1 0x41 PUSH1 0x4 MSTORE PUSH1 0x24 PUSH2 0x120 MLOAD REVERT JUMPDEST ADD CALLDATALOAD SWAP1 POP DUP10 DUP1 PUSH3 0x1863 JUMP JUMPDEST PUSH2 0x120 DUP1 MLOAD PUSH1 0x5 DUP10 ADD SWAP1 MSTORE MLOAD PUSH1 0x20 DUP2 KECCAK256 SWAP1 SWAP5 POP SWAP2 JUMPDEST PUSH1 0x1F NOT DUP5 AND DUP6 LT PUSH3 0x1C22 JUMPI PUSH1 0x1 SWAP5 POP DUP4 PUSH1 0x1F NOT DUP2 AND LT PUSH3 0x1C07 JUMPI JUMPDEST POP POP POP DUP2 SHL ADD PUSH1 0x5 DUP5 ADD SSTORE PUSH3 0x187B JUMP JUMPDEST ADD CALLDATALOAD PUSH1 0x0 NOT PUSH1 0x3 DUP5 SWAP1 SHL PUSH1 0xF8 AND SHR NOT AND SWAP1 SSTORE DUP10 DUP1 DUP1 PUSH3 0x1BF6 JUMP JUMPDEST DUP2 DUP2 ADD CALLDATALOAD DUP4 SSTORE PUSH1 0x20 SWAP5 DUP6 ADD SWAP5 PUSH1 0x1 SWAP1 SWAP4 ADD SWAP3 ADD PUSH3 0x1BD9 JUMP JUMPDEST SWAP1 SWAP2 POP PUSH1 0x5 DUP7 ADD PUSH2 0x120 MLOAD MSTORE PUSH1 0x20 PUSH2 0x120 MLOAD KECCAK256 PUSH1 0x1F DUP5 ADD PUSH1 0x5 SHR DUP2 ADD PUSH1 0x20 DUP6 LT PUSH3 0x1C91 JUMPI JUMPDEST SWAP1 DUP5 SWAP4 SWAP3 SWAP2 JUMPDEST PUSH1 0x1F DUP4 ADD PUSH1 0x5 SHR DUP3 ADD DUP2 LT PUSH3 0x1C7F JUMPI POP POP PUSH3 0x1846 JUMP JUMPDEST PUSH2 0x120 MLOAD DUP2 SSTORE DUP6 SWAP5 POP PUSH1 0x1 ADD PUSH3 0x1C67 JUMP JUMPDEST POP DUP1 PUSH3 0x1C61 JUMP JUMPDEST ADD CALLDATALOAD SWAP1 POP DUP12 DUP1 PUSH3 0x1804 JUMP JUMPDEST PUSH2 0x120 DUP1 MLOAD PUSH1 0x4 DUP12 ADD SWAP1 MSTORE MLOAD PUSH1 0x20 DUP2 KECCAK256 SWAP1 SWAP5 POP SWAP2 JUMPDEST PUSH1 0x1F NOT DUP5 AND DUP6 LT PUSH3 0x1D03 JUMPI PUSH1 0x1 SWAP5 POP DUP4 PUSH1 0x1F NOT DUP2 AND LT PUSH3 0x1CE8 JUMPI JUMPDEST POP POP POP DUP2 SHL ADD PUSH1 0x4 DUP7 ADD SSTORE PUSH3 0x181C JUMP JUMPDEST ADD CALLDATALOAD PUSH1 0x0 NOT PUSH1 0x3 DUP5 SWAP1 SHL PUSH1 0xF8 AND SHR NOT AND SWAP1 SSTORE DUP12 DUP1 DUP1 PUSH3 0x1CD7 JUMP JUMPDEST DUP2 DUP2 ADD CALLDATALOAD DUP4 SSTORE PUSH1 0x20 SWAP5 DUP6 ADD SWAP5 PUSH1 0x1 SWAP1 SWAP4 ADD SWAP3 ADD PUSH3 0x1CBA JUMP JUMPDEST SWAP1 SWAP2 POP PUSH1 0x4 DUP9 ADD PUSH2 0x120 MLOAD MSTORE PUSH1 0x20 PUSH2 0x120 MLOAD KECCAK256 PUSH1 0x1F DUP5 ADD PUSH1 0x5 SHR DUP2 ADD PUSH1 0x20 DUP6 LT PUSH3 0x1D72 JUMPI JUMPDEST SWAP1 DUP5 SWAP4 SWAP3 SWAP2 JUMPDEST PUSH1 0x1F DUP4 ADD PUSH1 0x5 SHR DUP3 ADD DUP2 LT PUSH3 0x1D60 JUMPI POP POP PUSH3 0x17E7 JUMP JUMPDEST PUSH2 0x120 MLOAD DUP2 SSTORE DUP6 SWAP5 POP PUSH1 0x1 ADD PUSH3 0x1D48 JUMP JUMPDEST POP DUP1 PUSH3 0x1D42 JUMP JUMPDEST ADD CALLDATALOAD SWAP1 POP DUP14 DUP1 PUSH3 0x17A5 JUMP JUMPDEST PUSH2 0x120 DUP1 MLOAD PUSH1 0x3 DUP14 ADD SWAP1 MSTORE MLOAD PUSH1 0x20 DUP2 KECCAK256 SWAP1 SWAP5 POP SWAP2 JUMPDEST PUSH1 0x1F NOT DUP5 AND DUP6 LT PUSH3 0x1DE4 JUMPI PUSH1 0x1 SWAP5 POP DUP4 PUSH1 0x1F NOT DUP2 AND LT PUSH3 0x1DC9 JUMPI JUMPDEST POP POP POP DUP2 SHL ADD PUSH1 0x3 DUP9 ADD SSTORE PUSH3 0x17BD JUMP JUMPDEST ADD CALLDATALOAD PUSH1 0x0 NOT PUSH1 0x3 DUP5 SWAP1 SHL PUSH1 0xF8 AND SHR NOT AND SWAP1 SSTORE DUP14 DUP1 DUP1 PUSH3 0x1DB8 JUMP JUMPDEST DUP2 DUP2 ADD CALLDATALOAD DUP4 SSTORE PUSH1 0x20 SWAP5 DUP6 ADD SWAP5 PUSH1 0x1 SWAP1 SWAP4 ADD SWAP3 ADD PUSH3 0x1D9B JUMP JUMPDEST SWAP1 SWAP2 POP PUSH1 0x3 DUP11 ADD PUSH2 0x120 MLOAD MSTORE PUSH1 0x20 PUSH2 0x120 MLOAD KECCAK256 PUSH1 0x1F DUP5 ADD PUSH1 0x5 SHR DUP2 ADD PUSH1 0x20 DUP6 LT PUSH3 0x1E53 JUMPI JUMPDEST SWAP1 DUP5 SWAP4 SWAP3 SWAP2 JUMPDEST PUSH1 0x1F DUP4 ADD PUSH1 0x5 SHR DUP3 ADD DUP2 LT PUSH3 0x1E41 JUMPI POP POP PUSH3 0x1788 JUMP JUMPDEST PUSH2 0x120 MLOAD DUP2 SSTORE DUP6 SWAP5 POP PUSH1 0x1 ADD PUSH3 0x1E29 JUMP JUMPDEST POP DUP1 PUSH3 0x1E23 JUMP JUMPDEST PUSH2 0x100 MLOAD PUSH1 0x1 PUSH1 0x1 PUSH1 0xA0 SHL SUB AND EXTCODESIZE ISZERO PUSH3 0x1EC7 JUMPI PUSH1 0x40 MLOAD PUSH4 0x6E258E07 PUSH1 0xE1 SHL DUP2 MSTORE PUSH2 0x120 MLOAD PUSH2 0x100 MLOAD DUP3 SWAP1 PUSH1 0x4 SWAP1 DUP3 SWAP1 DUP5 SWAP1 PUSH1 0x1 PUSH1 0x1 PUSH1 0xA0 SHL SUB AND GAS CALL DUP1 ISZERO PUSH3 0x1A75 JUMPI PUSH3 0x1EAC JUMPI JUMPDEST POP PUSH3 0x16B3 JUMP JUMPDEST PUSH3 0x1EB7 SWAP1 PUSH3 0x5F60 JUMP JUMPDEST PUSH2 0x120 MLOAD PUSH3 0x1EC7 JUMPI DUP12 PUSH3 0x1EA5 JUMP JUMPDEST PUSH2 0x120 MLOAD DUP1 REVERT JUMPDEST POP PUSH2 0x1237 CHAINID EQ PUSH3 0x16AD JUMP JUMPDEST PUSH2 0x100 MLOAD PUSH1 0x1 PUSH1 0x1 PUSH1 0xA0 SHL SUB AND EXTCODESIZE ISZERO PUSH3 0x1EC7 JUMPI PUSH1 0x40 MLOAD PUSH4 0x15C6DEB9 PUSH1 0xE3 SHL DUP2 MSTORE PUSH1 0x1 PUSH1 0x1 PUSH1 0xA0 SHL SUB SWAP2 DUP3 AND PUSH1 0x4 DUP3 ADD MSTORE PUSH2 0x120 MLOAD PUSH2 0x100 MLOAD SWAP2 SWAP3 SWAP1 SWAP2 DUP4 SWAP2 PUSH1 0x24 SWAP2 DUP4 SWAP2 DUP6 SWAP2 AND GAS CALL DUP1 ISZERO PUSH3 0x1A75 JUMPI ISZERO PUSH3 0x16A3 JUMPI PUSH3 0x1F3B SWAP1 PUSH3 0x5F60 JUMP JUMPDEST PUSH2 0x120 MLOAD PUSH3 0x1EC7 JUMPI DUP13 PUSH3 0x16A3 JUMP JUMPDEST PUSH3 0x1F68 SWAP2 POP PUSH1 0x20 RETURNDATASIZE PUSH1 0x20 GT PUSH3 0xDCC JUMPI PUSH3 0xDBC DUP2 DUP4 PUSH3 0x5F74 JUMP JUMPDEST DUP14 PUSH3 0x1692 JUMP JUMPDEST PUSH3 0x1F7A SWAP1 PUSH3 0x5F60 JUMP JUMPDEST PUSH2 0x120 MLOAD PUSH3 0x1EC7 JUMPI DUP13 PUSH3 0x1658 JUMP JUMPDEST PUSH3 0x1F95 SWAP1 PUSH3 0x5F60 JUMP JUMPDEST PUSH1 0x0 PUSH2 0x120 MSTORE DUP13 PUSH3 0x160D JUMP JUMPDEST PUSH1 0x40 MLOAD PUSH4 0xA9059CBB PUSH1 0xE0 SHL DUP2 MSTORE CALLER PUSH1 0x4 DUP3 ADD MSTORE PUSH2 0x2710 SWAP2 SWAP1 SWAP3 MUL DIV PUSH1 0x24 DUP3 ADD MSTORE PUSH1 0x20 DUP2 DUP1 PUSH1 0x44 DUP2 ADD SUB DUP2 PUSH1 0x0 PUSH1 0x1 DUP1 PUSH1 0xA0 SHL SUB PUSH2 0x100 MLOAD AND GAS CALL SWAP1 DUP2 ISZERO PUSH3 0xF92 JUMPI PUSH1 0x0 SWAP2 PUSH3 0x1FFC JUMPI JUMPDEST POP ISZERO PUSH3 0x100E JUMPI DUP10 DUP13 PUSH3 0x15C2 JUMP JUMPDEST PUSH3 0x2019 SWAP2 POP PUSH1 0x20 RETURNDATASIZE PUSH1 0x20 GT PUSH3 0x1081 JUMPI PUSH3 0x1071 DUP2 DUP4 PUSH3 0x5F74 JUMP JUMPDEST DUP15 PUSH3 0x1FED JUMP JUMPDEST PUSH3 0x203D SWAP2 POP PUSH1 0x20 RETURNDATASIZE PUSH1 0x20 GT PUSH3 0x1081 JUMPI PUSH3 0x1071 DUP2 DUP4 PUSH3 0x5F74 JUMP JUMPDEST DUP15 PUSH3 0x15AC JUMP JUMPDEST CALLVALUE PUSH3 0x8D6 JUMPI PUSH1 0x0 CALLDATASIZE PUSH1 0x3 NOT ADD SLT PUSH3 0x8D6 JUMPI PUSH1 0x2 SLOAD PUSH1 0x40 MLOAD PUSH1 0x1 PUSH1 0x1 PUSH1 0xA0 SHL SUB SWAP1 SWAP2 AND DUP2 MSTORE PUSH1 0x20 SWAP1 RETURN JUMPDEST CALLVALUE PUSH3 0x8D6 JUMPI PUSH1 0x0 CALLDATASIZE PUSH1 0x3 NOT ADD SLT PUSH3 0x8D6 JUMPI PUSH1 0x20 PUSH1 0x40 MLOAD PUSH2 0x2710 DUP2 MSTORE RETURN JUMPDEST CALLVALUE PUSH3 0x8D6 JUMPI PUSH1 0x0 CALLDATASIZE PUSH1 0x3 NOT ADD SLT PUSH3 0x8D6 JUMPI PUSH1 0x8 SLOAD PUSH1 0x40 MLOAD PUSH1 0x1 PUSH1 0x1 PUSH1 0xA0 SHL SUB SWAP1 SWAP2 AND DUP2 MSTORE PUSH1 0x20 SWAP1 RETURN JUMPDEST CALLVALUE PUSH3 0x8D6 JUMPI PUSH1 0x0 CALLDATASIZE PUSH1 0x3 NOT ADD SLT PUSH3 0x8D6 JUMPI PUSH1 0x20 PUSH1 0x3 SLOAD PUSH1 0x40 MLOAD SWAP1 DUP2 MSTORE RETURN JUMPDEST CALLVALUE PUSH3 0x8D6 JUMPI PUSH2 0x120 CALLDATASIZE PUSH1 0x3 NOT ADD SLT PUSH3 0x8D6 JUMPI PUSH3 0x20F7 PUSH3 0x5CA0 JUMP JUMPDEST PUSH1 0x24 CALLDATALOAD PUSH1 0x1 PUSH1 0x1 PUSH1 0xA0 SHL SUB DUP2 AND DUP2 SUB PUSH3 0x8D6 JUMPI PUSH1 0x64 SWAP2 PUSH1 0xE4 CALLDATALOAD PUSH1 0x1 PUSH1 0x1 PUSH1 0xA0 SHL SUB DUP2 AND DUP2 SUB PUSH3 0x8D6 JUMPI PUSH2 0x104 CALLDATALOAD SWAP2 PUSH1 0x1 PUSH1 0x1 PUSH1 0xA0 SHL SUB DUP4 AND DUP4 SUB PUSH3 0x8D6 JUMPI PUSH3 0x214F PUSH1 0x1 DUP1 PUSH1 0xA0 SHL SUB PUSH1 0x0 SLOAD AND CALLER EQ PUSH3 0x63E8 JUMP JUMPDEST PUSH1 0x1 PUSH1 0x1 PUSH1 0xA0 SHL SUB AND SWAP3 DUP4 ISZERO PUSH3 0x23FF JUMPI PUSH1 0x1 PUSH1 0x1 PUSH1 0xA0 SHL SUB DUP2 AND ISZERO PUSH3 0x23BB JUMPI PUSH2 0x12C PUSH1 0x44 CALLDATALOAD GT PUSH3 0x2388 JUMPI PUSH1 0x84 CALLDATALOAD ISZERO PUSH3 0x234D JUMPI PUSH1 0xA4 CALLDATALOAD ISZERO PUSH3 0x2310 JUMPI PUSH1 0xC4 CALLDATALOAD ISZERO PUSH3 0x22DA JUMPI PUSH1 0x1 PUSH1 0x1 PUSH1 0xA0 SHL SUB DUP3 AND PUSH3 0x228F JUMPI JUMPDEST SWAP1 PUSH32 0x62DE0C78F593B14F1D09C895CE83A42EA45A7D77A716A05432A53193305B3C5A SWAP5 PUSH2 0x120 SWAP5 SWAP4 SWAP3 PUSH1 0x1 PUSH1 0x1 PUSH1 0x60 SHL SUB PUSH1 0xA0 SHL DUP6 DUP2 PUSH1 0x1 SLOAD AND OR PUSH1 0x1 SSTORE PUSH1 0x1 DUP1 PUSH1 0xA0 SHL SUB DUP3 AND DUP2 PUSH1 0x2 SLOAD AND OR PUSH1 0x2 SSTORE PUSH1 0x44 CALLDATALOAD PUSH1 0x3 SSTORE DUP3 CALLDATALOAD PUSH1 0x4 SSTORE PUSH1 0x84 CALLDATALOAD PUSH1 0x5 SSTORE PUSH1 0xA4 CALLDATALOAD PUSH1 0x6 SSTORE PUSH1 0xC4 CALLDATALOAD PUSH1 0x7 SSTORE PUSH1 0x1 DUP1 PUSH1 0xA0 SHL SUB DUP5 AND DUP2 PUSH1 0x8 SLOAD AND OR PUSH1 0x8 SSTORE PUSH1 0x1 DUP1 PUSH1 0xA0 SHL SUB DUP6 AND SWAP1 PUSH1 0x9 SLOAD AND OR PUSH1 0x9 SSTORE PUSH1 0x40 MLOAD SWAP5 DUP6 MSTORE PUSH1 0x1 DUP1 PUSH1 0xA0 SHL SUB AND PUSH1 0x20 DUP6 ADD MSTORE PUSH1 0x44 CALLDATALOAD PUSH1 0x40 DUP6 ADD MSTORE CALLDATALOAD PUSH1 0x60 DUP5 ADD MSTORE PUSH1 0x84 CALLDATALOAD PUSH1 0x80 DUP5 ADD MSTORE PUSH1 0xA4 CALLDATALOAD PUSH1 0xA0 DUP5 ADD MSTORE PUSH1 0xC4 CALLDATALOAD PUSH1 0xC0 DUP5 ADD MSTORE PUSH1 0x1 DUP1 PUSH1 0xA0 SHL SUB AND PUSH1 0xE0 DUP4 ADD MSTORE PUSH1 0x1 DUP1 PUSH1 0xA0 SHL SUB AND PUSH2 0x100 DUP3 ADD MSTORE LOG1 STOP JUMPDEST PUSH1 0x1 PUSH1 0x1 PUSH1 0xA0 SHL SUB DUP4 AND PUSH3 0x21A7 JUMPI PUSH1 0x40 MLOAD PUSH3 0x461BCD PUSH1 0xE5 SHL DUP2 MSTORE PUSH1 0x20 PUSH1 0x4 DUP3 ADD MSTORE PUSH1 0x15 PUSH1 0x24 DUP3 ADD MSTORE PUSH21 0x1B1C081C9958DA5C1A595B9D081C995C5D5A5C9959 PUSH1 0x5A SHL PUSH1 0x44 DUP3 ADD MSTORE DUP6 SWAP1 REVERT JUMPDEST PUSH1 0x40 MLOAD PUSH3 0x461BCD PUSH1 0xE5 SHL DUP2 MSTORE PUSH1 0x20 PUSH1 0x4 DUP3 ADD MSTORE PUSH1 0xF PUSH1 0x24 DUP3 ADD MSTORE PUSH15 0x1D185C99D95D081C995C5D5A5C9959 PUSH1 0x8A SHL PUSH1 0x44 DUP3 ADD MSTORE DUP6 SWAP1 REVERT JUMPDEST PUSH1 0x40 MLOAD PUSH3 0x461BCD PUSH1 0xE5 SHL DUP2 MSTORE PUSH1 0x20 PUSH1 0x4 DUP3 ADD MSTORE PUSH1 0x16 PUSH1 0x24 DUP3 ADD MSTORE PUSH22 0x1D9A5C9D1D585B081D1BDAD95B881C995C5D5A5C9959 PUSH1 0x52 SHL PUSH1 0x44 DUP3 ADD MSTORE DUP6 SWAP1 REVERT JUMPDEST PUSH1 0x40 MLOAD PUSH3 0x461BCD PUSH1 0xE5 SHL DUP2 MSTORE PUSH1 0x20 PUSH1 0x4 DUP3 ADD MSTORE PUSH1 0x14 PUSH1 0x24 DUP3 ADD MSTORE PUSH20 0x1D9A5C9D1D585B08195D1A081C995C5D5A5C9959 PUSH1 0x62 SHL PUSH1 0x44 DUP3 ADD MSTORE DUP6 SWAP1 REVERT JUMPDEST PUSH1 0x40 MLOAD PUSH3 0x461BCD PUSH1 0xE5 SHL DUP2 MSTORE PUSH1 0x20 PUSH1 0x4 DUP3 ADD MSTORE PUSH1 0xC PUSH1 0x24 DUP3 ADD MSTORE PUSH12 0xCCCACA40E8DEDE40D0D2CED PUSH1 0xA3 SHL PUSH1 0x44 DUP3 ADD MSTORE DUP6 SWAP1 REVERT JUMPDEST PUSH1 0x40 MLOAD PUSH3 0x461BCD PUSH1 0xE5 SHL DUP2 MSTORE PUSH1 0x20 PUSH1 0x4 DUP3 ADD MSTORE PUSH1 0x1B PUSH1 0x24 DUP3 ADD MSTORE PUSH32 0x706C6174666F726D20726563697069656E742072657175697265640000000000 PUSH1 0x44 DUP3 ADD MSTORE DUP6 SWAP1 REVERT JUMPDEST PUSH1 0x40 MLOAD PUSH3 0x461BCD PUSH1 0xE5 SHL DUP2 MSTORE PUSH1 0x20 PUSH1 0x4 DUP3 ADD MSTORE PUSH1 0x16 PUSH1 0x24 DUP3 ADD MSTORE PUSH22 0x199959481C9958DA5C1A595B9D081C995C5D5A5C9959 PUSH1 0x52 SHL PUSH1 0x44 DUP3 ADD MSTORE DUP6 SWAP1 REVERT JUMPDEST CALLVALUE PUSH3 0x8D6 JUMPI PUSH1 0x0 CALLDATASIZE PUSH1 0x3 NOT ADD SLT PUSH3 0x8D6 JUMPI PUSH1 0x20 PUSH1 0xA SLOAD PUSH1 0x40 MLOAD SWAP1 DUP2 MSTORE RETURN JUMPDEST CALLVALUE PUSH3 0x8D6 JUMPI PUSH1 0x40 CALLDATASIZE PUSH1 0x3 NOT ADD SLT PUSH3 0x8D6 JUMPI PUSH3 0x247F PUSH1 0x24 CALLDATALOAD PUSH1 0x4 CALLDATALOAD PUSH3 0x62E1 JUMP JUMPDEST PUSH1 0x40 MLOAD PUSH1 0x20 SWAP2 PUSH1 0x20 DUP3 ADD SWAP3 PUSH1 0x20 DUP4 MSTORE DUP2 MLOAD DUP1 SWAP5 MSTORE PUSH1 0x40 DUP4 ADD SWAP4 PUSH1 0x20 PUSH1 0x40 DUP3 PUSH1 0x5 SHL DUP7 ADD ADD SWAP4 ADD SWAP2 PUSH1 0x0 SWAP6 JUMPDEST DUP3 DUP8 LT PUSH3 0x24B8 JUMPI DUP6 DUP6 SUB DUP7 RETURN JUMPDEST SWAP1 SWAP2 SWAP3 SWAP4 DUP3 DUP1 PUSH3 0x24D6 PUSH1 0x1 SWAP4 PUSH1 0x3F NOT DUP11 DUP3 SUB ADD DUP7 MSTORE DUP9 MLOAD PUSH3 0x5E57 JUMP JUMPDEST SWAP7 ADD SWAP3 ADD SWAP7 ADD SWAP6 SWAP3 SWAP2 SWAP1 SWAP3 PUSH3 0x24AA JUMP JUMPDEST PUSH3 0x24F2 CALLDATASIZE PUSH3 0x5CE7 JUMP JUMPDEST SWAP5 PUSH3 0x2513 PUSH1 0x1 DUP1 PUSH1 0xA0 SWAP13 SWAP8 SWAP5 SWAP11 SWAP12 SWAP13 SWAP7 SWAP6 SWAP7 SHL SUB PUSH1 0x8 SLOAD AND ISZERO ISZERO PUSH3 0x61C8 JUMP JUMPDEST PUSH1 0x9 SLOAD PUSH3 0x252C SWAP1 PUSH1 0x1 PUSH1 0x1 PUSH1 0xA0 SHL SUB AND ISZERO ISZERO PUSH3 0x620A JUMP JUMPDEST PUSH3 0x2540 PUSH1 0x4 SLOAD PUSH3 0x1C6 DUP2 CALLVALUE GT PUSH3 0x624E JUMP JUMPDEST SWAP7 PUSH3 0x254B PUSH3 0x6422 JUMP JUMPDEST PUSH1 0x40 MLOAD DUP9 DUP2 MSTORE PUSH32 0xAC9D85DC25663B5CC567AFAED6BB7823377F8F9F4164BC741A6ED341C04A8EC7 PUSH1 0x20 CALLER SWAP3 LOG2 PUSH1 0x0 PUSH2 0x160 MSTORE DUP11 ISZERO PUSH3 0x11F8 JUMPI DUP1 ISZERO PUSH3 0x11C1 JUMPI DUP9 ISZERO PUSH3 0x118A JUMPI PUSH2 0x7D0 DUP8 GT PUSH3 0x114F JUMPI PUSH1 0x0 PUSH2 0x160 MSTORE PUSH1 0x2 SLOAD PUSH1 0x40 MLOAD SWAP1 PUSH1 0x1 PUSH1 0x1 PUSH1 0xA0 SHL SUB AND PUSH1 0x1 PUSH1 0x1 PUSH1 0x40 SHL SUB PUSH2 0x1808 DUP4 ADD SWAP1 DUP2 GT SWAP1 DUP4 GT OR PUSH3 0x10FF JUMPI DUP2 SWAP1 PUSH3 0x260C DUP14 DUP16 PUSH3 0x25F5 DUP13 DUP9 SWAP3 PUSH2 0x1808 PUSH3 0x90F7 DUP10 CODECOPY PUSH1 0xE0 PUSH2 0x1808 DUP10 ADD DUP2 DUP2 MSTORE ADD SWAP2 PUSH3 0x6568 JUMP JUMPDEST SWAP2 PUSH2 0x1808 DUP7 ADD DUP4 SUB PUSH1 0x20 PUSH2 0x1808 DUP9 ADD ADD MSTORE PUSH3 0x6568 JUMP JUMPDEST SWAP1 DUP13 PUSH1 0x40 PUSH2 0x1808 DUP6 ADD ADD MSTORE ADDRESS PUSH1 0x60 PUSH2 0x1808 DUP6 ADD ADD MSTORE CALLER PUSH1 0x80 PUSH2 0x1808 DUP6 ADD ADD MSTORE PUSH1 0xA0 PUSH2 0x1808 DUP5 ADD ADD MSTORE PUSH1 0x32 PUSH1 0xC0 PUSH2 0x1808 DUP5 ADD ADD MSTORE SUB SWAP1 PUSH1 0x0 CREATE PUSH2 0x140 MSTORE PUSH2 0x140 MLOAD ISZERO PUSH3 0xF92 JUMPI PUSH1 0x2 SLOAD PUSH1 0x1 PUSH1 0x1 PUSH1 0xA0 SHL SUB AND CALLER EQ SWAP10 PUSH3 0x266C DUP12 PUSH3 0x65C4 JUMP JUMPDEST PUSH1 0x1 SLOAD PUSH1 0x3 SLOAD PUSH1 0x5 SLOAD PUSH1 0x6 SLOAD PUSH1 0x7 SLOAD PUSH1 0x8 SLOAD PUSH1 0x40 MLOAD SWAP7 SWAP16 SWAP7 SWAP6 PUSH1 0x1 PUSH1 0x1 PUSH1 0xA0 SHL SUB SWAP2 DUP3 AND SWAP6 SWAP3 SWAP5 SWAP3 SWAP2 AND PUSH1 0x1 PUSH1 0x1 PUSH1 0x40 SHL SUB PUSH2 0x2AF0 DUP9 ADD SWAP1 DUP2 GT SWAP1 DUP9 GT OR PUSH3 0x10FF JUMPI PUSH2 0x2AF0 PUSH3 0x6607 DUP9 CODECOPY PUSH2 0x140 MLOAD PUSH1 0x1 PUSH1 0x1 PUSH1 0xA0 SHL SUB SWAP1 DUP2 AND PUSH2 0x2AF0 DUP10 ADD SWAP1 DUP2 MSTORE ADDRESS PUSH1 0x20 DUP3 ADD MSTORE PUSH1 0x40 DUP2 ADD SWAP3 SWAP1 SWAP3 MSTORE PUSH1 0x60 DUP3 ADD SWAP3 SWAP1 SWAP3 MSTORE PUSH1 0x80 DUP2 ADD SWAP3 SWAP1 SWAP3 MSTORE PUSH1 0xA0 DUP3 ADD SWAP3 SWAP1 SWAP3 MSTORE PUSH1 0xC0 DUP2 ADD SWAP3 SWAP1 SWAP3 MSTORE PUSH1 0xE0 DUP3 ADD SWAP3 SWAP1 SWAP3 MSTORE SWAP1 DUP13 AND PUSH2 0x100 DUP3 ADD MSTORE DUP2 SWAP1 SUB PUSH2 0x120 ADD SWAP2 CREATE SWAP11 DUP12 ISZERO PUSH3 0xF92 JUMPI DUP11 DUP10 DUP2 MUL DIV DUP10 SUB PUSH3 0x10E9 JUMPI DUP12 PUSH3 0x2776 PUSH1 0x20 PUSH3 0x2745 DUP15 PUSH2 0x2710 DUP15 DUP3 MUL DIV SWAP1 PUSH3 0x62A6 JUMP JUMPDEST PUSH1 0x40 MLOAD PUSH4 0xA9059CBB PUSH1 0xE0 SHL DUP2 MSTORE PUSH1 0x1 PUSH1 0x1 PUSH1 0xA0 SHL SUB SWAP1 SWAP5 AND PUSH1 0x4 DUP6 ADD MSTORE PUSH1 0x24 DUP5 ADD DUP2 SWAP1 MSTORE SWAP3 SWAP2 DUP3 SWAP1 DUP2 SWAP1 PUSH1 0x44 DUP3 ADD SWAP1 JUMP JUMPDEST SUB DUP2 PUSH1 0x0 PUSH1 0x1 DUP1 PUSH1 0xA0 SHL SUB PUSH2 0x140 MLOAD AND GAS CALL SWAP1 DUP2 ISZERO PUSH3 0xF92 JUMPI PUSH1 0x0 SWAP2 PUSH3 0x3201 JUMPI JUMPDEST POP ISZERO PUSH3 0x1089 JUMPI DUP10 DUP13 PUSH2 0x2710 DUP3 DUP3 MUL DIV PUSH3 0x3183 JUMPI JUMPDEST POP POP PUSH1 0x1 PUSH1 0x1 PUSH1 0xA0 SHL SUB DUP14 AND EXTCODESIZE ISZERO PUSH3 0x8D6 JUMPI PUSH1 0x0 DUP14 PUSH1 0x24 DUP3 SWAP4 PUSH1 0x40 MLOAD SWAP5 DUP6 SWAP4 DUP5 SWAP3 PUSH4 0x95564837 PUSH1 0xE0 SHL DUP5 MSTORE PUSH1 0x4 DUP5 ADD MSTORE PUSH1 0x1 DUP1 PUSH1 0xA0 SHL SUB AND GAS CALL DUP1 ISZERO PUSH3 0xF92 JUMPI PUSH3 0x316B JUMPI JUMPDEST POP PUSH1 0x1 PUSH1 0x1 PUSH1 0xA0 SHL SUB DUP13 AND EXTCODESIZE ISZERO PUSH3 0x30A8 JUMPI PUSH1 0x40 MLOAD PUSH4 0x9485DC9 PUSH1 0xE2 SHL DUP2 MSTORE DUP13 DUP2 PUSH1 0x4 DUP2 PUSH2 0x160 MLOAD SWAP4 PUSH2 0x160 MLOAD SWAP1 PUSH1 0x1 DUP1 PUSH1 0xA0 SHL SUB AND GAS CALL DUP1 ISZERO PUSH3 0x2C58 JUMPI PUSH3 0x3150 JUMPI JUMPDEST POP PUSH1 0x4 PUSH1 0x20 DUP14 PUSH1 0x40 MLOAD SWAP3 DUP4 DUP1 SWAP3 PUSH4 0x6B456EF PUSH1 0xE2 SHL DUP3 MSTORE PUSH1 0x1 DUP1 PUSH1 0xA0 SHL SUB AND GAS STATICCALL SWAP1 DUP2 ISZERO PUSH3 0x2C58 JUMPI PUSH2 0x160 MLOAD SWAP2 PUSH3 0x312C JUMPI JUMPDEST POP PUSH1 0x1 PUSH1 0x1 PUSH1 0xA0 SHL SUB DUP2 AND PUSH3 0x30BB JUMPI JUMPDEST POP DUP1 ISZERO SWAP1 PUSH3 0x30AF JUMPI JUMPDEST PUSH3 0x303C JUMPI JUMPDEST PUSH2 0x140 MLOAD PUSH2 0x160 DUP1 MLOAD PUSH1 0x1 PUSH1 0x1 PUSH1 0xA0 SHL SUB SWAP3 DUP4 AND SWAP1 MSTORE PUSH1 0xB PUSH1 0x20 MSTORE MLOAD PUSH1 0x40 SWAP1 KECCAK256 DUP1 SLOAD PUSH1 0x1 PUSH1 0x1 PUSH1 0xA0 SHL SUB NOT AND SWAP2 DUP14 AND SWAP2 SWAP1 SWAP2 OR SWAP1 SSTORE PUSH1 0xA SLOAD SWAP12 PUSH1 0x1 PUSH1 0x40 SHL DUP14 LT ISZERO PUSH3 0x2D7F JUMPI PUSH1 0x1 DUP14 ADD PUSH1 0xA SSTORE PUSH3 0x28E9 DUP14 PUSH3 0x5FE7 JUMP JUMPDEST POP POP PUSH3 0x28F6 DUP14 PUSH3 0x5FE7 JUMP JUMPDEST POP SWAP8 PUSH1 0x1 DUP1 PUSH1 0xA0 SHL SUB PUSH2 0x140 MLOAD AND PUSH1 0x1 PUSH1 0x1 PUSH1 0x60 SHL SUB PUSH1 0xA0 SHL DUP11 SLOAD AND OR DUP10 SSTORE PUSH1 0x1 DUP10 ADD DUP14 PUSH1 0x1 DUP1 PUSH1 0xA0 SHL SUB AND PUSH1 0x1 PUSH1 0x1 PUSH1 0x60 SHL SUB PUSH1 0xA0 SHL DUP3 SLOAD AND OR SWAP1 SSTORE PUSH1 0x2 DUP10 ADD CALLER PUSH1 0x1 PUSH1 0x1 PUSH1 0x60 SHL SUB PUSH1 0xA0 SHL DUP3 SLOAD AND OR SWAP1 SSTORE PUSH1 0x1 PUSH1 0x1 PUSH1 0x40 SHL SUB DUP3 GT PUSH3 0x2D7F JUMPI DUP2 SWAP1 PUSH3 0x2969 PUSH1 0x3 DUP12 ADD SLOAD PUSH3 0x6038 JUMP JUMPDEST PUSH1 0x1F DUP2 GT PUSH3 0x2FDE JUMPI JUMPDEST POP PUSH2 0x160 MLOAD SWAP1 PUSH1 0x1F DUP4 GT PUSH1 0x1 EQ PUSH3 0x2F67 JUMPI PUSH2 0x160 MLOAD SWAP3 PUSH3 0x2F5B JUMPI JUMPDEST POP POP DUP2 PUSH1 0x1 SHL SWAP2 PUSH1 0x0 NOT SWAP1 PUSH1 0x3 SHL SHR NOT AND OR PUSH1 0x3 DUP9 ADD SSTORE JUMPDEST PUSH1 0x1 PUSH1 0x1 PUSH1 0x40 SHL SUB DUP3 GT PUSH3 0x2D7F JUMPI DUP2 SWAP1 PUSH3 0x29C8 PUSH1 0x4 DUP10 ADD SLOAD PUSH3 0x6038 JUMP JUMPDEST PUSH1 0x1F DUP2 GT PUSH3 0x2EFD JUMPI JUMPDEST POP PUSH2 0x160 MLOAD SWAP1 PUSH1 0x1F DUP4 GT PUSH1 0x1 EQ PUSH3 0x2E86 JUMPI PUSH2 0x160 MLOAD SWAP3 PUSH3 0x2E7A JUMPI JUMPDEST POP POP DUP2 PUSH1 0x1 SHL SWAP2 PUSH1 0x0 NOT SWAP1 PUSH1 0x3 SHL SHR NOT AND OR PUSH1 0x4 DUP7 ADD SSTORE JUMPDEST PUSH1 0x1 PUSH1 0x1 PUSH1 0x40 SHL SUB DUP3 GT PUSH3 0x2D7F JUMPI DUP2 SWAP1 PUSH3 0x2A27 PUSH1 0x5 DUP8 ADD SLOAD PUSH3 0x6038 JUMP JUMPDEST PUSH1 0x1F DUP2 GT PUSH3 0x2E1C JUMPI JUMPDEST POP PUSH2 0x160 MLOAD SWAP1 PUSH1 0x1F DUP4 GT PUSH1 0x1 EQ PUSH3 0x2DA5 JUMPI PUSH2 0x160 MLOAD SWAP3 PUSH3 0x2D99 JUMPI JUMPDEST POP POP DUP2 PUSH1 0x1 SHL SWAP2 PUSH1 0x0 NOT SWAP1 PUSH1 0x3 SHL SHR NOT AND OR PUSH1 0x5 DUP5 ADD SSTORE JUMPDEST PUSH1 0x1 PUSH1 0x1 PUSH1 0x40 SHL SUB DUP3 GT PUSH3 0x2D7F JUMPI DUP2 SWAP1 PUSH3 0x2A86 PUSH1 0x6 DUP6 ADD SLOAD PUSH3 0x6038 JUMP JUMPDEST PUSH1 0x1F DUP2 GT PUSH3 0x2D21 JUMPI JUMPDEST POP PUSH2 0x160 MLOAD SWAP1 PUSH1 0x1F DUP4 GT PUSH1 0x1 EQ PUSH3 0x2CAA JUMPI PUSH2 0x160 MLOAD SWAP3 PUSH3 0x2C9E JUMPI JUMPDEST POP POP DUP2 PUSH1 0x1 SHL SWAP2 PUSH1 0x0 NOT SWAP1 PUSH1 0x3 SHL SHR NOT AND OR PUSH1 0x6 DUP3 ADD SSTORE JUMPDEST DUP4 PUSH1 0x7 DUP3 ADD SSTORE PUSH2 0x2710 DUP3 DUP6 MUL DIV PUSH1 0x8 DUP3 ADD SSTORE PUSH1 0x9 TIMESTAMP SWAP2 ADD SSTORE PUSH1 0x3 SLOAD PUSH1 0x7 SLOAD SWAP1 PUSH2 0x2710 PUSH1 0x1 DUP1 PUSH1 0xA0 SHL SUB PUSH1 0x8 SLOAD AND SWAP4 PUSH1 0x40 MLOAD SWAP7 PUSH1 0x1 DUP1 PUSH1 0xA0 SHL SUB DUP10 AND DUP9 MSTORE DUP1 PUSH1 0x20 DUP10 ADD MSTORE MUL DIV PUSH1 0x40 DUP7 ADD MSTORE PUSH1 0x60 DUP6 ADD MSTORE PUSH1 0x80 DUP5 ADD MSTORE PUSH1 0xA0 DUP4 ADD MSTORE PUSH1 0x1 DUP1 PUSH1 0xA0 SHL SUB AND PUSH1 0xC0 DUP3 ADD MSTORE PUSH1 0x1 DUP1 PUSH1 0xA0 SHL SUB PUSH2 0x140 MLOAD AND SWAP1 DUP4 PUSH1 0x0 DUP1 MLOAD PUSH1 0x20 PUSH3 0xA91F DUP4 CODECOPY DUP2 MLOAD SWAP2 MSTORE PUSH1 0xE0 CALLER SWAP4 LOG4 PUSH1 0x40 MLOAD PUSH4 0x17773EBB PUSH1 0xE0 SHL DUP2 MSTORE PUSH2 0x140 MLOAD PUSH1 0x20 SWAP1 DUP3 SWAP1 PUSH1 0x4 SWAP1 DUP3 SWAP1 PUSH1 0x1 PUSH1 0x1 PUSH1 0xA0 SHL SUB AND GAS STATICCALL SWAP1 DUP2 ISZERO PUSH3 0x2C58 JUMPI PUSH2 0x160 MLOAD SWAP2 PUSH3 0x2C66 JUMPI JUMPDEST POP PUSH1 0x40 MLOAD PUSH4 0x116E689F PUSH1 0xE1 SHL DUP2 MSTORE PUSH2 0x140 MLOAD PUSH1 0x20 SWAP1 DUP3 SWAP1 PUSH1 0x4 SWAP1 DUP3 SWAP1 PUSH1 0x1 PUSH1 0x1 PUSH1 0xA0 SHL SUB AND GAS STATICCALL SWAP1 DUP2 ISZERO PUSH3 0x2C58 JUMPI PUSH2 0x160 MLOAD SWAP2 PUSH3 0x2C20 JUMPI JUMPDEST POP PUSH1 0x40 MLOAD SWAP2 PUSH1 0x32 DUP4 MSTORE PUSH1 0x20 DUP4 ADD MSTORE PUSH1 0x40 DUP3 ADD MSTORE DUP3 PUSH1 0x0 DUP1 MLOAD PUSH1 0x20 PUSH3 0xA8FF DUP4 CODECOPY DUP2 MLOAD SWAP2 MSTORE PUSH1 0x60 PUSH1 0x1 DUP1 PUSH1 0xA0 SHL SUB PUSH2 0x140 MLOAD AND SWAP4 LOG3 PUSH1 0x40 DUP1 MLOAD PUSH2 0x140 MLOAD SWAP4 DUP2 MSTORE PUSH1 0x1 PUSH1 0x1 PUSH1 0xA0 SHL SUB SWAP4 DUP5 AND PUSH1 0x20 DUP3 ADD MSTORE SWAP2 SWAP1 SWAP3 AND SWAP2 DUP2 ADD SWAP2 SWAP1 SWAP2 MSTORE PUSH1 0x60 SWAP1 RETURN JUMPDEST SWAP1 POP PUSH1 0x20 DUP2 RETURNDATASIZE PUSH1 0x20 GT PUSH3 0x2C4F JUMPI JUMPDEST DUP2 PUSH3 0x2C3E PUSH1 0x20 SWAP4 DUP4 PUSH3 0x5F74 JUMP JUMPDEST DUP2 ADD SUB SLT PUSH3 0x8D6 JUMPI MLOAD DUP5 PUSH3 0x2BC1 JUMP JUMPDEST RETURNDATASIZE SWAP2 POP PUSH3 0x2C2F JUMP JUMPDEST PUSH1 0x40 MLOAD RETURNDATASIZE PUSH2 0x160 MLOAD DUP3 RETURNDATACOPY RETURNDATASIZE SWAP1 REVERT JUMPDEST SWAP1 POP PUSH1 0x20 DUP2 RETURNDATASIZE PUSH1 0x20 GT PUSH3 0x2C95 JUMPI JUMPDEST DUP2 PUSH3 0x2C84 PUSH1 0x20 SWAP4 DUP4 PUSH3 0x5F74 JUMP JUMPDEST DUP2 ADD SUB SLT PUSH3 0x8D6 JUMPI MLOAD DUP4 PUSH3 0x2B87 JUMP JUMPDEST RETURNDATASIZE SWAP2 POP PUSH3 0x2C75 JUMP JUMPDEST ADD CALLDATALOAD SWAP1 POP DUP9 DUP1 PUSH3 0x2AAD JUMP JUMPDEST PUSH2 0x160 DUP1 MLOAD PUSH1 0x6 DUP8 ADD SWAP1 MSTORE MLOAD PUSH1 0x20 DUP2 KECCAK256 SWAP1 SWAP5 POP SWAP2 JUMPDEST PUSH1 0x1F NOT DUP5 AND DUP6 LT PUSH3 0x2D08 JUMPI PUSH1 0x1 SWAP5 POP DUP4 PUSH1 0x1F NOT DUP2 AND LT PUSH3 0x2CED JUMPI JUMPDEST POP POP POP DUP2 SHL ADD PUSH1 0x6 DUP3 ADD SSTORE PUSH3 0x2AC5 JUMP JUMPDEST ADD CALLDATALOAD PUSH1 0x0 NOT PUSH1 0x3 DUP5 SWAP1 SHL PUSH1 0xF8 AND SHR NOT AND SWAP1 SSTORE DUP9 DUP1 DUP1 PUSH3 0x2CDC JUMP JUMPDEST DUP2 DUP2 ADD CALLDATALOAD DUP4 SSTORE PUSH1 0x20 SWAP5 DUP6 ADD SWAP5 PUSH1 0x1 SWAP1 SWAP4 ADD SWAP3 ADD PUSH3 0x2CBF JUMP JUMPDEST SWAP1 SWAP2 POP PUSH1 0x6 DUP5 ADD PUSH2 0x160 MLOAD MSTORE PUSH1 0x20 PUSH2 0x160 MLOAD KECCAK256 PUSH1 0x1F DUP5 ADD PUSH1 0x5 SHR DUP2 ADD PUSH1 0x20 DUP6 LT PUSH3 0x2D77 JUMPI JUMPDEST SWAP1 DUP5 SWAP4 SWAP3 SWAP2 JUMPDEST PUSH1 0x1F DUP4 ADD PUSH1 0x5 SHR DUP3 ADD DUP2 LT PUSH3 0x2D65 JUMPI POP POP PUSH3 0x2A90 JUMP JUMPDEST PUSH2 0x160 MLOAD DUP2 SSTORE DUP6 SWAP5 POP PUSH1 0x1 ADD PUSH3 0x2D4D JUMP JUMPDEST POP DUP1 PUSH3 0x2D47 JUMP JUMPDEST PUSH4 0x4E487B71 PUSH1 0xE0 SHL PUSH2 0x160 MLOAD MSTORE PUSH1 0x41 PUSH1 0x4 MSTORE PUSH1 0x24 PUSH2 0x160 MLOAD REVERT JUMPDEST ADD CALLDATALOAD SWAP1 POP DUP11 DUP1 PUSH3 0x2A4E JUMP JUMPDEST PUSH2 0x160 DUP1 MLOAD PUSH1 0x5 DUP10 ADD SWAP1 MSTORE MLOAD PUSH1 0x20 DUP2 KECCAK256 SWAP1 SWAP5 POP SWAP2 JUMPDEST PUSH1 0x1F NOT DUP5 AND DUP6 LT PUSH3 0x2E03 JUMPI PUSH1 0x1 SWAP5 POP DUP4 PUSH1 0x1F NOT DUP2 AND LT PUSH3 0x2DE8 JUMPI JUMPDEST POP POP POP DUP2 SHL ADD PUSH1 0x5 DUP5 ADD SSTORE PUSH3 0x2A66 JUMP JUMPDEST ADD CALLDATALOAD PUSH1 0x0 NOT PUSH1 0x3 DUP5 SWAP1 SHL PUSH1 0xF8 AND SHR NOT AND SWAP1 SSTORE DUP11 DUP1 DUP1 PUSH3 0x2DD7 JUMP JUMPDEST DUP2 DUP2 ADD CALLDATALOAD DUP4 SSTORE PUSH1 0x20 SWAP5 DUP6 ADD SWAP5 PUSH1 0x1 SWAP1 SWAP4 ADD SWAP3 ADD PUSH3 0x2DBA JUMP JUMPDEST SWAP1 SWAP2 POP PUSH1 0x5 DUP7 ADD PUSH2 0x160 MLOAD MSTORE PUSH1 0x20 PUSH2 0x160 MLOAD KECCAK256 PUSH1 0x1F DUP5 ADD PUSH1 0x5 SHR DUP2 ADD PUSH1 0x20 DUP6 LT PUSH3 0x2E72 JUMPI JUMPDEST SWAP1 DUP5 SWAP4 SWAP3 SWAP2 JUMPDEST PUSH1 0x1F DUP4 ADD PUSH1 0x5 SHR DUP3 ADD DUP2 LT PUSH3 0x2E60 JUMPI POP POP PUSH3 0x2A31 JUMP JUMPDEST PUSH2 0x160 MLOAD DUP2 SSTORE DUP6 SWAP5 POP PUSH1 0x1 ADD PUSH3 0x2E48 JUMP JUMPDEST POP DUP1 PUSH3 0x2E42 JUMP JUMPDEST ADD CALLDATALOAD SWAP1 POP DUP13 DUP1 PUSH3 0x29EF JUMP JUMPDEST PUSH2 0x160 DUP1 MLOAD PUSH1 0x4 DUP12 ADD SWAP1 MSTORE MLOAD PUSH1 0x20 DUP2 KECCAK256 SWAP1 SWAP5 POP SWAP2 JUMPDEST PUSH1 0x1F NOT DUP5 AND DUP6 LT PUSH3 0x2EE4 JUMPI PUSH1 0x1 SWAP5 POP DUP4 PUSH1 0x1F NOT DUP2 AND LT PUSH3 0x2EC9 JUMPI JUMPDEST POP POP POP DUP2 SHL ADD PUSH1 0x4 DUP7 ADD SSTORE PUSH3 0x2A07 JUMP JUMPDEST ADD CALLDATALOAD PUSH1 0x0 NOT PUSH1 0x3 DUP5 SWAP1 SHL PUSH1 0xF8 AND SHR NOT AND SWAP1 SSTORE DUP13 DUP1 DUP1 PUSH3 0x2EB8 JUMP JUMPDEST DUP2 DUP2 ADD CALLDATALOAD DUP4 SSTORE PUSH1 0x20 SWAP5 DUP6 ADD SWAP5 PUSH1 0x1 SWAP1 SWAP4 ADD SWAP3 ADD PUSH3 0x2E9B JUMP JUMPDEST SWAP1 SWAP2 POP PUSH1 0x4 DUP9 ADD PUSH2 0x160 MLOAD MSTORE PUSH1 0x20 PUSH2 0x160 MLOAD KECCAK256 PUSH1 0x1F DUP5 ADD PUSH1 0x5 SHR DUP2 ADD PUSH1 0x20 DUP6 LT PUSH3 0x2F53 JUMPI JUMPDEST SWAP1 DUP5 SWAP4 SWAP3 SWAP2 JUMPDEST PUSH1 0x1F DUP4 ADD PUSH1 0x5 SHR DUP3 ADD DUP2 LT PUSH3 0x2F41 JUMPI POP POP PUSH3 0x29D2 JUMP JUMPDEST PUSH2 0x160 MLOAD DUP2 SSTORE DUP6 SWAP5 POP PUSH1 0x1 ADD PUSH3 0x2F29 JUMP JUMPDEST POP DUP1 PUSH3 0x2F23 JUMP JUMPDEST ADD CALLDATALOAD SWAP1 POP DUP15 DUP1 PUSH3 0x2990 JUMP JUMPDEST PUSH2 0x160 DUP1 MLOAD PUSH1 0x3 DUP14 ADD SWAP1 MSTORE MLOAD PUSH1 0x20 DUP2 KECCAK256 SWAP1 SWAP5 POP SWAP2 JUMPDEST PUSH1 0x1F NOT DUP5 AND DUP6 LT PUSH3 0x2FC5 JUMPI PUSH1 0x1 SWAP5 POP DUP4 PUSH1 0x1F NOT DUP2 AND LT PUSH3 0x2FAA JUMPI JUMPDEST POP POP POP DUP2 SHL ADD PUSH1 0x3 DUP9 ADD SSTORE PUSH3 0x29A8 JUMP JUMPDEST ADD CALLDATALOAD PUSH1 0x0 NOT PUSH1 0x3 DUP5 SWAP1 SHL PUSH1 0xF8 AND SHR NOT AND SWAP1 SSTORE DUP15 DUP1 DUP1 PUSH3 0x2F99 JUMP JUMPDEST DUP2 DUP2 ADD CALLDATALOAD DUP4 SSTORE PUSH1 0x20 SWAP5 DUP6 ADD SWAP5 PUSH1 0x1 SWAP1 SWAP4 ADD SWAP3 ADD PUSH3 0x2F7C JUMP JUMPDEST SWAP1 SWAP2 POP PUSH1 0x3 DUP11 ADD PUSH2 0x160 MLOAD MSTORE PUSH1 0x20 PUSH2 0x160 MLOAD KECCAK256 PUSH1 0x1F DUP5 ADD PUSH1 0x5 SHR DUP2 ADD PUSH1 0x20 DUP6 LT PUSH3 0x3034 JUMPI JUMPDEST SWAP1 DUP5 SWAP4 SWAP3 SWAP2 JUMPDEST PUSH1 0x1F DUP4 ADD PUSH1 0x5 SHR DUP3 ADD DUP2 LT PUSH3 0x3022 JUMPI POP POP PUSH3 0x2973 JUMP JUMPDEST PUSH2 0x160 MLOAD DUP2 SSTORE DUP6 SWAP5 POP PUSH1 0x1 ADD PUSH3 0x300A JUMP JUMPDEST POP DUP1 PUSH3 0x3004 JUMP JUMPDEST PUSH2 0x140 MLOAD PUSH1 0x1 PUSH1 0x1 PUSH1 0xA0 SHL SUB AND EXTCODESIZE ISZERO PUSH3 0x30A8 JUMPI PUSH1 0x40 MLOAD PUSH4 0x6E258E07 PUSH1 0xE1 SHL DUP2 MSTORE PUSH2 0x160 MLOAD PUSH2 0x140 MLOAD DUP3 SWAP1 PUSH1 0x4 SWAP1 DUP3 SWAP1 DUP5 SWAP1 PUSH1 0x1 PUSH1 0x1 PUSH1 0xA0 SHL SUB AND GAS CALL DUP1 ISZERO PUSH3 0x2C58 JUMPI PUSH3 0x308D JUMPI JUMPDEST POP PUSH3 0x2891 JUMP JUMPDEST PUSH3 0x3098 SWAP1 PUSH3 0x5F60 JUMP JUMPDEST PUSH2 0x160 MLOAD PUSH3 0x30A8 JUMPI DUP13 PUSH3 0x3086 JUMP JUMPDEST PUSH2 0x160 MLOAD DUP1 REVERT JUMPDEST POP PUSH2 0x1237 CHAINID EQ PUSH3 0x288B JUMP JUMPDEST PUSH2 0x140 MLOAD PUSH1 0x1 PUSH1 0x1 PUSH1 0xA0 SHL SUB AND EXTCODESIZE ISZERO PUSH3 0x30A8 JUMPI PUSH1 0x40 MLOAD PUSH4 0x15C6DEB9 PUSH1 0xE3 SHL DUP2 MSTORE PUSH1 0x1 PUSH1 0x1 PUSH1 0xA0 SHL SUB SWAP2 DUP3 AND PUSH1 0x4 DUP3 ADD MSTORE PUSH2 0x160 MLOAD PUSH2 0x140 MLOAD SWAP2 SWAP3 SWAP1 SWAP2 DUP4 SWAP2 PUSH1 0x24 SWAP2 DUP4 SWAP2 DUP6 SWAP2 AND GAS CALL DUP1 ISZERO PUSH3 0x2C58 JUMPI ISZERO PUSH3 0x2881 JUMPI PUSH3 0x311C SWAP1 PUSH3 0x5F60 JUMP JUMPDEST PUSH2 0x160 MLOAD PUSH3 0x30A8 JUMPI DUP14 PUSH3 0x2881 JUMP JUMPDEST PUSH3 0x3149 SWAP2 POP PUSH1 0x20 RETURNDATASIZE PUSH1 0x20 GT PUSH3 0xDCC JUMPI PUSH3 0xDBC DUP2 DUP4 PUSH3 0x5F74 JUMP JUMPDEST DUP15 PUSH3 0x2870 JUMP JUMPDEST PUSH3 0x315B SWAP1 PUSH3 0x5F60 JUMP JUMPDEST PUSH2 0x160 MLOAD PUSH3 0x30A8 JUMPI DUP14 PUSH3 0x283C JUMP JUMPDEST PUSH3 0x3176 SWAP1 PUSH3 0x5F60 JUMP JUMPDEST PUSH1 0x0 PUSH2 0x160 MSTORE DUP14 PUSH3 0x27F7 JUMP JUMPDEST PUSH1 0x40 MLOAD PUSH4 0xA9059CBB PUSH1 0xE0 SHL DUP2 MSTORE CALLER PUSH1 0x4 DUP3 ADD MSTORE PUSH2 0x2710 SWAP2 SWAP1 SWAP3 MUL DIV PUSH1 0x24 DUP3 ADD MSTORE PUSH1 0x20 DUP2 DUP1 PUSH1 0x44 DUP2 ADD SUB DUP2 PUSH1 0x0 PUSH1 0x1 DUP1 PUSH1 0xA0 SHL SUB PUSH2 0x140 MLOAD AND GAS CALL SWAP1 DUP2 ISZERO PUSH3 0xF92 JUMPI PUSH1 0x0 SWAP2 PUSH3 0x31DD JUMPI JUMPDEST POP ISZERO PUSH3 0x100E JUMPI DUP10 DUP13 PUSH3 0x27AF JUMP JUMPDEST PUSH3 0x31FA SWAP2 POP PUSH1 0x20 RETURNDATASIZE PUSH1 0x20 GT PUSH3 0x1081 JUMPI PUSH3 0x1071 DUP2 DUP4 PUSH3 0x5F74 JUMP JUMPDEST DUP16 PUSH3 0x31CE JUMP JUMPDEST PUSH3 0x321E SWAP2 POP PUSH1 0x20 RETURNDATASIZE PUSH1 0x20 GT PUSH3 0x1081 JUMPI PUSH3 0x1071 DUP2 DUP4 PUSH3 0x5F74 JUMP JUMPDEST DUP16 PUSH3 0x2799 JUMP JUMPDEST CALLVALUE PUSH3 0x8D6 JUMPI PUSH1 0x0 CALLDATASIZE PUSH1 0x3 NOT ADD SLT PUSH3 0x8D6 JUMPI PUSH1 0x20 PUSH1 0x6 SLOAD PUSH1 0x40 MLOAD SWAP1 DUP2 MSTORE RETURN JUMPDEST CALLVALUE PUSH3 0x8D6 JUMPI PUSH1 0x0 CALLDATASIZE PUSH1 0x3 NOT ADD SLT PUSH3 0x8D6 JUMPI PUSH1 0x0 SLOAD PUSH1 0x40 MLOAD PUSH1 0x1 PUSH1 0x1 PUSH1 0xA0 SHL SUB SWAP1 SWAP2 AND DUP2 MSTORE PUSH1 0x20 SWAP1 RETURN JUMPDEST CALLVALUE PUSH3 0x8D6 JUMPI PUSH1 0x0 CALLDATASIZE PUSH1 0x3 NOT ADD SLT PUSH3 0x8D6 JUMPI PUSH1 0x20 PUSH1 0x4 SLOAD PUSH1 0x40 MLOAD SWAP1 DUP2 MSTORE RETURN JUMPDEST CALLVALUE PUSH3 0x8D6 JUMPI PUSH1 0x0 CALLDATASIZE PUSH1 0x3 NOT ADD SLT PUSH3 0x8D6 JUMPI PUSH1 0x20 PUSH1 0x40 MLOAD PUSH2 0x1237 DUP2 MSTORE RETURN JUMPDEST CALLVALUE PUSH3 0x8D6 JUMPI PUSH1 0x0 CALLDATASIZE PUSH1 0x3 NOT ADD SLT PUSH3 0x8D6 JUMPI PUSH1 0x20 PUSH1 0x7 SLOAD PUSH1 0x40 MLOAD SWAP1 DUP2 MSTORE RETURN JUMPDEST PUSH3 0x32DA CALLDATASIZE PUSH3 0x5CE7 JUMP JUMPDEST SWAP5 PUSH3 0x32FB PUSH1 0x1 DUP1 PUSH1 0xA0 SWAP13 SWAP8 SWAP5 SWAP11 SWAP12 SWAP13 SWAP7 SWAP6 SWAP7 SHL SUB PUSH1 0x8 SLOAD AND ISZERO ISZERO PUSH3 0x61C8 JUMP JUMPDEST PUSH1 0x9 SLOAD PUSH3 0x3314 SWAP1 PUSH1 0x1 PUSH1 0x1 PUSH1 0xA0 SHL SUB AND ISZERO ISZERO PUSH3 0x620A JUMP JUMPDEST PUSH3 0x3328 PUSH1 0x4 SLOAD PUSH3 0x1C6 DUP2 CALLVALUE GT PUSH3 0x624E JUMP JUMPDEST SWAP7 PUSH3 0x3333 PUSH3 0x6422 JUMP JUMPDEST PUSH1 0x40 MLOAD DUP9 DUP2 MSTORE PUSH32 0xB610EA5B60C2E916119AD74EB6F1C4E02B296189E982F615F38630738BE97865 PUSH1 0x20 CALLER SWAP3 LOG2 PUSH1 0x0 PUSH2 0x1C0 MSTORE DUP11 ISZERO PUSH3 0x11F8 JUMPI DUP1 ISZERO PUSH3 0x11C1 JUMPI DUP9 ISZERO PUSH3 0x118A JUMPI PUSH2 0x7D0 DUP8 GT PUSH3 0x114F JUMPI PUSH1 0x0 PUSH2 0x1C0 MSTORE PUSH1 0x2 SLOAD PUSH1 0x40 MLOAD SWAP1 PUSH1 0x1 PUSH1 0x1 PUSH1 0xA0 SHL SUB AND PUSH1 0x1 PUSH1 0x1 PUSH1 0x40 SHL SUB PUSH2 0x1808 DUP4 ADD SWAP1 DUP2 GT SWAP1 DUP4 GT OR PUSH3 0x10FF JUMPI DUP2 SWAP1 PUSH3 0x33DD DUP14 DUP16 PUSH3 0x25F5 DUP13 DUP9 SWAP3 PUSH2 0x1808 PUSH3 0x90F7 DUP10 CODECOPY PUSH1 0xE0 PUSH2 0x1808 DUP10 ADD DUP2 DUP2 MSTORE ADD SWAP2 PUSH3 0x6568 JUMP JUMPDEST SWAP1 DUP13 PUSH1 0x40 PUSH2 0x1808 DUP6 ADD ADD MSTORE ADDRESS PUSH1 0x60 PUSH2 0x1808 DUP6 ADD ADD MSTORE CALLER PUSH1 0x80 PUSH2 0x1808 DUP6 ADD ADD MSTORE PUSH1 0xA0 PUSH2 0x1808 DUP5 ADD ADD MSTORE PUSH1 0x32 PUSH1 0xC0 PUSH2 0x1808 DUP5 ADD ADD MSTORE SUB SWAP1 PUSH1 0x0 CREATE PUSH2 0x180 MSTORE PUSH2 0x180 MLOAD ISZERO PUSH3 0xF92 JUMPI PUSH1 0x2 SLOAD PUSH1 0x1 PUSH1 0x1 PUSH1 0xA0 SHL SUB AND CALLER EQ SWAP10 PUSH3 0x343D DUP12 PUSH3 0x65C4 JUMP JUMPDEST PUSH1 0x1 SLOAD PUSH1 0x3 SLOAD PUSH1 0x5 SLOAD PUSH1 0x6 SLOAD PUSH1 0x7 SLOAD PUSH1 0x8 SLOAD PUSH1 0x40 MLOAD SWAP7 SWAP16 SWAP7 SWAP6 PUSH1 0x1 PUSH1 0x1 PUSH1 0xA0 SHL SUB SWAP2 DUP3 AND SWAP6 SWAP3 SWAP5 SWAP3 SWAP2 AND PUSH1 0x1 PUSH1 0x1 PUSH1 0x40 SHL SUB PUSH2 0x2AF0 DUP9 ADD SWAP1 DUP2 GT SWAP1 DUP9 GT OR PUSH3 0x10FF JUMPI PUSH2 0x2AF0 PUSH3 0x6607 DUP9 CODECOPY PUSH2 0x180 MLOAD PUSH1 0x1 PUSH1 0x1 PUSH1 0xA0 SHL SUB SWAP1 DUP2 AND PUSH2 0x2AF0 DUP10 ADD SWAP1 DUP2 MSTORE ADDRESS PUSH1 0x20 DUP3 ADD MSTORE PUSH1 0x40 DUP2 ADD SWAP3 SWAP1 SWAP3 MSTORE PUSH1 0x60 DUP3 ADD SWAP3 SWAP1 SWAP3 MSTORE PUSH1 0x80 DUP2 ADD SWAP3 SWAP1 SWAP3 MSTORE PUSH1 0xA0 DUP3 ADD SWAP3 SWAP1 SWAP3 MSTORE PUSH1 0xC0 DUP2 ADD SWAP3 SWAP1 SWAP3 MSTORE PUSH1 0xE0 DUP3 ADD SWAP3 SWAP1 SWAP3 MSTORE SWAP1 DUP13 AND PUSH2 0x100 DUP3 ADD MSTORE DUP2 SWAP1 SUB PUSH2 0x120 ADD SWAP2 CREATE SWAP11 DUP12 ISZERO PUSH3 0xF92 JUMPI DUP11 DUP10 DUP2 MUL DIV DUP10 SUB PUSH3 0x10E9 JUMPI DUP12 PUSH3 0x3516 PUSH1 0x20 PUSH3 0x2745 DUP15 PUSH2 0x2710 DUP15 DUP3 MUL DIV SWAP1 PUSH3 0x62A6 JUMP JUMPDEST SUB DUP2 PUSH1 0x0 PUSH1 0x1 DUP1 PUSH1 0xA0 SHL SUB PUSH2 0x180 MLOAD AND GAS CALL SWAP1 DUP2 ISZERO PUSH3 0xF92 JUMPI PUSH1 0x0 SWAP2 PUSH3 0x4148 JUMPI JUMPDEST POP ISZERO PUSH3 0x1089 JUMPI DUP10 DUP13 PUSH2 0x2710 DUP3 DUP3 MUL DIV PUSH3 0x40CA JUMPI JUMPDEST POP POP PUSH1 0x1 PUSH1 0x1 PUSH1 0xA0 SHL SUB DUP14 AND EXTCODESIZE ISZERO PUSH3 0x8D6 JUMPI PUSH1 0x0 DUP14 PUSH1 0x24 DUP3 SWAP4 PUSH1 0x40 MLOAD SWAP5 DUP6 SWAP4 DUP5 SWAP3 PUSH4 0x95564837 PUSH1 0xE0 SHL DUP5 MSTORE PUSH1 0x4 DUP5 ADD MSTORE PUSH1 0x1 DUP1 PUSH1 0xA0 SHL SUB AND GAS CALL DUP1 ISZERO PUSH3 0xF92 JUMPI PUSH3 0x40B2 JUMPI JUMPDEST POP PUSH2 0x1C0 MLOAD ISZERO PUSH3 0x3F15 JUMPI PUSH1 0x1 PUSH1 0x1 PUSH1 0xA0 SHL SUB DUP13 AND EXTCODESIZE ISZERO PUSH3 0x3E52 JUMPI PUSH1 0x40 MLOAD PUSH4 0x9485DC9 PUSH1 0xE2 SHL DUP2 MSTORE DUP13 DUP2 PUSH1 0x4 DUP2 PUSH2 0x1C0 MLOAD SWAP4 PUSH2 0x1C0 MLOAD SWAP1 PUSH1 0x1 DUP1 PUSH1 0xA0 SHL SUB AND GAS CALL DUP1 ISZERO PUSH3 0x3A02 JUMPI PUSH3 0x3EFA JUMPI JUMPDEST POP PUSH1 0x4 PUSH1 0x20 DUP14 PUSH1 0x40 MLOAD SWAP3 DUP4 DUP1 SWAP3 PUSH4 0x6B456EF PUSH1 0xE2 SHL DUP3 MSTORE PUSH1 0x1 DUP1 PUSH1 0xA0 SHL SUB AND GAS STATICCALL SWAP1 DUP2 ISZERO PUSH3 0x3A02 JUMPI PUSH2 0x1C0 MLOAD SWAP2 PUSH3 0x3ED6 JUMPI JUMPDEST POP PUSH1 0x1 PUSH1 0x1 PUSH1 0xA0 SHL SUB DUP2 AND PUSH3 0x3E65 JUMPI JUMPDEST POP DUP1 ISZERO SWAP1 PUSH3 0x3E59 JUMPI JUMPDEST PUSH3 0x3DE6 JUMPI JUMPDEST PUSH2 0x180 MLOAD PUSH2 0x1C0 DUP1 MLOAD PUSH1 0x1 PUSH1 0x1 PUSH1 0xA0 SHL SUB SWAP3 DUP4 AND SWAP1 MSTORE PUSH1 0xB PUSH1 0x20 MSTORE MLOAD PUSH1 0x40 SWAP1 KECCAK256 DUP1 SLOAD PUSH1 0x1 PUSH1 0x1 PUSH1 0xA0 SHL SUB NOT AND SWAP2 DUP14 AND SWAP2 SWAP1 SWAP2 OR SWAP1 SSTORE PUSH1 0xA SLOAD SWAP12 PUSH1 0x1 PUSH1 0x40 SHL DUP14 LT ISZERO PUSH3 0x3B29 JUMPI PUSH1 0x1 DUP14 ADD PUSH1 0xA SSTORE PUSH3 0x3693 DUP14 PUSH3 0x5FE7 JUMP JUMPDEST POP POP PUSH3 0x36A0 DUP14 PUSH3 0x5FE7 JUMP JUMPDEST POP SWAP8 PUSH1 0x1 DUP1 PUSH1 0xA0 SHL SUB PUSH2 0x180 MLOAD AND PUSH1 0x1 PUSH1 0x1 PUSH1 0x60 SHL SUB PUSH1 0xA0 SHL DUP11 SLOAD AND OR DUP10 SSTORE PUSH1 0x1 DUP10 ADD DUP14 PUSH1 0x1 DUP1 PUSH1 0xA0 SHL SUB AND PUSH1 0x1 PUSH1 0x1 PUSH1 0x60 SHL SUB PUSH1 0xA0 SHL DUP3 SLOAD AND OR SWAP1 SSTORE PUSH1 0x2 DUP10 ADD CALLER PUSH1 0x1 PUSH1 0x1 PUSH1 0x60 SHL SUB PUSH1 0xA0 SHL DUP3 SLOAD AND OR SWAP1 SSTORE PUSH1 0x1 PUSH1 0x1 PUSH1 0x40 SHL SUB DUP3 GT PUSH3 0x3B29 JUMPI DUP2 SWAP1 PUSH3 0x3713 PUSH1 0x3 DUP12 ADD SLOAD PUSH3 0x6038 JUMP JUMPDEST PUSH1 0x1F DUP2 GT PUSH3 0x3D88 JUMPI JUMPDEST POP PUSH2 0x1C0 MLOAD SWAP1 PUSH1 0x1F DUP4 GT PUSH1 0x1 EQ PUSH3 0x3D11 JUMPI PUSH2 0x1C0 MLOAD SWAP3 PUSH3 0x3D05 JUMPI JUMPDEST POP POP DUP2 PUSH1 0x1 SHL SWAP2 PUSH1 0x0 NOT SWAP1 PUSH1 0x3 SHL SHR NOT AND OR PUSH1 0x3 DUP9 ADD SSTORE JUMPDEST PUSH1 0x1 PUSH1 0x1 PUSH1 0x40 SHL SUB DUP3 GT PUSH3 0x3B29 JUMPI DUP2 SWAP1 PUSH3 0x3772 PUSH1 0x4 DUP10 ADD SLOAD PUSH3 0x6038 JUMP JUMPDEST PUSH1 0x1F DUP2 GT PUSH3 0x3CA7 JUMPI JUMPDEST POP PUSH2 0x1C0 MLOAD SWAP1 PUSH1 0x1F DUP4 GT PUSH1 0x1 EQ PUSH3 0x3C30 JUMPI PUSH2 0x1C0 MLOAD SWAP3 PUSH3 0x3C24 JUMPI JUMPDEST POP POP DUP2 PUSH1 0x1 SHL SWAP2 PUSH1 0x0 NOT SWAP1 PUSH1 0x3 SHL SHR NOT AND OR PUSH1 0x4 DUP7 ADD SSTORE JUMPDEST PUSH1 0x1 PUSH1 0x1 PUSH1 0x40 SHL SUB DUP3 GT PUSH3 0x3B29 JUMPI DUP2 SWAP1 PUSH3 0x37D1 PUSH1 0x5 DUP8 ADD SLOAD PUSH3 0x6038 JUMP JUMPDEST PUSH1 0x1F DUP2 GT PUSH3 0x3BC6 JUMPI JUMPDEST POP PUSH2 0x1C0 MLOAD SWAP1 PUSH1 0x1F DUP4 GT PUSH1 0x1 EQ PUSH3 0x3B4F JUMPI PUSH2 0x1C0 MLOAD SWAP3 PUSH3 0x3B43 JUMPI JUMPDEST POP POP DUP2 PUSH1 0x1 SHL SWAP2 PUSH1 0x0 NOT SWAP1 PUSH1 0x3 SHL SHR NOT AND OR PUSH1 0x5 DUP5 ADD SSTORE JUMPDEST PUSH1 0x1 PUSH1 0x1 PUSH1 0x40 SHL SUB DUP3 GT PUSH3 0x3B29 JUMPI DUP2 SWAP1 PUSH3 0x3830 PUSH1 0x6 DUP6 ADD SLOAD PUSH3 0x6038 JUMP JUMPDEST PUSH1 0x1F DUP2 GT PUSH3 0x3ACB JUMPI JUMPDEST POP PUSH2 0x1C0 MLOAD SWAP1 PUSH1 0x1F DUP4 GT PUSH1 0x1 EQ PUSH3 0x3A54 JUMPI PUSH2 0x1C0 MLOAD SWAP3 PUSH3 0x3A48 JUMPI JUMPDEST POP POP DUP2 PUSH1 0x1 SHL SWAP2 PUSH1 0x0 NOT SWAP1 PUSH1 0x3 SHL SHR NOT AND OR PUSH1 0x6 DUP3 ADD SSTORE JUMPDEST DUP4 PUSH1 0x7 DUP3 ADD SSTORE PUSH2 0x2710 DUP3 DUP6 MUL DIV PUSH1 0x8 DUP3 ADD SSTORE PUSH1 0x9 TIMESTAMP SWAP2 ADD SSTORE PUSH1 0x3 SLOAD PUSH1 0x7 SLOAD SWAP1 PUSH2 0x2710 PUSH1 0x1 DUP1 PUSH1 0xA0 SHL SUB PUSH1 0x8 SLOAD AND SWAP4 PUSH1 0x40 MLOAD SWAP7 PUSH1 0x1 DUP1 PUSH1 0xA0 SHL SUB DUP10 AND DUP9 MSTORE DUP1 PUSH1 0x20 DUP10 ADD MSTORE MUL DIV PUSH1 0x40 DUP7 ADD MSTORE PUSH1 0x60 DUP6 ADD MSTORE PUSH1 0x80 DUP5 ADD MSTORE PUSH1 0xA0 DUP4 ADD MSTORE PUSH1 0x1 DUP1 PUSH1 0xA0 SHL SUB AND PUSH1 0xC0 DUP3 ADD MSTORE PUSH1 0x1 DUP1 PUSH1 0xA0 SHL SUB PUSH2 0x180 MLOAD AND SWAP1 DUP4 PUSH1 0x0 DUP1 MLOAD PUSH1 0x20 PUSH3 0xA91F DUP4 CODECOPY DUP2 MLOAD SWAP2 MSTORE PUSH1 0xE0 CALLER SWAP4 LOG4 PUSH1 0x40 MLOAD PUSH4 0x17773EBB PUSH1 0xE0 SHL DUP2 MSTORE PUSH2 0x180 MLOAD PUSH1 0x20 SWAP1 DUP3 SWAP1 PUSH1 0x4 SWAP1 DUP3 SWAP1 PUSH1 0x1 PUSH1 0x1 PUSH1 0xA0 SHL SUB AND GAS STATICCALL SWAP1 DUP2 ISZERO PUSH3 0x3A02 JUMPI PUSH2 0x1C0 MLOAD SWAP2 PUSH3 0x3A10 JUMPI JUMPDEST POP PUSH1 0x40 MLOAD PUSH4 0x116E689F PUSH1 0xE1 SHL DUP2 MSTORE PUSH2 0x180 MLOAD PUSH1 0x20 SWAP1 DUP3 SWAP1 PUSH1 0x4 SWAP1 DUP3 SWAP1 PUSH1 0x1 PUSH1 0x1 PUSH1 0xA0 SHL SUB AND GAS STATICCALL SWAP1 DUP2 ISZERO PUSH3 0x3A02 JUMPI PUSH2 0x1C0 MLOAD SWAP2 PUSH3 0x39CA JUMPI JUMPDEST POP PUSH1 0x40 MLOAD SWAP2 PUSH1 0x32 DUP4 MSTORE PUSH1 0x20 DUP4 ADD MSTORE PUSH1 0x40 DUP3 ADD MSTORE DUP3 PUSH1 0x0 DUP1 MLOAD PUSH1 0x20 PUSH3 0xA8FF DUP4 CODECOPY DUP2 MLOAD SWAP2 MSTORE PUSH1 0x60 PUSH1 0x1 DUP1 PUSH1 0xA0 SHL SUB PUSH2 0x180 MLOAD AND SWAP4 LOG3 PUSH1 0x40 DUP1 MLOAD PUSH2 0x180 MLOAD SWAP4 DUP2 MSTORE PUSH1 0x1 PUSH1 0x1 PUSH1 0xA0 SHL SUB SWAP4 DUP5 AND PUSH1 0x20 DUP3 ADD MSTORE SWAP2 SWAP1 SWAP3 AND SWAP2 DUP2 ADD SWAP2 SWAP1 SWAP2 MSTORE PUSH1 0x60 SWAP1 RETURN JUMPDEST SWAP1 POP PUSH1 0x20 DUP2 RETURNDATASIZE PUSH1 0x20 GT PUSH3 0x39F9 JUMPI JUMPDEST DUP2 PUSH3 0x39E8 PUSH1 0x20 SWAP4 DUP4 PUSH3 0x5F74 JUMP JUMPDEST DUP2 ADD SUB SLT PUSH3 0x8D6 JUMPI MLOAD DUP5 PUSH3 0x396B JUMP JUMPDEST RETURNDATASIZE SWAP2 POP PUSH3 0x39D9 JUMP JUMPDEST PUSH1 0x40 MLOAD RETURNDATASIZE PUSH2 0x1C0 MLOAD DUP3 RETURNDATACOPY RETURNDATASIZE SWAP1 REVERT JUMPDEST SWAP1 POP PUSH1 0x20 DUP2 RETURNDATASIZE PUSH1 0x20 GT PUSH3 0x3A3F JUMPI JUMPDEST DUP2 PUSH3 0x3A2E PUSH1 0x20 SWAP4 DUP4 PUSH3 0x5F74 JUMP JUMPDEST DUP2 ADD SUB SLT PUSH3 0x8D6 JUMPI MLOAD DUP4 PUSH3 0x3931 JUMP JUMPDEST RETURNDATASIZE SWAP2 POP PUSH3 0x3A1F JUMP JUMPDEST ADD CALLDATALOAD SWAP1 POP DUP9 DUP1 PUSH3 0x3857 JUMP JUMPDEST PUSH2 0x1C0 DUP1 MLOAD PUSH1 0x6 DUP8 ADD SWAP1 MSTORE MLOAD PUSH1 0x20 DUP2 KECCAK256 SWAP1 SWAP5 POP SWAP2 JUMPDEST PUSH1 0x1F NOT DUP5 AND DUP6 LT PUSH3 0x3AB2 JUMPI PUSH1 0x1 SWAP5 POP DUP4 PUSH1 0x1F NOT DUP2 AND LT PUSH3 0x3A97 JUMPI JUMPDEST POP POP POP DUP2 SHL ADD PUSH1 0x6 DUP3 ADD SSTORE PUSH3 0x386F JUMP JUMPDEST ADD CALLDATALOAD PUSH1 0x0 NOT PUSH1 0x3 DUP5 SWAP1 SHL PUSH1 0xF8 AND SHR NOT AND SWAP1 SSTORE DUP9 DUP1 DUP1 PUSH3 0x3A86 JUMP JUMPDEST DUP2 DUP2 ADD CALLDATALOAD DUP4 SSTORE PUSH1 0x20 SWAP5 DUP6 ADD SWAP5 PUSH1 0x1 SWAP1 SWAP4 ADD SWAP3 ADD PUSH3 0x3A69 JUMP JUMPDEST SWAP1 SWAP2 POP PUSH1 0x6 DUP5 ADD PUSH2 0x1C0 MLOAD MSTORE PUSH1 0x20 PUSH2 0x1C0 MLOAD KECCAK256 PUSH1 0x1F DUP5 ADD PUSH1 0x5 SHR DUP2 ADD PUSH1 0x20 DUP6 LT PUSH3 0x3B21 JUMPI JUMPDEST SWAP1 DUP5 SWAP4 SWAP3 SWAP2 JUMPDEST PUSH1 0x1F DUP4 ADD PUSH1 0x5 SHR DUP3 ADD DUP2 LT PUSH3 0x3B0F JUMPI POP POP PUSH3 0x383A JUMP JUMPDEST PUSH2 0x1C0 MLOAD DUP2 SSTORE DUP6 SWAP5 POP PUSH1 0x1 ADD PUSH3 0x3AF7 JUMP JUMPDEST POP DUP1 PUSH3 0x3AF1 JUMP JUMPDEST PUSH4 0x4E487B71 PUSH1 0xE0 SHL PUSH2 0x1C0 MLOAD MSTORE PUSH1 0x41 PUSH1 0x4 MSTORE PUSH1 0x24 PUSH2 0x1C0 MLOAD REVERT JUMPDEST ADD CALLDATALOAD SWAP1 POP DUP11 DUP1 PUSH3 0x37F8 JUMP JUMPDEST PUSH2 0x1C0 DUP1 MLOAD PUSH1 0x5 DUP10 ADD SWAP1 MSTORE MLOAD PUSH1 0x20 DUP2 KECCAK256 SWAP1 SWAP5 POP SWAP2 JUMPDEST PUSH1 0x1F NOT DUP5 AND DUP6 LT PUSH3 0x3BAD JUMPI PUSH1 0x1 SWAP5 POP DUP4 PUSH1 0x1F NOT DUP2 AND LT PUSH3 0x3B92 JUMPI JUMPDEST POP POP POP DUP2 SHL ADD PUSH1 0x5 DUP5 ADD SSTORE PUSH3 0x3810 JUMP JUMPDEST ADD CALLDATALOAD PUSH1 0x0 NOT PUSH1 0x3 DUP5 SWAP1 SHL PUSH1 0xF8 AND SHR NOT AND SWAP1 SSTORE DUP11 DUP1 DUP1 PUSH3 0x3B81 JUMP JUMPDEST DUP2 DUP2 ADD CALLDATALOAD DUP4 SSTORE PUSH1 0x20 SWAP5 DUP6 ADD SWAP5 PUSH1 0x1 SWAP1 SWAP4 ADD SWAP3 ADD PUSH3 0x3B64 JUMP JUMPDEST SWAP1 SWAP2 POP PUSH1 0x5 DUP7 ADD PUSH2 0x1C0 MLOAD MSTORE PUSH1 0x20 PUSH2 0x1C0 MLOAD KECCAK256 PUSH1 0x1F DUP5 ADD PUSH1 0x5 SHR DUP2 ADD PUSH1 0x20 DUP6 LT PUSH3 0x3C1C JUMPI JUMPDEST SWAP1 DUP5 SWAP4 SWAP3 SWAP2 JUMPDEST PUSH1 0x1F DUP4 ADD PUSH1 0x5 SHR DUP3 ADD DUP2 LT PUSH3 0x3C0A JUMPI POP POP PUSH3 0x37DB JUMP JUMPDEST PUSH2 0x1C0 MLOAD DUP2 SSTORE DUP6 SWAP5 POP PUSH1 0x1 ADD PUSH3 0x3BF2 JUMP JUMPDEST POP DUP1 PUSH3 0x3BEC JUMP JUMPDEST ADD CALLDATALOAD SWAP1 POP DUP13 DUP1 PUSH3 0x3799 JUMP JUMPDEST PUSH2 0x1C0 DUP1 MLOAD PUSH1 0x4 DUP12 ADD SWAP1 MSTORE MLOAD PUSH1 0x20 DUP2 KECCAK256 SWAP1 SWAP5 POP SWAP2 JUMPDEST PUSH1 0x1F NOT DUP5 AND DUP6 LT PUSH3 0x3C8E JUMPI PUSH1 0x1 SWAP5 POP DUP4 PUSH1 0x1F NOT DUP2 AND LT PUSH3 0x3C73 JUMPI JUMPDEST POP POP POP DUP2 SHL ADD PUSH1 0x4 DUP7 ADD SSTORE PUSH3 0x37B1 JUMP JUMPDEST ADD CALLDATALOAD PUSH1 0x0 NOT PUSH1 0x3 DUP5 SWAP1 SHL PUSH1 0xF8 AND SHR NOT AND SWAP1 SSTORE DUP13 DUP1 DUP1 PUSH3 0x3C62 JUMP JUMPDEST DUP2 DUP2 ADD CALLDATALOAD DUP4 SSTORE PUSH1 0x20 SWAP5 DUP6 ADD SWAP5 PUSH1 0x1 SWAP1 SWAP4 ADD SWAP3 ADD PUSH3 0x3C45 JUMP JUMPDEST SWAP1 SWAP2 POP PUSH1 0x4 DUP9 ADD PUSH2 0x1C0 MLOAD MSTORE PUSH1 0x20 PUSH2 0x1C0 MLOAD KECCAK256 PUSH1 0x1F DUP5 ADD PUSH1 0x5 SHR DUP2 ADD PUSH1 0x20 DUP6 LT PUSH3 0x3CFD JUMPI JUMPDEST SWAP1 DUP5 SWAP4 SWAP3 SWAP2 JUMPDEST PUSH1 0x1F DUP4 ADD PUSH1 0x5 SHR DUP3 ADD DUP2 LT PUSH3 0x3CEB JUMPI POP POP PUSH3 0x377C JUMP JUMPDEST PUSH2 0x1C0 MLOAD DUP2 SSTORE DUP6 SWAP5 POP PUSH1 0x1 ADD PUSH3 0x3CD3 JUMP JUMPDEST POP DUP1 PUSH3 0x3CCD JUMP JUMPDEST ADD CALLDATALOAD SWAP1 POP DUP15 DUP1 PUSH3 0x373A JUMP JUMPDEST PUSH2 0x1C0 DUP1 MLOAD PUSH1 0x3 DUP14 ADD SWAP1 MSTORE MLOAD PUSH1 0x20 DUP2 KECCAK256 SWAP1 SWAP5 POP SWAP2 JUMPDEST PUSH1 0x1F NOT DUP5 AND DUP6 LT PUSH3 0x3D6F JUMPI PUSH1 0x1 SWAP5 POP DUP4 PUSH1 0x1F NOT DUP2 AND LT PUSH3 0x3D54 JUMPI JUMPDEST POP POP POP DUP2 SHL ADD PUSH1 0x3 DUP9 ADD SSTORE PUSH3 0x3752 JUMP JUMPDEST ADD CALLDATALOAD PUSH1 0x0 NOT PUSH1 0x3 DUP5 SWAP1 SHL PUSH1 0xF8 AND SHR NOT AND SWAP1 SSTORE DUP15 DUP1 DUP1 PUSH3 0x3D43 JUMP JUMPDEST DUP2 DUP2 ADD CALLDATALOAD DUP4 SSTORE PUSH1 0x20 SWAP5 DUP6 ADD SWAP5 PUSH1 0x1 SWAP1 SWAP4 ADD SWAP3 ADD PUSH3 0x3D26 JUMP JUMPDEST SWAP1 SWAP2 POP PUSH1 0x3 DUP11 ADD PUSH2 0x1C0 MLOAD MSTORE PUSH1 0x20 PUSH2 0x1C0 MLOAD KECCAK256 PUSH1 0x1F DUP5 ADD PUSH1 0x5 SHR DUP2 ADD PUSH1 0x20 DUP6 LT PUSH3 0x3DDE JUMPI JUMPDEST SWAP1 DUP5 SWAP4 SWAP3 SWAP2 JUMPDEST PUSH1 0x1F DUP4 ADD PUSH1 0x5 SHR DUP3 ADD DUP2 LT PUSH3 0x3DCC JUMPI POP POP PUSH3 0x371D JUMP JUMPDEST PUSH2 0x1C0 MLOAD DUP2 SSTORE DUP6 SWAP5 POP PUSH1 0x1 ADD PUSH3 0x3DB4 JUMP JUMPDEST POP DUP1 PUSH3 0x3DAE JUMP JUMPDEST PUSH2 0x180 MLOAD PUSH1 0x1 PUSH1 0x1 PUSH1 0xA0 SHL SUB AND EXTCODESIZE ISZERO PUSH3 0x3E52 JUMPI PUSH1 0x40 MLOAD PUSH4 0x6E258E07 PUSH1 0xE1 SHL DUP2 MSTORE PUSH2 0x1C0 MLOAD PUSH2 0x180 MLOAD DUP3 SWAP1 PUSH1 0x4 SWAP1 DUP3 SWAP1 DUP5 SWAP1 PUSH1 0x1 PUSH1 0x1 PUSH1 0xA0 SHL SUB AND GAS CALL DUP1 ISZERO PUSH3 0x3A02 JUMPI PUSH3 0x3E37 JUMPI JUMPDEST POP PUSH3 0x363B JUMP JUMPDEST PUSH3 0x3E42 SWAP1 PUSH3 0x5F60 JUMP JUMPDEST PUSH2 0x1C0 MLOAD PUSH3 0x3E52 JUMPI DUP13 PUSH3 0x3E30 JUMP JUMPDEST PUSH2 0x1C0 MLOAD DUP1 REVERT JUMPDEST POP PUSH2 0x1237 CHAINID EQ PUSH3 0x3635 JUMP JUMPDEST PUSH2 0x180 MLOAD PUSH1 0x1 PUSH1 0x1 PUSH1 0xA0 SHL SUB AND EXTCODESIZE ISZERO PUSH3 0x3E52 JUMPI PUSH1 0x40 MLOAD PUSH4 0x15C6DEB9 PUSH1 0xE3 SHL DUP2 MSTORE PUSH1 0x1 PUSH1 0x1 PUSH1 0xA0 SHL SUB SWAP2 DUP3 AND PUSH1 0x4 DUP3 ADD MSTORE PUSH2 0x1C0 MLOAD PUSH2 0x180 MLOAD SWAP2 SWAP3 SWAP1 SWAP2 DUP4 SWAP2 PUSH1 0x24 SWAP2 DUP4 SWAP2 DUP6 SWAP2 AND GAS CALL DUP1 ISZERO PUSH3 0x3A02 JUMPI ISZERO PUSH3 0x362B JUMPI PUSH3 0x3EC6 SWAP1 PUSH3 0x5F60 JUMP JUMPDEST PUSH2 0x1C0 MLOAD PUSH3 0x3E52 JUMPI DUP14 PUSH3 0x362B JUMP JUMPDEST PUSH3 0x3EF3 SWAP2 POP PUSH1 0x20 RETURNDATASIZE PUSH1 0x20 GT PUSH3 0xDCC JUMPI PUSH3 0xDBC DUP2 DUP4 PUSH3 0x5F74 JUMP JUMPDEST DUP15 PUSH3 0x361A JUMP JUMPDEST PUSH3 0x3F05 SWAP1 PUSH3 0x5F60 JUMP JUMPDEST PUSH2 0x1C0 MLOAD PUSH3 0x3E52 JUMPI DUP14 PUSH3 0x35E6 JUMP JUMPDEST PUSH1 0x1 PUSH1 0x1 PUSH1 0xA0 SHL SUB DUP13 AND EXTCODESIZE ISZERO PUSH3 0x8D6 JUMPI PUSH1 0x0 DUP1 DUP14 PUSH1 0x4 PUSH1 0x40 MLOAD DUP1 SWAP5 DUP2 SWAP4 PUSH4 0x1C7031D7 PUSH1 0xE3 SHL DUP4 MSTORE PUSH1 0x1 DUP1 PUSH1 0xA0 SHL SUB AND GAS CALL DUP1 ISZERO PUSH3 0xF92 JUMPI PUSH3 0x409A JUMPI JUMPDEST POP PUSH1 0x4 PUSH1 0x20 DUP14 PUSH1 0x40 MLOAD SWAP3 DUP4 DUP1 SWAP3 PUSH4 0x6B456EF PUSH1 0xE2 SHL DUP3 MSTORE PUSH1 0x1 DUP1 PUSH1 0xA0 SHL SUB AND GAS STATICCALL SWAP1 DUP2 ISZERO PUSH3 0x3A02 JUMPI PUSH2 0x1C0 MLOAD SWAP2 PUSH3 0x4076 JUMPI JUMPDEST POP PUSH1 0x1 PUSH1 0x1 PUSH1 0xA0 SHL SUB DUP2 AND PUSH3 0x4005 JUMPI JUMPDEST POP DUP1 ISZERO SWAP1 PUSH3 0x3FF9 JUMPI JUMPDEST ISZERO PUSH3 0x363B JUMPI PUSH2 0x180 MLOAD PUSH1 0x1 PUSH1 0x1 PUSH1 0xA0 SHL SUB AND EXTCODESIZE ISZERO PUSH3 0x3E52 JUMPI PUSH1 0x40 MLOAD PUSH4 0x6E258E07 PUSH1 0xE1 SHL DUP2 MSTORE PUSH2 0x1C0 MLOAD PUSH2 0x180 MLOAD DUP3 SWAP1 PUSH1 0x4 SWAP1 DUP3 SWAP1 DUP5 SWAP1 PUSH1 0x1 PUSH1 0x1 PUSH1 0xA0 SHL SUB AND GAS CALL DUP1 ISZERO PUSH3 0x3A02 JUMPI PUSH3 0x3E37 JUMPI POP PUSH3 0x363B JUMP JUMPDEST POP PUSH2 0x1237 CHAINID EQ PUSH3 0x3FA3 JUMP JUMPDEST PUSH2 0x180 MLOAD PUSH1 0x1 PUSH1 0x1 PUSH1 0xA0 SHL SUB AND EXTCODESIZE ISZERO PUSH3 0x3E52 JUMPI PUSH1 0x40 MLOAD PUSH4 0x15C6DEB9 PUSH1 0xE3 SHL DUP2 MSTORE PUSH1 0x1 PUSH1 0x1 PUSH1 0xA0 SHL SUB SWAP2 DUP3 AND PUSH1 0x4 DUP3 ADD MSTORE PUSH2 0x1C0 MLOAD PUSH2 0x180 MLOAD SWAP2 SWAP3 SWAP1 SWAP2 DUP4 SWAP2 PUSH1 0x24 SWAP2 DUP4 SWAP2 DUP6 SWAP2 AND GAS CALL DUP1 ISZERO PUSH3 0x3A02 JUMPI ISZERO PUSH3 0x3F99 JUMPI PUSH3 0x4066 SWAP1 PUSH3 0x5F60 JUMP JUMPDEST PUSH2 0x1C0 MLOAD PUSH3 0x3E52 JUMPI DUP14 PUSH3 0x3F99 JUMP JUMPDEST PUSH3 0x4093 SWAP2 POP PUSH1 0x20 RETURNDATASIZE PUSH1 0x20 GT PUSH3 0xDCC JUMPI PUSH3 0xDBC DUP2 DUP4 PUSH3 0x5F74 JUMP JUMPDEST DUP15 PUSH3 0x3F88 JUMP JUMPDEST PUSH3 0x40A5 SWAP1 PUSH3 0x5F60 JUMP JUMPDEST PUSH1 0x0 PUSH2 0x1C0 MSTORE DUP14 PUSH3 0x3F54 JUMP JUMPDEST PUSH3 0x40BD SWAP1 PUSH3 0x5F60 JUMP JUMPDEST PUSH1 0x0 PUSH2 0x1C0 MSTORE DUP14 PUSH3 0x3597 JUMP JUMPDEST PUSH1 0x40 MLOAD PUSH4 0xA9059CBB PUSH1 0xE0 SHL DUP2 MSTORE CALLER PUSH1 0x4 DUP3 ADD MSTORE PUSH2 0x2710 SWAP2 SWAP1 SWAP3 MUL DIV PUSH1 0x24 DUP3 ADD MSTORE PUSH1 0x20 DUP2 DUP1 PUSH1 0x44 DUP2 ADD SUB DUP2 PUSH1 0x0 PUSH1 0x1 DUP1 PUSH1 0xA0 SHL SUB PUSH2 0x180 MLOAD AND GAS CALL SWAP1 DUP2 ISZERO PUSH3 0xF92 JUMPI PUSH1 0x0 SWAP2 PUSH3 0x4124 JUMPI JUMPDEST POP ISZERO PUSH3 0x100E JUMPI DUP10 DUP13 PUSH3 0x354F JUMP JUMPDEST PUSH3 0x4141 SWAP2 POP PUSH1 0x20 RETURNDATASIZE PUSH1 0x20 GT PUSH3 0x1081 JUMPI PUSH3 0x1071 DUP2 DUP4 PUSH3 0x5F74 JUMP JUMPDEST DUP16 PUSH3 0x4115 JUMP JUMPDEST PUSH3 0x4165 SWAP2 POP PUSH1 0x20 RETURNDATASIZE PUSH1 0x20 GT PUSH3 0x1081 JUMPI PUSH3 0x1071 DUP2 DUP4 PUSH3 0x5F74 JUMP JUMPDEST DUP16 PUSH3 0x3539 JUMP JUMPDEST CALLVALUE PUSH3 0x8D6 JUMPI PUSH1 0x20 CALLDATASIZE PUSH1 0x3 NOT ADD SLT PUSH3 0x8D6 JUMPI PUSH1 0x4 CALLDATALOAD PUSH3 0x418C PUSH3 0x5F96 JUMP JUMPDEST POP PUSH1 0xA SLOAD DUP2 LT ISZERO PUSH3 0x41C7 JUMPI PUSH3 0x41B2 PUSH3 0x41AB PUSH3 0x8A0 SWAP3 PUSH3 0x5FE7 JUMP JUMPDEST POP PUSH3 0x6126 JUMP JUMPDEST PUSH1 0x40 MLOAD SWAP2 DUP3 SWAP2 PUSH1 0x20 DUP4 MSTORE PUSH1 0x20 DUP4 ADD SWAP1 PUSH3 0x5E57 JUMP JUMPDEST PUSH1 0x40 MLOAD PUSH3 0x461BCD PUSH1 0xE5 SHL DUP2 MSTORE PUSH1 0x20 PUSH1 0x4 DUP3 ADD MSTORE PUSH1 0x11 PUSH1 0x24 DUP3 ADD MSTORE PUSH17 0x1A5B9D985B1A59081B185D5B98DA081A59 PUSH1 0x7A SHL PUSH1 0x44 DUP3 ADD MSTORE PUSH1 0x64 SWAP1 REVERT JUMPDEST CALLVALUE PUSH3 0x8D6 JUMPI PUSH1 0x0 CALLDATASIZE PUSH1 0x3 NOT ADD SLT PUSH3 0x8D6 JUMPI PUSH1 0x20 PUSH1 0x40 MLOAD PUSH1 0x32 DUP2 MSTORE RETURN JUMPDEST CALLVALUE PUSH3 0x8D6 JUMPI PUSH1 0x0 CALLDATASIZE PUSH1 0x3 NOT ADD SLT PUSH3 0x8D6 JUMPI PUSH1 0x1 SLOAD PUSH1 0x40 MLOAD PUSH1 0x1 PUSH1 0x1 PUSH1 0xA0 SHL SUB SWAP1 SWAP2 AND DUP2 MSTORE PUSH1 0x20 SWAP1 RETURN JUMPDEST PUSH3 0x4254 CALLDATASIZE PUSH3 0x5D7C JUMP JUMPDEST PUSH2 0x200 MSTORE PUSH1 0x4 SLOAD SWAP9 SWAP10 SWAP2 SWAP9 SWAP1 SWAP7 SWAP2 SWAP6 SWAP3 SWAP5 SWAP3 SWAP2 SWAP1 PUSH3 0x4275 SWAP1 CALLVALUE EQ PUSH3 0x5F00 JUMP JUMPDEST PUSH3 0x427F PUSH3 0x6422 JUMP JUMPDEST PUSH1 0x0 PUSH2 0x240 MSTORE DUP10 ISZERO PUSH3 0x11F8 JUMPI DUP1 ISZERO PUSH3 0x11C1 JUMPI DUP9 ISZERO PUSH3 0x118A JUMPI PUSH2 0x7D0 DUP8 GT PUSH3 0x114F JUMPI PUSH2 0x3E8 PUSH2 0x200 MLOAD GT PUSH3 0x1115 JUMPI PUSH1 0x2 SLOAD PUSH1 0x40 MLOAD SWAP1 PUSH1 0x1 PUSH1 0x1 PUSH1 0xA0 SHL SUB AND PUSH1 0x1 PUSH1 0x1 PUSH1 0x40 SHL SUB PUSH2 0x1808 DUP4 ADD SWAP1 DUP2 GT SWAP1 DUP4 GT OR PUSH3 0x10FF JUMPI DUP2 SWAP1 PUSH3 0x4319 PUSH3 0x4301 DUP15 PUSH2 0x1808 PUSH3 0x90F7 DUP7 CODECOPY PUSH1 0xE0 PUSH2 0x1808 DUP7 ADD DUP2 DUP2 MSTORE ADD SWAP1 DUP13 PUSH3 0x6568 JUMP JUMPDEST PUSH2 0x1808 DUP5 ADD DUP2 SUB PUSH1 0x20 PUSH2 0x1808 DUP7 ADD ADD MSTORE DUP6 DUP14 PUSH3 0x6568 JUMP JUMPDEST SWAP1 DUP13 PUSH1 0x40 PUSH2 0x1808 DUP6 ADD ADD MSTORE ADDRESS PUSH1 0x60 PUSH2 0x1808 DUP6 ADD ADD MSTORE CALLER PUSH1 0x80 PUSH2 0x1808 DUP6 ADD ADD MSTORE PUSH1 0xA0 PUSH2 0x1808 DUP5 ADD ADD MSTORE PUSH2 0x200 MLOAD PUSH1 0xC0 PUSH2 0x1808 DUP5 ADD ADD MSTORE SUB SWAP1 PUSH1 0x0 CREATE PUSH2 0x220 MSTORE PUSH2 0x220 MLOAD ISZERO PUSH3 0xF92 JUMPI PUSH1 0x2 SLOAD PUSH1 0x1 PUSH1 0x1 PUSH1 0xA0 SHL SUB AND CALLER EQ SWAP8 PUSH3 0x437B DUP10 PUSH3 0x65C4 JUMP JUMPDEST PUSH1 0x1 SLOAD PUSH1 0x3 SLOAD PUSH1 0x5 SLOAD PUSH1 0x6 SLOAD PUSH1 0x7 SLOAD PUSH1 0x8 SLOAD PUSH1 0x40 MLOAD SWAP7 SWAP16 SWAP7 SWAP6 PUSH1 0x1 PUSH1 0x1 PUSH1 0xA0 SHL SUB SWAP2 DUP3 AND SWAP6 SWAP3 SWAP5 SWAP3 SWAP2 AND PUSH1 0x1 PUSH1 0x1 PUSH1 0x40 SHL SUB PUSH2 0x2AF0 DUP9 ADD SWAP1 DUP2 GT SWAP1 DUP9 GT OR PUSH3 0x10FF JUMPI PUSH2 0x2AF0 PUSH3 0x6607 DUP9 CODECOPY PUSH2 0x220 MLOAD PUSH1 0x1 PUSH1 0x1 PUSH1 0xA0 SHL SUB SWAP1 DUP2 AND PUSH2 0x2AF0 DUP10 ADD SWAP1 DUP2 MSTORE ADDRESS PUSH1 0x20 DUP3 ADD MSTORE PUSH1 0x40 DUP2 ADD SWAP3 SWAP1 SWAP3 MSTORE PUSH1 0x60 DUP3 ADD SWAP3 SWAP1 SWAP3 MSTORE PUSH1 0x80 DUP2 ADD SWAP3 SWAP1 SWAP3 MSTORE PUSH1 0xA0 DUP3 ADD SWAP3 SWAP1 SWAP3 MSTORE PUSH1 0xC0 DUP2 ADD SWAP3 SWAP1 SWAP3 MSTORE PUSH1 0xE0 DUP3 ADD SWAP3 SWAP1 SWAP3 MSTORE SWAP1 DUP13 AND PUSH2 0x100 DUP3 ADD MSTORE DUP2 SWAP1 SUB PUSH2 0x120 ADD SWAP1 PUSH1 0x0 CREATE PUSH2 0x2A0 MSTORE PUSH2 0x2A0 MLOAD ISZERO PUSH3 0xF92 JUMPI DUP11 DUP10 DUP2 MUL DIV DUP10 SUB PUSH3 0x10E9 JUMPI PUSH3 0x4454 PUSH2 0x2710 DUP11 DUP14 MUL DIV DUP13 PUSH3 0x62A6 JUMP JUMPDEST PUSH1 0x40 MLOAD PUSH4 0xA9059CBB PUSH1 0xE0 SHL DUP2 MSTORE PUSH2 0x2A0 MLOAD PUSH1 0x1 PUSH1 0x1 PUSH1 0xA0 SHL SUB SWAP1 DUP2 AND PUSH1 0x4 DUP4 ADD MSTORE PUSH1 0x24 DUP3 ADD DUP4 SWAP1 MSTORE PUSH2 0x220 MLOAD PUSH1 0x20 SWAP2 DUP4 SWAP2 PUSH1 0x44 SWAP2 DUP4 SWAP2 PUSH1 0x0 SWAP2 AND GAS CALL SWAP1 DUP2 ISZERO PUSH3 0xF92 JUMPI PUSH1 0x0 SWAP2 PUSH3 0x4F20 JUMPI JUMPDEST POP ISZERO PUSH3 0x1089 JUMPI DUP10 DUP13 PUSH2 0x2710 DUP3 DUP3 MUL DIV PUSH3 0x4EA2 JUMPI JUMPDEST POP POP PUSH2 0x2A0 MLOAD PUSH1 0x1 PUSH1 0x1 PUSH1 0xA0 SHL SUB AND EXTCODESIZE ISZERO PUSH3 0x8D6 JUMPI PUSH1 0x40 MLOAD SWAP1 PUSH4 0x95564837 PUSH1 0xE0 SHL DUP3 MSTORE PUSH1 0x4 DUP3 ADD MSTORE PUSH1 0x0 DUP2 PUSH1 0x24 DUP2 DUP4 PUSH1 0x1 DUP1 PUSH1 0xA0 SHL SUB PUSH2 0x2A0 MLOAD AND GAS CALL DUP1 ISZERO PUSH3 0xF92 JUMPI PUSH3 0x4E8A JUMPI JUMPDEST POP PUSH2 0x240 MLOAD ISZERO PUSH3 0x4DA5 JUMPI PUSH2 0x2A0 MLOAD PUSH1 0x1 PUSH1 0x1 PUSH1 0xA0 SHL SUB AND EXTCODESIZE ISZERO PUSH3 0x4DC7 JUMPI PUSH1 0x40 MLOAD PUSH4 0x9485DC9 PUSH1 0xE2 SHL DUP2 MSTORE PUSH2 0x240 MLOAD PUSH2 0x2A0 MLOAD DUP3 SWAP1 PUSH1 0x4 SWAP1 DUP3 SWAP1 DUP5 SWAP1 PUSH1 0x1 PUSH1 0x1 PUSH1 0xA0 SHL SUB AND GAS CALL DUP1 ISZERO PUSH3 0x4975 JUMPI PUSH3 0x4E6F JUMPI JUMPDEST POP PUSH1 0x40 MLOAD PUSH4 0x6B456EF PUSH1 0xE2 SHL DUP2 MSTORE PUSH2 0x2A0 MLOAD PUSH1 0x20 SWAP1 DUP3 SWAP1 PUSH1 0x4 SWAP1 DUP3 SWAP1 PUSH1 0x1 PUSH1 0x1 PUSH1 0xA0 SHL SUB AND GAS STATICCALL SWAP1 DUP2 ISZERO PUSH3 0x4975 JUMPI PUSH2 0x240 MLOAD SWAP2 PUSH3 0x4E4B JUMPI JUMPDEST POP PUSH1 0x1 PUSH1 0x1 PUSH1 0xA0 SHL SUB DUP2 AND PUSH3 0x4DDA JUMPI JUMPDEST POP DUP1 ISZERO SWAP1 PUSH3 0x4DCE JUMPI JUMPDEST PUSH3 0x4D5B JUMPI JUMPDEST PUSH2 0x220 MLOAD PUSH2 0x240 DUP1 MLOAD PUSH1 0x1 PUSH1 0x1 PUSH1 0xA0 SHL SUB SWAP3 DUP4 AND SWAP1 MSTORE PUSH1 0xB PUSH1 0x20 MSTORE MLOAD PUSH1 0x40 SWAP1 KECCAK256 PUSH2 0x2A0 MLOAD DUP2 SLOAD PUSH1 0x1 PUSH1 0x1 PUSH1 0xA0 SHL SUB NOT AND SWAP3 AND SWAP2 SWAP1 SWAP2 OR SWAP1 SSTORE PUSH1 0xA SLOAD SWAP11 PUSH1 0x1 PUSH1 0x40 SHL DUP13 LT ISZERO PUSH3 0x4A9E JUMPI PUSH1 0x1 DUP13 ADD PUSH1 0xA SSTORE PUSH3 0x460D DUP13 PUSH3 0x5FE7 JUMP JUMPDEST POP POP PUSH3 0x461A DUP13 PUSH3 0x5FE7 JUMP JUMPDEST POP PUSH2 0x220 MLOAD DUP2 SLOAD PUSH1 0x1 PUSH1 0x1 PUSH1 0xA0 SHL SUB NOT SWAP1 DUP2 AND PUSH1 0x1 PUSH1 0x1 PUSH1 0xA0 SHL SUB SWAP3 DUP4 AND OR DUP4 SSTORE PUSH2 0x2A0 MLOAD PUSH1 0x1 DUP5 ADD DUP1 SLOAD DUP4 AND SWAP2 SWAP1 SWAP4 AND OR SWAP1 SWAP2 SSTORE PUSH1 0x2 DUP3 ADD DUP1 SLOAD SWAP1 SWAP2 AND CALLER OR SWAP1 SSTORE SWAP8 PUSH1 0x1 PUSH1 0x1 PUSH1 0x40 SHL SUB DUP3 GT PUSH3 0x4A9E JUMPI DUP2 SWAP1 PUSH3 0x467D PUSH1 0x3 DUP12 ADD SLOAD PUSH3 0x6038 JUMP JUMPDEST PUSH1 0x1F DUP2 GT PUSH3 0x4CFD JUMPI JUMPDEST POP PUSH2 0x240 MLOAD SWAP1 PUSH1 0x1F DUP4 GT PUSH1 0x1 EQ PUSH3 0x4C86 JUMPI PUSH2 0x240 MLOAD SWAP3 PUSH3 0x4C7A JUMPI JUMPDEST POP POP DUP2 PUSH1 0x1 SHL SWAP2 PUSH1 0x0 NOT SWAP1 PUSH1 0x3 SHL SHR NOT AND OR PUSH1 0x3 DUP9 ADD SSTORE JUMPDEST PUSH1 0x1 PUSH1 0x1 PUSH1 0x40 SHL SUB DUP3 GT PUSH3 0x4A9E JUMPI DUP2 SWAP1 PUSH3 0x46DC PUSH1 0x4 DUP10 ADD SLOAD PUSH3 0x6038 JUMP JUMPDEST PUSH1 0x1F DUP2 GT PUSH3 0x4C1C JUMPI JUMPDEST POP PUSH2 0x240 MLOAD SWAP1 PUSH1 0x1F DUP4 GT PUSH1 0x1 EQ PUSH3 0x4BA5 JUMPI PUSH2 0x240 MLOAD SWAP3 PUSH3 0x4B99 JUMPI JUMPDEST POP POP DUP2 PUSH1 0x1 SHL SWAP2 PUSH1 0x0 NOT SWAP1 PUSH1 0x3 SHL SHR NOT AND OR PUSH1 0x4 DUP7 ADD SSTORE JUMPDEST PUSH1 0x1 PUSH1 0x1 PUSH1 0x40 SHL SUB DUP3 GT PUSH3 0x4A9E JUMPI DUP2 SWAP1 PUSH3 0x473B PUSH1 0x5 DUP8 ADD SLOAD PUSH3 0x6038 JUMP JUMPDEST PUSH1 0x1F DUP2 GT PUSH3 0x4B3B JUMPI JUMPDEST POP PUSH2 0x240 MLOAD SWAP1 PUSH1 0x1F DUP4 GT PUSH1 0x1 EQ PUSH3 0x4AC4 JUMPI PUSH2 0x240 MLOAD SWAP3 PUSH3 0x4AB8 JUMPI JUMPDEST POP POP DUP2 PUSH1 0x1 SHL SWAP2 PUSH1 0x0 NOT SWAP1 PUSH1 0x3 SHL SHR NOT AND OR PUSH1 0x5 DUP5 ADD SSTORE JUMPDEST PUSH1 0x1 PUSH1 0x1 PUSH1 0x40 SHL SUB DUP3 GT PUSH3 0x4A9E JUMPI DUP2 SWAP1 PUSH3 0x479A PUSH1 0x6 DUP6 ADD SLOAD PUSH3 0x6038 JUMP JUMPDEST PUSH1 0x1F DUP2 GT PUSH3 0x4A40 JUMPI JUMPDEST POP PUSH2 0x240 MLOAD SWAP1 PUSH1 0x1F DUP4 GT PUSH1 0x1 EQ PUSH3 0x49C9 JUMPI PUSH2 0x240 MLOAD SWAP3 PUSH3 0x49BD JUMPI JUMPDEST POP POP DUP2 PUSH1 0x1 SHL SWAP2 PUSH1 0x0 NOT SWAP1 PUSH1 0x3 SHL SHR NOT AND OR PUSH1 0x6 DUP3 ADD SSTORE JUMPDEST DUP4 PUSH1 0x7 DUP3 ADD SSTORE PUSH2 0x2710 DUP3 DUP6 MUL DIV PUSH1 0x8 DUP3 ADD SSTORE PUSH1 0x9 TIMESTAMP SWAP2 ADD SSTORE PUSH1 0x3 SLOAD PUSH1 0x7 SLOAD SWAP1 PUSH2 0x2710 PUSH1 0x1 DUP1 PUSH1 0xA0 SHL SUB PUSH1 0x8 SLOAD AND SWAP4 PUSH1 0x40 MLOAD SWAP7 PUSH1 0x1 DUP1 PUSH1 0xA0 SHL SUB PUSH2 0x2A0 MLOAD AND DUP9 MSTORE DUP1 PUSH1 0x20 DUP10 ADD MSTORE MUL DIV PUSH1 0x40 DUP7 ADD MSTORE PUSH1 0x60 DUP6 ADD MSTORE PUSH1 0x80 DUP5 ADD MSTORE PUSH1 0xA0 DUP4 ADD MSTORE PUSH1 0x1 DUP1 PUSH1 0xA0 SHL SUB AND PUSH1 0xC0 DUP3 ADD MSTORE PUSH1 0x1 DUP1 PUSH1 0xA0 SHL SUB PUSH2 0x220 MLOAD AND SWAP1 DUP3 PUSH1 0x0 DUP1 MLOAD PUSH1 0x20 PUSH3 0xA91F DUP4 CODECOPY DUP2 MLOAD SWAP2 MSTORE PUSH1 0xE0 CALLER SWAP4 LOG4 PUSH1 0x40 MLOAD SWAP1 PUSH4 0x17773EBB PUSH1 0xE0 SHL DUP3 MSTORE PUSH1 0x20 DUP3 PUSH1 0x4 DUP2 PUSH1 0x1 DUP1 PUSH1 0xA0 SHL SUB PUSH2 0x220 MLOAD AND GAS STATICCALL SWAP2 DUP3 ISZERO PUSH3 0x4975 JUMPI PUSH2 0x240 MLOAD SWAP3 PUSH3 0x4983 JUMPI JUMPDEST POP PUSH1 0x40 MLOAD SWAP2 PUSH4 0x116E689F PUSH1 0xE1 SHL DUP4 MSTORE PUSH1 0x20 DUP4 PUSH1 0x4 DUP2 PUSH1 0x1 DUP1 PUSH1 0xA0 SHL SUB PUSH2 0x220 MLOAD AND GAS STATICCALL DUP1 ISZERO PUSH3 0x4975 JUMPI PUSH2 0x240 MLOAD SWAP1 PUSH3 0x493A JUMPI JUMPDEST PUSH3 0x8A0 SWAP4 POP PUSH1 0x40 MLOAD SWAP2 PUSH2 0x200 MLOAD DUP4 MSTORE PUSH1 0x20 DUP4 ADD MSTORE PUSH1 0x40 DUP3 ADD MSTORE DUP2 PUSH1 0x0 DUP1 MLOAD PUSH1 0x20 PUSH3 0xA8FF DUP4 CODECOPY DUP2 MLOAD SWAP2 MSTORE PUSH1 0x60 PUSH1 0x1 DUP1 PUSH1 0xA0 SHL SUB PUSH2 0x220 MLOAD AND SWAP4 LOG3 PUSH1 0x40 DUP1 MLOAD PUSH2 0x2A0 MLOAD PUSH2 0x220 MLOAD SWAP4 DUP3 MSTORE PUSH1 0x1 PUSH1 0x1 PUSH1 0xA0 SHL SUB SWAP4 DUP5 AND PUSH1 0x20 DUP4 ADD MSTORE SWAP1 SWAP3 AND SWAP1 DUP3 ADD MSTORE SWAP1 DUP2 SWAP1 PUSH1 0x60 DUP3 ADD SWAP1 JUMP JUMPDEST POP PUSH1 0x20 DUP4 RETURNDATASIZE PUSH1 0x20 GT PUSH3 0x496C JUMPI JUMPDEST DUP2 PUSH3 0x4957 PUSH1 0x20 SWAP4 DUP4 PUSH3 0x5F74 JUMP JUMPDEST DUP2 ADD SUB SLT PUSH3 0x8D6 JUMPI PUSH3 0x8A0 SWAP3 MLOAD PUSH3 0x48CF JUMP JUMPDEST RETURNDATASIZE SWAP2 POP PUSH3 0x4948 JUMP JUMPDEST PUSH1 0x40 MLOAD RETURNDATASIZE PUSH2 0x240 MLOAD DUP3 RETURNDATACOPY RETURNDATASIZE SWAP1 REVERT JUMPDEST SWAP1 SWAP2 POP PUSH1 0x20 DUP2 RETURNDATASIZE PUSH1 0x20 GT PUSH3 0x49B4 JUMPI JUMPDEST DUP2 PUSH3 0x49A2 PUSH1 0x20 SWAP4 DUP4 PUSH3 0x5F74 JUMP JUMPDEST DUP2 ADD SUB SLT PUSH3 0x8D6 JUMPI MLOAD SWAP1 DUP3 PUSH3 0x489A JUMP JUMPDEST RETURNDATASIZE SWAP2 POP PUSH3 0x4993 JUMP JUMPDEST ADD CALLDATALOAD SWAP1 POP DUP8 DUP1 PUSH3 0x47C1 JUMP JUMPDEST PUSH2 0x240 DUP1 MLOAD PUSH1 0x6 DUP8 ADD SWAP1 MSTORE MLOAD PUSH1 0x20 DUP2 KECCAK256 SWAP1 SWAP5 POP SWAP2 JUMPDEST PUSH1 0x1F NOT DUP5 AND DUP6 LT PUSH3 0x4A27 JUMPI PUSH1 0x1 SWAP5 POP DUP4 PUSH1 0x1F NOT DUP2 AND LT PUSH3 0x4A0C JUMPI JUMPDEST POP POP POP DUP2 SHL ADD PUSH1 0x6 DUP3 ADD SSTORE PUSH3 0x47D9 JUMP JUMPDEST ADD CALLDATALOAD PUSH1 0x0 NOT PUSH1 0x3 DUP5 SWAP1 SHL PUSH1 0xF8 AND SHR NOT AND SWAP1 SSTORE DUP8 DUP1 DUP1 PUSH3 0x49FB JUMP JUMPDEST DUP2 DUP2 ADD CALLDATALOAD DUP4 SSTORE PUSH1 0x20 SWAP5 DUP6 ADD SWAP5 PUSH1 0x1 SWAP1 SWAP4 ADD SWAP3 ADD PUSH3 0x49DE JUMP JUMPDEST SWAP1 SWAP2 POP PUSH1 0x6 DUP5 ADD PUSH2 0x240 MLOAD MSTORE PUSH1 0x20 PUSH2 0x240 MLOAD KECCAK256 PUSH1 0x1F DUP5 ADD PUSH1 0x5 SHR DUP2 ADD PUSH1 0x20 DUP6 LT PUSH3 0x4A96 JUMPI JUMPDEST SWAP1 DUP5 SWAP4 SWAP3 SWAP2 JUMPDEST PUSH1 0x1F DUP4 ADD PUSH1 0x5 SHR DUP3 ADD DUP2 LT PUSH3 0x4A84 JUMPI POP POP PUSH3 0x47A4 JUMP JUMPDEST PUSH2 0x240 MLOAD DUP2 SSTORE DUP6 SWAP5 POP PUSH1 0x1 ADD PUSH3 0x4A6C JUMP JUMPDEST POP DUP1 PUSH3 0x4A66 JUMP JUMPDEST PUSH4 0x4E487B71 PUSH1 0xE0 SHL PUSH2 0x240 MLOAD MSTORE PUSH1 0x41 PUSH1 0x4 MSTORE PUSH1 0x24 PUSH2 0x240 MLOAD REVERT JUMPDEST ADD CALLDATALOAD SWAP1 POP DUP10 DUP1 PUSH3 0x4762 JUMP JUMPDEST PUSH2 0x240 DUP1 MLOAD PUSH1 0x5 DUP10 ADD SWAP1 MSTORE MLOAD PUSH1 0x20 DUP2 KECCAK256 SWAP1 SWAP5 POP SWAP2 JUMPDEST PUSH1 0x1F NOT DUP5 AND DUP6 LT PUSH3 0x4B22 JUMPI PUSH1 0x1 SWAP5 POP DUP4 PUSH1 0x1F NOT DUP2 AND LT PUSH3 0x4B07 JUMPI JUMPDEST POP POP POP DUP2 SHL ADD PUSH1 0x5 DUP5 ADD SSTORE PUSH3 0x477A JUMP JUMPDEST ADD CALLDATALOAD PUSH1 0x0 NOT PUSH1 0x3 DUP5 SWAP1 SHL PUSH1 0xF8 AND SHR NOT AND SWAP1 SSTORE DUP10 DUP1 DUP1 PUSH3 0x4AF6 JUMP JUMPDEST DUP2 DUP2 ADD CALLDATALOAD DUP4 SSTORE PUSH1 0x20 SWAP5 DUP6 ADD SWAP5 PUSH1 0x1 SWAP1 SWAP4 ADD SWAP3 ADD PUSH3 0x4AD9 JUMP JUMPDEST SWAP1 SWAP2 POP PUSH1 0x5 DUP7 ADD PUSH2 0x240 MLOAD MSTORE PUSH1 0x20 PUSH2 0x240 MLOAD KECCAK256 PUSH1 0x1F DUP5 ADD PUSH1 0x5 SHR DUP2 ADD PUSH1 0x20 DUP6 LT PUSH3 0x4B91 JUMPI JUMPDEST SWAP1 DUP5 SWAP4 SWAP3 SWAP2 JUMPDEST PUSH1 0x1F DUP4 ADD PUSH1 0x5 SHR DUP3 ADD DUP2 LT PUSH3 0x4B7F JUMPI POP POP PUSH3 0x4745 JUMP JUMPDEST PUSH2 0x240 MLOAD DUP2 SSTORE DUP6 SWAP5 POP PUSH1 0x1 ADD PUSH3 0x4B67 JUMP JUMPDEST POP DUP1 PUSH3 0x4B61 JUMP JUMPDEST ADD CALLDATALOAD SWAP1 POP DUP12 DUP1 PUSH3 0x4703 JUMP JUMPDEST PUSH2 0x240 DUP1 MLOAD PUSH1 0x4 DUP12 ADD SWAP1 MSTORE MLOAD PUSH1 0x20 DUP2 KECCAK256 SWAP1 SWAP5 POP SWAP2 JUMPDEST PUSH1 0x1F NOT DUP5 AND DUP6 LT PUSH3 0x4C03 JUMPI PUSH1 0x1 SWAP5 POP DUP4 PUSH1 0x1F NOT DUP2 AND LT PUSH3 0x4BE8 JUMPI JUMPDEST POP POP POP DUP2 SHL ADD PUSH1 0x4 DUP7 ADD SSTORE PUSH3 0x471B JUMP JUMPDEST ADD CALLDATALOAD PUSH1 0x0 NOT PUSH1 0x3 DUP5 SWAP1 SHL PUSH1 0xF8 AND SHR NOT AND SWAP1 SSTORE DUP12 DUP1 DUP1 PUSH3 0x4BD7 JUMP JUMPDEST DUP2 DUP2 ADD CALLDATALOAD DUP4 SSTORE PUSH1 0x20 SWAP5 DUP6 ADD SWAP5 PUSH1 0x1 SWAP1 SWAP4 ADD SWAP3 ADD PUSH3 0x4BBA JUMP JUMPDEST SWAP1 SWAP2 POP PUSH1 0x4 DUP9 ADD PUSH2 0x240 MLOAD MSTORE PUSH1 0x20 PUSH2 0x240 MLOAD KECCAK256 PUSH1 0x1F DUP5 ADD PUSH1 0x5 SHR DUP2 ADD PUSH1 0x20 DUP6 LT PUSH3 0x4C72 JUMPI JUMPDEST SWAP1 DUP5 SWAP4 SWAP3 SWAP2 JUMPDEST PUSH1 0x1F DUP4 ADD PUSH1 0x5 SHR DUP3 ADD DUP2 LT PUSH3 0x4C60 JUMPI POP POP PUSH3 0x46E6 JUMP JUMPDEST PUSH2 0x240 MLOAD DUP2 SSTORE DUP6 SWAP5 POP PUSH1 0x1 ADD PUSH3 0x4C48 JUMP JUMPDEST POP DUP1 PUSH3 0x4C42 JUMP JUMPDEST ADD CALLDATALOAD SWAP1 POP DUP14 DUP1 PUSH3 0x46A4 JUMP JUMPDEST PUSH2 0x240 DUP1 MLOAD PUSH1 0x3 DUP14 ADD SWAP1 MSTORE MLOAD PUSH1 0x20 DUP2 KECCAK256 SWAP1 SWAP5 POP SWAP2 JUMPDEST PUSH1 0x1F NOT DUP5 AND DUP6 LT PUSH3 0x4CE4 JUMPI PUSH1 0x1 SWAP5 POP DUP4 PUSH1 0x1F NOT DUP2 AND LT PUSH3 0x4CC9 JUMPI JUMPDEST POP POP POP DUP2 SHL ADD PUSH1 0x3 DUP9 ADD SSTORE PUSH3 0x46BC JUMP JUMPDEST ADD CALLDATALOAD PUSH1 0x0 NOT PUSH1 0x3 DUP5 SWAP1 SHL PUSH1 0xF8 AND SHR NOT AND SWAP1 SSTORE DUP14 DUP1 DUP1 PUSH3 0x4CB8 JUMP JUMPDEST DUP2 DUP2 ADD CALLDATALOAD DUP4 SSTORE PUSH1 0x20 SWAP5 DUP6 ADD SWAP5 PUSH1 0x1 SWAP1 SWAP4 ADD SWAP3 ADD PUSH3 0x4C9B JUMP JUMPDEST SWAP1 SWAP2 POP PUSH1 0x3 DUP11 ADD PUSH2 0x240 MLOAD MSTORE PUSH1 0x20 PUSH2 0x240 MLOAD KECCAK256 PUSH1 0x1F DUP5 ADD PUSH1 0x5 SHR DUP2 ADD PUSH1 0x20 DUP6 LT PUSH3 0x4D53 JUMPI JUMPDEST SWAP1 DUP5 SWAP4 SWAP3 SWAP2 JUMPDEST PUSH1 0x1F DUP4 ADD PUSH1 0x5 SHR DUP3 ADD DUP2 LT PUSH3 0x4D41 JUMPI POP POP PUSH3 0x4687 JUMP JUMPDEST PUSH2 0x240 MLOAD DUP2 SSTORE DUP6 SWAP5 POP PUSH1 0x1 ADD PUSH3 0x4D29 JUMP JUMPDEST POP DUP1 PUSH3 0x4D23 JUMP JUMPDEST PUSH2 0x220 MLOAD PUSH1 0x1 PUSH1 0x1 PUSH1 0xA0 SHL SUB AND EXTCODESIZE ISZERO PUSH3 0x4DC7 JUMPI PUSH1 0x40 MLOAD PUSH4 0x6E258E07 PUSH1 0xE1 SHL DUP2 MSTORE PUSH2 0x240 MLOAD PUSH2 0x220 MLOAD DUP3 SWAP1 PUSH1 0x4 SWAP1 DUP3 SWAP1 DUP5 SWAP1 PUSH1 0x1 PUSH1 0x1 PUSH1 0xA0 SHL SUB AND GAS CALL DUP1 ISZERO PUSH3 0x4975 JUMPI PUSH3 0x4DAC JUMPI JUMPDEST POP PUSH3 0x45B2 JUMP JUMPDEST PUSH3 0x4DB7 SWAP1 PUSH3 0x5F60 JUMP JUMPDEST PUSH2 0x240 MLOAD PUSH3 0x4DC7 JUMPI DUP12 PUSH3 0x4DA5 JUMP JUMPDEST PUSH2 0x240 MLOAD DUP1 REVERT JUMPDEST POP PUSH2 0x1237 CHAINID EQ PUSH3 0x45AC JUMP JUMPDEST PUSH2 0x220 MLOAD PUSH1 0x1 PUSH1 0x1 PUSH1 0xA0 SHL SUB AND EXTCODESIZE ISZERO PUSH3 0x4DC7 JUMPI PUSH1 0x40 MLOAD PUSH4 0x15C6DEB9 PUSH1 0xE3 SHL DUP2 MSTORE PUSH1 0x1 PUSH1 0x1 PUSH1 0xA0 SHL SUB SWAP2 DUP3 AND PUSH1 0x4 DUP3 ADD MSTORE PUSH2 0x240 MLOAD PUSH2 0x220 MLOAD SWAP2 SWAP3 SWAP1 SWAP2 DUP4 SWAP2 PUSH1 0x24 SWAP2 DUP4 SWAP2 DUP6 SWAP2 AND GAS CALL DUP1 ISZERO PUSH3 0x4975 JUMPI ISZERO PUSH3 0x45A2 JUMPI PUSH3 0x4E3B SWAP1 PUSH3 0x5F60 JUMP JUMPDEST PUSH2 0x240 MLOAD PUSH3 0x4DC7 JUMPI DUP13 PUSH3 0x45A2 JUMP JUMPDEST PUSH3 0x4E68 SWAP2 POP PUSH1 0x20 RETURNDATASIZE PUSH1 0x20 GT PUSH3 0xDCC JUMPI PUSH3 0xDBC DUP2 DUP4 PUSH3 0x5F74 JUMP JUMPDEST DUP14 PUSH3 0x4591 JUMP JUMPDEST PUSH3 0x4E7A SWAP1 PUSH3 0x5F60 JUMP JUMPDEST PUSH2 0x240 MLOAD PUSH3 0x4DC7 JUMPI DUP13 PUSH3 0x4557 JUMP JUMPDEST PUSH3 0x4E95 SWAP1 PUSH3 0x5F60 JUMP JUMPDEST PUSH1 0x0 PUSH2 0x240 MSTORE DUP13 PUSH3 0x4502 JUMP JUMPDEST PUSH1 0x40 MLOAD PUSH4 0xA9059CBB PUSH1 0xE0 SHL DUP2 MSTORE CALLER PUSH1 0x4 DUP3 ADD MSTORE PUSH2 0x2710 SWAP2 SWAP1 SWAP3 MUL DIV PUSH1 0x24 DUP3 ADD MSTORE PUSH1 0x20 DUP2 DUP1 PUSH1 0x44 DUP2 ADD SUB DUP2 PUSH1 0x0 PUSH1 0x1 DUP1 PUSH1 0xA0 SHL SUB PUSH2 0x220 MLOAD AND GAS CALL SWAP1 DUP2 ISZERO PUSH3 0xF92 JUMPI PUSH1 0x0 SWAP2 PUSH3 0x4EFC JUMPI JUMPDEST POP ISZERO PUSH3 0x100E JUMPI DUP10 DUP13 PUSH3 0x44B7 JUMP JUMPDEST PUSH3 0x4F19 SWAP2 POP PUSH1 0x20 RETURNDATASIZE PUSH1 0x20 GT PUSH3 0x1081 JUMPI PUSH3 0x1071 DUP2 DUP4 PUSH3 0x5F74 JUMP JUMPDEST DUP15 PUSH3 0x4EED JUMP JUMPDEST PUSH3 0x4F3D SWAP2 POP PUSH1 0x20 RETURNDATASIZE PUSH1 0x20 GT PUSH3 0x1081 JUMPI PUSH3 0x1071 DUP2 DUP4 PUSH3 0x5F74 JUMP JUMPDEST DUP15 PUSH3 0x44A1 JUMP JUMPDEST CALLVALUE PUSH3 0x8D6 JUMPI PUSH1 0x0 CALLDATASIZE PUSH1 0x3 NOT ADD SLT PUSH3 0x8D6 JUMPI PUSH1 0x20 PUSH1 0x40 MLOAD PUSH2 0x3E8 DUP2 MSTORE RETURN JUMPDEST CALLVALUE PUSH3 0x8D6 JUMPI PUSH1 0x0 CALLDATASIZE PUSH1 0x3 NOT ADD SLT PUSH3 0x8D6 JUMPI PUSH1 0x20 PUSH1 0x5 SLOAD PUSH1 0x40 MLOAD SWAP1 DUP2 MSTORE RETURN JUMPDEST CALLVALUE PUSH3 0x8D6 JUMPI PUSH1 0x0 CALLDATASIZE PUSH1 0x3 NOT ADD SLT PUSH3 0x8D6 JUMPI PUSH1 0x9 SLOAD PUSH1 0x40 MLOAD PUSH1 0x1 PUSH1 0x1 PUSH1 0xA0 SHL SUB SWAP1 SWAP2 AND DUP2 MSTORE PUSH1 0x20 SWAP1 RETURN JUMPDEST PUSH3 0x4FB9 CALLDATASIZE PUSH3 0x5CE7 JUMP JUMPDEST SWAP5 PUSH3 0x4FD3 PUSH1 0x4 SWAP11 SWAP6 SWAP3 SWAP9 SWAP8 SWAP10 SWAP11 SWAP5 SWAP4 SWAP5 SLOAD CALLVALUE EQ PUSH3 0x5F00 JUMP JUMPDEST PUSH3 0x4FDD PUSH3 0x6422 JUMP JUMPDEST PUSH1 0x0 PUSH2 0x280 MSTORE DUP10 ISZERO PUSH3 0x11F8 JUMPI DUP9 ISZERO PUSH3 0x11C1 JUMPI DUP8 ISZERO PUSH3 0x118A JUMPI PUSH2 0x7D0 DUP7 GT PUSH3 0x114F JUMPI PUSH1 0x0 PUSH2 0x280 MSTORE PUSH1 0x2 SLOAD PUSH1 0x40 MLOAD SWAP1 PUSH1 0x1 PUSH1 0x1 PUSH1 0xA0 SHL SUB AND PUSH1 0x1 PUSH1 0x1 PUSH1 0x40 SHL SUB PUSH2 0x1808 DUP4 ADD SWAP1 DUP2 GT SWAP1 DUP4 GT OR PUSH3 0x10FF JUMPI DUP2 SWAP1 PUSH3 0x5070 PUSH3 0x5058 DUP15 PUSH2 0x1808 PUSH3 0x90F7 DUP7 CODECOPY PUSH1 0xE0 PUSH2 0x1808 DUP7 ADD DUP2 DUP2 MSTORE ADD SWAP1 DUP12 PUSH3 0x6568 JUMP JUMPDEST PUSH2 0x1808 DUP5 ADD DUP2 SUB PUSH1 0x20 PUSH2 0x1808 DUP7 ADD ADD MSTORE DUP14 DUP13 PUSH3 0x6568 JUMP JUMPDEST SWAP1 DUP12 PUSH1 0x40 PUSH2 0x1808 DUP6 ADD ADD MSTORE ADDRESS PUSH1 0x60 PUSH2 0x1808 DUP6 ADD ADD MSTORE CALLER PUSH1 0x80 PUSH2 0x1808 DUP6 ADD ADD MSTORE PUSH1 0xA0 PUSH2 0x1808 DUP5 ADD ADD MSTORE PUSH1 0x32 PUSH1 0xC0 PUSH2 0x1808 DUP5 ADD ADD MSTORE SUB SWAP1 PUSH1 0x0 CREATE PUSH2 0x260 MSTORE PUSH2 0x260 MLOAD ISZERO PUSH3 0xF92 JUMPI PUSH1 0x2 SLOAD PUSH1 0x1 PUSH1 0x1 PUSH1 0xA0 SHL SUB AND CALLER EQ SWAP9 PUSH3 0x50D0 DUP11 PUSH3 0x65C4 JUMP JUMPDEST PUSH1 0x1 SLOAD PUSH1 0x3 SLOAD PUSH1 0x5 SLOAD PUSH1 0x6 SLOAD PUSH1 0x7 SLOAD PUSH1 0x8 SLOAD PUSH1 0x40 MLOAD SWAP7 SWAP15 SWAP7 SWAP6 PUSH1 0x1 PUSH1 0x1 PUSH1 0xA0 SHL SUB SWAP2 DUP3 AND SWAP6 SWAP3 SWAP5 SWAP3 SWAP2 AND PUSH1 0x1 PUSH1 0x1 PUSH1 0x40 SHL SUB PUSH2 0x2AF0 DUP9 ADD SWAP1 DUP2 GT SWAP1 DUP9 GT OR PUSH3 0x10FF JUMPI PUSH2 0x2AF0 PUSH3 0x6607 DUP9 CODECOPY PUSH2 0x260 MLOAD PUSH1 0x1 PUSH1 0x1 PUSH1 0xA0 SHL SUB SWAP1 DUP2 AND PUSH2 0x2AF0 DUP10 ADD SWAP1 DUP2 MSTORE ADDRESS PUSH1 0x20 DUP3 ADD MSTORE PUSH1 0x40 DUP2 ADD SWAP3 SWAP1 SWAP3 MSTORE PUSH1 0x60 DUP3 ADD SWAP3 SWAP1 SWAP3 MSTORE PUSH1 0x80 DUP2 ADD SWAP3 SWAP1 SWAP3 MSTORE PUSH1 0xA0 DUP3 ADD SWAP3 SWAP1 SWAP3 MSTORE PUSH1 0xC0 DUP2 ADD SWAP3 SWAP1 SWAP3 MSTORE PUSH1 0xE0 DUP3 ADD SWAP3 SWAP1 SWAP3 MSTORE SWAP1 DUP12 AND PUSH2 0x100 DUP3 ADD MSTORE DUP2 SWAP1 SUB PUSH2 0x120 ADD SWAP1 PUSH1 0x0 CREATE SWAP11 DUP12 ISZERO PUSH3 0xF92 JUMPI DUP11 DUP10 DUP2 MUL DIV DUP10 SUB PUSH3 0x10E9 JUMPI DUP12 PUSH3 0x51AB PUSH1 0x20 PUSH3 0x2745 DUP15 PUSH2 0x2710 DUP15 DUP3 MUL DIV SWAP1 PUSH3 0x62A6 JUMP JUMPDEST SUB DUP2 PUSH1 0x0 PUSH1 0x1 DUP1 PUSH1 0xA0 SHL SUB PUSH2 0x260 MLOAD AND GAS CALL SWAP1 DUP2 ISZERO PUSH3 0xF92 JUMPI PUSH1 0x0 SWAP2 PUSH3 0x5C40 JUMPI JUMPDEST POP ISZERO PUSH3 0x1089 JUMPI DUP10 DUP13 PUSH2 0x2710 DUP3 DUP3 MUL DIV PUSH3 0x5BC2 JUMPI JUMPDEST POP POP PUSH1 0x1 PUSH1 0x1 PUSH1 0xA0 SHL SUB DUP14 AND EXTCODESIZE ISZERO PUSH3 0x8D6 JUMPI PUSH1 0x0 DUP14 PUSH1 0x24 DUP3 SWAP4 PUSH1 0x40 MLOAD SWAP5 DUP6 SWAP4 DUP5 SWAP3 PUSH4 0x95564837 PUSH1 0xE0 SHL DUP5 MSTORE PUSH1 0x4 DUP5 ADD MSTORE PUSH1 0x1 DUP1 PUSH1 0xA0 SHL SUB AND GAS CALL DUP1 ISZERO PUSH3 0xF92 JUMPI PUSH3 0x5BAA JUMPI JUMPDEST POP PUSH2 0x280 MLOAD ISZERO PUSH3 0x5AC5 JUMPI PUSH1 0x1 PUSH1 0x1 PUSH1 0xA0 SHL SUB DUP13 AND EXTCODESIZE ISZERO PUSH3 0x5AE7 JUMPI PUSH1 0x40 MLOAD PUSH4 0x9485DC9 PUSH1 0xE2 SHL DUP2 MSTORE DUP13 DUP2 PUSH1 0x4 DUP2 PUSH2 0x280 MLOAD SWAP4 PUSH2 0x280 MLOAD SWAP1 PUSH1 0x1 DUP1 PUSH1 0xA0 SHL SUB AND GAS CALL DUP1 ISZERO PUSH3 0x5697 JUMPI PUSH3 0x5B8F JUMPI JUMPDEST POP PUSH1 0x4 PUSH1 0x20 DUP14 PUSH1 0x40 MLOAD SWAP3 DUP4 DUP1 SWAP3 PUSH4 0x6B456EF PUSH1 0xE2 SHL DUP3 MSTORE PUSH1 0x1 DUP1 PUSH1 0xA0 SHL SUB AND GAS STATICCALL SWAP1 DUP2 ISZERO PUSH3 0x5697 JUMPI PUSH2 0x280 MLOAD SWAP2 PUSH3 0x5B6B JUMPI JUMPDEST POP PUSH1 0x1 PUSH1 0x1 PUSH1 0xA0 SHL SUB DUP2 AND PUSH3 0x5AFA JUMPI JUMPDEST POP DUP1 ISZERO SWAP1 PUSH3 0x5AEE JUMPI JUMPDEST PUSH3 0x5A7B JUMPI JUMPDEST PUSH2 0x260 MLOAD PUSH2 0x280 DUP1 MLOAD PUSH1 0x1 PUSH1 0x1 PUSH1 0xA0 SHL SUB SWAP3 DUP4 AND SWAP1 MSTORE PUSH1 0xB PUSH1 0x20 MSTORE MLOAD PUSH1 0x40 SWAP1 KECCAK256 DUP1 SLOAD PUSH1 0x1 PUSH1 0x1 PUSH1 0xA0 SHL SUB NOT AND SWAP2 DUP14 AND SWAP2 SWAP1 SWAP2 OR SWAP1 SSTORE PUSH1 0xA SLOAD SWAP12 PUSH1 0x1 PUSH1 0x40 SHL DUP14 LT ISZERO PUSH3 0x57BE JUMPI PUSH1 0x1 DUP14 ADD PUSH1 0xA SSTORE PUSH3 0x5328 DUP14 PUSH3 0x5FE7 JUMP JUMPDEST POP POP PUSH3 0x5335 DUP14 PUSH3 0x5FE7 JUMP JUMPDEST POP SWAP8 PUSH1 0x1 DUP1 PUSH1 0xA0 SHL SUB PUSH2 0x260 MLOAD AND PUSH1 0x1 PUSH1 0x1 PUSH1 0x60 SHL SUB PUSH1 0xA0 SHL DUP11 SLOAD AND OR DUP10 SSTORE PUSH1 0x1 DUP10 ADD DUP14 PUSH1 0x1 DUP1 PUSH1 0xA0 SHL SUB AND PUSH1 0x1 PUSH1 0x1 PUSH1 0x60 SHL SUB PUSH1 0xA0 SHL DUP3 SLOAD AND OR SWAP1 SSTORE PUSH1 0x2 DUP10 ADD CALLER PUSH1 0x1 PUSH1 0x1 PUSH1 0x60 SHL SUB PUSH1 0xA0 SHL DUP3 SLOAD AND OR SWAP1 SSTORE PUSH1 0x1 PUSH1 0x1 PUSH1 0x40 SHL SUB DUP3 GT PUSH3 0x57BE JUMPI DUP2 SWAP1 PUSH3 0x53A8 PUSH1 0x3 DUP12 ADD SLOAD PUSH3 0x6038 JUMP JUMPDEST PUSH1 0x1F DUP2 GT PUSH3 0x5A1D JUMPI JUMPDEST POP PUSH2 0x280 MLOAD SWAP1 PUSH1 0x1F DUP4 GT PUSH1 0x1 EQ PUSH3 0x59A6 JUMPI PUSH2 0x280 MLOAD SWAP3 PUSH3 0x599A JUMPI JUMPDEST POP POP DUP2 PUSH1 0x1 SHL SWAP2 PUSH1 0x0 NOT SWAP1 PUSH1 0x3 SHL SHR NOT AND OR PUSH1 0x3 DUP9 ADD SSTORE JUMPDEST PUSH1 0x1 PUSH1 0x1 PUSH1 0x40 SHL SUB DUP3 GT PUSH3 0x57BE JUMPI DUP2 SWAP1 PUSH3 0x5407 PUSH1 0x4 DUP10 ADD SLOAD PUSH3 0x6038 JUMP JUMPDEST PUSH1 0x1F DUP2 GT PUSH3 0x593C JUMPI JUMPDEST POP PUSH2 0x280 MLOAD SWAP1 PUSH1 0x1F DUP4 GT PUSH1 0x1 EQ PUSH3 0x58C5 JUMPI PUSH2 0x280 MLOAD SWAP3 PUSH3 0x58B9 JUMPI JUMPDEST POP POP DUP2 PUSH1 0x1 SHL SWAP2 PUSH1 0x0 NOT SWAP1 PUSH1 0x3 SHL SHR NOT AND OR PUSH1 0x4 DUP7 ADD SSTORE JUMPDEST PUSH1 0x1 PUSH1 0x1 PUSH1 0x40 SHL SUB DUP3 GT PUSH3 0x57BE JUMPI DUP2 SWAP1 PUSH3 0x5466 PUSH1 0x5 DUP8 ADD SLOAD PUSH3 0x6038 JUMP JUMPDEST PUSH1 0x1F DUP2 GT PUSH3 0x585B JUMPI JUMPDEST POP PUSH2 0x280 MLOAD SWAP1 PUSH1 0x1F DUP4 GT PUSH1 0x1 EQ PUSH3 0x57E4 JUMPI PUSH2 0x280 MLOAD SWAP3 PUSH3 0x57D8 JUMPI JUMPDEST POP POP DUP2 PUSH1 0x1 SHL SWAP2 PUSH1 0x0 NOT SWAP1 PUSH1 0x3 SHL SHR NOT AND OR PUSH1 0x5 DUP5 ADD SSTORE JUMPDEST PUSH1 0x1 PUSH1 0x1 PUSH1 0x40 SHL SUB DUP3 GT PUSH3 0x57BE JUMPI DUP2 SWAP1 PUSH3 0x54C5 PUSH1 0x6 DUP6 ADD SLOAD PUSH3 0x6038 JUMP JUMPDEST PUSH1 0x1F DUP2 GT PUSH3 0x5760 JUMPI JUMPDEST POP PUSH2 0x280 MLOAD SWAP1 PUSH1 0x1F DUP4 GT PUSH1 0x1 EQ PUSH3 0x56E9 JUMPI PUSH2 0x280 MLOAD SWAP3 PUSH3 0x56DD JUMPI JUMPDEST POP POP DUP2 PUSH1 0x1 SHL SWAP2 PUSH1 0x0 NOT SWAP1 PUSH1 0x3 SHL SHR NOT AND OR PUSH1 0x6 DUP3 ADD SSTORE JUMPDEST DUP4 PUSH1 0x7 DUP3 ADD SSTORE PUSH2 0x2710 DUP3 DUP6 MUL DIV PUSH1 0x8 DUP3 ADD SSTORE PUSH1 0x9 TIMESTAMP SWAP2 ADD SSTORE PUSH1 0x3 SLOAD PUSH1 0x7 SLOAD SWAP1 PUSH2 0x2710 PUSH1 0x1 DUP1 PUSH1 0xA0 SHL SUB PUSH1 0x8 SLOAD AND SWAP4 PUSH1 0x40 MLOAD SWAP7 PUSH1 0x1 DUP1 PUSH1 0xA0 SHL SUB DUP10 AND DUP9 MSTORE DUP1 PUSH1 0x20 DUP10 ADD MSTORE MUL DIV PUSH1 0x40 DUP7 ADD MSTORE PUSH1 0x60 DUP6 ADD MSTORE PUSH1 0x80 DUP5 ADD MSTORE PUSH1 0xA0 DUP4 ADD MSTORE PUSH1 0x1 DUP1 PUSH1 0xA0 SHL SUB AND PUSH1 0xC0 DUP3 ADD MSTORE PUSH1 0x1 DUP1 PUSH1 0xA0 SHL SUB PUSH2 0x260 MLOAD AND SWAP1 DUP4 PUSH1 0x0 DUP1 MLOAD PUSH1 0x20 PUSH3 0xA91F DUP4 CODECOPY DUP2 MLOAD SWAP2 MSTORE PUSH1 0xE0 CALLER SWAP4 LOG4 PUSH1 0x40 MLOAD PUSH4 0x17773EBB PUSH1 0xE0 SHL DUP2 MSTORE PUSH2 0x260 MLOAD PUSH1 0x20 SWAP1 DUP3 SWAP1 PUSH1 0x4 SWAP1 DUP3 SWAP1 PUSH1 0x1 PUSH1 0x1 PUSH1 0xA0 SHL SUB AND GAS STATICCALL SWAP1 DUP2 ISZERO PUSH3 0x5697 JUMPI PUSH2 0x280 MLOAD SWAP2 PUSH3 0x56A5 JUMPI JUMPDEST POP PUSH1 0x40 MLOAD PUSH4 0x116E689F PUSH1 0xE1 SHL DUP2 MSTORE PUSH2 0x260 MLOAD PUSH1 0x20 SWAP1 DUP3 SWAP1 PUSH1 0x4 SWAP1 DUP3 SWAP1 PUSH1 0x1 PUSH1 0x1 PUSH1 0xA0 SHL SUB AND GAS STATICCALL SWAP1 DUP2 ISZERO PUSH3 0x5697 JUMPI PUSH2 0x280 MLOAD SWAP2 PUSH3 0x565F JUMPI JUMPDEST POP PUSH1 0x40 MLOAD SWAP2 PUSH1 0x32 DUP4 MSTORE PUSH1 0x20 DUP4 ADD MSTORE PUSH1 0x40 DUP3 ADD MSTORE DUP3 PUSH1 0x0 DUP1 MLOAD PUSH1 0x20 PUSH3 0xA8FF DUP4 CODECOPY DUP2 MLOAD SWAP2 MSTORE PUSH1 0x60 PUSH1 0x1 DUP1 PUSH1 0xA0 SHL SUB PUSH2 0x260 MLOAD AND SWAP4 LOG3 PUSH1 0x40 DUP1 MLOAD PUSH2 0x260 MLOAD SWAP4 DUP2 MSTORE PUSH1 0x1 PUSH1 0x1 PUSH1 0xA0 SHL SUB SWAP4 DUP5 AND PUSH1 0x20 DUP3 ADD MSTORE SWAP2 SWAP1 SWAP3 AND SWAP2 DUP2 ADD SWAP2 SWAP1 SWAP2 MSTORE PUSH1 0x60 SWAP1 RETURN JUMPDEST SWAP1 POP PUSH1 0x20 DUP2 RETURNDATASIZE PUSH1 0x20 GT PUSH3 0x568E JUMPI JUMPDEST DUP2 PUSH3 0x567D PUSH1 0x20 SWAP4 DUP4 PUSH3 0x5F74 JUMP JUMPDEST DUP2 ADD SUB SLT PUSH3 0x8D6 JUMPI MLOAD DUP5 PUSH3 0x5600 JUMP JUMPDEST RETURNDATASIZE SWAP2 POP PUSH3 0x566E JUMP JUMPDEST PUSH1 0x40 MLOAD RETURNDATASIZE PUSH2 0x280 MLOAD DUP3 RETURNDATACOPY RETURNDATASIZE SWAP1 REVERT JUMPDEST SWAP1 POP PUSH1 0x20 DUP2 RETURNDATASIZE PUSH1 0x20 GT PUSH3 0x56D4 JUMPI JUMPDEST DUP2 PUSH3 0x56C3 PUSH1 0x20 SWAP4 DUP4 PUSH3 0x5F74 JUMP JUMPDEST DUP2 ADD SUB SLT PUSH3 0x8D6 JUMPI MLOAD DUP4 PUSH3 0x55C6 JUMP JUMPDEST RETURNDATASIZE SWAP2 POP PUSH3 0x56B4 JUMP JUMPDEST ADD CALLDATALOAD SWAP1 POP DUP9 DUP1 PUSH3 0x54EC JUMP JUMPDEST PUSH2 0x280 DUP1 MLOAD PUSH1 0x6 DUP8 ADD SWAP1 MSTORE MLOAD PUSH1 0x20 DUP2 KECCAK256 SWAP1 SWAP5 POP SWAP2 JUMPDEST PUSH1 0x1F NOT DUP5 AND DUP6 LT PUSH3 0x5747 JUMPI PUSH1 0x1 SWAP5 POP DUP4 PUSH1 0x1F NOT DUP2 AND LT PUSH3 0x572C JUMPI JUMPDEST POP POP POP DUP2 SHL ADD PUSH1 0x6 DUP3 ADD SSTORE PUSH3 0x5504 JUMP JUMPDEST ADD CALLDATALOAD PUSH1 0x0 NOT PUSH1 0x3 DUP5 SWAP1 SHL PUSH1 0xF8 AND SHR NOT AND SWAP1 SSTORE DUP9 DUP1 DUP1 PUSH3 0x571B JUMP JUMPDEST DUP2 DUP2 ADD CALLDATALOAD DUP4 SSTORE PUSH1 0x20 SWAP5 DUP6 ADD SWAP5 PUSH1 0x1 SWAP1 SWAP4 ADD SWAP3 ADD PUSH3 0x56FE JUMP JUMPDEST SWAP1 SWAP2 POP PUSH1 0x6 DUP5 ADD PUSH2 0x280 MLOAD MSTORE PUSH1 0x20 PUSH2 0x280 MLOAD KECCAK256 PUSH1 0x1F DUP5 ADD PUSH1 0x5 SHR DUP2 ADD PUSH1 0x20 DUP6 LT PUSH3 0x57B6 JUMPI JUMPDEST SWAP1 DUP5 SWAP4 SWAP3 SWAP2 JUMPDEST PUSH1 0x1F DUP4 ADD PUSH1 0x5 SHR DUP3 ADD DUP2 LT PUSH3 0x57A4 JUMPI POP POP PUSH3 0x54CF JUMP JUMPDEST PUSH2 0x280 MLOAD DUP2 SSTORE DUP6 SWAP5 POP PUSH1 0x1 ADD PUSH3 0x578C JUMP JUMPDEST POP DUP1 PUSH3 0x5786 JUMP JUMPDEST PUSH4 0x4E487B71 PUSH1 0xE0 SHL PUSH2 0x280 MLOAD MSTORE PUSH1 0x41 PUSH1 0x4 MSTORE PUSH1 0x24 PUSH2 0x280 MLOAD REVERT JUMPDEST ADD CALLDATALOAD SWAP1 POP DUP11 DUP1 PUSH3 0x548D JUMP JUMPDEST PUSH2 0x280 DUP1 MLOAD PUSH1 0x5 DUP10 ADD SWAP1 MSTORE MLOAD PUSH1 0x20 DUP2 KECCAK256 SWAP1 SWAP5 POP SWAP2 JUMPDEST PUSH1 0x1F NOT DUP5 AND DUP6 LT PUSH3 0x5842 JUMPI PUSH1 0x1 SWAP5 POP DUP4 PUSH1 0x1F NOT DUP2 AND LT PUSH3 0x5827 JUMPI JUMPDEST POP POP POP DUP2 SHL ADD PUSH1 0x5 DUP5 ADD SSTORE PUSH3 0x54A5 JUMP JUMPDEST ADD CALLDATALOAD PUSH1 0x0 NOT PUSH1 0x3 DUP5 SWAP1 SHL PUSH1 0xF8 AND SHR NOT AND SWAP1 SSTORE DUP11 DUP1 DUP1 PUSH3 0x5816 JUMP JUMPDEST DUP2 DUP2 ADD CALLDATALOAD DUP4 SSTORE PUSH1 0x20 SWAP5 DUP6 ADD SWAP5 PUSH1 0x1 SWAP1 SWAP4 ADD SWAP3 ADD PUSH3 0x57F9 JUMP JUMPDEST SWAP1 SWAP2 POP PUSH1 0x5 DUP7 ADD PUSH2 0x280 MLOAD MSTORE PUSH1 0x20 PUSH2 0x280 MLOAD KECCAK256 PUSH1 0x1F DUP5 ADD PUSH1 0x5 SHR DUP2 ADD PUSH1 0x20 DUP6 LT PUSH3 0x58B1 JUMPI JUMPDEST SWAP1 DUP5 SWAP4 SWAP3 SWAP2 JUMPDEST PUSH1 0x1F DUP4 ADD PUSH1 0x5 SHR DUP3 ADD DUP2 LT PUSH3 0x589F JUMPI POP POP PUSH3 0x5470 JUMP JUMPDEST PUSH2 0x280 MLOAD DUP2 SSTORE DUP6 SWAP5 POP PUSH1 0x1 ADD PUSH3 0x5887 JUMP JUMPDEST POP DUP1 PUSH3 0x5881 JUMP JUMPDEST ADD CALLDATALOAD SWAP1 POP DUP13 DUP1 PUSH3 0x542E JUMP JUMPDEST PUSH2 0x280 DUP1 MLOAD PUSH1 0x4 DUP12 ADD SWAP1 MSTORE MLOAD PUSH1 0x20 DUP2 KECCAK256 SWAP1 SWAP5 POP SWAP2 JUMPDEST PUSH1 0x1F NOT DUP5 AND DUP6 LT PUSH3 0x5923 JUMPI PUSH1 0x1 SWAP5 POP DUP4 PUSH1 0x1F NOT DUP2 AND LT PUSH3 0x5908 JUMPI JUMPDEST POP POP POP DUP2 SHL ADD PUSH1 0x4 DUP7 ADD SSTORE PUSH3 0x5446 JUMP JUMPDEST ADD CALLDATALOAD PUSH1 0x0 NOT PUSH1 0x3 DUP5 SWAP1 SHL PUSH1 0xF8 AND SHR NOT AND SWAP1 SSTORE DUP13 DUP1 DUP1 PUSH3 0x58F7 JUMP JUMPDEST DUP2 DUP2 ADD CALLDATALOAD DUP4 SSTORE PUSH1 0x20 SWAP5 DUP6 ADD SWAP5 PUSH1 0x1 SWAP1 SWAP4 ADD SWAP3 ADD PUSH3 0x58DA JUMP JUMPDEST SWAP1 SWAP2 POP PUSH1 0x4 DUP9 ADD PUSH2 0x280 MLOAD MSTORE PUSH1 0x20 PUSH2 0x280 MLOAD KECCAK256 PUSH1 0x1F DUP5 ADD PUSH1 0x5 SHR DUP2 ADD PUSH1 0x20 DUP6 LT PUSH3 0x5992 JUMPI JUMPDEST SWAP1 DUP5 SWAP4 SWAP3 SWAP2 JUMPDEST PUSH1 0x1F DUP4 ADD PUSH1 0x5 SHR DUP3 ADD DUP2 LT PUSH3 0x5980 JUMPI POP POP PUSH3 0x5411 JUMP JUMPDEST PUSH2 0x280 MLOAD DUP2 SSTORE DUP6 SWAP5 POP PUSH1 0x1 ADD PUSH3 0x5968 JUMP JUMPDEST POP DUP1 PUSH3 0x5962 JUMP JUMPDEST ADD CALLDATALOAD SWAP1 POP DUP15 DUP1 PUSH3 0x53CF JUMP JUMPDEST PUSH2 0x280 DUP1 MLOAD PUSH1 0x3 DUP14 ADD SWAP1 MSTORE MLOAD PUSH1 0x20 DUP2 KECCAK256 SWAP1 SWAP5 POP SWAP2 JUMPDEST PUSH1 0x1F NOT DUP5 AND DUP6 LT PUSH3 0x5A04 JUMPI PUSH1 0x1 SWAP5 POP DUP4 PUSH1 0x1F NOT DUP2 AND LT PUSH3 0x59E9 JUMPI JUMPDEST POP POP POP DUP2 SHL ADD PUSH1 0x3 DUP9 ADD SSTORE PUSH3 0x53E7 JUMP JUMPDEST ADD CALLDATALOAD PUSH1 0x0 NOT PUSH1 0x3 DUP5 SWAP1 SHL PUSH1 0xF8 AND SHR NOT AND SWAP1 SSTORE DUP15 DUP1 DUP1 PUSH3 0x59D8 JUMP JUMPDEST DUP2 DUP2 ADD CALLDATALOAD DUP4 SSTORE PUSH1 0x20 SWAP5 DUP6 ADD SWAP5 PUSH1 0x1 SWAP1 SWAP4 ADD SWAP3 ADD PUSH3 0x59BB JUMP JUMPDEST SWAP1 SWAP2 POP PUSH1 0x3 DUP11 ADD PUSH2 0x280 MLOAD MSTORE PUSH1 0x20 PUSH2 0x280 MLOAD KECCAK256 PUSH1 0x1F DUP5 ADD PUSH1 0x5 SHR DUP2 ADD PUSH1 0x20 DUP6 LT PUSH3 0x5A73 JUMPI JUMPDEST SWAP1 DUP5 SWAP4 SWAP3 SWAP2 JUMPDEST PUSH1 0x1F DUP4 ADD PUSH1 0x5 SHR DUP3 ADD DUP2 LT PUSH3 0x5A61 JUMPI POP POP PUSH3 0x53B2 JUMP JUMPDEST PUSH2 0x280 MLOAD DUP2 SSTORE DUP6 SWAP5 POP PUSH1 0x1 ADD PUSH3 0x5A49 JUMP JUMPDEST POP DUP1 PUSH3 0x5A43 JUMP JUMPDEST PUSH2 0x260 MLOAD PUSH1 0x1 PUSH1 0x1 PUSH1 0xA0 SHL SUB AND EXTCODESIZE ISZERO PUSH3 0x5AE7 JUMPI PUSH1 0x40 MLOAD PUSH4 0x6E258E07 PUSH1 0xE1 SHL DUP2 MSTORE PUSH2 0x280 MLOAD PUSH2 0x260 MLOAD DUP3 SWAP1 PUSH1 0x4 SWAP1 DUP3 SWAP1 DUP5 SWAP1 PUSH1 0x1 PUSH1 0x1 PUSH1 0xA0 SHL SUB AND GAS CALL DUP1 ISZERO PUSH3 0x5697 JUMPI PUSH3 0x5ACC JUMPI JUMPDEST POP PUSH3 0x52D0 JUMP JUMPDEST PUSH3 0x5AD7 SWAP1 PUSH3 0x5F60 JUMP JUMPDEST PUSH2 0x280 MLOAD PUSH3 0x5AE7 JUMPI DUP13 PUSH3 0x5AC5 JUMP JUMPDEST PUSH2 0x280 MLOAD DUP1 REVERT JUMPDEST POP PUSH2 0x1237 CHAINID EQ PUSH3 0x52CA JUMP JUMPDEST PUSH2 0x260 MLOAD PUSH1 0x1 PUSH1 0x1 PUSH1 0xA0 SHL SUB AND EXTCODESIZE ISZERO PUSH3 0x5AE7 JUMPI PUSH1 0x40 MLOAD PUSH4 0x15C6DEB9 PUSH1 0xE3 SHL DUP2 MSTORE PUSH1 0x1 PUSH1 0x1 PUSH1 0xA0 SHL SUB SWAP2 DUP3 AND PUSH1 0x4 DUP3 ADD MSTORE PUSH2 0x280 MLOAD PUSH2 0x260 MLOAD SWAP2 SWAP3 SWAP1 SWAP2 DUP4 SWAP2 PUSH1 0x24 SWAP2 DUP4 SWAP2 DUP6 SWAP2 AND GAS CALL DUP1 ISZERO PUSH3 0x5697 JUMPI ISZERO PUSH3 0x52C0 JUMPI PUSH3 0x5B5B SWAP1 PUSH3 0x5F60 JUMP JUMPDEST PUSH2 0x280 MLOAD PUSH3 0x5AE7 JUMPI DUP14 PUSH3 0x52C0 JUMP JUMPDEST PUSH3 0x5B88 SWAP2 POP PUSH1 0x20 RETURNDATASIZE PUSH1 0x20 GT PUSH3 0xDCC JUMPI PUSH3 0xDBC DUP2 DUP4 PUSH3 0x5F74 JUMP JUMPDEST DUP15 PUSH3 0x52AF JUMP JUMPDEST PUSH3 0x5B9A SWAP1 PUSH3 0x5F60 JUMP JUMPDEST PUSH2 0x280 MLOAD PUSH3 0x5AE7 JUMPI DUP14 PUSH3 0x527B JUMP JUMPDEST PUSH3 0x5BB5 SWAP1 PUSH3 0x5F60 JUMP JUMPDEST PUSH1 0x0 PUSH2 0x280 MSTORE DUP14 PUSH3 0x522C JUMP JUMPDEST PUSH1 0x40 MLOAD PUSH4 0xA9059CBB PUSH1 0xE0 SHL DUP2 MSTORE CALLER PUSH1 0x4 DUP3 ADD MSTORE PUSH2 0x2710 SWAP2 SWAP1 SWAP3 MUL DIV PUSH1 0x24 DUP3 ADD MSTORE PUSH1 0x20 DUP2 DUP1 PUSH1 0x44 DUP2 ADD SUB DUP2 PUSH1 0x0 PUSH1 0x1 DUP1 PUSH1 0xA0 SHL SUB PUSH2 0x260 MLOAD AND GAS CALL SWAP1 DUP2 ISZERO PUSH3 0xF92 JUMPI PUSH1 0x0 SWAP2 PUSH3 0x5C1C JUMPI JUMPDEST POP ISZERO PUSH3 0x100E JUMPI DUP10 DUP13 PUSH3 0x51E4 JUMP JUMPDEST PUSH3 0x5C39 SWAP2 POP PUSH1 0x20 RETURNDATASIZE PUSH1 0x20 GT PUSH3 0x1081 JUMPI PUSH3 0x1071 DUP2 DUP4 PUSH3 0x5F74 JUMP JUMPDEST DUP16 PUSH3 0x5C0D JUMP JUMPDEST PUSH3 0x5C5D SWAP2 POP PUSH1 0x20 RETURNDATASIZE PUSH1 0x20 GT PUSH3 0x1081 JUMPI PUSH3 0x1071 DUP2 DUP4 PUSH3 0x5F74 JUMP JUMPDEST DUP16 PUSH3 0x51CE JUMP JUMPDEST CALLVALUE PUSH3 0x8D6 JUMPI PUSH1 0x20 CALLDATASIZE PUSH1 0x3 NOT ADD SLT PUSH3 0x8D6 JUMPI PUSH1 0x20 SWAP1 PUSH1 0x1 PUSH1 0x1 PUSH1 0xA0 SHL SUB DUP1 PUSH3 0x5C8D PUSH3 0x5CA0 JUMP JUMPDEST AND PUSH1 0x0 MSTORE PUSH1 0xB DUP4 MSTORE PUSH1 0x40 PUSH1 0x0 KECCAK256 SLOAD AND DUP2 MSTORE RETURN JUMPDEST PUSH1 0x4 CALLDATALOAD SWAP1 PUSH1 0x1 PUSH1 0x1 PUSH1 0xA0 SHL SUB DUP3 AND DUP3 SUB PUSH3 0x8D6 JUMPI JUMP JUMPDEST SWAP2 DUP2 PUSH1 0x1F DUP5 ADD SLT ISZERO PUSH3 0x8D6 JUMPI DUP3 CALLDATALOAD SWAP2 PUSH1 0x1 PUSH1 0x1 PUSH1 0x40 SHL SUB DUP4 GT PUSH3 0x8D6 JUMPI PUSH1 0x20 DUP4 DUP2 DUP7 ADD SWAP6 ADD ADD GT PUSH3 0x8D6 JUMPI JUMP JUMPDEST PUSH1 0xC0 PUSH1 0x3 NOT DUP3 ADD SLT PUSH3 0x8D6 JUMPI PUSH1 0x1 PUSH1 0x1 PUSH1 0x40 SHL SUB SWAP1 PUSH1 0x4 CALLDATALOAD DUP3 DUP2 GT PUSH3 0x8D6 JUMPI DUP2 PUSH3 0x5D17 SWAP2 PUSH1 0x4 ADD PUSH3 0x5CB7 JUMP JUMPDEST SWAP4 SWAP1 SWAP4 SWAP3 PUSH1 0x24 CALLDATALOAD DUP2 DUP2 GT PUSH3 0x8D6 JUMPI DUP4 PUSH3 0x5D35 SWAP2 PUSH1 0x4 ADD PUSH3 0x5CB7 JUMP JUMPDEST SWAP4 SWAP1 SWAP4 SWAP3 PUSH1 0x44 CALLDATALOAD DUP4 DUP2 GT PUSH3 0x8D6 JUMPI DUP3 PUSH3 0x5D53 SWAP2 PUSH1 0x4 ADD PUSH3 0x5CB7 JUMP JUMPDEST SWAP4 SWAP1 SWAP4 SWAP3 PUSH1 0x64 CALLDATALOAD SWAP2 DUP3 GT PUSH3 0x8D6 JUMPI PUSH3 0x5D70 SWAP2 PUSH1 0x4 ADD PUSH3 0x5CB7 JUMP JUMPDEST SWAP1 SWAP2 PUSH1 0x84 CALLDATALOAD SWAP1 PUSH1 0xA4 CALLDATALOAD SWAP1 JUMP JUMPDEST PUSH1 0xE0 PUSH1 0x3 NOT DUP3 ADD SLT PUSH3 0x8D6 JUMPI PUSH1 0x1 PUSH1 0x1 PUSH1 0x40 SHL SUB SWAP1 PUSH1 0x4 CALLDATALOAD DUP3 DUP2 GT PUSH3 0x8D6 JUMPI DUP2 PUSH3 0x5DAC SWAP2 PUSH1 0x4 ADD PUSH3 0x5CB7 JUMP JUMPDEST SWAP4 SWAP1 SWAP4 SWAP3 PUSH1 0x24 CALLDATALOAD DUP2 DUP2 GT PUSH3 0x8D6 JUMPI DUP4 PUSH3 0x5DCA SWAP2 PUSH1 0x4 ADD PUSH3 0x5CB7 JUMP JUMPDEST SWAP4 SWAP1 SWAP4 SWAP3 PUSH1 0x44 CALLDATALOAD DUP4 DUP2 GT PUSH3 0x8D6 JUMPI DUP3 PUSH3 0x5DE8 SWAP2 PUSH1 0x4 ADD PUSH3 0x5CB7 JUMP JUMPDEST SWAP4 SWAP1 SWAP4 SWAP3 PUSH1 0x64 CALLDATALOAD SWAP2 DUP3 GT PUSH3 0x8D6 JUMPI PUSH3 0x5E05 SWAP2 PUSH1 0x4 ADD PUSH3 0x5CB7 JUMP JUMPDEST SWAP1 SWAP2 PUSH1 0x84 CALLDATALOAD SWAP1 PUSH1 0xA4 CALLDATALOAD SWAP1 PUSH1 0xC4 CALLDATALOAD SWAP1 JUMP JUMPDEST SWAP2 SWAP1 DUP3 MLOAD SWAP3 DUP4 DUP3 MSTORE PUSH1 0x0 JUMPDEST DUP5 DUP2 LT PUSH3 0x5E42 JUMPI POP POP DUP3 PUSH1 0x0 PUSH1 0x20 DUP1 SWAP5 SWAP6 DUP5 ADD ADD MSTORE PUSH1 0x1F DUP1 NOT SWAP2 ADD AND ADD ADD SWAP1 JUMP JUMPDEST PUSH1 0x20 DUP2 DUP4 ADD DUP2 ADD MLOAD DUP5 DUP4 ADD DUP3 ADD MSTORE ADD PUSH3 0x5E20 JUMP JUMPDEST SWAP1 PUSH3 0x5EDD PUSH3 0x5ECA PUSH3 0x5EB7 PUSH3 0x5EA4 PUSH2 0x140 PUSH1 0x1 DUP1 PUSH1 0xA0 SHL SUB DUP1 DUP9 MLOAD AND DUP8 MSTORE DUP1 PUSH1 0x20 DUP10 ADD MLOAD AND PUSH1 0x20 DUP9 ADD MSTORE PUSH1 0x40 DUP9 ADD MLOAD AND PUSH1 0x40 DUP8 ADD MSTORE PUSH1 0x60 DUP8 ADD MLOAD SWAP1 DUP1 PUSH1 0x60 DUP9 ADD MSTORE DUP7 ADD SWAP1 PUSH3 0x5E15 JUMP JUMPDEST PUSH1 0x80 DUP7 ADD MLOAD DUP6 DUP3 SUB PUSH1 0x80 DUP8 ADD MSTORE PUSH3 0x5E15 JUMP JUMPDEST PUSH1 0xA0 DUP6 ADD MLOAD DUP5 DUP3 SUB PUSH1 0xA0 DUP7 ADD MSTORE PUSH3 0x5E15 JUMP JUMPDEST PUSH1 0xC0 DUP5 ADD MLOAD DUP4 DUP3 SUB PUSH1 0xC0 DUP6 ADD MSTORE PUSH3 0x5E15 JUMP JUMPDEST SWAP2 PUSH1 0xE0 DUP2 ADD MLOAD PUSH1 0xE0 DUP4 ADD MSTORE PUSH2 0x100 DUP1 DUP3 ADD MLOAD SWAP1 DUP4 ADD MSTORE PUSH2 0x120 DUP1 SWAP2 ADD MLOAD SWAP2 ADD MSTORE SWAP1 JUMP JUMPDEST ISZERO PUSH3 0x5F08 JUMPI JUMP JUMPDEST PUSH1 0x40 MLOAD PUSH3 0x461BCD PUSH1 0xE5 SHL DUP2 MSTORE PUSH1 0x20 PUSH1 0x4 DUP3 ADD MSTORE PUSH1 0x13 PUSH1 0x24 DUP3 ADD MSTORE PUSH19 0xD8C2EADCC6D040CCCACA40DAD2E6DAC2E8C6D PUSH1 0x6B SHL PUSH1 0x44 DUP3 ADD MSTORE PUSH1 0x64 SWAP1 REVERT JUMPDEST PUSH2 0x140 DUP2 ADD SWAP1 DUP2 LT PUSH1 0x1 PUSH1 0x1 PUSH1 0x40 SHL SUB DUP3 GT OR PUSH3 0x10FF JUMPI PUSH1 0x40 MSTORE JUMP JUMPDEST PUSH1 0x1 PUSH1 0x1 PUSH1 0x40 SHL SUB DUP2 GT PUSH3 0x10FF JUMPI PUSH1 0x40 MSTORE JUMP JUMPDEST SWAP1 PUSH1 0x1F DUP1 NOT SWAP2 ADD AND DUP2 ADD SWAP1 DUP2 LT PUSH1 0x1 PUSH1 0x1 PUSH1 0x40 SHL SUB DUP3 GT OR PUSH3 0x10FF JUMPI PUSH1 0x40 MSTORE JUMP JUMPDEST PUSH1 0x40 MLOAD SWAP1 PUSH3 0x5FA5 DUP3 PUSH3 0x5F43 JUMP JUMPDEST DUP2 PUSH2 0x120 PUSH1 0x0 SWAP2 DUP3 DUP2 MSTORE DUP3 PUSH1 0x20 DUP3 ADD MSTORE DUP3 PUSH1 0x40 DUP3 ADD MSTORE PUSH1 0x60 DUP1 DUP3 ADD MSTORE PUSH1 0x60 PUSH1 0x80 DUP3 ADD MSTORE PUSH1 0x60 PUSH1 0xA0 DUP3 ADD MSTORE PUSH1 0x60 PUSH1 0xC0 DUP3 ADD MSTORE DUP3 PUSH1 0xE0 DUP3 ADD MSTORE DUP3 PUSH2 0x100 DUP3 ADD MSTORE ADD MSTORE JUMP JUMPDEST PUSH1 0xA SLOAD DUP2 LT ISZERO PUSH3 0x6022 JUMPI PUSH1 0xA SWAP1 DUP2 PUSH1 0x0 MSTORE MUL PUSH32 0xC65A7BB8D6351C1CF70C95A316CC6A92839C986682D98BC35F958F4883F9D2A8 ADD SWAP1 PUSH1 0x0 SWAP1 JUMP JUMPDEST PUSH4 0x4E487B71 PUSH1 0xE0 SHL PUSH1 0x0 MSTORE PUSH1 0x32 PUSH1 0x4 MSTORE PUSH1 0x24 PUSH1 0x0 REVERT JUMPDEST SWAP1 PUSH1 0x1 DUP3 DUP2 SHR SWAP3 AND DUP1 ISZERO PUSH3 0x606A JUMPI JUMPDEST PUSH1 0x20 DUP4 LT EQ PUSH3 0x6054 JUMPI JUMP JUMPDEST PUSH4 0x4E487B71 PUSH1 0xE0 SHL PUSH1 0x0 MSTORE PUSH1 0x22 PUSH1 0x4 MSTORE PUSH1 0x24 PUSH1 0x0 REVERT JUMPDEST SWAP2 PUSH1 0x7F AND SWAP2 PUSH3 0x6048 JUMP JUMPDEST SWAP1 PUSH1 0x40 MLOAD SWAP2 DUP3 PUSH1 0x0 DUP3 SLOAD PUSH3 0x608A DUP2 PUSH3 0x6038 JUMP JUMPDEST SWAP1 DUP2 DUP5 MSTORE PUSH1 0x20 SWAP5 PUSH1 0x1 SWAP2 PUSH1 0x1 DUP2 AND SWAP1 DUP2 PUSH1 0x0 EQ PUSH3 0x6102 JUMPI POP PUSH1 0x1 EQ PUSH3 0x60BF JUMPI JUMPDEST POP POP POP PUSH3 0x60BD SWAP3 POP SUB DUP4 PUSH3 0x5F74 JUMP JUMPDEST JUMP JUMPDEST PUSH1 0x0 SWAP1 DUP2 MSTORE DUP6 DUP2 KECCAK256 SWAP6 SWAP4 POP SWAP2 SWAP1 JUMPDEST DUP2 DUP4 LT PUSH3 0x60E9 JUMPI POP POP PUSH3 0x60BD SWAP4 POP DUP3 ADD ADD CODESIZE DUP1 DUP1 PUSH3 0x60AC JUMP JUMPDEST DUP6 SLOAD DUP9 DUP5 ADD DUP6 ADD MSTORE SWAP5 DUP6 ADD SWAP5 DUP8 SWAP5 POP SWAP2 DUP4 ADD SWAP2 PUSH3 0x60CD JUMP JUMPDEST SWAP3 POP POP POP PUSH3 0x60BD SWAP5 SWAP3 POP PUSH1 0xFF NOT AND DUP3 DUP5 ADD MSTORE ISZERO ISZERO PUSH1 0x5 SHL DUP3 ADD ADD CODESIZE DUP1 DUP1 PUSH3 0x60AC JUMP JUMPDEST SWAP1 PUSH1 0x40 MLOAD PUSH3 0x6135 DUP2 PUSH3 0x5F43 JUMP JUMPDEST PUSH2 0x120 PUSH1 0x9 DUP3 SWAP5 PUSH1 0x1 DUP1 PUSH1 0xA0 SHL SUB DUP1 DUP3 SLOAD AND DUP6 MSTORE DUP1 PUSH1 0x1 DUP4 ADD SLOAD AND PUSH1 0x20 DUP7 ADD MSTORE PUSH1 0x2 DUP3 ADD SLOAD AND PUSH1 0x40 DUP6 ADD MSTORE PUSH3 0x616E PUSH1 0x3 DUP3 ADD PUSH3 0x6075 JUMP JUMPDEST PUSH1 0x60 DUP6 ADD MSTORE PUSH3 0x6181 PUSH1 0x4 DUP3 ADD PUSH3 0x6075 JUMP JUMPDEST PUSH1 0x80 DUP6 ADD MSTORE PUSH3 0x6194 PUSH1 0x5 DUP3 ADD PUSH3 0x6075 JUMP JUMPDEST PUSH1 0xA0 DUP6 ADD MSTORE PUSH3 0x61A7 PUSH1 0x6 DUP3 ADD PUSH3 0x6075 JUMP JUMPDEST PUSH1 0xC0 DUP6 ADD MSTORE PUSH1 0x7 DUP2 ADD SLOAD PUSH1 0xE0 DUP6 ADD MSTORE PUSH1 0x8 DUP2 ADD SLOAD PUSH2 0x100 DUP6 ADD MSTORE ADD SLOAD SWAP2 ADD MSTORE JUMP JUMPDEST ISZERO PUSH3 0x61D0 JUMPI JUMP JUMPDEST PUSH1 0x40 MLOAD PUSH3 0x461BCD PUSH1 0xE5 SHL DUP2 MSTORE PUSH1 0x20 PUSH1 0x4 DUP3 ADD MSTORE PUSH1 0x12 PUSH1 0x24 DUP3 ADD MSTORE PUSH18 0x19195E081C9BDD5D195C881B9BDD081CD95D PUSH1 0x72 SHL PUSH1 0x44 DUP3 ADD MSTORE PUSH1 0x64 SWAP1 REVERT JUMPDEST ISZERO PUSH3 0x6212 JUMPI JUMP JUMPDEST PUSH1 0x40 MLOAD PUSH3 0x461BCD PUSH1 0xE5 SHL DUP2 MSTORE PUSH1 0x20 PUSH1 0x4 DUP3 ADD MSTORE PUSH1 0x14 PUSH1 0x24 DUP3 ADD MSTORE PUSH20 0x1B1C081C9958DA5C1A595B9D081B9BDD081CD95D PUSH1 0x62 SHL PUSH1 0x44 DUP3 ADD MSTORE PUSH1 0x64 SWAP1 REVERT JUMPDEST ISZERO PUSH3 0x6256 JUMPI JUMP JUMPDEST PUSH1 0x40 MLOAD PUSH3 0x461BCD PUSH1 0xE5 SHL DUP2 MSTORE PUSH1 0x20 PUSH1 0x4 DUP3 ADD MSTORE PUSH1 0x22 PUSH1 0x24 DUP3 ADD MSTORE PUSH32 0x696E73756666696369656E742065746820666F72206665652B6C697175696469 PUSH1 0x44 DUP3 ADD MSTORE PUSH2 0x7479 PUSH1 0xF0 SHL PUSH1 0x64 DUP3 ADD MSTORE PUSH1 0x84 SWAP1 REVERT JUMPDEST SWAP2 SWAP1 DUP3 SUB SWAP2 DUP3 GT PUSH3 0x10E9 JUMPI JUMP JUMPDEST PUSH1 0x1 PUSH1 0x1 PUSH1 0x40 SHL SUB DUP2 GT PUSH3 0x10FF JUMPI PUSH1 0x5 SHL PUSH1 0x20 ADD SWAP1 JUMP JUMPDEST DUP1 MLOAD DUP3 LT ISZERO PUSH3 0x6022 JUMPI PUSH1 0x20 SWAP2 PUSH1 0x5 SHL ADD ADD SWAP1 JUMP JUMPDEST PUSH1 0xA SLOAD SWAP3 SWAP2 DUP4 DUP3 LT ISZERO PUSH3 0x63C0 JUMPI DUP2 ADD SWAP3 DUP4 DUP3 GT PUSH3 0x10E9 JUMPI DUP1 DUP5 GT PUSH3 0x63B7 JUMPI JUMPDEST POP PUSH3 0x6310 DUP2 DUP5 PUSH3 0x62A6 JUMP JUMPDEST SWAP3 PUSH3 0x631C DUP5 PUSH3 0x62B4 JUMP JUMPDEST SWAP4 PUSH3 0x632C PUSH1 0x40 MLOAD SWAP6 DUP7 PUSH3 0x5F74 JUMP JUMPDEST DUP1 DUP6 MSTORE PUSH3 0x633D PUSH1 0x1F NOT SWAP2 PUSH3 0x62B4 JUMP JUMPDEST ADD PUSH1 0x0 JUMPDEST DUP2 DUP2 LT PUSH3 0x639D JUMPI POP POP DUP4 PUSH1 0x0 JUMPDEST DUP3 DUP5 LT PUSH3 0x635D JUMPI POP POP POP POP JUMP JUMPDEST PUSH3 0x636C PUSH3 0x41AB DUP6 PUSH3 0x5FE7 JUMP JUMPDEST PUSH3 0x6378 DUP3 DUP5 PUSH3 0x62CC JUMP JUMPDEST MSTORE PUSH3 0x6385 DUP2 DUP4 PUSH3 0x62CC JUMP JUMPDEST POP PUSH1 0x0 NOT DUP2 EQ PUSH3 0x10E9 JUMPI PUSH1 0x1 SWAP4 DUP5 ADD SWAP4 ADD PUSH3 0x634F JUMP JUMPDEST PUSH1 0x20 SWAP1 PUSH3 0x63AA PUSH3 0x5F96 JUMP JUMPDEST DUP3 DUP3 DUP10 ADD ADD MSTORE ADD PUSH3 0x6341 JUMP JUMPDEST SWAP3 POP CODESIZE PUSH3 0x6303 JUMP JUMPDEST POP POP SWAP1 POP PUSH1 0x40 MLOAD PUSH1 0x20 DUP2 ADD DUP2 DUP2 LT PUSH1 0x1 PUSH1 0x1 PUSH1 0x40 SHL SUB DUP3 GT OR PUSH3 0x10FF JUMPI PUSH1 0x40 MSTORE PUSH1 0x0 DUP2 MSTORE SWAP1 JUMP JUMPDEST ISZERO PUSH3 0x63F0 JUMPI JUMP JUMPDEST PUSH1 0x40 MLOAD PUSH3 0x461BCD PUSH1 0xE5 SHL DUP2 MSTORE PUSH1 0x20 PUSH1 0x4 DUP3 ADD MSTORE PUSH1 0xA PUSH1 0x24 DUP3 ADD MSTORE PUSH10 0x37B7363C9037BBB732B9 PUSH1 0xB1 SHL PUSH1 0x44 DUP3 ADD MSTORE PUSH1 0x64 SWAP1 REVERT JUMPDEST PUSH1 0x4 SLOAD DUP1 CALLVALUE LT PUSH3 0x6523 JUMPI DUP1 ISZERO PUSH3 0x6520 JUMPI PUSH1 0x0 DUP1 DUP1 DUP1 DUP1 PUSH1 0x1 DUP1 PUSH1 0xA0 SHL SUB SWAP6 DUP7 PUSH1 0x2 SLOAD AND GAS CALL SWAP1 RETURNDATASIZE ISZERO PUSH3 0x6519 JUMPI RETURNDATASIZE SWAP1 PUSH1 0x1 PUSH1 0x1 PUSH1 0x40 SHL SUB DUP3 GT PUSH3 0x6505 JUMPI PUSH1 0x40 MLOAD SWAP2 PUSH3 0x647C PUSH1 0x1F DUP3 ADD PUSH1 0x1F NOT AND PUSH1 0x20 ADD DUP5 PUSH3 0x5F74 JUMP JUMPDEST DUP3 MSTORE PUSH1 0x20 RETURNDATASIZE SWAP3 ADD RETURNDATACOPY JUMPDEST ISZERO PUSH3 0x64C0 JUMPI PUSH1 0x2 SLOAD AND PUSH1 0x4 SLOAD PUSH1 0x40 MLOAD SWAP1 DUP2 MSTORE PUSH32 0x4CEF2D27CDF43D743C3C66401182E93989938E77D1BE10F3AB9E6AFDF799F839 PUSH1 0x20 CALLER SWAP3 LOG3 JUMP JUMPDEST PUSH1 0x40 MLOAD PUSH3 0x461BCD PUSH1 0xE5 SHL DUP2 MSTORE PUSH1 0x20 PUSH1 0x4 DUP3 ADD MSTORE PUSH1 0x1A PUSH1 0x24 DUP3 ADD MSTORE PUSH32 0x6C61756E636820666565207472616E73666572206661696C6564000000000000 PUSH1 0x44 DUP3 ADD MSTORE PUSH1 0x64 SWAP1 REVERT JUMPDEST PUSH4 0x4E487B71 PUSH1 0xE0 SHL DUP2 MSTORE PUSH1 0x41 PUSH1 0x4 MSTORE PUSH1 0x24 SWAP1 REVERT JUMPDEST POP PUSH3 0x6485 JUMP JUMPDEST POP JUMP JUMPDEST PUSH1 0x40 MLOAD PUSH3 0x461BCD PUSH1 0xE5 SHL DUP2 MSTORE PUSH1 0x20 PUSH1 0x4 DUP3 ADD MSTORE PUSH1 0x17 PUSH1 0x24 DUP3 ADD MSTORE PUSH32 0x696E73756666696369656E74206C61756E636820666565000000000000000000 PUSH1 0x44 DUP3 ADD MSTORE PUSH1 0x64 SWAP1 REVERT JUMPDEST SWAP1 DUP1 PUSH1 0x20 SWAP4 SWAP3 DUP2 DUP5 MSTORE DUP5 DUP5 ADD CALLDATACOPY PUSH1 0x0 DUP3 DUP3 ADD DUP5 ADD MSTORE PUSH1 0x1F ADD PUSH1 0x1F NOT AND ADD ADD SWAP1 JUMP JUMPDEST SWAP1 DUP2 PUSH1 0x20 SWAP2 SUB SLT PUSH3 0x8D6 JUMPI MLOAD DUP1 ISZERO ISZERO DUP2 SUB PUSH3 0x8D6 JUMPI SWAP1 JUMP JUMPDEST SWAP1 DUP2 PUSH1 0x20 SWAP2 SUB SLT PUSH3 0x8D6 JUMPI MLOAD PUSH1 0x1 PUSH1 0x1 PUSH1 0xA0 SHL SUB DUP2 AND DUP2 SUB PUSH3 0x8D6 JUMPI SWAP1 JUMP JUMPDEST PUSH1 0x8 SLOAD PUSH1 0x1 PUSH1 0x1 PUSH1 0xA0 SHL SUB SWAP2 SWAP1 DUP3 AND ISZERO PUSH3 0x65FE JUMPI PUSH2 0x1237 CHAINID EQ PUSH3 0x65F6 JUMPI PUSH3 0x65EF JUMPI POP PUSH2 0xDEAD SWAP1 JUMP JUMPDEST PUSH1 0x9 SLOAD AND SWAP1 JUMP JUMPDEST POP POP PUSH2 0xDEAD SWAP1 JUMP JUMPDEST POP PUSH1 0x9 SLOAD AND SWAP1 JUMP INVALID PUSH1 0x1F PUSH3 0x2AF0 CODESIZE DUP2 SWAP1 SUB SWAP2 DUP3 ADD PUSH1 0x1F NOT AND PUSH2 0x100 SWAP1 DUP2 ADD SWAP3 SWAP1 SWAP2 PUSH1 0x1 PUSH1 0x1 PUSH1 0x40 SHL SUB DUP5 GT DUP4 DUP6 LT OR PUSH3 0x3D5 JUMPI DUP2 PUSH2 0x120 SWAP3 DUP5 SWAP3 PUSH1 0x40 SWAP7 DUP8 MSTORE DUP4 CODECOPY DUP2 ADD SUB SLT PUSH3 0x3D0 JUMPI PUSH3 0x4E DUP2 PUSH3 0x3EB JUMP JUMPDEST PUSH1 0x20 SWAP1 PUSH3 0x5E DUP3 DUP5 ADD PUSH3 0x3EB JUMP JUMPDEST SWAP2 PUSH3 0x6C DUP6 DUP6 ADD PUSH3 0x3EB JUMP JUMPDEST SWAP3 PUSH1 0x60 DUP6 ADD MLOAD PUSH1 0x80 DUP7 ADD MLOAD PUSH1 0xA0 DUP8 ADD MLOAD SWAP2 PUSH1 0xC0 DUP9 ADD MLOAD SWAP4 PUSH3 0xA0 PUSH2 0x100 PUSH3 0x98 PUSH1 0xE0 DUP13 ADD PUSH3 0x3EB JUMP JUMPDEST SWAP11 ADD PUSH3 0x3EB JUMP JUMPDEST PUSH1 0x1 PUSH1 0x1 PUSH1 0xA0 SHL SUB SWAP9 SWAP1 SWAP8 SWAP1 DUP10 DUP3 AND ISZERO PUSH3 0x39B JUMPI DUP10 DUP4 AND ISZERO PUSH3 0x364 JUMPI DUP10 AND SWAP10 DUP11 ISZERO PUSH3 0x320 JUMPI PUSH2 0x12C DUP5 GT PUSH3 0x2ED JUMPI DUP5 ISZERO PUSH3 0x2A9 JUMPI DUP6 ISZERO PUSH3 0x265 JUMPI DUP7 ISZERO PUSH3 0x22F JUMPI DUP10 AND SWAP7 DUP8 PUSH3 0x1E4 JUMPI JUMPDEST POP PUSH1 0xA0 MSTORE PUSH1 0x80 MSTORE PUSH1 0x1 DUP1 PUSH1 0xA0 SHL SUB NOT SWAP8 DUP9 PUSH1 0x0 SLOAD AND OR PUSH1 0x0 SSTORE PUSH1 0x1 SSTORE PUSH1 0xC0 MSTORE PUSH1 0xE0 MSTORE PUSH1 0x4 SSTORE DUP4 PUSH1 0x5 SLOAD AND OR PUSH1 0x5 SSTORE AND SWAP1 PUSH1 0x6 SLOAD AND OR PUSH1 0x6 SSTORE CALLVALUE PUSH1 0x2 SSTORE MLOAD PUSH2 0x26EF SWAP1 DUP2 PUSH3 0x401 DUP3 CODECOPY PUSH1 0x80 MLOAD DUP2 DUP2 DUP2 PUSH2 0x23B ADD MSTORE DUP2 DUP2 PUSH2 0xC6F ADD MSTORE DUP2 DUP2 PUSH2 0xD18 ADD MSTORE DUP2 DUP2 PUSH2 0xEDB ADD MSTORE DUP2 DUP2 PUSH2 0x11C7 ADD MSTORE PUSH2 0x12DF ADD MSTORE PUSH1 0xA0 MLOAD DUP2 DUP2 DUP2 PUSH2 0x1A2 ADD MSTORE DUP2 DUP2 PUSH2 0x2EC ADD MSTORE DUP2 DUP2 PUSH2 0x854 ADD MSTORE DUP2 DUP2 PUSH2 0xA91 ADD MSTORE DUP2 DUP2 PUSH2 0xD75 ADD MSTORE DUP2 DUP2 PUSH2 0x1B78 ADD MSTORE DUP2 DUP2 PUSH2 0x23CA ADD MSTORE DUP2 DUP2 PUSH2 0x2574 ADD MSTORE PUSH2 0x261F ADD MSTORE PUSH1 0xC0 MLOAD DUP2 DUP2 DUP2 PUSH2 0x1037 ADD MSTORE DUP2 DUP2 PUSH2 0x16C6 ADD MSTORE DUP2 DUP2 PUSH2 0x219D ADD MSTORE PUSH2 0x2233 ADD MSTORE PUSH1 0xE0 MLOAD DUP2 DUP2 DUP2 PUSH2 0x114E ADD MSTORE DUP2 DUP2 PUSH2 0x1693 ADD MSTORE DUP2 DUP2 PUSH2 0x21D2 ADD MSTORE PUSH2 0x2264 ADD MSTORE RETURN JUMPDEST DUP10 DUP10 AND PUSH3 0xF1 JUMPI PUSH1 0x64 SWAP1 DUP13 MLOAD SWAP1 PUSH3 0x461BCD PUSH1 0xE5 SHL DUP3 MSTORE PUSH1 0x4 DUP3 ADD MSTORE PUSH1 0x15 PUSH1 0x24 DUP3 ADD MSTORE PUSH32 0x6C7020726563697069656E742072657175697265640000000000000000000000 PUSH1 0x44 DUP3 ADD MSTORE REVERT JUMPDEST DUP12 MLOAD PUSH3 0x461BCD PUSH1 0xE5 SHL DUP2 MSTORE PUSH1 0x4 DUP2 ADD DUP10 SWAP1 MSTORE PUSH1 0xF PUSH1 0x24 DUP3 ADD MSTORE PUSH15 0x1D185C99D95D081C995C5D5A5C9959 PUSH1 0x8A SHL PUSH1 0x44 DUP3 ADD MSTORE PUSH1 0x64 SWAP1 REVERT JUMPDEST DUP12 MLOAD PUSH3 0x461BCD PUSH1 0xE5 SHL DUP2 MSTORE PUSH1 0x4 DUP2 ADD DUP10 SWAP1 MSTORE PUSH1 0x16 PUSH1 0x24 DUP3 ADD MSTORE PUSH32 0x7669727475616C20746F6B656E20726571756972656400000000000000000000 PUSH1 0x44 DUP3 ADD MSTORE PUSH1 0x64 SWAP1 REVERT JUMPDEST DUP12 MLOAD PUSH3 0x461BCD PUSH1 0xE5 SHL DUP2 MSTORE PUSH1 0x4 DUP2 ADD DUP10 SWAP1 MSTORE PUSH1 0x14 PUSH1 0x24 DUP3 ADD MSTORE PUSH32 0x7669727475616C20657468207265717569726564000000000000000000000000 PUSH1 0x44 DUP3 ADD MSTORE PUSH1 0x64 SWAP1 REVERT JUMPDEST DUP12 MLOAD PUSH3 0x461BCD PUSH1 0xE5 SHL DUP2 MSTORE PUSH1 0x4 DUP2 ADD DUP10 SWAP1 MSTORE PUSH1 0xC PUSH1 0x24 DUP3 ADD MSTORE PUSH12 0xCCCACA40E8DEDE40D0D2CED PUSH1 0xA3 SHL PUSH1 0x44 DUP3 ADD MSTORE PUSH1 0x64 SWAP1 REVERT JUMPDEST DUP12 MLOAD PUSH3 0x461BCD PUSH1 0xE5 SHL DUP2 MSTORE PUSH1 0x4 DUP2 ADD DUP10 SWAP1 MSTORE PUSH1 0x16 PUSH1 0x24 DUP3 ADD MSTORE PUSH32 0x66656520726563697069656E7420726571756972656400000000000000000000 PUSH1 0x44 DUP3 ADD MSTORE PUSH1 0x64 SWAP1 REVERT JUMPDEST DUP12 MLOAD PUSH3 0x461BCD PUSH1 0xE5 SHL DUP2 MSTORE PUSH1 0x4 DUP2 ADD DUP10 SWAP1 MSTORE PUSH1 0x10 PUSH1 0x24 DUP3 ADD MSTORE PUSH16 0x199858DD1BDC9E481C995C5D5A5C9959 PUSH1 0x82 SHL PUSH1 0x44 DUP3 ADD MSTORE PUSH1 0x64 SWAP1 REVERT JUMPDEST DUP12 MLOAD PUSH3 0x461BCD PUSH1 0xE5 SHL DUP2 MSTORE PUSH1 0x4 DUP2 ADD DUP10 SWAP1 MSTORE PUSH1 0xE PUSH1 0x24 DUP3 ADD MSTORE PUSH14 0x1D1BDAD95B881C995C5D5A5C9959 PUSH1 0x92 SHL PUSH1 0x44 DUP3 ADD MSTORE PUSH1 0x64 SWAP1 REVERT JUMPDEST PUSH1 0x0 DUP1 REVERT JUMPDEST PUSH4 0x4E487B71 PUSH1 0xE0 SHL PUSH1 0x0 MSTORE PUSH1 0x41 PUSH1 0x4 MSTORE PUSH1 0x24 PUSH1 0x0 REVERT JUMPDEST MLOAD SWAP1 PUSH1 0x1 PUSH1 0x1 PUSH1 0xA0 SHL SUB DUP3 AND DUP3 SUB PUSH3 0x3D0 JUMPI JUMP INVALID PUSH1 0x80 PUSH1 0x40 DUP2 DUP2 MSTORE PUSH1 0x4 SWAP2 DUP3 CALLDATASIZE LT ISZERO PUSH2 0x16 JUMPI PUSH1 0x0 DUP1 REVERT JUMPDEST PUSH1 0x0 SWAP3 DUP4 CALLDATALOAD PUSH1 0xE0 SHR SWAP2 DUP3 PUSH4 0x758D924 EQ PUSH2 0x13DB JUMPI POP DUP2 PUSH4 0x1AD15BBC EQ PUSH2 0x13B2 JUMPI DUP2 PUSH4 0x24A9D853 EQ PUSH2 0x1393 JUMPI DUP2 PUSH4 0x25217724 EQ PUSH2 0x12C7 JUMPI DUP2 PUSH4 0x2760ECA1 EQ PUSH2 0x12AA JUMPI DUP2 PUSH4 0x2A2C6972 EQ PUSH2 0x1198 JUMPI DUP2 PUSH4 0x334041A6 EQ PUSH2 0x1171 JUMPI DUP2 PUSH4 0x343EE3B7 EQ PUSH2 0x1136 JUMPI DUP2 PUSH4 0x398482D8 EQ PUSH2 0x1112 JUMPI DUP2 PUSH4 0x4329742D EQ PUSH2 0x10CA JUMPI DUP2 PUSH4 0x452E68DD EQ PUSH2 0x10A1 JUMPI DUP2 PUSH4 0x46904840 EQ PUSH2 0x1079 JUMPI DUP2 PUSH4 0x4BEB394C EQ PUSH2 0x105A JUMPI DUP2 PUSH4 0x52B86D2B EQ PUSH2 0x101F JUMPI DUP2 PUSH4 0x7F544E49 EQ PUSH2 0x1000 JUMPI DUP2 PUSH4 0x8C575AA3 EQ PUSH2 0xE9E JUMPI DUP2 PUSH4 0x95564837 EQ PUSH2 0xCF0 JUMPI DUP2 PUSH4 0xA64190C4 EQ PUSH2 0xCC5 JUMPI DUP2 PUSH4 0xC446795A EQ PUSH2 0xC9E JUMPI DUP2 PUSH4 0xC45A0155 EQ PUSH2 0xC5A JUMPI DUP2 PUSH4 0xCBCB3171 EQ PUSH2 0xC3B JUMPI DUP2 PUSH4 0xD62CCB3F EQ PUSH2 0xC1C JUMPI DUP2 PUSH4 0xD79875EB EQ PUSH2 0x9AF JUMPI DUP2 PUSH4 0xD96A094A EQ PUSH2 0x751 JUMPI DUP2 PUSH4 0xE1A45218 EQ PUSH2 0x734 JUMPI DUP2 PUSH4 0xE3818EB8 EQ PUSH2 0x21A JUMPI DUP2 PUSH4 0xE7C2B772 EQ PUSH2 0x1F3 JUMPI DUP2 PUSH4 0xF95A02D0 EQ PUSH2 0x1D1 JUMPI POP DUP1 PUSH4 0xFC0C546A EQ PUSH2 0x18E JUMPI PUSH4 0xFCCC2813 EQ PUSH2 0x16F JUMPI PUSH1 0x0 DUP1 REVERT JUMPDEST CALLVALUE PUSH2 0x18A JUMPI DUP2 PUSH1 0x3 NOT CALLDATASIZE ADD SLT PUSH2 0x18A JUMPI PUSH1 0x20 SWAP1 MLOAD PUSH2 0xDEAD DUP2 MSTORE RETURN JUMPDEST POP DUP1 REVERT JUMPDEST POP CALLVALUE PUSH2 0x18A JUMPI DUP2 PUSH1 0x3 NOT CALLDATASIZE ADD SLT PUSH2 0x18A JUMPI MLOAD PUSH32 0x0 PUSH1 0x1 PUSH1 0x1 PUSH1 0xA0 SHL SUB AND DUP2 MSTORE PUSH1 0x20 SWAP1 RETURN JUMPDEST SWAP1 POP CALLVALUE PUSH2 0x1EF JUMPI DUP3 PUSH1 0x3 NOT CALLDATASIZE ADD SLT PUSH2 0x1EF JUMPI PUSH1 0x20 SWAP3 POP SLOAD SWAP1 MLOAD SWAP1 DUP2 MSTORE RETURN JUMPDEST DUP3 DUP1 REVERT JUMPDEST POP POP CALLVALUE PUSH2 0x18A JUMPI DUP2 PUSH1 0x3 NOT CALLDATASIZE ADD SLT PUSH2 0x18A JUMPI PUSH1 0x20 SWAP1 PUSH1 0xFF PUSH1 0x6 SLOAD PUSH1 0xA8 SHR AND SWAP1 MLOAD SWAP1 ISZERO ISZERO DUP2 MSTORE RETURN JUMPDEST SWAP1 POP CALLVALUE PUSH2 0x1EF JUMPI DUP3 PUSH1 0x3 NOT CALLDATASIZE ADD SLT PUSH2 0x1EF JUMPI PUSH1 0x1 PUSH1 0x1 PUSH1 0xA0 SHL SUB SWAP1 PUSH2 0x262 CALLER PUSH32 0x0 DUP5 AND EQ PUSH2 0x141B JUMP JUMPDEST PUSH1 0x6 SWAP3 DUP4 SLOAD SWAP3 PUSH2 0x278 PUSH1 0xFF DUP6 PUSH1 0xB8 SHR AND ISZERO PUSH2 0x1456 JUMP JUMPDEST PUSH1 0xFF PUSH1 0xB8 SHL NOT SWAP4 DUP5 AND PUSH1 0x1 PUSH1 0xB8 SHL OR DUP1 DUP7 SSTORE PUSH2 0x2B9 SWAP1 PUSH1 0xFF SWAP1 PUSH2 0x2A0 PUSH1 0xA0 DUP3 SWAP1 SHR DUP4 AND PUSH2 0x148F JUMP JUMPDEST PUSH2 0x2AF DUP3 DUP3 PUSH1 0xA8 SHR AND ISZERO PUSH2 0x14CD JUMP JUMPDEST PUSH1 0xB0 SHR AND ISZERO PUSH2 0x150D JUMP JUMPDEST PUSH1 0x2 SLOAD PUSH2 0x2C7 DUP2 ISZERO ISZERO PUSH2 0x154A JUMP JUMPDEST DUP2 PUSH1 0x5 SLOAD AND PUSH2 0x2D7 DUP2 ISZERO ISZERO PUSH2 0x1AE6 JUMP JUMPDEST ADDRESS ISZERO PUSH2 0x6FA JUMPI PUSH1 0x3 SLOAD SWAP3 DUP9 PUSH1 0x3 SSTORE DUP9 PUSH1 0x2 SSTORE DUP1 PUSH32 0x0 AND SWAP2 DUP6 MLOAD SWAP1 PUSH4 0x95EA7B3 PUSH1 0xE0 SHL SWAP1 DUP2 DUP4 MSTORE DUP9 DUP4 ADD MSTORE DUP11 PUSH1 0x24 DUP4 ADD MSTORE DUP2 DUP12 DUP2 PUSH1 0x44 PUSH1 0x20 SWAP6 DUP7 SWAP4 DUP10 GAS CALL DUP1 ISZERO PUSH2 0x6F0 JUMPI SWAP2 DUP4 SWAP2 DUP9 SWAP4 PUSH2 0x6D3 JUMPI JUMPDEST POP PUSH1 0x5 SLOAD DUP10 MLOAD SWAP2 DUP3 MSTORE PUSH1 0x1 PUSH1 0x1 PUSH1 0xA0 SHL SUB SWAP1 DUP7 AND AND DUP11 DUP3 ADD SWAP1 DUP2 MSTORE PUSH1 0x20 DUP2 ADD SWAP4 SWAP1 SWAP4 MSTORE SWAP2 DUP3 SWAP1 DUP2 SWAP1 SUB PUSH1 0x40 ADD DUP2 DUP15 DUP9 GAS CALL DUP1 ISZERO PUSH2 0x6C9 JUMPI PUSH2 0x69C JUMPI JUMPDEST POP DUP2 PUSH1 0x5 SLOAD AND SWAP4 PUSH2 0xE10 TIMESTAMP ADD SWAP5 DUP6 TIMESTAMP GT PUSH2 0x689 JUMPI SWAP1 PUSH1 0x60 DUP6 PUSH1 0xC4 DUP12 DUP16 SWAP6 DUP6 SWAP1 DUP14 MLOAD SWAP12 DUP13 SWAP6 DUP7 SWAP5 PUSH4 0xF305D719 PUSH1 0xE0 SHL DUP7 MSTORE DUP6 ADD MSTORE DUP14 PUSH1 0x24 DUP6 ADD MSTORE DUP9 PUSH1 0x44 DUP6 ADD MSTORE DUP9 PUSH1 0x64 DUP6 ADD MSTORE ADDRESS PUSH1 0x84 DUP6 ADD MSTORE PUSH1 0xA4 DUP5 ADD MSTORE GAS CALL SWAP7 DUP8 ISZERO PUSH2 0x67F JUMPI DUP3 SWAP6 DUP4 SWAP8 DUP5 SWAP10 PUSH2 0x63B JUMPI JUMPDEST POP PUSH1 0x5 SLOAD DUP11 MLOAD PUSH4 0xC45A0155 PUSH1 0xE0 SHL DUP2 MSTORE SWAP1 DUP8 AND DUP7 DUP3 DUP15 DUP2 DUP5 GAS STATICCALL SWAP2 DUP3 ISZERO PUSH2 0x631 JUMPI SWAP7 DUP7 SWAP6 SWAP5 SWAP4 SWAP3 SWAP2 DUP15 SWAP9 DUP3 SWAP9 SWAP4 PUSH2 0x612 JUMPI JUMPDEST POP DUP14 MLOAD PUSH4 0x15AB88C9 PUSH1 0xE3 SHL DUP2 MSTORE SWAP9 DUP10 SWAP2 DUP3 SWAP1 GAS STATICCALL SWAP7 DUP8 ISZERO PUSH2 0x608 JUMPI DUP14 SWAP2 DUP14 DUP11 SWAP3 DUP9 SWAP11 PUSH2 0x5DA JUMPI JUMPDEST POP SWAP2 DUP9 SWAP5 SWAP4 SWAP2 DUP2 PUSH1 0x44 SWAP5 MLOAD SWAP12 DUP13 SWAP7 DUP8 SWAP6 PUSH4 0xE6A43905 PUSH1 0xE0 SHL DUP8 MSTORE DUP7 ADD MSTORE AND PUSH1 0x24 DUP5 ADD MSTORE AND GAS STATICCALL SWAP5 DUP6 ISZERO PUSH2 0x5D0 JUMPI SWAP1 DUP8 SWAP2 DUP5 SWAP7 PUSH2 0x5A1 JUMPI JUMPDEST POP DUP2 DUP2 GT PUSH2 0x587 JUMPI JUMPDEST POP POP DUP7 DUP2 GT PUSH2 0x522 JUMPI JUMPDEST POP POP DUP10 SLOAD PUSH1 0xFF PUSH1 0xB0 SHL NOT AND PUSH1 0x1 PUSH1 0xB0 SHL OR DUP11 SSTORE POP PUSH1 0x7 DUP1 SLOAD PUSH1 0x1 PUSH1 0x1 PUSH1 0xA0 SHL SUB NOT AND SWAP3 SWAP1 SWAP2 AND SWAP2 DUP3 OR SWAP1 SSTORE SWAP4 MLOAD SWAP1 DUP2 MSTORE PUSH1 0x20 DUP2 ADD SWAP2 SWAP1 SWAP2 MSTORE PUSH1 0x40 DUP2 ADD SWAP2 SWAP1 SWAP2 MSTORE TIMESTAMP PUSH1 0x60 DUP3 ADD MSTORE PUSH32 0x5CFC9EA0E95E86463D8DACD6C53993376A8AFAB5437E80A8A98D57D7A8B0F234 SWAP1 DUP1 PUSH1 0x80 DUP2 ADD SUB SWAP1 LOG2 PUSH2 0x4FE PUSH2 0x22FF JUMP JUMPDEST SWAP2 SWAP1 POP SLOAD DUP2 LT ISZERO PUSH2 0x513 JUMPI JUMPDEST POP DUP2 SLOAD AND SWAP1 SSTORE DUP1 RETURN JUMPDEST PUSH2 0x51C SWAP1 PUSH2 0x1F8A JUMP JUMPDEST CODESIZE PUSH2 0x50A JUMP JUMPDEST DUP2 DUP1 PUSH2 0x52F DUP10 DUP3 SWAP5 PUSH2 0x17E1 JUMP JUMPDEST DUP8 DUP3 SLOAD AND GAS CALL PUSH2 0x53D PUSH2 0x1A64 JUMP JUMPDEST POP ISZERO PUSH2 0x54A JUMPI DUP11 DUP2 PUSH2 0x486 JUMP JUMPDEST DUP8 PUSH1 0x64 SWAP2 DUP9 MLOAD SWAP2 PUSH3 0x461BCD PUSH1 0xE5 SHL DUP4 MSTORE DUP3 ADD MSTORE PUSH1 0x18 PUSH1 0x24 DUP3 ADD MSTORE PUSH24 0x195D1A08191D5CDD081D1C985B9CD9995C8819985A5B1959 PUSH1 0x42 SHL PUSH1 0x44 DUP3 ADD MSTORE REVERT JUMPDEST PUSH2 0x599 SWAP2 PUSH2 0x594 SWAP2 PUSH2 0x17E1 JUMP JUMPDEST PUSH2 0x25FB JUMP JUMPDEST POP DUP6 CODESIZE PUSH2 0x47C JUMP JUMPDEST PUSH2 0x5C2 SWAP2 SWAP7 POP DUP6 RETURNDATASIZE DUP8 GT PUSH2 0x5C9 JUMPI JUMPDEST PUSH2 0x5BA DUP2 DUP4 PUSH2 0x18AB JUMP JUMPDEST DUP2 ADD SWAP1 PUSH2 0x22CC JUMP JUMPDEST SWAP5 CODESIZE PUSH2 0x473 JUMP JUMPDEST POP RETURNDATASIZE PUSH2 0x5B0 JUMP JUMPDEST DUP11 MLOAD RETURNDATASIZE DUP6 DUP3 RETURNDATACOPY RETURNDATASIZE SWAP1 REVERT JUMPDEST DUP4 PUSH1 0x44 SWAP5 SWAP3 SWAP12 POP PUSH2 0x5FB DUP12 SWAP8 SWAP7 SWAP5 SWAP3 DUP9 RETURNDATASIZE DUP11 GT PUSH2 0x5C9 JUMPI PUSH2 0x5BA DUP2 DUP4 PUSH2 0x18AB JUMP JUMPDEST SWAP12 SWAP3 POP SWAP4 POP SWAP2 SWAP4 SWAP5 PUSH2 0x43C JUMP JUMPDEST DUP13 MLOAD RETURNDATASIZE DUP8 DUP3 RETURNDATACOPY RETURNDATASIZE SWAP1 REVERT JUMPDEST PUSH2 0x62A SWAP2 SWAP4 POP DUP3 RETURNDATASIZE DUP5 GT PUSH2 0x5C9 JUMPI PUSH2 0x5BA DUP2 DUP4 PUSH2 0x18AB JUMP JUMPDEST SWAP2 CODESIZE PUSH2 0x415 JUMP JUMPDEST DUP13 MLOAD RETURNDATASIZE DUP9 DUP3 RETURNDATACOPY RETURNDATASIZE SWAP1 REVERT JUMPDEST SWAP7 POP SWAP8 POP SWAP6 POP PUSH1 0x60 DUP6 RETURNDATASIZE PUSH1 0x60 GT PUSH2 0x677 JUMPI JUMPDEST DUP2 PUSH2 0x65A PUSH1 0x60 SWAP4 DUP4 PUSH2 0x18AB JUMP JUMPDEST DUP2 ADD SUB SLT PUSH2 0x18A JUMPI DUP5 MLOAD SWAP6 DUP9 DUP5 DUP8 ADD MLOAD SWAP7 ADD MLOAD SWAP7 SWAP6 SWAP7 SWAP8 CODESIZE PUSH2 0x3E3 JUMP JUMPDEST RETURNDATASIZE SWAP2 POP PUSH2 0x64D JUMP JUMPDEST DUP9 MLOAD RETURNDATASIZE DUP5 DUP3 RETURNDATACOPY RETURNDATASIZE SWAP1 REVERT JUMPDEST PUSH4 0x4E487B71 PUSH1 0xE0 SHL DUP13 MSTORE PUSH1 0x11 DUP10 MSTORE PUSH1 0x24 DUP13 REVERT JUMPDEST PUSH2 0x6BB SWAP1 DUP3 RETURNDATASIZE DUP5 GT PUSH2 0x6C2 JUMPI JUMPDEST PUSH2 0x6B3 DUP2 DUP4 PUSH2 0x18AB JUMP JUMPDEST DUP2 ADD SWAP1 PUSH2 0x1A08 JUMP JUMPDEST POP CODESIZE PUSH2 0x37F JUMP JUMPDEST POP RETURNDATASIZE PUSH2 0x6A9 JUMP JUMPDEST DUP8 MLOAD RETURNDATASIZE DUP14 DUP3 RETURNDATACOPY RETURNDATASIZE SWAP1 REVERT JUMPDEST PUSH2 0x6E9 SWAP1 DUP4 RETURNDATASIZE DUP6 GT PUSH2 0x6C2 JUMPI PUSH2 0x6B3 DUP2 DUP4 PUSH2 0x18AB JUMP JUMPDEST POP CODESIZE PUSH2 0x343 JUMP JUMPDEST DUP9 MLOAD RETURNDATASIZE DUP15 DUP3 RETURNDATACOPY RETURNDATASIZE SWAP1 REVERT JUMPDEST DUP4 MLOAD PUSH3 0x461BCD PUSH1 0xE5 SHL DUP2 MSTORE PUSH1 0x20 DUP2 DUP8 ADD MSTORE PUSH1 0x14 PUSH1 0x24 DUP3 ADD MSTORE PUSH20 0x1B1C081C9958D95A5D995C881C995C5D5A5C9959 PUSH1 0x62 SHL PUSH1 0x44 DUP3 ADD MSTORE PUSH1 0x64 SWAP1 REVERT JUMPDEST POP POP CALLVALUE PUSH2 0x18A JUMPI DUP2 PUSH1 0x3 NOT CALLDATASIZE ADD SLT PUSH2 0x18A JUMPI PUSH1 0x20 SWAP1 MLOAD PUSH2 0x2710 DUP2 MSTORE RETURN JUMPDEST SWAP2 SWAP1 POP PUSH1 0x20 SWAP3 DUP4 PUSH1 0x3 NOT CALLDATASIZE ADD SLT PUSH2 0x9AC JUMPI PUSH1 0x6 SLOAD SWAP1 PUSH2 0x776 PUSH1 0xFF DUP4 PUSH1 0xB8 SHR AND ISZERO PUSH2 0x1456 JUMP JUMPDEST PUSH1 0xFF PUSH1 0xB8 SHL NOT SWAP2 DUP3 AND PUSH1 0x1 PUSH1 0xB8 SHL OR PUSH1 0x6 DUP2 SWAP1 SSTORE PUSH2 0x7AF SWAP1 PUSH1 0xFF SWAP1 PUSH2 0x7A0 PUSH1 0xA0 DUP3 SWAP1 SHR DUP4 AND PUSH2 0x148F JUMP JUMPDEST PUSH2 0x2AF DUP3 DUP3 PUSH1 0xA8 SHR AND ISZERO PUSH2 0x1957 JUMP JUMPDEST CALLVALUE ISZERO PUSH2 0x97A JUMPI PUSH2 0x2710 PUSH2 0x7C4 PUSH1 0x1 SLOAD CALLVALUE PUSH2 0x1587 JUMP JUMPDEST DIV SWAP1 PUSH2 0x7D0 DUP3 CALLVALUE PUSH2 0x17E1 JUMP JUMPDEST SWAP5 PUSH2 0x7DA DUP7 PUSH2 0x218F JUMP JUMPDEST SWAP6 PUSH2 0x7E6 DUP8 ISZERO ISZERO PUSH2 0x198F JUMP JUMPDEST PUSH2 0x7F3 DUP3 CALLDATALOAD DUP9 LT ISZERO PUSH2 0x19D1 JUMP JUMPDEST PUSH1 0x3 SLOAD SWAP1 DUP2 DUP9 GT PUSH2 0x93E JUMPI PUSH2 0x84F SWAP3 PUSH2 0x81D DUP10 DUP12 SWAP5 PUSH2 0x815 DUP3 SWAP6 PUSH1 0x2 SLOAD PUSH2 0x1661 JUMP JUMPDEST PUSH1 0x2 SSTORE PUSH2 0x17E1 JUMP JUMPDEST PUSH1 0x3 SSTORE DUP6 PUSH2 0x917 JUMPI JUMPDEST DUP8 MLOAD PUSH4 0xA9059CBB PUSH1 0xE0 SHL DUP2 MSTORE CALLER SWAP2 DUP2 ADD SWAP2 DUP3 MSTORE PUSH1 0x20 DUP3 ADD SWAP3 SWAP1 SWAP3 MSTORE SWAP1 SWAP3 DUP4 SWAP2 DUP3 SWAP2 PUSH1 0x40 SWAP1 SWAP2 ADD SWAP1 JUMP JUMPDEST SUB DUP2 DUP6 PUSH32 0x0 PUSH1 0x1 PUSH1 0x1 PUSH1 0xA0 SHL SUB AND GAS CALL SWAP2 DUP3 ISZERO PUSH2 0x90C JUMPI SWAP1 PUSH2 0x895 SWAP3 PUSH2 0x8EF JUMPI JUMPDEST POP PUSH2 0x1A20 JUMP JUMPDEST PUSH32 0xBEAE048C6D270D9469F86CF6E8FEDDA3C60AD770F16C24C9FC131C8E9A09101D DUP4 MLOAD DUP1 PUSH2 0x8D7 DUP8 CALLER SWAP6 CALLVALUE DUP5 PUSH1 0x40 SWAP2 SWAP5 SWAP4 SWAP3 PUSH1 0x60 DUP3 ADD SWAP6 DUP3 MSTORE PUSH1 0x20 DUP3 ADD MSTORE ADD MSTORE JUMP JUMPDEST SUB SWAP1 LOG2 PUSH2 0x8E2 PUSH2 0x2294 JUMP JUMPDEST PUSH1 0x6 SLOAD AND PUSH1 0x6 SSTORE MLOAD SWAP1 DUP2 MSTORE RETURN JUMPDEST PUSH2 0x906 SWAP2 POP DUP8 RETURNDATASIZE DUP10 GT PUSH2 0x6C2 JUMPI PUSH2 0x6B3 DUP2 DUP4 PUSH2 0x18AB JUMP JUMPDEST CODESIZE PUSH2 0x88F JUMP JUMPDEST DUP6 MLOAD SWAP1 RETURNDATASIZE SWAP1 DUP3 RETURNDATACOPY RETURNDATASIZE SWAP1 REVERT JUMPDEST PUSH2 0x939 DUP6 DUP1 DUP1 DUP1 DUP11 PUSH1 0x1 DUP1 PUSH1 0xA0 SHL SUB DUP3 SLOAD AND GAS CALL PUSH2 0x933 PUSH2 0x1A64 JUMP JUMPDEST POP PUSH2 0x1AA4 JUMP JUMPDEST PUSH2 0x826 JUMP JUMPDEST DUP7 MLOAD PUSH3 0x461BCD PUSH1 0xE5 SHL DUP2 MSTORE DUP1 DUP5 ADD DUP11 SWAP1 MSTORE PUSH1 0x16 PUSH1 0x24 DUP3 ADD MSTORE PUSH22 0x696E73756666696369656E74206C6971756964697479 PUSH1 0x50 SHL PUSH1 0x44 DUP3 ADD MSTORE PUSH1 0x64 SWAP1 REVERT JUMPDEST DUP3 MLOAD PUSH3 0x461BCD PUSH1 0xE5 SHL DUP2 MSTORE DUP1 DUP6 ADD DUP7 SWAP1 MSTORE PUSH1 0xC PUSH1 0x24 DUP3 ADD MSTORE PUSH12 0x195D1A081C995C5D5A5C9959 PUSH1 0xA2 SHL PUSH1 0x44 DUP3 ADD MSTORE PUSH1 0x64 SWAP1 REVERT JUMPDEST DUP1 REVERT JUMPDEST SWAP2 SWAP1 POP CALLVALUE PUSH2 0x1EF JUMPI DUP1 PUSH1 0x3 NOT CALLDATASIZE ADD SLT PUSH2 0x1EF JUMPI DUP2 CALLDATALOAD PUSH1 0x6 SLOAD SWAP1 PUSH2 0x9D8 PUSH1 0xFF DUP4 PUSH1 0xB8 SHR AND ISZERO PUSH2 0x1456 JUMP JUMPDEST PUSH1 0xFF PUSH1 0xB8 SHL NOT SWAP2 DUP3 AND PUSH1 0x1 PUSH1 0xB8 SHL OR PUSH1 0x6 DUP2 SWAP1 SSTORE PUSH2 0xA02 SWAP1 PUSH1 0xFF SWAP1 PUSH2 0x7A0 PUSH1 0xA0 DUP3 SWAP1 SHR DUP4 AND PUSH2 0x148F JUMP JUMPDEST PUSH2 0xA0D DUP2 ISZERO ISZERO PUSH2 0x1867 JUMP JUMPDEST PUSH2 0xA16 DUP2 PUSH2 0x2227 JUMP JUMPDEST SWAP5 PUSH2 0xA22 DUP7 ISZERO ISZERO PUSH2 0x198F JUMP JUMPDEST PUSH1 0x2 SLOAD DUP7 GT PUSH2 0xBD9 JUMPI PUSH2 0x2710 PUSH2 0xA3A PUSH1 0x1 SLOAD DUP9 PUSH2 0x1587 JUMP JUMPDEST DIV SWAP6 PUSH2 0xA46 DUP8 DUP3 PUSH2 0x17E1 JUMP JUMPDEST SWAP6 PUSH2 0xA55 PUSH1 0x24 CALLDATALOAD DUP9 LT ISZERO PUSH2 0x19D1 JUMP JUMPDEST DUP6 MLOAD PUSH4 0x23B872DD PUSH1 0xE0 SHL DUP2 MSTORE CALLER DUP3 DUP3 ADD SWAP1 DUP2 MSTORE ADDRESS PUSH1 0x20 DUP3 DUP2 ADD SWAP2 SWAP1 SWAP2 MSTORE PUSH1 0x40 DUP3 ADD DUP8 SWAP1 MSTORE PUSH1 0x1 PUSH1 0x1 PUSH1 0xA0 SHL SUB SWAP5 SWAP3 SWAP2 DUP3 SWAP1 DUP2 SWAP1 PUSH1 0x60 ADD SUB DUP2 DUP9 DUP9 PUSH32 0x0 AND GAS CALL SWAP1 DUP2 ISZERO PUSH2 0xBCF JUMPI PUSH2 0xAE6 SWAP3 SWAP2 PUSH2 0xACF SWAP2 DUP8 SWAP2 PUSH2 0xBB6 JUMPI POP PUSH2 0x1A20 JUMP JUMPDEST PUSH2 0xADB DUP7 PUSH1 0x3 SLOAD PUSH2 0x1661 JUMP JUMPDEST PUSH1 0x3 SSTORE PUSH1 0x2 SLOAD PUSH2 0x17E1 JUMP JUMPDEST PUSH1 0x2 SSTORE DUP3 DUP1 DUP1 DUP1 DUP11 CALLER GAS CALL PUSH2 0xAF9 PUSH2 0x1A64 JUMP JUMPDEST POP ISZERO PUSH2 0xB7D JUMPI POP DUP7 DUP1 PUSH32 0x846C37EEF631E0943682D87352EC117C20008EB7F425C9B85AC011A6D4774CC0 SWAP4 PUSH2 0xB50 SWAP4 PUSH1 0x20 SWAP11 PUSH2 0xB60 JUMPI JUMPDEST POP POP DUP7 MLOAD SWAP5 DUP6 MSTORE POP PUSH1 0x20 DUP5 ADD DUP8 SWAP1 MSTORE PUSH1 0x40 DUP5 ADD MSTORE CALLER SWAP3 SWAP1 DUP2 SWAP1 PUSH1 0x60 DUP3 ADD SWAP1 JUMP JUMPDEST SUB SWAP1 LOG2 PUSH1 0x6 SLOAD AND PUSH1 0x6 SSTORE MLOAD SWAP1 DUP2 MSTORE RETURN JUMPDEST DUP2 DUP1 PUSH2 0xB75 SWAP5 DUP2 SWAP4 DUP3 SLOAD AND GAS CALL PUSH2 0x933 PUSH2 0x1A64 JUMP JUMPDEST DUP1 CODESIZE DUP1 PUSH2 0xB30 JUMP JUMPDEST PUSH1 0x64 SWAP1 PUSH1 0x20 DUP8 MLOAD SWAP2 PUSH3 0x461BCD PUSH1 0xE5 SHL DUP4 MSTORE DUP3 ADD MSTORE PUSH1 0x13 PUSH1 0x24 DUP3 ADD MSTORE PUSH19 0x195D1A081D1C985B9CD9995C8819985A5B1959 PUSH1 0x6A SHL PUSH1 0x44 DUP3 ADD MSTORE REVERT JUMPDEST PUSH2 0x906 SWAP2 POP PUSH1 0x20 RETURNDATASIZE PUSH1 0x20 GT PUSH2 0x6C2 JUMPI PUSH2 0x6B3 DUP2 DUP4 PUSH2 0x18AB JUMP JUMPDEST DUP9 MLOAD RETURNDATASIZE DUP8 DUP3 RETURNDATACOPY RETURNDATASIZE SWAP1 REVERT JUMPDEST DUP4 MLOAD PUSH3 0x461BCD PUSH1 0xE5 SHL DUP2 MSTORE PUSH1 0x20 DUP2 DUP8 ADD MSTORE PUSH1 0x18 PUSH1 0x24 DUP3 ADD MSTORE PUSH32 0x696E73756666696369656E742065746820726573657276650000000000000000 PUSH1 0x44 DUP3 ADD MSTORE PUSH1 0x64 SWAP1 REVERT JUMPDEST POP POP CALLVALUE PUSH2 0x18A JUMPI DUP2 PUSH1 0x3 NOT CALLDATASIZE ADD SLT PUSH2 0x18A JUMPI PUSH1 0x20 SWAP1 PUSH1 0x2 SLOAD SWAP1 MLOAD SWAP1 DUP2 MSTORE RETURN JUMPDEST POP POP CALLVALUE PUSH2 0x18A JUMPI DUP2 PUSH1 0x3 NOT CALLDATASIZE ADD SLT PUSH2 0x18A JUMPI PUSH1 0x20 SWAP1 PUSH1 0x3 SLOAD SWAP1 MLOAD SWAP1 DUP2 MSTORE RETURN JUMPDEST POP POP CALLVALUE PUSH2 0x18A JUMPI DUP2 PUSH1 0x3 NOT CALLDATASIZE ADD SLT PUSH2 0x18A JUMPI MLOAD PUSH32 0x0 PUSH1 0x1 PUSH1 0x1 PUSH1 0xA0 SHL SUB AND DUP2 MSTORE PUSH1 0x20 SWAP1 RETURN JUMPDEST POP POP CALLVALUE PUSH2 0x18A JUMPI DUP2 PUSH1 0x3 NOT CALLDATASIZE ADD SLT PUSH2 0x18A JUMPI PUSH1 0x20 SWAP1 PUSH1 0xFF PUSH1 0x6 SLOAD PUSH1 0xB0 SHR AND SWAP1 MLOAD SWAP1 ISZERO ISZERO DUP2 MSTORE RETURN JUMPDEST SWAP1 POP DUP3 CALLVALUE PUSH2 0x9AC JUMPI PUSH1 0x20 CALLDATASIZE PUSH1 0x3 NOT ADD SLT PUSH2 0x9AC JUMPI POP PUSH2 0xCE4 SWAP1 CALLDATALOAD PUSH2 0x18E3 JUMP JUMPDEST DUP3 MLOAD SWAP2 DUP3 MSTORE PUSH1 0x20 DUP3 ADD MSTORE RETURN JUMPDEST DUP4 SWAP2 POP CALLVALUE PUSH2 0x18A JUMPI PUSH1 0x20 SWAP1 DUP2 PUSH1 0x3 NOT CALLDATASIZE ADD SLT PUSH2 0x1EF JUMPI DUP1 CALLDATALOAD SWAP1 PUSH1 0x1 PUSH1 0x1 PUSH1 0xA0 SHL SUB SWAP1 PUSH2 0xD3F CALLER PUSH32 0x0 DUP5 AND EQ PUSH2 0x141B JUMP JUMPDEST PUSH1 0x6 SLOAD SWAP2 PUSH1 0xFF DUP4 PUSH1 0xA0 SHR AND PUSH2 0xE6A JUMPI DUP5 PUSH1 0x24 SWAP2 PUSH2 0xD5D DUP7 ISZERO ISZERO PUSH2 0x1867 JUMP JUMPDEST DUP9 MLOAD PUSH4 0x70A08231 PUSH1 0xE0 SHL DUP2 MSTORE ADDRESS DUP6 DUP3 ADD MSTORE SWAP3 DUP4 SWAP2 DUP3 SWAP1 PUSH32 0x0 AND GAS STATICCALL SWAP1 DUP2 ISZERO PUSH2 0xE60 JUMPI SWAP1 DUP5 SWAP2 DUP8 SWAP2 PUSH2 0xE2B JUMPI JUMPDEST POP LT PUSH2 0xDF2 JUMPI POP PUSH1 0xFF PUSH1 0xA0 SHL NOT AND PUSH1 0x1 PUSH1 0xA0 SHL OR PUSH1 0x6 SSTORE PUSH1 0x3 DUP2 SWAP1 SSTORE SWAP3 MLOAD SWAP3 DUP4 MSTORE SWAP1 SWAP2 PUSH32 0xA71ED34FF06AF8D6865A8F541AAE52D72FA89F0E5EE15F01D48FA6C62C856914 SWAP2 SWAP1 LOG1 DUP1 RETURN JUMPDEST DUP6 MLOAD PUSH3 0x461BCD PUSH1 0xE5 SHL DUP2 MSTORE SWAP1 DUP2 ADD DUP5 SWAP1 MSTORE PUSH1 0x13 PUSH1 0x24 DUP3 ADD MSTORE PUSH19 0x696E73756666696369656E7420746F6B656E73 PUSH1 0x68 SHL PUSH1 0x44 DUP3 ADD MSTORE PUSH1 0x64 SWAP1 REVERT JUMPDEST DUP1 SWAP3 POP DUP7 DUP1 SWAP3 POP RETURNDATASIZE DUP4 GT PUSH2 0xE59 JUMPI JUMPDEST PUSH2 0xE44 DUP2 DUP4 PUSH2 0x18AB JUMP JUMPDEST DUP2 ADD SUB SLT PUSH2 0xE55 JUMPI DUP4 SWAP1 MLOAD DUP9 PUSH2 0xDA8 JUMP JUMPDEST DUP6 DUP1 REVERT JUMPDEST POP RETURNDATASIZE PUSH2 0xE3A JUMP JUMPDEST DUP8 MLOAD RETURNDATASIZE DUP9 DUP3 RETURNDATACOPY RETURNDATASIZE SWAP1 REVERT JUMPDEST DUP7 MLOAD PUSH3 0x461BCD PUSH1 0xE5 SHL DUP2 MSTORE DUP1 DUP4 ADD DUP7 SWAP1 MSTORE PUSH1 0xE PUSH1 0x24 DUP3 ADD MSTORE PUSH14 0x185B1C9958591E481CD959591959 PUSH1 0x92 SHL PUSH1 0x44 DUP3 ADD MSTORE PUSH1 0x64 SWAP1 REVERT JUMPDEST DUP4 SWAP2 POP CALLVALUE PUSH2 0x18A JUMPI PUSH1 0x60 CALLDATASIZE PUSH1 0x3 NOT ADD SLT PUSH2 0x18A JUMPI PUSH2 0xEBA PUSH2 0x1400 JUMP JUMPDEST PUSH1 0x24 CALLDATALOAD SWAP2 PUSH1 0x1 PUSH1 0x1 PUSH1 0xA0 SHL SUB SWAP1 DUP2 DUP5 AND DUP1 DUP6 SUB PUSH2 0xE55 JUMPI PUSH1 0x44 CALLDATALOAD SWAP3 PUSH2 0xF02 DUP2 PUSH32 0x0 AND CALLER EQ PUSH2 0x141B JUMP JUMPDEST PUSH1 0x6 SLOAD SWAP1 PUSH2 0xF16 PUSH1 0xFF DUP4 PUSH1 0xA8 SHR AND ISZERO PUSH2 0x14CD JUMP JUMPDEST DUP5 ISZERO PUSH2 0xFCB JUMPI DUP6 AND SWAP1 DUP2 PUSH2 0xF8B JUMPI JUMPDEST PUSH1 0x5 DUP1 SLOAD PUSH1 0x1 PUSH1 0x1 PUSH1 0xA0 SHL SUB NOT SWAP1 DUP2 AND SWAP4 SWAP1 SWAP4 OR SWAP1 SSTORE AND OR PUSH1 0x6 SSTORE DUP2 SWAP1 SSTORE SWAP4 MLOAD PUSH1 0x1 PUSH1 0x1 PUSH1 0xA0 SHL SUB SWAP2 DUP3 AND DUP2 MSTORE SWAP2 AND PUSH1 0x20 DUP3 ADD MSTORE PUSH1 0x40 DUP2 ADD SWAP3 SWAP1 SWAP3 MSTORE SWAP1 PUSH32 0xBCDC4BFF84F936019028A7BCBEF6B449550D6334606377B822720E57E94276C4 SWAP1 PUSH1 0x60 SWAP1 LOG1 DUP1 RETURN JUMPDEST DUP3 PUSH2 0xF25 JUMPI DUP9 MLOAD PUSH3 0x461BCD PUSH1 0xE5 SHL DUP2 MSTORE PUSH1 0x20 DUP2 DUP7 ADD MSTORE PUSH1 0x15 PUSH1 0x24 DUP3 ADD MSTORE PUSH21 0x1B1C081C9958DA5C1A595B9D081C995C5D5A5C9959 PUSH1 0x5A SHL PUSH1 0x44 DUP3 ADD MSTORE PUSH1 0x64 SWAP1 REVERT JUMPDEST DUP9 MLOAD PUSH3 0x461BCD PUSH1 0xE5 SHL DUP2 MSTORE PUSH1 0x20 DUP2 DUP7 ADD MSTORE PUSH1 0xF PUSH1 0x24 DUP3 ADD MSTORE PUSH15 0x1D185C99D95D081C995C5D5A5C9959 PUSH1 0x8A SHL PUSH1 0x44 DUP3 ADD MSTORE PUSH1 0x64 SWAP1 REVERT JUMPDEST POP POP CALLVALUE PUSH2 0x18A JUMPI DUP2 PUSH1 0x3 NOT CALLDATASIZE ADD SLT PUSH2 0x18A JUMPI PUSH1 0x20 SWAP1 PUSH1 0x8 SLOAD SWAP1 MLOAD SWAP1 DUP2 MSTORE RETURN JUMPDEST POP POP CALLVALUE PUSH2 0x18A JUMPI DUP2 PUSH1 0x3 NOT CALLDATASIZE ADD SLT PUSH2 0x18A JUMPI PUSH1 0x20 SWAP1 MLOAD PUSH32 0x0 DUP2 MSTORE RETURN JUMPDEST SWAP1 POP DUP3 CALLVALUE PUSH2 0x9AC JUMPI PUSH1 0x20 CALLDATASIZE PUSH1 0x3 NOT ADD SLT PUSH2 0x9AC JUMPI POP PUSH2 0xCE4 SWAP1 CALLDATALOAD PUSH2 0x17EE JUMP JUMPDEST POP POP CALLVALUE PUSH2 0x18A JUMPI DUP2 PUSH1 0x3 NOT CALLDATASIZE ADD SLT PUSH2 0x18A JUMPI SWAP1 SLOAD SWAP1 MLOAD PUSH1 0x1 PUSH1 0x1 PUSH1 0xA0 SHL SUB SWAP1 SWAP2 AND DUP2 MSTORE PUSH1 0x20 SWAP1 RETURN JUMPDEST POP POP CALLVALUE PUSH2 0x18A JUMPI DUP2 PUSH1 0x3 NOT CALLDATASIZE ADD SLT PUSH2 0x18A JUMPI PUSH1 0x6 SLOAD SWAP1 MLOAD PUSH1 0x1 PUSH1 0x1 PUSH1 0xA0 SHL SUB SWAP1 SWAP2 AND DUP2 MSTORE PUSH1 0x20 SWAP1 RETURN JUMPDEST DUP4 CALLVALUE PUSH2 0x9AC JUMPI DUP1 PUSH1 0x3 NOT CALLDATASIZE ADD SLT PUSH2 0x9AC JUMPI PUSH1 0x6 SLOAD PUSH2 0x10EE PUSH1 0xFF DUP3 PUSH1 0xB8 SHR AND ISZERO PUSH2 0x1456 JUMP JUMPDEST PUSH1 0xFF PUSH1 0xB8 SHL NOT SWAP1 DUP2 AND PUSH1 0x1 PUSH1 0xB8 SHL OR PUSH1 0x6 SSTORE PUSH2 0x1108 PUSH2 0x177D JUMP JUMPDEST PUSH1 0x6 SLOAD AND PUSH1 0x6 SSTORE DUP1 RETURN JUMPDEST POP POP CALLVALUE PUSH2 0x18A JUMPI DUP2 PUSH1 0x3 NOT CALLDATASIZE ADD SLT PUSH2 0x18A JUMPI PUSH1 0x20 SWAP1 PUSH2 0x112F PUSH2 0x166E JUMP JUMPDEST SWAP1 MLOAD SWAP1 DUP2 MSTORE RETURN JUMPDEST POP POP CALLVALUE PUSH2 0x18A JUMPI DUP2 PUSH1 0x3 NOT CALLDATASIZE ADD SLT PUSH2 0x18A JUMPI PUSH1 0x20 SWAP1 MLOAD PUSH32 0x0 DUP2 MSTORE RETURN JUMPDEST POP POP CALLVALUE PUSH2 0x18A JUMPI DUP2 PUSH1 0x3 NOT CALLDATASIZE ADD SLT PUSH2 0x18A JUMPI PUSH1 0x20 SWAP1 PUSH1 0xFF PUSH1 0x6 SLOAD PUSH1 0xA0 SHR AND SWAP1 MLOAD SWAP1 ISZERO ISZERO DUP2 MSTORE RETURN JUMPDEST SWAP2 SWAP1 POP CALLVALUE PUSH2 0x1EF JUMPI DUP1 PUSH1 0x3 NOT CALLDATASIZE ADD SLT PUSH2 0x1EF JUMPI PUSH2 0x11B3 PUSH2 0x1400 JUMP JUMPDEST PUSH1 0x24 CALLDATALOAD SWAP2 SWAP1 PUSH1 0x1 PUSH1 0x1 PUSH1 0xA0 SHL SUB SWAP1 PUSH2 0x11EE CALLER PUSH32 0x0 DUP5 AND EQ PUSH2 0x141B JUMP JUMPDEST AND SWAP3 DUP4 ISZERO PUSH2 0x1273 JUMPI PUSH2 0x12C DUP4 GT PUSH2 0x1242 JUMPI POP DUP4 SLOAD PUSH1 0x1 PUSH1 0x1 PUSH1 0xA0 SHL SUB NOT AND DUP4 OR DUP5 SSTORE PUSH1 0x1 DUP3 SWAP1 SSTORE MLOAD SWAP1 DUP2 MSTORE PUSH32 0xE42708D93B95810922305119A3271CA42233DA9EBE1E1E503F0E887817A32C7A SWAP1 PUSH1 0x20 SWAP1 LOG2 DUP1 RETURN JUMPDEST PUSH1 0x20 PUSH1 0x64 SWAP3 MLOAD SWAP2 PUSH3 0x461BCD PUSH1 0xE5 SHL DUP4 MSTORE DUP3 ADD MSTORE PUSH1 0xC PUSH1 0x24 DUP3 ADD MSTORE PUSH12 0xCCCACA40E8DEDE40D0D2CED PUSH1 0xA3 SHL PUSH1 0x44 DUP3 ADD MSTORE REVERT JUMPDEST PUSH1 0x20 PUSH1 0x64 SWAP3 MLOAD SWAP2 PUSH3 0x461BCD PUSH1 0xE5 SHL DUP4 MSTORE DUP3 ADD MSTORE PUSH1 0x12 PUSH1 0x24 DUP3 ADD MSTORE PUSH18 0x1C9958DA5C1A595B9D081C995C5D5A5C9959 PUSH1 0x72 SHL PUSH1 0x44 DUP3 ADD MSTORE REVERT JUMPDEST POP POP CALLVALUE PUSH2 0x18A JUMPI DUP2 PUSH1 0x3 NOT CALLDATASIZE ADD SLT PUSH2 0x18A JUMPI PUSH1 0x20 SWAP1 PUSH2 0x112F PUSH2 0x15D0 JUMP JUMPDEST POP POP CALLVALUE PUSH2 0x18A JUMPI DUP2 PUSH1 0x3 NOT CALLDATASIZE ADD SLT PUSH2 0x18A JUMPI PUSH2 0x130D CALLER PUSH32 0x0 PUSH1 0x1 PUSH1 0x1 PUSH1 0xA0 SHL SUB AND EQ PUSH2 0x141B JUMP JUMPDEST PUSH1 0x6 SLOAD SWAP1 PUSH2 0x1321 PUSH1 0xFF DUP4 PUSH1 0xB8 SHR AND ISZERO PUSH2 0x1456 JUMP JUMPDEST PUSH1 0xFF PUSH1 0xB8 SHL NOT SWAP2 DUP3 AND PUSH1 0x1 PUSH1 0xB8 SHL OR PUSH1 0x6 DUP2 SWAP1 SSTORE PUSH2 0x134B SWAP1 PUSH1 0xFF SWAP1 PUSH2 0x2A0 PUSH1 0xA0 DUP3 SWAP1 SHR DUP4 AND PUSH2 0x148F JUMP JUMPDEST PUSH32 0x5D6DC6B9835F5448AE2351719684F59735B30DFA8E62677CC6F9E98BD4C08F7F PUSH1 0x2 SLOAD SWAP2 PUSH2 0x137B DUP4 ISZERO ISZERO PUSH2 0x154A JUMP JUMPDEST PUSH1 0x3 SLOAD DUP2 MLOAD SWAP4 DUP5 MSTORE PUSH1 0x20 DUP5 ADD MSTORE CALLER SWAP3 LOG2 PUSH2 0x1108 PUSH2 0x1B27 JUMP JUMPDEST POP POP CALLVALUE PUSH2 0x18A JUMPI DUP2 PUSH1 0x3 NOT CALLDATASIZE ADD SLT PUSH2 0x18A JUMPI PUSH1 0x20 SWAP1 PUSH1 0x1 SLOAD SWAP1 MLOAD SWAP1 DUP2 MSTORE RETURN JUMPDEST POP POP CALLVALUE PUSH2 0x18A JUMPI DUP2 PUSH1 0x3 NOT CALLDATASIZE ADD SLT PUSH2 0x18A JUMPI PUSH1 0x7 SLOAD SWAP1 MLOAD PUSH1 0x1 PUSH1 0x1 PUSH1 0xA0 SHL SUB SWAP1 SWAP2 AND DUP2 MSTORE PUSH1 0x20 SWAP1 RETURN JUMPDEST DUP5 SWAP1 CALLVALUE PUSH2 0x18A JUMPI DUP2 PUSH1 0x3 NOT CALLDATASIZE ADD SLT PUSH2 0x18A JUMPI PUSH1 0x5 SLOAD PUSH1 0x1 PUSH1 0x1 PUSH1 0xA0 SHL SUB AND DUP2 MSTORE PUSH1 0x20 SWAP1 RETURN JUMPDEST PUSH1 0x4 CALLDATALOAD SWAP1 PUSH1 0x1 PUSH1 0x1 PUSH1 0xA0 SHL SUB DUP3 AND DUP3 SUB PUSH2 0x1416 JUMPI JUMP JUMPDEST PUSH1 0x0 DUP1 REVERT JUMPDEST ISZERO PUSH2 0x1422 JUMPI JUMP JUMPDEST PUSH1 0x40 MLOAD PUSH3 0x461BCD PUSH1 0xE5 SHL DUP2 MSTORE PUSH1 0x20 PUSH1 0x4 DUP3 ADD MSTORE PUSH1 0xC PUSH1 0x24 DUP3 ADD MSTORE PUSH12 0x6F6E6C7920666163746F7279 PUSH1 0xA0 SHL PUSH1 0x44 DUP3 ADD MSTORE PUSH1 0x64 SWAP1 REVERT JUMPDEST ISZERO PUSH2 0x145D JUMPI JUMP JUMPDEST PUSH1 0x40 MLOAD PUSH3 0x461BCD PUSH1 0xE5 SHL DUP2 MSTORE PUSH1 0x20 PUSH1 0x4 DUP3 ADD MSTORE PUSH1 0xA PUSH1 0x24 DUP3 ADD MSTORE PUSH10 0x7265656E7472616E6379 PUSH1 0xB0 SHL PUSH1 0x44 DUP3 ADD MSTORE PUSH1 0x64 SWAP1 REVERT JUMPDEST ISZERO PUSH2 0x1496 JUMPI JUMP JUMPDEST PUSH1 0x40 MLOAD PUSH3 0x461BCD PUSH1 0xE5 SHL DUP2 MSTORE PUSH1 0x20 PUSH1 0x4 DUP3 ADD MSTORE PUSH1 0xF PUSH1 0x24 DUP3 ADD MSTORE PUSH15 0x1C1BDBDB081B9BDD081CD959591959 PUSH1 0x8A SHL PUSH1 0x44 DUP3 ADD MSTORE PUSH1 0x64 SWAP1 REVERT JUMPDEST ISZERO PUSH2 0x14D4 JUMPI JUMP JUMPDEST PUSH1 0x40 MLOAD PUSH3 0x461BCD PUSH1 0xE5 SHL DUP2 MSTORE PUSH1 0x20 PUSH1 0x4 DUP3 ADD MSTORE PUSH1 0x11 PUSH1 0x24 DUP3 ADD MSTORE PUSH17 0x185B1C9958591E4819DC98591D585D1959 PUSH1 0x7A SHL PUSH1 0x44 DUP3 ADD MSTORE PUSH1 0x64 SWAP1 REVERT JUMPDEST ISZERO PUSH2 0x1514 JUMPI JUMP JUMPDEST PUSH1 0x40 MLOAD PUSH3 0x461BCD PUSH1 0xE5 SHL DUP2 MSTORE PUSH1 0x20 PUSH1 0x4 DUP3 ADD MSTORE PUSH1 0xE PUSH1 0x24 DUP3 ADD MSTORE PUSH14 0x646578206375727665206C697665 PUSH1 0x90 SHL PUSH1 0x44 DUP3 ADD MSTORE PUSH1 0x64 SWAP1 REVERT JUMPDEST ISZERO PUSH2 0x1551 JUMPI JUMP JUMPDEST PUSH1 0x40 MLOAD PUSH3 0x461BCD PUSH1 0xE5 SHL DUP2 MSTORE PUSH1 0x20 PUSH1 0x4 DUP3 ADD MSTORE PUSH1 0xE PUSH1 0x24 DUP3 ADD MSTORE PUSH14 0x6E6F206574682072657365727665 PUSH1 0x90 SHL PUSH1 0x44 DUP3 ADD MSTORE PUSH1 0x64 SWAP1 REVERT JUMPDEST DUP2 DUP2 MUL SWAP3 SWAP2 DUP2 ISZERO SWAP2 DUP5 DIV EQ OR ISZERO PUSH2 0x159A JUMPI JUMP JUMPDEST PUSH4 0x4E487B71 PUSH1 0xE0 SHL PUSH1 0x0 MSTORE PUSH1 0x11 PUSH1 0x4 MSTORE PUSH1 0x24 PUSH1 0x0 REVERT JUMPDEST DUP2 ISZERO PUSH2 0x15BA JUMPI DIV SWAP1 JUMP JUMPDEST PUSH4 0x4E487B71 PUSH1 0xE0 SHL PUSH1 0x0 MSTORE PUSH1 0x12 PUSH1 0x4 MSTORE PUSH1 0x24 PUSH1 0x0 REVERT JUMPDEST PUSH1 0x4 SLOAD DUP1 ISZERO PUSH2 0x165B JUMPI PUSH1 0x6 SLOAD PUSH1 0xFF DUP2 PUSH1 0xB0 SHR AND SWAP1 DUP2 ISZERO PUSH2 0x1633 JUMPI JUMPDEST POP ISZERO PUSH2 0x162B JUMPI PUSH2 0x15F9 PUSH2 0x22FF JUMP JUMPDEST SWAP1 POP JUMPDEST PUSH2 0x2710 SWAP2 DUP3 DUP3 MUL SWAP2 DUP1 DUP4 DIV DUP5 EQ SWAP1 ISZERO OR ISZERO PUSH2 0x159A JUMPI PUSH2 0x161A SWAP2 PUSH2 0x15B0 JUMP JUMPDEST SWAP1 DUP1 DUP3 GT PUSH2 0x1626 JUMPI POP SWAP1 JUMP JUMPDEST SWAP1 POP SWAP1 JUMP JUMPDEST PUSH1 0x2 SLOAD PUSH2 0x15FC JUMP JUMPDEST PUSH1 0xFF SWAP2 POP PUSH1 0xA8 SHR AND DUP1 PUSH2 0x1647 JUMPI JUMPDEST CODESIZE PUSH2 0x15EB JUMP JUMPDEST POP PUSH1 0x7 SLOAD PUSH1 0x1 PUSH1 0x1 PUSH1 0xA0 SHL SUB AND ISZERO ISZERO PUSH2 0x1641 JUMP JUMPDEST POP PUSH1 0x0 SWAP1 JUMP JUMPDEST SWAP2 SWAP1 DUP3 ADD DUP1 SWAP3 GT PUSH2 0x159A JUMPI JUMP JUMPDEST PUSH1 0x6 SLOAD PUSH1 0xFF DUP2 PUSH1 0xB0 SHR AND SWAP1 DUP2 ISZERO PUSH2 0x172E JUMPI JUMPDEST POP DUP1 PUSH2 0x171A JUMPI JUMPDEST PUSH2 0x1712 JUMPI PUSH2 0x16B8 PUSH1 0x3 SLOAD PUSH32 0x0 SWAP1 PUSH2 0x1661 JUMP JUMPDEST DUP1 ISZERO PUSH2 0x165B JUMPI PUSH2 0x16EB PUSH1 0x2 SLOAD PUSH32 0x0 SWAP1 PUSH2 0x1661 JUMP JUMPDEST SWAP1 PUSH8 0xDE0B6B3A7640000 SWAP2 DUP3 DUP2 MUL SWAP3 DUP2 DUP5 DIV EQ SWAP1 ISZERO OR ISZERO PUSH2 0x159A JUMPI PUSH2 0x170F SWAP2 PUSH2 0x15B0 JUMP JUMPDEST SWAP1 JUMP JUMPDEST PUSH2 0x170F PUSH2 0x1F42 JUMP JUMPDEST POP PUSH1 0x7 SLOAD PUSH1 0x1 PUSH1 0x1 PUSH1 0xA0 SHL SUB AND ISZERO ISZERO PUSH2 0x1687 JUMP JUMPDEST PUSH1 0xFF SWAP2 POP PUSH1 0xA8 SHR AND CODESIZE PUSH2 0x1680 JUMP JUMPDEST ISZERO PUSH2 0x1743 JUMPI JUMP JUMPDEST PUSH1 0x40 MLOAD PUSH3 0x461BCD PUSH1 0xE5 SHL DUP2 MSTORE PUSH1 0x20 PUSH1 0x4 DUP3 ADD MSTORE PUSH1 0x12 PUSH1 0x24 DUP3 ADD MSTORE PUSH18 0x1D185C99D95D081B9BDD081C995858DA1959 PUSH1 0x72 SHL PUSH1 0x44 DUP3 ADD MSTORE PUSH1 0x64 SWAP1 REVERT JUMPDEST PUSH1 0xFF PUSH1 0x6 SLOAD PUSH2 0x1790 DUP3 DUP3 PUSH1 0xA0 SHR AND PUSH2 0x148F JUMP JUMPDEST PUSH2 0x179F DUP3 DUP3 PUSH1 0xA8 SHR AND ISZERO PUSH2 0x14CD JUMP JUMPDEST PUSH1 0xB0 SHR AND PUSH2 0x17C1 JUMPI PUSH2 0x17B7 PUSH1 0x2 SLOAD PUSH1 0x4 SLOAD GT ISZERO PUSH2 0x173C JUMP JUMPDEST PUSH2 0x17BF PUSH2 0x1B27 JUMP JUMPDEST JUMP JUMPDEST PUSH2 0x17BF PUSH2 0x17CC PUSH2 0x22FF JUMP JUMPDEST SWAP1 POP PUSH2 0x17DC PUSH1 0x4 SLOAD DUP3 LT ISZERO PUSH2 0x173C JUMP JUMPDEST PUSH2 0x1F8A JUMP JUMPDEST SWAP2 SWAP1 DUP3 SUB SWAP2 DUP3 GT PUSH2 0x159A JUMPI JUMP JUMPDEST PUSH1 0x6 SLOAD PUSH1 0xFF DUP2 PUSH1 0xA0 SHR AND ISZERO SWAP1 DUP2 ISZERO PUSH2 0x1858 JUMPI JUMPDEST DUP2 ISZERO PUSH2 0x184A JUMPI JUMPDEST POP DUP1 ISZERO PUSH2 0x1842 JUMPI JUMPDEST PUSH2 0x1839 JUMPI PUSH2 0x1836 PUSH2 0x1831 PUSH2 0x2710 PUSH2 0x1829 PUSH1 0x1 SLOAD DUP6 PUSH2 0x1587 JUMP JUMPDEST DIV DUP1 SWAP4 PUSH2 0x17E1 JUMP JUMPDEST PUSH2 0x218F JUMP JUMPDEST SWAP2 JUMP JUMPDEST POP PUSH1 0x0 SWAP1 PUSH1 0x0 SWAP1 JUMP JUMPDEST POP DUP1 ISZERO PUSH2 0x1810 JUMP JUMPDEST PUSH1 0xFF SWAP2 POP PUSH1 0xB0 SHR AND CODESIZE PUSH2 0x1808 JUMP JUMPDEST SWAP1 POP PUSH1 0xFF DUP2 PUSH1 0xA8 SHR AND SWAP1 PUSH2 0x1801 JUMP JUMPDEST ISZERO PUSH2 0x186E JUMPI JUMP JUMPDEST PUSH1 0x40 MLOAD PUSH3 0x461BCD PUSH1 0xE5 SHL DUP2 MSTORE PUSH1 0x20 PUSH1 0x4 DUP3 ADD MSTORE PUSH1 0x15 PUSH1 0x24 DUP3 ADD MSTORE PUSH21 0x1D1BDAD95B88185B5BDD5B9D081C995C5D5A5C9959 PUSH1 0x5A SHL PUSH1 0x44 DUP3 ADD MSTORE PUSH1 0x64 SWAP1 REVERT JUMPDEST SWAP1 PUSH1 0x1F DUP1 NOT SWAP2 ADD AND DUP2 ADD SWAP1 DUP2 LT PUSH8 0xFFFFFFFFFFFFFFFF DUP3 GT OR PUSH2 0x18CD JUMPI PUSH1 0x40 MSTORE JUMP JUMPDEST PUSH4 0x4E487B71 PUSH1 0xE0 SHL PUSH1 0x0 MSTORE PUSH1 0x41 PUSH1 0x4 MSTORE PUSH1 0x24 PUSH1 0x0 REVERT JUMPDEST PUSH1 0x6 SLOAD PUSH1 0xFF DUP2 PUSH1 0xA0 SHR AND ISZERO SWAP1 DUP2 ISZERO PUSH2 0x1948 JUMPI JUMPDEST DUP2 ISZERO PUSH2 0x193A JUMPI JUMPDEST POP DUP1 ISZERO PUSH2 0x1932 JUMPI JUMPDEST PUSH2 0x1839 JUMPI PUSH2 0x1912 SWAP1 PUSH2 0x2227 JUMP JUMPDEST DUP1 ISZERO PUSH2 0x1839 JUMPI PUSH2 0x1836 PUSH2 0x2710 PUSH2 0x192A PUSH1 0x1 SLOAD DUP5 PUSH2 0x1587 JUMP JUMPDEST DIV DUP1 SWAP3 PUSH2 0x17E1 JUMP JUMPDEST POP DUP1 ISZERO PUSH2 0x1905 JUMP JUMPDEST PUSH1 0xFF SWAP2 POP PUSH1 0xB0 SHR AND CODESIZE PUSH2 0x18FD JUMP JUMPDEST SWAP1 POP PUSH1 0xFF DUP2 PUSH1 0xA8 SHR AND SWAP1 PUSH2 0x18F6 JUMP JUMPDEST ISZERO PUSH2 0x195E JUMPI JUMP JUMPDEST PUSH1 0x40 MLOAD PUSH3 0x461BCD PUSH1 0xE5 SHL DUP2 MSTORE PUSH1 0x20 PUSH1 0x4 DUP3 ADD MSTORE PUSH1 0x9 PUSH1 0x24 DUP3 ADD MSTORE PUSH9 0x19DC98591D585D1959 PUSH1 0xBA SHL PUSH1 0x44 DUP3 ADD MSTORE PUSH1 0x64 SWAP1 REVERT JUMPDEST ISZERO PUSH2 0x1996 JUMPI JUMP JUMPDEST PUSH1 0x40 MLOAD PUSH3 0x461BCD PUSH1 0xE5 SHL DUP2 MSTORE PUSH1 0x20 PUSH1 0x4 DUP3 ADD MSTORE PUSH1 0x13 PUSH1 0x24 DUP3 ADD MSTORE PUSH19 0x1A5B9CDD59999A58DA595B9D081BDD5D1C1D5D PUSH1 0x6A SHL PUSH1 0x44 DUP3 ADD MSTORE PUSH1 0x64 SWAP1 REVERT JUMPDEST ISZERO PUSH2 0x19D8 JUMPI JUMP JUMPDEST PUSH1 0x40 MLOAD PUSH3 0x461BCD PUSH1 0xE5 SHL DUP2 MSTORE PUSH1 0x20 PUSH1 0x4 DUP3 ADD MSTORE PUSH1 0x8 PUSH1 0x24 DUP3 ADD MSTORE PUSH8 0x736C697070616765 PUSH1 0xC0 SHL PUSH1 0x44 DUP3 ADD MSTORE PUSH1 0x64 SWAP1 REVERT JUMPDEST SWAP1 DUP2 PUSH1 0x20 SWAP2 SUB SLT PUSH2 0x1416 JUMPI MLOAD DUP1 ISZERO ISZERO DUP2 SUB PUSH2 0x1416 JUMPI SWAP1 JUMP JUMPDEST ISZERO PUSH2 0x1A27 JUMPI JUMP JUMPDEST PUSH1 0x40 MLOAD PUSH3 0x461BCD PUSH1 0xE5 SHL DUP2 MSTORE PUSH1 0x20 PUSH1 0x4 DUP3 ADD MSTORE PUSH1 0x15 PUSH1 0x24 DUP3 ADD MSTORE PUSH21 0x1D1BDAD95B881D1C985B9CD9995C8819985A5B1959 PUSH1 0x5A SHL PUSH1 0x44 DUP3 ADD MSTORE PUSH1 0x64 SWAP1 REVERT JUMPDEST RETURNDATASIZE ISZERO PUSH2 0x1A9F JUMPI RETURNDATASIZE SWAP1 PUSH8 0xFFFFFFFFFFFFFFFF DUP3 GT PUSH2 0x18CD JUMPI PUSH1 0x40 MLOAD SWAP2 PUSH2 0x1A93 PUSH1 0x1F DUP3 ADD PUSH1 0x1F NOT AND PUSH1 0x20 ADD DUP5 PUSH2 0x18AB JUMP JUMPDEST DUP3 MSTORE RETURNDATASIZE PUSH1 0x0 PUSH1 0x20 DUP5 ADD RETURNDATACOPY JUMP JUMPDEST PUSH1 0x60 SWAP1 JUMP JUMPDEST ISZERO PUSH2 0x1AAB JUMPI JUMP JUMPDEST PUSH1 0x40 MLOAD PUSH3 0x461BCD PUSH1 0xE5 SHL DUP2 MSTORE PUSH1 0x20 PUSH1 0x4 DUP3 ADD MSTORE PUSH1 0x13 PUSH1 0x24 DUP3 ADD MSTORE PUSH19 0x199959481D1C985B9CD9995C8819985A5B1959 PUSH1 0x6A SHL PUSH1 0x44 DUP3 ADD MSTORE PUSH1 0x64 SWAP1 REVERT JUMPDEST ISZERO PUSH2 0x1AED JUMPI JUMP JUMPDEST PUSH1 0x40 MLOAD PUSH3 0x461BCD PUSH1 0xE5 SHL DUP2 MSTORE PUSH1 0x20 PUSH1 0x4 DUP3 ADD MSTORE PUSH1 0x12 PUSH1 0x24 DUP3 ADD MSTORE PUSH18 0x19195E081C9BDD5D195C881B9BDD081CD95D PUSH1 0x72 SHL PUSH1 0x44 DUP3 ADD MSTORE PUSH1 0x64 SWAP1 REVERT JUMPDEST PUSH1 0x5 SLOAD PUSH1 0x1 PUSH1 0x1 PUSH1 0xA0 SHL SUB SWAP1 DUP2 AND SWAP1 PUSH2 0x1B41 DUP3 ISZERO ISZERO PUSH2 0x1AE6 JUMP JUMPDEST PUSH1 0x6 DUP1 SLOAD PUSH1 0xFF PUSH1 0xA8 SHL NOT DUP2 AND PUSH1 0x1 PUSH1 0xA8 SHL OR SWAP1 SWAP2 SSTORE TIMESTAMP PUSH1 0x8 SSTORE DUP2 AND DUP1 ISZERO PUSH2 0x1F06 JUMPI PUSH1 0x3 SLOAD SWAP2 PUSH1 0x2 SLOAD SWAP1 PUSH1 0x0 SWAP5 DUP6 PUSH1 0x3 SSTORE DUP6 PUSH1 0x2 SSTORE DUP2 PUSH32 0x0 AND SWAP3 PUSH1 0x40 SWAP7 DUP8 MLOAD SWAP2 PUSH4 0x95EA7B3 PUSH1 0xE0 SHL DUP1 DUP5 MSTORE PUSH1 0x4 SWAP5 DUP6 DUP6 ADD MSTORE DUP3 PUSH1 0x24 DUP6 ADD MSTORE PUSH1 0x20 SWAP4 DUP5 DUP2 PUSH1 0x44 DUP2 DUP8 DUP13 GAS CALL DUP1 ISZERO PUSH2 0x1EFC JUMPI SWAP2 DUP6 SWAP2 DUP12 SWAP4 PUSH2 0x1EDF JUMPI JUMPDEST POP PUSH1 0x5 SLOAD DUP13 MLOAD SWAP2 DUP3 MSTORE DUP9 AND PUSH1 0x1 PUSH1 0x1 PUSH1 0xA0 SHL SUB AND DUP8 DUP3 ADD SWAP1 DUP2 MSTORE PUSH1 0x20 DUP2 ADD SWAP4 SWAP1 SWAP4 MSTORE SWAP2 DUP3 SWAP1 DUP2 SWAP1 PUSH1 0x40 ADD SUB DUP2 DUP7 DUP12 GAS CALL DUP1 ISZERO PUSH2 0x5D0 JUMPI PUSH2 0x1EC2 JUMPI JUMPDEST POP DUP5 PUSH1 0x5 SLOAD AND PUSH2 0xE10 TIMESTAMP ADD DUP1 TIMESTAMP GT PUSH2 0x1EAF JUMPI PUSH1 0xC4 DUP9 DUP5 PUSH1 0x60 SWAP5 DUP14 SWAP5 DUP16 MLOAD SWAP14 DUP15 SWAP7 DUP8 SWAP6 PUSH4 0xF305D719 PUSH1 0xE0 SHL DUP8 MSTORE DUP14 DUP8 ADD MSTORE PUSH1 0x24 DUP7 ADD MSTORE DUP10 PUSH1 0x44 DUP7 ADD MSTORE DUP10 PUSH1 0x64 DUP7 ADD MSTORE PUSH1 0x84 DUP6 ADD MSTORE PUSH1 0xA4 DUP5 ADD MSTORE GAS CALL SWAP8 DUP9 ISZERO PUSH2 0x1EA5 JUMPI DUP3 SWAP7 DUP4 SWAP9 DUP5 SWAP11 PUSH2 0x1E61 JUMPI JUMPDEST POP PUSH1 0x5 SLOAD DUP12 MLOAD PUSH4 0xC45A0155 PUSH1 0xE0 SHL DUP2 MSTORE SWAP1 DUP9 AND DUP7 DUP3 DUP10 DUP2 DUP5 GAS STATICCALL SWAP2 DUP3 ISZERO PUSH2 0x1E38 JUMPI DUP9 SWAP4 SWAP3 SWAP2 DUP15 DUP10 SWAP3 DUP10 SWAP5 PUSH2 0x1E42 JUMPI JUMPDEST POP MLOAD PUSH4 0x15AB88C9 PUSH1 0xE3 SHL DUP2 MSTORE SWAP5 DUP6 SWAP2 DUP3 SWAP1 GAS STATICCALL SWAP3 DUP4 ISZERO PUSH2 0x1E38 JUMPI SWAP3 DUP8 SWAP7 SWAP6 SWAP5 SWAP4 SWAP3 DUP11 DUP16 SWAP4 DUP2 SWAP12 SWAP11 SWAP6 DUP10 SWAP5 PUSH2 0x1E18 JUMPI JUMPDEST POP PUSH1 0x44 SWAP4 SWAP5 MLOAD SWAP12 DUP13 SWAP6 DUP7 SWAP5 PUSH4 0xE6A43905 PUSH1 0xE0 SHL DUP7 MSTORE DUP14 DUP7 ADD MSTORE AND PUSH1 0x24 DUP5 ADD MSTORE AND GAS STATICCALL SWAP6 DUP7 ISZERO PUSH2 0x1E0E JUMPI SWAP1 DUP9 SWAP2 DUP5 SWAP8 PUSH2 0x1DEF JUMPI JUMPDEST POP DUP2 DUP2 GT PUSH2 0x1DDA JUMPI JUMPDEST POP POP DUP8 DUP2 GT PUSH2 0x1D75 JUMPI JUMPDEST POP POP PUSH1 0x7 DUP1 SLOAD PUSH1 0x1 PUSH1 0x1 PUSH1 0xA0 SHL SUB NOT AND SWAP5 SWAP1 SWAP4 AND SWAP4 DUP5 OR SWAP1 SWAP3 SSTORE POP POP SWAP4 MLOAD SWAP1 DUP2 MSTORE PUSH1 0x20 DUP2 ADD SWAP2 SWAP1 SWAP2 MSTORE PUSH1 0x40 DUP2 ADD SWAP2 SWAP1 SWAP2 MSTORE TIMESTAMP PUSH1 0x60 DUP3 ADD MSTORE PUSH32 0x71AA8C3702DBBC54247A4E6446450E64A46250DD72707A247DDB01D72EAEF445 SWAP1 DUP1 PUSH1 0x80 DUP2 ADD JUMPDEST SUB SWAP1 LOG2 JUMP JUMPDEST DUP2 DUP1 PUSH2 0x1D82 DUP11 DUP3 SWAP5 PUSH2 0x17E1 JUMP JUMPDEST DUP9 DUP3 SLOAD AND GAS CALL PUSH2 0x1D90 PUSH2 0x1A64 JUMP JUMPDEST POP ISZERO PUSH2 0x1D9D JUMPI DUP1 DUP1 PUSH2 0x1D11 JUMP JUMPDEST DUP8 MLOAD PUSH3 0x461BCD PUSH1 0xE5 SHL DUP2 MSTORE SWAP2 DUP3 ADD MSTORE PUSH1 0x18 PUSH1 0x24 DUP3 ADD MSTORE PUSH24 0x195D1A08191D5CDD081D1C985B9CD9995C8819985A5B1959 PUSH1 0x42 SHL PUSH1 0x44 DUP3 ADD MSTORE PUSH1 0x64 SWAP2 POP REVERT JUMPDEST PUSH2 0x1DE7 SWAP2 PUSH2 0x594 SWAP2 PUSH2 0x17E1 JUMP JUMPDEST POP DUP7 CODESIZE PUSH2 0x1D07 JUMP JUMPDEST PUSH2 0x1E07 SWAP2 SWAP8 POP DUP6 RETURNDATASIZE DUP8 GT PUSH2 0x5C9 JUMPI PUSH2 0x5BA DUP2 DUP4 PUSH2 0x18AB JUMP JUMPDEST SWAP6 CODESIZE PUSH2 0x1CFE JUMP JUMPDEST DUP12 MLOAD RETURNDATASIZE DUP6 DUP3 RETURNDATACOPY RETURNDATASIZE SWAP1 REVERT JUMPDEST PUSH1 0x44 SWAP5 POP PUSH2 0x1E32 SWAP1 DUP8 RETURNDATASIZE DUP10 GT PUSH2 0x5C9 JUMPI PUSH2 0x5BA DUP2 DUP4 PUSH2 0x18AB JUMP JUMPDEST SWAP4 PUSH2 0x1CCB JUMP JUMPDEST DUP14 MLOAD RETURNDATASIZE DUP9 DUP3 RETURNDATACOPY RETURNDATASIZE SWAP1 REVERT JUMPDEST PUSH2 0x1E5A SWAP2 SWAP5 POP DUP4 RETURNDATASIZE DUP6 GT PUSH2 0x5C9 JUMPI PUSH2 0x5BA DUP2 DUP4 PUSH2 0x18AB JUMP JUMPDEST SWAP3 CODESIZE PUSH2 0x1C9C JUMP JUMPDEST SWAP8 POP SWAP9 POP SWAP7 POP PUSH1 0x60 DUP7 RETURNDATASIZE PUSH1 0x60 GT PUSH2 0x1E9D JUMPI JUMPDEST DUP2 PUSH2 0x1E80 PUSH1 0x60 SWAP4 DUP4 PUSH2 0x18AB JUMP JUMPDEST DUP2 ADD SUB SLT PUSH2 0x18A JUMPI DUP6 MLOAD SWAP7 DUP10 DUP5 DUP9 ADD MLOAD SWAP8 ADD MLOAD SWAP8 SWAP7 SWAP8 SWAP9 CODESIZE PUSH2 0x1C6D JUMP JUMPDEST RETURNDATASIZE SWAP2 POP PUSH2 0x1E73 JUMP JUMPDEST DUP10 MLOAD RETURNDATASIZE DUP5 DUP3 RETURNDATACOPY RETURNDATASIZE SWAP1 REVERT JUMPDEST PUSH4 0x4E487B71 PUSH1 0xE0 SHL DUP5 MSTORE PUSH1 0x11 DUP7 MSTORE PUSH1 0x24 DUP5 REVERT JUMPDEST PUSH2 0x1ED8 SWAP1 DUP5 RETURNDATASIZE DUP7 GT PUSH2 0x6C2 JUMPI PUSH2 0x6B3 DUP2 DUP4 PUSH2 0x18AB JUMP JUMPDEST POP CODESIZE PUSH2 0x1C0E JUMP JUMPDEST PUSH2 0x1EF5 SWAP1 DUP4 RETURNDATASIZE DUP6 GT PUSH2 0x6C2 JUMPI PUSH2 0x6B3 DUP2 DUP4 PUSH2 0x18AB JUMP JUMPDEST POP CODESIZE PUSH2 0x1BD3 JUMP JUMPDEST DUP12 MLOAD RETURNDATASIZE DUP7 DUP3 RETURNDATACOPY RETURNDATASIZE SWAP1 REVERT JUMPDEST PUSH1 0x40 MLOAD PUSH3 0x461BCD PUSH1 0xE5 SHL DUP2 MSTORE PUSH1 0x20 PUSH1 0x4 DUP3 ADD MSTORE PUSH1 0x14 PUSH1 0x24 DUP3 ADD MSTORE PUSH20 0x1B1C081C9958D95A5D995C881C995C5D5A5C9959 PUSH1 0x62 SHL PUSH1 0x44 DUP3 ADD MSTORE PUSH1 0x64 SWAP1 REVERT JUMPDEST PUSH2 0x1F4A PUSH2 0x22FF JUMP JUMPDEST SWAP1 DUP1 ISZERO DUP1 ISZERO PUSH2 0x1F82 JUMPI JUMPDEST PUSH2 0x1F7B JUMPI PUSH8 0xDE0B6B3A7640000 SWAP2 DUP3 DUP2 MUL SWAP3 DUP2 DUP5 DIV EQ SWAP1 ISZERO OR ISZERO PUSH2 0x159A JUMPI PUSH2 0x170F SWAP2 PUSH2 0x15B0 JUMP JUMPDEST POP POP PUSH1 0x0 SWAP1 JUMP JUMPDEST POP DUP2 ISZERO PUSH2 0x1F54 JUMP JUMPDEST SWAP1 PUSH1 0x6 SLOAD PUSH1 0xFF DUP2 PUSH1 0xB0 SHR AND ISZERO PUSH2 0x2155 JUMPI PUSH1 0x7 SLOAD PUSH1 0x1 PUSH1 0x1 PUSH1 0xA0 SHL SUB SWAP1 DUP2 AND SWAP2 DUP3 ISZERO PUSH2 0x2121 JUMPI PUSH2 0xFFFF PUSH1 0xA8 SHL NOT AND PUSH1 0x1 PUSH1 0xA8 SHL OR PUSH1 0x6 SSTORE TIMESTAMP PUSH1 0x8 SSTORE PUSH1 0x40 DUP1 MLOAD PUSH4 0x70A08231 PUSH1 0xE0 SHL DUP2 MSTORE ADDRESS PUSH1 0x4 DUP3 ADD MSTORE SWAP1 SWAP3 PUSH1 0x20 SWAP1 DUP2 DUP4 PUSH1 0x24 DUP2 DUP5 GAS STATICCALL SWAP3 DUP4 ISZERO PUSH2 0x20E7 JUMPI PUSH1 0x0 SWAP4 PUSH2 0x20F2 JUMPI JUMPDEST POP DUP3 PUSH2 0x2055 JUMPI JUMPDEST POP POP PUSH2 0x1D70 PUSH32 0x6D6435BD27368EEAA8BEA9975846B4FFC3D4864FAABCEC7E007DC6014F4EA055 SWAP4 SWAP5 SWAP6 PUSH2 0x202C PUSH2 0x2559 JUMP JUMPDEST SWAP4 PUSH1 0x7 SLOAD AND SWAP6 MLOAD SWAP4 DUP5 SWAP4 TIMESTAMP SWAP3 DUP6 SWAP1 SWAP5 SWAP4 SWAP3 PUSH1 0x60 SWAP3 PUSH1 0x80 DUP4 ADD SWAP7 DUP4 MSTORE PUSH1 0x20 DUP4 ADD MSTORE PUSH1 0x40 DUP3 ADD MSTORE ADD MSTORE JUMP JUMPDEST DUP2 PUSH1 0x0 SWAP2 PUSH1 0x44 DUP8 MLOAD DUP1 SWAP5 DUP2 SWAP4 PUSH4 0xA9059CBB PUSH1 0xE0 SHL DUP4 MSTORE PUSH2 0xDEAD PUSH1 0x4 DUP5 ADD MSTORE DUP9 PUSH1 0x24 DUP5 ADD MSTORE GAS CALL SWAP1 DUP2 ISZERO PUSH2 0x20E7 JUMPI PUSH1 0x0 SWAP2 PUSH2 0x20CA JUMPI JUMPDEST POP ISZERO PUSH2 0x2096 JUMPI DUP1 PUSH2 0x1FFB JUMP JUMPDEST PUSH1 0x64 SWAP1 DUP5 MLOAD SWAP1 PUSH3 0x461BCD PUSH1 0xE5 SHL DUP3 MSTORE PUSH1 0x4 DUP3 ADD MSTORE PUSH1 0xE PUSH1 0x24 DUP3 ADD MSTORE PUSH14 0x1B1C08189D5C9B8819985A5B1959 PUSH1 0x92 SHL PUSH1 0x44 DUP3 ADD MSTORE REVERT JUMPDEST PUSH2 0x20E1 SWAP2 POP DUP3 RETURNDATASIZE DUP5 GT PUSH2 0x6C2 JUMPI PUSH2 0x6B3 DUP2 DUP4 PUSH2 0x18AB JUMP JUMPDEST CODESIZE PUSH2 0x208A JUMP JUMPDEST DUP6 MLOAD RETURNDATASIZE PUSH1 0x0 DUP3 RETURNDATACOPY RETURNDATASIZE SWAP1 REVERT JUMPDEST SWAP1 SWAP3 DUP3 DUP3 DUP2 RETURNDATASIZE DUP4 GT PUSH2 0x211A JUMPI JUMPDEST PUSH2 0x2109 DUP2 DUP4 PUSH2 0x18AB JUMP JUMPDEST DUP2 ADD SUB SLT PUSH2 0x9AC JUMPI POP MLOAD SWAP2 CODESIZE PUSH2 0x1FF4 JUMP JUMPDEST POP RETURNDATASIZE PUSH2 0x20FF JUMP JUMPDEST PUSH1 0x40 MLOAD PUSH3 0x461BCD PUSH1 0xE5 SHL DUP2 MSTORE PUSH1 0x20 PUSH1 0x4 DUP3 ADD MSTORE PUSH1 0xC PUSH1 0x24 DUP3 ADD MSTORE PUSH12 0x1C185A5C881B9BDD081CD95D PUSH1 0xA2 SHL PUSH1 0x44 DUP3 ADD MSTORE PUSH1 0x64 SWAP1 REVERT JUMPDEST PUSH1 0x40 MLOAD PUSH3 0x461BCD PUSH1 0xE5 SHL DUP2 MSTORE PUSH1 0x20 PUSH1 0x4 DUP3 ADD MSTORE PUSH1 0x12 PUSH1 0x24 DUP3 ADD MSTORE PUSH18 0x646578206375727665206E6F74206C697665 PUSH1 0x70 SHL PUSH1 0x44 DUP3 ADD MSTORE PUSH1 0x64 SWAP1 REVERT JUMPDEST DUP1 ISZERO PUSH2 0x165B JUMPI PUSH2 0x21C2 PUSH1 0x2 SLOAD PUSH32 0x0 SWAP1 PUSH2 0x1661 JUMP JUMPDEST SWAP1 PUSH2 0x220E PUSH1 0x3 SLOAD SWAP3 PUSH2 0x2208 PUSH2 0x21F7 PUSH32 0x0 DUP7 PUSH2 0x1661 JUMP JUMPDEST SWAP4 PUSH2 0x2202 DUP6 DUP5 PUSH2 0x1587 JUMP JUMPDEST SWAP3 PUSH2 0x1661 JUMP JUMPDEST SWAP1 PUSH2 0x15B0 JUMP JUMPDEST DUP1 DUP3 GT ISZERO PUSH2 0x221F JUMPI PUSH2 0x161A SWAP2 PUSH2 0x17E1 JUMP JUMPDEST POP POP POP PUSH1 0x0 SWAP1 JUMP JUMPDEST PUSH1 0x2 SLOAD SWAP1 PUSH2 0x220E PUSH2 0x2258 PUSH32 0x0 DUP5 PUSH2 0x1661 JUMP JUMPDEST SWAP2 PUSH2 0x2208 PUSH2 0x2289 PUSH1 0x3 SLOAD PUSH32 0x0 SWAP1 PUSH2 0x1661 JUMP JUMPDEST SWAP2 PUSH2 0x2202 DUP4 DUP7 PUSH2 0x1587 JUMP JUMPDEST PUSH1 0x6 SLOAD PUSH1 0xFF DUP2 PUSH1 0xA8 SHR AND SWAP1 DUP2 ISZERO PUSH2 0x22BE JUMPI JUMPDEST POP PUSH2 0x17BF JUMPI PUSH1 0x2 SLOAD PUSH1 0x4 SLOAD GT PUSH2 0x17BF JUMPI PUSH2 0x17BF PUSH2 0x1B27 JUMP JUMPDEST PUSH1 0xFF SWAP2 POP PUSH1 0xB0 SHR AND CODESIZE PUSH2 0x22A6 JUMP JUMPDEST SWAP1 DUP2 PUSH1 0x20 SWAP2 SUB SLT PUSH2 0x1416 JUMPI MLOAD PUSH1 0x1 PUSH1 0x1 PUSH1 0xA0 SHL SUB DUP2 AND DUP2 SUB PUSH2 0x1416 JUMPI SWAP1 JUMP JUMPDEST MLOAD SWAP1 PUSH1 0x1 PUSH1 0x1 PUSH1 0x70 SHL SUB DUP3 AND DUP3 SUB PUSH2 0x1416 JUMPI JUMP JUMPDEST PUSH1 0x7 SLOAD PUSH1 0x0 SWAP2 SWAP1 PUSH1 0x1 PUSH1 0x1 PUSH1 0xA0 SHL SUB SWAP1 DUP4 SWAP1 DUP2 SWAP1 DUP4 AND DUP1 ISZERO DUP1 ISZERO PUSH2 0x254D JUMPI JUMPDEST PUSH2 0x2545 JUMPI DUP4 PUSH1 0x5 SLOAD AND SWAP1 PUSH1 0x40 SWAP5 DUP6 MLOAD DUP1 SWAP4 PUSH4 0x15AB88C9 PUSH1 0xE3 SHL DUP3 MSTORE DUP2 PUSH1 0x4 PUSH1 0x20 SWAP4 DUP5 SWAP4 GAS STATICCALL SWAP4 DUP5 ISZERO PUSH2 0x253B JUMPI DUP10 SWAP5 PUSH2 0x251C JUMPI JUMPDEST POP DUP7 MLOAD PUSH4 0xDFE1681 PUSH1 0xE0 SHL DUP2 MSTORE SWAP1 DUP1 DUP3 PUSH1 0x4 DUP2 DUP8 GAS STATICCALL SWAP2 DUP3 ISZERO PUSH2 0x2512 JUMPI DUP11 SWAP3 PUSH2 0x24F3 JUMPI JUMPDEST POP DUP8 MLOAD PUSH4 0xD21220A7 PUSH1 0xE0 SHL DUP2 MSTORE SWAP4 DUP2 DUP6 PUSH1 0x4 DUP2 DUP5 GAS STATICCALL SWAP5 DUP6 ISZERO PUSH2 0x24E9 JUMPI DUP12 SWAP6 PUSH2 0x24C2 JUMPI JUMPDEST POP SWAP1 PUSH1 0x60 PUSH1 0x4 SWAP3 DUP11 MLOAD SWAP4 DUP5 DUP1 SWAP3 PUSH4 0x240BC6B PUSH1 0xE2 SHL DUP3 MSTORE GAS STATICCALL SWAP11 DUP12 ISZERO PUSH2 0x24B7 JUMPI DUP1 SWAP10 DUP2 SWAP13 PUSH2 0x2458 JUMPI JUMPDEST POP POP POP POP DUP2 DUP1 PUSH32 0x0 AND SWAP2 AND SWAP3 DUP2 DUP5 EQ DUP1 PUSH2 0x244B JUMPI JUMPDEST ISZERO PUSH2 0x2412 JUMPI POP POP POP POP POP POP POP PUSH1 0x1 PUSH1 0x1 PUSH1 0x70 SHL SUB DUP1 SWAP2 AND SWAP3 AND SWAP1 JUMP JUMPDEST SWAP6 SWAP9 SWAP5 SWAP8 SWAP7 SWAP6 DUP3 AND EQ SWAP3 DUP4 PUSH2 0x243F JUMPI JUMPDEST POP POP POP PUSH2 0x242D JUMPI POP POP JUMP JUMPDEST PUSH1 0x1 PUSH1 0x1 PUSH1 0x70 SHL SUB SWAP1 DUP2 AND SWAP5 POP AND SWAP2 POP JUMP JUMPDEST AND EQ SWAP1 POP CODESIZE DUP1 DUP1 PUSH2 0x2422 JUMP JUMPDEST POP DUP3 DUP6 AND DUP4 DUP3 AND EQ PUSH2 0x23F6 JUMP JUMPDEST SWAP2 SWAP4 SWAP12 POP SWAP2 SWAP9 POP PUSH1 0x60 DUP10 RETURNDATASIZE PUSH1 0x60 GT PUSH2 0x24AF JUMPI JUMPDEST DUP2 PUSH2 0x2478 PUSH1 0x60 SWAP4 DUP4 PUSH2 0x18AB JUMP JUMPDEST DUP2 ADD SUB SLT PUSH2 0x18A JUMPI PUSH2 0x2494 PUSH2 0x248C DUP11 PUSH2 0x22EB JUMP JUMPDEST SWAP4 DUP11 ADD PUSH2 0x22EB JUMP JUMPDEST SWAP9 ADD MLOAD PUSH4 0xFFFFFFFF DUP2 AND SUB PUSH2 0x9AC JUMPI POP SWAP6 SWAP8 CODESIZE DUP1 DUP1 DUP1 PUSH2 0x23C2 JUMP JUMPDEST RETURNDATASIZE SWAP2 POP PUSH2 0x246B JUMP JUMPDEST DUP10 MLOAD SWAP1 RETURNDATASIZE SWAP1 DUP3 RETURNDATACOPY RETURNDATASIZE SWAP1 REVERT JUMPDEST DUP3 SWAP2 SWAP6 POP PUSH2 0x24E0 PUSH1 0x60 SWAP2 PUSH1 0x4 SWAP5 RETURNDATASIZE DUP6 GT PUSH2 0x5C9 JUMPI PUSH2 0x5BA DUP2 DUP4 PUSH2 0x18AB JUMP JUMPDEST SWAP6 SWAP2 SWAP3 POP PUSH2 0x2399 JUMP JUMPDEST DUP10 MLOAD RETURNDATASIZE DUP14 DUP3 RETURNDATACOPY RETURNDATASIZE SWAP1 REVERT JUMPDEST DUP2 PUSH2 0x250B SWAP3 SWAP4 POP RETURNDATASIZE DUP5 GT PUSH2 0x5C9 JUMPI PUSH2 0x5BA DUP2 DUP4 PUSH2 0x18AB JUMP JUMPDEST SWAP1 CODESIZE PUSH2 0x2375 JUMP JUMPDEST DUP9 MLOAD RETURNDATASIZE DUP13 DUP3 RETURNDATACOPY RETURNDATASIZE SWAP1 REVERT JUMPDEST DUP2 PUSH2 0x2534 SWAP3 SWAP6 POP RETURNDATASIZE DUP7 GT PUSH2 0x5C9 JUMPI PUSH2 0x5BA DUP2 DUP4 PUSH2 0x18AB JUMP JUMPDEST SWAP3 CODESIZE PUSH2 0x2351 JUMP JUMPDEST DUP8 MLOAD RETURNDATASIZE DUP12 DUP3 RETURNDATACOPY RETURNDATASIZE SWAP1 REVERT JUMPDEST POP POP POP POP DUP2 SWAP1 JUMP JUMPDEST POP DUP4 PUSH1 0x5 SLOAD AND ISZERO PUSH2 0x231E JUMP JUMPDEST PUSH1 0x40 MLOAD PUSH4 0x70A08231 PUSH1 0xE0 SHL DUP2 MSTORE ADDRESS PUSH1 0x4 DUP3 ADD MSTORE PUSH1 0x20 DUP2 PUSH1 0x24 DUP2 PUSH32 0x0 PUSH1 0x1 PUSH1 0x1 PUSH1 0xA0 SHL SUB AND GAS STATICCALL SWAP1 DUP2 ISZERO PUSH2 0x25EF JUMPI PUSH1 0x0 SWAP2 PUSH2 0x25BD JUMPI JUMPDEST POP DUP1 ISZERO PUSH2 0x165B JUMPI PUSH2 0x170F SWAP1 PUSH2 0x25FB JUMP JUMPDEST SWAP1 POP PUSH1 0x20 DUP2 RETURNDATASIZE PUSH1 0x20 GT PUSH2 0x25E7 JUMPI JUMPDEST DUP2 PUSH2 0x25D8 PUSH1 0x20 SWAP4 DUP4 PUSH2 0x18AB JUMP JUMPDEST DUP2 ADD SUB SLT PUSH2 0x1416 JUMPI MLOAD CODESIZE PUSH2 0x25AD JUMP JUMPDEST RETURNDATASIZE SWAP2 POP PUSH2 0x25CB JUMP JUMPDEST PUSH1 0x40 MLOAD RETURNDATASIZE PUSH1 0x0 DUP3 RETURNDATACOPY RETURNDATASIZE SWAP1 REVERT JUMPDEST DUP1 ISZERO PUSH2 0x165B JUMPI PUSH1 0x40 MLOAD PUSH4 0x852CD8D PUSH1 0xE3 SHL DUP2 MSTORE PUSH1 0x4 DUP2 ADD DUP3 SWAP1 MSTORE PUSH1 0x20 DUP2 PUSH1 0x24 DUP2 PUSH1 0x0 PUSH32 0x0 PUSH1 0x1 PUSH1 0x1 PUSH1 0xA0 SHL SUB AND GAS CALL SWAP1 DUP2 ISZERO PUSH2 0x25EF JUMPI PUSH1 0x0 SWAP2 PUSH2 0x269A JUMPI JUMPDEST POP ISZERO PUSH2 0x2661 JUMPI SWAP1 JUMP JUMPDEST PUSH1 0x40 MLOAD PUSH3 0x461BCD PUSH1 0xE5 SHL DUP2 MSTORE PUSH1 0x20 PUSH1 0x4 DUP3 ADD MSTORE PUSH1 0x11 PUSH1 0x24 DUP3 ADD MSTORE PUSH17 0x1D1BDAD95B88189D5C9B8819985A5B1959 PUSH1 0x7A SHL PUSH1 0x44 DUP3 ADD MSTORE PUSH1 0x64 SWAP1 REVERT JUMPDEST PUSH2 0x26B3 SWAP2 POP PUSH1 0x20 RETURNDATASIZE PUSH1 0x20 GT PUSH2 0x6C2 JUMPI PUSH2 0x6B3 DUP2 DUP4 PUSH2 0x18AB JUMP JUMPDEST CODESIZE PUSH2 0x2658 JUMP INVALID LOG2 PUSH5 0x6970667358 0x22 SLT KECCAK256 0xEF 0xBA PUSH31 0x76BEE9AC440D34F6B2792FE5EC1D2EFC94DA64B0148C9175CF5476F1806473 PUSH16 0x6C634300081800336040610140815234 PUSH3 0x60D JUMPI PUSH3 0x1808 DUP1 CODESIZE SUB DUP1 PUSH3 0x1F DUP2 PUSH3 0x612 JUMP JUMPDEST SWAP3 DUP4 CODECOPY DUP2 ADD SWAP2 PUSH1 0xE0 DUP3 DUP5 SUB SLT PUSH3 0x60D JUMPI DUP2 MLOAD PUSH1 0x1 PUSH1 0x1 PUSH1 0x40 SHL SUB SWAP1 DUP2 DUP2 GT PUSH3 0x60D JUMPI DUP5 PUSH3 0x51 SWAP2 DUP6 ADD PUSH3 0x638 JUMP JUMPDEST SWAP4 PUSH1 0x20 SWAP1 DUP2 DUP6 ADD MLOAD SWAP1 DUP4 DUP3 GT PUSH3 0x60D JUMPI PUSH3 0x6F SWAP2 DUP7 ADD PUSH3 0x638 JUMP JUMPDEST SWAP1 DUP4 DUP6 ADD MLOAD SWAP5 PUSH3 0x83 PUSH1 0x60 DUP3 ADD PUSH3 0x6AA JUMP JUMPDEST PUSH3 0x91 PUSH1 0x80 DUP4 ADD PUSH3 0x6AA JUMP JUMPDEST SWAP1 PUSH1 0xC0 PUSH3 0xA2 PUSH1 0xA0 DUP6 ADD PUSH3 0x6AA JUMP JUMPDEST SWAP4 ADD MLOAD SWAP9 DUP1 MLOAD ISZERO PUSH3 0x5D9 JUMPI DUP6 MLOAD ISZERO PUSH3 0x5A3 JUMPI DUP9 ISZERO PUSH3 0x56D JUMPI PUSH1 0x1 PUSH1 0x1 PUSH1 0xA0 SHL SUB DUP3 DUP2 AND SWAP8 SWAP1 DUP9 ISZERO PUSH3 0x536 JUMPI DUP1 DUP6 AND ISZERO PUSH3 0x4FF JUMPI DUP6 AND ISZERO PUSH3 0x4C7 JUMPI PUSH2 0x3E8 DUP12 GT PUSH3 0x48E JUMPI DUP2 MLOAD DUP2 DUP2 GT PUSH3 0x478 JUMPI PUSH1 0x0 SWAP8 DUP9 SLOAD SWAP2 PUSH1 0x1 SWAP5 DUP6 DUP5 DUP2 SHR SWAP5 AND DUP1 ISZERO PUSH3 0x46D JUMPI JUMPDEST DUP11 DUP6 LT EQ PUSH3 0x459 JUMPI DUP2 SWAP1 PUSH1 0x1F SWAP5 DUP6 DUP2 GT PUSH3 0x406 JUMPI JUMPDEST POP DUP11 SWAP1 DUP6 DUP4 GT PUSH1 0x1 EQ PUSH3 0x3A1 JUMPI DUP13 SWAP3 PUSH3 0x395 JUMPI JUMPDEST POP POP PUSH1 0x0 NOT PUSH1 0x3 DUP4 SWAP1 SHL SHR NOT AND SWAP1 DUP6 SHL OR DUP10 SSTORE JUMPDEST DUP1 MLOAD SWAP3 DUP4 GT PUSH3 0x381 JUMPI DUP4 SLOAD DUP5 DUP2 DUP2 SHR SWAP2 AND DUP1 ISZERO PUSH3 0x376 JUMPI JUMPDEST DUP10 DUP3 LT EQ PUSH3 0x362 JUMPI SWAP1 DUP2 DUP4 DUP6 SWAP5 SWAP4 GT PUSH3 0x30D JUMPI JUMPDEST POP DUP9 SWAP2 DUP4 GT PUSH1 0x1 EQ PUSH3 0x2A9 JUMPI DUP10 SWAP3 PUSH3 0x29D JUMPI JUMPDEST POP POP PUSH1 0x0 NOT PUSH1 0x3 DUP4 SWAP1 SHL SHR NOT AND SWAP1 DUP3 SHL OR SWAP1 SSTORE JUMPDEST DUP8 PUSH1 0x2 SSTORE PUSH1 0x80 MSTORE PUSH1 0xA0 MSTORE PUSH1 0xC0 MSTORE DUP6 PUSH1 0xE0 MSTORE PUSH2 0xFA0 DUP1 DUP8 MUL SWAP1 DUP8 DUP3 DIV EQ DUP8 ISZERO OR ISZERO PUSH3 0x289 JUMPI PUSH2 0x2710 SWAP1 DIV SWAP5 PUSH2 0x120 SWAP6 DUP1 DUP8 MSTORE DUP8 SUB SWAP7 DUP8 GT PUSH3 0x289 JUMPI SWAP1 PUSH32 0xDDF252AD1BE2C89B69C2B068FC378DAA952BA7F163C4A11628F55A4DF523B3EF SWAP2 PUSH2 0x100 SWAP8 DUP9 MSTORE DUP5 DUP5 MSTORE PUSH1 0x6 DUP3 MSTORE DUP1 DUP7 DUP6 KECCAK256 SSTORE DUP6 MLOAD SWAP1 DUP2 MSTORE LOG3 MLOAD SWAP1 PUSH2 0x1148 SWAP3 DUP4 PUSH3 0x6C0 DUP5 CODECOPY PUSH1 0x80 MLOAD DUP4 DUP2 DUP2 PUSH2 0x243 ADD MSTORE DUP2 DUP2 PUSH2 0x30A ADD MSTORE PUSH2 0x366 ADD MSTORE PUSH1 0xA0 MLOAD DUP4 DUP2 DUP2 PUSH2 0x77D ADD MSTORE PUSH2 0xC8D ADD MSTORE PUSH1 0xC0 MLOAD DUP4 DUP2 DUP2 PUSH2 0x198 ADD MSTORE PUSH2 0x87A ADD MSTORE PUSH1 0xE0 MLOAD DUP4 DUP2 DUP2 PUSH2 0x64F ADD MSTORE PUSH2 0xEC8 ADD MSTORE MLOAD DUP3 DUP2 DUP2 PUSH2 0xAEC ADD MSTORE PUSH2 0xF06 ADD MSTORE MLOAD DUP2 PUSH2 0xA4E ADD MSTORE RETURN JUMPDEST PUSH4 0x4E487B71 PUSH1 0xE0 SHL DUP4 MSTORE PUSH1 0x11 PUSH1 0x4 MSTORE PUSH1 0x24 DUP4 REVERT JUMPDEST ADD MLOAD SWAP1 POP CODESIZE DUP1 PUSH3 0x193 JUMP JUMPDEST DUP5 DUP11 MSTORE DUP9 DUP11 KECCAK256 DUP6 SWAP5 POP SWAP2 SWAP1 PUSH1 0x1F NOT DUP5 AND DUP12 JUMPDEST DUP12 DUP3 DUP3 LT PUSH3 0x2F6 JUMPI POP POP DUP5 GT PUSH3 0x2DC JUMPI JUMPDEST POP POP POP DUP2 SHL ADD SWAP1 SSTORE PUSH3 0x1A7 JUMP JUMPDEST ADD MLOAD PUSH1 0x0 NOT PUSH1 0xF8 DUP5 PUSH1 0x3 SHL AND SHR NOT AND SWAP1 SSTORE CODESIZE DUP1 DUP1 PUSH3 0x2CE JUMP JUMPDEST DUP4 DUP6 ADD MLOAD DUP7 SSTORE DUP9 SWAP8 SWAP1 SWAP6 ADD SWAP5 SWAP4 DUP5 ADD SWAP4 ADD PUSH3 0x2BB JUMP JUMPDEST SWAP1 SWAP2 SWAP3 POP DUP5 DUP11 MSTORE DUP9 DUP11 KECCAK256 DUP4 DUP1 DUP7 ADD PUSH1 0x5 SHR DUP3 ADD SWAP3 DUP12 DUP8 LT PUSH3 0x358 JUMPI JUMPDEST SWAP2 DUP7 SWAP6 DUP9 SWAP3 SWAP6 SWAP5 SWAP4 ADD PUSH1 0x5 SHR ADD SWAP2 JUMPDEST DUP3 DUP2 LT PUSH3 0x349 JUMPI POP POP PUSH3 0x17E JUMP JUMPDEST DUP13 DUP2 SSTORE DUP7 SWAP6 POP DUP8 SWAP2 ADD PUSH3 0x339 JUMP JUMPDEST SWAP3 POP DUP2 SWAP3 PUSH3 0x32A JUMP JUMPDEST PUSH4 0x4E487B71 PUSH1 0xE0 SHL DUP11 MSTORE PUSH1 0x22 PUSH1 0x4 MSTORE PUSH1 0x24 DUP11 REVERT JUMPDEST SWAP1 PUSH1 0x7F AND SWAP1 PUSH3 0x168 JUMP JUMPDEST PUSH4 0x4E487B71 PUSH1 0xE0 SHL DUP10 MSTORE PUSH1 0x41 PUSH1 0x4 MSTORE PUSH1 0x24 DUP10 REVERT JUMPDEST ADD MLOAD SWAP1 POP CODESIZE DUP1 PUSH3 0x13A JUMP JUMPDEST DUP13 DUP1 MSTORE DUP12 DUP14 KECCAK256 DUP9 SWAP5 POP SWAP2 SWAP1 PUSH1 0x1F NOT DUP5 AND DUP15 DUP15 JUMPDEST DUP3 DUP3 LT PUSH3 0x3EE JUMPI POP POP DUP5 GT PUSH3 0x3D4 JUMPI JUMPDEST POP POP POP DUP2 SHL ADD DUP10 SSTORE PUSH3 0x14E JUMP JUMPDEST ADD MLOAD PUSH1 0x0 NOT PUSH1 0xF8 DUP5 PUSH1 0x3 SHL AND SHR NOT AND SWAP1 SSTORE CODESIZE DUP1 DUP1 PUSH3 0x3C6 JUMP JUMPDEST DUP4 DUP6 ADD MLOAD DUP7 SSTORE DUP12 SWAP8 SWAP1 SWAP6 ADD SWAP5 SWAP4 DUP5 ADD SWAP4 ADD DUP15 PUSH3 0x3B4 JUMP JUMPDEST SWAP1 SWAP2 POP DUP12 DUP1 MSTORE DUP11 DUP13 KECCAK256 DUP6 DUP1 DUP6 ADD PUSH1 0x5 SHR DUP3 ADD SWAP3 DUP14 DUP7 LT PUSH3 0x44F JUMPI JUMPDEST SWAP2 DUP10 SWAP2 DUP7 SWAP6 SWAP5 SWAP4 ADD PUSH1 0x5 SHR ADD SWAP2 JUMPDEST DUP3 DUP2 LT PUSH3 0x440 JUMPI POP POP PUSH3 0x124 JUMP JUMPDEST DUP15 DUP2 SSTORE DUP6 SWAP5 POP DUP10 SWAP2 ADD PUSH3 0x430 JUMP JUMPDEST SWAP3 POP DUP2 SWAP3 PUSH3 0x422 JUMP JUMPDEST PUSH4 0x4E487B71 PUSH1 0xE0 SHL DUP12 MSTORE PUSH1 0x22 PUSH1 0x4 MSTORE PUSH1 0x24 DUP12 REVERT JUMPDEST SWAP4 PUSH1 0x7F AND SWAP4 PUSH3 0x10D JUMP JUMPDEST PUSH4 0x4E487B71 PUSH1 0xE0 SHL PUSH1 0x0 MSTORE PUSH1 0x41 PUSH1 0x4 MSTORE PUSH1 0x24 PUSH1 0x0 REVERT JUMPDEST DUP9 MLOAD PUSH3 0x461BCD PUSH1 0xE5 SHL DUP2 MSTORE PUSH1 0x4 DUP2 ADD DUP8 SWAP1 MSTORE PUSH1 0x12 PUSH1 0x24 DUP3 ADD MSTORE PUSH18 0xE8E4C2C8CA40CCCACA40E8DEDE40D0D2CED PUSH1 0x73 SHL PUSH1 0x44 DUP3 ADD MSTORE PUSH1 0x64 SWAP1 REVERT JUMPDEST DUP9 MLOAD PUSH3 0x461BCD PUSH1 0xE5 SHL DUP2 MSTORE PUSH1 0x4 DUP2 ADD DUP8 SWAP1 MSTORE PUSH1 0x11 PUSH1 0x24 DUP3 ADD MSTORE PUSH17 0x1C1B185D199BDC9B481C995C5D5A5C9959 PUSH1 0x7A SHL PUSH1 0x44 DUP3 ADD MSTORE PUSH1 0x64 SWAP1 REVERT JUMPDEST DUP10 MLOAD PUSH3 0x461BCD PUSH1 0xE5 SHL DUP2 MSTORE PUSH1 0x4 DUP2 ADD DUP9 SWAP1 MSTORE PUSH1 0x10 PUSH1 0x24 DUP3 ADD MSTORE PUSH16 0x18DC99585D1BDC881C995C5D5A5C9959 PUSH1 0x82 SHL PUSH1 0x44 DUP3 ADD MSTORE PUSH1 0x64 SWAP1 REVERT JUMPDEST DUP10 MLOAD PUSH3 0x461BCD PUSH1 0xE5 SHL DUP2 MSTORE PUSH1 0x4 DUP2 ADD DUP9 SWAP1 MSTORE PUSH1 0x10 PUSH1 0x24 DUP3 ADD MSTORE PUSH16 0x199858DD1BDC9E481C995C5D5A5C9959 PUSH1 0x82 SHL PUSH1 0x44 DUP3 ADD MSTORE PUSH1 0x64 SWAP1 REVERT JUMPDEST DUP8 MLOAD PUSH3 0x461BCD PUSH1 0xE5 SHL DUP2 MSTORE PUSH1 0x4 DUP2 ADD DUP7 SWAP1 MSTORE PUSH1 0xF PUSH1 0x24 DUP3 ADD MSTORE PUSH15 0x1CDD5C1C1B1E481C995C5D5A5C9959 PUSH1 0x8A SHL PUSH1 0x44 DUP3 ADD MSTORE PUSH1 0x64 SWAP1 REVERT JUMPDEST DUP8 MLOAD PUSH3 0x461BCD PUSH1 0xE5 SHL DUP2 MSTORE PUSH1 0x4 DUP2 ADD DUP7 SWAP1 MSTORE PUSH1 0xF PUSH1 0x24 DUP3 ADD MSTORE PUSH15 0x1CDE5B589BDB081C995C5D5A5C9959 PUSH1 0x8A SHL PUSH1 0x44 DUP3 ADD MSTORE PUSH1 0x64 SWAP1 REVERT JUMPDEST DUP8 MLOAD PUSH3 0x461BCD PUSH1 0xE5 SHL DUP2 MSTORE PUSH1 0x4 DUP2 ADD DUP7 SWAP1 MSTORE PUSH1 0xD PUSH1 0x24 DUP3 ADD MSTORE PUSH13 0x1B985B59481C995C5D5A5C9959 PUSH1 0x9A SHL PUSH1 0x44 DUP3 ADD MSTORE PUSH1 0x64 SWAP1 REVERT JUMPDEST PUSH1 0x0 DUP1 REVERT JUMPDEST PUSH1 0x40 MLOAD SWAP2 SWAP1 PUSH1 0x1F ADD PUSH1 0x1F NOT AND DUP3 ADD PUSH1 0x1 PUSH1 0x1 PUSH1 0x40 SHL SUB DUP2 GT DUP4 DUP3 LT OR PUSH3 0x478 JUMPI PUSH1 0x40 MSTORE JUMP JUMPDEST SWAP2 SWAP1 DUP1 PUSH1 0x1F DUP5 ADD SLT ISZERO PUSH3 0x60D JUMPI DUP3 MLOAD PUSH1 0x1 PUSH1 0x1 PUSH1 0x40 SHL SUB DUP2 GT PUSH3 0x478 JUMPI PUSH1 0x20 SWAP1 PUSH3 0x66E PUSH1 0x1F DUP3 ADD PUSH1 0x1F NOT AND DUP4 ADD PUSH3 0x612 JUMP JUMPDEST SWAP3 DUP2 DUP5 MSTORE DUP3 DUP3 DUP8 ADD ADD GT PUSH3 0x60D JUMPI PUSH1 0x0 JUMPDEST DUP2 DUP2 LT PUSH3 0x696 JUMPI POP DUP3 PUSH1 0x0 SWAP4 SWAP5 SWAP6 POP ADD ADD MSTORE SWAP1 JUMP JUMPDEST DUP6 DUP2 ADD DUP4 ADD MLOAD DUP5 DUP3 ADD DUP5 ADD MSTORE DUP3 ADD PUSH3 0x680 JUMP JUMPDEST MLOAD SWAP1 PUSH1 0x1 PUSH1 0x1 PUSH1 0xA0 SHL SUB DUP3 AND DUP3 SUB PUSH3 0x60D JUMPI JUMP INVALID PUSH1 0x80 PUSH1 0x40 DUP2 DUP2 MSTORE PUSH1 0x4 SWAP2 DUP3 CALLDATASIZE LT ISZERO PUSH2 0x16 JUMPI PUSH1 0x0 DUP1 REVERT JUMPDEST PUSH1 0x0 SWAP3 DUP4 CALLDATALOAD PUSH1 0xE0 SHR SWAP2 DUP3 PUSH4 0x2D05D3F EQ PUSH2 0xC79 JUMPI POP DUP2 PUSH4 0x44991D8 EQ PUSH2 0xC5A JUMPI DUP2 PUSH4 0x6FDDE03 EQ PUSH2 0xB80 JUMPI DUP2 PUSH4 0x95EA7B3 EQ PUSH2 0xB0F JUMPI DUP2 PUSH4 0x17773EBB EQ PUSH2 0xAD4 JUMPI DUP2 PUSH4 0x18160DDD EQ PUSH2 0xAB5 JUMPI DUP2 PUSH4 0x1E26906B EQ PUSH2 0xA8E JUMPI DUP2 PUSH4 0x2044DBB2 EQ PUSH2 0xA71 JUMPI DUP2 PUSH4 0x22DCD13E EQ PUSH2 0xA36 JUMPI DUP2 PUSH4 0x23B872DD EQ PUSH2 0x92F JUMPI DUP2 PUSH4 0x2BEBF6BF EQ PUSH2 0x865 JUMPI DUP2 PUSH4 0x2F9F1032 EQ PUSH2 0x849 JUMPI DUP2 PUSH4 0x313CE567 EQ PUSH2 0x82D JUMPI DUP2 PUSH4 0x351FEE46 EQ PUSH2 0x769 JUMPI DUP2 PUSH4 0x42966C68 EQ PUSH2 0x68F JUMPI DUP2 PUSH4 0x5B632360 EQ PUSH2 0x672 JUMPI DUP2 PUSH4 0x5FAAD8C5 EQ PUSH2 0x637 JUMPI DUP2 PUSH4 0x70A08231 EQ PUSH2 0x5FF JUMPI DUP2 PUSH4 0x95D89B41 EQ PUSH2 0x4DC JUMPI DUP2 PUSH4 0x9E5F358A EQ PUSH2 0x4BE JUMPI DUP2 PUSH4 0xA9059CBB EQ PUSH2 0x48D JUMPI DUP2 PUSH4 0xAE36F5C8 EQ PUSH2 0x339 JUMPI DUP2 PUSH4 0xC45A0155 EQ PUSH2 0x2F5 JUMPI DUP2 PUSH4 0xDC4B1C0E EQ PUSH2 0x22B JUMPI POP DUP1 PUSH4 0xDD62ED3E EQ PUSH2 0x1E3 JUMPI DUP1 PUSH4 0xE1A45218 EQ PUSH2 0x1C7 JUMPI DUP1 PUSH4 0xEB13554F EQ PUSH2 0x184 JUMPI PUSH4 0xF242AB41 EQ PUSH2 0x159 JUMPI PUSH1 0x0 DUP1 REVERT JUMPDEST CALLVALUE PUSH2 0x180 JUMPI DUP2 PUSH1 0x3 NOT CALLDATASIZE ADD SLT PUSH2 0x180 JUMPI PUSH1 0x3 SLOAD SWAP1 MLOAD PUSH1 0x1 PUSH1 0x1 PUSH1 0xA0 SHL SUB SWAP1 SWAP2 AND DUP2 MSTORE PUSH1 0x20 SWAP1 RETURN JUMPDEST POP DUP1 REVERT JUMPDEST POP CALLVALUE PUSH2 0x180 JUMPI DUP2 PUSH1 0x3 NOT CALLDATASIZE ADD SLT PUSH2 0x180 JUMPI MLOAD PUSH32 0x0 PUSH1 0x1 PUSH1 0x1 PUSH1 0xA0 SHL SUB AND DUP2 MSTORE PUSH1 0x20 SWAP1 RETURN JUMPDEST POP CALLVALUE PUSH2 0x180 JUMPI DUP2 PUSH1 0x3 NOT CALLDATASIZE ADD SLT PUSH2 0x180 JUMPI PUSH1 0x20 SWAP1 MLOAD PUSH2 0x2710 DUP2 MSTORE RETURN JUMPDEST POP CALLVALUE PUSH2 0x180 JUMPI DUP1 PUSH1 0x3 NOT CALLDATASIZE ADD SLT PUSH2 0x180 JUMPI DUP1 PUSH1 0x20 SWAP3 PUSH2 0x200 PUSH2 0xD05 JUMP JUMPDEST PUSH2 0x208 PUSH2 0xD20 JUMP JUMPDEST PUSH1 0x1 PUSH1 0x1 PUSH1 0xA0 SHL SUB SWAP2 DUP3 AND DUP4 MSTORE PUSH1 0x7 DUP7 MSTORE DUP4 DUP4 KECCAK256 SWAP2 AND DUP3 MSTORE DUP5 MSTORE KECCAK256 SLOAD SWAP1 MLOAD SWAP1 DUP2 MSTORE RETURN JUMPDEST SWAP1 POP CALLVALUE PUSH2 0x2F1 JUMPI DUP3 PUSH1 0x3 NOT CALLDATASIZE ADD SLT PUSH2 0x2F1 JUMPI PUSH2 0x271 CALLER PUSH32 0x0 PUSH1 0x1 PUSH1 0x1 PUSH1 0xA0 SHL SUB AND EQ PUSH2 0xDD6 JUMP JUMPDEST PUSH1 0x3 SLOAD SWAP2 PUSH1 0xFF DUP4 PUSH1 0xA0 SHR AND PUSH2 0x2BA JUMPI POP POP PUSH1 0xFF PUSH1 0xA0 SHL NOT AND PUSH1 0x1 PUSH1 0xA0 SHL OR PUSH1 0x3 SSTORE CALLER PUSH32 0x60B9765CF08F04B4850CD9A0F8DA6FA9E854AFD328723CC3F6ADEA6FB4F18D23 DUP3 DUP1 LOG2 DUP1 RETURN JUMPDEST SWAP1 PUSH1 0x20 PUSH1 0x64 SWAP3 MLOAD SWAP2 PUSH3 0x461BCD PUSH1 0xE5 SHL DUP4 MSTORE DUP3 ADD MSTORE PUSH1 0x11 PUSH1 0x24 DUP3 ADD MSTORE PUSH17 0x185B1C9958591E481C995B9BDD5B98D959 PUSH1 0x7A SHL PUSH1 0x44 DUP3 ADD MSTORE REVERT JUMPDEST DUP3 DUP1 REVERT JUMPDEST POP POP CALLVALUE PUSH2 0x180 JUMPI DUP2 PUSH1 0x3 NOT CALLDATASIZE ADD SLT PUSH2 0x180 JUMPI MLOAD PUSH32 0x0 PUSH1 0x1 PUSH1 0x1 PUSH1 0xA0 SHL SUB AND DUP2 MSTORE PUSH1 0x20 SWAP1 RETURN JUMPDEST DUP4 SWAP2 POP CALLVALUE PUSH2 0x180 JUMPI PUSH1 0x20 CALLDATASIZE PUSH1 0x3 NOT ADD SLT PUSH2 0x180 JUMPI PUSH2 0x355 PUSH2 0xD05 JUMP JUMPDEST PUSH1 0x1 PUSH1 0x1 PUSH1 0xA0 SHL SUB SWAP1 DUP2 SWAP1 PUSH2 0x38D CALLER PUSH32 0x0 DUP5 AND EQ PUSH2 0xDD6 JUMP JUMPDEST AND SWAP2 DUP3 ISZERO PUSH2 0x45A JUMPI PUSH1 0x3 SLOAD SWAP2 PUSH1 0xFF DUP4 PUSH1 0xA0 SHR AND PUSH2 0x417 JUMPI DUP3 AND PUSH2 0x3E1 JUMPI POP PUSH1 0x1 PUSH1 0x1 PUSH1 0xA0 SHL SUB NOT AND DUP2 OR PUSH1 0x3 SSTORE PUSH32 0xC3CD203585FBC28DCC1692611D2EBC4190312A5B189047DF793C69B157AA0D29 DUP3 DUP1 LOG2 DUP1 RETURN JUMPDEST PUSH1 0x64 SWAP1 PUSH1 0x20 DUP7 MLOAD SWAP2 PUSH3 0x461BCD PUSH1 0xE5 SHL DUP4 MSTORE DUP3 ADD MSTORE PUSH1 0x10 PUSH1 0x24 DUP3 ADD MSTORE PUSH16 0x1C185A5C88185B1C9958591E481CD95D PUSH1 0x82 SHL PUSH1 0x44 DUP3 ADD MSTORE REVERT JUMPDEST DUP6 MLOAD PUSH3 0x461BCD PUSH1 0xE5 SHL DUP2 MSTORE PUSH1 0x20 DUP2 DUP5 ADD MSTORE PUSH1 0x19 PUSH1 0x24 DUP3 ADD MSTORE PUSH32 0x666163746F727920636F6E74726F6C2072656E6F756E63656400000000000000 PUSH1 0x44 DUP3 ADD MSTORE PUSH1 0x64 SWAP1 REVERT JUMPDEST PUSH1 0x64 SWAP1 PUSH1 0x20 DUP7 MLOAD SWAP2 PUSH3 0x461BCD PUSH1 0xE5 SHL DUP4 MSTORE DUP3 ADD MSTORE PUSH1 0xD PUSH1 0x24 DUP3 ADD MSTORE PUSH13 0x1C185A5C881C995C5D5A5C9959 PUSH1 0x9A SHL PUSH1 0x44 DUP3 ADD MSTORE REVERT JUMPDEST POP POP CALLVALUE PUSH2 0x180 JUMPI DUP1 PUSH1 0x3 NOT CALLDATASIZE ADD SLT PUSH2 0x180 JUMPI PUSH1 0x20 SWAP1 PUSH2 0x4B7 PUSH2 0x4AD PUSH2 0xD05 JUMP JUMPDEST PUSH1 0x24 CALLDATALOAD SWAP1 CALLER PUSH2 0xE31 JUMP JUMPDEST MLOAD PUSH1 0x1 DUP2 MSTORE RETURN JUMPDEST SWAP1 POP CALLVALUE PUSH2 0x2F1 JUMPI DUP3 PUSH1 0x3 NOT CALLDATASIZE ADD SLT PUSH2 0x2F1 JUMPI PUSH1 0x20 SWAP3 POP SLOAD SWAP1 MLOAD SWAP1 DUP2 MSTORE RETURN JUMPDEST DUP4 DUP4 CALLVALUE PUSH2 0x180 JUMPI DUP2 PUSH1 0x3 NOT CALLDATASIZE ADD SLT PUSH2 0x180 JUMPI DUP1 MLOAD SWAP1 DUP3 PUSH1 0x1 DUP1 SLOAD SWAP1 DUP2 PUSH1 0x1 SHR SWAP1 PUSH1 0x1 DUP4 AND SWAP3 DUP4 ISZERO PUSH2 0x5F5 JUMPI JUMPDEST PUSH1 0x20 SWAP4 DUP5 DUP5 LT DUP2 EQ PUSH2 0x5E2 JUMPI DUP4 DUP9 MSTORE SWAP1 DUP2 ISZERO PUSH2 0x5C6 JUMPI POP PUSH1 0x1 EQ PUSH2 0x570 JUMPI JUMPDEST POP POP POP DUP3 SWAP1 SUB PUSH1 0x1F ADD PUSH1 0x1F NOT AND DUP3 ADD SWAP3 PUSH8 0xFFFFFFFFFFFFFFFF DUP5 GT DUP4 DUP6 LT OR PUSH2 0x55D JUMPI POP DUP3 SWAP2 DUP3 PUSH2 0x559 SWAP3 MSTORE DUP3 PUSH2 0xCBC JUMP JUMPDEST SUB SWAP1 RETURN JUMPDEST PUSH4 0x4E487B71 PUSH1 0xE0 SHL DUP2 MSTORE PUSH1 0x41 DUP6 MSTORE PUSH1 0x24 SWAP1 REVERT JUMPDEST PUSH1 0x1 DUP8 MSTORE SWAP2 SWAP3 POP DUP6 SWAP2 DUP4 PUSH32 0xB10E2D527612073B26EECDFD717E6A320CF44B4AFAC2B0732D9FCBE2B7FA0CF6 JUMPDEST DUP4 DUP6 LT PUSH2 0x5B2 JUMPI POP POP POP POP DUP4 ADD ADD DUP6 DUP1 DUP1 PUSH2 0x527 JUMP JUMPDEST DUP1 SLOAD DUP9 DUP7 ADD DUP4 ADD MSTORE SWAP4 ADD SWAP3 DUP5 SWAP1 DUP3 ADD PUSH2 0x59C JUMP JUMPDEST PUSH1 0xFF NOT AND DUP8 DUP6 ADD MSTORE POP POP ISZERO ISZERO PUSH1 0x5 SHL DUP5 ADD ADD SWAP1 POP DUP6 DUP1 DUP1 PUSH2 0x527 JUMP JUMPDEST PUSH4 0x4E487B71 PUSH1 0xE0 SHL DUP10 MSTORE PUSH1 0x22 DUP11 MSTORE PUSH1 0x24 DUP10 REVERT JUMPDEST SWAP2 PUSH1 0x7F AND SWAP2 PUSH2 0x508 JUMP JUMPDEST POP POP CALLVALUE PUSH2 0x180 JUMPI PUSH1 0x20 CALLDATASIZE PUSH1 0x3 NOT ADD SLT PUSH2 0x180 JUMPI PUSH1 0x20 SWAP2 DUP2 SWAP1 PUSH1 0x1 PUSH1 0x1 PUSH1 0xA0 SHL SUB PUSH2 0x627 PUSH2 0xD05 JUMP JUMPDEST AND DUP2 MSTORE PUSH1 0x6 DUP5 MSTORE KECCAK256 SLOAD SWAP1 MLOAD SWAP1 DUP2 MSTORE RETURN JUMPDEST POP POP CALLVALUE PUSH2 0x180 JUMPI DUP2 PUSH1 0x3 NOT CALLDATASIZE ADD SLT PUSH2 0x180 JUMPI PUSH1 0x20 SWAP1 MLOAD PUSH32 0x0 DUP2 MSTORE RETURN JUMPDEST POP POP CALLVALUE PUSH2 0x180 JUMPI DUP2 PUSH1 0x3 NOT CALLDATASIZE ADD SLT PUSH2 0x180 JUMPI PUSH1 0x20 SWAP1 MLOAD PUSH2 0x3E8 DUP2 MSTORE RETURN JUMPDEST SWAP1 POP CALLVALUE PUSH2 0x2F1 JUMPI PUSH1 0x20 SWAP3 DUP4 PUSH1 0x3 NOT CALLDATASIZE ADD SLT PUSH2 0x766 JUMPI DUP2 CALLDATALOAD SWAP2 DUP3 ISZERO PUSH2 0x731 JUMPI POP CALLER DUP2 MSTORE PUSH1 0x6 DUP5 MSTORE PUSH2 0x6CE DUP3 DUP5 DUP4 KECCAK256 SLOAD PUSH2 0x6C9 DUP3 DUP3 LT ISZERO PUSH2 0xD98 JUMP JUMPDEST PUSH2 0xD36 JUMP JUMPDEST CALLER DUP3 MSTORE PUSH1 0x6 DUP6 MSTORE DUP4 DUP3 KECCAK256 SSTORE PUSH2 0x6E5 DUP3 PUSH1 0x2 SLOAD PUSH2 0xD36 JUMP JUMPDEST PUSH1 0x2 SSTORE DUP3 MLOAD DUP3 DUP2 MSTORE PUSH1 0x0 DUP1 MLOAD PUSH1 0x20 PUSH2 0x10F3 DUP4 CODECOPY DUP2 MLOAD SWAP2 MSTORE DUP6 CALLER SWAP3 LOG3 DUP2 MLOAD SWAP1 DUP2 MSTORE PUSH32 0xCC16F5DBB4873280815C1EE09DBD06736CFFCC184412CF7A71A0FDB75D397CA5 DUP4 CALLER SWAP3 LOG2 MLOAD PUSH1 0x1 DUP2 MSTORE RETURN JUMPDEST DUP4 MLOAD PUSH3 0x461BCD PUSH1 0xE5 SHL DUP2 MSTORE SWAP1 DUP2 ADD DUP6 SWAP1 MSTORE PUSH1 0xF PUSH1 0x24 DUP3 ADD MSTORE PUSH15 0x185B5BDD5B9D081C995C5D5A5C9959 PUSH1 0x8A SHL PUSH1 0x44 DUP3 ADD MSTORE PUSH1 0x64 SWAP1 REVERT JUMPDEST DUP1 REVERT JUMPDEST DUP4 DUP4 CALLVALUE PUSH2 0x180 JUMPI DUP2 PUSH1 0x3 NOT CALLDATASIZE ADD SLT PUSH2 0x180 JUMPI PUSH32 0x0 PUSH1 0x1 PUSH1 0x1 PUSH1 0xA0 SHL SUB DUP2 AND SWAP1 CALLER DUP3 SWAP1 SUB PUSH2 0x7FB JUMPI DUP5 PUSH2 0x7CD SWAP2 PUSH1 0x20 SWAP7 SLOAD SWAP6 DUP7 SWAP3 PUSH2 0x7C6 DUP5 ISZERO ISZERO PUSH2 0xD59 JUMP JUMPDEST SSTORE ADDRESS PUSH2 0x1010 JUMP JUMPDEST PUSH32 0xD046302BDC39599E60A5981E59227DCD1C643F512F56F2E984390C3AC6EADEDB DUP5 DUP4 MLOAD DUP6 DUP2 MSTORE LOG2 MLOAD SWAP1 DUP2 MSTORE RETURN JUMPDEST DUP3 MLOAD PUSH3 0x461BCD PUSH1 0xE5 SHL DUP2 MSTORE PUSH1 0x20 DUP2 DUP8 ADD MSTORE PUSH1 0xC PUSH1 0x24 DUP3 ADD MSTORE PUSH12 0x37B7363C9031B932B0BA37B9 PUSH1 0xA1 SHL PUSH1 0x44 DUP3 ADD MSTORE PUSH1 0x64 SWAP1 REVERT JUMPDEST POP POP CALLVALUE PUSH2 0x180 JUMPI DUP2 PUSH1 0x3 NOT CALLDATASIZE ADD SLT PUSH2 0x180 JUMPI PUSH1 0x20 SWAP1 MLOAD PUSH1 0x12 DUP2 MSTORE RETURN JUMPDEST POP POP CALLVALUE PUSH2 0x180 JUMPI DUP2 PUSH1 0x3 NOT CALLDATASIZE ADD SLT PUSH2 0x180 JUMPI PUSH1 0x20 SWAP1 MLOAD PUSH1 0x32 DUP2 MSTORE RETURN JUMPDEST SWAP2 SWAP1 POP CALLVALUE PUSH2 0x2F1 JUMPI DUP3 PUSH1 0x3 NOT CALLDATASIZE ADD SLT PUSH2 0x2F1 JUMPI PUSH32 0x0 SWAP2 PUSH1 0x1 PUSH1 0x1 PUSH1 0xA0 SHL SUB DUP4 AND SWAP1 CALLER DUP3 SWAP1 SUB PUSH2 0x8FC JUMPI POP PUSH2 0x8CE PUSH1 0x20 SWAP5 PUSH1 0x5 SLOAD SWAP5 DUP6 SWAP2 PUSH2 0x8C5 DUP4 ISZERO ISZERO PUSH2 0xD59 JUMP JUMPDEST PUSH1 0x5 SSTORE ADDRESS PUSH2 0x1010 JUMP JUMPDEST PUSH32 0x636F1043CFF5F4C437926A4412416778DDC5E970FEB177685B587E81DAD9095 DUP5 DUP4 MLOAD DUP6 DUP2 MSTORE LOG2 MLOAD SWAP1 DUP2 MSTORE RETURN JUMPDEST PUSH1 0x64 SWAP1 PUSH1 0x20 DUP5 MLOAD SWAP2 PUSH3 0x461BCD PUSH1 0xE5 SHL DUP4 MSTORE DUP3 ADD MSTORE PUSH1 0xD PUSH1 0x24 DUP3 ADD MSTORE PUSH13 0x6F6E6C7920706C6174666F726D PUSH1 0x98 SHL PUSH1 0x44 DUP3 ADD MSTORE REVERT JUMPDEST SWAP2 SWAP1 POP CALLVALUE PUSH2 0x2F1 JUMPI PUSH1 0x60 CALLDATASIZE PUSH1 0x3 NOT ADD SLT PUSH2 0x2F1 JUMPI PUSH2 0x94B PUSH2 0xD05 JUMP JUMPDEST PUSH2 0x953 PUSH2 0xD20 JUMP JUMPDEST PUSH1 0x44 CALLDATALOAD SWAP2 PUSH1 0x1 DUP1 PUSH1 0xA0 SHL SUB DUP2 AND DUP1 DUP8 MSTORE PUSH1 0x20 SWAP6 PUSH1 0x7 DUP8 MSTORE DUP6 DUP9 KECCAK256 CALLER DUP10 MSTORE DUP8 MSTORE DUP6 DUP9 KECCAK256 SLOAD SWAP1 DUP6 DUP3 LT PUSH2 0x9FE JUMPI POP SWAP5 DUP1 SWAP7 SWAP8 PUSH2 0x4B7 SWAP7 DUP7 PUSH1 0x0 NOT DUP3 SUB PUSH2 0x99C JUMPI JUMPDEST POP POP POP POP POP PUSH2 0xE31 JUMP JUMPDEST PUSH2 0x9A5 SWAP2 PUSH2 0xD36 JUMP JUMPDEST DUP4 DUP3 MSTORE PUSH1 0x7 DUP11 MSTORE DUP3 DUP3 KECCAK256 CALLER DUP4 MSTORE DUP11 MSTORE DUP3 DUP3 KECCAK256 SSTORE DUP3 DUP2 MSTORE PUSH1 0x7 DUP10 MSTORE DUP2 DUP2 KECCAK256 CALLER DUP3 MSTORE DUP10 MSTORE KECCAK256 SLOAD SWAP1 DUP7 MLOAD SWAP2 DUP3 MSTORE PUSH32 0x8C5BE1E5EBEC7D5BD14F71427D1E84F3DD0314C0F7B2291E5B200AC8C7C3B925 DUP9 CALLER SWAP4 LOG3 CODESIZE DUP6 DUP2 DUP1 DUP7 PUSH2 0x992 JUMP JUMPDEST DUP7 MLOAD PUSH3 0x461BCD PUSH1 0xE5 SHL DUP2 MSTORE SWAP1 DUP2 ADD DUP9 SWAP1 MSTORE PUSH1 0x12 PUSH1 0x24 DUP3 ADD MSTORE PUSH18 0x185B1B1BDDD85B98D948195E18D959591959 PUSH1 0x72 SHL PUSH1 0x44 DUP3 ADD MSTORE PUSH1 0x64 SWAP1 REVERT JUMPDEST POP POP CALLVALUE PUSH2 0x180 JUMPI DUP2 PUSH1 0x3 NOT CALLDATASIZE ADD SLT PUSH2 0x180 JUMPI PUSH1 0x20 SWAP1 MLOAD PUSH32 0x0 DUP2 MSTORE RETURN JUMPDEST POP POP CALLVALUE PUSH2 0x180 JUMPI DUP2 PUSH1 0x3 NOT CALLDATASIZE ADD SLT PUSH2 0x180 JUMPI PUSH1 0x20 SWAP1 MLOAD PUSH2 0xFA0 DUP2 MSTORE RETURN JUMPDEST POP POP CALLVALUE PUSH2 0x180 JUMPI DUP2 PUSH1 0x3 NOT CALLDATASIZE ADD SLT PUSH2 0x180 JUMPI PUSH1 0x20 SWAP1 PUSH1 0xFF PUSH1 0x3 SLOAD PUSH1 0xA0 SHR AND SWAP1 MLOAD SWAP1 ISZERO ISZERO DUP2 MSTORE RETURN JUMPDEST POP POP CALLVALUE PUSH2 0x180 JUMPI DUP2 PUSH1 0x3 NOT CALLDATASIZE ADD SLT PUSH2 0x180 JUMPI PUSH1 0x20 SWAP1 PUSH1 0x2 SLOAD SWAP1 MLOAD SWAP1 DUP2 MSTORE RETURN JUMPDEST POP POP CALLVALUE PUSH2 0x180 JUMPI DUP2 PUSH1 0x3 NOT CALLDATASIZE ADD SLT PUSH2 0x180 JUMPI PUSH1 0x20 SWAP1 MLOAD PUSH32 0x0 DUP2 MSTORE RETURN JUMPDEST POP POP CALLVALUE PUSH2 0x180 JUMPI DUP1 PUSH1 0x3 NOT CALLDATASIZE ADD SLT PUSH2 0x180 JUMPI PUSH1 0x20 SWAP2 DUP2 PUSH2 0xB2D PUSH2 0xD05 JUMP JUMPDEST SWAP2 PUSH1 0x24 CALLDATALOAD SWAP2 DUP3 SWAP2 CALLER DUP2 MSTORE PUSH1 0x7 DUP8 MSTORE DUP2 DUP2 KECCAK256 SWAP5 PUSH1 0x1 DUP1 PUSH1 0xA0 SHL SUB AND SWAP5 DUP6 DUP3 MSTORE DUP8 MSTORE KECCAK256 SSTORE DUP3 MLOAD SWAP1 DUP2 MSTORE PUSH32 0x8C5BE1E5EBEC7D5BD14F71427D1E84F3DD0314C0F7B2291E5B200AC8C7C3B925 DUP5 CALLER SWAP3 LOG3 MLOAD PUSH1 0x1 DUP2 MSTORE RETURN JUMPDEST DUP4 DUP4 CALLVALUE PUSH2 0x180 JUMPI DUP2 PUSH1 0x3 NOT CALLDATASIZE ADD SLT PUSH2 0x180 JUMPI DUP1 MLOAD SWAP1 DUP3 DUP4 SLOAD PUSH1 0x1 DUP2 PUSH1 0x1 SHR SWAP1 PUSH1 0x1 DUP4 AND SWAP3 DUP4 ISZERO PUSH2 0xC50 JUMPI JUMPDEST PUSH1 0x20 SWAP4 DUP5 DUP5 LT DUP2 EQ PUSH2 0x5E2 JUMPI DUP4 DUP9 MSTORE SWAP1 DUP2 ISZERO PUSH2 0x5C6 JUMPI POP PUSH1 0x1 EQ PUSH2 0xBFB JUMPI POP POP POP DUP3 SWAP1 SUB PUSH1 0x1F ADD PUSH1 0x1F NOT AND DUP3 ADD SWAP3 PUSH8 0xFFFFFFFFFFFFFFFF DUP5 GT DUP4 DUP6 LT OR PUSH2 0x55D JUMPI POP DUP3 SWAP2 DUP3 PUSH2 0x559 SWAP3 MSTORE DUP3 PUSH2 0xCBC JUMP JUMPDEST DUP7 DUP1 MSTORE SWAP2 SWAP3 POP DUP6 SWAP2 DUP4 PUSH32 0x290DECD9548B62A8D60345A988386FC84BA6BC95484008F6362F93160EF3E563 JUMPDEST DUP4 DUP6 LT PUSH2 0xC3C JUMPI POP POP POP POP DUP4 ADD ADD DUP6 DUP1 DUP1 PUSH2 0x527 JUMP JUMPDEST DUP1 SLOAD DUP9 DUP7 ADD DUP4 ADD MSTORE SWAP4 ADD SWAP3 DUP5 SWAP1 DUP3 ADD PUSH2 0xC26 JUMP JUMPDEST SWAP2 PUSH1 0x7F AND SWAP2 PUSH2 0xBAB JUMP JUMPDEST POP POP CALLVALUE PUSH2 0x180 JUMPI DUP2 PUSH1 0x3 NOT CALLDATASIZE ADD SLT PUSH2 0x180 JUMPI PUSH1 0x20 SWAP1 PUSH1 0x5 SLOAD SWAP1 MLOAD SWAP1 DUP2 MSTORE RETURN JUMPDEST DUP5 SWAP1 CALLVALUE PUSH2 0x180 JUMPI DUP2 PUSH1 0x3 NOT CALLDATASIZE ADD SLT PUSH2 0x180 JUMPI PUSH32 0x0 PUSH1 0x1 PUSH1 0x1 PUSH1 0xA0 SHL SUB AND DUP2 MSTORE PUSH1 0x20 SWAP1 RETURN JUMPDEST PUSH1 0x20 DUP1 DUP3 MSTORE DUP3 MLOAD DUP2 DUP4 ADD DUP2 SWAP1 MSTORE SWAP1 SWAP4 SWAP3 PUSH1 0x0 JUMPDEST DUP3 DUP2 LT PUSH2 0xCF1 JUMPI POP POP PUSH1 0x40 SWAP3 SWAP4 POP PUSH1 0x0 DUP4 DUP3 DUP5 ADD ADD MSTORE PUSH1 0x1F DUP1 NOT SWAP2 ADD AND ADD ADD SWAP1 JUMP JUMPDEST DUP2 DUP2 ADD DUP7 ADD MLOAD DUP5 DUP3 ADD PUSH1 0x40 ADD MSTORE DUP6 ADD PUSH2 0xCCF JUMP JUMPDEST PUSH1 0x4 CALLDATALOAD SWAP1 PUSH1 0x1 PUSH1 0x1 PUSH1 0xA0 SHL SUB DUP3 AND DUP3 SUB PUSH2 0xD1B JUMPI JUMP JUMPDEST PUSH1 0x0 DUP1 REVERT JUMPDEST PUSH1 0x24 CALLDATALOAD SWAP1 PUSH1 0x1 PUSH1 0x1 PUSH1 0xA0 SHL SUB DUP3 AND DUP3 SUB PUSH2 0xD1B JUMPI JUMP JUMPDEST SWAP2 SWAP1 DUP3 SUB SWAP2 DUP3 GT PUSH2 0xD43 JUMPI JUMP JUMPDEST PUSH4 0x4E487B71 PUSH1 0xE0 SHL PUSH1 0x0 MSTORE PUSH1 0x11 PUSH1 0x4 MSTORE PUSH1 0x24 PUSH1 0x0 REVERT JUMPDEST ISZERO PUSH2 0xD60 JUMPI JUMP JUMPDEST PUSH1 0x40 MLOAD PUSH3 0x461BCD PUSH1 0xE5 SHL DUP2 MSTORE PUSH1 0x20 PUSH1 0x4 DUP3 ADD MSTORE PUSH1 0x10 PUSH1 0x24 DUP3 ADD MSTORE PUSH16 0x6E6F7468696E6720746F20636C61696D PUSH1 0x80 SHL PUSH1 0x44 DUP3 ADD MSTORE PUSH1 0x64 SWAP1 REVERT JUMPDEST ISZERO PUSH2 0xD9F JUMPI JUMP JUMPDEST PUSH1 0x40 MLOAD PUSH3 0x461BCD PUSH1 0xE5 SHL DUP2 MSTORE PUSH1 0x20 PUSH1 0x4 DUP3 ADD MSTORE PUSH1 0xF PUSH1 0x24 DUP3 ADD MSTORE PUSH15 0x62616C616E636520746F6F206C6F77 PUSH1 0x88 SHL PUSH1 0x44 DUP3 ADD MSTORE PUSH1 0x64 SWAP1 REVERT JUMPDEST ISZERO PUSH2 0xDDD JUMPI JUMP JUMPDEST PUSH1 0x40 MLOAD PUSH3 0x461BCD PUSH1 0xE5 SHL DUP2 MSTORE PUSH1 0x20 PUSH1 0x4 DUP3 ADD MSTORE PUSH1 0xC PUSH1 0x24 DUP3 ADD MSTORE PUSH12 0x6F6E6C7920666163746F7279 PUSH1 0xA0 SHL PUSH1 0x44 DUP3 ADD MSTORE PUSH1 0x64 SWAP1 REVERT JUMPDEST DUP2 DUP2 MUL SWAP3 SWAP2 DUP2 ISZERO SWAP2 DUP5 DIV EQ OR ISZERO PUSH2 0xD43 JUMPI JUMP JUMPDEST SWAP2 SWAP1 DUP3 ADD DUP1 SWAP3 GT PUSH2 0xD43 JUMPI JUMP JUMPDEST PUSH1 0x1 PUSH1 0x1 PUSH1 0xA0 SHL SUB DUP1 DUP4 AND SWAP4 SWAP2 SWAP3 SWAP1 DUP5 ISZERO PUSH2 0xFDC JUMPI DUP4 AND SWAP3 PUSH1 0x0 SWAP2 DUP5 DUP4 MSTORE PUSH1 0x20 SWAP3 PUSH1 0x6 DUP5 MSTORE PUSH1 0x40 SWAP2 PUSH2 0xE74 DUP4 DUP4 KECCAK256 SLOAD SWAP2 PUSH2 0xE6D DUP9 DUP5 LT ISZERO PUSH2 0xD98 JUMP JUMPDEST DUP8 SWAP6 PUSH2 0x10B6 JUMP JUMPDEST DUP1 PUSH2 0xFD3 JUMPI JUMPDEST PUSH2 0xEBD JUMPI JUMPDEST SWAP1 PUSH2 0xE9A PUSH1 0x0 DUP1 MLOAD PUSH1 0x20 PUSH2 0x10F3 DUP4 CODECOPY DUP2 MLOAD SWAP2 MSTORE SWAP7 DUP5 SWAP4 PUSH2 0xD36 JUMP JUMPDEST DUP8 DUP3 MSTORE PUSH1 0x6 DUP7 MSTORE DUP3 DUP3 KECCAK256 SSTORE DUP8 DUP2 MSTORE KECCAK256 PUSH2 0xEB4 DUP4 DUP3 SLOAD PUSH2 0xE24 JUMP JUMPDEST SWAP1 SSTORE MLOAD SWAP1 DUP2 MSTORE LOG3 JUMP JUMPDEST PUSH2 0x2710 DUP9 DUP9 DUP3 PUSH2 0xEED PUSH32 0x0 DUP12 PUSH2 0xE11 JUMP JUMPDEST DIV SWAP3 DUP4 PUSH2 0xEFE JUMPI JUMPDEST POP POP POP POP PUSH2 0xE7F JUMP JUMPDEST DUP7 SWAP6 SWAP5 SWAP4 SWAP8 POP PUSH32 0x0 PUSH2 0xF2F SWAP1 DUP12 PUSH2 0xE11 JUMP JUMPDEST DIV DUP6 DUP9 DUP11 DUP5 DUP14 PUSH2 0xF3F DUP7 DUP6 PUSH2 0xD36 JUMP JUMPDEST SWAP4 PUSH2 0xF49 SWAP2 PUSH2 0xD36 JUMP JUMPDEST SWAP12 DUP6 PUSH1 0x4 SLOAD SWAP1 PUSH2 0xF58 SWAP2 PUSH2 0xE24 JUMP JUMPDEST PUSH1 0x4 SSTORE DUP4 PUSH1 0x5 SLOAD SWAP1 PUSH2 0xF69 SWAP2 PUSH2 0xE24 JUMP JUMPDEST PUSH1 0x5 SSTORE ADDRESS DUP11 MSTORE PUSH1 0x6 DUP4 MSTORE DUP5 DUP11 KECCAK256 DUP2 DUP2 SLOAD SWAP1 PUSH2 0xF83 SWAP2 PUSH2 0xE24 JUMP JUMPDEST SWAP1 SSTORE DUP5 MLOAD SWAP1 DUP2 MSTORE ADDRESS SWAP3 PUSH1 0x0 DUP1 MLOAD PUSH1 0x20 PUSH2 0x10F3 DUP4 CODECOPY DUP2 MLOAD SWAP2 MSTORE SWAP2 LOG3 DUP2 MLOAD SWAP3 DUP4 MSTORE DUP11 DUP4 ADD MSTORE PUSH32 0x93BD139EA85D53C55E02DEC709128F827EBD5CB8A4A0D873193711B70B0A15B9 SWAP2 LOG3 SWAP1 SWAP2 DUP9 DUP9 CODESIZE PUSH2 0xEF5 JUMP JUMPDEST POP DUP6 ISZERO ISZERO PUSH2 0xE7A JUMP JUMPDEST PUSH1 0x40 MLOAD PUSH3 0x461BCD PUSH1 0xE5 SHL DUP2 MSTORE PUSH1 0x20 PUSH1 0x4 DUP3 ADD MSTORE PUSH1 0xC PUSH1 0x24 DUP3 ADD MSTORE PUSH12 0x7A65726F2061646472657373 PUSH1 0xA0 SHL PUSH1 0x44 DUP3 ADD MSTORE PUSH1 0x64 SWAP1 REVERT JUMPDEST PUSH1 0x1 DUP1 PUSH1 0xA0 SHL SUB DUP1 SWAP2 AND SWAP2 PUSH1 0x0 SWAP4 DUP4 DUP6 MSTORE PUSH1 0x6 PUSH1 0x20 MSTORE PUSH1 0x40 DUP6 KECCAK256 SLOAD DUP2 DUP2 LT PUSH2 0x1078 JUMPI PUSH1 0x0 DUP1 MLOAD PUSH1 0x20 PUSH2 0x10F3 DUP4 CODECOPY DUP2 MLOAD SWAP2 MSTORE SWAP4 PUSH1 0x20 SWAP4 PUSH2 0x1051 DUP5 PUSH1 0x40 SWAP5 PUSH2 0xD36 JUMP JUMPDEST DUP8 DUP10 MSTORE PUSH1 0x6 DUP7 MSTORE DUP4 DUP10 KECCAK256 SSTORE AND SWAP6 DUP7 DUP2 MSTORE KECCAK256 PUSH2 0x106D DUP3 DUP3 SLOAD PUSH2 0xE24 JUMP JUMPDEST SWAP1 SSTORE PUSH1 0x40 MLOAD SWAP1 DUP2 MSTORE LOG3 JUMP JUMPDEST PUSH1 0x40 MLOAD PUSH3 0x461BCD PUSH1 0xE5 SHL DUP2 MSTORE PUSH1 0x20 PUSH1 0x4 DUP3 ADD MSTORE PUSH1 0x16 PUSH1 0x24 DUP3 ADD MSTORE PUSH22 0x1A5B9CDD59999A58DA595B9D08199959481D985D5B1D PUSH1 0x52 SHL PUSH1 0x44 DUP3 ADD MSTORE PUSH1 0x64 SWAP1 REVERT JUMPDEST PUSH1 0x3 SLOAD PUSH1 0x1 PUSH1 0x1 PUSH1 0xA0 SHL SUB SWAP1 DUP2 AND SWAP2 DUP3 ISZERO PUSH2 0x10E9 JUMPI DUP2 AND DUP3 EQ SWAP3 DUP4 ISZERO PUSH2 0x10DD JUMPI JUMPDEST POP POP POP SWAP1 JUMP JUMPDEST AND EQ SWAP1 POP CODESIZE DUP1 DUP1 PUSH2 0x10D7 JUMP JUMPDEST POP POP POP POP PUSH1 0x0 SWAP1 JUMP INVALID 0xDD CALLCODE MSTORE 0xAD SHL 0xE2 0xC8 SWAP12 PUSH10 0xC2B068FC378DAA952BA7 CALL PUSH4 0xC4A11628 CREATE2 GAS 0x4D CREATE2 0x23 0xB3 0xEF LOG2 PUSH5 0x6970667358 0x22 SLT KECCAK256 PREVRANDAO 0xFC 0xB1 0x4B EXTCODEHASH PUSH29 0xB8A9286ECA6BF592A4F3CAF9627E236F36D27101F0273E8F794E64736F PUSH13 0x634300081800338620494F9207 PUSH2 0xBD37 ORIGIN SAR 0xDD 0x1F SLT MCOPY ADDMOD TSTORE DUP2 TIMESTAMP PUSH9 0x20D3CA4E8B1F0AB3DA 0xB7 0xA5 PUSH25 0xDC7FEA29D21F6A39E7F1B42AD6100F8CDAFF48535852696A11 SSTORE 0xDE DUP11 DUP2 0xD8 PUSH27 0x6A26469706673582212201314E1826943F7001AF184F3F6FD7883 CALLVALUE 0xEB CREATE CALLCODE PUSH1 0x5D SHL 0xE5 0xAD CREATE DUP1 PUSH25 0x4530F0864736F6C6343000818003300000000000000000000 "},"methodIdentifiers":{"BPS_DENOMINATOR()":"e1a45218","BURN_ADDRESS()":"fccc2813","DEFAULT_TOKEN_TRADE_FEE_BPS()":"4a9ddfdd","MAX_TOKEN_TRADE_FEE_BPS()":"39cbfa1f","ROBINHOOD_CHAIN_ID()":"80fa02f7","createLaunch(string,string,string,string,uint256,uint256)":"1036338c","createLaunchInstant(string,string,string,string,uint256,uint256)":"96875aa0","createLaunchInstantWithTax(string,string,string,string,uint256,uint256,uint256)":"f0181892","createLaunchLiveDexCurve(string,string,string,string,uint256,uint256)":"5de3bafb","createLaunchLiveDexCurveWithTax(string,string,string,string,uint256,uint256,uint256)":"fd04bbac","createLaunchWithTax(string,string,string,string,uint256,uint256,uint256)":"3c0f4305","defaultDexRouter()":"d578192c","defaultFeeBps()":"bcae25a4","defaultGraduationTargetEth()":"63f0eb04","defaultLpRecipient()":"13ed4aa6","defaultVirtualEthReserve()":"1c8c0d92","defaultVirtualTokenReserve()":"93a8e04d","feeRecipient()":"46904840","getLaunch(uint256)":"5930d3ce","getLaunchCount()":"9ff0251f","getLaunches(uint256,uint256)":"9b3b9f98","launchFeeWei()":"83eeb3bb","owner()":"8da5cb5b","platformFeeRecipient()":"eb13554f","poolByToken(address)":"0b0420bb","setDefaults(address,address,uint256,uint256,uint256,uint256,uint256,address,address)":"b82942a5","transferOwnership(address)":"f2fde38b"}}}}}