{"contracts/MemeLaunchFactoryERC20Quote.sol":{"MemeLaunchFactoryERC20Quote":{"abi":[{"inputs":[{"internalType":"address","name":"_feeRecipient","type":"address"},{"internalType":"address","name":"_platformFeeRecipient","type":"address"},{"internalType":"address","name":"_quoteToken","type":"address"},{"internalType":"uint256","name":"_defaultFeeBps","type":"uint256"},{"internalType":"uint256","name":"_launchFeeWei","type":"uint256"},{"internalType":"uint256","name":"_defaultVirtualQuoteReserve","type":"uint256"},{"internalType":"uint256","name":"_defaultVirtualTokenReserve","type":"uint256"},{"internalType":"uint256","name":"_defaultGraduationTargetQuote","type":"uint256"},{"internalType":"address","name":"_defaultDexRouter","type":"address"}],"stateMutability":"nonpayable","type":"constructor"},{"anonymous":false,"inputs":[{"indexed":false,"internalType":"address","name":"feeRecipient","type":"address"},{"indexed":false,"internalType":"address","name":"platformFeeRecipient","type":"address"},{"indexed":false,"internalType":"uint256","name":"feeBps","type":"uint256"},{"indexed":false,"internalType":"uint256","name":"launchFeeWei","type":"uint256"},{"indexed":false,"internalType":"uint256","name":"virtualQuoteReserve","type":"uint256"},{"indexed":false,"internalType":"uint256","name":"virtualTokenReserve","type":"uint256"},{"indexed":false,"internalType":"uint256","name":"graduationTargetQuote","type":"uint256"},{"indexed":false,"internalType":"address","name":"dexRouter","type":"address"},{"indexed":false,"internalType":"address","name":"lpRecipient","type":"address"}],"name":"DefaultsUpdated","type":"event"},{"anonymous":false,"inputs":[{"indexed":true,"internalType":"uint256","name":"launchId","type":"uint256"},{"indexed":true,"internalType":"address","name":"creator","type":"address"},{"indexed":true,"internalType":"address","name":"token","type":"address"},{"indexed":false,"internalType":"address","name":"pool","type":"address"},{"indexed":false,"internalType":"uint256","name":"totalSupply","type":"uint256"},{"indexed":false,"internalType":"uint256","name":"creatorAllocation","type":"uint256"},{"indexed":false,"internalType":"uint256","name":"feeBps","type":"uint256"},{"indexed":false,"internalType":"uint256","name":"graduationTargetEth","type":"uint256"},{"indexed":false,"internalType":"address","name":"dexRouter","type":"address"},{"indexed":false,"internalType":"address","name":"lpRecipient","type":"address"}],"name":"LaunchCreated","type":"event"},{"anonymous":false,"inputs":[{"indexed":true,"internalType":"address","name":"payer","type":"address"},{"indexed":true,"internalType":"address","name":"recipient","type":"address"},{"indexed":false,"internalType":"uint256","name":"amountWei","type":"uint256"}],"name":"LaunchFeePaid","type":"event"},{"anonymous":false,"inputs":[{"indexed":true,"internalType":"address","name":"previousOwner","type":"address"},{"indexed":true,"internalType":"address","name":"newOwner","type":"address"}],"name":"OwnershipTransferred","type":"event"},{"inputs":[],"name":"BPS_DENOMINATOR","outputs":[{"internalType":"uint256","name":"","type":"uint256"}],"stateMutability":"view","type":"function"},{"inputs":[],"name":"DEFAULT_TOKEN_TRADE_FEE_BPS","outputs":[{"internalType":"uint256","name":"","type":"uint256"}],"stateMutability":"view","type":"function"},{"inputs":[{"internalType":"string","name":"name","type":"string"},{"internalType":"string","name":"symbol","type":"string"},{"internalType":"string","name":"imageURI","type":"string"},{"internalType":"string","name":"description","type":"string"},{"internalType":"uint256","name":"totalSupply","type":"uint256"},{"internalType":"uint256","name":"creatorAllocationBps","type":"uint256"}],"name":"createLaunch","outputs":[{"internalType":"uint256","name":"launchId","type":"uint256"},{"internalType":"address","name":"tokenAddress","type":"address"},{"internalType":"address","name":"poolAddress","type":"address"}],"stateMutability":"payable","type":"function"},{"inputs":[],"name":"defaultDexRouter","outputs":[{"internalType":"address","name":"","type":"address"}],"stateMutability":"view","type":"function"},{"inputs":[],"name":"defaultFeeBps","outputs":[{"internalType":"uint256","name":"","type":"uint256"}],"stateMutability":"view","type":"function"},{"inputs":[],"name":"defaultGraduationTargetQuote","outputs":[{"internalType":"uint256","name":"","type":"uint256"}],"stateMutability":"view","type":"function"},{"inputs":[],"name":"defaultLpRecipient","outputs":[{"internalType":"address","name":"","type":"address"}],"stateMutability":"view","type":"function"},{"inputs":[],"name":"defaultVirtualQuoteReserve","outputs":[{"internalType":"uint256","name":"","type":"uint256"}],"stateMutability":"view","type":"function"},{"inputs":[],"name":"defaultVirtualTokenReserve","outputs":[{"internalType":"uint256","name":"","type":"uint256"}],"stateMutability":"view","type":"function"},{"inputs":[],"name":"feeRecipient","outputs":[{"internalType":"address","name":"","type":"address"}],"stateMutability":"view","type":"function"},{"inputs":[{"internalType":"uint256","name":"launchId","type":"uint256"}],"name":"getLaunch","outputs":[{"components":[{"internalType":"address","name":"token","type":"address"},{"internalType":"address","name":"pool","type":"address"},{"internalType":"address","name":"creator","type":"address"},{"internalType":"string","name":"name","type":"string"},{"internalType":"string","name":"symbol","type":"string"},{"internalType":"string","name":"imageURI","type":"string"},{"internalType":"string","name":"description","type":"string"},{"internalType":"uint256","name":"totalSupply","type":"uint256"},{"internalType":"uint256","name":"creatorAllocation","type":"uint256"},{"internalType":"uint256","name":"createdAt","type":"uint256"}],"internalType":"struct MemeLaunchFactoryERC20Quote.LaunchInfo","name":"","type":"tuple"}],"stateMutability":"view","type":"function"},{"inputs":[],"name":"getLaunchCount","outputs":[{"internalType":"uint256","name":"","type":"uint256"}],"stateMutability":"view","type":"function"},{"inputs":[],"name":"launchFeeWei","outputs":[{"internalType":"uint256","name":"","type":"uint256"}],"stateMutability":"view","type":"function"},{"inputs":[],"name":"owner","outputs":[{"internalType":"address","name":"","type":"address"}],"stateMutability":"view","type":"function"},{"inputs":[],"name":"platformFeeRecipient","outputs":[{"internalType":"address","name":"","type":"address"}],"stateMutability":"view","type":"function"},{"inputs":[{"internalType":"address","name":"token","type":"address"}],"name":"poolByToken","outputs":[{"internalType":"address","name":"pool","type":"address"}],"stateMutability":"view","type":"function"},{"inputs":[],"name":"quoteToken","outputs":[{"internalType":"address","name":"","type":"address"}],"stateMutability":"view","type":"function"},{"inputs":[{"internalType":"address","name":"newFeeRecipient","type":"address"},{"internalType":"address","name":"newPlatformFeeRecipient","type":"address"},{"internalType":"uint256","name":"newFeeBps","type":"uint256"},{"internalType":"uint256","name":"newLaunchFeeWei","type":"uint256"},{"internalType":"uint256","name":"newVirtualQuoteReserve","type":"uint256"},{"internalType":"uint256","name":"newVirtualTokenReserve","type":"uint256"},{"internalType":"uint256","name":"newGraduationTargetQuote","type":"uint256"},{"internalType":"address","name":"newDexRouter","type":"address"},{"internalType":"address","name":"newLpRecipient","type":"address"}],"name":"setDefaults","outputs":[],"stateMutability":"nonpayable","type":"function"},{"inputs":[{"internalType":"address","name":"newOwner","type":"address"}],"name":"transferOwnership","outputs":[],"stateMutability":"nonpayable","type":"function"},{"stateMutability":"payable","type":"receive"}],"evm":{"bytecode":{"linkReferences":{},"object":"608034620002ec57601f6200581938819003918201601f191683019291906001600160401b03841183851017620002f157816101209284926040968752833981010312620002ec57620000528162000307565b6020906200006282840162000307565b916200007085850162000307565b936060810151608082015160a08301519060c0840151926200009b61010060e0870151960162000307565b6001600160a01b03978816989096908915620002a8578816998a1562000264578816908115620002305761012c8311620001fe578415620001bb5785156200017857861562000143575060018060a01b031998338a60005416176000558960015416176001558989600254161760025588600354161760035560045560055560065560075560085516816009541617600955600a541617600a55516154fc90816200031d8239f35b6064908c519062461bcd60e51b82526004820152600f60248201526e1d185c99d95d081c995c5d5a5c9959608a1b6044820152fd5b6064908c519062461bcd60e51b82526004820152601660248201527f7669727475616c20746f6b656e207265717569726564000000000000000000006044820152fd5b6064908c519062461bcd60e51b82526004820152601660248201527f7669727475616c2071756f7465207265717569726564000000000000000000006044820152fd5b6064908c519062461bcd60e51b82526004820152600c60248201526b0cccaca40e8dede40d0d2ced60a31b6044820152fd5b6064908c519062461bcd60e51b82526004820152600e60248201526d1c5d5bdd19481c995c5d5a5c995960921b6044820152fd5b8b5162461bcd60e51b815260048101839052601b60248201527f706c6174666f726d20726563697069656e7420726571756972656400000000006044820152606490fd5b8b5162461bcd60e51b815260048101839052601660248201527f66656520726563697069656e74207265717569726564000000000000000000006044820152606490fd5b600080fd5b634e487b7160e01b600052604160045260246000fd5b51906001600160a01b0382168203620002ec5756fe60e08060405260043610156200001f575b5036156200001d57600080fd5b005b600060a05260a0513560e01c9081630b0420bb14620015fb575080631036338c146200091f57806313ed4aa614620008f3578063217a4b7014620008c757806346904840146200089b5780634a9ddfdd146200087c57806352438689146200085b5780635930d3ce146200062f57806383eeb3bb146200060e5780638da5cb5b14620005e157806393a8e04d14620005c05780639ff0251f146200059f578063b82942a51462000298578063bcae25a41462000277578063d578192c146200024b578063e1a45218146200022b578063eb13554f14620001ff578063f2fde38b146200013e5763f80e5ec11462000117573862000010565b34620001385760a05136600319011262000138576020600654604051908152f35b60a05180fd5b346200013857602036600319011262000138576200015b62001639565b60a051546001600160a01b0380821692620001783385146200186b565b16918215620001c95782907f8be0079c531659141344cd1fd0a4f28419497f9722a3daafe3b4186f6b6457e060a05160a051a36bffffffffffffffffffffffff60a01b161760a0515560a05160a051f35b60405162461bcd60e51b815260206004820152600e60248201526d1bdddb995c881c995c5d5a5c995960921b6044820152606490fd5b34620001385760a05136600319011262000138576002546040516001600160a01b039091168152602090f35b34620001385760a051366003190112620001385760206040516127108152f35b34620001385760a05136600319011262000138576009546040516001600160a01b039091168152602090f35b34620001385760a05136600319011262000138576020600454604051908152f35b3462000138576101203660031901126200013857620002b662001639565b6024356001600160a01b03811681036200059a5760649160e4356001600160a01b03811681036200059a5761010435916001600160a01b03831683036200059a576200030f60018060a01b0360a051541633146200186b565b6001600160a01b03169283156200055d57620003366001600160a01b0382161515620018a5565b61012c604435116200052a5760843515620004ed5760a43515620004b05760c435156200047a577f62de0c78f593b14f1d09c895ce83a42ea45a7d77a716a05432a53193305b3c5a94610120949392916001600160a01b0383166200045e575b6bffffffffffffffffffffffff60a01b8581600154161760015560018060a01b038216816002541617600255604435600455823560055560843560065560a43560075560c43560085560018060a01b03841681600954161760095560018060a01b03851690600a541617600a5560405194855260018060a01b031660208501526044356040850152356060840152608435608084015260a43560a084015260c43560c084015260018060a01b031660e083015260018060a01b0316610100820152a160a05180f35b620004746001600160a01b0385161515620018f2565b62000396565b60405162461bcd60e51b815260206004820152600f60248201526e1d185c99d95d081c995c5d5a5c9959608a1b60448201528590fd5b60405162461bcd60e51b81526020600482015260166024820152751d9a5c9d1d585b081d1bdad95b881c995c5d5a5c995960521b60448201528590fd5b60405162461bcd60e51b81526020600482015260166024820152751d9a5c9d1d585b081c5d5bdd19481c995c5d5a5c995960521b60448201528590fd5b60405162461bcd60e51b815260206004820152600c60248201526b0cccaca40e8dede40d0d2ced60a31b60448201528590fd5b60405162461bcd60e51b8152602060048201526016602482015275199959481c9958da5c1a595b9d081c995c5d5a5c995960521b60448201528590fd5b600080fd5b34620001385760a05136600319011262000138576020600b54604051908152f35b34620001385760a05136600319011262000138576020600754604051908152f35b34620001385760a051366003190112620001385760a051546040516001600160a01b039091168152602090f35b34620001385760a05136600319011262000138576020600554604051908152f35b346200013857602036600319011262000138576004356040516200065381620016ec565b60a051815260a051602082015260a051604082015260608082015260606080820152606060a0820152606060c082015260a05160e082015260a05161010082015261012060a051910152600b548110156200082357620006b3906200172b565b50600960405191620006c583620016ec565b80546001600160a01b0390811684526001820154811660208501526002820154166040840152620006f960038201620017ba565b60608401526200070c60048201620017ba565b60808401526200071f60058201620017ba565b60a08401526200073260068201620017ba565b60c0840152600781015460e08401526008810154610100840152015461012082015260405180916020825260018060a01b03815116602083015260018060a01b03602082015116604083015260018060a01b036040820151166060830152606081015161012062000803620007b66101409384608088015261016087019062001680565b620007ed620007d8608087015192601f1993848a83030160a08b015262001680565b60a0870151838983030160c08a015262001680565b9060c0860151908783030160e088015262001680565b9260e0810151610100860152610100810151828601520151908301520390f35b60405162461bcd60e51b815260206004820152601060248201526f1b185d5b98da081b9bdd08199bdd5b9960821b6044820152606490fd5b34620001385760a05136600319011262000138576020600854604051908152f35b34620001385760a0513660031901126200013857602060405160328152f35b34620001385760a05136600319011262000138576001546040516001600160a01b039091168152602090f35b34620001385760a05136600319011262000138576003546040516001600160a01b039091168152602090f35b34620001385760a0513660031901126200013857600a546040516001600160a01b039091168152602090f35b60c036600319011262000138576004356001600160401b03811162000138576200094e90369060040162001650565b906024356001600160401b03811162000138576200097190369060040162001650565b9290916044356001600160401b03811162000138576200099690369060040162001650565b6064356001600160401b0381116200013857620009b890369060040162001650565b9290966005543403620015c057620009cf62001937565b85156200158b5780156200155457608435156200151d576107d060a43511620014e257600254604051906001600160a01b03166001600160401b036118088301908111908311176200108357819061180862003cbf833960e061180883015262000a5e62000a4660e06118088501018b8b62001a41565b61180884018103602061180886010152858c62001a41565b90608435604061180885010152306060611808850101523360806118088501015260a061180884010152603260c061180884010152039060a051f09687156200134c576002546001600160a01b0316338103620014ce57965b6009546001600160a01b0316620014b2575b600354604051906001600160a01b03166001600160401b03612242830190811190831117620010835761224262001a7d83396001600160a01b038b166122428301908152602081019190915260a051908290036040019190f060c05260c051156200134c5760015460045460065460075460085460095460c05192956001600160a01b0390811695939181169291163b15620001385760405163a8cec45f60e01b815260a080516001600160a01b0397881660048401526024830195909552604482019590955260648101969096526084860152831660a48501528b831660c4850152905160c0519192849260e49284929091165af180156200134c57620014a0575b5060843560a435608435020460a43503620014885760843561271060a435820204810311620014885760405163a9059cbb60e01b815260c0516001600160a01b03908116600483015261271060843560a4358102919091049003602483015260a05160209183916044918391908f165af19081156200134c5760a0519162001464575b5015620014285761271060a435608435020462001359575b60c0516001600160a01b03163b156200013857604051639556483760e01b815261271060a435608435020460843503600482015260a0518160248160a05160018060a01b0360c051165af180156200134c5762001332575b5060a080516001600160a01b038b8116909152600c60205290516040902060c05181546001600160a01b0319169216919091179055600b5460808190526801000000000000000011156200108357600160805101600b5562000d236080516200172b565b505062000d326080516200172b565b5080546001600160a01b03199081166001600160a01b038c811691909117835560c05160018401805484169190921617905560028201805490911633179055966001600160401b0382116200108357819062000d9260038a01546200177d565b601f8111620012d7575b5060a05190601f8311600114620012615760a0519262001255575b50508160011b916000199060031b1c19161760038701555b6001600160401b0382116200108357819062000def60048801546200177d565b601f8111620011fa575b5060a05190601f8311600114620011845760a0519262001178575b50508160011b916000199060031b1c19161760048501555b6001600160401b0382116200108357819062000e4c60058601546200177d565b601f81116200111d575b5060a05190601f8311600114620010a75760a051926200109b575b50508160011b916000199060031b1c19161760058301555b6001600160401b038111620010835762000ea760068301546200177d565b601f811162001030575b5060a051601f821160011462000fb657819060609660a0519262000faa575b50508160011b916000199060031b1c19161760068201555b6084356007820181905561271060a43582020460088084018290554260099485015560045490549354604080516080805160c080516001600160a01b039081168552602085019990995293830196909652606082019490945292830195909552831660a0820152938216928401929092528316913391907fdc7fea29d21f6a39e7f1b42ad6100f8cdaff48535852696a1155de8a81d87a069060e090a46040805160805181526001600160a01b03928316602082015260c05190921690820152f35b01359050868062000ed0565b6006830160a05152602060a051209060a0515b601f1984168110620010175750906060968392600194601f1981161062000ffc575b505050811b01600682015562000ee8565b0135600019600384901b60f8161c1916905586808062000feb565b9091602060018192858b01358155019301910162000fc9565b6006830160a05152602060a05120601f830160051c8101916020841062001078575b601f0160051c01905b8181106200106a575062000eb1565b60a05181556001016200105b565b909150819062001052565b634e487b7160e01b60a051526041600452602460a051fd5b01359050878062000e71565b60a080516005880190525160208120909450915b601f198416851062001104576001945083601f19811610620010e9575b505050811b01600583015562000e89565b0135600019600384901b60f8161c19169055878080620010d8565b81810135835560209485019460019093019201620010bb565b9091506005850160a05152602060a05120601f840160051c81016020851062001170575b90849392915b601f830160051c820181106200115f57505062000e56565b60a051815585945060010162001147565b508062001141565b01359050898062000e14565b60a0805160048a0190525160208120909450915b601f1984168510620011e1576001945083601f19811610620011c6575b505050811b01600485015562000e2c565b0135600019600384901b60f8161c19169055898080620011b5565b8181013583556020948501946001909301920162001198565b9091506004870160a05152602060a05120601f840160051c8101602085106200124d575b90849392915b601f830160051c820181106200123c57505062000df9565b60a051815585945060010162001224565b50806200121e565b013590508b8062000db7565b60a0805160038c0190525160208120909450915b601f1984168510620012be576001945083601f19811610620012a3575b505050811b01600387015562000dcf565b0135600019600384901b60f8161c191690558b808062001292565b8181013583556020948501946001909301920162001275565b9091506003890160a05152602060a05120601f840160051c8101602085106200132a575b90849392915b601f830160051c820181106200131957505062000d9c565b60a051815585945060010162001301565b5080620012fb565b6200133d90620016c2565b60a05162000138578a62000cbf565b6040513d60a051823e3d90fd5b60405163a9059cbb60e01b815233600482015261271060a4356084350204602482015260a051602090829060449082906001600160a01b038f165af19081156200134c5760a05191620013f2575b5062000c675760405162461bcd60e51b815260206004820152601760248201527f63726561746f72207472616e73666572206661696c65640000000000000000006044820152606490fd5b62001419915060203d60201162001420575b62001410818362001709565b81019062001a62565b8b620013a7565b503d62001404565b60405162461bcd60e51b81526020600482015260146024820152731c1bdbdb081d1c985b9cd9995c8819985a5b195960621b6044820152606490fd5b62001481915060203d602011620014205762001410818362001709565b8b62000c4f565b634e487b7160e01b60a051526011600452602460a051fd5b620014ab90620016c2565b8a62000bcc565b620014c86001600160a01b0389161515620018f2565b62000ac9565b50600a546001600160a01b03169662000ab7565b60405162461bcd60e51b81526020600482015260136024820152720c2d8d8dec6c2e8d2dedc40e8dede40d0d2ced606b1b6044820152606490fd5b60405162461bcd60e51b815260206004820152600f60248201526e1cdd5c1c1b1e481c995c5d5a5c9959608a1b6044820152606490fd5b60405162461bcd60e51b815260206004820152600f60248201526e1cde5b589bdb081c995c5d5a5c9959608a1b6044820152606490fd5b60405162461bcd60e51b815260206004820152600d60248201526c1b985b59481c995c5d5a5c9959609a1b6044820152606490fd5b60405162461bcd60e51b81526020600482015260136024820152720d8c2eadcc6d040cccaca40dad2e6dac2e8c6d606b1b6044820152606490fd5b346200013857602036600319011262000138576020906001600160a01b03806200162462001639565b1660a05152600c8352604060a0512054168152f35b600435906001600160a01b03821682036200059a57565b9181601f840112156200059a578235916001600160401b0383116200059a57602083818601950101116200059a57565b919082519283825260005b848110620016ad575050826000602080949584010152601f8019910116010190565b6020818301810151848301820152016200168b565b6001600160401b038111620016d657604052565b634e487b7160e01b600052604160045260246000fd5b61014081019081106001600160401b03821117620016d657604052565b90601f801991011681019081106001600160401b03821117620016d657604052565b600b548110156200176757600a90600b600052027f0175b7a638427703f0dbe7bb9bbf987a2551717b34e79f33b5b1008d1fa01db90190600090565b634e487b7160e01b600052603260045260246000fd5b90600182811c92168015620017af575b60208310146200179957565b634e487b7160e01b600052602260045260246000fd5b91607f16916200178d565b90604051918260008254620017cf816200177d565b9081845260209460019160018116908160001462001847575060011462001804575b505050620018029250038362001709565b565b600090815285812095935091905b8183106200182e575050620018029350820101388080620017f1565b8554888401850152948501948794509183019162001812565b925050506200180294925060ff191682840152151560051b820101388080620017f1565b156200187357565b60405162461bcd60e51b815260206004820152600a60248201526937b7363c9037bbb732b960b11b6044820152606490fd5b15620018ad57565b60405162461bcd60e51b815260206004820152601b60248201527f706c6174666f726d20726563697069656e7420726571756972656400000000006044820152606490fd5b15620018fa57565b60405162461bcd60e51b81526020600482015260156024820152741b1c081c9958da5c1a595b9d081c995c5d5a5c9959605a1b6044820152606490fd5b600554801562001a3e576002546001600160a01b03919082166200195d811515620018a5565b60008080809481945af1903d1562001a37573d906001600160401b03821162001a2357604051916200199a601f8201601f19166020018462001709565b825260203d92013e5b15620019de57600254166005546040519081527f4cef2d27cdf43d743c3c66401182e93989938e77d1be10f3ab9e6afdf799f83960203392a3565b60405162461bcd60e51b815260206004820152601a60248201527f6c61756e636820666565207472616e73666572206661696c65640000000000006044820152606490fd5b634e487b7160e01b81526041600452602490fd5b50620019a3565b50565b908060209392818452848401376000828201840152601f01601f1916010190565b908160209103126200059a575180151581036200059a579056fe60e0346200019a57601f6200224238819003918201601f19168301916001600160401b038311848410176200019f5780849260409485528339810103126200019a576200005a60206200005283620001b5565b9201620001b5565b906001600160a01b038082161562000164578216156200012e5760a05260c052336080526040516120779081620001cb8239608051818181610642015281816106e9015281816108f301528181610b1c015261111d015260a0518181816101a3015281816103440152818161095c01528181610d58015281816118f20152818161194e01528181611a8c01528181611b6a0152611d7c015260c0518181816103bf01528181610cb001528181611225015281816119b401528181611a1301528181611aba01528181611b920152611ca30152f35b60405162461bcd60e51b815260206004820152600e60248201526d1c5d5bdd19481c995c5d5a5c995960921b6044820152606490fd5b60405162461bcd60e51b815260206004820152600e60248201526d1d1bdad95b881c995c5d5a5c995960921b6044820152606490fd5b600080fd5b634e487b7160e01b600052604160045260246000fd5b51906001600160a01b03821682036200019a5756fe608060408181526004918236101561001657600080fd5b600092833560e01c9182630758d924146112a457508163158ef93e1461127d5781631ad15bbc14611254578163217a4b701461121057816324a9d853146111f15781632760eca1146111d45781632a2c6972146110ee578163334041a6146110c7578163343ee3b7146110a8578163398482d8146110845781634329742d14610fd3578163452e68dd14610faa5781634690484014610f825781634beb394c14610f6357816352b86d2b146101f4578163649249d314610f445781636818735c14610be85781637f544e4914610bc95781638c575aa314610aba57816395564837146108cb5781639da771f4146105ef578163a64190c41461089d578163a8cec45f14610691578163aca6b65a14610671578163c45a01551461062d578163cbcb31711461060e578163d62ccb3f146105ef578163d79875eb1461025a578163e1a452181461023d578163e7c2b77214610216578163f5596626146101f457508063f95a02d0146101d65763fc0c546a1461019057600080fd5b346101d257816003193601126101d257517f00000000000000000000000000000000000000000000000000000000000000006001600160a01b03168152602090f35b5080fd5b50346101d257816003193601126101d2576020906006549051908152f35b90503461021257826003193601126102125760209250549051908152f35b8280fd5b5050346101d257816003193601126101d25760209060ff60085460b01c1690519015158152f35b5050346101d257816003193601126101d257602090516127108152f35b919050346102125761026b366112e4565b926008549161028060ff8460b81c1615611474565b60ff60b81b19928316600160b81b1760088190556102b49060ff906102aa60a882901c83166114ad565b60b01c161561159b565b6102bf8115156117e8565b6102c881611ff1565b956102d48715156115d3565b60025487116105ac576127106102ec600154896112fa565b04906103046102fb838a61152b565b97881015611615565b85516323b872dd60e01b8152338186019081523060208281019190915260408201869052996001600160a01b03969290918b90829081906060010381878b7f0000000000000000000000000000000000000000000000000000000000000000165af19081156105a2579161038761039e928c95948e8892610585575b5050611722565b610393876003546113fa565b60035560025461152b565b600255875163a9059cbb60e01b8082523383830190815260208101949094527f000000000000000000000000000000000000000000000000000000000000000088169790939091908c90829081906040010381888c5af190811561057b578c93929161041191879161055e575b5061169c565b856104b4575b50505050506104a47f979d7dfe5ba2269a5f9d4eb1050fb4e24587c61b13db43d174af3c3171added69186517f846c37eef631e0943682d87352ec117c20008eb7f425c9b85ac011a6d4774cc0339180610484858d8a846040919493926060820195825260208201520152565b0390a2865193845260208401889052604084015233929081906060820190565b0390a36008541660085551908152f35b84548a51948552166001600160a01b03169083019081526020810185905282908190604001038185895af1918215610553576104a4927f979d7dfe5ba2269a5f9d4eb1050fb4e24587c61b13db43d174af3c3171added6949261051d9291610526575b506116e0565b91883880610417565b61054691508b3d8d1161054c575b61053e818361164c565b810190611684565b38610517565b503d610534565b8751903d90823e3d90fd5b6105759150853d871161054c5761053e818361164c565b3861040b565b8a513d87823e3d90fd5b61059b9250803d1061054c5761053e818361164c565b388e610380565b89513d86823e3d90fd5b845162461bcd60e51b8152602081850152601a60248201527f696e73756666696369656e742071756f746520726573657276650000000000006044820152606490fd5b5050346101d257816003193601126101d2576020906002549051908152f35b5050346101d257816003193601126101d2576020906003549051908152f35b5050346101d257816003193601126101d257517f00000000000000000000000000000000000000000000000000000000000000006001600160a01b03168152602090f35b5050346101d257816003193601126101d2576020905164e8d4a510008152f35b919050346102125760e0366003190112610212576106ad6112c9565b916001600160a01b039160a43583811692608435916064359160443591602435908790036108995760c4359780891680990361089557610710817f0000000000000000000000000000000000000000000000000000000000000000163314611384565b6008549960ff8b60a01c1661085c57169586156108215761073561012c8311156113bf565b83156107e65784156107ab575061074d851515611766565b8661079b575b6bffffffffffffffffffffffff60a01b95868b5416178a55600155556005556006556007541617600755600160a01b916affffffffffffffffffffff60a81b16171760085580f35b6107a68815156117a4565b610753565b5162461bcd60e51b815260208184015260166024820152751d9a5c9d1d585b081d1bdad95b881c995c5d5a5c995960521b6044820152606490fd5b5162461bcd60e51b815260208184015260166024820152751d9a5c9d1d585b081c5d5bdd19481c995c5d5a5c995960521b6044820152606490fd5b5162461bcd60e51b81526020818401526016602482015275199959481c9958da5c1a595b9d081c995c5d5a5c995960521b6044820152606490fd5b875162461bcd60e51b81526020818601526013602482015272185b1c9958591e481a5b9a5d1a585b1a5e9959606a1b6044820152606490fd5b8a80fd5b8980fd5b905082346108c85760203660031901126108c857506108bc903561182c565b82519182526020820152f35b80fd5b839150346101d25760209081600319360112610212578035906001600160a01b039061091a337f0000000000000000000000000000000000000000000000000000000000000000841614611384565b6008549160ff8360a81c16610a865760ff8360a01c1615610a5157846024916109448615156117e8565b88516370a0823160e01b8152308582015292839182907f0000000000000000000000000000000000000000000000000000000000000000165afa908115610a47579084918791610a12575b50106109d9575060ff60a81b1916600160a81b176008556003819055925192835290917fa71ed34ff06af8d6865a8f541aae52d72fa89f0e5ee15f01d48fa6c62c8569149190a180f35b855162461bcd60e51b81529081018490526013602482015272696e73756666696369656e7420746f6b656e7360681b6044820152606490fd5b809250868092503d8311610a40575b610a2b818361164c565b81010312610a3c578390518861098f565b8580fd5b503d610a21565b87513d88823e3d90fd5b865162461bcd60e51b8152808301869052600f60248201526e1b9bdd081a5b9a5d1a585b1a5e9959608a1b6044820152606490fd5b865162461bcd60e51b8152808301869052600e60248201526d185b1c9958591e481cd95959195960921b6044820152606490fd5b5050346101d25760603660031901126101d257610ad56112c9565b602435906001600160a01b0380831690818403610a3c577fbcdc4bff84f936019028a7bcbef6b449550d6334606377b822720e57e94276c494610bb39260443592610b43817f0000000000000000000000000000000000000000000000000000000000000000163314611384565b60085490610b5760ff8360b01c16156114eb565b610b62851515611766565b86169081610bb9575b600780546001600160a01b0319908116909317905516176008556006829055516001600160a01b03938416815292909316602083015260408201929092529081906060820190565b0390a180f35b610bc48315156117a4565b610b6b565b5050346101d257816003193601126101d257602090600a549051908152f35b8383346101d257610bf8366112e4565b9260085491610c0d60ff8460b81c1615611474565b60ff60b81b19928316600160b81b176008819055610c379060ff906102aa60a882901c83166114ad565b8015610f1057612710610c4c600154836112fa565b04610c57818361152b565b92610c78610c6485611f6a565b97610c708915156115d3565b881015611615565b6003548711610ed45785516323b872dd60e01b8152338982019081523060208083019190915260408201869052996001600160a01b037f00000000000000000000000000000000000000000000000000000000000000008116979390928c90829081906060010381888c5af190811561057b5791610d008d94928d948891610eb7575061169c565b86610e38575b610d15610d54956002546113fa565b600255610d248360035461152b565b6003558a5163a9059cbb60e01b815233918101918252602082019390935291938492839187918391604090910190565b03927f0000000000000000000000000000000000000000000000000000000000000000165af19182156105535788927fef15014c0b5775df7c57e26f3ddd7a80b0c875a3b685fd3b7121b5a6bf5bb3ff9492610db69291610e1b575b50611722565b8651848152602081018290526040810183905233907fbeae048c6d270d9469f86cf6e8fedda3c60ad770f16c24c9fc131c8e9a09101d90606090a28651938452602084015260408301523391606090a3610e0e611fc6565b6008541660085551908152f35b610e3291508b3d8d1161054c5761053e818361164c565b8b610db0565b85548b5163a9059cbb60e01b81529083166001600160a01b0316828201908152602081018990529295919491935091829081906040010381888c5af190811561057b5792610d158c93610e988f9694610d5498958a91610ea057506116e0565b955050610d06565b6105469150883d8a1161054c5761053e818361164c565b610ece9150863d881161054c5761053e818361164c565b8f61040b565b855162461bcd60e51b81526020818a01526016602482015275696e73756666696369656e74206c697175696469747960501b6044820152606490fd5b835162461bcd60e51b8152602081880152600e60248201526d1c5d5bdd19481c995c5d5a5c995960921b6044820152606490fd5b5050346101d257816003193601126101d2576020906006549051908152f35b905082346108c85760203660031901126108c857506108bc9035611538565b5050346101d257816003193601126101d257905490516001600160a01b039091168152602090f35b5050346101d257816003193601126101d25760085490516001600160a01b039091168152602090f35b90503461021257826003193601126102125760085491610ff960ff8460b81c1615611474565b60ff60b81b19928316600160b81b17600881905561102d9060ff9061102360a882901c83166114ad565b60b01c16156114eb565b6002546006541161104c57505061104261188a565b6008541660085580f35b906020606492519162461bcd60e51b835282015260126024820152711d185c99d95d081b9bdd081c995858da195960721b6044820152fd5b5050346101d257816003193601126101d2576020906110a1611407565b9051908152f35b5050346101d257816003193601126101d2576020906005549051908152f35b5050346101d257816003193601126101d25760209060ff60085460a81c1690519015158152f35b919050346102125780600319360112610212576111096112c9565b60243591906001600160a01b0390611144337f0000000000000000000000000000000000000000000000000000000000000000841614611384565b1692831561119d57508160209161118061012c7fe42708d93b95810922305119a3271ca42233da9ebe1e1e503f0e887817a32c7a9511156113bf565b85546001600160a01b03191685178655600182905551908152a280f35b6020606492519162461bcd60e51b835282015260126024820152711c9958da5c1a595b9d081c995c5d5a5c995960721b6044820152fd5b5050346101d257816003193601126101d2576020906110a1611343565b5050346101d257816003193601126101d2576020906001549051908152f35b5050346101d257816003193601126101d257517f00000000000000000000000000000000000000000000000000000000000000006001600160a01b03168152602090f35b5050346101d257816003193601126101d25760095490516001600160a01b039091168152602090f35b5050346101d257816003193601126101d25760209060ff60085460a01c1690519015158152f35b8490346101d257816003193601126101d2576007546001600160a01b03168152602090f35b600435906001600160a01b03821682036112df57565b600080fd5b60409060031901126112df576004359060243590565b8181029291811591840414171561130d57565b634e487b7160e01b600052601160045260246000fd5b811561132d570490565b634e487b7160e01b600052601260045260246000fd5b600654801561137e57600254612710918282029180830484149015171561130d5761136d91611323565b90808211611379575090565b905090565b50600090565b1561138b57565b60405162461bcd60e51b815260206004820152600c60248201526b6f6e6c7920666163746f727960a01b6044820152606490fd5b156113c657565b60405162461bcd60e51b815260206004820152600c60248201526b0cccaca40e8dede40d0d2ced60a31b6044820152606490fd5b9190820180921161130d57565b611416600354600554906113fa565b801561137e5761142b600254600454906113fa565b9064e8d4a510009182810292818404148115171561130d576c0c9f2c9cd04674edea400000000291808304670de0b6b3a7640000149015171561130d5761147191611323565b90565b1561147b57565b60405162461bcd60e51b815260206004820152600a6024820152697265656e7472616e637960b01b6044820152606490fd5b156114b457565b60405162461bcd60e51b815260206004820152600f60248201526e1c1bdbdb081b9bdd081cd959591959608a1b6044820152606490fd5b156114f257565b60405162461bcd60e51b8152602060048201526011602482015270185b1c9958591e4819dc98591d585d1959607a1b6044820152606490fd5b9190820391821161130d57565b60085460ff8160a81c161590811561158d575b508015611585575b61157c5761157961157461271061156c600154856112fa565b04809361152b565b611f6a565b91565b50600090600090565b508015611553565b60ff915060b01c163861154b565b156115a257565b60405162461bcd60e51b815260206004820152600960248201526819dc98591d585d195960ba1b6044820152606490fd5b156115da57565b60405162461bcd60e51b81526020600482015260136024820152721a5b9cdd59999a58da595b9d081bdd5d1c1d5d606a1b6044820152606490fd5b1561161c57565b60405162461bcd60e51b8152602060048201526008602482015267736c69707061676560c01b6044820152606490fd5b90601f8019910116810190811067ffffffffffffffff82111761166e57604052565b634e487b7160e01b600052604160045260246000fd5b908160209103126112df575180151581036112df5790565b156116a357565b60405162461bcd60e51b81526020600482015260156024820152741c5d5bdd19481d1c985b9cd9995c8819985a5b1959605a1b6044820152606490fd5b156116e757565b60405162461bcd60e51b8152602060048201526013602482015272199959481d1c985b9cd9995c8819985a5b1959606a1b6044820152606490fd5b1561172957565b60405162461bcd60e51b81526020600482015260156024820152741d1bdad95b881d1c985b9cd9995c8819985a5b1959605a1b6044820152606490fd5b1561176d57565b60405162461bcd60e51b815260206004820152600f60248201526e1d185c99d95d081c995c5d5a5c9959608a1b6044820152606490fd5b156117ab57565b60405162461bcd60e51b81526020600482015260156024820152741b1c081c9958da5c1a595b9d081c995c5d5a5c9959605a1b6044820152606490fd5b156117ef57565b60405162461bcd60e51b81526020600482015260156024820152741d1bdad95b88185b5bdd5b9d081c995c5d5a5c9959605a1b6044820152606490fd5b60085460ff8160a81c161590811561187c575b508015611874575b61157c5761185490611ff1565b801561157c5761157961271061186c600154846112fa565b04809261152b565b508015611847565b60ff915060b01c163861183f565b6007546001600160a01b03168015611f3057600160b01b60ff60b01b19600854161760085542600a55600354600254600060035560006002556040519263095ea7b360e01b908185526004850152600060248501526044936020818681600060018060a01b037f0000000000000000000000000000000000000000000000000000000000000000165af18015611d4b57611f11575b506007546040518281526001600160a01b039091166004820152602481018490526020818060448101038160007f00000000000000000000000000000000000000000000000000000000000000006001600160a01b03165af18015611d4b57611ef2575b506007546040518281526001600160a01b0391821660048201526000602482018190529092916020918491889183917f0000000000000000000000000000000000000000000000000000000000000000165af1908115611d4b578392602092611ed5575b506007546040519182526001600160a01b031660048201526024810192909252818060448101038160007f00000000000000000000000000000000000000000000000000000000000000006001600160a01b03165af18015611d4b57611eb6575b506007546008546001600160a01b0391821694911642610e10810190811061130d576101046060926000604051988994859362e8e33760e81b855260018060a01b037f000000000000000000000000000000000000000000000000000000000000000016600486015260018060a01b037f00000000000000000000000000000000000000000000000000000000000000001660248601528a898601528960648601528360848601528360a486015260c485015260e48401525af1918215611d4b57600093600095600094611e70575b5060075460405163c45a015560e01b815290602090829060049082906001600160a01b03165afa908115611d4b578491602091600091611e53575b5060405163e6a4390560e01b81526001600160a01b037f0000000000000000000000000000000000000000000000000000000000000000811660048301527f0000000000000000000000000000000000000000000000000000000000000000811660248301529093849290918391165afa908115611d4b57600091611e24575b5060018060a01b03166bffffffffffffffffffffffff60a01b6009541617600955848111611d57575b50848111611c50575b50507f71aa8c3702dbbc54247a4e6446450e64a46250dd72707a247ddb01d72eaef4459160809160018060a01b03600954169460405192835260208301526040820152426060820152a2565b600054611c9d916020916001600160a01b031690611c6f90889061152b565b60405163a9059cbb60e01b81526001600160a01b039092166004830152602482015291829081906044820190565b038160007f00000000000000000000000000000000000000000000000000000000000000006001600160a01b03165af1908115611d4b57600091611d2c575b5015611ce85780611c04565b6064907f71756f74652064757374207472616e73666572206661696c65640000000000006040519162461bcd60e51b835260206004840152601a6024840152820152fd5b611d45915060203d60201161054c5761053e818361164c565b38611cdc565b6040513d6000823e3d90fd5b600054611d76916020916001600160a01b031690611c6f90889061152b565b038160007f00000000000000000000000000000000000000000000000000000000000000006001600160a01b03165af1908115611d4b57600091611e05575b5015611dc15738611bfb565b60405162461bcd60e51b815260206004820152601a60248201527f746f6b656e2064757374207472616e73666572206661696c656400000000000081840152606490fd5b611e1e915060203d60201161054c5761053e818361164c565b38611db5565b611e46915060203d602011611e4c575b611e3e818361164c565b810190612022565b38611bd2565b503d611e34565b611e6a9150823d8411611e4c57611e3e818361164c565b38611b52565b9450925093506060833d606011611eae575b81611e8f6060938361164c565b810103126112df57825193604060208501519401519493949238611b17565b3d9150611e82565b611ece9060203d60201161054c5761053e818361164c565b5038611a48565b611eeb90833d851161054c5761053e818361164c565b50386119e7565b611f0a9060203d60201161054c5761053e818361164c565b5038611983565b611f299060203d60201161054c5761053e818361164c565b503861191f565b60405162461bcd60e51b815260206004820152601260248201527119195e081c9bdd5d195c881b9bdd081cd95d60721b6044820152606490fd5b801561137e57611f7f600254600454906113fa565b90611fad60035492611fa7611f96600554866113fa565b93611fa185846112fa565b926113fa565b90611323565b80821115611fbe5761136d9161152b565b505050600090565b60ff60085460b01c168015611fe4575b611fe257611fe261188a565b565b5060025460065411611fd6565b60025490611fad612004600454846113fa565b91611fa7612017600354600554906113fa565b91611fa183866112fa565b908160209103126112df57516001600160a01b03811681036112df579056fea26469706673582212200b01d6da30d4ba38d175ad52e96d41a1e84e2f7bdd4b29fb4b59f80142f1c3a964736f6c6343000818003360406101408152346200060d5762001808803803806200001f8162000612565b92833981019160e0828403126200060d5781516001600160401b03908181116200060d57846200005191850162000638565b9360209081850151908382116200060d576200006f91860162000638565b9083850151946200008360608201620006aa565b6200009160808301620006aa565b9060c0620000a260a08501620006aa565b93015198805115620005d957855115620005a35788156200056d576001600160a01b0382811697908815620005365780851615620004ff57851615620004c7576103e88b116200048e57815181811162000478576000978854916001948584811c941680156200046d575b8a85101462000459578190601f9485811162000406575b508a90858311600114620003a1578c9262000395575b5050600019600383901b1c191690851b1789555b8051928311620003815783548481811c9116801562000376575b898210146200036257908183859493116200030d575b5088918311600114620002a95789926200029d575b5050600019600383901b1c191690821b1790555b8760025560805260a05260c0528560e052610fa080870290878204148715171562000289576127109004946101209580875287039687116200028957907fddf252ad1be2c89b69c2b068fc378daa952ba7f163c4a11628f55a4df523b3ef916101009788528484526006825280868520558551908152a351906111489283620006c084396080518381816102430152818161030a0152610366015260a05183818161077d0152610c8d015260c051838181610198015261087a015260e05183818161064f0152610ec8015251828181610aec0152610f0601525181610a4e0152f35b634e487b7160e01b83526011600452602483fd5b01519050388062000193565b848a52888a208594509190601f1984168b5b8b828210620002f65750508411620002dc575b505050811b019055620001a7565b015160001960f88460031b161c19169055388080620002ce565b8385015186558897909501949384019301620002bb565b90919250848a52888a208380860160051c8201928b871062000358575b91869588929594930160051c01915b828110620003495750506200017e565b8c815586955087910162000339565b925081926200032a565b634e487b7160e01b8a52602260045260248afd5b90607f169062000168565b634e487b7160e01b89526041600452602489fd5b0151905038806200013a565b8c80528b8d208894509190601f1984168e8e5b828210620003ee5750508411620003d4575b505050811b0189556200014e565b015160001960f88460031b161c19169055388080620003c6565b8385015186558b979095019493840193018e620003b4565b9091508b80528a8c208580850160051c8201928d86106200044f575b918991869594930160051c01915b8281106200044057505062000124565b8e815585945089910162000430565b9250819262000422565b634e487b7160e01b8b52602260045260248bfd5b93607f16936200010d565b634e487b7160e01b600052604160045260246000fd5b885162461bcd60e51b81526004810187905260126024820152710e8e4c2c8ca40cccaca40e8dede40d0d2ced60731b6044820152606490fd5b885162461bcd60e51b81526004810187905260116024820152701c1b185d199bdc9b481c995c5d5a5c9959607a1b6044820152606490fd5b895162461bcd60e51b815260048101889052601060248201526f18dc99585d1bdc881c995c5d5a5c995960821b6044820152606490fd5b895162461bcd60e51b815260048101889052601060248201526f199858dd1bdc9e481c995c5d5a5c995960821b6044820152606490fd5b875162461bcd60e51b815260048101869052600f60248201526e1cdd5c1c1b1e481c995c5d5a5c9959608a1b6044820152606490fd5b875162461bcd60e51b815260048101869052600f60248201526e1cde5b589bdb081c995c5d5a5c9959608a1b6044820152606490fd5b875162461bcd60e51b815260048101869052600d60248201526c1b985b59481c995c5d5a5c9959609a1b6044820152606490fd5b600080fd5b6040519190601f01601f191682016001600160401b038111838210176200047857604052565b919080601f840112156200060d5782516001600160401b03811162000478576020906200066e601f8201601f1916830162000612565b928184528282870101116200060d5760005b8181106200069657508260009394955001015290565b858101830151848201840152820162000680565b51906001600160a01b03821682036200060d5756fe608060408181526004918236101561001657600080fd5b600092833560e01c91826302d05d3f14610c7957508163044991d814610c5a57816306fdde0314610b80578163095ea7b314610b0f57816317773ebb14610ad457816318160ddd14610ab55781631e26906b14610a8e5781632044dbb214610a7157816322dcd13e14610a3657816323b872dd1461092f5781632bebf6bf146108655781632f9f103214610849578163313ce5671461082d578163351fee461461076957816342966c681461068f5781635b632360146106725781635faad8c51461063757816370a08231146105ff57816395d89b41146104dc5781639e5f358a146104be578163a9059cbb1461048d578163ae36f5c814610339578163c45a0155146102f5578163dc4b1c0e1461022b57508063dd62ed3e146101e3578063e1a45218146101c7578063eb13554f146101845763f242ab411461015957600080fd5b3461018057816003193601126101805760035490516001600160a01b039091168152602090f35b5080fd5b5034610180578160031936011261018057517f00000000000000000000000000000000000000000000000000000000000000006001600160a01b03168152602090f35b5034610180578160031936011261018057602090516127108152f35b503461018057806003193601126101805780602092610200610d05565b610208610d20565b6001600160a01b0391821683526007865283832091168252845220549051908152f35b9050346102f157826003193601126102f157610271337f00000000000000000000000000000000000000000000000000000000000000006001600160a01b031614610dd6565b6003549160ff8360a01c166102ba57505060ff60a01b1916600160a01b17600355337f60b9765cf08f04b4850cd9a0f8da6fa9e854afd328723cc3f6adea6fb4f18d238280a280f35b906020606492519162461bcd60e51b83528201526011602482015270185b1c9958591e481c995b9bdd5b98d959607a1b6044820152fd5b8280fd5b505034610180578160031936011261018057517f00000000000000000000000000000000000000000000000000000000000000006001600160a01b03168152602090f35b8391503461018057602036600319011261018057610355610d05565b6001600160a01b0390819061038d337f0000000000000000000000000000000000000000000000000000000000000000841614610dd6565b1691821561045a576003549160ff8360a01c166104175782166103e157506001600160a01b03191681176003557fc3cd203585fbc28dcc1692611d2ebc4190312a5b189047df793c69b157aa0d298280a280f35b606490602086519162461bcd60e51b8352820152601060248201526f1c185a5c88185b1c9958591e481cd95d60821b6044820152fd5b855162461bcd60e51b8152602081840152601960248201527f666163746f727920636f6e74726f6c2072656e6f756e636564000000000000006044820152606490fd5b606490602086519162461bcd60e51b8352820152600d60248201526c1c185a5c881c995c5d5a5c9959609a1b6044820152fd5b5050346101805780600319360112610180576020906104b76104ad610d05565b6024359033610e31565b5160018152f35b9050346102f157826003193601126102f15760209250549051908152f35b8383346101805781600319360112610180578051908260018054908160011c90600183169283156105f5575b60209384841081146105e2578388529081156105c65750600114610570575b505050829003601f01601f191682019267ffffffffffffffff84118385101761055d5750829182610559925282610cbc565b0390f35b634e487b7160e01b815260418552602490fd5b600187529192508591837fb10e2d527612073b26eecdfd717e6a320cf44b4afac2b0732d9fcbe2b7fa0cf65b8385106105b25750505050830101858080610527565b80548886018301529301928490820161059c565b60ff1916878501525050151560051b8401019050858080610527565b634e487b7160e01b895260228a52602489fd5b91607f1691610508565b5050346101805760203660031901126101805760209181906001600160a01b03610627610d05565b1681526006845220549051908152f35b505034610180578160031936011261018057602090517f00000000000000000000000000000000000000000000000000000000000000008152f35b505034610180578160031936011261018057602090516103e88152f35b9050346102f157602092836003193601126107665781359182156107315750338152600684526106ce82848320546106c982821015610d98565b610d36565b33825260068552838220556106e582600254610d36565b60025582518281526000805160206110f3833981519152853392a381519081527fcc16f5dbb4873280815c1ee09dbd06736cffcc184412cf7a71a0fdb75d397ca5833392a25160018152f35b835162461bcd60e51b8152908101859052600f60248201526e185b5bdd5b9d081c995c5d5a5c9959608a1b6044820152606490fd5b80fd5b8383346101805781600319360112610180577f00000000000000000000000000000000000000000000000000000000000000006001600160a01b03811690338290036107fb57846107cd91602096549586926107c6841515610d59565b5530611010565b7fd046302bdc39599e60a5981e59227dcd1c643f512f56f2e984390c3ac6eadedb848351858152a251908152f35b825162461bcd60e51b8152602081870152600c60248201526b37b7363c9031b932b0ba37b960a11b6044820152606490fd5b5050346101805781600319360112610180576020905160128152f35b5050346101805781600319360112610180576020905160328152f35b919050346102f157826003193601126102f1577f0000000000000000000000000000000000000000000000000000000000000000916001600160a01b03831690338290036108fc57506108ce6020946005549485916108c5831515610d59565b60055530611010565b7f0636f1043cff5f4c437926a4412416778ddc5e970feb177685b587e81dad9095848351858152a251908152f35b606490602084519162461bcd60e51b8352820152600d60248201526c6f6e6c7920706c6174666f726d60981b6044820152fd5b919050346102f15760603660031901126102f15761094b610d05565b610953610d20565b6044359160018060a01b03811680875260209560078752858820338952875285882054908582106109fe5750948096976104b79686600019820361099c575b5050505050610e31565b6109a591610d36565b83825260078a528282203383528a528282205582815260078952818120338252895220549086519182527f8c5be1e5ebec7d5bd14f71427d1e84f3dd0314c0f7b2291e5b200ac8c7c3b925883393a33885818086610992565b865162461bcd60e51b81529081018890526012602482015271185b1b1bddd85b98d948195e18d95959195960721b6044820152606490fd5b505034610180578160031936011261018057602090517f00000000000000000000000000000000000000000000000000000000000000008152f35b50503461018057816003193601126101805760209051610fa08152f35b50503461018057816003193601126101805760209060ff60035460a01c1690519015158152f35b5050346101805781600319360112610180576020906002549051908152f35b505034610180578160031936011261018057602090517f00000000000000000000000000000000000000000000000000000000000000008152f35b50503461018057806003193601126101805760209181610b2d610d05565b91602435918291338152600787528181209460018060a01b0316948582528752205582519081527f8c5be1e5ebec7d5bd14f71427d1e84f3dd0314c0f7b2291e5b200ac8c7c3b925843392a35160018152f35b83833461018057816003193601126101805780519082835460018160011c9060018316928315610c50575b60209384841081146105e2578388529081156105c65750600114610bfb57505050829003601f01601f191682019267ffffffffffffffff84118385101761055d5750829182610559925282610cbc565b8680529192508591837f290decd9548b62a8d60345a988386fc84ba6bc95484008f6362f93160ef3e5635b838510610c3c5750505050830101858080610527565b805488860183015293019284908201610c26565b91607f1691610bab565b5050346101805781600319360112610180576020906005549051908152f35b8490346101805781600319360112610180577f00000000000000000000000000000000000000000000000000000000000000006001600160a01b03168152602090f35b6020808252825181830181905290939260005b828110610cf157505060409293506000838284010152601f8019910116010190565b818101860151848201604001528501610ccf565b600435906001600160a01b0382168203610d1b57565b600080fd5b602435906001600160a01b0382168203610d1b57565b91908203918211610d4357565b634e487b7160e01b600052601160045260246000fd5b15610d6057565b60405162461bcd60e51b815260206004820152601060248201526f6e6f7468696e6720746f20636c61696d60801b6044820152606490fd5b15610d9f57565b60405162461bcd60e51b815260206004820152600f60248201526e62616c616e636520746f6f206c6f7760881b6044820152606490fd5b15610ddd57565b60405162461bcd60e51b815260206004820152600c60248201526b6f6e6c7920666163746f727960a01b6044820152606490fd5b81810292918115918404141715610d4357565b91908201809211610d4357565b6001600160a01b03808316939192908415610fdc5783169260009184835260209260068452604091610e748383205491610e6d88841015610d98565b87956110b6565b80610fd3575b610ebd575b90610e9a6000805160206110f3833981519152968493610d36565b878252600686528282205587815220610eb4838254610e24565b905551908152a3565b612710888882610eed7f00000000000000000000000000000000000000000000000000000000000000008b610e11565b049283610efe575b50505050610e7f565b8695949397507f0000000000000000000000000000000000000000000000000000000000000000610f2f908b610e11565b0485888a848d610f3f8685610d36565b93610f4991610d36565b9b8560045490610f5891610e24565b6004558360055490610f6991610e24565b600555308a5260068352848a2081815490610f8391610e24565b9055845190815230926000805160206110f383398151915291a381519283528a8301527f93bd139ea85d53c55e02dec709128f827ebd5cb8a4a0d873193711b70b0a15b991a39091888838610ef5565b50851515610e7a565b60405162461bcd60e51b815260206004820152600c60248201526b7a65726f206164647265737360a01b6044820152606490fd5b60018060a01b038091169160009383855260066020526040852054818110611078576000805160206110f38339815191529360209361105184604094610d36565b878952600686528389205516958681522061106d828254610e24565b9055604051908152a3565b60405162461bcd60e51b81526020600482015260166024820152751a5b9cdd59999a58da595b9d08199959481d985d5b1d60521b6044820152606490fd5b6003546001600160a01b039081169182156110e957811682149283156110dd575b50505090565b161490503880806110d7565b5050505060009056feddf252ad1be2c89b69c2b068fc378daa952ba7f163c4a11628f55a4df523b3efa264697066735822122044fcb14b3f7cb8a9286eca6bf592a4f3caf9627e236f36d27101f0273e8f794e64736f6c63430008180033a2646970667358221220dee8bdfe543e95adb5ffb6bf2bc87f97579135d3d7730e537e1317478a59c53c64736f6c63430008180033","opcodes":"PUSH1 0x80 CALLVALUE PUSH3 0x2EC JUMPI PUSH1 0x1F PUSH3 0x5819 CODESIZE DUP2 SWAP1 SUB SWAP2 DUP3 ADD PUSH1 0x1F NOT AND DUP4 ADD SWAP3 SWAP2 SWAP1 PUSH1 0x1 PUSH1 0x1 PUSH1 0x40 SHL SUB DUP5 GT DUP4 DUP6 LT OR PUSH3 0x2F1 JUMPI DUP2 PUSH2 0x120 SWAP3 DUP5 SWAP3 PUSH1 0x40 SWAP7 DUP8 MSTORE DUP4 CODECOPY DUP2 ADD SUB SLT PUSH3 0x2EC JUMPI PUSH3 0x52 DUP2 PUSH3 0x307 JUMP JUMPDEST PUSH1 0x20 SWAP1 PUSH3 0x62 DUP3 DUP5 ADD PUSH3 0x307 JUMP JUMPDEST SWAP2 PUSH3 0x70 DUP6 DUP6 ADD PUSH3 0x307 JUMP JUMPDEST SWAP4 PUSH1 0x60 DUP2 ADD MLOAD PUSH1 0x80 DUP3 ADD MLOAD PUSH1 0xA0 DUP4 ADD MLOAD SWAP1 PUSH1 0xC0 DUP5 ADD MLOAD SWAP3 PUSH3 0x9B PUSH2 0x100 PUSH1 0xE0 DUP8 ADD MLOAD SWAP7 ADD PUSH3 0x307 JUMP JUMPDEST PUSH1 0x1 PUSH1 0x1 PUSH1 0xA0 SHL SUB SWAP8 DUP9 AND SWAP9 SWAP1 SWAP7 SWAP1 DUP10 ISZERO PUSH3 0x2A8 JUMPI DUP9 AND SWAP10 DUP11 ISZERO PUSH3 0x264 JUMPI DUP9 AND SWAP1 DUP2 ISZERO PUSH3 0x230 JUMPI PUSH2 0x12C DUP4 GT PUSH3 0x1FE JUMPI DUP5 ISZERO PUSH3 0x1BB JUMPI DUP6 ISZERO PUSH3 0x178 JUMPI DUP7 ISZERO PUSH3 0x143 JUMPI POP PUSH1 0x1 DUP1 PUSH1 0xA0 SHL SUB NOT SWAP9 CALLER DUP11 PUSH1 0x0 SLOAD AND OR PUSH1 0x0 SSTORE DUP10 PUSH1 0x1 SLOAD AND OR PUSH1 0x1 SSTORE DUP10 DUP10 PUSH1 0x2 SLOAD AND OR PUSH1 0x2 SSTORE DUP9 PUSH1 0x3 SLOAD AND OR PUSH1 0x3 SSTORE PUSH1 0x4 SSTORE PUSH1 0x5 SSTORE PUSH1 0x6 SSTORE PUSH1 0x7 SSTORE PUSH1 0x8 SSTORE AND DUP2 PUSH1 0x9 SLOAD AND OR PUSH1 0x9 SSTORE PUSH1 0xA SLOAD AND OR PUSH1 0xA SSTORE MLOAD PUSH2 0x54FC SWAP1 DUP2 PUSH3 0x31D DUP3 CODECOPY RETURN JUMPDEST PUSH1 0x64 SWAP1 DUP13 MLOAD SWAP1 PUSH3 0x461BCD PUSH1 0xE5 SHL DUP3 MSTORE PUSH1 0x4 DUP3 ADD MSTORE PUSH1 0xF PUSH1 0x24 DUP3 ADD MSTORE PUSH15 0x1D185C99D95D081C995C5D5A5C9959 PUSH1 0x8A SHL PUSH1 0x44 DUP3 ADD MSTORE REVERT JUMPDEST PUSH1 0x64 SWAP1 DUP13 MLOAD SWAP1 PUSH3 0x461BCD PUSH1 0xE5 SHL DUP3 MSTORE PUSH1 0x4 DUP3 ADD MSTORE PUSH1 0x16 PUSH1 0x24 DUP3 ADD MSTORE PUSH32 0x7669727475616C20746F6B656E20726571756972656400000000000000000000 PUSH1 0x44 DUP3 ADD MSTORE REVERT JUMPDEST PUSH1 0x64 SWAP1 DUP13 MLOAD SWAP1 PUSH3 0x461BCD PUSH1 0xE5 SHL DUP3 MSTORE PUSH1 0x4 DUP3 ADD MSTORE PUSH1 0x16 PUSH1 0x24 DUP3 ADD MSTORE PUSH32 0x7669727475616C2071756F746520726571756972656400000000000000000000 PUSH1 0x44 DUP3 ADD MSTORE REVERT JUMPDEST PUSH1 0x64 SWAP1 DUP13 MLOAD SWAP1 PUSH3 0x461BCD PUSH1 0xE5 SHL DUP3 MSTORE PUSH1 0x4 DUP3 ADD MSTORE PUSH1 0xC PUSH1 0x24 DUP3 ADD MSTORE PUSH12 0xCCCACA40E8DEDE40D0D2CED PUSH1 0xA3 SHL PUSH1 0x44 DUP3 ADD MSTORE REVERT JUMPDEST PUSH1 0x64 SWAP1 DUP13 MLOAD SWAP1 PUSH3 0x461BCD PUSH1 0xE5 SHL DUP3 MSTORE PUSH1 0x4 DUP3 ADD MSTORE PUSH1 0xE PUSH1 0x24 DUP3 ADD MSTORE PUSH14 0x1C5D5BDD19481C995C5D5A5C9959 PUSH1 0x92 SHL PUSH1 0x44 DUP3 ADD MSTORE REVERT JUMPDEST DUP12 MLOAD PUSH3 0x461BCD PUSH1 0xE5 SHL DUP2 MSTORE PUSH1 0x4 DUP2 ADD DUP4 SWAP1 MSTORE PUSH1 0x1B PUSH1 0x24 DUP3 ADD MSTORE PUSH32 0x706C6174666F726D20726563697069656E742072657175697265640000000000 PUSH1 0x44 DUP3 ADD MSTORE PUSH1 0x64 SWAP1 REVERT JUMPDEST DUP12 MLOAD PUSH3 0x461BCD PUSH1 0xE5 SHL DUP2 MSTORE PUSH1 0x4 DUP2 ADD DUP4 SWAP1 MSTORE PUSH1 0x16 PUSH1 0x24 DUP3 ADD MSTORE PUSH32 0x66656520726563697069656E7420726571756972656400000000000000000000 PUSH1 0x44 DUP3 ADD MSTORE PUSH1 0x64 SWAP1 REVERT JUMPDEST PUSH1 0x0 DUP1 REVERT JUMPDEST PUSH4 0x4E487B71 PUSH1 0xE0 SHL PUSH1 0x0 MSTORE PUSH1 0x41 PUSH1 0x4 MSTORE PUSH1 0x24 PUSH1 0x0 REVERT JUMPDEST MLOAD SWAP1 PUSH1 0x1 PUSH1 0x1 PUSH1 0xA0 SHL SUB DUP3 AND DUP3 SUB PUSH3 0x2EC JUMPI JUMP INVALID PUSH1 0xE0 DUP1 PUSH1 0x40 MSTORE PUSH1 0x4 CALLDATASIZE LT ISZERO PUSH3 0x1F JUMPI JUMPDEST POP CALLDATASIZE ISZERO PUSH3 0x1D JUMPI PUSH1 0x0 DUP1 REVERT JUMPDEST STOP JUMPDEST PUSH1 0x0 PUSH1 0xA0 MSTORE PUSH1 0xA0 MLOAD CALLDATALOAD PUSH1 0xE0 SHR SWAP1 DUP2 PUSH4 0xB0420BB EQ PUSH3 0x15FB JUMPI POP DUP1 PUSH4 0x1036338C EQ PUSH3 0x91F JUMPI DUP1 PUSH4 0x13ED4AA6 EQ PUSH3 0x8F3 JUMPI DUP1 PUSH4 0x217A4B70 EQ PUSH3 0x8C7 JUMPI DUP1 PUSH4 0x46904840 EQ PUSH3 0x89B JUMPI DUP1 PUSH4 0x4A9DDFDD EQ PUSH3 0x87C JUMPI DUP1 PUSH4 0x52438689 EQ PUSH3 0x85B JUMPI DUP1 PUSH4 0x5930D3CE EQ PUSH3 0x62F JUMPI DUP1 PUSH4 0x83EEB3BB EQ PUSH3 0x60E JUMPI DUP1 PUSH4 0x8DA5CB5B EQ PUSH3 0x5E1 JUMPI DUP1 PUSH4 0x93A8E04D EQ PUSH3 0x5C0 JUMPI DUP1 PUSH4 0x9FF0251F EQ PUSH3 0x59F JUMPI DUP1 PUSH4 0xB82942A5 EQ PUSH3 0x298 JUMPI DUP1 PUSH4 0xBCAE25A4 EQ PUSH3 0x277 JUMPI DUP1 PUSH4 0xD578192C EQ PUSH3 0x24B JUMPI DUP1 PUSH4 0xE1A45218 EQ PUSH3 0x22B JUMPI DUP1 PUSH4 0xEB13554F EQ PUSH3 0x1FF JUMPI DUP1 PUSH4 0xF2FDE38B EQ PUSH3 0x13E JUMPI PUSH4 0xF80E5EC1 EQ PUSH3 0x117 JUMPI CODESIZE PUSH3 0x10 JUMP JUMPDEST CALLVALUE PUSH3 0x138 JUMPI PUSH1 0xA0 MLOAD CALLDATASIZE PUSH1 0x3 NOT ADD SLT PUSH3 0x138 JUMPI PUSH1 0x20 PUSH1 0x6 SLOAD PUSH1 0x40 MLOAD SWAP1 DUP2 MSTORE RETURN JUMPDEST PUSH1 0xA0 MLOAD DUP1 REVERT JUMPDEST CALLVALUE PUSH3 0x138 JUMPI PUSH1 0x20 CALLDATASIZE PUSH1 0x3 NOT ADD SLT PUSH3 0x138 JUMPI PUSH3 0x15B PUSH3 0x1639 JUMP JUMPDEST PUSH1 0xA0 MLOAD SLOAD PUSH1 0x1 PUSH1 0x1 PUSH1 0xA0 SHL SUB DUP1 DUP3 AND SWAP3 PUSH3 0x178 CALLER DUP6 EQ PUSH3 0x186B JUMP JUMPDEST AND SWAP2 DUP3 ISZERO PUSH3 0x1C9 JUMPI DUP3 SWAP1 PUSH32 0x8BE0079C531659141344CD1FD0A4F28419497F9722A3DAAFE3B4186F6B6457E0 PUSH1 0xA0 MLOAD PUSH1 0xA0 MLOAD LOG3 PUSH12 0xFFFFFFFFFFFFFFFFFFFFFFFF PUSH1 0xA0 SHL AND OR PUSH1 0xA0 MLOAD SSTORE PUSH1 0xA0 MLOAD PUSH1 0xA0 MLOAD RETURN JUMPDEST PUSH1 0x40 MLOAD PUSH3 0x461BCD PUSH1 0xE5 SHL DUP2 MSTORE PUSH1 0x20 PUSH1 0x4 DUP3 ADD MSTORE PUSH1 0xE PUSH1 0x24 DUP3 ADD MSTORE PUSH14 0x1BDDDB995C881C995C5D5A5C9959 PUSH1 0x92 SHL PUSH1 0x44 DUP3 ADD MSTORE PUSH1 0x64 SWAP1 REVERT JUMPDEST CALLVALUE PUSH3 0x138 JUMPI PUSH1 0xA0 MLOAD CALLDATASIZE PUSH1 0x3 NOT ADD SLT PUSH3 0x138 JUMPI PUSH1 0x2 SLOAD PUSH1 0x40 MLOAD PUSH1 0x1 PUSH1 0x1 PUSH1 0xA0 SHL SUB SWAP1 SWAP2 AND DUP2 MSTORE PUSH1 0x20 SWAP1 RETURN JUMPDEST CALLVALUE PUSH3 0x138 JUMPI PUSH1 0xA0 MLOAD CALLDATASIZE PUSH1 0x3 NOT ADD SLT PUSH3 0x138 JUMPI PUSH1 0x20 PUSH1 0x40 MLOAD PUSH2 0x2710 DUP2 MSTORE RETURN JUMPDEST CALLVALUE PUSH3 0x138 JUMPI PUSH1 0xA0 MLOAD CALLDATASIZE PUSH1 0x3 NOT ADD SLT PUSH3 0x138 JUMPI PUSH1 0x9 SLOAD PUSH1 0x40 MLOAD PUSH1 0x1 PUSH1 0x1 PUSH1 0xA0 SHL SUB SWAP1 SWAP2 AND DUP2 MSTORE PUSH1 0x20 SWAP1 RETURN JUMPDEST CALLVALUE PUSH3 0x138 JUMPI PUSH1 0xA0 MLOAD CALLDATASIZE PUSH1 0x3 NOT ADD SLT PUSH3 0x138 JUMPI PUSH1 0x20 PUSH1 0x4 SLOAD PUSH1 0x40 MLOAD SWAP1 DUP2 MSTORE RETURN JUMPDEST CALLVALUE PUSH3 0x138 JUMPI PUSH2 0x120 CALLDATASIZE PUSH1 0x3 NOT ADD SLT PUSH3 0x138 JUMPI PUSH3 0x2B6 PUSH3 0x1639 JUMP JUMPDEST PUSH1 0x24 CALLDATALOAD PUSH1 0x1 PUSH1 0x1 PUSH1 0xA0 SHL SUB DUP2 AND DUP2 SUB PUSH3 0x59A JUMPI PUSH1 0x64 SWAP2 PUSH1 0xE4 CALLDATALOAD PUSH1 0x1 PUSH1 0x1 PUSH1 0xA0 SHL SUB DUP2 AND DUP2 SUB PUSH3 0x59A JUMPI PUSH2 0x104 CALLDATALOAD SWAP2 PUSH1 0x1 PUSH1 0x1 PUSH1 0xA0 SHL SUB DUP4 AND DUP4 SUB PUSH3 0x59A JUMPI PUSH3 0x30F PUSH1 0x1 DUP1 PUSH1 0xA0 SHL SUB PUSH1 0xA0 MLOAD SLOAD AND CALLER EQ PUSH3 0x186B JUMP JUMPDEST PUSH1 0x1 PUSH1 0x1 PUSH1 0xA0 SHL SUB AND SWAP3 DUP4 ISZERO PUSH3 0x55D JUMPI PUSH3 0x336 PUSH1 0x1 PUSH1 0x1 PUSH1 0xA0 SHL SUB DUP3 AND ISZERO ISZERO PUSH3 0x18A5 JUMP JUMPDEST PUSH2 0x12C PUSH1 0x44 CALLDATALOAD GT PUSH3 0x52A JUMPI PUSH1 0x84 CALLDATALOAD ISZERO PUSH3 0x4ED JUMPI PUSH1 0xA4 CALLDATALOAD ISZERO PUSH3 0x4B0 JUMPI PUSH1 0xC4 CALLDATALOAD ISZERO PUSH3 0x47A JUMPI PUSH32 0x62DE0C78F593B14F1D09C895CE83A42EA45A7D77A716A05432A53193305B3C5A SWAP5 PUSH2 0x120 SWAP5 SWAP4 SWAP3 SWAP2 PUSH1 0x1 PUSH1 0x1 PUSH1 0xA0 SHL SUB DUP4 AND PUSH3 0x45E JUMPI JUMPDEST PUSH12 0xFFFFFFFFFFFFFFFFFFFFFFFF PUSH1 0xA0 SHL DUP6 DUP2 PUSH1 0x1 SLOAD AND OR PUSH1 0x1 SSTORE PUSH1 0x1 DUP1 PUSH1 0xA0 SHL SUB DUP3 AND DUP2 PUSH1 0x2 SLOAD AND OR PUSH1 0x2 SSTORE PUSH1 0x44 CALLDATALOAD PUSH1 0x4 SSTORE DUP3 CALLDATALOAD PUSH1 0x5 SSTORE PUSH1 0x84 CALLDATALOAD PUSH1 0x6 SSTORE PUSH1 0xA4 CALLDATALOAD PUSH1 0x7 SSTORE PUSH1 0xC4 CALLDATALOAD PUSH1 0x8 SSTORE PUSH1 0x1 DUP1 PUSH1 0xA0 SHL SUB DUP5 AND DUP2 PUSH1 0x9 SLOAD AND OR PUSH1 0x9 SSTORE PUSH1 0x1 DUP1 PUSH1 0xA0 SHL SUB DUP6 AND SWAP1 PUSH1 0xA SLOAD AND OR PUSH1 0xA SSTORE PUSH1 0x40 MLOAD SWAP5 DUP6 MSTORE PUSH1 0x1 DUP1 PUSH1 0xA0 SHL SUB AND PUSH1 0x20 DUP6 ADD MSTORE PUSH1 0x44 CALLDATALOAD PUSH1 0x40 DUP6 ADD MSTORE CALLDATALOAD PUSH1 0x60 DUP5 ADD MSTORE PUSH1 0x84 CALLDATALOAD PUSH1 0x80 DUP5 ADD MSTORE PUSH1 0xA4 CALLDATALOAD PUSH1 0xA0 DUP5 ADD MSTORE PUSH1 0xC4 CALLDATALOAD PUSH1 0xC0 DUP5 ADD MSTORE PUSH1 0x1 DUP1 PUSH1 0xA0 SHL SUB AND PUSH1 0xE0 DUP4 ADD MSTORE PUSH1 0x1 DUP1 PUSH1 0xA0 SHL SUB AND PUSH2 0x100 DUP3 ADD MSTORE LOG1 PUSH1 0xA0 MLOAD DUP1 RETURN JUMPDEST PUSH3 0x474 PUSH1 0x1 PUSH1 0x1 PUSH1 0xA0 SHL SUB DUP6 AND ISZERO ISZERO PUSH3 0x18F2 JUMP JUMPDEST PUSH3 0x396 JUMP JUMPDEST PUSH1 0x40 MLOAD PUSH3 0x461BCD PUSH1 0xE5 SHL DUP2 MSTORE PUSH1 0x20 PUSH1 0x4 DUP3 ADD MSTORE PUSH1 0xF PUSH1 0x24 DUP3 ADD MSTORE PUSH15 0x1D185C99D95D081C995C5D5A5C9959 PUSH1 0x8A SHL PUSH1 0x44 DUP3 ADD MSTORE DUP6 SWAP1 REVERT JUMPDEST PUSH1 0x40 MLOAD PUSH3 0x461BCD PUSH1 0xE5 SHL DUP2 MSTORE PUSH1 0x20 PUSH1 0x4 DUP3 ADD MSTORE PUSH1 0x16 PUSH1 0x24 DUP3 ADD MSTORE PUSH22 0x1D9A5C9D1D585B081D1BDAD95B881C995C5D5A5C9959 PUSH1 0x52 SHL PUSH1 0x44 DUP3 ADD MSTORE DUP6 SWAP1 REVERT JUMPDEST PUSH1 0x40 MLOAD PUSH3 0x461BCD PUSH1 0xE5 SHL DUP2 MSTORE PUSH1 0x20 PUSH1 0x4 DUP3 ADD MSTORE PUSH1 0x16 PUSH1 0x24 DUP3 ADD MSTORE PUSH22 0x1D9A5C9D1D585B081C5D5BDD19481C995C5D5A5C9959 PUSH1 0x52 SHL PUSH1 0x44 DUP3 ADD MSTORE DUP6 SWAP1 REVERT JUMPDEST PUSH1 0x40 MLOAD PUSH3 0x461BCD PUSH1 0xE5 SHL DUP2 MSTORE PUSH1 0x20 PUSH1 0x4 DUP3 ADD MSTORE PUSH1 0xC PUSH1 0x24 DUP3 ADD MSTORE PUSH12 0xCCCACA40E8DEDE40D0D2CED PUSH1 0xA3 SHL PUSH1 0x44 DUP3 ADD MSTORE DUP6 SWAP1 REVERT JUMPDEST PUSH1 0x40 MLOAD PUSH3 0x461BCD PUSH1 0xE5 SHL DUP2 MSTORE PUSH1 0x20 PUSH1 0x4 DUP3 ADD MSTORE PUSH1 0x16 PUSH1 0x24 DUP3 ADD MSTORE PUSH22 0x199959481C9958DA5C1A595B9D081C995C5D5A5C9959 PUSH1 0x52 SHL PUSH1 0x44 DUP3 ADD MSTORE DUP6 SWAP1 REVERT JUMPDEST PUSH1 0x0 DUP1 REVERT JUMPDEST CALLVALUE PUSH3 0x138 JUMPI PUSH1 0xA0 MLOAD CALLDATASIZE PUSH1 0x3 NOT ADD SLT PUSH3 0x138 JUMPI PUSH1 0x20 PUSH1 0xB SLOAD PUSH1 0x40 MLOAD SWAP1 DUP2 MSTORE RETURN JUMPDEST CALLVALUE PUSH3 0x138 JUMPI PUSH1 0xA0 MLOAD CALLDATASIZE PUSH1 0x3 NOT ADD SLT PUSH3 0x138 JUMPI PUSH1 0x20 PUSH1 0x7 SLOAD PUSH1 0x40 MLOAD SWAP1 DUP2 MSTORE RETURN JUMPDEST CALLVALUE PUSH3 0x138 JUMPI PUSH1 0xA0 MLOAD CALLDATASIZE PUSH1 0x3 NOT ADD SLT PUSH3 0x138 JUMPI PUSH1 0xA0 MLOAD SLOAD PUSH1 0x40 MLOAD PUSH1 0x1 PUSH1 0x1 PUSH1 0xA0 SHL SUB SWAP1 SWAP2 AND DUP2 MSTORE PUSH1 0x20 SWAP1 RETURN JUMPDEST CALLVALUE PUSH3 0x138 JUMPI PUSH1 0xA0 MLOAD CALLDATASIZE PUSH1 0x3 NOT ADD SLT PUSH3 0x138 JUMPI PUSH1 0x20 PUSH1 0x5 SLOAD PUSH1 0x40 MLOAD SWAP1 DUP2 MSTORE RETURN JUMPDEST CALLVALUE PUSH3 0x138 JUMPI PUSH1 0x20 CALLDATASIZE PUSH1 0x3 NOT ADD SLT PUSH3 0x138 JUMPI PUSH1 0x4 CALLDATALOAD PUSH1 0x40 MLOAD PUSH3 0x653 DUP2 PUSH3 0x16EC JUMP JUMPDEST PUSH1 0xA0 MLOAD DUP2 MSTORE PUSH1 0xA0 MLOAD PUSH1 0x20 DUP3 ADD MSTORE PUSH1 0xA0 MLOAD PUSH1 0x40 DUP3 ADD MSTORE PUSH1 0x60 DUP1 DUP3 ADD MSTORE PUSH1 0x60 PUSH1 0x80 DUP3 ADD MSTORE PUSH1 0x60 PUSH1 0xA0 DUP3 ADD MSTORE PUSH1 0x60 PUSH1 0xC0 DUP3 ADD MSTORE PUSH1 0xA0 MLOAD PUSH1 0xE0 DUP3 ADD MSTORE PUSH1 0xA0 MLOAD PUSH2 0x100 DUP3 ADD MSTORE PUSH2 0x120 PUSH1 0xA0 MLOAD SWAP2 ADD MSTORE PUSH1 0xB SLOAD DUP2 LT ISZERO PUSH3 0x823 JUMPI PUSH3 0x6B3 SWAP1 PUSH3 0x172B JUMP JUMPDEST POP PUSH1 0x9 PUSH1 0x40 MLOAD SWAP2 PUSH3 0x6C5 DUP4 PUSH3 0x16EC JUMP JUMPDEST DUP1 SLOAD PUSH1 0x1 PUSH1 0x1 PUSH1 0xA0 SHL SUB SWAP1 DUP2 AND DUP5 MSTORE PUSH1 0x1 DUP3 ADD SLOAD DUP2 AND PUSH1 0x20 DUP6 ADD MSTORE PUSH1 0x2 DUP3 ADD SLOAD AND PUSH1 0x40 DUP5 ADD MSTORE PUSH3 0x6F9 PUSH1 0x3 DUP3 ADD PUSH3 0x17BA JUMP JUMPDEST PUSH1 0x60 DUP5 ADD MSTORE PUSH3 0x70C PUSH1 0x4 DUP3 ADD PUSH3 0x17BA JUMP JUMPDEST PUSH1 0x80 DUP5 ADD MSTORE PUSH3 0x71F PUSH1 0x5 DUP3 ADD PUSH3 0x17BA JUMP JUMPDEST PUSH1 0xA0 DUP5 ADD MSTORE PUSH3 0x732 PUSH1 0x6 DUP3 ADD PUSH3 0x17BA JUMP JUMPDEST PUSH1 0xC0 DUP5 ADD MSTORE PUSH1 0x7 DUP2 ADD SLOAD PUSH1 0xE0 DUP5 ADD MSTORE PUSH1 0x8 DUP2 ADD SLOAD PUSH2 0x100 DUP5 ADD MSTORE ADD SLOAD PUSH2 0x120 DUP3 ADD MSTORE PUSH1 0x40 MLOAD DUP1 SWAP2 PUSH1 0x20 DUP3 MSTORE PUSH1 0x1 DUP1 PUSH1 0xA0 SHL SUB DUP2 MLOAD AND PUSH1 0x20 DUP4 ADD MSTORE PUSH1 0x1 DUP1 PUSH1 0xA0 SHL SUB PUSH1 0x20 DUP3 ADD MLOAD AND PUSH1 0x40 DUP4 ADD MSTORE PUSH1 0x1 DUP1 PUSH1 0xA0 SHL SUB PUSH1 0x40 DUP3 ADD MLOAD AND PUSH1 0x60 DUP4 ADD MSTORE PUSH1 0x60 DUP2 ADD MLOAD PUSH2 0x120 PUSH3 0x803 PUSH3 0x7B6 PUSH2 0x140 SWAP4 DUP5 PUSH1 0x80 DUP9 ADD MSTORE PUSH2 0x160 DUP8 ADD SWAP1 PUSH3 0x1680 JUMP JUMPDEST PUSH3 0x7ED PUSH3 0x7D8 PUSH1 0x80 DUP8 ADD MLOAD SWAP3 PUSH1 0x1F NOT SWAP4 DUP5 DUP11 DUP4 SUB ADD PUSH1 0xA0 DUP12 ADD MSTORE PUSH3 0x1680 JUMP JUMPDEST PUSH1 0xA0 DUP8 ADD MLOAD DUP4 DUP10 DUP4 SUB ADD PUSH1 0xC0 DUP11 ADD MSTORE PUSH3 0x1680 JUMP JUMPDEST SWAP1 PUSH1 0xC0 DUP7 ADD MLOAD SWAP1 DUP8 DUP4 SUB ADD PUSH1 0xE0 DUP9 ADD MSTORE PUSH3 0x1680 JUMP JUMPDEST SWAP3 PUSH1 0xE0 DUP2 ADD MLOAD PUSH2 0x100 DUP7 ADD MSTORE PUSH2 0x100 DUP2 ADD MLOAD DUP3 DUP7 ADD MSTORE ADD MLOAD SWAP1 DUP4 ADD MSTORE SUB SWAP1 RETURN JUMPDEST PUSH1 0x40 MLOAD PUSH3 0x461BCD PUSH1 0xE5 SHL DUP2 MSTORE PUSH1 0x20 PUSH1 0x4 DUP3 ADD MSTORE PUSH1 0x10 PUSH1 0x24 DUP3 ADD MSTORE PUSH16 0x1B185D5B98DA081B9BDD08199BDD5B99 PUSH1 0x82 SHL PUSH1 0x44 DUP3 ADD MSTORE PUSH1 0x64 SWAP1 REVERT JUMPDEST CALLVALUE PUSH3 0x138 JUMPI PUSH1 0xA0 MLOAD CALLDATASIZE PUSH1 0x3 NOT ADD SLT PUSH3 0x138 JUMPI PUSH1 0x20 PUSH1 0x8 SLOAD PUSH1 0x40 MLOAD SWAP1 DUP2 MSTORE RETURN JUMPDEST CALLVALUE PUSH3 0x138 JUMPI PUSH1 0xA0 MLOAD CALLDATASIZE PUSH1 0x3 NOT ADD SLT PUSH3 0x138 JUMPI PUSH1 0x20 PUSH1 0x40 MLOAD PUSH1 0x32 DUP2 MSTORE RETURN JUMPDEST CALLVALUE PUSH3 0x138 JUMPI PUSH1 0xA0 MLOAD CALLDATASIZE PUSH1 0x3 NOT ADD SLT PUSH3 0x138 JUMPI PUSH1 0x1 SLOAD PUSH1 0x40 MLOAD PUSH1 0x1 PUSH1 0x1 PUSH1 0xA0 SHL SUB SWAP1 SWAP2 AND DUP2 MSTORE PUSH1 0x20 SWAP1 RETURN JUMPDEST CALLVALUE PUSH3 0x138 JUMPI PUSH1 0xA0 MLOAD CALLDATASIZE PUSH1 0x3 NOT ADD SLT PUSH3 0x138 JUMPI PUSH1 0x3 SLOAD PUSH1 0x40 MLOAD PUSH1 0x1 PUSH1 0x1 PUSH1 0xA0 SHL SUB SWAP1 SWAP2 AND DUP2 MSTORE PUSH1 0x20 SWAP1 RETURN JUMPDEST CALLVALUE PUSH3 0x138 JUMPI PUSH1 0xA0 MLOAD CALLDATASIZE PUSH1 0x3 NOT ADD SLT PUSH3 0x138 JUMPI PUSH1 0xA SLOAD PUSH1 0x40 MLOAD PUSH1 0x1 PUSH1 0x1 PUSH1 0xA0 SHL SUB SWAP1 SWAP2 AND DUP2 MSTORE PUSH1 0x20 SWAP1 RETURN JUMPDEST PUSH1 0xC0 CALLDATASIZE PUSH1 0x3 NOT ADD SLT PUSH3 0x138 JUMPI PUSH1 0x4 CALLDATALOAD PUSH1 0x1 PUSH1 0x1 PUSH1 0x40 SHL SUB DUP2 GT PUSH3 0x138 JUMPI PUSH3 0x94E SWAP1 CALLDATASIZE SWAP1 PUSH1 0x4 ADD PUSH3 0x1650 JUMP JUMPDEST SWAP1 PUSH1 0x24 CALLDATALOAD PUSH1 0x1 PUSH1 0x1 PUSH1 0x40 SHL SUB DUP2 GT PUSH3 0x138 JUMPI PUSH3 0x971 SWAP1 CALLDATASIZE SWAP1 PUSH1 0x4 ADD PUSH3 0x1650 JUMP JUMPDEST SWAP3 SWAP1 SWAP2 PUSH1 0x44 CALLDATALOAD PUSH1 0x1 PUSH1 0x1 PUSH1 0x40 SHL SUB DUP2 GT PUSH3 0x138 JUMPI PUSH3 0x996 SWAP1 CALLDATASIZE SWAP1 PUSH1 0x4 ADD PUSH3 0x1650 JUMP JUMPDEST PUSH1 0x64 CALLDATALOAD PUSH1 0x1 PUSH1 0x1 PUSH1 0x40 SHL SUB DUP2 GT PUSH3 0x138 JUMPI PUSH3 0x9B8 SWAP1 CALLDATASIZE SWAP1 PUSH1 0x4 ADD PUSH3 0x1650 JUMP JUMPDEST SWAP3 SWAP1 SWAP7 PUSH1 0x5 SLOAD CALLVALUE SUB PUSH3 0x15C0 JUMPI PUSH3 0x9CF PUSH3 0x1937 JUMP JUMPDEST DUP6 ISZERO PUSH3 0x158B JUMPI DUP1 ISZERO PUSH3 0x1554 JUMPI PUSH1 0x84 CALLDATALOAD ISZERO PUSH3 0x151D JUMPI PUSH2 0x7D0 PUSH1 0xA4 CALLDATALOAD GT PUSH3 0x14E2 JUMPI PUSH1 0x2 SLOAD PUSH1 0x40 MLOAD SWAP1 PUSH1 0x1 PUSH1 0x1 PUSH1 0xA0 SHL SUB AND PUSH1 0x1 PUSH1 0x1 PUSH1 0x40 SHL SUB PUSH2 0x1808 DUP4 ADD SWAP1 DUP2 GT SWAP1 DUP4 GT OR PUSH3 0x1083 JUMPI DUP2 SWAP1 PUSH2 0x1808 PUSH3 0x3CBF DUP4 CODECOPY PUSH1 0xE0 PUSH2 0x1808 DUP4 ADD MSTORE PUSH3 0xA5E PUSH3 0xA46 PUSH1 0xE0 PUSH2 0x1808 DUP6 ADD ADD DUP12 DUP12 PUSH3 0x1A41 JUMP JUMPDEST PUSH2 0x1808 DUP5 ADD DUP2 SUB PUSH1 0x20 PUSH2 0x1808 DUP7 ADD ADD MSTORE DUP6 DUP13 PUSH3 0x1A41 JUMP JUMPDEST SWAP1 PUSH1 0x84 CALLDATALOAD PUSH1 0x40 PUSH2 0x1808 DUP6 ADD ADD MSTORE ADDRESS PUSH1 0x60 PUSH2 0x1808 DUP6 ADD ADD MSTORE CALLER PUSH1 0x80 PUSH2 0x1808 DUP6 ADD ADD MSTORE PUSH1 0xA0 PUSH2 0x1808 DUP5 ADD ADD MSTORE PUSH1 0x32 PUSH1 0xC0 PUSH2 0x1808 DUP5 ADD ADD MSTORE SUB SWAP1 PUSH1 0xA0 MLOAD CREATE SWAP7 DUP8 ISZERO PUSH3 0x134C JUMPI PUSH1 0x2 SLOAD PUSH1 0x1 PUSH1 0x1 PUSH1 0xA0 SHL SUB AND CALLER DUP2 SUB PUSH3 0x14CE JUMPI SWAP7 JUMPDEST PUSH1 0x9 SLOAD PUSH1 0x1 PUSH1 0x1 PUSH1 0xA0 SHL SUB AND PUSH3 0x14B2 JUMPI JUMPDEST PUSH1 0x3 SLOAD PUSH1 0x40 MLOAD SWAP1 PUSH1 0x1 PUSH1 0x1 PUSH1 0xA0 SHL SUB AND PUSH1 0x1 PUSH1 0x1 PUSH1 0x40 SHL SUB PUSH2 0x2242 DUP4 ADD SWAP1 DUP2 GT SWAP1 DUP4 GT OR PUSH3 0x1083 JUMPI PUSH2 0x2242 PUSH3 0x1A7D DUP4 CODECOPY PUSH1 0x1 PUSH1 0x1 PUSH1 0xA0 SHL SUB DUP12 AND PUSH2 0x2242 DUP4 ADD SWAP1 DUP2 MSTORE PUSH1 0x20 DUP2 ADD SWAP2 SWAP1 SWAP2 MSTORE PUSH1 0xA0 MLOAD SWAP1 DUP3 SWAP1 SUB PUSH1 0x40 ADD SWAP2 SWAP1 CREATE PUSH1 0xC0 MSTORE PUSH1 0xC0 MLOAD ISZERO PUSH3 0x134C JUMPI PUSH1 0x1 SLOAD PUSH1 0x4 SLOAD PUSH1 0x6 SLOAD PUSH1 0x7 SLOAD PUSH1 0x8 SLOAD PUSH1 0x9 SLOAD PUSH1 0xC0 MLOAD SWAP3 SWAP6 PUSH1 0x1 PUSH1 0x1 PUSH1 0xA0 SHL SUB SWAP1 DUP2 AND SWAP6 SWAP4 SWAP2 DUP2 AND SWAP3 SWAP2 AND EXTCODESIZE ISZERO PUSH3 0x138 JUMPI PUSH1 0x40 MLOAD PUSH4 0xA8CEC45F PUSH1 0xE0 SHL DUP2 MSTORE PUSH1 0xA0 DUP1 MLOAD PUSH1 0x1 PUSH1 0x1 PUSH1 0xA0 SHL SUB SWAP8 DUP9 AND PUSH1 0x4 DUP5 ADD MSTORE PUSH1 0x24 DUP4 ADD SWAP6 SWAP1 SWAP6 MSTORE PUSH1 0x44 DUP3 ADD SWAP6 SWAP1 SWAP6 MSTORE PUSH1 0x64 DUP2 ADD SWAP7 SWAP1 SWAP7 MSTORE PUSH1 0x84 DUP7 ADD MSTORE DUP4 AND PUSH1 0xA4 DUP6 ADD MSTORE DUP12 DUP4 AND PUSH1 0xC4 DUP6 ADD MSTORE SWAP1 MLOAD PUSH1 0xC0 MLOAD SWAP2 SWAP3 DUP5 SWAP3 PUSH1 0xE4 SWAP3 DUP5 SWAP3 SWAP1 SWAP2 AND GAS CALL DUP1 ISZERO PUSH3 0x134C JUMPI PUSH3 0x14A0 JUMPI JUMPDEST POP PUSH1 0x84 CALLDATALOAD PUSH1 0xA4 CALLDATALOAD PUSH1 0x84 CALLDATALOAD MUL DIV PUSH1 0xA4 CALLDATALOAD SUB PUSH3 0x1488 JUMPI PUSH1 0x84 CALLDATALOAD PUSH2 0x2710 PUSH1 0xA4 CALLDATALOAD DUP3 MUL DIV DUP2 SUB GT PUSH3 0x1488 JUMPI PUSH1 0x40 MLOAD PUSH4 0xA9059CBB PUSH1 0xE0 SHL DUP2 MSTORE PUSH1 0xC0 MLOAD PUSH1 0x1 PUSH1 0x1 PUSH1 0xA0 SHL SUB SWAP1 DUP2 AND PUSH1 0x4 DUP4 ADD MSTORE PUSH2 0x2710 PUSH1 0x84 CALLDATALOAD PUSH1 0xA4 CALLDATALOAD DUP2 MUL SWAP2 SWAP1 SWAP2 DIV SWAP1 SUB PUSH1 0x24 DUP4 ADD MSTORE PUSH1 0xA0 MLOAD PUSH1 0x20 SWAP2 DUP4 SWAP2 PUSH1 0x44 SWAP2 DUP4 SWAP2 SWAP1 DUP16 AND GAS CALL SWAP1 DUP2 ISZERO PUSH3 0x134C JUMPI PUSH1 0xA0 MLOAD SWAP2 PUSH3 0x1464 JUMPI JUMPDEST POP ISZERO PUSH3 0x1428 JUMPI PUSH2 0x2710 PUSH1 0xA4 CALLDATALOAD PUSH1 0x84 CALLDATALOAD MUL DIV PUSH3 0x1359 JUMPI JUMPDEST PUSH1 0xC0 MLOAD PUSH1 0x1 PUSH1 0x1 PUSH1 0xA0 SHL SUB AND EXTCODESIZE ISZERO PUSH3 0x138 JUMPI PUSH1 0x40 MLOAD PUSH4 0x95564837 PUSH1 0xE0 SHL DUP2 MSTORE PUSH2 0x2710 PUSH1 0xA4 CALLDATALOAD PUSH1 0x84 CALLDATALOAD MUL DIV PUSH1 0x84 CALLDATALOAD SUB PUSH1 0x4 DUP3 ADD MSTORE PUSH1 0xA0 MLOAD DUP2 PUSH1 0x24 DUP2 PUSH1 0xA0 MLOAD PUSH1 0x1 DUP1 PUSH1 0xA0 SHL SUB PUSH1 0xC0 MLOAD AND GAS CALL DUP1 ISZERO PUSH3 0x134C JUMPI PUSH3 0x1332 JUMPI JUMPDEST POP PUSH1 0xA0 DUP1 MLOAD PUSH1 0x1 PUSH1 0x1 PUSH1 0xA0 SHL SUB DUP12 DUP2 AND SWAP1 SWAP2 MSTORE PUSH1 0xC PUSH1 0x20 MSTORE SWAP1 MLOAD PUSH1 0x40 SWAP1 KECCAK256 PUSH1 0xC0 MLOAD DUP2 SLOAD PUSH1 0x1 PUSH1 0x1 PUSH1 0xA0 SHL SUB NOT AND SWAP3 AND SWAP2 SWAP1 SWAP2 OR SWAP1 SSTORE PUSH1 0xB SLOAD PUSH1 0x80 DUP2 SWAP1 MSTORE PUSH9 0x10000000000000000 GT ISZERO PUSH3 0x1083 JUMPI PUSH1 0x1 PUSH1 0x80 MLOAD ADD PUSH1 0xB SSTORE PUSH3 0xD23 PUSH1 0x80 MLOAD PUSH3 0x172B JUMP JUMPDEST POP POP PUSH3 0xD32 PUSH1 0x80 MLOAD PUSH3 0x172B JUMP JUMPDEST POP DUP1 SLOAD PUSH1 0x1 PUSH1 0x1 PUSH1 0xA0 SHL SUB NOT SWAP1 DUP2 AND PUSH1 0x1 PUSH1 0x1 PUSH1 0xA0 SHL SUB DUP13 DUP2 AND SWAP2 SWAP1 SWAP2 OR DUP4 SSTORE PUSH1 0xC0 MLOAD PUSH1 0x1 DUP5 ADD DUP1 SLOAD DUP5 AND SWAP2 SWAP1 SWAP3 AND OR SWAP1 SSTORE PUSH1 0x2 DUP3 ADD DUP1 SLOAD SWAP1 SWAP2 AND CALLER OR SWAP1 SSTORE SWAP7 PUSH1 0x1 PUSH1 0x1 PUSH1 0x40 SHL SUB DUP3 GT PUSH3 0x1083 JUMPI DUP2 SWAP1 PUSH3 0xD92 PUSH1 0x3 DUP11 ADD SLOAD PUSH3 0x177D JUMP JUMPDEST PUSH1 0x1F DUP2 GT PUSH3 0x12D7 JUMPI JUMPDEST POP PUSH1 0xA0 MLOAD SWAP1 PUSH1 0x1F DUP4 GT PUSH1 0x1 EQ PUSH3 0x1261 JUMPI PUSH1 0xA0 MLOAD SWAP3 PUSH3 0x1255 JUMPI JUMPDEST POP POP DUP2 PUSH1 0x1 SHL SWAP2 PUSH1 0x0 NOT SWAP1 PUSH1 0x3 SHL SHR NOT AND OR PUSH1 0x3 DUP8 ADD SSTORE JUMPDEST PUSH1 0x1 PUSH1 0x1 PUSH1 0x40 SHL SUB DUP3 GT PUSH3 0x1083 JUMPI DUP2 SWAP1 PUSH3 0xDEF PUSH1 0x4 DUP9 ADD SLOAD PUSH3 0x177D JUMP JUMPDEST PUSH1 0x1F DUP2 GT PUSH3 0x11FA JUMPI JUMPDEST POP PUSH1 0xA0 MLOAD SWAP1 PUSH1 0x1F DUP4 GT PUSH1 0x1 EQ PUSH3 0x1184 JUMPI PUSH1 0xA0 MLOAD SWAP3 PUSH3 0x1178 JUMPI JUMPDEST POP POP DUP2 PUSH1 0x1 SHL SWAP2 PUSH1 0x0 NOT SWAP1 PUSH1 0x3 SHL SHR NOT AND OR PUSH1 0x4 DUP6 ADD SSTORE JUMPDEST PUSH1 0x1 PUSH1 0x1 PUSH1 0x40 SHL SUB DUP3 GT PUSH3 0x1083 JUMPI DUP2 SWAP1 PUSH3 0xE4C PUSH1 0x5 DUP7 ADD SLOAD PUSH3 0x177D JUMP JUMPDEST PUSH1 0x1F DUP2 GT PUSH3 0x111D JUMPI JUMPDEST POP PUSH1 0xA0 MLOAD SWAP1 PUSH1 0x1F DUP4 GT PUSH1 0x1 EQ PUSH3 0x10A7 JUMPI PUSH1 0xA0 MLOAD SWAP3 PUSH3 0x109B JUMPI JUMPDEST POP POP DUP2 PUSH1 0x1 SHL SWAP2 PUSH1 0x0 NOT SWAP1 PUSH1 0x3 SHL SHR NOT AND OR PUSH1 0x5 DUP4 ADD SSTORE JUMPDEST PUSH1 0x1 PUSH1 0x1 PUSH1 0x40 SHL SUB DUP2 GT PUSH3 0x1083 JUMPI PUSH3 0xEA7 PUSH1 0x6 DUP4 ADD SLOAD PUSH3 0x177D JUMP JUMPDEST PUSH1 0x1F DUP2 GT PUSH3 0x1030 JUMPI JUMPDEST POP PUSH1 0xA0 MLOAD PUSH1 0x1F DUP3 GT PUSH1 0x1 EQ PUSH3 0xFB6 JUMPI DUP2 SWAP1 PUSH1 0x60 SWAP7 PUSH1 0xA0 MLOAD SWAP3 PUSH3 0xFAA JUMPI JUMPDEST POP POP DUP2 PUSH1 0x1 SHL SWAP2 PUSH1 0x0 NOT SWAP1 PUSH1 0x3 SHL SHR NOT AND OR PUSH1 0x6 DUP3 ADD SSTORE JUMPDEST PUSH1 0x84 CALLDATALOAD PUSH1 0x7 DUP3 ADD DUP2 SWAP1 SSTORE PUSH2 0x2710 PUSH1 0xA4 CALLDATALOAD DUP3 MUL DIV PUSH1 0x8 DUP1 DUP5 ADD DUP3 SWAP1 SSTORE TIMESTAMP PUSH1 0x9 SWAP5 DUP6 ADD SSTORE PUSH1 0x4 SLOAD SWAP1 SLOAD SWAP4 SLOAD PUSH1 0x40 DUP1 MLOAD PUSH1 0x80 DUP1 MLOAD PUSH1 0xC0 DUP1 MLOAD PUSH1 0x1 PUSH1 0x1 PUSH1 0xA0 SHL SUB SWAP1 DUP2 AND DUP6 MSTORE PUSH1 0x20 DUP6 ADD SWAP10 SWAP1 SWAP10 MSTORE SWAP4 DUP4 ADD SWAP7 SWAP1 SWAP7 MSTORE PUSH1 0x60 DUP3 ADD SWAP5 SWAP1 SWAP5 MSTORE SWAP3 DUP4 ADD SWAP6 SWAP1 SWAP6 MSTORE DUP4 AND PUSH1 0xA0 DUP3 ADD MSTORE SWAP4 DUP3 AND SWAP3 DUP5 ADD SWAP3 SWAP1 SWAP3 MSTORE DUP4 AND SWAP2 CALLER SWAP2 SWAP1 PUSH32 0xDC7FEA29D21F6A39E7F1B42AD6100F8CDAFF48535852696A1155DE8A81D87A06 SWAP1 PUSH1 0xE0 SWAP1 LOG4 PUSH1 0x40 DUP1 MLOAD PUSH1 0x80 MLOAD DUP2 MSTORE PUSH1 0x1 PUSH1 0x1 PUSH1 0xA0 SHL SUB SWAP3 DUP4 AND PUSH1 0x20 DUP3 ADD MSTORE PUSH1 0xC0 MLOAD SWAP1 SWAP3 AND SWAP1 DUP3 ADD MSTORE RETURN JUMPDEST ADD CALLDATALOAD SWAP1 POP DUP7 DUP1 PUSH3 0xED0 JUMP JUMPDEST PUSH1 0x6 DUP4 ADD PUSH1 0xA0 MLOAD MSTORE PUSH1 0x20 PUSH1 0xA0 MLOAD KECCAK256 SWAP1 PUSH1 0xA0 MLOAD JUMPDEST PUSH1 0x1F NOT DUP5 AND DUP2 LT PUSH3 0x1017 JUMPI POP SWAP1 PUSH1 0x60 SWAP7 DUP4 SWAP3 PUSH1 0x1 SWAP5 PUSH1 0x1F NOT DUP2 AND LT PUSH3 0xFFC JUMPI JUMPDEST POP POP POP DUP2 SHL ADD PUSH1 0x6 DUP3 ADD SSTORE PUSH3 0xEE8 JUMP JUMPDEST ADD CALLDATALOAD PUSH1 0x0 NOT PUSH1 0x3 DUP5 SWAP1 SHL PUSH1 0xF8 AND SHR NOT AND SWAP1 SSTORE DUP7 DUP1 DUP1 PUSH3 0xFEB JUMP JUMPDEST SWAP1 SWAP2 PUSH1 0x20 PUSH1 0x1 DUP2 SWAP3 DUP6 DUP12 ADD CALLDATALOAD DUP2 SSTORE ADD SWAP4 ADD SWAP2 ADD PUSH3 0xFC9 JUMP JUMPDEST PUSH1 0x6 DUP4 ADD PUSH1 0xA0 MLOAD MSTORE PUSH1 0x20 PUSH1 0xA0 MLOAD KECCAK256 PUSH1 0x1F DUP4 ADD PUSH1 0x5 SHR DUP2 ADD SWAP2 PUSH1 0x20 DUP5 LT PUSH3 0x1078 JUMPI JUMPDEST PUSH1 0x1F ADD PUSH1 0x5 SHR ADD SWAP1 JUMPDEST DUP2 DUP2 LT PUSH3 0x106A JUMPI POP PUSH3 0xEB1 JUMP JUMPDEST PUSH1 0xA0 MLOAD DUP2 SSTORE PUSH1 0x1 ADD PUSH3 0x105B JUMP JUMPDEST SWAP1 SWAP2 POP DUP2 SWAP1 PUSH3 0x1052 JUMP JUMPDEST PUSH4 0x4E487B71 PUSH1 0xE0 SHL PUSH1 0xA0 MLOAD MSTORE PUSH1 0x41 PUSH1 0x4 MSTORE PUSH1 0x24 PUSH1 0xA0 MLOAD REVERT JUMPDEST ADD CALLDATALOAD SWAP1 POP DUP8 DUP1 PUSH3 0xE71 JUMP JUMPDEST PUSH1 0xA0 DUP1 MLOAD PUSH1 0x5 DUP9 ADD SWAP1 MSTORE MLOAD PUSH1 0x20 DUP2 KECCAK256 SWAP1 SWAP5 POP SWAP2 JUMPDEST PUSH1 0x1F NOT DUP5 AND DUP6 LT PUSH3 0x1104 JUMPI PUSH1 0x1 SWAP5 POP DUP4 PUSH1 0x1F NOT DUP2 AND LT PUSH3 0x10E9 JUMPI JUMPDEST POP POP POP DUP2 SHL ADD PUSH1 0x5 DUP4 ADD SSTORE PUSH3 0xE89 JUMP JUMPDEST ADD CALLDATALOAD PUSH1 0x0 NOT PUSH1 0x3 DUP5 SWAP1 SHL PUSH1 0xF8 AND SHR NOT AND SWAP1 SSTORE DUP8 DUP1 DUP1 PUSH3 0x10D8 JUMP JUMPDEST DUP2 DUP2 ADD CALLDATALOAD DUP4 SSTORE PUSH1 0x20 SWAP5 DUP6 ADD SWAP5 PUSH1 0x1 SWAP1 SWAP4 ADD SWAP3 ADD PUSH3 0x10BB JUMP JUMPDEST SWAP1 SWAP2 POP PUSH1 0x5 DUP6 ADD PUSH1 0xA0 MLOAD MSTORE PUSH1 0x20 PUSH1 0xA0 MLOAD KECCAK256 PUSH1 0x1F DUP5 ADD PUSH1 0x5 SHR DUP2 ADD PUSH1 0x20 DUP6 LT PUSH3 0x1170 JUMPI JUMPDEST SWAP1 DUP5 SWAP4 SWAP3 SWAP2 JUMPDEST PUSH1 0x1F DUP4 ADD PUSH1 0x5 SHR DUP3 ADD DUP2 LT PUSH3 0x115F JUMPI POP POP PUSH3 0xE56 JUMP JUMPDEST PUSH1 0xA0 MLOAD DUP2 SSTORE DUP6 SWAP5 POP PUSH1 0x1 ADD PUSH3 0x1147 JUMP JUMPDEST POP DUP1 PUSH3 0x1141 JUMP JUMPDEST ADD CALLDATALOAD SWAP1 POP DUP10 DUP1 PUSH3 0xE14 JUMP JUMPDEST PUSH1 0xA0 DUP1 MLOAD PUSH1 0x4 DUP11 ADD SWAP1 MSTORE MLOAD PUSH1 0x20 DUP2 KECCAK256 SWAP1 SWAP5 POP SWAP2 JUMPDEST PUSH1 0x1F NOT DUP5 AND DUP6 LT PUSH3 0x11E1 JUMPI PUSH1 0x1 SWAP5 POP DUP4 PUSH1 0x1F NOT DUP2 AND LT PUSH3 0x11C6 JUMPI JUMPDEST POP POP POP DUP2 SHL ADD PUSH1 0x4 DUP6 ADD SSTORE PUSH3 0xE2C JUMP JUMPDEST ADD CALLDATALOAD PUSH1 0x0 NOT PUSH1 0x3 DUP5 SWAP1 SHL PUSH1 0xF8 AND SHR NOT AND SWAP1 SSTORE DUP10 DUP1 DUP1 PUSH3 0x11B5 JUMP JUMPDEST DUP2 DUP2 ADD CALLDATALOAD DUP4 SSTORE PUSH1 0x20 SWAP5 DUP6 ADD SWAP5 PUSH1 0x1 SWAP1 SWAP4 ADD SWAP3 ADD PUSH3 0x1198 JUMP JUMPDEST SWAP1 SWAP2 POP PUSH1 0x4 DUP8 ADD PUSH1 0xA0 MLOAD MSTORE PUSH1 0x20 PUSH1 0xA0 MLOAD KECCAK256 PUSH1 0x1F DUP5 ADD PUSH1 0x5 SHR DUP2 ADD PUSH1 0x20 DUP6 LT PUSH3 0x124D JUMPI JUMPDEST SWAP1 DUP5 SWAP4 SWAP3 SWAP2 JUMPDEST PUSH1 0x1F DUP4 ADD PUSH1 0x5 SHR DUP3 ADD DUP2 LT PUSH3 0x123C JUMPI POP POP PUSH3 0xDF9 JUMP JUMPDEST PUSH1 0xA0 MLOAD DUP2 SSTORE DUP6 SWAP5 POP PUSH1 0x1 ADD PUSH3 0x1224 JUMP JUMPDEST POP DUP1 PUSH3 0x121E JUMP JUMPDEST ADD CALLDATALOAD SWAP1 POP DUP12 DUP1 PUSH3 0xDB7 JUMP JUMPDEST PUSH1 0xA0 DUP1 MLOAD PUSH1 0x3 DUP13 ADD SWAP1 MSTORE MLOAD PUSH1 0x20 DUP2 KECCAK256 SWAP1 SWAP5 POP SWAP2 JUMPDEST PUSH1 0x1F NOT DUP5 AND DUP6 LT PUSH3 0x12BE JUMPI PUSH1 0x1 SWAP5 POP DUP4 PUSH1 0x1F NOT DUP2 AND LT PUSH3 0x12A3 JUMPI JUMPDEST POP POP POP DUP2 SHL ADD PUSH1 0x3 DUP8 ADD SSTORE PUSH3 0xDCF JUMP JUMPDEST ADD CALLDATALOAD PUSH1 0x0 NOT PUSH1 0x3 DUP5 SWAP1 SHL PUSH1 0xF8 AND SHR NOT AND SWAP1 SSTORE DUP12 DUP1 DUP1 PUSH3 0x1292 JUMP JUMPDEST DUP2 DUP2 ADD CALLDATALOAD DUP4 SSTORE PUSH1 0x20 SWAP5 DUP6 ADD SWAP5 PUSH1 0x1 SWAP1 SWAP4 ADD SWAP3 ADD PUSH3 0x1275 JUMP JUMPDEST SWAP1 SWAP2 POP PUSH1 0x3 DUP10 ADD PUSH1 0xA0 MLOAD MSTORE PUSH1 0x20 PUSH1 0xA0 MLOAD KECCAK256 PUSH1 0x1F DUP5 ADD PUSH1 0x5 SHR DUP2 ADD PUSH1 0x20 DUP6 LT PUSH3 0x132A JUMPI JUMPDEST SWAP1 DUP5 SWAP4 SWAP3 SWAP2 JUMPDEST PUSH1 0x1F DUP4 ADD PUSH1 0x5 SHR DUP3 ADD DUP2 LT PUSH3 0x1319 JUMPI POP POP PUSH3 0xD9C JUMP JUMPDEST PUSH1 0xA0 MLOAD DUP2 SSTORE DUP6 SWAP5 POP PUSH1 0x1 ADD PUSH3 0x1301 JUMP JUMPDEST POP DUP1 PUSH3 0x12FB JUMP JUMPDEST PUSH3 0x133D SWAP1 PUSH3 0x16C2 JUMP JUMPDEST PUSH1 0xA0 MLOAD PUSH3 0x138 JUMPI DUP11 PUSH3 0xCBF JUMP JUMPDEST PUSH1 0x40 MLOAD RETURNDATASIZE PUSH1 0xA0 MLOAD DUP3 RETURNDATACOPY RETURNDATASIZE SWAP1 REVERT JUMPDEST PUSH1 0x40 MLOAD PUSH4 0xA9059CBB PUSH1 0xE0 SHL DUP2 MSTORE CALLER PUSH1 0x4 DUP3 ADD MSTORE PUSH2 0x2710 PUSH1 0xA4 CALLDATALOAD PUSH1 0x84 CALLDATALOAD MUL DIV PUSH1 0x24 DUP3 ADD MSTORE PUSH1 0xA0 MLOAD PUSH1 0x20 SWAP1 DUP3 SWAP1 PUSH1 0x44 SWAP1 DUP3 SWAP1 PUSH1 0x1 PUSH1 0x1 PUSH1 0xA0 SHL SUB DUP16 AND GAS CALL SWAP1 DUP2 ISZERO PUSH3 0x134C JUMPI PUSH1 0xA0 MLOAD SWAP2 PUSH3 0x13F2 JUMPI JUMPDEST POP PUSH3 0xC67 JUMPI PUSH1 0x40 MLOAD PUSH3 0x461BCD PUSH1 0xE5 SHL DUP2 MSTORE PUSH1 0x20 PUSH1 0x4 DUP3 ADD MSTORE PUSH1 0x17 PUSH1 0x24 DUP3 ADD MSTORE PUSH32 0x63726561746F72207472616E73666572206661696C6564000000000000000000 PUSH1 0x44 DUP3 ADD MSTORE PUSH1 0x64 SWAP1 REVERT JUMPDEST PUSH3 0x1419 SWAP2 POP PUSH1 0x20 RETURNDATASIZE PUSH1 0x20 GT PUSH3 0x1420 JUMPI JUMPDEST PUSH3 0x1410 DUP2 DUP4 PUSH3 0x1709 JUMP JUMPDEST DUP2 ADD SWAP1 PUSH3 0x1A62 JUMP JUMPDEST DUP12 PUSH3 0x13A7 JUMP JUMPDEST POP RETURNDATASIZE PUSH3 0x1404 JUMP JUMPDEST PUSH1 0x40 MLOAD PUSH3 0x461BCD PUSH1 0xE5 SHL DUP2 MSTORE PUSH1 0x20 PUSH1 0x4 DUP3 ADD MSTORE PUSH1 0x14 PUSH1 0x24 DUP3 ADD MSTORE PUSH20 0x1C1BDBDB081D1C985B9CD9995C8819985A5B1959 PUSH1 0x62 SHL PUSH1 0x44 DUP3 ADD MSTORE PUSH1 0x64 SWAP1 REVERT JUMPDEST PUSH3 0x1481 SWAP2 POP PUSH1 0x20 RETURNDATASIZE PUSH1 0x20 GT PUSH3 0x1420 JUMPI PUSH3 0x1410 DUP2 DUP4 PUSH3 0x1709 JUMP JUMPDEST DUP12 PUSH3 0xC4F JUMP JUMPDEST PUSH4 0x4E487B71 PUSH1 0xE0 SHL PUSH1 0xA0 MLOAD MSTORE PUSH1 0x11 PUSH1 0x4 MSTORE PUSH1 0x24 PUSH1 0xA0 MLOAD REVERT JUMPDEST PUSH3 0x14AB SWAP1 PUSH3 0x16C2 JUMP JUMPDEST DUP11 PUSH3 0xBCC JUMP JUMPDEST PUSH3 0x14C8 PUSH1 0x1 PUSH1 0x1 PUSH1 0xA0 SHL SUB DUP10 AND ISZERO ISZERO PUSH3 0x18F2 JUMP JUMPDEST PUSH3 0xAC9 JUMP JUMPDEST POP PUSH1 0xA SLOAD PUSH1 0x1 PUSH1 0x1 PUSH1 0xA0 SHL SUB AND SWAP7 PUSH3 0xAB7 JUMP JUMPDEST PUSH1 0x40 MLOAD PUSH3 0x461BCD PUSH1 0xE5 SHL DUP2 MSTORE PUSH1 0x20 PUSH1 0x4 DUP3 ADD MSTORE PUSH1 0x13 PUSH1 0x24 DUP3 ADD MSTORE PUSH19 0xC2D8D8DEC6C2E8D2DEDC40E8DEDE40D0D2CED PUSH1 0x6B SHL PUSH1 0x44 DUP3 ADD MSTORE PUSH1 0x64 SWAP1 REVERT JUMPDEST PUSH1 0x40 MLOAD PUSH3 0x461BCD PUSH1 0xE5 SHL DUP2 MSTORE PUSH1 0x20 PUSH1 0x4 DUP3 ADD MSTORE PUSH1 0xF PUSH1 0x24 DUP3 ADD MSTORE PUSH15 0x1CDD5C1C1B1E481C995C5D5A5C9959 PUSH1 0x8A SHL PUSH1 0x44 DUP3 ADD MSTORE PUSH1 0x64 SWAP1 REVERT JUMPDEST PUSH1 0x40 MLOAD PUSH3 0x461BCD PUSH1 0xE5 SHL DUP2 MSTORE PUSH1 0x20 PUSH1 0x4 DUP3 ADD MSTORE PUSH1 0xF PUSH1 0x24 DUP3 ADD MSTORE PUSH15 0x1CDE5B589BDB081C995C5D5A5C9959 PUSH1 0x8A SHL PUSH1 0x44 DUP3 ADD MSTORE PUSH1 0x64 SWAP1 REVERT JUMPDEST PUSH1 0x40 MLOAD PUSH3 0x461BCD PUSH1 0xE5 SHL DUP2 MSTORE PUSH1 0x20 PUSH1 0x4 DUP3 ADD MSTORE PUSH1 0xD PUSH1 0x24 DUP3 ADD MSTORE PUSH13 0x1B985B59481C995C5D5A5C9959 PUSH1 0x9A SHL PUSH1 0x44 DUP3 ADD MSTORE PUSH1 0x64 SWAP1 REVERT JUMPDEST PUSH1 0x40 MLOAD PUSH3 0x461BCD PUSH1 0xE5 SHL DUP2 MSTORE PUSH1 0x20 PUSH1 0x4 DUP3 ADD MSTORE PUSH1 0x13 PUSH1 0x24 DUP3 ADD MSTORE PUSH19 0xD8C2EADCC6D040CCCACA40DAD2E6DAC2E8C6D PUSH1 0x6B SHL PUSH1 0x44 DUP3 ADD MSTORE PUSH1 0x64 SWAP1 REVERT JUMPDEST CALLVALUE PUSH3 0x138 JUMPI PUSH1 0x20 CALLDATASIZE PUSH1 0x3 NOT ADD SLT PUSH3 0x138 JUMPI PUSH1 0x20 SWAP1 PUSH1 0x1 PUSH1 0x1 PUSH1 0xA0 SHL SUB DUP1 PUSH3 0x1624 PUSH3 0x1639 JUMP JUMPDEST AND PUSH1 0xA0 MLOAD MSTORE PUSH1 0xC DUP4 MSTORE PUSH1 0x40 PUSH1 0xA0 MLOAD KECCAK256 SLOAD AND DUP2 MSTORE RETURN JUMPDEST PUSH1 0x4 CALLDATALOAD SWAP1 PUSH1 0x1 PUSH1 0x1 PUSH1 0xA0 SHL SUB DUP3 AND DUP3 SUB PUSH3 0x59A JUMPI JUMP JUMPDEST SWAP2 DUP2 PUSH1 0x1F DUP5 ADD SLT ISZERO PUSH3 0x59A JUMPI DUP3 CALLDATALOAD SWAP2 PUSH1 0x1 PUSH1 0x1 PUSH1 0x40 SHL SUB DUP4 GT PUSH3 0x59A JUMPI PUSH1 0x20 DUP4 DUP2 DUP7 ADD SWAP6 ADD ADD GT PUSH3 0x59A JUMPI JUMP JUMPDEST SWAP2 SWAP1 DUP3 MLOAD SWAP3 DUP4 DUP3 MSTORE PUSH1 0x0 JUMPDEST DUP5 DUP2 LT PUSH3 0x16AD JUMPI POP POP DUP3 PUSH1 0x0 PUSH1 0x20 DUP1 SWAP5 SWAP6 DUP5 ADD ADD MSTORE PUSH1 0x1F DUP1 NOT SWAP2 ADD AND ADD ADD SWAP1 JUMP JUMPDEST PUSH1 0x20 DUP2 DUP4 ADD DUP2 ADD MLOAD DUP5 DUP4 ADD DUP3 ADD MSTORE ADD PUSH3 0x168B JUMP JUMPDEST PUSH1 0x1 PUSH1 0x1 PUSH1 0x40 SHL SUB DUP2 GT PUSH3 0x16D6 JUMPI PUSH1 0x40 MSTORE JUMP JUMPDEST PUSH4 0x4E487B71 PUSH1 0xE0 SHL PUSH1 0x0 MSTORE PUSH1 0x41 PUSH1 0x4 MSTORE PUSH1 0x24 PUSH1 0x0 REVERT JUMPDEST PUSH2 0x140 DUP2 ADD SWAP1 DUP2 LT PUSH1 0x1 PUSH1 0x1 PUSH1 0x40 SHL SUB DUP3 GT OR PUSH3 0x16D6 JUMPI PUSH1 0x40 MSTORE JUMP JUMPDEST SWAP1 PUSH1 0x1F DUP1 NOT SWAP2 ADD AND DUP2 ADD SWAP1 DUP2 LT PUSH1 0x1 PUSH1 0x1 PUSH1 0x40 SHL SUB DUP3 GT OR PUSH3 0x16D6 JUMPI PUSH1 0x40 MSTORE JUMP JUMPDEST PUSH1 0xB SLOAD DUP2 LT ISZERO PUSH3 0x1767 JUMPI PUSH1 0xA SWAP1 PUSH1 0xB PUSH1 0x0 MSTORE MUL PUSH32 0x175B7A638427703F0DBE7BB9BBF987A2551717B34E79F33B5B1008D1FA01DB9 ADD SWAP1 PUSH1 0x0 SWAP1 JUMP JUMPDEST PUSH4 0x4E487B71 PUSH1 0xE0 SHL PUSH1 0x0 MSTORE PUSH1 0x32 PUSH1 0x4 MSTORE PUSH1 0x24 PUSH1 0x0 REVERT JUMPDEST SWAP1 PUSH1 0x1 DUP3 DUP2 SHR SWAP3 AND DUP1 ISZERO PUSH3 0x17AF JUMPI JUMPDEST PUSH1 0x20 DUP4 LT EQ PUSH3 0x1799 JUMPI JUMP JUMPDEST PUSH4 0x4E487B71 PUSH1 0xE0 SHL PUSH1 0x0 MSTORE PUSH1 0x22 PUSH1 0x4 MSTORE PUSH1 0x24 PUSH1 0x0 REVERT JUMPDEST SWAP2 PUSH1 0x7F AND SWAP2 PUSH3 0x178D JUMP JUMPDEST SWAP1 PUSH1 0x40 MLOAD SWAP2 DUP3 PUSH1 0x0 DUP3 SLOAD PUSH3 0x17CF DUP2 PUSH3 0x177D JUMP JUMPDEST SWAP1 DUP2 DUP5 MSTORE PUSH1 0x20 SWAP5 PUSH1 0x1 SWAP2 PUSH1 0x1 DUP2 AND SWAP1 DUP2 PUSH1 0x0 EQ PUSH3 0x1847 JUMPI POP PUSH1 0x1 EQ PUSH3 0x1804 JUMPI JUMPDEST POP POP POP PUSH3 0x1802 SWAP3 POP SUB DUP4 PUSH3 0x1709 JUMP JUMPDEST JUMP JUMPDEST PUSH1 0x0 SWAP1 DUP2 MSTORE DUP6 DUP2 KECCAK256 SWAP6 SWAP4 POP SWAP2 SWAP1 JUMPDEST DUP2 DUP4 LT PUSH3 0x182E JUMPI POP POP PUSH3 0x1802 SWAP4 POP DUP3 ADD ADD CODESIZE DUP1 DUP1 PUSH3 0x17F1 JUMP JUMPDEST DUP6 SLOAD DUP9 DUP5 ADD DUP6 ADD MSTORE SWAP5 DUP6 ADD SWAP5 DUP8 SWAP5 POP SWAP2 DUP4 ADD SWAP2 PUSH3 0x1812 JUMP JUMPDEST SWAP3 POP POP POP PUSH3 0x1802 SWAP5 SWAP3 POP PUSH1 0xFF NOT AND DUP3 DUP5 ADD MSTORE ISZERO ISZERO PUSH1 0x5 SHL DUP3 ADD ADD CODESIZE DUP1 DUP1 PUSH3 0x17F1 JUMP JUMPDEST ISZERO PUSH3 0x1873 JUMPI JUMP JUMPDEST PUSH1 0x40 MLOAD PUSH3 0x461BCD PUSH1 0xE5 SHL DUP2 MSTORE PUSH1 0x20 PUSH1 0x4 DUP3 ADD MSTORE PUSH1 0xA PUSH1 0x24 DUP3 ADD MSTORE PUSH10 0x37B7363C9037BBB732B9 PUSH1 0xB1 SHL PUSH1 0x44 DUP3 ADD MSTORE PUSH1 0x64 SWAP1 REVERT JUMPDEST ISZERO PUSH3 0x18AD JUMPI JUMP JUMPDEST PUSH1 0x40 MLOAD PUSH3 0x461BCD PUSH1 0xE5 SHL DUP2 MSTORE PUSH1 0x20 PUSH1 0x4 DUP3 ADD MSTORE PUSH1 0x1B PUSH1 0x24 DUP3 ADD MSTORE PUSH32 0x706C6174666F726D20726563697069656E742072657175697265640000000000 PUSH1 0x44 DUP3 ADD MSTORE PUSH1 0x64 SWAP1 REVERT JUMPDEST ISZERO PUSH3 0x18FA JUMPI JUMP JUMPDEST PUSH1 0x40 MLOAD PUSH3 0x461BCD PUSH1 0xE5 SHL DUP2 MSTORE PUSH1 0x20 PUSH1 0x4 DUP3 ADD MSTORE PUSH1 0x15 PUSH1 0x24 DUP3 ADD MSTORE PUSH21 0x1B1C081C9958DA5C1A595B9D081C995C5D5A5C9959 PUSH1 0x5A SHL PUSH1 0x44 DUP3 ADD MSTORE PUSH1 0x64 SWAP1 REVERT JUMPDEST PUSH1 0x5 SLOAD DUP1 ISZERO PUSH3 0x1A3E JUMPI PUSH1 0x2 SLOAD PUSH1 0x1 PUSH1 0x1 PUSH1 0xA0 SHL SUB SWAP2 SWAP1 DUP3 AND PUSH3 0x195D DUP2 ISZERO ISZERO PUSH3 0x18A5 JUMP JUMPDEST PUSH1 0x0 DUP1 DUP1 DUP1 SWAP5 DUP2 SWAP5 GAS CALL SWAP1 RETURNDATASIZE ISZERO PUSH3 0x1A37 JUMPI RETURNDATASIZE SWAP1 PUSH1 0x1 PUSH1 0x1 PUSH1 0x40 SHL SUB DUP3 GT PUSH3 0x1A23 JUMPI PUSH1 0x40 MLOAD SWAP2 PUSH3 0x199A PUSH1 0x1F DUP3 ADD PUSH1 0x1F NOT AND PUSH1 0x20 ADD DUP5 PUSH3 0x1709 JUMP JUMPDEST DUP3 MSTORE PUSH1 0x20 RETURNDATASIZE SWAP3 ADD RETURNDATACOPY JUMPDEST ISZERO PUSH3 0x19DE JUMPI PUSH1 0x2 SLOAD AND PUSH1 0x5 SLOAD PUSH1 0x40 MLOAD SWAP1 DUP2 MSTORE PUSH32 0x4CEF2D27CDF43D743C3C66401182E93989938E77D1BE10F3AB9E6AFDF799F839 PUSH1 0x20 CALLER SWAP3 LOG3 JUMP JUMPDEST PUSH1 0x40 MLOAD PUSH3 0x461BCD PUSH1 0xE5 SHL DUP2 MSTORE PUSH1 0x20 PUSH1 0x4 DUP3 ADD MSTORE PUSH1 0x1A PUSH1 0x24 DUP3 ADD MSTORE PUSH32 0x6C61756E636820666565207472616E73666572206661696C6564000000000000 PUSH1 0x44 DUP3 ADD MSTORE PUSH1 0x64 SWAP1 REVERT JUMPDEST PUSH4 0x4E487B71 PUSH1 0xE0 SHL DUP2 MSTORE PUSH1 0x41 PUSH1 0x4 MSTORE PUSH1 0x24 SWAP1 REVERT JUMPDEST POP PUSH3 0x19A3 JUMP JUMPDEST POP JUMP JUMPDEST SWAP1 DUP1 PUSH1 0x20 SWAP4 SWAP3 DUP2 DUP5 MSTORE DUP5 DUP5 ADD CALLDATACOPY PUSH1 0x0 DUP3 DUP3 ADD DUP5 ADD MSTORE PUSH1 0x1F ADD PUSH1 0x1F NOT AND ADD ADD SWAP1 JUMP JUMPDEST SWAP1 DUP2 PUSH1 0x20 SWAP2 SUB SLT PUSH3 0x59A JUMPI MLOAD DUP1 ISZERO ISZERO DUP2 SUB PUSH3 0x59A JUMPI SWAP1 JUMP INVALID PUSH1 0xE0 CALLVALUE PUSH3 0x19A JUMPI PUSH1 0x1F PUSH3 0x2242 CODESIZE DUP2 SWAP1 SUB SWAP2 DUP3 ADD PUSH1 0x1F NOT AND DUP4 ADD SWAP2 PUSH1 0x1 PUSH1 0x1 PUSH1 0x40 SHL SUB DUP4 GT DUP5 DUP5 LT OR PUSH3 0x19F JUMPI DUP1 DUP5 SWAP3 PUSH1 0x40 SWAP5 DUP6 MSTORE DUP4 CODECOPY DUP2 ADD SUB SLT PUSH3 0x19A JUMPI PUSH3 0x5A PUSH1 0x20 PUSH3 0x52 DUP4 PUSH3 0x1B5 JUMP JUMPDEST SWAP3 ADD PUSH3 0x1B5 JUMP JUMPDEST SWAP1 PUSH1 0x1 PUSH1 0x1 PUSH1 0xA0 SHL SUB DUP1 DUP3 AND ISZERO PUSH3 0x164 JUMPI DUP3 AND ISZERO PUSH3 0x12E JUMPI PUSH1 0xA0 MSTORE PUSH1 0xC0 MSTORE CALLER PUSH1 0x80 MSTORE PUSH1 0x40 MLOAD PUSH2 0x2077 SWAP1 DUP2 PUSH3 0x1CB DUP3 CODECOPY PUSH1 0x80 MLOAD DUP2 DUP2 DUP2 PUSH2 0x642 ADD MSTORE DUP2 DUP2 PUSH2 0x6E9 ADD MSTORE DUP2 DUP2 PUSH2 0x8F3 ADD MSTORE DUP2 DUP2 PUSH2 0xB1C ADD MSTORE PUSH2 0x111D ADD MSTORE PUSH1 0xA0 MLOAD DUP2 DUP2 DUP2 PUSH2 0x1A3 ADD MSTORE DUP2 DUP2 PUSH2 0x344 ADD MSTORE DUP2 DUP2 PUSH2 0x95C ADD MSTORE DUP2 DUP2 PUSH2 0xD58 ADD MSTORE DUP2 DUP2 PUSH2 0x18F2 ADD MSTORE DUP2 DUP2 PUSH2 0x194E ADD MSTORE DUP2 DUP2 PUSH2 0x1A8C ADD MSTORE DUP2 DUP2 PUSH2 0x1B6A ADD MSTORE PUSH2 0x1D7C ADD MSTORE PUSH1 0xC0 MLOAD DUP2 DUP2 DUP2 PUSH2 0x3BF ADD MSTORE DUP2 DUP2 PUSH2 0xCB0 ADD MSTORE DUP2 DUP2 PUSH2 0x1225 ADD MSTORE DUP2 DUP2 PUSH2 0x19B4 ADD MSTORE DUP2 DUP2 PUSH2 0x1A13 ADD MSTORE DUP2 DUP2 PUSH2 0x1ABA ADD MSTORE DUP2 DUP2 PUSH2 0x1B92 ADD MSTORE PUSH2 0x1CA3 ADD MSTORE RETURN JUMPDEST PUSH1 0x40 MLOAD PUSH3 0x461BCD PUSH1 0xE5 SHL DUP2 MSTORE PUSH1 0x20 PUSH1 0x4 DUP3 ADD MSTORE PUSH1 0xE PUSH1 0x24 DUP3 ADD MSTORE PUSH14 0x1C5D5BDD19481C995C5D5A5C9959 PUSH1 0x92 SHL PUSH1 0x44 DUP3 ADD MSTORE PUSH1 0x64 SWAP1 REVERT JUMPDEST PUSH1 0x40 MLOAD PUSH3 0x461BCD PUSH1 0xE5 SHL DUP2 MSTORE PUSH1 0x20 PUSH1 0x4 DUP3 ADD MSTORE PUSH1 0xE PUSH1 0x24 DUP3 ADD MSTORE PUSH14 0x1D1BDAD95B881C995C5D5A5C9959 PUSH1 0x92 SHL PUSH1 0x44 DUP3 ADD MSTORE PUSH1 0x64 SWAP1 REVERT JUMPDEST PUSH1 0x0 DUP1 REVERT JUMPDEST PUSH4 0x4E487B71 PUSH1 0xE0 SHL PUSH1 0x0 MSTORE PUSH1 0x41 PUSH1 0x4 MSTORE PUSH1 0x24 PUSH1 0x0 REVERT JUMPDEST MLOAD SWAP1 PUSH1 0x1 PUSH1 0x1 PUSH1 0xA0 SHL SUB DUP3 AND DUP3 SUB PUSH3 0x19A JUMPI JUMP INVALID PUSH1 0x80 PUSH1 0x40 DUP2 DUP2 MSTORE PUSH1 0x4 SWAP2 DUP3 CALLDATASIZE LT ISZERO PUSH2 0x16 JUMPI PUSH1 0x0 DUP1 REVERT JUMPDEST PUSH1 0x0 SWAP3 DUP4 CALLDATALOAD PUSH1 0xE0 SHR SWAP2 DUP3 PUSH4 0x758D924 EQ PUSH2 0x12A4 JUMPI POP DUP2 PUSH4 0x158EF93E EQ PUSH2 0x127D JUMPI DUP2 PUSH4 0x1AD15BBC EQ PUSH2 0x1254 JUMPI DUP2 PUSH4 0x217A4B70 EQ PUSH2 0x1210 JUMPI DUP2 PUSH4 0x24A9D853 EQ PUSH2 0x11F1 JUMPI DUP2 PUSH4 0x2760ECA1 EQ PUSH2 0x11D4 JUMPI DUP2 PUSH4 0x2A2C6972 EQ PUSH2 0x10EE JUMPI DUP2 PUSH4 0x334041A6 EQ PUSH2 0x10C7 JUMPI DUP2 PUSH4 0x343EE3B7 EQ PUSH2 0x10A8 JUMPI DUP2 PUSH4 0x398482D8 EQ PUSH2 0x1084 JUMPI DUP2 PUSH4 0x4329742D EQ PUSH2 0xFD3 JUMPI DUP2 PUSH4 0x452E68DD EQ PUSH2 0xFAA JUMPI DUP2 PUSH4 0x46904840 EQ PUSH2 0xF82 JUMPI DUP2 PUSH4 0x4BEB394C EQ PUSH2 0xF63 JUMPI DUP2 PUSH4 0x52B86D2B EQ PUSH2 0x1F4 JUMPI DUP2 PUSH4 0x649249D3 EQ PUSH2 0xF44 JUMPI DUP2 PUSH4 0x6818735C EQ PUSH2 0xBE8 JUMPI DUP2 PUSH4 0x7F544E49 EQ PUSH2 0xBC9 JUMPI DUP2 PUSH4 0x8C575AA3 EQ PUSH2 0xABA JUMPI DUP2 PUSH4 0x95564837 EQ PUSH2 0x8CB JUMPI DUP2 PUSH4 0x9DA771F4 EQ PUSH2 0x5EF JUMPI DUP2 PUSH4 0xA64190C4 EQ PUSH2 0x89D JUMPI DUP2 PUSH4 0xA8CEC45F EQ PUSH2 0x691 JUMPI DUP2 PUSH4 0xACA6B65A EQ PUSH2 0x671 JUMPI DUP2 PUSH4 0xC45A0155 EQ PUSH2 0x62D JUMPI DUP2 PUSH4 0xCBCB3171 EQ PUSH2 0x60E JUMPI DUP2 PUSH4 0xD62CCB3F EQ PUSH2 0x5EF JUMPI DUP2 PUSH4 0xD79875EB EQ PUSH2 0x25A JUMPI DUP2 PUSH4 0xE1A45218 EQ PUSH2 0x23D JUMPI DUP2 PUSH4 0xE7C2B772 EQ PUSH2 0x216 JUMPI DUP2 PUSH4 0xF5596626 EQ PUSH2 0x1F4 JUMPI POP DUP1 PUSH4 0xF95A02D0 EQ PUSH2 0x1D6 JUMPI PUSH4 0xFC0C546A EQ PUSH2 0x190 JUMPI PUSH1 0x0 DUP1 REVERT JUMPDEST CALLVALUE PUSH2 0x1D2 JUMPI DUP2 PUSH1 0x3 NOT CALLDATASIZE ADD SLT PUSH2 0x1D2 JUMPI MLOAD PUSH32 0x0 PUSH1 0x1 PUSH1 0x1 PUSH1 0xA0 SHL SUB AND DUP2 MSTORE PUSH1 0x20 SWAP1 RETURN JUMPDEST POP DUP1 REVERT JUMPDEST POP CALLVALUE PUSH2 0x1D2 JUMPI DUP2 PUSH1 0x3 NOT CALLDATASIZE ADD SLT PUSH2 0x1D2 JUMPI PUSH1 0x20 SWAP1 PUSH1 0x6 SLOAD SWAP1 MLOAD SWAP1 DUP2 MSTORE RETURN JUMPDEST SWAP1 POP CALLVALUE PUSH2 0x212 JUMPI DUP3 PUSH1 0x3 NOT CALLDATASIZE ADD SLT PUSH2 0x212 JUMPI PUSH1 0x20 SWAP3 POP SLOAD SWAP1 MLOAD SWAP1 DUP2 MSTORE RETURN JUMPDEST DUP3 DUP1 REVERT JUMPDEST POP POP CALLVALUE PUSH2 0x1D2 JUMPI DUP2 PUSH1 0x3 NOT CALLDATASIZE ADD SLT PUSH2 0x1D2 JUMPI PUSH1 0x20 SWAP1 PUSH1 0xFF PUSH1 0x8 SLOAD PUSH1 0xB0 SHR AND SWAP1 MLOAD SWAP1 ISZERO ISZERO DUP2 MSTORE RETURN JUMPDEST POP POP CALLVALUE PUSH2 0x1D2 JUMPI DUP2 PUSH1 0x3 NOT CALLDATASIZE ADD SLT PUSH2 0x1D2 JUMPI PUSH1 0x20 SWAP1 MLOAD PUSH2 0x2710 DUP2 MSTORE RETURN JUMPDEST SWAP2 SWAP1 POP CALLVALUE PUSH2 0x212 JUMPI PUSH2 0x26B CALLDATASIZE PUSH2 0x12E4 JUMP JUMPDEST SWAP3 PUSH1 0x8 SLOAD SWAP2 PUSH2 0x280 PUSH1 0xFF DUP5 PUSH1 0xB8 SHR AND ISZERO PUSH2 0x1474 JUMP JUMPDEST PUSH1 0xFF PUSH1 0xB8 SHL NOT SWAP3 DUP4 AND PUSH1 0x1 PUSH1 0xB8 SHL OR PUSH1 0x8 DUP2 SWAP1 SSTORE PUSH2 0x2B4 SWAP1 PUSH1 0xFF SWAP1 PUSH2 0x2AA PUSH1 0xA8 DUP3 SWAP1 SHR DUP4 AND PUSH2 0x14AD JUMP JUMPDEST PUSH1 0xB0 SHR AND ISZERO PUSH2 0x159B JUMP JUMPDEST PUSH2 0x2BF DUP2 ISZERO ISZERO PUSH2 0x17E8 JUMP JUMPDEST PUSH2 0x2C8 DUP2 PUSH2 0x1FF1 JUMP JUMPDEST SWAP6 PUSH2 0x2D4 DUP8 ISZERO ISZERO PUSH2 0x15D3 JUMP JUMPDEST PUSH1 0x2 SLOAD DUP8 GT PUSH2 0x5AC JUMPI PUSH2 0x2710 PUSH2 0x2EC PUSH1 0x1 SLOAD DUP10 PUSH2 0x12FA JUMP JUMPDEST DIV SWAP1 PUSH2 0x304 PUSH2 0x2FB DUP4 DUP11 PUSH2 0x152B JUMP JUMPDEST SWAP8 DUP9 LT ISZERO PUSH2 0x1615 JUMP JUMPDEST DUP6 MLOAD PUSH4 0x23B872DD PUSH1 0xE0 SHL DUP2 MSTORE CALLER DUP2 DUP7 ADD SWAP1 DUP2 MSTORE ADDRESS PUSH1 0x20 DUP3 DUP2 ADD SWAP2 SWAP1 SWAP2 MSTORE PUSH1 0x40 DUP3 ADD DUP7 SWAP1 MSTORE SWAP10 PUSH1 0x1 PUSH1 0x1 PUSH1 0xA0 SHL SUB SWAP7 SWAP3 SWAP1 SWAP2 DUP12 SWAP1 DUP3 SWAP1 DUP2 SWAP1 PUSH1 0x60 ADD SUB DUP2 DUP8 DUP12 PUSH32 0x0 AND GAS CALL SWAP1 DUP2 ISZERO PUSH2 0x5A2 JUMPI SWAP2 PUSH2 0x387 PUSH2 0x39E SWAP3 DUP13 SWAP6 SWAP5 DUP15 DUP9 SWAP3 PUSH2 0x585 JUMPI JUMPDEST POP POP PUSH2 0x1722 JUMP JUMPDEST PUSH2 0x393 DUP8 PUSH1 0x3 SLOAD PUSH2 0x13FA JUMP JUMPDEST PUSH1 0x3 SSTORE PUSH1 0x2 SLOAD PUSH2 0x152B JUMP JUMPDEST PUSH1 0x2 SSTORE DUP8 MLOAD PUSH4 0xA9059CBB PUSH1 0xE0 SHL DUP1 DUP3 MSTORE CALLER DUP4 DUP4 ADD SWAP1 DUP2 MSTORE PUSH1 0x20 DUP2 ADD SWAP5 SWAP1 SWAP5 MSTORE PUSH32 0x0 DUP9 AND SWAP8 SWAP1 SWAP4 SWAP1 SWAP2 SWAP1 DUP13 SWAP1 DUP3 SWAP1 DUP2 SWAP1 PUSH1 0x40 ADD SUB DUP2 DUP9 DUP13 GAS CALL SWAP1 DUP2 ISZERO PUSH2 0x57B JUMPI DUP13 SWAP4 SWAP3 SWAP2 PUSH2 0x411 SWAP2 DUP8 SWAP2 PUSH2 0x55E JUMPI JUMPDEST POP PUSH2 0x169C JUMP JUMPDEST DUP6 PUSH2 0x4B4 JUMPI JUMPDEST POP POP POP POP POP PUSH2 0x4A4 PUSH32 0x979D7DFE5BA2269A5F9D4EB1050FB4E24587C61B13DB43D174AF3C3171ADDED6 SWAP2 DUP7 MLOAD PUSH32 0x846C37EEF631E0943682D87352EC117C20008EB7F425C9B85AC011A6D4774CC0 CALLER SWAP2 DUP1 PUSH2 0x484 DUP6 DUP14 DUP11 DUP5 PUSH1 0x40 SWAP2 SWAP5 SWAP4 SWAP3 PUSH1 0x60 DUP3 ADD SWAP6 DUP3 MSTORE PUSH1 0x20 DUP3 ADD MSTORE ADD MSTORE JUMP JUMPDEST SUB SWAP1 LOG2 DUP7 MLOAD SWAP4 DUP5 MSTORE PUSH1 0x20 DUP5 ADD DUP9 SWAP1 MSTORE PUSH1 0x40 DUP5 ADD MSTORE CALLER SWAP3 SWAP1 DUP2 SWAP1 PUSH1 0x60 DUP3 ADD SWAP1 JUMP JUMPDEST SUB SWAP1 LOG3 PUSH1 0x8 SLOAD AND PUSH1 0x8 SSTORE MLOAD SWAP1 DUP2 MSTORE RETURN JUMPDEST DUP5 SLOAD DUP11 MLOAD SWAP5 DUP6 MSTORE AND PUSH1 0x1 PUSH1 0x1 PUSH1 0xA0 SHL SUB AND SWAP1 DUP4 ADD SWAP1 DUP2 MSTORE PUSH1 0x20 DUP2 ADD DUP6 SWAP1 MSTORE DUP3 SWAP1 DUP2 SWAP1 PUSH1 0x40 ADD SUB DUP2 DUP6 DUP10 GAS CALL SWAP2 DUP3 ISZERO PUSH2 0x553 JUMPI PUSH2 0x4A4 SWAP3 PUSH32 0x979D7DFE5BA2269A5F9D4EB1050FB4E24587C61B13DB43D174AF3C3171ADDED6 SWAP5 SWAP3 PUSH2 0x51D SWAP3 SWAP2 PUSH2 0x526 JUMPI JUMPDEST POP PUSH2 0x16E0 JUMP JUMPDEST SWAP2 DUP9 CODESIZE DUP1 PUSH2 0x417 JUMP JUMPDEST PUSH2 0x546 SWAP2 POP DUP12 RETURNDATASIZE DUP14 GT PUSH2 0x54C JUMPI JUMPDEST PUSH2 0x53E DUP2 DUP4 PUSH2 0x164C JUMP JUMPDEST DUP2 ADD SWAP1 PUSH2 0x1684 JUMP JUMPDEST CODESIZE PUSH2 0x517 JUMP JUMPDEST POP RETURNDATASIZE PUSH2 0x534 JUMP JUMPDEST DUP8 MLOAD SWAP1 RETURNDATASIZE SWAP1 DUP3 RETURNDATACOPY RETURNDATASIZE SWAP1 REVERT JUMPDEST PUSH2 0x575 SWAP2 POP DUP6 RETURNDATASIZE DUP8 GT PUSH2 0x54C JUMPI PUSH2 0x53E DUP2 DUP4 PUSH2 0x164C JUMP JUMPDEST CODESIZE PUSH2 0x40B JUMP JUMPDEST DUP11 MLOAD RETURNDATASIZE DUP8 DUP3 RETURNDATACOPY RETURNDATASIZE SWAP1 REVERT JUMPDEST PUSH2 0x59B SWAP3 POP DUP1 RETURNDATASIZE LT PUSH2 0x54C JUMPI PUSH2 0x53E DUP2 DUP4 PUSH2 0x164C JUMP JUMPDEST CODESIZE DUP15 PUSH2 0x380 JUMP JUMPDEST DUP10 MLOAD RETURNDATASIZE DUP7 DUP3 RETURNDATACOPY RETURNDATASIZE SWAP1 REVERT JUMPDEST DUP5 MLOAD PUSH3 0x461BCD PUSH1 0xE5 SHL DUP2 MSTORE PUSH1 0x20 DUP2 DUP6 ADD MSTORE PUSH1 0x1A PUSH1 0x24 DUP3 ADD MSTORE PUSH32 0x696E73756666696369656E742071756F74652072657365727665000000000000 PUSH1 0x44 DUP3 ADD MSTORE PUSH1 0x64 SWAP1 REVERT JUMPDEST POP POP CALLVALUE PUSH2 0x1D2 JUMPI DUP2 PUSH1 0x3 NOT CALLDATASIZE ADD SLT PUSH2 0x1D2 JUMPI PUSH1 0x20 SWAP1 PUSH1 0x2 SLOAD SWAP1 MLOAD SWAP1 DUP2 MSTORE RETURN JUMPDEST POP POP CALLVALUE PUSH2 0x1D2 JUMPI DUP2 PUSH1 0x3 NOT CALLDATASIZE ADD SLT PUSH2 0x1D2 JUMPI PUSH1 0x20 SWAP1 PUSH1 0x3 SLOAD SWAP1 MLOAD SWAP1 DUP2 MSTORE RETURN JUMPDEST POP POP CALLVALUE PUSH2 0x1D2 JUMPI DUP2 PUSH1 0x3 NOT CALLDATASIZE ADD SLT PUSH2 0x1D2 JUMPI MLOAD PUSH32 0x0 PUSH1 0x1 PUSH1 0x1 PUSH1 0xA0 SHL SUB AND DUP2 MSTORE PUSH1 0x20 SWAP1 RETURN JUMPDEST POP POP CALLVALUE PUSH2 0x1D2 JUMPI DUP2 PUSH1 0x3 NOT CALLDATASIZE ADD SLT PUSH2 0x1D2 JUMPI PUSH1 0x20 SWAP1 MLOAD PUSH5 0xE8D4A51000 DUP2 MSTORE RETURN JUMPDEST SWAP2 SWAP1 POP CALLVALUE PUSH2 0x212 JUMPI PUSH1 0xE0 CALLDATASIZE PUSH1 0x3 NOT ADD SLT PUSH2 0x212 JUMPI PUSH2 0x6AD PUSH2 0x12C9 JUMP JUMPDEST SWAP2 PUSH1 0x1 PUSH1 0x1 PUSH1 0xA0 SHL SUB SWAP2 PUSH1 0xA4 CALLDATALOAD DUP4 DUP2 AND SWAP3 PUSH1 0x84 CALLDATALOAD SWAP2 PUSH1 0x64 CALLDATALOAD SWAP2 PUSH1 0x44 CALLDATALOAD SWAP2 PUSH1 0x24 CALLDATALOAD SWAP1 DUP8 SWAP1 SUB PUSH2 0x899 JUMPI PUSH1 0xC4 CALLDATALOAD SWAP8 DUP1 DUP10 AND DUP1 SWAP10 SUB PUSH2 0x895 JUMPI PUSH2 0x710 DUP2 PUSH32 0x0 AND CALLER EQ PUSH2 0x1384 JUMP JUMPDEST PUSH1 0x8 SLOAD SWAP10 PUSH1 0xFF DUP12 PUSH1 0xA0 SHR AND PUSH2 0x85C JUMPI AND SWAP6 DUP7 ISZERO PUSH2 0x821 JUMPI PUSH2 0x735 PUSH2 0x12C DUP4 GT ISZERO PUSH2 0x13BF JUMP JUMPDEST DUP4 ISZERO PUSH2 0x7E6 JUMPI DUP5 ISZERO PUSH2 0x7AB JUMPI POP PUSH2 0x74D DUP6 ISZERO ISZERO PUSH2 0x1766 JUMP JUMPDEST DUP7 PUSH2 0x79B JUMPI JUMPDEST PUSH12 0xFFFFFFFFFFFFFFFFFFFFFFFF PUSH1 0xA0 SHL SWAP6 DUP7 DUP12 SLOAD AND OR DUP11 SSTORE PUSH1 0x1 SSTORE SSTORE PUSH1 0x5 SSTORE PUSH1 0x6 SSTORE PUSH1 0x7 SLOAD AND OR PUSH1 0x7 SSTORE PUSH1 0x1 PUSH1 0xA0 SHL SWAP2 PUSH11 0xFFFFFFFFFFFFFFFFFFFFFF PUSH1 0xA8 SHL AND OR OR PUSH1 0x8 SSTORE DUP1 RETURN JUMPDEST PUSH2 0x7A6 DUP9 ISZERO ISZERO PUSH2 0x17A4 JUMP JUMPDEST PUSH2 0x753 JUMP JUMPDEST MLOAD PUSH3 0x461BCD PUSH1 0xE5 SHL DUP2 MSTORE PUSH1 0x20 DUP2 DUP5 ADD MSTORE PUSH1 0x16 PUSH1 0x24 DUP3 ADD MSTORE PUSH22 0x1D9A5C9D1D585B081D1BDAD95B881C995C5D5A5C9959 PUSH1 0x52 SHL PUSH1 0x44 DUP3 ADD MSTORE PUSH1 0x64 SWAP1 REVERT JUMPDEST MLOAD PUSH3 0x461BCD PUSH1 0xE5 SHL DUP2 MSTORE PUSH1 0x20 DUP2 DUP5 ADD MSTORE PUSH1 0x16 PUSH1 0x24 DUP3 ADD MSTORE PUSH22 0x1D9A5C9D1D585B081C5D5BDD19481C995C5D5A5C9959 PUSH1 0x52 SHL PUSH1 0x44 DUP3 ADD MSTORE PUSH1 0x64 SWAP1 REVERT JUMPDEST MLOAD PUSH3 0x461BCD PUSH1 0xE5 SHL DUP2 MSTORE PUSH1 0x20 DUP2 DUP5 ADD MSTORE PUSH1 0x16 PUSH1 0x24 DUP3 ADD MSTORE PUSH22 0x199959481C9958DA5C1A595B9D081C995C5D5A5C9959 PUSH1 0x52 SHL PUSH1 0x44 DUP3 ADD MSTORE PUSH1 0x64 SWAP1 REVERT JUMPDEST DUP8 MLOAD PUSH3 0x461BCD PUSH1 0xE5 SHL DUP2 MSTORE PUSH1 0x20 DUP2 DUP7 ADD MSTORE PUSH1 0x13 PUSH1 0x24 DUP3 ADD MSTORE PUSH19 0x185B1C9958591E481A5B9A5D1A585B1A5E9959 PUSH1 0x6A SHL PUSH1 0x44 DUP3 ADD MSTORE PUSH1 0x64 SWAP1 REVERT JUMPDEST DUP11 DUP1 REVERT JUMPDEST DUP10 DUP1 REVERT JUMPDEST SWAP1 POP DUP3 CALLVALUE PUSH2 0x8C8 JUMPI PUSH1 0x20 CALLDATASIZE PUSH1 0x3 NOT ADD SLT PUSH2 0x8C8 JUMPI POP PUSH2 0x8BC SWAP1 CALLDATALOAD PUSH2 0x182C JUMP JUMPDEST DUP3 MLOAD SWAP2 DUP3 MSTORE PUSH1 0x20 DUP3 ADD MSTORE RETURN JUMPDEST DUP1 REVERT JUMPDEST DUP4 SWAP2 POP CALLVALUE PUSH2 0x1D2 JUMPI PUSH1 0x20 SWAP1 DUP2 PUSH1 0x3 NOT CALLDATASIZE ADD SLT PUSH2 0x212 JUMPI DUP1 CALLDATALOAD SWAP1 PUSH1 0x1 PUSH1 0x1 PUSH1 0xA0 SHL SUB SWAP1 PUSH2 0x91A CALLER PUSH32 0x0 DUP5 AND EQ PUSH2 0x1384 JUMP JUMPDEST PUSH1 0x8 SLOAD SWAP2 PUSH1 0xFF DUP4 PUSH1 0xA8 SHR AND PUSH2 0xA86 JUMPI PUSH1 0xFF DUP4 PUSH1 0xA0 SHR AND ISZERO PUSH2 0xA51 JUMPI DUP5 PUSH1 0x24 SWAP2 PUSH2 0x944 DUP7 ISZERO ISZERO PUSH2 0x17E8 JUMP JUMPDEST DUP9 MLOAD PUSH4 0x70A08231 PUSH1 0xE0 SHL DUP2 MSTORE ADDRESS DUP6 DUP3 ADD MSTORE SWAP3 DUP4 SWAP2 DUP3 SWAP1 PUSH32 0x0 AND GAS STATICCALL SWAP1 DUP2 ISZERO PUSH2 0xA47 JUMPI SWAP1 DUP5 SWAP2 DUP8 SWAP2 PUSH2 0xA12 JUMPI JUMPDEST POP LT PUSH2 0x9D9 JUMPI POP PUSH1 0xFF PUSH1 0xA8 SHL NOT AND PUSH1 0x1 PUSH1 0xA8 SHL OR PUSH1 0x8 SSTORE PUSH1 0x3 DUP2 SWAP1 SSTORE SWAP3 MLOAD SWAP3 DUP4 MSTORE SWAP1 SWAP2 PUSH32 0xA71ED34FF06AF8D6865A8F541AAE52D72FA89F0E5EE15F01D48FA6C62C856914 SWAP2 SWAP1 LOG1 DUP1 RETURN JUMPDEST DUP6 MLOAD PUSH3 0x461BCD PUSH1 0xE5 SHL DUP2 MSTORE SWAP1 DUP2 ADD DUP5 SWAP1 MSTORE PUSH1 0x13 PUSH1 0x24 DUP3 ADD MSTORE PUSH19 0x696E73756666696369656E7420746F6B656E73 PUSH1 0x68 SHL PUSH1 0x44 DUP3 ADD MSTORE PUSH1 0x64 SWAP1 REVERT JUMPDEST DUP1 SWAP3 POP DUP7 DUP1 SWAP3 POP RETURNDATASIZE DUP4 GT PUSH2 0xA40 JUMPI JUMPDEST PUSH2 0xA2B DUP2 DUP4 PUSH2 0x164C JUMP JUMPDEST DUP2 ADD SUB SLT PUSH2 0xA3C JUMPI DUP4 SWAP1 MLOAD DUP9 PUSH2 0x98F JUMP JUMPDEST DUP6 DUP1 REVERT JUMPDEST POP RETURNDATASIZE PUSH2 0xA21 JUMP JUMPDEST DUP8 MLOAD RETURNDATASIZE DUP9 DUP3 RETURNDATACOPY RETURNDATASIZE SWAP1 REVERT JUMPDEST DUP7 MLOAD PUSH3 0x461BCD PUSH1 0xE5 SHL DUP2 MSTORE DUP1 DUP4 ADD DUP7 SWAP1 MSTORE PUSH1 0xF PUSH1 0x24 DUP3 ADD MSTORE PUSH15 0x1B9BDD081A5B9A5D1A585B1A5E9959 PUSH1 0x8A SHL PUSH1 0x44 DUP3 ADD MSTORE PUSH1 0x64 SWAP1 REVERT JUMPDEST DUP7 MLOAD PUSH3 0x461BCD PUSH1 0xE5 SHL DUP2 MSTORE DUP1 DUP4 ADD DUP7 SWAP1 MSTORE PUSH1 0xE PUSH1 0x24 DUP3 ADD MSTORE PUSH14 0x185B1C9958591E481CD959591959 PUSH1 0x92 SHL PUSH1 0x44 DUP3 ADD MSTORE PUSH1 0x64 SWAP1 REVERT JUMPDEST POP POP CALLVALUE PUSH2 0x1D2 JUMPI PUSH1 0x60 CALLDATASIZE PUSH1 0x3 NOT ADD SLT PUSH2 0x1D2 JUMPI PUSH2 0xAD5 PUSH2 0x12C9 JUMP JUMPDEST PUSH1 0x24 CALLDATALOAD SWAP1 PUSH1 0x1 PUSH1 0x1 PUSH1 0xA0 SHL SUB DUP1 DUP4 AND SWAP1 DUP2 DUP5 SUB PUSH2 0xA3C JUMPI PUSH32 0xBCDC4BFF84F936019028A7BCBEF6B449550D6334606377B822720E57E94276C4 SWAP5 PUSH2 0xBB3 SWAP3 PUSH1 0x44 CALLDATALOAD SWAP3 PUSH2 0xB43 DUP2 PUSH32 0x0 AND CALLER EQ PUSH2 0x1384 JUMP JUMPDEST PUSH1 0x8 SLOAD SWAP1 PUSH2 0xB57 PUSH1 0xFF DUP4 PUSH1 0xB0 SHR AND ISZERO PUSH2 0x14EB JUMP JUMPDEST PUSH2 0xB62 DUP6 ISZERO ISZERO PUSH2 0x1766 JUMP JUMPDEST DUP7 AND SWAP1 DUP2 PUSH2 0xBB9 JUMPI JUMPDEST PUSH1 0x7 DUP1 SLOAD PUSH1 0x1 PUSH1 0x1 PUSH1 0xA0 SHL SUB NOT SWAP1 DUP2 AND SWAP1 SWAP4 OR SWAP1 SSTORE AND OR PUSH1 0x8 SSTORE PUSH1 0x6 DUP3 SWAP1 SSTORE MLOAD PUSH1 0x1 PUSH1 0x1 PUSH1 0xA0 SHL SUB SWAP4 DUP5 AND DUP2 MSTORE SWAP3 SWAP1 SWAP4 AND PUSH1 0x20 DUP4 ADD MSTORE PUSH1 0x40 DUP3 ADD SWAP3 SWAP1 SWAP3 MSTORE SWAP1 DUP2 SWAP1 PUSH1 0x60 DUP3 ADD SWAP1 JUMP JUMPDEST SUB SWAP1 LOG1 DUP1 RETURN JUMPDEST PUSH2 0xBC4 DUP4 ISZERO ISZERO PUSH2 0x17A4 JUMP JUMPDEST PUSH2 0xB6B JUMP JUMPDEST POP POP CALLVALUE PUSH2 0x1D2 JUMPI DUP2 PUSH1 0x3 NOT CALLDATASIZE ADD SLT PUSH2 0x1D2 JUMPI PUSH1 0x20 SWAP1 PUSH1 0xA SLOAD SWAP1 MLOAD SWAP1 DUP2 MSTORE RETURN JUMPDEST DUP4 DUP4 CALLVALUE PUSH2 0x1D2 JUMPI PUSH2 0xBF8 CALLDATASIZE PUSH2 0x12E4 JUMP JUMPDEST SWAP3 PUSH1 0x8 SLOAD SWAP2 PUSH2 0xC0D PUSH1 0xFF DUP5 PUSH1 0xB8 SHR AND ISZERO PUSH2 0x1474 JUMP JUMPDEST PUSH1 0xFF PUSH1 0xB8 SHL NOT SWAP3 DUP4 AND PUSH1 0x1 PUSH1 0xB8 SHL OR PUSH1 0x8 DUP2 SWAP1 SSTORE PUSH2 0xC37 SWAP1 PUSH1 0xFF SWAP1 PUSH2 0x2AA PUSH1 0xA8 DUP3 SWAP1 SHR DUP4 AND PUSH2 0x14AD JUMP JUMPDEST DUP1 ISZERO PUSH2 0xF10 JUMPI PUSH2 0x2710 PUSH2 0xC4C PUSH1 0x1 SLOAD DUP4 PUSH2 0x12FA JUMP JUMPDEST DIV PUSH2 0xC57 DUP2 DUP4 PUSH2 0x152B JUMP JUMPDEST SWAP3 PUSH2 0xC78 PUSH2 0xC64 DUP6 PUSH2 0x1F6A JUMP JUMPDEST SWAP8 PUSH2 0xC70 DUP10 ISZERO ISZERO PUSH2 0x15D3 JUMP JUMPDEST DUP9 LT ISZERO PUSH2 0x1615 JUMP JUMPDEST PUSH1 0x3 SLOAD DUP8 GT PUSH2 0xED4 JUMPI DUP6 MLOAD PUSH4 0x23B872DD PUSH1 0xE0 SHL DUP2 MSTORE CALLER DUP10 DUP3 ADD SWAP1 DUP2 MSTORE ADDRESS PUSH1 0x20 DUP1 DUP4 ADD SWAP2 SWAP1 SWAP2 MSTORE PUSH1 0x40 DUP3 ADD DUP7 SWAP1 MSTORE SWAP10 PUSH1 0x1 PUSH1 0x1 PUSH1 0xA0 SHL SUB PUSH32 0x0 DUP2 AND SWAP8 SWAP4 SWAP1 SWAP3 DUP13 SWAP1 DUP3 SWAP1 DUP2 SWAP1 PUSH1 0x60 ADD SUB DUP2 DUP9 DUP13 GAS CALL SWAP1 DUP2 ISZERO PUSH2 0x57B JUMPI SWAP2 PUSH2 0xD00 DUP14 SWAP5 SWAP3 DUP14 SWAP5 DUP9 SWAP2 PUSH2 0xEB7 JUMPI POP PUSH2 0x169C JUMP JUMPDEST DUP7 PUSH2 0xE38 JUMPI JUMPDEST PUSH2 0xD15 PUSH2 0xD54 SWAP6 PUSH1 0x2 SLOAD PUSH2 0x13FA JUMP JUMPDEST PUSH1 0x2 SSTORE PUSH2 0xD24 DUP4 PUSH1 0x3 SLOAD PUSH2 0x152B JUMP JUMPDEST PUSH1 0x3 SSTORE DUP11 MLOAD PUSH4 0xA9059CBB PUSH1 0xE0 SHL DUP2 MSTORE CALLER SWAP2 DUP2 ADD SWAP2 DUP3 MSTORE PUSH1 0x20 DUP3 ADD SWAP4 SWAP1 SWAP4 MSTORE SWAP2 SWAP4 DUP5 SWAP3 DUP4 SWAP2 DUP8 SWAP2 DUP4 SWAP2 PUSH1 0x40 SWAP1 SWAP2 ADD SWAP1 JUMP JUMPDEST SUB SWAP3 PUSH32 0x0 AND GAS CALL SWAP2 DUP3 ISZERO PUSH2 0x553 JUMPI DUP9 SWAP3 PUSH32 0xEF15014C0B5775DF7C57E26F3DDD7A80B0C875A3B685FD3B7121B5A6BF5BB3FF SWAP5 SWAP3 PUSH2 0xDB6 SWAP3 SWAP2 PUSH2 0xE1B JUMPI JUMPDEST POP PUSH2 0x1722 JUMP JUMPDEST DUP7 MLOAD DUP5 DUP2 MSTORE PUSH1 0x20 DUP2 ADD DUP3 SWAP1 MSTORE PUSH1 0x40 DUP2 ADD DUP4 SWAP1 MSTORE CALLER SWAP1 PUSH32 0xBEAE048C6D270D9469F86CF6E8FEDDA3C60AD770F16C24C9FC131C8E9A09101D SWAP1 PUSH1 0x60 SWAP1 LOG2 DUP7 MLOAD SWAP4 DUP5 MSTORE PUSH1 0x20 DUP5 ADD MSTORE PUSH1 0x40 DUP4 ADD MSTORE CALLER SWAP2 PUSH1 0x60 SWAP1 LOG3 PUSH2 0xE0E PUSH2 0x1FC6 JUMP JUMPDEST PUSH1 0x8 SLOAD AND PUSH1 0x8 SSTORE MLOAD SWAP1 DUP2 MSTORE RETURN JUMPDEST PUSH2 0xE32 SWAP2 POP DUP12 RETURNDATASIZE DUP14 GT PUSH2 0x54C JUMPI PUSH2 0x53E DUP2 DUP4 PUSH2 0x164C JUMP JUMPDEST DUP12 PUSH2 0xDB0 JUMP JUMPDEST DUP6 SLOAD DUP12 MLOAD PUSH4 0xA9059CBB PUSH1 0xE0 SHL DUP2 MSTORE SWAP1 DUP4 AND PUSH1 0x1 PUSH1 0x1 PUSH1 0xA0 SHL SUB AND DUP3 DUP3 ADD SWAP1 DUP2 MSTORE PUSH1 0x20 DUP2 ADD DUP10 SWAP1 MSTORE SWAP3 SWAP6 SWAP2 SWAP5 SWAP2 SWAP4 POP SWAP2 DUP3 SWAP1 DUP2 SWAP1 PUSH1 0x40 ADD SUB DUP2 DUP9 DUP13 GAS CALL SWAP1 DUP2 ISZERO PUSH2 0x57B JUMPI SWAP3 PUSH2 0xD15 DUP13 SWAP4 PUSH2 0xE98 DUP16 SWAP7 SWAP5 PUSH2 0xD54 SWAP9 SWAP6 DUP11 SWAP2 PUSH2 0xEA0 JUMPI POP PUSH2 0x16E0 JUMP JUMPDEST SWAP6 POP POP PUSH2 0xD06 JUMP JUMPDEST PUSH2 0x546 SWAP2 POP DUP9 RETURNDATASIZE DUP11 GT PUSH2 0x54C JUMPI PUSH2 0x53E DUP2 DUP4 PUSH2 0x164C JUMP JUMPDEST PUSH2 0xECE SWAP2 POP DUP7 RETURNDATASIZE DUP9 GT PUSH2 0x54C JUMPI PUSH2 0x53E DUP2 DUP4 PUSH2 0x164C JUMP JUMPDEST DUP16 PUSH2 0x40B JUMP JUMPDEST DUP6 MLOAD PUSH3 0x461BCD PUSH1 0xE5 SHL DUP2 MSTORE PUSH1 0x20 DUP2 DUP11 ADD MSTORE PUSH1 0x16 PUSH1 0x24 DUP3 ADD MSTORE PUSH22 0x696E73756666696369656E74206C6971756964697479 PUSH1 0x50 SHL PUSH1 0x44 DUP3 ADD MSTORE PUSH1 0x64 SWAP1 REVERT JUMPDEST DUP4 MLOAD PUSH3 0x461BCD PUSH1 0xE5 SHL DUP2 MSTORE PUSH1 0x20 DUP2 DUP9 ADD MSTORE PUSH1 0xE PUSH1 0x24 DUP3 ADD MSTORE PUSH14 0x1C5D5BDD19481C995C5D5A5C9959 PUSH1 0x92 SHL PUSH1 0x44 DUP3 ADD MSTORE PUSH1 0x64 SWAP1 REVERT JUMPDEST POP POP CALLVALUE PUSH2 0x1D2 JUMPI DUP2 PUSH1 0x3 NOT CALLDATASIZE ADD SLT PUSH2 0x1D2 JUMPI PUSH1 0x20 SWAP1 PUSH1 0x6 SLOAD SWAP1 MLOAD SWAP1 DUP2 MSTORE RETURN JUMPDEST SWAP1 POP DUP3 CALLVALUE PUSH2 0x8C8 JUMPI PUSH1 0x20 CALLDATASIZE PUSH1 0x3 NOT ADD SLT PUSH2 0x8C8 JUMPI POP PUSH2 0x8BC SWAP1 CALLDATALOAD PUSH2 0x1538 JUMP JUMPDEST POP POP CALLVALUE PUSH2 0x1D2 JUMPI DUP2 PUSH1 0x3 NOT CALLDATASIZE ADD SLT PUSH2 0x1D2 JUMPI SWAP1 SLOAD SWAP1 MLOAD PUSH1 0x1 PUSH1 0x1 PUSH1 0xA0 SHL SUB SWAP1 SWAP2 AND DUP2 MSTORE PUSH1 0x20 SWAP1 RETURN JUMPDEST POP POP CALLVALUE PUSH2 0x1D2 JUMPI DUP2 PUSH1 0x3 NOT CALLDATASIZE ADD SLT PUSH2 0x1D2 JUMPI PUSH1 0x8 SLOAD SWAP1 MLOAD PUSH1 0x1 PUSH1 0x1 PUSH1 0xA0 SHL SUB SWAP1 SWAP2 AND DUP2 MSTORE PUSH1 0x20 SWAP1 RETURN JUMPDEST SWAP1 POP CALLVALUE PUSH2 0x212 JUMPI DUP3 PUSH1 0x3 NOT CALLDATASIZE ADD SLT PUSH2 0x212 JUMPI PUSH1 0x8 SLOAD SWAP2 PUSH2 0xFF9 PUSH1 0xFF DUP5 PUSH1 0xB8 SHR AND ISZERO PUSH2 0x1474 JUMP JUMPDEST PUSH1 0xFF PUSH1 0xB8 SHL NOT SWAP3 DUP4 AND PUSH1 0x1 PUSH1 0xB8 SHL OR PUSH1 0x8 DUP2 SWAP1 SSTORE PUSH2 0x102D SWAP1 PUSH1 0xFF SWAP1 PUSH2 0x1023 PUSH1 0xA8 DUP3 SWAP1 SHR DUP4 AND PUSH2 0x14AD JUMP JUMPDEST PUSH1 0xB0 SHR AND ISZERO PUSH2 0x14EB JUMP JUMPDEST PUSH1 0x2 SLOAD PUSH1 0x6 SLOAD GT PUSH2 0x104C JUMPI POP POP PUSH2 0x1042 PUSH2 0x188A JUMP JUMPDEST PUSH1 0x8 SLOAD AND PUSH1 0x8 SSTORE DUP1 RETURN JUMPDEST SWAP1 PUSH1 0x20 PUSH1 0x64 SWAP3 MLOAD SWAP2 PUSH3 0x461BCD PUSH1 0xE5 SHL DUP4 MSTORE DUP3 ADD MSTORE PUSH1 0x12 PUSH1 0x24 DUP3 ADD MSTORE PUSH18 0x1D185C99D95D081B9BDD081C995858DA1959 PUSH1 0x72 SHL PUSH1 0x44 DUP3 ADD MSTORE REVERT JUMPDEST POP POP CALLVALUE PUSH2 0x1D2 JUMPI DUP2 PUSH1 0x3 NOT CALLDATASIZE ADD SLT PUSH2 0x1D2 JUMPI PUSH1 0x20 SWAP1 PUSH2 0x10A1 PUSH2 0x1407 JUMP JUMPDEST SWAP1 MLOAD SWAP1 DUP2 MSTORE RETURN JUMPDEST POP POP CALLVALUE PUSH2 0x1D2 JUMPI DUP2 PUSH1 0x3 NOT CALLDATASIZE ADD SLT PUSH2 0x1D2 JUMPI PUSH1 0x20 SWAP1 PUSH1 0x5 SLOAD SWAP1 MLOAD SWAP1 DUP2 MSTORE RETURN JUMPDEST POP POP CALLVALUE PUSH2 0x1D2 JUMPI DUP2 PUSH1 0x3 NOT CALLDATASIZE ADD SLT PUSH2 0x1D2 JUMPI PUSH1 0x20 SWAP1 PUSH1 0xFF PUSH1 0x8 SLOAD PUSH1 0xA8 SHR AND SWAP1 MLOAD SWAP1 ISZERO ISZERO DUP2 MSTORE RETURN JUMPDEST SWAP2 SWAP1 POP CALLVALUE PUSH2 0x212 JUMPI DUP1 PUSH1 0x3 NOT CALLDATASIZE ADD SLT PUSH2 0x212 JUMPI PUSH2 0x1109 PUSH2 0x12C9 JUMP JUMPDEST PUSH1 0x24 CALLDATALOAD SWAP2 SWAP1 PUSH1 0x1 PUSH1 0x1 PUSH1 0xA0 SHL SUB SWAP1 PUSH2 0x1144 CALLER PUSH32 0x0 DUP5 AND EQ PUSH2 0x1384 JUMP JUMPDEST AND SWAP3 DUP4 ISZERO PUSH2 0x119D JUMPI POP DUP2 PUSH1 0x20 SWAP2 PUSH2 0x1180 PUSH2 0x12C PUSH32 0xE42708D93B95810922305119A3271CA42233DA9EBE1E1E503F0E887817A32C7A SWAP6 GT ISZERO PUSH2 0x13BF JUMP JUMPDEST DUP6 SLOAD PUSH1 0x1 PUSH1 0x1 PUSH1 0xA0 SHL SUB NOT AND DUP6 OR DUP7 SSTORE PUSH1 0x1 DUP3 SWAP1 SSTORE MLOAD SWAP1 DUP2 MSTORE LOG2 DUP1 RETURN JUMPDEST PUSH1 0x20 PUSH1 0x64 SWAP3 MLOAD SWAP2 PUSH3 0x461BCD PUSH1 0xE5 SHL DUP4 MSTORE DUP3 ADD MSTORE PUSH1 0x12 PUSH1 0x24 DUP3 ADD MSTORE PUSH18 0x1C9958DA5C1A595B9D081C995C5D5A5C9959 PUSH1 0x72 SHL PUSH1 0x44 DUP3 ADD MSTORE REVERT JUMPDEST POP POP CALLVALUE PUSH2 0x1D2 JUMPI DUP2 PUSH1 0x3 NOT CALLDATASIZE ADD SLT PUSH2 0x1D2 JUMPI PUSH1 0x20 SWAP1 PUSH2 0x10A1 PUSH2 0x1343 JUMP JUMPDEST POP POP CALLVALUE PUSH2 0x1D2 JUMPI DUP2 PUSH1 0x3 NOT CALLDATASIZE ADD SLT PUSH2 0x1D2 JUMPI PUSH1 0x20 SWAP1 PUSH1 0x1 SLOAD SWAP1 MLOAD SWAP1 DUP2 MSTORE RETURN JUMPDEST POP POP CALLVALUE PUSH2 0x1D2 JUMPI DUP2 PUSH1 0x3 NOT CALLDATASIZE ADD SLT PUSH2 0x1D2 JUMPI MLOAD PUSH32 0x0 PUSH1 0x1 PUSH1 0x1 PUSH1 0xA0 SHL SUB AND DUP2 MSTORE PUSH1 0x20 SWAP1 RETURN JUMPDEST POP POP CALLVALUE PUSH2 0x1D2 JUMPI DUP2 PUSH1 0x3 NOT CALLDATASIZE ADD SLT PUSH2 0x1D2 JUMPI PUSH1 0x9 SLOAD SWAP1 MLOAD PUSH1 0x1 PUSH1 0x1 PUSH1 0xA0 SHL SUB SWAP1 SWAP2 AND DUP2 MSTORE PUSH1 0x20 SWAP1 RETURN JUMPDEST POP POP CALLVALUE PUSH2 0x1D2 JUMPI DUP2 PUSH1 0x3 NOT CALLDATASIZE ADD SLT PUSH2 0x1D2 JUMPI PUSH1 0x20 SWAP1 PUSH1 0xFF PUSH1 0x8 SLOAD PUSH1 0xA0 SHR AND SWAP1 MLOAD SWAP1 ISZERO ISZERO DUP2 MSTORE RETURN JUMPDEST DUP5 SWAP1 CALLVALUE PUSH2 0x1D2 JUMPI DUP2 PUSH1 0x3 NOT CALLDATASIZE ADD SLT PUSH2 0x1D2 JUMPI PUSH1 0x7 SLOAD PUSH1 0x1 PUSH1 0x1 PUSH1 0xA0 SHL SUB AND DUP2 MSTORE PUSH1 0x20 SWAP1 RETURN JUMPDEST PUSH1 0x4 CALLDATALOAD SWAP1 PUSH1 0x1 PUSH1 0x1 PUSH1 0xA0 SHL SUB DUP3 AND DUP3 SUB PUSH2 0x12DF JUMPI JUMP JUMPDEST PUSH1 0x0 DUP1 REVERT JUMPDEST PUSH1 0x40 SWAP1 PUSH1 0x3 NOT ADD SLT PUSH2 0x12DF JUMPI PUSH1 0x4 CALLDATALOAD SWAP1 PUSH1 0x24 CALLDATALOAD SWAP1 JUMP JUMPDEST DUP2 DUP2 MUL SWAP3 SWAP2 DUP2 ISZERO SWAP2 DUP5 DIV EQ OR ISZERO PUSH2 0x130D JUMPI JUMP JUMPDEST PUSH4 0x4E487B71 PUSH1 0xE0 SHL PUSH1 0x0 MSTORE PUSH1 0x11 PUSH1 0x4 MSTORE PUSH1 0x24 PUSH1 0x0 REVERT JUMPDEST DUP2 ISZERO PUSH2 0x132D JUMPI DIV SWAP1 JUMP JUMPDEST PUSH4 0x4E487B71 PUSH1 0xE0 SHL PUSH1 0x0 MSTORE PUSH1 0x12 PUSH1 0x4 MSTORE PUSH1 0x24 PUSH1 0x0 REVERT JUMPDEST PUSH1 0x6 SLOAD DUP1 ISZERO PUSH2 0x137E JUMPI PUSH1 0x2 SLOAD PUSH2 0x2710 SWAP2 DUP3 DUP3 MUL SWAP2 DUP1 DUP4 DIV DUP5 EQ SWAP1 ISZERO OR ISZERO PUSH2 0x130D JUMPI PUSH2 0x136D SWAP2 PUSH2 0x1323 JUMP JUMPDEST SWAP1 DUP1 DUP3 GT PUSH2 0x1379 JUMPI POP SWAP1 JUMP JUMPDEST SWAP1 POP SWAP1 JUMP JUMPDEST POP PUSH1 0x0 SWAP1 JUMP JUMPDEST ISZERO PUSH2 0x138B JUMPI JUMP JUMPDEST PUSH1 0x40 MLOAD PUSH3 0x461BCD PUSH1 0xE5 SHL DUP2 MSTORE PUSH1 0x20 PUSH1 0x4 DUP3 ADD MSTORE PUSH1 0xC PUSH1 0x24 DUP3 ADD MSTORE PUSH12 0x6F6E6C7920666163746F7279 PUSH1 0xA0 SHL PUSH1 0x44 DUP3 ADD MSTORE PUSH1 0x64 SWAP1 REVERT JUMPDEST ISZERO PUSH2 0x13C6 JUMPI JUMP JUMPDEST PUSH1 0x40 MLOAD PUSH3 0x461BCD PUSH1 0xE5 SHL DUP2 MSTORE PUSH1 0x20 PUSH1 0x4 DUP3 ADD MSTORE PUSH1 0xC PUSH1 0x24 DUP3 ADD MSTORE PUSH12 0xCCCACA40E8DEDE40D0D2CED PUSH1 0xA3 SHL PUSH1 0x44 DUP3 ADD MSTORE PUSH1 0x64 SWAP1 REVERT JUMPDEST SWAP2 SWAP1 DUP3 ADD DUP1 SWAP3 GT PUSH2 0x130D JUMPI JUMP JUMPDEST PUSH2 0x1416 PUSH1 0x3 SLOAD PUSH1 0x5 SLOAD SWAP1 PUSH2 0x13FA JUMP JUMPDEST DUP1 ISZERO PUSH2 0x137E JUMPI PUSH2 0x142B PUSH1 0x2 SLOAD PUSH1 0x4 SLOAD SWAP1 PUSH2 0x13FA JUMP JUMPDEST SWAP1 PUSH5 0xE8D4A51000 SWAP2 DUP3 DUP2 MUL SWAP3 DUP2 DUP5 DIV EQ DUP2 ISZERO OR ISZERO PUSH2 0x130D JUMPI PUSH13 0xC9F2C9CD04674EDEA40000000 MUL SWAP2 DUP1 DUP4 DIV PUSH8 0xDE0B6B3A7640000 EQ SWAP1 ISZERO OR ISZERO PUSH2 0x130D JUMPI PUSH2 0x1471 SWAP2 PUSH2 0x1323 JUMP JUMPDEST SWAP1 JUMP JUMPDEST ISZERO PUSH2 0x147B JUMPI JUMP JUMPDEST PUSH1 0x40 MLOAD PUSH3 0x461BCD PUSH1 0xE5 SHL DUP2 MSTORE PUSH1 0x20 PUSH1 0x4 DUP3 ADD MSTORE PUSH1 0xA PUSH1 0x24 DUP3 ADD MSTORE PUSH10 0x7265656E7472616E6379 PUSH1 0xB0 SHL PUSH1 0x44 DUP3 ADD MSTORE PUSH1 0x64 SWAP1 REVERT JUMPDEST ISZERO PUSH2 0x14B4 JUMPI JUMP JUMPDEST PUSH1 0x40 MLOAD PUSH3 0x461BCD PUSH1 0xE5 SHL DUP2 MSTORE PUSH1 0x20 PUSH1 0x4 DUP3 ADD MSTORE PUSH1 0xF PUSH1 0x24 DUP3 ADD MSTORE PUSH15 0x1C1BDBDB081B9BDD081CD959591959 PUSH1 0x8A SHL PUSH1 0x44 DUP3 ADD MSTORE PUSH1 0x64 SWAP1 REVERT JUMPDEST ISZERO PUSH2 0x14F2 JUMPI JUMP JUMPDEST PUSH1 0x40 MLOAD PUSH3 0x461BCD PUSH1 0xE5 SHL DUP2 MSTORE PUSH1 0x20 PUSH1 0x4 DUP3 ADD MSTORE PUSH1 0x11 PUSH1 0x24 DUP3 ADD MSTORE PUSH17 0x185B1C9958591E4819DC98591D585D1959 PUSH1 0x7A SHL PUSH1 0x44 DUP3 ADD MSTORE PUSH1 0x64 SWAP1 REVERT JUMPDEST SWAP2 SWAP1 DUP3 SUB SWAP2 DUP3 GT PUSH2 0x130D JUMPI JUMP JUMPDEST PUSH1 0x8 SLOAD PUSH1 0xFF DUP2 PUSH1 0xA8 SHR AND ISZERO SWAP1 DUP2 ISZERO PUSH2 0x158D JUMPI JUMPDEST POP DUP1 ISZERO PUSH2 0x1585 JUMPI JUMPDEST PUSH2 0x157C JUMPI PUSH2 0x1579 PUSH2 0x1574 PUSH2 0x2710 PUSH2 0x156C PUSH1 0x1 SLOAD DUP6 PUSH2 0x12FA JUMP JUMPDEST DIV DUP1 SWAP4 PUSH2 0x152B JUMP JUMPDEST PUSH2 0x1F6A JUMP JUMPDEST SWAP2 JUMP JUMPDEST POP PUSH1 0x0 SWAP1 PUSH1 0x0 SWAP1 JUMP JUMPDEST POP DUP1 ISZERO PUSH2 0x1553 JUMP JUMPDEST PUSH1 0xFF SWAP2 POP PUSH1 0xB0 SHR AND CODESIZE PUSH2 0x154B JUMP JUMPDEST ISZERO PUSH2 0x15A2 JUMPI JUMP JUMPDEST PUSH1 0x40 MLOAD PUSH3 0x461BCD PUSH1 0xE5 SHL DUP2 MSTORE PUSH1 0x20 PUSH1 0x4 DUP3 ADD MSTORE PUSH1 0x9 PUSH1 0x24 DUP3 ADD MSTORE PUSH9 0x19DC98591D585D1959 PUSH1 0xBA SHL PUSH1 0x44 DUP3 ADD MSTORE PUSH1 0x64 SWAP1 REVERT JUMPDEST ISZERO PUSH2 0x15DA JUMPI JUMP JUMPDEST PUSH1 0x40 MLOAD PUSH3 0x461BCD PUSH1 0xE5 SHL DUP2 MSTORE PUSH1 0x20 PUSH1 0x4 DUP3 ADD MSTORE PUSH1 0x13 PUSH1 0x24 DUP3 ADD MSTORE PUSH19 0x1A5B9CDD59999A58DA595B9D081BDD5D1C1D5D PUSH1 0x6A SHL PUSH1 0x44 DUP3 ADD MSTORE PUSH1 0x64 SWAP1 REVERT JUMPDEST ISZERO PUSH2 0x161C JUMPI JUMP JUMPDEST PUSH1 0x40 MLOAD PUSH3 0x461BCD PUSH1 0xE5 SHL DUP2 MSTORE PUSH1 0x20 PUSH1 0x4 DUP3 ADD MSTORE PUSH1 0x8 PUSH1 0x24 DUP3 ADD MSTORE PUSH8 0x736C697070616765 PUSH1 0xC0 SHL PUSH1 0x44 DUP3 ADD MSTORE PUSH1 0x64 SWAP1 REVERT JUMPDEST SWAP1 PUSH1 0x1F DUP1 NOT SWAP2 ADD AND DUP2 ADD SWAP1 DUP2 LT PUSH8 0xFFFFFFFFFFFFFFFF DUP3 GT OR PUSH2 0x166E JUMPI PUSH1 0x40 MSTORE JUMP JUMPDEST PUSH4 0x4E487B71 PUSH1 0xE0 SHL PUSH1 0x0 MSTORE PUSH1 0x41 PUSH1 0x4 MSTORE PUSH1 0x24 PUSH1 0x0 REVERT JUMPDEST SWAP1 DUP2 PUSH1 0x20 SWAP2 SUB SLT PUSH2 0x12DF JUMPI MLOAD DUP1 ISZERO ISZERO DUP2 SUB PUSH2 0x12DF JUMPI SWAP1 JUMP JUMPDEST ISZERO PUSH2 0x16A3 JUMPI JUMP JUMPDEST PUSH1 0x40 MLOAD PUSH3 0x461BCD PUSH1 0xE5 SHL DUP2 MSTORE PUSH1 0x20 PUSH1 0x4 DUP3 ADD MSTORE PUSH1 0x15 PUSH1 0x24 DUP3 ADD MSTORE PUSH21 0x1C5D5BDD19481D1C985B9CD9995C8819985A5B1959 PUSH1 0x5A SHL PUSH1 0x44 DUP3 ADD MSTORE PUSH1 0x64 SWAP1 REVERT JUMPDEST ISZERO PUSH2 0x16E7 JUMPI JUMP JUMPDEST PUSH1 0x40 MLOAD PUSH3 0x461BCD PUSH1 0xE5 SHL DUP2 MSTORE PUSH1 0x20 PUSH1 0x4 DUP3 ADD MSTORE PUSH1 0x13 PUSH1 0x24 DUP3 ADD MSTORE PUSH19 0x199959481D1C985B9CD9995C8819985A5B1959 PUSH1 0x6A SHL PUSH1 0x44 DUP3 ADD MSTORE PUSH1 0x64 SWAP1 REVERT JUMPDEST ISZERO PUSH2 0x1729 JUMPI JUMP JUMPDEST PUSH1 0x40 MLOAD PUSH3 0x461BCD PUSH1 0xE5 SHL DUP2 MSTORE PUSH1 0x20 PUSH1 0x4 DUP3 ADD MSTORE PUSH1 0x15 PUSH1 0x24 DUP3 ADD MSTORE PUSH21 0x1D1BDAD95B881D1C985B9CD9995C8819985A5B1959 PUSH1 0x5A SHL PUSH1 0x44 DUP3 ADD MSTORE PUSH1 0x64 SWAP1 REVERT JUMPDEST ISZERO PUSH2 0x176D JUMPI JUMP JUMPDEST PUSH1 0x40 MLOAD PUSH3 0x461BCD PUSH1 0xE5 SHL DUP2 MSTORE PUSH1 0x20 PUSH1 0x4 DUP3 ADD MSTORE PUSH1 0xF PUSH1 0x24 DUP3 ADD MSTORE PUSH15 0x1D185C99D95D081C995C5D5A5C9959 PUSH1 0x8A SHL PUSH1 0x44 DUP3 ADD MSTORE PUSH1 0x64 SWAP1 REVERT JUMPDEST ISZERO PUSH2 0x17AB JUMPI JUMP JUMPDEST PUSH1 0x40 MLOAD PUSH3 0x461BCD PUSH1 0xE5 SHL DUP2 MSTORE PUSH1 0x20 PUSH1 0x4 DUP3 ADD MSTORE PUSH1 0x15 PUSH1 0x24 DUP3 ADD MSTORE PUSH21 0x1B1C081C9958DA5C1A595B9D081C995C5D5A5C9959 PUSH1 0x5A SHL PUSH1 0x44 DUP3 ADD MSTORE PUSH1 0x64 SWAP1 REVERT JUMPDEST ISZERO PUSH2 0x17EF JUMPI JUMP JUMPDEST PUSH1 0x40 MLOAD PUSH3 0x461BCD PUSH1 0xE5 SHL DUP2 MSTORE PUSH1 0x20 PUSH1 0x4 DUP3 ADD MSTORE PUSH1 0x15 PUSH1 0x24 DUP3 ADD MSTORE PUSH21 0x1D1BDAD95B88185B5BDD5B9D081C995C5D5A5C9959 PUSH1 0x5A SHL PUSH1 0x44 DUP3 ADD MSTORE PUSH1 0x64 SWAP1 REVERT JUMPDEST PUSH1 0x8 SLOAD PUSH1 0xFF DUP2 PUSH1 0xA8 SHR AND ISZERO SWAP1 DUP2 ISZERO PUSH2 0x187C JUMPI JUMPDEST POP DUP1 ISZERO PUSH2 0x1874 JUMPI JUMPDEST PUSH2 0x157C JUMPI PUSH2 0x1854 SWAP1 PUSH2 0x1FF1 JUMP JUMPDEST DUP1 ISZERO PUSH2 0x157C JUMPI PUSH2 0x1579 PUSH2 0x2710 PUSH2 0x186C PUSH1 0x1 SLOAD DUP5 PUSH2 0x12FA JUMP JUMPDEST DIV DUP1 SWAP3 PUSH2 0x152B JUMP JUMPDEST POP DUP1 ISZERO PUSH2 0x1847 JUMP JUMPDEST PUSH1 0xFF SWAP2 POP PUSH1 0xB0 SHR AND CODESIZE PUSH2 0x183F JUMP JUMPDEST PUSH1 0x7 SLOAD PUSH1 0x1 PUSH1 0x1 PUSH1 0xA0 SHL SUB AND DUP1 ISZERO PUSH2 0x1F30 JUMPI PUSH1 0x1 PUSH1 0xB0 SHL PUSH1 0xFF PUSH1 0xB0 SHL NOT PUSH1 0x8 SLOAD AND OR PUSH1 0x8 SSTORE TIMESTAMP PUSH1 0xA SSTORE PUSH1 0x3 SLOAD PUSH1 0x2 SLOAD PUSH1 0x0 PUSH1 0x3 SSTORE PUSH1 0x0 PUSH1 0x2 SSTORE PUSH1 0x40 MLOAD SWAP3 PUSH4 0x95EA7B3 PUSH1 0xE0 SHL SWAP1 DUP2 DUP6 MSTORE PUSH1 0x4 DUP6 ADD MSTORE PUSH1 0x0 PUSH1 0x24 DUP6 ADD MSTORE PUSH1 0x44 SWAP4 PUSH1 0x20 DUP2 DUP7 DUP2 PUSH1 0x0 PUSH1 0x1 DUP1 PUSH1 0xA0 SHL SUB PUSH32 0x0 AND GAS CALL DUP1 ISZERO PUSH2 0x1D4B JUMPI PUSH2 0x1F11 JUMPI JUMPDEST POP PUSH1 0x7 SLOAD PUSH1 0x40 MLOAD DUP3 DUP2 MSTORE PUSH1 0x1 PUSH1 0x1 PUSH1 0xA0 SHL SUB SWAP1 SWAP2 AND PUSH1 0x4 DUP3 ADD MSTORE PUSH1 0x24 DUP2 ADD DUP5 SWAP1 MSTORE PUSH1 0x20 DUP2 DUP1 PUSH1 0x44 DUP2 ADD SUB DUP2 PUSH1 0x0 PUSH32 0x0 PUSH1 0x1 PUSH1 0x1 PUSH1 0xA0 SHL SUB AND GAS CALL DUP1 ISZERO PUSH2 0x1D4B JUMPI PUSH2 0x1EF2 JUMPI JUMPDEST POP PUSH1 0x7 SLOAD PUSH1 0x40 MLOAD DUP3 DUP2 MSTORE PUSH1 0x1 PUSH1 0x1 PUSH1 0xA0 SHL SUB SWAP2 DUP3 AND PUSH1 0x4 DUP3 ADD MSTORE PUSH1 0x0 PUSH1 0x24 DUP3 ADD DUP2 SWAP1 MSTORE SWAP1 SWAP3 SWAP2 PUSH1 0x20 SWAP2 DUP5 SWAP2 DUP9 SWAP2 DUP4 SWAP2 PUSH32 0x0 AND GAS CALL SWAP1 DUP2 ISZERO PUSH2 0x1D4B JUMPI DUP4 SWAP3 PUSH1 0x20 SWAP3 PUSH2 0x1ED5 JUMPI JUMPDEST POP PUSH1 0x7 SLOAD PUSH1 0x40 MLOAD SWAP2 DUP3 MSTORE PUSH1 0x1 PUSH1 0x1 PUSH1 0xA0 SHL SUB AND PUSH1 0x4 DUP3 ADD MSTORE PUSH1 0x24 DUP2 ADD SWAP3 SWAP1 SWAP3 MSTORE DUP2 DUP1 PUSH1 0x44 DUP2 ADD SUB DUP2 PUSH1 0x0 PUSH32 0x0 PUSH1 0x1 PUSH1 0x1 PUSH1 0xA0 SHL SUB AND GAS CALL DUP1 ISZERO PUSH2 0x1D4B JUMPI PUSH2 0x1EB6 JUMPI JUMPDEST POP PUSH1 0x7 SLOAD PUSH1 0x8 SLOAD PUSH1 0x1 PUSH1 0x1 PUSH1 0xA0 SHL SUB SWAP2 DUP3 AND SWAP5 SWAP2 AND TIMESTAMP PUSH2 0xE10 DUP2 ADD SWAP1 DUP2 LT PUSH2 0x130D JUMPI PUSH2 0x104 PUSH1 0x60 SWAP3 PUSH1 0x0 PUSH1 0x40 MLOAD SWAP9 DUP10 SWAP5 DUP6 SWAP4 PUSH3 0xE8E337 PUSH1 0xE8 SHL DUP6 MSTORE PUSH1 0x1 DUP1 PUSH1 0xA0 SHL SUB PUSH32 0x0 AND PUSH1 0x4 DUP7 ADD MSTORE PUSH1 0x1 DUP1 PUSH1 0xA0 SHL SUB PUSH32 0x0 AND PUSH1 0x24 DUP7 ADD MSTORE DUP11 DUP10 DUP7 ADD MSTORE DUP10 PUSH1 0x64 DUP7 ADD MSTORE DUP4 PUSH1 0x84 DUP7 ADD MSTORE DUP4 PUSH1 0xA4 DUP7 ADD MSTORE PUSH1 0xC4 DUP6 ADD MSTORE PUSH1 0xE4 DUP5 ADD MSTORE GAS CALL SWAP2 DUP3 ISZERO PUSH2 0x1D4B JUMPI PUSH1 0x0 SWAP4 PUSH1 0x0 SWAP6 PUSH1 0x0 SWAP5 PUSH2 0x1E70 JUMPI JUMPDEST POP PUSH1 0x7 SLOAD PUSH1 0x40 MLOAD PUSH4 0xC45A0155 PUSH1 0xE0 SHL DUP2 MSTORE SWAP1 PUSH1 0x20 SWAP1 DUP3 SWAP1 PUSH1 0x4 SWAP1 DUP3 SWAP1 PUSH1 0x1 PUSH1 0x1 PUSH1 0xA0 SHL SUB AND GAS STATICCALL SWAP1 DUP2 ISZERO PUSH2 0x1D4B JUMPI DUP5 SWAP2 PUSH1 0x20 SWAP2 PUSH1 0x0 SWAP2 PUSH2 0x1E53 JUMPI JUMPDEST POP PUSH1 0x40 MLOAD PUSH4 0xE6A43905 PUSH1 0xE0 SHL DUP2 MSTORE PUSH1 0x1 PUSH1 0x1 PUSH1 0xA0 SHL SUB PUSH32 0x0 DUP2 AND PUSH1 0x4 DUP4 ADD MSTORE PUSH32 0x0 DUP2 AND PUSH1 0x24 DUP4 ADD MSTORE SWAP1 SWAP4 DUP5 SWAP3 SWAP1 SWAP2 DUP4 SWAP2 AND GAS STATICCALL SWAP1 DUP2 ISZERO PUSH2 0x1D4B JUMPI PUSH1 0x0 SWAP2 PUSH2 0x1E24 JUMPI JUMPDEST POP PUSH1 0x1 DUP1 PUSH1 0xA0 SHL SUB AND PUSH12 0xFFFFFFFFFFFFFFFFFFFFFFFF PUSH1 0xA0 SHL PUSH1 0x9 SLOAD AND OR PUSH1 0x9 SSTORE DUP5 DUP2 GT PUSH2 0x1D57 JUMPI JUMPDEST POP DUP5 DUP2 GT PUSH2 0x1C50 JUMPI JUMPDEST POP POP PUSH32 0x71AA8C3702DBBC54247A4E6446450E64A46250DD72707A247DDB01D72EAEF445 SWAP2 PUSH1 0x80 SWAP2 PUSH1 0x1 DUP1 PUSH1 0xA0 SHL SUB PUSH1 0x9 SLOAD AND SWAP5 PUSH1 0x40 MLOAD SWAP3 DUP4 MSTORE PUSH1 0x20 DUP4 ADD MSTORE PUSH1 0x40 DUP3 ADD MSTORE TIMESTAMP PUSH1 0x60 DUP3 ADD MSTORE LOG2 JUMP JUMPDEST PUSH1 0x0 SLOAD PUSH2 0x1C9D SWAP2 PUSH1 0x20 SWAP2 PUSH1 0x1 PUSH1 0x1 PUSH1 0xA0 SHL SUB AND SWAP1 PUSH2 0x1C6F SWAP1 DUP9 SWAP1 PUSH2 0x152B JUMP JUMPDEST PUSH1 0x40 MLOAD PUSH4 0xA9059CBB PUSH1 0xE0 SHL DUP2 MSTORE PUSH1 0x1 PUSH1 0x1 PUSH1 0xA0 SHL SUB SWAP1 SWAP3 AND PUSH1 0x4 DUP4 ADD MSTORE PUSH1 0x24 DUP3 ADD MSTORE SWAP2 DUP3 SWAP1 DUP2 SWAP1 PUSH1 0x44 DUP3 ADD SWAP1 JUMP JUMPDEST SUB DUP2 PUSH1 0x0 PUSH32 0x0 PUSH1 0x1 PUSH1 0x1 PUSH1 0xA0 SHL SUB AND GAS CALL SWAP1 DUP2 ISZERO PUSH2 0x1D4B JUMPI PUSH1 0x0 SWAP2 PUSH2 0x1D2C JUMPI JUMPDEST POP ISZERO PUSH2 0x1CE8 JUMPI DUP1 PUSH2 0x1C04 JUMP JUMPDEST PUSH1 0x64 SWAP1 PUSH32 0x71756F74652064757374207472616E73666572206661696C6564000000000000 PUSH1 0x40 MLOAD SWAP2 PUSH3 0x461BCD PUSH1 0xE5 SHL DUP4 MSTORE PUSH1 0x20 PUSH1 0x4 DUP5 ADD MSTORE PUSH1 0x1A PUSH1 0x24 DUP5 ADD MSTORE DUP3 ADD MSTORE REVERT JUMPDEST PUSH2 0x1D45 SWAP2 POP PUSH1 0x20 RETURNDATASIZE PUSH1 0x20 GT PUSH2 0x54C JUMPI PUSH2 0x53E DUP2 DUP4 PUSH2 0x164C JUMP JUMPDEST CODESIZE PUSH2 0x1CDC JUMP JUMPDEST PUSH1 0x40 MLOAD RETURNDATASIZE PUSH1 0x0 DUP3 RETURNDATACOPY RETURNDATASIZE SWAP1 REVERT JUMPDEST PUSH1 0x0 SLOAD PUSH2 0x1D76 SWAP2 PUSH1 0x20 SWAP2 PUSH1 0x1 PUSH1 0x1 PUSH1 0xA0 SHL SUB AND SWAP1 PUSH2 0x1C6F SWAP1 DUP9 SWAP1 PUSH2 0x152B JUMP JUMPDEST SUB DUP2 PUSH1 0x0 PUSH32 0x0 PUSH1 0x1 PUSH1 0x1 PUSH1 0xA0 SHL SUB AND GAS CALL SWAP1 DUP2 ISZERO PUSH2 0x1D4B JUMPI PUSH1 0x0 SWAP2 PUSH2 0x1E05 JUMPI JUMPDEST POP ISZERO PUSH2 0x1DC1 JUMPI CODESIZE PUSH2 0x1BFB JUMP JUMPDEST PUSH1 0x40 MLOAD PUSH3 0x461BCD PUSH1 0xE5 SHL DUP2 MSTORE PUSH1 0x20 PUSH1 0x4 DUP3 ADD MSTORE PUSH1 0x1A PUSH1 0x24 DUP3 ADD MSTORE PUSH32 0x746F6B656E2064757374207472616E73666572206661696C6564000000000000 DUP2 DUP5 ADD MSTORE PUSH1 0x64 SWAP1 REVERT JUMPDEST PUSH2 0x1E1E SWAP2 POP PUSH1 0x20 RETURNDATASIZE PUSH1 0x20 GT PUSH2 0x54C JUMPI PUSH2 0x53E DUP2 DUP4 PUSH2 0x164C JUMP JUMPDEST CODESIZE PUSH2 0x1DB5 JUMP JUMPDEST PUSH2 0x1E46 SWAP2 POP PUSH1 0x20 RETURNDATASIZE PUSH1 0x20 GT PUSH2 0x1E4C JUMPI JUMPDEST PUSH2 0x1E3E DUP2 DUP4 PUSH2 0x164C JUMP JUMPDEST DUP2 ADD SWAP1 PUSH2 0x2022 JUMP JUMPDEST CODESIZE PUSH2 0x1BD2 JUMP JUMPDEST POP RETURNDATASIZE PUSH2 0x1E34 JUMP JUMPDEST PUSH2 0x1E6A SWAP2 POP DUP3 RETURNDATASIZE DUP5 GT PUSH2 0x1E4C JUMPI PUSH2 0x1E3E DUP2 DUP4 PUSH2 0x164C JUMP JUMPDEST CODESIZE PUSH2 0x1B52 JUMP JUMPDEST SWAP5 POP SWAP3 POP SWAP4 POP PUSH1 0x60 DUP4 RETURNDATASIZE PUSH1 0x60 GT PUSH2 0x1EAE JUMPI JUMPDEST DUP2 PUSH2 0x1E8F PUSH1 0x60 SWAP4 DUP4 PUSH2 0x164C JUMP JUMPDEST DUP2 ADD SUB SLT PUSH2 0x12DF JUMPI DUP3 MLOAD SWAP4 PUSH1 0x40 PUSH1 0x20 DUP6 ADD MLOAD SWAP5 ADD MLOAD SWAP5 SWAP4 SWAP5 SWAP3 CODESIZE PUSH2 0x1B17 JUMP JUMPDEST RETURNDATASIZE SWAP2 POP PUSH2 0x1E82 JUMP JUMPDEST PUSH2 0x1ECE SWAP1 PUSH1 0x20 RETURNDATASIZE PUSH1 0x20 GT PUSH2 0x54C JUMPI PUSH2 0x53E DUP2 DUP4 PUSH2 0x164C JUMP JUMPDEST POP CODESIZE PUSH2 0x1A48 JUMP JUMPDEST PUSH2 0x1EEB SWAP1 DUP4 RETURNDATASIZE DUP6 GT PUSH2 0x54C JUMPI PUSH2 0x53E DUP2 DUP4 PUSH2 0x164C JUMP JUMPDEST POP CODESIZE PUSH2 0x19E7 JUMP JUMPDEST PUSH2 0x1F0A SWAP1 PUSH1 0x20 RETURNDATASIZE PUSH1 0x20 GT PUSH2 0x54C JUMPI PUSH2 0x53E DUP2 DUP4 PUSH2 0x164C JUMP JUMPDEST POP CODESIZE PUSH2 0x1983 JUMP JUMPDEST PUSH2 0x1F29 SWAP1 PUSH1 0x20 RETURNDATASIZE PUSH1 0x20 GT PUSH2 0x54C JUMPI PUSH2 0x53E DUP2 DUP4 PUSH2 0x164C JUMP JUMPDEST POP CODESIZE PUSH2 0x191F JUMP JUMPDEST PUSH1 0x40 MLOAD PUSH3 0x461BCD PUSH1 0xE5 SHL DUP2 MSTORE PUSH1 0x20 PUSH1 0x4 DUP3 ADD MSTORE PUSH1 0x12 PUSH1 0x24 DUP3 ADD MSTORE PUSH18 0x19195E081C9BDD5D195C881B9BDD081CD95D PUSH1 0x72 SHL PUSH1 0x44 DUP3 ADD MSTORE PUSH1 0x64 SWAP1 REVERT JUMPDEST DUP1 ISZERO PUSH2 0x137E JUMPI PUSH2 0x1F7F PUSH1 0x2 SLOAD PUSH1 0x4 SLOAD SWAP1 PUSH2 0x13FA JUMP JUMPDEST SWAP1 PUSH2 0x1FAD PUSH1 0x3 SLOAD SWAP3 PUSH2 0x1FA7 PUSH2 0x1F96 PUSH1 0x5 SLOAD DUP7 PUSH2 0x13FA JUMP JUMPDEST SWAP4 PUSH2 0x1FA1 DUP6 DUP5 PUSH2 0x12FA JUMP JUMPDEST SWAP3 PUSH2 0x13FA JUMP JUMPDEST SWAP1 PUSH2 0x1323 JUMP JUMPDEST DUP1 DUP3 GT ISZERO PUSH2 0x1FBE JUMPI PUSH2 0x136D SWAP2 PUSH2 0x152B JUMP JUMPDEST POP POP POP PUSH1 0x0 SWAP1 JUMP JUMPDEST PUSH1 0xFF PUSH1 0x8 SLOAD PUSH1 0xB0 SHR AND DUP1 ISZERO PUSH2 0x1FE4 JUMPI JUMPDEST PUSH2 0x1FE2 JUMPI PUSH2 0x1FE2 PUSH2 0x188A JUMP JUMPDEST JUMP JUMPDEST POP PUSH1 0x2 SLOAD PUSH1 0x6 SLOAD GT PUSH2 0x1FD6 JUMP JUMPDEST PUSH1 0x2 SLOAD SWAP1 PUSH2 0x1FAD PUSH2 0x2004 PUSH1 0x4 SLOAD DUP5 PUSH2 0x13FA JUMP JUMPDEST SWAP2 PUSH2 0x1FA7 PUSH2 0x2017 PUSH1 0x3 SLOAD PUSH1 0x5 SLOAD SWAP1 PUSH2 0x13FA JUMP JUMPDEST SWAP2 PUSH2 0x1FA1 DUP4 DUP7 PUSH2 0x12FA JUMP JUMPDEST SWAP1 DUP2 PUSH1 0x20 SWAP2 SUB SLT PUSH2 0x12DF JUMPI MLOAD PUSH1 0x1 PUSH1 0x1 PUSH1 0xA0 SHL SUB DUP2 AND DUP2 SUB PUSH2 0x12DF JUMPI SWAP1 JUMP INVALID LOG2 PUSH5 0x6970667358 0x22 SLT KECCAK256 SIGNEXTEND ADD 0xD6 0xDA ADDRESS 0xD4 0xBA CODESIZE 0xD1 PUSH22 0xAD52E96D41A1E84E2F7BDD4B29FB4B59F80142F1C3A9 PUSH5 0x736F6C6343 STOP ADDMOD XOR STOP CALLER PUSH1 0x40 PUSH2 0x140 DUP2 MSTORE CALLVALUE PUSH3 0x60D JUMPI PUSH3 0x1808 DUP1 CODESIZE SUB DUP1 PUSH3 0x1F DUP2 PUSH3 0x612 JUMP JUMPDEST SWAP3 DUP4 CODECOPY DUP2 ADD SWAP2 PUSH1 0xE0 DUP3 DUP5 SUB SLT PUSH3 0x60D JUMPI DUP2 MLOAD PUSH1 0x1 PUSH1 0x1 PUSH1 0x40 SHL SUB SWAP1 DUP2 DUP2 GT PUSH3 0x60D JUMPI DUP5 PUSH3 0x51 SWAP2 DUP6 ADD PUSH3 0x638 JUMP JUMPDEST SWAP4 PUSH1 0x20 SWAP1 DUP2 DUP6 ADD MLOAD SWAP1 DUP4 DUP3 GT PUSH3 0x60D JUMPI PUSH3 0x6F SWAP2 DUP7 ADD PUSH3 0x638 JUMP JUMPDEST SWAP1 DUP4 DUP6 ADD MLOAD SWAP5 PUSH3 0x83 PUSH1 0x60 DUP3 ADD PUSH3 0x6AA JUMP JUMPDEST PUSH3 0x91 PUSH1 0x80 DUP4 ADD PUSH3 0x6AA JUMP JUMPDEST SWAP1 PUSH1 0xC0 PUSH3 0xA2 PUSH1 0xA0 DUP6 ADD PUSH3 0x6AA JUMP JUMPDEST SWAP4 ADD MLOAD SWAP9 DUP1 MLOAD ISZERO PUSH3 0x5D9 JUMPI DUP6 MLOAD ISZERO PUSH3 0x5A3 JUMPI DUP9 ISZERO PUSH3 0x56D JUMPI PUSH1 0x1 PUSH1 0x1 PUSH1 0xA0 SHL SUB DUP3 DUP2 AND SWAP8 SWAP1 DUP9 ISZERO PUSH3 0x536 JUMPI DUP1 DUP6 AND ISZERO PUSH3 0x4FF JUMPI DUP6 AND ISZERO PUSH3 0x4C7 JUMPI PUSH2 0x3E8 DUP12 GT PUSH3 0x48E JUMPI DUP2 MLOAD DUP2 DUP2 GT PUSH3 0x478 JUMPI PUSH1 0x0 SWAP8 DUP9 SLOAD SWAP2 PUSH1 0x1 SWAP5 DUP6 DUP5 DUP2 SHR SWAP5 AND DUP1 ISZERO PUSH3 0x46D JUMPI JUMPDEST DUP11 DUP6 LT EQ PUSH3 0x459 JUMPI DUP2 SWAP1 PUSH1 0x1F SWAP5 DUP6 DUP2 GT PUSH3 0x406 JUMPI JUMPDEST POP DUP11 SWAP1 DUP6 DUP4 GT PUSH1 0x1 EQ PUSH3 0x3A1 JUMPI DUP13 SWAP3 PUSH3 0x395 JUMPI JUMPDEST POP POP PUSH1 0x0 NOT PUSH1 0x3 DUP4 SWAP1 SHL SHR NOT AND SWAP1 DUP6 SHL OR DUP10 SSTORE JUMPDEST DUP1 MLOAD SWAP3 DUP4 GT PUSH3 0x381 JUMPI DUP4 SLOAD DUP5 DUP2 DUP2 SHR SWAP2 AND DUP1 ISZERO PUSH3 0x376 JUMPI JUMPDEST DUP10 DUP3 LT EQ PUSH3 0x362 JUMPI SWAP1 DUP2 DUP4 DUP6 SWAP5 SWAP4 GT PUSH3 0x30D JUMPI JUMPDEST POP DUP9 SWAP2 DUP4 GT PUSH1 0x1 EQ PUSH3 0x2A9 JUMPI DUP10 SWAP3 PUSH3 0x29D JUMPI JUMPDEST POP POP PUSH1 0x0 NOT PUSH1 0x3 DUP4 SWAP1 SHL SHR NOT AND SWAP1 DUP3 SHL OR SWAP1 SSTORE JUMPDEST DUP8 PUSH1 0x2 SSTORE PUSH1 0x80 MSTORE PUSH1 0xA0 MSTORE PUSH1 0xC0 MSTORE DUP6 PUSH1 0xE0 MSTORE PUSH2 0xFA0 DUP1 DUP8 MUL SWAP1 DUP8 DUP3 DIV EQ DUP8 ISZERO OR ISZERO PUSH3 0x289 JUMPI PUSH2 0x2710 SWAP1 DIV SWAP5 PUSH2 0x120 SWAP6 DUP1 DUP8 MSTORE DUP8 SUB SWAP7 DUP8 GT PUSH3 0x289 JUMPI SWAP1 PUSH32 0xDDF252AD1BE2C89B69C2B068FC378DAA952BA7F163C4A11628F55A4DF523B3EF SWAP2 PUSH2 0x100 SWAP8 DUP9 MSTORE DUP5 DUP5 MSTORE PUSH1 0x6 DUP3 MSTORE DUP1 DUP7 DUP6 KECCAK256 SSTORE DUP6 MLOAD SWAP1 DUP2 MSTORE LOG3 MLOAD SWAP1 PUSH2 0x1148 SWAP3 DUP4 PUSH3 0x6C0 DUP5 CODECOPY PUSH1 0x80 MLOAD DUP4 DUP2 DUP2 PUSH2 0x243 ADD MSTORE DUP2 DUP2 PUSH2 0x30A ADD MSTORE PUSH2 0x366 ADD MSTORE PUSH1 0xA0 MLOAD DUP4 DUP2 DUP2 PUSH2 0x77D ADD MSTORE PUSH2 0xC8D ADD MSTORE PUSH1 0xC0 MLOAD DUP4 DUP2 DUP2 PUSH2 0x198 ADD MSTORE PUSH2 0x87A ADD MSTORE PUSH1 0xE0 MLOAD DUP4 DUP2 DUP2 PUSH2 0x64F ADD MSTORE PUSH2 0xEC8 ADD MSTORE MLOAD DUP3 DUP2 DUP2 PUSH2 0xAEC ADD MSTORE PUSH2 0xF06 ADD MSTORE MLOAD DUP2 PUSH2 0xA4E ADD MSTORE RETURN JUMPDEST PUSH4 0x4E487B71 PUSH1 0xE0 SHL DUP4 MSTORE PUSH1 0x11 PUSH1 0x4 MSTORE PUSH1 0x24 DUP4 REVERT JUMPDEST ADD MLOAD SWAP1 POP CODESIZE DUP1 PUSH3 0x193 JUMP JUMPDEST DUP5 DUP11 MSTORE DUP9 DUP11 KECCAK256 DUP6 SWAP5 POP SWAP2 SWAP1 PUSH1 0x1F NOT DUP5 AND DUP12 JUMPDEST DUP12 DUP3 DUP3 LT PUSH3 0x2F6 JUMPI POP POP DUP5 GT PUSH3 0x2DC JUMPI JUMPDEST POP POP POP DUP2 SHL ADD SWAP1 SSTORE PUSH3 0x1A7 JUMP JUMPDEST ADD MLOAD PUSH1 0x0 NOT PUSH1 0xF8 DUP5 PUSH1 0x3 SHL AND SHR NOT AND SWAP1 SSTORE CODESIZE DUP1 DUP1 PUSH3 0x2CE JUMP JUMPDEST DUP4 DUP6 ADD MLOAD DUP7 SSTORE DUP9 SWAP8 SWAP1 SWAP6 ADD SWAP5 SWAP4 DUP5 ADD SWAP4 ADD PUSH3 0x2BB JUMP JUMPDEST SWAP1 SWAP2 SWAP3 POP DUP5 DUP11 MSTORE DUP9 DUP11 KECCAK256 DUP4 DUP1 DUP7 ADD PUSH1 0x5 SHR DUP3 ADD SWAP3 DUP12 DUP8 LT PUSH3 0x358 JUMPI JUMPDEST SWAP2 DUP7 SWAP6 DUP9 SWAP3 SWAP6 SWAP5 SWAP4 ADD PUSH1 0x5 SHR ADD SWAP2 JUMPDEST DUP3 DUP2 LT PUSH3 0x349 JUMPI POP POP PUSH3 0x17E JUMP JUMPDEST DUP13 DUP2 SSTORE DUP7 SWAP6 POP DUP8 SWAP2 ADD PUSH3 0x339 JUMP JUMPDEST SWAP3 POP DUP2 SWAP3 PUSH3 0x32A JUMP JUMPDEST PUSH4 0x4E487B71 PUSH1 0xE0 SHL DUP11 MSTORE PUSH1 0x22 PUSH1 0x4 MSTORE PUSH1 0x24 DUP11 REVERT JUMPDEST SWAP1 PUSH1 0x7F AND SWAP1 PUSH3 0x168 JUMP JUMPDEST PUSH4 0x4E487B71 PUSH1 0xE0 SHL DUP10 MSTORE PUSH1 0x41 PUSH1 0x4 MSTORE PUSH1 0x24 DUP10 REVERT JUMPDEST ADD MLOAD SWAP1 POP CODESIZE DUP1 PUSH3 0x13A JUMP JUMPDEST DUP13 DUP1 MSTORE DUP12 DUP14 KECCAK256 DUP9 SWAP5 POP SWAP2 SWAP1 PUSH1 0x1F NOT DUP5 AND DUP15 DUP15 JUMPDEST DUP3 DUP3 LT PUSH3 0x3EE JUMPI POP POP DUP5 GT PUSH3 0x3D4 JUMPI JUMPDEST POP POP POP DUP2 SHL ADD DUP10 SSTORE PUSH3 0x14E JUMP JUMPDEST ADD MLOAD PUSH1 0x0 NOT PUSH1 0xF8 DUP5 PUSH1 0x3 SHL AND SHR NOT AND SWAP1 SSTORE CODESIZE DUP1 DUP1 PUSH3 0x3C6 JUMP JUMPDEST DUP4 DUP6 ADD MLOAD DUP7 SSTORE DUP12 SWAP8 SWAP1 SWAP6 ADD SWAP5 SWAP4 DUP5 ADD SWAP4 ADD DUP15 PUSH3 0x3B4 JUMP JUMPDEST SWAP1 SWAP2 POP DUP12 DUP1 MSTORE DUP11 DUP13 KECCAK256 DUP6 DUP1 DUP6 ADD PUSH1 0x5 SHR DUP3 ADD SWAP3 DUP14 DUP7 LT PUSH3 0x44F JUMPI JUMPDEST SWAP2 DUP10 SWAP2 DUP7 SWAP6 SWAP5 SWAP4 ADD PUSH1 0x5 SHR ADD SWAP2 JUMPDEST DUP3 DUP2 LT PUSH3 0x440 JUMPI POP POP PUSH3 0x124 JUMP JUMPDEST DUP15 DUP2 SSTORE DUP6 SWAP5 POP DUP10 SWAP2 ADD PUSH3 0x430 JUMP JUMPDEST SWAP3 POP DUP2 SWAP3 PUSH3 0x422 JUMP JUMPDEST PUSH4 0x4E487B71 PUSH1 0xE0 SHL DUP12 MSTORE PUSH1 0x22 PUSH1 0x4 MSTORE PUSH1 0x24 DUP12 REVERT JUMPDEST SWAP4 PUSH1 0x7F AND SWAP4 PUSH3 0x10D JUMP JUMPDEST PUSH4 0x4E487B71 PUSH1 0xE0 SHL PUSH1 0x0 MSTORE PUSH1 0x41 PUSH1 0x4 MSTORE PUSH1 0x24 PUSH1 0x0 REVERT JUMPDEST DUP9 MLOAD PUSH3 0x461BCD PUSH1 0xE5 SHL DUP2 MSTORE PUSH1 0x4 DUP2 ADD DUP8 SWAP1 MSTORE PUSH1 0x12 PUSH1 0x24 DUP3 ADD MSTORE PUSH18 0xE8E4C2C8CA40CCCACA40E8DEDE40D0D2CED PUSH1 0x73 SHL PUSH1 0x44 DUP3 ADD MSTORE PUSH1 0x64 SWAP1 REVERT JUMPDEST DUP9 MLOAD PUSH3 0x461BCD PUSH1 0xE5 SHL DUP2 MSTORE PUSH1 0x4 DUP2 ADD DUP8 SWAP1 MSTORE PUSH1 0x11 PUSH1 0x24 DUP3 ADD MSTORE PUSH17 0x1C1B185D199BDC9B481C995C5D5A5C9959 PUSH1 0x7A SHL PUSH1 0x44 DUP3 ADD MSTORE PUSH1 0x64 SWAP1 REVERT JUMPDEST DUP10 MLOAD PUSH3 0x461BCD PUSH1 0xE5 SHL DUP2 MSTORE PUSH1 0x4 DUP2 ADD DUP9 SWAP1 MSTORE PUSH1 0x10 PUSH1 0x24 DUP3 ADD MSTORE PUSH16 0x18DC99585D1BDC881C995C5D5A5C9959 PUSH1 0x82 SHL PUSH1 0x44 DUP3 ADD MSTORE PUSH1 0x64 SWAP1 REVERT JUMPDEST DUP10 MLOAD PUSH3 0x461BCD PUSH1 0xE5 SHL DUP2 MSTORE PUSH1 0x4 DUP2 ADD DUP9 SWAP1 MSTORE PUSH1 0x10 PUSH1 0x24 DUP3 ADD MSTORE PUSH16 0x199858DD1BDC9E481C995C5D5A5C9959 PUSH1 0x82 SHL PUSH1 0x44 DUP3 ADD MSTORE PUSH1 0x64 SWAP1 REVERT JUMPDEST DUP8 MLOAD PUSH3 0x461BCD PUSH1 0xE5 SHL DUP2 MSTORE PUSH1 0x4 DUP2 ADD DUP7 SWAP1 MSTORE PUSH1 0xF PUSH1 0x24 DUP3 ADD MSTORE PUSH15 0x1CDD5C1C1B1E481C995C5D5A5C9959 PUSH1 0x8A SHL PUSH1 0x44 DUP3 ADD MSTORE PUSH1 0x64 SWAP1 REVERT JUMPDEST DUP8 MLOAD PUSH3 0x461BCD PUSH1 0xE5 SHL DUP2 MSTORE PUSH1 0x4 DUP2 ADD DUP7 SWAP1 MSTORE PUSH1 0xF PUSH1 0x24 DUP3 ADD MSTORE PUSH15 0x1CDE5B589BDB081C995C5D5A5C9959 PUSH1 0x8A SHL PUSH1 0x44 DUP3 ADD MSTORE PUSH1 0x64 SWAP1 REVERT JUMPDEST DUP8 MLOAD PUSH3 0x461BCD PUSH1 0xE5 SHL DUP2 MSTORE PUSH1 0x4 DUP2 ADD DUP7 SWAP1 MSTORE PUSH1 0xD PUSH1 0x24 DUP3 ADD MSTORE PUSH13 0x1B985B59481C995C5D5A5C9959 PUSH1 0x9A SHL PUSH1 0x44 DUP3 ADD MSTORE PUSH1 0x64 SWAP1 REVERT JUMPDEST PUSH1 0x0 DUP1 REVERT JUMPDEST PUSH1 0x40 MLOAD SWAP2 SWAP1 PUSH1 0x1F ADD PUSH1 0x1F NOT AND DUP3 ADD PUSH1 0x1 PUSH1 0x1 PUSH1 0x40 SHL SUB DUP2 GT DUP4 DUP3 LT OR PUSH3 0x478 JUMPI PUSH1 0x40 MSTORE JUMP JUMPDEST SWAP2 SWAP1 DUP1 PUSH1 0x1F DUP5 ADD SLT ISZERO PUSH3 0x60D JUMPI DUP3 MLOAD PUSH1 0x1 PUSH1 0x1 PUSH1 0x40 SHL SUB DUP2 GT PUSH3 0x478 JUMPI PUSH1 0x20 SWAP1 PUSH3 0x66E PUSH1 0x1F DUP3 ADD PUSH1 0x1F NOT AND DUP4 ADD PUSH3 0x612 JUMP JUMPDEST SWAP3 DUP2 DUP5 MSTORE DUP3 DUP3 DUP8 ADD ADD GT PUSH3 0x60D JUMPI PUSH1 0x0 JUMPDEST DUP2 DUP2 LT PUSH3 0x696 JUMPI POP DUP3 PUSH1 0x0 SWAP4 SWAP5 SWAP6 POP ADD ADD MSTORE SWAP1 JUMP JUMPDEST DUP6 DUP2 ADD DUP4 ADD MLOAD DUP5 DUP3 ADD DUP5 ADD MSTORE DUP3 ADD PUSH3 0x680 JUMP JUMPDEST MLOAD SWAP1 PUSH1 0x1 PUSH1 0x1 PUSH1 0xA0 SHL SUB DUP3 AND DUP3 SUB PUSH3 0x60D JUMPI JUMP INVALID PUSH1 0x80 PUSH1 0x40 DUP2 DUP2 MSTORE PUSH1 0x4 SWAP2 DUP3 CALLDATASIZE LT ISZERO PUSH2 0x16 JUMPI PUSH1 0x0 DUP1 REVERT JUMPDEST PUSH1 0x0 SWAP3 DUP4 CALLDATALOAD PUSH1 0xE0 SHR SWAP2 DUP3 PUSH4 0x2D05D3F EQ PUSH2 0xC79 JUMPI POP DUP2 PUSH4 0x44991D8 EQ PUSH2 0xC5A JUMPI DUP2 PUSH4 0x6FDDE03 EQ PUSH2 0xB80 JUMPI DUP2 PUSH4 0x95EA7B3 EQ PUSH2 0xB0F JUMPI DUP2 PUSH4 0x17773EBB EQ PUSH2 0xAD4 JUMPI DUP2 PUSH4 0x18160DDD EQ PUSH2 0xAB5 JUMPI DUP2 PUSH4 0x1E26906B EQ PUSH2 0xA8E JUMPI DUP2 PUSH4 0x2044DBB2 EQ PUSH2 0xA71 JUMPI DUP2 PUSH4 0x22DCD13E EQ PUSH2 0xA36 JUMPI DUP2 PUSH4 0x23B872DD EQ PUSH2 0x92F JUMPI DUP2 PUSH4 0x2BEBF6BF EQ PUSH2 0x865 JUMPI DUP2 PUSH4 0x2F9F1032 EQ PUSH2 0x849 JUMPI DUP2 PUSH4 0x313CE567 EQ PUSH2 0x82D JUMPI DUP2 PUSH4 0x351FEE46 EQ PUSH2 0x769 JUMPI DUP2 PUSH4 0x42966C68 EQ PUSH2 0x68F JUMPI DUP2 PUSH4 0x5B632360 EQ PUSH2 0x672 JUMPI DUP2 PUSH4 0x5FAAD8C5 EQ PUSH2 0x637 JUMPI DUP2 PUSH4 0x70A08231 EQ PUSH2 0x5FF JUMPI DUP2 PUSH4 0x95D89B41 EQ PUSH2 0x4DC JUMPI DUP2 PUSH4 0x9E5F358A EQ PUSH2 0x4BE JUMPI DUP2 PUSH4 0xA9059CBB EQ PUSH2 0x48D JUMPI DUP2 PUSH4 0xAE36F5C8 EQ PUSH2 0x339 JUMPI DUP2 PUSH4 0xC45A0155 EQ PUSH2 0x2F5 JUMPI DUP2 PUSH4 0xDC4B1C0E EQ PUSH2 0x22B JUMPI POP DUP1 PUSH4 0xDD62ED3E EQ PUSH2 0x1E3 JUMPI DUP1 PUSH4 0xE1A45218 EQ PUSH2 0x1C7 JUMPI DUP1 PUSH4 0xEB13554F EQ PUSH2 0x184 JUMPI PUSH4 0xF242AB41 EQ PUSH2 0x159 JUMPI PUSH1 0x0 DUP1 REVERT JUMPDEST CALLVALUE PUSH2 0x180 JUMPI DUP2 PUSH1 0x3 NOT CALLDATASIZE ADD SLT PUSH2 0x180 JUMPI PUSH1 0x3 SLOAD SWAP1 MLOAD PUSH1 0x1 PUSH1 0x1 PUSH1 0xA0 SHL SUB SWAP1 SWAP2 AND DUP2 MSTORE PUSH1 0x20 SWAP1 RETURN JUMPDEST POP DUP1 REVERT JUMPDEST POP CALLVALUE PUSH2 0x180 JUMPI DUP2 PUSH1 0x3 NOT CALLDATASIZE ADD SLT PUSH2 0x180 JUMPI MLOAD PUSH32 0x0 PUSH1 0x1 PUSH1 0x1 PUSH1 0xA0 SHL SUB AND DUP2 MSTORE PUSH1 0x20 SWAP1 RETURN JUMPDEST POP CALLVALUE PUSH2 0x180 JUMPI DUP2 PUSH1 0x3 NOT CALLDATASIZE ADD SLT PUSH2 0x180 JUMPI PUSH1 0x20 SWAP1 MLOAD PUSH2 0x2710 DUP2 MSTORE RETURN JUMPDEST POP CALLVALUE PUSH2 0x180 JUMPI DUP1 PUSH1 0x3 NOT CALLDATASIZE ADD SLT PUSH2 0x180 JUMPI DUP1 PUSH1 0x20 SWAP3 PUSH2 0x200 PUSH2 0xD05 JUMP JUMPDEST PUSH2 0x208 PUSH2 0xD20 JUMP JUMPDEST PUSH1 0x1 PUSH1 0x1 PUSH1 0xA0 SHL SUB SWAP2 DUP3 AND DUP4 MSTORE PUSH1 0x7 DUP7 MSTORE DUP4 DUP4 KECCAK256 SWAP2 AND DUP3 MSTORE DUP5 MSTORE KECCAK256 SLOAD SWAP1 MLOAD SWAP1 DUP2 MSTORE RETURN JUMPDEST SWAP1 POP CALLVALUE PUSH2 0x2F1 JUMPI DUP3 PUSH1 0x3 NOT CALLDATASIZE ADD SLT PUSH2 0x2F1 JUMPI PUSH2 0x271 CALLER PUSH32 0x0 PUSH1 0x1 PUSH1 0x1 PUSH1 0xA0 SHL SUB AND EQ PUSH2 0xDD6 JUMP JUMPDEST PUSH1 0x3 SLOAD SWAP2 PUSH1 0xFF DUP4 PUSH1 0xA0 SHR AND PUSH2 0x2BA JUMPI POP POP PUSH1 0xFF PUSH1 0xA0 SHL NOT AND PUSH1 0x1 PUSH1 0xA0 SHL OR PUSH1 0x3 SSTORE CALLER PUSH32 0x60B9765CF08F04B4850CD9A0F8DA6FA9E854AFD328723CC3F6ADEA6FB4F18D23 DUP3 DUP1 LOG2 DUP1 RETURN JUMPDEST SWAP1 PUSH1 0x20 PUSH1 0x64 SWAP3 MLOAD SWAP2 PUSH3 0x461BCD PUSH1 0xE5 SHL DUP4 MSTORE DUP3 ADD MSTORE PUSH1 0x11 PUSH1 0x24 DUP3 ADD MSTORE PUSH17 0x185B1C9958591E481C995B9BDD5B98D959 PUSH1 0x7A SHL PUSH1 0x44 DUP3 ADD MSTORE REVERT JUMPDEST DUP3 DUP1 REVERT JUMPDEST POP POP CALLVALUE PUSH2 0x180 JUMPI DUP2 PUSH1 0x3 NOT CALLDATASIZE ADD SLT PUSH2 0x180 JUMPI MLOAD PUSH32 0x0 PUSH1 0x1 PUSH1 0x1 PUSH1 0xA0 SHL SUB AND DUP2 MSTORE PUSH1 0x20 SWAP1 RETURN JUMPDEST DUP4 SWAP2 POP CALLVALUE PUSH2 0x180 JUMPI PUSH1 0x20 CALLDATASIZE PUSH1 0x3 NOT ADD SLT PUSH2 0x180 JUMPI PUSH2 0x355 PUSH2 0xD05 JUMP JUMPDEST PUSH1 0x1 PUSH1 0x1 PUSH1 0xA0 SHL SUB SWAP1 DUP2 SWAP1 PUSH2 0x38D CALLER PUSH32 0x0 DUP5 AND EQ PUSH2 0xDD6 JUMP JUMPDEST AND SWAP2 DUP3 ISZERO PUSH2 0x45A JUMPI PUSH1 0x3 SLOAD SWAP2 PUSH1 0xFF DUP4 PUSH1 0xA0 SHR AND PUSH2 0x417 JUMPI DUP3 AND PUSH2 0x3E1 JUMPI POP PUSH1 0x1 PUSH1 0x1 PUSH1 0xA0 SHL SUB NOT AND DUP2 OR PUSH1 0x3 SSTORE PUSH32 0xC3CD203585FBC28DCC1692611D2EBC4190312A5B189047DF793C69B157AA0D29 DUP3 DUP1 LOG2 DUP1 RETURN JUMPDEST PUSH1 0x64 SWAP1 PUSH1 0x20 DUP7 MLOAD SWAP2 PUSH3 0x461BCD PUSH1 0xE5 SHL DUP4 MSTORE DUP3 ADD MSTORE PUSH1 0x10 PUSH1 0x24 DUP3 ADD MSTORE PUSH16 0x1C185A5C88185B1C9958591E481CD95D PUSH1 0x82 SHL PUSH1 0x44 DUP3 ADD MSTORE REVERT JUMPDEST DUP6 MLOAD PUSH3 0x461BCD PUSH1 0xE5 SHL DUP2 MSTORE PUSH1 0x20 DUP2 DUP5 ADD MSTORE PUSH1 0x19 PUSH1 0x24 DUP3 ADD MSTORE PUSH32 0x666163746F727920636F6E74726F6C2072656E6F756E63656400000000000000 PUSH1 0x44 DUP3 ADD MSTORE PUSH1 0x64 SWAP1 REVERT JUMPDEST PUSH1 0x64 SWAP1 PUSH1 0x20 DUP7 MLOAD SWAP2 PUSH3 0x461BCD PUSH1 0xE5 SHL DUP4 MSTORE DUP3 ADD MSTORE PUSH1 0xD PUSH1 0x24 DUP3 ADD MSTORE PUSH13 0x1C185A5C881C995C5D5A5C9959 PUSH1 0x9A SHL PUSH1 0x44 DUP3 ADD MSTORE REVERT JUMPDEST POP POP CALLVALUE PUSH2 0x180 JUMPI DUP1 PUSH1 0x3 NOT CALLDATASIZE ADD SLT PUSH2 0x180 JUMPI PUSH1 0x20 SWAP1 PUSH2 0x4B7 PUSH2 0x4AD PUSH2 0xD05 JUMP JUMPDEST PUSH1 0x24 CALLDATALOAD SWAP1 CALLER PUSH2 0xE31 JUMP JUMPDEST MLOAD PUSH1 0x1 DUP2 MSTORE RETURN JUMPDEST SWAP1 POP CALLVALUE PUSH2 0x2F1 JUMPI DUP3 PUSH1 0x3 NOT CALLDATASIZE ADD SLT PUSH2 0x2F1 JUMPI PUSH1 0x20 SWAP3 POP SLOAD SWAP1 MLOAD SWAP1 DUP2 MSTORE RETURN JUMPDEST DUP4 DUP4 CALLVALUE PUSH2 0x180 JUMPI DUP2 PUSH1 0x3 NOT CALLDATASIZE ADD SLT PUSH2 0x180 JUMPI DUP1 MLOAD SWAP1 DUP3 PUSH1 0x1 DUP1 SLOAD SWAP1 DUP2 PUSH1 0x1 SHR SWAP1 PUSH1 0x1 DUP4 AND SWAP3 DUP4 ISZERO PUSH2 0x5F5 JUMPI JUMPDEST PUSH1 0x20 SWAP4 DUP5 DUP5 LT DUP2 EQ PUSH2 0x5E2 JUMPI DUP4 DUP9 MSTORE SWAP1 DUP2 ISZERO PUSH2 0x5C6 JUMPI POP PUSH1 0x1 EQ PUSH2 0x570 JUMPI JUMPDEST POP POP POP DUP3 SWAP1 SUB PUSH1 0x1F ADD PUSH1 0x1F NOT AND DUP3 ADD SWAP3 PUSH8 0xFFFFFFFFFFFFFFFF DUP5 GT DUP4 DUP6 LT OR PUSH2 0x55D JUMPI POP DUP3 SWAP2 DUP3 PUSH2 0x559 SWAP3 MSTORE DUP3 PUSH2 0xCBC JUMP JUMPDEST SUB SWAP1 RETURN JUMPDEST PUSH4 0x4E487B71 PUSH1 0xE0 SHL DUP2 MSTORE PUSH1 0x41 DUP6 MSTORE PUSH1 0x24 SWAP1 REVERT JUMPDEST PUSH1 0x1 DUP8 MSTORE SWAP2 SWAP3 POP DUP6 SWAP2 DUP4 PUSH32 0xB10E2D527612073B26EECDFD717E6A320CF44B4AFAC2B0732D9FCBE2B7FA0CF6 JUMPDEST DUP4 DUP6 LT PUSH2 0x5B2 JUMPI POP POP POP POP DUP4 ADD ADD DUP6 DUP1 DUP1 PUSH2 0x527 JUMP JUMPDEST DUP1 SLOAD DUP9 DUP7 ADD DUP4 ADD MSTORE SWAP4 ADD SWAP3 DUP5 SWAP1 DUP3 ADD PUSH2 0x59C JUMP JUMPDEST PUSH1 0xFF NOT AND DUP8 DUP6 ADD MSTORE POP POP ISZERO ISZERO PUSH1 0x5 SHL DUP5 ADD ADD SWAP1 POP DUP6 DUP1 DUP1 PUSH2 0x527 JUMP JUMPDEST PUSH4 0x4E487B71 PUSH1 0xE0 SHL DUP10 MSTORE PUSH1 0x22 DUP11 MSTORE PUSH1 0x24 DUP10 REVERT JUMPDEST SWAP2 PUSH1 0x7F AND SWAP2 PUSH2 0x508 JUMP JUMPDEST POP POP CALLVALUE PUSH2 0x180 JUMPI PUSH1 0x20 CALLDATASIZE PUSH1 0x3 NOT ADD SLT PUSH2 0x180 JUMPI PUSH1 0x20 SWAP2 DUP2 SWAP1 PUSH1 0x1 PUSH1 0x1 PUSH1 0xA0 SHL SUB PUSH2 0x627 PUSH2 0xD05 JUMP JUMPDEST AND DUP2 MSTORE PUSH1 0x6 DUP5 MSTORE KECCAK256 SLOAD SWAP1 MLOAD SWAP1 DUP2 MSTORE RETURN JUMPDEST POP POP CALLVALUE PUSH2 0x180 JUMPI DUP2 PUSH1 0x3 NOT CALLDATASIZE ADD SLT PUSH2 0x180 JUMPI PUSH1 0x20 SWAP1 MLOAD PUSH32 0x0 DUP2 MSTORE RETURN JUMPDEST POP POP CALLVALUE PUSH2 0x180 JUMPI DUP2 PUSH1 0x3 NOT CALLDATASIZE ADD SLT PUSH2 0x180 JUMPI PUSH1 0x20 SWAP1 MLOAD PUSH2 0x3E8 DUP2 MSTORE RETURN JUMPDEST SWAP1 POP CALLVALUE PUSH2 0x2F1 JUMPI PUSH1 0x20 SWAP3 DUP4 PUSH1 0x3 NOT CALLDATASIZE ADD SLT PUSH2 0x766 JUMPI DUP2 CALLDATALOAD SWAP2 DUP3 ISZERO PUSH2 0x731 JUMPI POP CALLER DUP2 MSTORE PUSH1 0x6 DUP5 MSTORE PUSH2 0x6CE DUP3 DUP5 DUP4 KECCAK256 SLOAD PUSH2 0x6C9 DUP3 DUP3 LT ISZERO PUSH2 0xD98 JUMP JUMPDEST PUSH2 0xD36 JUMP JUMPDEST CALLER DUP3 MSTORE PUSH1 0x6 DUP6 MSTORE DUP4 DUP3 KECCAK256 SSTORE PUSH2 0x6E5 DUP3 PUSH1 0x2 SLOAD PUSH2 0xD36 JUMP JUMPDEST PUSH1 0x2 SSTORE DUP3 MLOAD DUP3 DUP2 MSTORE PUSH1 0x0 DUP1 MLOAD PUSH1 0x20 PUSH2 0x10F3 DUP4 CODECOPY DUP2 MLOAD SWAP2 MSTORE DUP6 CALLER SWAP3 LOG3 DUP2 MLOAD SWAP1 DUP2 MSTORE PUSH32 0xCC16F5DBB4873280815C1EE09DBD06736CFFCC184412CF7A71A0FDB75D397CA5 DUP4 CALLER SWAP3 LOG2 MLOAD PUSH1 0x1 DUP2 MSTORE RETURN JUMPDEST DUP4 MLOAD PUSH3 0x461BCD PUSH1 0xE5 SHL DUP2 MSTORE SWAP1 DUP2 ADD DUP6 SWAP1 MSTORE PUSH1 0xF PUSH1 0x24 DUP3 ADD MSTORE PUSH15 0x185B5BDD5B9D081C995C5D5A5C9959 PUSH1 0x8A SHL PUSH1 0x44 DUP3 ADD MSTORE PUSH1 0x64 SWAP1 REVERT JUMPDEST DUP1 REVERT JUMPDEST DUP4 DUP4 CALLVALUE PUSH2 0x180 JUMPI DUP2 PUSH1 0x3 NOT CALLDATASIZE ADD SLT PUSH2 0x180 JUMPI PUSH32 0x0 PUSH1 0x1 PUSH1 0x1 PUSH1 0xA0 SHL SUB DUP2 AND SWAP1 CALLER DUP3 SWAP1 SUB PUSH2 0x7FB JUMPI DUP5 PUSH2 0x7CD SWAP2 PUSH1 0x20 SWAP7 SLOAD SWAP6 DUP7 SWAP3 PUSH2 0x7C6 DUP5 ISZERO ISZERO PUSH2 0xD59 JUMP JUMPDEST SSTORE ADDRESS PUSH2 0x1010 JUMP JUMPDEST PUSH32 0xD046302BDC39599E60A5981E59227DCD1C643F512F56F2E984390C3AC6EADEDB DUP5 DUP4 MLOAD DUP6 DUP2 MSTORE LOG2 MLOAD SWAP1 DUP2 MSTORE RETURN JUMPDEST DUP3 MLOAD PUSH3 0x461BCD PUSH1 0xE5 SHL DUP2 MSTORE PUSH1 0x20 DUP2 DUP8 ADD MSTORE PUSH1 0xC PUSH1 0x24 DUP3 ADD MSTORE PUSH12 0x37B7363C9031B932B0BA37B9 PUSH1 0xA1 SHL PUSH1 0x44 DUP3 ADD MSTORE PUSH1 0x64 SWAP1 REVERT JUMPDEST POP POP CALLVALUE PUSH2 0x180 JUMPI DUP2 PUSH1 0x3 NOT CALLDATASIZE ADD SLT PUSH2 0x180 JUMPI PUSH1 0x20 SWAP1 MLOAD PUSH1 0x12 DUP2 MSTORE RETURN JUMPDEST POP POP CALLVALUE PUSH2 0x180 JUMPI DUP2 PUSH1 0x3 NOT CALLDATASIZE ADD SLT PUSH2 0x180 JUMPI PUSH1 0x20 SWAP1 MLOAD PUSH1 0x32 DUP2 MSTORE RETURN JUMPDEST SWAP2 SWAP1 POP CALLVALUE PUSH2 0x2F1 JUMPI DUP3 PUSH1 0x3 NOT CALLDATASIZE ADD SLT PUSH2 0x2F1 JUMPI PUSH32 0x0 SWAP2 PUSH1 0x1 PUSH1 0x1 PUSH1 0xA0 SHL SUB DUP4 AND SWAP1 CALLER DUP3 SWAP1 SUB PUSH2 0x8FC JUMPI POP PUSH2 0x8CE PUSH1 0x20 SWAP5 PUSH1 0x5 SLOAD SWAP5 DUP6 SWAP2 PUSH2 0x8C5 DUP4 ISZERO ISZERO PUSH2 0xD59 JUMP JUMPDEST PUSH1 0x5 SSTORE ADDRESS PUSH2 0x1010 JUMP JUMPDEST PUSH32 0x636F1043CFF5F4C437926A4412416778DDC5E970FEB177685B587E81DAD9095 DUP5 DUP4 MLOAD DUP6 DUP2 MSTORE LOG2 MLOAD SWAP1 DUP2 MSTORE RETURN JUMPDEST PUSH1 0x64 SWAP1 PUSH1 0x20 DUP5 MLOAD SWAP2 PUSH3 0x461BCD PUSH1 0xE5 SHL DUP4 MSTORE DUP3 ADD MSTORE PUSH1 0xD PUSH1 0x24 DUP3 ADD MSTORE PUSH13 0x6F6E6C7920706C6174666F726D PUSH1 0x98 SHL PUSH1 0x44 DUP3 ADD MSTORE REVERT JUMPDEST SWAP2 SWAP1 POP CALLVALUE PUSH2 0x2F1 JUMPI PUSH1 0x60 CALLDATASIZE PUSH1 0x3 NOT ADD SLT PUSH2 0x2F1 JUMPI PUSH2 0x94B PUSH2 0xD05 JUMP JUMPDEST PUSH2 0x953 PUSH2 0xD20 JUMP JUMPDEST PUSH1 0x44 CALLDATALOAD SWAP2 PUSH1 0x1 DUP1 PUSH1 0xA0 SHL SUB DUP2 AND DUP1 DUP8 MSTORE PUSH1 0x20 SWAP6 PUSH1 0x7 DUP8 MSTORE DUP6 DUP9 KECCAK256 CALLER DUP10 MSTORE DUP8 MSTORE DUP6 DUP9 KECCAK256 SLOAD SWAP1 DUP6 DUP3 LT PUSH2 0x9FE JUMPI POP SWAP5 DUP1 SWAP7 SWAP8 PUSH2 0x4B7 SWAP7 DUP7 PUSH1 0x0 NOT DUP3 SUB PUSH2 0x99C JUMPI JUMPDEST POP POP POP POP POP PUSH2 0xE31 JUMP JUMPDEST PUSH2 0x9A5 SWAP2 PUSH2 0xD36 JUMP JUMPDEST DUP4 DUP3 MSTORE PUSH1 0x7 DUP11 MSTORE DUP3 DUP3 KECCAK256 CALLER DUP4 MSTORE DUP11 MSTORE DUP3 DUP3 KECCAK256 SSTORE DUP3 DUP2 MSTORE PUSH1 0x7 DUP10 MSTORE DUP2 DUP2 KECCAK256 CALLER DUP3 MSTORE DUP10 MSTORE KECCAK256 SLOAD SWAP1 DUP7 MLOAD SWAP2 DUP3 MSTORE PUSH32 0x8C5BE1E5EBEC7D5BD14F71427D1E84F3DD0314C0F7B2291E5B200AC8C7C3B925 DUP9 CALLER SWAP4 LOG3 CODESIZE DUP6 DUP2 DUP1 DUP7 PUSH2 0x992 JUMP JUMPDEST DUP7 MLOAD PUSH3 0x461BCD PUSH1 0xE5 SHL DUP2 MSTORE SWAP1 DUP2 ADD DUP9 SWAP1 MSTORE PUSH1 0x12 PUSH1 0x24 DUP3 ADD MSTORE PUSH18 0x185B1B1BDDD85B98D948195E18D959591959 PUSH1 0x72 SHL PUSH1 0x44 DUP3 ADD MSTORE PUSH1 0x64 SWAP1 REVERT JUMPDEST POP POP CALLVALUE PUSH2 0x180 JUMPI DUP2 PUSH1 0x3 NOT CALLDATASIZE ADD SLT PUSH2 0x180 JUMPI PUSH1 0x20 SWAP1 MLOAD PUSH32 0x0 DUP2 MSTORE RETURN JUMPDEST POP POP CALLVALUE PUSH2 0x180 JUMPI DUP2 PUSH1 0x3 NOT CALLDATASIZE ADD SLT PUSH2 0x180 JUMPI PUSH1 0x20 SWAP1 MLOAD PUSH2 0xFA0 DUP2 MSTORE RETURN JUMPDEST POP POP CALLVALUE PUSH2 0x180 JUMPI DUP2 PUSH1 0x3 NOT CALLDATASIZE ADD SLT PUSH2 0x180 JUMPI PUSH1 0x20 SWAP1 PUSH1 0xFF PUSH1 0x3 SLOAD PUSH1 0xA0 SHR AND SWAP1 MLOAD SWAP1 ISZERO ISZERO DUP2 MSTORE RETURN JUMPDEST POP POP CALLVALUE PUSH2 0x180 JUMPI DUP2 PUSH1 0x3 NOT CALLDATASIZE ADD SLT PUSH2 0x180 JUMPI PUSH1 0x20 SWAP1 PUSH1 0x2 SLOAD SWAP1 MLOAD SWAP1 DUP2 MSTORE RETURN JUMPDEST POP POP CALLVALUE PUSH2 0x180 JUMPI DUP2 PUSH1 0x3 NOT CALLDATASIZE ADD SLT PUSH2 0x180 JUMPI PUSH1 0x20 SWAP1 MLOAD PUSH32 0x0 DUP2 MSTORE RETURN JUMPDEST POP POP CALLVALUE PUSH2 0x180 JUMPI DUP1 PUSH1 0x3 NOT CALLDATASIZE ADD SLT PUSH2 0x180 JUMPI PUSH1 0x20 SWAP2 DUP2 PUSH2 0xB2D PUSH2 0xD05 JUMP JUMPDEST SWAP2 PUSH1 0x24 CALLDATALOAD SWAP2 DUP3 SWAP2 CALLER DUP2 MSTORE PUSH1 0x7 DUP8 MSTORE DUP2 DUP2 KECCAK256 SWAP5 PUSH1 0x1 DUP1 PUSH1 0xA0 SHL SUB AND SWAP5 DUP6 DUP3 MSTORE DUP8 MSTORE KECCAK256 SSTORE DUP3 MLOAD SWAP1 DUP2 MSTORE PUSH32 0x8C5BE1E5EBEC7D5BD14F71427D1E84F3DD0314C0F7B2291E5B200AC8C7C3B925 DUP5 CALLER SWAP3 LOG3 MLOAD PUSH1 0x1 DUP2 MSTORE RETURN JUMPDEST DUP4 DUP4 CALLVALUE PUSH2 0x180 JUMPI DUP2 PUSH1 0x3 NOT CALLDATASIZE ADD SLT PUSH2 0x180 JUMPI DUP1 MLOAD SWAP1 DUP3 DUP4 SLOAD PUSH1 0x1 DUP2 PUSH1 0x1 SHR SWAP1 PUSH1 0x1 DUP4 AND SWAP3 DUP4 ISZERO PUSH2 0xC50 JUMPI JUMPDEST PUSH1 0x20 SWAP4 DUP5 DUP5 LT DUP2 EQ PUSH2 0x5E2 JUMPI DUP4 DUP9 MSTORE SWAP1 DUP2 ISZERO PUSH2 0x5C6 JUMPI POP PUSH1 0x1 EQ PUSH2 0xBFB JUMPI POP POP POP DUP3 SWAP1 SUB PUSH1 0x1F ADD PUSH1 0x1F NOT AND DUP3 ADD SWAP3 PUSH8 0xFFFFFFFFFFFFFFFF DUP5 GT DUP4 DUP6 LT OR PUSH2 0x55D JUMPI POP DUP3 SWAP2 DUP3 PUSH2 0x559 SWAP3 MSTORE DUP3 PUSH2 0xCBC JUMP JUMPDEST DUP7 DUP1 MSTORE SWAP2 SWAP3 POP DUP6 SWAP2 DUP4 PUSH32 0x290DECD9548B62A8D60345A988386FC84BA6BC95484008F6362F93160EF3E563 JUMPDEST DUP4 DUP6 LT PUSH2 0xC3C JUMPI POP POP POP POP DUP4 ADD ADD DUP6 DUP1 DUP1 PUSH2 0x527 JUMP JUMPDEST DUP1 SLOAD DUP9 DUP7 ADD DUP4 ADD MSTORE SWAP4 ADD SWAP3 DUP5 SWAP1 DUP3 ADD PUSH2 0xC26 JUMP JUMPDEST SWAP2 PUSH1 0x7F AND SWAP2 PUSH2 0xBAB JUMP JUMPDEST POP POP CALLVALUE PUSH2 0x180 JUMPI DUP2 PUSH1 0x3 NOT CALLDATASIZE ADD SLT PUSH2 0x180 JUMPI PUSH1 0x20 SWAP1 PUSH1 0x5 SLOAD SWAP1 MLOAD SWAP1 DUP2 MSTORE RETURN JUMPDEST DUP5 SWAP1 CALLVALUE PUSH2 0x180 JUMPI DUP2 PUSH1 0x3 NOT CALLDATASIZE ADD SLT PUSH2 0x180 JUMPI PUSH32 0x0 PUSH1 0x1 PUSH1 0x1 PUSH1 0xA0 SHL SUB AND DUP2 MSTORE PUSH1 0x20 SWAP1 RETURN JUMPDEST PUSH1 0x20 DUP1 DUP3 MSTORE DUP3 MLOAD DUP2 DUP4 ADD DUP2 SWAP1 MSTORE SWAP1 SWAP4 SWAP3 PUSH1 0x0 JUMPDEST DUP3 DUP2 LT PUSH2 0xCF1 JUMPI POP POP PUSH1 0x40 SWAP3 SWAP4 POP PUSH1 0x0 DUP4 DUP3 DUP5 ADD ADD MSTORE PUSH1 0x1F DUP1 NOT SWAP2 ADD AND ADD ADD SWAP1 JUMP JUMPDEST DUP2 DUP2 ADD DUP7 ADD MLOAD DUP5 DUP3 ADD PUSH1 0x40 ADD MSTORE DUP6 ADD PUSH2 0xCCF JUMP JUMPDEST PUSH1 0x4 CALLDATALOAD SWAP1 PUSH1 0x1 PUSH1 0x1 PUSH1 0xA0 SHL SUB DUP3 AND DUP3 SUB PUSH2 0xD1B JUMPI JUMP JUMPDEST PUSH1 0x0 DUP1 REVERT JUMPDEST PUSH1 0x24 CALLDATALOAD SWAP1 PUSH1 0x1 PUSH1 0x1 PUSH1 0xA0 SHL SUB DUP3 AND DUP3 SUB PUSH2 0xD1B JUMPI JUMP JUMPDEST SWAP2 SWAP1 DUP3 SUB SWAP2 DUP3 GT PUSH2 0xD43 JUMPI JUMP JUMPDEST PUSH4 0x4E487B71 PUSH1 0xE0 SHL PUSH1 0x0 MSTORE PUSH1 0x11 PUSH1 0x4 MSTORE PUSH1 0x24 PUSH1 0x0 REVERT JUMPDEST ISZERO PUSH2 0xD60 JUMPI JUMP JUMPDEST PUSH1 0x40 MLOAD PUSH3 0x461BCD PUSH1 0xE5 SHL DUP2 MSTORE PUSH1 0x20 PUSH1 0x4 DUP3 ADD MSTORE PUSH1 0x10 PUSH1 0x24 DUP3 ADD MSTORE PUSH16 0x6E6F7468696E6720746F20636C61696D PUSH1 0x80 SHL PUSH1 0x44 DUP3 ADD MSTORE PUSH1 0x64 SWAP1 REVERT JUMPDEST ISZERO PUSH2 0xD9F JUMPI JUMP JUMPDEST PUSH1 0x40 MLOAD PUSH3 0x461BCD PUSH1 0xE5 SHL DUP2 MSTORE PUSH1 0x20 PUSH1 0x4 DUP3 ADD MSTORE PUSH1 0xF PUSH1 0x24 DUP3 ADD MSTORE PUSH15 0x62616C616E636520746F6F206C6F77 PUSH1 0x88 SHL PUSH1 0x44 DUP3 ADD MSTORE PUSH1 0x64 SWAP1 REVERT JUMPDEST ISZERO PUSH2 0xDDD JUMPI JUMP JUMPDEST PUSH1 0x40 MLOAD PUSH3 0x461BCD PUSH1 0xE5 SHL DUP2 MSTORE PUSH1 0x20 PUSH1 0x4 DUP3 ADD MSTORE PUSH1 0xC PUSH1 0x24 DUP3 ADD MSTORE PUSH12 0x6F6E6C7920666163746F7279 PUSH1 0xA0 SHL PUSH1 0x44 DUP3 ADD MSTORE PUSH1 0x64 SWAP1 REVERT JUMPDEST DUP2 DUP2 MUL SWAP3 SWAP2 DUP2 ISZERO SWAP2 DUP5 DIV EQ OR ISZERO PUSH2 0xD43 JUMPI JUMP JUMPDEST SWAP2 SWAP1 DUP3 ADD DUP1 SWAP3 GT PUSH2 0xD43 JUMPI JUMP JUMPDEST PUSH1 0x1 PUSH1 0x1 PUSH1 0xA0 SHL SUB DUP1 DUP4 AND SWAP4 SWAP2 SWAP3 SWAP1 DUP5 ISZERO PUSH2 0xFDC JUMPI DUP4 AND SWAP3 PUSH1 0x0 SWAP2 DUP5 DUP4 MSTORE PUSH1 0x20 SWAP3 PUSH1 0x6 DUP5 MSTORE PUSH1 0x40 SWAP2 PUSH2 0xE74 DUP4 DUP4 KECCAK256 SLOAD SWAP2 PUSH2 0xE6D DUP9 DUP5 LT ISZERO PUSH2 0xD98 JUMP JUMPDEST DUP8 SWAP6 PUSH2 0x10B6 JUMP JUMPDEST DUP1 PUSH2 0xFD3 JUMPI JUMPDEST PUSH2 0xEBD JUMPI JUMPDEST SWAP1 PUSH2 0xE9A PUSH1 0x0 DUP1 MLOAD PUSH1 0x20 PUSH2 0x10F3 DUP4 CODECOPY DUP2 MLOAD SWAP2 MSTORE SWAP7 DUP5 SWAP4 PUSH2 0xD36 JUMP JUMPDEST DUP8 DUP3 MSTORE PUSH1 0x6 DUP7 MSTORE DUP3 DUP3 KECCAK256 SSTORE DUP8 DUP2 MSTORE KECCAK256 PUSH2 0xEB4 DUP4 DUP3 SLOAD PUSH2 0xE24 JUMP JUMPDEST SWAP1 SSTORE MLOAD SWAP1 DUP2 MSTORE LOG3 JUMP JUMPDEST PUSH2 0x2710 DUP9 DUP9 DUP3 PUSH2 0xEED PUSH32 0x0 DUP12 PUSH2 0xE11 JUMP JUMPDEST DIV SWAP3 DUP4 PUSH2 0xEFE JUMPI JUMPDEST POP POP POP POP PUSH2 0xE7F JUMP JUMPDEST DUP7 SWAP6 SWAP5 SWAP4 SWAP8 POP PUSH32 0x0 PUSH2 0xF2F SWAP1 DUP12 PUSH2 0xE11 JUMP JUMPDEST DIV DUP6 DUP9 DUP11 DUP5 DUP14 PUSH2 0xF3F DUP7 DUP6 PUSH2 0xD36 JUMP JUMPDEST SWAP4 PUSH2 0xF49 SWAP2 PUSH2 0xD36 JUMP JUMPDEST SWAP12 DUP6 PUSH1 0x4 SLOAD SWAP1 PUSH2 0xF58 SWAP2 PUSH2 0xE24 JUMP JUMPDEST PUSH1 0x4 SSTORE DUP4 PUSH1 0x5 SLOAD SWAP1 PUSH2 0xF69 SWAP2 PUSH2 0xE24 JUMP JUMPDEST PUSH1 0x5 SSTORE ADDRESS DUP11 MSTORE PUSH1 0x6 DUP4 MSTORE DUP5 DUP11 KECCAK256 DUP2 DUP2 SLOAD SWAP1 PUSH2 0xF83 SWAP2 PUSH2 0xE24 JUMP JUMPDEST SWAP1 SSTORE DUP5 MLOAD SWAP1 DUP2 MSTORE ADDRESS SWAP3 PUSH1 0x0 DUP1 MLOAD PUSH1 0x20 PUSH2 0x10F3 DUP4 CODECOPY DUP2 MLOAD SWAP2 MSTORE SWAP2 LOG3 DUP2 MLOAD SWAP3 DUP4 MSTORE DUP11 DUP4 ADD MSTORE PUSH32 0x93BD139EA85D53C55E02DEC709128F827EBD5CB8A4A0D873193711B70B0A15B9 SWAP2 LOG3 SWAP1 SWAP2 DUP9 DUP9 CODESIZE PUSH2 0xEF5 JUMP JUMPDEST POP DUP6 ISZERO ISZERO PUSH2 0xE7A JUMP JUMPDEST PUSH1 0x40 MLOAD PUSH3 0x461BCD PUSH1 0xE5 SHL DUP2 MSTORE PUSH1 0x20 PUSH1 0x4 DUP3 ADD MSTORE PUSH1 0xC PUSH1 0x24 DUP3 ADD MSTORE PUSH12 0x7A65726F2061646472657373 PUSH1 0xA0 SHL PUSH1 0x44 DUP3 ADD MSTORE PUSH1 0x64 SWAP1 REVERT JUMPDEST PUSH1 0x1 DUP1 PUSH1 0xA0 SHL SUB DUP1 SWAP2 AND SWAP2 PUSH1 0x0 SWAP4 DUP4 DUP6 MSTORE PUSH1 0x6 PUSH1 0x20 MSTORE PUSH1 0x40 DUP6 KECCAK256 SLOAD DUP2 DUP2 LT PUSH2 0x1078 JUMPI PUSH1 0x0 DUP1 MLOAD PUSH1 0x20 PUSH2 0x10F3 DUP4 CODECOPY DUP2 MLOAD SWAP2 MSTORE SWAP4 PUSH1 0x20 SWAP4 PUSH2 0x1051 DUP5 PUSH1 0x40 SWAP5 PUSH2 0xD36 JUMP JUMPDEST DUP8 DUP10 MSTORE PUSH1 0x6 DUP7 MSTORE DUP4 DUP10 KECCAK256 SSTORE AND SWAP6 DUP7 DUP2 MSTORE KECCAK256 PUSH2 0x106D DUP3 DUP3 SLOAD PUSH2 0xE24 JUMP JUMPDEST SWAP1 SSTORE PUSH1 0x40 MLOAD SWAP1 DUP2 MSTORE LOG3 JUMP JUMPDEST PUSH1 0x40 MLOAD PUSH3 0x461BCD PUSH1 0xE5 SHL DUP2 MSTORE PUSH1 0x20 PUSH1 0x4 DUP3 ADD MSTORE PUSH1 0x16 PUSH1 0x24 DUP3 ADD MSTORE PUSH22 0x1A5B9CDD59999A58DA595B9D08199959481D985D5B1D PUSH1 0x52 SHL PUSH1 0x44 DUP3 ADD MSTORE PUSH1 0x64 SWAP1 REVERT JUMPDEST PUSH1 0x3 SLOAD PUSH1 0x1 PUSH1 0x1 PUSH1 0xA0 SHL SUB SWAP1 DUP2 AND SWAP2 DUP3 ISZERO PUSH2 0x10E9 JUMPI DUP2 AND DUP3 EQ SWAP3 DUP4 ISZERO PUSH2 0x10DD JUMPI JUMPDEST POP POP POP SWAP1 JUMP JUMPDEST AND EQ SWAP1 POP CODESIZE DUP1 DUP1 PUSH2 0x10D7 JUMP JUMPDEST POP POP POP POP PUSH1 0x0 SWAP1 JUMP INVALID 0xDD CALLCODE MSTORE 0xAD SHL 0xE2 0xC8 SWAP12 PUSH10 0xC2B068FC378DAA952BA7 CALL PUSH4 0xC4A11628 CREATE2 GAS 0x4D CREATE2 0x23 0xB3 0xEF LOG2 PUSH5 0x6970667358 0x22 SLT KECCAK256 PREVRANDAO 0xFC 0xB1 0x4B EXTCODEHASH PUSH29 0xB8A9286ECA6BF592A4F3CAF9627E236F36D27101F0273E8F794E64736F PUSH13 0x63430008180033A26469706673 PC 0x22 SLT KECCAK256 0xDE 0xE8 0xBD INVALID SLOAD RETURNDATACOPY SWAP6 0xAD 0xB5 SELFDESTRUCT 0xB6 0xBF 0x2B 0xC8 PUSH32 0x97579135D3D7730E537E1317478A59C53C64736F6C6343000818003300000000 "},"methodIdentifiers":{"BPS_DENOMINATOR()":"e1a45218","DEFAULT_TOKEN_TRADE_FEE_BPS()":"4a9ddfdd","createLaunch(string,string,string,string,uint256,uint256)":"1036338c","defaultDexRouter()":"d578192c","defaultFeeBps()":"bcae25a4","defaultGraduationTargetQuote()":"52438689","defaultLpRecipient()":"13ed4aa6","defaultVirtualQuoteReserve()":"f80e5ec1","defaultVirtualTokenReserve()":"93a8e04d","feeRecipient()":"46904840","getLaunch(uint256)":"5930d3ce","getLaunchCount()":"9ff0251f","launchFeeWei()":"83eeb3bb","owner()":"8da5cb5b","platformFeeRecipient()":"eb13554f","poolByToken(address)":"0b0420bb","quoteToken()":"217a4b70","setDefaults(address,address,uint256,uint256,uint256,uint256,uint256,address,address)":"b82942a5","transferOwnership(address)":"f2fde38b"}}}}}