{"contracts/MemePool.sol":{"MemePool":{"abi":[{"inputs":[{"internalType":"address","name":"_token","type":"address"},{"internalType":"address","name":"_factory","type":"address"},{"internalType":"address","name":"_feeRecipient","type":"address"},{"internalType":"uint256","name":"_feeBps","type":"uint256"},{"internalType":"uint256","name":"_virtualEthReserve","type":"uint256"},{"internalType":"uint256","name":"_virtualTokenReserve","type":"uint256"},{"internalType":"uint256","name":"_graduationTargetEth","type":"uint256"},{"internalType":"address","name":"_dexRouter","type":"address"},{"internalType":"address","name":"_lpRecipient","type":"address"}],"stateMutability":"payable","type":"constructor"},{"anonymous":false,"inputs":[{"indexed":true,"internalType":"address","name":"buyer","type":"address"},{"indexed":false,"internalType":"uint256","name":"ethIn","type":"uint256"},{"indexed":false,"internalType":"uint256","name":"feePaid","type":"uint256"},{"indexed":false,"internalType":"uint256","name":"tokensOut","type":"uint256"}],"name":"Buy","type":"event"},{"anonymous":false,"inputs":[{"indexed":true,"internalType":"address","name":"pair","type":"address"},{"indexed":false,"internalType":"uint256","name":"quoteReserve","type":"uint256"},{"indexed":false,"internalType":"uint256","name":"lpBurned","type":"uint256"},{"indexed":false,"internalType":"uint256","name":"tokenSupplyBurned","type":"uint256"},{"indexed":false,"internalType":"uint256","name":"timestamp","type":"uint256"}],"name":"DexCurveCompleted","type":"event"},{"anonymous":false,"inputs":[{"indexed":true,"internalType":"address","name":"pair","type":"address"},{"indexed":false,"internalType":"uint256","name":"tokenMigrated","type":"uint256"},{"indexed":false,"internalType":"uint256","name":"ethMigrated","type":"uint256"},{"indexed":false,"internalType":"uint256","name":"lpMinted","type":"uint256"},{"indexed":false,"internalType":"uint256","name":"timestamp","type":"uint256"}],"name":"DexCurveOpened","type":"event"},{"anonymous":false,"inputs":[{"indexed":true,"internalType":"address","name":"recipient","type":"address"},{"indexed":false,"internalType":"uint256","name":"feeBps","type":"uint256"}],"name":"FeeConfigUpdated","type":"event"},{"anonymous":false,"inputs":[{"indexed":true,"internalType":"address","name":"pair","type":"address"},{"indexed":false,"internalType":"uint256","name":"tokenMigrated","type":"uint256"},{"indexed":false,"internalType":"uint256","name":"ethMigrated","type":"uint256"},{"indexed":false,"internalType":"uint256","name":"lpMinted","type":"uint256"},{"indexed":false,"internalType":"uint256","name":"timestamp","type":"uint256"}],"name":"Graduated","type":"event"},{"anonymous":false,"inputs":[{"indexed":true,"internalType":"address","name":"caller","type":"address"},{"indexed":false,"internalType":"uint256","name":"ethReserve","type":"uint256"},{"indexed":false,"internalType":"uint256","name":"tokenReserve","type":"uint256"}],"name":"InstantGraduationTriggered","type":"event"},{"anonymous":false,"inputs":[{"indexed":false,"internalType":"address","name":"dexRouter","type":"address"},{"indexed":false,"internalType":"address","name":"lpRecipient","type":"address"},{"indexed":false,"internalType":"uint256","name":"graduationTargetEth","type":"uint256"}],"name":"MigrationConfigUpdated","type":"event"},{"anonymous":false,"inputs":[{"indexed":false,"internalType":"uint256","name":"tokenLiquidity","type":"uint256"}],"name":"PoolSeeded","type":"event"},{"anonymous":false,"inputs":[{"indexed":true,"internalType":"address","name":"seller","type":"address"},{"indexed":false,"internalType":"uint256","name":"tokensIn","type":"uint256"},{"indexed":false,"internalType":"uint256","name":"ethOut","type":"uint256"},{"indexed":false,"internalType":"uint256","name":"feePaid","type":"uint256"}],"name":"Sell","type":"event"},{"inputs":[],"name":"BPS_DENOMINATOR","outputs":[{"internalType":"uint256","name":"","type":"uint256"}],"stateMutability":"view","type":"function"},{"inputs":[],"name":"BURN_ADDRESS","outputs":[{"internalType":"address","name":"","type":"address"}],"stateMutability":"view","type":"function"},{"inputs":[{"internalType":"uint256","name":"minTokensOut","type":"uint256"}],"name":"buy","outputs":[{"internalType":"uint256","name":"tokensOut","type":"uint256"}],"stateMutability":"payable","type":"function"},{"inputs":[{"internalType":"address","name":"newRecipient","type":"address"},{"internalType":"uint256","name":"newFeeBps","type":"uint256"}],"name":"configureFees","outputs":[],"stateMutability":"nonpayable","type":"function"},{"inputs":[{"internalType":"address","name":"newDexRouter","type":"address"},{"internalType":"address","name":"newLpRecipient","type":"address"},{"internalType":"uint256","name":"newTargetEth","type":"uint256"}],"name":"configureMigration","outputs":[],"stateMutability":"nonpayable","type":"function"},{"inputs":[],"name":"dexRouter","outputs":[{"internalType":"address","name":"","type":"address"}],"stateMutability":"view","type":"function"},{"inputs":[],"name":"ethReserve","outputs":[{"internalType":"uint256","name":"","type":"uint256"}],"stateMutability":"view","type":"function"},{"inputs":[],"name":"factory","outputs":[{"internalType":"address","name":"","type":"address"}],"stateMutability":"view","type":"function"},{"inputs":[],"name":"feeBps","outputs":[{"internalType":"uint256","name":"","type":"uint256"}],"stateMutability":"view","type":"function"},{"inputs":[],"name":"feeRecipient","outputs":[{"internalType":"address","name":"","type":"address"}],"stateMutability":"view","type":"function"},{"inputs":[],"name":"graduateNow","outputs":[],"stateMutability":"nonpayable","type":"function"},{"inputs":[],"name":"graduated","outputs":[{"internalType":"bool","name":"","type":"bool"}],"stateMutability":"view","type":"function"},{"inputs":[],"name":"graduatedAt","outputs":[{"internalType":"uint256","name":"","type":"uint256"}],"stateMutability":"view","type":"function"},{"inputs":[],"name":"graduationTargetEth","outputs":[{"internalType":"uint256","name":"","type":"uint256"}],"stateMutability":"view","type":"function"},{"inputs":[],"name":"launchLiveDexCurve","outputs":[],"stateMutability":"nonpayable","type":"function"},{"inputs":[],"name":"liveDexCurve","outputs":[{"internalType":"bool","name":"","type":"bool"}],"stateMutability":"view","type":"function"},{"inputs":[],"name":"lpRecipient","outputs":[{"internalType":"address","name":"","type":"address"}],"stateMutability":"view","type":"function"},{"inputs":[],"name":"migratedPair","outputs":[{"internalType":"address","name":"","type":"address"}],"stateMutability":"view","type":"function"},{"inputs":[{"internalType":"uint256","name":"ethAmountIn","type":"uint256"}],"name":"quoteBuy","outputs":[{"internalType":"uint256","name":"tokensOut","type":"uint256"},{"internalType":"uint256","name":"feePaid","type":"uint256"}],"stateMutability":"view","type":"function"},{"inputs":[{"internalType":"uint256","name":"tokenAmountIn","type":"uint256"}],"name":"quoteSell","outputs":[{"internalType":"uint256","name":"ethOut","type":"uint256"},{"internalType":"uint256","name":"feePaid","type":"uint256"}],"stateMutability":"view","type":"function"},{"inputs":[{"internalType":"uint256","name":"tokenAmount","type":"uint256"}],"name":"seed","outputs":[],"stateMutability":"nonpayable","type":"function"},{"inputs":[],"name":"seeded","outputs":[{"internalType":"bool","name":"","type":"bool"}],"stateMutability":"view","type":"function"},{"inputs":[{"internalType":"uint256","name":"tokenAmountIn","type":"uint256"},{"internalType":"uint256","name":"minEthOut","type":"uint256"}],"name":"sell","outputs":[{"internalType":"uint256","name":"ethOut","type":"uint256"}],"stateMutability":"nonpayable","type":"function"},{"inputs":[],"name":"spotPrice","outputs":[{"internalType":"uint256","name":"","type":"uint256"}],"stateMutability":"view","type":"function"},{"inputs":[],"name":"targetProgressBps","outputs":[{"internalType":"uint256","name":"","type":"uint256"}],"stateMutability":"view","type":"function"},{"inputs":[],"name":"token","outputs":[{"internalType":"address","name":"","type":"address"}],"stateMutability":"view","type":"function"},{"inputs":[],"name":"tokenReserve","outputs":[{"internalType":"uint256","name":"","type":"uint256"}],"stateMutability":"view","type":"function"},{"inputs":[],"name":"triggerGraduation","outputs":[],"stateMutability":"nonpayable","type":"function"},{"inputs":[],"name":"virtualEthReserve","outputs":[{"internalType":"uint256","name":"","type":"uint256"}],"stateMutability":"view","type":"function"},{"inputs":[],"name":"virtualTokenReserve","outputs":[{"internalType":"uint256","name":"","type":"uint256"}],"stateMutability":"view","type":"function"}],"evm":{"bytecode":{"linkReferences":{},"object":"601f62002af038819003918201601f19166101009081019290916001600160401b03841183851017620003d557816101209284926040968752833981010312620003d0576200004e81620003eb565b6020906200005e828401620003eb565b916200006c858501620003eb565b926060850151608086015160a08701519160c088015193620000a06101006200009860e08c01620003eb565b9a01620003eb565b6001600160a01b0398909790898216156200039b578983161562000364578916998a15620003205761012c8411620002ed578415620002a9578515620002655786156200022f5789169687620001e4575b5060a05260805260018060a01b03199788600054161760005560015560c05260e0526004558360055416176005551690600654161760065534600255516126ef908162000401823960805181818161023b01528181610c6f01528181610d1801528181610edb015281816111c701526112df015260a0518181816101a2015281816102ec0152818161085401528181610a9101528181610d7501528181611b78015281816123ca01528181612574015261261f015260c051818181611037015281816116c60152818161219d0152612233015260e05181818161114e01528181611693015281816121d201526122640152f35b898916620000f1576064908c519062461bcd60e51b82526004820152601560248201527f6c7020726563697069656e7420726571756972656400000000000000000000006044820152fd5b8b5162461bcd60e51b815260048101899052600f60248201526e1d185c99d95d081c995c5d5a5c9959608a1b6044820152606490fd5b8b5162461bcd60e51b815260048101899052601660248201527f7669727475616c20746f6b656e207265717569726564000000000000000000006044820152606490fd5b8b5162461bcd60e51b815260048101899052601460248201527f7669727475616c206574682072657175697265640000000000000000000000006044820152606490fd5b8b5162461bcd60e51b815260048101899052600c60248201526b0cccaca40e8dede40d0d2ced60a31b6044820152606490fd5b8b5162461bcd60e51b815260048101899052601660248201527f66656520726563697069656e74207265717569726564000000000000000000006044820152606490fd5b8b5162461bcd60e51b815260048101899052601060248201526f199858dd1bdc9e481c995c5d5a5c995960821b6044820152606490fd5b8b5162461bcd60e51b815260048101899052600e60248201526d1d1bdad95b881c995c5d5a5c995960921b6044820152606490fd5b600080fd5b634e487b7160e01b600052604160045260246000fd5b51906001600160a01b0382168203620003d05756fe608060408181526004918236101561001657600080fd5b600092833560e01c9182630758d924146113db575081631ad15bbc146113b257816324a9d8531461139357816325217724146112c75781632760eca1146112aa5781632a2c697214611198578163334041a614611171578163343ee3b714611136578163398482d8146111125781634329742d146110ca578163452e68dd146110a157816346904840146110795781634beb394c1461105a57816352b86d2b1461101f5781637f544e49146110005781638c575aa314610e9e5781639556483714610cf0578163a64190c414610cc5578163c446795a14610c9e578163c45a015514610c5a578163cbcb317114610c3b578163d62ccb3f14610c1c578163d79875eb146109af578163d96a094a14610751578163e1a4521814610734578163e3818eb81461021a578163e7c2b772146101f3578163f95a02d0146101d157508063fc0c546a1461018e5763fccc28131461016f57600080fd5b3461018a578160031936011261018a576020905161dead8152f35b5080fd5b503461018a578160031936011261018a57517f00000000000000000000000000000000000000000000000000000000000000006001600160a01b03168152602090f35b9050346101ef57826003193601126101ef5760209250549051908152f35b8280fd5b50503461018a578160031936011261018a5760209060ff60065460a81c1690519015158152f35b9050346101ef57826003193601126101ef576001600160a01b0390610262337f000000000000000000000000000000000000000000000000000000000000000084161461141b565b60069283549261027860ff8560b81c1615611456565b60ff60b81b19938416600160b81b178086556102b99060ff906102a060a082901c831661148f565b6102af828260a81c16156114cd565b60b01c161561150d565b6002546102c781151561154a565b81600554166102d7811515611ae6565b30156106fa57600354928860035588600255807f0000000000000000000000000000000000000000000000000000000000000000169185519063095ea7b360e01b90818352888301528a6024830152818b8160446020958693895af180156106f05791839188936106d3575b5060055489519182526001600160a01b03908616168a82019081526020810193909352918290819003604001818e885af180156106c95761069c575b50816005541693610e10420194854211610689579060608560c48b8f9585908d519b8c95869463f305d71960e01b86528501528d602485015288604485015288606485015230608485015260a48401525af196871561067f5782958397849961063b575b506005548a5163c45a015560e01b815290871686828e81845afa91821561063157968695949392918e98829893610612575b508d516315ab88c960e31b815298899182905afa968715610608578d918d8a92889a6105da575b50918894939181604494519b8c96879563e6a4390560e01b8752860152166024840152165afa9485156105d05790879184966105a1575b50818111610587575b5050868111610522575b5050895460ff60b01b1916600160b01b178a5550600780546001600160a01b0319169290911691821790559351908152602081019190915260408101919091524260608201527f5cfc9ea0e95e86463d8dacd6c53993376a8afab5437e80a8a98d57d7a8b0f2349080608081010390a26104fe6122ff565b91905054811015610513575b50815416905580f35b61051c90611f8a565b3861050a565b818061052f8982946117e1565b878254165af161053d611a64565b501561054a578a81610486565b8760649188519162461bcd60e51b83528201526018602482015277195d1a08191d5cdd081d1c985b9cd9995c8819985a5b195960421b6044820152fd5b61059991610594916117e1565b6125fb565b50853861047c565b6105c2919650853d87116105c9575b6105ba81836118ab565b8101906122cc565b9438610473565b503d6105b0565b8a513d85823e3d90fd5b83604494929b506105fb8b97969492883d8a116105c9576105ba81836118ab565b9b9250935091939461043c565b8c513d87823e3d90fd5b61062a919350823d84116105c9576105ba81836118ab565b9138610415565b8c513d88823e3d90fd5b9650975095506060853d606011610677575b8161065a606093836118ab565b8101031261018a57845195888487015196015196959697386103e3565b3d915061064d565b88513d84823e3d90fd5b634e487b7160e01b8c526011895260248cfd5b6106bb90823d84116106c2575b6106b381836118ab565b810190611a08565b503861037f565b503d6106a9565b87513d8d823e3d90fd5b6106e990833d85116106c2576106b381836118ab565b5038610343565b88513d8e823e3d90fd5b835162461bcd60e51b815260208187015260146024820152731b1c081c9958d95a5d995c881c995c5d5a5c995960621b6044820152606490fd5b50503461018a578160031936011261018a57602090516127108152f35b919050602092836003193601126109ac576006549061077660ff8360b81c1615611456565b60ff60b81b19918216600160b81b1760068190556107af9060ff906107a060a082901c831661148f565b6102af828260a81c1615611957565b341561097a576127106107c460015434611587565b04906107d082346117e1565b946107da8661218f565b956107e687151561198f565b6107f382358810156119d1565b6003549081881161093e5761084f9261081d898b946108158295600254611661565b6002556117e1565b60035585610917575b875163a9059cbb60e01b8152339181019182526020820192909252909283918291604090910190565b0381857f00000000000000000000000000000000000000000000000000000000000000006001600160a01b03165af191821561090c5790610895926108ef575b50611a20565b7fbeae048c6d270d9469f86cf6e8fedda3c60ad770f16c24c9fc131c8e9a09101d8351806108d787339534846040919493926060820195825260208201520152565b0390a26108e2612294565b6006541660065551908152f35b6109069150873d89116106c2576106b381836118ab565b3861088f565b8551903d90823e3d90fd5b610939858080808a60018060a01b038254165af1610933611a64565b50611aa4565b610826565b865162461bcd60e51b81528084018a90526016602482015275696e73756666696369656e74206c697175696469747960501b6044820152606490fd5b825162461bcd60e51b8152808501869052600c60248201526b195d1a081c995c5d5a5c995960a21b6044820152606490fd5b80fd5b919050346101ef57806003193601126101ef578135600654906109d860ff8360b81c1615611456565b60ff60b81b19918216600160b81b176006819055610a029060ff906107a060a082901c831661148f565b610a0d811515611867565b610a1681612227565b94610a2286151561198f565b6002548611610bd957612710610a3a60015488611587565b0495610a4687826117e1565b95610a556024358810156119d1565b85516323b872dd60e01b81523382820190815230602082810191909152604082018790526001600160a01b0394929182908190606001038188887f0000000000000000000000000000000000000000000000000000000000000000165af1908115610bcf57610ae69291610acf918791610bb65750611a20565b610adb86600354611661565b6003556002546117e1565b600255828080808a335af1610af9611a64565b5015610b7d575086807f846c37eef631e0943682d87352ec117c20008eb7f425c9b85ac011a6d4774cc093610b509360209a610b60575b505086519485525060208401879052604084015233929081906060820190565b0390a26006541660065551908152f35b8180610b759481938254165af1610933611a64565b803880610b30565b606490602087519162461bcd60e51b83528201526013602482015272195d1a081d1c985b9cd9995c8819985a5b1959606a1b6044820152fd5b610906915060203d6020116106c2576106b381836118ab565b88513d87823e3d90fd5b835162461bcd60e51b8152602081870152601860248201527f696e73756666696369656e7420657468207265736572766500000000000000006044820152606490fd5b50503461018a578160031936011261018a576020906002549051908152f35b50503461018a578160031936011261018a576020906003549051908152f35b50503461018a578160031936011261018a57517f00000000000000000000000000000000000000000000000000000000000000006001600160a01b03168152602090f35b50503461018a578160031936011261018a5760209060ff60065460b01c1690519015158152f35b905082346109ac5760203660031901126109ac5750610ce490356118e3565b82519182526020820152f35b8391503461018a57602090816003193601126101ef578035906001600160a01b0390610d3f337f000000000000000000000000000000000000000000000000000000000000000084161461141b565b6006549160ff8360a01c16610e6a5784602491610d5d861515611867565b88516370a0823160e01b8152308582015292839182907f0000000000000000000000000000000000000000000000000000000000000000165afa908115610e60579084918791610e2b575b5010610df2575060ff60a01b1916600160a01b176006556003819055925192835290917fa71ed34ff06af8d6865a8f541aae52d72fa89f0e5ee15f01d48fa6c62c8569149190a180f35b855162461bcd60e51b81529081018490526013602482015272696e73756666696369656e7420746f6b656e7360681b6044820152606490fd5b809250868092503d8311610e59575b610e4481836118ab565b81010312610e555783905188610da8565b8580fd5b503d610e3a565b87513d88823e3d90fd5b865162461bcd60e51b8152808301869052600e60248201526d185b1c9958591e481cd95959195960921b6044820152606490fd5b8391503461018a57606036600319011261018a57610eba611400565b602435916001600160a01b0390818416808503610e555760443592610f02817f000000000000000000000000000000000000000000000000000000000000000016331461141b565b60065490610f1660ff8360a81c16156114cd565b8415610fcb5785169081610f8b575b600580546001600160a01b0319908116939093179055161760065581905593516001600160a01b039182168152911660208201526040810192909252907fbcdc4bff84f936019028a7bcbef6b449550d6334606377b822720e57e94276c490606090a180f35b82610f2557885162461bcd60e51b815260208186015260156024820152741b1c081c9958da5c1a595b9d081c995c5d5a5c9959605a1b6044820152606490fd5b885162461bcd60e51b8152602081860152600f60248201526e1d185c99d95d081c995c5d5a5c9959608a1b6044820152606490fd5b50503461018a578160031936011261018a576020906008549051908152f35b50503461018a578160031936011261018a57602090517f00000000000000000000000000000000000000000000000000000000000000008152f35b905082346109ac5760203660031901126109ac5750610ce490356117ee565b50503461018a578160031936011261018a57905490516001600160a01b039091168152602090f35b50503461018a578160031936011261018a5760065490516001600160a01b039091168152602090f35b83346109ac57806003193601126109ac576006546110ee60ff8260b81c1615611456565b60ff60b81b19908116600160b81b1760065561110861177d565b6006541660065580f35b50503461018a578160031936011261018a5760209061112f61166e565b9051908152f35b50503461018a578160031936011261018a57602090517f00000000000000000000000000000000000000000000000000000000000000008152f35b50503461018a578160031936011261018a5760209060ff60065460a01c1690519015158152f35b919050346101ef57806003193601126101ef576111b3611400565b60243591906001600160a01b03906111ee337f000000000000000000000000000000000000000000000000000000000000000084161461141b565b169283156112735761012c8311611242575083546001600160a01b031916831784556001829055519081527fe42708d93b95810922305119a3271ca42233da9ebe1e1e503f0e887817a32c7a90602090a280f35b6020606492519162461bcd60e51b8352820152600c60248201526b0cccaca40e8dede40d0d2ced60a31b6044820152fd5b6020606492519162461bcd60e51b835282015260126024820152711c9958da5c1a595b9d081c995c5d5a5c995960721b6044820152fd5b50503461018a578160031936011261018a5760209061112f6115d0565b50503461018a578160031936011261018a5761130d337f00000000000000000000000000000000000000000000000000000000000000006001600160a01b03161461141b565b6006549061132160ff8360b81c1615611456565b60ff60b81b19918216600160b81b17600681905561134b9060ff906102a060a082901c831661148f565b7f5d6dc6b9835f5448ae2351719684f59735b30dfa8e62677cc6f9e98bd4c08f7f6002549161137b83151561154a565b600354815193845260208401523392a2611108611b27565b50503461018a578160031936011261018a576020906001549051908152f35b50503461018a578160031936011261018a5760075490516001600160a01b039091168152602090f35b84903461018a578160031936011261018a576005546001600160a01b03168152602090f35b600435906001600160a01b038216820361141657565b600080fd5b1561142257565b60405162461bcd60e51b815260206004820152600c60248201526b6f6e6c7920666163746f727960a01b6044820152606490fd5b1561145d57565b60405162461bcd60e51b815260206004820152600a6024820152697265656e7472616e637960b01b6044820152606490fd5b1561149657565b60405162461bcd60e51b815260206004820152600f60248201526e1c1bdbdb081b9bdd081cd959591959608a1b6044820152606490fd5b156114d457565b60405162461bcd60e51b8152602060048201526011602482015270185b1c9958591e4819dc98591d585d1959607a1b6044820152606490fd5b1561151457565b60405162461bcd60e51b815260206004820152600e60248201526d646578206375727665206c69766560901b6044820152606490fd5b1561155157565b60405162461bcd60e51b815260206004820152600e60248201526d6e6f20657468207265736572766560901b6044820152606490fd5b8181029291811591840414171561159a57565b634e487b7160e01b600052601160045260246000fd5b81156115ba570490565b634e487b7160e01b600052601260045260246000fd5b600454801561165b5760065460ff8160b01c16908115611633575b501561162b576115f96122ff565b90505b612710918282029180830484149015171561159a5761161a916115b0565b90808211611626575090565b905090565b6002546115fc565b60ff915060a81c1680611647575b386115eb565b506007546001600160a01b03161515611641565b50600090565b9190820180921161159a57565b60065460ff8160b01c1690811561172e575b508061171a575b611712576116b86003547f000000000000000000000000000000000000000000000000000000000000000090611661565b801561165b576116eb6002547f000000000000000000000000000000000000000000000000000000000000000090611661565b90670de0b6b3a76400009182810292818404149015171561159a5761170f916115b0565b90565b61170f611f42565b506007546001600160a01b03161515611687565b60ff915060a81c1638611680565b1561174357565b60405162461bcd60e51b81526020600482015260126024820152711d185c99d95d081b9bdd081c995858da195960721b6044820152606490fd5b60ff600654611790828260a01c1661148f565b61179f828260a81c16156114cd565b60b01c166117c1576117b7600254600454111561173c565b6117bf611b27565b565b6117bf6117cc6122ff565b90506117dc60045482101561173c565b611f8a565b9190820391821161159a57565b60065460ff8160a01c1615908115611858575b811561184a575b508015611842575b6118395761183661183161271061182960015485611587565b0480936117e1565b61218f565b91565b50600090600090565b508015611810565b60ff915060b01c1638611808565b905060ff8160a81c1690611801565b1561186e57565b60405162461bcd60e51b81526020600482015260156024820152741d1bdad95b88185b5bdd5b9d081c995c5d5a5c9959605a1b6044820152606490fd5b90601f8019910116810190811067ffffffffffffffff8211176118cd57604052565b634e487b7160e01b600052604160045260246000fd5b60065460ff8160a01c1615908115611948575b811561193a575b508015611932575b6118395761191290612227565b80156118395761183661271061192a60015484611587565b0480926117e1565b508015611905565b60ff915060b01c16386118fd565b905060ff8160a81c16906118f6565b1561195e57565b60405162461bcd60e51b815260206004820152600960248201526819dc98591d585d195960ba1b6044820152606490fd5b1561199657565b60405162461bcd60e51b81526020600482015260136024820152721a5b9cdd59999a58da595b9d081bdd5d1c1d5d606a1b6044820152606490fd5b156119d857565b60405162461bcd60e51b8152602060048201526008602482015267736c69707061676560c01b6044820152606490fd5b90816020910312611416575180151581036114165790565b15611a2757565b60405162461bcd60e51b81526020600482015260156024820152741d1bdad95b881d1c985b9cd9995c8819985a5b1959605a1b6044820152606490fd5b3d15611a9f573d9067ffffffffffffffff82116118cd5760405191611a93601f8201601f1916602001846118ab565b82523d6000602084013e565b606090565b15611aab57565b60405162461bcd60e51b8152602060048201526013602482015272199959481d1c985b9cd9995c8819985a5b1959606a1b6044820152606490fd5b15611aed57565b60405162461bcd60e51b815260206004820152601260248201527119195e081c9bdd5d195c881b9bdd081cd95d60721b6044820152606490fd5b6005546001600160a01b0390811690611b41821515611ae6565b6006805460ff60a81b198116600160a81b179091554260085581168015611f065760035491600254906000948560035585600255817f0000000000000000000000000000000000000000000000000000000000000000169260409687519163095ea7b360e01b808452600494858501528260248501526020938481604481878c5af18015611efc579185918b93611edf575b506005548c5191825288166001600160a01b0316878201908152602081019390935291829081906040010381868b5af180156105d057611ec2575b508460055416610e104201804211611eaf5760c488846060948d948f519d8e96879563f305d71960e01b87528d8701526024860152896044860152896064860152608485015260a48401525af1978815611ea55782968398849a611e61575b506005548b5163c45a015560e01b815290881686828981845afa918215611e3857889392918e89928994611e42575b50516315ab88c960e31b815294859182905afa928315611e3857928796959493928a8f93819b9a958994611e18575b5060449394519b8c95869463e6a4390560e01b86528d860152166024840152165afa958615611e0e579088918497611def575b50818111611dda575b5050878111611d75575b5050600780546001600160a01b0319169490931693841790925550509351908152602081019190915260408101919091524260608201527f71aa8c3702dbbc54247a4e6446450e64a46250dd72707a247ddb01d72eaef4459080608081015b0390a2565b8180611d828a82946117e1565b888254165af1611d90611a64565b5015611d9d578080611d11565b875162461bcd60e51b8152918201526018602482015277195d1a08191d5cdd081d1c985b9cd9995c8819985a5b195960421b604482015260649150fd5b611de791610594916117e1565b508638611d07565b611e07919750853d87116105c9576105ba81836118ab565b9538611cfe565b8b513d85823e3d90fd5b60449450611e3290873d89116105c9576105ba81836118ab565b93611ccb565b8d513d88823e3d90fd5b611e5a919450833d85116105c9576105ba81836118ab565b9238611c9c565b9750985096506060863d606011611e9d575b81611e80606093836118ab565b8101031261018a5785519689848801519701519796979838611c6d565b3d9150611e73565b89513d84823e3d90fd5b634e487b7160e01b845260118652602484fd5b611ed890843d86116106c2576106b381836118ab565b5038611c0e565b611ef590833d85116106c2576106b381836118ab565b5038611bd3565b8b513d86823e3d90fd5b60405162461bcd60e51b81526020600482015260146024820152731b1c081c9958d95a5d995c881c995c5d5a5c995960621b6044820152606490fd5b611f4a6122ff565b9080158015611f82575b611f7b57670de0b6b3a76400009182810292818404149015171561159a5761170f916115b0565b5050600090565b508115611f54565b9060065460ff8160b01c1615612155576007546001600160a01b039081169182156121215761ffff60a81b1916600160a81b1760065542600855604080516370a0823160e01b815230600482015290926020908183602481845afa9283156120e7576000936120f2575b5082612055575b5050611d707f6d6435bd27368eeaa8bea9975846b4ffc3d4864faabcec7e007dc6014f4ea05593949561202c612559565b936007541695519384934292859094939260609260808301968352602083015260408201520152565b81600091604487518094819363a9059cbb60e01b835261dead60048401528860248401525af19081156120e7576000916120ca575b50156120965780611ffb565b60649084519062461bcd60e51b82526004820152600e60248201526d1b1c08189d5c9b8819985a5b195960921b6044820152fd5b6120e19150823d84116106c2576106b381836118ab565b3861208a565b85513d6000823e3d90fd5b90928282813d831161211a575b61210981836118ab565b810103126109ac5750519138611ff4565b503d6120ff565b60405162461bcd60e51b815260206004820152600c60248201526b1c185a5c881b9bdd081cd95d60a21b6044820152606490fd5b60405162461bcd60e51b8152602060048201526012602482015271646578206375727665206e6f74206c69766560701b6044820152606490fd5b801561165b576121c26002547f000000000000000000000000000000000000000000000000000000000000000090611661565b9061220e600354926122086121f77f000000000000000000000000000000000000000000000000000000000000000086611661565b936122028584611587565b92611661565b906115b0565b8082111561221f5761161a916117e1565b505050600090565b6002549061220e6122587f000000000000000000000000000000000000000000000000000000000000000084611661565b916122086122896003547f000000000000000000000000000000000000000000000000000000000000000090611661565b916122028386611587565b60065460ff8160a81c169081156122be575b506117bf57600254600454116117bf576117bf611b27565b60ff915060b01c16386122a6565b9081602091031261141657516001600160a01b03811681036114165790565b51906001600160701b038216820361141657565b600754600091906001600160a01b03908390819083168015801561254d575b61254557836005541690604094855180936315ab88c960e31b825281600460209384935afa93841561253b57899461251c575b508651630dfe168160e01b8152908082600481875afa918215612512578a926124f3575b50875163d21220a760e01b8152938185600481845afa9485156124e9578b956124c2575b509060606004928a5193848092630240bc6b60e21b82525afa9a8b156124b7578099819c612458575b5050505081807f0000000000000000000000000000000000000000000000000000000000000000169116928184148061244b575b1561241257505050505050506001600160701b03809116921690565b959894979695821614928361243f575b50505061242d575050565b6001600160701b039081169450169150565b16149050388080612422565b50828516838216146123f6565b91939b509198506060893d6060116124af575b81612478606093836118ab565b8101031261018a5761249461248c8a6122eb565b938a016122eb565b98015163ffffffff8116036109ac57509597388080806123c2565b3d915061246b565b8951903d90823e3d90fd5b829195506124e06060916004943d85116105c9576105ba81836118ab565b95919250612399565b89513d8d823e3d90fd5b8161250b9293503d84116105c9576105ba81836118ab565b9038612375565b88513d8c823e3d90fd5b816125349295503d86116105c9576105ba81836118ab565b9238612351565b87513d8b823e3d90fd5b505050508190565b5083600554161561231e565b6040516370a0823160e01b81523060048201526020816024817f00000000000000000000000000000000000000000000000000000000000000006001600160a01b03165afa9081156125ef576000916125bd575b50801561165b5761170f906125fb565b90506020813d6020116125e7575b816125d8602093836118ab565b810103126114165751386125ad565b3d91506125cb565b6040513d6000823e3d90fd5b801561165b57604051630852cd8d60e31b81526004810182905260208160248160007f00000000000000000000000000000000000000000000000000000000000000006001600160a01b03165af19081156125ef5760009161269a575b50156126615790565b60405162461bcd60e51b81526020600482015260116024820152701d1bdad95b88189d5c9b8819985a5b1959607a1b6044820152606490fd5b6126b3915060203d6020116106c2576106b381836118ab565b3861265856fea2646970667358221220efba7e76bee9ac440d34f6b2792fe5ec1d2efc94da64b0148c9175cf5476f18064736f6c63430008180033","opcodes":"PUSH1 0x1F PUSH3 0x2AF0 CODESIZE DUP2 SWAP1 SUB SWAP2 DUP3 ADD PUSH1 0x1F NOT AND PUSH2 0x100 SWAP1 DUP2 ADD SWAP3 SWAP1 SWAP2 PUSH1 0x1 PUSH1 0x1 PUSH1 0x40 SHL SUB DUP5 GT DUP4 DUP6 LT OR PUSH3 0x3D5 JUMPI DUP2 PUSH2 0x120 SWAP3 DUP5 SWAP3 PUSH1 0x40 SWAP7 DUP8 MSTORE DUP4 CODECOPY DUP2 ADD SUB SLT PUSH3 0x3D0 JUMPI PUSH3 0x4E DUP2 PUSH3 0x3EB JUMP JUMPDEST PUSH1 0x20 SWAP1 PUSH3 0x5E DUP3 DUP5 ADD PUSH3 0x3EB JUMP JUMPDEST SWAP2 PUSH3 0x6C DUP6 DUP6 ADD PUSH3 0x3EB JUMP JUMPDEST SWAP3 PUSH1 0x60 DUP6 ADD MLOAD PUSH1 0x80 DUP7 ADD MLOAD PUSH1 0xA0 DUP8 ADD MLOAD SWAP2 PUSH1 0xC0 DUP9 ADD MLOAD SWAP4 PUSH3 0xA0 PUSH2 0x100 PUSH3 0x98 PUSH1 0xE0 DUP13 ADD PUSH3 0x3EB JUMP JUMPDEST SWAP11 ADD PUSH3 0x3EB JUMP JUMPDEST PUSH1 0x1 PUSH1 0x1 PUSH1 0xA0 SHL SUB SWAP9 SWAP1 SWAP8 SWAP1 DUP10 DUP3 AND ISZERO PUSH3 0x39B JUMPI DUP10 DUP4 AND ISZERO PUSH3 0x364 JUMPI DUP10 AND SWAP10 DUP11 ISZERO PUSH3 0x320 JUMPI PUSH2 0x12C DUP5 GT PUSH3 0x2ED JUMPI DUP5 ISZERO PUSH3 0x2A9 JUMPI DUP6 ISZERO PUSH3 0x265 JUMPI DUP7 ISZERO PUSH3 0x22F JUMPI DUP10 AND SWAP7 DUP8 PUSH3 0x1E4 JUMPI JUMPDEST POP PUSH1 0xA0 MSTORE PUSH1 0x80 MSTORE PUSH1 0x1 DUP1 PUSH1 0xA0 SHL SUB NOT SWAP8 DUP9 PUSH1 0x0 SLOAD AND OR PUSH1 0x0 SSTORE PUSH1 0x1 SSTORE PUSH1 0xC0 MSTORE PUSH1 0xE0 MSTORE PUSH1 0x4 SSTORE DUP4 PUSH1 0x5 SLOAD AND OR PUSH1 0x5 SSTORE AND SWAP1 PUSH1 0x6 SLOAD AND OR PUSH1 0x6 SSTORE CALLVALUE PUSH1 0x2 SSTORE MLOAD PUSH2 0x26EF SWAP1 DUP2 PUSH3 0x401 DUP3 CODECOPY PUSH1 0x80 MLOAD DUP2 DUP2 DUP2 PUSH2 0x23B ADD MSTORE DUP2 DUP2 PUSH2 0xC6F ADD MSTORE DUP2 DUP2 PUSH2 0xD18 ADD MSTORE DUP2 DUP2 PUSH2 0xEDB ADD MSTORE DUP2 DUP2 PUSH2 0x11C7 ADD MSTORE PUSH2 0x12DF ADD MSTORE PUSH1 0xA0 MLOAD DUP2 DUP2 DUP2 PUSH2 0x1A2 ADD MSTORE DUP2 DUP2 PUSH2 0x2EC ADD MSTORE DUP2 DUP2 PUSH2 0x854 ADD MSTORE DUP2 DUP2 PUSH2 0xA91 ADD MSTORE DUP2 DUP2 PUSH2 0xD75 ADD MSTORE DUP2 DUP2 PUSH2 0x1B78 ADD MSTORE DUP2 DUP2 PUSH2 0x23CA ADD MSTORE DUP2 DUP2 PUSH2 0x2574 ADD MSTORE PUSH2 0x261F ADD MSTORE PUSH1 0xC0 MLOAD DUP2 DUP2 DUP2 PUSH2 0x1037 ADD MSTORE DUP2 DUP2 PUSH2 0x16C6 ADD MSTORE DUP2 DUP2 PUSH2 0x219D ADD MSTORE PUSH2 0x2233 ADD MSTORE PUSH1 0xE0 MLOAD DUP2 DUP2 DUP2 PUSH2 0x114E ADD MSTORE DUP2 DUP2 PUSH2 0x1693 ADD MSTORE DUP2 DUP2 PUSH2 0x21D2 ADD MSTORE PUSH2 0x2264 ADD MSTORE RETURN JUMPDEST DUP10 DUP10 AND PUSH3 0xF1 JUMPI PUSH1 0x64 SWAP1 DUP13 MLOAD SWAP1 PUSH3 0x461BCD PUSH1 0xE5 SHL DUP3 MSTORE PUSH1 0x4 DUP3 ADD MSTORE PUSH1 0x15 PUSH1 0x24 DUP3 ADD MSTORE PUSH32 0x6C7020726563697069656E742072657175697265640000000000000000000000 PUSH1 0x44 DUP3 ADD MSTORE REVERT JUMPDEST DUP12 MLOAD PUSH3 0x461BCD PUSH1 0xE5 SHL DUP2 MSTORE PUSH1 0x4 DUP2 ADD DUP10 SWAP1 MSTORE PUSH1 0xF PUSH1 0x24 DUP3 ADD MSTORE PUSH15 0x1D185C99D95D081C995C5D5A5C9959 PUSH1 0x8A SHL PUSH1 0x44 DUP3 ADD MSTORE PUSH1 0x64 SWAP1 REVERT JUMPDEST DUP12 MLOAD PUSH3 0x461BCD PUSH1 0xE5 SHL DUP2 MSTORE PUSH1 0x4 DUP2 ADD DUP10 SWAP1 MSTORE PUSH1 0x16 PUSH1 0x24 DUP3 ADD MSTORE PUSH32 0x7669727475616C20746F6B656E20726571756972656400000000000000000000 PUSH1 0x44 DUP3 ADD MSTORE PUSH1 0x64 SWAP1 REVERT JUMPDEST DUP12 MLOAD PUSH3 0x461BCD PUSH1 0xE5 SHL DUP2 MSTORE PUSH1 0x4 DUP2 ADD DUP10 SWAP1 MSTORE PUSH1 0x14 PUSH1 0x24 DUP3 ADD MSTORE PUSH32 0x7669727475616C20657468207265717569726564000000000000000000000000 PUSH1 0x44 DUP3 ADD MSTORE PUSH1 0x64 SWAP1 REVERT JUMPDEST DUP12 MLOAD PUSH3 0x461BCD PUSH1 0xE5 SHL DUP2 MSTORE PUSH1 0x4 DUP2 ADD DUP10 SWAP1 MSTORE PUSH1 0xC PUSH1 0x24 DUP3 ADD MSTORE PUSH12 0xCCCACA40E8DEDE40D0D2CED PUSH1 0xA3 SHL PUSH1 0x44 DUP3 ADD MSTORE PUSH1 0x64 SWAP1 REVERT JUMPDEST DUP12 MLOAD PUSH3 0x461BCD PUSH1 0xE5 SHL DUP2 MSTORE PUSH1 0x4 DUP2 ADD DUP10 SWAP1 MSTORE PUSH1 0x16 PUSH1 0x24 DUP3 ADD MSTORE PUSH32 0x66656520726563697069656E7420726571756972656400000000000000000000 PUSH1 0x44 DUP3 ADD MSTORE PUSH1 0x64 SWAP1 REVERT JUMPDEST DUP12 MLOAD PUSH3 0x461BCD PUSH1 0xE5 SHL DUP2 MSTORE PUSH1 0x4 DUP2 ADD DUP10 SWAP1 MSTORE PUSH1 0x10 PUSH1 0x24 DUP3 ADD MSTORE PUSH16 0x199858DD1BDC9E481C995C5D5A5C9959 PUSH1 0x82 SHL PUSH1 0x44 DUP3 ADD MSTORE PUSH1 0x64 SWAP1 REVERT JUMPDEST DUP12 MLOAD PUSH3 0x461BCD PUSH1 0xE5 SHL DUP2 MSTORE PUSH1 0x4 DUP2 ADD DUP10 SWAP1 MSTORE PUSH1 0xE PUSH1 0x24 DUP3 ADD MSTORE PUSH14 0x1D1BDAD95B881C995C5D5A5C9959 PUSH1 0x92 SHL PUSH1 0x44 DUP3 ADD MSTORE PUSH1 0x64 SWAP1 REVERT JUMPDEST PUSH1 0x0 DUP1 REVERT JUMPDEST PUSH4 0x4E487B71 PUSH1 0xE0 SHL PUSH1 0x0 MSTORE PUSH1 0x41 PUSH1 0x4 MSTORE PUSH1 0x24 PUSH1 0x0 REVERT JUMPDEST MLOAD SWAP1 PUSH1 0x1 PUSH1 0x1 PUSH1 0xA0 SHL SUB DUP3 AND DUP3 SUB PUSH3 0x3D0 JUMPI JUMP INVALID PUSH1 0x80 PUSH1 0x40 DUP2 DUP2 MSTORE PUSH1 0x4 SWAP2 DUP3 CALLDATASIZE LT ISZERO PUSH2 0x16 JUMPI PUSH1 0x0 DUP1 REVERT JUMPDEST PUSH1 0x0 SWAP3 DUP4 CALLDATALOAD PUSH1 0xE0 SHR SWAP2 DUP3 PUSH4 0x758D924 EQ PUSH2 0x13DB JUMPI POP DUP2 PUSH4 0x1AD15BBC EQ PUSH2 0x13B2 JUMPI DUP2 PUSH4 0x24A9D853 EQ PUSH2 0x1393 JUMPI DUP2 PUSH4 0x25217724 EQ PUSH2 0x12C7 JUMPI DUP2 PUSH4 0x2760ECA1 EQ PUSH2 0x12AA JUMPI DUP2 PUSH4 0x2A2C6972 EQ PUSH2 0x1198 JUMPI DUP2 PUSH4 0x334041A6 EQ PUSH2 0x1171 JUMPI DUP2 PUSH4 0x343EE3B7 EQ PUSH2 0x1136 JUMPI DUP2 PUSH4 0x398482D8 EQ PUSH2 0x1112 JUMPI DUP2 PUSH4 0x4329742D EQ PUSH2 0x10CA JUMPI DUP2 PUSH4 0x452E68DD EQ PUSH2 0x10A1 JUMPI DUP2 PUSH4 0x46904840 EQ PUSH2 0x1079 JUMPI DUP2 PUSH4 0x4BEB394C EQ PUSH2 0x105A JUMPI DUP2 PUSH4 0x52B86D2B EQ PUSH2 0x101F JUMPI DUP2 PUSH4 0x7F544E49 EQ PUSH2 0x1000 JUMPI DUP2 PUSH4 0x8C575AA3 EQ PUSH2 0xE9E JUMPI DUP2 PUSH4 0x95564837 EQ PUSH2 0xCF0 JUMPI DUP2 PUSH4 0xA64190C4 EQ PUSH2 0xCC5 JUMPI DUP2 PUSH4 0xC446795A EQ PUSH2 0xC9E JUMPI DUP2 PUSH4 0xC45A0155 EQ PUSH2 0xC5A JUMPI DUP2 PUSH4 0xCBCB3171 EQ PUSH2 0xC3B JUMPI DUP2 PUSH4 0xD62CCB3F EQ PUSH2 0xC1C JUMPI DUP2 PUSH4 0xD79875EB EQ PUSH2 0x9AF JUMPI DUP2 PUSH4 0xD96A094A EQ PUSH2 0x751 JUMPI DUP2 PUSH4 0xE1A45218 EQ PUSH2 0x734 JUMPI DUP2 PUSH4 0xE3818EB8 EQ PUSH2 0x21A JUMPI DUP2 PUSH4 0xE7C2B772 EQ PUSH2 0x1F3 JUMPI DUP2 PUSH4 0xF95A02D0 EQ PUSH2 0x1D1 JUMPI POP DUP1 PUSH4 0xFC0C546A EQ PUSH2 0x18E JUMPI PUSH4 0xFCCC2813 EQ PUSH2 0x16F JUMPI PUSH1 0x0 DUP1 REVERT JUMPDEST CALLVALUE PUSH2 0x18A JUMPI DUP2 PUSH1 0x3 NOT CALLDATASIZE ADD SLT PUSH2 0x18A JUMPI PUSH1 0x20 SWAP1 MLOAD PUSH2 0xDEAD DUP2 MSTORE RETURN JUMPDEST POP DUP1 REVERT JUMPDEST POP CALLVALUE PUSH2 0x18A JUMPI DUP2 PUSH1 0x3 NOT CALLDATASIZE ADD SLT PUSH2 0x18A JUMPI MLOAD PUSH32 0x0 PUSH1 0x1 PUSH1 0x1 PUSH1 0xA0 SHL SUB AND DUP2 MSTORE PUSH1 0x20 SWAP1 RETURN JUMPDEST SWAP1 POP CALLVALUE PUSH2 0x1EF JUMPI DUP3 PUSH1 0x3 NOT CALLDATASIZE ADD SLT PUSH2 0x1EF JUMPI PUSH1 0x20 SWAP3 POP SLOAD SWAP1 MLOAD SWAP1 DUP2 MSTORE RETURN JUMPDEST DUP3 DUP1 REVERT JUMPDEST POP POP CALLVALUE PUSH2 0x18A JUMPI DUP2 PUSH1 0x3 NOT CALLDATASIZE ADD SLT PUSH2 0x18A JUMPI PUSH1 0x20 SWAP1 PUSH1 0xFF PUSH1 0x6 SLOAD PUSH1 0xA8 SHR AND SWAP1 MLOAD SWAP1 ISZERO ISZERO DUP2 MSTORE RETURN JUMPDEST SWAP1 POP CALLVALUE PUSH2 0x1EF JUMPI DUP3 PUSH1 0x3 NOT CALLDATASIZE ADD SLT PUSH2 0x1EF JUMPI PUSH1 0x1 PUSH1 0x1 PUSH1 0xA0 SHL SUB SWAP1 PUSH2 0x262 CALLER PUSH32 0x0 DUP5 AND EQ PUSH2 0x141B JUMP JUMPDEST PUSH1 0x6 SWAP3 DUP4 SLOAD SWAP3 PUSH2 0x278 PUSH1 0xFF DUP6 PUSH1 0xB8 SHR AND ISZERO PUSH2 0x1456 JUMP JUMPDEST PUSH1 0xFF PUSH1 0xB8 SHL NOT SWAP4 DUP5 AND PUSH1 0x1 PUSH1 0xB8 SHL OR DUP1 DUP7 SSTORE PUSH2 0x2B9 SWAP1 PUSH1 0xFF SWAP1 PUSH2 0x2A0 PUSH1 0xA0 DUP3 SWAP1 SHR DUP4 AND PUSH2 0x148F JUMP JUMPDEST PUSH2 0x2AF DUP3 DUP3 PUSH1 0xA8 SHR AND ISZERO PUSH2 0x14CD JUMP JUMPDEST PUSH1 0xB0 SHR AND ISZERO PUSH2 0x150D JUMP JUMPDEST PUSH1 0x2 SLOAD PUSH2 0x2C7 DUP2 ISZERO ISZERO PUSH2 0x154A JUMP JUMPDEST DUP2 PUSH1 0x5 SLOAD AND PUSH2 0x2D7 DUP2 ISZERO ISZERO PUSH2 0x1AE6 JUMP JUMPDEST ADDRESS ISZERO PUSH2 0x6FA JUMPI PUSH1 0x3 SLOAD SWAP3 DUP9 PUSH1 0x3 SSTORE DUP9 PUSH1 0x2 SSTORE DUP1 PUSH32 0x0 AND SWAP2 DUP6 MLOAD SWAP1 PUSH4 0x95EA7B3 PUSH1 0xE0 SHL SWAP1 DUP2 DUP4 MSTORE DUP9 DUP4 ADD MSTORE DUP11 PUSH1 0x24 DUP4 ADD MSTORE DUP2 DUP12 DUP2 PUSH1 0x44 PUSH1 0x20 SWAP6 DUP7 SWAP4 DUP10 GAS CALL DUP1 ISZERO PUSH2 0x6F0 JUMPI SWAP2 DUP4 SWAP2 DUP9 SWAP4 PUSH2 0x6D3 JUMPI JUMPDEST POP PUSH1 0x5 SLOAD DUP10 MLOAD SWAP2 DUP3 MSTORE PUSH1 0x1 PUSH1 0x1 PUSH1 0xA0 SHL SUB SWAP1 DUP7 AND AND DUP11 DUP3 ADD SWAP1 DUP2 MSTORE PUSH1 0x20 DUP2 ADD SWAP4 SWAP1 SWAP4 MSTORE SWAP2 DUP3 SWAP1 DUP2 SWAP1 SUB PUSH1 0x40 ADD DUP2 DUP15 DUP9 GAS CALL DUP1 ISZERO PUSH2 0x6C9 JUMPI PUSH2 0x69C JUMPI JUMPDEST POP DUP2 PUSH1 0x5 SLOAD AND SWAP4 PUSH2 0xE10 TIMESTAMP ADD SWAP5 DUP6 TIMESTAMP GT PUSH2 0x689 JUMPI SWAP1 PUSH1 0x60 DUP6 PUSH1 0xC4 DUP12 DUP16 SWAP6 DUP6 SWAP1 DUP14 MLOAD SWAP12 DUP13 SWAP6 DUP7 SWAP5 PUSH4 0xF305D719 PUSH1 0xE0 SHL DUP7 MSTORE DUP6 ADD MSTORE DUP14 PUSH1 0x24 DUP6 ADD MSTORE DUP9 PUSH1 0x44 DUP6 ADD MSTORE DUP9 PUSH1 0x64 DUP6 ADD MSTORE ADDRESS PUSH1 0x84 DUP6 ADD MSTORE PUSH1 0xA4 DUP5 ADD MSTORE GAS CALL SWAP7 DUP8 ISZERO PUSH2 0x67F JUMPI DUP3 SWAP6 DUP4 SWAP8 DUP5 SWAP10 PUSH2 0x63B JUMPI JUMPDEST POP PUSH1 0x5 SLOAD DUP11 MLOAD PUSH4 0xC45A0155 PUSH1 0xE0 SHL DUP2 MSTORE SWAP1 DUP8 AND DUP7 DUP3 DUP15 DUP2 DUP5 GAS STATICCALL SWAP2 DUP3 ISZERO PUSH2 0x631 JUMPI SWAP7 DUP7 SWAP6 SWAP5 SWAP4 SWAP3 SWAP2 DUP15 SWAP9 DUP3 SWAP9 SWAP4 PUSH2 0x612 JUMPI JUMPDEST POP DUP14 MLOAD PUSH4 0x15AB88C9 PUSH1 0xE3 SHL DUP2 MSTORE SWAP9 DUP10 SWAP2 DUP3 SWAP1 GAS STATICCALL SWAP7 DUP8 ISZERO PUSH2 0x608 JUMPI DUP14 SWAP2 DUP14 DUP11 SWAP3 DUP9 SWAP11 PUSH2 0x5DA JUMPI JUMPDEST POP SWAP2 DUP9 SWAP5 SWAP4 SWAP2 DUP2 PUSH1 0x44 SWAP5 MLOAD SWAP12 DUP13 SWAP7 DUP8 SWAP6 PUSH4 0xE6A43905 PUSH1 0xE0 SHL DUP8 MSTORE DUP7 ADD MSTORE AND PUSH1 0x24 DUP5 ADD MSTORE AND GAS STATICCALL SWAP5 DUP6 ISZERO PUSH2 0x5D0 JUMPI SWAP1 DUP8 SWAP2 DUP5 SWAP7 PUSH2 0x5A1 JUMPI JUMPDEST POP DUP2 DUP2 GT PUSH2 0x587 JUMPI JUMPDEST POP POP DUP7 DUP2 GT PUSH2 0x522 JUMPI JUMPDEST POP POP DUP10 SLOAD PUSH1 0xFF PUSH1 0xB0 SHL NOT AND PUSH1 0x1 PUSH1 0xB0 SHL OR DUP11 SSTORE POP PUSH1 0x7 DUP1 SLOAD PUSH1 0x1 PUSH1 0x1 PUSH1 0xA0 SHL SUB NOT AND SWAP3 SWAP1 SWAP2 AND SWAP2 DUP3 OR SWAP1 SSTORE SWAP4 MLOAD SWAP1 DUP2 MSTORE PUSH1 0x20 DUP2 ADD SWAP2 SWAP1 SWAP2 MSTORE PUSH1 0x40 DUP2 ADD SWAP2 SWAP1 SWAP2 MSTORE TIMESTAMP PUSH1 0x60 DUP3 ADD MSTORE PUSH32 0x5CFC9EA0E95E86463D8DACD6C53993376A8AFAB5437E80A8A98D57D7A8B0F234 SWAP1 DUP1 PUSH1 0x80 DUP2 ADD SUB SWAP1 LOG2 PUSH2 0x4FE PUSH2 0x22FF JUMP JUMPDEST SWAP2 SWAP1 POP SLOAD DUP2 LT ISZERO PUSH2 0x513 JUMPI JUMPDEST POP DUP2 SLOAD AND SWAP1 SSTORE DUP1 RETURN JUMPDEST PUSH2 0x51C SWAP1 PUSH2 0x1F8A JUMP JUMPDEST CODESIZE PUSH2 0x50A JUMP JUMPDEST DUP2 DUP1 PUSH2 0x52F DUP10 DUP3 SWAP5 PUSH2 0x17E1 JUMP JUMPDEST DUP8 DUP3 SLOAD AND GAS CALL PUSH2 0x53D PUSH2 0x1A64 JUMP JUMPDEST POP ISZERO PUSH2 0x54A JUMPI DUP11 DUP2 PUSH2 0x486 JUMP JUMPDEST DUP8 PUSH1 0x64 SWAP2 DUP9 MLOAD SWAP2 PUSH3 0x461BCD PUSH1 0xE5 SHL DUP4 MSTORE DUP3 ADD MSTORE PUSH1 0x18 PUSH1 0x24 DUP3 ADD MSTORE PUSH24 0x195D1A08191D5CDD081D1C985B9CD9995C8819985A5B1959 PUSH1 0x42 SHL PUSH1 0x44 DUP3 ADD MSTORE REVERT JUMPDEST PUSH2 0x599 SWAP2 PUSH2 0x594 SWAP2 PUSH2 0x17E1 JUMP JUMPDEST PUSH2 0x25FB JUMP JUMPDEST POP DUP6 CODESIZE PUSH2 0x47C JUMP JUMPDEST PUSH2 0x5C2 SWAP2 SWAP7 POP DUP6 RETURNDATASIZE DUP8 GT PUSH2 0x5C9 JUMPI JUMPDEST PUSH2 0x5BA DUP2 DUP4 PUSH2 0x18AB JUMP JUMPDEST DUP2 ADD SWAP1 PUSH2 0x22CC JUMP JUMPDEST SWAP5 CODESIZE PUSH2 0x473 JUMP JUMPDEST POP RETURNDATASIZE PUSH2 0x5B0 JUMP JUMPDEST DUP11 MLOAD RETURNDATASIZE DUP6 DUP3 RETURNDATACOPY RETURNDATASIZE SWAP1 REVERT JUMPDEST DUP4 PUSH1 0x44 SWAP5 SWAP3 SWAP12 POP PUSH2 0x5FB DUP12 SWAP8 SWAP7 SWAP5 SWAP3 DUP9 RETURNDATASIZE DUP11 GT PUSH2 0x5C9 JUMPI PUSH2 0x5BA DUP2 DUP4 PUSH2 0x18AB JUMP JUMPDEST SWAP12 SWAP3 POP SWAP4 POP SWAP2 SWAP4 SWAP5 PUSH2 0x43C JUMP JUMPDEST DUP13 MLOAD RETURNDATASIZE DUP8 DUP3 RETURNDATACOPY RETURNDATASIZE SWAP1 REVERT JUMPDEST PUSH2 0x62A SWAP2 SWAP4 POP DUP3 RETURNDATASIZE DUP5 GT PUSH2 0x5C9 JUMPI PUSH2 0x5BA DUP2 DUP4 PUSH2 0x18AB JUMP JUMPDEST SWAP2 CODESIZE PUSH2 0x415 JUMP JUMPDEST DUP13 MLOAD RETURNDATASIZE DUP9 DUP3 RETURNDATACOPY RETURNDATASIZE SWAP1 REVERT JUMPDEST SWAP7 POP SWAP8 POP SWAP6 POP PUSH1 0x60 DUP6 RETURNDATASIZE PUSH1 0x60 GT PUSH2 0x677 JUMPI JUMPDEST DUP2 PUSH2 0x65A PUSH1 0x60 SWAP4 DUP4 PUSH2 0x18AB JUMP JUMPDEST DUP2 ADD SUB SLT PUSH2 0x18A JUMPI DUP5 MLOAD SWAP6 DUP9 DUP5 DUP8 ADD MLOAD SWAP7 ADD MLOAD SWAP7 SWAP6 SWAP7 SWAP8 CODESIZE PUSH2 0x3E3 JUMP JUMPDEST RETURNDATASIZE SWAP2 POP PUSH2 0x64D JUMP JUMPDEST DUP9 MLOAD RETURNDATASIZE DUP5 DUP3 RETURNDATACOPY RETURNDATASIZE SWAP1 REVERT JUMPDEST PUSH4 0x4E487B71 PUSH1 0xE0 SHL DUP13 MSTORE PUSH1 0x11 DUP10 MSTORE PUSH1 0x24 DUP13 REVERT JUMPDEST PUSH2 0x6BB SWAP1 DUP3 RETURNDATASIZE DUP5 GT PUSH2 0x6C2 JUMPI JUMPDEST PUSH2 0x6B3 DUP2 DUP4 PUSH2 0x18AB JUMP JUMPDEST DUP2 ADD SWAP1 PUSH2 0x1A08 JUMP JUMPDEST POP CODESIZE PUSH2 0x37F JUMP JUMPDEST POP RETURNDATASIZE PUSH2 0x6A9 JUMP JUMPDEST DUP8 MLOAD RETURNDATASIZE DUP14 DUP3 RETURNDATACOPY RETURNDATASIZE SWAP1 REVERT JUMPDEST PUSH2 0x6E9 SWAP1 DUP4 RETURNDATASIZE DUP6 GT PUSH2 0x6C2 JUMPI PUSH2 0x6B3 DUP2 DUP4 PUSH2 0x18AB JUMP JUMPDEST POP CODESIZE PUSH2 0x343 JUMP JUMPDEST DUP9 MLOAD RETURNDATASIZE DUP15 DUP3 RETURNDATACOPY RETURNDATASIZE SWAP1 REVERT JUMPDEST DUP4 MLOAD PUSH3 0x461BCD PUSH1 0xE5 SHL DUP2 MSTORE PUSH1 0x20 DUP2 DUP8 ADD MSTORE PUSH1 0x14 PUSH1 0x24 DUP3 ADD MSTORE PUSH20 0x1B1C081C9958D95A5D995C881C995C5D5A5C9959 PUSH1 0x62 SHL PUSH1 0x44 DUP3 ADD MSTORE PUSH1 0x64 SWAP1 REVERT JUMPDEST POP POP CALLVALUE PUSH2 0x18A JUMPI DUP2 PUSH1 0x3 NOT CALLDATASIZE ADD SLT PUSH2 0x18A JUMPI PUSH1 0x20 SWAP1 MLOAD PUSH2 0x2710 DUP2 MSTORE RETURN JUMPDEST SWAP2 SWAP1 POP PUSH1 0x20 SWAP3 DUP4 PUSH1 0x3 NOT CALLDATASIZE ADD SLT PUSH2 0x9AC JUMPI PUSH1 0x6 SLOAD SWAP1 PUSH2 0x776 PUSH1 0xFF DUP4 PUSH1 0xB8 SHR AND ISZERO PUSH2 0x1456 JUMP JUMPDEST PUSH1 0xFF PUSH1 0xB8 SHL NOT SWAP2 DUP3 AND PUSH1 0x1 PUSH1 0xB8 SHL OR PUSH1 0x6 DUP2 SWAP1 SSTORE PUSH2 0x7AF SWAP1 PUSH1 0xFF SWAP1 PUSH2 0x7A0 PUSH1 0xA0 DUP3 SWAP1 SHR DUP4 AND PUSH2 0x148F JUMP JUMPDEST PUSH2 0x2AF DUP3 DUP3 PUSH1 0xA8 SHR AND ISZERO PUSH2 0x1957 JUMP JUMPDEST CALLVALUE ISZERO PUSH2 0x97A JUMPI PUSH2 0x2710 PUSH2 0x7C4 PUSH1 0x1 SLOAD CALLVALUE PUSH2 0x1587 JUMP JUMPDEST DIV SWAP1 PUSH2 0x7D0 DUP3 CALLVALUE PUSH2 0x17E1 JUMP JUMPDEST SWAP5 PUSH2 0x7DA DUP7 PUSH2 0x218F JUMP JUMPDEST SWAP6 PUSH2 0x7E6 DUP8 ISZERO ISZERO PUSH2 0x198F JUMP JUMPDEST PUSH2 0x7F3 DUP3 CALLDATALOAD DUP9 LT ISZERO PUSH2 0x19D1 JUMP JUMPDEST PUSH1 0x3 SLOAD SWAP1 DUP2 DUP9 GT PUSH2 0x93E JUMPI PUSH2 0x84F SWAP3 PUSH2 0x81D DUP10 DUP12 SWAP5 PUSH2 0x815 DUP3 SWAP6 PUSH1 0x2 SLOAD PUSH2 0x1661 JUMP JUMPDEST PUSH1 0x2 SSTORE PUSH2 0x17E1 JUMP JUMPDEST PUSH1 0x3 SSTORE DUP6 PUSH2 0x917 JUMPI JUMPDEST DUP8 MLOAD PUSH4 0xA9059CBB PUSH1 0xE0 SHL DUP2 MSTORE CALLER SWAP2 DUP2 ADD SWAP2 DUP3 MSTORE PUSH1 0x20 DUP3 ADD SWAP3 SWAP1 SWAP3 MSTORE SWAP1 SWAP3 DUP4 SWAP2 DUP3 SWAP2 PUSH1 0x40 SWAP1 SWAP2 ADD SWAP1 JUMP JUMPDEST SUB DUP2 DUP6 PUSH32 0x0 PUSH1 0x1 PUSH1 0x1 PUSH1 0xA0 SHL SUB AND GAS CALL SWAP2 DUP3 ISZERO PUSH2 0x90C JUMPI SWAP1 PUSH2 0x895 SWAP3 PUSH2 0x8EF JUMPI JUMPDEST POP PUSH2 0x1A20 JUMP JUMPDEST PUSH32 0xBEAE048C6D270D9469F86CF6E8FEDDA3C60AD770F16C24C9FC131C8E9A09101D DUP4 MLOAD DUP1 PUSH2 0x8D7 DUP8 CALLER SWAP6 CALLVALUE DUP5 PUSH1 0x40 SWAP2 SWAP5 SWAP4 SWAP3 PUSH1 0x60 DUP3 ADD SWAP6 DUP3 MSTORE PUSH1 0x20 DUP3 ADD MSTORE ADD MSTORE JUMP JUMPDEST SUB SWAP1 LOG2 PUSH2 0x8E2 PUSH2 0x2294 JUMP JUMPDEST PUSH1 0x6 SLOAD AND PUSH1 0x6 SSTORE MLOAD SWAP1 DUP2 MSTORE RETURN JUMPDEST PUSH2 0x906 SWAP2 POP DUP8 RETURNDATASIZE DUP10 GT PUSH2 0x6C2 JUMPI PUSH2 0x6B3 DUP2 DUP4 PUSH2 0x18AB JUMP JUMPDEST CODESIZE PUSH2 0x88F JUMP JUMPDEST DUP6 MLOAD SWAP1 RETURNDATASIZE SWAP1 DUP3 RETURNDATACOPY RETURNDATASIZE SWAP1 REVERT JUMPDEST PUSH2 0x939 DUP6 DUP1 DUP1 DUP1 DUP11 PUSH1 0x1 DUP1 PUSH1 0xA0 SHL SUB DUP3 SLOAD AND GAS CALL PUSH2 0x933 PUSH2 0x1A64 JUMP JUMPDEST POP PUSH2 0x1AA4 JUMP JUMPDEST PUSH2 0x826 JUMP JUMPDEST DUP7 MLOAD PUSH3 0x461BCD PUSH1 0xE5 SHL DUP2 MSTORE DUP1 DUP5 ADD DUP11 SWAP1 MSTORE PUSH1 0x16 PUSH1 0x24 DUP3 ADD MSTORE PUSH22 0x696E73756666696369656E74206C6971756964697479 PUSH1 0x50 SHL PUSH1 0x44 DUP3 ADD MSTORE PUSH1 0x64 SWAP1 REVERT JUMPDEST DUP3 MLOAD PUSH3 0x461BCD PUSH1 0xE5 SHL DUP2 MSTORE DUP1 DUP6 ADD DUP7 SWAP1 MSTORE PUSH1 0xC PUSH1 0x24 DUP3 ADD MSTORE PUSH12 0x195D1A081C995C5D5A5C9959 PUSH1 0xA2 SHL PUSH1 0x44 DUP3 ADD MSTORE PUSH1 0x64 SWAP1 REVERT JUMPDEST DUP1 REVERT JUMPDEST SWAP2 SWAP1 POP CALLVALUE PUSH2 0x1EF JUMPI DUP1 PUSH1 0x3 NOT CALLDATASIZE ADD SLT PUSH2 0x1EF JUMPI DUP2 CALLDATALOAD PUSH1 0x6 SLOAD SWAP1 PUSH2 0x9D8 PUSH1 0xFF DUP4 PUSH1 0xB8 SHR AND ISZERO PUSH2 0x1456 JUMP JUMPDEST PUSH1 0xFF PUSH1 0xB8 SHL NOT SWAP2 DUP3 AND PUSH1 0x1 PUSH1 0xB8 SHL OR PUSH1 0x6 DUP2 SWAP1 SSTORE PUSH2 0xA02 SWAP1 PUSH1 0xFF SWAP1 PUSH2 0x7A0 PUSH1 0xA0 DUP3 SWAP1 SHR DUP4 AND PUSH2 0x148F JUMP JUMPDEST PUSH2 0xA0D DUP2 ISZERO ISZERO PUSH2 0x1867 JUMP JUMPDEST PUSH2 0xA16 DUP2 PUSH2 0x2227 JUMP JUMPDEST SWAP5 PUSH2 0xA22 DUP7 ISZERO ISZERO PUSH2 0x198F JUMP JUMPDEST PUSH1 0x2 SLOAD DUP7 GT PUSH2 0xBD9 JUMPI PUSH2 0x2710 PUSH2 0xA3A PUSH1 0x1 SLOAD DUP9 PUSH2 0x1587 JUMP JUMPDEST DIV SWAP6 PUSH2 0xA46 DUP8 DUP3 PUSH2 0x17E1 JUMP JUMPDEST SWAP6 PUSH2 0xA55 PUSH1 0x24 CALLDATALOAD DUP9 LT ISZERO PUSH2 0x19D1 JUMP JUMPDEST DUP6 MLOAD PUSH4 0x23B872DD PUSH1 0xE0 SHL DUP2 MSTORE CALLER DUP3 DUP3 ADD SWAP1 DUP2 MSTORE ADDRESS PUSH1 0x20 DUP3 DUP2 ADD SWAP2 SWAP1 SWAP2 MSTORE PUSH1 0x40 DUP3 ADD DUP8 SWAP1 MSTORE PUSH1 0x1 PUSH1 0x1 PUSH1 0xA0 SHL SUB SWAP5 SWAP3 SWAP2 DUP3 SWAP1 DUP2 SWAP1 PUSH1 0x60 ADD SUB DUP2 DUP9 DUP9 PUSH32 0x0 AND GAS CALL SWAP1 DUP2 ISZERO PUSH2 0xBCF JUMPI PUSH2 0xAE6 SWAP3 SWAP2 PUSH2 0xACF SWAP2 DUP8 SWAP2 PUSH2 0xBB6 JUMPI POP PUSH2 0x1A20 JUMP JUMPDEST PUSH2 0xADB DUP7 PUSH1 0x3 SLOAD PUSH2 0x1661 JUMP JUMPDEST PUSH1 0x3 SSTORE PUSH1 0x2 SLOAD PUSH2 0x17E1 JUMP JUMPDEST PUSH1 0x2 SSTORE DUP3 DUP1 DUP1 DUP1 DUP11 CALLER GAS CALL PUSH2 0xAF9 PUSH2 0x1A64 JUMP JUMPDEST POP ISZERO PUSH2 0xB7D JUMPI POP DUP7 DUP1 PUSH32 0x846C37EEF631E0943682D87352EC117C20008EB7F425C9B85AC011A6D4774CC0 SWAP4 PUSH2 0xB50 SWAP4 PUSH1 0x20 SWAP11 PUSH2 0xB60 JUMPI JUMPDEST POP POP DUP7 MLOAD SWAP5 DUP6 MSTORE POP PUSH1 0x20 DUP5 ADD DUP8 SWAP1 MSTORE PUSH1 0x40 DUP5 ADD MSTORE CALLER SWAP3 SWAP1 DUP2 SWAP1 PUSH1 0x60 DUP3 ADD SWAP1 JUMP JUMPDEST SUB SWAP1 LOG2 PUSH1 0x6 SLOAD AND PUSH1 0x6 SSTORE MLOAD SWAP1 DUP2 MSTORE RETURN JUMPDEST DUP2 DUP1 PUSH2 0xB75 SWAP5 DUP2 SWAP4 DUP3 SLOAD AND GAS CALL PUSH2 0x933 PUSH2 0x1A64 JUMP JUMPDEST DUP1 CODESIZE DUP1 PUSH2 0xB30 JUMP JUMPDEST PUSH1 0x64 SWAP1 PUSH1 0x20 DUP8 MLOAD SWAP2 PUSH3 0x461BCD PUSH1 0xE5 SHL DUP4 MSTORE DUP3 ADD MSTORE PUSH1 0x13 PUSH1 0x24 DUP3 ADD MSTORE PUSH19 0x195D1A081D1C985B9CD9995C8819985A5B1959 PUSH1 0x6A SHL PUSH1 0x44 DUP3 ADD MSTORE REVERT JUMPDEST PUSH2 0x906 SWAP2 POP PUSH1 0x20 RETURNDATASIZE PUSH1 0x20 GT PUSH2 0x6C2 JUMPI PUSH2 0x6B3 DUP2 DUP4 PUSH2 0x18AB JUMP JUMPDEST DUP9 MLOAD RETURNDATASIZE DUP8 DUP3 RETURNDATACOPY RETURNDATASIZE SWAP1 REVERT JUMPDEST DUP4 MLOAD PUSH3 0x461BCD PUSH1 0xE5 SHL DUP2 MSTORE PUSH1 0x20 DUP2 DUP8 ADD MSTORE PUSH1 0x18 PUSH1 0x24 DUP3 ADD MSTORE PUSH32 0x696E73756666696369656E742065746820726573657276650000000000000000 PUSH1 0x44 DUP3 ADD MSTORE PUSH1 0x64 SWAP1 REVERT JUMPDEST POP POP CALLVALUE PUSH2 0x18A JUMPI DUP2 PUSH1 0x3 NOT CALLDATASIZE ADD SLT PUSH2 0x18A JUMPI PUSH1 0x20 SWAP1 PUSH1 0x2 SLOAD SWAP1 MLOAD SWAP1 DUP2 MSTORE RETURN JUMPDEST POP POP CALLVALUE PUSH2 0x18A JUMPI DUP2 PUSH1 0x3 NOT CALLDATASIZE ADD SLT PUSH2 0x18A JUMPI PUSH1 0x20 SWAP1 PUSH1 0x3 SLOAD SWAP1 MLOAD SWAP1 DUP2 MSTORE RETURN JUMPDEST POP POP CALLVALUE PUSH2 0x18A JUMPI DUP2 PUSH1 0x3 NOT CALLDATASIZE ADD SLT PUSH2 0x18A JUMPI MLOAD PUSH32 0x0 PUSH1 0x1 PUSH1 0x1 PUSH1 0xA0 SHL SUB AND DUP2 MSTORE PUSH1 0x20 SWAP1 RETURN JUMPDEST POP POP CALLVALUE PUSH2 0x18A JUMPI DUP2 PUSH1 0x3 NOT CALLDATASIZE ADD SLT PUSH2 0x18A JUMPI PUSH1 0x20 SWAP1 PUSH1 0xFF PUSH1 0x6 SLOAD PUSH1 0xB0 SHR AND SWAP1 MLOAD SWAP1 ISZERO ISZERO DUP2 MSTORE RETURN JUMPDEST SWAP1 POP DUP3 CALLVALUE PUSH2 0x9AC JUMPI PUSH1 0x20 CALLDATASIZE PUSH1 0x3 NOT ADD SLT PUSH2 0x9AC JUMPI POP PUSH2 0xCE4 SWAP1 CALLDATALOAD PUSH2 0x18E3 JUMP JUMPDEST DUP3 MLOAD SWAP2 DUP3 MSTORE PUSH1 0x20 DUP3 ADD MSTORE RETURN JUMPDEST DUP4 SWAP2 POP CALLVALUE PUSH2 0x18A JUMPI PUSH1 0x20 SWAP1 DUP2 PUSH1 0x3 NOT CALLDATASIZE ADD SLT PUSH2 0x1EF JUMPI DUP1 CALLDATALOAD SWAP1 PUSH1 0x1 PUSH1 0x1 PUSH1 0xA0 SHL SUB SWAP1 PUSH2 0xD3F CALLER PUSH32 0x0 DUP5 AND EQ PUSH2 0x141B JUMP JUMPDEST PUSH1 0x6 SLOAD SWAP2 PUSH1 0xFF DUP4 PUSH1 0xA0 SHR AND PUSH2 0xE6A JUMPI DUP5 PUSH1 0x24 SWAP2 PUSH2 0xD5D DUP7 ISZERO ISZERO PUSH2 0x1867 JUMP JUMPDEST DUP9 MLOAD PUSH4 0x70A08231 PUSH1 0xE0 SHL DUP2 MSTORE ADDRESS DUP6 DUP3 ADD MSTORE SWAP3 DUP4 SWAP2 DUP3 SWAP1 PUSH32 0x0 AND GAS STATICCALL SWAP1 DUP2 ISZERO PUSH2 0xE60 JUMPI SWAP1 DUP5 SWAP2 DUP8 SWAP2 PUSH2 0xE2B JUMPI JUMPDEST POP LT PUSH2 0xDF2 JUMPI POP PUSH1 0xFF PUSH1 0xA0 SHL NOT AND PUSH1 0x1 PUSH1 0xA0 SHL OR PUSH1 0x6 SSTORE PUSH1 0x3 DUP2 SWAP1 SSTORE SWAP3 MLOAD SWAP3 DUP4 MSTORE SWAP1 SWAP2 PUSH32 0xA71ED34FF06AF8D6865A8F541AAE52D72FA89F0E5EE15F01D48FA6C62C856914 SWAP2 SWAP1 LOG1 DUP1 RETURN JUMPDEST DUP6 MLOAD PUSH3 0x461BCD PUSH1 0xE5 SHL DUP2 MSTORE SWAP1 DUP2 ADD DUP5 SWAP1 MSTORE PUSH1 0x13 PUSH1 0x24 DUP3 ADD MSTORE PUSH19 0x696E73756666696369656E7420746F6B656E73 PUSH1 0x68 SHL PUSH1 0x44 DUP3 ADD MSTORE PUSH1 0x64 SWAP1 REVERT JUMPDEST DUP1 SWAP3 POP DUP7 DUP1 SWAP3 POP RETURNDATASIZE DUP4 GT PUSH2 0xE59 JUMPI JUMPDEST PUSH2 0xE44 DUP2 DUP4 PUSH2 0x18AB JUMP JUMPDEST DUP2 ADD SUB SLT PUSH2 0xE55 JUMPI DUP4 SWAP1 MLOAD DUP9 PUSH2 0xDA8 JUMP JUMPDEST DUP6 DUP1 REVERT JUMPDEST POP RETURNDATASIZE PUSH2 0xE3A JUMP JUMPDEST DUP8 MLOAD RETURNDATASIZE DUP9 DUP3 RETURNDATACOPY RETURNDATASIZE SWAP1 REVERT JUMPDEST DUP7 MLOAD PUSH3 0x461BCD PUSH1 0xE5 SHL DUP2 MSTORE DUP1 DUP4 ADD DUP7 SWAP1 MSTORE PUSH1 0xE PUSH1 0x24 DUP3 ADD MSTORE PUSH14 0x185B1C9958591E481CD959591959 PUSH1 0x92 SHL PUSH1 0x44 DUP3 ADD MSTORE PUSH1 0x64 SWAP1 REVERT JUMPDEST DUP4 SWAP2 POP CALLVALUE PUSH2 0x18A JUMPI PUSH1 0x60 CALLDATASIZE PUSH1 0x3 NOT ADD SLT PUSH2 0x18A JUMPI PUSH2 0xEBA PUSH2 0x1400 JUMP JUMPDEST PUSH1 0x24 CALLDATALOAD SWAP2 PUSH1 0x1 PUSH1 0x1 PUSH1 0xA0 SHL SUB SWAP1 DUP2 DUP5 AND DUP1 DUP6 SUB PUSH2 0xE55 JUMPI PUSH1 0x44 CALLDATALOAD SWAP3 PUSH2 0xF02 DUP2 PUSH32 0x0 AND CALLER EQ PUSH2 0x141B JUMP JUMPDEST PUSH1 0x6 SLOAD SWAP1 PUSH2 0xF16 PUSH1 0xFF DUP4 PUSH1 0xA8 SHR AND ISZERO PUSH2 0x14CD JUMP JUMPDEST DUP5 ISZERO PUSH2 0xFCB JUMPI DUP6 AND SWAP1 DUP2 PUSH2 0xF8B JUMPI JUMPDEST PUSH1 0x5 DUP1 SLOAD PUSH1 0x1 PUSH1 0x1 PUSH1 0xA0 SHL SUB NOT SWAP1 DUP2 AND SWAP4 SWAP1 SWAP4 OR SWAP1 SSTORE AND OR PUSH1 0x6 SSTORE DUP2 SWAP1 SSTORE SWAP4 MLOAD PUSH1 0x1 PUSH1 0x1 PUSH1 0xA0 SHL SUB SWAP2 DUP3 AND DUP2 MSTORE SWAP2 AND PUSH1 0x20 DUP3 ADD MSTORE PUSH1 0x40 DUP2 ADD SWAP3 SWAP1 SWAP3 MSTORE SWAP1 PUSH32 0xBCDC4BFF84F936019028A7BCBEF6B449550D6334606377B822720E57E94276C4 SWAP1 PUSH1 0x60 SWAP1 LOG1 DUP1 RETURN JUMPDEST DUP3 PUSH2 0xF25 JUMPI DUP9 MLOAD PUSH3 0x461BCD PUSH1 0xE5 SHL DUP2 MSTORE PUSH1 0x20 DUP2 DUP7 ADD MSTORE PUSH1 0x15 PUSH1 0x24 DUP3 ADD MSTORE PUSH21 0x1B1C081C9958DA5C1A595B9D081C995C5D5A5C9959 PUSH1 0x5A SHL PUSH1 0x44 DUP3 ADD MSTORE PUSH1 0x64 SWAP1 REVERT JUMPDEST DUP9 MLOAD PUSH3 0x461BCD PUSH1 0xE5 SHL DUP2 MSTORE PUSH1 0x20 DUP2 DUP7 ADD MSTORE PUSH1 0xF PUSH1 0x24 DUP3 ADD MSTORE PUSH15 0x1D185C99D95D081C995C5D5A5C9959 PUSH1 0x8A SHL PUSH1 0x44 DUP3 ADD MSTORE PUSH1 0x64 SWAP1 REVERT JUMPDEST POP POP CALLVALUE PUSH2 0x18A JUMPI DUP2 PUSH1 0x3 NOT CALLDATASIZE ADD SLT PUSH2 0x18A JUMPI PUSH1 0x20 SWAP1 PUSH1 0x8 SLOAD SWAP1 MLOAD SWAP1 DUP2 MSTORE RETURN JUMPDEST POP POP CALLVALUE PUSH2 0x18A JUMPI DUP2 PUSH1 0x3 NOT CALLDATASIZE ADD SLT PUSH2 0x18A JUMPI PUSH1 0x20 SWAP1 MLOAD PUSH32 0x0 DUP2 MSTORE RETURN JUMPDEST SWAP1 POP DUP3 CALLVALUE PUSH2 0x9AC JUMPI PUSH1 0x20 CALLDATASIZE PUSH1 0x3 NOT ADD SLT PUSH2 0x9AC JUMPI POP PUSH2 0xCE4 SWAP1 CALLDATALOAD PUSH2 0x17EE JUMP JUMPDEST POP POP CALLVALUE PUSH2 0x18A JUMPI DUP2 PUSH1 0x3 NOT CALLDATASIZE ADD SLT PUSH2 0x18A JUMPI SWAP1 SLOAD SWAP1 MLOAD PUSH1 0x1 PUSH1 0x1 PUSH1 0xA0 SHL SUB SWAP1 SWAP2 AND DUP2 MSTORE PUSH1 0x20 SWAP1 RETURN JUMPDEST POP POP CALLVALUE PUSH2 0x18A JUMPI DUP2 PUSH1 0x3 NOT CALLDATASIZE ADD SLT PUSH2 0x18A JUMPI PUSH1 0x6 SLOAD SWAP1 MLOAD PUSH1 0x1 PUSH1 0x1 PUSH1 0xA0 SHL SUB SWAP1 SWAP2 AND DUP2 MSTORE PUSH1 0x20 SWAP1 RETURN JUMPDEST DUP4 CALLVALUE PUSH2 0x9AC JUMPI DUP1 PUSH1 0x3 NOT CALLDATASIZE ADD SLT PUSH2 0x9AC JUMPI PUSH1 0x6 SLOAD PUSH2 0x10EE PUSH1 0xFF DUP3 PUSH1 0xB8 SHR AND ISZERO PUSH2 0x1456 JUMP JUMPDEST PUSH1 0xFF PUSH1 0xB8 SHL NOT SWAP1 DUP2 AND PUSH1 0x1 PUSH1 0xB8 SHL OR PUSH1 0x6 SSTORE PUSH2 0x1108 PUSH2 0x177D JUMP JUMPDEST PUSH1 0x6 SLOAD AND PUSH1 0x6 SSTORE DUP1 RETURN JUMPDEST POP POP CALLVALUE PUSH2 0x18A JUMPI DUP2 PUSH1 0x3 NOT CALLDATASIZE ADD SLT PUSH2 0x18A JUMPI PUSH1 0x20 SWAP1 PUSH2 0x112F PUSH2 0x166E JUMP JUMPDEST SWAP1 MLOAD SWAP1 DUP2 MSTORE RETURN JUMPDEST POP POP CALLVALUE PUSH2 0x18A JUMPI DUP2 PUSH1 0x3 NOT CALLDATASIZE ADD SLT PUSH2 0x18A JUMPI PUSH1 0x20 SWAP1 MLOAD PUSH32 0x0 DUP2 MSTORE RETURN JUMPDEST POP POP CALLVALUE PUSH2 0x18A JUMPI DUP2 PUSH1 0x3 NOT CALLDATASIZE ADD SLT PUSH2 0x18A JUMPI PUSH1 0x20 SWAP1 PUSH1 0xFF PUSH1 0x6 SLOAD PUSH1 0xA0 SHR AND SWAP1 MLOAD SWAP1 ISZERO ISZERO DUP2 MSTORE RETURN JUMPDEST SWAP2 SWAP1 POP CALLVALUE PUSH2 0x1EF JUMPI DUP1 PUSH1 0x3 NOT CALLDATASIZE ADD SLT PUSH2 0x1EF JUMPI PUSH2 0x11B3 PUSH2 0x1400 JUMP JUMPDEST PUSH1 0x24 CALLDATALOAD SWAP2 SWAP1 PUSH1 0x1 PUSH1 0x1 PUSH1 0xA0 SHL SUB SWAP1 PUSH2 0x11EE CALLER PUSH32 0x0 DUP5 AND EQ PUSH2 0x141B JUMP JUMPDEST AND SWAP3 DUP4 ISZERO PUSH2 0x1273 JUMPI PUSH2 0x12C DUP4 GT PUSH2 0x1242 JUMPI POP DUP4 SLOAD PUSH1 0x1 PUSH1 0x1 PUSH1 0xA0 SHL SUB NOT AND DUP4 OR DUP5 SSTORE PUSH1 0x1 DUP3 SWAP1 SSTORE MLOAD SWAP1 DUP2 MSTORE PUSH32 0xE42708D93B95810922305119A3271CA42233DA9EBE1E1E503F0E887817A32C7A SWAP1 PUSH1 0x20 SWAP1 LOG2 DUP1 RETURN JUMPDEST PUSH1 0x20 PUSH1 0x64 SWAP3 MLOAD SWAP2 PUSH3 0x461BCD PUSH1 0xE5 SHL DUP4 MSTORE DUP3 ADD MSTORE PUSH1 0xC PUSH1 0x24 DUP3 ADD MSTORE PUSH12 0xCCCACA40E8DEDE40D0D2CED PUSH1 0xA3 SHL PUSH1 0x44 DUP3 ADD MSTORE REVERT JUMPDEST PUSH1 0x20 PUSH1 0x64 SWAP3 MLOAD SWAP2 PUSH3 0x461BCD PUSH1 0xE5 SHL DUP4 MSTORE DUP3 ADD MSTORE PUSH1 0x12 PUSH1 0x24 DUP3 ADD MSTORE PUSH18 0x1C9958DA5C1A595B9D081C995C5D5A5C9959 PUSH1 0x72 SHL PUSH1 0x44 DUP3 ADD MSTORE REVERT JUMPDEST POP POP CALLVALUE PUSH2 0x18A JUMPI DUP2 PUSH1 0x3 NOT CALLDATASIZE ADD SLT PUSH2 0x18A JUMPI PUSH1 0x20 SWAP1 PUSH2 0x112F PUSH2 0x15D0 JUMP JUMPDEST POP POP CALLVALUE PUSH2 0x18A JUMPI DUP2 PUSH1 0x3 NOT CALLDATASIZE ADD SLT PUSH2 0x18A JUMPI PUSH2 0x130D CALLER PUSH32 0x0 PUSH1 0x1 PUSH1 0x1 PUSH1 0xA0 SHL SUB AND EQ PUSH2 0x141B JUMP JUMPDEST PUSH1 0x6 SLOAD SWAP1 PUSH2 0x1321 PUSH1 0xFF DUP4 PUSH1 0xB8 SHR AND ISZERO PUSH2 0x1456 JUMP JUMPDEST PUSH1 0xFF PUSH1 0xB8 SHL NOT SWAP2 DUP3 AND PUSH1 0x1 PUSH1 0xB8 SHL OR PUSH1 0x6 DUP2 SWAP1 SSTORE PUSH2 0x134B SWAP1 PUSH1 0xFF SWAP1 PUSH2 0x2A0 PUSH1 0xA0 DUP3 SWAP1 SHR DUP4 AND PUSH2 0x148F JUMP JUMPDEST PUSH32 0x5D6DC6B9835F5448AE2351719684F59735B30DFA8E62677CC6F9E98BD4C08F7F PUSH1 0x2 SLOAD SWAP2 PUSH2 0x137B DUP4 ISZERO ISZERO PUSH2 0x154A JUMP JUMPDEST PUSH1 0x3 SLOAD DUP2 MLOAD SWAP4 DUP5 MSTORE PUSH1 0x20 DUP5 ADD MSTORE CALLER SWAP3 LOG2 PUSH2 0x1108 PUSH2 0x1B27 JUMP JUMPDEST POP POP CALLVALUE PUSH2 0x18A JUMPI DUP2 PUSH1 0x3 NOT CALLDATASIZE ADD SLT PUSH2 0x18A JUMPI PUSH1 0x20 SWAP1 PUSH1 0x1 SLOAD SWAP1 MLOAD SWAP1 DUP2 MSTORE RETURN JUMPDEST POP POP CALLVALUE PUSH2 0x18A JUMPI DUP2 PUSH1 0x3 NOT CALLDATASIZE ADD SLT PUSH2 0x18A JUMPI PUSH1 0x7 SLOAD SWAP1 MLOAD PUSH1 0x1 PUSH1 0x1 PUSH1 0xA0 SHL SUB SWAP1 SWAP2 AND DUP2 MSTORE PUSH1 0x20 SWAP1 RETURN JUMPDEST DUP5 SWAP1 CALLVALUE PUSH2 0x18A JUMPI DUP2 PUSH1 0x3 NOT CALLDATASIZE ADD SLT PUSH2 0x18A JUMPI PUSH1 0x5 SLOAD PUSH1 0x1 PUSH1 0x1 PUSH1 0xA0 SHL SUB AND DUP2 MSTORE PUSH1 0x20 SWAP1 RETURN JUMPDEST PUSH1 0x4 CALLDATALOAD SWAP1 PUSH1 0x1 PUSH1 0x1 PUSH1 0xA0 SHL SUB DUP3 AND DUP3 SUB PUSH2 0x1416 JUMPI JUMP JUMPDEST PUSH1 0x0 DUP1 REVERT JUMPDEST ISZERO PUSH2 0x1422 JUMPI JUMP JUMPDEST PUSH1 0x40 MLOAD PUSH3 0x461BCD PUSH1 0xE5 SHL DUP2 MSTORE PUSH1 0x20 PUSH1 0x4 DUP3 ADD MSTORE PUSH1 0xC PUSH1 0x24 DUP3 ADD MSTORE PUSH12 0x6F6E6C7920666163746F7279 PUSH1 0xA0 SHL PUSH1 0x44 DUP3 ADD MSTORE PUSH1 0x64 SWAP1 REVERT JUMPDEST ISZERO PUSH2 0x145D JUMPI JUMP JUMPDEST PUSH1 0x40 MLOAD PUSH3 0x461BCD PUSH1 0xE5 SHL DUP2 MSTORE PUSH1 0x20 PUSH1 0x4 DUP3 ADD MSTORE PUSH1 0xA PUSH1 0x24 DUP3 ADD MSTORE PUSH10 0x7265656E7472616E6379 PUSH1 0xB0 SHL PUSH1 0x44 DUP3 ADD MSTORE PUSH1 0x64 SWAP1 REVERT JUMPDEST ISZERO PUSH2 0x1496 JUMPI JUMP JUMPDEST PUSH1 0x40 MLOAD PUSH3 0x461BCD PUSH1 0xE5 SHL DUP2 MSTORE PUSH1 0x20 PUSH1 0x4 DUP3 ADD MSTORE PUSH1 0xF PUSH1 0x24 DUP3 ADD MSTORE PUSH15 0x1C1BDBDB081B9BDD081CD959591959 PUSH1 0x8A SHL PUSH1 0x44 DUP3 ADD MSTORE PUSH1 0x64 SWAP1 REVERT JUMPDEST ISZERO PUSH2 0x14D4 JUMPI JUMP JUMPDEST PUSH1 0x40 MLOAD PUSH3 0x461BCD PUSH1 0xE5 SHL DUP2 MSTORE PUSH1 0x20 PUSH1 0x4 DUP3 ADD MSTORE PUSH1 0x11 PUSH1 0x24 DUP3 ADD MSTORE PUSH17 0x185B1C9958591E4819DC98591D585D1959 PUSH1 0x7A SHL PUSH1 0x44 DUP3 ADD MSTORE PUSH1 0x64 SWAP1 REVERT JUMPDEST ISZERO PUSH2 0x1514 JUMPI JUMP JUMPDEST PUSH1 0x40 MLOAD PUSH3 0x461BCD PUSH1 0xE5 SHL DUP2 MSTORE PUSH1 0x20 PUSH1 0x4 DUP3 ADD MSTORE PUSH1 0xE PUSH1 0x24 DUP3 ADD MSTORE PUSH14 0x646578206375727665206C697665 PUSH1 0x90 SHL PUSH1 0x44 DUP3 ADD MSTORE PUSH1 0x64 SWAP1 REVERT JUMPDEST ISZERO PUSH2 0x1551 JUMPI JUMP JUMPDEST PUSH1 0x40 MLOAD PUSH3 0x461BCD PUSH1 0xE5 SHL DUP2 MSTORE PUSH1 0x20 PUSH1 0x4 DUP3 ADD MSTORE PUSH1 0xE PUSH1 0x24 DUP3 ADD MSTORE PUSH14 0x6E6F206574682072657365727665 PUSH1 0x90 SHL PUSH1 0x44 DUP3 ADD MSTORE PUSH1 0x64 SWAP1 REVERT JUMPDEST DUP2 DUP2 MUL SWAP3 SWAP2 DUP2 ISZERO SWAP2 DUP5 DIV EQ OR ISZERO PUSH2 0x159A JUMPI JUMP JUMPDEST PUSH4 0x4E487B71 PUSH1 0xE0 SHL PUSH1 0x0 MSTORE PUSH1 0x11 PUSH1 0x4 MSTORE PUSH1 0x24 PUSH1 0x0 REVERT JUMPDEST DUP2 ISZERO PUSH2 0x15BA JUMPI DIV SWAP1 JUMP JUMPDEST PUSH4 0x4E487B71 PUSH1 0xE0 SHL PUSH1 0x0 MSTORE PUSH1 0x12 PUSH1 0x4 MSTORE PUSH1 0x24 PUSH1 0x0 REVERT JUMPDEST PUSH1 0x4 SLOAD DUP1 ISZERO PUSH2 0x165B JUMPI PUSH1 0x6 SLOAD PUSH1 0xFF DUP2 PUSH1 0xB0 SHR AND SWAP1 DUP2 ISZERO PUSH2 0x1633 JUMPI JUMPDEST POP ISZERO PUSH2 0x162B JUMPI PUSH2 0x15F9 PUSH2 0x22FF JUMP JUMPDEST SWAP1 POP JUMPDEST PUSH2 0x2710 SWAP2 DUP3 DUP3 MUL SWAP2 DUP1 DUP4 DIV DUP5 EQ SWAP1 ISZERO OR ISZERO PUSH2 0x159A JUMPI PUSH2 0x161A SWAP2 PUSH2 0x15B0 JUMP JUMPDEST SWAP1 DUP1 DUP3 GT PUSH2 0x1626 JUMPI POP SWAP1 JUMP JUMPDEST SWAP1 POP SWAP1 JUMP JUMPDEST PUSH1 0x2 SLOAD PUSH2 0x15FC JUMP JUMPDEST PUSH1 0xFF SWAP2 POP PUSH1 0xA8 SHR AND DUP1 PUSH2 0x1647 JUMPI JUMPDEST CODESIZE PUSH2 0x15EB JUMP JUMPDEST POP PUSH1 0x7 SLOAD PUSH1 0x1 PUSH1 0x1 PUSH1 0xA0 SHL SUB AND ISZERO ISZERO PUSH2 0x1641 JUMP JUMPDEST POP PUSH1 0x0 SWAP1 JUMP JUMPDEST SWAP2 SWAP1 DUP3 ADD DUP1 SWAP3 GT PUSH2 0x159A JUMPI JUMP JUMPDEST PUSH1 0x6 SLOAD PUSH1 0xFF DUP2 PUSH1 0xB0 SHR AND SWAP1 DUP2 ISZERO PUSH2 0x172E JUMPI JUMPDEST POP DUP1 PUSH2 0x171A JUMPI JUMPDEST PUSH2 0x1712 JUMPI PUSH2 0x16B8 PUSH1 0x3 SLOAD PUSH32 0x0 SWAP1 PUSH2 0x1661 JUMP JUMPDEST DUP1 ISZERO PUSH2 0x165B JUMPI PUSH2 0x16EB PUSH1 0x2 SLOAD PUSH32 0x0 SWAP1 PUSH2 0x1661 JUMP JUMPDEST SWAP1 PUSH8 0xDE0B6B3A7640000 SWAP2 DUP3 DUP2 MUL SWAP3 DUP2 DUP5 DIV EQ SWAP1 ISZERO OR ISZERO PUSH2 0x159A JUMPI PUSH2 0x170F SWAP2 PUSH2 0x15B0 JUMP JUMPDEST SWAP1 JUMP JUMPDEST PUSH2 0x170F PUSH2 0x1F42 JUMP JUMPDEST POP PUSH1 0x7 SLOAD PUSH1 0x1 PUSH1 0x1 PUSH1 0xA0 SHL SUB AND ISZERO ISZERO PUSH2 0x1687 JUMP JUMPDEST PUSH1 0xFF SWAP2 POP PUSH1 0xA8 SHR AND CODESIZE PUSH2 0x1680 JUMP JUMPDEST ISZERO PUSH2 0x1743 JUMPI JUMP JUMPDEST PUSH1 0x40 MLOAD PUSH3 0x461BCD PUSH1 0xE5 SHL DUP2 MSTORE PUSH1 0x20 PUSH1 0x4 DUP3 ADD MSTORE PUSH1 0x12 PUSH1 0x24 DUP3 ADD MSTORE PUSH18 0x1D185C99D95D081B9BDD081C995858DA1959 PUSH1 0x72 SHL PUSH1 0x44 DUP3 ADD MSTORE PUSH1 0x64 SWAP1 REVERT JUMPDEST PUSH1 0xFF PUSH1 0x6 SLOAD PUSH2 0x1790 DUP3 DUP3 PUSH1 0xA0 SHR AND PUSH2 0x148F JUMP JUMPDEST PUSH2 0x179F DUP3 DUP3 PUSH1 0xA8 SHR AND ISZERO PUSH2 0x14CD JUMP JUMPDEST PUSH1 0xB0 SHR AND PUSH2 0x17C1 JUMPI PUSH2 0x17B7 PUSH1 0x2 SLOAD PUSH1 0x4 SLOAD GT ISZERO PUSH2 0x173C JUMP JUMPDEST PUSH2 0x17BF PUSH2 0x1B27 JUMP JUMPDEST JUMP JUMPDEST PUSH2 0x17BF PUSH2 0x17CC PUSH2 0x22FF JUMP JUMPDEST SWAP1 POP PUSH2 0x17DC PUSH1 0x4 SLOAD DUP3 LT ISZERO PUSH2 0x173C JUMP JUMPDEST PUSH2 0x1F8A JUMP JUMPDEST SWAP2 SWAP1 DUP3 SUB SWAP2 DUP3 GT PUSH2 0x159A JUMPI JUMP JUMPDEST PUSH1 0x6 SLOAD PUSH1 0xFF DUP2 PUSH1 0xA0 SHR AND ISZERO SWAP1 DUP2 ISZERO PUSH2 0x1858 JUMPI JUMPDEST DUP2 ISZERO PUSH2 0x184A JUMPI JUMPDEST POP DUP1 ISZERO PUSH2 0x1842 JUMPI JUMPDEST PUSH2 0x1839 JUMPI PUSH2 0x1836 PUSH2 0x1831 PUSH2 0x2710 PUSH2 0x1829 PUSH1 0x1 SLOAD DUP6 PUSH2 0x1587 JUMP JUMPDEST DIV DUP1 SWAP4 PUSH2 0x17E1 JUMP JUMPDEST PUSH2 0x218F JUMP JUMPDEST SWAP2 JUMP JUMPDEST POP PUSH1 0x0 SWAP1 PUSH1 0x0 SWAP1 JUMP JUMPDEST POP DUP1 ISZERO PUSH2 0x1810 JUMP JUMPDEST PUSH1 0xFF SWAP2 POP PUSH1 0xB0 SHR AND CODESIZE PUSH2 0x1808 JUMP JUMPDEST SWAP1 POP PUSH1 0xFF DUP2 PUSH1 0xA8 SHR AND SWAP1 PUSH2 0x1801 JUMP JUMPDEST ISZERO PUSH2 0x186E JUMPI JUMP JUMPDEST PUSH1 0x40 MLOAD PUSH3 0x461BCD PUSH1 0xE5 SHL DUP2 MSTORE PUSH1 0x20 PUSH1 0x4 DUP3 ADD MSTORE PUSH1 0x15 PUSH1 0x24 DUP3 ADD MSTORE PUSH21 0x1D1BDAD95B88185B5BDD5B9D081C995C5D5A5C9959 PUSH1 0x5A SHL PUSH1 0x44 DUP3 ADD MSTORE PUSH1 0x64 SWAP1 REVERT JUMPDEST SWAP1 PUSH1 0x1F DUP1 NOT SWAP2 ADD AND DUP2 ADD SWAP1 DUP2 LT PUSH8 0xFFFFFFFFFFFFFFFF DUP3 GT OR PUSH2 0x18CD JUMPI PUSH1 0x40 MSTORE JUMP JUMPDEST PUSH4 0x4E487B71 PUSH1 0xE0 SHL PUSH1 0x0 MSTORE PUSH1 0x41 PUSH1 0x4 MSTORE PUSH1 0x24 PUSH1 0x0 REVERT JUMPDEST PUSH1 0x6 SLOAD PUSH1 0xFF DUP2 PUSH1 0xA0 SHR AND ISZERO SWAP1 DUP2 ISZERO PUSH2 0x1948 JUMPI JUMPDEST DUP2 ISZERO PUSH2 0x193A JUMPI JUMPDEST POP DUP1 ISZERO PUSH2 0x1932 JUMPI JUMPDEST PUSH2 0x1839 JUMPI PUSH2 0x1912 SWAP1 PUSH2 0x2227 JUMP JUMPDEST DUP1 ISZERO PUSH2 0x1839 JUMPI PUSH2 0x1836 PUSH2 0x2710 PUSH2 0x192A PUSH1 0x1 SLOAD DUP5 PUSH2 0x1587 JUMP JUMPDEST DIV DUP1 SWAP3 PUSH2 0x17E1 JUMP JUMPDEST POP DUP1 ISZERO PUSH2 0x1905 JUMP JUMPDEST PUSH1 0xFF SWAP2 POP PUSH1 0xB0 SHR AND CODESIZE PUSH2 0x18FD JUMP JUMPDEST SWAP1 POP PUSH1 0xFF DUP2 PUSH1 0xA8 SHR AND SWAP1 PUSH2 0x18F6 JUMP JUMPDEST ISZERO PUSH2 0x195E JUMPI JUMP JUMPDEST PUSH1 0x40 MLOAD PUSH3 0x461BCD PUSH1 0xE5 SHL DUP2 MSTORE PUSH1 0x20 PUSH1 0x4 DUP3 ADD MSTORE PUSH1 0x9 PUSH1 0x24 DUP3 ADD MSTORE PUSH9 0x19DC98591D585D1959 PUSH1 0xBA SHL PUSH1 0x44 DUP3 ADD MSTORE PUSH1 0x64 SWAP1 REVERT JUMPDEST ISZERO PUSH2 0x1996 JUMPI JUMP JUMPDEST PUSH1 0x40 MLOAD PUSH3 0x461BCD PUSH1 0xE5 SHL DUP2 MSTORE PUSH1 0x20 PUSH1 0x4 DUP3 ADD MSTORE PUSH1 0x13 PUSH1 0x24 DUP3 ADD MSTORE PUSH19 0x1A5B9CDD59999A58DA595B9D081BDD5D1C1D5D PUSH1 0x6A SHL PUSH1 0x44 DUP3 ADD MSTORE PUSH1 0x64 SWAP1 REVERT JUMPDEST ISZERO PUSH2 0x19D8 JUMPI JUMP JUMPDEST PUSH1 0x40 MLOAD PUSH3 0x461BCD PUSH1 0xE5 SHL DUP2 MSTORE PUSH1 0x20 PUSH1 0x4 DUP3 ADD MSTORE PUSH1 0x8 PUSH1 0x24 DUP3 ADD MSTORE PUSH8 0x736C697070616765 PUSH1 0xC0 SHL PUSH1 0x44 DUP3 ADD MSTORE PUSH1 0x64 SWAP1 REVERT JUMPDEST SWAP1 DUP2 PUSH1 0x20 SWAP2 SUB SLT PUSH2 0x1416 JUMPI MLOAD DUP1 ISZERO ISZERO DUP2 SUB PUSH2 0x1416 JUMPI SWAP1 JUMP JUMPDEST ISZERO PUSH2 0x1A27 JUMPI JUMP JUMPDEST PUSH1 0x40 MLOAD PUSH3 0x461BCD PUSH1 0xE5 SHL DUP2 MSTORE PUSH1 0x20 PUSH1 0x4 DUP3 ADD MSTORE PUSH1 0x15 PUSH1 0x24 DUP3 ADD MSTORE PUSH21 0x1D1BDAD95B881D1C985B9CD9995C8819985A5B1959 PUSH1 0x5A SHL PUSH1 0x44 DUP3 ADD MSTORE PUSH1 0x64 SWAP1 REVERT JUMPDEST RETURNDATASIZE ISZERO PUSH2 0x1A9F JUMPI RETURNDATASIZE SWAP1 PUSH8 0xFFFFFFFFFFFFFFFF DUP3 GT PUSH2 0x18CD JUMPI PUSH1 0x40 MLOAD SWAP2 PUSH2 0x1A93 PUSH1 0x1F DUP3 ADD PUSH1 0x1F NOT AND PUSH1 0x20 ADD DUP5 PUSH2 0x18AB JUMP JUMPDEST DUP3 MSTORE RETURNDATASIZE PUSH1 0x0 PUSH1 0x20 DUP5 ADD RETURNDATACOPY JUMP JUMPDEST PUSH1 0x60 SWAP1 JUMP JUMPDEST ISZERO PUSH2 0x1AAB JUMPI JUMP JUMPDEST PUSH1 0x40 MLOAD PUSH3 0x461BCD PUSH1 0xE5 SHL DUP2 MSTORE PUSH1 0x20 PUSH1 0x4 DUP3 ADD MSTORE PUSH1 0x13 PUSH1 0x24 DUP3 ADD MSTORE PUSH19 0x199959481D1C985B9CD9995C8819985A5B1959 PUSH1 0x6A SHL PUSH1 0x44 DUP3 ADD MSTORE PUSH1 0x64 SWAP1 REVERT JUMPDEST ISZERO PUSH2 0x1AED JUMPI JUMP JUMPDEST PUSH1 0x40 MLOAD PUSH3 0x461BCD PUSH1 0xE5 SHL DUP2 MSTORE PUSH1 0x20 PUSH1 0x4 DUP3 ADD MSTORE PUSH1 0x12 PUSH1 0x24 DUP3 ADD MSTORE PUSH18 0x19195E081C9BDD5D195C881B9BDD081CD95D PUSH1 0x72 SHL PUSH1 0x44 DUP3 ADD MSTORE PUSH1 0x64 SWAP1 REVERT JUMPDEST PUSH1 0x5 SLOAD PUSH1 0x1 PUSH1 0x1 PUSH1 0xA0 SHL SUB SWAP1 DUP2 AND SWAP1 PUSH2 0x1B41 DUP3 ISZERO ISZERO PUSH2 0x1AE6 JUMP JUMPDEST PUSH1 0x6 DUP1 SLOAD PUSH1 0xFF PUSH1 0xA8 SHL NOT DUP2 AND PUSH1 0x1 PUSH1 0xA8 SHL OR SWAP1 SWAP2 SSTORE TIMESTAMP PUSH1 0x8 SSTORE DUP2 AND DUP1 ISZERO PUSH2 0x1F06 JUMPI PUSH1 0x3 SLOAD SWAP2 PUSH1 0x2 SLOAD SWAP1 PUSH1 0x0 SWAP5 DUP6 PUSH1 0x3 SSTORE DUP6 PUSH1 0x2 SSTORE DUP2 PUSH32 0x0 AND SWAP3 PUSH1 0x40 SWAP7 DUP8 MLOAD SWAP2 PUSH4 0x95EA7B3 PUSH1 0xE0 SHL DUP1 DUP5 MSTORE PUSH1 0x4 SWAP5 DUP6 DUP6 ADD MSTORE DUP3 PUSH1 0x24 DUP6 ADD MSTORE PUSH1 0x20 SWAP4 DUP5 DUP2 PUSH1 0x44 DUP2 DUP8 DUP13 GAS CALL DUP1 ISZERO PUSH2 0x1EFC JUMPI SWAP2 DUP6 SWAP2 DUP12 SWAP4 PUSH2 0x1EDF JUMPI JUMPDEST POP PUSH1 0x5 SLOAD DUP13 MLOAD SWAP2 DUP3 MSTORE DUP9 AND PUSH1 0x1 PUSH1 0x1 PUSH1 0xA0 SHL SUB AND DUP8 DUP3 ADD SWAP1 DUP2 MSTORE PUSH1 0x20 DUP2 ADD SWAP4 SWAP1 SWAP4 MSTORE SWAP2 DUP3 SWAP1 DUP2 SWAP1 PUSH1 0x40 ADD SUB DUP2 DUP7 DUP12 GAS CALL DUP1 ISZERO PUSH2 0x5D0 JUMPI PUSH2 0x1EC2 JUMPI JUMPDEST POP DUP5 PUSH1 0x5 SLOAD AND PUSH2 0xE10 TIMESTAMP ADD DUP1 TIMESTAMP GT PUSH2 0x1EAF JUMPI PUSH1 0xC4 DUP9 DUP5 PUSH1 0x60 SWAP5 DUP14 SWAP5 DUP16 MLOAD SWAP14 DUP15 SWAP7 DUP8 SWAP6 PUSH4 0xF305D719 PUSH1 0xE0 SHL DUP8 MSTORE DUP14 DUP8 ADD MSTORE PUSH1 0x24 DUP7 ADD MSTORE DUP10 PUSH1 0x44 DUP7 ADD MSTORE DUP10 PUSH1 0x64 DUP7 ADD MSTORE PUSH1 0x84 DUP6 ADD MSTORE PUSH1 0xA4 DUP5 ADD MSTORE GAS CALL SWAP8 DUP9 ISZERO PUSH2 0x1EA5 JUMPI DUP3 SWAP7 DUP4 SWAP9 DUP5 SWAP11 PUSH2 0x1E61 JUMPI JUMPDEST POP PUSH1 0x5 SLOAD DUP12 MLOAD PUSH4 0xC45A0155 PUSH1 0xE0 SHL DUP2 MSTORE SWAP1 DUP9 AND DUP7 DUP3 DUP10 DUP2 DUP5 GAS STATICCALL SWAP2 DUP3 ISZERO PUSH2 0x1E38 JUMPI DUP9 SWAP4 SWAP3 SWAP2 DUP15 DUP10 SWAP3 DUP10 SWAP5 PUSH2 0x1E42 JUMPI JUMPDEST POP MLOAD PUSH4 0x15AB88C9 PUSH1 0xE3 SHL DUP2 MSTORE SWAP5 DUP6 SWAP2 DUP3 SWAP1 GAS STATICCALL SWAP3 DUP4 ISZERO PUSH2 0x1E38 JUMPI SWAP3 DUP8 SWAP7 SWAP6 SWAP5 SWAP4 SWAP3 DUP11 DUP16 SWAP4 DUP2 SWAP12 SWAP11 SWAP6 DUP10 SWAP5 PUSH2 0x1E18 JUMPI JUMPDEST POP PUSH1 0x44 SWAP4 SWAP5 MLOAD SWAP12 DUP13 SWAP6 DUP7 SWAP5 PUSH4 0xE6A43905 PUSH1 0xE0 SHL DUP7 MSTORE DUP14 DUP7 ADD MSTORE AND PUSH1 0x24 DUP5 ADD MSTORE AND GAS STATICCALL SWAP6 DUP7 ISZERO PUSH2 0x1E0E JUMPI SWAP1 DUP9 SWAP2 DUP5 SWAP8 PUSH2 0x1DEF JUMPI JUMPDEST POP DUP2 DUP2 GT PUSH2 0x1DDA JUMPI JUMPDEST POP POP DUP8 DUP2 GT PUSH2 0x1D75 JUMPI JUMPDEST POP POP PUSH1 0x7 DUP1 SLOAD PUSH1 0x1 PUSH1 0x1 PUSH1 0xA0 SHL SUB NOT AND SWAP5 SWAP1 SWAP4 AND SWAP4 DUP5 OR SWAP1 SWAP3 SSTORE POP POP SWAP4 MLOAD SWAP1 DUP2 MSTORE PUSH1 0x20 DUP2 ADD SWAP2 SWAP1 SWAP2 MSTORE PUSH1 0x40 DUP2 ADD SWAP2 SWAP1 SWAP2 MSTORE TIMESTAMP PUSH1 0x60 DUP3 ADD MSTORE PUSH32 0x71AA8C3702DBBC54247A4E6446450E64A46250DD72707A247DDB01D72EAEF445 SWAP1 DUP1 PUSH1 0x80 DUP2 ADD JUMPDEST SUB SWAP1 LOG2 JUMP JUMPDEST DUP2 DUP1 PUSH2 0x1D82 DUP11 DUP3 SWAP5 PUSH2 0x17E1 JUMP JUMPDEST DUP9 DUP3 SLOAD AND GAS CALL PUSH2 0x1D90 PUSH2 0x1A64 JUMP JUMPDEST POP ISZERO PUSH2 0x1D9D JUMPI DUP1 DUP1 PUSH2 0x1D11 JUMP JUMPDEST DUP8 MLOAD PUSH3 0x461BCD PUSH1 0xE5 SHL DUP2 MSTORE SWAP2 DUP3 ADD MSTORE PUSH1 0x18 PUSH1 0x24 DUP3 ADD MSTORE PUSH24 0x195D1A08191D5CDD081D1C985B9CD9995C8819985A5B1959 PUSH1 0x42 SHL PUSH1 0x44 DUP3 ADD MSTORE PUSH1 0x64 SWAP2 POP REVERT JUMPDEST PUSH2 0x1DE7 SWAP2 PUSH2 0x594 SWAP2 PUSH2 0x17E1 JUMP JUMPDEST POP DUP7 CODESIZE PUSH2 0x1D07 JUMP JUMPDEST PUSH2 0x1E07 SWAP2 SWAP8 POP DUP6 RETURNDATASIZE DUP8 GT PUSH2 0x5C9 JUMPI PUSH2 0x5BA DUP2 DUP4 PUSH2 0x18AB JUMP JUMPDEST SWAP6 CODESIZE PUSH2 0x1CFE JUMP JUMPDEST DUP12 MLOAD RETURNDATASIZE DUP6 DUP3 RETURNDATACOPY RETURNDATASIZE SWAP1 REVERT JUMPDEST PUSH1 0x44 SWAP5 POP PUSH2 0x1E32 SWAP1 DUP8 RETURNDATASIZE DUP10 GT PUSH2 0x5C9 JUMPI PUSH2 0x5BA DUP2 DUP4 PUSH2 0x18AB JUMP JUMPDEST SWAP4 PUSH2 0x1CCB JUMP JUMPDEST DUP14 MLOAD RETURNDATASIZE DUP9 DUP3 RETURNDATACOPY RETURNDATASIZE SWAP1 REVERT JUMPDEST PUSH2 0x1E5A SWAP2 SWAP5 POP DUP4 RETURNDATASIZE DUP6 GT PUSH2 0x5C9 JUMPI PUSH2 0x5BA DUP2 DUP4 PUSH2 0x18AB JUMP JUMPDEST SWAP3 CODESIZE PUSH2 0x1C9C JUMP JUMPDEST SWAP8 POP SWAP9 POP SWAP7 POP PUSH1 0x60 DUP7 RETURNDATASIZE PUSH1 0x60 GT PUSH2 0x1E9D JUMPI JUMPDEST DUP2 PUSH2 0x1E80 PUSH1 0x60 SWAP4 DUP4 PUSH2 0x18AB JUMP JUMPDEST DUP2 ADD SUB SLT PUSH2 0x18A JUMPI DUP6 MLOAD SWAP7 DUP10 DUP5 DUP9 ADD MLOAD SWAP8 ADD MLOAD SWAP8 SWAP7 SWAP8 SWAP9 CODESIZE PUSH2 0x1C6D JUMP JUMPDEST RETURNDATASIZE SWAP2 POP PUSH2 0x1E73 JUMP JUMPDEST DUP10 MLOAD RETURNDATASIZE DUP5 DUP3 RETURNDATACOPY RETURNDATASIZE SWAP1 REVERT JUMPDEST PUSH4 0x4E487B71 PUSH1 0xE0 SHL DUP5 MSTORE PUSH1 0x11 DUP7 MSTORE PUSH1 0x24 DUP5 REVERT JUMPDEST PUSH2 0x1ED8 SWAP1 DUP5 RETURNDATASIZE DUP7 GT PUSH2 0x6C2 JUMPI PUSH2 0x6B3 DUP2 DUP4 PUSH2 0x18AB JUMP JUMPDEST POP CODESIZE PUSH2 0x1C0E JUMP JUMPDEST PUSH2 0x1EF5 SWAP1 DUP4 RETURNDATASIZE DUP6 GT PUSH2 0x6C2 JUMPI PUSH2 0x6B3 DUP2 DUP4 PUSH2 0x18AB JUMP JUMPDEST POP CODESIZE PUSH2 0x1BD3 JUMP JUMPDEST DUP12 MLOAD RETURNDATASIZE DUP7 DUP3 RETURNDATACOPY RETURNDATASIZE SWAP1 REVERT JUMPDEST PUSH1 0x40 MLOAD PUSH3 0x461BCD PUSH1 0xE5 SHL DUP2 MSTORE PUSH1 0x20 PUSH1 0x4 DUP3 ADD MSTORE PUSH1 0x14 PUSH1 0x24 DUP3 ADD MSTORE PUSH20 0x1B1C081C9958D95A5D995C881C995C5D5A5C9959 PUSH1 0x62 SHL PUSH1 0x44 DUP3 ADD MSTORE PUSH1 0x64 SWAP1 REVERT JUMPDEST PUSH2 0x1F4A PUSH2 0x22FF JUMP JUMPDEST SWAP1 DUP1 ISZERO DUP1 ISZERO PUSH2 0x1F82 JUMPI JUMPDEST PUSH2 0x1F7B JUMPI PUSH8 0xDE0B6B3A7640000 SWAP2 DUP3 DUP2 MUL SWAP3 DUP2 DUP5 DIV EQ SWAP1 ISZERO OR ISZERO PUSH2 0x159A JUMPI PUSH2 0x170F SWAP2 PUSH2 0x15B0 JUMP JUMPDEST POP POP PUSH1 0x0 SWAP1 JUMP JUMPDEST POP DUP2 ISZERO PUSH2 0x1F54 JUMP JUMPDEST SWAP1 PUSH1 0x6 SLOAD PUSH1 0xFF DUP2 PUSH1 0xB0 SHR AND ISZERO PUSH2 0x2155 JUMPI PUSH1 0x7 SLOAD PUSH1 0x1 PUSH1 0x1 PUSH1 0xA0 SHL SUB SWAP1 DUP2 AND SWAP2 DUP3 ISZERO PUSH2 0x2121 JUMPI PUSH2 0xFFFF PUSH1 0xA8 SHL NOT AND PUSH1 0x1 PUSH1 0xA8 SHL OR PUSH1 0x6 SSTORE TIMESTAMP PUSH1 0x8 SSTORE PUSH1 0x40 DUP1 MLOAD PUSH4 0x70A08231 PUSH1 0xE0 SHL DUP2 MSTORE ADDRESS PUSH1 0x4 DUP3 ADD MSTORE SWAP1 SWAP3 PUSH1 0x20 SWAP1 DUP2 DUP4 PUSH1 0x24 DUP2 DUP5 GAS STATICCALL SWAP3 DUP4 ISZERO PUSH2 0x20E7 JUMPI PUSH1 0x0 SWAP4 PUSH2 0x20F2 JUMPI JUMPDEST POP DUP3 PUSH2 0x2055 JUMPI JUMPDEST POP POP PUSH2 0x1D70 PUSH32 0x6D6435BD27368EEAA8BEA9975846B4FFC3D4864FAABCEC7E007DC6014F4EA055 SWAP4 SWAP5 SWAP6 PUSH2 0x202C PUSH2 0x2559 JUMP JUMPDEST SWAP4 PUSH1 0x7 SLOAD AND SWAP6 MLOAD SWAP4 DUP5 SWAP4 TIMESTAMP SWAP3 DUP6 SWAP1 SWAP5 SWAP4 SWAP3 PUSH1 0x60 SWAP3 PUSH1 0x80 DUP4 ADD SWAP7 DUP4 MSTORE PUSH1 0x20 DUP4 ADD MSTORE PUSH1 0x40 DUP3 ADD MSTORE ADD MSTORE JUMP JUMPDEST DUP2 PUSH1 0x0 SWAP2 PUSH1 0x44 DUP8 MLOAD DUP1 SWAP5 DUP2 SWAP4 PUSH4 0xA9059CBB PUSH1 0xE0 SHL DUP4 MSTORE PUSH2 0xDEAD PUSH1 0x4 DUP5 ADD MSTORE DUP9 PUSH1 0x24 DUP5 ADD MSTORE GAS CALL SWAP1 DUP2 ISZERO PUSH2 0x20E7 JUMPI PUSH1 0x0 SWAP2 PUSH2 0x20CA JUMPI JUMPDEST POP ISZERO PUSH2 0x2096 JUMPI DUP1 PUSH2 0x1FFB JUMP JUMPDEST PUSH1 0x64 SWAP1 DUP5 MLOAD SWAP1 PUSH3 0x461BCD PUSH1 0xE5 SHL DUP3 MSTORE PUSH1 0x4 DUP3 ADD MSTORE PUSH1 0xE PUSH1 0x24 DUP3 ADD MSTORE PUSH14 0x1B1C08189D5C9B8819985A5B1959 PUSH1 0x92 SHL PUSH1 0x44 DUP3 ADD MSTORE REVERT JUMPDEST PUSH2 0x20E1 SWAP2 POP DUP3 RETURNDATASIZE DUP5 GT PUSH2 0x6C2 JUMPI PUSH2 0x6B3 DUP2 DUP4 PUSH2 0x18AB JUMP JUMPDEST CODESIZE PUSH2 0x208A JUMP JUMPDEST DUP6 MLOAD RETURNDATASIZE PUSH1 0x0 DUP3 RETURNDATACOPY RETURNDATASIZE SWAP1 REVERT JUMPDEST SWAP1 SWAP3 DUP3 DUP3 DUP2 RETURNDATASIZE DUP4 GT PUSH2 0x211A JUMPI JUMPDEST PUSH2 0x2109 DUP2 DUP4 PUSH2 0x18AB JUMP JUMPDEST DUP2 ADD SUB SLT PUSH2 0x9AC JUMPI POP MLOAD SWAP2 CODESIZE PUSH2 0x1FF4 JUMP JUMPDEST POP RETURNDATASIZE PUSH2 0x20FF JUMP JUMPDEST PUSH1 0x40 MLOAD PUSH3 0x461BCD PUSH1 0xE5 SHL DUP2 MSTORE PUSH1 0x20 PUSH1 0x4 DUP3 ADD MSTORE PUSH1 0xC PUSH1 0x24 DUP3 ADD MSTORE PUSH12 0x1C185A5C881B9BDD081CD95D PUSH1 0xA2 SHL PUSH1 0x44 DUP3 ADD MSTORE PUSH1 0x64 SWAP1 REVERT JUMPDEST PUSH1 0x40 MLOAD PUSH3 0x461BCD PUSH1 0xE5 SHL DUP2 MSTORE PUSH1 0x20 PUSH1 0x4 DUP3 ADD MSTORE PUSH1 0x12 PUSH1 0x24 DUP3 ADD MSTORE PUSH18 0x646578206375727665206E6F74206C697665 PUSH1 0x70 SHL PUSH1 0x44 DUP3 ADD MSTORE PUSH1 0x64 SWAP1 REVERT JUMPDEST DUP1 ISZERO PUSH2 0x165B JUMPI PUSH2 0x21C2 PUSH1 0x2 SLOAD PUSH32 0x0 SWAP1 PUSH2 0x1661 JUMP JUMPDEST SWAP1 PUSH2 0x220E PUSH1 0x3 SLOAD SWAP3 PUSH2 0x2208 PUSH2 0x21F7 PUSH32 0x0 DUP7 PUSH2 0x1661 JUMP JUMPDEST SWAP4 PUSH2 0x2202 DUP6 DUP5 PUSH2 0x1587 JUMP JUMPDEST SWAP3 PUSH2 0x1661 JUMP JUMPDEST SWAP1 PUSH2 0x15B0 JUMP JUMPDEST DUP1 DUP3 GT ISZERO PUSH2 0x221F JUMPI PUSH2 0x161A SWAP2 PUSH2 0x17E1 JUMP JUMPDEST POP POP POP PUSH1 0x0 SWAP1 JUMP JUMPDEST PUSH1 0x2 SLOAD SWAP1 PUSH2 0x220E PUSH2 0x2258 PUSH32 0x0 DUP5 PUSH2 0x1661 JUMP JUMPDEST SWAP2 PUSH2 0x2208 PUSH2 0x2289 PUSH1 0x3 SLOAD PUSH32 0x0 SWAP1 PUSH2 0x1661 JUMP JUMPDEST SWAP2 PUSH2 0x2202 DUP4 DUP7 PUSH2 0x1587 JUMP JUMPDEST PUSH1 0x6 SLOAD PUSH1 0xFF DUP2 PUSH1 0xA8 SHR AND SWAP1 DUP2 ISZERO PUSH2 0x22BE JUMPI JUMPDEST POP PUSH2 0x17BF JUMPI PUSH1 0x2 SLOAD PUSH1 0x4 SLOAD GT PUSH2 0x17BF JUMPI PUSH2 0x17BF PUSH2 0x1B27 JUMP JUMPDEST PUSH1 0xFF SWAP2 POP PUSH1 0xB0 SHR AND CODESIZE PUSH2 0x22A6 JUMP JUMPDEST SWAP1 DUP2 PUSH1 0x20 SWAP2 SUB SLT PUSH2 0x1416 JUMPI MLOAD PUSH1 0x1 PUSH1 0x1 PUSH1 0xA0 SHL SUB DUP2 AND DUP2 SUB PUSH2 0x1416 JUMPI SWAP1 JUMP JUMPDEST MLOAD SWAP1 PUSH1 0x1 PUSH1 0x1 PUSH1 0x70 SHL SUB DUP3 AND DUP3 SUB PUSH2 0x1416 JUMPI JUMP JUMPDEST PUSH1 0x7 SLOAD PUSH1 0x0 SWAP2 SWAP1 PUSH1 0x1 PUSH1 0x1 PUSH1 0xA0 SHL SUB SWAP1 DUP4 SWAP1 DUP2 SWAP1 DUP4 AND DUP1 ISZERO DUP1 ISZERO PUSH2 0x254D JUMPI JUMPDEST PUSH2 0x2545 JUMPI DUP4 PUSH1 0x5 SLOAD AND SWAP1 PUSH1 0x40 SWAP5 DUP6 MLOAD DUP1 SWAP4 PUSH4 0x15AB88C9 PUSH1 0xE3 SHL DUP3 MSTORE DUP2 PUSH1 0x4 PUSH1 0x20 SWAP4 DUP5 SWAP4 GAS STATICCALL SWAP4 DUP5 ISZERO PUSH2 0x253B JUMPI DUP10 SWAP5 PUSH2 0x251C JUMPI JUMPDEST POP DUP7 MLOAD PUSH4 0xDFE1681 PUSH1 0xE0 SHL DUP2 MSTORE SWAP1 DUP1 DUP3 PUSH1 0x4 DUP2 DUP8 GAS STATICCALL SWAP2 DUP3 ISZERO PUSH2 0x2512 JUMPI DUP11 SWAP3 PUSH2 0x24F3 JUMPI JUMPDEST POP DUP8 MLOAD PUSH4 0xD21220A7 PUSH1 0xE0 SHL DUP2 MSTORE SWAP4 DUP2 DUP6 PUSH1 0x4 DUP2 DUP5 GAS STATICCALL SWAP5 DUP6 ISZERO PUSH2 0x24E9 JUMPI DUP12 SWAP6 PUSH2 0x24C2 JUMPI JUMPDEST POP SWAP1 PUSH1 0x60 PUSH1 0x4 SWAP3 DUP11 MLOAD SWAP4 DUP5 DUP1 SWAP3 PUSH4 0x240BC6B PUSH1 0xE2 SHL DUP3 MSTORE GAS STATICCALL SWAP11 DUP12 ISZERO PUSH2 0x24B7 JUMPI DUP1 SWAP10 DUP2 SWAP13 PUSH2 0x2458 JUMPI JUMPDEST POP POP POP POP DUP2 DUP1 PUSH32 0x0 AND SWAP2 AND SWAP3 DUP2 DUP5 EQ DUP1 PUSH2 0x244B JUMPI JUMPDEST ISZERO PUSH2 0x2412 JUMPI POP POP POP POP POP POP POP PUSH1 0x1 PUSH1 0x1 PUSH1 0x70 SHL SUB DUP1 SWAP2 AND SWAP3 AND SWAP1 JUMP JUMPDEST SWAP6 SWAP9 SWAP5 SWAP8 SWAP7 SWAP6 DUP3 AND EQ SWAP3 DUP4 PUSH2 0x243F JUMPI JUMPDEST POP POP POP PUSH2 0x242D JUMPI POP POP JUMP JUMPDEST PUSH1 0x1 PUSH1 0x1 PUSH1 0x70 SHL SUB SWAP1 DUP2 AND SWAP5 POP AND SWAP2 POP JUMP JUMPDEST AND EQ SWAP1 POP CODESIZE DUP1 DUP1 PUSH2 0x2422 JUMP JUMPDEST POP DUP3 DUP6 AND DUP4 DUP3 AND EQ PUSH2 0x23F6 JUMP JUMPDEST SWAP2 SWAP4 SWAP12 POP SWAP2 SWAP9 POP PUSH1 0x60 DUP10 RETURNDATASIZE PUSH1 0x60 GT PUSH2 0x24AF JUMPI JUMPDEST DUP2 PUSH2 0x2478 PUSH1 0x60 SWAP4 DUP4 PUSH2 0x18AB JUMP JUMPDEST DUP2 ADD SUB SLT PUSH2 0x18A JUMPI PUSH2 0x2494 PUSH2 0x248C DUP11 PUSH2 0x22EB JUMP JUMPDEST SWAP4 DUP11 ADD PUSH2 0x22EB JUMP JUMPDEST SWAP9 ADD MLOAD PUSH4 0xFFFFFFFF DUP2 AND SUB PUSH2 0x9AC JUMPI POP SWAP6 SWAP8 CODESIZE DUP1 DUP1 DUP1 PUSH2 0x23C2 JUMP JUMPDEST RETURNDATASIZE SWAP2 POP PUSH2 0x246B JUMP JUMPDEST DUP10 MLOAD SWAP1 RETURNDATASIZE SWAP1 DUP3 RETURNDATACOPY RETURNDATASIZE SWAP1 REVERT JUMPDEST DUP3 SWAP2 SWAP6 POP PUSH2 0x24E0 PUSH1 0x60 SWAP2 PUSH1 0x4 SWAP5 RETURNDATASIZE DUP6 GT PUSH2 0x5C9 JUMPI PUSH2 0x5BA DUP2 DUP4 PUSH2 0x18AB JUMP JUMPDEST SWAP6 SWAP2 SWAP3 POP PUSH2 0x2399 JUMP JUMPDEST DUP10 MLOAD RETURNDATASIZE DUP14 DUP3 RETURNDATACOPY RETURNDATASIZE SWAP1 REVERT JUMPDEST DUP2 PUSH2 0x250B SWAP3 SWAP4 POP RETURNDATASIZE DUP5 GT PUSH2 0x5C9 JUMPI PUSH2 0x5BA DUP2 DUP4 PUSH2 0x18AB JUMP JUMPDEST SWAP1 CODESIZE PUSH2 0x2375 JUMP JUMPDEST DUP9 MLOAD RETURNDATASIZE DUP13 DUP3 RETURNDATACOPY RETURNDATASIZE SWAP1 REVERT JUMPDEST DUP2 PUSH2 0x2534 SWAP3 SWAP6 POP RETURNDATASIZE DUP7 GT PUSH2 0x5C9 JUMPI PUSH2 0x5BA DUP2 DUP4 PUSH2 0x18AB JUMP JUMPDEST SWAP3 CODESIZE PUSH2 0x2351 JUMP JUMPDEST DUP8 MLOAD RETURNDATASIZE DUP12 DUP3 RETURNDATACOPY RETURNDATASIZE SWAP1 REVERT JUMPDEST POP POP POP POP DUP2 SWAP1 JUMP JUMPDEST POP DUP4 PUSH1 0x5 SLOAD AND ISZERO PUSH2 0x231E JUMP JUMPDEST PUSH1 0x40 MLOAD PUSH4 0x70A08231 PUSH1 0xE0 SHL DUP2 MSTORE ADDRESS PUSH1 0x4 DUP3 ADD MSTORE PUSH1 0x20 DUP2 PUSH1 0x24 DUP2 PUSH32 0x0 PUSH1 0x1 PUSH1 0x1 PUSH1 0xA0 SHL SUB AND GAS STATICCALL SWAP1 DUP2 ISZERO PUSH2 0x25EF JUMPI PUSH1 0x0 SWAP2 PUSH2 0x25BD JUMPI JUMPDEST POP DUP1 ISZERO PUSH2 0x165B JUMPI PUSH2 0x170F SWAP1 PUSH2 0x25FB JUMP JUMPDEST SWAP1 POP PUSH1 0x20 DUP2 RETURNDATASIZE PUSH1 0x20 GT PUSH2 0x25E7 JUMPI JUMPDEST DUP2 PUSH2 0x25D8 PUSH1 0x20 SWAP4 DUP4 PUSH2 0x18AB JUMP JUMPDEST DUP2 ADD SUB SLT PUSH2 0x1416 JUMPI MLOAD CODESIZE PUSH2 0x25AD JUMP JUMPDEST RETURNDATASIZE SWAP2 POP PUSH2 0x25CB JUMP JUMPDEST PUSH1 0x40 MLOAD RETURNDATASIZE PUSH1 0x0 DUP3 RETURNDATACOPY RETURNDATASIZE SWAP1 REVERT JUMPDEST DUP1 ISZERO PUSH2 0x165B JUMPI PUSH1 0x40 MLOAD PUSH4 0x852CD8D PUSH1 0xE3 SHL DUP2 MSTORE PUSH1 0x4 DUP2 ADD DUP3 SWAP1 MSTORE PUSH1 0x20 DUP2 PUSH1 0x24 DUP2 PUSH1 0x0 PUSH32 0x0 PUSH1 0x1 PUSH1 0x1 PUSH1 0xA0 SHL SUB AND GAS CALL SWAP1 DUP2 ISZERO PUSH2 0x25EF JUMPI PUSH1 0x0 SWAP2 PUSH2 0x269A JUMPI JUMPDEST POP ISZERO PUSH2 0x2661 JUMPI SWAP1 JUMP JUMPDEST PUSH1 0x40 MLOAD PUSH3 0x461BCD PUSH1 0xE5 SHL DUP2 MSTORE PUSH1 0x20 PUSH1 0x4 DUP3 ADD MSTORE PUSH1 0x11 PUSH1 0x24 DUP3 ADD MSTORE PUSH17 0x1D1BDAD95B88189D5C9B8819985A5B1959 PUSH1 0x7A SHL PUSH1 0x44 DUP3 ADD MSTORE PUSH1 0x64 SWAP1 REVERT JUMPDEST PUSH2 0x26B3 SWAP2 POP PUSH1 0x20 RETURNDATASIZE PUSH1 0x20 GT PUSH2 0x6C2 JUMPI PUSH2 0x6B3 DUP2 DUP4 PUSH2 0x18AB JUMP JUMPDEST CODESIZE PUSH2 0x2658 JUMP INVALID LOG2 PUSH5 0x6970667358 0x22 SLT KECCAK256 0xEF 0xBA PUSH31 0x76BEE9AC440D34F6B2792FE5EC1D2EFC94DA64B0148C9175CF5476F1806473 PUSH16 0x6C634300081800330000000000000000 "},"methodIdentifiers":{"BPS_DENOMINATOR()":"e1a45218","BURN_ADDRESS()":"fccc2813","buy(uint256)":"d96a094a","configureFees(address,uint256)":"2a2c6972","configureMigration(address,address,uint256)":"8c575aa3","dexRouter()":"0758d924","ethReserve()":"d62ccb3f","factory()":"c45a0155","feeBps()":"24a9d853","feeRecipient()":"46904840","graduateNow()":"25217724","graduated()":"e7c2b772","graduatedAt()":"7f544e49","graduationTargetEth()":"f95a02d0","launchLiveDexCurve()":"e3818eb8","liveDexCurve()":"c446795a","lpRecipient()":"452e68dd","migratedPair()":"1ad15bbc","quoteBuy(uint256)":"4beb394c","quoteSell(uint256)":"a64190c4","seed(uint256)":"95564837","seeded()":"334041a6","sell(uint256,uint256)":"d79875eb","spotPrice()":"398482d8","targetProgressBps()":"2760eca1","token()":"fc0c546a","tokenReserve()":"cbcb3171","triggerGraduation()":"4329742d","virtualEthReserve()":"52b86d2b","virtualTokenReserve()":"343ee3b7"}}}}}