{
  "_format": "hh-sol-artifact-1",
  "contractName": "MemeLaunchFactoryERC20Quote",
  "sourceName": "contracts/MemeLaunchFactoryERC20Quote.sol",
  "abi": [
    {
      "inputs": [
        {
          "internalType": "address",
          "name": "_feeRecipient",
          "type": "address"
        },
        {
          "internalType": "address",
          "name": "_platformFeeRecipient",
          "type": "address"
        },
        {
          "internalType": "address",
          "name": "_quoteToken",
          "type": "address"
        },
        {
          "internalType": "uint256",
          "name": "_defaultFeeBps",
          "type": "uint256"
        },
        {
          "internalType": "uint256",
          "name": "_launchFeeWei",
          "type": "uint256"
        },
        {
          "internalType": "uint256",
          "name": "_defaultVirtualQuoteReserve",
          "type": "uint256"
        },
        {
          "internalType": "uint256",
          "name": "_defaultVirtualTokenReserve",
          "type": "uint256"
        },
        {
          "internalType": "uint256",
          "name": "_defaultGraduationTargetQuote",
          "type": "uint256"
        },
        {
          "internalType": "address",
          "name": "_defaultDexRouter",
          "type": "address"
        }
      ],
      "stateMutability": "nonpayable",
      "type": "constructor"
    },
    {
      "anonymous": false,
      "inputs": [
        {
          "indexed": false,
          "internalType": "address",
          "name": "feeRecipient",
          "type": "address"
        },
        {
          "indexed": false,
          "internalType": "address",
          "name": "platformFeeRecipient",
          "type": "address"
        },
        {
          "indexed": false,
          "internalType": "uint256",
          "name": "feeBps",
          "type": "uint256"
        },
        {
          "indexed": false,
          "internalType": "uint256",
          "name": "launchFeeWei",
          "type": "uint256"
        },
        {
          "indexed": false,
          "internalType": "uint256",
          "name": "virtualQuoteReserve",
          "type": "uint256"
        },
        {
          "indexed": false,
          "internalType": "uint256",
          "name": "virtualTokenReserve",
          "type": "uint256"
        },
        {
          "indexed": false,
          "internalType": "uint256",
          "name": "graduationTargetQuote",
          "type": "uint256"
        },
        {
          "indexed": false,
          "internalType": "address",
          "name": "dexRouter",
          "type": "address"
        },
        {
          "indexed": false,
          "internalType": "address",
          "name": "lpRecipient",
          "type": "address"
        }
      ],
      "name": "DefaultsUpdated",
      "type": "event"
    },
    {
      "anonymous": false,
      "inputs": [
        {
          "indexed": true,
          "internalType": "uint256",
          "name": "launchId",
          "type": "uint256"
        },
        {
          "indexed": true,
          "internalType": "address",
          "name": "creator",
          "type": "address"
        },
        {
          "indexed": true,
          "internalType": "address",
          "name": "token",
          "type": "address"
        },
        {
          "indexed": false,
          "internalType": "address",
          "name": "pool",
          "type": "address"
        },
        {
          "indexed": false,
          "internalType": "uint256",
          "name": "totalSupply",
          "type": "uint256"
        },
        {
          "indexed": false,
          "internalType": "uint256",
          "name": "creatorAllocation",
          "type": "uint256"
        },
        {
          "indexed": false,
          "internalType": "uint256",
          "name": "feeBps",
          "type": "uint256"
        },
        {
          "indexed": false,
          "internalType": "uint256",
          "name": "graduationTargetEth",
          "type": "uint256"
        },
        {
          "indexed": false,
          "internalType": "address",
          "name": "dexRouter",
          "type": "address"
        },
        {
          "indexed": false,
          "internalType": "address",
          "name": "lpRecipient",
          "type": "address"
        }
      ],
      "name": "LaunchCreated",
      "type": "event"
    },
    {
      "anonymous": false,
      "inputs": [
        {
          "indexed": true,
          "internalType": "address",
          "name": "payer",
          "type": "address"
        },
        {
          "indexed": true,
          "internalType": "address",
          "name": "recipient",
          "type": "address"
        },
        {
          "indexed": false,
          "internalType": "uint256",
          "name": "amountWei",
          "type": "uint256"
        }
      ],
      "name": "LaunchFeePaid",
      "type": "event"
    },
    {
      "anonymous": false,
      "inputs": [
        {
          "indexed": true,
          "internalType": "address",
          "name": "previousOwner",
          "type": "address"
        },
        {
          "indexed": true,
          "internalType": "address",
          "name": "newOwner",
          "type": "address"
        }
      ],
      "name": "OwnershipTransferred",
      "type": "event"
    },
    {
      "inputs": [],
      "name": "BPS_DENOMINATOR",
      "outputs": [
        {
          "internalType": "uint256",
          "name": "",
          "type": "uint256"
        }
      ],
      "stateMutability": "view",
      "type": "function"
    },
    {
      "inputs": [],
      "name": "DEFAULT_TOKEN_TRADE_FEE_BPS",
      "outputs": [
        {
          "internalType": "uint256",
          "name": "",
          "type": "uint256"
        }
      ],
      "stateMutability": "view",
      "type": "function"
    },
    {
      "inputs": [
        {
          "internalType": "string",
          "name": "name",
          "type": "string"
        },
        {
          "internalType": "string",
          "name": "symbol",
          "type": "string"
        },
        {
          "internalType": "string",
          "name": "imageURI",
          "type": "string"
        },
        {
          "internalType": "string",
          "name": "description",
          "type": "string"
        },
        {
          "internalType": "uint256",
          "name": "totalSupply",
          "type": "uint256"
        },
        {
          "internalType": "uint256",
          "name": "creatorAllocationBps",
          "type": "uint256"
        }
      ],
      "name": "createLaunch",
      "outputs": [
        {
          "internalType": "uint256",
          "name": "launchId",
          "type": "uint256"
        },
        {
          "internalType": "address",
          "name": "tokenAddress",
          "type": "address"
        },
        {
          "internalType": "address",
          "name": "poolAddress",
          "type": "address"
        }
      ],
      "stateMutability": "payable",
      "type": "function"
    },
    {
      "inputs": [],
      "name": "defaultDexRouter",
      "outputs": [
        {
          "internalType": "address",
          "name": "",
          "type": "address"
        }
      ],
      "stateMutability": "view",
      "type": "function"
    },
    {
      "inputs": [],
      "name": "defaultFeeBps",
      "outputs": [
        {
          "internalType": "uint256",
          "name": "",
          "type": "uint256"
        }
      ],
      "stateMutability": "view",
      "type": "function"
    },
    {
      "inputs": [],
      "name": "defaultGraduationTargetQuote",
      "outputs": [
        {
          "internalType": "uint256",
          "name": "",
          "type": "uint256"
        }
      ],
      "stateMutability": "view",
      "type": "function"
    },
    {
      "inputs": [],
      "name": "defaultLpRecipient",
      "outputs": [
        {
          "internalType": "address",
          "name": "",
          "type": "address"
        }
      ],
      "stateMutability": "view",
      "type": "function"
    },
    {
      "inputs": [],
      "name": "defaultVirtualQuoteReserve",
      "outputs": [
        {
          "internalType": "uint256",
          "name": "",
          "type": "uint256"
        }
      ],
      "stateMutability": "view",
      "type": "function"
    },
    {
      "inputs": [],
      "name": "defaultVirtualTokenReserve",
      "outputs": [
        {
          "internalType": "uint256",
          "name": "",
          "type": "uint256"
        }
      ],
      "stateMutability": "view",
      "type": "function"
    },
    {
      "inputs": [],
      "name": "feeRecipient",
      "outputs": [
        {
          "internalType": "address",
          "name": "",
          "type": "address"
        }
      ],
      "stateMutability": "view",
      "type": "function"
    },
    {
      "inputs": [
        {
          "internalType": "uint256",
          "name": "launchId",
          "type": "uint256"
        }
      ],
      "name": "getLaunch",
      "outputs": [
        {
          "components": [
            {
              "internalType": "address",
              "name": "token",
              "type": "address"
            },
            {
              "internalType": "address",
              "name": "pool",
              "type": "address"
            },
            {
              "internalType": "address",
              "name": "creator",
              "type": "address"
            },
            {
              "internalType": "string",
              "name": "name",
              "type": "string"
            },
            {
              "internalType": "string",
              "name": "symbol",
              "type": "string"
            },
            {
              "internalType": "string",
              "name": "imageURI",
              "type": "string"
            },
            {
              "internalType": "string",
              "name": "description",
              "type": "string"
            },
            {
              "internalType": "uint256",
              "name": "totalSupply",
              "type": "uint256"
            },
            {
              "internalType": "uint256",
              "name": "creatorAllocation",
              "type": "uint256"
            },
            {
              "internalType": "uint256",
              "name": "createdAt",
              "type": "uint256"
            }
          ],
          "internalType": "struct MemeLaunchFactoryERC20Quote.LaunchInfo",
          "name": "",
          "type": "tuple"
        }
      ],
      "stateMutability": "view",
      "type": "function"
    },
    {
      "inputs": [],
      "name": "getLaunchCount",
      "outputs": [
        {
          "internalType": "uint256",
          "name": "",
          "type": "uint256"
        }
      ],
      "stateMutability": "view",
      "type": "function"
    },
    {
      "inputs": [],
      "name": "launchFeeWei",
      "outputs": [
        {
          "internalType": "uint256",
          "name": "",
          "type": "uint256"
        }
      ],
      "stateMutability": "view",
      "type": "function"
    },
    {
      "inputs": [],
      "name": "owner",
      "outputs": [
        {
          "internalType": "address",
          "name": "",
          "type": "address"
        }
      ],
      "stateMutability": "view",
      "type": "function"
    },
    {
      "inputs": [],
      "name": "platformFeeRecipient",
      "outputs": [
        {
          "internalType": "address",
          "name": "",
          "type": "address"
        }
      ],
      "stateMutability": "view",
      "type": "function"
    },
    {
      "inputs": [
        {
          "internalType": "address",
          "name": "token",
          "type": "address"
        }
      ],
      "name": "poolByToken",
      "outputs": [
        {
          "internalType": "address",
          "name": "pool",
          "type": "address"
        }
      ],
      "stateMutability": "view",
      "type": "function"
    },
    {
      "inputs": [],
      "name": "quoteToken",
      "outputs": [
        {
          "internalType": "address",
          "name": "",
          "type": "address"
        }
      ],
      "stateMutability": "view",
      "type": "function"
    },
    {
      "inputs": [
        {
          "internalType": "address",
          "name": "newFeeRecipient",
          "type": "address"
        },
        {
          "internalType": "address",
          "name": "newPlatformFeeRecipient",
          "type": "address"
        },
        {
          "internalType": "uint256",
          "name": "newFeeBps",
          "type": "uint256"
        },
        {
          "internalType": "uint256",
          "name": "newLaunchFeeWei",
          "type": "uint256"
        },
        {
          "internalType": "uint256",
          "name": "newVirtualQuoteReserve",
          "type": "uint256"
        },
        {
          "internalType": "uint256",
          "name": "newVirtualTokenReserve",
          "type": "uint256"
        },
        {
          "internalType": "uint256",
          "name": "newGraduationTargetQuote",
          "type": "uint256"
        },
        {
          "internalType": "address",
          "name": "newDexRouter",
          "type": "address"
        },
        {
          "internalType": "address",
          "name": "newLpRecipient",
          "type": "address"
        }
      ],
      "name": "setDefaults",
      "outputs": [],
      "stateMutability": "nonpayable",
      "type": "function"
    },
    {
      "inputs": [
        {
          "internalType": "address",
          "name": "newOwner",
          "type": "address"
        }
      ],
      "name": "transferOwnership",
      "outputs": [],
      "stateMutability": "nonpayable",
      "type": "function"
    },
    {
      "stateMutability": "payable",
      "type": "receive"
    }
  ],
  "bytecode": "0x608034620002ec57601f6200573e38819003918201601f191683019291906001600160401b03841183851017620002f157816101209284926040968752833981010312620002ec57620000528162000307565b6020906200006282840162000307565b916200007085850162000307565b936060810151608082015160a08301519060c0840151926200009b61010060e0870151960162000307565b6001600160a01b03978816989096908915620002a8578816998a1562000264578816908115620002305761012c8311620001fe578415620001bb5785156200017857861562000143575060018060a01b031998338a60005416176000558960015416176001558989600254161760025588600354161760035560045560055560065560075560085516816009541617600955600a541617600a555161542190816200031d8239f35b6064908c519062461bcd60e51b82526004820152600f60248201526e1d185c99d95d081c995c5d5a5c9959608a1b6044820152fd5b6064908c519062461bcd60e51b82526004820152601660248201527f7669727475616c20746f6b656e207265717569726564000000000000000000006044820152fd5b6064908c519062461bcd60e51b82526004820152601660248201527f7669727475616c2071756f7465207265717569726564000000000000000000006044820152fd5b6064908c519062461bcd60e51b82526004820152600c60248201526b0cccaca40e8dede40d0d2ced60a31b6044820152fd5b6064908c519062461bcd60e51b82526004820152600e60248201526d1c5d5bdd19481c995c5d5a5c995960921b6044820152fd5b8b5162461bcd60e51b815260048101839052601b60248201527f706c6174666f726d20726563697069656e7420726571756972656400000000006044820152606490fd5b8b5162461bcd60e51b815260048101839052601660248201527f66656520726563697069656e74207265717569726564000000000000000000006044820152606490fd5b600080fd5b634e487b7160e01b600052604160045260246000fd5b51906001600160a01b0382168203620002ec5756fe60e08060405260043610156200001f575b5036156200001d57600080fd5b005b600060a05260a0513560e01c9081630b0420bb14620015fb575080631036338c146200091f57806313ed4aa614620008f3578063217a4b7014620008c757806346904840146200089b5780634a9ddfdd146200087c57806352438689146200085b5780635930d3ce146200062f57806383eeb3bb146200060e5780638da5cb5b14620005e157806393a8e04d14620005c05780639ff0251f146200059f578063b82942a51462000298578063bcae25a41462000277578063d578192c146200024b578063e1a45218146200022b578063eb13554f14620001ff578063f2fde38b146200013e5763f80e5ec11462000117573862000010565b34620001385760a05136600319011262000138576020600654604051908152f35b60a05180fd5b346200013857602036600319011262000138576200015b62001639565b60a051546001600160a01b0380821692620001783385146200186b565b16918215620001c95782907f8be0079c531659141344cd1fd0a4f28419497f9722a3daafe3b4186f6b6457e060a05160a051a36bffffffffffffffffffffffff60a01b161760a0515560a05160a051f35b60405162461bcd60e51b815260206004820152600e60248201526d1bdddb995c881c995c5d5a5c995960921b6044820152606490fd5b34620001385760a05136600319011262000138576002546040516001600160a01b039091168152602090f35b34620001385760a051366003190112620001385760206040516127108152f35b34620001385760a05136600319011262000138576009546040516001600160a01b039091168152602090f35b34620001385760a05136600319011262000138576020600454604051908152f35b3462000138576101203660031901126200013857620002b662001639565b6024356001600160a01b03811681036200059a5760649160e4356001600160a01b03811681036200059a5761010435916001600160a01b03831683036200059a576200030f60018060a01b0360a051541633146200186b565b6001600160a01b03169283156200055d57620003366001600160a01b0382161515620018a5565b61012c604435116200052a5760843515620004ed5760a43515620004b05760c435156200047a577f62de0c78f593b14f1d09c895ce83a42ea45a7d77a716a05432a53193305b3c5a94610120949392916001600160a01b0383166200045e575b6bffffffffffffffffffffffff60a01b8581600154161760015560018060a01b038216816002541617600255604435600455823560055560843560065560a43560075560c43560085560018060a01b03841681600954161760095560018060a01b03851690600a541617600a5560405194855260018060a01b031660208501526044356040850152356060840152608435608084015260a43560a084015260c43560c084015260018060a01b031660e083015260018060a01b0316610100820152a160a05180f35b620004746001600160a01b0385161515620018f2565b62000396565b60405162461bcd60e51b815260206004820152600f60248201526e1d185c99d95d081c995c5d5a5c9959608a1b60448201528590fd5b60405162461bcd60e51b81526020600482015260166024820152751d9a5c9d1d585b081d1bdad95b881c995c5d5a5c995960521b60448201528590fd5b60405162461bcd60e51b81526020600482015260166024820152751d9a5c9d1d585b081c5d5bdd19481c995c5d5a5c995960521b60448201528590fd5b60405162461bcd60e51b815260206004820152600c60248201526b0cccaca40e8dede40d0d2ced60a31b60448201528590fd5b60405162461bcd60e51b8152602060048201526016602482015275199959481c9958da5c1a595b9d081c995c5d5a5c995960521b60448201528590fd5b600080fd5b34620001385760a05136600319011262000138576020600b54604051908152f35b34620001385760a05136600319011262000138576020600754604051908152f35b34620001385760a051366003190112620001385760a051546040516001600160a01b039091168152602090f35b34620001385760a05136600319011262000138576020600554604051908152f35b346200013857602036600319011262000138576004356040516200065381620016ec565b60a051815260a051602082015260a051604082015260608082015260606080820152606060a0820152606060c082015260a05160e082015260a05161010082015261012060a051910152600b548110156200082357620006b3906200172b565b50600960405191620006c583620016ec565b80546001600160a01b0390811684526001820154811660208501526002820154166040840152620006f960038201620017ba565b60608401526200070c60048201620017ba565b60808401526200071f60058201620017ba565b60a08401526200073260068201620017ba565b60c0840152600781015460e08401526008810154610100840152015461012082015260405180916020825260018060a01b03815116602083015260018060a01b03602082015116604083015260018060a01b036040820151166060830152606081015161012062000803620007b66101409384608088015261016087019062001680565b620007ed620007d8608087015192601f1993848a83030160a08b015262001680565b60a0870151838983030160c08a015262001680565b9060c0860151908783030160e088015262001680565b9260e0810151610100860152610100810151828601520151908301520390f35b60405162461bcd60e51b815260206004820152601060248201526f1b185d5b98da081b9bdd08199bdd5b9960821b6044820152606490fd5b34620001385760a05136600319011262000138576020600854604051908152f35b34620001385760a0513660031901126200013857602060405160328152f35b34620001385760a05136600319011262000138576001546040516001600160a01b039091168152602090f35b34620001385760a05136600319011262000138576003546040516001600160a01b039091168152602090f35b34620001385760a0513660031901126200013857600a546040516001600160a01b039091168152602090f35b60c036600319011262000138576004356001600160401b03811162000138576200094e90369060040162001650565b906024356001600160401b03811162000138576200097190369060040162001650565b9290916044356001600160401b03811162000138576200099690369060040162001650565b6064356001600160401b0381116200013857620009b890369060040162001650565b9290966005543403620015c057620009cf62001937565b85156200158b5780156200155457608435156200151d576107d060a43511620014e257600254604051906001600160a01b03166001600160401b0361172d8301908111908311176200108357819061172d62003cbf833960e061172d83015262000a5e62000a4660e061172d8501018b8b62001a41565b61172d84018103602061172d86010152858c62001a41565b90608435604061172d8501015230606061172d8501015233608061172d8501015260a061172d84010152603260c061172d84010152039060a051f09687156200134c576002546001600160a01b0316338103620014ce57965b6009546001600160a01b0316620014b2575b600354604051906001600160a01b03166001600160401b03612242830190811190831117620010835761224262001a7d83396001600160a01b038b166122428301908152602081019190915260a051908290036040019190f060c05260c051156200134c5760015460045460065460075460085460095460c05192956001600160a01b0390811695939181169291163b15620001385760405163a8cec45f60e01b815260a080516001600160a01b0397881660048401526024830195909552604482019590955260648101969096526084860152831660a48501528b831660c4850152905160c0519192849260e49284929091165af180156200134c57620014a0575b5060843560a435608435020460a43503620014885760843561271060a435820204810311620014885760405163a9059cbb60e01b815260c0516001600160a01b03908116600483015261271060843560a4358102919091049003602483015260a05160209183916044918391908f165af19081156200134c5760a0519162001464575b5015620014285761271060a435608435020462001359575b60c0516001600160a01b03163b156200013857604051639556483760e01b815261271060a435608435020460843503600482015260a0518160248160a05160018060a01b0360c051165af180156200134c5762001332575b5060a080516001600160a01b038b8116909152600c60205290516040902060c05181546001600160a01b0319169216919091179055600b5460808190526801000000000000000011156200108357600160805101600b5562000d236080516200172b565b505062000d326080516200172b565b5080546001600160a01b03199081166001600160a01b038c811691909117835560c05160018401805484169190921617905560028201805490911633179055966001600160401b0382116200108357819062000d9260038a01546200177d565b601f8111620012d7575b5060a05190601f8311600114620012615760a0519262001255575b50508160011b916000199060031b1c19161760038701555b6001600160401b0382116200108357819062000def60048801546200177d565b601f8111620011fa575b5060a05190601f8311600114620011845760a0519262001178575b50508160011b916000199060031b1c19161760048501555b6001600160401b0382116200108357819062000e4c60058601546200177d565b601f81116200111d575b5060a05190601f8311600114620010a75760a051926200109b575b50508160011b916000199060031b1c19161760058301555b6001600160401b038111620010835762000ea760068301546200177d565b601f811162001030575b5060a051601f821160011462000fb657819060609660a0519262000faa575b50508160011b916000199060031b1c19161760068201555b6084356007820181905561271060a43582020460088084018290554260099485015560045490549354604080516080805160c080516001600160a01b039081168552602085019990995293830196909652606082019490945292830195909552831660a0820152938216928401929092528316913391907fdc7fea29d21f6a39e7f1b42ad6100f8cdaff48535852696a1155de8a81d87a069060e090a46040805160805181526001600160a01b03928316602082015260c05190921690820152f35b01359050868062000ed0565b6006830160a05152602060a051209060a0515b601f1984168110620010175750906060968392600194601f1981161062000ffc575b505050811b01600682015562000ee8565b0135600019600384901b60f8161c1916905586808062000feb565b9091602060018192858b01358155019301910162000fc9565b6006830160a05152602060a05120601f830160051c8101916020841062001078575b601f0160051c01905b8181106200106a575062000eb1565b60a05181556001016200105b565b909150819062001052565b634e487b7160e01b60a051526041600452602460a051fd5b01359050878062000e71565b60a080516005880190525160208120909450915b601f198416851062001104576001945083601f19811610620010e9575b505050811b01600583015562000e89565b0135600019600384901b60f8161c19169055878080620010d8565b81810135835560209485019460019093019201620010bb565b9091506005850160a05152602060a05120601f840160051c81016020851062001170575b90849392915b601f830160051c820181106200115f57505062000e56565b60a051815585945060010162001147565b508062001141565b01359050898062000e14565b60a0805160048a0190525160208120909450915b601f1984168510620011e1576001945083601f19811610620011c6575b505050811b01600485015562000e2c565b0135600019600384901b60f8161c19169055898080620011b5565b8181013583556020948501946001909301920162001198565b9091506004870160a05152602060a05120601f840160051c8101602085106200124d575b90849392915b601f830160051c820181106200123c57505062000df9565b60a051815585945060010162001224565b50806200121e565b013590508b8062000db7565b60a0805160038c0190525160208120909450915b601f1984168510620012be576001945083601f19811610620012a3575b505050811b01600387015562000dcf565b0135600019600384901b60f8161c191690558b808062001292565b8181013583556020948501946001909301920162001275565b9091506003890160a05152602060a05120601f840160051c8101602085106200132a575b90849392915b601f830160051c820181106200131957505062000d9c565b60a051815585945060010162001301565b5080620012fb565b6200133d90620016c2565b60a05162000138578a62000cbf565b6040513d60a051823e3d90fd5b60405163a9059cbb60e01b815233600482015261271060a4356084350204602482015260a051602090829060449082906001600160a01b038f165af19081156200134c5760a05191620013f2575b5062000c675760405162461bcd60e51b815260206004820152601760248201527f63726561746f72207472616e73666572206661696c65640000000000000000006044820152606490fd5b62001419915060203d60201162001420575b62001410818362001709565b81019062001a62565b8b620013a7565b503d62001404565b60405162461bcd60e51b81526020600482015260146024820152731c1bdbdb081d1c985b9cd9995c8819985a5b195960621b6044820152606490fd5b62001481915060203d602011620014205762001410818362001709565b8b62000c4f565b634e487b7160e01b60a051526011600452602460a051fd5b620014ab90620016c2565b8a62000bcc565b620014c86001600160a01b0389161515620018f2565b62000ac9565b50600a546001600160a01b03169662000ab7565b60405162461bcd60e51b81526020600482015260136024820152720c2d8d8dec6c2e8d2dedc40e8dede40d0d2ced606b1b6044820152606490fd5b60405162461bcd60e51b815260206004820152600f60248201526e1cdd5c1c1b1e481c995c5d5a5c9959608a1b6044820152606490fd5b60405162461bcd60e51b815260206004820152600f60248201526e1cde5b589bdb081c995c5d5a5c9959608a1b6044820152606490fd5b60405162461bcd60e51b815260206004820152600d60248201526c1b985b59481c995c5d5a5c9959609a1b6044820152606490fd5b60405162461bcd60e51b81526020600482015260136024820152720d8c2eadcc6d040cccaca40dad2e6dac2e8c6d606b1b6044820152606490fd5b346200013857602036600319011262000138576020906001600160a01b03806200162462001639565b1660a05152600c8352604060a0512054168152f35b600435906001600160a01b03821682036200059a57565b9181601f840112156200059a578235916001600160401b0383116200059a57602083818601950101116200059a57565b919082519283825260005b848110620016ad575050826000602080949584010152601f8019910116010190565b6020818301810151848301820152016200168b565b6001600160401b038111620016d657604052565b634e487b7160e01b600052604160045260246000fd5b61014081019081106001600160401b03821117620016d657604052565b90601f801991011681019081106001600160401b03821117620016d657604052565b600b548110156200176757600a90600b600052027f0175b7a638427703f0dbe7bb9bbf987a2551717b34e79f33b5b1008d1fa01db90190600090565b634e487b7160e01b600052603260045260246000fd5b90600182811c92168015620017af575b60208310146200179957565b634e487b7160e01b600052602260045260246000fd5b91607f16916200178d565b90604051918260008254620017cf816200177d565b9081845260209460019160018116908160001462001847575060011462001804575b505050620018029250038362001709565b565b600090815285812095935091905b8183106200182e575050620018029350820101388080620017f1565b8554888401850152948501948794509183019162001812565b925050506200180294925060ff191682840152151560051b820101388080620017f1565b156200187357565b60405162461bcd60e51b815260206004820152600a60248201526937b7363c9037bbb732b960b11b6044820152606490fd5b15620018ad57565b60405162461bcd60e51b815260206004820152601b60248201527f706c6174666f726d20726563697069656e7420726571756972656400000000006044820152606490fd5b15620018fa57565b60405162461bcd60e51b81526020600482015260156024820152741b1c081c9958da5c1a595b9d081c995c5d5a5c9959605a1b6044820152606490fd5b600554801562001a3e576002546001600160a01b03919082166200195d811515620018a5565b60008080809481945af1903d1562001a37573d906001600160401b03821162001a2357604051916200199a601f8201601f19166020018462001709565b825260203d92013e5b15620019de57600254166005546040519081527f4cef2d27cdf43d743c3c66401182e93989938e77d1be10f3ab9e6afdf799f83960203392a3565b60405162461bcd60e51b815260206004820152601a60248201527f6c61756e636820666565207472616e73666572206661696c65640000000000006044820152606490fd5b634e487b7160e01b81526041600452602490fd5b50620019a3565b50565b908060209392818452848401376000828201840152601f01601f1916010190565b908160209103126200059a575180151581036200059a579056fe60e0346200019a57601f6200224238819003918201601f19168301916001600160401b038311848410176200019f5780849260409485528339810103126200019a576200005a60206200005283620001b5565b9201620001b5565b906001600160a01b038082161562000164578216156200012e5760a05260c052336080526040516120779081620001cb8239608051818181610642015281816106e9015281816108f301528181610b1c015261111d015260a0518181816101a3015281816103440152818161095c01528181610d58015281816118f20152818161194e01528181611a8c01528181611b6a0152611d7c015260c0518181816103bf01528181610cb001528181611225015281816119b401528181611a1301528181611aba01528181611b920152611ca30152f35b60405162461bcd60e51b815260206004820152600e60248201526d1c5d5bdd19481c995c5d5a5c995960921b6044820152606490fd5b60405162461bcd60e51b815260206004820152600e60248201526d1d1bdad95b881c995c5d5a5c995960921b6044820152606490fd5b600080fd5b634e487b7160e01b600052604160045260246000fd5b51906001600160a01b03821682036200019a5756fe608060408181526004918236101561001657600080fd5b600092833560e01c9182630758d924146112a457508163158ef93e1461127d5781631ad15bbc14611254578163217a4b701461121057816324a9d853146111f15781632760eca1146111d45781632a2c6972146110ee578163334041a6146110c7578163343ee3b7146110a8578163398482d8146110845781634329742d14610fd3578163452e68dd14610faa5781634690484014610f825781634beb394c14610f6357816352b86d2b146101f4578163649249d314610f445781636818735c14610be85781637f544e4914610bc95781638c575aa314610aba57816395564837146108cb5781639da771f4146105ef578163a64190c41461089d578163a8cec45f14610691578163aca6b65a14610671578163c45a01551461062d578163cbcb31711461060e578163d62ccb3f146105ef578163d79875eb1461025a578163e1a452181461023d578163e7c2b77214610216578163f5596626146101f457508063f95a02d0146101d65763fc0c546a1461019057600080fd5b346101d257816003193601126101d257517f00000000000000000000000000000000000000000000000000000000000000006001600160a01b03168152602090f35b5080fd5b50346101d257816003193601126101d2576020906006549051908152f35b90503461021257826003193601126102125760209250549051908152f35b8280fd5b5050346101d257816003193601126101d25760209060ff60085460b01c1690519015158152f35b5050346101d257816003193601126101d257602090516127108152f35b919050346102125761026b366112e4565b926008549161028060ff8460b81c1615611474565b60ff60b81b19928316600160b81b1760088190556102b49060ff906102aa60a882901c83166114ad565b60b01c161561159b565b6102bf8115156117e8565b6102c881611ff1565b956102d48715156115d3565b60025487116105ac576127106102ec600154896112fa565b04906103046102fb838a61152b565b97881015611615565b85516323b872dd60e01b8152338186019081523060208281019190915260408201869052996001600160a01b03969290918b90829081906060010381878b7f0000000000000000000000000000000000000000000000000000000000000000165af19081156105a2579161038761039e928c95948e8892610585575b5050611722565b610393876003546113fa565b60035560025461152b565b600255875163a9059cbb60e01b8082523383830190815260208101949094527f000000000000000000000000000000000000000000000000000000000000000088169790939091908c90829081906040010381888c5af190811561057b578c93929161041191879161055e575b5061169c565b856104b4575b50505050506104a47f979d7dfe5ba2269a5f9d4eb1050fb4e24587c61b13db43d174af3c3171added69186517f846c37eef631e0943682d87352ec117c20008eb7f425c9b85ac011a6d4774cc0339180610484858d8a846040919493926060820195825260208201520152565b0390a2865193845260208401889052604084015233929081906060820190565b0390a36008541660085551908152f35b84548a51948552166001600160a01b03169083019081526020810185905282908190604001038185895af1918215610553576104a4927f979d7dfe5ba2269a5f9d4eb1050fb4e24587c61b13db43d174af3c3171added6949261051d9291610526575b506116e0565b91883880610417565b61054691508b3d8d1161054c575b61053e818361164c565b810190611684565b38610517565b503d610534565b8751903d90823e3d90fd5b6105759150853d871161054c5761053e818361164c565b3861040b565b8a513d87823e3d90fd5b61059b9250803d1061054c5761053e818361164c565b388e610380565b89513d86823e3d90fd5b845162461bcd60e51b8152602081850152601a60248201527f696e73756666696369656e742071756f746520726573657276650000000000006044820152606490fd5b5050346101d257816003193601126101d2576020906002549051908152f35b5050346101d257816003193601126101d2576020906003549051908152f35b5050346101d257816003193601126101d257517f00000000000000000000000000000000000000000000000000000000000000006001600160a01b03168152602090f35b5050346101d257816003193601126101d2576020905164e8d4a510008152f35b919050346102125760e0366003190112610212576106ad6112c9565b916001600160a01b039160a43583811692608435916064359160443591602435908790036108995760c4359780891680990361089557610710817f0000000000000000000000000000000000000000000000000000000000000000163314611384565b6008549960ff8b60a01c1661085c57169586156108215761073561012c8311156113bf565b83156107e65784156107ab575061074d851515611766565b8661079b575b6bffffffffffffffffffffffff60a01b95868b5416178a55600155556005556006556007541617600755600160a01b916affffffffffffffffffffff60a81b16171760085580f35b6107a68815156117a4565b610753565b5162461bcd60e51b815260208184015260166024820152751d9a5c9d1d585b081d1bdad95b881c995c5d5a5c995960521b6044820152606490fd5b5162461bcd60e51b815260208184015260166024820152751d9a5c9d1d585b081c5d5bdd19481c995c5d5a5c995960521b6044820152606490fd5b5162461bcd60e51b81526020818401526016602482015275199959481c9958da5c1a595b9d081c995c5d5a5c995960521b6044820152606490fd5b875162461bcd60e51b81526020818601526013602482015272185b1c9958591e481a5b9a5d1a585b1a5e9959606a1b6044820152606490fd5b8a80fd5b8980fd5b905082346108c85760203660031901126108c857506108bc903561182c565b82519182526020820152f35b80fd5b839150346101d25760209081600319360112610212578035906001600160a01b039061091a337f0000000000000000000000000000000000000000000000000000000000000000841614611384565b6008549160ff8360a81c16610a865760ff8360a01c1615610a5157846024916109448615156117e8565b88516370a0823160e01b8152308582015292839182907f0000000000000000000000000000000000000000000000000000000000000000165afa908115610a47579084918791610a12575b50106109d9575060ff60a81b1916600160a81b176008556003819055925192835290917fa71ed34ff06af8d6865a8f541aae52d72fa89f0e5ee15f01d48fa6c62c8569149190a180f35b855162461bcd60e51b81529081018490526013602482015272696e73756666696369656e7420746f6b656e7360681b6044820152606490fd5b809250868092503d8311610a40575b610a2b818361164c565b81010312610a3c578390518861098f565b8580fd5b503d610a21565b87513d88823e3d90fd5b865162461bcd60e51b8152808301869052600f60248201526e1b9bdd081a5b9a5d1a585b1a5e9959608a1b6044820152606490fd5b865162461bcd60e51b8152808301869052600e60248201526d185b1c9958591e481cd95959195960921b6044820152606490fd5b5050346101d25760603660031901126101d257610ad56112c9565b602435906001600160a01b0380831690818403610a3c577fbcdc4bff84f936019028a7bcbef6b449550d6334606377b822720e57e94276c494610bb39260443592610b43817f0000000000000000000000000000000000000000000000000000000000000000163314611384565b60085490610b5760ff8360b01c16156114eb565b610b62851515611766565b86169081610bb9575b600780546001600160a01b0319908116909317905516176008556006829055516001600160a01b03938416815292909316602083015260408201929092529081906060820190565b0390a180f35b610bc48315156117a4565b610b6b565b5050346101d257816003193601126101d257602090600a549051908152f35b8383346101d257610bf8366112e4565b9260085491610c0d60ff8460b81c1615611474565b60ff60b81b19928316600160b81b176008819055610c379060ff906102aa60a882901c83166114ad565b8015610f1057612710610c4c600154836112fa565b04610c57818361152b565b92610c78610c6485611f6a565b97610c708915156115d3565b881015611615565b6003548711610ed45785516323b872dd60e01b8152338982019081523060208083019190915260408201869052996001600160a01b037f00000000000000000000000000000000000000000000000000000000000000008116979390928c90829081906060010381888c5af190811561057b5791610d008d94928d948891610eb7575061169c565b86610e38575b610d15610d54956002546113fa565b600255610d248360035461152b565b6003558a5163a9059cbb60e01b815233918101918252602082019390935291938492839187918391604090910190565b03927f0000000000000000000000000000000000000000000000000000000000000000165af19182156105535788927fef15014c0b5775df7c57e26f3ddd7a80b0c875a3b685fd3b7121b5a6bf5bb3ff9492610db69291610e1b575b50611722565b8651848152602081018290526040810183905233907fbeae048c6d270d9469f86cf6e8fedda3c60ad770f16c24c9fc131c8e9a09101d90606090a28651938452602084015260408301523391606090a3610e0e611fc6565b6008541660085551908152f35b610e3291508b3d8d1161054c5761053e818361164c565b8b610db0565b85548b5163a9059cbb60e01b81529083166001600160a01b0316828201908152602081018990529295919491935091829081906040010381888c5af190811561057b5792610d158c93610e988f9694610d5498958a91610ea057506116e0565b955050610d06565b6105469150883d8a1161054c5761053e818361164c565b610ece9150863d881161054c5761053e818361164c565b8f61040b565b855162461bcd60e51b81526020818a01526016602482015275696e73756666696369656e74206c697175696469747960501b6044820152606490fd5b835162461bcd60e51b8152602081880152600e60248201526d1c5d5bdd19481c995c5d5a5c995960921b6044820152606490fd5b5050346101d257816003193601126101d2576020906006549051908152f35b905082346108c85760203660031901126108c857506108bc9035611538565b5050346101d257816003193601126101d257905490516001600160a01b039091168152602090f35b5050346101d257816003193601126101d25760085490516001600160a01b039091168152602090f35b90503461021257826003193601126102125760085491610ff960ff8460b81c1615611474565b60ff60b81b19928316600160b81b17600881905561102d9060ff9061102360a882901c83166114ad565b60b01c16156114eb565b6002546006541161104c57505061104261188a565b6008541660085580f35b906020606492519162461bcd60e51b835282015260126024820152711d185c99d95d081b9bdd081c995858da195960721b6044820152fd5b5050346101d257816003193601126101d2576020906110a1611407565b9051908152f35b5050346101d257816003193601126101d2576020906005549051908152f35b5050346101d257816003193601126101d25760209060ff60085460a81c1690519015158152f35b919050346102125780600319360112610212576111096112c9565b60243591906001600160a01b0390611144337f0000000000000000000000000000000000000000000000000000000000000000841614611384565b1692831561119d57508160209161118061012c7fe42708d93b95810922305119a3271ca42233da9ebe1e1e503f0e887817a32c7a9511156113bf565b85546001600160a01b03191685178655600182905551908152a280f35b6020606492519162461bcd60e51b835282015260126024820152711c9958da5c1a595b9d081c995c5d5a5c995960721b6044820152fd5b5050346101d257816003193601126101d2576020906110a1611343565b5050346101d257816003193601126101d2576020906001549051908152f35b5050346101d257816003193601126101d257517f00000000000000000000000000000000000000000000000000000000000000006001600160a01b03168152602090f35b5050346101d257816003193601126101d25760095490516001600160a01b039091168152602090f35b5050346101d257816003193601126101d25760209060ff60085460a01c1690519015158152f35b8490346101d257816003193601126101d2576007546001600160a01b03168152602090f35b600435906001600160a01b03821682036112df57565b600080fd5b60409060031901126112df576004359060243590565b8181029291811591840414171561130d57565b634e487b7160e01b600052601160045260246000fd5b811561132d570490565b634e487b7160e01b600052601260045260246000fd5b600654801561137e57600254612710918282029180830484149015171561130d5761136d91611323565b90808211611379575090565b905090565b50600090565b1561138b57565b60405162461bcd60e51b815260206004820152600c60248201526b6f6e6c7920666163746f727960a01b6044820152606490fd5b156113c657565b60405162461bcd60e51b815260206004820152600c60248201526b0cccaca40e8dede40d0d2ced60a31b6044820152606490fd5b9190820180921161130d57565b611416600354600554906113fa565b801561137e5761142b600254600454906113fa565b9064e8d4a510009182810292818404148115171561130d576c0c9f2c9cd04674edea400000000291808304670de0b6b3a7640000149015171561130d5761147191611323565b90565b1561147b57565b60405162461bcd60e51b815260206004820152600a6024820152697265656e7472616e637960b01b6044820152606490fd5b156114b457565b60405162461bcd60e51b815260206004820152600f60248201526e1c1bdbdb081b9bdd081cd959591959608a1b6044820152606490fd5b156114f257565b60405162461bcd60e51b8152602060048201526011602482015270185b1c9958591e4819dc98591d585d1959607a1b6044820152606490fd5b9190820391821161130d57565b60085460ff8160a81c161590811561158d575b508015611585575b61157c5761157961157461271061156c600154856112fa565b04809361152b565b611f6a565b91565b50600090600090565b508015611553565b60ff915060b01c163861154b565b156115a257565b60405162461bcd60e51b815260206004820152600960248201526819dc98591d585d195960ba1b6044820152606490fd5b156115da57565b60405162461bcd60e51b81526020600482015260136024820152721a5b9cdd59999a58da595b9d081bdd5d1c1d5d606a1b6044820152606490fd5b1561161c57565b60405162461bcd60e51b8152602060048201526008602482015267736c69707061676560c01b6044820152606490fd5b90601f8019910116810190811067ffffffffffffffff82111761166e57604052565b634e487b7160e01b600052604160045260246000fd5b908160209103126112df575180151581036112df5790565b156116a357565b60405162461bcd60e51b81526020600482015260156024820152741c5d5bdd19481d1c985b9cd9995c8819985a5b1959605a1b6044820152606490fd5b156116e757565b60405162461bcd60e51b8152602060048201526013602482015272199959481d1c985b9cd9995c8819985a5b1959606a1b6044820152606490fd5b1561172957565b60405162461bcd60e51b81526020600482015260156024820152741d1bdad95b881d1c985b9cd9995c8819985a5b1959605a1b6044820152606490fd5b1561176d57565b60405162461bcd60e51b815260206004820152600f60248201526e1d185c99d95d081c995c5d5a5c9959608a1b6044820152606490fd5b156117ab57565b60405162461bcd60e51b81526020600482015260156024820152741b1c081c9958da5c1a595b9d081c995c5d5a5c9959605a1b6044820152606490fd5b156117ef57565b60405162461bcd60e51b81526020600482015260156024820152741d1bdad95b88185b5bdd5b9d081c995c5d5a5c9959605a1b6044820152606490fd5b60085460ff8160a81c161590811561187c575b508015611874575b61157c5761185490611ff1565b801561157c5761157961271061186c600154846112fa565b04809261152b565b508015611847565b60ff915060b01c163861183f565b6007546001600160a01b03168015611f3057600160b01b60ff60b01b19600854161760085542600a55600354600254600060035560006002556040519263095ea7b360e01b908185526004850152600060248501526044936020818681600060018060a01b037f0000000000000000000000000000000000000000000000000000000000000000165af18015611d4b57611f11575b506007546040518281526001600160a01b039091166004820152602481018490526020818060448101038160007f00000000000000000000000000000000000000000000000000000000000000006001600160a01b03165af18015611d4b57611ef2575b506007546040518281526001600160a01b0391821660048201526000602482018190529092916020918491889183917f0000000000000000000000000000000000000000000000000000000000000000165af1908115611d4b578392602092611ed5575b506007546040519182526001600160a01b031660048201526024810192909252818060448101038160007f00000000000000000000000000000000000000000000000000000000000000006001600160a01b03165af18015611d4b57611eb6575b506007546008546001600160a01b0391821694911642610e10810190811061130d576101046060926000604051988994859362e8e33760e81b855260018060a01b037f000000000000000000000000000000000000000000000000000000000000000016600486015260018060a01b037f00000000000000000000000000000000000000000000000000000000000000001660248601528a898601528960648601528360848601528360a486015260c485015260e48401525af1918215611d4b57600093600095600094611e70575b5060075460405163c45a015560e01b815290602090829060049082906001600160a01b03165afa908115611d4b578491602091600091611e53575b5060405163e6a4390560e01b81526001600160a01b037f0000000000000000000000000000000000000000000000000000000000000000811660048301527f0000000000000000000000000000000000000000000000000000000000000000811660248301529093849290918391165afa908115611d4b57600091611e24575b5060018060a01b03166bffffffffffffffffffffffff60a01b6009541617600955848111611d57575b50848111611c50575b50507f71aa8c3702dbbc54247a4e6446450e64a46250dd72707a247ddb01d72eaef4459160809160018060a01b03600954169460405192835260208301526040820152426060820152a2565b600054611c9d916020916001600160a01b031690611c6f90889061152b565b60405163a9059cbb60e01b81526001600160a01b039092166004830152602482015291829081906044820190565b038160007f00000000000000000000000000000000000000000000000000000000000000006001600160a01b03165af1908115611d4b57600091611d2c575b5015611ce85780611c04565b6064907f71756f74652064757374207472616e73666572206661696c65640000000000006040519162461bcd60e51b835260206004840152601a6024840152820152fd5b611d45915060203d60201161054c5761053e818361164c565b38611cdc565b6040513d6000823e3d90fd5b600054611d76916020916001600160a01b031690611c6f90889061152b565b038160007f00000000000000000000000000000000000000000000000000000000000000006001600160a01b03165af1908115611d4b57600091611e05575b5015611dc15738611bfb565b60405162461bcd60e51b815260206004820152601a60248201527f746f6b656e2064757374207472616e73666572206661696c656400000000000081840152606490fd5b611e1e915060203d60201161054c5761053e818361164c565b38611db5565b611e46915060203d602011611e4c575b611e3e818361164c565b810190612022565b38611bd2565b503d611e34565b611e6a9150823d8411611e4c57611e3e818361164c565b38611b52565b9450925093506060833d606011611eae575b81611e8f6060938361164c565b810103126112df57825193604060208501519401519493949238611b17565b3d9150611e82565b611ece9060203d60201161054c5761053e818361164c565b5038611a48565b611eeb90833d851161054c5761053e818361164c565b50386119e7565b611f0a9060203d60201161054c5761053e818361164c565b5038611983565b611f299060203d60201161054c5761053e818361164c565b503861191f565b60405162461bcd60e51b815260206004820152601260248201527119195e081c9bdd5d195c881b9bdd081cd95d60721b6044820152606490fd5b801561137e57611f7f600254600454906113fa565b90611fad60035492611fa7611f96600554866113fa565b93611fa185846112fa565b926113fa565b90611323565b80821115611fbe5761136d9161152b565b505050600090565b60ff60085460b01c168015611fe4575b611fe257611fe261188a565b565b5060025460065411611fd6565b60025490611fad612004600454846113fa565b91611fa7612017600354600554906113fa565b91611fa183866112fa565b908160209103126112df57516001600160a01b03811681036112df579056fea26469706673582212200b01d6da30d4ba38d175ad52e96d41a1e84e2f7bdd4b29fb4b59f80142f1c3a964736f6c6343000818003360406101408152346200060d576200172d803803806200001f8162000612565b92833981019160e0828403126200060d5781516001600160401b03908181116200060d57846200005191850162000638565b9360209081850151908382116200060d576200006f91860162000638565b9083850151946200008360608201620006aa565b6200009160808301620006aa565b9060c0620000a260a08501620006aa565b93015198805115620005d957855115620005a35788156200056d576001600160a01b0382811697908815620005365780851615620004ff57851615620004c7576103e88b116200048e57815181811162000478576000978854916001948584811c941680156200046d575b8a85101462000459578190601f9485811162000406575b508a90858311600114620003a1578c9262000395575b5050600019600383901b1c191690851b1789555b8051928311620003815783548481811c9116801562000376575b898210146200036257908183859493116200030d575b5088918311600114620002a95789926200029d575b5050600019600383901b1c191690821b1790555b8760025560805260a05260c0528560e052610fa080870290878204148715171562000289576127109004946101209580875287039687116200028957907fddf252ad1be2c89b69c2b068fc378daa952ba7f163c4a11628f55a4df523b3ef916101009788528484526006825280868520558551908152a3519061106d9283620006c08439608051838181610238015281816102ff015261035b015260a0518381816106980152610ba8015260c05183818161018d0152610795015260e0518381816106440152610db3015251828181610a070152610df1015251816109690152f35b634e487b7160e01b83526011600452602483fd5b01519050388062000193565b848a52888a208594509190601f1984168b5b8b828210620002f65750508411620002dc575b505050811b019055620001a7565b015160001960f88460031b161c19169055388080620002ce565b8385015186558897909501949384019301620002bb565b90919250848a52888a208380860160051c8201928b871062000358575b91869588929594930160051c01915b828110620003495750506200017e565b8c815586955087910162000339565b925081926200032a565b634e487b7160e01b8a52602260045260248afd5b90607f169062000168565b634e487b7160e01b89526041600452602489fd5b0151905038806200013a565b8c80528b8d208894509190601f1984168e8e5b828210620003ee5750508411620003d4575b505050811b0189556200014e565b015160001960f88460031b161c19169055388080620003c6565b8385015186558b979095019493840193018e620003b4565b9091508b80528a8c208580850160051c8201928d86106200044f575b918991869594930160051c01915b8281106200044057505062000124565b8e815585945089910162000430565b9250819262000422565b634e487b7160e01b8b52602260045260248bfd5b93607f16936200010d565b634e487b7160e01b600052604160045260246000fd5b885162461bcd60e51b81526004810187905260126024820152710e8e4c2c8ca40cccaca40e8dede40d0d2ced60731b6044820152606490fd5b885162461bcd60e51b81526004810187905260116024820152701c1b185d199bdc9b481c995c5d5a5c9959607a1b6044820152606490fd5b895162461bcd60e51b815260048101889052601060248201526f18dc99585d1bdc881c995c5d5a5c995960821b6044820152606490fd5b895162461bcd60e51b815260048101889052601060248201526f199858dd1bdc9e481c995c5d5a5c995960821b6044820152606490fd5b875162461bcd60e51b815260048101869052600f60248201526e1cdd5c1c1b1e481c995c5d5a5c9959608a1b6044820152606490fd5b875162461bcd60e51b815260048101869052600f60248201526e1cde5b589bdb081c995c5d5a5c9959608a1b6044820152606490fd5b875162461bcd60e51b815260048101869052600d60248201526c1b985b59481c995c5d5a5c9959609a1b6044820152606490fd5b600080fd5b6040519190601f01601f191682016001600160401b038111838210176200047857604052565b919080601f840112156200060d5782516001600160401b03811162000478576020906200066e601f8201601f1916830162000612565b928184528282870101116200060d5760005b8181106200069657508260009394955001015290565b858101830151848201840152820162000680565b51906001600160a01b03821682036200060d5756fe608060408181526004918236101561001657600080fd5b600092833560e01c91826302d05d3f14610b9457508163044991d814610b7557816306fdde0314610a9b578163095ea7b314610a2a57816317773ebb146109ef57816318160ddd146109d05781631e26906b146109a95781632044dbb21461098c57816322dcd13e1461095157816323b872dd1461084a5781632bebf6bf146107805781632f9f103214610764578163313ce56714610748578163351fee46146106845781635b632360146106675781635faad8c51461062c57816370a08231146105f457816395d89b41146104d15781639e5f358a146104b3578163a9059cbb14610482578163ae36f5c81461032e578163c45a0155146102ea578163dc4b1c0e1461022057508063dd62ed3e146101d8578063e1a45218146101bc578063eb13554f146101795763f242ab411461014e57600080fd5b3461017557816003193601126101755760035490516001600160a01b039091168152602090f35b5080fd5b5034610175578160031936011261017557517f00000000000000000000000000000000000000000000000000000000000000006001600160a01b03168152602090f35b5034610175578160031936011261017557602090516127108152f35b5034610175578060031936011261017557806020926101f5610c20565b6101fd610c3b565b6001600160a01b0391821683526007865283832091168252845220549051908152f35b9050346102e657826003193601126102e657610266337f00000000000000000000000000000000000000000000000000000000000000006001600160a01b031614610cb3565b6003549160ff8360a01c166102af57505060ff60a01b1916600160a01b17600355337f60b9765cf08f04b4850cd9a0f8da6fa9e854afd328723cc3f6adea6fb4f18d238280a280f35b906020606492519162461bcd60e51b83528201526011602482015270185b1c9958591e481c995b9bdd5b98d959607a1b6044820152fd5b8280fd5b505034610175578160031936011261017557517f00000000000000000000000000000000000000000000000000000000000000006001600160a01b03168152602090f35b839150346101755760203660031901126101755761034a610c20565b6001600160a01b03908190610382337f0000000000000000000000000000000000000000000000000000000000000000841614610cb3565b1691821561044f576003549160ff8360a01c1661040c5782166103d657506001600160a01b03191681176003557fc3cd203585fbc28dcc1692611d2ebc4190312a5b189047df793c69b157aa0d298280a280f35b606490602086519162461bcd60e51b8352820152601060248201526f1c185a5c88185b1c9958591e481cd95d60821b6044820152fd5b855162461bcd60e51b8152602081840152601960248201527f666163746f727920636f6e74726f6c2072656e6f756e636564000000000000006044820152606490fd5b606490602086519162461bcd60e51b8352820152600d60248201526c1c185a5c881c995c5d5a5c9959609a1b6044820152fd5b5050346101755780600319360112610175576020906104ac6104a2610c20565b6024359033610d0e565b5160018152f35b9050346102e657826003193601126102e65760209250549051908152f35b8383346101755781600319360112610175578051908260018054908160011c90600183169283156105ea575b60209384841081146105d7578388529081156105bb5750600114610565575b505050829003601f01601f191682019267ffffffffffffffff841183851017610552575082918261054e925282610bd7565b0390f35b634e487b7160e01b815260418552602490fd5b600187529192508591837fb10e2d527612073b26eecdfd717e6a320cf44b4afac2b0732d9fcbe2b7fa0cf65b8385106105a7575050505083010185808061051c565b805488860183015293019284908201610591565b60ff1916878501525050151560051b840101905085808061051c565b634e487b7160e01b895260228a52602489fd5b91607f16916104fd565b5050346101755760203660031901126101755760209181906001600160a01b0361061c610c20565b1681526006845220549051908152f35b505034610175578160031936011261017557602090517f00000000000000000000000000000000000000000000000000000000000000008152f35b505034610175578160031936011261017557602090516103e88152f35b8383346101755781600319360112610175577f00000000000000000000000000000000000000000000000000000000000000006001600160a01b038116903382900361071657846106e891602096549586926106e1841515610c74565b5530610f43565b7fd046302bdc39599e60a5981e59227dcd1c643f512f56f2e984390c3ac6eadedb848351858152a251908152f35b825162461bcd60e51b8152602081870152600c60248201526b37b7363c9031b932b0ba37b960a11b6044820152606490fd5b5050346101755781600319360112610175576020905160128152f35b5050346101755781600319360112610175576020905160328152f35b919050346102e657826003193601126102e6577f0000000000000000000000000000000000000000000000000000000000000000916001600160a01b038316903382900361081757506107e96020946005549485916107e0831515610c74565b60055530610f43565b7f0636f1043cff5f4c437926a4412416778ddc5e970feb177685b587e81dad9095848351858152a251908152f35b606490602084519162461bcd60e51b8352820152600d60248201526c6f6e6c7920706c6174666f726d60981b6044820152fd5b919050346102e65760603660031901126102e657610866610c20565b61086e610c3b565b6044359160018060a01b03811680875260209560078752858820338952875285882054908582106109195750948096976104ac968660001982036108b7575b5050505050610d0e565b6108c091610c51565b83825260078a528282203383528a528282205582815260078952818120338252895220549086519182527f8c5be1e5ebec7d5bd14f71427d1e84f3dd0314c0f7b2291e5b200ac8c7c3b925883393a338858180866108ad565b865162461bcd60e51b81529081018890526012602482015271185b1b1bddd85b98d948195e18d95959195960721b6044820152606490fd5b505034610175578160031936011261017557602090517f00000000000000000000000000000000000000000000000000000000000000008152f35b50503461017557816003193601126101755760209051610fa08152f35b50503461017557816003193601126101755760209060ff60035460a01c1690519015158152f35b5050346101755781600319360112610175576020906002549051908152f35b505034610175578160031936011261017557602090517f00000000000000000000000000000000000000000000000000000000000000008152f35b50503461017557806003193601126101755760209181610a48610c20565b91602435918291338152600787528181209460018060a01b0316948582528752205582519081527f8c5be1e5ebec7d5bd14f71427d1e84f3dd0314c0f7b2291e5b200ac8c7c3b925843392a35160018152f35b83833461017557816003193601126101755780519082835460018160011c9060018316928315610b6b575b60209384841081146105d7578388529081156105bb5750600114610b1657505050829003601f01601f191682019267ffffffffffffffff841183851017610552575082918261054e925282610bd7565b8680529192508591837f290decd9548b62a8d60345a988386fc84ba6bc95484008f6362f93160ef3e5635b838510610b57575050505083010185808061051c565b805488860183015293019284908201610b41565b91607f1691610ac6565b5050346101755781600319360112610175576020906005549051908152f35b8490346101755781600319360112610175577f00000000000000000000000000000000000000000000000000000000000000006001600160a01b03168152602090f35b6020808252825181830181905290939260005b828110610c0c57505060409293506000838284010152601f8019910116010190565b818101860151848201604001528501610bea565b600435906001600160a01b0382168203610c3657565b600080fd5b602435906001600160a01b0382168203610c3657565b91908203918211610c5e57565b634e487b7160e01b600052601160045260246000fd5b15610c7b57565b60405162461bcd60e51b815260206004820152601060248201526f6e6f7468696e6720746f20636c61696d60801b6044820152606490fd5b15610cba57565b60405162461bcd60e51b815260206004820152600c60248201526b6f6e6c7920666163746f727960a01b6044820152606490fd5b81810292918115918404141715610c5e57565b91908201809211610c5e57565b6001600160a01b03808316939192908415610f0f57831692600091848352602092600684526040918282205490868210610ed957610d4d908795610ffb565b80610ed0575b610da8575b90610d857fddf252ad1be2c89b69c2b068fc378daa952ba7f163c4a11628f55a4df523b3ef968493610c51565b878252600686528282205587815220610d9f838254610d01565b905551908152a3565b612710888882610dd87f00000000000000000000000000000000000000000000000000000000000000008b610cee565b049283610de9575b50505050610d58565b8695949397507f0000000000000000000000000000000000000000000000000000000000000000610e1a908b610cee565b0485888a848d610e2a8685610c51565b93610e3491610c51565b9b8560045490610e4391610d01565b6004558360055490610e5491610d01565b600555308a5260068352848a2081815490610e6e91610d01565b9055845190815230927fddf252ad1be2c89b69c2b068fc378daa952ba7f163c4a11628f55a4df523b3ef91a381519283528a8301527f93bd139ea85d53c55e02dec709128f827ebd5cb8a4a0d873193711b70b0a15b991a39091888838610de0565b50851515610d53565b835162461bcd60e51b815260048101879052600f60248201526e62616c616e636520746f6f206c6f7760881b6044820152606490fd5b60405162461bcd60e51b815260206004820152600c60248201526b7a65726f206164647265737360a01b6044820152606490fd5b60018060a01b038091169160009383855260066020526040852054818110610fbd577fddf252ad1be2c89b69c2b068fc378daa952ba7f163c4a11628f55a4df523b3ef93602093610f9684604094610c51565b8789526006865283892055169586815220610fb2828254610d01565b9055604051908152a3565b60405162461bcd60e51b81526020600482015260166024820152751a5b9cdd59999a58da595b9d08199959481d985d5b1d60521b6044820152606490fd5b6003546001600160a01b0390811691821561102e5781168214928315611022575b50505090565b1614905038808061101c565b5050505060009056fea26469706673582212208a8d56e206380fe30f47d374f12ca945e94e5f473668ae158a7571ae27c8689c64736f6c63430008180033a26469706673582212208ac5b7e13bd58ed2ebfa53e323fde59e4fcd601177ba44438ca3e5984a58ab1f64736f6c63430008180033",
  "linkReferences": {},
  "deployedLinkReferences": {}
}