{
  "_format": "hh-sol-artifact-1",
  "contractName": "MemeLaunchFactory",
  "sourceName": "contracts/MemeLaunchFactory.sol",
  "abi": [
    {
      "inputs": [
        {
          "internalType": "address",
          "name": "_feeRecipient",
          "type": "address"
        },
        {
          "internalType": "address",
          "name": "_platformFeeRecipient",
          "type": "address"
        },
        {
          "internalType": "uint256",
          "name": "_defaultFeeBps",
          "type": "uint256"
        },
        {
          "internalType": "uint256",
          "name": "_launchFeeWei",
          "type": "uint256"
        },
        {
          "internalType": "uint256",
          "name": "_defaultVirtualEthReserve",
          "type": "uint256"
        },
        {
          "internalType": "uint256",
          "name": "_defaultVirtualTokenReserve",
          "type": "uint256"
        },
        {
          "internalType": "uint256",
          "name": "_defaultGraduationTargetEth",
          "type": "uint256"
        },
        {
          "internalType": "address",
          "name": "_defaultDexRouter",
          "type": "address"
        },
        {
          "internalType": "address",
          "name": "_defaultLpRecipient",
          "type": "address"
        },
        {
          "internalType": "address",
          "name": "_defaultV3PositionManager",
          "type": "address"
        },
        {
          "internalType": "uint24",
          "name": "_defaultV3Fee",
          "type": "uint24"
        }
      ],
      "stateMutability": "nonpayable",
      "type": "constructor"
    },
    {
      "anonymous": false,
      "inputs": [
        {
          "indexed": false,
          "internalType": "address",
          "name": "feeRecipient",
          "type": "address"
        },
        {
          "indexed": false,
          "internalType": "address",
          "name": "platformFeeRecipient",
          "type": "address"
        },
        {
          "indexed": false,
          "internalType": "uint256",
          "name": "feeBps",
          "type": "uint256"
        },
        {
          "indexed": false,
          "internalType": "uint256",
          "name": "launchFeeWei",
          "type": "uint256"
        },
        {
          "indexed": false,
          "internalType": "uint256",
          "name": "virtualEthReserve",
          "type": "uint256"
        },
        {
          "indexed": false,
          "internalType": "uint256",
          "name": "virtualTokenReserve",
          "type": "uint256"
        },
        {
          "indexed": false,
          "internalType": "uint256",
          "name": "graduationTargetEth",
          "type": "uint256"
        },
        {
          "indexed": false,
          "internalType": "address",
          "name": "dexRouter",
          "type": "address"
        },
        {
          "indexed": false,
          "internalType": "address",
          "name": "lpRecipient",
          "type": "address"
        },
        {
          "indexed": false,
          "internalType": "address",
          "name": "v3PositionManager",
          "type": "address"
        },
        {
          "indexed": false,
          "internalType": "uint24",
          "name": "v3Fee",
          "type": "uint24"
        }
      ],
      "name": "DefaultsUpdated",
      "type": "event"
    },
    {
      "anonymous": false,
      "inputs": [
        {
          "indexed": true,
          "internalType": "address",
          "name": "creator",
          "type": "address"
        },
        {
          "indexed": false,
          "internalType": "uint256",
          "name": "ethLiquidity",
          "type": "uint256"
        }
      ],
      "name": "InstantLaunchRequested",
      "type": "event"
    },
    {
      "anonymous": false,
      "inputs": [
        {
          "indexed": true,
          "internalType": "uint256",
          "name": "launchId",
          "type": "uint256"
        },
        {
          "indexed": true,
          "internalType": "address",
          "name": "creator",
          "type": "address"
        },
        {
          "indexed": true,
          "internalType": "address",
          "name": "token",
          "type": "address"
        },
        {
          "indexed": false,
          "internalType": "address",
          "name": "pool",
          "type": "address"
        },
        {
          "indexed": false,
          "internalType": "uint256",
          "name": "totalSupply",
          "type": "uint256"
        },
        {
          "indexed": false,
          "internalType": "uint256",
          "name": "creatorAllocation",
          "type": "uint256"
        },
        {
          "indexed": false,
          "internalType": "uint256",
          "name": "feeBps",
          "type": "uint256"
        },
        {
          "indexed": false,
          "internalType": "uint256",
          "name": "graduationTargetEth",
          "type": "uint256"
        },
        {
          "indexed": false,
          "internalType": "address",
          "name": "dexRouter",
          "type": "address"
        },
        {
          "indexed": false,
          "internalType": "address",
          "name": "lpRecipient",
          "type": "address"
        },
        {
          "indexed": false,
          "internalType": "address",
          "name": "v3PositionManager",
          "type": "address"
        },
        {
          "indexed": false,
          "internalType": "uint24",
          "name": "v3Fee",
          "type": "uint24"
        }
      ],
      "name": "LaunchCreated",
      "type": "event"
    },
    {
      "anonymous": false,
      "inputs": [
        {
          "indexed": true,
          "internalType": "address",
          "name": "payer",
          "type": "address"
        },
        {
          "indexed": true,
          "internalType": "address",
          "name": "recipient",
          "type": "address"
        },
        {
          "indexed": false,
          "internalType": "uint256",
          "name": "amountWei",
          "type": "uint256"
        }
      ],
      "name": "LaunchFeePaid",
      "type": "event"
    },
    {
      "anonymous": false,
      "inputs": [
        {
          "indexed": true,
          "internalType": "address",
          "name": "creator",
          "type": "address"
        },
        {
          "indexed": false,
          "internalType": "uint256",
          "name": "ethLiquidity",
          "type": "uint256"
        }
      ],
      "name": "LiveDexCurveRequested",
      "type": "event"
    },
    {
      "anonymous": false,
      "inputs": [
        {
          "indexed": true,
          "internalType": "address",
          "name": "previousOwner",
          "type": "address"
        },
        {
          "indexed": true,
          "internalType": "address",
          "name": "newOwner",
          "type": "address"
        }
      ],
      "name": "OwnershipTransferred",
      "type": "event"
    },
    {
      "anonymous": false,
      "inputs": [
        {
          "indexed": true,
          "internalType": "uint256",
          "name": "launchId",
          "type": "uint256"
        },
        {
          "indexed": true,
          "internalType": "address",
          "name": "token",
          "type": "address"
        },
        {
          "indexed": false,
          "internalType": "uint256",
          "name": "tradeFeeBps",
          "type": "uint256"
        },
        {
          "indexed": false,
          "internalType": "uint256",
          "name": "creatorFeeBps",
          "type": "uint256"
        },
        {
          "indexed": false,
          "internalType": "uint256",
          "name": "platformFeeBps",
          "type": "uint256"
        }
      ],
      "name": "TokenTaxConfigured",
      "type": "event"
    },
    {
      "inputs": [],
      "name": "BPS_DENOMINATOR",
      "outputs": [
        {
          "internalType": "uint256",
          "name": "",
          "type": "uint256"
        }
      ],
      "stateMutability": "view",
      "type": "function"
    },
    {
      "inputs": [],
      "name": "BURN_ADDRESS",
      "outputs": [
        {
          "internalType": "address",
          "name": "",
          "type": "address"
        }
      ],
      "stateMutability": "view",
      "type": "function"
    },
    {
      "inputs": [],
      "name": "DEFAULT_TOKEN_TRADE_FEE_BPS",
      "outputs": [
        {
          "internalType": "uint256",
          "name": "",
          "type": "uint256"
        }
      ],
      "stateMutability": "view",
      "type": "function"
    },
    {
      "inputs": [],
      "name": "FIXED_TOTAL_SUPPLY",
      "outputs": [
        {
          "internalType": "uint256",
          "name": "",
          "type": "uint256"
        }
      ],
      "stateMutability": "view",
      "type": "function"
    },
    {
      "inputs": [],
      "name": "MAX_TOKEN_TRADE_FEE_BPS",
      "outputs": [
        {
          "internalType": "uint256",
          "name": "",
          "type": "uint256"
        }
      ],
      "stateMutability": "view",
      "type": "function"
    },
    {
      "inputs": [],
      "name": "ROBINHOOD_CHAIN_ID",
      "outputs": [
        {
          "internalType": "uint256",
          "name": "",
          "type": "uint256"
        }
      ],
      "stateMutability": "view",
      "type": "function"
    },
    {
      "inputs": [
        {
          "internalType": "string",
          "name": "name",
          "type": "string"
        },
        {
          "internalType": "string",
          "name": "symbol",
          "type": "string"
        },
        {
          "internalType": "string",
          "name": "imageURI",
          "type": "string"
        },
        {
          "internalType": "string",
          "name": "description",
          "type": "string"
        },
        {
          "internalType": "uint256",
          "name": "totalSupply",
          "type": "uint256"
        },
        {
          "internalType": "uint256",
          "name": "creatorAllocationBps",
          "type": "uint256"
        }
      ],
      "name": "createLaunch",
      "outputs": [
        {
          "internalType": "uint256",
          "name": "launchId",
          "type": "uint256"
        },
        {
          "internalType": "address",
          "name": "tokenAddress",
          "type": "address"
        },
        {
          "internalType": "address",
          "name": "poolAddress",
          "type": "address"
        }
      ],
      "stateMutability": "payable",
      "type": "function"
    },
    {
      "inputs": [
        {
          "internalType": "string",
          "name": "name",
          "type": "string"
        },
        {
          "internalType": "string",
          "name": "symbol",
          "type": "string"
        },
        {
          "internalType": "string",
          "name": "imageURI",
          "type": "string"
        },
        {
          "internalType": "string",
          "name": "description",
          "type": "string"
        },
        {
          "internalType": "uint256",
          "name": "totalSupply",
          "type": "uint256"
        },
        {
          "internalType": "uint256",
          "name": "creatorAllocationBps",
          "type": "uint256"
        }
      ],
      "name": "createLaunchInstant",
      "outputs": [
        {
          "internalType": "uint256",
          "name": "launchId",
          "type": "uint256"
        },
        {
          "internalType": "address",
          "name": "tokenAddress",
          "type": "address"
        },
        {
          "internalType": "address",
          "name": "poolAddress",
          "type": "address"
        }
      ],
      "stateMutability": "payable",
      "type": "function"
    },
    {
      "inputs": [
        {
          "internalType": "string",
          "name": "name",
          "type": "string"
        },
        {
          "internalType": "string",
          "name": "symbol",
          "type": "string"
        },
        {
          "internalType": "string",
          "name": "imageURI",
          "type": "string"
        },
        {
          "internalType": "string",
          "name": "description",
          "type": "string"
        },
        {
          "internalType": "uint256",
          "name": "totalSupply",
          "type": "uint256"
        },
        {
          "internalType": "uint256",
          "name": "creatorAllocationBps",
          "type": "uint256"
        },
        {
          "internalType": "uint256",
          "name": "tokenTradeFeeBps",
          "type": "uint256"
        }
      ],
      "name": "createLaunchInstantWithTax",
      "outputs": [
        {
          "internalType": "uint256",
          "name": "launchId",
          "type": "uint256"
        },
        {
          "internalType": "address",
          "name": "tokenAddress",
          "type": "address"
        },
        {
          "internalType": "address",
          "name": "poolAddress",
          "type": "address"
        }
      ],
      "stateMutability": "payable",
      "type": "function"
    },
    {
      "inputs": [
        {
          "internalType": "string",
          "name": "name",
          "type": "string"
        },
        {
          "internalType": "string",
          "name": "symbol",
          "type": "string"
        },
        {
          "internalType": "string",
          "name": "imageURI",
          "type": "string"
        },
        {
          "internalType": "string",
          "name": "description",
          "type": "string"
        },
        {
          "internalType": "uint256",
          "name": "totalSupply",
          "type": "uint256"
        },
        {
          "internalType": "uint256",
          "name": "creatorAllocationBps",
          "type": "uint256"
        }
      ],
      "name": "createLaunchLiveDexCurve",
      "outputs": [
        {
          "internalType": "uint256",
          "name": "launchId",
          "type": "uint256"
        },
        {
          "internalType": "address",
          "name": "tokenAddress",
          "type": "address"
        },
        {
          "internalType": "address",
          "name": "poolAddress",
          "type": "address"
        }
      ],
      "stateMutability": "payable",
      "type": "function"
    },
    {
      "inputs": [
        {
          "internalType": "string",
          "name": "name",
          "type": "string"
        },
        {
          "internalType": "string",
          "name": "symbol",
          "type": "string"
        },
        {
          "internalType": "string",
          "name": "imageURI",
          "type": "string"
        },
        {
          "internalType": "string",
          "name": "description",
          "type": "string"
        },
        {
          "internalType": "uint256",
          "name": "totalSupply",
          "type": "uint256"
        },
        {
          "internalType": "uint256",
          "name": "creatorAllocationBps",
          "type": "uint256"
        },
        {
          "internalType": "uint256",
          "name": "tokenTradeFeeBps",
          "type": "uint256"
        }
      ],
      "name": "createLaunchLiveDexCurveWithTax",
      "outputs": [
        {
          "internalType": "uint256",
          "name": "launchId",
          "type": "uint256"
        },
        {
          "internalType": "address",
          "name": "tokenAddress",
          "type": "address"
        },
        {
          "internalType": "address",
          "name": "poolAddress",
          "type": "address"
        }
      ],
      "stateMutability": "payable",
      "type": "function"
    },
    {
      "inputs": [
        {
          "internalType": "string",
          "name": "name",
          "type": "string"
        },
        {
          "internalType": "string",
          "name": "symbol",
          "type": "string"
        },
        {
          "internalType": "string",
          "name": "imageURI",
          "type": "string"
        },
        {
          "internalType": "string",
          "name": "description",
          "type": "string"
        },
        {
          "internalType": "uint256",
          "name": "totalSupply",
          "type": "uint256"
        },
        {
          "internalType": "uint256",
          "name": "creatorAllocationBps",
          "type": "uint256"
        },
        {
          "internalType": "uint256",
          "name": "tokenTradeFeeBps",
          "type": "uint256"
        }
      ],
      "name": "createLaunchWithTax",
      "outputs": [
        {
          "internalType": "uint256",
          "name": "launchId",
          "type": "uint256"
        },
        {
          "internalType": "address",
          "name": "tokenAddress",
          "type": "address"
        },
        {
          "internalType": "address",
          "name": "poolAddress",
          "type": "address"
        }
      ],
      "stateMutability": "payable",
      "type": "function"
    },
    {
      "inputs": [],
      "name": "defaultDexRouter",
      "outputs": [
        {
          "internalType": "address",
          "name": "",
          "type": "address"
        }
      ],
      "stateMutability": "view",
      "type": "function"
    },
    {
      "inputs": [],
      "name": "defaultFeeBps",
      "outputs": [
        {
          "internalType": "uint256",
          "name": "",
          "type": "uint256"
        }
      ],
      "stateMutability": "view",
      "type": "function"
    },
    {
      "inputs": [],
      "name": "defaultGraduationTargetEth",
      "outputs": [
        {
          "internalType": "uint256",
          "name": "",
          "type": "uint256"
        }
      ],
      "stateMutability": "view",
      "type": "function"
    },
    {
      "inputs": [],
      "name": "defaultLpRecipient",
      "outputs": [
        {
          "internalType": "address",
          "name": "",
          "type": "address"
        }
      ],
      "stateMutability": "view",
      "type": "function"
    },
    {
      "inputs": [],
      "name": "defaultV3Fee",
      "outputs": [
        {
          "internalType": "uint24",
          "name": "",
          "type": "uint24"
        }
      ],
      "stateMutability": "view",
      "type": "function"
    },
    {
      "inputs": [],
      "name": "defaultV3PositionManager",
      "outputs": [
        {
          "internalType": "address",
          "name": "",
          "type": "address"
        }
      ],
      "stateMutability": "view",
      "type": "function"
    },
    {
      "inputs": [],
      "name": "defaultVirtualEthReserve",
      "outputs": [
        {
          "internalType": "uint256",
          "name": "",
          "type": "uint256"
        }
      ],
      "stateMutability": "view",
      "type": "function"
    },
    {
      "inputs": [],
      "name": "defaultVirtualTokenReserve",
      "outputs": [
        {
          "internalType": "uint256",
          "name": "",
          "type": "uint256"
        }
      ],
      "stateMutability": "view",
      "type": "function"
    },
    {
      "inputs": [],
      "name": "feeRecipient",
      "outputs": [
        {
          "internalType": "address",
          "name": "",
          "type": "address"
        }
      ],
      "stateMutability": "view",
      "type": "function"
    },
    {
      "inputs": [
        {
          "internalType": "uint256",
          "name": "launchId",
          "type": "uint256"
        }
      ],
      "name": "getLaunch",
      "outputs": [
        {
          "components": [
            {
              "internalType": "address",
              "name": "token",
              "type": "address"
            },
            {
              "internalType": "address",
              "name": "pool",
              "type": "address"
            },
            {
              "internalType": "address",
              "name": "creator",
              "type": "address"
            },
            {
              "internalType": "string",
              "name": "name",
              "type": "string"
            },
            {
              "internalType": "string",
              "name": "symbol",
              "type": "string"
            },
            {
              "internalType": "string",
              "name": "imageURI",
              "type": "string"
            },
            {
              "internalType": "string",
              "name": "description",
              "type": "string"
            },
            {
              "internalType": "uint256",
              "name": "totalSupply",
              "type": "uint256"
            },
            {
              "internalType": "uint256",
              "name": "creatorAllocation",
              "type": "uint256"
            },
            {
              "internalType": "uint256",
              "name": "createdAt",
              "type": "uint256"
            }
          ],
          "internalType": "struct MemeLaunchFactory.LaunchInfo",
          "name": "",
          "type": "tuple"
        }
      ],
      "stateMutability": "view",
      "type": "function"
    },
    {
      "inputs": [],
      "name": "getLaunchCount",
      "outputs": [
        {
          "internalType": "uint256",
          "name": "",
          "type": "uint256"
        }
      ],
      "stateMutability": "view",
      "type": "function"
    },
    {
      "inputs": [
        {
          "internalType": "uint256",
          "name": "offset",
          "type": "uint256"
        },
        {
          "internalType": "uint256",
          "name": "limit",
          "type": "uint256"
        }
      ],
      "name": "getLaunches",
      "outputs": [
        {
          "components": [
            {
              "internalType": "address",
              "name": "token",
              "type": "address"
            },
            {
              "internalType": "address",
              "name": "pool",
              "type": "address"
            },
            {
              "internalType": "address",
              "name": "creator",
              "type": "address"
            },
            {
              "internalType": "string",
              "name": "name",
              "type": "string"
            },
            {
              "internalType": "string",
              "name": "symbol",
              "type": "string"
            },
            {
              "internalType": "string",
              "name": "imageURI",
              "type": "string"
            },
            {
              "internalType": "string",
              "name": "description",
              "type": "string"
            },
            {
              "internalType": "uint256",
              "name": "totalSupply",
              "type": "uint256"
            },
            {
              "internalType": "uint256",
              "name": "creatorAllocation",
              "type": "uint256"
            },
            {
              "internalType": "uint256",
              "name": "createdAt",
              "type": "uint256"
            }
          ],
          "internalType": "struct MemeLaunchFactory.LaunchInfo[]",
          "name": "data",
          "type": "tuple[]"
        }
      ],
      "stateMutability": "view",
      "type": "function"
    },
    {
      "inputs": [],
      "name": "launchFeeWei",
      "outputs": [
        {
          "internalType": "uint256",
          "name": "",
          "type": "uint256"
        }
      ],
      "stateMutability": "view",
      "type": "function"
    },
    {
      "inputs": [],
      "name": "owner",
      "outputs": [
        {
          "internalType": "address",
          "name": "",
          "type": "address"
        }
      ],
      "stateMutability": "view",
      "type": "function"
    },
    {
      "inputs": [],
      "name": "platformFeeRecipient",
      "outputs": [
        {
          "internalType": "address",
          "name": "",
          "type": "address"
        }
      ],
      "stateMutability": "view",
      "type": "function"
    },
    {
      "inputs": [
        {
          "internalType": "address",
          "name": "token",
          "type": "address"
        }
      ],
      "name": "poolByToken",
      "outputs": [
        {
          "internalType": "address",
          "name": "pool",
          "type": "address"
        }
      ],
      "stateMutability": "view",
      "type": "function"
    },
    {
      "inputs": [
        {
          "internalType": "address",
          "name": "newFeeRecipient",
          "type": "address"
        },
        {
          "internalType": "address",
          "name": "newPlatformFeeRecipient",
          "type": "address"
        },
        {
          "internalType": "uint256",
          "name": "newFeeBps",
          "type": "uint256"
        },
        {
          "internalType": "uint256",
          "name": "newLaunchFeeWei",
          "type": "uint256"
        },
        {
          "internalType": "uint256",
          "name": "newVirtualEthReserve",
          "type": "uint256"
        },
        {
          "internalType": "uint256",
          "name": "newVirtualTokenReserve",
          "type": "uint256"
        },
        {
          "internalType": "uint256",
          "name": "newGraduationTargetEth",
          "type": "uint256"
        },
        {
          "internalType": "address",
          "name": "newDexRouter",
          "type": "address"
        },
        {
          "internalType": "address",
          "name": "newLpRecipient",
          "type": "address"
        },
        {
          "internalType": "address",
          "name": "newV3PositionManager",
          "type": "address"
        },
        {
          "internalType": "uint24",
          "name": "newV3Fee",
          "type": "uint24"
        }
      ],
      "name": "setDefaults",
      "outputs": [],
      "stateMutability": "nonpayable",
      "type": "function"
    },
    {
      "inputs": [
        {
          "internalType": "address",
          "name": "newOwner",
          "type": "address"
        }
      ],
      "name": "transferOwnership",
      "outputs": [],
      "stateMutability": "nonpayable",
      "type": "function"
    }
  ],
  "bytecode": "0x6080346200038457601f6200b8d538819003918201601f191683019291906001600160401b038411838510176200038957816101609284926040968752833981010312620003845762000052816200039f565b602090620000628284016200039f565b8484015190606085015160808601519460a087015160c0880151906200008b60e08a016200039f565b976200009b6101008b016200039f565b94610140620000ae6101208d016200039f565b9b01519762ffffff89169a8b8a0362000384576001600160a01b039a8b169889156200033f5761012c83116200030b578b16908115620002c6578415620002815785156200023c5786156200020557908b809998979695949392169687620001a1575b5060018060a01b031999338b60005416176000558a600154161760015589600254161760025560035560045560055560065560075583600854161760085516906009541617600955600a5492156000146200019b57506127105b62ffffff60a01b60a09190911b1692166001600160b81b0319919091161717600a555161b5209081620003b58239f35b6200016b565b909192939495969798891615620001c257908b989796959493929162000111565b6064908f519062461bcd60e51b82526004820152601560248201527f6c7020726563697069656e7420726571756972656400000000000000000000006044820152fd5b508d5162461bcd60e51b815260048101889052600f60248201526e1d185c99d95d081c995c5d5a5c9959608a1b6044820152606490fd5b508d5162461bcd60e51b815260048101889052601660248201527f7669727475616c20746f6b656e207265717569726564000000000000000000006044820152606490fd5b508d5162461bcd60e51b815260048101889052601460248201527f7669727475616c206574682072657175697265640000000000000000000000006044820152606490fd5b508d5162461bcd60e51b815260048101889052601b60248201527f706c6174666f726d20726563697069656e7420726571756972656400000000006044820152606490fd5b508d5162461bcd60e51b815260048101889052600c60248201526b0cccaca40e8dede40d0d2ced60a31b6044820152606490fd5b508d5162461bcd60e51b815260048101889052601660248201527f66656520726563697069656e74207265717569726564000000000000000000006044820152606490fd5b600080fd5b634e487b7160e01b600052604160045260246000fd5b51906001600160a01b0382168203620003845756fe6103008060405260043610156200001557600080fd5b60006101a0526101a0513560e01c9081630261ef921462005e55575080630b0420bb1462005e125780631036338c146200526c57806313ed4aa6146200523f578063150004eb14620052155780631c8c0d9214620051f357806339cbfa1f14620051d25780633c0f4305146200462f5780634690484014620046025780634a9ddfdd14620045e25780635930d3ce146200454e5780635de3bafb146200359257806363f0eb04146200357057806380fa02f7146200354f57806383eeb3bb146200352d5780638da5cb5b14620034fe57806393a8e04d14620034dc57806396875aa014620027315780639b3b9f9814620026a45780639ff0251f1462002682578063b3602acd1462002658578063bcae25a41462002636578063d578192c1462002609578063e1a4521814620025e8578063eb13554f14620025bb578063eb48799914620021c4578063f018189214620013ea578063f2fde38b1462001323578063fccc281314620013025763fd04bbac146200019157600080fd5b6200019c3662005f59565b60e05260c0525060805260045495969395909290620001ca90620001c334821115620063bc565b3462006409565b958615958680620012ec575b8715620012b1575b50620001e962006679565b6040518881527fb610ea5b60c2e916119ad74eb6f1c4e02b296189e982f615f38630738be9786560203392a288156200127c57811562001245576107d060c051116200120a576103e860e05111620011d057600254604051906001600160a01b03166001600160401b0361180883019081119083111762000ab257819061180862009c83833960e06118088301818152620002a4916200028c91018e8c62006780565b61180884018103602061180886010152868662006780565b90676765c793fa10079d601b1b604061180885010152306060611808850101523360806118088501015260a06118088401015260e05160c06118088401015203906101a051f061010052610100511562000989576002546001600160a01b03163314976200031289620067dc565b60a052600154600354600554600654600754600854600a54604051966001600160a01b0390811696919592169391906001600160401b0361346489019081119089111762000ab25762ffffff966134646200681f8a3961010080516001600160a01b039081166134648c0190815230602082015260408101939093526060830193909352608082019390935260a08181019490945260c081019490945260e0840194909452815184169083015291831661012082015291901c919091166101408201528190036101600191f0978815620009895760c051676765c793fa10079d601b1b0297676765c793fa10079d601b1b890460c05103620011b657676765c793fa10079d601b1b6127108a04810311620011b65760405163a9059cbb60e01b81526001600160a01b038b811660048301526127108b04676765c793fa10079d601b1b0360248301526101a0516101005160209284926044928492165af190811562000989576101a0519162001192575b50156200115657612710890462001099575b6001600160a01b038a163b1562000ddb57604051639556483760e01b81526127108a04676765c793fa10079d601b1b0360048201528a816024816101a051936101a0519060018060a01b03165af1801562000989576200107e575b508062000eb057506001600160a01b0389163b1562000ddb57604051631c7031d760e31b81526101a05181600481836001600160a01b038f165af18015620009895762000e95575b506040516306b456ef60e21b81526020816004816001600160a01b038e165afa90811562000989576101a0519162000e5f575b506001600160a01b03811662000dee575b5080159062000de2575b62000d6f575b610100516101a080516001600160a01b039283169052600c602052516040902080546001600160a01b031916918a16919091179055600b5498600160401b8a101562000ab25760018a01600b55620005e48a620061da565b5050620005f18a620061da565b506101005181546001600160a01b03199081166001600160a01b039283161783556001830180548216928d169290921790915560028201805490911633179055966001600160401b03821162000ab25781906200065260038a01546200622c565b601f811162000d11575b506101a05190601f831160011462000c9a576101a0519262000c8e575b50508160011b916000199060031b1c19161760038701555b6001600160401b03821162000ab2578190620006b160048801546200622c565b601f811162000c30575b506101a05190601f831160011462000bb9576101a0519262000bad575b50508160011b916000199060031b1c19161760048501555b6001600160401b03821162000ab25781906200071060058601546200622c565b601f811162000b4f575b506101a05190601f831160011462000ad8576101a0519262000acc575b50508160011b916000199060031b1c19161760058301555b6001600160401b036080511162000ab2576200076f60068301546200622c565b601f811162000a5c575b506101a051601f60805111600114620009db576101a05191608051620009cf575b505060805160011b9060001960805160031b1c19161760068201555b676765c793fa10079d601b1b60078201556127108204600882015560094291015562ffffff60035460075460018060a01b036008541690600a54926127106040519660018060a01b0389168852676765c793fa10079d601b1b60208901520460408701526060860152608085015260a084015260018060a01b0360a0511660c084015260018060a01b03811660e084015260a01c1661010082015260018060a01b03610100511690836000805160206200b4ab8339815191526101203393a46040516317773ebb60e01b815261010051602090829060049082906001600160a01b03165afa90811562000989576101a0519162000997575b5060405163116e689f60e11b815261010051602090829060049082906001600160a01b03165afa90811562000989576101a051916200094c575b506040519160e051835260208301526040820152826000805160206200b4cb833981519152606060018060a01b03610100511693a360408051610100519381526001600160a01b0393841660208201529190921691810191909152606090f35b0390f35b90506020813d60201162000980575b816200096a6020938362006167565b810103126200097b575138620008e8565b600080fd5b3d91506200095b565b6040513d6101a051823e3d90fd5b90506020813d602011620009c6575b81620009b56020938362006167565b810103126200097b575138620008ae565b3d9150620009a6565b0135905038806200079a565b90600683016101a0515260206101a05120916101a0515b608051601f1916811062000a435750608051601f1981161062000a26575b5050506001608051811b016006820155620007b6565b60001960f860805160031b161c1991013516905538808062000a10565b90926020600181928686013581550194019101620009f2565b600683016101a0515260206101a05120601f6080510160051c810160206080511062000aaa575b601f830160051c8201811062000a9b57505062000779565b6101a051815560010162000a83565b508062000a83565b634e487b7160e01b6101a05152604160045260246101a051fd5b01359050388062000737565b6101a080516005880190525160208120909450915b601f198416851062000b36576001945083601f1981161062000b1b575b505050811b0160058301556200074f565b0135600019600384901b60f8161c1916905538808062000b0a565b8181013583556020948501946001909301920162000aed565b909150600585016101a0515260206101a05120601f840160051c81016020851062000ba5575b90849392915b601f830160051c8201811062000b935750506200071a565b6101a051815585945060010162000b7b565b508062000b75565b013590503880620006d8565b6101a0805160048a0190525160208120909450915b601f198416851062000c17576001945083601f1981161062000bfc575b505050811b016004850155620006f0565b0135600019600384901b60f8161c1916905538808062000beb565b8181013583556020948501946001909301920162000bce565b909150600487016101a0515260206101a05120601f840160051c81016020851062000c86575b90849392915b601f830160051c8201811062000c74575050620006bb565b6101a051815585945060010162000c5c565b508062000c56565b01359050388062000679565b6101a0805160038c0190525160208120909450915b601f198416851062000cf8576001945083601f1981161062000cdd575b505050811b01600387015562000691565b0135600019600384901b60f8161c1916905538808062000ccc565b8181013583556020948501946001909301920162000caf565b909150600389016101a0515260206101a05120601f840160051c81016020851062000d67575b90849392915b601f830160051c8201811062000d555750506200065c565b6101a051815585945060010162000d3d565b508062000d37565b610100516001600160a01b03163b1562000ddb57604051636e258e0760e11b81526101a051610100518290600490829084906001600160a01b03165af18015620009895762000dc0575b506200058c565b62000dcb9062006120565b6101a05162000ddb573862000db9565b6101a05180fd5b50611237461462000586565b610100516001600160a01b03163b1562000ddb576040516315c6deb960e31b81526001600160a01b0391821660048201526101a0516101005191929091839160249183918591165af180156200098957156200057c5762000e4f9062006120565b6101a05162000ddb57386200057c565b62000e86915060203d60201162000e8d575b62000e7d818362006167565b810190620067bb565b386200056b565b503d62000e71565b62000ea09062006120565b6101a05162000ddb573862000538565b62000ebc57506200058c565b6001600160a01b0389163b1562000ddb5760405162e2c3fd60e11b81526101a05181600481836001600160a01b038f165af18015620009895762001063575b506040516306b456ef60e21b81526020816004816001600160a01b038e165afa90811562000989576101a051916200103f575b506001600160a01b03811662000fce575b5080159062000fc2575b62000f56575b3862000db9565b610100516001600160a01b03163b1562000ddb57604051636e258e0760e11b81526101a051610100518290600490829084906001600160a01b03165af18015620009895762000fa7575b5062000f4f565b62000fb29062006120565b6101a05162000ddb573862000fa0565b50611237461462000f49565b610100516001600160a01b03163b1562000ddb576040516315c6deb960e31b81526001600160a01b0391821660048201526101a0516101005191929091839160249183918591165af1801562000989571562000f3f576200102f9062006120565b6101a05162000ddb573862000f3f565b6200105c915060203d60201162000e8d5762000e7d818362006167565b3862000f2e565b6200106e9062006120565b6101a05162000ddb573862000efb565b620010899062006120565b6101a05162000ddb5738620004f0565b60405163a9059cbb60e01b81523360048201526127108a0460248201526101a05161010051602091839160449183916001600160a01b03165af190811562000989576101a0519162001120575b50620004955760405162461bcd60e51b815260206004820152601760248201526000805160206200b48b8339815191526044820152606490fd5b62001147915060203d6020116200114e575b6200113e818362006167565b810190620067a1565b38620010e6565b503d62001132565b60405162461bcd60e51b81526020600482015260146024820152731c1bdbdb081d1c985b9cd9995c8819985a5b195960621b6044820152606490fd5b620011af915060203d6020116200114e576200113e818362006167565b3862000483565b634e487b7160e01b6101a05152601160045260246101a051fd5b60405162461bcd60e51b81526020600482015260126024820152710e8e4c2c8ca40cccaca40e8dede40d0d2ced60731b6044820152606490fd5b60405162461bcd60e51b81526020600482015260136024820152720c2d8d8dec6c2e8d2dedc40e8dede40d0d2ced606b1b6044820152606490fd5b60405162461bcd60e51b815260206004820152600f60248201526e1cde5b589bdb081c995c5d5a5c9959608a1b6044820152606490fd5b60405162461bcd60e51b815260206004820152600d60248201526c1b985b59481c995c5d5a5c9959609a1b6044820152606490fd5b620012e590620012de60018060a01b03620012d2816008541615156200642d565b6009541615156200646f565b15620064b3565b38620001de565b600a546001600160a01b031615159750620001d6565b3462000ddb576101a05136600319011262000ddb57602060405161dead8152f35b3462000ddb57602036600319011262000ddb576200134062005e7d565b6101a051546001600160a01b03808216926200135e3385146200663f565b16918215620013b45782907f8be0079c531659141344cd1fd0a4f28419497f9722a3daafe3b4186f6b6457e06101a0516101a051a36bffffffffffffffffffffffff60a01b16176101a051556101a0516101a051f35b60405162461bcd60e51b815260206004820152600e60248201526d1bdddb995c881c995c5d5a5c995960921b6044820152606490fd5b620013f53662005f59565b6101605261014052506008549697959694959490939192919062001424906001600160a01b031615156200642d565b6009546200143d906001600160a01b031615156200646f565b62001451600454620001c3813411620064b3565b956200145c62006679565b6040518781527fac9d85dc25663b5cc567afaed6bb7823377f8f9f4164bc741a6ed341c04a8ec760203392a288156200127c57801562001245576107d061014051116200120a576103e86101605111620011d057600254604051906001600160a01b03166001600160401b0361180883019081119083111762000ab257819061180862009c83833960e0611808830181815262001519916200150191018e8c62006780565b61180884018103602061180886010152858d62006780565b90676765c793fa10079d601b1b604061180885010152306060611808850101523360806118088501015260a0611808840101526101605160c06118088401015203906101a051f061018052610180511562000989576002546001600160a01b03163314966200158888620067dc565b61012052600154600354600554600654600754600854600a54604051966001600160a01b0390811696919592169391906001600160401b0361346489019081119089111762000ab25762ffffff966134646200681f8a39610180516001600160a01b039081166134648b0190815230602082015260408101929092526060820192909252608081019290925260a08281019390935260c082019390935260e081019390935261012080518316610100850152918416918301919091529190911c919091166101408201528190036101600191f0978815620009895761014051676765c793fa10079d601b1b0297676765c793fa10079d601b1b89046101405103620011b657676765c793fa10079d601b1b6127108a04810311620011b65760405163a9059cbb60e01b81526001600160a01b038b811660048301526127108b04676765c793fa10079d601b1b0360248301526101a0516101805160209284926044928492165af190811562000989576101a05191620021a0575b501562001156576127108904620020f5575b6001600160a01b038a163b1562000ddb57604051639556483760e01b81526127108a04676765c793fa10079d601b1b0360048201528a816024816101a051936101a0519060018060a01b03165af180156200098957620020da575b506001600160a01b038a163b1562000ddb576040516309485dc960e21b81528a816004816101a051936101a0519060018060a01b03165af180156200098957620020bf575b506040516306b456ef60e21b81526020816004816001600160a01b038f165afa90811562000989576101a051916200209b575b506001600160a01b0381166200202a575b508015906200201e575b62001fb2575b610180516101a080516001600160a01b039283169052600c602052516040902080546001600160a01b031916918b16919091179055600b5499600160401b8b101562000ab25760018b01600b55620018608b620061da565b50506200186d8b620061da565b506101805181546001600160a01b03199081166001600160a01b039283161783556001830180548216928e169290921790915560028201805490911633179055976001600160401b03821162000ab2578190620018ce60038b01546200622c565b601f811162001f54575b506101a05190601f831160011462001edd576101a0519262001ed1575b50508160011b916000199060031b1c19161760038801555b6001600160401b03821162000ab25781906200192d60048901546200622c565b601f811162001e73575b506101a05190601f831160011462001dfc576101a0519262001df0575b50508160011b916000199060031b1c19161760048601555b6001600160401b03821162000ab25781906200198c60058701546200622c565b601f811162001d92575b506101a05190601f831160011462001d1b576101a0519262001d0f575b50508160011b916000199060031b1c19161760058401555b6001600160401b03821162000ab2578190620019eb60068501546200622c565b601f811162001cb1575b506101a05190601f831160011462001c3a576101a0519262001c2e575b50508160011b916000199060031b1c19161760068201555b676765c793fa10079d601b1b60078201556127108204600882015560094291015562ffffff60035460075460018060a01b036008541690600a54926127106040519660018060a01b0389168852676765c793fa10079d601b1b60208901520460408701526060860152608085015260a084015260018060a01b03610120511660c084015260018060a01b03811660e084015260a01c1661010082015260018060a01b03610180511690836000805160206200b4ab8339815191526101203393a46040516317773ebb60e01b815261018051602090829060049082906001600160a01b03165afa90811562000989576101a0519162001bf6575b5060405163116e689f60e11b815261018051602090829060049082906001600160a01b03165afa90811562000989576101a0519162001bbe575b506040519161016051835260208301526040820152826000805160206200b4cb833981519152606060018060a01b03610180511693a360408051610180519381526001600160a01b0393841660208201529190921691810191909152606090f35b90506020813d60201162001bed575b8162001bdc6020938362006167565b810103126200097b57518462001b5d565b3d915062001bcd565b90506020813d60201162001c25575b8162001c146020938362006167565b810103126200097b57518362001b23565b3d915062001c05565b01359050868062001a12565b6101a080516006870190525160208120909450915b601f198416851062001c98576001945083601f1981161062001c7d575b505050811b01600682015562001a2a565b0135600019600384901b60f8161c1916905586808062001c6c565b8181013583556020948501946001909301920162001c4f565b909150600684016101a0515260206101a05120601f840160051c81016020851062001d07575b90849392915b601f830160051c8201811062001cf5575050620019f5565b6101a051815585945060010162001cdd565b508062001cd7565b013590508880620019b3565b6101a080516005890190525160208120909450915b601f198416851062001d79576001945083601f1981161062001d5e575b505050811b016005840155620019cb565b0135600019600384901b60f8161c1916905588808062001d4d565b8181013583556020948501946001909301920162001d30565b909150600586016101a0515260206101a05120601f840160051c81016020851062001de8575b90849392915b601f830160051c8201811062001dd657505062001996565b6101a051815585945060010162001dbe565b508062001db8565b013590508a8062001954565b6101a0805160048b0190525160208120909450915b601f198416851062001e5a576001945083601f1981161062001e3f575b505050811b0160048601556200196c565b0135600019600384901b60f8161c191690558a808062001e2e565b8181013583556020948501946001909301920162001e11565b909150600488016101a0515260206101a05120601f840160051c81016020851062001ec9575b90849392915b601f830160051c8201811062001eb757505062001937565b6101a051815585945060010162001e9f565b508062001e99565b013590508c80620018f5565b6101a0805160038d0190525160208120909450915b601f198416851062001f3b576001945083601f1981161062001f20575b505050811b0160038801556200190d565b0135600019600384901b60f8161c191690558c808062001f0f565b8181013583556020948501946001909301920162001ef2565b90915060038a016101a0515260206101a05120601f840160051c81016020851062001faa575b90849392915b601f830160051c8201811062001f98575050620018d8565b6101a051815585945060010162001f80565b508062001f7a565b610180516001600160a01b03163b1562000ddb57604051636e258e0760e11b81526101a051610180518290600490829084906001600160a01b03165af18015620009895762002003575b5062001808565b6200200e9062006120565b6101a05162000ddb578a62001ffc565b50611237461462001802565b610180516001600160a01b03163b1562000ddb576040516315c6deb960e31b81526001600160a01b0391821660048201526101a0516101805191929091839160249183918591165af18015620009895715620017f8576200208b9062006120565b6101a05162000ddb578b620017f8565b620020b8915060203d60201162000e8d5762000e7d818362006167565b8c620017e7565b620020ca9062006120565b6101a05162000ddb578b620017b4565b620020e59062006120565b6101a05162000ddb578b6200176f565b60405163a9059cbb60e01b81523360048201526127108a0460248201526101a05161018051602091839160449183916001600160a01b03165af190811562000989576101a051916200217c575b50620017145760405162461bcd60e51b815260206004820152601760248201526000805160206200b48b8339815191526044820152606490fd5b62002199915060203d6020116200114e576200113e818362006167565b8c62002142565b620021bd915060203d6020116200114e576200113e818362006167565b8c62001702565b3462000ddb5761016036600319011262000ddb57620021e262005e7d565b602435906001600160a01b03821682036200097b5760e435916001600160a01b03831683036200097b57610104356001600160a01b03811681036200097b5761012435936001600160a01b03851685036200097b5762ffffff6101443516610144350362000ddb576200226360018060a01b036101a051541633146200663f565b6001600160a01b038416156200257d576001600160a01b03831615620025385761012c60443511620025045760843515620024c85760a435156200248a5760c4351562002453576001600160a01b038116620023fa575b600180546001600160a01b03199081166001600160a01b038088169190911790925560028054821683871617905560443560035560643560045560843560055560a43560065560c43560075560088054821683851617905560098054909116918416919091179055600a547fa2a5dc7dc1a5abd94f6ce111d7021d17b708d5bd93e6ff63894b54064eeadbdd95610160959462ffffff9490939192909190610144358616620023f0576127105b861660a090811b6001600160a01b039586166001600160b81b031993909316831717600a819055604080519987168a5296861660208a0152604435968901969096526064356060890152608435608089015260a4358882015260c43560c089015291841660e0880152919092166101008601526101208501521c16610140820152a16101a05180f35b6101443562002367565b9092916001600160a01b038416156200241657919290620022ba565b60405162461bcd60e51b81526020600482015260156024820152741b1c081c9958da5c1a595b9d081c995c5d5a5c9959605a1b6044820152606490fd5b60405162461bcd60e51b815260206004820152600f60248201526e1d185c99d95d081c995c5d5a5c9959608a1b6044820152606490fd5b60405162461bcd60e51b81526020600482015260166024820152751d9a5c9d1d585b081d1bdad95b881c995c5d5a5c995960521b6044820152606490fd5b60405162461bcd60e51b81526020600482015260146024820152731d9a5c9d1d585b08195d1a081c995c5d5a5c995960621b6044820152606490fd5b60405162461bcd60e51b815260206004820152600c60248201526b0cccaca40e8dede40d0d2ced60a31b6044820152606490fd5b60405162461bcd60e51b815260206004820152601b60248201527f706c6174666f726d20726563697069656e7420726571756972656400000000006044820152606490fd5b60405162461bcd60e51b8152602060048201526016602482015275199959481c9958da5c1a595b9d081c995c5d5a5c995960521b6044820152606490fd5b3462000ddb576101a05136600319011262000ddb576002546040516001600160a01b039091168152602090f35b3462000ddb576101a05136600319011262000ddb5760206040516127108152f35b3462000ddb576101a05136600319011262000ddb576008546040516001600160a01b039091168152602090f35b3462000ddb576101a05136600319011262000ddb576020600354604051908152f35b3462000ddb576101a05136600319011262000ddb576020604051676765c793fa10079d601b1b8152f35b3462000ddb576101a05136600319011262000ddb576020600b54604051908152f35b3462000ddb57604036600319011262000ddb57620026c760243560043562006538565b60405160209160208201926020835281518094526040830193602060408260051b8601019301916101a051955b828710620027025785850386f35b90919293828062002720600193603f198a8203018652885162006034565b9601920196019592919092620026f4565b6200273c3662005ec4565b6101e052506008549697959694959490939192919062002767906001600160a01b031615156200642d565b60095462002780906001600160a01b031615156200646f565b62002794600454620001c3813411620064b3565b956200279f62006679565b6040518781527fac9d85dc25663b5cc567afaed6bb7823377f8f9f4164bc741a6ed341c04a8ec760203392a288156200127c57801562001245576107d06101e051116200120a57600254604051906001600160a01b03166001600160401b0361180883019081119083111762000ab257819061180862009c83833960e0611808830181815262002837916200150191018e8c62006780565b90676765c793fa10079d601b1b604061180885010152306060611808850101523360806118088501015260a061180884010152603260c06118088401015203906101a051f061020052610200511562000989576002546001600160a01b0316331496620028a488620067dc565b6101c052600154600354600554600654600754600854600a54604051966001600160a01b0390811696919592169391906001600160401b0361346489019081119089111762000ab25762ffffff966134646200681f8a39610200516001600160a01b039081166134648b0190815230602082015260408101929092526060820192909252608081019290925260a08281019390935260c082019390935260e08101939093526101c05182166101008401529083166101208301529190911c919091166101408201528190036101600191f097881562000989576101e051676765c793fa10079d601b1b0297676765c793fa10079d601b1b89046101e05103620011b657676765c793fa10079d601b1b6127108a04810311620011b65760405163a9059cbb60e01b81526001600160a01b038b811660048301526127108b04676765c793fa10079d601b1b0360248301526101a0516102005160209284926044928492165af190811562000989576101a05191620034b8575b5015620011565761271089046200340d575b6001600160a01b038a163b1562000ddb57604051639556483760e01b81526127108a04676765c793fa10079d601b1b0360048201528a816024816101a051936101a0519060018060a01b03165af180156200098957620033f2575b506001600160a01b038a163b1562000ddb576040516309485dc960e21b81528a816004816101a051936101a0519060018060a01b03165af180156200098957620033d7575b506040516306b456ef60e21b81526020816004816001600160a01b038f165afa90811562000989576101a05191620033b3575b506001600160a01b03811662003342575b5080159062003336575b620032ca575b610200516101a080516001600160a01b039283169052600c602052516040902080546001600160a01b031916918b16919091179055600b5499600160401b8b101562000ab25760018b01600b5562002b7a8b620061da565b505062002b878b620061da565b506102005181546001600160a01b03199081166001600160a01b039283161783556001830180548216928e169290921790915560028201805490911633179055976001600160401b03821162000ab257819062002be860038b01546200622c565b601f81116200326c575b506101a05190601f8311600114620031f5576101a05192620031e9575b50508160011b916000199060031b1c19161760038801555b6001600160401b03821162000ab257819062002c4760048901546200622c565b601f81116200318b575b506101a05190601f831160011462003114576101a0519262003108575b50508160011b916000199060031b1c19161760048601555b6001600160401b03821162000ab257819062002ca660058701546200622c565b601f8111620030aa575b506101a05190601f831160011462003033576101a0519262003027575b50508160011b916000199060031b1c19161760058401555b6001600160401b03821162000ab257819062002d0560068501546200622c565b601f811162002fc9575b506101a05190601f831160011462002f52576101a0519262002f46575b50508160011b916000199060031b1c19161760068201555b676765c793fa10079d601b1b60078201556127108204600882015560094291015562ffffff60035460075460018060a01b036008541690600a54926127106040519660018060a01b0389168852676765c793fa10079d601b1b60208901520460408701526060860152608085015260a084015260018060a01b036101c0511660c084015260018060a01b03811660e084015260a01c1661010082015260018060a01b03610200511690836000805160206200b4ab8339815191526101203393a46040516317773ebb60e01b815261020051602090829060049082906001600160a01b03165afa90811562000989576101a0519162002f0e575b5060405163116e689f60e11b815261020051602090829060049082906001600160a01b03165afa90811562000989576101a0519162002ed6575b50604051916032835260208301526040820152826000805160206200b4cb833981519152606060018060a01b03610200511693a360408051610200519381526001600160a01b0393841660208201529190921691810191909152606090f35b90506020813d60201162002f05575b8162002ef46020938362006167565b810103126200097b57518462002e77565b3d915062002ee5565b90506020813d60201162002f3d575b8162002f2c6020938362006167565b810103126200097b57518362002e3d565b3d915062002f1d565b01359050868062002d2c565b6101a080516006870190525160208120909450915b601f198416851062002fb0576001945083601f1981161062002f95575b505050811b01600682015562002d44565b0135600019600384901b60f8161c1916905586808062002f84565b8181013583556020948501946001909301920162002f67565b909150600684016101a0515260206101a05120601f840160051c8101602085106200301f575b90849392915b601f830160051c820181106200300d57505062002d0f565b6101a051815585945060010162002ff5565b508062002fef565b01359050888062002ccd565b6101a080516005890190525160208120909450915b601f198416851062003091576001945083601f1981161062003076575b505050811b01600584015562002ce5565b0135600019600384901b60f8161c1916905588808062003065565b8181013583556020948501946001909301920162003048565b909150600586016101a0515260206101a05120601f840160051c81016020851062003100575b90849392915b601f830160051c82018110620030ee57505062002cb0565b6101a0518155859450600101620030d6565b5080620030d0565b013590508a8062002c6e565b6101a0805160048b0190525160208120909450915b601f198416851062003172576001945083601f1981161062003157575b505050811b01600486015562002c86565b0135600019600384901b60f8161c191690558a808062003146565b8181013583556020948501946001909301920162003129565b909150600488016101a0515260206101a05120601f840160051c810160208510620031e1575b90849392915b601f830160051c82018110620031cf57505062002c51565b6101a0518155859450600101620031b7565b5080620031b1565b013590508c8062002c0f565b6101a0805160038d0190525160208120909450915b601f198416851062003253576001945083601f1981161062003238575b505050811b01600388015562002c27565b0135600019600384901b60f8161c191690558c808062003227565b818101358355602094850194600190930192016200320a565b90915060038a016101a0515260206101a05120601f840160051c810160208510620032c2575b90849392915b601f830160051c82018110620032b057505062002bf2565b6101a051815585945060010162003298565b508062003292565b610200516001600160a01b03163b1562000ddb57604051636e258e0760e11b81526101a051610200518290600490829084906001600160a01b03165af1801562000989576200331b575b5062002b22565b620033269062006120565b6101a05162000ddb578a62003314565b50611237461462002b1c565b610200516001600160a01b03163b1562000ddb576040516315c6deb960e31b81526001600160a01b0391821660048201526101a0516102005191929091839160249183918591165af1801562000989571562002b1257620033a39062006120565b6101a05162000ddb578b62002b12565b620033d0915060203d60201162000e8d5762000e7d818362006167565b8c62002b01565b620033e29062006120565b6101a05162000ddb578b62002ace565b620033fd9062006120565b6101a05162000ddb578b62002a89565b60405163a9059cbb60e01b81523360048201526127108a0460248201526101a05161020051602091839160449183916001600160a01b03165af190811562000989576101a0519162003494575b5062002a2e5760405162461bcd60e51b815260206004820152601760248201526000805160206200b48b8339815191526044820152606490fd5b620034b1915060203d6020116200114e576200113e818362006167565b8c6200345a565b620034d5915060203d6020116200114e576200113e818362006167565b8c62002a1c565b3462000ddb576101a05136600319011262000ddb576020600654604051908152f35b3462000ddb576101a05136600319011262000ddb576101a051546040516001600160a01b039091168152602090f35b3462000ddb576101a05136600319011262000ddb576020600454604051908152f35b3462000ddb576101a05136600319011262000ddb5760206040516112378152f35b3462000ddb576101a05136600319011262000ddb576020600754604051908152f35b6200359d3662005ec4565b610260525061022097909752600454949692959394909190620035c890620001c334821115620063bc565b95861595868062004538575b871562004510575b50620035e762006679565b6040518881527fb610ea5b60c2e916119ad74eb6f1c4e02b296189e982f615f38630738be9786560203392a285156200127c57801562001245576107d061026051116200120a57600254604051906001600160a01b03166001600160401b0361180883019081119083111762000ab257819061180862009c83833960e06118088301526200369e8c856200368760e06118088701018d6102205162006780565b916118088601830360206118088801015262006780565b90676765c793fa10079d601b1b604061180885010152306060611808850101523360806118088501015260a061180884010152603260c06118088401015203906101a051f061028052610280511562000989576002546001600160a01b03163314976200370b89620067dc565b61024052600154600354600554600654600754600854600a54604051966001600160a01b0390811696919592169391906001600160401b0361346489019081119089111762000ab25762ffffff966134646200681f8a39610280516001600160a01b039081166134648b0190815230602082015260408101929092526060820192909252608081019290925260a08281019390935260c082019390935260e08101939093526102405182166101008401529083166101208301529190911c919091166101408201528190036101600191f0978815620009895761026051676765c793fa10079d601b1b0297676765c793fa10079d601b1b89046102605103620011b657676765c793fa10079d601b1b6127108a04810311620011b65760405163a9059cbb60e01b81526001600160a01b038b811660048301526127108b04676765c793fa10079d601b1b0360248301526101a0516102805160209284926044928492165af190811562000989576101a05191620044ec575b50156200115657612710890462004441575b6001600160a01b038a163b1562000ddb57604051639556483760e01b81526127108a04676765c793fa10079d601b1b0360048201528a816024816101a051936101a0519060018060a01b03165af18015620009895762004426575b50806200425857506001600160a01b0389163b1562000ddb57604051631c7031d760e31b81526101a05181600481836001600160a01b038f165af1801562000989576200423d575b506040516306b456ef60e21b81526020816004816001600160a01b038e165afa90811562000989576101a0519162004219575b506001600160a01b038116620041a8575b508015906200419c575b62004130575b610280516101a080516001600160a01b039283169052600c602052516040902080546001600160a01b031916918a16919091179055600b5498600160401b8a101562000ab25760018a01600b55620039e48a620061da565b5050620039f18a620061da565b506102805181546001600160a01b03199081166001600160a01b039283161783556001830180548216928d169290921790915560028201805490911633179055966001600160401b03811162000ab25762003a5060038901546200622c565b601f8111620040de575b50806101a051601f82116001146200405f576101a0519162004050575b508160011b916000199060031b1c19161760038801555b6001600160401b03821162000ab257819062003aae60048901546200622c565b601f811162003ff2575b506101a05190601f831160011462003f7b576101a0519262003f6f575b50508160011b916000199060031b1c19161760048601555b6001600160401b03821162000ab257819062003b0d60058701546200622c565b601f811162003f11575b506101a05190601f831160011462003e9a576101a0519262003e8e575b50508160011b916000199060031b1c19161760058401555b6001600160401b03821162000ab257819062003b6c60068501546200622c565b601f811162003e30575b506101a05190601f831160011462003db9576101a0519262003dad575b50508160011b916000199060031b1c19161760068201555b676765c793fa10079d601b1b60078201556127108204600882015560094291015562ffffff60035460075460018060a01b036008541690600a54926127106040519660018060a01b0389168852676765c793fa10079d601b1b60208901520460408701526060860152608085015260a084015260018060a01b03610240511660c084015260018060a01b03811660e084015260a01c1661010082015260018060a01b03610280511690836000805160206200b4ab8339815191526101203393a46040516317773ebb60e01b815261028051602090829060049082906001600160a01b03165afa90811562000989576101a0519162003d75575b5060405163116e689f60e11b815261028051602090829060049082906001600160a01b03165afa90811562000989576101a0519162003d3d575b50604051916032835260208301526040820152826000805160206200b4cb833981519152606060018060a01b03610280511693a360408051610280519381526001600160a01b0393841660208201529190921691810191909152606090f35b90506020813d60201162003d6c575b8162003d5b6020938362006167565b810103126200097b57518462003cde565b3d915062003d4c565b90506020813d60201162003da4575b8162003d936020938362006167565b810103126200097b57518362003ca4565b3d915062003d84565b01359050868062003b93565b6101a080516006870190525160208120909450915b601f198416851062003e17576001945083601f1981161062003dfc575b505050811b01600682015562003bab565b0135600019600384901b60f8161c1916905586808062003deb565b8181013583556020948501946001909301920162003dce565b909150600684016101a0515260206101a05120601f840160051c81016020851062003e86575b90849392915b601f830160051c8201811062003e7457505062003b76565b6101a051815585945060010162003e5c565b508062003e56565b01359050888062003b34565b6101a080516005890190525160208120909450915b601f198416851062003ef8576001945083601f1981161062003edd575b505050811b01600584015562003b4c565b0135600019600384901b60f8161c1916905588808062003ecc565b8181013583556020948501946001909301920162003eaf565b909150600586016101a0515260206101a05120601f840160051c81016020851062003f67575b90849392915b601f830160051c8201811062003f5557505062003b17565b6101a051815585945060010162003f3d565b508062003f37565b013590508a8062003ad5565b6101a0805160048b0190525160208120909450915b601f198416851062003fd9576001945083601f1981161062003fbe575b505050811b01600486015562003aed565b0135600019600384901b60f8161c191690558a808062003fad565b8181013583556020948501946001909301920162003f90565b909150600488016101a0515260206101a05120601f840160051c81016020851062004048575b90849392915b601f830160051c820181106200403657505062003ab8565b6101a05181558594506001016200401e565b508062004018565b90506102205101358c62003a77565b9150600389016101a0515260206101a051206101a051925b601f1983168410620040c2576001935082601f19811610620040a4575b5050811b01600388015562003a8e565b610220510135600019600384901b60f8161c191690558c8062004094565b6102205181013582556020938401936001909201910162004077565b600389016101a0515260206101a05120601f830160051c81016020841062004128575b601f830160051c820181106200411957505062003a5a565b6101a051815560010162004101565b508062004101565b610280516001600160a01b03163b1562000ddb57604051636e258e0760e11b81526101a051610280518290600490829084906001600160a01b03165af18015620009895762004181575b506200398c565b6200418c9062006120565b6101a05162000ddb57896200417a565b50611237461462003986565b610280516001600160a01b03163b1562000ddb576040516315c6deb960e31b81526001600160a01b0391821660048201526101a0516102805191929091839160249183918591165af180156200098957156200397c57620042099062006120565b6101a05162000ddb578a6200397c565b62004236915060203d60201162000e8d5762000e7d818362006167565b8b6200396b565b620042489062006120565b6101a05162000ddb578a62003938565b6200426457506200398c565b6001600160a01b0389163b1562000ddb5760405162e2c3fd60e11b81526101a05181600481836001600160a01b038f165af1801562000989576200440b575b506040516306b456ef60e21b81526020816004816001600160a01b038e165afa90811562000989576101a05191620043e7575b506001600160a01b03811662004376575b508015906200436a575b620042fe575b896200417a565b610280516001600160a01b03163b1562000ddb57604051636e258e0760e11b81526101a051610280518290600490829084906001600160a01b03165af1801562000989576200434f575b50620042f7565b6200435a9062006120565b6101a05162000ddb578962004348565b506112374614620042f1565b610280516001600160a01b03163b1562000ddb576040516315c6deb960e31b81526001600160a01b0391821660048201526101a0516102805191929091839160249183918591165af18015620009895715620042e757620043d79062006120565b6101a05162000ddb578a620042e7565b62004404915060203d60201162000e8d5762000e7d818362006167565b8b620042d6565b620044169062006120565b6101a05162000ddb578a620042a3565b620044319062006120565b6101a05162000ddb578b620038f0565b60405163a9059cbb60e01b81523360048201526127108a0460248201526101a05161028051602091839160449183916001600160a01b03165af190811562000989576101a05191620044c8575b50620038955760405162461bcd60e51b815260206004820152601760248201526000805160206200b48b8339815191526044820152606490fd5b620044e5915060203d6020116200114e576200113e818362006167565b8c6200448e565b62004509915060203d6020116200114e576200113e818362006167565b8c62003883565b6200453190620012de60018060a01b03620012d2816008541615156200642d565b89620035dc565b600a546001600160a01b031615159750620035d4565b3462000ddb57602036600319011262000ddb576004356200456e62006189565b50600b54811015620045a957620045946200458d6200094892620061da565b506200631a565b60405191829160208352602083019062006034565b60405162461bcd60e51b81526020600482015260116024820152701a5b9d985b1a59081b185d5b98da081a59607a1b6044820152606490fd5b3462000ddb576101a05136600319011262000ddb57602060405160328152f35b3462000ddb576101a05136600319011262000ddb576001546040516001600160a01b039091168152602090f35b6200463a3662005f59565b6102a0526004549899979890979592949291506200465a903414620060dd565b6200466462006679565b88156200127c57851562001245576107d087116200120a576103e86102a05111620011d057600254604051906001600160a01b03166001600160401b0361180883019081119083111762000ab257819061180862009c83833960e06118088301818152620046f291620046da91018e8b62006780565b611808840181036020611808860101528a8d62006780565b90676765c793fa10079d601b1b604061180885010152306060611808850101523360806118088501015260a0611808840101526102a05160c06118088401015203906101a051f06102c0526102c0511562000989576200475e60018060a01b03600254163314620067dc565b9560018060a01b03600154166003549060055460065460075460018060a01b036008541691600a549360405196876134648101106001600160401b036134648a01111762000ab25762ffffff966134646200681f8a396102c0516001600160a01b039081166134648b0190815230602082015260408101929092526060820192909252608081019290925260a08281019390935260c082019390935260e08101939093528c82166101008401529083166101208301529190911c919091166101408201526101a05190829003610160019190f0988915620009895788676765c793fa10079d601b1b0298676765c793fa10079d601b1b8a0403620011b657676765c793fa10079d601b1b6127108a04810311620011b65760405163a9059cbb60e01b81526001600160a01b038b811660048301526127108b04676765c793fa10079d601b1b0360248301526101a0516102c05160209284926044928492165af190811562000989576101a05191620051ae575b50156200115657612710890462005103575b6001600160a01b038a163b1562000ddb57604051639556483760e01b81526127108a04676765c793fa10079d601b1b0360048201528a816024816101a051936101a0519060018060a01b03165af180156200098957620050e8575b506102c0516101a080516001600160a01b039283169052600c602052516040902080546001600160a01b031916918c16919091179055600b549a600160401b8c101562000ab25760018c01600b55620049978c620061da565b5050620049a48c620061da565b506102c05181546001600160a01b03199081166001600160a01b039283161783556001830180548216928f169290921790915560028201805490911633179055976001600160401b03821162000ab257819062004a0560038b01546200622c565b601f81116200508a575b506101a05190601f831160011462005013576101a0519262005007575b50508160011b916000199060031b1c19161760038801555b6001600160401b03821162000ab257819062004a6460048901546200622c565b601f811162004fa9575b506101a05190601f831160011462004f32576101a0519262004f26575b50508160011b916000199060031b1c19161760048601555b6001600160401b03821162000ab257819062004ac360058701546200622c565b601f811162004ec8575b506101a05190601f831160011462004e51576101a0519262004e45575b50508160011b916000199060031b1c19161760058401555b6001600160401b03821162000ab25762004b2060068401546200622c565b601f811162004df3575b506101a05190601f831160011462004d725791809162ffffff9594936101a0519262004d66575b50508160011b916000199060031b1c19161760068201555b676765c793fa10079d601b1b6007820155612710840460088201556009429101556003549060075460018060a01b036008541690600a54936127106040519760018060a01b038a168952676765c793fa10079d601b1b60208a01520460408801526060870152608086015260a085015260018060a01b031660c084015260018060a01b03811660e084015260a01c1661010082015260018060a01b036102c0511690836000805160206200b4ab8339815191526101203393a46040516317773ebb60e01b81526102c051602090829060049082906001600160a01b03165afa90811562000989576101a0519162004d2e575b5060405163116e689f60e11b81526102c051602090829060049082906001600160a01b03165afa90811562000989576101a0519162004cf6575b50604051916102a051835260208301526040820152826000805160206200b4cb833981519152606060018060a01b036102c0511693a3604080516102c0519381526001600160a01b0393841660208201529190921691810191909152606090f35b90506020813d60201162004d25575b8162004d146020938362006167565b810103126200097b57518462004c95565b3d915062004d05565b90506020813d60201162004d5d575b8162004d4c6020938362006167565b810103126200097b57518362004c5b565b3d915062004d3d565b01359050888062004b51565b600684016101a0515260206101a05120916101a0515b601f198516811062004dda575091839160019362ffffff979695601f1981161062004dbf575b505050811b01600682015562004b69565b0135600019600384901b60f8161c1916905588808062004dae565b9092602060018192868601358155019401910162004d88565b600684016101a0515260206101a05120601f840160051c81016020851062004e3d575b601f830160051c8201811062004e2e57505062004b2a565b6101a051815560010162004e16565b508062004e16565b01359050898062004aea565b6101a080516005890190525160208120909450915b601f198416851062004eaf576001945083601f1981161062004e94575b505050811b01600584015562004b02565b0135600019600384901b60f8161c1916905589808062004e83565b8181013583556020948501946001909301920162004e66565b909150600586016101a0515260206101a05120601f840160051c81016020851062004f1e575b90849392915b601f830160051c8201811062004f0c57505062004acd565b6101a051815585945060010162004ef4565b508062004eee565b013590508b8062004a8b565b6101a0805160048b0190525160208120909450915b601f198416851062004f90576001945083601f1981161062004f75575b505050811b01600486015562004aa3565b0135600019600384901b60f8161c191690558b808062004f64565b8181013583556020948501946001909301920162004f47565b909150600488016101a0515260206101a05120601f840160051c81016020851062004fff575b90849392915b601f830160051c8201811062004fed57505062004a6e565b6101a051815585945060010162004fd5565b508062004fcf565b013590508d8062004a2c565b6101a0805160038d0190525160208120909450915b601f198416851062005071576001945083601f1981161062005056575b505050811b01600388015562004a44565b0135600019600384901b60f8161c191690558d808062005045565b8181013583556020948501946001909301920162005028565b90915060038a016101a0515260206101a05120601f840160051c810160208510620050e0575b90849392915b601f830160051c82018110620050ce57505062004a0f565b6101a0518155859450600101620050b6565b5080620050b0565b620050f39062006120565b6101a05162000ddb578b6200493e565b60405163a9059cbb60e01b81523360048201526127108a0460248201526101a0516102c051602091839160449183916001600160a01b03165af190811562000989576101a051916200518a575b50620048e35760405162461bcd60e51b815260206004820152601760248201526000805160206200b48b8339815191526044820152606490fd5b620051a7915060203d6020116200114e576200113e818362006167565b8c62005150565b620051cb915060203d6020116200114e576200113e818362006167565b8c620048d1565b3462000ddb576101a05136600319011262000ddb5760206040516103e88152f35b3462000ddb576101a05136600319011262000ddb576020600554604051908152f35b3462000ddb576101a05136600319011262000ddb57602062ffffff600a5460a01c16604051908152f35b3462000ddb576101a05136600319011262000ddb576009546040516001600160a01b039091168152602090f35b620052773662005ec4565b9697989490506200528f6004949294543414620060dd565b6200529962006679565b88156200127c57851562001245576107d087116200120a57600254604051906001600160a01b03166001600160401b0361180883019081119083111762000ab257819061180862009c83833960e061180883018181526200530291620046da91018e8b62006780565b90676765c793fa10079d601b1b604061180885010152306060611808850101523360806118088501015260a061180884010152603260c06118088401015203906101a051f06102e0526102e0511562000989576200536c60018060a01b03600254163314620067dc565b9560018060a01b03600154166003549060055460065460075460018060a01b036008541691600a549360405196876134648101106001600160401b036134648a01111762000ab25762ffffff966134646200681f8a396102e0516001600160a01b039081166134648b0190815230602082015260408101929092526060820192909252608081019290925260a08281019390935260c082019390935260e08101939093528c82166101008401529083166101208301529190911c919091166101408201526101a05190829003610160019190f09889156200098957676765c793fa10079d601b1b898102048903620011b657676765c793fa10079d601b1b6127108a820204810311620011b65760405163a9059cbb60e01b81526001600160a01b038b81166004830152612710676765c793fa10079d601b1b8c810291909104900360248301526101a0516102e05160209284926044928492165af190811562000989576101a0519162005dee575b5015620011565761271089676765c793fa10079d601b1b020462005d36575b6001600160a01b038a163b1562000ddb57604051639556483760e01b81526127108a676765c793fa10079d601b1b0204676765c793fa10079d601b1b0360048201528a816024816101a051936101a0519060018060a01b03165af18015620009895762005d24575b506102e0516101a080516001600160a01b039283169052600c602052516040902080546001600160a01b031916918c16919091179055600b549a600160401b8c101562000ab25760018c01600b55620055bb8c620061da565b5050620055c88c620061da565b506102e05181546001600160a01b03199081166001600160a01b039283161783556001830180548216928f169290921790915560028201805490911633179055976001600160401b03821162000ab25781906200562960038b01546200622c565b601f811162005cc6575b506101a05190601f831160011462005c4f576101a0519262005c43575b50508160011b916000199060031b1c19161760038801555b6001600160401b03821162000ab25781906200568860048901546200622c565b601f811162005be5575b506101a05190601f831160011462005b6e576101a0519262005b62575b50508160011b916000199060031b1c19161760048601555b6001600160401b03821162000ab2578190620056e760058701546200622c565b601f811162005b04575b506101a05190601f831160011462005a8d576101a0519262005a81575b50508160011b916000199060031b1c19161760058401555b6001600160401b03821162000ab2576200574460068401546200622c565b601f811162005a2f575b506101a05190601f8311600114620059ae5791809162ffffff9594936101a05192620059a2575b50508160011b916000199060031b1c19161760068201555b676765c793fa10079d601b1b600782015561271084676765c793fa10079d601b1b020460088201556009429101556003549060075460018060a01b036008541690600a54936127106040519760018060a01b038a168952676765c793fa10079d601b1b60208a0152676765c793fa10079d601b1b020460408801526060870152608086015260a085015260018060a01b031660c084015260018060a01b03811660e084015260a01c1661010082015260018060a01b036102e0511690836000805160206200b4ab8339815191526101203393a46040516317773ebb60e01b81526102e051602090829060049082906001600160a01b03165afa90811562000989576101a051916200596a575b5060405163116e689f60e11b81526102e051602090829060049082906001600160a01b03165afa90811562000989576101a0519162005932575b50604051916032835260208301526040820152826000805160206200b4cb833981519152606060018060a01b036102e0511693a3604080516102e0519381526001600160a01b0393841660208201529190921691810191909152606090f35b90506020813d60201162005961575b81620059506020938362006167565b810103126200097b575184620058d3565b3d915062005941565b90506020813d60201162005999575b81620059886020938362006167565b810103126200097b57518362005899565b3d915062005979565b01359050888062005775565b600684016101a0515260206101a05120916101a0515b601f198516811062005a16575091839160019362ffffff979695601f19811610620059fb575b505050811b0160068201556200578d565b0135600019600384901b60f8161c19169055888080620059ea565b90926020600181928686013581550194019101620059c4565b600684016101a0515260206101a05120601f840160051c81016020851062005a79575b601f830160051c8201811062005a6a5750506200574e565b6101a051815560010162005a52565b508062005a52565b0135905089806200570e565b6101a080516005890190525160208120909450915b601f198416851062005aeb576001945083601f1981161062005ad0575b505050811b01600584015562005726565b0135600019600384901b60f8161c1916905589808062005abf565b8181013583556020948501946001909301920162005aa2565b909150600586016101a0515260206101a05120601f840160051c81016020851062005b5a575b90849392915b601f830160051c8201811062005b48575050620056f1565b6101a051815585945060010162005b30565b508062005b2a565b013590508b80620056af565b6101a0805160048b0190525160208120909450915b601f198416851062005bcc576001945083601f1981161062005bb1575b505050811b016004860155620056c7565b0135600019600384901b60f8161c191690558b808062005ba0565b8181013583556020948501946001909301920162005b83565b909150600488016101a0515260206101a05120601f840160051c81016020851062005c3b575b90849392915b601f830160051c8201811062005c2957505062005692565b6101a051815585945060010162005c11565b508062005c0b565b013590508d8062005650565b6101a0805160038d0190525160208120909450915b601f198416851062005cad576001945083601f1981161062005c92575b505050811b01600388015562005668565b0135600019600384901b60f8161c191690558d808062005c81565b8181013583556020948501946001909301920162005c64565b90915060038a016101a0515260206101a05120601f840160051c81016020851062005d1c575b90849392915b601f830160051c8201811062005d0a57505062005633565b6101a051815585945060010162005cf2565b508062005cec565b62005d2f9062006120565b8b62005562565b60405163a9059cbb60e01b8152336004820152612710676765c793fa10079d601b1b8b020460248201526101a0516102e051602091839160449183916001600160a01b03165af190811562000989576101a0519162005dca575b50620054fa5760405162461bcd60e51b815260206004820152601760248201526000805160206200b48b8339815191526044820152606490fd5b62005de7915060203d6020116200114e576200113e818362006167565b8c62005d90565b62005e0b915060203d6020116200114e576200113e818362006167565b8c620054db565b3462000ddb57602036600319011262000ddb5760206001600160a01b038062005e3a62005e7d565b166101a05152600c825260406101a051205416604051908152f35b3462000ddb576101a05136600319011262000ddb57600a546001600160a01b03168152602090f35b600435906001600160a01b03821682036200097b57565b9181601f840112156200097b578235916001600160401b0383116200097b57602083818601950101116200097b57565b60c06003198201126200097b576001600160401b03906004358281116200097b578162005ef49160040162005e94565b939093926024358181116200097b578362005f129160040162005e94565b939093926044358381116200097b578262005f309160040162005e94565b939093926064359182116200097b5762005f4d9160040162005e94565b90916084359060a43590565b60e06003198201126200097b576001600160401b03906004358281116200097b578162005f899160040162005e94565b939093926024358181116200097b578362005fa79160040162005e94565b939093926044358381116200097b578262005fc59160040162005e94565b939093926064359182116200097b5762005fe29160040162005e94565b90916084359060a4359060c43590565b919082519283825260005b8481106200601f575050826000602080949584010152601f8019910116010190565b60208183018101518483018201520162005ffd565b90620060ba620060a7620060946200608161014060018060a01b03808851168752806020890151166020880152604088015116604087015260608701519080606088015286019062005ff2565b6080860151858203608087015262005ff2565b60a085015184820360a086015262005ff2565b60c084015183820360c085015262005ff2565b9160e081015160e083015261010080820151908301526101208091015191015290565b15620060e557565b60405162461bcd60e51b81526020600482015260136024820152720d8c2eadcc6d040cccaca40dad2e6dac2e8c6d606b1b6044820152606490fd5b6001600160401b0381116200613457604052565b634e487b7160e01b600052604160045260246000fd5b61014081019081106001600160401b038211176200613457604052565b90601f801991011681019081106001600160401b038211176200613457604052565b6040519062006198826200614a565b8161012060009182815282602082015282604082015260608082015260606080820152606060a0820152606060c08201528260e0820152826101008201520152565b600b548110156200621657600a90600b600052027f0175b7a638427703f0dbe7bb9bbf987a2551717b34e79f33b5b1008d1fa01db90190600090565b634e487b7160e01b600052603260045260246000fd5b90600182811c921680156200625e575b60208310146200624857565b634e487b7160e01b600052602260045260246000fd5b91607f16916200623c565b906040519182600082546200627e816200622c565b90818452602094600191600181169081600014620062f65750600114620062b3575b505050620062b19250038362006167565b565b600090815285812095935091905b818310620062dd575050620062b19350820101388080620062a0565b85548884018501529485019487945091830191620062c1565b92505050620062b194925060ff191682840152151560051b820101388080620062a0565b9060405162006329816200614a565b6101206009829460018060a01b038082541685528060018301541660208601526002820154166040850152620063626003820162006269565b6060850152620063756004820162006269565b6080850152620063886005820162006269565b60a08501526200639b6006820162006269565b60c0850152600781015460e085015260088101546101008501520154910152565b15620063c457565b60405162461bcd60e51b815260206004820152601760248201527f696e73756666696369656e74206c61756e6368206665650000000000000000006044820152606490fd5b919082039182116200641757565b634e487b7160e01b600052601160045260246000fd5b156200643557565b60405162461bcd60e51b815260206004820152601260248201527119195e081c9bdd5d195c881b9bdd081cd95d60721b6044820152606490fd5b156200647757565b60405162461bcd60e51b81526020600482015260146024820152731b1c081c9958da5c1a595b9d081b9bdd081cd95d60621b6044820152606490fd5b15620064bb57565b60405162461bcd60e51b815260206004820152602260248201527f696e73756666696369656e742065746820666f72206665652b6c697175696469604482015261747960f01b6064820152608490fd5b6001600160401b038111620061345760051b60200190565b8051821015620062165760209160051b010190565b600b54929183821015620066175781019283821162006417578084116200660e575b5062006567818462006409565b9262006573846200650b565b9362006583604051958662006167565b80855262006594601f19916200650b565b0160005b818110620065f45750508360005b828410620065b45750505050565b620065c36200458d85620061da565b620065cf828462006523565b52620065dc818362006523565b506000198114620064175760019384019301620065a6565b6020906200660162006189565b8282890101520162006598565b9250386200655a565b50509050604051602081018181106001600160401b0382111762006134576040526000815290565b156200664757565b60405162461bcd60e51b815260206004820152600a60248201526937b7363c9037bbb732b960b11b6044820152606490fd5b6004546200668a81341015620063bc565b80156200677d5760008080808060018060a01b039586600254165af1903d1562006776573d906001600160401b038211620067625760405191620066d9601f8201601f19166020018462006167565b825260203d92013e5b156200671d57600254166004546040519081527f4cef2d27cdf43d743c3c66401182e93989938e77d1be10f3ab9e6afdf799f83960203392a3565b60405162461bcd60e51b815260206004820152601a60248201527f6c61756e636820666565207472616e73666572206661696c65640000000000006044820152606490fd5b634e487b7160e01b81526041600452602490fd5b50620066e2565b50565b908060209392818452848401376000828201840152601f01601f1916010190565b908160209103126200097b575180151581036200097b5790565b908160209103126200097b57516001600160a01b03811681036200097b5790565b6008546001600160a01b039190821615620068165761123746146200680e5762006807575061dead90565b6009541690565b505061dead90565b50600954169056fe601f6200346438819003918201601f19166101009081019290916001600160401b0384118385101762000470578161016092849260409687528339810103126200046b576200004e8162000486565b60206200005d81840162000486565b6200006a85850162000486565b91606085015160808601519160a087015160c0880151906200008f60e08a0162000486565b946200009f6101008b0162000486565b94610140620000b26101208d0162000486565b9b01519762ffffff89169a8b8a036200046b576001600160a01b039a818c161562000435578b831615620003fd578b16988915620003b85761012c8411620003845784156200033f578515620002fa578615620002c357908b8099989796959493921696876200025f575b5060a05260805260018060a01b03199788600054161760005560015560c05260e0526004558360055416176005551690600654161760065560075492156000146200025957506127105b62ffffff60a01b60a09190911b1692166001600160b81b03199190911617176007553460025551612fc890816200049c823960805181818161027201528181610913015281816109dc01528181610b9101528181610f04015281816110260152611188015260a0518181816101e0015281816104cb0152818161071901528181610a3b0152818161125e0152818161210b015281816126880152818161276601528181612c1f01528181612df10152612f17015260c051818181610d0a01528181611b280152818161253d01526125cb015260e051818181610e7101528181611af50152818161257201526125fc0152f35b62000167565b9091929394959697988916156200028057908b98979695949392916200011d565b6064908f519062461bcd60e51b82526004820152601560248201527f6c7020726563697069656e7420726571756972656400000000000000000000006044820152fd5b508d5162461bcd60e51b815260048101889052600f60248201526e1d185c99d95d081c995c5d5a5c9959608a1b6044820152606490fd5b508d5162461bcd60e51b815260048101889052601660248201527f7669727475616c20746f6b656e207265717569726564000000000000000000006044820152606490fd5b508d5162461bcd60e51b815260048101889052601460248201527f7669727475616c206574682072657175697265640000000000000000000000006044820152606490fd5b508d5162461bcd60e51b815260048101889052600c60248201526b0cccaca40e8dede40d0d2ced60a31b6044820152606490fd5b508d5162461bcd60e51b815260048101889052601660248201527f66656520726563697069656e74207265717569726564000000000000000000006044820152606490fd5b508d5162461bcd60e51b815260048101889052601060248201526f199858dd1bdc9e481c995c5d5a5c995960821b6044820152606490fd5b508d5162461bcd60e51b815260048101889052600e60248201526d1d1bdad95b881c995c5d5a5c995960921b6044820152606490fd5b600080fd5b634e487b7160e01b600052604160045260246000fd5b51906001600160a01b03821682036200046b5756fe6080604052600436101561001257600080fd5b60003560e01c806301c587fa146111715780630758d924146111485780630cc4574d146111225780631ad15bbc146110f957806324a9d853146110db578063252177241461100f5780632760eca114610ff45780632a2c697214610ed85780632b852de214610eba578063334041a614610e94578063343ee3b714610e5957806339406c5014610e30578063398482d814610e0d5780633de1d8a414610de75780634329742d14610d9d578063452e68dd14610d745780634690484014610d4b5780634beb394c14610d2d57806352b86d2b14610cf25780637f544e4914610cd45780638c575aa314610b5757806395564837146109b8578063a64190c41461098e578063c1abbe0814610968578063c446795a14610942578063c45a0155146108fd578063cbcb3171146108df578063d62ccb3f146108c1578063d79875eb1461063e578063d96a094a146103d5578063e1a45218146103b8578063e3818eb814610253578063e7c2b7721461022d578063f95a02d01461020f578063fc0c546a146101ca5763fccc2813146101a857600080fd5b346101c55760003660031901126101c557602060405161dead8152f35b600080fd5b346101c55760003660031901126101c5576040517f00000000000000000000000000000000000000000000000000000000000000006001600160a01b03168152602090f35b346101c55760003660031901126101c5576020600454604051908152f35b346101c55760003660031901126101c557602060ff60075460c01c166040519015158152f35b346101c55760003660031901126101c5576001600160a01b03610299337f0000000000000000000000000000000000000000000000000000000000000000831614611893565b6007906103897f5cfc9ea0e95e86463d8dacd6c53993376a8afab5437e80a8a98d57d7a8b0f2348354926102d360ff8560e01c16156118ce565b60ff60e01b19938416600160e01b178086556103149060ff906102fb60b882901c8316611907565b61030a828260c01c1615611945565b60c81c1615611985565b61032160025415156119c2565b61033081600554161515611f27565b6103393061273d565b50885462ffffff60c81b1916600160c81b178955600880546001600160a01b0319169190951690811790945560408051938452602084019290925290820152426060820152909281906080820190565b0390a2610394612b46565b90506004548110156103a9575b508154169055005b6103b290612237565b826103a1565b346101c55760003660031901126101c55760206040516127108152f35b6020806003193601126101c5576007546103f560ff8260e01c16156118ce565b60ff60e01b19908116600160e01b17600781905561042e9060ff9061041f60b882901c8316611907565b61030a828260c01c1615611da3565b341561060a57612710610443600154346119ff565b049061044f8234611c43565b916104598361252f565b92610465841515611ddb565b610473600435851015611e1d565b600354908185116105cc576104979161048f8692600254611ac3565b600255611c43565b600355806105a4575b60405163a9059cbb60e01b815233600482015260248101849052848160448160006001600160a01b037f0000000000000000000000000000000000000000000000000000000000000000165af1801561059857600090610562575b6105059150611e61565b7fbeae048c6d270d9469f86cf6e8fedda3c60ad770f16c24c9fc131c8e9a09101d6040518061054886339534846040919493926060820195825260208201520152565b0390a261055361262c565b60075416600755604051908152f35b508481813d8311610591575b6105788183611d0d565b810103126101c55761058c61050591611e54565b6104fb565b503d61056e565b6040513d6000823e3d90fd5b6105c760008080808560018060a01b038254165af16105c1611ea5565b50611ee5565b6104a0565b60405162461bcd60e51b8152600481018790526016602482015275696e73756666696369656e74206c697175696469747960501b6044820152606490fd5b60405162461bcd60e51b815260048101839052600c60248201526b195d1a081c995c5d5a5c995960a21b6044820152606490fd5b346101c55760403660031901126101c5576004356007549061066660ff8360e01c16156118ce565b60ff60e01b19918216600160e01b1760078190556106909060ff9061041f60b882901c8316611907565b61069b811515611cc9565b6106a4816125bf565b916106b0831515611ddb565b600254831161087c576127106106c8600154856119ff565b04916106d48385611c43565b926106e3602435851015611e1d565b6040516323b872dd60e01b8152336004820152306024820152604481018390526020956001600160a01b039190878260648160007f000000000000000000000000000000000000000000000000000000000000000088165af191821561059857600092610840575b5061075861076f92611e61565b61076485600354611ac3565b600355600254611c43565b600255600080808088335af1610783611ea5565b501561080557816107d591817f846c37eef631e0943682d87352ec117c20008eb7f425c9b85ac011a6d4774cc0946107e7575b5050604080519485526020850187905284015233929081906060820190565b0390a260075416600755604051908152f35b6000808080936107fe958254165af16105c1611ea5565b87816107b6565b60405162461bcd60e51b8152600481018790526013602482015272195d1a081d1c985b9cd9995c8819985a5b1959606a1b6044820152606490fd5b91508782813d8311610875575b6108578183611d0d565b810103126101c55761075861086e61076f93611e54565b925061074b565b503d61084d565b60405162461bcd60e51b815260206004820152601860248201527f696e73756666696369656e7420657468207265736572766500000000000000006044820152606490fd5b346101c55760003660031901126101c5576020600254604051908152f35b346101c55760003660031901126101c5576020600354604051908152f35b346101c55760003660031901126101c5576040517f00000000000000000000000000000000000000000000000000000000000000006001600160a01b03168152602090f35b346101c55760003660031901126101c557602060ff60075460c81c166040519015158152f35b346101c55760003660031901126101c557602060ff60075460d81c166040519015158152f35b346101c55760203660031901126101c55760406109ac600435611d2f565b82519182526020820152f35b346101c5576020806003193601126101c5576001600160a01b0390600435610a03337f0000000000000000000000000000000000000000000000000000000000000000851614611893565b6007549260ff8460b81c16610b215782602491610a21841515611cc9565b6040516370a0823160e01b815230600482015292839182907f0000000000000000000000000000000000000000000000000000000000000000165afa8015610598578291600091610af0575b5010610ab55760ff60b81b19909216600160b81b1760075560038290556040519182527fa71ed34ff06af8d6865a8f541aae52d72fa89f0e5ee15f01d48fa6c62c85691491a1005b60405162461bcd60e51b8152600481018390526013602482015272696e73756666696369656e7420746f6b656e7360681b6044820152606490fd5b809250848092503d8311610b1a575b610b098183611d0d565b810103126101c55781905185610a6d565b503d610aff565b60405162461bcd60e51b815260048101849052600e60248201526d185b1c9958591e481cd95959195960921b6044820152606490fd5b346101c55760603660031901126101c557610b7061187d565b6024356001600160a01b0381811692908383036101c55760443590610bb8817f0000000000000000000000000000000000000000000000000000000000000000163314611893565b610bca60ff60075460c01c1615611945565b8115610c9d57821680610c53575b907fbcdc4bff84f936019028a7bcbef6b449550d6334606377b822720e57e94276c494610c4e926bffffffffffffffffffffffff60a01b908160055416176005556006541617600655806004556040519384938460409194939294606082019560018060a01b0380921683521660208201520152565b0390a1005b908415610c605790610bd8565b60405162461bcd60e51b81526020600482015260156024820152741b1c081c9958da5c1a595b9d081c995c5d5a5c9959605a1b6044820152606490fd5b60405162461bcd60e51b815260206004820152600f60248201526e1d185c99d95d081c995c5d5a5c9959608a1b6044820152606490fd5b346101c55760003660031901126101c5576020600a54604051908152f35b346101c55760003660031901126101c55760206040517f00000000000000000000000000000000000000000000000000000000000000008152f35b346101c55760203660031901126101c55760406109ac600435611c50565b346101c55760003660031901126101c5576000546040516001600160a01b039091168152602090f35b346101c55760003660031901126101c5576006546040516001600160a01b039091168152602090f35b346101c55760003660031901126101c557600754610dc160ff8260e01c16156118ce565b60ff60e01b19908116600160e01b17600755610ddb611bdf565b60075416600755600080f35b346101c55760003660031901126101c557602062ffffff60075460a01c16604051908152f35b346101c55760003660031901126101c5576020610e28611ad0565b604051908152f35b346101c55760003660031901126101c5576007546040516001600160a01b039091168152602090f35b346101c55760003660031901126101c55760206040517f00000000000000000000000000000000000000000000000000000000000000008152f35b346101c55760003660031901126101c557602060ff60075460b81c166040519015158152f35b346101c55760003660031901126101c5576020600954604051908152f35b346101c55760403660031901126101c557610ef161187d565b602435906001600160a01b0390610f2b337f0000000000000000000000000000000000000000000000000000000000000000841614611893565b16908115610fba5761012c8111610f865760207fe42708d93b95810922305119a3271ca42233da9ebe1e1e503f0e887817a32c7a91836bffffffffffffffffffffffff60a01b600054161760005580600155604051908152a2005b60405162461bcd60e51b815260206004820152600c60248201526b0cccaca40e8dede40d0d2ced60a31b6044820152606490fd5b60405162461bcd60e51b81526020600482015260126024820152711c9958da5c1a595b9d081c995c5d5a5c995960721b6044820152606490fd5b346101c55760003660031901126101c5576020610e28611a32565b346101c55760003660031901126101c557611054337f00000000000000000000000000000000000000000000000000000000000000006001600160a01b031614611893565b60075461106760ff8260e01c16156118ce565b60ff60e01b19908116600160e01b1760078190556110919060ff906102fb60b882901c8316611907565b60025461109f8115156119c2565b60035460405191825260208201527f5d6dc6b9835f5448ae2351719684f59735b30dfa8e62677cc6f9e98bd4c08f7f60403392a2610ddb611f87565b346101c55760003660031901126101c5576020600154604051908152f35b346101c55760003660031901126101c5576008546040516001600160a01b039091168152602090f35b346101c55760003660031901126101c557602060ff60075460d01c166040519015158152f35b346101c55760003660031901126101c5576005546040516001600160a01b039091168152602090f35b346101c55760003660031901126101c5576111b6337f00000000000000000000000000000000000000000000000000000000000000006001600160a01b031614611893565b6007546111c960ff8260e01c16156118ce565b60ff60e01b198116600160e01b1760078190556111ec60b882901c60ff16611907565b6111fc60ff8260c01c1615611945565b61120c60ff8260c81c1615611985565b600254611838576001600160a01b038216156117fe576003805460009091556040516312a9293f60e21b815290916020826004816001600160a01b0388165afa918215610598576000926117dd575b507f0000000000000000000000000000000000000000000000000000000000000000936001600160a01b0383811690861610156117d757845b6001600160a01b0384811690871610156117d157835b6001600160a01b0385811690881610156117bc576a01b34f91b7533ca6b68126915b6001600160a01b0386811690891610156117b257620338ff195b6001600160a01b03878116908a1610156117a857620d89a0935b6040516309f56ab160e11b81526001600160a01b038481166004830152858116602483015260a09890981c62ffffff166044820152908716606482015295602090879060849082906000908a165af195861561059857600096611777575b5060075460405163095ea7b360e01b81526001600160a01b0391821660048201526000602482018190529091602091839160449183918f165af180156105985761173e575b5060075460405163095ea7b360e01b81526001600160a01b039091166004820152602481018990526020818b816000816044810103926001600160a01b03165af1801561059857611705575b506001600160a01b03878116908a1610156116fe57875b6001600160a01b03888116908b1610156116f7576000905b62ffffff60075460a01c1695610e10420142116116e157604051938461016081011067ffffffffffffffff610160870111176116cb57610160850160409081526001600160a01b03968716865296861660208601908152878601988952600291820b6060870190815292820b608087810191825260a0880195865260c08801968752600060e089018181526101008a01828152306101208c0190815242610e10016101408d019081529d51634418b22b60e11b81529b518d1660048d015295518c1660248c01529c5162ffffff1660448b01529551850b60648a0152915190930b6084880152935160a4870152935160c4860152905160e48501529551610104840152905183166101248301529251610144820152938492610164928492165af180156105985760009560009460009360009361165d575b507f5cfc9ea0e95e86463d8dacd6c53993376a8afab5437e80a8a98d57d7a8b0f2349660809690956001600160801b039591949093919290916001600160a01b0391821691161015611654575080945b81811161163a575b50506007805462ffffff60c81b19166201010160c81b179055600880546001600160a01b0319166001600160a01b039290921691821790556009969096556040805193845260006020850152911690820152426060820152a261160f612b46565b905060045481101561162b575b6007805460ff60e01b19169055005b61163490612237565b8061161c565b61164c9161164791611c43565b612664565b5083886115ae565b905080946115a6565b9694975094509150506080843d6080116116c3575b8161167f60809383611d0d565b810103126101c5578351936020810151956001600160801b03871687036101c557604082015160609092015195969395939490939192906001600160801b03611556565b3d9150611672565b634e487b7160e01b600052604160045260246000fd5b634e487b7160e01b600052601160045260246000fd5b889061141e565b6000611406565b6020813d602011611736575b8161171e60209383611d0d565b810103126101c55761172f90611e54565b50896113ef565b3d9150611711565b6020813d60201161176f575b8161175760209383611d0d565b810103126101c55761176890611e54565b50896113a3565b3d915061174a565b61179a91965060203d6020116117a1575b6117928183611d0d565b810190611f68565b948961135e565b503d611788565b6203390093611300565b620d899f196112e6565b6d968cc63f21ed04d38c2ab4825f90916112cc565b856112aa565b82611294565b6117f791925060203d6020116117a1576117928183611d0d565b908461125b565b60405162461bcd60e51b81526020600482015260126024820152711d8cc81b585b9859d95c881b9bdd081cd95d60721b6044820152606490fd5b60405162461bcd60e51b815260206004820152601960248201527f6574682072657365727665206e6f7420737570706f72746564000000000000006044820152606490fd5b600435906001600160a01b03821682036101c557565b1561189a57565b60405162461bcd60e51b815260206004820152600c60248201526b6f6e6c7920666163746f727960a01b6044820152606490fd5b156118d557565b60405162461bcd60e51b815260206004820152600a6024820152697265656e7472616e637960b01b6044820152606490fd5b1561190e57565b60405162461bcd60e51b815260206004820152600f60248201526e1c1bdbdb081b9bdd081cd959591959608a1b6044820152606490fd5b1561194c57565b60405162461bcd60e51b8152602060048201526011602482015270185b1c9958591e4819dc98591d585d1959607a1b6044820152606490fd5b1561198c57565b60405162461bcd60e51b815260206004820152600e60248201526d646578206375727665206c69766560901b6044820152606490fd5b156119c957565b60405162461bcd60e51b815260206004820152600e60248201526d6e6f20657468207265736572766560901b6044820152606490fd5b818102929181159184041417156116e157565b8115611a1c570490565b634e487b7160e01b600052601260045260246000fd5b6004548015611abd5760075460ff8160c81c16908115611a95575b5015611a8d57611a5b612b46565b90505b61271091828202918083048414901517156116e157611a7c91611a12565b90808211611a88575090565b905090565b600254611a5e565b60ff915060c01c1680611aa9575b38611a4d565b506008546001600160a01b03161515611aa3565b50600090565b919082018092116116e157565b60075460ff8160c81c16908115611b90575b5080611b7c575b611b7457611b1a6003547f000000000000000000000000000000000000000000000000000000000000000090611ac3565b8015611abd57611b4d6002547f000000000000000000000000000000000000000000000000000000000000000090611ac3565b90670de0b6b3a7640000918281029281840414901517156116e157611b7191611a12565b90565b611b71612036565b506008546001600160a01b03161515611ae9565b60ff915060c01c1638611ae2565b15611ba557565b60405162461bcd60e51b81526020600482015260126024820152711d185c99d95d081b9bdd081c995858da195960721b6044820152606490fd5b60ff600754611bf2828260b81c16611907565b611c01828260c01c1615611945565b60c81c16611c2357611c196002546004541115611b9e565b611c21611f87565b565b611c21611c2e612b46565b9050611c3e600454821015611b9e565b612237565b919082039182116116e157565b60075460ff8160b81c1615908115611cba575b8115611cac575b508015611ca4575b611c9b57611c98611c93612710611c8b600154856119ff565b048093611c43565b61252f565b91565b50600090600090565b508015611c72565b60ff915060c81c1638611c6a565b905060ff8160c01c1690611c63565b15611cd057565b60405162461bcd60e51b81526020600482015260156024820152741d1bdad95b88185b5bdd5b9d081c995c5d5a5c9959605a1b6044820152606490fd5b90601f8019910116810190811067ffffffffffffffff8211176116cb57604052565b60075460ff8160b81c1615908115611d94575b8115611d86575b508015611d7e575b611c9b57611d5e906125bf565b8015611c9b57611c98612710611d76600154846119ff565b048092611c43565b508015611d51565b60ff915060c81c1638611d49565b905060ff8160c01c1690611d42565b15611daa57565b60405162461bcd60e51b815260206004820152600960248201526819dc98591d585d195960ba1b6044820152606490fd5b15611de257565b60405162461bcd60e51b81526020600482015260136024820152721a5b9cdd59999a58da595b9d081bdd5d1c1d5d606a1b6044820152606490fd5b15611e2457565b60405162461bcd60e51b8152602060048201526008602482015267736c69707061676560c01b6044820152606490fd5b519081151582036101c557565b15611e6857565b60405162461bcd60e51b81526020600482015260156024820152741d1bdad95b881d1c985b9cd9995c8819985a5b1959605a1b6044820152606490fd5b3d15611ee0573d9067ffffffffffffffff82116116cb5760405191611ed4601f8201601f191660200184611d0d565b82523d6000602084013e565b606090565b15611eec57565b60405162461bcd60e51b8152602060048201526013602482015272199959481d1c985b9cd9995c8819985a5b1959606a1b6044820152606490fd5b15611f2e57565b60405162461bcd60e51b815260206004820152601260248201527119195e081c9bdd5d195c881b9bdd081cd95d60721b6044820152606490fd5b908160209103126101c557516001600160a01b03811681036101c55790565b6120227f71aa8c3702dbbc54247a4e6446450e64a46250dd72707a247ddb01d72eaef44560018060a01b03611fc181600554161515611f27565b6007805460ff60c01b1916600160c01b17905542600a55600654611fe690821661273d565b50600880546001600160a01b03191695909116948517905560408051938452602084019290925290820152426060820152909281906080820190565b0390a2565b519061ffff821682036101c557565b60075460ff8160d81c1680612223575b6120935750612053612b46565b908015801561208b575b61208457670de0b6b3a7640000918281029281840414901517156116e157611b7191611a12565b5050600090565b50811561205d565b600854604051633850c7bd60e01b81526001600160a01b039160e0908290600490829086165afa801561059857829160009161218b575b501680156121835760206120df8284936119ff565b936004604051809481936312a9293f60e21b8352165afa8015610598578291600091612164575b5016907f00000000000000000000000000000000000000000000000000000000000000001610612144578015611a1c576503782dace9d960d21b0490565b670de0b6b3a7640000908181029181830414901517156116e15760c01c90565b61217d915060203d6020116117a1576117928183611d0d565b38612106565b505050600090565b90915060e0813d60e01161221b575b816121a760e09383611d0d565b810103126122175780519183831683036122145760208201518060020b03612214576121d560408301612027565b506121e260608301612027565b506121ef60808301612027565b5060a082015160ff81160361221457509061220d60c0849301611e54565b50386120ca565b80fd5b5080fd5b3d915061219a565b506008546001600160a01b03161515612046565b600754600060ff8260c81c16156124f5576008546001600160a01b03919082169081156124c15761ffff60c01b198416600160c01b17600781905542600a5560d01c60ff1691821561245857508260095494856123d5575b50506007805460ff60d01b19169055905b83151590816123cc575b50612307575b507f6d6435bd27368eeaa8bea9975846b4ffc3d4864faabcec7e007dc6014f4ea055916120226122de612efc565b600854604080519788526020880194909452928601524260608601529116929081906080820190565b806020836008541660446040518094819363a9059cbb60e01b835261dead60048401528960248401525af19182156123c0578092612383575b50501561234d57386122b0565b60405162461bcd60e51b815260206004820152600e60248201526d1b1c08189d5c9b8819985a5b195960921b6044820152606490fd5b9091506020823d6020116123b8575b8161239f60209383611d0d565b8101031261221457506123b190611e54565b3880612340565b3d9150612392565b604051903d90823e3d90fd5b905015386122aa565b16803b15612217578180916064604051809481936323b872dd60e01b835230600484015261dead60248401528a60448401525af1801561244d57612421575b506009819055823861228f565b67ffffffffffffffff81116124395760405238612414565b634e487b7160e01b82526041600452602482fd5b6040513d84823e3d90fd5b602491929450602090604051928380926370a0823160e01b82523060048301525afa90811561244d57829161248f575b50926122a0565b90506020813d6020116124b9575b816124aa60209383611d0d565b81010312612217575138612488565b3d915061249d565b60405162461bcd60e51b815260206004820152600c60248201526b1c185a5c881b9bdd081cd95d60a21b6044820152606490fd5b60405162461bcd60e51b8152602060048201526012602482015271646578206375727665206e6f74206c69766560701b6044820152606490fd5b8015611abd576125626002547f000000000000000000000000000000000000000000000000000000000000000090611ac3565b906125ae600354926125a86125977f000000000000000000000000000000000000000000000000000000000000000086611ac3565b936125a285846119ff565b92611ac3565b90611a12565b8082111561218357611a7c91611c43565b600254906125ae6125f07f000000000000000000000000000000000000000000000000000000000000000084611ac3565b916125a86126216003547f000000000000000000000000000000000000000000000000000000000000000090611ac3565b916125a283866119ff565b60075460ff8160c01c16908115612656575b50611c215760025460045411611c2157611c21611f87565b60ff915060c81c163861263e565b8015611abd57604051630852cd8d60e31b81526004810182905260208160248160007f00000000000000000000000000000000000000000000000000000000000000006001600160a01b03165af190811561059857600091612703575b50156126ca5790565b60405162461bcd60e51b81526020600482015260116024820152701d1bdad95b88189d5c9b8819985a5b1959607a1b6044820152606490fd5b90506020813d602011612735575b8161271e60209383611d0d565b810103126101c55761272f90611e54565b386126c1565b3d9150612711565b6000916001600160a01b0391821690838215612af65760035491600254948660035586600255807f0000000000000000000000000000000000000000000000000000000000000000169681600554169181604091825163095ea7b360e01b90818152600496878201528360248201528c816044816020998a945af18015612aec579186918b93612aae575b50600554865191825284166001600160a01b031688820190815260208101939093529182908e9082908790829060400103925af18015612aa457612a6c575b508060055416610e104201804211612a59578b918d9186519c8d9363f305d71960e01b85528a8501528c6024850152866044850152866064850152608484015260a4830152815a9360c492606095f1998a15612a4f57829a839a8491612a0d575b5099809b809d846005541687519063c45a015560e01b825289828c81845afa9182156129e4578b9392918b918a936129ee575b508a516315ab88c960e31b815294859182905afa9283156129e457878b93928d928b966129be575b509060449291818d51978896879563e6a4390560e01b8752860152166024840152165afa9081156129b4578691612997575b509a81811161297f575b5050808211612912575b50505050505050565b83926129218493928493611c43565b908254165af161292f611ea5565b501561293e5780808080612909565b5162461bcd60e51b815291820152601860248201527f6574682064757374207472616e73666572206661696c65640000000000000000604482015260649150fd5b61298f929a509061164791611c43565b9738806128ff565b6129ae9150883d8a116117a1576117928183611d0d565b386128f5565b87513d88823e3d90fd5b604493929196506129db90863d88116117a1576117928183611d0d565b959091926128c3565b89513d8a823e3d90fd5b612a06919350823d84116117a1576117928183611d0d565b913861289b565b9b5050985060608a3d606011612a47575b81612a2b60609383611d0d565b810103126122175789519883858c01519b0151999a9938612868565b3d9150612a1e565b83513d84823e3d90fd5b634e487b7160e01b845260118752602484fd5b8481813d8311612a9d575b612a818183611d0d565b81010312612a9957612a9290611e54565b5038612807565b8280fd5b503d612a77565b84513d85823e3d90fd5b8281939294503d8311612ae5575b612ac68183611d0d565b81010312612ae1578991612ada8792611e54565b50386127c8565b8380fd5b503d612abc565b85513d86823e3d90fd5b60405162461bcd60e51b81526020600482015260146024820152731b1c081c9958d95a5d995c881c995c5d5a5c995960621b6044820152606490fd5b51906001600160701b03821682036101c557565b600854600091906001600160a01b03908390819083168015612ef45760075460ff8160d81c16612da357508360055416908115612d9a57604094855180936315ab88c960e31b825281600460209384935afa938415612d90578994612d71575b508651630dfe168160e01b8152908082600481875afa918215612d67578a92612d48575b50875163d21220a760e01b8152938185600481845afa948515612d3e578b95612d17575b509060606004928a5193848092630240bc6b60e21b82525afa9a8b15612d0c578099819c612cad575b5050505081807f00000000000000000000000000000000000000000000000000000000000000001691169281841480612ca0575b15612c6757505050505050506001600160701b03809116921690565b9598949796958216149283612c94575b505050612c82575050565b6001600160701b039081169450169150565b16149050388080612c77565b5082851683821614612c4b565b91939b509198506060893d606011612d04575b81612ccd60609383611d0d565b8101031261221757612ce9612ce18a612b32565b938a01612b32565b98015163ffffffff8116036122145750959738808080612c17565b3d9150612cc0565b8951903d90823e3d90fd5b82919550612d356060916004943d85116117a1576117928183611d0d565b95919250612bee565b89513d8d823e3d90fd5b81612d609293503d84116117a1576117928183611d0d565b9038612bca565b88513d8c823e3d90fd5b81612d899295503d86116117a1576117928183611d0d565b9238612ba6565b87513d8b823e3d90fd5b50505050508190565b9250949050826040958651936312a9293f60e21b8552846004816020958694165afa938415612eea578394612ecb575b5086516370a0823160e01b80825260048201839052909583876024817f000000000000000000000000000000000000000000000000000000000000000085165afa968715612ec1578597612e8e575b508392916024918a51978894859384526004840152165afa958615612e8357508195612e50575b5050509190565b909180939550813d8311612e7c575b612e698183611d0d565b8101031261221457505191388080612e49565b503d612e5f565b51913d9150823e3d90fd5b9096508381813d8311612eba575b612ea68183611d0d565b81010312612eb657519583612e22565b8480fd5b503d612e9c565b89513d87823e3d90fd5b612ee3919450823d84116117a1576117928183611d0d565b9238612dd3565b87513d85823e3d90fd5b505050508190565b6040516370a0823160e01b81523060048201526020816024817f00000000000000000000000000000000000000000000000000000000000000006001600160a01b03165afa90811561059857600091612f60575b508015611abd57611b7190612664565b90506020813d602011612f8a575b81612f7b60209383611d0d565b810103126101c5575138612f50565b3d9150612f6e56fea264697066735822122099d94b89887e277097556243b39d5582b3c47517b5d35fd712adf16acd5dca1264736f6c6343000818003360406101408152346200060d5762001808803803806200001f8162000612565b92833981019160e0828403126200060d5781516001600160401b03908181116200060d57846200005191850162000638565b9360209081850151908382116200060d576200006f91860162000638565b9083850151946200008360608201620006aa565b6200009160808301620006aa565b9060c0620000a260a08501620006aa565b93015198805115620005d957855115620005a35788156200056d576001600160a01b0382811697908815620005365780851615620004ff57851615620004c7576103e88b116200048e57815181811162000478576000978854916001948584811c941680156200046d575b8a85101462000459578190601f9485811162000406575b508a90858311600114620003a1578c9262000395575b5050600019600383901b1c191690851b1789555b8051928311620003815783548481811c9116801562000376575b898210146200036257908183859493116200030d575b5088918311600114620002a95789926200029d575b5050600019600383901b1c191690821b1790555b8760025560805260a05260c0528560e052610fa080870290878204148715171562000289576127109004946101209580875287039687116200028957907fddf252ad1be2c89b69c2b068fc378daa952ba7f163c4a11628f55a4df523b3ef916101009788528484526006825280868520558551908152a351906111489283620006c084396080518381816102430152818161030a0152610366015260a05183818161077d0152610c8d015260c051838181610198015261087a015260e05183818161064f0152610ec8015251828181610aec0152610f0601525181610a4e0152f35b634e487b7160e01b83526011600452602483fd5b01519050388062000193565b848a52888a208594509190601f1984168b5b8b828210620002f65750508411620002dc575b505050811b019055620001a7565b015160001960f88460031b161c19169055388080620002ce565b8385015186558897909501949384019301620002bb565b90919250848a52888a208380860160051c8201928b871062000358575b91869588929594930160051c01915b828110620003495750506200017e565b8c815586955087910162000339565b925081926200032a565b634e487b7160e01b8a52602260045260248afd5b90607f169062000168565b634e487b7160e01b89526041600452602489fd5b0151905038806200013a565b8c80528b8d208894509190601f1984168e8e5b828210620003ee5750508411620003d4575b505050811b0189556200014e565b015160001960f88460031b161c19169055388080620003c6565b8385015186558b979095019493840193018e620003b4565b9091508b80528a8c208580850160051c8201928d86106200044f575b918991869594930160051c01915b8281106200044057505062000124565b8e815585945089910162000430565b9250819262000422565b634e487b7160e01b8b52602260045260248bfd5b93607f16936200010d565b634e487b7160e01b600052604160045260246000fd5b885162461bcd60e51b81526004810187905260126024820152710e8e4c2c8ca40cccaca40e8dede40d0d2ced60731b6044820152606490fd5b885162461bcd60e51b81526004810187905260116024820152701c1b185d199bdc9b481c995c5d5a5c9959607a1b6044820152606490fd5b895162461bcd60e51b815260048101889052601060248201526f18dc99585d1bdc881c995c5d5a5c995960821b6044820152606490fd5b895162461bcd60e51b815260048101889052601060248201526f199858dd1bdc9e481c995c5d5a5c995960821b6044820152606490fd5b875162461bcd60e51b815260048101869052600f60248201526e1cdd5c1c1b1e481c995c5d5a5c9959608a1b6044820152606490fd5b875162461bcd60e51b815260048101869052600f60248201526e1cde5b589bdb081c995c5d5a5c9959608a1b6044820152606490fd5b875162461bcd60e51b815260048101869052600d60248201526c1b985b59481c995c5d5a5c9959609a1b6044820152606490fd5b600080fd5b6040519190601f01601f191682016001600160401b038111838210176200047857604052565b919080601f840112156200060d5782516001600160401b03811162000478576020906200066e601f8201601f1916830162000612565b928184528282870101116200060d5760005b8181106200069657508260009394955001015290565b858101830151848201840152820162000680565b51906001600160a01b03821682036200060d5756fe608060408181526004918236101561001657600080fd5b600092833560e01c91826302d05d3f14610c7957508163044991d814610c5a57816306fdde0314610b80578163095ea7b314610b0f57816317773ebb14610ad457816318160ddd14610ab55781631e26906b14610a8e5781632044dbb214610a7157816322dcd13e14610a3657816323b872dd1461092f5781632bebf6bf146108655781632f9f103214610849578163313ce5671461082d578163351fee461461076957816342966c681461068f5781635b632360146106725781635faad8c51461063757816370a08231146105ff57816395d89b41146104dc5781639e5f358a146104be578163a9059cbb1461048d578163ae36f5c814610339578163c45a0155146102f5578163dc4b1c0e1461022b57508063dd62ed3e146101e3578063e1a45218146101c7578063eb13554f146101845763f242ab411461015957600080fd5b3461018057816003193601126101805760035490516001600160a01b039091168152602090f35b5080fd5b5034610180578160031936011261018057517f00000000000000000000000000000000000000000000000000000000000000006001600160a01b03168152602090f35b5034610180578160031936011261018057602090516127108152f35b503461018057806003193601126101805780602092610200610d05565b610208610d20565b6001600160a01b0391821683526007865283832091168252845220549051908152f35b9050346102f157826003193601126102f157610271337f00000000000000000000000000000000000000000000000000000000000000006001600160a01b031614610dd6565b6003549160ff8360a01c166102ba57505060ff60a01b1916600160a01b17600355337f60b9765cf08f04b4850cd9a0f8da6fa9e854afd328723cc3f6adea6fb4f18d238280a280f35b906020606492519162461bcd60e51b83528201526011602482015270185b1c9958591e481c995b9bdd5b98d959607a1b6044820152fd5b8280fd5b505034610180578160031936011261018057517f00000000000000000000000000000000000000000000000000000000000000006001600160a01b03168152602090f35b8391503461018057602036600319011261018057610355610d05565b6001600160a01b0390819061038d337f0000000000000000000000000000000000000000000000000000000000000000841614610dd6565b1691821561045a576003549160ff8360a01c166104175782166103e157506001600160a01b03191681176003557fc3cd203585fbc28dcc1692611d2ebc4190312a5b189047df793c69b157aa0d298280a280f35b606490602086519162461bcd60e51b8352820152601060248201526f1c185a5c88185b1c9958591e481cd95d60821b6044820152fd5b855162461bcd60e51b8152602081840152601960248201527f666163746f727920636f6e74726f6c2072656e6f756e636564000000000000006044820152606490fd5b606490602086519162461bcd60e51b8352820152600d60248201526c1c185a5c881c995c5d5a5c9959609a1b6044820152fd5b5050346101805780600319360112610180576020906104b76104ad610d05565b6024359033610e31565b5160018152f35b9050346102f157826003193601126102f15760209250549051908152f35b8383346101805781600319360112610180578051908260018054908160011c90600183169283156105f5575b60209384841081146105e2578388529081156105c65750600114610570575b505050829003601f01601f191682019267ffffffffffffffff84118385101761055d5750829182610559925282610cbc565b0390f35b634e487b7160e01b815260418552602490fd5b600187529192508591837fb10e2d527612073b26eecdfd717e6a320cf44b4afac2b0732d9fcbe2b7fa0cf65b8385106105b25750505050830101858080610527565b80548886018301529301928490820161059c565b60ff1916878501525050151560051b8401019050858080610527565b634e487b7160e01b895260228a52602489fd5b91607f1691610508565b5050346101805760203660031901126101805760209181906001600160a01b03610627610d05565b1681526006845220549051908152f35b505034610180578160031936011261018057602090517f00000000000000000000000000000000000000000000000000000000000000008152f35b505034610180578160031936011261018057602090516103e88152f35b9050346102f157602092836003193601126107665781359182156107315750338152600684526106ce82848320546106c982821015610d98565b610d36565b33825260068552838220556106e582600254610d36565b60025582518281526000805160206110f3833981519152853392a381519081527fcc16f5dbb4873280815c1ee09dbd06736cffcc184412cf7a71a0fdb75d397ca5833392a25160018152f35b835162461bcd60e51b8152908101859052600f60248201526e185b5bdd5b9d081c995c5d5a5c9959608a1b6044820152606490fd5b80fd5b8383346101805781600319360112610180577f00000000000000000000000000000000000000000000000000000000000000006001600160a01b03811690338290036107fb57846107cd91602096549586926107c6841515610d59565b5530611010565b7fd046302bdc39599e60a5981e59227dcd1c643f512f56f2e984390c3ac6eadedb848351858152a251908152f35b825162461bcd60e51b8152602081870152600c60248201526b37b7363c9031b932b0ba37b960a11b6044820152606490fd5b5050346101805781600319360112610180576020905160128152f35b5050346101805781600319360112610180576020905160328152f35b919050346102f157826003193601126102f1577f0000000000000000000000000000000000000000000000000000000000000000916001600160a01b03831690338290036108fc57506108ce6020946005549485916108c5831515610d59565b60055530611010565b7f0636f1043cff5f4c437926a4412416778ddc5e970feb177685b587e81dad9095848351858152a251908152f35b606490602084519162461bcd60e51b8352820152600d60248201526c6f6e6c7920706c6174666f726d60981b6044820152fd5b919050346102f15760603660031901126102f15761094b610d05565b610953610d20565b6044359160018060a01b03811680875260209560078752858820338952875285882054908582106109fe5750948096976104b79686600019820361099c575b5050505050610e31565b6109a591610d36565b83825260078a528282203383528a528282205582815260078952818120338252895220549086519182527f8c5be1e5ebec7d5bd14f71427d1e84f3dd0314c0f7b2291e5b200ac8c7c3b925883393a33885818086610992565b865162461bcd60e51b81529081018890526012602482015271185b1b1bddd85b98d948195e18d95959195960721b6044820152606490fd5b505034610180578160031936011261018057602090517f00000000000000000000000000000000000000000000000000000000000000008152f35b50503461018057816003193601126101805760209051610fa08152f35b50503461018057816003193601126101805760209060ff60035460a01c1690519015158152f35b5050346101805781600319360112610180576020906002549051908152f35b505034610180578160031936011261018057602090517f00000000000000000000000000000000000000000000000000000000000000008152f35b50503461018057806003193601126101805760209181610b2d610d05565b91602435918291338152600787528181209460018060a01b0316948582528752205582519081527f8c5be1e5ebec7d5bd14f71427d1e84f3dd0314c0f7b2291e5b200ac8c7c3b925843392a35160018152f35b83833461018057816003193601126101805780519082835460018160011c9060018316928315610c50575b60209384841081146105e2578388529081156105c65750600114610bfb57505050829003601f01601f191682019267ffffffffffffffff84118385101761055d5750829182610559925282610cbc565b8680529192508591837f290decd9548b62a8d60345a988386fc84ba6bc95484008f6362f93160ef3e5635b838510610c3c5750505050830101858080610527565b805488860183015293019284908201610c26565b91607f1691610bab565b5050346101805781600319360112610180576020906005549051908152f35b8490346101805781600319360112610180577f00000000000000000000000000000000000000000000000000000000000000006001600160a01b03168152602090f35b6020808252825181830181905290939260005b828110610cf157505060409293506000838284010152601f8019910116010190565b818101860151848201604001528501610ccf565b600435906001600160a01b0382168203610d1b57565b600080fd5b602435906001600160a01b0382168203610d1b57565b91908203918211610d4357565b634e487b7160e01b600052601160045260246000fd5b15610d6057565b60405162461bcd60e51b815260206004820152601060248201526f6e6f7468696e6720746f20636c61696d60801b6044820152606490fd5b15610d9f57565b60405162461bcd60e51b815260206004820152600f60248201526e62616c616e636520746f6f206c6f7760881b6044820152606490fd5b15610ddd57565b60405162461bcd60e51b815260206004820152600c60248201526b6f6e6c7920666163746f727960a01b6044820152606490fd5b81810292918115918404141715610d4357565b91908201809211610d4357565b6001600160a01b03808316939192908415610fdc5783169260009184835260209260068452604091610e748383205491610e6d88841015610d98565b87956110b6565b80610fd3575b610ebd575b90610e9a6000805160206110f3833981519152968493610d36565b878252600686528282205587815220610eb4838254610e24565b905551908152a3565b612710888882610eed7f00000000000000000000000000000000000000000000000000000000000000008b610e11565b049283610efe575b50505050610e7f565b8695949397507f0000000000000000000000000000000000000000000000000000000000000000610f2f908b610e11565b0485888a848d610f3f8685610d36565b93610f4991610d36565b9b8560045490610f5891610e24565b6004558360055490610f6991610e24565b600555308a5260068352848a2081815490610f8391610e24565b9055845190815230926000805160206110f383398151915291a381519283528a8301527f93bd139ea85d53c55e02dec709128f827ebd5cb8a4a0d873193711b70b0a15b991a39091888838610ef5565b50851515610e7a565b60405162461bcd60e51b815260206004820152600c60248201526b7a65726f206164647265737360a01b6044820152606490fd5b60018060a01b038091169160009383855260066020526040852054818110611078576000805160206110f38339815191529360209361105184604094610d36565b878952600686528389205516958681522061106d828254610e24565b9055604051908152a3565b60405162461bcd60e51b81526020600482015260166024820152751a5b9cdd59999a58da595b9d08199959481d985d5b1d60521b6044820152606490fd5b6003546001600160a01b039081169182156110e957811682149283156110dd575b50505090565b161490503880806110d7565b5050505060009056feddf252ad1be2c89b69c2b068fc378daa952ba7f163c4a11628f55a4df523b3efa264697066735822122044fcb14b3f7cb8a9286eca6bf592a4f3caf9627e236f36d27101f0273e8f794e64736f6c6343000818003363726561746f72207472616e73666572206661696c6564000000000000000000047d6cd3e0239e764a392db701c655fea8a19d6d059350ec7d8df5dc840043208620494f920761bd37321ddd1f125e085d81426820d3ca4e8b1f0ab3dab7a578a2646970667358221220e571c896093f1d59c0a97934c00f0f66d7ab77059db4d6a13f92ecb6f077cc0c64736f6c63430008180033",
  "linkReferences": {},
  "deployedLinkReferences": {}
}