{
  "_format": "hh-sol-artifact-1",
  "contractName": "MemeLaunchFactory",
  "sourceName": "contracts/MemeLaunchFactory.sol",
  "abi": [
    {
      "inputs": [
        {
          "internalType": "address",
          "name": "_feeRecipient",
          "type": "address"
        },
        {
          "internalType": "address",
          "name": "_platformFeeRecipient",
          "type": "address"
        },
        {
          "internalType": "uint256",
          "name": "_defaultFeeBps",
          "type": "uint256"
        },
        {
          "internalType": "uint256",
          "name": "_launchFeeWei",
          "type": "uint256"
        },
        {
          "internalType": "uint256",
          "name": "_defaultVirtualEthReserve",
          "type": "uint256"
        },
        {
          "internalType": "uint256",
          "name": "_defaultVirtualTokenReserve",
          "type": "uint256"
        },
        {
          "internalType": "uint256",
          "name": "_defaultGraduationTargetEth",
          "type": "uint256"
        },
        {
          "internalType": "address",
          "name": "_defaultDexRouter",
          "type": "address"
        },
        {
          "internalType": "address",
          "name": "_defaultLpRecipient",
          "type": "address"
        }
      ],
      "stateMutability": "nonpayable",
      "type": "constructor"
    },
    {
      "anonymous": false,
      "inputs": [
        {
          "indexed": false,
          "internalType": "address",
          "name": "feeRecipient",
          "type": "address"
        },
        {
          "indexed": false,
          "internalType": "address",
          "name": "platformFeeRecipient",
          "type": "address"
        },
        {
          "indexed": false,
          "internalType": "uint256",
          "name": "feeBps",
          "type": "uint256"
        },
        {
          "indexed": false,
          "internalType": "uint256",
          "name": "launchFeeWei",
          "type": "uint256"
        },
        {
          "indexed": false,
          "internalType": "uint256",
          "name": "virtualEthReserve",
          "type": "uint256"
        },
        {
          "indexed": false,
          "internalType": "uint256",
          "name": "virtualTokenReserve",
          "type": "uint256"
        },
        {
          "indexed": false,
          "internalType": "uint256",
          "name": "graduationTargetEth",
          "type": "uint256"
        },
        {
          "indexed": false,
          "internalType": "address",
          "name": "dexRouter",
          "type": "address"
        },
        {
          "indexed": false,
          "internalType": "address",
          "name": "lpRecipient",
          "type": "address"
        }
      ],
      "name": "DefaultsUpdated",
      "type": "event"
    },
    {
      "anonymous": false,
      "inputs": [
        {
          "indexed": true,
          "internalType": "address",
          "name": "creator",
          "type": "address"
        },
        {
          "indexed": false,
          "internalType": "uint256",
          "name": "ethLiquidity",
          "type": "uint256"
        }
      ],
      "name": "InstantLaunchRequested",
      "type": "event"
    },
    {
      "anonymous": false,
      "inputs": [
        {
          "indexed": true,
          "internalType": "uint256",
          "name": "launchId",
          "type": "uint256"
        },
        {
          "indexed": true,
          "internalType": "address",
          "name": "creator",
          "type": "address"
        },
        {
          "indexed": true,
          "internalType": "address",
          "name": "token",
          "type": "address"
        },
        {
          "indexed": false,
          "internalType": "address",
          "name": "pool",
          "type": "address"
        },
        {
          "indexed": false,
          "internalType": "uint256",
          "name": "totalSupply",
          "type": "uint256"
        },
        {
          "indexed": false,
          "internalType": "uint256",
          "name": "creatorAllocation",
          "type": "uint256"
        },
        {
          "indexed": false,
          "internalType": "uint256",
          "name": "feeBps",
          "type": "uint256"
        },
        {
          "indexed": false,
          "internalType": "uint256",
          "name": "graduationTargetEth",
          "type": "uint256"
        },
        {
          "indexed": false,
          "internalType": "address",
          "name": "dexRouter",
          "type": "address"
        },
        {
          "indexed": false,
          "internalType": "address",
          "name": "lpRecipient",
          "type": "address"
        }
      ],
      "name": "LaunchCreated",
      "type": "event"
    },
    {
      "anonymous": false,
      "inputs": [
        {
          "indexed": true,
          "internalType": "address",
          "name": "payer",
          "type": "address"
        },
        {
          "indexed": true,
          "internalType": "address",
          "name": "recipient",
          "type": "address"
        },
        {
          "indexed": false,
          "internalType": "uint256",
          "name": "amountWei",
          "type": "uint256"
        }
      ],
      "name": "LaunchFeePaid",
      "type": "event"
    },
    {
      "anonymous": false,
      "inputs": [
        {
          "indexed": true,
          "internalType": "address",
          "name": "previousOwner",
          "type": "address"
        },
        {
          "indexed": true,
          "internalType": "address",
          "name": "newOwner",
          "type": "address"
        }
      ],
      "name": "OwnershipTransferred",
      "type": "event"
    },
    {
      "anonymous": false,
      "inputs": [
        {
          "indexed": true,
          "internalType": "uint256",
          "name": "launchId",
          "type": "uint256"
        },
        {
          "indexed": true,
          "internalType": "address",
          "name": "token",
          "type": "address"
        },
        {
          "indexed": false,
          "internalType": "uint256",
          "name": "tradeFeeBps",
          "type": "uint256"
        },
        {
          "indexed": false,
          "internalType": "uint256",
          "name": "creatorFeeBps",
          "type": "uint256"
        },
        {
          "indexed": false,
          "internalType": "uint256",
          "name": "platformFeeBps",
          "type": "uint256"
        }
      ],
      "name": "TokenTaxConfigured",
      "type": "event"
    },
    {
      "inputs": [],
      "name": "BPS_DENOMINATOR",
      "outputs": [
        {
          "internalType": "uint256",
          "name": "",
          "type": "uint256"
        }
      ],
      "stateMutability": "view",
      "type": "function"
    },
    {
      "inputs": [],
      "name": "BURN_ADDRESS",
      "outputs": [
        {
          "internalType": "address",
          "name": "",
          "type": "address"
        }
      ],
      "stateMutability": "view",
      "type": "function"
    },
    {
      "inputs": [],
      "name": "DEFAULT_TOKEN_TRADE_FEE_BPS",
      "outputs": [
        {
          "internalType": "uint256",
          "name": "",
          "type": "uint256"
        }
      ],
      "stateMutability": "view",
      "type": "function"
    },
    {
      "inputs": [],
      "name": "MAX_TOKEN_TRADE_FEE_BPS",
      "outputs": [
        {
          "internalType": "uint256",
          "name": "",
          "type": "uint256"
        }
      ],
      "stateMutability": "view",
      "type": "function"
    },
    {
      "inputs": [],
      "name": "ROBINHOOD_CHAIN_ID",
      "outputs": [
        {
          "internalType": "uint256",
          "name": "",
          "type": "uint256"
        }
      ],
      "stateMutability": "view",
      "type": "function"
    },
    {
      "inputs": [
        {
          "internalType": "string",
          "name": "name",
          "type": "string"
        },
        {
          "internalType": "string",
          "name": "symbol",
          "type": "string"
        },
        {
          "internalType": "string",
          "name": "imageURI",
          "type": "string"
        },
        {
          "internalType": "string",
          "name": "description",
          "type": "string"
        },
        {
          "internalType": "uint256",
          "name": "totalSupply",
          "type": "uint256"
        },
        {
          "internalType": "uint256",
          "name": "creatorAllocationBps",
          "type": "uint256"
        }
      ],
      "name": "createLaunch",
      "outputs": [
        {
          "internalType": "uint256",
          "name": "launchId",
          "type": "uint256"
        },
        {
          "internalType": "address",
          "name": "tokenAddress",
          "type": "address"
        },
        {
          "internalType": "address",
          "name": "poolAddress",
          "type": "address"
        }
      ],
      "stateMutability": "payable",
      "type": "function"
    },
    {
      "inputs": [
        {
          "internalType": "string",
          "name": "name",
          "type": "string"
        },
        {
          "internalType": "string",
          "name": "symbol",
          "type": "string"
        },
        {
          "internalType": "string",
          "name": "imageURI",
          "type": "string"
        },
        {
          "internalType": "string",
          "name": "description",
          "type": "string"
        },
        {
          "internalType": "uint256",
          "name": "totalSupply",
          "type": "uint256"
        },
        {
          "internalType": "uint256",
          "name": "creatorAllocationBps",
          "type": "uint256"
        }
      ],
      "name": "createLaunchInstant",
      "outputs": [
        {
          "internalType": "uint256",
          "name": "launchId",
          "type": "uint256"
        },
        {
          "internalType": "address",
          "name": "tokenAddress",
          "type": "address"
        },
        {
          "internalType": "address",
          "name": "poolAddress",
          "type": "address"
        }
      ],
      "stateMutability": "payable",
      "type": "function"
    },
    {
      "inputs": [
        {
          "internalType": "string",
          "name": "name",
          "type": "string"
        },
        {
          "internalType": "string",
          "name": "symbol",
          "type": "string"
        },
        {
          "internalType": "string",
          "name": "imageURI",
          "type": "string"
        },
        {
          "internalType": "string",
          "name": "description",
          "type": "string"
        },
        {
          "internalType": "uint256",
          "name": "totalSupply",
          "type": "uint256"
        },
        {
          "internalType": "uint256",
          "name": "creatorAllocationBps",
          "type": "uint256"
        },
        {
          "internalType": "uint256",
          "name": "tokenTradeFeeBps",
          "type": "uint256"
        }
      ],
      "name": "createLaunchInstantWithTax",
      "outputs": [
        {
          "internalType": "uint256",
          "name": "launchId",
          "type": "uint256"
        },
        {
          "internalType": "address",
          "name": "tokenAddress",
          "type": "address"
        },
        {
          "internalType": "address",
          "name": "poolAddress",
          "type": "address"
        }
      ],
      "stateMutability": "payable",
      "type": "function"
    },
    {
      "inputs": [
        {
          "internalType": "string",
          "name": "name",
          "type": "string"
        },
        {
          "internalType": "string",
          "name": "symbol",
          "type": "string"
        },
        {
          "internalType": "string",
          "name": "imageURI",
          "type": "string"
        },
        {
          "internalType": "string",
          "name": "description",
          "type": "string"
        },
        {
          "internalType": "uint256",
          "name": "totalSupply",
          "type": "uint256"
        },
        {
          "internalType": "uint256",
          "name": "creatorAllocationBps",
          "type": "uint256"
        },
        {
          "internalType": "uint256",
          "name": "tokenTradeFeeBps",
          "type": "uint256"
        }
      ],
      "name": "createLaunchWithTax",
      "outputs": [
        {
          "internalType": "uint256",
          "name": "launchId",
          "type": "uint256"
        },
        {
          "internalType": "address",
          "name": "tokenAddress",
          "type": "address"
        },
        {
          "internalType": "address",
          "name": "poolAddress",
          "type": "address"
        }
      ],
      "stateMutability": "payable",
      "type": "function"
    },
    {
      "inputs": [],
      "name": "defaultDexRouter",
      "outputs": [
        {
          "internalType": "address",
          "name": "",
          "type": "address"
        }
      ],
      "stateMutability": "view",
      "type": "function"
    },
    {
      "inputs": [],
      "name": "defaultFeeBps",
      "outputs": [
        {
          "internalType": "uint256",
          "name": "",
          "type": "uint256"
        }
      ],
      "stateMutability": "view",
      "type": "function"
    },
    {
      "inputs": [],
      "name": "defaultGraduationTargetEth",
      "outputs": [
        {
          "internalType": "uint256",
          "name": "",
          "type": "uint256"
        }
      ],
      "stateMutability": "view",
      "type": "function"
    },
    {
      "inputs": [],
      "name": "defaultLpRecipient",
      "outputs": [
        {
          "internalType": "address",
          "name": "",
          "type": "address"
        }
      ],
      "stateMutability": "view",
      "type": "function"
    },
    {
      "inputs": [],
      "name": "defaultVirtualEthReserve",
      "outputs": [
        {
          "internalType": "uint256",
          "name": "",
          "type": "uint256"
        }
      ],
      "stateMutability": "view",
      "type": "function"
    },
    {
      "inputs": [],
      "name": "defaultVirtualTokenReserve",
      "outputs": [
        {
          "internalType": "uint256",
          "name": "",
          "type": "uint256"
        }
      ],
      "stateMutability": "view",
      "type": "function"
    },
    {
      "inputs": [],
      "name": "feeRecipient",
      "outputs": [
        {
          "internalType": "address",
          "name": "",
          "type": "address"
        }
      ],
      "stateMutability": "view",
      "type": "function"
    },
    {
      "inputs": [
        {
          "internalType": "uint256",
          "name": "launchId",
          "type": "uint256"
        }
      ],
      "name": "getLaunch",
      "outputs": [
        {
          "components": [
            {
              "internalType": "address",
              "name": "token",
              "type": "address"
            },
            {
              "internalType": "address",
              "name": "pool",
              "type": "address"
            },
            {
              "internalType": "address",
              "name": "creator",
              "type": "address"
            },
            {
              "internalType": "string",
              "name": "name",
              "type": "string"
            },
            {
              "internalType": "string",
              "name": "symbol",
              "type": "string"
            },
            {
              "internalType": "string",
              "name": "imageURI",
              "type": "string"
            },
            {
              "internalType": "string",
              "name": "description",
              "type": "string"
            },
            {
              "internalType": "uint256",
              "name": "totalSupply",
              "type": "uint256"
            },
            {
              "internalType": "uint256",
              "name": "creatorAllocation",
              "type": "uint256"
            },
            {
              "internalType": "uint256",
              "name": "createdAt",
              "type": "uint256"
            }
          ],
          "internalType": "struct MemeLaunchFactory.LaunchInfo",
          "name": "",
          "type": "tuple"
        }
      ],
      "stateMutability": "view",
      "type": "function"
    },
    {
      "inputs": [],
      "name": "getLaunchCount",
      "outputs": [
        {
          "internalType": "uint256",
          "name": "",
          "type": "uint256"
        }
      ],
      "stateMutability": "view",
      "type": "function"
    },
    {
      "inputs": [
        {
          "internalType": "uint256",
          "name": "offset",
          "type": "uint256"
        },
        {
          "internalType": "uint256",
          "name": "limit",
          "type": "uint256"
        }
      ],
      "name": "getLaunches",
      "outputs": [
        {
          "components": [
            {
              "internalType": "address",
              "name": "token",
              "type": "address"
            },
            {
              "internalType": "address",
              "name": "pool",
              "type": "address"
            },
            {
              "internalType": "address",
              "name": "creator",
              "type": "address"
            },
            {
              "internalType": "string",
              "name": "name",
              "type": "string"
            },
            {
              "internalType": "string",
              "name": "symbol",
              "type": "string"
            },
            {
              "internalType": "string",
              "name": "imageURI",
              "type": "string"
            },
            {
              "internalType": "string",
              "name": "description",
              "type": "string"
            },
            {
              "internalType": "uint256",
              "name": "totalSupply",
              "type": "uint256"
            },
            {
              "internalType": "uint256",
              "name": "creatorAllocation",
              "type": "uint256"
            },
            {
              "internalType": "uint256",
              "name": "createdAt",
              "type": "uint256"
            }
          ],
          "internalType": "struct MemeLaunchFactory.LaunchInfo[]",
          "name": "data",
          "type": "tuple[]"
        }
      ],
      "stateMutability": "view",
      "type": "function"
    },
    {
      "inputs": [],
      "name": "launchFeeWei",
      "outputs": [
        {
          "internalType": "uint256",
          "name": "",
          "type": "uint256"
        }
      ],
      "stateMutability": "view",
      "type": "function"
    },
    {
      "inputs": [],
      "name": "owner",
      "outputs": [
        {
          "internalType": "address",
          "name": "",
          "type": "address"
        }
      ],
      "stateMutability": "view",
      "type": "function"
    },
    {
      "inputs": [],
      "name": "platformFeeRecipient",
      "outputs": [
        {
          "internalType": "address",
          "name": "",
          "type": "address"
        }
      ],
      "stateMutability": "view",
      "type": "function"
    },
    {
      "inputs": [
        {
          "internalType": "address",
          "name": "token",
          "type": "address"
        }
      ],
      "name": "poolByToken",
      "outputs": [
        {
          "internalType": "address",
          "name": "pool",
          "type": "address"
        }
      ],
      "stateMutability": "view",
      "type": "function"
    },
    {
      "inputs": [
        {
          "internalType": "address",
          "name": "newFeeRecipient",
          "type": "address"
        },
        {
          "internalType": "address",
          "name": "newPlatformFeeRecipient",
          "type": "address"
        },
        {
          "internalType": "uint256",
          "name": "newFeeBps",
          "type": "uint256"
        },
        {
          "internalType": "uint256",
          "name": "newLaunchFeeWei",
          "type": "uint256"
        },
        {
          "internalType": "uint256",
          "name": "newVirtualEthReserve",
          "type": "uint256"
        },
        {
          "internalType": "uint256",
          "name": "newVirtualTokenReserve",
          "type": "uint256"
        },
        {
          "internalType": "uint256",
          "name": "newGraduationTargetEth",
          "type": "uint256"
        },
        {
          "internalType": "address",
          "name": "newDexRouter",
          "type": "address"
        },
        {
          "internalType": "address",
          "name": "newLpRecipient",
          "type": "address"
        }
      ],
      "name": "setDefaults",
      "outputs": [],
      "stateMutability": "nonpayable",
      "type": "function"
    },
    {
      "inputs": [
        {
          "internalType": "address",
          "name": "newOwner",
          "type": "address"
        }
      ],
      "name": "transferOwnership",
      "outputs": [],
      "stateMutability": "nonpayable",
      "type": "function"
    }
  ],
  "bytecode": "0x608034620002fd57601f620081e938819003918201601f191683019291906001600160401b038411838510176200030257816101209284926040968752833981010312620002fd57620000528162000318565b6020916200006283820162000318565b92848201516060830151608084015160a08501519160c0860151936200009a6101006200009260e08a0162000318565b980162000318565b6001600160a01b03988916999097908a15620002b95761012c83116200028657891690811562000242578415620001fe578515620001ba57861562000184578916968762000139575b5060018060a01b031999338b60005416176000558a60015416176001558960025416176002556003556004556005556006556007558360085416176008551690600954161760095551617ebb90816200032e8239f35b898916620000e3576064908c519062461bcd60e51b82526004820152601560248201527f6c7020726563697069656e7420726571756972656400000000000000000000006044820152fd5b8b5162461bcd60e51b815260048101899052600f60248201526e1d185c99d95d081c995c5d5a5c9959608a1b6044820152606490fd5b8b5162461bcd60e51b815260048101899052601660248201527f7669727475616c20746f6b656e207265717569726564000000000000000000006044820152606490fd5b8b5162461bcd60e51b815260048101899052601460248201527f7669727475616c206574682072657175697265640000000000000000000000006044820152606490fd5b8b5162461bcd60e51b815260048101899052601b60248201527f706c6174666f726d20726563697069656e7420726571756972656400000000006044820152606490fd5b8b5162461bcd60e51b815260048101899052600c60248201526b0cccaca40e8dede40d0d2ced60a31b6044820152606490fd5b8b5162461bcd60e51b815260048101899052601660248201527f66656520726563697069656e74207265717569726564000000000000000000006044820152606490fd5b600080fd5b634e487b7160e01b600052604160045260246000fd5b51906001600160a01b0382168203620002fd5756fe6102008060405260043610156200001557600080fd5b60003560e01c9081630b0420bb1462003f39575080631036338c146200325657806313ed4aa6146200322b5780631c8c0d92146200320b57806339cbfa1f14620031ec5780633c0f430514620024c45780634690484014620024995780634a9ddfdd146200247b5780635930d3ce14620023e757806363f0eb0414620023c757806380fa02f714620023a857806383eeb3bb14620023885780638da5cb5b146200235d57806393a8e04d146200233d57806396875aa014620015ec5780639b3b9f9814620015615780639ff0251f1462001541578063b82942a514620011de578063bcae25a414620011be578063d578192c1462001193578063e1a452181462001174578063eb13554f1462001149578063f01818921462000220578063f2fde38b14620001715763fccc2813146200014d57600080fd5b346200016c5760003660031901126200016c57602060405161dead8152f35b600080fd5b346200016c5760203660031901126200016c576200018e62003f75565b6000546001600160a01b0380821692620001aa338514620046bd565b16918215620001ea5782907f8be0079c531659141344cd1fd0a4f28419497f9722a3daafe3b4186f6b6457e0600080a36001600160a01b03191617600055005b60405162461bcd60e51b815260206004820152600e60248201526d1bdddb995c881c995c5d5a5c995960921b6044820152606490fd5b6200022b3662004051565b6080526008549899919890969195929492919062000254906001600160a01b031615156200449d565b6009546200026d906001600160a01b03161515620044df565b620002886004546200028181341162004523565b346200457b565b9762000293620046f7565b6040518981527fac9d85dc25663b5cc567afaed6bb7823377f8f9f4164bc741a6ed341c04a8ec760203392a2600060c0528a1562001114578115620010dd578915620010a6576107d088116200106b576103e8608051116200103157600254604051906001600160a01b03166001600160401b0361172d8301908111908311176200101b578190620003576200033f8f61172d62006719863960e061172d860181815201908d6200483d565b61172d84018103602061172d8601015286866200483d565b908d604061172d8501015230606061172d8501015233608061172d8501015260a061172d8401015260805160c061172d8401015203906000f060a05260a0511562000ec5576002546001600160a01b03163314620003b58162004878565b9960018060a01b03600154166003546005546006546007549160018060a01b0360085416936040519586611e5e8101106001600160401b03611e5e890111176200101b57611e5e620048bb883960a080516001600160a01b03908116611e5e8a019081523060208201526040810193909352606083019390935260808201939093529182019290925260c081019290925260e0820192909252908d166101008201528190036101200191f061012052610120511562000ec5578a89810204890362001005576200048c6127108a8d02048c6200457b565b60405163a9059cbb60e01b8152610120516001600160a01b0390811660048301526024820183905260a05160209183916044918391600091165af190811562000ec55760009162000fe1575b501562000fa557898c6127108282020462000ed1575b5050610120516001600160a01b03163b156200016c5760405190639556483760e01b825260048201526000816024818360018060a01b0361012051165af1801562000ec55762000eae575b50610120516001600160a01b03163b1562000dcc576040516309485dc960e21b815260c051610120518290600490829084906001600160a01b03165af18015620009915762000e94575b506040516306b456ef60e21b815261012051602090829060049082906001600160a01b03165afa908115620009915760c0519162000e4b575b506001600160a01b03811662000dde575b5080159062000dd2575b62000d64575b60a05160c080516001600160a01b039283169052600b60205251604090206101205181546001600160a01b0319169216919091179055600a549a600160401b8c101562000ab55760018c01600a55620006368c620042bc565b5050620006438c620042bc565b5060a05181546001600160a01b03199081166001600160a01b03928316178355610120516001840180548316919093161790915560028201805490911633179055976001600160401b03821162000ab5578190620006a560038b01546200430d565b601f811162000d09575b5060c05190601f831160011462000c935760c0519262000c87575b50508160011b916000199060031b1c19161760038801555b6001600160401b03821162000ab55781906200070260048901546200430d565b601f811162000c2c575b5060c05190601f831160011462000bb65760c0519262000baa575b50508160011b916000199060031b1c19161760048601555b6001600160401b03821162000ab55781906200075f60058701546200430d565b601f811162000b4f575b5060c05190601f831160011462000ad95760c0519262000acd575b50508160011b916000199060031b1c19161760058401555b6001600160401b03821162000ab5578190620007bc60068501546200430d565b601f811162000a5a575b5060c05190601f8311600114620009e45760c05192620009d8575b50508160011b916000199060031b1c19161760068201555b8360078201556127108285020460088201556009429101556003546007549061271060018060a01b0360085416936040519660018060a01b0361012051168852806020890152020460408601526060850152608084015260a083015260018060a01b031660c082015260018060a01b0360a05116908260008051602062007e6683398151915260e03393a4604051906317773ebb60e01b825260208260048160018060a01b0360a051165afa918215620009915760c051926200099e575b506040519163116e689f60e11b835260208360048160018060a01b0360a051165afa8015620009915760c0519062000956575b620009529350604051916080518352602083015260408201528160008051602062007e46833981519152606060018060a01b0360a0511693a3604080516101205160a0519382526001600160a01b039384166020830152909216908201529081906060820190565b0390f35b506020833d60201162000988575b81620009736020938362004249565b810103126200016c57620009529251620008ea565b3d915062000964565b6040513d60c051823e3d90fd5b9091506020813d602011620009cf575b81620009bd6020938362004249565b810103126200016c57519082620008b7565b3d9150620009ae565b013590508780620007e1565b60c080516006870190525160208120909450915b601f198416851062000a41576001945083601f1981161062000a26575b505050811b016006820155620007f9565b0135600019600384901b60f8161c1916905587808062000a15565b81810135835560209485019460019093019201620009f8565b9091506006840160c05152602060c05120601f840160051c81016020851062000aad575b90849392915b601f830160051c8201811062000a9c575050620007c6565b60c051815585945060010162000a84565b508062000a7e565b634e487b7160e01b60c051526041600452602460c051fd5b01359050898062000784565b60c080516005890190525160208120909450915b601f198416851062000b36576001945083601f1981161062000b1b575b505050811b0160058401556200079c565b0135600019600384901b60f8161c1916905589808062000b0a565b8181013583556020948501946001909301920162000aed565b9091506005860160c05152602060c05120601f840160051c81016020851062000ba2575b90849392915b601f830160051c8201811062000b9157505062000769565b60c051815585945060010162000b79565b508062000b73565b013590508b8062000727565b60c0805160048b0190525160208120909450915b601f198416851062000c13576001945083601f1981161062000bf8575b505050811b0160048601556200073f565b0135600019600384901b60f8161c191690558b808062000be7565b8181013583556020948501946001909301920162000bca565b9091506004880160c05152602060c05120601f840160051c81016020851062000c7f575b90849392915b601f830160051c8201811062000c6e5750506200070c565b60c051815585945060010162000c56565b508062000c50565b013590508d80620006ca565b60c0805160038d0190525160208120909450915b601f198416851062000cf0576001945083601f1981161062000cd5575b505050811b016003880155620006e2565b0135600019600384901b60f8161c191690558d808062000cc4565b8181013583556020948501946001909301920162000ca7565b90915060038a0160c05152602060c05120601f840160051c81016020851062000d5c575b90849392915b601f830160051c8201811062000d4b575050620006af565b60c051815585945060010162000d33565b508062000d2d565b60a0516001600160a01b03163b1562000dcc57604051636e258e0760e11b815260c05160a0518290600490829084906001600160a01b03165af18015620009915762000db2575b50620005dd565b62000dbd9062004235565b60c05162000dcc578b62000dab565b60c05180fd5b506112374614620005d7565b60a0516001600160a01b03163b1562000dcc576040516315c6deb960e31b81526001600160a01b03918216600482015260c05160a05191929091839160249183918591165af18015620009915715620005cd5762000e3c9062004235565b60c05162000dcc578c620005cd565b90506020813d60201162000e8b575b8162000e696020938362004249565b8101031262000dcc57516001600160a01b038116810362000dcc578d620005bc565b3d915062000e5a565b62000e9f9062004235565b60c05162000dcc578c62000583565b62000eb99062004235565b600060c0528c62000539565b6040513d6000823e3d90fd5b60405163a9059cbb60e01b81523360048201526127109190920204602482015260208180604481010381600060018060a01b0360a051165af190811562000ec55760009162000f6f575b501562000f2a57898c620004ee565b60405162461bcd60e51b815260206004820152601760248201527f63726561746f72207472616e73666572206661696c65640000000000000000006044820152606490fd5b62000f96915060203d60201162000f9d575b62000f8d818362004249565b8101906200485e565b8e62000f1b565b503d62000f81565b60405162461bcd60e51b81526020600482015260146024820152731c1bdbdb081d1c985b9cd9995c8819985a5b195960621b6044820152606490fd5b62000ffe915060203d60201162000f9d5762000f8d818362004249565b8e620004d8565b634e487b7160e01b600052601160045260246000fd5b634e487b7160e01b600052604160045260246000fd5b60405162461bcd60e51b81526020600482015260126024820152710e8e4c2c8ca40cccaca40e8dede40d0d2ced60731b6044820152606490fd5b60405162461bcd60e51b81526020600482015260136024820152720c2d8d8dec6c2e8d2dedc40e8dede40d0d2ced606b1b6044820152606490fd5b60405162461bcd60e51b815260206004820152600f60248201526e1cdd5c1c1b1e481c995c5d5a5c9959608a1b6044820152606490fd5b60405162461bcd60e51b815260206004820152600f60248201526e1cde5b589bdb081c995c5d5a5c9959608a1b6044820152606490fd5b60405162461bcd60e51b815260206004820152600d60248201526c1b985b59481c995c5d5a5c9959609a1b6044820152606490fd5b346200016c5760003660031901126200016c576002546040516001600160a01b039091168152602090f35b346200016c5760003660031901126200016c5760206040516127108152f35b346200016c5760003660031901126200016c576008546040516001600160a01b039091168152602090f35b346200016c5760003660031901126200016c576020600354604051908152f35b346200016c576101203660031901126200016c57620011fc62003f75565b6024356001600160a01b03811681036200016c5760649160e4356001600160a01b03811681036200016c5761010435916001600160a01b03831683036200016c576200125460018060a01b03600054163314620046bd565b6001600160a01b031692831562001504576001600160a01b03811615620014c05761012c604435116200148d5760843515620014525760a43515620014155760c43515620013df576001600160a01b03821662001394575b907f62de0c78f593b14f1d09c895ce83a42ea45a7d77a716a05432a53193305b3c5a946101209493926001600160601b0360a01b8581600154161760015560018060a01b038216816002541617600255604435600355823560045560843560055560a43560065560c43560075560018060a01b03841681600854161760085560018060a01b03851690600954161760095560405194855260018060a01b031660208501526044356040850152356060840152608435608084015260a43560a084015260c43560c084015260018060a01b031660e083015260018060a01b0316610100820152a1005b6001600160a01b038316620012ac5760405162461bcd60e51b81526020600482015260156024820152741b1c081c9958da5c1a595b9d081c995c5d5a5c9959605a1b60448201528590fd5b60405162461bcd60e51b815260206004820152600f60248201526e1d185c99d95d081c995c5d5a5c9959608a1b60448201528590fd5b60405162461bcd60e51b81526020600482015260166024820152751d9a5c9d1d585b081d1bdad95b881c995c5d5a5c995960521b60448201528590fd5b60405162461bcd60e51b81526020600482015260146024820152731d9a5c9d1d585b08195d1a081c995c5d5a5c995960621b60448201528590fd5b60405162461bcd60e51b815260206004820152600c60248201526b0cccaca40e8dede40d0d2ced60a31b60448201528590fd5b60405162461bcd60e51b815260206004820152601b60248201527f706c6174666f726d20726563697069656e74207265717569726564000000000060448201528590fd5b60405162461bcd60e51b8152602060048201526016602482015275199959481c9958da5c1a595b9d081c995c5d5a5c995960521b60448201528590fd5b346200016c5760003660031901126200016c576020600a54604051908152f35b346200016c5760403660031901126200016c5762001584602435600435620045b6565b60405160209160208201926020835281518094526040830193602060408260051b8601019301916000955b828710620015bd5785850386f35b909192938280620015db600193603f198a820301865288516200412c565b9601920196019592919092620015af565b620015f73662003fbc565b946200161860018060a09c97949a9b9c9695961b036008541615156200449d565b60095462001631906001600160a01b03161515620044df565b620016456004546200028181341162004523565b9662001650620046f7565b6040518881527fac9d85dc25663b5cc567afaed6bb7823377f8f9f4164bc741a6ed341c04a8ec760203392a26000610100528a1562001114578015620010dd578815620010a6576107d087116200106b57600061010052600254604051906001600160a01b03166001600160401b0361172d8301908111908311176200101b578190620017118d8f620016fa8c889261172d62006719893960e061172d890181815201916200483d565b9161172d86018303602061172d880101526200483d565b908c604061172d8501015230606061172d8501015233608061172d8501015260a061172d84010152603260c061172d8401015203906000f060e05260e0511562000ec5576002546001600160a01b03163314996200176f8b62004878565b600154600354600554600654600754600854604051969f96956001600160a01b039182169592949291166001600160401b03611e5e8801908111908811176200101b57611e5e620048bb883960e080516001600160a01b03908116611e5e8a0190815230602082015260408101939093526060830193909352608082019390935260a081019390935260c08301939093528101929092528c166101008201528190036101200191f09a8b1562000ec5578a89810204890362001005578b620018766020620018458e6127108e820204906200457b565b60405163a9059cbb60e01b81526001600160a01b039094166004850152602484018190529291829081906044820190565b0381600060018060a01b0360e051165af190811562000ec55760009162002319575b501562000fa557898c612710828202046200229c575b50506001600160a01b038d163b156200016c5760008d602482936040519485938492639556483760e01b8452600484015260018060a01b03165af1801562000ec55762002284575b506001600160a01b038c163b156200219e576040516309485dc960e21b81528c816004816101005193610100519060018060a01b03165af1801562001d505762002269575b50600460208d604051928380926306b456ef60e21b825260018060a01b03165afa90811562001d5057610100519162002220575b506001600160a01b038116620021b1575b50801590620021a5575b62002134575b60e05161010080516001600160a01b039283169052600b602052516040902080546001600160a01b031916918d16919091179055600a549b600160401b8d101562001e775760018d01600a55620019e78d620042bc565b5050620019f48d620042bc565b509760018060a01b0360e051166001600160601b0360a01b8a5416178955600189018d60018060a01b03166001600160601b0360a01b82541617905560028901336001600160601b0360a01b8254161790556001600160401b03821162001e7757819062001a6660038b01546200430d565b601f8111620020d6575b506101005190601f83116001146200205f57610100519262002053575b50508160011b916000199060031b1c19161760038801555b6001600160401b03821162001e7757819062001ac560048901546200430d565b601f811162001ff5575b506101005190601f831160011462001f7e57610100519262001f72575b50508160011b916000199060031b1c19161760048601555b6001600160401b03821162001e7757819062001b2460058701546200430d565b601f811162001f14575b506101005190601f831160011462001e9d57610100519262001e91575b50508160011b916000199060031b1c19161760058401555b6001600160401b03821162001e7757819062001b8360068501546200430d565b601f811162001e19575b506101005190601f831160011462001da257610100519262001d96575b50508160011b916000199060031b1c19161760068201555b8360078201556127108285020460088201556009429101556003546007549061271060018060a01b0360085416936040519660018060a01b0389168852806020890152020460408601526060850152608084015260a083015260018060a01b031660c082015260018060a01b0360e05116908360008051602062007e6683398151915260e03393a46040516317773ebb60e01b815260e051602090829060049082906001600160a01b03165afa90811562001d5057610100519162001d5e575b5060405163116e689f60e11b815260e051602090829060049082906001600160a01b03165afa90811562001d5057610100519162001d18575b506040519160328352602083015260408201528260008051602062007e46833981519152606060018060a01b0360e0511693a36040805160e0519381526001600160a01b0393841660208201529190921691810191909152606090f35b90506020813d60201162001d47575b8162001d366020938362004249565b810103126200016c57518462001cbb565b3d915062001d27565b6040513d61010051823e3d90fd5b90506020813d60201162001d8d575b8162001d7c6020938362004249565b810103126200016c57518362001c82565b3d915062001d6d565b01359050888062001baa565b61010080516006870190525160208120909450915b601f198416851062001e00576001945083601f1981161062001de5575b505050811b01600682015562001bc2565b0135600019600384901b60f8161c1916905588808062001dd4565b8181013583556020948501946001909301920162001db7565b90915060068401610100515260206101005120601f840160051c81016020851062001e6f575b90849392915b601f830160051c8201811062001e5d57505062001b8d565b61010051815585945060010162001e45565b508062001e3f565b634e487b7160e01b61010051526041600452602461010051fd5b013590508a8062001b4b565b61010080516005890190525160208120909450915b601f198416851062001efb576001945083601f1981161062001ee0575b505050811b01600584015562001b63565b0135600019600384901b60f8161c191690558a808062001ecf565b8181013583556020948501946001909301920162001eb2565b90915060058601610100515260206101005120601f840160051c81016020851062001f6a575b90849392915b601f830160051c8201811062001f5857505062001b2e565b61010051815585945060010162001f40565b508062001f3a565b013590508c8062001aec565b610100805160048b0190525160208120909450915b601f198416851062001fdc576001945083601f1981161062001fc1575b505050811b01600486015562001b04565b0135600019600384901b60f8161c191690558c808062001fb0565b8181013583556020948501946001909301920162001f93565b90915060048801610100515260206101005120601f840160051c8101602085106200204b575b90849392915b601f830160051c820181106200203957505062001acf565b61010051815585945060010162002021565b50806200201b565b013590508e8062001a8d565b610100805160038d0190525160208120909450915b601f1984168510620020bd576001945083601f19811610620020a2575b505050811b01600388015562001aa5565b0135600019600384901b60f8161c191690558e808062002091565b8181013583556020948501946001909301920162002074565b90915060038a01610100515260206101005120601f840160051c8101602085106200212c575b90849392915b601f830160051c820181106200211a57505062001a70565b61010051815585945060010162002102565b5080620020fc565b60e0516001600160a01b03163b156200219e57604051636e258e0760e11b81526101005160e0518290600490829084906001600160a01b03165af1801562001d505762002183575b5062001990565b6200218e9062004235565b610100516200219e578c6200217c565b6101005180fd5b5061123746146200198a565b60e0516001600160a01b03163b156200219e576040516315c6deb960e31b81526001600160a01b0391821660048201526101005160e05191929091839160249183918591165af1801562001d5057156200198057620022109062004235565b610100516200219e578d62001980565b90506020813d60201162002260575b816200223e6020938362004249565b810103126200219e57516001600160a01b03811681036200219e578e6200196f565b3d91506200222f565b620022749062004235565b610100516200219e578d6200193b565b6200228f9062004235565b6000610100528d620018f6565b60405163a9059cbb60e01b81523360048201526127109190920204602482015260208180604481010381600060018060a01b0360e051165af190811562000ec557600091620022f5575b501562000f2a57898c620018ae565b62002312915060203d60201162000f9d5762000f8d818362004249565b8f620022e6565b62002336915060203d60201162000f9d5762000f8d818362004249565b8f62001898565b346200016c5760003660031901126200016c576020600654604051908152f35b346200016c5760003660031901126200016c576000546040516001600160a01b039091168152602090f35b346200016c5760003660031901126200016c576020600454604051908152f35b346200016c5760003660031901126200016c5760206040516112378152f35b346200016c5760003660031901126200016c576020600754604051908152f35b346200016c5760203660031901126200016c57600435620024076200426b565b50600a5481101562002442576200242d620024266200095292620042bc565b50620043fb565b6040519182916020835260208301906200412c565b60405162461bcd60e51b81526020600482015260116024820152701a5b9d985b1a59081b185d5b98da081a59607a1b6044820152606490fd5b346200016c5760003660031901126200016c57602060405160328152f35b346200016c5760003660031901126200016c576001546040516001600160a01b039091168152602090f35b620024cf3662004051565b6101405260045498999198909691959294929190620024f0903414620041d5565b620024fa620046f7565b600061018052891562001114578015620010dd578815620010a6576107d087116200106b576103e861014051116200103157600254604051906001600160a01b03166001600160401b0361172d8301908111908311176200101b578190620025946200257c8e61172d62006719863960e061172d860181815201908c6200483d565b61172d84018103602061172d86010152858d6200483d565b908c604061172d8501015230606061172d8501015233608061172d8501015260a061172d840101526101405160c061172d8401015203906000f061016052610160511562000ec5576002546001600160a01b0316331497620025f68962004878565b600154600354600554600654600754600854604051969f96956001600160a01b039182169592949291166001600160401b03611e5e8801908111908811176200101b57611e5e620048bb8839610160516001600160a01b03908116611e5e890190815230602082015260408101929092526060820192909252608081019290925260a082019290925260c081019290925260e0820192909252908c1661010082015281900361012001906000f06101e0526101e0511562000ec5578a8981020489036200100557620026cf6127108a8d02048c6200457b565b60405163a9059cbb60e01b81526101e0516001600160a01b039081166004830152602482018390526101605160209183916044918391600091165af190811562000ec557600091620031c8575b501562000fa557898c612710828202046200314a575b50506101e0516001600160a01b03163b156200016c5760405190639556483760e01b825260048201526000816024818360018060a01b036101e051165af1801562000ec55762003132575b506101805162002f32575b506101605161018080516001600160a01b039283169052600b60205251604090206101e05181546001600160a01b0319169216919091179055600a549a600160401b8c101562002c755760018c01600a55620027e48c620042bc565b5050620027f18c620042bc565b506101605181546001600160a01b03199081166001600160a01b039283161783556101e0516001840180548316919093161790915560028201805490911633179055976001600160401b03821162002c755781906200285460038b01546200430d565b601f811162002ed4575b506101805190601f831160011462002e5d57610180519262002e51575b50508160011b916000199060031b1c19161760038801555b6001600160401b03821162002c75578190620028b360048901546200430d565b601f811162002df3575b506101805190601f831160011462002d7c57610180519262002d70575b50508160011b916000199060031b1c19161760048601555b6001600160401b03821162002c755781906200291260058701546200430d565b601f811162002d12575b506101805190601f831160011462002c9b57610180519262002c8f575b50508160011b916000199060031b1c19161760058401555b6001600160401b03821162002c755781906200297160068501546200430d565b601f811162002c17575b506101805190601f831160011462002ba057610180519262002b94575b50508160011b916000199060031b1c19161760068201555b8360078201556127108285020460088201556009429101556003546007549061271060018060a01b0360085416936040519660018060a01b036101e051168852806020890152020460408601526060850152608084015260a083015260018060a01b031660c082015260018060a01b036101605116908260008051602062007e6683398151915260e03393a4604051906317773ebb60e01b825260208260048160018060a01b0361016051165afa91821562002b4c57610180519262002b5a575b506040519163116e689f60e11b835260208360048160018060a01b0361016051165afa801562002b4c57610180519062002b11575b62000952935060405191610140518352602083015260408201528160008051602062007e46833981519152606060018060a01b03610160511693a3604080516101e051610160519382526001600160a01b039384166020830152909216908201529081906060820190565b506020833d60201162002b43575b8162002b2e6020938362004249565b810103126200016c5762000952925162002aa6565b3d915062002b1f565b6040513d61018051823e3d90fd5b9091506020813d60201162002b8b575b8162002b796020938362004249565b810103126200016c5751908262002a71565b3d915062002b6a565b01359050878062002998565b61018080516006870190525160208120909450915b601f198416851062002bfe576001945083601f1981161062002be3575b505050811b016006820155620029b0565b0135600019600384901b60f8161c1916905587808062002bd2565b8181013583556020948501946001909301920162002bb5565b90915060068401610180515260206101805120601f840160051c81016020851062002c6d575b90849392915b601f830160051c8201811062002c5b5750506200297b565b61018051815585945060010162002c43565b508062002c3d565b634e487b7160e01b61018051526041600452602461018051fd5b01359050898062002939565b61018080516005890190525160208120909450915b601f198416851062002cf9576001945083601f1981161062002cde575b505050811b01600584015562002951565b0135600019600384901b60f8161c1916905589808062002ccd565b8181013583556020948501946001909301920162002cb0565b90915060058601610180515260206101805120601f840160051c81016020851062002d68575b90849392915b601f830160051c8201811062002d565750506200291c565b61018051815585945060010162002d3e565b508062002d38565b013590508b80620028da565b610180805160048b0190525160208120909450915b601f198416851062002dda576001945083601f1981161062002dbf575b505050811b016004860155620028f2565b0135600019600384901b60f8161c191690558b808062002dae565b8181013583556020948501946001909301920162002d91565b90915060048801610180515260206101805120601f840160051c81016020851062002e49575b90849392915b601f830160051c8201811062002e37575050620028bd565b61018051815585945060010162002e1f565b508062002e19565b013590508d806200287b565b610180805160038d0190525160208120909450915b601f198416851062002ebb576001945083601f1981161062002ea0575b505050811b01600388015562002893565b0135600019600384901b60f8161c191690558d808062002e8f565b8181013583556020948501946001909301920162002e72565b90915060038a01610180515260206101805120601f840160051c81016020851062002f2a575b90849392915b601f830160051c8201811062002f185750506200285e565b61018051815585945060010162002f00565b508062002efa565b6101e0516001600160a01b03163b156200304a576040516309485dc960e21b8152610180516101e0518290600490829084906001600160a01b03165af1801562002b4c5762003117575b506040516306b456ef60e21b81526101e051602090829060049082906001600160a01b03165afa90811562002b4c576101805191620030ce575b506001600160a01b0381166200305d575b5080159062003051575b62002fde575b8b62002788565b610160516001600160a01b03163b156200304a57604051636e258e0760e11b815261018051610160518290600490829084906001600160a01b03165af1801562002b4c576200302f575b5062002fd7565b6200303a9062004235565b610180516200304a578b62003028565b6101805180fd5b50611237461462002fd1565b610160516001600160a01b03163b156200304a576040516315c6deb960e31b81526001600160a01b039182166004820152610180516101605191929091839160249183918591165af1801562002b4c571562002fc757620030be9062004235565b610180516200304a578c62002fc7565b90506020813d6020116200310e575b81620030ec6020938362004249565b810103126200304a57516001600160a01b03811681036200304a578d62002fb6565b3d9150620030dd565b620031229062004235565b610180516200304a578c62002f7c565b6200313d9062004235565b6000610180528c6200277d565b60405163a9059cbb60e01b81523360048201526127109190920204602482015260208180604481010381600060018060a01b0361016051165af190811562000ec557600091620031a4575b501562000f2a57898c62002732565b620031c1915060203d60201162000f9d5762000f8d818362004249565b8e62003195565b620031e5915060203d60201162000f9d5762000f8d818362004249565b8e6200271c565b346200016c5760003660031901126200016c5760206040516103e88152f35b346200016c5760003660031901126200016c576020600554604051908152f35b346200016c5760003660031901126200016c576009546040516001600160a01b039091168152602090f35b620032613662003fbc565b946200327b60049a95929897999a949394543414620041d5565b62003285620046f7565b60006101c052891562001114578815620010dd578715620010a6576107d086116200106b5760006101c052600254604051906001600160a01b03166001600160401b0361172d8301908111908311176200101b57819062003318620033008e61172d62006719863960e061172d860181815201908b6200483d565b61172d84018103602061172d860101528d8c6200483d565b908b604061172d8501015230606061172d8501015233608061172d8501015260a061172d84010152603260c061172d8401015203906000f06101a0526101a0511562000ec5576002546001600160a01b0316331498620033788a62004878565b600154600354600554600654600754600854604051969e96956001600160a01b039182169592949291166001600160401b03611e5e8801908111908811176200101b57611e5e620048bb88396101a0516001600160a01b03908116611e5e890190815230602082015260408101929092526060820192909252608081019290925260a082019290925260c081019290925260e0820192909252908b1661010082015281900361012001906000f09a8b1562000ec5578a89810204890362001005578b620034536020620018458e6127108e820204906200457b565b0381600060018060a01b036101a051165af190811562000ec55760009162003f15575b501562000fa557898c6127108282020462003e97575b50506001600160a01b038d163b156200016c5760008d602482936040519485938492639556483760e01b8452600484015260018060a01b03165af1801562000ec55762003e7f575b506101c05162003c8b575b506101a0516101c080516001600160a01b039283169052600b602052516040902080546001600160a01b031916918d16919091179055600a549b600160401b8d1015620039ce5760018d01600a55620035388d620042bc565b5050620035458d620042bc565b509760018060a01b036101a051166001600160601b0360a01b8a5416178955600189018d60018060a01b03166001600160601b0360a01b82541617905560028901336001600160601b0360a01b8254161790556001600160401b038211620039ce578190620035b860038b01546200430d565b601f811162003c2d575b506101c05190601f831160011462003bb6576101c0519262003baa575b50508160011b916000199060031b1c19161760038801555b6001600160401b038211620039ce5781906200361760048901546200430d565b601f811162003b4c575b506101c05190601f831160011462003ad5576101c0519262003ac9575b50508160011b916000199060031b1c19161760048601555b6001600160401b038211620039ce5781906200367660058701546200430d565b601f811162003a6b575b506101c05190601f8311600114620039f4576101c05192620039e8575b50508160011b916000199060031b1c19161760058401555b6001600160401b038211620039ce578190620036d560068501546200430d565b601f811162003970575b506101c05190601f8311600114620038f9576101c05192620038ed575b50508160011b916000199060031b1c19161760068201555b8360078201556127108285020460088201556009429101556003546007549061271060018060a01b0360085416936040519660018060a01b0389168852806020890152020460408601526060850152608084015260a083015260018060a01b031660c082015260018060a01b036101a05116908360008051602062007e6683398151915260e03393a46040516317773ebb60e01b81526101a051602090829060049082906001600160a01b03165afa908115620038a7576101c05191620038b5575b5060405163116e689f60e11b81526101a051602090829060049082906001600160a01b03165afa908115620038a7576101c051916200386f575b506040519160328352602083015260408201528260008051602062007e46833981519152606060018060a01b036101a0511693a3604080516101a0519381526001600160a01b0393841660208201529190921691810191909152606090f35b90506020813d6020116200389e575b816200388d6020938362004249565b810103126200016c57518462003810565b3d91506200387e565b6040513d6101c051823e3d90fd5b90506020813d602011620038e4575b81620038d36020938362004249565b810103126200016c575183620037d6565b3d9150620038c4565b013590508880620036fc565b6101c080516006870190525160208120909450915b601f198416851062003957576001945083601f198116106200393c575b505050811b01600682015562003714565b0135600019600384901b60f8161c191690558880806200392b565b818101358355602094850194600190930192016200390e565b909150600684016101c0515260206101c05120601f840160051c810160208510620039c6575b90849392915b601f830160051c82018110620039b4575050620036df565b6101c05181558594506001016200399c565b508062003996565b634e487b7160e01b6101c05152604160045260246101c051fd5b013590508a806200369d565b6101c080516005890190525160208120909450915b601f198416851062003a52576001945083601f1981161062003a37575b505050811b016005840155620036b5565b0135600019600384901b60f8161c191690558a808062003a26565b8181013583556020948501946001909301920162003a09565b909150600586016101c0515260206101c05120601f840160051c81016020851062003ac1575b90849392915b601f830160051c8201811062003aaf57505062003680565b6101c051815585945060010162003a97565b508062003a91565b013590508c806200363e565b6101c0805160048b0190525160208120909450915b601f198416851062003b33576001945083601f1981161062003b18575b505050811b01600486015562003656565b0135600019600384901b60f8161c191690558c808062003b07565b8181013583556020948501946001909301920162003aea565b909150600488016101c0515260206101c05120601f840160051c81016020851062003ba2575b90849392915b601f830160051c8201811062003b9057505062003621565b6101c051815585945060010162003b78565b508062003b72565b013590508e80620035df565b6101c0805160038d0190525160208120909450915b601f198416851062003c14576001945083601f1981161062003bf9575b505050811b016003880155620035f7565b0135600019600384901b60f8161c191690558e808062003be8565b8181013583556020948501946001909301920162003bcb565b90915060038a016101c0515260206101c05120601f840160051c81016020851062003c83575b90849392915b601f830160051c8201811062003c71575050620035c2565b6101c051815585945060010162003c59565b508062003c53565b6001600160a01b038c163b1562003d97576040516309485dc960e21b81528c816004816101c051936101c0519060018060a01b03165af18015620038a75762003e64575b50600460208d604051928380926306b456ef60e21b825260018060a01b03165afa908115620038a7576101c0519162003e1b575b506001600160a01b03811662003daa575b5080159062003d9e575b62003d2b575b8c620034df565b6101a0516001600160a01b03163b1562003d9757604051636e258e0760e11b81526101c0516101a0518290600490829084906001600160a01b03165af18015620038a75762003d7c575b5062003d24565b62003d879062004235565b6101c05162003d97578c62003d75565b6101c05180fd5b50611237461462003d1e565b6101a0516001600160a01b03163b1562003d97576040516315c6deb960e31b81526001600160a01b0391821660048201526101c0516101a05191929091839160249183918591165af18015620038a7571562003d145762003e0b9062004235565b6101c05162003d97578d62003d14565b90506020813d60201162003e5b575b8162003e396020938362004249565b8101031262003d9757516001600160a01b038116810362003d97578e62003d03565b3d915062003e2a565b62003e6f9062004235565b6101c05162003d97578d62003ccf565b62003e8a9062004235565b60006101c0528d620034d4565b60405163a9059cbb60e01b81523360048201526127109190920204602482015260208180604481010381600060018060a01b036101a051165af190811562000ec55760009162003ef1575b501562000f2a57898c6200348c565b62003f0e915060203d60201162000f9d5762000f8d818362004249565b8f62003ee2565b62003f32915060203d60201162000f9d5762000f8d818362004249565b8f62003476565b346200016c5760203660031901126200016c576020906001600160a01b038062003f6262003f75565b16600052600b8352604060002054168152f35b600435906001600160a01b03821682036200016c57565b9181601f840112156200016c578235916001600160401b0383116200016c57602083818601950101116200016c57565b60c06003198201126200016c576001600160401b03906004358281116200016c578162003fec9160040162003f8c565b939093926024358181116200016c57836200400a9160040162003f8c565b939093926044358381116200016c5782620040289160040162003f8c565b939093926064359182116200016c57620040459160040162003f8c565b90916084359060a43590565b60e06003198201126200016c576001600160401b03906004358281116200016c5781620040819160040162003f8c565b939093926024358181116200016c57836200409f9160040162003f8c565b939093926044358381116200016c5782620040bd9160040162003f8c565b939093926064359182116200016c57620040da9160040162003f8c565b90916084359060a4359060c43590565b919082519283825260005b84811062004117575050826000602080949584010152601f8019910116010190565b602081830181015184830182015201620040f5565b90620041b26200419f6200418c6200417961014060018060a01b038088511687528060208901511660208801526040880151166040870152606087015190806060880152860190620040ea565b60808601518582036080870152620040ea565b60a085015184820360a0860152620040ea565b60c084015183820360c0850152620040ea565b9160e081015160e083015261010080820151908301526101208091015191015290565b15620041dd57565b60405162461bcd60e51b81526020600482015260136024820152720d8c2eadcc6d040cccaca40dad2e6dac2e8c6d606b1b6044820152606490fd5b61014081019081106001600160401b038211176200101b57604052565b6001600160401b0381116200101b57604052565b90601f801991011681019081106001600160401b038211176200101b57604052565b604051906200427a8262004218565b8161012060009182815282602082015282604082015260608082015260606080820152606060a0820152606060c08201528260e0820152826101008201520152565b600a54811015620042f757600a9081600052027fc65a7bb8d6351c1cf70c95a316cc6a92839c986682d98bc35f958f4883f9d2a80190600090565b634e487b7160e01b600052603260045260246000fd5b90600182811c921680156200433f575b60208310146200432957565b634e487b7160e01b600052602260045260246000fd5b91607f16916200431d565b906040519182600082546200435f816200430d565b90818452602094600191600181169081600014620043d7575060011462004394575b505050620043929250038362004249565b565b600090815285812095935091905b818310620043be57505062004392935082010138808062004381565b85548884018501529485019487945091830191620043a2565b925050506200439294925060ff191682840152151560051b82010138808062004381565b906040516200440a8162004218565b6101206009829460018060a01b03808254168552806001830154166020860152600282015416604085015262004443600382016200434a565b606085015262004456600482016200434a565b608085015262004469600582016200434a565b60a08501526200447c600682016200434a565b60c0850152600781015460e085015260088101546101008501520154910152565b15620044a557565b60405162461bcd60e51b815260206004820152601260248201527119195e081c9bdd5d195c881b9bdd081cd95d60721b6044820152606490fd5b15620044e757565b60405162461bcd60e51b81526020600482015260146024820152731b1c081c9958da5c1a595b9d081b9bdd081cd95d60621b6044820152606490fd5b156200452b57565b60405162461bcd60e51b815260206004820152602260248201527f696e73756666696369656e742065746820666f72206665652b6c697175696469604482015261747960f01b6064820152608490fd5b919082039182116200100557565b6001600160401b0381116200101b5760051b60200190565b8051821015620042f75760209160051b010190565b600a54929183821015620046955781019283821162001005578084116200468c575b50620045e581846200457b565b92620045f18462004589565b9362004601604051958662004249565b80855262004612601f199162004589565b0160005b818110620046725750508360005b828410620046325750505050565b620046416200242685620042bc565b6200464d8284620045a1565b526200465a8183620045a1565b50600019811462001005576001938401930162004624565b6020906200467f6200426b565b8282890101520162004616565b925038620045d8565b50509050604051602081018181106001600160401b038211176200101b576040526000815290565b15620046c557565b60405162461bcd60e51b815260206004820152600a60248201526937b7363c9037bbb732b960b11b6044820152606490fd5b600454803410620047f8578015620047f55760008080808060018060a01b039586600254165af1903d15620047ee573d906001600160401b038211620047da576040519162004751601f8201601f19166020018462004249565b825260203d92013e5b156200479557600254166004546040519081527f4cef2d27cdf43d743c3c66401182e93989938e77d1be10f3ab9e6afdf799f83960203392a3565b60405162461bcd60e51b815260206004820152601a60248201527f6c61756e636820666565207472616e73666572206661696c65640000000000006044820152606490fd5b634e487b7160e01b81526041600452602490fd5b506200475a565b50565b60405162461bcd60e51b815260206004820152601760248201527f696e73756666696369656e74206c61756e6368206665650000000000000000006044820152606490fd5b908060209392818452848401376000828201840152601f01601f1916010190565b908160209103126200016c575180151581036200016c5790565b6008546001600160a01b039190821615620048b2576112374614620048aa57620048a3575061dead90565b6009541690565b505061dead90565b50600954169056fe601f62001e5e38819003918201601f19166101009081019290916001600160401b03841183851017620003b257816101209284926040968752833981010312620003ad576200004e81620003c8565b6020906200005e828401620003c8565b916200006c858501620003c8565b926060850151608086015160a08701519160c088015193620000a06101006200009860e08c01620003c8565b9a01620003c8565b6001600160a01b03989097908982161562000378578983161562000341578916998a15620002fd5761012c8411620002ca57841562000286578515620002425786156200020c5789169687620001c1575b5060a05260805260018060a01b03199788600054161760005560015560c05260e052600455836005541617600555169060065416176006553460025551611a809081620003de8239608051818181610723015281816107a50152818161096801528181610cbc0152610dd4015260a051818181610161015281816102f80152818161054501528181610802015261148a015260c051818181610ac4015281816111040152818161193101526119c7015260e051818181610c43015281816110d10152818161196601526119f80152f35b898916620000f1576064908c519062461bcd60e51b82526004820152601560248201527f6c7020726563697069656e7420726571756972656400000000000000000000006044820152fd5b8b5162461bcd60e51b815260048101899052600f60248201526e1d185c99d95d081c995c5d5a5c9959608a1b6044820152606490fd5b8b5162461bcd60e51b815260048101899052601660248201527f7669727475616c20746f6b656e207265717569726564000000000000000000006044820152606490fd5b8b5162461bcd60e51b815260048101899052601460248201527f7669727475616c206574682072657175697265640000000000000000000000006044820152606490fd5b8b5162461bcd60e51b815260048101899052600c60248201526b0cccaca40e8dede40d0d2ced60a31b6044820152606490fd5b8b5162461bcd60e51b815260048101899052601660248201527f66656520726563697069656e74207265717569726564000000000000000000006044820152606490fd5b8b5162461bcd60e51b815260048101899052601060248201526f199858dd1bdc9e481c995c5d5a5c995960821b6044820152606490fd5b8b5162461bcd60e51b815260048101899052600e60248201526d1d1bdad95b881c995c5d5a5c995960921b6044820152606490fd5b600080fd5b634e487b7160e01b600052604160045260246000fd5b51906001600160a01b0382168203620003ad5756fe608060408181526004918236101561001657600080fd5b600092833560e01c9182630758d92414610f00575081631ad15bbc14610ed757816324a9d85314610eb85781632521772414610dbc5781632760eca114610d9f5781632a2c697214610c8d578163334041a614610c66578163343ee3b714610c2b578163398482d814610c075781634329742d14610b57578163452e68dd14610b2e5781634690484014610b065781634beb394c14610ae757816352b86d2b14610aac5781637f544e4914610a8d5781638c575aa31461092b578163955648371461077d578163a64190c414610752578163c45a01551461070e578163cbcb3171146106ef578163d62ccb3f146106d0578163d79875eb14610463578163d96a094a146101fa578163e1a45218146101dd578163e7c2b772146101b6578163f95a02d014610194575063fc0c546a1461014e57600080fd5b34610190578160031936011261019057517f00000000000000000000000000000000000000000000000000000000000000006001600160a01b03168152602090f35b5080fd5b9050346101b257826003193601126101b25760209250549051908152f35b8280fd5b50503461019057816003193601126101905760209060ff60065460a81c1690519015158152f35b505034610190578160031936011261019057602090516127108152f35b91905060209283600319360112610460576006549061021f60ff8360b01c1615610f7b565b60ff60b01b19918216600160b01b1760068190556102539060ff9061024960a082901c8316610fb4565b60a81c161561129a565b341561042e5761271061026860015434611032565b04906102748234611150565b9461027e86611923565b9561028a8715156112d2565b6102978235881015611314565b600354908188116103f2576102f3926102c1898b946102b982956002546110bc565b600255611150565b600355856103cb575b875163a9059cbb60e01b8152339181019182526020820192909252909283918291604090910190565b0381857f00000000000000000000000000000000000000000000000000000000000000006001600160a01b03165af19182156103c0579061033992610393575b50611363565b7fbeae048c6d270d9469f86cf6e8fedda3c60ad770f16c24c9fc131c8e9a09101d83518061037b87339534846040919493926060820195825260208201520152565b0390a2610386611a28565b6006541660065551908152f35b6103b39150873d89116103b9575b6103ab8183611204565b81019061134b565b38610333565b503d6103a1565b8551903d90823e3d90fd5b6103ed858080808a60018060a01b038254165af16103e76113a7565b506113e7565b6102ca565b865162461bcd60e51b81528084018a90526016602482015275696e73756666696369656e74206c697175696469747960501b6044820152606490fd5b825162461bcd60e51b8152808501869052600c60248201526b195d1a081c995c5d5a5c995960a21b6044820152606490fd5b80fd5b919050346101b257806003193601126101b25781356006549061048c60ff8360b01c1615610f7b565b60ff60b01b19918216600160b01b1760068190556104b69060ff9061024960a082901c8316610fb4565b6104c18115156111c0565b6104ca816119bb565b946104d68615156112d2565b600254861161068d576127106104ee60015488611032565b04956104fa8782611150565b95610509602435881015611314565b85516323b872dd60e01b81523382820190815230602082810191909152604082018790526001600160a01b0394929182908190606001038188887f0000000000000000000000000000000000000000000000000000000000000000165af19081156106835761059a929161058391879161066a5750611363565b61058f866003546110bc565b600355600254611150565b600255828080808a335af16105ad6113a7565b5015610631575086807f846c37eef631e0943682d87352ec117c20008eb7f425c9b85ac011a6d4774cc0936106049360209a610614575b505086519485525060208401879052604084015233929081906060820190565b0390a26006541660065551908152f35b81806106299481938254165af16103e76113a7565b8038806105e4565b606490602087519162461bcd60e51b83528201526013602482015272195d1a081d1c985b9cd9995c8819985a5b1959606a1b6044820152fd5b6103b3915060203d6020116103b9576103ab8183611204565b88513d87823e3d90fd5b835162461bcd60e51b8152602081870152601860248201527f696e73756666696369656e7420657468207265736572766500000000000000006044820152606490fd5b5050346101905781600319360112610190576020906002549051908152f35b5050346101905781600319360112610190576020906003549051908152f35b505034610190578160031936011261019057517f00000000000000000000000000000000000000000000000000000000000000006001600160a01b03168152602090f35b905082346104605760203660031901126104605750610771903561123c565b82519182526020820152f35b8391503461019057602090816003193601126101b2578035906001600160a01b03906107cc337f0000000000000000000000000000000000000000000000000000000000000000841614610f40565b6006549160ff8360a01c166108f757846024916107ea8615156111c0565b88516370a0823160e01b8152308582015292839182907f0000000000000000000000000000000000000000000000000000000000000000165afa9081156108ed5790849187916108b8575b501061087f575060ff60a01b1916600160a01b176006556003819055925192835290917fa71ed34ff06af8d6865a8f541aae52d72fa89f0e5ee15f01d48fa6c62c8569149190a180f35b855162461bcd60e51b81529081018490526013602482015272696e73756666696369656e7420746f6b656e7360681b6044820152606490fd5b809250868092503d83116108e6575b6108d18183611204565b810103126108e25783905188610835565b8580fd5b503d6108c7565b87513d88823e3d90fd5b865162461bcd60e51b8152808301869052600e60248201526d185b1c9958591e481cd95959195960921b6044820152606490fd5b8391503461019057606036600319011261019057610947610f25565b602435916001600160a01b03908184168085036108e2576044359261098f817f0000000000000000000000000000000000000000000000000000000000000000163314610f40565b600654906109a360ff8360a81c1615610ff2565b8415610a585785169081610a18575b600580546001600160a01b0319908116939093179055161760065581905593516001600160a01b039182168152911660208201526040810192909252907fbcdc4bff84f936019028a7bcbef6b449550d6334606377b822720e57e94276c490606090a180f35b826109b257885162461bcd60e51b815260208186015260156024820152741b1c081c9958da5c1a595b9d081c995c5d5a5c9959605a1b6044820152606490fd5b885162461bcd60e51b8152602081860152600f60248201526e1d185c99d95d081c995c5d5a5c9959608a1b6044820152606490fd5b5050346101905781600319360112610190576020906008549051908152f35b505034610190578160031936011261019057602090517f00000000000000000000000000000000000000000000000000000000000000008152f35b905082346104605760203660031901126104605750610771903561115d565b505034610190578160031936011261019057905490516001600160a01b039091168152602090f35b50503461019057816003193601126101905760065490516001600160a01b039091168152602090f35b9050346101b257826003193601126101b25760065491610b7d60ff8460b01c1615610f7b565b60ff60b01b19928316600160b01b176006819055610bb19060ff90610ba760a082901c8316610fb4565b60a81c1615610ff2565b600254825411610bcf575050610bc5611448565b6006541660065580f35b906020606492519162461bcd60e51b835282015260126024820152711d185c99d95d081b9bdd081c995858da195960721b6044820152fd5b505034610190578160031936011261019057602090610c246110c9565b9051908152f35b505034610190578160031936011261019057602090517f00000000000000000000000000000000000000000000000000000000000000008152f35b50503461019057816003193601126101905760209060ff60065460a01c1690519015158152f35b919050346101b257806003193601126101b257610ca8610f25565b60243591906001600160a01b0390610ce3337f0000000000000000000000000000000000000000000000000000000000000000841614610f40565b16928315610d685761012c8311610d37575083546001600160a01b031916831784556001829055519081527fe42708d93b95810922305119a3271ca42233da9ebe1e1e503f0e887817a32c7a90602090a280f35b6020606492519162461bcd60e51b8352820152600c60248201526b0cccaca40e8dede40d0d2ced60a31b6044820152fd5b6020606492519162461bcd60e51b835282015260126024820152711c9958da5c1a595b9d081c995c5d5a5c995960721b6044820152fd5b505034610190578160031936011261019057602090610c2461107b565b9050346101b257826003193601126101b257610e02337f00000000000000000000000000000000000000000000000000000000000000006001600160a01b031614610f40565b60065491610e1660ff8460b01c1615610f7b565b60ff60b01b19928316600160b01b176006819055610e409060ff90610ba760a082901c8316610fb4565b600254918215610e8557507f5d6dc6b9835f5448ae2351719684f59735b30dfa8e62677cc6f9e98bd4c08f7f90600354815193845260208401523392a2610bc5611448565b6020606492519162461bcd60e51b8352820152600e60248201526d6e6f20657468207265736572766560901b6044820152fd5b5050346101905781600319360112610190576020906001549051908152f35b50503461019057816003193601126101905760075490516001600160a01b039091168152602090f35b8490346101905781600319360112610190576005546001600160a01b03168152602090f35b600435906001600160a01b0382168203610f3b57565b600080fd5b15610f4757565b60405162461bcd60e51b815260206004820152600c60248201526b6f6e6c7920666163746f727960a01b6044820152606490fd5b15610f8257565b60405162461bcd60e51b815260206004820152600a6024820152697265656e7472616e637960b01b6044820152606490fd5b15610fbb57565b60405162461bcd60e51b815260206004820152600f60248201526e1c1bdbdb081b9bdd081cd959591959608a1b6044820152606490fd5b15610ff957565b60405162461bcd60e51b8152602060048201526011602482015270185b1c9958591e4819dc98591d585d1959607a1b6044820152606490fd5b8181029291811591840414171561104557565b634e487b7160e01b600052601160045260246000fd5b8115611065570490565b634e487b7160e01b600052601260045260246000fd5b60045480156110b6576002546127109182820291808304841490151715611045576110a59161105b565b908082116110b1575090565b905090565b50600090565b9190820180921161104557565b6110f66003547f0000000000000000000000000000000000000000000000000000000000000000906110bc565b80156110b6576111296002547f0000000000000000000000000000000000000000000000000000000000000000906110bc565b90670de0b6b3a7640000918281029281840414901517156110455761114d9161105b565b90565b9190820391821161104557565b60065460ff8160a01c16159081156111b2575b5080156111aa575b6111a15761119e61119961271061119160015485611032565b048093611150565b611923565b91565b50600090600090565b508015611178565b60ff915060a81c1638611170565b156111c757565b60405162461bcd60e51b81526020600482015260156024820152741d1bdad95b88185b5bdd5b9d081c995c5d5a5c9959605a1b6044820152606490fd5b90601f8019910116810190811067ffffffffffffffff82111761122657604052565b634e487b7160e01b600052604160045260246000fd5b60065460ff8160a01c161590811561128c575b508015611284575b6111a157611264906119bb565b80156111a15761119e61271061127c60015484611032565b048092611150565b508015611257565b60ff915060a81c163861124f565b156112a157565b60405162461bcd60e51b815260206004820152600960248201526819dc98591d585d195960ba1b6044820152606490fd5b156112d957565b60405162461bcd60e51b81526020600482015260136024820152721a5b9cdd59999a58da595b9d081bdd5d1c1d5d606a1b6044820152606490fd5b1561131b57565b60405162461bcd60e51b8152602060048201526008602482015267736c69707061676560c01b6044820152606490fd5b90816020910312610f3b57518015158103610f3b5790565b1561136a57565b60405162461bcd60e51b81526020600482015260156024820152741d1bdad95b881d1c985b9cd9995c8819985a5b1959605a1b6044820152606490fd5b3d156113e2573d9067ffffffffffffffff821161122657604051916113d6601f8201601f191660200184611204565b82523d6000602084013e565b606090565b156113ee57565b60405162461bcd60e51b8152602060048201526013602482015272199959481d1c985b9cd9995c8819985a5b1959606a1b6044820152606490fd5b90816020910312610f3b57516001600160a01b0381168103610f3b5790565b6005546001600160a01b039081169081156118e957600160a81b60ff60a81b1960065416176006554260085560035491600254906000928360035583600255807f0000000000000000000000000000000000000000000000000000000000000000169360409283518263095ea7b360e01b80835260049384840152602492828482015289816044816020998a945af180156118df579186918c936118c2575b50600554895191825288166001600160a01b0316868201908152602081019390935291829081906040010381858d5af18015611888576118a5575b50846005541694806006541695610e1042018042116118925760c48b8b6060948f948d519c8d96879563f305d71960e01b87528d8701528b860152896044860152896064860152608485015260a48401525af19788156118885782998397849a611844575b50600554895163c45a015560e01b815290841688828981845afa91821561181b578892918a918893611825575b508c516315ab88c960e31b815293849182905afa91821561181b578389878e95948d948b966117f5575b508160449495969751978896879563e6a4390560e01b8752860152168c840152165afa9081156117eb57918489928e9488916117be575b50169d8e6bffffffffffffffffffffffff60a01b60075416176007558381116116ed575b50505050868111611683575b505085519788525050508401528201524260608201527f71aa8c3702dbbc54247a4e6446450e64a46250dd72707a247ddb01d72eaef44590608090a2565b828092611691898394611150565b908254165af161169f6113a7565b50156116ad57808080611645565b60189060649386519362461bcd60e51b85528401528201527f6574682064757374207472616e73666572206661696c656400000000000000006044820152fd5b611734936116fa91611150565b86548c5163a9059cbb60e01b81529087166001600160a01b03168a8201908152602081019290925293849291839189918391604090910190565b03925af19081156117b4578491611797575b50156117555789863880611639565b875162461bcd60e51b8152808601879052601a818601527f746f6b656e2064757374207472616e73666572206661696c65640000000000006044820152606490fd5b6117ae9150873d89116103b9576103ab8183611204565b38611746565b89513d86823e3d90fd5b6117de9150843d86116117e4575b6117d68183611204565b810190611429565b38611615565b503d6117cc565b8a513d87823e3d90fd5b8596506118128391604496973d8a116117e4576117d68183611204565b969594506115de565b8b513d88823e3d90fd5b61183d919350823d84116117e4576117d68183611204565b91386115b4565b9a50985095506060893d606011611880575b8161186360609383611204565b810103126101905788519587868b01519a01519699969838611587565b3d9150611856565b87513d84823e3d90fd5b5050634e487b7160e01b82525060118352fd5b6118bb90853d87116103b9576103ab8183611204565b5038611522565b6118d890833d85116103b9576103ab8183611204565b50386114e7565b88513d85823e3d90fd5b60405162461bcd60e51b815260206004820152601260248201527119195e081c9bdd5d195c881b9bdd081cd95d60721b6044820152606490fd5b80156110b6576119566002547f0000000000000000000000000000000000000000000000000000000000000000906110bc565b906119a26003549261199c61198b7f0000000000000000000000000000000000000000000000000000000000000000866110bc565b936119968584611032565b926110bc565b9061105b565b808211156119b3576110a591611150565b505050600090565b600254906119a26119ec7f0000000000000000000000000000000000000000000000000000000000000000846110bc565b9161199c611a1d6003547f0000000000000000000000000000000000000000000000000000000000000000906110bc565b916119968386611032565b60ff60065460a81c16611a485760025460045411611a4857611a48611448565b56fea2646970667358221220a2d2c21743871442ce4b02c5554bb646ad2f4caaae2b91120a487832fdc24a2864736f6c6343000818003360406101408152346200060d576200172d803803806200001f8162000612565b92833981019160e0828403126200060d5781516001600160401b03908181116200060d57846200005191850162000638565b9360209081850151908382116200060d576200006f91860162000638565b9083850151946200008360608201620006aa565b6200009160808301620006aa565b9060c0620000a260a08501620006aa565b93015198805115620005d957855115620005a35788156200056d576001600160a01b0382811697908815620005365780851615620004ff57851615620004c7576103e88b116200048e57815181811162000478576000978854916001948584811c941680156200046d575b8a85101462000459578190601f9485811162000406575b508a90858311600114620003a1578c9262000395575b5050600019600383901b1c191690851b1789555b8051928311620003815783548481811c9116801562000376575b898210146200036257908183859493116200030d575b5088918311600114620002a95789926200029d575b5050600019600383901b1c191690821b1790555b8760025560805260a05260c0528560e052610fa080870290878204148715171562000289576127109004946101209580875287039687116200028957907fddf252ad1be2c89b69c2b068fc378daa952ba7f163c4a11628f55a4df523b3ef916101009788528484526006825280868520558551908152a3519061106d9283620006c08439608051838181610238015281816102ff015261035b015260a0518381816106980152610ba8015260c05183818161018d0152610795015260e0518381816106440152610db3015251828181610a070152610df1015251816109690152f35b634e487b7160e01b83526011600452602483fd5b01519050388062000193565b848a52888a208594509190601f1984168b5b8b828210620002f65750508411620002dc575b505050811b019055620001a7565b015160001960f88460031b161c19169055388080620002ce565b8385015186558897909501949384019301620002bb565b90919250848a52888a208380860160051c8201928b871062000358575b91869588929594930160051c01915b828110620003495750506200017e565b8c815586955087910162000339565b925081926200032a565b634e487b7160e01b8a52602260045260248afd5b90607f169062000168565b634e487b7160e01b89526041600452602489fd5b0151905038806200013a565b8c80528b8d208894509190601f1984168e8e5b828210620003ee5750508411620003d4575b505050811b0189556200014e565b015160001960f88460031b161c19169055388080620003c6565b8385015186558b979095019493840193018e620003b4565b9091508b80528a8c208580850160051c8201928d86106200044f575b918991869594930160051c01915b8281106200044057505062000124565b8e815585945089910162000430565b9250819262000422565b634e487b7160e01b8b52602260045260248bfd5b93607f16936200010d565b634e487b7160e01b600052604160045260246000fd5b885162461bcd60e51b81526004810187905260126024820152710e8e4c2c8ca40cccaca40e8dede40d0d2ced60731b6044820152606490fd5b885162461bcd60e51b81526004810187905260116024820152701c1b185d199bdc9b481c995c5d5a5c9959607a1b6044820152606490fd5b895162461bcd60e51b815260048101889052601060248201526f18dc99585d1bdc881c995c5d5a5c995960821b6044820152606490fd5b895162461bcd60e51b815260048101889052601060248201526f199858dd1bdc9e481c995c5d5a5c995960821b6044820152606490fd5b875162461bcd60e51b815260048101869052600f60248201526e1cdd5c1c1b1e481c995c5d5a5c9959608a1b6044820152606490fd5b875162461bcd60e51b815260048101869052600f60248201526e1cde5b589bdb081c995c5d5a5c9959608a1b6044820152606490fd5b875162461bcd60e51b815260048101869052600d60248201526c1b985b59481c995c5d5a5c9959609a1b6044820152606490fd5b600080fd5b6040519190601f01601f191682016001600160401b038111838210176200047857604052565b919080601f840112156200060d5782516001600160401b03811162000478576020906200066e601f8201601f1916830162000612565b928184528282870101116200060d5760005b8181106200069657508260009394955001015290565b858101830151848201840152820162000680565b51906001600160a01b03821682036200060d5756fe608060408181526004918236101561001657600080fd5b600092833560e01c91826302d05d3f14610b9457508163044991d814610b7557816306fdde0314610a9b578163095ea7b314610a2a57816317773ebb146109ef57816318160ddd146109d05781631e26906b146109a95781632044dbb21461098c57816322dcd13e1461095157816323b872dd1461084a5781632bebf6bf146107805781632f9f103214610764578163313ce56714610748578163351fee46146106845781635b632360146106675781635faad8c51461062c57816370a08231146105f457816395d89b41146104d15781639e5f358a146104b3578163a9059cbb14610482578163ae36f5c81461032e578163c45a0155146102ea578163dc4b1c0e1461022057508063dd62ed3e146101d8578063e1a45218146101bc578063eb13554f146101795763f242ab411461014e57600080fd5b3461017557816003193601126101755760035490516001600160a01b039091168152602090f35b5080fd5b5034610175578160031936011261017557517f00000000000000000000000000000000000000000000000000000000000000006001600160a01b03168152602090f35b5034610175578160031936011261017557602090516127108152f35b5034610175578060031936011261017557806020926101f5610c20565b6101fd610c3b565b6001600160a01b0391821683526007865283832091168252845220549051908152f35b9050346102e657826003193601126102e657610266337f00000000000000000000000000000000000000000000000000000000000000006001600160a01b031614610cb3565b6003549160ff8360a01c166102af57505060ff60a01b1916600160a01b17600355337f60b9765cf08f04b4850cd9a0f8da6fa9e854afd328723cc3f6adea6fb4f18d238280a280f35b906020606492519162461bcd60e51b83528201526011602482015270185b1c9958591e481c995b9bdd5b98d959607a1b6044820152fd5b8280fd5b505034610175578160031936011261017557517f00000000000000000000000000000000000000000000000000000000000000006001600160a01b03168152602090f35b839150346101755760203660031901126101755761034a610c20565b6001600160a01b03908190610382337f0000000000000000000000000000000000000000000000000000000000000000841614610cb3565b1691821561044f576003549160ff8360a01c1661040c5782166103d657506001600160a01b03191681176003557fc3cd203585fbc28dcc1692611d2ebc4190312a5b189047df793c69b157aa0d298280a280f35b606490602086519162461bcd60e51b8352820152601060248201526f1c185a5c88185b1c9958591e481cd95d60821b6044820152fd5b855162461bcd60e51b8152602081840152601960248201527f666163746f727920636f6e74726f6c2072656e6f756e636564000000000000006044820152606490fd5b606490602086519162461bcd60e51b8352820152600d60248201526c1c185a5c881c995c5d5a5c9959609a1b6044820152fd5b5050346101755780600319360112610175576020906104ac6104a2610c20565b6024359033610d0e565b5160018152f35b9050346102e657826003193601126102e65760209250549051908152f35b8383346101755781600319360112610175578051908260018054908160011c90600183169283156105ea575b60209384841081146105d7578388529081156105bb5750600114610565575b505050829003601f01601f191682019267ffffffffffffffff841183851017610552575082918261054e925282610bd7565b0390f35b634e487b7160e01b815260418552602490fd5b600187529192508591837fb10e2d527612073b26eecdfd717e6a320cf44b4afac2b0732d9fcbe2b7fa0cf65b8385106105a7575050505083010185808061051c565b805488860183015293019284908201610591565b60ff1916878501525050151560051b840101905085808061051c565b634e487b7160e01b895260228a52602489fd5b91607f16916104fd565b5050346101755760203660031901126101755760209181906001600160a01b0361061c610c20565b1681526006845220549051908152f35b505034610175578160031936011261017557602090517f00000000000000000000000000000000000000000000000000000000000000008152f35b505034610175578160031936011261017557602090516103e88152f35b8383346101755781600319360112610175577f00000000000000000000000000000000000000000000000000000000000000006001600160a01b038116903382900361071657846106e891602096549586926106e1841515610c74565b5530610f43565b7fd046302bdc39599e60a5981e59227dcd1c643f512f56f2e984390c3ac6eadedb848351858152a251908152f35b825162461bcd60e51b8152602081870152600c60248201526b37b7363c9031b932b0ba37b960a11b6044820152606490fd5b5050346101755781600319360112610175576020905160128152f35b5050346101755781600319360112610175576020905160328152f35b919050346102e657826003193601126102e6577f0000000000000000000000000000000000000000000000000000000000000000916001600160a01b038316903382900361081757506107e96020946005549485916107e0831515610c74565b60055530610f43565b7f0636f1043cff5f4c437926a4412416778ddc5e970feb177685b587e81dad9095848351858152a251908152f35b606490602084519162461bcd60e51b8352820152600d60248201526c6f6e6c7920706c6174666f726d60981b6044820152fd5b919050346102e65760603660031901126102e657610866610c20565b61086e610c3b565b6044359160018060a01b03811680875260209560078752858820338952875285882054908582106109195750948096976104ac968660001982036108b7575b5050505050610d0e565b6108c091610c51565b83825260078a528282203383528a528282205582815260078952818120338252895220549086519182527f8c5be1e5ebec7d5bd14f71427d1e84f3dd0314c0f7b2291e5b200ac8c7c3b925883393a338858180866108ad565b865162461bcd60e51b81529081018890526012602482015271185b1b1bddd85b98d948195e18d95959195960721b6044820152606490fd5b505034610175578160031936011261017557602090517f00000000000000000000000000000000000000000000000000000000000000008152f35b50503461017557816003193601126101755760209051610fa08152f35b50503461017557816003193601126101755760209060ff60035460a01c1690519015158152f35b5050346101755781600319360112610175576020906002549051908152f35b505034610175578160031936011261017557602090517f00000000000000000000000000000000000000000000000000000000000000008152f35b50503461017557806003193601126101755760209181610a48610c20565b91602435918291338152600787528181209460018060a01b0316948582528752205582519081527f8c5be1e5ebec7d5bd14f71427d1e84f3dd0314c0f7b2291e5b200ac8c7c3b925843392a35160018152f35b83833461017557816003193601126101755780519082835460018160011c9060018316928315610b6b575b60209384841081146105d7578388529081156105bb5750600114610b1657505050829003601f01601f191682019267ffffffffffffffff841183851017610552575082918261054e925282610bd7565b8680529192508591837f290decd9548b62a8d60345a988386fc84ba6bc95484008f6362f93160ef3e5635b838510610b57575050505083010185808061051c565b805488860183015293019284908201610b41565b91607f1691610ac6565b5050346101755781600319360112610175576020906005549051908152f35b8490346101755781600319360112610175577f00000000000000000000000000000000000000000000000000000000000000006001600160a01b03168152602090f35b6020808252825181830181905290939260005b828110610c0c57505060409293506000838284010152601f8019910116010190565b818101860151848201604001528501610bea565b600435906001600160a01b0382168203610c3657565b600080fd5b602435906001600160a01b0382168203610c3657565b91908203918211610c5e57565b634e487b7160e01b600052601160045260246000fd5b15610c7b57565b60405162461bcd60e51b815260206004820152601060248201526f6e6f7468696e6720746f20636c61696d60801b6044820152606490fd5b15610cba57565b60405162461bcd60e51b815260206004820152600c60248201526b6f6e6c7920666163746f727960a01b6044820152606490fd5b81810292918115918404141715610c5e57565b91908201809211610c5e57565b6001600160a01b03808316939192908415610f0f57831692600091848352602092600684526040918282205490868210610ed957610d4d908795610ffb565b80610ed0575b610da8575b90610d857fddf252ad1be2c89b69c2b068fc378daa952ba7f163c4a11628f55a4df523b3ef968493610c51565b878252600686528282205587815220610d9f838254610d01565b905551908152a3565b612710888882610dd87f00000000000000000000000000000000000000000000000000000000000000008b610cee565b049283610de9575b50505050610d58565b8695949397507f0000000000000000000000000000000000000000000000000000000000000000610e1a908b610cee565b0485888a848d610e2a8685610c51565b93610e3491610c51565b9b8560045490610e4391610d01565b6004558360055490610e5491610d01565b600555308a5260068352848a2081815490610e6e91610d01565b9055845190815230927fddf252ad1be2c89b69c2b068fc378daa952ba7f163c4a11628f55a4df523b3ef91a381519283528a8301527f93bd139ea85d53c55e02dec709128f827ebd5cb8a4a0d873193711b70b0a15b991a39091888838610de0565b50851515610d53565b835162461bcd60e51b815260048101879052600f60248201526e62616c616e636520746f6f206c6f7760881b6044820152606490fd5b60405162461bcd60e51b815260206004820152600c60248201526b7a65726f206164647265737360a01b6044820152606490fd5b60018060a01b038091169160009383855260066020526040852054818110610fbd577fddf252ad1be2c89b69c2b068fc378daa952ba7f163c4a11628f55a4df523b3ef93602093610f9684604094610c51565b8789526006865283892055169586815220610fb2828254610d01565b9055604051908152a3565b60405162461bcd60e51b81526020600482015260166024820152751a5b9cdd59999a58da595b9d08199959481d985d5b1d60521b6044820152606490fd5b6003546001600160a01b0390811691821561102e5781168214928315611022575b50505090565b1614905038808061101c565b5050505060009056fea26469706673582212208a8d56e206380fe30f47d374f12ca945e94e5f473668ae158a7571ae27c8689c64736f6c634300081800338620494f920761bd37321ddd1f125e085d81426820d3ca4e8b1f0ab3dab7a578dc7fea29d21f6a39e7f1b42ad6100f8cdaff48535852696a1155de8a81d87a06a26469706673582212205ce01d02d621153bae7930aad2db3db328168a08c5f3a0eb5917ff27da74d5cd64736f6c63430008180033",
  "linkReferences": {},
  "deployedLinkReferences": {}
}