{
  "_format": "hh-sol-artifact-1",
  "contractName": "MemeLaunchFactoryRobinhoodV3",
  "sourceName": "contracts/MemeLaunchFactoryRobinhoodV3.sol",
  "abi": [
    {
      "inputs": [
        {
          "internalType": "address",
          "name": "_feeRecipient",
          "type": "address"
        },
        {
          "internalType": "address",
          "name": "_platformFeeRecipient",
          "type": "address"
        },
        {
          "internalType": "uint256",
          "name": "_defaultFeeBps",
          "type": "uint256"
        },
        {
          "internalType": "uint256",
          "name": "_launchFeeWei",
          "type": "uint256"
        },
        {
          "internalType": "uint256",
          "name": "_defaultVirtualEthReserve",
          "type": "uint256"
        },
        {
          "internalType": "uint256",
          "name": "_defaultVirtualTokenReserve",
          "type": "uint256"
        },
        {
          "internalType": "uint256",
          "name": "_defaultGraduationTargetEth",
          "type": "uint256"
        },
        {
          "internalType": "address",
          "name": "_defaultDexRouter",
          "type": "address"
        },
        {
          "internalType": "address",
          "name": "_defaultLpRecipient",
          "type": "address"
        },
        {
          "internalType": "address",
          "name": "_defaultV3PositionManager",
          "type": "address"
        },
        {
          "internalType": "uint24",
          "name": "_defaultV3Fee",
          "type": "uint24"
        },
        {
          "internalType": "address",
          "name": "_tokenDeployer",
          "type": "address"
        },
        {
          "internalType": "address",
          "name": "_poolDeployer",
          "type": "address"
        }
      ],
      "stateMutability": "nonpayable",
      "type": "constructor"
    },
    {
      "anonymous": false,
      "inputs": [
        {
          "indexed": true,
          "internalType": "uint256",
          "name": "launchId",
          "type": "uint256"
        },
        {
          "indexed": true,
          "internalType": "address",
          "name": "creator",
          "type": "address"
        },
        {
          "indexed": true,
          "internalType": "address",
          "name": "token",
          "type": "address"
        },
        {
          "indexed": false,
          "internalType": "address",
          "name": "pool",
          "type": "address"
        },
        {
          "indexed": false,
          "internalType": "uint256",
          "name": "totalSupply",
          "type": "uint256"
        },
        {
          "indexed": false,
          "internalType": "uint256",
          "name": "creatorAllocation",
          "type": "uint256"
        },
        {
          "indexed": false,
          "internalType": "uint256",
          "name": "feeBps",
          "type": "uint256"
        },
        {
          "indexed": false,
          "internalType": "uint256",
          "name": "graduationTargetEth",
          "type": "uint256"
        },
        {
          "indexed": false,
          "internalType": "address",
          "name": "dexRouter",
          "type": "address"
        },
        {
          "indexed": false,
          "internalType": "address",
          "name": "lpRecipient",
          "type": "address"
        },
        {
          "indexed": false,
          "internalType": "address",
          "name": "v3PositionManager",
          "type": "address"
        },
        {
          "indexed": false,
          "internalType": "uint24",
          "name": "v3Fee",
          "type": "uint24"
        }
      ],
      "name": "LaunchCreated",
      "type": "event"
    },
    {
      "anonymous": false,
      "inputs": [
        {
          "indexed": true,
          "internalType": "address",
          "name": "payer",
          "type": "address"
        },
        {
          "indexed": true,
          "internalType": "address",
          "name": "recipient",
          "type": "address"
        },
        {
          "indexed": false,
          "internalType": "uint256",
          "name": "amountWei",
          "type": "uint256"
        }
      ],
      "name": "LaunchFeePaid",
      "type": "event"
    },
    {
      "anonymous": false,
      "inputs": [
        {
          "indexed": true,
          "internalType": "address",
          "name": "creator",
          "type": "address"
        },
        {
          "indexed": false,
          "internalType": "uint256",
          "name": "ethLiquidity",
          "type": "uint256"
        }
      ],
      "name": "LiveDexCurveRequested",
      "type": "event"
    },
    {
      "anonymous": false,
      "inputs": [
        {
          "indexed": true,
          "internalType": "uint256",
          "name": "launchId",
          "type": "uint256"
        },
        {
          "indexed": true,
          "internalType": "address",
          "name": "token",
          "type": "address"
        },
        {
          "indexed": false,
          "internalType": "uint256",
          "name": "tradeFeeBps",
          "type": "uint256"
        },
        {
          "indexed": false,
          "internalType": "uint256",
          "name": "creatorFeeBps",
          "type": "uint256"
        },
        {
          "indexed": false,
          "internalType": "uint256",
          "name": "platformFeeBps",
          "type": "uint256"
        }
      ],
      "name": "TokenTaxConfigured",
      "type": "event"
    },
    {
      "inputs": [],
      "name": "BPS_DENOMINATOR",
      "outputs": [
        {
          "internalType": "uint256",
          "name": "",
          "type": "uint256"
        }
      ],
      "stateMutability": "view",
      "type": "function"
    },
    {
      "inputs": [],
      "name": "FIXED_TOTAL_SUPPLY",
      "outputs": [
        {
          "internalType": "uint256",
          "name": "",
          "type": "uint256"
        }
      ],
      "stateMutability": "view",
      "type": "function"
    },
    {
      "inputs": [],
      "name": "MAX_TOKEN_TRADE_FEE_BPS",
      "outputs": [
        {
          "internalType": "uint256",
          "name": "",
          "type": "uint256"
        }
      ],
      "stateMutability": "view",
      "type": "function"
    },
    {
      "inputs": [
        {
          "internalType": "string",
          "name": "name",
          "type": "string"
        },
        {
          "internalType": "string",
          "name": "symbol",
          "type": "string"
        },
        {
          "internalType": "string",
          "name": "imageURI",
          "type": "string"
        },
        {
          "internalType": "string",
          "name": "description",
          "type": "string"
        },
        {
          "internalType": "uint256",
          "name": "",
          "type": "uint256"
        },
        {
          "internalType": "uint256",
          "name": "creatorAllocationBps",
          "type": "uint256"
        }
      ],
      "name": "createLaunchLiveDexCurve",
      "outputs": [
        {
          "internalType": "uint256",
          "name": "launchId",
          "type": "uint256"
        },
        {
          "internalType": "address",
          "name": "tokenAddress",
          "type": "address"
        },
        {
          "internalType": "address",
          "name": "poolAddress",
          "type": "address"
        }
      ],
      "stateMutability": "payable",
      "type": "function"
    },
    {
      "inputs": [
        {
          "internalType": "string",
          "name": "name",
          "type": "string"
        },
        {
          "internalType": "string",
          "name": "symbol",
          "type": "string"
        },
        {
          "internalType": "string",
          "name": "imageURI",
          "type": "string"
        },
        {
          "internalType": "string",
          "name": "description",
          "type": "string"
        },
        {
          "internalType": "uint256",
          "name": "",
          "type": "uint256"
        },
        {
          "internalType": "uint256",
          "name": "creatorAllocationBps",
          "type": "uint256"
        },
        {
          "internalType": "uint256",
          "name": "tokenTradeFeeBps",
          "type": "uint256"
        }
      ],
      "name": "createLaunchLiveDexCurveWithTax",
      "outputs": [
        {
          "internalType": "uint256",
          "name": "launchId",
          "type": "uint256"
        },
        {
          "internalType": "address",
          "name": "tokenAddress",
          "type": "address"
        },
        {
          "internalType": "address",
          "name": "poolAddress",
          "type": "address"
        }
      ],
      "stateMutability": "payable",
      "type": "function"
    },
    {
      "inputs": [],
      "name": "defaultDexRouter",
      "outputs": [
        {
          "internalType": "address",
          "name": "",
          "type": "address"
        }
      ],
      "stateMutability": "view",
      "type": "function"
    },
    {
      "inputs": [],
      "name": "defaultFeeBps",
      "outputs": [
        {
          "internalType": "uint256",
          "name": "",
          "type": "uint256"
        }
      ],
      "stateMutability": "view",
      "type": "function"
    },
    {
      "inputs": [],
      "name": "defaultGraduationTargetEth",
      "outputs": [
        {
          "internalType": "uint256",
          "name": "",
          "type": "uint256"
        }
      ],
      "stateMutability": "view",
      "type": "function"
    },
    {
      "inputs": [],
      "name": "defaultLpRecipient",
      "outputs": [
        {
          "internalType": "address",
          "name": "",
          "type": "address"
        }
      ],
      "stateMutability": "view",
      "type": "function"
    },
    {
      "inputs": [],
      "name": "defaultV3Fee",
      "outputs": [
        {
          "internalType": "uint24",
          "name": "",
          "type": "uint24"
        }
      ],
      "stateMutability": "view",
      "type": "function"
    },
    {
      "inputs": [],
      "name": "defaultV3PositionManager",
      "outputs": [
        {
          "internalType": "address",
          "name": "",
          "type": "address"
        }
      ],
      "stateMutability": "view",
      "type": "function"
    },
    {
      "inputs": [],
      "name": "defaultVirtualEthReserve",
      "outputs": [
        {
          "internalType": "uint256",
          "name": "",
          "type": "uint256"
        }
      ],
      "stateMutability": "view",
      "type": "function"
    },
    {
      "inputs": [],
      "name": "defaultVirtualTokenReserve",
      "outputs": [
        {
          "internalType": "uint256",
          "name": "",
          "type": "uint256"
        }
      ],
      "stateMutability": "view",
      "type": "function"
    },
    {
      "inputs": [],
      "name": "feeRecipient",
      "outputs": [
        {
          "internalType": "address",
          "name": "",
          "type": "address"
        }
      ],
      "stateMutability": "view",
      "type": "function"
    },
    {
      "inputs": [
        {
          "internalType": "uint256",
          "name": "launchId",
          "type": "uint256"
        }
      ],
      "name": "getLaunch",
      "outputs": [
        {
          "components": [
            {
              "internalType": "address",
              "name": "token",
              "type": "address"
            },
            {
              "internalType": "address",
              "name": "pool",
              "type": "address"
            },
            {
              "internalType": "address",
              "name": "creator",
              "type": "address"
            },
            {
              "internalType": "string",
              "name": "name",
              "type": "string"
            },
            {
              "internalType": "string",
              "name": "symbol",
              "type": "string"
            },
            {
              "internalType": "string",
              "name": "imageURI",
              "type": "string"
            },
            {
              "internalType": "string",
              "name": "description",
              "type": "string"
            },
            {
              "internalType": "uint256",
              "name": "totalSupply",
              "type": "uint256"
            },
            {
              "internalType": "uint256",
              "name": "creatorAllocation",
              "type": "uint256"
            },
            {
              "internalType": "uint256",
              "name": "createdAt",
              "type": "uint256"
            }
          ],
          "internalType": "struct MemeLaunchFactoryRobinhoodV3.LaunchInfo",
          "name": "",
          "type": "tuple"
        }
      ],
      "stateMutability": "view",
      "type": "function"
    },
    {
      "inputs": [],
      "name": "getLaunchCount",
      "outputs": [
        {
          "internalType": "uint256",
          "name": "",
          "type": "uint256"
        }
      ],
      "stateMutability": "view",
      "type": "function"
    },
    {
      "inputs": [],
      "name": "launchFeeWei",
      "outputs": [
        {
          "internalType": "uint256",
          "name": "",
          "type": "uint256"
        }
      ],
      "stateMutability": "view",
      "type": "function"
    },
    {
      "inputs": [],
      "name": "owner",
      "outputs": [
        {
          "internalType": "address",
          "name": "",
          "type": "address"
        }
      ],
      "stateMutability": "view",
      "type": "function"
    },
    {
      "inputs": [],
      "name": "platformFeeRecipient",
      "outputs": [
        {
          "internalType": "address",
          "name": "",
          "type": "address"
        }
      ],
      "stateMutability": "view",
      "type": "function"
    },
    {
      "inputs": [
        {
          "internalType": "address",
          "name": "token",
          "type": "address"
        }
      ],
      "name": "poolByToken",
      "outputs": [
        {
          "internalType": "address",
          "name": "pool",
          "type": "address"
        }
      ],
      "stateMutability": "view",
      "type": "function"
    },
    {
      "inputs": [],
      "name": "poolDeployer",
      "outputs": [
        {
          "internalType": "address",
          "name": "",
          "type": "address"
        }
      ],
      "stateMutability": "view",
      "type": "function"
    },
    {
      "inputs": [],
      "name": "tokenDeployer",
      "outputs": [
        {
          "internalType": "address",
          "name": "",
          "type": "address"
        }
      ],
      "stateMutability": "view",
      "type": "function"
    },
    {
      "inputs": [
        {
          "internalType": "address",
          "name": "newOwner",
          "type": "address"
        }
      ],
      "name": "transferOwnership",
      "outputs": [],
      "stateMutability": "nonpayable",
      "type": "function"
    }
  ],
  "bytecode": "0x60c0346200045557601f62002e4038819003918201601f191683019291906001600160401b038411838510176200045a57816101a092849260409687528339810103126200045557620000528162000470565b9060206200006281830162000470565b90848301519160608401519060808501519560a086015160c08701516200008c60e0890162000470565b906200009c6101008a0162000470565b92620000ac6101208b0162000470565b9a6101408b01519762ffffff89169a8b8a036200045557620000e1610180620000d98f6101600162000470565b9e0162000470565b9d6001600160a01b03988916998a1562000410578916908115620003cb5761012c831162000397578415620003525785156200030d578615620002d65789169b8c156200029057898f16156200024a578f8a1615620002045750908896959493929160018060a01b03199a338c60005416176000558b60015416176001558a60025416176002556003556004556005556006556007551683600854161760085516906009541617600955600a549215600014620001fe57506127105b6001600160b81b03199092161760a091821b62ffffff60a01b1617600a5560809190915252516129ba9081620004868239608051818181610294015281816114a601526124c8015260a05181818161039d015281816115c201526124830152f35b6200019d565b90508f60649250519062461bcd60e51b82526004820152601660248201527f706f6f6c206465706c6f796572207265717569726564000000000000000000006044820152fd5b90508f60649250519062461bcd60e51b82526004820152601760248201527f746f6b656e206465706c6f7965722072657175697265640000000000000000006044820152fd5b90508f60649250519062461bcd60e51b82526004820152601360248201527f7633206d616e61676572207265717569726564000000000000000000000000006044820152fd5b508f5162461bcd60e51b8152600481018d9052600f60248201526e1d185c99d95d081c995c5d5a5c9959608a1b6044820152606490fd5b508f5162461bcd60e51b8152600481018d9052601660248201527f7669727475616c20746f6b656e207265717569726564000000000000000000006044820152606490fd5b508f5162461bcd60e51b8152600481018d9052601460248201527f7669727475616c206574682072657175697265640000000000000000000000006044820152606490fd5b508f5162461bcd60e51b8152600481018d9052600c60248201526b0cccaca40e8dede40d0d2ced60a31b6044820152606490fd5b508f5162461bcd60e51b8152600481018d9052601b60248201527f706c6174666f726d20726563697069656e7420726571756972656400000000006044820152606490fd5b508f5162461bcd60e51b8152600481018d9052601660248201527f66656520726563697069656e74207265717569726564000000000000000000006044820152606490fd5b600080fd5b634e487b7160e01b600052604160045260246000fd5b51906001600160a01b0382168203620004555756fe61018080604052600436101561001457600080fd5b60003560e01c9081630261ef92146125a4575080630b0420bb1461256457806313ed4aa61461253b578063150004eb146125155780631c8c0d92146124f75780632a2dae0a146124b25780633119049a1461246d57806339cbfa1f1461245057806346904840146124275780635930d3ce1461221f5780635de3bafb1461134757806363f0eb041461132957806383eeb3bb1461130b5780638da5cb5b146112e257806393a8e04d146112c45780639ff0251f146112a6578063b3602acd14611280578063bcae25a414611262578063d578192c14611239578063e1a452181461121c578063eb13554f146111f3578063f2fde38b146111425763fd04bbac1461011d57600080fd5b60e0366003190112610a19576004356001600160401b038111610a1957610148903690600401612608565b6024356001600160401b038111610a1957610167903690600401612608565b92906044356001600160401b038111610a1957610188903690600401612608565b906064356001600160401b038111610a19576101a8903690600401612608565b9290936101b860045434146127cb565b600060c052861561110d5787156110d6576107d060a4351161109b576103e860c43511611061576101e76128b7565b604051600081527fb610ea5b60c2e916119ad74eb6f1c4e02b296189e982f615f38630738be9786560203392a26002546040516365a61cab60e01b815260e0600482015290602090829081906001600160a01b03166102618d61024e60e485018f8f61282c565b848103600319016024860152908861282c565b676765c793fa10079d601b1b604484015230606484015233608484015260a483019190915260c4803590830152038160007f00000000000000000000000000000000000000000000000000000000000000006001600160a01b03165af18015610ed3576000608052611040575b5060018060a01b036001541660e05262ffffff60035460055460065460075460018060a01b03600854169160018060a01b036009541693600a549560405160a05263f796209760e01b60a0515260018060a01b0360805116600460a051015230602460a051015260e051604460a0510152606460a0510152608460a051015260a460a051015260c460a051015260e460a051015261010460a051015260018060a01b03811661012460a051015260a01c1661014460a0510152602060a05161016460a051600060018060a01b037f0000000000000000000000000000000000000000000000000000000000000000165af1978815610ed35760009861100a575b60a435676765c793fa10079d601b1b0296676765c793fa10079d601b1b880460a43503610ff457676765c793fa10079d601b1b6127108904810311610ff45760405163a9059cbb60e01b81526001600160a01b038b811660048301526127108a04676765c793fa10079d601b1b03602483015260805160209183916044918391600091165af1908115610ed357600091610fd5575b5015610f99576127108804610edf575b6001600160a01b038a163b15610a195789600061271060248b836040519586948593639556483760e01b855204676765c793fa10079d601b1b03600484015260018060a01b03165af18015610ed357610ebf575b506001600160a01b038a163b15610e0e5760405162e2c3fd60e11b81528a8160048160c0519360c0519060018060a01b03165af18015610a2657610ea9575b506040516306b456ef60e21b81526020816004816001600160a01b038f165afa908115610a265760c05191610e7a575b506001600160a01b038116610e14575b506080516001600160a01b03163b15610e0e57604051636e258e0760e11b815260c051608051919a918b90600490829084906001600160a01b03165af1998a15610a26578b9a610de6575b5061062d936020989693610615610639999794610621948e60018060a01b036080511660c05152600c8e52604060c051209060018060a01b03166bffffffffffffffffffffffff60a01b825416179055600b549f6040519d8e916105f483612635565b6080516001600160a01b039081168452169101523360408e01523691612880565b60608b01523691612880565b60808801523691612880565b60a08501523691612880565b60c0820152676765c793fa10079d601b1b60e0820152612710820461010082015242610120820152600160401b841015610b335760018401600b5561067d8461269b565b919091610dcd57805182546001600160a01b039182166001600160a01b03199182161784556020830151600185018054918416918316919091179055604083015160028501805491909316911617905560608101518051906001600160401b038211610b335781906106f260038601546126ec565b601f8111610d77575b506020906001601f841114610d025760c05192610cf7575b50508160011b916000199060031b1c19161760038301555b60808101518051906001600160401b038211610b3357819061075060048601546126ec565b601f8111610ca1575b506020906001601f841114610c2c5760c05192610c21575b50508160011b916000199060031b1c19161760048301555b60a08101518051906001600160401b038211610b335781906107ae60058601546126ec565b601f8111610bcb575b506020906001601f841114610b565760c05192610b4b575b50508160011b916000199060031b1c19161760058301555b60c08101518051906001600160401b038211610b335761080a60068501546126ec565b601f8111610ae9575b506020906001601f841114610a70579180600994926101209460c05192610a65575b50508160011b916000199060031b1c19161760068501555b60e081015160078501556101008101516008850155015191015562ffffff60035460075460018060a01b036008541660018060a01b036009541691600a54936127106040519760018060a01b038a168952676765c793fa10079d601b1b60208a01520460408801526060870152608086015260a085015260c084015260018060a01b03811660e084015260a01c1661010082015260018060a01b036080511690837f047d6cd3e0239e764a392db701c655fea8a19d6d059350ec7d8df5dc840043206101203393a46040516317773ebb60e01b8152608051602090829060049082906001600160a01b03165afa908115610a265760c05191610a33575b5060405163116e689f60e11b8152608051602090829060049082906001600160a01b03165afa908115610a265760c051916109ef575b506040519160c435835260208301526040820152827f8620494f920761bd37321ddd1f125e085d81426820d3ca4e8b1f0ab3dab7a578606060018060a01b036080511693a3604080516080519381526001600160a01b0393841660208201529190921691810191909152606090f35b90506020813d602011610a1e575b81610a0a6020938361267a565b81010312610a19575138610980565b600080fd5b3d91506109fd565b6040513d60c051823e3d90fd5b90506020813d602011610a5d575b81610a4e6020938361267a565b81010312610a1957513861094a565b3d9150610a41565b015190503880610835565b906006850160c05152602060c051209160c0515b601f1985168110610ad1575092600994926001926101209583601f19811610610ab8575b505050811b01600685015561084d565b015160001960f88460031b161c19169055388080610aa8565b91926020600181928685015181550194019201610a84565b6006850160c05152602060c05120601f840160051c810160208510610b2c575b601f830160051c82018110610b1f575050610813565b60c0518155600101610b09565b5080610b09565b634e487b7160e01b60c051526041600452602460c051fd5b0151905038806107cf565b92506005850160c05152602060c051209060c051935b601f1984168510610bb0576001945083601f19811610610b97575b505050811b0160058301556107e7565b015160001960f88460031b161c19169055388080610b87565b81810151835560209485019460019093019290910190610b6c565b9091506005850160c05152602060c05120601f840160051c810160208510610c1a575b90849392915b601f830160051c82018110610c0a5750506107b7565b60c0518155859450600101610bf4565b5080610bee565b015190503880610771565b92506004850160c05152602060c051209060c051935b601f1984168510610c86576001945083601f19811610610c6d575b505050811b016004830155610789565b015160001960f88460031b161c19169055388080610c5d565b81810151835560209485019460019093019290910190610c42565b9091506004850160c05152602060c05120601f840160051c810160208510610cf0575b90849392915b601f830160051c82018110610ce0575050610759565b60c0518155859450600101610cca565b5080610cc4565b015190503880610713565b92506003850160c05152602060c051209060c051935b601f1984168510610d5c576001945083601f19811610610d43575b505050811b01600383015561072b565b015160001960f88460031b161c19169055388080610d33565b81810151835560209485019460019093019290910190610d18565b9091506003850160c05152602060c05120601f840160051c810160208510610dc6575b90849392915b601f830160051c82018110610db65750506106fb565b60c0518155859450600101610da0565b5080610d9a565b634e487b7160e01b60c0515260c051600452602460c051fd5b610df891949896939795929a50612667565b60c051610e0e5792949093959197899838610591565b60c05180fd5b6080516001600160a01b03163b15610e0e576040516315c6deb960e31b81526001600160a01b03918216600482015260c05160805191929091839160249183918591165af18015610a26571561054657610e6d90612667565b60c051610e0e5738610546565b610e9c915060203d602011610ea2575b610e94818361267a565b81019061280d565b38610536565b503d610e8a565b610eb290612667565b60c051610e0e5738610506565b610ec890612667565b600060c052386104c7565b6040513d6000823e3d90fd5b60405163a9059cbb60e01b815233600482015261271089046024820152608051602090829060449082906000906001600160a01b03165af1908115610ed357600091610f6a575b506104735760405162461bcd60e51b815260206004820152601760248201527618dc99585d1bdc881d1c985b9cd9995c8819985a5b1959604a1b6044820152606490fd5b610f8c915060203d602011610f92575b610f84818361267a565b81019061284d565b38610f26565b503d610f7a565b60405162461bcd60e51b81526020600482015260146024820152731c1bdbdb081d1c985b9cd9995c8819985a5b195960621b6044820152606490fd5b610fee915060203d602011610f9257610f84818361267a565b38610463565b634e487b7160e01b600052601160045260246000fd5b975060203d602011611039575b806110276110339260a05161267a565b60a0510160a05161280d565b976103ce565b503d611017565b6110589060203d602011610ea257610e94818361267a565b608052386102ce565b60405162461bcd60e51b81526020600482015260126024820152710e8e4c2c8ca40cccaca40e8dede40d0d2ced60731b6044820152606490fd5b60405162461bcd60e51b81526020600482015260136024820152720c2d8d8dec6c2e8d2dedc40e8dede40d0d2ced606b1b6044820152606490fd5b60405162461bcd60e51b815260206004820152600f60248201526e1cde5b589bdb081c995c5d5a5c9959608a1b6044820152606490fd5b60405162461bcd60e51b815260206004820152600d60248201526c1b985b59481c995c5d5a5c9959609a1b6044820152606490fd5b34610a19576020366003190112610a19576004356001600160a01b0381811691829003610a195760005490811633036111c157811561118b576001600160a01b03191617600055005b60405162461bcd60e51b815260206004820152600e60248201526d1bdddb995c881c995c5d5a5c995960921b6044820152606490fd5b60405162461bcd60e51b815260206004820152600a60248201526937b7363c9037bbb732b960b11b6044820152606490fd5b34610a19576000366003190112610a19576002546040516001600160a01b039091168152602090f35b34610a19576000366003190112610a195760206040516127108152f35b34610a19576000366003190112610a19576008546040516001600160a01b039091168152602090f35b34610a19576000366003190112610a19576020600354604051908152f35b34610a19576000366003190112610a19576020604051676765c793fa10079d601b1b8152f35b34610a19576000366003190112610a19576020600b54604051908152f35b34610a19576000366003190112610a19576020600654604051908152f35b34610a19576000366003190112610a19576000546040516001600160a01b039091168152602090f35b34610a19576000366003190112610a19576020600454604051908152f35b34610a19576000366003190112610a19576020600754604051908152f35b60c0366003190112610a19576004356001600160401b038111610a1957611372903690600401612608565b6024356001600160401b038111610a1957611391903690600401612608565b92906044356001600160401b038111610a19576113b2903690600401612608565b906064356001600160401b038111610a19576113d2903690600401612608565b9290936113e260045434146127cb565b600061014052861561110d5787156110d6576107d060a4351161109b5760006101405261140d6128b7565b604051600081527fb610ea5b60c2e916119ad74eb6f1c4e02b296189e982f615f38630738be9786560203392a26002546040516365a61cab60e01b815260e0600482015290602090829081906001600160a01b03166114748d61024e60e485018f8f61282c565b676765c793fa10079d601b1b604484015230606484015233608484015260a4830191909152603260c4830152038160007f00000000000000000000000000000000000000000000000000000000000000006001600160a01b03165af18015610ed3576000610100526121fd575b5060018060a01b03600154166101605262ffffff60035460055460065460075460018060a01b03600854169160018060a01b036009541693600a54956040516101205263f796209760e01b610120515260018060a01b03610100511660046101205101523060246101205101526101605160446101205101526064610120510152608461012051015260a461012051015260c461012051015260e461012051015261010461012051015260018060a01b03811661012461012051015260a01c1661014461012051015260206101205161016461012051600060018060a01b037f0000000000000000000000000000000000000000000000000000000000000000165af1978815610ed3576000986121c4575b60a435676765c793fa10079d601b1b0296676765c793fa10079d601b1b880460a43503610ff457676765c793fa10079d601b1b6127108904810311610ff45760405163a9059cbb60e01b81526001600160a01b038b811660048301526127108a04676765c793fa10079d601b1b0360248301526101005160209183916044918391600091165af1908115610ed3576000916121a5575b5015610f995761271088046120fa575b6001600160a01b038a163b15610a195789600061271060248b836040519586948593639556483760e01b855204676765c793fa10079d601b1b03600484015260018060a01b03165af18015610ed3576120e5575b506001600160a01b038a163b1561203e5760405162e2c3fd60e11b81528a816004816101405193610140519060018060a01b03165af18015611c37576120ce575b506040516306b456ef60e21b81526020816004816001600160a01b038f165afa908115611c375761014051916120af575b506001600160a01b038116612045575b50610100516001600160a01b03163b1561203e57604051636e258e0760e11b81526101405161010051919a918b90600490829084906001600160a01b03165af1998a15611c37578b9a612015575b5061062d936020989693610615611845999794610621948e60018060a01b0361010051166101405152600c8e52604061014051209060018060a01b03166bffffffffffffffffffffffff60a01b825416179055600b549f6040519d8e9161182383612635565b610100516001600160a01b039081168452169101523360408e01523691612880565b60c0820152676765c793fa10079d601b1b60e0820152612710820461010082015242610120820152600160401b841015611d4b5760018401600b556118898461269b565b919091611ff957805182546001600160a01b039182166001600160a01b03199182161784556020830151600185018054918416918316919091179055604083015160028501805491909316911617905560608101518051906001600160401b038211611d4b5781906118fe60038601546126ec565b601f8111611fa0575b506020906001601f841114611f28576101405192611f1d575b50508160011b916000199060031b1c19161760038301555b60808101518051906001600160401b038211611d4b57819061195d60048601546126ec565b601f8111611ec4575b506020906001601f841114611e4c576101405192611e41575b50508160011b916000199060031b1c19161760048301555b60a08101518051906001600160401b038211611d4b5781906119bc60058601546126ec565b601f8111611de8575b506020906001601f841114611d70576101405192611d65575b50508160011b916000199060031b1c19161760058301555b60c08101518051906001600160401b038211611d4b57611a1960068501546126ec565b601f8111611cfe575b506020906001601f841114611c8257918060099492610120946101405192611c77575b50508160011b916000199060031b1c19161760068501555b60e081015160078501556101008101516008850155015191015562ffffff60035460075460018060a01b036008541660018060a01b036009541691600a54936127106040519760018060a01b038a168952676765c793fa10079d601b1b60208a01520460408801526060870152608086015260a085015260c084015260018060a01b03811660e084015260a01c1661010082015260018060a01b03610100511690837f047d6cd3e0239e764a392db701c655fea8a19d6d059350ec7d8df5dc840043206101203393a46040516317773ebb60e01b815261010051602090829060049082906001600160a01b03165afa908115611c37576101405191611c45575b5060405163116e689f60e11b815261010051602090829060049082906001600160a01b03165afa908115611c37576101405191611c05575b50604051916032835260208301526040820152827f8620494f920761bd37321ddd1f125e085d81426820d3ca4e8b1f0ab3dab7a578606060018060a01b03610100511693a360408051610100519381526001600160a01b0393841660208201529190921691810191909152606090f35b90506020813d602011611c2f575b81611c206020938361267a565b81010312610a19575184611b95565b3d9150611c13565b6040513d61014051823e3d90fd5b90506020813d602011611c6f575b81611c606020938361267a565b81010312610a19575183611b5d565b3d9150611c53565b015190508980611a45565b906006850161014051526020610140512091610140515b601f1985168110611ce6575092600994926001926101209583601f19811610611ccd575b505050811b016006850155611a5d565b015160001960f88460031b161c19169055898080611cbd565b91926020600181928685015181550194019201611c99565b60068501610140515260206101405120601f840160051c810160208510611d44575b601f830160051c82018110611d36575050611a22565b610140518155600101611d20565b5080611d20565b634e487b7160e01b61014051526041600452602461014051fd5b0151905087806119de565b9250600585016101405152602061014051209061014051935b601f1984168510611dcd576001945083601f19811610611db4575b505050811b0160058301556119f6565b015160001960f88460031b161c19169055878080611da4565b81810151835560209485019460019093019290910190611d89565b90915060058501610140515260206101405120601f840160051c810160208510611e3a575b90849392915b601f830160051c82018110611e295750506119c5565b610140518155859450600101611e13565b5080611e0d565b01519050878061197f565b9250600485016101405152602061014051209061014051935b601f1984168510611ea9576001945083601f19811610611e90575b505050811b016004830155611997565b015160001960f88460031b161c19169055878080611e80565b81810151835560209485019460019093019290910190611e65565b90915060048501610140515260206101405120601f840160051c810160208510611f16575b90849392915b601f830160051c82018110611f05575050611966565b610140518155859450600101611eef565b5080611ee9565b015190508780611920565b9250600385016101405152602061014051209061014051935b601f1984168510611f85576001945083601f19811610611f6c575b505050811b016003830155611938565b015160001960f88460031b161c19169055878080611f5c565b81810151835560209485019460019093019290910190611f41565b90915060038501610140515260206101405120601f840160051c810160208510611ff2575b90849392915b601f830160051c82018110611fe1575050611907565b610140518155859450600101611fcb565b5080611fc5565b634e487b7160e01b610140515261014051600452602461014051fd5b61202791949896939795929a50612667565b6101405161203e579294909395919789988b6117bd565b6101405180fd5b610100516001600160a01b03163b1561203e576040516315c6deb960e31b81526001600160a01b039182166004820152610140516101005191929091839160249183918591165af18015611c37571561176f576120a190612667565b6101405161203e578a61176f565b6120c8915060203d602011610ea257610e94818361267a565b8b61175f565b6120d790612667565b6101405161203e578a61172e565b6120ee90612667565b6000610140528a6116ed565b60405163a9059cbb60e01b81523360048201526127108904602482015261010051602090829060449082906000906001600160a01b03165af1908115610ed357600091612186575b506116995760405162461bcd60e51b815260206004820152601760248201527618dc99585d1bdc881d1c985b9cd9995c8819985a5b1959604a1b6044820152606490fd5b61219f915060203d602011610f9257610f84818361267a565b8b612142565b6121be915060203d602011610f9257610f84818361267a565b8b611689565b975060203d6020116121f6575b806121e26121f0926101205161267a565b61012051016101205161280d565b976115f3565b503d6121d1565b6122159060203d602011610ea257610e94818361267a565b61010052886114e1565b34610a19576020366003190112610a1957600435600061012060405161224481612635565b82815282602082015282604082015260608082015260606080820152606060a0820152606060c08201528260e0820152826101008201520152600b548110156123ee576122909061269b565b506009604051916122a083612635565b80546001600160a01b03908116845260018201548116602085015260028201541660408401526122d260038201612726565b60608401526122e360048201612726565b60808401526122f460058201612726565b60a084015261230560068201612726565b60c0840152600781015460e08401526008810154610100840152015461012082015260405180916020825260018060a01b03815116602083015260018060a01b03602082015116604083015260018060a01b03604082015116606083015260608101516101206123ce612386610140938460808801526101608701906125c8565b6123b96123a5608087015192601f1993848a83030160a08b01526125c8565b60a0870151838983030160c08a01526125c8565b9060c0860151908783030160e08801526125c8565b9260e0810151610100860152610100810151828601520151908301520390f35b60405162461bcd60e51b81526020600482015260116024820152701a5b9d985b1a59081b185d5b98da081a59607a1b6044820152606490fd5b34610a19576000366003190112610a19576001546040516001600160a01b039091168152602090f35b34610a19576000366003190112610a195760206040516103e88152f35b34610a19576000366003190112610a19576040517f00000000000000000000000000000000000000000000000000000000000000006001600160a01b03168152602090f35b34610a19576000366003190112610a19576040517f00000000000000000000000000000000000000000000000000000000000000006001600160a01b03168152602090f35b34610a19576000366003190112610a19576020600554604051908152f35b34610a19576000366003190112610a1957602062ffffff600a5460a01c16604051908152f35b34610a19576000366003190112610a19576009546040516001600160a01b039091168152602090f35b34610a19576020366003190112610a19576004356001600160a01b0381811691829003610a1957602091600052600c825260406000205416604051908152f35b34610a19576000366003190112610a1957600a546001600160a01b03168152602090f35b919082519283825260005b8481106125f4575050826000602080949584010152601f8019910116010190565b6020818301810151848301820152016125d3565b9181601f84011215610a19578235916001600160401b038311610a195760208381860195010111610a1957565b61014081019081106001600160401b0382111761265157604052565b634e487b7160e01b600052604160045260246000fd5b6001600160401b03811161265157604052565b90601f801991011681019081106001600160401b0382111761265157604052565b600b548110156126d657600a90600b600052027f0175b7a638427703f0dbe7bb9bbf987a2551717b34e79f33b5b1008d1fa01db90190600090565b634e487b7160e01b600052603260045260246000fd5b90600182811c9216801561271c575b602083101461270657565b634e487b7160e01b600052602260045260246000fd5b91607f16916126fb565b90604051918260008254612739816126ec565b908184526020946001916001811690816000146127a9575060011461276a575b5050506127689250038361267a565b565b600090815285812095935091905b8183106127915750506127689350820101388080612759565b85548884018501529485019487945091830191612778565b9250505061276894925060ff191682840152151560051b820101388080612759565b156127d257565b60405162461bcd60e51b81526020600482015260136024820152720d8c2eadcc6d040cccaca40dad2e6dac2e8c6d606b1b6044820152606490fd5b90816020910312610a1957516001600160a01b0381168103610a195790565b908060209392818452848401376000828201840152601f01601f1916010190565b90816020910312610a1957518015158103610a195790565b6001600160401b03811161265157601f01601f191660200190565b92919261288c82612865565b9161289a604051938461267a565b829481845281830111610a19578281602093846000960137010152565b600454801561298157600080808060018060a01b039485600254165af13d1561297c573d6128e481612865565b906128f2604051928361267a565b8152600060203d92013e5b1561293757600254166004546040519081527f4cef2d27cdf43d743c3c66401182e93989938e77d1be10f3ab9e6afdf799f83960203392a3565b60405162461bcd60e51b815260206004820152601a60248201527f6c61756e636820666565207472616e73666572206661696c65640000000000006044820152606490fd5b6128fd565b5056fea2646970667358221220408090dec48ce5718e27c3dda68c24cc2ee38f503f23c1cc57f359033125785164736f6c63430008180033",
  "linkReferences": {},
  "deployedLinkReferences": {}
}