{
  "_format": "hh-sol-artifact-1",
  "contractName": "MemePoolERC20Quote",
  "sourceName": "contracts/MemePoolERC20Quote.sol",
  "abi": [
    {
      "inputs": [
        {
          "internalType": "address",
          "name": "_token",
          "type": "address"
        },
        {
          "internalType": "address",
          "name": "_quoteToken",
          "type": "address"
        }
      ],
      "stateMutability": "nonpayable",
      "type": "constructor"
    },
    {
      "anonymous": false,
      "inputs": [
        {
          "indexed": true,
          "internalType": "address",
          "name": "buyer",
          "type": "address"
        },
        {
          "indexed": false,
          "internalType": "uint256",
          "name": "ethIn",
          "type": "uint256"
        },
        {
          "indexed": false,
          "internalType": "uint256",
          "name": "feePaid",
          "type": "uint256"
        },
        {
          "indexed": false,
          "internalType": "uint256",
          "name": "tokensOut",
          "type": "uint256"
        }
      ],
      "name": "Buy",
      "type": "event"
    },
    {
      "anonymous": false,
      "inputs": [
        {
          "indexed": true,
          "internalType": "address",
          "name": "recipient",
          "type": "address"
        },
        {
          "indexed": false,
          "internalType": "uint256",
          "name": "feeBps",
          "type": "uint256"
        }
      ],
      "name": "FeeConfigUpdated",
      "type": "event"
    },
    {
      "anonymous": false,
      "inputs": [
        {
          "indexed": true,
          "internalType": "address",
          "name": "pair",
          "type": "address"
        },
        {
          "indexed": false,
          "internalType": "uint256",
          "name": "tokenMigrated",
          "type": "uint256"
        },
        {
          "indexed": false,
          "internalType": "uint256",
          "name": "quoteMigrated",
          "type": "uint256"
        },
        {
          "indexed": false,
          "internalType": "uint256",
          "name": "lpMinted",
          "type": "uint256"
        },
        {
          "indexed": false,
          "internalType": "uint256",
          "name": "timestamp",
          "type": "uint256"
        }
      ],
      "name": "Graduated",
      "type": "event"
    },
    {
      "anonymous": false,
      "inputs": [
        {
          "indexed": false,
          "internalType": "address",
          "name": "dexRouter",
          "type": "address"
        },
        {
          "indexed": false,
          "internalType": "address",
          "name": "lpRecipient",
          "type": "address"
        },
        {
          "indexed": false,
          "internalType": "uint256",
          "name": "graduationTargetQuote",
          "type": "uint256"
        }
      ],
      "name": "MigrationConfigUpdated",
      "type": "event"
    },
    {
      "anonymous": false,
      "inputs": [
        {
          "indexed": false,
          "internalType": "uint256",
          "name": "tokenLiquidity",
          "type": "uint256"
        }
      ],
      "name": "PoolSeeded",
      "type": "event"
    },
    {
      "anonymous": false,
      "inputs": [
        {
          "indexed": true,
          "internalType": "address",
          "name": "buyer",
          "type": "address"
        },
        {
          "indexed": true,
          "internalType": "address",
          "name": "quoteToken",
          "type": "address"
        },
        {
          "indexed": false,
          "internalType": "uint256",
          "name": "quoteIn",
          "type": "uint256"
        },
        {
          "indexed": false,
          "internalType": "uint256",
          "name": "feePaid",
          "type": "uint256"
        },
        {
          "indexed": false,
          "internalType": "uint256",
          "name": "tokensOut",
          "type": "uint256"
        }
      ],
      "name": "QuoteBuy",
      "type": "event"
    },
    {
      "anonymous": false,
      "inputs": [
        {
          "indexed": true,
          "internalType": "address",
          "name": "seller",
          "type": "address"
        },
        {
          "indexed": true,
          "internalType": "address",
          "name": "quoteToken",
          "type": "address"
        },
        {
          "indexed": false,
          "internalType": "uint256",
          "name": "tokensIn",
          "type": "uint256"
        },
        {
          "indexed": false,
          "internalType": "uint256",
          "name": "quoteOut",
          "type": "uint256"
        },
        {
          "indexed": false,
          "internalType": "uint256",
          "name": "feePaid",
          "type": "uint256"
        }
      ],
      "name": "QuoteSell",
      "type": "event"
    },
    {
      "anonymous": false,
      "inputs": [
        {
          "indexed": true,
          "internalType": "address",
          "name": "seller",
          "type": "address"
        },
        {
          "indexed": false,
          "internalType": "uint256",
          "name": "tokensIn",
          "type": "uint256"
        },
        {
          "indexed": false,
          "internalType": "uint256",
          "name": "ethOut",
          "type": "uint256"
        },
        {
          "indexed": false,
          "internalType": "uint256",
          "name": "feePaid",
          "type": "uint256"
        }
      ],
      "name": "Sell",
      "type": "event"
    },
    {
      "inputs": [],
      "name": "BPS_DENOMINATOR",
      "outputs": [
        {
          "internalType": "uint256",
          "name": "",
          "type": "uint256"
        }
      ],
      "stateMutability": "view",
      "type": "function"
    },
    {
      "inputs": [],
      "name": "QUOTE_DECIMAL_SCALE",
      "outputs": [
        {
          "internalType": "uint256",
          "name": "",
          "type": "uint256"
        }
      ],
      "stateMutability": "view",
      "type": "function"
    },
    {
      "inputs": [
        {
          "internalType": "uint256",
          "name": "quoteAmountIn",
          "type": "uint256"
        },
        {
          "internalType": "uint256",
          "name": "minTokensOut",
          "type": "uint256"
        }
      ],
      "name": "buyWithQuote",
      "outputs": [
        {
          "internalType": "uint256",
          "name": "tokensOut",
          "type": "uint256"
        }
      ],
      "stateMutability": "nonpayable",
      "type": "function"
    },
    {
      "inputs": [
        {
          "internalType": "address",
          "name": "newRecipient",
          "type": "address"
        },
        {
          "internalType": "uint256",
          "name": "newFeeBps",
          "type": "uint256"
        }
      ],
      "name": "configureFees",
      "outputs": [],
      "stateMutability": "nonpayable",
      "type": "function"
    },
    {
      "inputs": [
        {
          "internalType": "address",
          "name": "newDexRouter",
          "type": "address"
        },
        {
          "internalType": "address",
          "name": "newLpRecipient",
          "type": "address"
        },
        {
          "internalType": "uint256",
          "name": "newTargetQuote",
          "type": "uint256"
        }
      ],
      "name": "configureMigration",
      "outputs": [],
      "stateMutability": "nonpayable",
      "type": "function"
    },
    {
      "inputs": [],
      "name": "dexRouter",
      "outputs": [
        {
          "internalType": "address",
          "name": "",
          "type": "address"
        }
      ],
      "stateMutability": "view",
      "type": "function"
    },
    {
      "inputs": [],
      "name": "ethReserve",
      "outputs": [
        {
          "internalType": "uint256",
          "name": "",
          "type": "uint256"
        }
      ],
      "stateMutability": "view",
      "type": "function"
    },
    {
      "inputs": [],
      "name": "factory",
      "outputs": [
        {
          "internalType": "address",
          "name": "",
          "type": "address"
        }
      ],
      "stateMutability": "view",
      "type": "function"
    },
    {
      "inputs": [],
      "name": "feeBps",
      "outputs": [
        {
          "internalType": "uint256",
          "name": "",
          "type": "uint256"
        }
      ],
      "stateMutability": "view",
      "type": "function"
    },
    {
      "inputs": [],
      "name": "feeRecipient",
      "outputs": [
        {
          "internalType": "address",
          "name": "",
          "type": "address"
        }
      ],
      "stateMutability": "view",
      "type": "function"
    },
    {
      "inputs": [],
      "name": "graduated",
      "outputs": [
        {
          "internalType": "bool",
          "name": "",
          "type": "bool"
        }
      ],
      "stateMutability": "view",
      "type": "function"
    },
    {
      "inputs": [],
      "name": "graduatedAt",
      "outputs": [
        {
          "internalType": "uint256",
          "name": "",
          "type": "uint256"
        }
      ],
      "stateMutability": "view",
      "type": "function"
    },
    {
      "inputs": [],
      "name": "graduationTargetEth",
      "outputs": [
        {
          "internalType": "uint256",
          "name": "",
          "type": "uint256"
        }
      ],
      "stateMutability": "view",
      "type": "function"
    },
    {
      "inputs": [],
      "name": "graduationTargetQuote",
      "outputs": [
        {
          "internalType": "uint256",
          "name": "",
          "type": "uint256"
        }
      ],
      "stateMutability": "view",
      "type": "function"
    },
    {
      "inputs": [
        {
          "internalType": "address",
          "name": "_feeRecipient",
          "type": "address"
        },
        {
          "internalType": "uint256",
          "name": "_feeBps",
          "type": "uint256"
        },
        {
          "internalType": "uint256",
          "name": "_virtualQuoteReserve",
          "type": "uint256"
        },
        {
          "internalType": "uint256",
          "name": "_virtualTokenReserve",
          "type": "uint256"
        },
        {
          "internalType": "uint256",
          "name": "_graduationTargetQuote",
          "type": "uint256"
        },
        {
          "internalType": "address",
          "name": "_dexRouter",
          "type": "address"
        },
        {
          "internalType": "address",
          "name": "_lpRecipient",
          "type": "address"
        }
      ],
      "name": "initialize",
      "outputs": [],
      "stateMutability": "nonpayable",
      "type": "function"
    },
    {
      "inputs": [],
      "name": "initialized",
      "outputs": [
        {
          "internalType": "bool",
          "name": "",
          "type": "bool"
        }
      ],
      "stateMutability": "view",
      "type": "function"
    },
    {
      "inputs": [],
      "name": "lpRecipient",
      "outputs": [
        {
          "internalType": "address",
          "name": "",
          "type": "address"
        }
      ],
      "stateMutability": "view",
      "type": "function"
    },
    {
      "inputs": [],
      "name": "migratedPair",
      "outputs": [
        {
          "internalType": "address",
          "name": "",
          "type": "address"
        }
      ],
      "stateMutability": "view",
      "type": "function"
    },
    {
      "inputs": [
        {
          "internalType": "uint256",
          "name": "quoteAmountIn",
          "type": "uint256"
        }
      ],
      "name": "quoteBuy",
      "outputs": [
        {
          "internalType": "uint256",
          "name": "tokensOut",
          "type": "uint256"
        },
        {
          "internalType": "uint256",
          "name": "feePaid",
          "type": "uint256"
        }
      ],
      "stateMutability": "view",
      "type": "function"
    },
    {
      "inputs": [],
      "name": "quoteReserve",
      "outputs": [
        {
          "internalType": "uint256",
          "name": "",
          "type": "uint256"
        }
      ],
      "stateMutability": "view",
      "type": "function"
    },
    {
      "inputs": [
        {
          "internalType": "uint256",
          "name": "tokenAmountIn",
          "type": "uint256"
        }
      ],
      "name": "quoteSell",
      "outputs": [
        {
          "internalType": "uint256",
          "name": "quoteOut",
          "type": "uint256"
        },
        {
          "internalType": "uint256",
          "name": "feePaid",
          "type": "uint256"
        }
      ],
      "stateMutability": "view",
      "type": "function"
    },
    {
      "inputs": [],
      "name": "quoteToken",
      "outputs": [
        {
          "internalType": "address",
          "name": "",
          "type": "address"
        }
      ],
      "stateMutability": "view",
      "type": "function"
    },
    {
      "inputs": [
        {
          "internalType": "uint256",
          "name": "tokenAmount",
          "type": "uint256"
        }
      ],
      "name": "seed",
      "outputs": [],
      "stateMutability": "nonpayable",
      "type": "function"
    },
    {
      "inputs": [],
      "name": "seeded",
      "outputs": [
        {
          "internalType": "bool",
          "name": "",
          "type": "bool"
        }
      ],
      "stateMutability": "view",
      "type": "function"
    },
    {
      "inputs": [
        {
          "internalType": "uint256",
          "name": "tokenAmountIn",
          "type": "uint256"
        },
        {
          "internalType": "uint256",
          "name": "minQuoteOut",
          "type": "uint256"
        }
      ],
      "name": "sell",
      "outputs": [
        {
          "internalType": "uint256",
          "name": "quoteOut",
          "type": "uint256"
        }
      ],
      "stateMutability": "nonpayable",
      "type": "function"
    },
    {
      "inputs": [],
      "name": "spotPrice",
      "outputs": [
        {
          "internalType": "uint256",
          "name": "",
          "type": "uint256"
        }
      ],
      "stateMutability": "view",
      "type": "function"
    },
    {
      "inputs": [],
      "name": "targetProgressBps",
      "outputs": [
        {
          "internalType": "uint256",
          "name": "",
          "type": "uint256"
        }
      ],
      "stateMutability": "view",
      "type": "function"
    },
    {
      "inputs": [],
      "name": "token",
      "outputs": [
        {
          "internalType": "address",
          "name": "",
          "type": "address"
        }
      ],
      "stateMutability": "view",
      "type": "function"
    },
    {
      "inputs": [],
      "name": "tokenReserve",
      "outputs": [
        {
          "internalType": "uint256",
          "name": "",
          "type": "uint256"
        }
      ],
      "stateMutability": "view",
      "type": "function"
    },
    {
      "inputs": [],
      "name": "triggerGraduation",
      "outputs": [],
      "stateMutability": "nonpayable",
      "type": "function"
    },
    {
      "inputs": [],
      "name": "virtualEthReserve",
      "outputs": [
        {
          "internalType": "uint256",
          "name": "",
          "type": "uint256"
        }
      ],
      "stateMutability": "view",
      "type": "function"
    },
    {
      "inputs": [],
      "name": "virtualQuoteReserve",
      "outputs": [
        {
          "internalType": "uint256",
          "name": "",
          "type": "uint256"
        }
      ],
      "stateMutability": "view",
      "type": "function"
    },
    {
      "inputs": [],
      "name": "virtualTokenReserve",
      "outputs": [
        {
          "internalType": "uint256",
          "name": "",
          "type": "uint256"
        }
      ],
      "stateMutability": "view",
      "type": "function"
    }
  ],
  "bytecode": "0x60e0346200019a57601f6200224238819003918201601f19168301916001600160401b038311848410176200019f5780849260409485528339810103126200019a576200005a60206200005283620001b5565b9201620001b5565b906001600160a01b038082161562000164578216156200012e5760a05260c052336080526040516120779081620001cb8239608051818181610642015281816106e9015281816108f301528181610b1c015261111d015260a0518181816101a3015281816103440152818161095c01528181610d58015281816118f20152818161194e01528181611a8c01528181611b6a0152611d7c015260c0518181816103bf01528181610cb001528181611225015281816119b401528181611a1301528181611aba01528181611b920152611ca30152f35b60405162461bcd60e51b815260206004820152600e60248201526d1c5d5bdd19481c995c5d5a5c995960921b6044820152606490fd5b60405162461bcd60e51b815260206004820152600e60248201526d1d1bdad95b881c995c5d5a5c995960921b6044820152606490fd5b600080fd5b634e487b7160e01b600052604160045260246000fd5b51906001600160a01b03821682036200019a5756fe608060408181526004918236101561001657600080fd5b600092833560e01c9182630758d924146112a457508163158ef93e1461127d5781631ad15bbc14611254578163217a4b701461121057816324a9d853146111f15781632760eca1146111d45781632a2c6972146110ee578163334041a6146110c7578163343ee3b7146110a8578163398482d8146110845781634329742d14610fd3578163452e68dd14610faa5781634690484014610f825781634beb394c14610f6357816352b86d2b146101f4578163649249d314610f445781636818735c14610be85781637f544e4914610bc95781638c575aa314610aba57816395564837146108cb5781639da771f4146105ef578163a64190c41461089d578163a8cec45f14610691578163aca6b65a14610671578163c45a01551461062d578163cbcb31711461060e578163d62ccb3f146105ef578163d79875eb1461025a578163e1a452181461023d578163e7c2b77214610216578163f5596626146101f457508063f95a02d0146101d65763fc0c546a1461019057600080fd5b346101d257816003193601126101d257517f00000000000000000000000000000000000000000000000000000000000000006001600160a01b03168152602090f35b5080fd5b50346101d257816003193601126101d2576020906006549051908152f35b90503461021257826003193601126102125760209250549051908152f35b8280fd5b5050346101d257816003193601126101d25760209060ff60085460b01c1690519015158152f35b5050346101d257816003193601126101d257602090516127108152f35b919050346102125761026b366112e4565b926008549161028060ff8460b81c1615611474565b60ff60b81b19928316600160b81b1760088190556102b49060ff906102aa60a882901c83166114ad565b60b01c161561159b565b6102bf8115156117e8565b6102c881611ff1565b956102d48715156115d3565b60025487116105ac576127106102ec600154896112fa565b04906103046102fb838a61152b565b97881015611615565b85516323b872dd60e01b8152338186019081523060208281019190915260408201869052996001600160a01b03969290918b90829081906060010381878b7f0000000000000000000000000000000000000000000000000000000000000000165af19081156105a2579161038761039e928c95948e8892610585575b5050611722565b610393876003546113fa565b60035560025461152b565b600255875163a9059cbb60e01b8082523383830190815260208101949094527f000000000000000000000000000000000000000000000000000000000000000088169790939091908c90829081906040010381888c5af190811561057b578c93929161041191879161055e575b5061169c565b856104b4575b50505050506104a47f979d7dfe5ba2269a5f9d4eb1050fb4e24587c61b13db43d174af3c3171added69186517f846c37eef631e0943682d87352ec117c20008eb7f425c9b85ac011a6d4774cc0339180610484858d8a846040919493926060820195825260208201520152565b0390a2865193845260208401889052604084015233929081906060820190565b0390a36008541660085551908152f35b84548a51948552166001600160a01b03169083019081526020810185905282908190604001038185895af1918215610553576104a4927f979d7dfe5ba2269a5f9d4eb1050fb4e24587c61b13db43d174af3c3171added6949261051d9291610526575b506116e0565b91883880610417565b61054691508b3d8d1161054c575b61053e818361164c565b810190611684565b38610517565b503d610534565b8751903d90823e3d90fd5b6105759150853d871161054c5761053e818361164c565b3861040b565b8a513d87823e3d90fd5b61059b9250803d1061054c5761053e818361164c565b388e610380565b89513d86823e3d90fd5b845162461bcd60e51b8152602081850152601a60248201527f696e73756666696369656e742071756f746520726573657276650000000000006044820152606490fd5b5050346101d257816003193601126101d2576020906002549051908152f35b5050346101d257816003193601126101d2576020906003549051908152f35b5050346101d257816003193601126101d257517f00000000000000000000000000000000000000000000000000000000000000006001600160a01b03168152602090f35b5050346101d257816003193601126101d2576020905164e8d4a510008152f35b919050346102125760e0366003190112610212576106ad6112c9565b916001600160a01b039160a43583811692608435916064359160443591602435908790036108995760c4359780891680990361089557610710817f0000000000000000000000000000000000000000000000000000000000000000163314611384565b6008549960ff8b60a01c1661085c57169586156108215761073561012c8311156113bf565b83156107e65784156107ab575061074d851515611766565b8661079b575b6bffffffffffffffffffffffff60a01b95868b5416178a55600155556005556006556007541617600755600160a01b916affffffffffffffffffffff60a81b16171760085580f35b6107a68815156117a4565b610753565b5162461bcd60e51b815260208184015260166024820152751d9a5c9d1d585b081d1bdad95b881c995c5d5a5c995960521b6044820152606490fd5b5162461bcd60e51b815260208184015260166024820152751d9a5c9d1d585b081c5d5bdd19481c995c5d5a5c995960521b6044820152606490fd5b5162461bcd60e51b81526020818401526016602482015275199959481c9958da5c1a595b9d081c995c5d5a5c995960521b6044820152606490fd5b875162461bcd60e51b81526020818601526013602482015272185b1c9958591e481a5b9a5d1a585b1a5e9959606a1b6044820152606490fd5b8a80fd5b8980fd5b905082346108c85760203660031901126108c857506108bc903561182c565b82519182526020820152f35b80fd5b839150346101d25760209081600319360112610212578035906001600160a01b039061091a337f0000000000000000000000000000000000000000000000000000000000000000841614611384565b6008549160ff8360a81c16610a865760ff8360a01c1615610a5157846024916109448615156117e8565b88516370a0823160e01b8152308582015292839182907f0000000000000000000000000000000000000000000000000000000000000000165afa908115610a47579084918791610a12575b50106109d9575060ff60a81b1916600160a81b176008556003819055925192835290917fa71ed34ff06af8d6865a8f541aae52d72fa89f0e5ee15f01d48fa6c62c8569149190a180f35b855162461bcd60e51b81529081018490526013602482015272696e73756666696369656e7420746f6b656e7360681b6044820152606490fd5b809250868092503d8311610a40575b610a2b818361164c565b81010312610a3c578390518861098f565b8580fd5b503d610a21565b87513d88823e3d90fd5b865162461bcd60e51b8152808301869052600f60248201526e1b9bdd081a5b9a5d1a585b1a5e9959608a1b6044820152606490fd5b865162461bcd60e51b8152808301869052600e60248201526d185b1c9958591e481cd95959195960921b6044820152606490fd5b5050346101d25760603660031901126101d257610ad56112c9565b602435906001600160a01b0380831690818403610a3c577fbcdc4bff84f936019028a7bcbef6b449550d6334606377b822720e57e94276c494610bb39260443592610b43817f0000000000000000000000000000000000000000000000000000000000000000163314611384565b60085490610b5760ff8360b01c16156114eb565b610b62851515611766565b86169081610bb9575b600780546001600160a01b0319908116909317905516176008556006829055516001600160a01b03938416815292909316602083015260408201929092529081906060820190565b0390a180f35b610bc48315156117a4565b610b6b565b5050346101d257816003193601126101d257602090600a549051908152f35b8383346101d257610bf8366112e4565b9260085491610c0d60ff8460b81c1615611474565b60ff60b81b19928316600160b81b176008819055610c379060ff906102aa60a882901c83166114ad565b8015610f1057612710610c4c600154836112fa565b04610c57818361152b565b92610c78610c6485611f6a565b97610c708915156115d3565b881015611615565b6003548711610ed45785516323b872dd60e01b8152338982019081523060208083019190915260408201869052996001600160a01b037f00000000000000000000000000000000000000000000000000000000000000008116979390928c90829081906060010381888c5af190811561057b5791610d008d94928d948891610eb7575061169c565b86610e38575b610d15610d54956002546113fa565b600255610d248360035461152b565b6003558a5163a9059cbb60e01b815233918101918252602082019390935291938492839187918391604090910190565b03927f0000000000000000000000000000000000000000000000000000000000000000165af19182156105535788927fef15014c0b5775df7c57e26f3ddd7a80b0c875a3b685fd3b7121b5a6bf5bb3ff9492610db69291610e1b575b50611722565b8651848152602081018290526040810183905233907fbeae048c6d270d9469f86cf6e8fedda3c60ad770f16c24c9fc131c8e9a09101d90606090a28651938452602084015260408301523391606090a3610e0e611fc6565b6008541660085551908152f35b610e3291508b3d8d1161054c5761053e818361164c565b8b610db0565b85548b5163a9059cbb60e01b81529083166001600160a01b0316828201908152602081018990529295919491935091829081906040010381888c5af190811561057b5792610d158c93610e988f9694610d5498958a91610ea057506116e0565b955050610d06565b6105469150883d8a1161054c5761053e818361164c565b610ece9150863d881161054c5761053e818361164c565b8f61040b565b855162461bcd60e51b81526020818a01526016602482015275696e73756666696369656e74206c697175696469747960501b6044820152606490fd5b835162461bcd60e51b8152602081880152600e60248201526d1c5d5bdd19481c995c5d5a5c995960921b6044820152606490fd5b5050346101d257816003193601126101d2576020906006549051908152f35b905082346108c85760203660031901126108c857506108bc9035611538565b5050346101d257816003193601126101d257905490516001600160a01b039091168152602090f35b5050346101d257816003193601126101d25760085490516001600160a01b039091168152602090f35b90503461021257826003193601126102125760085491610ff960ff8460b81c1615611474565b60ff60b81b19928316600160b81b17600881905561102d9060ff9061102360a882901c83166114ad565b60b01c16156114eb565b6002546006541161104c57505061104261188a565b6008541660085580f35b906020606492519162461bcd60e51b835282015260126024820152711d185c99d95d081b9bdd081c995858da195960721b6044820152fd5b5050346101d257816003193601126101d2576020906110a1611407565b9051908152f35b5050346101d257816003193601126101d2576020906005549051908152f35b5050346101d257816003193601126101d25760209060ff60085460a81c1690519015158152f35b919050346102125780600319360112610212576111096112c9565b60243591906001600160a01b0390611144337f0000000000000000000000000000000000000000000000000000000000000000841614611384565b1692831561119d57508160209161118061012c7fe42708d93b95810922305119a3271ca42233da9ebe1e1e503f0e887817a32c7a9511156113bf565b85546001600160a01b03191685178655600182905551908152a280f35b6020606492519162461bcd60e51b835282015260126024820152711c9958da5c1a595b9d081c995c5d5a5c995960721b6044820152fd5b5050346101d257816003193601126101d2576020906110a1611343565b5050346101d257816003193601126101d2576020906001549051908152f35b5050346101d257816003193601126101d257517f00000000000000000000000000000000000000000000000000000000000000006001600160a01b03168152602090f35b5050346101d257816003193601126101d25760095490516001600160a01b039091168152602090f35b5050346101d257816003193601126101d25760209060ff60085460a01c1690519015158152f35b8490346101d257816003193601126101d2576007546001600160a01b03168152602090f35b600435906001600160a01b03821682036112df57565b600080fd5b60409060031901126112df576004359060243590565b8181029291811591840414171561130d57565b634e487b7160e01b600052601160045260246000fd5b811561132d570490565b634e487b7160e01b600052601260045260246000fd5b600654801561137e57600254612710918282029180830484149015171561130d5761136d91611323565b90808211611379575090565b905090565b50600090565b1561138b57565b60405162461bcd60e51b815260206004820152600c60248201526b6f6e6c7920666163746f727960a01b6044820152606490fd5b156113c657565b60405162461bcd60e51b815260206004820152600c60248201526b0cccaca40e8dede40d0d2ced60a31b6044820152606490fd5b9190820180921161130d57565b611416600354600554906113fa565b801561137e5761142b600254600454906113fa565b9064e8d4a510009182810292818404148115171561130d576c0c9f2c9cd04674edea400000000291808304670de0b6b3a7640000149015171561130d5761147191611323565b90565b1561147b57565b60405162461bcd60e51b815260206004820152600a6024820152697265656e7472616e637960b01b6044820152606490fd5b156114b457565b60405162461bcd60e51b815260206004820152600f60248201526e1c1bdbdb081b9bdd081cd959591959608a1b6044820152606490fd5b156114f257565b60405162461bcd60e51b8152602060048201526011602482015270185b1c9958591e4819dc98591d585d1959607a1b6044820152606490fd5b9190820391821161130d57565b60085460ff8160a81c161590811561158d575b508015611585575b61157c5761157961157461271061156c600154856112fa565b04809361152b565b611f6a565b91565b50600090600090565b508015611553565b60ff915060b01c163861154b565b156115a257565b60405162461bcd60e51b815260206004820152600960248201526819dc98591d585d195960ba1b6044820152606490fd5b156115da57565b60405162461bcd60e51b81526020600482015260136024820152721a5b9cdd59999a58da595b9d081bdd5d1c1d5d606a1b6044820152606490fd5b1561161c57565b60405162461bcd60e51b8152602060048201526008602482015267736c69707061676560c01b6044820152606490fd5b90601f8019910116810190811067ffffffffffffffff82111761166e57604052565b634e487b7160e01b600052604160045260246000fd5b908160209103126112df575180151581036112df5790565b156116a357565b60405162461bcd60e51b81526020600482015260156024820152741c5d5bdd19481d1c985b9cd9995c8819985a5b1959605a1b6044820152606490fd5b156116e757565b60405162461bcd60e51b8152602060048201526013602482015272199959481d1c985b9cd9995c8819985a5b1959606a1b6044820152606490fd5b1561172957565b60405162461bcd60e51b81526020600482015260156024820152741d1bdad95b881d1c985b9cd9995c8819985a5b1959605a1b6044820152606490fd5b1561176d57565b60405162461bcd60e51b815260206004820152600f60248201526e1d185c99d95d081c995c5d5a5c9959608a1b6044820152606490fd5b156117ab57565b60405162461bcd60e51b81526020600482015260156024820152741b1c081c9958da5c1a595b9d081c995c5d5a5c9959605a1b6044820152606490fd5b156117ef57565b60405162461bcd60e51b81526020600482015260156024820152741d1bdad95b88185b5bdd5b9d081c995c5d5a5c9959605a1b6044820152606490fd5b60085460ff8160a81c161590811561187c575b508015611874575b61157c5761185490611ff1565b801561157c5761157961271061186c600154846112fa565b04809261152b565b508015611847565b60ff915060b01c163861183f565b6007546001600160a01b03168015611f3057600160b01b60ff60b01b19600854161760085542600a55600354600254600060035560006002556040519263095ea7b360e01b908185526004850152600060248501526044936020818681600060018060a01b037f0000000000000000000000000000000000000000000000000000000000000000165af18015611d4b57611f11575b506007546040518281526001600160a01b039091166004820152602481018490526020818060448101038160007f00000000000000000000000000000000000000000000000000000000000000006001600160a01b03165af18015611d4b57611ef2575b506007546040518281526001600160a01b0391821660048201526000602482018190529092916020918491889183917f0000000000000000000000000000000000000000000000000000000000000000165af1908115611d4b578392602092611ed5575b506007546040519182526001600160a01b031660048201526024810192909252818060448101038160007f00000000000000000000000000000000000000000000000000000000000000006001600160a01b03165af18015611d4b57611eb6575b506007546008546001600160a01b0391821694911642610e10810190811061130d576101046060926000604051988994859362e8e33760e81b855260018060a01b037f000000000000000000000000000000000000000000000000000000000000000016600486015260018060a01b037f00000000000000000000000000000000000000000000000000000000000000001660248601528a898601528960648601528360848601528360a486015260c485015260e48401525af1918215611d4b57600093600095600094611e70575b5060075460405163c45a015560e01b815290602090829060049082906001600160a01b03165afa908115611d4b578491602091600091611e53575b5060405163e6a4390560e01b81526001600160a01b037f0000000000000000000000000000000000000000000000000000000000000000811660048301527f0000000000000000000000000000000000000000000000000000000000000000811660248301529093849290918391165afa908115611d4b57600091611e24575b5060018060a01b03166bffffffffffffffffffffffff60a01b6009541617600955848111611d57575b50848111611c50575b50507f71aa8c3702dbbc54247a4e6446450e64a46250dd72707a247ddb01d72eaef4459160809160018060a01b03600954169460405192835260208301526040820152426060820152a2565b600054611c9d916020916001600160a01b031690611c6f90889061152b565b60405163a9059cbb60e01b81526001600160a01b039092166004830152602482015291829081906044820190565b038160007f00000000000000000000000000000000000000000000000000000000000000006001600160a01b03165af1908115611d4b57600091611d2c575b5015611ce85780611c04565b6064907f71756f74652064757374207472616e73666572206661696c65640000000000006040519162461bcd60e51b835260206004840152601a6024840152820152fd5b611d45915060203d60201161054c5761053e818361164c565b38611cdc565b6040513d6000823e3d90fd5b600054611d76916020916001600160a01b031690611c6f90889061152b565b038160007f00000000000000000000000000000000000000000000000000000000000000006001600160a01b03165af1908115611d4b57600091611e05575b5015611dc15738611bfb565b60405162461bcd60e51b815260206004820152601a60248201527f746f6b656e2064757374207472616e73666572206661696c656400000000000081840152606490fd5b611e1e915060203d60201161054c5761053e818361164c565b38611db5565b611e46915060203d602011611e4c575b611e3e818361164c565b810190612022565b38611bd2565b503d611e34565b611e6a9150823d8411611e4c57611e3e818361164c565b38611b52565b9450925093506060833d606011611eae575b81611e8f6060938361164c565b810103126112df57825193604060208501519401519493949238611b17565b3d9150611e82565b611ece9060203d60201161054c5761053e818361164c565b5038611a48565b611eeb90833d851161054c5761053e818361164c565b50386119e7565b611f0a9060203d60201161054c5761053e818361164c565b5038611983565b611f299060203d60201161054c5761053e818361164c565b503861191f565b60405162461bcd60e51b815260206004820152601260248201527119195e081c9bdd5d195c881b9bdd081cd95d60721b6044820152606490fd5b801561137e57611f7f600254600454906113fa565b90611fad60035492611fa7611f96600554866113fa565b93611fa185846112fa565b926113fa565b90611323565b80821115611fbe5761136d9161152b565b505050600090565b60ff60085460b01c168015611fe4575b611fe257611fe261188a565b565b5060025460065411611fd6565b60025490611fad612004600454846113fa565b91611fa7612017600354600554906113fa565b91611fa183866112fa565b908160209103126112df57516001600160a01b03811681036112df579056fea26469706673582212200b01d6da30d4ba38d175ad52e96d41a1e84e2f7bdd4b29fb4b59f80142f1c3a964736f6c63430008180033",
  "linkReferences": {},
  "deployedLinkReferences": {}
}