{
  "_format": "hh-sol-artifact-1",
  "contractName": "EtherpumpGoEscrow",
  "sourceName": "contracts/EtherpumpGoEscrow.sol",
  "abi": [
    {
      "anonymous": false,
      "inputs": [
        {
          "indexed": true,
          "internalType": "bytes32",
          "name": "bountyId",
          "type": "bytes32"
        },
        {
          "indexed": true,
          "internalType": "address",
          "name": "creator",
          "type": "address"
        },
        {
          "indexed": false,
          "internalType": "uint256",
          "name": "amount",
          "type": "uint256"
        }
      ],
      "name": "BountyFunded",
      "type": "event"
    },
    {
      "anonymous": false,
      "inputs": [
        {
          "indexed": true,
          "internalType": "bytes32",
          "name": "bountyId",
          "type": "bytes32"
        },
        {
          "indexed": true,
          "internalType": "address",
          "name": "creator",
          "type": "address"
        },
        {
          "indexed": false,
          "internalType": "uint256",
          "name": "amount",
          "type": "uint256"
        }
      ],
      "name": "BountyRefunded",
      "type": "event"
    },
    {
      "anonymous": false,
      "inputs": [
        {
          "indexed": true,
          "internalType": "bytes32",
          "name": "bountyId",
          "type": "bytes32"
        },
        {
          "indexed": true,
          "internalType": "address",
          "name": "winner",
          "type": "address"
        },
        {
          "indexed": false,
          "internalType": "uint256",
          "name": "amount",
          "type": "uint256"
        }
      ],
      "name": "BountyReleased",
      "type": "event"
    },
    {
      "inputs": [
        {
          "internalType": "bytes32",
          "name": "",
          "type": "bytes32"
        }
      ],
      "name": "bounties",
      "outputs": [
        {
          "internalType": "address",
          "name": "creator",
          "type": "address"
        },
        {
          "internalType": "uint256",
          "name": "amount",
          "type": "uint256"
        },
        {
          "internalType": "bool",
          "name": "released",
          "type": "bool"
        },
        {
          "internalType": "bool",
          "name": "refunded",
          "type": "bool"
        }
      ],
      "stateMutability": "view",
      "type": "function"
    },
    {
      "inputs": [
        {
          "internalType": "bytes32",
          "name": "bountyId",
          "type": "bytes32"
        }
      ],
      "name": "fund",
      "outputs": [],
      "stateMutability": "payable",
      "type": "function"
    },
    {
      "inputs": [
        {
          "internalType": "bytes32",
          "name": "bountyId",
          "type": "bytes32"
        }
      ],
      "name": "refund",
      "outputs": [],
      "stateMutability": "nonpayable",
      "type": "function"
    },
    {
      "inputs": [
        {
          "internalType": "bytes32",
          "name": "bountyId",
          "type": "bytes32"
        },
        {
          "internalType": "address payable",
          "name": "winner",
          "type": "address"
        }
      ],
      "name": "release",
      "outputs": [],
      "stateMutability": "nonpayable",
      "type": "function"
    }
  ],
  "bytecode": "0x608080604052346100165761052f908161001c8239f35b600080fdfe6040608081526004908136101561001557600080fd5b600091823560e01c80631bbdcfd3146102ed5780637249fbb614610237578063bf14c119146100a75763bf5522da1461004d57600080fd5b346100a35760203660031901126100a3578160809360ff92358152806020522060018060a01b038154169260026001830154920154918151948552602085015282821615159084015260081c1615156060820152f35b8280fd5b509190602090816003193601126100a35783359081156102045734156101d757818452838352808420546001600160a01b039081166101a3578151906080820182811067ffffffffffffffff82111761019057908392917f9e18730d7709cbfbb56bb1b182ecdd270b4759d3a1efc5d5e7c9f70c6e36676294523382526002868301923484528481019389855260608201938a8552888b528a8a52868b209251166bffffffffffffffffffffffff60a01b83541617825551600182015501915115159060ff61ff0084549251151560081b1692169061ffff19161717905551923484523393a380f35b634e487b7160e01b875260418852602487fd5b815162461bcd60e51b8152808701859052600e60248201526d185b1c9958591e48199d5b99195960921b6044820152606490fd5b5162461bcd60e51b815280850183905260086024820152676e6f2066756e647360c01b6044820152606490fd5b5162461bcd60e51b8152808501839052600e60248201526d696e76616c696420626f756e747960901b6044820152606490fd5b50346100a35760203660031901126100a35735808352826020528183209161026960018060a01b0384541633146103eb565b8360028401600181549560ff871615806102de575b61028790610425565b019061010082549661ff001916179055556102b18480808087335af16102ab61045a565b506104bb565b519182527fdd01b4689a2372afbf170143867234d409c5b6dd10f83918afd6e200f00f405860203393a380f35b50600887901c60ff161561027e565b50346100a357816003193601126100a3576001600160a01b036024358181169383359390918590036103e757838652856020526103318287209384541633146103eb565b84156103b45750816020918660027fb077b726ac63e04dbbae3e649506cb2cebbf4cd76595c45aa2652a490f12a46d9501600181549460ff861615806103a5575b61037b90610425565b0190600182549560ff19161790555561039d87808080868b5af16102ab61045a565b51908152a380f35b50600886901c60ff1615610372565b6020606492519162461bcd60e51b8352820152600e60248201526d34b73b30b634b2103bb4b73732b960911b6044820152fd5b8580fd5b156103f257565b60405162461bcd60e51b815260206004820152600b60248201526a3737ba1031b932b0ba37b960a91b6044820152606490fd5b1561042c57565b60405162461bcd60e51b815260206004820152600660248201526518db1bdcd95960d21b6044820152606490fd5b3d156104b65767ffffffffffffffff903d8281116104a05760405192601f8201601f19908116603f01168401908111848210176104a05760405282523d6000602084013e565b634e487b7160e01b600052604160045260246000fd5b606090565b156104c257565b60405162461bcd60e51b815260206004820152600f60248201526e1d1c985b9cd9995c8819985a5b1959608a1b6044820152606490fdfea26469706673582212208f01a159bd7d4e5a60a4aa0a217018b9bd82af8f7ca94a184bb604f874f3312664736f6c63430008180033",
  "linkReferences": {},
  "deployedLinkReferences": {}
}