{
  "_format": "hh-sol-artifact-1",
  "contractName": "MemePool",
  "sourceName": "contracts/MemePool.sol",
  "abi": [
    {
      "inputs": [
        {
          "internalType": "address",
          "name": "_token",
          "type": "address"
        },
        {
          "internalType": "address",
          "name": "_factory",
          "type": "address"
        },
        {
          "internalType": "address",
          "name": "_feeRecipient",
          "type": "address"
        },
        {
          "internalType": "uint256",
          "name": "_feeBps",
          "type": "uint256"
        },
        {
          "internalType": "uint256",
          "name": "_virtualEthReserve",
          "type": "uint256"
        },
        {
          "internalType": "uint256",
          "name": "_virtualTokenReserve",
          "type": "uint256"
        },
        {
          "internalType": "uint256",
          "name": "_graduationTargetEth",
          "type": "uint256"
        },
        {
          "internalType": "address",
          "name": "_dexRouter",
          "type": "address"
        },
        {
          "internalType": "address",
          "name": "_lpRecipient",
          "type": "address"
        },
        {
          "internalType": "address",
          "name": "_v3PositionManager",
          "type": "address"
        },
        {
          "internalType": "uint24",
          "name": "_v3Fee",
          "type": "uint24"
        }
      ],
      "stateMutability": "payable",
      "type": "constructor"
    },
    {
      "anonymous": false,
      "inputs": [
        {
          "indexed": true,
          "internalType": "address",
          "name": "buyer",
          "type": "address"
        },
        {
          "indexed": false,
          "internalType": "uint256",
          "name": "ethIn",
          "type": "uint256"
        },
        {
          "indexed": false,
          "internalType": "uint256",
          "name": "feePaid",
          "type": "uint256"
        },
        {
          "indexed": false,
          "internalType": "uint256",
          "name": "tokensOut",
          "type": "uint256"
        }
      ],
      "name": "Buy",
      "type": "event"
    },
    {
      "anonymous": false,
      "inputs": [
        {
          "indexed": true,
          "internalType": "address",
          "name": "pair",
          "type": "address"
        },
        {
          "indexed": false,
          "internalType": "uint256",
          "name": "quoteReserve",
          "type": "uint256"
        },
        {
          "indexed": false,
          "internalType": "uint256",
          "name": "lpBurned",
          "type": "uint256"
        },
        {
          "indexed": false,
          "internalType": "uint256",
          "name": "tokenSupplyBurned",
          "type": "uint256"
        },
        {
          "indexed": false,
          "internalType": "uint256",
          "name": "timestamp",
          "type": "uint256"
        }
      ],
      "name": "DexCurveCompleted",
      "type": "event"
    },
    {
      "anonymous": false,
      "inputs": [
        {
          "indexed": true,
          "internalType": "address",
          "name": "pair",
          "type": "address"
        },
        {
          "indexed": false,
          "internalType": "uint256",
          "name": "tokenMigrated",
          "type": "uint256"
        },
        {
          "indexed": false,
          "internalType": "uint256",
          "name": "ethMigrated",
          "type": "uint256"
        },
        {
          "indexed": false,
          "internalType": "uint256",
          "name": "lpMinted",
          "type": "uint256"
        },
        {
          "indexed": false,
          "internalType": "uint256",
          "name": "timestamp",
          "type": "uint256"
        }
      ],
      "name": "DexCurveOpened",
      "type": "event"
    },
    {
      "anonymous": false,
      "inputs": [
        {
          "indexed": true,
          "internalType": "address",
          "name": "recipient",
          "type": "address"
        },
        {
          "indexed": false,
          "internalType": "uint256",
          "name": "feeBps",
          "type": "uint256"
        }
      ],
      "name": "FeeConfigUpdated",
      "type": "event"
    },
    {
      "anonymous": false,
      "inputs": [
        {
          "indexed": true,
          "internalType": "address",
          "name": "pair",
          "type": "address"
        },
        {
          "indexed": false,
          "internalType": "uint256",
          "name": "tokenMigrated",
          "type": "uint256"
        },
        {
          "indexed": false,
          "internalType": "uint256",
          "name": "ethMigrated",
          "type": "uint256"
        },
        {
          "indexed": false,
          "internalType": "uint256",
          "name": "lpMinted",
          "type": "uint256"
        },
        {
          "indexed": false,
          "internalType": "uint256",
          "name": "timestamp",
          "type": "uint256"
        }
      ],
      "name": "Graduated",
      "type": "event"
    },
    {
      "anonymous": false,
      "inputs": [
        {
          "indexed": true,
          "internalType": "address",
          "name": "caller",
          "type": "address"
        },
        {
          "indexed": false,
          "internalType": "uint256",
          "name": "ethReserve",
          "type": "uint256"
        },
        {
          "indexed": false,
          "internalType": "uint256",
          "name": "tokenReserve",
          "type": "uint256"
        }
      ],
      "name": "InstantGraduationTriggered",
      "type": "event"
    },
    {
      "anonymous": false,
      "inputs": [
        {
          "indexed": false,
          "internalType": "address",
          "name": "dexRouter",
          "type": "address"
        },
        {
          "indexed": false,
          "internalType": "address",
          "name": "lpRecipient",
          "type": "address"
        },
        {
          "indexed": false,
          "internalType": "uint256",
          "name": "graduationTargetEth",
          "type": "uint256"
        }
      ],
      "name": "MigrationConfigUpdated",
      "type": "event"
    },
    {
      "anonymous": false,
      "inputs": [
        {
          "indexed": false,
          "internalType": "uint256",
          "name": "tokenLiquidity",
          "type": "uint256"
        }
      ],
      "name": "PoolSeeded",
      "type": "event"
    },
    {
      "anonymous": false,
      "inputs": [
        {
          "indexed": true,
          "internalType": "address",
          "name": "seller",
          "type": "address"
        },
        {
          "indexed": false,
          "internalType": "uint256",
          "name": "tokensIn",
          "type": "uint256"
        },
        {
          "indexed": false,
          "internalType": "uint256",
          "name": "ethOut",
          "type": "uint256"
        },
        {
          "indexed": false,
          "internalType": "uint256",
          "name": "feePaid",
          "type": "uint256"
        }
      ],
      "name": "Sell",
      "type": "event"
    },
    {
      "inputs": [],
      "name": "BPS_DENOMINATOR",
      "outputs": [
        {
          "internalType": "uint256",
          "name": "",
          "type": "uint256"
        }
      ],
      "stateMutability": "view",
      "type": "function"
    },
    {
      "inputs": [],
      "name": "BURN_ADDRESS",
      "outputs": [
        {
          "internalType": "address",
          "name": "",
          "type": "address"
        }
      ],
      "stateMutability": "view",
      "type": "function"
    },
    {
      "inputs": [
        {
          "internalType": "uint256",
          "name": "minTokensOut",
          "type": "uint256"
        }
      ],
      "name": "buy",
      "outputs": [
        {
          "internalType": "uint256",
          "name": "tokensOut",
          "type": "uint256"
        }
      ],
      "stateMutability": "payable",
      "type": "function"
    },
    {
      "inputs": [
        {
          "internalType": "address",
          "name": "newRecipient",
          "type": "address"
        },
        {
          "internalType": "uint256",
          "name": "newFeeBps",
          "type": "uint256"
        }
      ],
      "name": "configureFees",
      "outputs": [],
      "stateMutability": "nonpayable",
      "type": "function"
    },
    {
      "inputs": [
        {
          "internalType": "address",
          "name": "newDexRouter",
          "type": "address"
        },
        {
          "internalType": "address",
          "name": "newLpRecipient",
          "type": "address"
        },
        {
          "internalType": "uint256",
          "name": "newTargetEth",
          "type": "uint256"
        }
      ],
      "name": "configureMigration",
      "outputs": [],
      "stateMutability": "nonpayable",
      "type": "function"
    },
    {
      "inputs": [],
      "name": "dexRouter",
      "outputs": [
        {
          "internalType": "address",
          "name": "",
          "type": "address"
        }
      ],
      "stateMutability": "view",
      "type": "function"
    },
    {
      "inputs": [],
      "name": "ethReserve",
      "outputs": [
        {
          "internalType": "uint256",
          "name": "",
          "type": "uint256"
        }
      ],
      "stateMutability": "view",
      "type": "function"
    },
    {
      "inputs": [],
      "name": "factory",
      "outputs": [
        {
          "internalType": "address",
          "name": "",
          "type": "address"
        }
      ],
      "stateMutability": "view",
      "type": "function"
    },
    {
      "inputs": [],
      "name": "feeBps",
      "outputs": [
        {
          "internalType": "uint256",
          "name": "",
          "type": "uint256"
        }
      ],
      "stateMutability": "view",
      "type": "function"
    },
    {
      "inputs": [],
      "name": "feeRecipient",
      "outputs": [
        {
          "internalType": "address",
          "name": "",
          "type": "address"
        }
      ],
      "stateMutability": "view",
      "type": "function"
    },
    {
      "inputs": [],
      "name": "graduateNow",
      "outputs": [],
      "stateMutability": "nonpayable",
      "type": "function"
    },
    {
      "inputs": [],
      "name": "graduated",
      "outputs": [
        {
          "internalType": "bool",
          "name": "",
          "type": "bool"
        }
      ],
      "stateMutability": "view",
      "type": "function"
    },
    {
      "inputs": [],
      "name": "graduatedAt",
      "outputs": [
        {
          "internalType": "uint256",
          "name": "",
          "type": "uint256"
        }
      ],
      "stateMutability": "view",
      "type": "function"
    },
    {
      "inputs": [],
      "name": "graduationTargetEth",
      "outputs": [
        {
          "internalType": "uint256",
          "name": "",
          "type": "uint256"
        }
      ],
      "stateMutability": "view",
      "type": "function"
    },
    {
      "inputs": [],
      "name": "launchLiveDexCurve",
      "outputs": [],
      "stateMutability": "nonpayable",
      "type": "function"
    },
    {
      "inputs": [],
      "name": "launchLiveDexCurveV3",
      "outputs": [],
      "stateMutability": "nonpayable",
      "type": "function"
    },
    {
      "inputs": [],
      "name": "liveDexCurve",
      "outputs": [
        {
          "internalType": "bool",
          "name": "",
          "type": "bool"
        }
      ],
      "stateMutability": "view",
      "type": "function"
    },
    {
      "inputs": [],
      "name": "liveDexCurveV3",
      "outputs": [
        {
          "internalType": "bool",
          "name": "",
          "type": "bool"
        }
      ],
      "stateMutability": "view",
      "type": "function"
    },
    {
      "inputs": [],
      "name": "lpRecipient",
      "outputs": [
        {
          "internalType": "address",
          "name": "",
          "type": "address"
        }
      ],
      "stateMutability": "view",
      "type": "function"
    },
    {
      "inputs": [],
      "name": "migratedDexV3",
      "outputs": [
        {
          "internalType": "bool",
          "name": "",
          "type": "bool"
        }
      ],
      "stateMutability": "view",
      "type": "function"
    },
    {
      "inputs": [],
      "name": "migratedPair",
      "outputs": [
        {
          "internalType": "address",
          "name": "",
          "type": "address"
        }
      ],
      "stateMutability": "view",
      "type": "function"
    },
    {
      "inputs": [
        {
          "internalType": "uint256",
          "name": "ethAmountIn",
          "type": "uint256"
        }
      ],
      "name": "quoteBuy",
      "outputs": [
        {
          "internalType": "uint256",
          "name": "tokensOut",
          "type": "uint256"
        },
        {
          "internalType": "uint256",
          "name": "feePaid",
          "type": "uint256"
        }
      ],
      "stateMutability": "view",
      "type": "function"
    },
    {
      "inputs": [
        {
          "internalType": "uint256",
          "name": "tokenAmountIn",
          "type": "uint256"
        }
      ],
      "name": "quoteSell",
      "outputs": [
        {
          "internalType": "uint256",
          "name": "ethOut",
          "type": "uint256"
        },
        {
          "internalType": "uint256",
          "name": "feePaid",
          "type": "uint256"
        }
      ],
      "stateMutability": "view",
      "type": "function"
    },
    {
      "inputs": [
        {
          "internalType": "uint256",
          "name": "tokenAmount",
          "type": "uint256"
        }
      ],
      "name": "seed",
      "outputs": [],
      "stateMutability": "nonpayable",
      "type": "function"
    },
    {
      "inputs": [],
      "name": "seeded",
      "outputs": [
        {
          "internalType": "bool",
          "name": "",
          "type": "bool"
        }
      ],
      "stateMutability": "view",
      "type": "function"
    },
    {
      "inputs": [
        {
          "internalType": "uint256",
          "name": "tokenAmountIn",
          "type": "uint256"
        },
        {
          "internalType": "uint256",
          "name": "minEthOut",
          "type": "uint256"
        }
      ],
      "name": "sell",
      "outputs": [
        {
          "internalType": "uint256",
          "name": "ethOut",
          "type": "uint256"
        }
      ],
      "stateMutability": "nonpayable",
      "type": "function"
    },
    {
      "inputs": [],
      "name": "spotPrice",
      "outputs": [
        {
          "internalType": "uint256",
          "name": "",
          "type": "uint256"
        }
      ],
      "stateMutability": "view",
      "type": "function"
    },
    {
      "inputs": [],
      "name": "targetProgressBps",
      "outputs": [
        {
          "internalType": "uint256",
          "name": "",
          "type": "uint256"
        }
      ],
      "stateMutability": "view",
      "type": "function"
    },
    {
      "inputs": [],
      "name": "token",
      "outputs": [
        {
          "internalType": "address",
          "name": "",
          "type": "address"
        }
      ],
      "stateMutability": "view",
      "type": "function"
    },
    {
      "inputs": [],
      "name": "tokenReserve",
      "outputs": [
        {
          "internalType": "uint256",
          "name": "",
          "type": "uint256"
        }
      ],
      "stateMutability": "view",
      "type": "function"
    },
    {
      "inputs": [],
      "name": "triggerGraduation",
      "outputs": [],
      "stateMutability": "nonpayable",
      "type": "function"
    },
    {
      "inputs": [],
      "name": "v3Fee",
      "outputs": [
        {
          "internalType": "uint24",
          "name": "",
          "type": "uint24"
        }
      ],
      "stateMutability": "view",
      "type": "function"
    },
    {
      "inputs": [],
      "name": "v3PositionManager",
      "outputs": [
        {
          "internalType": "address",
          "name": "",
          "type": "address"
        }
      ],
      "stateMutability": "view",
      "type": "function"
    },
    {
      "inputs": [],
      "name": "v3TokenId",
      "outputs": [
        {
          "internalType": "uint256",
          "name": "",
          "type": "uint256"
        }
      ],
      "stateMutability": "view",
      "type": "function"
    },
    {
      "inputs": [],
      "name": "virtualEthReserve",
      "outputs": [
        {
          "internalType": "uint256",
          "name": "",
          "type": "uint256"
        }
      ],
      "stateMutability": "view",
      "type": "function"
    },
    {
      "inputs": [],
      "name": "virtualTokenReserve",
      "outputs": [
        {
          "internalType": "uint256",
          "name": "",
          "type": "uint256"
        }
      ],
      "stateMutability": "view",
      "type": "function"
    }
  ],
  "bytecode": "0x601f6200346438819003918201601f19166101009081019290916001600160401b0384118385101762000470578161016092849260409687528339810103126200046b576200004e8162000486565b60206200005d81840162000486565b6200006a85850162000486565b91606085015160808601519160a087015160c0880151906200008f60e08a0162000486565b946200009f6101008b0162000486565b94610140620000b26101208d0162000486565b9b01519762ffffff89169a8b8a036200046b576001600160a01b039a818c161562000435578b831615620003fd578b16988915620003b85761012c8411620003845784156200033f578515620002fa578615620002c357908b8099989796959493921696876200025f575b5060a05260805260018060a01b03199788600054161760005560015560c05260e0526004558360055416176005551690600654161760065560075492156000146200025957506127105b62ffffff60a01b60a09190911b1692166001600160b81b03199190911617176007553460025551612fc890816200049c823960805181818161027201528181610913015281816109dc01528181610b9101528181610f04015281816110260152611188015260a0518181816101e0015281816104cb0152818161071901528181610a3b0152818161125e0152818161210b015281816126880152818161276601528181612c1f01528181612df10152612f17015260c051818181610d0a01528181611b280152818161253d01526125cb015260e051818181610e7101528181611af50152818161257201526125fc0152f35b62000167565b9091929394959697988916156200028057908b98979695949392916200011d565b6064908f519062461bcd60e51b82526004820152601560248201527f6c7020726563697069656e7420726571756972656400000000000000000000006044820152fd5b508d5162461bcd60e51b815260048101889052600f60248201526e1d185c99d95d081c995c5d5a5c9959608a1b6044820152606490fd5b508d5162461bcd60e51b815260048101889052601660248201527f7669727475616c20746f6b656e207265717569726564000000000000000000006044820152606490fd5b508d5162461bcd60e51b815260048101889052601460248201527f7669727475616c206574682072657175697265640000000000000000000000006044820152606490fd5b508d5162461bcd60e51b815260048101889052600c60248201526b0cccaca40e8dede40d0d2ced60a31b6044820152606490fd5b508d5162461bcd60e51b815260048101889052601660248201527f66656520726563697069656e74207265717569726564000000000000000000006044820152606490fd5b508d5162461bcd60e51b815260048101889052601060248201526f199858dd1bdc9e481c995c5d5a5c995960821b6044820152606490fd5b508d5162461bcd60e51b815260048101889052600e60248201526d1d1bdad95b881c995c5d5a5c995960921b6044820152606490fd5b600080fd5b634e487b7160e01b600052604160045260246000fd5b51906001600160a01b03821682036200046b5756fe6080604052600436101561001257600080fd5b60003560e01c806301c587fa146111715780630758d924146111485780630cc4574d146111225780631ad15bbc146110f957806324a9d853146110db578063252177241461100f5780632760eca114610ff45780632a2c697214610ed85780632b852de214610eba578063334041a614610e94578063343ee3b714610e5957806339406c5014610e30578063398482d814610e0d5780633de1d8a414610de75780634329742d14610d9d578063452e68dd14610d745780634690484014610d4b5780634beb394c14610d2d57806352b86d2b14610cf25780637f544e4914610cd45780638c575aa314610b5757806395564837146109b8578063a64190c41461098e578063c1abbe0814610968578063c446795a14610942578063c45a0155146108fd578063cbcb3171146108df578063d62ccb3f146108c1578063d79875eb1461063e578063d96a094a146103d5578063e1a45218146103b8578063e3818eb814610253578063e7c2b7721461022d578063f95a02d01461020f578063fc0c546a146101ca5763fccc2813146101a857600080fd5b346101c55760003660031901126101c557602060405161dead8152f35b600080fd5b346101c55760003660031901126101c5576040517f00000000000000000000000000000000000000000000000000000000000000006001600160a01b03168152602090f35b346101c55760003660031901126101c5576020600454604051908152f35b346101c55760003660031901126101c557602060ff60075460c01c166040519015158152f35b346101c55760003660031901126101c5576001600160a01b03610299337f0000000000000000000000000000000000000000000000000000000000000000831614611893565b6007906103897f5cfc9ea0e95e86463d8dacd6c53993376a8afab5437e80a8a98d57d7a8b0f2348354926102d360ff8560e01c16156118ce565b60ff60e01b19938416600160e01b178086556103149060ff906102fb60b882901c8316611907565b61030a828260c01c1615611945565b60c81c1615611985565b61032160025415156119c2565b61033081600554161515611f27565b6103393061273d565b50885462ffffff60c81b1916600160c81b178955600880546001600160a01b0319169190951690811790945560408051938452602084019290925290820152426060820152909281906080820190565b0390a2610394612b46565b90506004548110156103a9575b508154169055005b6103b290612237565b826103a1565b346101c55760003660031901126101c55760206040516127108152f35b6020806003193601126101c5576007546103f560ff8260e01c16156118ce565b60ff60e01b19908116600160e01b17600781905561042e9060ff9061041f60b882901c8316611907565b61030a828260c01c1615611da3565b341561060a57612710610443600154346119ff565b049061044f8234611c43565b916104598361252f565b92610465841515611ddb565b610473600435851015611e1d565b600354908185116105cc576104979161048f8692600254611ac3565b600255611c43565b600355806105a4575b60405163a9059cbb60e01b815233600482015260248101849052848160448160006001600160a01b037f0000000000000000000000000000000000000000000000000000000000000000165af1801561059857600090610562575b6105059150611e61565b7fbeae048c6d270d9469f86cf6e8fedda3c60ad770f16c24c9fc131c8e9a09101d6040518061054886339534846040919493926060820195825260208201520152565b0390a261055361262c565b60075416600755604051908152f35b508481813d8311610591575b6105788183611d0d565b810103126101c55761058c61050591611e54565b6104fb565b503d61056e565b6040513d6000823e3d90fd5b6105c760008080808560018060a01b038254165af16105c1611ea5565b50611ee5565b6104a0565b60405162461bcd60e51b8152600481018790526016602482015275696e73756666696369656e74206c697175696469747960501b6044820152606490fd5b60405162461bcd60e51b815260048101839052600c60248201526b195d1a081c995c5d5a5c995960a21b6044820152606490fd5b346101c55760403660031901126101c5576004356007549061066660ff8360e01c16156118ce565b60ff60e01b19918216600160e01b1760078190556106909060ff9061041f60b882901c8316611907565b61069b811515611cc9565b6106a4816125bf565b916106b0831515611ddb565b600254831161087c576127106106c8600154856119ff565b04916106d48385611c43565b926106e3602435851015611e1d565b6040516323b872dd60e01b8152336004820152306024820152604481018390526020956001600160a01b039190878260648160007f000000000000000000000000000000000000000000000000000000000000000088165af191821561059857600092610840575b5061075861076f92611e61565b61076485600354611ac3565b600355600254611c43565b600255600080808088335af1610783611ea5565b501561080557816107d591817f846c37eef631e0943682d87352ec117c20008eb7f425c9b85ac011a6d4774cc0946107e7575b5050604080519485526020850187905284015233929081906060820190565b0390a260075416600755604051908152f35b6000808080936107fe958254165af16105c1611ea5565b87816107b6565b60405162461bcd60e51b8152600481018790526013602482015272195d1a081d1c985b9cd9995c8819985a5b1959606a1b6044820152606490fd5b91508782813d8311610875575b6108578183611d0d565b810103126101c55761075861086e61076f93611e54565b925061074b565b503d61084d565b60405162461bcd60e51b815260206004820152601860248201527f696e73756666696369656e7420657468207265736572766500000000000000006044820152606490fd5b346101c55760003660031901126101c5576020600254604051908152f35b346101c55760003660031901126101c5576020600354604051908152f35b346101c55760003660031901126101c5576040517f00000000000000000000000000000000000000000000000000000000000000006001600160a01b03168152602090f35b346101c55760003660031901126101c557602060ff60075460c81c166040519015158152f35b346101c55760003660031901126101c557602060ff60075460d81c166040519015158152f35b346101c55760203660031901126101c55760406109ac600435611d2f565b82519182526020820152f35b346101c5576020806003193601126101c5576001600160a01b0390600435610a03337f0000000000000000000000000000000000000000000000000000000000000000851614611893565b6007549260ff8460b81c16610b215782602491610a21841515611cc9565b6040516370a0823160e01b815230600482015292839182907f0000000000000000000000000000000000000000000000000000000000000000165afa8015610598578291600091610af0575b5010610ab55760ff60b81b19909216600160b81b1760075560038290556040519182527fa71ed34ff06af8d6865a8f541aae52d72fa89f0e5ee15f01d48fa6c62c85691491a1005b60405162461bcd60e51b8152600481018390526013602482015272696e73756666696369656e7420746f6b656e7360681b6044820152606490fd5b809250848092503d8311610b1a575b610b098183611d0d565b810103126101c55781905185610a6d565b503d610aff565b60405162461bcd60e51b815260048101849052600e60248201526d185b1c9958591e481cd95959195960921b6044820152606490fd5b346101c55760603660031901126101c557610b7061187d565b6024356001600160a01b0381811692908383036101c55760443590610bb8817f0000000000000000000000000000000000000000000000000000000000000000163314611893565b610bca60ff60075460c01c1615611945565b8115610c9d57821680610c53575b907fbcdc4bff84f936019028a7bcbef6b449550d6334606377b822720e57e94276c494610c4e926bffffffffffffffffffffffff60a01b908160055416176005556006541617600655806004556040519384938460409194939294606082019560018060a01b0380921683521660208201520152565b0390a1005b908415610c605790610bd8565b60405162461bcd60e51b81526020600482015260156024820152741b1c081c9958da5c1a595b9d081c995c5d5a5c9959605a1b6044820152606490fd5b60405162461bcd60e51b815260206004820152600f60248201526e1d185c99d95d081c995c5d5a5c9959608a1b6044820152606490fd5b346101c55760003660031901126101c5576020600a54604051908152f35b346101c55760003660031901126101c55760206040517f00000000000000000000000000000000000000000000000000000000000000008152f35b346101c55760203660031901126101c55760406109ac600435611c50565b346101c55760003660031901126101c5576000546040516001600160a01b039091168152602090f35b346101c55760003660031901126101c5576006546040516001600160a01b039091168152602090f35b346101c55760003660031901126101c557600754610dc160ff8260e01c16156118ce565b60ff60e01b19908116600160e01b17600755610ddb611bdf565b60075416600755600080f35b346101c55760003660031901126101c557602062ffffff60075460a01c16604051908152f35b346101c55760003660031901126101c5576020610e28611ad0565b604051908152f35b346101c55760003660031901126101c5576007546040516001600160a01b039091168152602090f35b346101c55760003660031901126101c55760206040517f00000000000000000000000000000000000000000000000000000000000000008152f35b346101c55760003660031901126101c557602060ff60075460b81c166040519015158152f35b346101c55760003660031901126101c5576020600954604051908152f35b346101c55760403660031901126101c557610ef161187d565b602435906001600160a01b0390610f2b337f0000000000000000000000000000000000000000000000000000000000000000841614611893565b16908115610fba5761012c8111610f865760207fe42708d93b95810922305119a3271ca42233da9ebe1e1e503f0e887817a32c7a91836bffffffffffffffffffffffff60a01b600054161760005580600155604051908152a2005b60405162461bcd60e51b815260206004820152600c60248201526b0cccaca40e8dede40d0d2ced60a31b6044820152606490fd5b60405162461bcd60e51b81526020600482015260126024820152711c9958da5c1a595b9d081c995c5d5a5c995960721b6044820152606490fd5b346101c55760003660031901126101c5576020610e28611a32565b346101c55760003660031901126101c557611054337f00000000000000000000000000000000000000000000000000000000000000006001600160a01b031614611893565b60075461106760ff8260e01c16156118ce565b60ff60e01b19908116600160e01b1760078190556110919060ff906102fb60b882901c8316611907565b60025461109f8115156119c2565b60035460405191825260208201527f5d6dc6b9835f5448ae2351719684f59735b30dfa8e62677cc6f9e98bd4c08f7f60403392a2610ddb611f87565b346101c55760003660031901126101c5576020600154604051908152f35b346101c55760003660031901126101c5576008546040516001600160a01b039091168152602090f35b346101c55760003660031901126101c557602060ff60075460d01c166040519015158152f35b346101c55760003660031901126101c5576005546040516001600160a01b039091168152602090f35b346101c55760003660031901126101c5576111b6337f00000000000000000000000000000000000000000000000000000000000000006001600160a01b031614611893565b6007546111c960ff8260e01c16156118ce565b60ff60e01b198116600160e01b1760078190556111ec60b882901c60ff16611907565b6111fc60ff8260c01c1615611945565b61120c60ff8260c81c1615611985565b600254611838576001600160a01b038216156117fe576003805460009091556040516312a9293f60e21b815290916020826004816001600160a01b0388165afa918215610598576000926117dd575b507f0000000000000000000000000000000000000000000000000000000000000000936001600160a01b0383811690861610156117d757845b6001600160a01b0384811690871610156117d157835b6001600160a01b0385811690881610156117bc576a01b34f91b7533ca6b68126915b6001600160a01b0386811690891610156117b257620338ff195b6001600160a01b03878116908a1610156117a857620d89a0935b6040516309f56ab160e11b81526001600160a01b038481166004830152858116602483015260a09890981c62ffffff166044820152908716606482015295602090879060849082906000908a165af195861561059857600096611777575b5060075460405163095ea7b360e01b81526001600160a01b0391821660048201526000602482018190529091602091839160449183918f165af180156105985761173e575b5060075460405163095ea7b360e01b81526001600160a01b039091166004820152602481018990526020818b816000816044810103926001600160a01b03165af1801561059857611705575b506001600160a01b03878116908a1610156116fe57875b6001600160a01b03888116908b1610156116f7576000905b62ffffff60075460a01c1695610e10420142116116e157604051938461016081011067ffffffffffffffff610160870111176116cb57610160850160409081526001600160a01b03968716865296861660208601908152878601988952600291820b6060870190815292820b608087810191825260a0880195865260c08801968752600060e089018181526101008a01828152306101208c0190815242610e10016101408d019081529d51634418b22b60e11b81529b518d1660048d015295518c1660248c01529c5162ffffff1660448b01529551850b60648a0152915190930b6084880152935160a4870152935160c4860152905160e48501529551610104840152905183166101248301529251610144820152938492610164928492165af180156105985760009560009460009360009361165d575b507f5cfc9ea0e95e86463d8dacd6c53993376a8afab5437e80a8a98d57d7a8b0f2349660809690956001600160801b039591949093919290916001600160a01b0391821691161015611654575080945b81811161163a575b50506007805462ffffff60c81b19166201010160c81b179055600880546001600160a01b0319166001600160a01b039290921691821790556009969096556040805193845260006020850152911690820152426060820152a261160f612b46565b905060045481101561162b575b6007805460ff60e01b19169055005b61163490612237565b8061161c565b61164c9161164791611c43565b612664565b5083886115ae565b905080946115a6565b9694975094509150506080843d6080116116c3575b8161167f60809383611d0d565b810103126101c5578351936020810151956001600160801b03871687036101c557604082015160609092015195969395939490939192906001600160801b03611556565b3d9150611672565b634e487b7160e01b600052604160045260246000fd5b634e487b7160e01b600052601160045260246000fd5b889061141e565b6000611406565b6020813d602011611736575b8161171e60209383611d0d565b810103126101c55761172f90611e54565b50896113ef565b3d9150611711565b6020813d60201161176f575b8161175760209383611d0d565b810103126101c55761176890611e54565b50896113a3565b3d915061174a565b61179a91965060203d6020116117a1575b6117928183611d0d565b810190611f68565b948961135e565b503d611788565b6203390093611300565b620d899f196112e6565b6d968cc63f21ed04d38c2ab4825f90916112cc565b856112aa565b82611294565b6117f791925060203d6020116117a1576117928183611d0d565b908461125b565b60405162461bcd60e51b81526020600482015260126024820152711d8cc81b585b9859d95c881b9bdd081cd95d60721b6044820152606490fd5b60405162461bcd60e51b815260206004820152601960248201527f6574682072657365727665206e6f7420737570706f72746564000000000000006044820152606490fd5b600435906001600160a01b03821682036101c557565b1561189a57565b60405162461bcd60e51b815260206004820152600c60248201526b6f6e6c7920666163746f727960a01b6044820152606490fd5b156118d557565b60405162461bcd60e51b815260206004820152600a6024820152697265656e7472616e637960b01b6044820152606490fd5b1561190e57565b60405162461bcd60e51b815260206004820152600f60248201526e1c1bdbdb081b9bdd081cd959591959608a1b6044820152606490fd5b1561194c57565b60405162461bcd60e51b8152602060048201526011602482015270185b1c9958591e4819dc98591d585d1959607a1b6044820152606490fd5b1561198c57565b60405162461bcd60e51b815260206004820152600e60248201526d646578206375727665206c69766560901b6044820152606490fd5b156119c957565b60405162461bcd60e51b815260206004820152600e60248201526d6e6f20657468207265736572766560901b6044820152606490fd5b818102929181159184041417156116e157565b8115611a1c570490565b634e487b7160e01b600052601260045260246000fd5b6004548015611abd5760075460ff8160c81c16908115611a95575b5015611a8d57611a5b612b46565b90505b61271091828202918083048414901517156116e157611a7c91611a12565b90808211611a88575090565b905090565b600254611a5e565b60ff915060c01c1680611aa9575b38611a4d565b506008546001600160a01b03161515611aa3565b50600090565b919082018092116116e157565b60075460ff8160c81c16908115611b90575b5080611b7c575b611b7457611b1a6003547f000000000000000000000000000000000000000000000000000000000000000090611ac3565b8015611abd57611b4d6002547f000000000000000000000000000000000000000000000000000000000000000090611ac3565b90670de0b6b3a7640000918281029281840414901517156116e157611b7191611a12565b90565b611b71612036565b506008546001600160a01b03161515611ae9565b60ff915060c01c1638611ae2565b15611ba557565b60405162461bcd60e51b81526020600482015260126024820152711d185c99d95d081b9bdd081c995858da195960721b6044820152606490fd5b60ff600754611bf2828260b81c16611907565b611c01828260c01c1615611945565b60c81c16611c2357611c196002546004541115611b9e565b611c21611f87565b565b611c21611c2e612b46565b9050611c3e600454821015611b9e565b612237565b919082039182116116e157565b60075460ff8160b81c1615908115611cba575b8115611cac575b508015611ca4575b611c9b57611c98611c93612710611c8b600154856119ff565b048093611c43565b61252f565b91565b50600090600090565b508015611c72565b60ff915060c81c1638611c6a565b905060ff8160c01c1690611c63565b15611cd057565b60405162461bcd60e51b81526020600482015260156024820152741d1bdad95b88185b5bdd5b9d081c995c5d5a5c9959605a1b6044820152606490fd5b90601f8019910116810190811067ffffffffffffffff8211176116cb57604052565b60075460ff8160b81c1615908115611d94575b8115611d86575b508015611d7e575b611c9b57611d5e906125bf565b8015611c9b57611c98612710611d76600154846119ff565b048092611c43565b508015611d51565b60ff915060c81c1638611d49565b905060ff8160c01c1690611d42565b15611daa57565b60405162461bcd60e51b815260206004820152600960248201526819dc98591d585d195960ba1b6044820152606490fd5b15611de257565b60405162461bcd60e51b81526020600482015260136024820152721a5b9cdd59999a58da595b9d081bdd5d1c1d5d606a1b6044820152606490fd5b15611e2457565b60405162461bcd60e51b8152602060048201526008602482015267736c69707061676560c01b6044820152606490fd5b519081151582036101c557565b15611e6857565b60405162461bcd60e51b81526020600482015260156024820152741d1bdad95b881d1c985b9cd9995c8819985a5b1959605a1b6044820152606490fd5b3d15611ee0573d9067ffffffffffffffff82116116cb5760405191611ed4601f8201601f191660200184611d0d565b82523d6000602084013e565b606090565b15611eec57565b60405162461bcd60e51b8152602060048201526013602482015272199959481d1c985b9cd9995c8819985a5b1959606a1b6044820152606490fd5b15611f2e57565b60405162461bcd60e51b815260206004820152601260248201527119195e081c9bdd5d195c881b9bdd081cd95d60721b6044820152606490fd5b908160209103126101c557516001600160a01b03811681036101c55790565b6120227f71aa8c3702dbbc54247a4e6446450e64a46250dd72707a247ddb01d72eaef44560018060a01b03611fc181600554161515611f27565b6007805460ff60c01b1916600160c01b17905542600a55600654611fe690821661273d565b50600880546001600160a01b03191695909116948517905560408051938452602084019290925290820152426060820152909281906080820190565b0390a2565b519061ffff821682036101c557565b60075460ff8160d81c1680612223575b6120935750612053612b46565b908015801561208b575b61208457670de0b6b3a7640000918281029281840414901517156116e157611b7191611a12565b5050600090565b50811561205d565b600854604051633850c7bd60e01b81526001600160a01b039160e0908290600490829086165afa801561059857829160009161218b575b501680156121835760206120df8284936119ff565b936004604051809481936312a9293f60e21b8352165afa8015610598578291600091612164575b5016907f00000000000000000000000000000000000000000000000000000000000000001610612144578015611a1c576503782dace9d960d21b0490565b670de0b6b3a7640000908181029181830414901517156116e15760c01c90565b61217d915060203d6020116117a1576117928183611d0d565b38612106565b505050600090565b90915060e0813d60e01161221b575b816121a760e09383611d0d565b810103126122175780519183831683036122145760208201518060020b03612214576121d560408301612027565b506121e260608301612027565b506121ef60808301612027565b5060a082015160ff81160361221457509061220d60c0849301611e54565b50386120ca565b80fd5b5080fd5b3d915061219a565b506008546001600160a01b03161515612046565b600754600060ff8260c81c16156124f5576008546001600160a01b03919082169081156124c15761ffff60c01b198416600160c01b17600781905542600a5560d01c60ff1691821561245857508260095494856123d5575b50506007805460ff60d01b19169055905b83151590816123cc575b50612307575b507f6d6435bd27368eeaa8bea9975846b4ffc3d4864faabcec7e007dc6014f4ea055916120226122de612efc565b600854604080519788526020880194909452928601524260608601529116929081906080820190565b806020836008541660446040518094819363a9059cbb60e01b835261dead60048401528960248401525af19182156123c0578092612383575b50501561234d57386122b0565b60405162461bcd60e51b815260206004820152600e60248201526d1b1c08189d5c9b8819985a5b195960921b6044820152606490fd5b9091506020823d6020116123b8575b8161239f60209383611d0d565b8101031261221457506123b190611e54565b3880612340565b3d9150612392565b604051903d90823e3d90fd5b905015386122aa565b16803b15612217578180916064604051809481936323b872dd60e01b835230600484015261dead60248401528a60448401525af1801561244d57612421575b506009819055823861228f565b67ffffffffffffffff81116124395760405238612414565b634e487b7160e01b82526041600452602482fd5b6040513d84823e3d90fd5b602491929450602090604051928380926370a0823160e01b82523060048301525afa90811561244d57829161248f575b50926122a0565b90506020813d6020116124b9575b816124aa60209383611d0d565b81010312612217575138612488565b3d915061249d565b60405162461bcd60e51b815260206004820152600c60248201526b1c185a5c881b9bdd081cd95d60a21b6044820152606490fd5b60405162461bcd60e51b8152602060048201526012602482015271646578206375727665206e6f74206c69766560701b6044820152606490fd5b8015611abd576125626002547f000000000000000000000000000000000000000000000000000000000000000090611ac3565b906125ae600354926125a86125977f000000000000000000000000000000000000000000000000000000000000000086611ac3565b936125a285846119ff565b92611ac3565b90611a12565b8082111561218357611a7c91611c43565b600254906125ae6125f07f000000000000000000000000000000000000000000000000000000000000000084611ac3565b916125a86126216003547f000000000000000000000000000000000000000000000000000000000000000090611ac3565b916125a283866119ff565b60075460ff8160c01c16908115612656575b50611c215760025460045411611c2157611c21611f87565b60ff915060c81c163861263e565b8015611abd57604051630852cd8d60e31b81526004810182905260208160248160007f00000000000000000000000000000000000000000000000000000000000000006001600160a01b03165af190811561059857600091612703575b50156126ca5790565b60405162461bcd60e51b81526020600482015260116024820152701d1bdad95b88189d5c9b8819985a5b1959607a1b6044820152606490fd5b90506020813d602011612735575b8161271e60209383611d0d565b810103126101c55761272f90611e54565b386126c1565b3d9150612711565b6000916001600160a01b0391821690838215612af65760035491600254948660035586600255807f0000000000000000000000000000000000000000000000000000000000000000169681600554169181604091825163095ea7b360e01b90818152600496878201528360248201528c816044816020998a945af18015612aec579186918b93612aae575b50600554865191825284166001600160a01b031688820190815260208101939093529182908e9082908790829060400103925af18015612aa457612a6c575b508060055416610e104201804211612a59578b918d9186519c8d9363f305d71960e01b85528a8501528c6024850152866044850152866064850152608484015260a4830152815a9360c492606095f1998a15612a4f57829a839a8491612a0d575b5099809b809d846005541687519063c45a015560e01b825289828c81845afa9182156129e4578b9392918b918a936129ee575b508a516315ab88c960e31b815294859182905afa9283156129e457878b93928d928b966129be575b509060449291818d51978896879563e6a4390560e01b8752860152166024840152165afa9081156129b4578691612997575b509a81811161297f575b5050808211612912575b50505050505050565b83926129218493928493611c43565b908254165af161292f611ea5565b501561293e5780808080612909565b5162461bcd60e51b815291820152601860248201527f6574682064757374207472616e73666572206661696c65640000000000000000604482015260649150fd5b61298f929a509061164791611c43565b9738806128ff565b6129ae9150883d8a116117a1576117928183611d0d565b386128f5565b87513d88823e3d90fd5b604493929196506129db90863d88116117a1576117928183611d0d565b959091926128c3565b89513d8a823e3d90fd5b612a06919350823d84116117a1576117928183611d0d565b913861289b565b9b5050985060608a3d606011612a47575b81612a2b60609383611d0d565b810103126122175789519883858c01519b0151999a9938612868565b3d9150612a1e565b83513d84823e3d90fd5b634e487b7160e01b845260118752602484fd5b8481813d8311612a9d575b612a818183611d0d565b81010312612a9957612a9290611e54565b5038612807565b8280fd5b503d612a77565b84513d85823e3d90fd5b8281939294503d8311612ae5575b612ac68183611d0d565b81010312612ae1578991612ada8792611e54565b50386127c8565b8380fd5b503d612abc565b85513d86823e3d90fd5b60405162461bcd60e51b81526020600482015260146024820152731b1c081c9958d95a5d995c881c995c5d5a5c995960621b6044820152606490fd5b51906001600160701b03821682036101c557565b600854600091906001600160a01b03908390819083168015612ef45760075460ff8160d81c16612da357508360055416908115612d9a57604094855180936315ab88c960e31b825281600460209384935afa938415612d90578994612d71575b508651630dfe168160e01b8152908082600481875afa918215612d67578a92612d48575b50875163d21220a760e01b8152938185600481845afa948515612d3e578b95612d17575b509060606004928a5193848092630240bc6b60e21b82525afa9a8b15612d0c578099819c612cad575b5050505081807f00000000000000000000000000000000000000000000000000000000000000001691169281841480612ca0575b15612c6757505050505050506001600160701b03809116921690565b9598949796958216149283612c94575b505050612c82575050565b6001600160701b039081169450169150565b16149050388080612c77565b5082851683821614612c4b565b91939b509198506060893d606011612d04575b81612ccd60609383611d0d565b8101031261221757612ce9612ce18a612b32565b938a01612b32565b98015163ffffffff8116036122145750959738808080612c17565b3d9150612cc0565b8951903d90823e3d90fd5b82919550612d356060916004943d85116117a1576117928183611d0d565b95919250612bee565b89513d8d823e3d90fd5b81612d609293503d84116117a1576117928183611d0d565b9038612bca565b88513d8c823e3d90fd5b81612d899295503d86116117a1576117928183611d0d565b9238612ba6565b87513d8b823e3d90fd5b50505050508190565b9250949050826040958651936312a9293f60e21b8552846004816020958694165afa938415612eea578394612ecb575b5086516370a0823160e01b80825260048201839052909583876024817f000000000000000000000000000000000000000000000000000000000000000085165afa968715612ec1578597612e8e575b508392916024918a51978894859384526004840152165afa958615612e8357508195612e50575b5050509190565b909180939550813d8311612e7c575b612e698183611d0d565b8101031261221457505191388080612e49565b503d612e5f565b51913d9150823e3d90fd5b9096508381813d8311612eba575b612ea68183611d0d565b81010312612eb657519583612e22565b8480fd5b503d612e9c565b89513d87823e3d90fd5b612ee3919450823d84116117a1576117928183611d0d565b9238612dd3565b87513d85823e3d90fd5b505050508190565b6040516370a0823160e01b81523060048201526020816024817f00000000000000000000000000000000000000000000000000000000000000006001600160a01b03165afa90811561059857600091612f60575b508015611abd57611b7190612664565b90506020813d602011612f8a575b81612f7b60209383611d0d565b810103126101c5575138612f50565b3d9150612f6e56fea264697066735822122099d94b89887e277097556243b39d5582b3c47517b5d35fd712adf16acd5dca1264736f6c63430008180033",
  "linkReferences": {},
  "deployedLinkReferences": {}
}